C51 COMPILER V9.55   SC95F_GPIO                                                            12/28/2021 14:05:18 PAGE 1   
C51 COMPILER V9.55, COMPILATION OF MODULE SC95F_GPIO
OBJECT MODULE PLACED IN ..\Output\sc95f_gpio.obj
COMPILER INVOKED BY: C:\Keil_v5\C51\BIN\C51.exe ..\FWLib\SC95F_Lib\src\sc95f_gpio.c OMF2 INTVECTOR(0X0) DEFINE(SC95F8x1x
                    -) SMALL INCDIR(..\FWLib\SC95F_Lib\inc;..\User) BROWSE DEBUG OBJECTEXTEND OPTIMIZE(9,SIZE) CODE NOCOND SYMBOLS LISTINCLUD
                    -E PRINT(..\List\sc95f_gpio.lst) OBJECT(..\Output\sc95f_gpio.obj)
line level    source
   1         
   2         
   3         
   4         
   5         
   6         
   7         
   8         
   9         
  10         
  11          
  12          #include "sc95f_gpio.h"
   1      =1 
   2      =1 
   3      =1 
   4      =1 
   5      =1 
   6      =1 
   7      =1 
   8      =1 
   9      =1 
  10      =1 
  11      =1  
  12      =1  #ifndef _sc95f_GPIO_H_
  13      =1  #define _sc95f_GPIO_H_
  14      =1  
  15      =1  #include "sc95f.h"
   1      =2 
   2      =2 
   3      =2 
   4      =2 
   5      =2 
   6      =2 
   7      =2 
   8      =2 
   9      =2 
  10      =2 
  11      =2  
  12      =2  #ifndef _sc95f_H
  13      =2  #define _sc95f_H
  14      =2  
  15      =2 
  16      =2  
  17      =2  #ifdef SC95F8x1x
  18      =2  #include "SC95F8x1x_C.H"
   1      =3  
  11      =3  #ifndef _sc95f8x1x_H_
  12      =3  #define _sc95f8x1x_H_
  13      =3  
  14      =3  
  15      =3 
  16      =3  sfr   ACC       = 0xE0;        
  17      =3  sfr   B     = 0xF0;            
  18      =3  sfr   PSW       = 0xD0;        
  19      =3  sfr   DPS       = 0x86;        
  20      =3  sfr   DPH1      = 0x85;        
  21      =3  sfr   DPL1      = 0x84;        
  22      =3  sfr   DPH       = 0x83;        
  23      =3  sfr   DPL       = 0x82;        
  24      =3  sfr   SP        = 0x81;        
  25      =3                  
  26      =3  
  27      =3  
  28      =3  sfr   PCON      = 0x87;        
  29      =3  
  30      =3  
  31      =3  sfr   IP2   = 0XBA;    
  32      =3  sfr   IP1   = 0XB9;    
  33      =3  sfr   IP        = 0xB8;        
  34      =3  sfr   IE        = 0xA8;        
  35      =3  sfr   IE1   = 0XA9;    
  36      =3  sfr   IE2   = 0XAA;    
  37      =3  
  38      =3  
  39      =3  sfr   P5PH        = 0xDA;      
  40      =3  sfr       P5CON   = 0xD9;      
  41      =3  sfr   P5          = 0xD8;      
  42      =3  sfr   P4PH        = 0xC2;      
  43      =3  sfr       P4CON   = 0xC1;      
  44      =3  sfr   P4          = 0xC0;      
  45      =3  sfr   P3PH        = 0xB2;      
  46      =3  sfr       P3CON   = 0xB1;      
  47      =3  sfr   P3          = 0xB0;      
  48      =3  sfr   P2PH        = 0xA2;      
  49      =3  sfr       P2CON   = 0xA1;      
  50      =3  sfr   P2          = 0xA0;      
  51      =3  sfr   P1PH    = 0x92;  
  52      =3  sfr       P1CON   = 0x91;      
  53      =3  sfr   P1          = 0x90;      
  54      =3  sfr       P0PH    = 0x9B;      
  55      =3  sfr       P0CON   = 0x9A;      
  56      =3  sfr   P0          = 0x80;      
  57      =3  sfr   IOHCON0 = 0x96;  
  58      =3  sfr   IOHCON1 = 0x97;  
  59      =3  
  60      =3  
  61      =3  sfr   TMCON       = 0x8E;  
  62      =3  sfr   TH1         = 0x8D;  
  63      =3  sfr   TH0         = 0x8C;      
  64      =3  sfr   TL1         = 0x8B;      
  65      =3  sfr   TL0         = 0x8A;      
  66      =3  sfr   TMOD        = 0x89;      
  67      =3  sfr   TCON        = 0x88;      
  68      =3  sfr   TXCON   = 0xC8;  
  69      =3  sfr   TXMOD   = 0xC9;  
  70      =3  sfr   RCAPXL  = 0xCA;  
  71      =3  sfr   RCAPXH  = 0xCB;  
  72      =3  sfr   TLX     = 0xCC;  
  73      =3  sfr   THX     = 0xCD;  
  74      =3  sfr   TXINX   = 0xCE;  
  75      =3  
  76      =3  
  77      =3  sfr       ADCCFG0 = 0xAB;      
  78      =3  sfr       ADCCFG1 = 0xAC;      
  79      =3  sfr       ADCCFG2 = 0xB5;      
  80      =3  sfr   ADCCON  = 0XAD;  
  81      =3  sfr   ADCVL       = 0xAE;      
  82      =3  sfr   ADCVH       = 0xAF;      
  83      =3  
  84      =3  
  85      =3  sfr   PWMMOD  = 0xD7;  
  86      =3  sfr   PWMFLT  = 0xD6;  
  87      =3  sfr   PWMDFR  = 0xD5;  
  88      =3  sfr   PWMCFG  = 0xD4;  
  89      =3  sfr   PWMCON  = 0xD3;  
  90      =3  
  91      =3 
  92      =3  sfr   BTMCON  = 0XFB;  
  93      =3  sfr   WDTCON  = 0xCF;  
  94      =3  
  95      =3  
  96      =3  
  97      =3  sfr   OTCON   = 0X8F;  
  98      =3  sfr   P0VO    = 0X9C;  
  99      =3  sfr   P1VO    = 0X94;  
 100      =3  sfr   P2VO    = 0XA3;  
 101      =3  sfr   P3VO    = 0XB3;  
 102      =3  
 103      =3  sfr   DDRCON  = 0X93;  
 104      =3  
 105      =3  
 106      =3  
 107      =3  sfr   INT0F   = 0XB4;  
 108      =3  sfr   INT0R   = 0XBB;  
 109      =3  sfr   INT1F   = 0XBC;  
 110      =3  sfr   INT1R   = 0XBD;  
 111      =3  sfr   INT2F   = 0XBE;  
 112      =3  sfr   INT2R   = 0XBF;  
 113      =3  
 114      =3  
 115      =3  sfr   IAPCTL  = 0xF6;  
 116      =3  sfr   IAPDAT  = 0xF5;  
 117      =3  sfr   IAPADE  = 0xF4;  
 118      =3  sfr   IAPADH  = 0xF3;  
 119      =3  sfr   IAPADL  = 0xF2;  
 120      =3  sfr   IAPKEY  = 0xF1;  
 121      =3  
 122      =3  
 123      =3  sfr   SCON    = 0X98;  
 124      =3  sfr   SBUF    = 0X99;  
 125      =3  
 126      =3  
 127      =3  sfr   US0CON0 = 0X95;  
 128      =3  sfr   US0CON1 = 0X9D;  
 129      =3  sfr   US0CON2 = 0X9E;  
 130      =3  sfr   US0CON3 = 0X9F;  
 131      =3  
 132      =3  
 133      =3  sfr   US1CON0 = 0XA4;  
 134      =3  sfr   US1CON1 = 0XA5;  
 135      =3  sfr   US1CON2 = 0XA6;  
 136      =3  sfr   US1CON3 = 0XA7;  
 137      =3  
 138      =3  
 139      =3  sfr   US2CON0 = 0XC4;  
 140      =3  sfr   US2CON1 = 0XC5;  
 141      =3  sfr   US2CON2 = 0XC6;  
 142      =3  sfr   US2CON3 = 0XC7;  
 143      =3  
 144      =3  sfr   OPINX   = 0XFE; 
 145      =3  sfr   OPREG   = 0XFF;
 146      =3  sfr   EXADH   = 0XF7;
 147      =3  
 148      =3  
 149      =3  sfr   CMPCFG  = 0XB6;  
 150      =3  sfr   CMPCON  = 0XB7;  
 151      =3  
 152      =3  
 153      =3  sfr   EXA0    = 0xE9;  
 154      =3  sfr   EXA1    = 0xEA;  
 155      =3  sfr   EXA2    = 0xEB;  
 156      =3  sfr   EXA3    = 0xEC;  
 157      =3  sfr   EXBL    = 0xED;  
 158      =3  sfr   EXBH    = 0xEE;  
 159      =3  sfr   OPERCON = 0xEF;  
 160      =3  
 161      =3  
 162      =3  sfr   CRCINX  = 0xFC;
 163      =3  sfr   CRCREG  = 0xFD;
 164      =3  
 165      =3  
 166      =3  
 167      =3  sbit  CY          = PSW^7;     
             -或者减法运算最高位有借位时
 168      =3  sbit  AC          = PSW^6;     
             -?
 169      =3  sbit  F0          = PSW^5;     
 170      =3  sbit  RS1         = PSW^4;     
 171      =3  sbit  RS0         = PSW^3;     
 172      =3  sbit  OV          = PSW^2;     
 173      =3  sbit  F1          = PSW^1;     
 174      =3  sbit  P       = PSW^0; 
 175      =3  
 176      =3  
 177      =3  sbit  TFX     = TXCON^7;
 178      =3  sbit  EXFX    = TXCON^6;
 179      =3  sbit  RCLKX   = TXCON^5;
 180      =3  sbit  TCLKX   = TXCON^4;
 181      =3  sbit  EXENX   = TXCON^3;
 182      =3  sbit  TRX         = TXCON^2;
 183      =3  sbit  TX      = TXCON^1;
 184      =3  sbit  CP      = TXCON^0;
 185      =3  
 186      =3  
 187      =3  sbit  IPADC       = IP^6;      
             -案摺?
 188      =3  sbit  IPT2        = IP^5;      
             -是 “高”
 189      =3  sbit  IPUART  = IP^4;  
             -高”
 190      =3  sbit  IPT1        = IP^3;      
             -权是 “高”
 191      =3  sbit  IPINT1  = IP^2;  
             -“高”
 192      =3  sbit  IPT0        = IP^1;      
             -权是 “高”
 193      =3  sbit  IPINT0  = IP^0;  
             -?“高”
 194      =3  
 195      =3  
 196      =3  sbit  EA          = IE^7;      
 197      =3  sbit  EADC    = IE^6;  
 198      =3  sbit  ET2     = IE^5;  
 199      =3  sbit  EUART   = IE^4;  
 200      =3  sbit  ET1     = IE^3;  
 201      =3  sbit  EINT1   = IE^2;  
 202      =3  sbit  ET0         = IE^1;      
 203      =3  sbit  EINT0   = IE^0;  
 204      =3  
 205      =3  
 206      =3  sbit  TF1         = TCON^7;    
             -时，硬件清“0”。
 207      =3  sbit  TR1         = TCON^6;    
 208      =3  sbit  TF0         = TCON^5;    
             -时，硬件清“0”。
 209      =3  sbit  TR0         = TCON^4;    
 210      =3  
 211      =3  
 212      =3  sbit  SM0         = SCON^7;
 213      =3  sbit  SM1         = SCON^6;
 214      =3  sbit  SM2         = SCON^5;
 215      =3  sbit  REN         = SCON^4;
 216      =3  sbit  TB8         = SCON^3;
 217      =3  sbit  RB8         = SCON^2;
 218      =3  sbit  TI          = SCON^1;
 219      =3  sbit  RI          = SCON^0;
 220      =3  
 221      =3  
 228      =3  sbit    P07     = P0^7;
 229      =3  sbit    P06     = P0^6;
 230      =3  sbit    P05     = P0^5;
 231      =3  sbit    P04     = P0^4;
 232      =3  sbit    P03     = P0^3;
 233      =3  sbit    P02     = P0^2;
 234      =3  sbit    P01     = P0^1;
 235      =3  sbit    P00     = P0^0;
 236      =3  
 237      =3  
 244      =3  sbit    P17     = P1^7;
 245      =3  sbit    P16     = P1^6;
 246      =3  sbit    P15     = P1^5;
 247      =3  sbit    P14     = P1^4;
 248      =3  sbit    P13     = P1^3;
 249      =3  sbit    P12     = P1^2;
 250      =3  sbit    P11     = P1^1;
 251      =3  sbit    P10     = P1^0;
 252      =3  
 253      =3  
 260      =3  sbit    P27     = P2^7;
 261      =3  sbit    P26     = P2^6;
 262      =3  sbit    P25     = P2^5;
 263      =3  sbit    P24     = P2^4;
 264      =3  sbit    P23     = P2^3;
 265      =3  sbit    P22     = P2^2;
 266      =3  sbit    P21     = P2^1;
 267      =3  sbit    P20     = P2^0;
 268      =3  
 269      =3  
 276      =3  sbit    P37     = P3^7;
 277      =3  sbit    P36     = P3^6;
 278      =3  sbit    P35     = P3^5;
 279      =3  sbit    P34     = P3^4;
 280      =3  sbit    P33     = P3^3;
 281      =3  sbit    P32     = P3^2;
 282      =3  sbit    P31     = P3^1;
 283      =3  sbit    P30     = P3^0;
 284      =3  
 285      =3  
 292      =3  sbit    P47     = P4^7;
 293      =3  sbit    P46     = P4^6;
 294      =3  sbit    P45     = P4^5;
 295      =3  sbit    P44     = P4^4;
 296      =3  sbit    P43     = P4^3;
 297      =3  sbit    P42     = P4^2;
 298      =3  sbit    P41     = P4^1;
 299      =3  sbit    P40     = P4^0;
 300      =3  
 301      =3  
 308      =3  sbit    P55     = P5^5;
 309      =3  sbit    P54     = P5^4;
 310      =3  sbit    P53     = P5^3;
 311      =3  sbit    P52     = P5^2;
 312      =3  sbit    P51     = P5^1;
 313      =3  sbit    P50     = P5^0;
 314      =3  
 315      =3                              
             -        
 320      =3  #define  SC95F8616_NIO_Init()   {P4CON|=0xC0,P5CON|=0x30;}                                                
             -
 321      =3  #define  SC95F8615_NIO_Init()   {P0CON|=0x0F,P1CON|=0xF0,P3CON|=0xF0,P4CON|=0xC0,P5CON|=0x30;}            
             -
 322      =3  #define  SC95F8613_NIO_Init()   {P0CON|=0x0F,P1CON|=0xF0,P3CON|=0xF0,P4CON|=0xC0,P5CON|=0x3F;}            
             -
 323      =3  #define  SC95F8612_NIO_Init()   {P0CON|=0x0F,P1CON|=0xF0,P2CON|=0xF0,P3CON|=0xFF,P4CON|=0xC0,P5CON|=0x3F;}
             -
 324      =3  #endif
  19      =2  #endif
  20      =2  #ifdef SC95F7x1x
  23      =2  #ifdef SC95F8x2x
  26      =2  #ifdef SC95F7x2x
  29      =2  
  30      =2  #define enableInterrupts()    EA=1       
  31      =2  #define disableInterrupts()   EA=0       
  32      =2   
  33      =2  #define     __I     volatile const   
  34      =2  #define     __O     volatile         
  35      =2  #define     __IO    volatile         
  36      =2  
  37      =2  
  38      =2  typedef   signed char     int8_t;
  39      =2  typedef   signed short    int16_t;
  40      =2  typedef   signed long     int32_t;
  41      =2  
  42      =2  
  43      =2  typedef unsigned char     uint8_t;
  44      =2  typedef unsigned short    uint16_t;
  45      =2  typedef unsigned long     uint32_t;
  46      =2  
  47      =2  typedef int32_t  s32;
  48      =2  typedef int16_t  s16;
  49      =2  typedef int8_t   s8;
  50      =2  
  51      =2  typedef uint32_t  u32;
  52      =2  typedef uint16_t  u16;
  53      =2  typedef uint8_t   u8;
  54      =2  
  55      =2  
  56      =2  typedef enum {FALSE = 0, TRUE = !FALSE} bool;
  57      =2  
  58      =2  typedef enum {RESET = 0, SET = !RESET} FlagStatus, ITStatus, BitStatus;
  59      =2  
  60      =2  typedef enum {DISABLE = 0, ENABLE = !DISABLE} FunctionalState;
  61      =2  
  62      =2  typedef enum {ERROR = 0, SUCCESS = !ERROR} ErrorStatus;
  63      =2  
  64      =2  typedef enum {LOW = 0, HIGH = !LOW} PriorityStatus;
  65      =2  
  66      =2  #endif
  16      =1  
  17      =1  typedef enum 
  18      =1  {
  19      =1          GPIO0 = (uint8_t)0x00,    
  20      =1          GPIO1 = (uint8_t)0x01,    
  21      =1          GPIO2 = (uint8_t)0x02,    
  22      =1          #if defined (SC95F8x1x) || defined (SC95F7x1x)
  23      =1          GPIO3 = (uint8_t)0x03,    
  24      =1          GPIO4 = (uint8_t)0x04,    
  25      =1          #endif
  26      =1          GPIO5 = (uint8_t)0x05     
  27      =1  }
  28      =1  GPIO_TypeDef;
  29      =1  
  30      =1  typedef enum
  31      =1  {
  32      =1          GPIO_MODE_IN_HI  = (uint8_t)0x00,
  33      =1          GPIO_MODE_IN_PU  = (uint8_t)0x01,
  34      =1          GPIO_MODE_OUT_PP = (uint8_t)0x02 
  35      =1  }GPIO_Mode_TypeDef;
  36      =1  
  37      =1  typedef enum
  38      =1  {
  39      =1          GPIO_PIN_0    = ((uint8_t)0x01), 
  40      =1          GPIO_PIN_1    = ((uint8_t)0x02), 
  41      =1          GPIO_PIN_2    = ((uint8_t)0x04), 
  42      =1          GPIO_PIN_3    = ((uint8_t)0x08), 
  43      =1          GPIO_PIN_4    = ((uint8_t)0x10), 
  44      =1          GPIO_PIN_5    = ((uint8_t)0x20), 
  45      =1          GPIO_PIN_6    = ((uint8_t)0x40), 
  46      =1          GPIO_PIN_7    = ((uint8_t)0x80), 
  47      =1          GPIO_PIN_LNIB = ((uint8_t)0x0F), 
  48      =1          GPIO_PIN_HNIB = ((uint8_t)0xF0), 
  49      =1          GPIO_PIN_ALL  = ((uint8_t)0xFF)  
  50      =1  }GPIO_Pin_TypeDef;
  51      =1  
  52      =1  void GPIO_DeInit(void);
  53      =1  void GPIO_Init(GPIO_TypeDef GPIOx, uint8_t PortPins, GPIO_Mode_TypeDef GPIO_Mode);
  54      =1  void GPIO_Write(GPIO_TypeDef GPIOx, uint8_t PortVal);
  55      =1  void GPIO_WriteHigh(GPIO_TypeDef GPIOx, uint8_t PortPins);
  56      =1  void GPIO_WriteLow(GPIO_TypeDef GPIOx, uint8_t PortPins);
  57      =1  uint8_t GPIO_ReadPort(GPIO_TypeDef GPIOx);
  58      =1  uint8_t GPIO_ReadPin(GPIO_TypeDef GPIOx, uint8_t PortPins);
  59      =1  
  60      =1  #endif
  61      =1  
  62      =1  
  13          
  14          
  20          void GPIO_DeInit(void)
  21          {
  22   1              #if defined (SC95F8x1x) || defined (SC95F7x1x)  
  23   1              P0CON = 0x00;
  24   1              P1CON = 0x00;
  25   1              P2CON = 0x00;
  26   1              P3CON = 0x00;
  27   1              P4CON = 0x00;
  28   1              P5CON = 0x00;
  29   1              P0PH = 0x00;
  30   1              P1PH = 0x00;
  31   1              P2PH = 0x00;
  32   1              P3PH = 0x00;
  33   1              P4PH = 0x00;
  34   1              P5PH = 0x00;
  35   1              P0 = P1 = P2 = P3 = P4 = P5 = 0;
  36   1              #endif
  37   1              #if defined (SC95F8x2x) || defined (SC95F7x2x)
  48   1      }
  49          
  50          
  58          void GPIO_Init(GPIO_TypeDef GPIOx, uint8_t PortPins, GPIO_Mode_TypeDef GPIO_Mode)
  59          {
  60   1              if(GPIOx == GPIO0)
  61   1              {
  62   2                      if(GPIO_Mode == GPIO_MODE_IN_HI)
  63   2                      {
  64   3                              P0CON &= ~PortPins;
  65   3                              P0PH  &= ~PortPins;
  66   3                      }
  67   2                      if(GPIO_Mode == GPIO_MODE_IN_PU)
  68   2                      {
  69   3                              P0CON &= ~PortPins;
  70   3                              P0PH  |= PortPins;
  71   3                      }
  72   2                      if(GPIO_Mode == GPIO_MODE_OUT_PP)
  73   2                      {
  74   3                              P0CON |= PortPins;
  75   3                      }               
  76   2              }
  77   1              else if(GPIOx == GPIO1)
  78   1              {
  79   2                      if(GPIO_Mode == GPIO_MODE_IN_HI)
  80   2                      {
  81   3                              P1CON &= ~PortPins;
  82   3                              P1PH  &= ~PortPins;
  83   3                      }
  84   2                      if(GPIO_Mode == GPIO_MODE_IN_PU)
  85   2                      {
  86   3                              P1CON &= ~PortPins;
  87   3                              P1PH  |= PortPins;
  88   3                      }
  89   2                      if(GPIO_Mode == GPIO_MODE_OUT_PP)
  90   2                      {
  91   3                              P1CON |= PortPins;
  92   3                      }       
  93   2              }
  94   1              else if(GPIOx == GPIO2)
  95   1              {
  96   2                      if(GPIO_Mode == GPIO_MODE_IN_HI)
  97   2                      {
  98   3                              P2CON &= ~PortPins;
  99   3                              P2PH  &= ~PortPins;
 100   3                      }
 101   2                      if(GPIO_Mode == GPIO_MODE_IN_PU)
 102   2                      {
 103   3                              P2CON &= ~PortPins;
 104   3                              P2PH  |= PortPins;
 105   3                      }
 106   2                      if(GPIO_Mode == GPIO_MODE_OUT_PP)
 107   2                      {
 108   3                              P2CON |= PortPins;
 109   3                      }       
 110   2              }
 111   1              #if defined (SC95F8x1x) || defined (SC95F7x1x)
 112   1              else if(GPIOx == GPIO3)
 113   1              {
 114   2                      if(GPIO_Mode == GPIO_MODE_IN_HI)
 115   2                      {
 116   3                              P3CON &= ~PortPins;
 117   3                              P3PH  &= ~PortPins;
 118   3                      }
 119   2                      if(GPIO_Mode == GPIO_MODE_IN_PU)
 120   2                      {
 121   3                              P3CON &= ~PortPins;
 122   3                              P3PH  |= PortPins;
 123   3                      }
 124   2                      if(GPIO_Mode == GPIO_MODE_OUT_PP)
 125   2                      {
 126   3                              P3CON |= PortPins;
 127   3                      }       
 128   2              }
 129   1              else if(GPIOx == GPIO4)
 130   1              {
 131   2                      if(GPIO_Mode == GPIO_MODE_IN_HI)
 132   2                      {
 133   3                              P4CON &= ~PortPins;
 134   3                              P4PH  &= ~PortPins;
 135   3                      }
 136   2                      if(GPIO_Mode == GPIO_MODE_IN_PU)
 137   2                      {
 138   3                              P4CON &= ~PortPins;
 139   3                              P4PH  |= PortPins;
 140   3                      }
 141   2                      if(GPIO_Mode == GPIO_MODE_OUT_PP)
 142   2                      {
 143   3                              P4CON |= PortPins;
 144   3                      }       
 145   2              }
 146   1              #endif
 147   1              else
 148   1              {
 149   2                      if(GPIOx == GPIO5)
 150   2                      {
 151   3                              if(GPIO_Mode == GPIO_MODE_IN_HI)
 152   3                              {
 153   4                                      P5CON &= ~PortPins;
 154   4                                      P5PH  &= ~PortPins;
 155   4                              }
 156   3                              if(GPIO_Mode == GPIO_MODE_IN_PU)
 157   3                              {
 158   4                                      P5CON &= ~PortPins;
 159   4                                      P5PH  |= PortPins;
 160   4                              }
 161   3                              if(GPIO_Mode == GPIO_MODE_OUT_PP)
 162   3                              {
 163   4                                      P5CON |= PortPins;
 164   4                              }               
 165   3                      }
 166   2              }
 167   1      }
 168          
 169          
 176          void GPIO_Write(GPIO_TypeDef GPIOx, uint8_t PortVal)
 177          {
 178   1          if(GPIOx == GPIO0)
 179   1              {
 180   2                      P0 = PortVal;
 181   2              }
 182   1              if(GPIOx == GPIO1)
 183   1              {
 184   2                      P1 = PortVal;
 185   2              }
 186   1              if(GPIOx == GPIO2)
 187   1              { 
 188   2                      P2 = PortVal;
 189   2              }
 190   1              #if defined (SC95F8x1x) || defined (SC95F7x1x)
 191   1              if(GPIOx == GPIO3)
 192   1              { 
 193   2                      P3 = PortVal;
 194   2              }
 195   1              if(GPIOx == GPIO4)
 196   1              { 
 197   2                      P4 = PortVal;
 198   2              }
 199   1              #endif
 200   1              if(GPIOx == GPIO5)
 201   1              { 
 202   2                      P5 = PortVal;
 203   2              }
 204   1      }
 205          
 206          
 213          void GPIO_WriteHigh(GPIO_TypeDef GPIOx, uint8_t PortPins)
 214          {
 215   1              if(GPIOx == GPIO0)
 216   1              {
 217   2                      P0 |= PortPins;
 218   2              }
 219   1              if(GPIOx == GPIO1)
 220   1              {
 221   2                      P1 |= PortPins;
 222   2              }
 223   1              if(GPIOx == GPIO2)
 224   1              {   
 225   2                      P2 |= PortPins; 
 226   2              }
 227   1              #if defined (SC95F8x1x) || defined (SC95F7x1x)  
 228   1              if(GPIOx == GPIO3)
 229   1              {   
 230   2                      P3 |= PortPins; 
 231   2              } 
 232   1              if(GPIOx == GPIO4)
 233   1              {   
 234   2                      P4 |= PortPins; 
 235   2              } 
 236   1              #endif
 237   1              if(GPIOx == GPIO5)
 238   1              {   
 239   2                      P5 |= PortPins; 
 240   2              }    
 241   1      }
 242          
 243          
 250          void GPIO_WriteLow(GPIO_TypeDef GPIOx, uint8_t PortPins)
 251          {
 252   1              if(GPIOx == GPIO0)
 253   1              {
 254   2                      P0 &= ~PortPins;
 255   2              }
 256   1              if(GPIOx == GPIO1)
 257   1              {
 258   2                      P1 &= ~PortPins;
 259   2              }
 260   1              if(GPIOx == GPIO2)
 261   1              {   
 262   2                      P2 &= ~PortPins;        
 263   2              } 
 264   1              #if defined (SC95F8x1x) || defined (SC95F7x1x)
 265   1              if(GPIOx == GPIO3)
 266   1              {   
 267   2                      P3 &= ~PortPins;        
 268   2              } 
 269   1              if(GPIOx == GPIO4)
 270   1              {   
 271   2                      P4 &= ~PortPins;
 272   2              } 
 273   1              #endif
 274   1              if(GPIOx == GPIO5)
 275   1              {   
 276   2                      P5 &= ~PortPins;        
 277   2              }  
 278   1      }
 279          
 280          
 286          uint8_t GPIO_ReadPort(GPIO_TypeDef GPIOx)
 287          {
 288   1          if(GPIOx == GPIO0)
 289   1              {
 290   2                      return P0;
 291   2              }
 292   1              else if(GPIOx == GPIO1)
 293   1              {
 294   2                      return P1;
 295   2              }
 296   1              else if(GPIOx == GPIO2)
 297   1              {
 298   2                      return P2;
 299   2              }
 300   1              #if defined (SC95F8x1x) || defined (SC95F7x1x)
 301   1              else if(GPIOx == GPIO3)
 302   1              {
 303   2                      return P3;
 304   2              }
 305   1              else if(GPIOx == GPIO4)
 306   1              {
 307   2                      return P4;
 308   2              }
 309   1              #endif
 310   1              else 
 311   1              {
 312   2                      return P5;
 313   2              }
 314   1      }
 315          
 316          
 323          uint8_t GPIO_ReadPin(GPIO_TypeDef GPIOx, uint8_t PortPins)
 324          {
 325   1              if(GPIOx == GPIO0)
 326   1              {
 327   2                      return (P0 & PortPins);
 328   2              }
 329   1              else if(GPIOx == GPIO1)
 330   1              {
 331   2                      return (P1 & PortPins);
 332   2              }
 333   1              else if(GPIOx == GPIO2)
 334   1              {
 335   2                      return (P2 & PortPins);
 336   2              }
 337   1              #if defined (SC95F8x1x) || defined (SC95F7x1x)
 338   1              else if(GPIOx == GPIO3)
 339   1              {
 340   2                      return (P3 & PortPins);
 341   2              }
 342   1              else if(GPIOx == GPIO4)
 343   1              {
 344   2                      return (P4 & PortPins);
 345   2              }
 346   1              #endif
 347   1              else if(GPIOx == GPIO5)
 348   1              {
 349   2                      return (P5 & PortPins); 
 350   2              }                                 
 351   1        return 0;
 352   1      }
 353          
 354          
ASSEMBLY LISTING OF GENERATED OBJECT CODE
             ; FUNCTION GPIO_DeInit (BEGIN)
                                           ; SOURCE LINE # 20
                                           ; SOURCE LINE # 21
                                           ; SOURCE LINE # 23
0000 E4                CLR     A
0001 F59A              MOV     P0CON,A
                                           ; SOURCE LINE # 24
0003 F591              MOV     P1CON,A
                                           ; SOURCE LINE # 25
0005 F5A1              MOV     P2CON,A
                                           ; SOURCE LINE # 26
0007 F5B1              MOV     P3CON,A
                                           ; SOURCE LINE # 27
0009 F5C1              MOV     P4CON,A
                                           ; SOURCE LINE # 28
000B F5D9              MOV     P5CON,A
                                           ; SOURCE LINE # 29
000D F59B              MOV     P0PH,A
                                           ; SOURCE LINE # 30
000F F592              MOV     P1PH,A
                                           ; SOURCE LINE # 31
0011 F5A2              MOV     P2PH,A
                                           ; SOURCE LINE # 32
0013 F5B2              MOV     P3PH,A
                                           ; SOURCE LINE # 33
0015 F5C2              MOV     P4PH,A
                                           ; SOURCE LINE # 34
0017 F5DA              MOV     P5PH,A
                                           ; SOURCE LINE # 35
0019 F5D8              MOV     P5,A
001B F5C0              MOV     P4,A
001D F5B0              MOV     P3,A
001F F5A0              MOV     P2,A
0021 F590              MOV     P1,A
0023 F580              MOV     P0,A
                                           ; SOURCE LINE # 48
0025 22                RET     
             ; FUNCTION GPIO_DeInit (END)
             ; FUNCTION _GPIO_Init (BEGIN)
                                           ; SOURCE LINE # 58
;---- Variable 'PortPins' assigned to Register 'R5' ----
;---- Variable 'GPIO_Mode' assigned to Register 'R3' ----
;---- Variable 'GPIOx' assigned to Register 'R7' ----
                                           ; SOURCE LINE # 59
                                           ; SOURCE LINE # 60
0000 EF                MOV     A,R7
0001 701F              JNZ     ?C0002
                                           ; SOURCE LINE # 61
                                           ; SOURCE LINE # 62
0003 EB                MOV     A,R3
0004 7006              JNZ     ?C0003
                                           ; SOURCE LINE # 63
                                           ; SOURCE LINE # 64
0006 ED                MOV     A,R5
0007 F4                CPL     A
0008 529A              ANL     P0CON,A
                                           ; SOURCE LINE # 65
000A 529B              ANL     P0PH,A
                                           ; SOURCE LINE # 66
000C         ?C0003:
                                           ; SOURCE LINE # 67
000C BB0107            CJNE    R3,#01H,?C0004
                                           ; SOURCE LINE # 68
                                           ; SOURCE LINE # 69
000F ED                MOV     A,R5
0010 F4                CPL     A
0011 529A              ANL     P0CON,A
                                           ; SOURCE LINE # 70
0013 ED                MOV     A,R5
0014 429B              ORL     P0PH,A
                                           ; SOURCE LINE # 71
0016         ?C0004:
                                           ; SOURCE LINE # 72
0016 EB                MOV     A,R3
0017 6402              XRL     A,#02H
0019 6003              JZ      $ + 5H
001B 020000      R     LJMP    ?C0031
                                           ; SOURCE LINE # 73
                                           ; SOURCE LINE # 74
001E ED                MOV     A,R5
001F 429A              ORL     P0CON,A
                                           ; SOURCE LINE # 75
                                           ; SOURCE LINE # 76
0021 22                RET     
0022         ?C0002:
                                           ; SOURCE LINE # 77
0022 EF                MOV     A,R7
0023 6401              XRL     A,#01H
0025 701F              JNZ     ?C0007
                                           ; SOURCE LINE # 78
                                           ; SOURCE LINE # 79
0027 EB                MOV     A,R3
0028 7006              JNZ     ?C0008
                                           ; SOURCE LINE # 80
                                           ; SOURCE LINE # 81
002A ED                MOV     A,R5
002B F4                CPL     A
002C 5291              ANL     P1CON,A
                                           ; SOURCE LINE # 82
002E 5292              ANL     P1PH,A
                                           ; SOURCE LINE # 83
0030         ?C0008:
                                           ; SOURCE LINE # 84
0030 BB0107            CJNE    R3,#01H,?C0009
                                           ; SOURCE LINE # 85
                                           ; SOURCE LINE # 86
0033 ED                MOV     A,R5
0034 F4                CPL     A
0035 5291              ANL     P1CON,A
                                           ; SOURCE LINE # 87
0037 ED                MOV     A,R5
0038 4292              ORL     P1PH,A
                                           ; SOURCE LINE # 88
003A         ?C0009:
                                           ; SOURCE LINE # 89
003A EB                MOV     A,R3
003B 6402              XRL     A,#02H
003D 6003              JZ      $ + 5H
003F 020000      R     LJMP    ?C0031
                                           ; SOURCE LINE # 90
                                           ; SOURCE LINE # 91
0042 ED                MOV     A,R5
0043 4291              ORL     P1CON,A
                                           ; SOURCE LINE # 92
                                           ; SOURCE LINE # 93
0045 22                RET     
0046         ?C0007:
                                           ; SOURCE LINE # 94
0046 EF                MOV     A,R7
0047 6402              XRL     A,#02H
0049 701C              JNZ     ?C0012
                                           ; SOURCE LINE # 95
                                           ; SOURCE LINE # 96
004B EB                MOV     A,R3
004C 7006              JNZ     ?C0013
                                           ; SOURCE LINE # 97
                                           ; SOURCE LINE # 98
004E ED                MOV     A,R5
004F F4                CPL     A
0050 52A1              ANL     P2CON,A
                                           ; SOURCE LINE # 99
0052 52A2              ANL     P2PH,A
                                           ; SOURCE LINE # 100
0054         ?C0013:
                                           ; SOURCE LINE # 101
0054 BB0107            CJNE    R3,#01H,?C0014
                                           ; SOURCE LINE # 102
                                           ; SOURCE LINE # 103
0057 ED                MOV     A,R5
0058 F4                CPL     A
0059 52A1              ANL     P2CON,A
                                           ; SOURCE LINE # 104
005B ED                MOV     A,R5
005C 42A2              ORL     P2PH,A
                                           ; SOURCE LINE # 105
005E         ?C0014:
                                           ; SOURCE LINE # 106
005E EB                MOV     A,R3
005F 6402              XRL     A,#02H
0061 7064              JNZ     ?C0031
                                           ; SOURCE LINE # 107
                                           ; SOURCE LINE # 108
0063 ED                MOV     A,R5
0064 42A1              ORL     P2CON,A
                                           ; SOURCE LINE # 109
                                           ; SOURCE LINE # 110
0066 22                RET     
0067         ?C0012:
                                           ; SOURCE LINE # 112
0067 EF                MOV     A,R7
0068 6403              XRL     A,#03H
006A 701C              JNZ     ?C0017
                                           ; SOURCE LINE # 113
                                           ; SOURCE LINE # 114
006C EB                MOV     A,R3
006D 7006              JNZ     ?C0018
                                           ; SOURCE LINE # 115
                                           ; SOURCE LINE # 116
006F ED                MOV     A,R5
0070 F4                CPL     A
0071 52B1              ANL     P3CON,A
                                           ; SOURCE LINE # 117
0073 52B2              ANL     P3PH,A
                                           ; SOURCE LINE # 118
0075         ?C0018:
                                           ; SOURCE LINE # 119
0075 BB0107            CJNE    R3,#01H,?C0019
                                           ; SOURCE LINE # 120
                                           ; SOURCE LINE # 121
0078 ED                MOV     A,R5
0079 F4                CPL     A
007A 52B1              ANL     P3CON,A
                                           ; SOURCE LINE # 122
007C ED                MOV     A,R5
007D 42B2              ORL     P3PH,A
                                           ; SOURCE LINE # 123
007F         ?C0019:
                                           ; SOURCE LINE # 124
007F EB                MOV     A,R3
0080 6402              XRL     A,#02H
0082 7043              JNZ     ?C0031
                                           ; SOURCE LINE # 125
                                           ; SOURCE LINE # 126
0084 ED                MOV     A,R5
0085 42B1              ORL     P3CON,A
                                           ; SOURCE LINE # 127
                                           ; SOURCE LINE # 128
0087 22                RET     
0088         ?C0017:
                                           ; SOURCE LINE # 129
0088 EF                MOV     A,R7
0089 6404              XRL     A,#04H
008B 701C              JNZ     ?C0022
                                           ; SOURCE LINE # 130
                                           ; SOURCE LINE # 131
008D EB                MOV     A,R3
008E 7006              JNZ     ?C0023
                                           ; SOURCE LINE # 132
                                           ; SOURCE LINE # 133
0090 ED                MOV     A,R5
0091 F4                CPL     A
0092 52C1              ANL     P4CON,A
                                           ; SOURCE LINE # 134
0094 52C2              ANL     P4PH,A
                                           ; SOURCE LINE # 135
0096         ?C0023:
                                           ; SOURCE LINE # 136
0096 BB0107            CJNE    R3,#01H,?C0024
                                           ; SOURCE LINE # 137
                                           ; SOURCE LINE # 138
0099 ED                MOV     A,R5
009A F4                CPL     A
009B 52C1              ANL     P4CON,A
                                           ; SOURCE LINE # 139
009D ED                MOV     A,R5
009E 42C2              ORL     P4PH,A
                                           ; SOURCE LINE # 140
00A0         ?C0024:
                                           ; SOURCE LINE # 141
00A0 EB                MOV     A,R3
00A1 6402              XRL     A,#02H
00A3 7022              JNZ     ?C0031
                                           ; SOURCE LINE # 142
                                           ; SOURCE LINE # 143
00A5 ED                MOV     A,R5
00A6 42C1              ORL     P4CON,A
                                           ; SOURCE LINE # 144
                                           ; SOURCE LINE # 145
00A8 22                RET     
00A9         ?C0022:
                                           ; SOURCE LINE # 148
                                           ; SOURCE LINE # 149
00A9 EF                MOV     A,R7
00AA 6405              XRL     A,#05H
00AC 7019              JNZ     ?C0031
                                           ; SOURCE LINE # 150
                                           ; SOURCE LINE # 151
00AE EB                MOV     A,R3
00AF 7006              JNZ     ?C0028
                                           ; SOURCE LINE # 152
                                           ; SOURCE LINE # 153
00B1 ED                MOV     A,R5
00B2 F4                CPL     A
00B3 52D9              ANL     P5CON,A
                                           ; SOURCE LINE # 154
00B5 52DA              ANL     P5PH,A
                                           ; SOURCE LINE # 155
00B7         ?C0028:
                                           ; SOURCE LINE # 156
00B7 BB0107            CJNE    R3,#01H,?C0029
                                           ; SOURCE LINE # 157
                                           ; SOURCE LINE # 158
00BA ED                MOV     A,R5
00BB F4                CPL     A
00BC 52D9              ANL     P5CON,A
                                           ; SOURCE LINE # 159
00BE ED                MOV     A,R5
00BF 42DA              ORL     P5PH,A
                                           ; SOURCE LINE # 160
00C1         ?C0029:
                                           ; SOURCE LINE # 161
00C1 BB0203            CJNE    R3,#02H,?C0031
                                           ; SOURCE LINE # 162
                                           ; SOURCE LINE # 163
00C4 ED                MOV     A,R5
00C5 42D9              ORL     P5CON,A
                                           ; SOURCE LINE # 164
                                           ; SOURCE LINE # 165
                                           ; SOURCE LINE # 166
                                           ; SOURCE LINE # 167
00C7         ?C0031:
00C7 22                RET     
             ; FUNCTION _GPIO_Init (END)
             ; FUNCTION _GPIO_Write (BEGIN)
                                           ; SOURCE LINE # 176
;---- Variable 'PortVal' assigned to Register 'R5' ----
;---- Variable 'GPIOx' assigned to Register 'R7' ----
                                           ; SOURCE LINE # 177
                                           ; SOURCE LINE # 178
0000 EF                MOV     A,R7
0001 7002              JNZ     ?C0032
                                           ; SOURCE LINE # 179
                                           ; SOURCE LINE # 180
0003 8D80              MOV     P0,R5
                                           ; SOURCE LINE # 181
0005         ?C0032:
                                           ; SOURCE LINE # 182
0005 BF0102            CJNE    R7,#01H,?C0033
                                           ; SOURCE LINE # 183
                                           ; SOURCE LINE # 184
0008 8D90              MOV     P1,R5
                                           ; SOURCE LINE # 185
000A         ?C0033:
                                           ; SOURCE LINE # 186
000A BF0202            CJNE    R7,#02H,?C0034
                                           ; SOURCE LINE # 187
                                           ; SOURCE LINE # 188
000D 8DA0              MOV     P2,R5
                                           ; SOURCE LINE # 189
000F         ?C0034:
                                           ; SOURCE LINE # 191
000F BF0302            CJNE    R7,#03H,?C0035
                                           ; SOURCE LINE # 192
                                           ; SOURCE LINE # 193
0012 8DB0              MOV     P3,R5
                                           ; SOURCE LINE # 194
0014         ?C0035:
                                           ; SOURCE LINE # 195
0014 BF0402            CJNE    R7,#04H,?C0036
                                           ; SOURCE LINE # 196
                                           ; SOURCE LINE # 197
0017 8DC0              MOV     P4,R5
                                           ; SOURCE LINE # 198
0019         ?C0036:
                                           ; SOURCE LINE # 200
0019 BF0502            CJNE    R7,#05H,?C0038
                                           ; SOURCE LINE # 201
                                           ; SOURCE LINE # 202
001C 8DD8              MOV     P5,R5
                                           ; SOURCE LINE # 203
                                           ; SOURCE LINE # 204
001E         ?C0038:
001E 22                RET     
             ; FUNCTION _GPIO_Write (END)
             ; FUNCTION _GPIO_WriteHigh (BEGIN)
                                           ; SOURCE LINE # 213
;---- Variable 'PortPins' assigned to Register 'R5' ----
;---- Variable 'GPIOx' assigned to Register 'R7' ----
                                           ; SOURCE LINE # 214
                                           ; SOURCE LINE # 215
0000 EF                MOV     A,R7
0001 7003              JNZ     ?C0039
                                           ; SOURCE LINE # 216
                                           ; SOURCE LINE # 217
0003 ED                MOV     A,R5
0004 4280              ORL     P0,A
                                           ; SOURCE LINE # 218
0006         ?C0039:
                                           ; SOURCE LINE # 219
0006 BF0103            CJNE    R7,#01H,?C0040
                                           ; SOURCE LINE # 220
                                           ; SOURCE LINE # 221
0009 ED                MOV     A,R5
000A 4290              ORL     P1,A
                                           ; SOURCE LINE # 222
000C         ?C0040:
                                           ; SOURCE LINE # 223
000C BF0203            CJNE    R7,#02H,?C0041
                                           ; SOURCE LINE # 224
                                           ; SOURCE LINE # 225
000F ED                MOV     A,R5
0010 42A0              ORL     P2,A
                                           ; SOURCE LINE # 226
0012         ?C0041:
                                           ; SOURCE LINE # 228
0012 BF0303            CJNE    R7,#03H,?C0042
                                           ; SOURCE LINE # 229
                                           ; SOURCE LINE # 230
0015 ED                MOV     A,R5
0016 42B0              ORL     P3,A
                                           ; SOURCE LINE # 231
0018         ?C0042:
                                           ; SOURCE LINE # 232
0018 BF0403            CJNE    R7,#04H,?C0043
                                           ; SOURCE LINE # 233
                                           ; SOURCE LINE # 234
001B ED                MOV     A,R5
001C 42C0              ORL     P4,A
                                           ; SOURCE LINE # 235
001E         ?C0043:
                                           ; SOURCE LINE # 237
001E BF0503            CJNE    R7,#05H,?C0045
                                           ; SOURCE LINE # 238
                                           ; SOURCE LINE # 239
0021 ED                MOV     A,R5
0022 42D8              ORL     P5,A
                                           ; SOURCE LINE # 240
                                           ; SOURCE LINE # 241
0024         ?C0045:
0024 22                RET     
             ; FUNCTION _GPIO_WriteHigh (END)
             ; FUNCTION _GPIO_WriteLow (BEGIN)
                                           ; SOURCE LINE # 250
;---- Variable 'PortPins' assigned to Register 'R5' ----
;---- Variable 'GPIOx' assigned to Register 'R7' ----
                                           ; SOURCE LINE # 251
                                           ; SOURCE LINE # 252
0000 EF                MOV     A,R7
0001 7004              JNZ     ?C0046
                                           ; SOURCE LINE # 253
                                           ; SOURCE LINE # 254
0003 ED                MOV     A,R5
0004 F4                CPL     A
0005 5280              ANL     P0,A
                                           ; SOURCE LINE # 255
0007         ?C0046:
                                           ; SOURCE LINE # 256
0007 BF0104            CJNE    R7,#01H,?C0047
                                           ; SOURCE LINE # 257
                                           ; SOURCE LINE # 258
000A ED                MOV     A,R5
000B F4                CPL     A
000C 5290              ANL     P1,A
                                           ; SOURCE LINE # 259
000E         ?C0047:
                                           ; SOURCE LINE # 260
000E BF0204            CJNE    R7,#02H,?C0048
                                           ; SOURCE LINE # 261
                                           ; SOURCE LINE # 262
0011 ED                MOV     A,R5
0012 F4                CPL     A
0013 52A0              ANL     P2,A
                                           ; SOURCE LINE # 263
0015         ?C0048:
                                           ; SOURCE LINE # 265
0015 BF0304            CJNE    R7,#03H,?C0049
                                           ; SOURCE LINE # 266
                                           ; SOURCE LINE # 267
0018 ED                MOV     A,R5
0019 F4                CPL     A
001A 52B0              ANL     P3,A
                                           ; SOURCE LINE # 268
001C         ?C0049:
                                           ; SOURCE LINE # 269
001C BF0404            CJNE    R7,#04H,?C0050
                                           ; SOURCE LINE # 270
                                           ; SOURCE LINE # 271
001F ED                MOV     A,R5
0020 F4                CPL     A
0021 52C0              ANL     P4,A
                                           ; SOURCE LINE # 272
0023         ?C0050:
                                           ; SOURCE LINE # 274
0023 BF0504            CJNE    R7,#05H,?C0052
                                           ; SOURCE LINE # 275
                                           ; SOURCE LINE # 276
0026 ED                MOV     A,R5
0027 F4                CPL     A
0028 52D8              ANL     P5,A
                                           ; SOURCE LINE # 277
                                           ; SOURCE LINE # 278
002A         ?C0052:
002A 22                RET     
             ; FUNCTION _GPIO_WriteLow (END)
             ; FUNCTION _GPIO_ReadPort (BEGIN)
                                           ; SOURCE LINE # 286
;---- Variable 'GPIOx' assigned to Register 'R7' ----
                                           ; SOURCE LINE # 287
                                           ; SOURCE LINE # 288
0000 EF                MOV     A,R7
0001 7003              JNZ     ?C0053
                                           ; SOURCE LINE # 289
                                           ; SOURCE LINE # 290
0003 AF80              MOV     R7,P0
0005 22                RET     
                                           ; SOURCE LINE # 291
0006         ?C0053:
                                           ; SOURCE LINE # 292
0006 BF0103            CJNE    R7,#01H,?C0056
                                           ; SOURCE LINE # 293
                                           ; SOURCE LINE # 294
0009 AF90              MOV     R7,P1
000B 22                RET     
                                           ; SOURCE LINE # 295
000C         ?C0056:
                                           ; SOURCE LINE # 296
000C BF0203            CJNE    R7,#02H,?C0058
                                           ; SOURCE LINE # 297
                                           ; SOURCE LINE # 298
000F AFA0              MOV     R7,P2
0011 22                RET     
                                           ; SOURCE LINE # 299
0012         ?C0058:
                                           ; SOURCE LINE # 301
0012 BF0303            CJNE    R7,#03H,?C0060
                                           ; SOURCE LINE # 302
                                           ; SOURCE LINE # 303
0015 AFB0              MOV     R7,P3
0017 22                RET     
                                           ; SOURCE LINE # 304
0018         ?C0060:
                                           ; SOURCE LINE # 305
0018 BF0403            CJNE    R7,#04H,?C0062
                                           ; SOURCE LINE # 306
                                           ; SOURCE LINE # 307
001B AFC0              MOV     R7,P4
001D 22                RET     
                                           ; SOURCE LINE # 308
001E         ?C0062:
                                           ; SOURCE LINE # 311
                                           ; SOURCE LINE # 312
001E AFD8              MOV     R7,P5
                                           ; SOURCE LINE # 313
                                           ; SOURCE LINE # 314
0020         ?C0054:
0020 22                RET     
             ; FUNCTION _GPIO_ReadPort (END)
             ; FUNCTION _GPIO_ReadPin (BEGIN)
                                           ; SOURCE LINE # 323
;---- Variable 'PortPins' assigned to Register 'R5' ----
;---- Variable 'GPIOx' assigned to Register 'R7' ----
                                           ; SOURCE LINE # 324
                                           ; SOURCE LINE # 325
0000 EF                MOV     A,R7
0001 7005              JNZ     ?C0064
                                           ; SOURCE LINE # 326
                                           ; SOURCE LINE # 327
0003 E580              MOV     A,P0
0005 5D                ANL     A,R5
0006 FF                MOV     R7,A
0007 22                RET     
                                           ; SOURCE LINE # 328
0008         ?C0064:
                                           ; SOURCE LINE # 329
0008 BF0105            CJNE    R7,#01H,?C0067
                                           ; SOURCE LINE # 330
                                           ; SOURCE LINE # 331
000B E590              MOV     A,P1
000D 5D                ANL     A,R5
000E FF                MOV     R7,A
000F 22                RET     
                                           ; SOURCE LINE # 332
0010         ?C0067:
                                           ; SOURCE LINE # 333
0010 BF0205            CJNE    R7,#02H,?C0069
                                           ; SOURCE LINE # 334
                                           ; SOURCE LINE # 335
0013 E5A0              MOV     A,P2
0015 5D                ANL     A,R5
0016 FF                MOV     R7,A
0017 22                RET     
                                           ; SOURCE LINE # 336
0018         ?C0069:
                                           ; SOURCE LINE # 338
0018 BF0305            CJNE    R7,#03H,?C0071
                                           ; SOURCE LINE # 339
                                           ; SOURCE LINE # 340
001B E5B0              MOV     A,P3
001D 5D                ANL     A,R5
001E FF                MOV     R7,A
001F 22                RET     
                                           ; SOURCE LINE # 341
0020         ?C0071:
                                           ; SOURCE LINE # 342
0020 BF0405            CJNE    R7,#04H,?C0073
                                           ; SOURCE LINE # 343
                                           ; SOURCE LINE # 344
0023 E5C0              MOV     A,P4
0025 5D                ANL     A,R5
0026 FF                MOV     R7,A
0027 22                RET     
                                           ; SOURCE LINE # 345
0028         ?C0073:
                                           ; SOURCE LINE # 347
0028 BF0505            CJNE    R7,#05H,?C0066
                                           ; SOURCE LINE # 348
                                           ; SOURCE LINE # 349
002B E5D8              MOV     A,P5
002D 5D                ANL     A,R5
002E FF                MOV     R7,A
002F 22                RET     
                                           ; SOURCE LINE # 350
0030         ?C0066:
                                           ; SOURCE LINE # 351
0030 7F00              MOV     R7,#00H
                                           ; SOURCE LINE # 352
0032         ?C0065:
0032 22                RET     
             ; FUNCTION _GPIO_ReadPin (END)
NAME                                    CLASS   MSPACE  TYPE    OFFSET  SIZE
uint16_t . . . . . . . . . . . . . . .  TYPEDEF  -----  U_INT    -----  2
TRX. . . . . . . . . . . . . . . . . .  ABSBIT   -----  BIT      00CAH  1
OPREG. . . . . . . . . . . . . . . . .  SFR      DATA   U_CHAR   00FFH  1
GPIO_PIN_LNIB. . . . . . . . . . . . .  E_CONST  -----  U_CHAR   -----  1
P0 . . . . . . . . . . . . . . . . . .  SFR      DATA   U_CHAR   0080H  1
P1 . . . . . . . . . . . . . . . . . .  SFR      DATA   U_CHAR   0090H  1
P2 . . . . . . . . . . . . . . . . . .  SFR      DATA   U_CHAR   00A0H  1
EUART. . . . . . . . . . . . . . . . .  ABSBIT   -----  BIT      00ACH  1
TMCON. . . . . . . . . . . . . . . . .  SFR      DATA   U_CHAR   008EH  1
P3 . . . . . . . . . . . . . . . . . .  SFR      DATA   U_CHAR   00B0H  1
AC . . . . . . . . . . . . . . . . . .  ABSBIT   -----  BIT      00D6H  1
P4 . . . . . . . . . . . . . . . . . .  SFR      DATA   U_CHAR   00C0H  1
FlagStatus . . . . . . . . . . . . . .  TYPEDEF  -----  U_CHAR   -----  1
RESET. . . . . . . . . . . . . . . . .  E_CONST  -----  U_CHAR   -----  1
OTCON. . . . . . . . . . . . . . . . .  SFR      DATA   U_CHAR   008FH  1
P5 . . . . . . . . . . . . . . . . . .  SFR      DATA   U_CHAR   00D8H  1
EA . . . . . . . . . . . . . . . . . .  ABSBIT   -----  BIT      00AFH  1
RCLKX. . . . . . . . . . . . . . . . .  ABSBIT   -----  BIT      00CDH  1
int32_t. . . . . . . . . . . . . . . .  TYPEDEF  -----  LONG     -----  4
TCLKX. . . . . . . . . . . . . . . . .  ABSBIT   -----  BIT      00CCH  1
GPIO_PIN_0 . . . . . . . . . . . . . .  E_CONST  -----  U_CHAR   -----  1
int16_t. . . . . . . . . . . . . . . .  TYPEDEF  -----  INT      -----  2
GPIO_PIN_1 . . . . . . . . . . . . . .  E_CONST  -----  U_CHAR   -----  1
EXENX. . . . . . . . . . . . . . . . .  ABSBIT   -----  BIT      00CBH  1
GPIO_PIN_2 . . . . . . . . . . . . . .  E_CONST  -----  U_CHAR   -----  1
GPIO_PIN_3 . . . . . . . . . . . . . .  E_CONST  -----  U_CHAR   -----  1
ERROR. . . . . . . . . . . . . . . . .  E_CONST  -----  U_CHAR   -----  1
GPIO_PIN_4 . . . . . . . . . . . . . .  E_CONST  -----  U_CHAR   -----  1
GPIO_PIN_5 . . . . . . . . . . . . . .  E_CONST  -----  U_CHAR   -----  1
EADC . . . . . . . . . . . . . . . . .  ABSBIT   -----  BIT      00AEH  1
TXMOD. . . . . . . . . . . . . . . . .  SFR      DATA   U_CHAR   00C9H  1
TXCON. . . . . . . . . . . . . . . . .  SFR      DATA   U_CHAR   00C8H  1
IE . . . . . . . . . . . . . . . . . .  SFR      DATA   U_CHAR   00A8H  1
DPH1 . . . . . . . . . . . . . . . . .  SFR      DATA   U_CHAR   0085H  1
GPIO_PIN_6 . . . . . . . . . . . . . .  E_CONST  -----  U_CHAR   -----  1
EXA0 . . . . . . . . . . . . . . . . .  SFR      DATA   U_CHAR   00E9H  1
GPIO_PIN_7 . . . . . . . . . . . . . .  E_CONST  -----  U_CHAR   -----  1
EXA1 . . . . . . . . . . . . . . . . .  SFR      DATA   U_CHAR   00EAH  1
OPINX. . . . . . . . . . . . . . . . .  SFR      DATA   U_CHAR   00FEH  1
EXA2 . . . . . . . . . . . . . . . . .  SFR      DATA   U_CHAR   00EBH  1
GPIO_MODE_OUT_PP . . . . . . . . . . .  E_CONST  -----  U_CHAR   -----  1
EXA3 . . . . . . . . . . . . . . . . .  SFR      DATA   U_CHAR   00ECH  1
DPL1 . . . . . . . . . . . . . . . . .  SFR      DATA   U_CHAR   0084H  1
CP . . . . . . . . . . . . . . . . . .  ABSBIT   -----  BIT      00C8H  1
ErrorStatus. . . . . . . . . . . . . .  TYPEDEF  -----  U_CHAR   -----  1
OPERCON. . . . . . . . . . . . . . . .  SFR      DATA   U_CHAR   00EFH  1
P0PH . . . . . . . . . . . . . . . . .  SFR      DATA   U_CHAR   009BH  1
IP . . . . . . . . . . . . . . . . . .  SFR      DATA   U_CHAR   00B8H  1
P1PH . . . . . . . . . . . . . . . . .  SFR      DATA   U_CHAR   0092H  1
RI . . . . . . . . . . . . . . . . . .  ABSBIT   -----  BIT      0098H  1
P2PH . . . . . . . . . . . . . . . . .  SFR      DATA   U_CHAR   00A2H  1
SUCCESS. . . . . . . . . . . . . . . .  E_CONST  -----  U_CHAR   -----  1
CY . . . . . . . . . . . . . . . . . .  ABSBIT   -----  BIT      00D7H  1
P3PH . . . . . . . . . . . . . . . . .  SFR      DATA   U_CHAR   00B2H  1
TI . . . . . . . . . . . . . . . . . .  ABSBIT   -----  BIT      0099H  1
TXINX. . . . . . . . . . . . . . . . .  SFR      DATA   U_CHAR   00CEH  1
P4PH . . . . . . . . . . . . . . . . .  SFR      DATA   U_CHAR   00C2H  1
NAME                                    CLASS   MSPACE  TYPE    OFFSET  SIZE
IPT0 . . . . . . . . . . . . . . . . .  ABSBIT   -----  BIT      00B9H  1
P5PH . . . . . . . . . . . . . . . . .  SFR      DATA   U_CHAR   00DAH  1
_GPIO_Write. . . . . . . . . . . . . .  PUBLIC   CODE   PROC     0000H  -----
  GPIOx. . . . . . . . . . . . . . . .  * REG *  DATA   U_CHAR   0007H  1
  PortVal. . . . . . . . . . . . . . .  * REG *  DATA   U_CHAR   0005H  1
FunctionalState. . . . . . . . . . . .  TYPEDEF  -----  U_CHAR   -----  1
IPT1 . . . . . . . . . . . . . . . . .  ABSBIT   -----  BIT      00BBH  1
IPT2 . . . . . . . . . . . . . . . . .  ABSBIT   -----  BIT      00BDH  1
GPIO_MODE_IN_HI. . . . . . . . . . . .  E_CONST  -----  U_CHAR   -----  1
HIGH . . . . . . . . . . . . . . . . .  E_CONST  -----  U_CHAR   -----  1
_GPIO_WriteHigh. . . . . . . . . . . .  PUBLIC   CODE   PROC     0000H  -----
  GPIOx. . . . . . . . . . . . . . . .  * REG *  DATA   U_CHAR   0007H  1
  PortPins . . . . . . . . . . . . . .  * REG *  DATA   U_CHAR   0005H  1
SP . . . . . . . . . . . . . . . . . .  SFR      DATA   U_CHAR   0081H  1
OV . . . . . . . . . . . . . . . . . .  ABSBIT   -----  BIT      00D2H  1
ITStatus . . . . . . . . . . . . . . .  TYPEDEF  -----  U_CHAR   -----  1
IAPADE . . . . . . . . . . . . . . . .  SFR      DATA   U_CHAR   00F4H  1
P0VO . . . . . . . . . . . . . . . . .  SFR      DATA   U_CHAR   009CH  1
_GPIO_Init . . . . . . . . . . . . . .  PUBLIC   CODE   PROC     0000H  -----
  GPIOx. . . . . . . . . . . . . . . .  * REG *  DATA   U_CHAR   0007H  1
  PortPins . . . . . . . . . . . . . .  * REG *  DATA   U_CHAR   0005H  1
  GPIO_Mode. . . . . . . . . . . . . .  * REG *  DATA   U_CHAR   0003H  1
P1VO . . . . . . . . . . . . . . . . .  SFR      DATA   U_CHAR   0094H  1
EXBH . . . . . . . . . . . . . . . . .  SFR      DATA   U_CHAR   00EEH  1
P2VO . . . . . . . . . . . . . . . . .  SFR      DATA   U_CHAR   00A3H  1
ENABLE . . . . . . . . . . . . . . . .  E_CONST  -----  U_CHAR   -----  1
BitStatus. . . . . . . . . . . . . . .  TYPEDEF  -----  U_CHAR   -----  1
IAPADH . . . . . . . . . . . . . . . .  SFR      DATA   U_CHAR   00F3H  1
P3VO . . . . . . . . . . . . . . . . .  SFR      DATA   U_CHAR   00B3H  1
ADCCON . . . . . . . . . . . . . . . .  SFR      DATA   U_CHAR   00ADH  1
s8 . . . . . . . . . . . . . . . . . .  TYPEDEF  -----  CHAR     -----  1
TX . . . . . . . . . . . . . . . . . .  ABSBIT   -----  BIT      00C9H  1
EXBL . . . . . . . . . . . . . . . . .  SFR      DATA   U_CHAR   00EDH  1
u8 . . . . . . . . . . . . . . . . . .  TYPEDEF  -----  U_CHAR   -----  1
IAPADL . . . . . . . . . . . . . . . .  SFR      DATA   U_CHAR   00F2H  1
GPIO_Mode_TypeDef. . . . . . . . . . .  TYPEDEF  -----  U_CHAR   -----  1
bool . . . . . . . . . . . . . . . . .  TYPEDEF  -----  U_CHAR   -----  1
P00. . . . . . . . . . . . . . . . . .  ABSBIT   -----  BIT      0080H  1
P10. . . . . . . . . . . . . . . . . .  ABSBIT   -----  BIT      0090H  1
P01. . . . . . . . . . . . . . . . . .  ABSBIT   -----  BIT      0081H  1
SBUF . . . . . . . . . . . . . . . . .  SFR      DATA   U_CHAR   0099H  1
PCON . . . . . . . . . . . . . . . . .  SFR      DATA   U_CHAR   0087H  1
P20. . . . . . . . . . . . . . . . . .  ABSBIT   -----  BIT      00A0H  1
P11. . . . . . . . . . . . . . . . . .  ABSBIT   -----  BIT      0091H  1
P02. . . . . . . . . . . . . . . . . .  ABSBIT   -----  BIT      0082H  1
CMPCFG . . . . . . . . . . . . . . . .  SFR      DATA   U_CHAR   00B6H  1
GPIO_PIN_ALL . . . . . . . . . . . . .  E_CONST  -----  U_CHAR   -----  1
P30. . . . . . . . . . . . . . . . . .  ABSBIT   -----  BIT      00B0H  1
P21. . . . . . . . . . . . . . . . . .  ABSBIT   -----  BIT      00A1H  1
P12. . . . . . . . . . . . . . . . . .  ABSBIT   -----  BIT      0092H  1
P03. . . . . . . . . . . . . . . . . .  ABSBIT   -----  BIT      0083H  1
P40. . . . . . . . . . . . . . . . . .  ABSBIT   -----  BIT      00C0H  1
P31. . . . . . . . . . . . . . . . . .  ABSBIT   -----  BIT      00B1H  1
P22. . . . . . . . . . . . . . . . . .  ABSBIT   -----  BIT      00A2H  1
P13. . . . . . . . . . . . . . . . . .  ABSBIT   -----  BIT      0093H  1
P04. . . . . . . . . . . . . . . . . .  ABSBIT   -----  BIT      0084H  1
SCON . . . . . . . . . . . . . . . . .  SFR      DATA   U_CHAR   0098H  1
NAME                                    CLASS   MSPACE  TYPE    OFFSET  SIZE
GPIO_MODE_IN_PU. . . . . . . . . . . .  E_CONST  -----  U_CHAR   -----  1
P50. . . . . . . . . . . . . . . . . .  ABSBIT   -----  BIT      00D8H  1
P41. . . . . . . . . . . . . . . . . .  ABSBIT   -----  BIT      00C1H  1
P32. . . . . . . . . . . . . . . . . .  ABSBIT   -----  BIT      00B2H  1
P23. . . . . . . . . . . . . . . . . .  ABSBIT   -----  BIT      00A3H  1
P14. . . . . . . . . . . . . . . . . .  ABSBIT   -----  BIT      0094H  1
P05. . . . . . . . . . . . . . . . . .  ABSBIT   -----  BIT      0085H  1
IAPDAT . . . . . . . . . . . . . . . .  SFR      DATA   U_CHAR   00F5H  1
TCON . . . . . . . . . . . . . . . . .  SFR      DATA   U_CHAR   0088H  1
TMOD . . . . . . . . . . . . . . . . .  SFR      DATA   U_CHAR   0089H  1
P51. . . . . . . . . . . . . . . . . .  ABSBIT   -----  BIT      00D9H  1
P42. . . . . . . . . . . . . . . . . .  ABSBIT   -----  BIT      00C2H  1
P33. . . . . . . . . . . . . . . . . .  ABSBIT   -----  BIT      00B3H  1
P24. . . . . . . . . . . . . . . . . .  ABSBIT   -----  BIT      00A4H  1
P15. . . . . . . . . . . . . . . . . .  ABSBIT   -----  BIT      0095H  1
P06. . . . . . . . . . . . . . . . . .  ABSBIT   -----  BIT      0086H  1
IPINT0 . . . . . . . . . . . . . . . .  ABSBIT   -----  BIT      00B8H  1
_GPIO_ReadPort . . . . . . . . . . . .  PUBLIC   CODE   PROC     0000H  -----
  GPIOx. . . . . . . . . . . . . . . .  * REG *  DATA   U_CHAR   0007H  1
P52. . . . . . . . . . . . . . . . . .  ABSBIT   -----  BIT      00DAH  1
P43. . . . . . . . . . . . . . . . . .  ABSBIT   -----  BIT      00C3H  1
P34. . . . . . . . . . . . . . . . . .  ABSBIT   -----  BIT      00B4H  1
P25. . . . . . . . . . . . . . . . . .  ABSBIT   -----  BIT      00A5H  1
P16. . . . . . . . . . . . . . . . . .  ABSBIT   -----  BIT      0096H  1
P07. . . . . . . . . . . . . . . . . .  ABSBIT   -----  BIT      0087H  1
IPINT1 . . . . . . . . . . . . . . . .  ABSBIT   -----  BIT      00BAH  1
_GPIO_ReadPin. . . . . . . . . . . . .  PUBLIC   CODE   PROC     0000H  -----
  GPIOx. . . . . . . . . . . . . . . .  * REG *  DATA   U_CHAR   0007H  1
  PortPins . . . . . . . . . . . . . .  * REG *  DATA   U_CHAR   0005H  1
P53. . . . . . . . . . . . . . . . . .  ABSBIT   -----  BIT      00DBH  1
P44. . . . . . . . . . . . . . . . . .  ABSBIT   -----  BIT      00C4H  1
P35. . . . . . . . . . . . . . . . . .  ABSBIT   -----  BIT      00B5H  1
P26. . . . . . . . . . . . . . . . . .  ABSBIT   -----  BIT      00A6H  1
P17. . . . . . . . . . . . . . . . . .  ABSBIT   -----  BIT      0097H  1
CRCREG . . . . . . . . . . . . . . . .  SFR      DATA   U_CHAR   00FDH  1
P54. . . . . . . . . . . . . . . . . .  ABSBIT   -----  BIT      00DCH  1
P45. . . . . . . . . . . . . . . . . .  ABSBIT   -----  BIT      00C5H  1
P36. . . . . . . . . . . . . . . . . .  ABSBIT   -----  BIT      00B6H  1
P27. . . . . . . . . . . . . . . . . .  ABSBIT   -----  BIT      00A7H  1
P55. . . . . . . . . . . . . . . . . .  ABSBIT   -----  BIT      00DDH  1
P46. . . . . . . . . . . . . . . . . .  ABSBIT   -----  BIT      00C6H  1
P37. . . . . . . . . . . . . . . . . .  ABSBIT   -----  BIT      00B7H  1
P47. . . . . . . . . . . . . . . . . .  ABSBIT   -----  BIT      00C7H  1
EXFX . . . . . . . . . . . . . . . . .  ABSBIT   -----  BIT      00CEH  1
DDRCON . . . . . . . . . . . . . . . .  SFR      DATA   U_CHAR   0093H  1
IAPCTL . . . . . . . . . . . . . . . .  SFR      DATA   U_CHAR   00F6H  1
IE1. . . . . . . . . . . . . . . . . .  SFR      DATA   U_CHAR   00A9H  1
IE2. . . . . . . . . . . . . . . . . .  SFR      DATA   U_CHAR   00AAH  1
TRUE . . . . . . . . . . . . . . . . .  E_CONST  -----  U_CHAR   -----  1
B. . . . . . . . . . . . . . . . . . .  SFR      DATA   U_CHAR   00F0H  1
CMPCON . . . . . . . . . . . . . . . .  SFR      DATA   U_CHAR   00B7H  1
IAPKEY . . . . . . . . . . . . . . . .  SFR      DATA   U_CHAR   00F1H  1
BTMCON . . . . . . . . . . . . . . . .  SFR      DATA   U_CHAR   00FBH  1
GPIO_TypeDef . . . . . . . . . . . . .  TYPEDEF  -----  U_CHAR   -----  1
PWMCFG . . . . . . . . . . . . . . . .  SFR      DATA   U_CHAR   00D4H  1
ACC. . . . . . . . . . . . . . . . . .  SFR      DATA   U_CHAR   00E0H  1
RCAPXH . . . . . . . . . . . . . . . .  SFR      DATA   U_CHAR   00CBH  1
NAME                                    CLASS   MSPACE  TYPE    OFFSET  SIZE
ET0. . . . . . . . . . . . . . . . . .  ABSBIT   -----  BIT      00A9H  1
CRCINX . . . . . . . . . . . . . . . .  SFR      DATA   U_CHAR   00FCH  1
TF0. . . . . . . . . . . . . . . . . .  ABSBIT   -----  BIT      008DH  1
ET1. . . . . . . . . . . . . . . . . .  ABSBIT   -----  BIT      00ABH  1
ADCCFG0. . . . . . . . . . . . . . . .  SFR      DATA   U_CHAR   00ABH  1
IP1. . . . . . . . . . . . . . . . . .  SFR      DATA   U_CHAR   00B9H  1
TF1. . . . . . . . . . . . . . . . . .  ABSBIT   -----  BIT      008FH  1
ET2. . . . . . . . . . . . . . . . . .  ABSBIT   -----  BIT      00ADH  1
ADCCFG1. . . . . . . . . . . . . . . .  SFR      DATA   U_CHAR   00ACH  1
IP2. . . . . . . . . . . . . . . . . .  SFR      DATA   U_CHAR   00BAH  1
RB8. . . . . . . . . . . . . . . . . .  ABSBIT   -----  BIT      009AH  1
ADCCFG2. . . . . . . . . . . . . . . .  SFR      DATA   U_CHAR   00B5H  1
RCAPXL . . . . . . . . . . . . . . . .  SFR      DATA   U_CHAR   00CAH  1
TH0. . . . . . . . . . . . . . . . . .  SFR      DATA   U_CHAR   008CH  1
TH1. . . . . . . . . . . . . . . . . .  SFR      DATA   U_CHAR   008DH  1
TB8. . . . . . . . . . . . . . . . . .  ABSBIT   -----  BIT      009BH  1
GPIO_Pin_TypeDef . . . . . . . . . . .  TYPEDEF  -----  U_CHAR   -----  1
uint8_t. . . . . . . . . . . . . . . .  TYPEDEF  -----  U_CHAR   -----  1
P. . . . . . . . . . . . . . . . . . .  ABSBIT   -----  BIT      00D0H  1
SM0. . . . . . . . . . . . . . . . . .  ABSBIT   -----  BIT      009FH  1
TL0. . . . . . . . . . . . . . . . . .  SFR      DATA   U_CHAR   008AH  1
GPIO_DeInit. . . . . . . . . . . . . .  PUBLIC   CODE   PROC     0000H  -----
SM1. . . . . . . . . . . . . . . . . .  ABSBIT   -----  BIT      009EH  1
WDTCON . . . . . . . . . . . . . . . .  SFR      DATA   U_CHAR   00CFH  1
TL1. . . . . . . . . . . . . . . . . .  SFR      DATA   U_CHAR   008BH  1
SM2. . . . . . . . . . . . . . . . . .  ABSBIT   -----  BIT      009DH  1
PWMDFR . . . . . . . . . . . . . . . .  SFR      DATA   U_CHAR   00D5H  1
_GPIO_WriteLow . . . . . . . . . . . .  PUBLIC   CODE   PROC     0000H  -----
  GPIOx. . . . . . . . . . . . . . . .  * REG *  DATA   U_CHAR   0007H  1
  PortPins . . . . . . . . . . . . . .  * REG *  DATA   U_CHAR   0005H  1
RS0. . . . . . . . . . . . . . . . . .  ABSBIT   -----  BIT      00D3H  1
TR0. . . . . . . . . . . . . . . . . .  ABSBIT   -----  BIT      008CH  1
RS1. . . . . . . . . . . . . . . . . .  ABSBIT   -----  BIT      00D4H  1
PWMCON . . . . . . . . . . . . . . . .  SFR      DATA   U_CHAR   00D3H  1
PWMMOD . . . . . . . . . . . . . . . .  SFR      DATA   U_CHAR   00D7H  1
TR1. . . . . . . . . . . . . . . . . .  ABSBIT   -----  BIT      008EH  1
IPUART . . . . . . . . . . . . . . . .  ABSBIT   -----  BIT      00BCH  1
s32. . . . . . . . . . . . . . . . . .  TYPEDEF  -----  LONG     -----  4
int8_t . . . . . . . . . . . . . . . .  TYPEDEF  -----  CHAR     -----  1
u32. . . . . . . . . . . . . . . . . .  TYPEDEF  -----  U_LONG   -----  4
s16. . . . . . . . . . . . . . . . . .  TYPEDEF  -----  INT      -----  2
u16. . . . . . . . . . . . . . . . . .  TYPEDEF  -----  U_INT    -----  2
PWMFLT . . . . . . . . . . . . . . . .  SFR      DATA   U_CHAR   00D6H  1
DPH. . . . . . . . . . . . . . . . . .  SFR      DATA   U_CHAR   0083H  1
GPIO0. . . . . . . . . . . . . . . . .  E_CONST  -----  U_CHAR   -----  1
DPL. . . . . . . . . . . . . . . . . .  SFR      DATA   U_CHAR   0082H  1
GPIO1. . . . . . . . . . . . . . . . .  E_CONST  -----  U_CHAR   -----  1
EINT0. . . . . . . . . . . . . . . . .  ABSBIT   -----  BIT      00A8H  1
P0CON. . . . . . . . . . . . . . . . .  SFR      DATA   U_CHAR   009AH  1
GPIO2. . . . . . . . . . . . . . . . .  E_CONST  -----  U_CHAR   -----  1
EINT1. . . . . . . . . . . . . . . . .  ABSBIT   -----  BIT      00AAH  1
IPADC. . . . . . . . . . . . . . . . .  ABSBIT   -----  BIT      00BEH  1
INT0F. . . . . . . . . . . . . . . . .  SFR      DATA   U_CHAR   00B4H  1
P1CON. . . . . . . . . . . . . . . . .  SFR      DATA   U_CHAR   0091H  1
GPIO3. . . . . . . . . . . . . . . . .  E_CONST  -----  U_CHAR   -----  1
INT1F. . . . . . . . . . . . . . . . .  SFR      DATA   U_CHAR   00BCH  1
P2CON. . . . . . . . . . . . . . . . .  SFR      DATA   U_CHAR   00A1H  1
NAME                                    CLASS   MSPACE  TYPE    OFFSET  SIZE
GPIO4. . . . . . . . . . . . . . . . .  E_CONST  -----  U_CHAR   -----  1
INT2F. . . . . . . . . . . . . . . . .  SFR      DATA   U_CHAR   00BEH  1
P3CON. . . . . . . . . . . . . . . . .  SFR      DATA   U_CHAR   00B1H  1
GPIO5. . . . . . . . . . . . . . . . .  E_CONST  -----  U_CHAR   -----  1
REN. . . . . . . . . . . . . . . . . .  ABSBIT   -----  BIT      009CH  1
P4CON. . . . . . . . . . . . . . . . .  SFR      DATA   U_CHAR   00C1H  1
P5CON. . . . . . . . . . . . . . . . .  SFR      DATA   U_CHAR   00D9H  1
ADCVH. . . . . . . . . . . . . . . . .  SFR      DATA   U_CHAR   00AFH  1
DPS. . . . . . . . . . . . . . . . . .  SFR      DATA   U_CHAR   0086H  1
US0CON0. . . . . . . . . . . . . . . .  SFR      DATA   U_CHAR   0095H  1
EXADH. . . . . . . . . . . . . . . . .  SFR      DATA   U_CHAR   00F7H  1
US1CON0. . . . . . . . . . . . . . . .  SFR      DATA   U_CHAR   00A4H  1
US0CON1. . . . . . . . . . . . . . . .  SFR      DATA   U_CHAR   009DH  1
ADCVL. . . . . . . . . . . . . . . . .  SFR      DATA   U_CHAR   00AEH  1
SET. . . . . . . . . . . . . . . . . .  E_CONST  -----  U_CHAR   -----  1
FALSE. . . . . . . . . . . . . . . . .  E_CONST  -----  U_CHAR   -----  1
US2CON0. . . . . . . . . . . . . . . .  SFR      DATA   U_CHAR   00C4H  1
US1CON1. . . . . . . . . . . . . . . .  SFR      DATA   U_CHAR   00A5H  1
US0CON2. . . . . . . . . . . . . . . .  SFR      DATA   U_CHAR   009EH  1
US2CON1. . . . . . . . . . . . . . . .  SFR      DATA   U_CHAR   00C5H  1
US1CON2. . . . . . . . . . . . . . . .  SFR      DATA   U_CHAR   00A6H  1
US0CON3. . . . . . . . . . . . . . . .  SFR      DATA   U_CHAR   009FH  1
US2CON2. . . . . . . . . . . . . . . .  SFR      DATA   U_CHAR   00C6H  1
US1CON3. . . . . . . . . . . . . . . .  SFR      DATA   U_CHAR   00A7H  1
INT0R. . . . . . . . . . . . . . . . .  SFR      DATA   U_CHAR   00BBH  1
US2CON3. . . . . . . . . . . . . . . .  SFR      DATA   U_CHAR   00C7H  1
INT1R. . . . . . . . . . . . . . . . .  SFR      DATA   U_CHAR   00BDH  1
PriorityStatus . . . . . . . . . . . .  TYPEDEF  -----  U_CHAR   -----  1
INT2R. . . . . . . . . . . . . . . . .  SFR      DATA   U_CHAR   00BFH  1
LOW. . . . . . . . . . . . . . . . . .  E_CONST  -----  U_CHAR   -----  1
TFX. . . . . . . . . . . . . . . . . .  ABSBIT   -----  BIT      00CFH  1
IOHCON0. . . . . . . . . . . . . . . .  SFR      DATA   U_CHAR   0096H  1
IOHCON1. . . . . . . . . . . . . . . .  SFR      DATA   U_CHAR   0097H  1
THX. . . . . . . . . . . . . . . . . .  SFR      DATA   U_CHAR   00CDH  1
F0 . . . . . . . . . . . . . . . . . .  ABSBIT   -----  BIT      00D5H  1
DISABLE. . . . . . . . . . . . . . . .  E_CONST  -----  U_CHAR   -----  1
F1 . . . . . . . . . . . . . . . . . .  ABSBIT   -----  BIT      00D1H  1
TLX. . . . . . . . . . . . . . . . . .  SFR      DATA   U_CHAR   00CCH  1
PSW. . . . . . . . . . . . . . . . . .  SFR      DATA   U_CHAR   00D0H  1
GPIO_PIN_HNIB. . . . . . . . . . . . .  E_CONST  -----  U_CHAR   -----  1
uint32_t . . . . . . . . . . . . . . .  TYPEDEF  -----  U_LONG   -----  4
MODULE INFORMATION:   STATIC OVERLAYABLE
   CODE SIZE        =    433    ----
   CONSTANT SIZE    =   ----    ----
   XDATA SIZE       =   ----    ----
   PDATA SIZE       =   ----    ----
   DATA SIZE        =   ----    ----
   IDATA SIZE       =   ----    ----
   BIT SIZE         =   ----    ----
   EDATA SIZE       =   ----    ----
   HDATA SIZE       =   ----    ----
   XDATA CONST SIZE =   ----    ----
   FAR CONST SIZE   =   ----    ----
END OF MODULE INFORMATION.
C51 COMPILATION COMPLETE.  0 WARNING(S),  0 ERROR(S)
