:0300000002039A5E
:10039A0078FFE4F6D8FD9000007F007E10E4F0A319
:0A03AA00DFFCDEFA75812C0203EF80
:100510002020200A5468697320697320544553547D
:1005200020666F7220415050300A00202020415038
:0F05300050302069732052756E6E696E670A0035
:0A05D0008F9FE52560FCE4F525226D
:10053F001205E41205AAD2AF7BFF7A0579101200DB
:0F054F00A01205EB7BFF7A05792B1200A080F23A
:0305DA00011C0001
:1005BF00D3EF9400EE94004007EF1F70F31E80F00E
:0105CF002209
:10057C00AD07EDD3940074809480400A7F607EEACE
:07058C001205BF1D80EC22E7
:0705E400439A01439B012231
:0705EB00B2807F0502057CD0
:0605DD00012400012500CD
:1005AA00758F30759550759E01759D1543A9014348
:0505BA009B30D2AF22CE
:03003B000204C2FA
:1004C200C0E0C0F0C083C082C0D075D000C000C000
:1004D20001C002C003C004C005C006C007E59530D4
:1004E200E106439502752501E59530E00643950145
:1004F200120593D007D006D005D004D003D002D085
:0E05020001D000D0D0D082D083D0F0D0E03233
:10055E0075F1F0E4F5F4EF700543F680800353F681
:0E056E007F438708000000000000000000220C
:1000030074272523F8A69FE4F524E527FD7C0064E7
:10001300AA701AE52964EF7014E5236402700E8553
:100023002826F523F527F528F529AF9F22ED64AAA5
:080033004C70020523AF9F226F
:10059300752401120003E5266401700A75FEC15338
:0705A300FF7FFF12055E223D
:1003B40002053FE493A3F8E493A34003F68001F21B
:1003C40008DFF48029E493A3F85407240CC8C3334A
:1003D400C4540F4420C8834004F456800146F6DF19
:1003E400E4800B01020408102040809005DAE47ECA
:1003F400019360BCA3FF543F30E509541FFEE4930E
:10040400A360010ECF54C025E060A840B8E493A3D4
:10041400FAE493A3F8E493A3C8C582C8CAC583CAFF
:10042400F0A3C8C582C8CAC583CADFE9DEE780BEB7
:0105E3000017
:10003E00E517240BF8E60517227808300702780B2F
:10004E00E475F00112048C0204342000EB7F2ED2F2
:10005E00008018EF540F2490D43440D4FF30040B9A
:10006E00EF24BFB41A0050032461FFE51860021597
:10007E0018051BE51B7002051A30070D7808E4758C
:10008E00F00112048CEF02047A0205D07403D20739
:10009E008003E4C207F5178B088A09890AE4F5186C
:1000AE00F51AF51BE51860077F2012007980F575AB
:1000BE0019FFC201C200C202C203C205C206C208B3
:1000CE00120047FF700D3007057F0012008AAF1B2C
:1000DE00AE1A22B4255FC2D5C204120047FF24D047
:1000EE00B40A00501A75F00A781830D50508B6FF14
:1000FE000106C6A426F620D5047002D20380D924A8
:10010E00CFB41A00EF5004C2E5D20402028AD20123
:10011E0080C6D20080C0D20280BCD2D580BAD205B1
:10012E0080B47F201200792002077401B5180040B8
:10013E00F112003EFF1200790200B2D208D2068000
:10014E009512003EFB12003EFA12003EF94A4B7029
:10015E0006795B7A037BFF20022EE518602A7E006B
:10016E008E8275830012044D60060EEE651970F0D6
:10017E00C2D5EBC0E0EAC0E0E9C0E0EE1202D1D099
:10018E00E0F9D0E0FAD0E0FB120434FF60AAEBC035
:10019E00E0EAC0E0E9C0E0120079D0E02401F9D035
:1001AE00E03400FAD0E0FBE5190460DCD519D98003
:1001BE00877BFF7A0279CDD202809C7910800279FA
:1001CE0008C206C2088008D2D5790A8004790AC20C
:1001DE00D5E519047002F519E4FAFDFEFF12003E92
:1001EE00FC7B0820011312003EFD7B1030000A122A
:1001FE00003EFE12003EFF7B20EC3382D592D5509E
:10020E0013C3E43000069FFFE49EFEE42001039D2D
:10021E00FDE49CFCE4CBF8C201EC700CCFCECDCC4F
:10022E00E824F8F870F38017C3EF33FFEE33FEEDDA
:10023E0033FDEC33FCEB33FB994002FB0FD8E9EBBB
:10024E00300105F8D0E0C448B201C0E00AEC4D4ED2
:10025E004F78207B0070C2EAB5190040BCC0E01296
:10026E0002D3D0F0D0E0200104C4C0E0C4B201C07B
:10027E00F0120062D0F0D5F0EB0200B212049C0135
:10028E004F5301C95801204C011C4201CD4F01D5DD
:0F029E004401D54901354301DB5501BF4601BF7E
:1002AD004501BF47037B5001242D01282E014B2B07
:1002BD00012C2301492003642A00E4480000014376
:1002CD003F3F3F00790AA2D5200314300509B9102C
:1002DD00020404B9080104A2D5200602500104202D
:1002ED0002689202B518005034C0E07F2030031927
:1002FD007F30A20272067205500F12032AC202C28B
:10030D0006C205C2087F30800F300503E9C0E01238
:10031D000079300503D0E0F9D0E0B518CC300517E1
:10032D007F30B9100C1200797F583004077F788028
:10033D0003B908031200793002057F2D0200797F81
:10034D00202008F87F2B2006F322920280CF286E02
:10035D00756C6C2900D20112003E3001F8C2017893
:10036D001830D50108F60200E42D5043495812000B
:10037D003E2403B405004001E49003769312006A15
:0D038D00743A12006AD2037518040201C907
:10043400BB010689828A83E0225002E722BBFE02C6
:09044400E32289828A83E49322F9
:10044D00BB010CE58229F582E5833AF583E0225064
:10045D0006E92582F8E622BBFE06E92582F8E222AE
:0D046D00E58229F582E5833AF583E49322C8
:10047A00BB010689828A83F0225002F722BBFE0161
:02048A00F3225B
:10048C00FAE6FB0808E6F925F0F618E6CA3AF62271
:10049C00D083D082F8E4937012740193700DA3A3EF
:1004AC0093F8740193F5828883E473740293686003
:0604BC00EFA3A3A380DF03
:00000001FF
