:030000000203995F
:0C039900787FE4F6D8FD75811A0203E0BD
:10000300602001B022081108111000207FFE400279
:1000130080041FE000400180FFFE01000100010099
:1000230005000200602000C80100010001003FF844
:100033002108210821083FF82108210821083FF859
:10004300210A0102010200FE60480168000000006D
:1000530020400430600218C0031880011880010199
:10006300001FFFFC10000C10001037FFC0000180C0
:100073000002000004000008087FFFFC00080000E5
:100083000800000800000800009800007800001035
:100093000000000060480080000000001000001015
:1000A300000010000010000010000FFFF0081020E7
:1000B3000810200810200FFFE00810200810200867
:1000C30010200810200FFFE0081020081000001077
:1000D3000400100400100400100C001FFC000000BA
:1000E300608000E800000000000000000004010040
:1000F300010201800183038000C3830000E18600C5
:100103000061840000610C00004008180FFFFFFC31
:100113000C0000180C0000301C00024019FFFF0007
:100123000000070000001C00000030000001400038
:1001330000018010000180383FFFFFFC00018000B8
:1001430000018000000180000001800000018000A8
:1001530000018000001F80000007800000020000F3
:1001630000000000608000000000000000000000AC
:1001730000020000000380000003000000030000F1
:10018300000300000403008007FFFFC0060300C054
:10019300060300C0060300C0060300C0060300C038
:1001A30007FFFFC0060300C0060300C0060300C02C
:1001B300060300C0060300C0060300C007FFFFC01C
:1001C300060300C00603000800030008000300083C
:1001D30000030008000300180003FFFC0001FFF800
:0801E300000000000000000014
:10061E00E4F594F593F592F591F596F595F5B2F519
:0A062E00B1F5B4F5B3F5CAF5C92221
:1002E20012061E7F647E0012064F1201F47F1F7EEB
:1002F20000120585C2B4751900751A1F75080075BC
:10030200091474FFF517F5187B017A0179B07D6441
:100312007C00AF09AE08120425E5092410FFE4357C
:1003220008FE7B017A0079C87D647C001204257581
:10033200080075093C7517077518E07B017A017989
:10034200687D787C00AF09AE08120485E50924189F
:10035200FFE43508FE7B017A0079807D787C00120B
:1003620004857508007509787517FF7518E07B011B
:100372007A0079E87DA07C00AF09AE081204E5E5B9
:10038200092420FFE43508FE7B017A0079007DA074
:070392007C001204E580FE6F
:0A06740000007F2E7E71DEFEDFFC29
:01067E002259
:10064F00AD07AC06ED1DAE0470011C4E6005120621
:04065F007480F12290
:0801EB00021700000219FFFFDA
:1005C2001205E47F311205E47F331205E47F4812FD
:1005D20005E47F171205E47F141205E40F1205E407
:0205E2007F3167
:0D05E400D2C9C2C88FA0C2C2D2C2D2C822E2
:040663007F2C7E006A
:0D066700C2C9C2C88FA0C2C2D2C2D2C8226E
:1001F4007F787E0012064F7F117E001206677F789B
:1002040012064F7F367E001206677F601205E47F78
:100214003A1206677F051205E47FB21206677F0C67
:100224001205E41205E4E4FF1205E47F331205E449
:100234001205E47FB71206677F351205E47FBB120F
:1002440006677F291205E47FC21206677F01120543
:10025400E47FC31206677F191205E47FC4120667A0
:100264007F201205E47FC51206677F1A1205E47F1A
:10027400C61206677F1F1205E47FD01206677FA4AB
:100284001205E47FA11205E47FE01206677FD01215
:1002940005E47F081205E47F0E1205E47F091205C8
:1002A400E41205E47F051205C27F341205E47FE100
:1002B4001206677FD01205E47F081205E47F0E1250
:1002C40005E47F091205E41205E47F151205C27FD7
:0E02D400341205E47F211206677F29020667B7
:06054500F516E43CF5157B
:10054B008F828E837F2A7E00120667E583FF12055A
:10055B00E4AF821205E4EAFF1205E4AF031205E4EF
:10056B007F2B120667ECFF1205E4AF051205E4E5DD
:0A057B0015FF1205E4AF160205E4B7
:10063800AD07AC06D2C9C2C88CA0C2C2D2C28DA0B6
:07064800C2C2D2C2D2C822D7
:040585008E0A8F0B40
:100589007515007516EF7B3F7A01E4FDFCFFFE123D
:10059900054B120663E4FB1A900000AF0BAE0A127A
:1005A9000638A3E582B440F3E583B401EE0BBB0042
:0805B900010AEB64F04A70E056
:0105C1002217
:060425008B0A8A0B890C12
:10042B00EF240FFBE43EFAED240F12054512066391
:10043B00E4F50DF50EAB0AAA0BA90C850E82850D02
:10044B00831205F1F9E4FBFAE930E706AF18AE17B2
:10045B008004AF1AAE19120638E925E0F90BBB0080
:10046B00010AEB64084A70E0050EE50E7002050DFB
:09047B00C39420E50D940040BC7F
:010484002255
:060485008B0A8A0B890CB2
:10048B00EF2417FBE43EFAED241712054512066321
:10049B00E4F50DF50EAB0AAA0BA90C850E82850DA2
:1004AB00831205F1F9E4FBFAE930E706AF18AE1752
:1004BB008004AF1AAE19120638E925E0F90BBB0020
:1004CB00010AEB64084A70E0050EE50E7002050D9B
:0904DB00C39448E50D940040BCF7
:0104E40022F5
:0604E5008B0A8A0B890C52
:1004EB00EF241FFBE43EFAED241F120545120663B1
:1004FB00E4F50DF50EAB0AAA0BA90C850E82850D42
:10050B00831205F1F9E4FBFAE930E706AF18AE17F1
:10051B008004AF1AAE19120638E925E0F90BBB00BF
:10052B00010AEB64084A70E0050EE50E7002050D3A
:09053B00C39480E50D940040BC5E
:010544002294
:1003A5000202E2E493A3F8E493A34003F68001F28A
:1003B50008DFF48029E493A3F85407240CC8C33359
:1003C500C4540F4420C8834004F456800146F6DF28
:1003D500E4800B0102040810204080900003E47EB5
:1003E500019360BCA3FF543F30E509541FFEE4931D
:1003F500A360010ECF54C025E060A840B8E493A3E4
:10040500FAE493A3F8E493A3C8C582C8CAC583CA0E
:10041500F0A3C8C582C8CAC583CADFE9DEE780BEC6
:0101F300000B
:1005F100BB010CE58229F582E5833AF583E02250BF
:1006010006E92582F8E622BBFE06E92582F8E22208
:0D061100E58229F582E5833AF583E4932222
:00000001FF
