BL51 BANKED LINKER/LOCATER V6.22.2.0                                                    03/30/2022  11:12:38  PAGE 1


BL51 BANKED LINKER/LOCATER V6.22.2.0, INVOKED BY:
D:\KEIL_V5\C51\BIN\BL51.EXE ..\OUTPUT\STARTUP.obj, ..\OUTPUT\main.obj, ..\OUTPUT\Work.obj, ..\OUTPUT\BootloaderEntrance.
>> obj TO ..\OUTPUT\Bootloader-SH1 PRINT (.\Bootloader-SH1.m51) RAMSIZE (256)


MEMORY MODEL: SMALL


INPUT MODULES INCLUDED:
  ..\OUTPUT\STARTUP.obj (?C_STARTUP)
  ..\OUTPUT\main.obj (MAIN)
  ..\OUTPUT\Work.obj (WORK)
  ..\OUTPUT\BootloaderEntrance.obj (BOOTLOADERENTRANCE)
  D:\KEIL_V5\C51\LIB\C51S.LIB (?C_INIT)
  D:\KEIL_V5\C51\LIB\C51S.LIB (?C?SLDIV)
  D:\KEIL_V5\C51\LIB\C51S.LIB (PRINTF)
  D:\KEIL_V5\C51\LIB\C51S.LIB (?C?CLDPTR)
  D:\KEIL_V5\C51\LIB\C51S.LIB (?C?CLDOPTR)
  D:\KEIL_V5\C51\LIB\C51S.LIB (?C?CSTPTR)
  D:\KEIL_V5\C51\LIB\C51S.LIB (?C?ULDIV)
  D:\KEIL_V5\C51\LIB\C51S.LIB (?C?PLDIIDATA)
  D:\KEIL_V5\C51\LIB\C51S.LIB (?C?CCASE)


LINK MAP OF MODULE:  ..\OUTPUT\Bootloader-SH1 (?C_STARTUP)


            TYPE    BASE      LENGTH    RELOCATION   SEGMENT NAME
            -----------------------------------------------------

            * * * * * * *   D A T A   M E M O R Y   * * * * * * *
            REG     0000H     0008H     ABSOLUTE     "REG BANK 0"
            DATA    0008H     0016H     UNIT         _DATA_GROUP_
                    001EH     0002H                  *** GAP ***
            BIT     0020H.0   0001H.1   UNIT         _BIT_GROUP_
                    0021H.1   0000H.7                *** GAP ***
            DATA    0022H     000BH     UNIT         ?DT?BOOTLOADERENTRANCE
            DATA    002DH     0004H     UNIT         ?DT?WORK
            IDATA   0031H     0001H     UNIT         ?STACK

            * * * * * * *   C O D E   M E M O R Y   * * * * * * *
            CODE    0000H     0003H     ABSOLUTE     
            CODE    0003H     0008H     UNIT         ?PR?T0_INIT?WORK
            CODE    000BH     0003H     ABSOLUTE     
            CODE    000EH     001FH     UNIT         ?PR?MAIN?MAIN
            CODE    002DH     000EH     UNIT         ?C_INITSEG
            CODE    003BH     0003H     ABSOLUTE     
            CODE    003EH     035CH     UNIT         ?PR?PRINTF?PRINTF
            CODE    039AH     015CH     UNIT         ?C?LIB_CODE
            CODE    04F6H     009AH     UNIT         ?C_C51STARTUP
            CODE    0590H     004EH     UNIT         ?PR?UART_WORK?BOOTLOADERENTRANCE
            CODE    05DEH     0049H     UNIT         ?PR?_TIMESET0?WORK
            CODE    0627H     0044H     UNIT         ?C?LDIV
            CODE    066BH     003BH     UNIT         ?PR?INT_1?WORK
            CODE    06A6H     0038H     UNIT         ?PR?UARTRECECMD?BOOTLOADERENTRANCE
            CODE    06DEH     0030H     UNIT         ?CO?MAIN
            CODE    070EH     001BH     UNIT         ?PR?TIMERTOLED?WORK
            CODE    0729H     001BH     UNIT         ?PR?_IAP_GOTO?BOOTLOADERENTRANCE
BL51 BANKED LINKER/LOCATER V6.22.2.0                                                  03/30/2022  11:12:38  PAGE 2


            CODE    0744H     0017H     UNIT         ?PR?BOOTLOADERCHECK?BOOTLOADERENTRANCE
            CODE    075BH     0015H     UNIT         ?PR?UARTINIT?BOOTLOADERENTRANCE
            CODE    0770H     0012H     UNIT         ?PR?LEDSHOW1?WORK
            CODE    0782H     000AH     UNIT         ?PR?_PUTCHAR?MAIN
            CODE    078CH     0009H     UNIT         ?PR?LEDINIT1?WORK



OVERLAY MAP OF MODULE:   ..\OUTPUT\Bootloader-SH1 (?C_STARTUP)


SEGMENT                                           BIT_GROUP          DATA_GROUP 
  +--> CALLED SEGMENT                          START    LENGTH     START    LENGTH
----------------------------------------------------------------------------------
?C_C51STARTUP                                  -----    -----      -----    -----
  +--> ?PR?MAIN?MAIN
  +--> ?C_INITSEG

?PR?MAIN?MAIN                                  -----    -----      -----    -----
  +--> ?PR?LEDINIT1?WORK
  +--> ?PR?T0_INIT?WORK
  +--> ?PR?UARTINIT?BOOTLOADERENTRANCE
  +--> ?CO?MAIN
  +--> ?PR?PRINTF?PRINTF

?PR?PRINTF?PRINTF                              0020H.0  0001H.1    0008H    0014H
  +--> ?PR?_PUTCHAR?MAIN

*** NEW ROOT ***************************************************

?PR?INT_1?WORK                                 -----    -----      -----    -----
  +--> ?PR?TIMERTOLED?WORK

?PR?TIMERTOLED?WORK                            -----    -----      -----    -----
  +--> ?PR?_TIMESET0?WORK
  +--> ?PR?LEDSHOW1?WORK

?PR?_TIMESET0?WORK                             -----    -----      001CH    0002H

*** NEW ROOT ***************************************************

?PR?UART_WORK?BOOTLOADERENTRANCE               -----    -----      -----    -----
  +--> ?PR?BOOTLOADERCHECK?BOOTLOADERENTRANCE

?PR?BOOTLOADERCHECK?BOOTLOADERENTRANCE         -----    -----      -----    -----
  +--> ?PR?UARTRECECMD?BOOTLOADERENTRANCE
  +--> ?PR?_IAP_GOTO?BOOTLOADERENTRANCE



SYMBOL TABLE OF MODULE:  ..\OUTPUT\Bootloader-SH1 (?C_STARTUP)

  VALUE           TYPE          NAME
  ----------------------------------

  -------         MODULE        ?C_STARTUP
  C:04F6H         SEGMENT       ?C_C51STARTUP
BL51 BANKED LINKER/LOCATER V6.22.2.0                                                  03/30/2022  11:12:38  PAGE 3


  I:0031H         SEGMENT       ?STACK
  C:0000H         PUBLIC        ?C_STARTUP
  D:00E0H         SYMBOL        ACC
  D:00F0H         SYMBOL        B
  D:0083H         SYMBOL        DPH
  D:0082H         SYMBOL        DPL
  N:0000H         SYMBOL        IBPSTACK
  N:0100H         SYMBOL        IBPSTACKTOP
  N:0100H         SYMBOL        IDATALEN
  C:04F9H         SYMBOL        IDATALOOP
  N:0000H         SYMBOL        PBPSTACK
  N:0100H         SYMBOL        PBPSTACKTOP
  N:0000H         SYMBOL        PDATALEN
  N:0000H         SYMBOL        PDATASTART
  N:0000H         SYMBOL        PPAGE
  N:0000H         SYMBOL        PPAGEENABLE
  D:00A0H         SYMBOL        PPAGE_SFR
  D:0081H         SYMBOL        SP
  C:04F6H         SYMBOL        STARTUP1
  N:0000H         SYMBOL        XBPSTACK
  N:0000H         SYMBOL        XBPSTACKTOP
  N:1000H         SYMBOL        XDATALEN
  C:0504H         SYMBOL        XDATALOOP
  N:0000H         SYMBOL        XDATASTART
  C:0000H         LINE#         126
  C:04F6H         LINE#         134
  C:04F8H         LINE#         135
  C:04F9H         LINE#         136
  C:04FAH         LINE#         137
  C:04FCH         LINE#         141
  C:04FFH         LINE#         142
  C:0501H         LINE#         146
  C:0503H         LINE#         148
  C:0504H         LINE#         149
  C:0505H         LINE#         150
  C:0506H         LINE#         151
  C:0508H         LINE#         152
  C:050AH         LINE#         186
  C:050DH         LINE#         197
  -------         ENDMOD        ?C_STARTUP

  -------         MODULE        MAIN
  C:0000H         SYMBOL        _ICE_DUMMY_
  D:0080H         PUBLIC        P0
  D:00E8H         PUBLIC        TKCON
  D:0090H         PUBLIC        P1
  D:00A0H         PUBLIC        P2
  D:00B0H         PUBLIC        P3
  D:00C0H         PUBLIC        P4
  D:00D8H         PUBLIC        P5
  B:00A8H.7       PUBLIC        EA
  D:00C8H         PUBLIC        TXCON
  D:00A8H         PUBLIC        IE
  D:00B8H         PUBLIC        IP
  C:000EH         PUBLIC        main
  D:0098H         PUBLIC        SCON
  D:0088H         PUBLIC        TCON
BL51 BANKED LINKER/LOCATER V6.22.2.0                                                  03/30/2022  11:12:38  PAGE 4


  D:009FH         PUBLIC        US0CON3
  D:00D0H         PUBLIC        PSW
  C:0782H         PUBLIC        _putchar
  -------         PROC          _PUTCHAR
  D:0007H         SYMBOL        c
  C:0782H         LINE#         20
  C:0782H         LINE#         21
  C:0782H         LINE#         22
  C:0784H         LINE#         23
  C:0788H         LINE#         24
  C:078BH         LINE#         25
  C:078BH         LINE#         26
  -------         ENDPROC       _PUTCHAR
  -------         PROC          MAIN
  C:000EH         LINE#         34
  C:000EH         LINE#         35
  C:000EH         LINE#         36
  C:0011H         LINE#         37
  C:0014H         LINE#         38
  C:0017H         LINE#         39
  C:0019H         LINE#         40
  C:0022H         LINE#         41
  C:0022H         LINE#         42
  C:0022H         LINE#         43
  C:002BH         LINE#         44
  -------         ENDPROC       MAIN
  -------         ENDMOD        MAIN

  -------         MODULE        WORK
  C:0000H         SYMBOL        _ICE_DUMMY_
  D:0080H         PUBLIC        P0
  D:00E8H         PUBLIC        TKCON
  D:0090H         PUBLIC        P1
  D:00A0H         PUBLIC        P2
  D:00B0H         PUBLIC        P3
  D:00C0H         PUBLIC        P4
  D:00D8H         PUBLIC        P5
  D:00C8H         PUBLIC        TXCON
  D:00A8H         PUBLIC        IE
  C:05DEH         PUBLIC        _Timeset0
  D:002DH         PUBLIC        TimerCount
  D:009BH         PUBLIC        P0PH
  D:00B8H         PUBLIC        IP
  C:070EH         PUBLIC        TimerToLED
  D:002EH         PUBLIC        LedShowSelect
  D:002FH         PUBLIC        LedPoint
  B:0080H.0       PUBLIC        P00
  D:0098H         PUBLIC        SCON
  D:0089H         PUBLIC        TMOD
  D:0088H         PUBLIC        TCON
  C:066BH         PUBLIC        Int_1
  B:00A8H.1       PUBLIC        ET0
  D:008CH         PUBLIC        TH0
  D:008AH         PUBLIC        TL0
  B:0088H.4       PUBLIC        TR0
  C:078CH         PUBLIC        LedInit1
  D:009AH         PUBLIC        P0CON
BL51 BANKED LINKER/LOCATER V6.22.2.0                                                  03/30/2022  11:12:38  PAGE 5


  C:0770H         PUBLIC        LedShow1
  C:0003H         PUBLIC        T0_Init
  D:00D0H         PUBLIC        PSW
  -------         PROC          LEDINIT1
  C:078CH         LINE#         22
  C:078CH         LINE#         23
  C:078CH         LINE#         24
  C:078FH         LINE#         25
  C:0792H         LINE#         26
  C:0794H         LINE#         27
  -------         ENDPROC       LEDINIT1
  -------         PROC          LEDSHOW1
  C:0770H         LINE#         35
  C:0770H         LINE#         36
  C:0770H         LINE#         37
  C:0781H         LINE#         38
  -------         ENDPROC       LEDSHOW1
  -------         PROC          T0_INIT
  C:0003H         LINE#         46
  C:0003H         LINE#         47
  C:0003H         LINE#         48
  C:0005H         LINE#         49
  C:0008H         LINE#         50
  C:000AH         LINE#         52
  -------         ENDPROC       T0_INIT
  -------         PROC          _TIMESET0
  D:001CH         SYMBOL        timeset
  C:05DEH         LINE#         59
  C:05E2H         LINE#         60
  C:05E2H         LINE#         61
  C:0601H         LINE#         62
  C:0626H         LINE#         63
  -------         ENDPROC       _TIMESET0
  -------         PROC          TIMERTOLED
  C:070EH         LINE#         70
  C:070EH         LINE#         71
  C:070EH         LINE#         72
  C:0715H         LINE#         73
  C:0717H         LINE#         74
  C:0722H         LINE#         75
  C:0722H         LINE#         76
  C:0725H         LINE#         77
  C:0728H         LINE#         78
  C:0728H         LINE#         79
  -------         ENDPROC       TIMERTOLED
  -------         PROC          INT_1
  C:066BH         LINE#         86
  C:0688H         LINE#         88
  C:068BH         LINE#         89
  -------         ENDPROC       INT_1
  -------         ENDMOD        WORK

  -------         MODULE        BOOTLOADERENTRANCE
  C:0000H         SYMBOL        _ICE_DUMMY_
  D:00FFH         PUBLIC        OPREG
  D:0080H         PUBLIC        P0
  D:00E8H         PUBLIC        TKCON
BL51 BANKED LINKER/LOCATER V6.22.2.0                                                  03/30/2022  11:12:38  PAGE 6


  D:0090H         PUBLIC        P1
  D:00A0H         PUBLIC        P2
  D:00B0H         PUBLIC        P3
  D:00C0H         PUBLIC        P4
  D:0022H         PUBLIC        UartLength
  D:008FH         PUBLIC        OTCON
  D:00D8H         PUBLIC        P5
  B:00A8H.7       PUBLIC        EA
  D:0023H         PUBLIC        UartReadNumber
  D:00C8H         PUBLIC        TXCON
  D:00A8H         PUBLIC        IE
  D:00FEH         PUBLIC        OPINX
  D:009BH         PUBLIC        P0PH
  D:00B8H         PUBLIC        IP
  D:0024H         PUBLIC        UartReceFlag
  D:0025H         PUBLIC        UartSendFlag
  D:0026H         PUBLIC        IAPCMD
  D:0087H         PUBLIC        PCON
  D:0098H         PUBLIC        SCON
  C:075BH         PUBLIC        UartInit
  D:0088H         PUBLIC        TCON
  C:0729H         PUBLIC        _IAP_GoTo
  D:00F6H         PUBLIC        IAPCTL
  D:00A9H         PUBLIC        IE1
  C:0590H         PUBLIC        UART_Work
  D:00F1H         PUBLIC        IAPKEY
  D:0095H         PUBLIC        US0CON0
  D:009DH         PUBLIC        US0CON1
  D:009EH         PUBLIC        US0CON2
  D:009FH         PUBLIC        US0CON3
  C:0744H         PUBLIC        BootloaderCheck
  D:0027H         PUBLIC        UartCMD
  C:06A6H         PUBLIC        UartReceCMD
  D:00D0H         PUBLIC        PSW
  -------         PROC          UARTINIT
  C:075BH         LINE#         27
  C:075BH         LINE#         28
  C:075BH         LINE#         29
  C:075EH         LINE#         40
  C:0761H         LINE#         41
  C:0764H         LINE#         42
  C:0767H         LINE#         43
  C:076AH         LINE#         45
  C:076DH         LINE#         64
  C:076FH         LINE#         65
  -------         ENDPROC       UARTINIT
  -------         PROC          UART_WORK
  C:0590H         LINE#         72
  C:05ADH         LINE#         74
  C:05B2H         LINE#         75
  C:05B2H         LINE#         76
  C:05B5H         LINE#         77
  C:05B8H         LINE#         78
  C:05B8H         LINE#         79
  C:05BDH         LINE#         80
  C:05BDH         LINE#         81
  C:05C0H         LINE#         82
BL51 BANKED LINKER/LOCATER V6.22.2.0                                                  03/30/2022  11:12:38  PAGE 7


  C:05C3H         LINE#         83
  C:05C3H         LINE#         84
  -------         ENDPROC       UART_WORK
  -------         PROC          _IAP_GOTO
  D:0007H         SYMBOL        mode
  C:0729H         LINE#         91
  C:0729H         LINE#         92
  C:0729H         LINE#         93
  C:072CH         LINE#         94
  C:072FH         LINE#         95
  C:072FH         LINE#         96
  C:0732H         LINE#         97
  C:0734H         LINE#         99
  C:0737H         LINE#         101
  C:0737H         LINE#         102
  C:073AH         LINE#         103
  C:073BH         LINE#         104
  C:073CH         LINE#         105
  C:073DH         LINE#         106
  C:073EH         LINE#         107
  C:073FH         LINE#         108
  C:0740H         LINE#         109
  C:0741H         LINE#         110
  C:0742H         LINE#         111
  C:0743H         LINE#         112
  -------         ENDPROC       _IAP_GOTO
  -------         PROC          UARTRECECMD
  C:06A6H         LINE#         120
  C:06A6H         LINE#         121
  C:06A6H         LINE#         122
  C:06ADH         LINE#         123
  C:06B0H         LINE#         124
  C:06C5H         LINE#         125
  C:06C5H         LINE#         126
  C:06C8H         LINE#         127
  C:06CAH         LINE#         128
  C:06CCH         LINE#         129
  C:06CEH         LINE#         130
  C:06D0H         LINE#         131
  C:06D3H         LINE#         132
  C:06D3H         LINE#         133
  C:06D9H         LINE#         134
  C:06D9H         LINE#         135
  C:06DBH         LINE#         136
  C:06DBH         LINE#         137
  C:06DDH         LINE#         138
  -------         ENDPROC       UARTRECECMD
  -------         PROC          BOOTLOADERCHECK
  C:0744H         LINE#         145
  C:0744H         LINE#         146
  C:0744H         LINE#         147
  C:0747H         LINE#         148
  C:074AH         LINE#         149
  C:0750H         LINE#         150
  C:0750H         LINE#         151
  C:0753H         LINE#         152
  C:0756H         LINE#         153
BL51 BANKED LINKER/LOCATER V6.22.2.0                                                  03/30/2022  11:12:38  PAGE 8


  C:075AH         LINE#         154
  C:075AH         LINE#         155
  -------         ENDPROC       BOOTLOADERCHECK
  -------         ENDMOD        BOOTLOADERENTRANCE

  -------         MODULE        ?C?SLDIV
  C:0627H         PUBLIC        ?C?SLDIV
  -------         ENDMOD        ?C?SLDIV

  -------         MODULE        PRINTF
  D:0008H         PUBLIC        ?_PRINTF517?BYTE
  D:0008H         PUBLIC        ?_PRINTF?BYTE
  D:0008H         PUBLIC        ?_SPRINTF517?BYTE
  D:0008H         PUBLIC        ?_SPRINTF?BYTE
  C:00A0H         PUBLIC        _PRINTF
  C:00A0H         PUBLIC        _PRINTF517
  C:009AH         PUBLIC        _SPRINTF
  C:009AH         PUBLIC        _SPRINTF517
  -------         ENDMOD        PRINTF

  -------         MODULE        ?C?CLDPTR
  C:039AH         PUBLIC        ?C?CLDPTR
  -------         ENDMOD        ?C?CLDPTR

  -------         MODULE        ?C?CLDOPTR
  C:03B3H         PUBLIC        ?C?CLDOPTR
  -------         ENDMOD        ?C?CLDOPTR

  -------         MODULE        ?C?CSTPTR
  C:03E0H         PUBLIC        ?C?CSTPTR
  -------         ENDMOD        ?C?CSTPTR

  -------         MODULE        ?C?ULDIV
  C:042EH         PUBLIC        ?C?ULDIV
  -------         ENDMOD        ?C?ULDIV

  -------         MODULE        ?C?PLDIIDATA
  C:04C0H         PUBLIC        ?C?PLDIIDATA
  -------         ENDMOD        ?C?PLDIIDATA

  -------         MODULE        ?C?CCASE
  C:04D0H         PUBLIC        ?C?CCASE
  -------         ENDMOD        ?C?CCASE

Program Size: data=47.1 xdata=0 code=1941
LINK/LOCATE RUN COMPLETE.  0 WARNING(S),  0 ERROR(S)
