LX51 LINKER/LOCATER V4.41                                                               02/07/2021  16:31:57  PAGE 1


LX51 LINKER/LOCATER V4.41, INVOKED BY:
C:\KEIL\C51\BIN\LX51.EXE D:\EASYIOT_DEMO\TWI\KEIL_C\OUTPUT\MAIN.OBJ, D:\EASYIOT_DEMO\TWI\KEIL_C\OUTPUT\SC95F_GPIO.OBJ, D
>> :\EASYIOT_DEMO\TWI\KEIL_C\OUTPUT\SC95F_OPTION.OBJ, D:\EASYIOT_DEMO\TWI\KEIL_C\OUTPUT\SC95F_UART0.OBJ, D:\EASYIOT_DEMO
>> \TWI\KEIL_C\OUTPUT\SC95F_USCI0.OBJ, D:\EASYIOT_DEMO\TWI\KEIL_C\OUTPUT\SC95F_USCI2.OBJ, D:\EASYIOT_DEMO\TWI\KEIL_C\OUT
>> PUT\SC_INIT.OBJ, D:\EASYIOT_DEMO\TWI\KEIL_C\OUTPUT\SC_IT.OBJ, D:\EASYIOT_DEMO\TWI\KEIL_C\OUTPUT\STARTUP.OBJ, D:\EASYI
>> OT_DEMO\TWI\KEIL_C\OUTPUT\TWI_COMMUNICATION.OBJ TO ..\OUTPUT\TWI PRINT (..\Output\TWI.map) REMOVEUNUSED CLASSES (CODE
>>  (C:0X100), CONST (C:0X100))


CPU MODE:     8051 MODE
MEMORY MODEL: LARGE


INPUT MODULES INCLUDED:
  D:\EASYIOT_DEMO\TWI\KEIL_C\OUTPUT\MAIN.OBJ (MAIN)
         COMMENT TYPE 0: C51 V9.01
  D:\EASYIOT_DEMO\TWI\KEIL_C\OUTPUT\SC95F_GPIO.OBJ (SC95F_GPIO)
         COMMENT TYPE 0: C51 V9.01
  D:\EASYIOT_DEMO\TWI\KEIL_C\OUTPUT\SC95F_OPTION.OBJ (SC95F_OPTION)
         COMMENT TYPE 0: C51 V9.01
  D:\EASYIOT_DEMO\TWI\KEIL_C\OUTPUT\SC95F_UART0.OBJ (SC95F_UART0)
         COMMENT TYPE 0: C51 V9.01
  D:\EASYIOT_DEMO\TWI\KEIL_C\OUTPUT\SC95F_USCI0.OBJ (SC95F_USCI0)
         COMMENT TYPE 0: C51 V9.01
  D:\EASYIOT_DEMO\TWI\KEIL_C\OUTPUT\SC95F_USCI2.OBJ (SC95F_USCI2)
         COMMENT TYPE 0: C51 V9.01
  D:\EASYIOT_DEMO\TWI\KEIL_C\OUTPUT\SC_INIT.OBJ (SC_INIT)
         COMMENT TYPE 0: C51 V9.01
  D:\EASYIOT_DEMO\TWI\KEIL_C\OUTPUT\SC_IT.OBJ (SC_IT)
         COMMENT TYPE 0: C51 V9.01
  D:\EASYIOT_DEMO\TWI\KEIL_C\OUTPUT\STARTUP.OBJ (?C_STARTUP)
         COMMENT TYPE 1: A51 / ASM51 Assembler
  D:\EASYIOT_DEMO\TWI\KEIL_C\OUTPUT\TWI_COMMUNICATION.OBJ (TWI_COMMUNICATION)
         COMMENT TYPE 0: C51 V9.01
  C:\KEIL\C51\LIB\C51L.LIB (?C_INIT)
         COMMENT TYPE 1: A51 / ASM51 Assembler
  C:\KEIL\C51\LIB\C51L.LIB (?C?ULDIV)
         COMMENT TYPE 1: A51 / ASM51 Assembler
  C:\KEIL\C51\LIB\C51L.LIB (?C?ULCMP)
         COMMENT TYPE 1: A51 / ASM51 Assembler
  C:\KEIL\C51\LIB\C51L.LIB (?C?LSTXDATA)
         COMMENT TYPE 1: A51 / ASM51 Assembler
  C:\KEIL\C51\LIB\C51L.LIB (?C?LSTKXDATA)
         COMMENT TYPE 1: A51 / ASM51 Assembler
  C:\KEIL\C51\LIB\C51L.LIB (PRINTF)
         COMMENT TYPE 1: A51 / ASM51 Assembler
  C:\KEIL\C51\LIB\C51L.LIB (?C?CLDPTR)
         COMMENT TYPE 1: A51 / ASM51 Assembler
  C:\KEIL\C51\LIB\C51L.LIB (?C?CLDOPTR)
         COMMENT TYPE 1: A51 / ASM51 Assembler
  C:\KEIL\C51\LIB\C51L.LIB (?C?CSTPTR)
         COMMENT TYPE 1: A51 / ASM51 Assembler
  C:\KEIL\C51\LIB\C51L.LIB (?C?PLDIXDATA)
         COMMENT TYPE 1: A51 / ASM51 Assembler
  C:\KEIL\C51\LIB\C51L.LIB (?C?PSTXDATA)
         COMMENT TYPE 1: A51 / ASM51 Assembler
  C:\KEIL\C51\LIB\C51L.LIB (?C?CCASE)
         COMMENT TYPE 1: A51 / ASM51 Assembler


ACTIVE MEMORY CLASSES OF MODULE:  ..\OUTPUT\TWI (MAIN)

BASE        START       END         USED      MEMORY CLASS
==========================================================
C:000000H   C:000100H   C:00FFFFH   000B6AH   CODE
C:000000H   C:000100H   C:00FFFFH             CONST
LX51 LINKER/LOCATER V4.41                                                             02/07/2021  16:31:57  PAGE 2


X:000000H   X:000000H   X:00FFFFH   00002BH   XDATA
I:000020H.0 I:000020H.0 I:00002FH.7 000001H.4 BIT
I:000000H   I:000000H   I:0000FFH   000001H   IDATA
I:000000H   I:000000H   I:00007FH   00000DH   DATA


MEMORY MAP OF MODULE:  ..\OUTPUT\TWI (MAIN)


START     STOP      LENGTH    ALIGN  RELOC    MEMORY CLASS   SEGMENT NAME
=========================================================================

* * * * * * * * * * *   D A T A   M E M O R Y   * * * * * * * * * * * * *
000000H   000007H   000008H   ---    AT..     DATA           "REG BANK 0"
000008H   00000CH   000005H   BYTE   UNIT     DATA           _DATA_GROUP_
00000DH.0 00001FH.7 000013H.0 ---    ---      **GAP**
000020H.0 000021H.0 000001H.1 BIT    UNIT     BIT            _BIT_GROUP_
000021H.1 000021H.3 000000H.3 BIT    UNIT     BIT            ?BI?MAIN
000021H.4 000021H   000000H.4 ---    ---      **GAP**
000022H   000022H   000001H   BYTE   UNIT     IDATA          ?STACK

* * * * * * * * * * *   C O D E   M E M O R Y   * * * * * * * * * * * * *
000000H   000002H   000003H   ---    OFFS..   CODE           ?CO??C_STARTUP?0
000003H   000005H   000003H   BYTE   OFFS..   CODE           ?SC_IT?00003
000006H   00000AH   000005H   ---    ---      **GAP**
00000BH   00000DH   000003H   BYTE   OFFS..   CODE           ?SC_IT?0000B
00000EH   000012H   000005H   ---    ---      **GAP**
000013H   000015H   000003H   BYTE   OFFS..   CODE           ?SC_IT?00013
000016H   00001AH   000005H   ---    ---      **GAP**
00001BH   00001DH   000003H   BYTE   OFFS..   CODE           ?SC_IT?0001B
00001EH   000022H   000005H   ---    ---      **GAP**
000023H   000025H   000003H   BYTE   OFFS..   CODE           ?SC_IT?00023
000026H   00002AH   000005H   ---    ---      **GAP**
00002BH   00002DH   000003H   BYTE   OFFS..   CODE           ?SC_IT?0002B
00002EH   000032H   000005H   ---    ---      **GAP**
000033H   000035H   000003H   BYTE   OFFS..   CODE           ?SC_IT?00033
000036H   00003AH   000005H   ---    ---      **GAP**
00003BH   00003DH   000003H   BYTE   OFFS..   CODE           ?SC_IT?0003B
00003EH   000042H   000005H   ---    ---      **GAP**
000043H   000045H   000003H   BYTE   OFFS..   CODE           ?SC_IT?00043
000046H   00004AH   000005H   ---    ---      **GAP**
00004BH   00004DH   000003H   BYTE   OFFS..   CODE           ?SC_IT?0004B
00004EH   000052H   000005H   ---    ---      **GAP**
000053H   000055H   000003H   BYTE   OFFS..   CODE           ?SC_IT?00053
000056H   000062H   00000DH   ---    ---      **GAP**
000063H   000065H   000003H   BYTE   OFFS..   CODE           ?SC_IT?00063
000066H   00006AH   000005H   ---    ---      **GAP**
00006BH   00006DH   000003H   BYTE   OFFS..   CODE           ?SC_IT?0006B
00006EH   000072H   000005H   ---    ---      **GAP**
000073H   000075H   000003H   BYTE   OFFS..   CODE           ?SC_IT?00073
000076H   00007AH   000005H   ---    ---      **GAP**
00007BH   00007DH   000003H   BYTE   OFFS..   CODE           ?SC_IT?0007B
00007EH   000082H   000005H   ---    ---      **GAP**
000083H   000085H   000003H   BYTE   OFFS..   CODE           ?SC_IT?00083
000086H   0000FFH   00007AH   ---    ---      **GAP**
000100H   000464H   000365H   BYTE   UNIT     CODE           ?PR?PRINTF?PRINTF
000465H   00061EH   0001BAH   BYTE   UNIT     CODE           ?C?LIB_CODE
00061FH   000728H   00010AH   BYTE   UNIT     CODE           ?PR?_UART0_INIT?SC95F_UART0
000729H   0007F7H   0000CFH   BYTE   UNIT     CODE           ?PR?_GPIO_INIT?SC95F_GPIO
0007F8H   000891H   00009AH   BYTE   UNIT     CODE           ?C_C51STARTUP
000892H   0008D8H   000047H   BYTE   UNIT     CODE           ?PR?USCI0INTERRUPT?SC_IT
0008D9H   00091FH   000047H   BYTE   UNIT     CODE           ?PR?USCI2INTERRUPT?SC_IT
000920H   00095EH   00003FH   BYTE   UNIT     CODE           ?PR?UART0INTERRUPT?SC_IT
00095FH   000999H   00003BH   BYTE   UNIT     CODE           ?PR?SC_UART0_INIT?SC_INIT
00099AH   0009D0H   000037H   BYTE   UNIT     CODE           ?PR?_WRITE_DATA?TWI_COMMUNICATION
LX51 LINKER/LOCATER V4.41                                                             02/07/2021  16:31:57  PAGE 3


0009D1H   0009FEH   00002EH   BYTE   UNIT     CODE           ?PR?SC_USCI0_INIT?SC_INIT
0009FFH   000A2CH   00002EH   BYTE   UNIT     CODE           ?PR?SC_USCI2_INIT?SC_INIT
000A2DH   000A51H   000025H   BYTE   UNIT     CODE           ?PR?MAIN?MAIN
000A52H   000A75H   000024H   BYTE   UNIT     CODE           ?PR?_USCI0_GETFLAGSTATUS?SC95F_USCI0
000A76H   000A99H   000024H   BYTE   UNIT     CODE           ?PR?_USCI2_GETFLAGSTATUS?SC95F_USCI2
000A9AH   000AAFH   000016H   BYTE   UNIT     CODE           ?PR?_USCI0_ITCONFIG?SC95F_USCI0
000AB0H   000AC5H   000016H   BYTE   UNIT     CODE           ?PR?_USCI2_ITCONFIG?SC95F_USCI2
000AC6H   000AD8H   000013H   BYTE   UNIT     CODE           ?PR?_PUTCHAR?MAIN
000AD9H   000AEBH   000013H   BYTE   UNIT     CODE           ?PR?_USCI0_TWI_SLAVECLOCKEXTENSION?SC95F_USCI0
000AECH   000AFEH   000013H   BYTE   UNIT     CODE           ?PR?_USCI0_TWI_ACKNOWLEDGECONFIG?SC95F_USCI0
000AFFH   000B11H   000013H   BYTE   UNIT     CODE           ?PR?_USCI0_TWI_GENERALCALLCMD?SC95F_USCI0
000B12H   000B24H   000013H   BYTE   UNIT     CODE           ?PR?_USCI0_TWI_CMD?SC95F_USCI0
000B25H   000B37H   000013H   BYTE   UNIT     CODE           ?PR?_USCI0_CLEARFLAG?SC95F_USCI0
000B38H   000B4AH   000013H   BYTE   UNIT     CODE           ?PR?_USCI2_TWI_SLAVECLOCKEXTENSION?SC95F_USCI2
000B4BH   000B5DH   000013H   BYTE   UNIT     CODE           ?PR?_USCI2_TWI_ACKNOWLEDGECONFIG?SC95F_USCI2
000B5EH   000B70H   000013H   BYTE   UNIT     CODE           ?PR?_USCI2_TWI_GENERALCALLCMD?SC95F_USCI2
000B71H   000B83H   000013H   BYTE   UNIT     CODE           ?PR?_USCI2_TWI_CMD?SC95F_USCI2
000B84H   000B96H   000013H   BYTE   UNIT     CODE           ?PR?_USCI2_CLEARFLAG?SC95F_USCI2
000B97H   000BA8H   000012H   BYTE   UNIT     CODE           ?PR?_UART0_ITCONFIG?SC95F_UART0
000BA9H   000BBAH   000012H   BYTE   UNIT     CODE           ?PR?SC_INIT?SC_INIT
000BBBH   000BC8H   00000EH   BYTE   UNIT     CODE           ?PR?_USCI0_TWI_SLAVE_INIT?SC95F_USCI0
000BC9H   000BD6H   00000EH   BYTE   UNIT     CODE           ?PR?_USCI2_TWI_SLAVE_INIT?SC95F_USCI2
000BD7H   000BE2H   00000CH   BYTE   UNIT     CODE           ?PR?_USCI0_TWI_MASTERCOMMUNICATIONRATE?SC95F_USCI0
000BE3H   000BEDH   00000BH   BYTE   UNIT     CODE           ?PR?_USCI2_TWI_MASTERCOMMUNICATIONRATE?SC95F_USCI2
000BEEH   000BF7H   00000AH   BYTE   UNIT     CODE           ?PR?_DELAY?TWI_COMMUNICATION
000BF8H   000C00H   000009H   BYTE   UNIT     CODE           ?PR?READ_DATA?TWI_COMMUNICATION
000C01H   000C07H   000007H   BYTE   UNIT     CODE           ?C_INITSEG
000C08H   000C0CH   000005H   BYTE   UNIT     CODE           ?PR?_UART0_CLEARFLAG?SC95F_UART0
000C0DH   000C10H   000004H   BYTE   UNIT     CODE           ?CO?MAIN
000C11H   000C14H   000004H   BYTE   UNIT     CODE           ?PR?USCI0_TWI_START?SC95F_USCI0
000C15H   000C18H   000004H   BYTE   UNIT     CODE           ?PR?USCI0_TWI_MASTERMODESTOP?SC95F_USCI0
000C19H   000C1CH   000004H   BYTE   UNIT     CODE           ?PR?INT0INTERRUPT?SC_IT
000C1DH   000C20H   000004H   BYTE   UNIT     CODE           ?PR?INT1INTERRUPT?SC_IT
000C21H   000C23H   000003H   BYTE   UNIT     CODE           ?PR?_UART0_SENDDATA8?SC95F_UART0
000C24H   000C26H   000003H   BYTE   UNIT     CODE           ?PR?_USCI0_TWI_SENDDATA?SC95F_USCI0
000C27H   000C29H   000003H   BYTE   UNIT     CODE           ?PR?USCI2_TWI_RECEIVEDATA?SC95F_USCI2
000C2AH   000C2AH   000001H   BYTE   UNIT     CODE           ?PR?SC_OPTION_INIT?SC_INIT
000C2BH   000C2BH   000001H   BYTE   UNIT     CODE           ?PR?SC_GPIO_INIT?SC_INIT
000C2CH   000C2CH   000001H   BYTE   UNIT     CODE           ?PR?TIMER0INTERRUPT?SC_IT
000C2DH   000C2DH   000001H   BYTE   UNIT     CODE           ?PR?TIMER1INTERRUPT?SC_IT
000C2EH   000C2EH   000001H   BYTE   UNIT     CODE           ?PR?TIMER2INTERRUPT?SC_IT
000C2FH   000C2FH   000001H   BYTE   UNIT     CODE           ?PR?ADCINTERRUPT?SC_IT
000C30H   000C30H   000001H   BYTE   UNIT     CODE           ?PR?PWMINTERRUPT?SC_IT
000C31H   000C31H   000001H   BYTE   UNIT     CODE           ?PR?BTMINTERRUPT?SC_IT
000C32H   000C32H   000001H   BYTE   UNIT     CODE           ?PR?INT2INTERRUPT?SC_IT
000C33H   000C33H   000001H   BYTE   UNIT     CODE           ?PR?ACMPINTERRUPT?SC_IT
000C34H   000C34H   000001H   BYTE   UNIT     CODE           ?PR?TIMER3INTERRUPT?SC_IT
000C35H   000C35H   000001H   BYTE   UNIT     CODE           ?PR?TIMER4INTERRUPT?SC_IT
000C36H   000C36H   000001H   BYTE   UNIT     CODE           ?PR?USCI1INTERRUPT?SC_IT

* * * * * * * * * * *  X D A T A   M E M O R Y  * * * * * * * * * * * * *
000000H   000028H   000029H   BYTE   UNIT     XDATA          _XDATA_GROUP_
000029H   00002AH   000002H   BYTE   UNIT     XDATA          ?XD?TWI_COMMUNICATION

* * * * * * * * *   R E M O V E D     S E G M E N T S   * * * * * * * *
   *DEL*:           000026H   BYTE   UNIT     CODE           ?PR?GPIO_DEINIT?SC95F_GPIO
   *DEL*:           000026H   BYTE   UNIT     CODE           ?PR?_GPIO_WRITE?SC95F_GPIO
   *DEL*:           00002AH   BYTE   UNIT     CODE           ?PR?_GPIO_WRITEHIGH?SC95F_GPIO
   *DEL*:           000030H   BYTE   UNIT     CODE           ?PR?_GPIO_WRITELOW?SC95F_GPIO
   *DEL*:           000024H   BYTE   UNIT     CODE           ?PR?_GPIO_READPORT?SC95F_GPIO
   *DEL*:           000038H   BYTE   UNIT     CODE           ?PR?_GPIO_READPIN?SC95F_GPIO
   *DEL*:           00000EH   BYTE   UNIT     CODE           ?PR?_OPTION_WDT_CMD?SC95F_OPTION
   *DEL*:           00000EH   BYTE   UNIT     CODE           ?PR?_OPTION_XTIPLL_CMD?SC95F_OPTION
   *DEL*:           00000BH   BYTE   UNIT     CODE           ?PR?_OPTION_SYSCLK_INIT?SC95F_OPTION
   *DEL*:           00000EH   BYTE   UNIT     CODE           ?PR?_OPTION_RST_PIN_CMD?SC95F_OPTION
LX51 LINKER/LOCATER V4.41                                                             02/07/2021  16:31:57  PAGE 4


   *DEL*:           00000BH   BYTE   UNIT     CODE           ?PR?_OPTION_LVR_INIT?SC95F_OPTION
   *DEL*:           00001EH   BYTE   UNIT     CODE           ?PR?_OPTION_ADC_VREFCONFIG?SC95F_OPTION
   *DEL*:           00000BH   BYTE   UNIT     CODE           ?PR?_OPTION_IAP_SETOPERATERANGE?SC95F_OPTION
   *DEL*:           00000EH   BYTE   UNIT     CODE           ?PR?_OPTION_JTG_CMD?SC95F_OPTION
   *DEL*:           00000FH   BYTE   UNIT     CODE           ?PR?UART0_DEINIT?SC95F_UART0
   *DEL*:           000003H   BYTE   UNIT     CODE           ?PR?UART0_RECEIVEDATA8?SC95F_UART0
   *DEL*:           000014H   BYTE   UNIT     CODE           ?PR?_UART0_SENDDATA9?SC95F_UART0
   *DEL*:           000016H   BYTE   UNIT     CODE           ?PR?UART0_RECEIVEDATA9?SC95F_UART0
   *DEL*:           000005H   BYTE   UNIT     CODE           ?PR?_UART0_GETFLAGSTATUS?SC95F_UART0
   *DEL*:           000013H   BYTE   UNIT     CODE           ?PR?USCI0_DEINIT?SC95F_USCI0
   *DEL*:           00002BH   BYTE   UNIT     CODE           ?PR?_USCI0_SPI_INIT?SC95F_USCI0
   *DEL*:           000007H   BYTE   UNIT     XDATA          ?XD?_USCI0_SPI_INIT?SC95F_USCI0
   *DEL*:           000013H   BYTE   UNIT     CODE           ?PR?_USCI0_SPI_CMD?SC95F_USCI0
   *DEL*:           000003H   BYTE   UNIT     CODE           ?PR?_USCI0_SPI_SENDDATA_8?SC95F_USCI0
   *DEL*:           000003H   BYTE   UNIT     CODE           ?PR?USCI0_SPI_RECEIVEDATA_8?SC95F_USCI0
   *DEL*:           00000CH   BYTE   UNIT     CODE           ?PR?_USCI0_SPI_SENDDATA_16?SC95F_USCI0
   *DEL*:           000009H   BYTE   UNIT     CODE           ?PR?USCI0_SPI_RECEIVEDATA_16?SC95F_USCI0
   *DEL*:           000003H   BYTE   UNIT     CODE           ?PR?USCI0_TWI_RECEIVEDATA?SC95F_USCI0
   *DEL*:           0000A3H   BYTE   UNIT     CODE           ?PR?_USCI0_UART_INIT?SC95F_USCI0
   *DEL*:           00000AH   BYTE   UNIT     XDATA          ?XD?_USCI0_UART_INIT?SC95F_USCI0
   *DEL*:           000003H   BYTE   UNIT     CODE           ?PR?_USCI0_UART_SENDDATA8?SC95F_USCI0
   *DEL*:           000003H   BYTE   UNIT     CODE           ?PR?USCI0_UART_RECEIVEDATA8?SC95F_USCI0
   *DEL*:           000014H   BYTE   UNIT     CODE           ?PR?_USCI0_UART_SENDDATA9?SC95F_USCI0
   *DEL*:           000013H   BYTE   UNIT     CODE           ?PR?USCI0_UART_RECEIVEDATA9?SC95F_USCI0
   *DEL*:           000007H   BYTE   UNIT     CODE           ?PR?_USCI0_TWI_SENDADDR?SC95F_USCI0
   *DEL*:           000013H   BYTE   UNIT     CODE           ?PR?USCI2_DEINIT?SC95F_USCI2
   *DEL*:           00002BH   BYTE   UNIT     CODE           ?PR?_USCI2_SPI_INIT?SC95F_USCI2
   *DEL*:           000007H   BYTE   UNIT     XDATA          ?XD?_USCI2_SPI_INIT?SC95F_USCI2
   *DEL*:           000013H   BYTE   UNIT     CODE           ?PR?_USCI2_SPI_CMD?SC95F_USCI2
   *DEL*:           000003H   BYTE   UNIT     CODE           ?PR?_USCI2_SPI_SENDDATA_8?SC95F_USCI2
   *DEL*:           000003H   BYTE   UNIT     CODE           ?PR?USCI2_SPI_RECEIVEDATA_8?SC95F_USCI2
   *DEL*:           00000CH   BYTE   UNIT     CODE           ?PR?_USCI2_SPI_SENDDATA_16?SC95F_USCI2
   *DEL*:           000009H   BYTE   UNIT     CODE           ?PR?USCI2_SPI_RECEIVEDATA_16?SC95F_USCI2
   *DEL*:           000004H   BYTE   UNIT     CODE           ?PR?USCI2_TWI_START?SC95F_USCI2
   *DEL*:           000004H   BYTE   UNIT     CODE           ?PR?USCI2_TWI_MASTERMODESTOP?SC95F_USCI2
   *DEL*:           000003H   BYTE   UNIT     CODE           ?PR?_USCI2_TWI_SENDDATA?SC95F_USCI2
   *DEL*:           000007H   BYTE   UNIT     CODE           ?PR?_USCI2_TWI_SENDADDR?SC95F_USCI2
   *DEL*:           0000A3H   BYTE   UNIT     CODE           ?PR?_USCI2_UART_INIT?SC95F_USCI2
   *DEL*:           00000AH   BYTE   UNIT     XDATA          ?XD?_USCI2_UART_INIT?SC95F_USCI2
   *DEL*:           000003H   BYTE   UNIT     CODE           ?PR?_USCI2_UART_SENDDATA8?SC95F_USCI2
   *DEL*:           000003H   BYTE   UNIT     CODE           ?PR?USCI2_UART_RECEIVEDATA8?SC95F_USCI2
   *DEL*:           000014H   BYTE   UNIT     CODE           ?PR?_USCI2_UART_SENDDATA9?SC95F_USCI2
   *DEL*:           000013H   BYTE   UNIT     CODE           ?PR?USCI2_UART_RECEIVEDATA9?SC95F_USCI2
   *DEL*:           000001H   BYTE   UNIT     CODE           ?PR?SC_TIM0_INIT?SC_INIT
   *DEL*:           000001H   BYTE   UNIT     CODE           ?PR?SC_TIM1_INIT?SC_INIT
   *DEL*:           000001H   BYTE   UNIT     CODE           ?PR?SC_TIM2_INIT?SC_INIT
   *DEL*:           000001H   BYTE   UNIT     CODE           ?PR?SC_TIM3_INIT?SC_INIT
   *DEL*:           000001H   BYTE   UNIT     CODE           ?PR?SC_TIM4_INIT?SC_INIT
   *DEL*:           000001H   BYTE   UNIT     CODE           ?PR?SC_PWM_INIT?SC_INIT
   *DEL*:           000001H   BYTE   UNIT     CODE           ?PR?SC_INT_INIT?SC_INIT
   *DEL*:           000001H   BYTE   UNIT     CODE           ?PR?SC_ADC_INIT?SC_INIT
   *DEL*:           000001H   BYTE   UNIT     CODE           ?PR?SC_IAP_INIT?SC_INIT
   *DEL*:           000001H   BYTE   UNIT     CODE           ?PR?SC_USCI1_INIT?SC_INIT
   *DEL*:           000001H   BYTE   UNIT     CODE           ?PR?SC_BTM_INIT?SC_INIT
   *DEL*:           000001H   BYTE   UNIT     CODE           ?PR?SC_CRC_INIT?SC_INIT
   *DEL*:           000001H   BYTE   UNIT     CODE           ?PR?SC_WDT_INIT?SC_INIT
   *DEL*:           000001H   BYTE   UNIT     CODE           ?PR?SC_PWR_INIT?SC_INIT
   *DEL*:           000001H   BYTE   UNIT     CODE           ?PR?SC_DDIC_INIT?SC_INIT
   *DEL*:           000001H   BYTE   UNIT     CODE           ?PR?SC_ACMP_INIT?SC_INIT
   *DEL*:           000001H   BYTE   UNIT     CODE           ?PR?SC_MDU_INIT?SC_INIT



OVERLAY MAP OF MODULE:   ..\OUTPUT\TWI (MAIN)

LX51 LINKER/LOCATER V4.41                                                             02/07/2021  16:31:57  PAGE 5



FUNCTION/MODULE                                BIT_GROUP   DATA_GROUP   XDATA_GROUP
--> CALLED FUNCTION/MODULE                    START  STOP  START  STOP  START  STOP
===================================================================================
INT0INTERRUPT/SC_IT                           ----- -----  ----- -----  ----- -----

*** NEW ROOT ********************************

TIMER0INTERRUPT/SC_IT                         ----- -----  ----- -----  ----- -----

*** NEW ROOT ********************************

INT1INTERRUPT/SC_IT                           ----- -----  ----- -----  ----- -----

*** NEW ROOT ********************************

TIMER1INTERRUPT/SC_IT                         ----- -----  ----- -----  ----- -----

*** NEW ROOT ********************************

UART0INTERRUPT/SC_IT                          ----- -----  ----- -----  ----- -----
  +--> ?PR?_UART0_CLEARFLAG?SC95F_UART0

_UART0_CLEARFLAG/SC95F_UART0                  ----- -----  ----- -----  ----- -----

*** NEW ROOT ********************************

TIMER2INTERRUPT/SC_IT                         ----- -----  ----- -----  ----- -----

*** NEW ROOT ********************************

ADCINTERRUPT/SC_IT                            ----- -----  ----- -----  ----- -----

*** NEW ROOT ********************************

USCI0INTERRUPT/SC_IT                          ----- -----  ----- -----  ----- -----
  +--> ?PR?_USCI0_GETFLAGSTATUS?SC95F_USCI0
  +--> ?PR?_USCI0_CLEARFLAG?SC95F_USCI0

_USCI0_GETFLAGSTATUS/SC95F_USCI0              ----- -----  ----- -----  ----- -----

_USCI0_CLEARFLAG/SC95F_USCI0                  ----- -----  ----- -----  ----- -----

*** NEW ROOT ********************************

PWMINTERRUPT/SC_IT                            ----- -----  ----- -----  ----- -----

*** NEW ROOT ********************************

BTMINTERRUPT/SC_IT                            ----- -----  ----- -----  ----- -----

*** NEW ROOT ********************************

INT2INTERRUPT/SC_IT                           ----- -----  ----- -----  ----- -----

*** NEW ROOT ********************************

ACMPINTERRUPT/SC_IT                           ----- -----  ----- -----  ----- -----

*** NEW ROOT ********************************

TIMER3INTERRUPT/SC_IT                         ----- -----  ----- -----  ----- -----

*** NEW ROOT ********************************

LX51 LINKER/LOCATER V4.41                                                             02/07/2021  16:31:57  PAGE 6


TIMER4INTERRUPT/SC_IT                         ----- -----  ----- -----  ----- -----

*** NEW ROOT ********************************

USCI1INTERRUPT/SC_IT                          ----- -----  ----- -----  ----- -----

*** NEW ROOT ********************************

USCI2INTERRUPT/SC_IT                          ----- -----  ----- -----  ----- -----
  +--> ?PR?_USCI2_GETFLAGSTATUS?SC95F_USCI2
  +--> ?PR?_USCI2_CLEARFLAG?SC95F_USCI2

_USCI2_GETFLAGSTATUS/SC95F_USCI2              ----- -----  ----- -----  ----- -----

_USCI2_CLEARFLAG/SC95F_USCI2                  ----- -----  ----- -----  ----- -----

*** NEW ROOT ********************************

?C_C51STARTUP                                 ----- -----  ----- -----  ----- -----
  +--> ?PR?MAIN?MAIN
  +--> ?C_INITSEG

MAIN/MAIN                                     ----- -----  ----- -----  ----- -----
  +--> ?PR?SC_INIT?SC_INIT
  +--> ?PR?_WRITE_DATA?TWI_COMMUNICATION
  +--> ?PR?READ_DATA?TWI_COMMUNICATION
  +--> ?CO?MAIN
  +--> ?PR?PRINTF?PRINTF

SC_INIT/SC_INIT                               ----- -----  ----- -----  ----- -----
  +--> ?PR?SC_GPIO_INIT?SC_INIT
  +--> ?PR?SC_OPTION_INIT?SC_INIT
  +--> ?PR?SC_USCI0_INIT?SC_INIT
  +--> ?PR?SC_USCI2_INIT?SC_INIT
  +--> ?PR?SC_UART0_INIT?SC_INIT

SC_GPIO_INIT/SC_INIT                          ----- -----  ----- -----  ----- -----

SC_OPTION_INIT/SC_INIT                        ----- -----  ----- -----  ----- -----

SC_USCI0_INIT/SC_INIT                         ----- -----  ----- -----  ----- -----
  +--> ?PR?_GPIO_INIT?SC95F_GPIO
  +--> ?PR?_USCI0_TWI_GENERALCALLCMD?SC95F_U...
  +--> ?PR?_USCI0_TWI_ACKNOWLEDGECONFIG?SC95...
  +--> ?PR?_USCI0_ITCONFIG?SC95F_USCI0
  +--> ?PR?_USCI0_TWI_MASTERCOMMUNICATIONRAT...
  +--> ?PR?_USCI0_TWI_SLAVECLOCKEXTENSION?SC...
  +--> ?PR?_USCI0_TWI_SLAVE_INIT?SC95F_USCI0
  +--> ?PR?_USCI0_TWI_CMD?SC95F_USCI0

_GPIO_INIT/SC95F_GPIO                         ----- -----  ----- -----  ----- -----

_USCI0_TWI_GENERALCALLCMD/SC95F_USCI0         ----- -----  ----- -----  ----- -----

_USCI0_TWI_ACKNOWLEDGECONFIG/SC95F_USCI0      ----- -----  ----- -----  ----- -----

_USCI0_ITCONFIG/SC95F_USCI0                   ----- -----  ----- -----  ----- -----

_USCI0_TWI_MASTERCOMMUNICATIONRATE/SC...      ----- -----  ----- -----  ----- -----

_USCI0_TWI_SLAVECLOCKEXTENSION/SC95F_...      ----- -----  ----- -----  ----- -----

_USCI0_TWI_SLAVE_INIT/SC95F_USCI0             ----- -----  ----- -----  ----- -----

_USCI0_TWI_CMD/SC95F_USCI0                    ----- -----  ----- -----  ----- -----
LX51 LINKER/LOCATER V4.41                                                             02/07/2021  16:31:57  PAGE 7



SC_USCI2_INIT/SC_INIT                         ----- -----  ----- -----  ----- -----
  +--> ?PR?_GPIO_INIT?SC95F_GPIO
  +--> ?PR?_USCI2_TWI_GENERALCALLCMD?SC95F_U...
  +--> ?PR?_USCI2_TWI_ACKNOWLEDGECONFIG?SC95...
  +--> ?PR?_USCI2_ITCONFIG?SC95F_USCI2
  +--> ?PR?_USCI2_TWI_MASTERCOMMUNICATIONRAT...
  +--> ?PR?_USCI2_TWI_SLAVECLOCKEXTENSION?SC...
  +--> ?PR?_USCI2_TWI_SLAVE_INIT?SC95F_USCI2
  +--> ?PR?_USCI2_TWI_CMD?SC95F_USCI2

_USCI2_TWI_GENERALCALLCMD/SC95F_USCI2         ----- -----  ----- -----  ----- -----

_USCI2_TWI_ACKNOWLEDGECONFIG/SC95F_USCI2      ----- -----  ----- -----  ----- -----

_USCI2_ITCONFIG/SC95F_USCI2                   ----- -----  ----- -----  ----- -----

_USCI2_TWI_MASTERCOMMUNICATIONRATE/SC...      ----- -----  ----- -----  ----- -----

_USCI2_TWI_SLAVECLOCKEXTENSION/SC95F_...      ----- -----  ----- -----  ----- -----

_USCI2_TWI_SLAVE_INIT/SC95F_USCI2             ----- -----  ----- -----  ----- -----

_USCI2_TWI_CMD/SC95F_USCI2                    ----- -----  ----- -----  ----- -----

SC_UART0_INIT/SC_INIT                         ----- -----  ----- -----  ----- -----
  +--> ?PR?_GPIO_INIT?SC95F_GPIO
  +--> ?PR?_UART0_INIT?SC95F_UART0
  +--> ?PR?_UART0_ITCONFIG?SC95F_UART0

_UART0_INIT/SC95F_UART0                       ----- -----  ----- -----  0000H 000AH

_UART0_ITCONFIG/SC95F_UART0                   ----- -----  ----- -----  ----- -----

_WRITE_DATA/TWI_COMMUNICATION                 ----- -----  ----- -----  0000H 0001H
  +--> ?PR?USCI0_TWI_START?SC95F_USCI0
  +--> ?PR?_USCI0_TWI_SENDDATA?SC95F_USCI0
  +--> ?PR?_DELAY?TWI_COMMUNICATION
  +--> ?PR?USCI0_TWI_MASTERMODESTOP?SC95F_USCI0

USCI0_TWI_START/SC95F_USCI0                   ----- -----  ----- -----  ----- -----

_USCI0_TWI_SENDDATA/SC95F_USCI0               ----- -----  ----- -----  ----- -----

_DELAY/TWI_COMMUNICATION                      ----- -----  ----- -----  ----- -----

USCI0_TWI_MASTERMODESTOP/SC95F_USCI0          ----- -----  ----- -----  ----- -----

READ_DATA/TWI_COMMUNICATION                   ----- -----  ----- -----  ----- -----
  +--> ?PR?USCI2_TWI_RECEIVEDATA?SC95F_USCI2

USCI2_TWI_RECEIVEDATA/SC95F_USCI2             ----- -----  ----- -----  ----- -----

?CO?MAIN                                      ----- -----  ----- -----  ----- -----

PRINTF/PRINTF                                 20H.0 21H.0  0008H 000CH  0000H 0027H
  +--> ?PR?_PUTCHAR?MAIN

_PUTCHAR/MAIN                                 ----- -----  ----- -----  0028H 0028H
  +--> ?PR?_UART0_SENDDATA8?SC95F_UART0

_UART0_SENDDATA8/SC95F_UART0                  ----- -----  ----- -----  ----- -----

?C_INITSEG                                    ----- -----  ----- -----  ----- -----

LX51 LINKER/LOCATER V4.41                                                             02/07/2021  16:31:57  PAGE 8




PUBLIC SYMBOLS OF MODULE:  ..\OUTPUT\TWI (MAIN)


      VALUE       CLASS    TYPE      PUBLIC SYMBOL NAME
      =================================================
      02000000H   XDATA    ---       ?_PRINTF517?BYTE
      02000000H   XDATA    ---       ?_PRINTF?BYTE
      02000000H   XDATA    ---       ?_SPRINTF517?BYTE
      02000000H   XDATA    ---       ?_SPRINTF?BYTE
      02000000H   XDATA    BYTE      ?_UART0_Init?BYTE
*DEL*:00000000H   XDATA    BYTE      ?_USCI0_SPI_Init?BYTE
*DEL*:00000000H   XDATA    BYTE      ?_USCI0_UART_Init?BYTE
*DEL*:00000000H   XDATA    BYTE      ?_USCI2_SPI_Init?BYTE
*DEL*:00000000H   XDATA    BYTE      ?_USCI2_UART_Init?BYTE
      010005F9H   CODE     ---       ?C?CCASE
      0100059AH   CODE     ---       ?C?CLDOPTR
      01000581H   CODE     ---       ?C?CLDPTR
      00000000H   NUMBER   ---       ?C?CODESEG
      010005C7H   CODE     ---       ?C?CSTPTR
      01000550H   CODE     ---       ?C?LSTKXDATA
      01000544H   CODE     ---       ?C?LSTXDATA
      010005D9H   CODE     ---       ?C?PLDIXDATA
      010005F0H   CODE     ---       ?C?PSTXDATA
      01000533H   CODE     ---       ?C?ULCMP
      010004A1H   CODE     ---       ?C?ULDIV
      00000000H   NUMBER   ---       ?C?XDATASEG
      0100084DH   CODE     ---       ?C_START
      01000000H   CODE     ---       ?C_STARTUP
      01000BEEH   CODE     ---       _Delay
      01000729H   CODE     ---       _GPIO_Init
*DEL*:00000000H   CODE     ---       _GPIO_ReadPin
*DEL*:00000000H   CODE     ---       _GPIO_ReadPort
*DEL*:00000000H   CODE     ---       _GPIO_Write
*DEL*:00000000H   CODE     ---       _GPIO_WriteHigh
*DEL*:00000000H   CODE     ---       _GPIO_WriteLow
*DEL*:00000000H   CODE     ---       _OPTION_ADC_VrefConfig
*DEL*:00000000H   CODE     ---       _OPTION_IAP_SetOperateRange
*DEL*:00000000H   CODE     ---       _OPTION_JTG_Cmd
*DEL*:00000000H   CODE     ---       _OPTION_LVR_Init
*DEL*:00000000H   CODE     ---       _OPTION_RST_PIN_Cmd
*DEL*:00000000H   CODE     ---       _OPTION_SYSCLK_Init
*DEL*:00000000H   CODE     ---       _OPTION_WDT_Cmd
*DEL*:00000000H   CODE     ---       _OPTION_XTIPLL_Cmd
      0100016BH   CODE     ---       _PRINTF
      0100016BH   CODE     ---       _PRINTF517
      01000AC6H   CODE     ---       _putchar
      01000165H   CODE     ---       _SPRINTF
      01000165H   CODE     ---       _SPRINTF517
      01000C08H   CODE     ---       _UART0_ClearFlag
*DEL*:00000000H   CODE     ---       _UART0_GetFlagStatus
      0100061FH   CODE     ---       _UART0_Init
      01000B97H   CODE     ---       _UART0_ITConfig
      01000C21H   CODE     ---       _UART0_SendData8
*DEL*:00000000H   CODE     ---       _UART0_SendData9
      01000B25H   CODE     ---       _USCI0_ClearFlag
      01000A52H   CODE     ---       _USCI0_GetFlagStatus
      01000A9AH   CODE     ---       _USCI0_ITConfig
*DEL*:00000000H   CODE     ---       _USCI0_SPI_Cmd
*DEL*:00000000H   CODE     ---       _USCI0_SPI_Init
*DEL*:00000000H   CODE     ---       _USCI0_SPI_SendData_16
*DEL*:00000000H   CODE     ---       _USCI0_SPI_SendData_8
      01000AECH   CODE     ---       _USCI0_TWI_AcknowledgeConfig
      01000B12H   CODE     ---       _USCI0_TWI_Cmd
LX51 LINKER/LOCATER V4.41                                                             02/07/2021  16:31:57  PAGE 9


      01000AFFH   CODE     ---       _USCI0_TWI_GeneralCallCmd
      01000BD7H   CODE     ---       _USCI0_TWI_MasterCommunicationRate
*DEL*:00000000H   CODE     ---       _USCI0_TWI_SendAddr
      01000C24H   CODE     ---       _USCI0_TWI_SendData
      01000BBBH   CODE     ---       _USCI0_TWI_Slave_Init
      01000AD9H   CODE     ---       _USCI0_TWI_SlaveClockExtension
*DEL*:00000000H   CODE     ---       _USCI0_UART_Init
*DEL*:00000000H   CODE     ---       _USCI0_UART_SendData8
*DEL*:00000000H   CODE     ---       _USCI0_UART_SendData9
      01000B84H   CODE     ---       _USCI2_ClearFlag
      01000A76H   CODE     ---       _USCI2_GetFlagStatus
      01000AB0H   CODE     ---       _USCI2_ITConfig
*DEL*:00000000H   CODE     ---       _USCI2_SPI_Cmd
*DEL*:00000000H   CODE     ---       _USCI2_SPI_Init
*DEL*:00000000H   CODE     ---       _USCI2_SPI_SendData_16
*DEL*:00000000H   CODE     ---       _USCI2_SPI_SendData_8
      01000B4BH   CODE     ---       _USCI2_TWI_AcknowledgeConfig
      01000B71H   CODE     ---       _USCI2_TWI_Cmd
      01000B5EH   CODE     ---       _USCI2_TWI_GeneralCallCmd
      01000BE3H   CODE     ---       _USCI2_TWI_MasterCommunicationRate
*DEL*:00000000H   CODE     ---       _USCI2_TWI_SendAddr
*DEL*:00000000H   CODE     ---       _USCI2_TWI_SendData
      01000BC9H   CODE     ---       _USCI2_TWI_Slave_Init
      01000B38H   CODE     ---       _USCI2_TWI_SlaveClockExtension
*DEL*:00000000H   CODE     ---       _USCI2_UART_Init
*DEL*:00000000H   CODE     ---       _USCI2_UART_SendData8
*DEL*:00000000H   CODE     ---       _USCI2_UART_SendData9
      0100099AH   CODE     ---       _Write_data
      01000C33H   CODE     ---       ACMPInterrupt
      01000C2FH   CODE     ---       ADCInterrupt
      02000029H   XDATA    BYTE      Add
      01000C31H   CODE     ---       BTMInterrupt
      0200002AH   XDATA    BYTE      Data
*DEL*:00000000H   CODE     ---       GPIO_DeInit
      01000C19H   CODE     ---       INT0Interrupt
      01000C1DH   CODE     ---       INT1Interrupt
      01000C32H   CODE     ---       INT2Interrupt
      01000A2DH   CODE     ---       main
      01000C30H   CODE     ---       PWMInterrupt
      01000BF8H   CODE     ---       Read_data
*DEL*:00000000H   CODE     ---       SC_ACMP_Init
*DEL*:00000000H   CODE     ---       SC_ADC_Init
*DEL*:00000000H   CODE     ---       SC_BTM_Init
*DEL*:00000000H   CODE     ---       SC_CRC_Init
*DEL*:00000000H   CODE     ---       SC_DDIC_Init
      01000C2BH   CODE     ---       SC_GPIO_Init
*DEL*:00000000H   CODE     ---       SC_IAP_Init
      01000BA9H   CODE     ---       SC_Init
*DEL*:00000000H   CODE     ---       SC_INT_Init
*DEL*:00000000H   CODE     ---       SC_MDU_Init
      01000C2AH   CODE     ---       SC_OPTION_Init
*DEL*:00000000H   CODE     ---       SC_PWM_Init
*DEL*:00000000H   CODE     ---       SC_PWR_Init
*DEL*:00000000H   CODE     ---       SC_TIM0_Init
*DEL*:00000000H   CODE     ---       SC_TIM1_Init
*DEL*:00000000H   CODE     ---       SC_TIM2_Init
*DEL*:00000000H   CODE     ---       SC_TIM3_Init
*DEL*:00000000H   CODE     ---       SC_TIM4_Init
      0100095FH   CODE     ---       SC_UART0_Init
      010009D1H   CODE     ---       SC_USCI0_Init
*DEL*:00000000H   CODE     ---       SC_USCI1_Init
      010009FFH   CODE     ---       SC_USCI2_Init
*DEL*:00000000H   CODE     ---       SC_WDT_Init
      01000C2CH   CODE     ---       Timer0Interrupt
      01000C2DH   CODE     ---       Timer1Interrupt
LX51 LINKER/LOCATER V4.41                                                             02/07/2021  16:31:57  PAGE 10


      01000C2EH   CODE     ---       Timer2Interrupt
      01000C34H   CODE     ---       Timer3Interrupt
      01000C35H   CODE     ---       Timer4Interrupt
      00000021H.1 BIT      BIT       TWI0Flag
      00000021H.2 BIT      BIT       TWI2Flag
*DEL*:00000000H   CODE     ---       UART0_DeInit
*DEL*:00000000H   CODE     ---       UART0_ReceiveData8
*DEL*:00000000H   CODE     ---       UART0_ReceiveData9
      01000920H   CODE     ---       UART0Interrupt
      00000021H.3 BIT      BIT       Uart0SendFlag
*DEL*:00000000H   CODE     ---       USCI0_DeInit
*DEL*:00000000H   CODE     ---       USCI0_SPI_ReceiveData_16
*DEL*:00000000H   CODE     ---       USCI0_SPI_ReceiveData_8
      01000C15H   CODE     ---       USCI0_TWI_MasterModeStop
*DEL*:00000000H   CODE     ---       USCI0_TWI_ReceiveData
      01000C11H   CODE     ---       USCI0_TWI_Start
*DEL*:00000000H   CODE     ---       USCI0_UART_ReceiveData8
*DEL*:00000000H   CODE     ---       USCI0_UART_ReceiveData9
      01000892H   CODE     ---       USCI0Interrupt
      01000C36H   CODE     ---       USCI1Interrupt
*DEL*:00000000H   CODE     ---       USCI2_DeInit
*DEL*:00000000H   CODE     ---       USCI2_SPI_ReceiveData_16
*DEL*:00000000H   CODE     ---       USCI2_SPI_ReceiveData_8
*DEL*:00000000H   CODE     ---       USCI2_TWI_MasterModeStop
      01000C27H   CODE     ---       USCI2_TWI_ReceiveData
*DEL*:00000000H   CODE     ---       USCI2_TWI_Start
*DEL*:00000000H   CODE     ---       USCI2_UART_ReceiveData8
*DEL*:00000000H   CODE     ---       USCI2_UART_ReceiveData9
      010008D9H   CODE     ---       USCI2Interrupt



SYMBOL TABLE OF MODULE:  ..\OUTPUT\TWI (MAIN)

      VALUE       REP       CLASS    TYPE      SYMBOL NAME
      ====================================================
      ---         MODULE    ---      ---       MAIN
      00000021H.3 PUBLIC    BIT      BIT       Uart0SendFlag
      00000021H.2 PUBLIC    BIT      BIT       TWI2Flag
      00000021H.1 PUBLIC    BIT      BIT       TWI0Flag
      01000A2DH   PUBLIC    CODE     ---       main
      01000AC6H   PUBLIC    CODE     ---       _putchar

      01000AC6H   BLOCK     CODE     ---       LVL=0
      ---         BLOCKEND  ---      ---       LVL=0

      01000A2DH   BLOCK     CODE     ---       LVL=0
      ---         BLOCKEND  ---      ---       LVL=0

      ---         MODULE    ---      ---       SC95F_GPIO
      01000729H   PUBLIC    CODE     ---       _GPIO_Init

      01000729H   BLOCK     CODE     ---       LVL=0
      ---         BLOCKEND  ---      ---       LVL=0

      ---         MODULE    ---      ---       SC95F_OPTION

      ---         MODULE    ---      ---       SC95F_UART0
      01000C08H   PUBLIC    CODE     ---       _UART0_ClearFlag
      01000B97H   PUBLIC    CODE     ---       _UART0_ITConfig
      01000C21H   PUBLIC    CODE     ---       _UART0_SendData8
      02000000H   PUBLIC    XDATA    BYTE      ?_UART0_Init?BYTE
      0100061FH   PUBLIC    CODE     ---       _UART0_Init

      0100061FH   BLOCK     CODE     ---       LVL=0
LX51 LINKER/LOCATER V4.41                                                             02/07/2021  16:31:57  PAGE 11


      ---         BLOCKEND  ---      ---       LVL=0

      01000C21H   BLOCK     CODE     ---       LVL=0
      ---         BLOCKEND  ---      ---       LVL=0
      00000007H   SYMBOL    DATA     VOID      Data_9Bit
      00000006H   SYMBOL    DATA     VOID      Data9

      01000B97H   BLOCK     CODE     ---       LVL=0
      ---         BLOCKEND  ---      ---       LVL=0

      01000C08H   BLOCK     CODE     ---       LVL=0
      ---         BLOCKEND  ---      ---       LVL=0

      ---         MODULE    ---      ---       SC95F_USCI0
      01000B25H   PUBLIC    CODE     ---       _USCI0_ClearFlag
      01000A52H   PUBLIC    CODE     ---       _USCI0_GetFlagStatus
      01000A9AH   PUBLIC    CODE     ---       _USCI0_ITConfig
      01000C24H   PUBLIC    CODE     ---       _USCI0_TWI_SendData
      01000B12H   PUBLIC    CODE     ---       _USCI0_TWI_Cmd
      01000AFFH   PUBLIC    CODE     ---       _USCI0_TWI_GeneralCallCmd
      01000AECH   PUBLIC    CODE     ---       _USCI0_TWI_AcknowledgeConfig
      01000AD9H   PUBLIC    CODE     ---       _USCI0_TWI_SlaveClockExtension
      01000C15H   PUBLIC    CODE     ---       USCI0_TWI_MasterModeStop
      01000C11H   PUBLIC    CODE     ---       USCI0_TWI_Start
      01000BD7H   PUBLIC    CODE     ---       _USCI0_TWI_MasterCommunicationRate
      01000BBBH   PUBLIC    CODE     ---       _USCI0_TWI_Slave_Init
      00000006H   SYMBOL    DATA     VOID      SPI_data

      01000BBBH   BLOCK     CODE     ---       LVL=0
      ---         BLOCKEND  ---      ---       LVL=0

      01000BD7H   BLOCK     CODE     ---       LVL=0
      ---         BLOCKEND  ---      ---       LVL=0

      01000C11H   BLOCK     CODE     ---       LVL=0
      ---         BLOCKEND  ---      ---       LVL=0

      01000C15H   BLOCK     CODE     ---       LVL=0
      ---         BLOCKEND  ---      ---       LVL=0

      01000AD9H   BLOCK     CODE     ---       LVL=0
      ---         BLOCKEND  ---      ---       LVL=0

      01000AECH   BLOCK     CODE     ---       LVL=0
      ---         BLOCKEND  ---      ---       LVL=0

      01000AFFH   BLOCK     CODE     ---       LVL=0
      ---         BLOCKEND  ---      ---       LVL=0

      01000B12H   BLOCK     CODE     ---       LVL=0
      ---         BLOCKEND  ---      ---       LVL=0

      01000C24H   BLOCK     CODE     ---       LVL=0
      ---         BLOCKEND  ---      ---       LVL=0
      00000007H   SYMBOL    DATA     VOID      Data_9Bit
      00000006H   SYMBOL    DATA     VOID      Data9

      01000A9AH   BLOCK     CODE     ---       LVL=0
      ---         BLOCKEND  ---      ---       LVL=0

      01000A52H   BLOCK     CODE     ---       LVL=0
      01000A52H   BLOCK     CODE     NEAR LAB  LVL=1
      00000006H   SYMBOL    DATA     VOID      bitstatus
      ---         BLOCKEND  ---      ---       LVL=1
      ---         BLOCKEND  ---      ---       LVL=0
LX51 LINKER/LOCATER V4.41                                                             02/07/2021  16:31:57  PAGE 12



      01000B25H   BLOCK     CODE     ---       LVL=0
      ---         BLOCKEND  ---      ---       LVL=0

      ---         MODULE    ---      ---       SC95F_USCI2
      01000B84H   PUBLIC    CODE     ---       _USCI2_ClearFlag
      01000A76H   PUBLIC    CODE     ---       _USCI2_GetFlagStatus
      01000AB0H   PUBLIC    CODE     ---       _USCI2_ITConfig
      01000C27H   PUBLIC    CODE     ---       USCI2_TWI_ReceiveData
      01000B71H   PUBLIC    CODE     ---       _USCI2_TWI_Cmd
      01000B5EH   PUBLIC    CODE     ---       _USCI2_TWI_GeneralCallCmd
      01000B4BH   PUBLIC    CODE     ---       _USCI2_TWI_AcknowledgeConfig
      01000B38H   PUBLIC    CODE     ---       _USCI2_TWI_SlaveClockExtension
      01000BE3H   PUBLIC    CODE     ---       _USCI2_TWI_MasterCommunicationRate
      01000BC9H   PUBLIC    CODE     ---       _USCI2_TWI_Slave_Init
      00000006H   SYMBOL    DATA     VOID      SPI_data

      01000BC9H   BLOCK     CODE     ---       LVL=0
      ---         BLOCKEND  ---      ---       LVL=0

      01000BE3H   BLOCK     CODE     ---       LVL=0
      ---         BLOCKEND  ---      ---       LVL=0

      01000B38H   BLOCK     CODE     ---       LVL=0
      ---         BLOCKEND  ---      ---       LVL=0

      01000B4BH   BLOCK     CODE     ---       LVL=0
      ---         BLOCKEND  ---      ---       LVL=0

      01000B5EH   BLOCK     CODE     ---       LVL=0
      ---         BLOCKEND  ---      ---       LVL=0

      01000B71H   BLOCK     CODE     ---       LVL=0
      ---         BLOCKEND  ---      ---       LVL=0

      01000C27H   BLOCK     CODE     ---       LVL=0
      ---         BLOCKEND  ---      ---       LVL=0
      00000007H   SYMBOL    DATA     VOID      Data_9Bit
      00000006H   SYMBOL    DATA     VOID      Data9

      01000AB0H   BLOCK     CODE     ---       LVL=0
      ---         BLOCKEND  ---      ---       LVL=0

      01000A76H   BLOCK     CODE     ---       LVL=0
      01000A76H   BLOCK     CODE     NEAR LAB  LVL=1
      00000006H   SYMBOL    DATA     VOID      bitstatus
      ---         BLOCKEND  ---      ---       LVL=1
      ---         BLOCKEND  ---      ---       LVL=0

      01000B84H   BLOCK     CODE     ---       LVL=0
      ---         BLOCKEND  ---      ---       LVL=0

      ---         MODULE    ---      ---       SC_INIT
      010009FFH   PUBLIC    CODE     ---       SC_USCI2_Init
      010009D1H   PUBLIC    CODE     ---       SC_USCI0_Init
      0100095FH   PUBLIC    CODE     ---       SC_UART0_Init
      01000C2BH   PUBLIC    CODE     ---       SC_GPIO_Init
      01000C2AH   PUBLIC    CODE     ---       SC_OPTION_Init
      01000BA9H   PUBLIC    CODE     ---       SC_Init

      01000BA9H   BLOCK     CODE     ---       LVL=0
      ---         BLOCKEND  ---      ---       LVL=0

      01000C2AH   BLOCK     CODE     ---       LVL=0
      ---         BLOCKEND  ---      ---       LVL=0
LX51 LINKER/LOCATER V4.41                                                             02/07/2021  16:31:57  PAGE 13



      01000C2BH   BLOCK     CODE     ---       LVL=0
      ---         BLOCKEND  ---      ---       LVL=0

      0100095FH   BLOCK     CODE     ---       LVL=0
      ---         BLOCKEND  ---      ---       LVL=0

      010009D1H   BLOCK     CODE     ---       LVL=0
      ---         BLOCKEND  ---      ---       LVL=0

      010009FFH   BLOCK     CODE     ---       LVL=0
      ---         BLOCKEND  ---      ---       LVL=0

      ---         MODULE    ---      ---       SC_IT
      010008D9H   PUBLIC    CODE     ---       USCI2Interrupt
      01000C36H   PUBLIC    CODE     ---       USCI1Interrupt
      01000C35H   PUBLIC    CODE     ---       Timer4Interrupt
      01000C34H   PUBLIC    CODE     ---       Timer3Interrupt
      01000C33H   PUBLIC    CODE     ---       ACMPInterrupt
      01000C32H   PUBLIC    CODE     ---       INT2Interrupt
      01000C31H   PUBLIC    CODE     ---       BTMInterrupt
      01000C30H   PUBLIC    CODE     ---       PWMInterrupt
      01000892H   PUBLIC    CODE     ---       USCI0Interrupt
      01000C2FH   PUBLIC    CODE     ---       ADCInterrupt
      01000C2EH   PUBLIC    CODE     ---       Timer2Interrupt
      01000920H   PUBLIC    CODE     ---       UART0Interrupt
      01000C2DH   PUBLIC    CODE     ---       Timer1Interrupt
      01000C1DH   PUBLIC    CODE     ---       INT1Interrupt
      01000C2CH   PUBLIC    CODE     ---       Timer0Interrupt
      01000C19H   PUBLIC    CODE     ---       INT0Interrupt

      01000C19H   BLOCK     CODE     ---       LVL=0
      ---         BLOCKEND  ---      ---       LVL=0

      01000C2CH   BLOCK     CODE     ---       LVL=0
      ---         BLOCKEND  ---      ---       LVL=0

      01000C1DH   BLOCK     CODE     ---       LVL=0
      ---         BLOCKEND  ---      ---       LVL=0

      01000C2DH   BLOCK     CODE     ---       LVL=0
      ---         BLOCKEND  ---      ---       LVL=0

      01000920H   BLOCK     CODE     ---       LVL=0
      ---         BLOCKEND  ---      ---       LVL=0

      01000C2EH   BLOCK     CODE     ---       LVL=0
      ---         BLOCKEND  ---      ---       LVL=0

      01000C2FH   BLOCK     CODE     ---       LVL=0
      ---         BLOCKEND  ---      ---       LVL=0

      01000892H   BLOCK     CODE     ---       LVL=0
      ---         BLOCKEND  ---      ---       LVL=0

      01000C30H   BLOCK     CODE     ---       LVL=0
      ---         BLOCKEND  ---      ---       LVL=0

      01000C31H   BLOCK     CODE     ---       LVL=0
      ---         BLOCKEND  ---      ---       LVL=0

      01000C32H   BLOCK     CODE     ---       LVL=0
      ---         BLOCKEND  ---      ---       LVL=0

      01000C33H   BLOCK     CODE     ---       LVL=0
LX51 LINKER/LOCATER V4.41                                                             02/07/2021  16:31:57  PAGE 14


      ---         BLOCKEND  ---      ---       LVL=0

      01000C34H   BLOCK     CODE     ---       LVL=0
      ---         BLOCKEND  ---      ---       LVL=0

      01000C35H   BLOCK     CODE     ---       LVL=0
      ---         BLOCKEND  ---      ---       LVL=0

      01000C36H   BLOCK     CODE     ---       LVL=0
      ---         BLOCKEND  ---      ---       LVL=0

      010008D9H   BLOCK     CODE     ---       LVL=0
      ---         BLOCKEND  ---      ---       LVL=0

      ---         MODULE    ---      ---       ?C_STARTUP
      01000000H   PUBLIC    CODE     ---       ?C_STARTUP

      ---         MODULE    ---      ---       TWI_COMMUNICATION
      0200002AH   PUBLIC    XDATA    BYTE      DATA
      02000029H   PUBLIC    XDATA    BYTE      Add
      01000BEEH   PUBLIC    CODE     ---       _Delay
      01000BF8H   PUBLIC    CODE     ---       Read_data
      0100099AH   PUBLIC    CODE     ---       _Write_data

      0100099AH   BLOCK     CODE     ---       LVL=0
      ---         BLOCKEND  ---      ---       LVL=0

      01000BF8H   BLOCK     CODE     ---       LVL=0
      ---         BLOCKEND  ---      ---       LVL=0

      01000BEEH   BLOCK     CODE     ---       LVL=0
      ---         BLOCKEND  ---      ---       LVL=0

      ---         MODULE    ---      ---       ?C_INIT
      0100084DH   PUBLIC    CODE     ---       ?C_START

      ---         MODULE    ---      ---       ?C?ULDIV
      010004A1H   PUBLIC    CODE     ---       ?C?ULDIV

      ---         MODULE    ---      ---       ?C?ULCMP
      01000533H   PUBLIC    CODE     ---       ?C?ULCMP

      ---         MODULE    ---      ---       ?C?LSTXDATA
      01000544H   PUBLIC    CODE     ---       ?C?LSTXDATA

      ---         MODULE    ---      ---       ?C?LSTKXDATA
      01000550H   PUBLIC    CODE     ---       ?C?LSTKXDATA

      ---         MODULE    ---      ---       PRINTF
      02000000H   PUBLIC    XDATA    ---       ?_PRINTF517?BYTE
      02000000H   PUBLIC    XDATA    ---       ?_PRINTF?BYTE
      02000000H   PUBLIC    XDATA    ---       ?_SPRINTF517?BYTE
      02000000H   PUBLIC    XDATA    ---       ?_SPRINTF?BYTE
      0100016BH   PUBLIC    CODE     ---       _PRINTF
      0100016BH   PUBLIC    CODE     ---       _PRINTF517
      01000165H   PUBLIC    CODE     ---       _SPRINTF
      01000165H   PUBLIC    CODE     ---       _SPRINTF517

      ---         MODULE    ---      ---       ?C?CLDPTR
      01000581H   PUBLIC    CODE     ---       ?C?CLDPTR

      ---         MODULE    ---      ---       ?C?CLDOPTR
      0100059AH   PUBLIC    CODE     ---       ?C?CLDOPTR

      ---         MODULE    ---      ---       ?C?CSTPTR
LX51 LINKER/LOCATER V4.41                                                             02/07/2021  16:31:57  PAGE 15


      010005C7H   PUBLIC    CODE     ---       ?C?CSTPTR

      ---         MODULE    ---      ---       ?C?PLDIXDATA
      010005D9H   PUBLIC    CODE     ---       ?C?PLDIXDATA

      ---         MODULE    ---      ---       ?C?PSTXDATA
      010005F0H   PUBLIC    CODE     ---       ?C?PSTXDATA

      ---         MODULE    ---      ---       ?C?CCASE
      010005F9H   PUBLIC    CODE     ---       ?C?CCASE

Program Size: data=15.4 xdata=43 const=0 code=2922
LX51 RUN COMPLETE.  0 WARNING(S),  0 ERROR(S)
