BL51 BANKED LINKER/LOCATER V6.22                                                        11/12/2019  18:30:58  PAGE 1


BL51 BANKED LINKER/LOCATER V6.22, INVOKED BY:
C:\KEIL\C51\BIN\BL51.EXE ..\OUTPUT\FUNCTION.obj, ..\OUTPUT\main.obj, ..\OUTPUT\LCD_DISPLAY.obj, ..\OUTPUT\LED_DISPLAY.ob
>> j, ..\OUTPUT\UART0.obj, ..\OUTPUT\W25Q16.obj, ..\OUTPUT\ADC.obj, ..\OUTPUT\sc95f761x_it.obj, ..\OUTPUT\KEY.obj, ..\OU
>> TPUT\sc95f761x_adc.obj, ..\OUTPUT\sc95f761x_btm.obj, ..\OUTPUT\sc95f761x_ddic.obj, ..\OUTPUT\sc95f761x_exti.obj, ..\O
>> UTPUT\sc95f761x_gpio.obj, ..\OUTPUT\sc95f761x_iap.obj, ..\OUTPUT\sc95f761x_pwm.obj, ..\OUTPUT\sc95f761x_timer0.obj, .
>> .\OUTPUT\sc95f761x_timer1.obj, ..\OUTPUT\sc95f761x_timerx.obj, ..\OUTPUT\sc95f761x_uart0.obj, ..\OUTPUT\sc95f761x_usc
>> i1.obj, ..\OUTPUT\STARTUP.obj TO ..\OUTPUT\Function_Demo PRINT (..\LST\Function_Demo.m51) RAMSIZE (256) DISABLEWARNIN
>> G (16)


MEMORY MODEL: LARGE


INPUT MODULES INCLUDED:
  ..\OUTPUT\FUNCTION.obj (FUNCTION)
  ..\OUTPUT\main.obj (MAIN)
  ..\OUTPUT\LCD_DISPLAY.obj (LCD_DISPLAY)
  ..\OUTPUT\LED_DISPLAY.obj (LED_DISPLAY)
  ..\OUTPUT\UART0.obj (UART0)
  ..\OUTPUT\W25Q16.obj (W25Q16)
  ..\OUTPUT\ADC.obj (ADC)
  ..\OUTPUT\sc95f761x_it.obj (SC95F761X_IT)
  ..\OUTPUT\KEY.obj (KEY)
  ..\OUTPUT\sc95f761x_adc.obj (SC95F761X_ADC)
  ..\OUTPUT\sc95f761x_btm.obj (SC95F761X_BTM)
  ..\OUTPUT\sc95f761x_ddic.obj (SC95F761X_DDIC)
  ..\OUTPUT\sc95f761x_exti.obj (SC95F761X_EXTI)
  ..\OUTPUT\sc95f761x_gpio.obj (SC95F761X_GPIO)
  ..\OUTPUT\sc95f761x_iap.obj (SC95F761X_IAP)
  ..\OUTPUT\sc95f761x_pwm.obj (SC95F761X_PWM)
  ..\OUTPUT\sc95f761x_timer0.obj (SC95F761X_TIMER0)
  ..\OUTPUT\sc95f761x_timer1.obj (SC95F761X_TIMER1)
  ..\OUTPUT\sc95f761x_timerx.obj (SC95F761X_TIMERX)
  ..\OUTPUT\sc95f761x_uart0.obj (SC95F761X_UART0)
  ..\OUTPUT\sc95f761x_usci1.obj (SC95F761X_USCI1)
  ..\OUTPUT\STARTUP.obj (?C_STARTUP)
  C:\KEIL\C51\LIB\C51L.LIB (?C_INIT)
  C:\KEIL\C51\LIB\C51L.LIB (?C?CLDPTR)
  C:\KEIL\C51\LIB\C51L.LIB (?C?CSTPTR)
  C:\KEIL\C51\LIB\C51L.LIB (?C?UIDIV)
  C:\KEIL\C51\LIB\C51L.LIB (?C?SIDIV)
  C:\KEIL\C51\LIB\C51L.LIB (?C?IILDX)
  C:\KEIL\C51\LIB\C51L.LIB (?C?ILDIX)
  C:\KEIL\C51\LIB\C51L.LIB (?C?LMUL)
  C:\KEIL\C51\LIB\C51L.LIB (?C?ULDIV)
  C:\KEIL\C51\LIB\C51L.LIB (?C?SLDIV)
  C:\KEIL\C51\LIB\C51L.LIB (?C?SLCMP)
  C:\KEIL\C51\LIB\C51L.LIB (?C?ULSHR)
  C:\KEIL\C51\LIB\C51L.LIB (?C?LSTXDATA)
  C:\KEIL\C51\LIB\C51L.LIB (?C?LSTKXDATA)
  C:\KEIL\C51\LIB\C51L.LIB (PRINTF)
  C:\KEIL\C51\LIB\C51L.LIB (?C?CLDOPTR)
  C:\KEIL\C51\LIB\C51L.LIB (?C?PLDIXDATA)
  C:\KEIL\C51\LIB\C51L.LIB (?C?PSTXDATA)
  C:\KEIL\C51\LIB\C51L.LIB (?C?CCASE)


LINK MAP OF MODULE:  ..\OUTPUT\Function_Demo (FUNCTION)
BL51 BANKED LINKER/LOCATER V6.22                                                      11/12/2019  18:30:58  PAGE 2




            TYPE    BASE      LENGTH    RELOCATION   SEGMENT NAME
            -----------------------------------------------------

            * * * * * * *   D A T A   M E M O R Y   * * * * * * *
            REG     0000H     0008H     ABSOLUTE     "REG BANK 0"
            DATA    0008H     0005H     UNIT         _DATA_GROUP_
                    000DH     0013H                  *** GAP ***
            BIT     0020H.0   0001H.1   UNIT         _BIT_GROUP_
            BIT     0021H.1   0000H.5   UNIT         ?BI?SC95F761X_IT
            BIT     0021H.6   0000H.4   UNIT         ?BI?KEY
            BIT     0022H.2   0000H.2   UNIT         ?BI?FUNCTION
                    0022H.4   0000H.4                *** GAP ***
            IDATA   0023H     0001H     UNIT         ?STACK

            * * * * * * *  X D A T A   M E M O R Y  * * * * * * *
            XDATA   0000H     003EH     UNIT         _XDATA_GROUP_
            XDATA   003EH     000FH     UNIT         ?XD?SC95F761X_IT
            XDATA   004DH     000EH     UNIT         ?XD?ADC
            XDATA   005BH     000DH     UNIT         ?XD?LCD_DISPLAY
            XDATA   0068H     000CH     UNIT         ?XD?LED_DISPLAY
            XDATA   0074H     0005H     UNIT         ?XD?FUNCTION
            XDATA   0079H     0002H     UNIT         ?XD?SC95F761X_IAP
            XDATA   007BH     0001H     UNIT         ?XD?MAIN
            XDATA   007CH     0001H     UNIT         ?XD?_W25Q16_WRITESTATUS?W25Q16
            XDATA   007DH     0001H     UNIT         ?XD?KEY
            XDATA   007EH     0001H     UNIT         ?XD?SC95F761X_PWM
                    007FH     0F81H                  *** GAP ***
            XDATA   1000H     001CH     ABSOLUTE     
* OVERLAP * XDATA   1000H     001CH     ABSOLUTE     
                    101CH     0024H                  *** GAP ***
            XDATA   1040H     0010H     ABSOLUTE     

            * * * * * * *   C O D E   M E M O R Y   * * * * * * *
            CODE    0000H     0003H     ABSOLUTE     
            CODE    0003H     0003H     ABSOLUTE     
            CODE    0006H     0005H     UNIT         ?PR?_UART0_GETFLAGSTATUS?SC95F761X_UART0
            CODE    000BH     0003H     ABSOLUTE     
            CODE    000EH     0005H     UNIT         ?PR?_UART0_CLEARFLAG?SC95F761X_UART0
            CODE    0013H     0003H     ABSOLUTE     
            CODE    0016H     0004H     UNIT         ?PR?ADC_STARTCONVERSION?SC95F761X_ADC
            CODE    001AH     0001H     UNIT         ?PR?EXTI0INTERRUPT?SC95F761X_IT
            CODE    001BH     0003H     ABSOLUTE     
            CODE    001EH     0004H     UNIT         ?PR?ADC_CLEARFLAG?SC95F761X_ADC
            CODE    0022H     0001H     UNIT         ?PR?EXTI1INTERRUPT?SC95F761X_IT
            CODE    0023H     0003H     ABSOLUTE     
            CODE    0026H     0004H     UNIT         ?PR?BTM_DEINIT?SC95F761X_BTM
            CODE    002AH     0001H     UNIT         ?PR?ADCINTERRUPT?SC95F761X_IT
            CODE    002BH     0003H     ABSOLUTE     
            CODE    002EH     0004H     UNIT         ?PR?BTM_CLEARFLAG?SC95F761X_BTM
            CODE    0032H     0001H     UNIT         ?PR?USCI0INTERRUPT?SC95F761X_IT
            CODE    0033H     0003H     ABSOLUTE     
            CODE    0036H     0004H     UNIT         ?PR?DDIC_LEDCONFIG?SC95F761X_DDIC
            CODE    003AH     0001H     UNIT         ?PR?PWMINTERRUPT?SC95F761X_IT
            CODE    003BH     0003H     ABSOLUTE     
            CODE    003EH     0004H     UNIT         ?PR?PWM_CLEARFLAG?SC95F761X_PWM
BL51 BANKED LINKER/LOCATER V6.22                                                      11/12/2019  18:30:58  PAGE 3


            CODE    0042H     0001H     UNIT         ?PR?BTMINTERRUPT?SC95F761X_IT
            CODE    0043H     0003H     ABSOLUTE     
            CODE    0046H     0004H     UNIT         ?PR?PWM_CLEARFAULTDETECTIONFLAG?SC95F761X_PWM
            CODE    004AH     0001H     UNIT         ?PR?EXTI2INTERRUPT?SC95F761X_IT
            CODE    004BH     0003H     ABSOLUTE     
            CODE    004EH     0004H     UNIT         ?PR?USCI1_TWI_START?SC95F761X_USCI1
            CODE    0052H     0001H     UNIT         ?PR?CMPINTERRUPT?SC95F761X_IT
            CODE    0053H     0003H     ABSOLUTE     
            CODE    0056H     000DH     UNIT         ?PR?W25Q16_READSTATUS?W25Q16
            CODE    0063H     0003H     ABSOLUTE     
            CODE    0066H     0004H     UNIT         ?PR?USCI1_TWI_MASTERMODESTOP?SC95F761X_USCI1
            CODE    006AH     0001H     UNIT         ?PR?TIMER3INTERRUPT?SC95F761X_IT
            CODE    006BH     0003H     ABSOLUTE     
            CODE    006EH     0004H     UNIT         ?PR?USCI1_TWI_SLAVECLOCKEXTENSION?SC95F761X_USCI1
            CODE    0072H     0001H     UNIT         ?PR?TIMER4INTERRUPT?SC95F761X_IT
            CODE    0073H     0003H     ABSOLUTE     
            CODE    0076H     0003H     UNIT         ?PR?_ADC_INIT?SC95F761X_ADC
            CODE    0079H     0001H     UNIT         ?PR?USCI2INTERRUPT?SC95F761X_IT
                    007AH     0001H                  *** GAP ***
            CODE    007BH     0003H     ABSOLUTE     
            CODE    007EH     0003H     UNIT         ?PR?TIM0_CLEARFLAG?SC95F761X_TIMER0
                    0081H     0002H                  *** GAP ***
            CODE    0083H     0003H     ABSOLUTE     
            CODE    0086H     0365H     UNIT         ?PR?PRINTF?PRINTF
            CODE    03EBH     02D8H     UNIT         ?C?LIB_CODE
            CODE    06C3H     0144H     UNIT         ?PR?MODE7_IAP?FUNCTION
            CODE    0807H     013AH     UNIT         ?PR?TIMER2INTERRUPT?SC95F761X_IT
            CODE    0941H     012AH     UNIT         ?PR?_LCDSEGDATA?LCD_DISPLAY
            CODE    0A6BH     0125H     UNIT         ?PR?MODE5_SPI?FUNCTION
            CODE    0B90H     00F0H     UNIT         ?PR?MODE6_TIMER2CAPTURE?FUNCTION
            CODE    0C80H     00E8H     UNIT         ?PR?_SPI_FLASH_WRITE_NOCHECK?W25Q16
            CODE    0D68H     00E1H     UNIT         ?PR?MODE1_PWM?FUNCTION
            CODE    0E49H     00CFH     UNIT         ?PR?_GPIO_INIT?SC95F761X_GPIO
            CODE    0F18H     00CEH     UNIT         ?PR?GETTEMPERATURE?ADC
            CODE    0FE6H     00C9H     UNIT         ?PR?_UART0_INIT?SC95F761X_UART0
            CODE    10AFH     00C8H     UNIT         ?CO?ADC
            CODE    1177H     00C0H     UNIT         ?PR?_LEDSEGDATA?LED_DISPLAY
            CODE    1237H     00B9H     UNIT         ?PR?GETADCVALUE?ADC
            CODE    12F0H     00A4H     UNIT         ?PR?_CDEC?FUNCTION
            CODE    1394H     00A3H     UNIT         ?CO?FUNCTION
            CODE    1437H     009DH     UNIT         ?PR?_SPI_FLASH_READ?W25Q16
            CODE    14D4H     009AH     UNIT         ?C_C51STARTUP
            CODE    156EH     0092H     UNIT         ?PR?MAIN?MAIN
            CODE    1600H     0085H     UNIT         ?PR?_W25_FLASH_WRITE_PAGE?W25Q16
            CODE    1685H     0085H     UNIT         ?PR?TIMER0INTERRUPT?SC95F761X_IT
            CODE    170AH     0074H     UNIT         ?PR?TIMER1INTERRUPT?SC95F761X_IT
            CODE    177EH     0072H     UNIT         ?C_INITSEG
            CODE    17F0H     0069H     UNIT         ?PR?LED_DISPLAY?LED_DISPLAY
            CODE    1859H     0065H     UNIT         ?PR?_USCI1_UART_INIT?SC95F761X_USCI1
            CODE    18BEH     0058H     UNIT         ?PR?_W25_SECTORERASE?W25Q16
            CODE    1916H     0058H     UNIT         ?PR?UART0INTERRUPT?SC95F761X_IT
            CODE    196EH     0050H     UNIT         ?PR?KEYSCAN?KEY
            CODE    19BEH     0050H     UNIT         ?PR?_PWM_COMPLEMENTARYMODECONFIG?SC95F761X_PWM
            CODE    1A0EH     004EH     UNIT         ?PR?_SENDSTRING?FUNCTION
            CODE    1A5CH     004DH     UNIT         ?PR?MODE3_UART1?FUNCTION
            CODE    1AA9H     004DH     UNIT         ?PR?_EXTI_ITCONFIG?SC95F761X_EXTI
            CODE    1AF6H     004CH     UNIT         ?PR?_TIMX_ITCONFIG?SC95F761X_TIMERX
BL51 BANKED LINKER/LOCATER V6.22                                                      11/12/2019  18:30:58  PAGE 4


            CODE    1B42H     004BH     UNIT         ?PR?MODE2_TIMER1COUNTER?FUNCTION
            CODE    1B8DH     0045H     UNIT         ?PR?USCI1INTERRUPT?SC95F761X_IT
            CODE    1BD2H     0044H     UNIT         ?C?LDIV
            CODE    1C16H     0042H     UNIT         ?PR?_EXTI_SETEXTINT0XTRIGGERMODE?SC95F761X_EXTI
            CODE    1C58H     0042H     UNIT         ?PR?_EXTI_SETEXTINT1XTRIGGERMODE?SC95F761X_EXTI
            CODE    1C9AH     0042H     UNIT         ?PR?_EXTI_SETEXTINT2XTRIGGERMODE?SC95F761X_EXTI
            CODE    1CDCH     0042H     UNIT         ?PR?_IAP_PROGRAMBYTE?SC95F761X_IAP
            CODE    1D1EH     0039H     UNIT         ?PR?_UART1SENDSTRING?FUNCTION
            CODE    1D57H     0038H     UNIT         ?PR?PWM_DEINIT?SC95F761X_PWM
            CODE    1D8FH     0037H     UNIT         ?PR?_PWM_POLARITYCONFIG?SC95F761X_PWM
            CODE    1DC6H     0036H     UNIT         ?PR?_IAP_READBYTE?SC95F761X_IAP
            CODE    1DFCH     0035H     UNIT         ?PR?_EXTI_DEINIT?SC95F761X_EXTI
            CODE    1E31H     0034H     UNIT         ?PR?_PWM_OUTPUTSTATECONFIG?SC95F761X_PWM
            CODE    1E65H     0033H     UNIT         ?PR?_ADC_CHANNELCONFIG?SC95F761X_ADC
            CODE    1E98H     0032H     UNIT         ?PR?LCD_DISPLAY?LCD_DISPLAY
            CODE    1ECAH     0031H     UNIT         ?PR?_GPIO_READPIN?SC95F761X_GPIO
            CODE    1EFBH     0030H     UNIT         ?PR?_GPIO_WRITELOW?SC95F761X_GPIO
            CODE    1F2BH     002CH     UNIT         ?PR?MODE4_ADC?FUNCTION
            CODE    1F57H     002CH     UNIT         ?PR?_USCI1_SPI_INIT?SC95F761X_USCI1
            CODE    1F83H     002BH     UNIT         ?PR?LCD_CLEAR?LCD_DISPLAY
            CODE    1FAEH     002AH     UNIT         ?PR?_GPIO_WRITEHIGH?SC95F761X_GPIO
            CODE    1FD8H     0029H     UNIT         ?PR?_USCI1_GETFLAGSTATUS?SC95F761X_USCI1
            CODE    2001H     0026H     UNIT         ?PR?DDIC_LCDINIT?FUNCTION
            CODE    2027H     0026H     UNIT         ?PR?GPIO_DEINIT?SC95F761X_GPIO
            CODE    204DH     0026H     UNIT         ?PR?_GPIO_WRITE?SC95F761X_GPIO
            CODE    2073H     0026H     UNIT         ?PR?_PWM_INDEPENDENTMODECONFIG?SC95F761X_PWM
            CODE    2099H     0025H     UNIT         ?PR?_GPIO_READPORT?SC95F761X_GPIO
            CODE    20BEH     0022H     UNIT         ?PR?_DELAY_SOME_TIME?FUNCTION
            CODE    20E0H     0022H     UNIT         ?PR?_TIM2_TIMEBASEINIT?SC95F761X_TIMERX
            CODE    2102H     0020H     UNIT         ?PR?_IAP_SECTORERASE?SC95F761X_IAP
            CODE    2122H     001FH     UNIT         ?PR?DDIC_LEDINIT?FUNCTION
            CODE    2141H     001FH     UNIT         ?PR?_TIM0_TIMEBASEINIT?SC95F761X_TIMER0
            CODE    2160H     001FH     UNIT         ?PR?_TIM1_TIMEBASEINIT?SC95F761X_TIMER1
            CODE    217FH     001EH     UNIT         ?PR?_ADC_VREFCONFIG?SC95F761X_ADC
            CODE    219DH     001CH     UNIT         ?PR?_TIMX_DEINIT?SC95F761X_TIMERX
            CODE    21B9H     001AH     UNIT         ?PR?TIMER0INIT?FUNCTION
            CODE    21D3H     001AH     UNIT         ?PR?_SPI_WRITEBYTE?W25Q16
            CODE    21EDH     001AH     UNIT         ?PR?_DDIC_INIT?SC95F761X_DDIC
            CODE    2207H     0018H     UNIT         ?PR?_USCI1_CLEARFLAG?SC95F761X_USCI1
            CODE    221FH     0017H     UNIT         ?PR?_W25Q16_WRITESTATUS?W25Q16
            CODE    2236H     0016H     UNIT         ?PR?ADCINIT?ADC
            CODE    224CH     0016H     UNIT         ?PR?ADC_GETCONVERSIONVALUE?SC95F761X_ADC
            CODE    2262H     0016H     UNIT         ?PR?_BTM_ITCONFIG?SC95F761X_BTM
            CODE    2278H     0016H     UNIT         ?PR?_PWM_ITCONFIG?SC95F761X_PWM
            CODE    228EH     0016H     UNIT         ?PR?USCI1_UART_RECEIVEDATA9?SC95F761X_USCI1
            CODE    22A4H     0016H     UNIT         ?PR?_USCI1_ITCONFIG?SC95F761X_USCI1
            CODE    22BAH     0014H     UNIT         ?PR?_PWM_INIT?SC95F761X_PWM
            CODE    22CEH     0014H     UNIT         ?PR?_UART0_SENDDATA9?SC95F761X_UART0
            CODE    22E2H     0014H     UNIT         ?PR?_USCI1_UART_SENDDATA9?SC95F761X_USCI1
            CODE    22F6H     0013H     UNIT         ?CO?LCD_DISPLAY
            CODE    2309H     0013H     UNIT         ?CO?LED_DISPLAY
            CODE    231CH     0013H     UNIT         ?PR?_PUTCHAR?UART0
            CODE    232FH     0013H     UNIT         ?PR?TIM0_DEINIT?SC95F761X_TIMER0
            CODE    2342H     0013H     UNIT         ?PR?TIM1_DEINIT?SC95F761X_TIMER1
            CODE    2355H     0013H     UNIT         ?PR?UART0_RECEIVEDATA9?SC95F761X_UART0
            CODE    2368H     0013H     UNIT         ?PR?USCI1_DEINIT?SC95F761X_USCI1
            CODE    237BH     0012H     UNIT         ?PR?GPIOINIT?FUNCTION
BL51 BANKED LINKER/LOCATER V6.22                                                      11/12/2019  18:30:58  PAGE 5


            CODE    238DH     0012H     UNIT         ?PR?ADC_DEINIT?SC95F761X_ADC
            CODE    239FH     0012H     UNIT         ?PR?_ADC_ITCONFIG?SC95F761X_ADC
            CODE    23B1H     0012H     UNIT         ?PR?_TIM0_WORKMODE0CONFIG?SC95F761X_TIMER0
            CODE    23C3H     0012H     UNIT         ?PR?_TIM0_ITCONFIG?SC95F761X_TIMER0
            CODE    23D5H     0012H     UNIT         ?PR?_TIM1_WORKMODE0CONFIG?SC95F761X_TIMER1
            CODE    23E7H     0012H     UNIT         ?PR?_TIM1_ITCONFIG?SC95F761X_TIMER1
            CODE    23F9H     0012H     UNIT         ?PR?_UART0_ITCONFIG?SC95F761X_UART0
            CODE    240BH     0011H     UNIT         ?PR?_PWM_MODECONFIG?SC95F761X_PWM
            CODE    241CH     0011H     UNIT         ?PR?_TIMX_PRESCALERSELECTION?SC95F761X_TIMERX
            CODE    242DH     0011H     UNIT         ?PR?_TIM2_WORKMODE1CONFIG?SC95F761X_TIMERX
            CODE    243EH     0011H     UNIT         ?PR?_TIM3_WORKMODE1CONFIG?SC95F761X_TIMERX
            CODE    244FH     0011H     UNIT         ?PR?_TIM4_WORKMODE1CONFIG?SC95F761X_TIMERX
            CODE    2460H     0011H     UNIT         ?PR?_TIMX_GETFLAGSTATUS?SC95F761X_TIMERX
            CODE    2471H     0010H     UNIT         ?PR?_DDIC_LCDCONFIG?SC95F761X_DDIC
            CODE    2481H     000FH     UNIT         ?PR?DDIC_DEINIT?SC95F761X_DDIC
            CODE    2490H     000FH     UNIT         ?PR?_TIM0_MODE0SETRELOADCOUNTER?SC95F761X_TIMER0
            CODE    249FH     000FH     UNIT         ?PR?_TIM1_MODE0SETRELOADCOUNTER?SC95F761X_TIMER1
            CODE    24AEH     000FH     UNIT         ?PR?UART0_DEINIT?SC95F761X_UART0
            CODE    24BDH     000EH     UNIT         ?PR?IAP_DEINIT?SC95F761X_IAP
            CODE    24CBH     000EH     UNIT         ?PR?_TIM0_WORKMODE1CONFIG?SC95F761X_TIMER0
            CODE    24D9H     000EH     UNIT         ?PR?_TIM1_WORKMODE1CONFIG?SC95F761X_TIMER1
            CODE    24E7H     000EH     UNIT         ?PR?_TIM2_WORKMODE0CONFIG?SC95F761X_TIMERX
            CODE    24F5H     000EH     UNIT         ?PR?_TIM2_WORKMODE3CONFIG?SC95F761X_TIMERX
            CODE    2503H     000EH     UNIT         ?PR?_USCI1_TWI_SLAVE_INIT?SC95F761X_USCI1
            CODE    2511H     000CH     UNIT         ?PR?_DDIC_OUTPUTPINOFDUTYCYCLED4?SC95F761X_DDIC
            CODE    251DH     000CH     UNIT         ?PR?_TIM2_SETEXEN2?SC95F761X_TIMERX
            CODE    2529H     000CH     UNIT         ?PR?_USCI1_SPI_SENDDATA_16?SC95F761X_USCI1
            CODE    2535H     000CH     UNIT         ?PR?_USCI1_TWI_MASTERCOMMUNICATIONRATE?SC95F761X_USCI1
            CODE    2541H     000BH     UNIT         ?PR?_ADC_CMD?SC95F761X_ADC
            CODE    254CH     000BH     UNIT         ?PR?_BTM_CMD?SC95F761X_BTM
            CODE    2557H     000BH     UNIT         ?PR?_DDIC_CMD?SC95F761X_DDIC
            CODE    2562H     000BH     UNIT         ?PR?_IAP_SETOPERATERANGE?SC95F761X_IAP
            CODE    256DH     000BH     UNIT         ?PR?_PWM_CMD?SC95F761X_PWM
            CODE    2578H     000BH     UNIT         ?PR?_PWM_FAULTDETECTIONCONFIG?SC95F761X_PWM
            CODE    2583H     000BH     UNIT         ?PR?_TIM0_WORKMODE2CONFIG?SC95F761X_TIMER0
            CODE    258EH     000BH     UNIT         ?PR?_TIM1_WORKMODE2CONFIG?SC95F761X_TIMER1
            CODE    2599H     000BH     UNIT         ?PR?_TIMX_CMD?SC95F761X_TIMERX
            CODE    25A4H     000BH     UNIT         ?PR?_USCI1_SPI_CMD?SC95F761X_USCI1
            CODE    25AFH     000BH     UNIT         ?PR?_USCI1_TWI_ACKNOWLEDGECONFIG?SC95F761X_USCI1
            CODE    25BAH     000BH     UNIT         ?PR?_USCI1_TWI_GENERALCALLCMD?SC95F761X_USCI1
            CODE    25C5H     000BH     UNIT         ?PR?_USCI1_TWI_CMD?SC95F761X_USCI1
            CODE    25D0H     000AH     UNIT         ?PR?WRITEENABLE?W25Q16
            CODE    25DAH     000AH     UNIT         ?PR?_PWM_DEADTIMECONFIG?SC95F761X_PWM
            CODE    25E4H     000AH     UNIT         ?PR?_PWM_FAULTDETECTIONMODECONFIG?SC95F761X_PWM
            CODE    25EEH     000AH     UNIT         ?PR?_TIM0_WORKMODE3CONFIG?SC95F761X_TIMER0
            CODE    25F8H     000AH     UNIT         ?PR?TIM3_TIMEBASEINIT?SC95F761X_TIMERX
            CODE    2602H     000AH     UNIT         ?PR?TIM4_TIMEBASEINIT?SC95F761X_TIMERX
            CODE    260CH     0009H     UNIT         ?PR?SPI_READBYTE?W25Q16
            CODE    2615H     0009H     UNIT         ?PR?_TIM0_CMD?SC95F761X_TIMER0
            CODE    261EH     0009H     UNIT         ?PR?_TIM1_CMD?SC95F761X_TIMER1
            CODE    2627H     0009H     UNIT         ?PR?USCI1_SPI_RECEIVEDATA_16?SC95F761X_USCI1
            CODE    2630H     0008H     UNIT         ?PR?_BTM_INIT?SC95F761X_BTM
            CODE    2638H     0008H     UNIT         ?PR?_TIM0_MODE1SETRELOADCOUNTER?SC95F761X_TIMER0
            CODE    2640H     0008H     UNIT         ?PR?_TIM1_MODE1SETRELOADCOUNTER?SC95F761X_TIMER1
            CODE    2648H     0007H     UNIT         ?PR?_TIMX_CLEARFLAG?SC95F761X_TIMERX
            CODE    264FH     0006H     UNIT         ?PR?ADC_GETFLAGSTATUS?SC95F761X_ADC
            CODE    2655H     0006H     UNIT         ?PR?BTM_GETFLAGSTATUS?SC95F761X_BTM
BL51 BANKED LINKER/LOCATER V6.22                                                      11/12/2019  18:30:58  PAGE 6


            CODE    265BH     0006H     UNIT         ?PR?PWM_GETFLAGSTATUS?SC95F761X_PWM
            CODE    2661H     0006H     UNIT         ?PR?PWM_GETFAULTDETECTIONFLAGSTATUS?SC95F761X_PWM
            CODE    2667H     0006H     UNIT         ?PR?TIM0_GETFLAGSTATUS?SC95F761X_TIMER0
            CODE    266DH     0006H     UNIT         ?PR?TIM1_GETFLAGSTATUS?SC95F761X_TIMER1
            CODE    2673H     0003H     UNIT         ?PR?TIM1_CLEARFLAG?SC95F761X_TIMER1
            CODE    2676H     0003H     UNIT         ?PR?_TIMX_TIMERSELECT?SC95F761X_TIMERX
            CODE    2679H     0003H     UNIT         ?PR?_UART0_SENDDATA8?SC95F761X_UART0
            CODE    267CH     0003H     UNIT         ?PR?UART0_RECEIVEDATA8?SC95F761X_UART0
            CODE    267FH     0003H     UNIT         ?PR?_USCI1_SPI_SENDDATA_8?SC95F761X_USCI1
            CODE    2682H     0003H     UNIT         ?PR?USCI1_SPI_RECEIVEDATA_8?SC95F761X_USCI1
            CODE    2685H     0003H     UNIT         ?PR?_USCI1_TWI_SENDDATA?SC95F761X_USCI1
            CODE    2688H     0003H     UNIT         ?PR?USCI1_TWI_RECEIVEDATA?SC95F761X_USCI1
            CODE    268BH     0003H     UNIT         ?PR?_USCI1_UART_SENDDATA8?SC95F761X_USCI1
            CODE    268EH     0003H     UNIT         ?PR?USCI1_UART_RECEIVEDATA8?SC95F761X_USCI1



OVERLAY MAP OF MODULE:   ..\OUTPUT\Function_Demo (FUNCTION)


SEGMENT                                             BIT_GROUP          DATA_GROUP          XDATA_GROUP
  +--> CALLED SEGMENT                            START    LENGTH     START    LENGTH     START    LENGTH
--------------------------------------------------------------------------------------------------------
?PR?TIMER0INTERRUPT?SC95F761X_IT                 -----    -----      -----    -----      -----    -----
  +--> ?PR?_TIM0_MODE0SETRELOADCOUNTER?SC95F...

*** NEW ROOT ***************************************************

?PR?TIMER1INTERRUPT?SC95F761X_IT                 -----    -----      -----    -----      -----    -----
  +--> ?PR?_GPIO_READPIN?SC95F761X_GPIO
  +--> ?PR?_GPIO_WRITELOW?SC95F761X_GPIO
  +--> ?PR?_GPIO_WRITEHIGH?SC95F761X_GPIO

*** NEW ROOT ***************************************************

?PR?UART0INTERRUPT?SC95F761X_IT                  -----    -----      -----    -----      -----    -----
  +--> ?PR?_UART0_GETFLAGSTATUS?SC95F761X_UART0
  +--> ?PR?_UART0_CLEARFLAG?SC95F761X_UART0

*** NEW ROOT ***************************************************

?PR?TIMER2INTERRUPT?SC95F761X_IT                 -----    -----      -----    -----      -----    -----
  +--> ?PR?_TIMX_GETFLAGSTATUS?SC95F761X_TIMERX
  +--> ?PR?_TIMX_CLEARFLAG?SC95F761X_TIMERX

*** NEW ROOT ***************************************************

?PR?USCI1INTERRUPT?SC95F761X_IT                  -----    -----      -----    -----      -----    -----
  +--> ?PR?_USCI1_GETFLAGSTATUS?SC95F761X_USCI1

*** NEW ROOT ***************************************************

?C_C51STARTUP                                    -----    -----      -----    -----      -----    -----
  +--> ?PR?MAIN?MAIN
  +--> ?C_INITSEG

?PR?MAIN?MAIN                                    -----    -----      -----    -----      -----    -----
BL51 BANKED LINKER/LOCATER V6.22                                                      11/12/2019  18:30:58  PAGE 7


  +--> ?PR?GPIOINIT?FUNCTION
  +--> ?PR?TIMER0INIT?FUNCTION
  +--> ?PR?DDIC_LCDINIT?FUNCTION
  +--> ?PR?_GPIO_INIT?SC95F761X_GPIO
  +--> ?PR?KEYSCAN?KEY
  +--> ?PR?LCD_DISPLAY?LCD_DISPLAY
  +--> ?PR?MODE1_PWM?FUNCTION
  +--> ?PR?MODE2_TIMER1COUNTER?FUNCTION
  +--> ?PR?MODE3_UART1?FUNCTION
  +--> ?PR?MODE4_ADC?FUNCTION
  +--> ?PR?MODE5_SPI?FUNCTION
  +--> ?PR?MODE6_TIMER2CAPTURE?FUNCTION
  +--> ?PR?MODE7_IAP?FUNCTION

?PR?GPIOINIT?FUNCTION                            -----    -----      -----    -----      -----    -----
  +--> ?PR?_GPIO_INIT?SC95F761X_GPIO

?PR?TIMER0INIT?FUNCTION                          -----    -----      -----    -----      -----    -----
  +--> ?PR?_TIM0_TIMEBASEINIT?SC95F761X_TIMER0
  +--> ?PR?_TIM0_WORKMODE0CONFIG?SC95F761X_T...
  +--> ?PR?_TIM0_CMD?SC95F761X_TIMER0
  +--> ?PR?_TIM0_ITCONFIG?SC95F761X_TIMER0

?PR?DDIC_LCDINIT?FUNCTION                        -----    -----      -----    -----      -----    -----
  +--> ?PR?_DDIC_INIT?SC95F761X_DDIC
  +--> ?PR?_DDIC_LCDCONFIG?SC95F761X_DDIC
  +--> ?PR?_DDIC_OUTPUTPINOFDUTYCYCLED4?SC95...
  +--> ?PR?_DDIC_CMD?SC95F761X_DDIC

?PR?_DDIC_INIT?SC95F761X_DDIC                    -----    -----      -----    -----      0000H    0005H

?PR?LCD_DISPLAY?LCD_DISPLAY                      -----    -----      -----    -----      -----    -----
  +--> ?PR?LCD_CLEAR?LCD_DISPLAY
  +--> ?CO?LCD_DISPLAY
  +--> ?PR?_LCDSEGDATA?LCD_DISPLAY

?PR?LCD_CLEAR?LCD_DISPLAY                        -----    -----      -----    -----      -----    -----
  +--> ?CO?LCD_DISPLAY
  +--> ?PR?_LCDSEGDATA?LCD_DISPLAY

?PR?MODE1_PWM?FUNCTION                           -----    -----      -----    -----      0000H    0002H
  +--> ?PR?PWM_DEINIT?SC95F761X_PWM
  +--> ?PR?_PWM_INIT?SC95F761X_PWM
  +--> ?PR?_PWM_OUTPUTSTATECONFIG?SC95F761X_PWM
  +--> ?PR?_PWM_CMD?SC95F761X_PWM
  +--> ?PR?_PWM_INDEPENDENTMODECONFIG?SC95F7...
  +--> ?PR?_DELAY_SOME_TIME?FUNCTION
  +--> ?PR?KEYSCAN?KEY

?PR?MODE2_TIMER1COUNTER?FUNCTION                 -----    -----      -----    -----      -----    -----
  +--> ?PR?_GPIO_INIT?SC95F761X_GPIO
  +--> ?PR?_GPIO_WRITELOW?SC95F761X_GPIO
  +--> ?PR?_TIM1_TIMEBASEINIT?SC95F761X_TIMER1
  +--> ?PR?_TIM1_WORKMODE2CONFIG?SC95F761X_T...
  +--> ?PR?_TIM1_CMD?SC95F761X_TIMER1
  +--> ?PR?_TIM1_ITCONFIG?SC95F761X_TIMER1
  +--> ?PR?KEYSCAN?KEY
BL51 BANKED LINKER/LOCATER V6.22                                                      11/12/2019  18:30:58  PAGE 8



?PR?MODE3_UART1?FUNCTION                         -----    -----      -----    -----      -----    -----
  +--> ?PR?_GPIO_INIT?SC95F761X_GPIO
  +--> ?PR?_USCI1_UART_INIT?SC95F761X_USCI1
  +--> ?CO?FUNCTION
  +--> ?PR?_UART1SENDSTRING?FUNCTION
  +--> ?PR?KEYSCAN?KEY
  +--> ?PR?USCI1_DEINIT?SC95F761X_USCI1

?PR?_USCI1_UART_INIT?SC95F761X_USCI1             -----    -----      -----    -----      0005H    000AH

?PR?_UART1SENDSTRING?FUNCTION                    -----    -----      -----    -----      0005H    0003H
  +--> ?PR?_USCI1_UART_SENDDATA8?SC95F761X_U...
  +--> ?PR?_USCI1_GETFLAGSTATUS?SC95F761X_USCI1
  +--> ?PR?_USCI1_CLEARFLAG?SC95F761X_USCI1

?PR?MODE4_ADC?FUNCTION                           -----    -----      -----    -----      -----    -----
  +--> ?PR?ADCINIT?ADC
  +--> ?PR?DDIC_LEDINIT?FUNCTION
  +--> ?PR?KEYSCAN?KEY
  +--> ?PR?GETADCVALUE?ADC
  +--> ?PR?GETTEMPERATURE?ADC
  +--> ?PR?LED_DISPLAY?LED_DISPLAY
  +--> ?PR?_ADC_CMD?SC95F761X_ADC
  +--> ?PR?DDIC_LCDINIT?FUNCTION

?PR?ADCINIT?ADC                                  -----    -----      -----    -----      -----    -----
  +--> ?PR?_ADC_INIT?SC95F761X_ADC
  +--> ?PR?_ADC_CHANNELCONFIG?SC95F761X_ADC
  +--> ?PR?_ADC_CMD?SC95F761X_ADC
  +--> ?PR?_ADC_VREFCONFIG?SC95F761X_ADC

?PR?DDIC_LEDINIT?FUNCTION                        -----    -----      -----    -----      -----    -----
  +--> ?PR?_DDIC_INIT?SC95F761X_DDIC
  +--> ?PR?DDIC_LEDCONFIG?SC95F761X_DDIC
  +--> ?PR?_DDIC_OUTPUTPINOFDUTYCYCLED4?SC95...
  +--> ?PR?_DDIC_CMD?SC95F761X_DDIC

?PR?GETADCVALUE?ADC                              -----    -----      -----    -----      -----    -----
  +--> ?PR?ADC_STARTCONVERSION?SC95F761X_ADC
  +--> ?PR?ADC_GETFLAGSTATUS?SC95F761X_ADC
  +--> ?PR?ADC_CLEARFLAG?SC95F761X_ADC
  +--> ?PR?ADC_GETCONVERSIONVALUE?SC95F761X_ADC

?PR?GETTEMPERATURE?ADC                           -----    -----      -----    -----      -----    -----
  +--> ?CO?ADC

?PR?LED_DISPLAY?LED_DISPLAY                      -----    -----      -----    -----      -----    -----
  +--> ?CO?LED_DISPLAY
  +--> ?PR?_LEDSEGDATA?LED_DISPLAY

?PR?MODE5_SPI?FUNCTION                           -----    -----      -----    -----      0000H    0015H
  +--> ?PR?_GPIO_INIT?SC95F761X_GPIO
  +--> ?PR?_UART0_INIT?SC95F761X_UART0
  +--> ?PR?_UART0_ITCONFIG?SC95F761X_UART0
  +--> ?PR?_USCI1_SPI_INIT?SC95F761X_USCI1
  +--> ?PR?_USCI1_SPI_CMD?SC95F761X_USCI1
BL51 BANKED LINKER/LOCATER V6.22                                                      11/12/2019  18:30:58  PAGE 9


  +--> ?PR?_USCI1_ITCONFIG?SC95F761X_USCI1
  +--> ?PR?_W25_SECTORERASE?W25Q16
  +--> ?PR?_SPI_FLASH_WRITE_NOCHECK?W25Q16
  +--> ?PR?_SPI_FLASH_READ?W25Q16
  +--> ?CO?FUNCTION
  +--> ?PR?PRINTF?PRINTF
  +--> ?PR?KEYSCAN?KEY
  +--> ?PR?USCI1_DEINIT?SC95F761X_USCI1

?PR?_UART0_INIT?SC95F761X_UART0                  -----    -----      -----    -----      0015H    000BH

?PR?_USCI1_SPI_INIT?SC95F761X_USCI1              -----    -----      -----    -----      0015H    0007H

?PR?_W25_SECTORERASE?W25Q16                      -----    -----      -----    -----      0015H    0004H
  +--> ?PR?W25Q16_READSTATUS?W25Q16
  +--> ?PR?WRITEENABLE?W25Q16
  +--> ?PR?_SPI_WRITEBYTE?W25Q16

?PR?W25Q16_READSTATUS?W25Q16                     -----    -----      -----    -----      -----    -----
  +--> ?PR?_SPI_WRITEBYTE?W25Q16
  +--> ?PR?SPI_READBYTE?W25Q16

?PR?_SPI_WRITEBYTE?W25Q16                        -----    -----      -----    -----      -----    -----
  +--> ?PR?_USCI1_SPI_SENDDATA_8?SC95F761X_U...

?PR?SPI_READBYTE?W25Q16                          -----    -----      -----    -----      -----    -----
  +--> ?PR?_SPI_WRITEBYTE?W25Q16
  +--> ?PR?USCI1_SPI_RECEIVEDATA_8?SC95F761X...

?PR?WRITEENABLE?W25Q16                           -----    -----      -----    -----      -----    -----
  +--> ?PR?_SPI_WRITEBYTE?W25Q16

?PR?_SPI_FLASH_WRITE_NOCHECK?W25Q16              -----    -----      -----    -----      0015H    000BH
  +--> ?PR?_W25_FLASH_WRITE_PAGE?W25Q16

?PR?_W25_FLASH_WRITE_PAGE?W25Q16                 -----    -----      -----    -----      0020H    000BH
  +--> ?PR?WRITEENABLE?W25Q16
  +--> ?PR?W25Q16_READSTATUS?W25Q16
  +--> ?PR?_SPI_WRITEBYTE?W25Q16

?PR?_SPI_FLASH_READ?W25Q16                       -----    -----      -----    -----      0015H    000BH
  +--> ?PR?W25Q16_READSTATUS?W25Q16
  +--> ?PR?WRITEENABLE?W25Q16
  +--> ?PR?_SPI_WRITEBYTE?W25Q16
  +--> ?PR?SPI_READBYTE?W25Q16

?PR?PRINTF?PRINTF                                0020H.0  0001H.1    0008H    0005H      0015H    0028H
  +--> ?PR?_PUTCHAR?UART0

?PR?_PUTCHAR?UART0                               -----    -----      -----    -----      003DH    0001H
  +--> ?PR?_UART0_SENDDATA8?SC95F761X_UART0

?PR?MODE6_TIMER2CAPTURE?FUNCTION                 -----    -----      -----    -----      -----    -----
  +--> ?PR?_TIMX_TIMERSELECT?SC95F761X_TIMERX
  +--> ?PR?_TIMX_PRESCALERSELECTION?SC95F761...
  +--> ?PR?_TIM2_TIMEBASEINIT?SC95F761X_TIMERX
  +--> ?PR?_TIM2_WORKMODE0CONFIG?SC95F761X_T...
BL51 BANKED LINKER/LOCATER V6.22                                                      11/12/2019  18:30:58  PAGE 10


  +--> ?PR?_TIMX_ITCONFIG?SC95F761X_TIMERX
  +--> ?PR?_TIMX_CMD?SC95F761X_TIMERX
  +--> ?PR?_TIM1_TIMEBASEINIT?SC95F761X_TIMER1
  +--> ?PR?_TIM1_WORKMODE2CONFIG?SC95F761X_T...
  +--> ?PR?_TIM1_CMD?SC95F761X_TIMER1
  +--> ?PR?_TIM1_ITCONFIG?SC95F761X_TIMER1
  +--> ?PR?_GPIO_INIT?SC95F761X_GPIO
  +--> ?PR?DDIC_LEDINIT?FUNCTION
  +--> ?PR?KEYSCAN?KEY
  +--> ?PR?LED_DISPLAY?LED_DISPLAY
  +--> ?PR?DDIC_LCDINIT?FUNCTION

?PR?MODE7_IAP?FUNCTION                           -----    -----      -----    -----      0000H    0005H
  +--> ?PR?_GPIO_INIT?SC95F761X_GPIO
  +--> ?PR?_USCI1_UART_INIT?SC95F761X_USCI1
  +--> ?PR?_IAP_SECTORERASE?SC95F761X_IAP
  +--> ?PR?_IAP_PROGRAMBYTE?SC95F761X_IAP
  +--> ?CO?FUNCTION
  +--> ?PR?_UART1SENDSTRING?FUNCTION
  +--> ?PR?_IAP_READBYTE?SC95F761X_IAP
  +--> ?PR?_CDEC?FUNCTION
  +--> ?PR?_SENDSTRING?FUNCTION
  +--> ?PR?_USCI1_UART_SENDDATA8?SC95F761X_U...
  +--> ?PR?_USCI1_GETFLAGSTATUS?SC95F761X_USCI1
  +--> ?PR?_USCI1_CLEARFLAG?SC95F761X_USCI1
  +--> ?PR?KEYSCAN?KEY
  +--> ?PR?USCI1_DEINIT?SC95F761X_USCI1

?PR?_IAP_PROGRAMBYTE?SC95F761X_IAP               -----    -----      -----    -----      0005H    0005H

?PR?_IAP_READBYTE?SC95F761X_IAP                  -----    -----      -----    -----      0005H    0002H

?PR?_CDEC?FUNCTION                               -----    -----      -----    -----      -----    -----
  +--> ?CO?FUNCTION

?PR?_SENDSTRING?FUNCTION                         -----    -----      -----    -----      0005H    0005H
  +--> ?PR?_USCI1_UART_SENDDATA8?SC95F761X_U...
  +--> ?PR?_USCI1_GETFLAGSTATUS?SC95F761X_USCI1
  +--> ?PR?_USCI1_CLEARFLAG?SC95F761X_USCI1



SYMBOL TABLE OF MODULE:  ..\OUTPUT\Function_Demo (FUNCTION)

  VALUE           TYPE          NAME
  ----------------------------------

  -------         MODULE        FUNCTION
  C:0000H         SYMBOL        _ICE_DUMMY_
  D:0080H         PUBLIC        P0
  D:0090H         PUBLIC        P1
  D:00A0H         PUBLIC        P2
  D:00B0H         PUBLIC        P3
  D:00C0H         PUBLIC        P4
  D:00D8H         PUBLIC        P5
  C:1A0EH         PUBLIC        _SendString
  C:0A6BH         PUBLIC        Mode5_SPI
BL51 BANKED LINKER/LOCATER V6.22                                                      11/12/2019  18:30:58  PAGE 11


  C:1A5CH         PUBLIC        Mode3_UART1
  C:0D68H         PUBLIC        Mode1_PWM
  D:00C8H         PUBLIC        TXCON
  D:00A8H         PUBLIC        IE
  C:12F0H         PUBLIC        _CDEC
  B:0022H.2       PUBLIC        PWMSTOPFLG
  D:00B8H         PUBLIC        IP
  X:0074H         PUBLIC        dec
  C:0B90H         PUBLIC        Mode6_Timer2Capture
  D:0098H         PUBLIC        SCON
  C:1B42H         PUBLIC        Mode2_Timer1Counter
  D:0088H         PUBLIC        TCON
  C:237BH         PUBLIC        GPIOInit
  C:21B9H         PUBLIC        Timer0Init
  C:1427H         PUBLIC        charbyte
  C:1D1EH         PUBLIC        _Uart1SendString
  C:20C2H         PUBLIC        _Delay_Some_Time
  B:0022H.3       PUBLIC        PWMCNT
  C:2001H         PUBLIC        DDIC_LCDInit
  C:2122H         PUBLIC        DDIC_LEDInit
  C:1F2BH         PUBLIC        Mode4_ADC
  C:06C3H         PUBLIC        Mode7_IAP
  D:00D0H         PUBLIC        PSW
  -------         PROC          GPIOINIT
  C:237BH         LINE#         25
  C:237BH         LINE#         26
  C:237BH         LINE#         27
  C:2384H         LINE#         28
  -------         ENDPROC       GPIOINIT
  -------         PROC          TIMER0INIT
  C:21B9H         LINE#         31
  C:21B9H         LINE#         32
  C:21B9H         LINE#         33
  C:21C0H         LINE#         34
  C:21C7H         LINE#         35
  C:21CCH         LINE#         36
  -------         ENDPROC       TIMER0INIT
  -------         PROC          DDIC_LCDINIT
  C:2001H         LINE#         39
  C:2001H         LINE#         40
  C:2001H         LINE#         41
  C:2014H         LINE#         42
  C:201DH         LINE#         43
  C:2022H         LINE#         44
  -------         ENDPROC       DDIC_LCDINIT
  -------         PROC          DDIC_LEDINIT
  C:2122H         LINE#         47
  C:2122H         LINE#         48
  C:2122H         LINE#         49
  C:2134H         LINE#         50
  C:2137H         LINE#         51
  C:213CH         LINE#         52
  -------         ENDPROC       DDIC_LEDINIT
  C:20BEH         SYMBOL        L?0090
  -------         PROC          L?0089
  -------         ENDPROC       L?0089
  C:20BEH         SYMBOL        L?0090
BL51 BANKED LINKER/LOCATER V6.22                                                      11/12/2019  18:30:58  PAGE 12


  -------         PROC          _DELAY_SOME_TIME
  D:0006H         SYMBOL        Some_Time
  -------         DO            
  D:0006H         SYMBOL        i
  D:0004H         SYMBOL        j
  -------         ENDDO         
  C:20C2H         LINE#         56
  C:20C2H         LINE#         57
  C:20C2H         LINE#         59
  C:20CBH         LINE#         60
  C:20DFH         LINE#         61
  -------         ENDPROC       _DELAY_SOME_TIME
  -------         PROC          _CDEC
  D:0002H         SYMBOL        temp
  C:12F0H         LINE#         64
  C:12F4H         LINE#         65
  C:12F4H         LINE#         66
  C:1312H         LINE#         67
  C:1334H         LINE#         68
  C:1356H         LINE#         69
  C:1378H         LINE#         70
  C:1393H         LINE#         72
  -------         ENDPROC       _CDEC
  -------         PROC          _SENDSTRING
  X:0005H         SYMBOL        str
  X:0008H         SYMBOL        length
  -------         DO            
  X:0009H         SYMBOL        m
  -------         ENDDO         
  C:1A0EH         LINE#         74
  C:1A1CH         LINE#         75
  C:1A1CH         LINE#         77
  C:1A2AH         LINE#         78
  C:1A2AH         LINE#         79
  C:1A3CH         LINE#         80
  C:1A44H         LINE#         81
  C:1A49H         LINE#         82
  C:1A53H         LINE#         83
  C:1A5BH         LINE#         85
  -------         ENDPROC       _SENDSTRING
  -------         PROC          _UART1SENDSTRING
  X:0005H         SYMBOL        str
  C:1D1EH         LINE#         87
  C:1D29H         LINE#         88
  C:1D29H         LINE#         89
  C:1D3AH         LINE#         90
  C:1D3AH         LINE#         91
  C:1D3DH         LINE#         92
  C:1D45H         LINE#         93
  C:1D4AH         LINE#         94
  C:1D54H         LINE#         95
  C:1D56H         LINE#         96
  -------         ENDPROC       _UART1SENDSTRING
  -------         PROC          MODE1_PWM
  -------         DO            
  X:0000H         SYMBOL        i
  -------         ENDDO         
BL51 BANKED LINKER/LOCATER V6.22                                                      11/12/2019  18:30:58  PAGE 13


  C:0D68H         LINE#         98
  C:0D68H         LINE#         99
  C:0D68H         LINE#         101
  C:0D6BH         LINE#         102
  C:0D74H         LINE#         103
  C:0D7BH         LINE#         104
  C:0D82H         LINE#         105
  C:0D89H         LINE#         106
  C:0D8EH         LINE#         108
  C:0D8EH         LINE#         109
  C:0D8EH         LINE#         110
  C:0D90H         LINE#         111
  C:0DAAH         LINE#         112
  C:0DAAH         LINE#         113
  C:0DADH         LINE#         114
  C:0DADH         LINE#         115
  C:0DB2H         LINE#         116
  C:0DB5H         LINE#         117
  C:0DCAH         LINE#         118
  C:0DCDH         LINE#         119
  C:0DD5H         LINE#         120
  C:0DD5H         LINE#         121
  C:0DD7H         LINE#         123
  C:0DD7H         LINE#         124
  C:0DECH         LINE#         125
  C:0DEFH         LINE#         126
  C:0DFCH         LINE#         127
  C:0DFFH         LINE#         128
  C:0E14H         LINE#         129
  C:0E17H         LINE#         130
  C:0E17H         LINE#         132
  C:0E1AH         LINE#         133
  C:0E1AH         LINE#         134
  C:0E1CH         LINE#         135
  C:0E1FH         LINE#         136
  C:0E1FH         LINE#         137
  C:0E22H         LINE#         138
  C:0E22H         LINE#         139
  C:0E24H         LINE#         140
  C:0E26H         LINE#         141
  C:0E28H         LINE#         142
  C:0E2AH         LINE#         143
  C:0E2AH         LINE#         144
  C:0E3BH         LINE#         146
  C:0E41H         LINE#         147
  C:0E41H         LINE#         148
  C:0E43H         LINE#         149
  C:0E48H         LINE#         150
  C:0E48H         LINE#         151
  C:0E48H         LINE#         152
  C:0E48H         LINE#         153
  -------         ENDPROC       MODE1_PWM
  -------         PROC          MODE2_TIMER1COUNTER
  C:1B42H         LINE#         155
  C:1B42H         LINE#         156
  C:1B42H         LINE#         157
  C:1B4BH         LINE#         158
BL51 BANKED LINKER/LOCATER V6.22                                                      11/12/2019  18:30:58  PAGE 14


  C:1B52H         LINE#         159
  C:1B59H         LINE#         160
  C:1B5EH         LINE#         161
  C:1B63H         LINE#         162
  C:1B6AH         LINE#         164
  C:1B6AH         LINE#         165
  C:1B6AH         LINE#         166
  C:1B6DH         LINE#         167
  C:1B6DH         LINE#         168
  C:1B6FH         LINE#         169
  C:1B72H         LINE#         170
  C:1B72H         LINE#         172
  C:1B75H         LINE#         173
  C:1B75H         LINE#         174
  C:1B77H         LINE#         175
  C:1B79H         LINE#         176
  C:1B81H         LINE#         177
  C:1B86H         LINE#         178
  C:1B8CH         LINE#         179
  C:1B8CH         LINE#         180
  C:1B8CH         LINE#         181
  C:1B8CH         LINE#         182
  -------         ENDPROC       MODE2_TIMER1COUNTER
  -------         PROC          MODE3_UART1
  C:1A5CH         LINE#         184
  C:1A5CH         LINE#         185
  C:1A5CH         LINE#         186
  C:1A65H         LINE#         187
  C:1A84H         LINE#         188
  C:1A84H         LINE#         189
  C:1A84H         LINE#         190
  C:1A8DH         LINE#         191
  C:1A90H         LINE#         192
  C:1A90H         LINE#         193
  C:1A92H         LINE#         194
  C:1A95H         LINE#         195
  C:1A95H         LINE#         197
  C:1A98H         LINE#         198
  C:1A98H         LINE#         199
  C:1A9AH         LINE#         200
  C:1A9CH         LINE#         201
  C:1AA5H         LINE#         202
  C:1AA8H         LINE#         203
  C:1AA8H         LINE#         204
  C:1AA8H         LINE#         205
  C:1AA8H         LINE#         206
  -------         ENDPROC       MODE3_UART1
  -------         PROC          MODE4_ADC
  C:1F2BH         LINE#         208
  C:1F2BH         LINE#         209
  C:1F2BH         LINE#         211
  C:1F2EH         LINE#         212
  C:1F31H         LINE#         213
  C:1F31H         LINE#         214
  C:1F31H         LINE#         215
  C:1F34H         LINE#         216
  C:1F34H         LINE#         217
BL51 BANKED LINKER/LOCATER V6.22                                                      11/12/2019  18:30:58  PAGE 15


  C:1F36H         LINE#         218
  C:1F39H         LINE#         219
  C:1F39H         LINE#         221
  C:1F3CH         LINE#         222
  C:1F3CH         LINE#         223
  C:1F3EH         LINE#         224
  C:1F41H         LINE#         225
  C:1F44H         LINE#         226
  C:1F47H         LINE#         227
  C:1F47H         LINE#         229
  C:1F4AH         LINE#         230
  C:1F4AH         LINE#         231
  C:1F4CH         LINE#         232
  C:1F4EH         LINE#         233
  C:1F53H         LINE#         234
  C:1F56H         LINE#         235
  C:1F56H         LINE#         236
  C:1F56H         LINE#         237
  C:1F56H         LINE#         238
  -------         ENDPROC       MODE4_ADC
  -------         PROC          MODE5_SPI
  -------         DO            
  X:0000H         SYMBOL        i
  X:0001H         SYMBOL        Send_DATA
  X:000BH         SYMBOL        Rec_DATA
  -------         ENDDO         
  C:0A6BH         LINE#         240
  C:0A6BH         LINE#         241
  C:0A6BH         LINE#         245
  C:0A74H         LINE#         246
  C:0A7DH         LINE#         247
  C:0A9FH         LINE#         248
  C:0AA6H         LINE#         250
  C:0AB9H         LINE#         251
  C:0ABEH         LINE#         252
  C:0AC5H         LINE#         254
  C:0AD4H         LINE#         255
  C:0AD4H         LINE#         256
  C:0AE0H         LINE#         257
  C:0AEDH         LINE#         258
  C:0AF5H         LINE#         260
  C:0B00H         LINE#         261
  C:0B1AH         LINE#         262
  C:0B34H         LINE#         264
  C:0B34H         LINE#         265
  C:0B34H         LINE#         266
  C:0B3DH         LINE#         268
  C:0B4CH         LINE#         269
  C:0B4CH         LINE#         270
  C:0B66H         LINE#         271
  C:0B6EH         LINE#         272
  C:0B77H         LINE#         274
  C:0B7AH         LINE#         275
  C:0B7AH         LINE#         276
  C:0B7CH         LINE#         277
  C:0B7FH         LINE#         278
  C:0B7FH         LINE#         280
BL51 BANKED LINKER/LOCATER V6.22                                                      11/12/2019  18:30:58  PAGE 16


  C:0B82H         LINE#         281
  C:0B82H         LINE#         282
  C:0B84H         LINE#         283
  C:0B86H         LINE#         284
  C:0B8CH         LINE#         285
  C:0B8FH         LINE#         286
  C:0B8FH         LINE#         287
  C:0B8FH         LINE#         288
  C:0B8FH         LINE#         289
  -------         ENDPROC       MODE5_SPI
  -------         PROC          MODE6_TIMER2CAPTURE
  C:0B90H         LINE#         291
  C:0B90H         LINE#         292
  C:0B90H         LINE#         293
  C:0B95H         LINE#         294
  C:0B9CH         LINE#         296
  C:0BA3H         LINE#         297
  C:0BA9H         LINE#         298
  C:0BB2H         LINE#         299
  C:0BB9H         LINE#         301
  C:0BC0H         LINE#         302
  C:0BC5H         LINE#         303
  C:0BCAH         LINE#         304
  C:0BD1H         LINE#         306
  C:0BDAH         LINE#         307
  C:0BDDH         LINE#         308
  C:0BE2H         LINE#         309
  C:0BE4H         LINE#         310
  C:0BE6H         LINE#         311
  C:0BE8H         LINE#         312
  C:0BE8H         LINE#         313
  C:0BE8H         LINE#         314
  C:0BEBH         LINE#         315
  C:0BEBH         LINE#         316
  C:0BEDH         LINE#         317
  C:0BF0H         LINE#         318
  C:0BF0H         LINE#         320
  C:0BF3H         LINE#         321
  C:0BF3H         LINE#         322
  C:0BF5H         LINE#         323
  C:0BFCH         LINE#         324
  C:0BFCH         LINE#         325
  C:0C15H         LINE#         326
  C:0C2AH         LINE#         327
  C:0C47H         LINE#         328
  C:0C55H         LINE#         329
  C:0C5AH         LINE#         330
  C:0C5AH         LINE#         331
  C:0C5DH         LINE#         332
  C:0C5DH         LINE#         333
  C:0C60H         LINE#         334
  C:0C60H         LINE#         335
  C:0C62H         LINE#         336
  C:0C64H         LINE#         337
  C:0C6CH         LINE#         338
  C:0C73H         LINE#         339
  C:0C7CH         LINE#         340
BL51 BANKED LINKER/LOCATER V6.22                                                      11/12/2019  18:30:58  PAGE 17


  C:0C7FH         LINE#         341
  C:0C7FH         LINE#         342
  C:0C7FH         LINE#         343
  C:0C7FH         LINE#         344
  -------         ENDPROC       MODE6_TIMER2CAPTURE
  -------         PROC          MODE7_IAP
  -------         DO            
  X:0000H         SYMBOL        i
  X:0002H         SYMBOL        j
  X:0004H         SYMBOL        IAP_Value
  -------         ENDDO         
  C:06C3H         LINE#         346
  C:06C3H         LINE#         347
  C:06C3H         LINE#         348
  C:06CAH         LINE#         349
  C:06CCH         LINE#         351
  C:06D5H         LINE#         352
  C:06F4H         LINE#         354
  C:06FFH         LINE#         355
  C:071FH         LINE#         356
  C:071FH         LINE#         357
  C:0736H         LINE#         358
  C:0754H         LINE#         359
  C:0754H         LINE#         360
  C:0754H         LINE#         361
  C:075DH         LINE#         362
  C:077DH         LINE#         363
  C:077DH         LINE#         364
  C:078FH         LINE#         365
  C:0798H         LINE#         366
  C:07A3H         LINE#         367
  C:07AEH         LINE#         372
  C:07B7H         LINE#         373
  C:07C1H         LINE#         374
  C:07C9H         LINE#         375
  C:07CEH         LINE#         376
  C:07D7H         LINE#         378
  C:07DAH         LINE#         379
  C:07DAH         LINE#         380
  C:07DCH         LINE#         381
  C:07DFH         LINE#         382
  C:07DFH         LINE#         383
  C:07F0H         LINE#         384
  C:07F9H         LINE#         386
  C:07FFH         LINE#         387
  C:07FFH         LINE#         388
  C:0801H         LINE#         389
  C:0803H         LINE#         390
  C:0806H         LINE#         391
  C:0806H         LINE#         392
  C:0806H         LINE#         393
  C:0806H         LINE#         394
  -------         ENDPROC       MODE7_IAP
  -------         ENDMOD        FUNCTION

  -------         MODULE        MAIN
  C:0000H         SYMBOL        _ICE_DUMMY_
BL51 BANKED LINKER/LOCATER V6.22                                                      11/12/2019  18:30:58  PAGE 18


  D:0080H         PUBLIC        P0
  D:0090H         PUBLIC        P1
  D:00A0H         PUBLIC        P2
  D:00B0H         PUBLIC        P3
  D:00C0H         PUBLIC        P4
  D:00D8H         PUBLIC        P5
  B:00A8H.7       PUBLIC        EA
  X:007BH         PUBLIC        Mode
  D:00C8H         PUBLIC        TXCON
  D:00A8H         PUBLIC        IE
  D:00B8H         PUBLIC        IP
  C:156EH         PUBLIC        main
  D:0098H         PUBLIC        SCON
  D:0088H         PUBLIC        TCON
  D:00D0H         PUBLIC        PSW
  -------         PROC          MAIN
  C:156EH         LINE#         37
  C:156EH         LINE#         38
  C:156EH         LINE#         39
  C:1571H         LINE#         40
  C:1574H         LINE#         41
  C:1577H         LINE#         42
  C:1579H         LINE#         43
  C:1582H         LINE#         44
  C:1582H         LINE#         45
  C:1582H         LINE#         47
  C:1585H         LINE#         48
  C:1585H         LINE#         49
  C:1587H         LINE#         50
  C:158AH         LINE#         51
  C:158DH         LINE#         53
  C:158DH         LINE#         54
  C:1590H         LINE#         55
  C:1590H         LINE#         56
  C:1592H         LINE#         57
  C:1598H         LINE#         58
  C:159EH         LINE#         59
  C:159EH         LINE#         60
  C:15A0H         LINE#         61
  C:15A0H         LINE#         62
  C:15A8H         LINE#         63
  C:15ABH         LINE#         64
  C:15ABH         LINE#         65
  C:15AEH         LINE#         66
  C:15AEH         LINE#         67
  C:15B0H         LINE#         68
  C:15DDH         LINE#         69
  C:15DDH         LINE#         70
  C:15E2H         LINE#         71
  C:15E7H         LINE#         72
  C:15ECH         LINE#         73
  C:15F1H         LINE#         74
  C:15F6H         LINE#         75
  C:15FBH         LINE#         76
  -------         ENDPROC       MAIN
  -------         ENDMOD        MAIN

BL51 BANKED LINKER/LOCATER V6.22                                                      11/12/2019  18:30:58  PAGE 19


  -------         MODULE        LCD_DISPLAY
  C:0000H         SYMBOL        _ICE_DUMMY_
  C:1F8CH         PUBLIC        Lcd_clear
  D:0080H         PUBLIC        P0
  D:0090H         PUBLIC        P1
  X:005BH         PUBLIC        LcdCOMConut
  D:00A0H         PUBLIC        P2
  D:00B0H         PUBLIC        P3
  D:00C0H         PUBLIC        P4
  D:00D8H         PUBLIC        P5
  D:00C8H         PUBLIC        TXCON
  D:00A8H         PUBLIC        IE
  D:00B8H         PUBLIC        IP
  X:005CH         PUBLIC        SEGA
  X:005DH         PUBLIC        SEGB
  X:005EH         PUBLIC        SEGC
  X:005FH         PUBLIC        SEGD
  X:0060H         PUBLIC        SEGE
  X:0061H         PUBLIC        SEGF
  X:0062H         PUBLIC        SEGG
  X:0063H         PUBLIC        LcdDataTab
  C:22F6H         PUBLIC        LcdCodeTab
  C:0941H         PUBLIC        _LcdSegData
  D:0098H         PUBLIC        SCON
  D:0088H         PUBLIC        TCON
  C:1E98H         PUBLIC        Lcd_Display
  X:1000H         PUBLIC        LcdDisplay
  X:0067H         PUBLIC        SEGDP
  D:00D0H         PUBLIC        PSW
  -------         PROC          _LCDSEGDATA
  D:0006H         SYMBOL        LcdData
  D:0005H         SYMBOL        COMx
  C:0941H         LINE#         31
  C:0943H         LINE#         32
  C:0943H         LINE#         33
  C:094AH         LINE#         34
  C:0951H         LINE#         35
  C:095CH         LINE#         36
  C:0969H         LINE#         37
  C:0973H         LINE#         38
  C:097CH         LINE#         39
  C:0986H         LINE#         40
  C:0998H         LINE#         41
  C:099BH         LINE#         42
  C:099BH         LINE#         43
  C:09B5H         LINE#         44
  C:09CBH         LINE#         46
  C:09CBH         LINE#         47
  C:09D0H         LINE#         48
  C:09D0H         LINE#         49
  C:09EAH         LINE#         50
  C:0A00H         LINE#         51
  C:0A00H         LINE#         52
  C:0A05H         LINE#         53
  C:0A05H         LINE#         54
  C:0A1FH         LINE#         55
  C:0A35H         LINE#         56
BL51 BANKED LINKER/LOCATER V6.22                                                      11/12/2019  18:30:58  PAGE 20


  C:0A35H         LINE#         57
  C:0A3AH         LINE#         58
  C:0A3AH         LINE#         59
  C:0A54H         LINE#         60
  C:0A6AH         LINE#         61
  C:0A6AH         LINE#         63
  -------         ENDPROC       _LCDSEGDATA
  -------         PROC          LCD_DISPLAY
  C:1E98H         LINE#         72
  C:1E98H         LINE#         73
  C:1E98H         LINE#         74
  C:1E9BH         LINE#         75
  C:1EA9H         LINE#         76
  C:1EACH         LINE#         77
  C:1EB1H         LINE#         78
  C:1EB4H         LINE#         79
  C:1EB9H         LINE#         80
  C:1EBCH         LINE#         81
  -------         ENDPROC       LCD_DISPLAY
  -------         PROC          L?0008
  -------         ENDPROC       L?0008
  -------         PROC          LCD_CLEAR
  C:1F8CH         LINE#         84
  C:1F8CH         LINE#         85
  C:1F8CH         LINE#         86
  C:1FADH         LINE#         87
  -------         ENDPROC       LCD_CLEAR
  -------         ENDMOD        LCD_DISPLAY

  -------         MODULE        LED_DISPLAY
  C:0000H         SYMBOL        _ICE_DUMMY_
  D:0080H         PUBLIC        P0
  D:0090H         PUBLIC        P1
  D:00A0H         PUBLIC        P2
  D:00B0H         PUBLIC        P3
  D:00C0H         PUBLIC        P4
  D:00D8H         PUBLIC        P5
  D:00C8H         PUBLIC        TXCON
  D:00A8H         PUBLIC        IE
  D:00B8H         PUBLIC        IP
  X:0068H         PUBLIC        LedDataTab
  C:2309H         PUBLIC        LedCodeTab
  X:006CH         PUBLIC        LedTemp
  C:1177H         PUBLIC        _LedSegData
  D:0098H         PUBLIC        SCON
  D:0088H         PUBLIC        TCON
  C:17F0H         PUBLIC        Led_Display
  X:1000H         PUBLIC        LedDisplay
  D:00D0H         PUBLIC        PSW
  -------         PROC          _LEDSEGDATA
  D:0004H         SYMBOL        LedData
  D:0005H         SYMBOL        COMx
  C:1177H         LINE#         29
  C:1179H         LINE#         30
  C:1179H         LINE#         31
  C:1190H         LINE#         32
  C:11A7H         LINE#         33
BL51 BANKED LINKER/LOCATER V6.22                                                      11/12/2019  18:30:58  PAGE 21


  C:11BEH         LINE#         34
  C:11D6H         LINE#         35
  C:11ECH         LINE#         36
  C:1203H         LINE#         37
  C:121BH         LINE#         38
  C:1236H         LINE#         39
  -------         ENDPROC       _LEDSEGDATA
  -------         PROC          LED_DISPLAY
  -------         DO            
  D:0003H         SYMBOL        i
  -------         ENDDO         
  C:17F0H         LINE#         48
  C:17F0H         LINE#         49
  C:17F0H         LINE#         51
  C:17F0H         LINE#         52
  C:17F0H         LINE#         53
  C:17FAH         LINE#         54
  C:17FAH         LINE#         55
  C:17FCH         LINE#         56
  C:17FCH         LINE#         57
  C:1813H         LINE#         58
  C:1818H         LINE#         59
  C:1820H         LINE#         60
  C:1828H         LINE#         61
  C:1830H         LINE#         62
  C:1838H         LINE#         63
  C:1840H         LINE#         64
  C:1848H         LINE#         65
  C:1850H         LINE#         66
  C:1858H         LINE#         67
  -------         ENDPROC       LED_DISPLAY
  -------         ENDMOD        LED_DISPLAY

  -------         MODULE        UART0
  C:0000H         SYMBOL        _ICE_DUMMY_
  D:0080H         PUBLIC        P0
  D:0090H         PUBLIC        P1
  D:00A0H         PUBLIC        P2
  D:00B0H         PUBLIC        P3
  D:00C0H         PUBLIC        P4
  D:00D8H         PUBLIC        P5
  D:00C8H         PUBLIC        TXCON
  D:00A8H         PUBLIC        IE
  D:00B8H         PUBLIC        IP
  D:0098H         PUBLIC        SCON
  D:0088H         PUBLIC        TCON
  D:00D0H         PUBLIC        PSW
  C:231CH         PUBLIC        _putchar
  -------         PROC          _PUTCHAR
  X:003DH         SYMBOL        c
  C:231CH         LINE#         6
  C:2321H         LINE#         7
  C:2321H         LINE#         8
  C:2324H         LINE#         9
  C:2327H         LINE#         10
  C:2329H         LINE#         11
  C:232EH         LINE#         12
BL51 BANKED LINKER/LOCATER V6.22                                                      11/12/2019  18:30:58  PAGE 22


  -------         ENDPROC       _PUTCHAR
  -------         ENDMOD        UART0

  -------         MODULE        W25Q16
  C:0000H         SYMBOL        _ICE_DUMMY_
  D:0080H         PUBLIC        P0
  D:0090H         PUBLIC        P1
  D:00A0H         PUBLIC        P2
  D:00B0H         PUBLIC        P3
  D:00C0H         PUBLIC        P4
  D:00D8H         PUBLIC        P5
  C:18BEH         PUBLIC        _W25_SectorErase
  D:00C8H         PUBLIC        TXCON
  D:00A8H         PUBLIC        IE
  B:0090H.0       PUBLIC        CS
  D:00B8H         PUBLIC        IP
  C:1437H         PUBLIC        _SPI_Flash_Read
  C:0C80H         PUBLIC        _SPI_Flash_Write_NoCheck
  D:0098H         PUBLIC        SCON
  D:0088H         PUBLIC        TCON
  C:25D0H         PUBLIC        WriteEnable
  C:1600H         PUBLIC        _W25_Flash_Write_Page
  C:0056H         PUBLIC        W25Q16_ReadStatus
  C:260CH         PUBLIC        SPI_ReadByte
  C:221FH         PUBLIC        _W25Q16_WriteStatus
  C:21E4H         PUBLIC        _SPI_WriteByte
  D:00D0H         PUBLIC        PSW
  -------         PROC          L?0038
  -------         ENDPROC       L?0038
  -------         PROC          _SPI_WRITEBYTE
  D:0007H         SYMBOL        DATA
  C:21E4H         LINE#         24
  C:21E4H         LINE#         25
  C:21E4H         LINE#         26
  C:21E7H         LINE#         27
  C:21EAH         LINE#         28
  C:21ECH         LINE#         29
  -------         ENDPROC       _SPI_WRITEBYTE
  -------         PROC          SPI_READBYTE
  -------         DO            
  D:0007H         SYMBOL        DATA
  -------         ENDDO         
  C:260CH         LINE#         38
  C:260CH         LINE#         39
  C:260CH         LINE#         41
  C:2611H         LINE#         42
  C:2614H         LINE#         43
  C:2614H         LINE#         44
  -------         ENDPROC       SPI_READBYTE
  -------         PROC          WRITEENABLE
  C:25D0H         LINE#         53
  C:25D0H         LINE#         54
  C:25D0H         LINE#         55
  C:25D2H         LINE#         56
  C:25D7H         LINE#         57
  C:25D9H         LINE#         58
  -------         ENDPROC       WRITEENABLE
BL51 BANKED LINKER/LOCATER V6.22                                                      11/12/2019  18:30:58  PAGE 23


  -------         PROC          W25Q16_READSTATUS
  -------         DO            
  D:0007H         SYMBOL        status
  -------         ENDDO         
  C:0056H         LINE#         67
  C:0056H         LINE#         68
  C:0056H         LINE#         69
  C:0056H         LINE#         70
  C:0058H         LINE#         71
  C:005DH         LINE#         72
  C:0060H         LINE#         73
  C:0062H         LINE#         74
  C:0062H         LINE#         75
  -------         ENDPROC       W25Q16_READSTATUS
  -------         PROC          _W25Q16_WRITESTATUS
  X:007CH         SYMBOL        Status
  C:221FH         LINE#         84
  C:2224H         LINE#         85
  C:2224H         LINE#         86
  C:2226H         LINE#         87
  C:222BH         LINE#         88
  C:2233H         LINE#         89
  C:2235H         LINE#         90
  -------         ENDPROC       _W25Q16_WRITESTATUS
  -------         PROC          _W25_FLASH_WRITE_PAGE
  X:0020H         SYMBOL        pbuf
  X:0023H         SYMBOL        WriteAddr
  X:0027H         SYMBOL        Len
  -------         DO            
  X:0029H         SYMBOL        i
  -------         ENDDO         
  C:1600H         LINE#         101
  C:160FH         LINE#         102
  C:160FH         LINE#         104
  C:1612H         LINE#         105
  C:1619H         LINE#         106
  C:161CH         LINE#         107
  C:161EH         LINE#         108
  C:1623H         LINE#         109
  C:1628H         LINE#         110
  C:162DH         LINE#         111
  C:1638H         LINE#         112
  C:1654H         LINE#         113
  C:1654H         LINE#         114
  C:166BH         LINE#         115
  C:167BH         LINE#         116
  C:167DH         LINE#         117
  C:1684H         LINE#         118
  -------         ENDPROC       _W25_FLASH_WRITE_PAGE
  -------         PROC          _SPI_FLASH_WRITE_NOCHECK
  X:0015H         SYMBOL        pbuf
  X:0018H         SYMBOL        WriteAddr
  X:001CH         SYMBOL        Len
  -------         DO            
  X:001EH         SYMBOL        PageLen
  -------         ENDDO         
  C:0C80H         LINE#         129
BL51 BANKED LINKER/LOCATER V6.22                                                      11/12/2019  18:30:58  PAGE 24


  C:0C8FH         LINE#         130
  C:0C8FH         LINE#         132
  C:0CA7H         LINE#         133
  C:0CB5H         LINE#         134
  C:0CBBH         LINE#         135
  C:0CBBH         LINE#         136
  C:0CBBH         LINE#         137
  C:0CE6H         LINE#         138
  C:0CF8H         LINE#         139
  C:0CF9H         LINE#         141
  C:0CF9H         LINE#         142
  C:0D0AH         LINE#         143
  C:0D2DH         LINE#         144
  C:0D46H         LINE#         145
  C:0D4EH         LINE#         146
  C:0D4EH         LINE#         147
  C:0D55H         LINE#         148
  C:0D58H         LINE#         150
  C:0D58H         LINE#         151
  C:0D65H         LINE#         152
  C:0D65H         LINE#         153
  C:0D65H         LINE#         154
  -------         ENDPROC       _SPI_FLASH_WRITE_NOCHECK
  -------         PROC          _SPI_FLASH_READ
  X:0015H         SYMBOL        pbuf
  X:0018H         SYMBOL        ReadAddr
  X:001CH         SYMBOL        Len
  -------         DO            
  X:001EH         SYMBOL        i
  -------         ENDDO         
  C:1437H         LINE#         165
  C:1446H         LINE#         166
  C:1446H         LINE#         168
  C:144DH         LINE#         169
  C:1450H         LINE#         170
  C:1452H         LINE#         171
  C:1457H         LINE#         172
  C:146DH         LINE#         173
  C:1483H         LINE#         174
  C:148EH         LINE#         175
  C:14AAH         LINE#         176
  C:14AAH         LINE#         177
  C:14C1H         LINE#         178
  C:14D1H         LINE#         179
  C:14D3H         LINE#         180
  -------         ENDPROC       _SPI_FLASH_READ
  -------         PROC          _W25_SECTORERASE
  X:0015H         SYMBOL        Addr4KB
  C:18BEH         LINE#         189
  C:18C4H         LINE#         190
  C:18C4H         LINE#         191
  C:18CBH         LINE#         192
  C:18CEH         LINE#         193
  C:18D0H         LINE#         194
  C:18D5H         LINE#         195
  C:18EBH         LINE#         196
  C:1901H         LINE#         197
BL51 BANKED LINKER/LOCATER V6.22                                                      11/12/2019  18:30:58  PAGE 25


  C:190CH         LINE#         198
  C:190EH         LINE#         199
  C:1915H         LINE#         200
  -------         ENDPROC       _W25_SECTORERASE
  -------         ENDMOD        W25Q16

  -------         MODULE        ADC
  C:0000H         SYMBOL        _ICE_DUMMY_
  D:0080H         PUBLIC        P0
  D:0090H         PUBLIC        P1
  D:00A0H         PUBLIC        P2
  D:00B0H         PUBLIC        P3
  D:00C0H         PUBLIC        P4
  D:00D8H         PUBLIC        P5
  D:00C8H         PUBLIC        TXCON
  D:00A8H         PUBLIC        IE
  D:00B8H         PUBLIC        IP
  C:10AFH         PUBLIC        ADCValueToTemp
  X:004DH         PUBLIC        ADC_Value
  X:004FH         PUBLIC        ADC_High
  D:0098H         PUBLIC        SCON
  D:0088H         PUBLIC        TCON
  X:0050H         PUBLIC        TEMP
  C:0F18H         PUBLIC        GetTemperature
  X:0052H         PUBLIC        value_min
  X:0054H         PUBLIC        value_max
  X:0056H         PUBLIC        ADC_Low
  C:2236H         PUBLIC        ADCInit
  X:0057H         PUBLIC        ADC_ValueSum
  X:0059H         PUBLIC        i
  X:005AH         PUBLIC        j
  C:1237H         PUBLIC        GetADCValue
  D:00D0H         PUBLIC        PSW
  -------         PROC          ADCINIT
  C:2236H         LINE#         43
  C:2236H         LINE#         44
  C:2236H         LINE#         45
  C:223BH         LINE#         46
  C:2242H         LINE#         47
  C:2247H         LINE#         48
  -------         ENDPROC       ADCINIT
  -------         PROC          GETADCVALUE
  C:1237H         LINE#         58
  C:1237H         LINE#         59
  C:1237H         LINE#         60
  C:123EH         LINE#         61
  C:1240H         LINE#         62
  C:1240H         LINE#         63
  C:1243H         LINE#         64
  C:1249H         LINE#         65
  C:124CH         LINE#         66
  C:1257H         LINE#         68
  C:1273H         LINE#         69
  C:1291H         LINE#         70
  C:129DH         LINE#         71
  C:12A9H         LINE#         72
  C:12E0H         LINE#         73
BL51 BANKED LINKER/LOCATER V6.22                                                      11/12/2019  18:30:58  PAGE 26


  C:12EFH         LINE#         74
  -------         ENDPROC       GETADCVALUE
  -------         PROC          GETTEMPERATURE
  C:0F18H         LINE#         83
  C:0F18H         LINE#         84
  C:0F18H         LINE#         85
  C:0F27H         LINE#         86
  C:0F27H         LINE#         87
  C:0F66H         LINE#         88
  C:0F66H         LINE#         89
  C:0F6EH         LINE#         90
  C:0F70H         LINE#         91
  C:0F70H         LINE#         92
  C:0F78H         LINE#         93
  C:0F8DH         LINE#         94
  C:0F8DH         LINE#         95
  C:0F90H         LINE#         96
  C:0F9EH         LINE#         97
  C:0FA0H         LINE#         99
  C:0FA0H         LINE#         100
  C:0FA3H         LINE#         101
  C:0FB1H         LINE#         102
  C:0FB1H         LINE#         104
  C:0FC8H         LINE#         105
  C:0FDAH         LINE#         106
  C:0FE2H         LINE#         107
  C:0FE5H         LINE#         108
  -------         ENDPROC       GETTEMPERATURE
  -------         ENDMOD        ADC

  -------         MODULE        SC95F761X_IT
  C:0000H         SYMBOL        _ICE_DUMMY_
  D:0080H         PUBLIC        P0
  D:0090H         PUBLIC        P1
  X:0044H         PUBLIC        T0Flag100msCount
  D:00A0H         PUBLIC        P2
  D:00B0H         PUBLIC        P3
  D:00C0H         PUBLIC        P4
  D:00D8H         PUBLIC        P5
  C:1685H         PUBLIC        Timer0Interrupt
  C:170AH         PUBLIC        Timer1Interrupt
  C:0807H         PUBLIC        Timer2Interrupt
  C:006AH         PUBLIC        Timer3Interrupt
  C:0072H         PUBLIC        Timer4Interrupt
  D:00C8H         PUBLIC        TXCON
  D:00A8H         PUBLIC        IE
  B:0021H.1       PUBLIC        Uart0ReceiveFlag
  D:00B8H         PUBLIC        IP
  C:002AH         PUBLIC        ADCInterrupt
  D:0098H         PUBLIC        SCON
  C:0052H         PUBLIC        CMPInterrupt
  D:0088H         PUBLIC        TCON
  C:0042H         PUBLIC        BTMInterrupt
  C:0032H         PUBLIC        USCI0Interrupt
  C:1B8DH         PUBLIC        USCI1Interrupt
  C:0079H         PUBLIC        USCI2Interrupt
  C:001AH         PUBLIC        EXTI0Interrupt
BL51 BANKED LINKER/LOCATER V6.22                                                      11/12/2019  18:30:58  PAGE 27


  C:0022H         PUBLIC        EXTI1Interrupt
  C:004AH         PUBLIC        EXTI2Interrupt
  C:1916H         PUBLIC        UART0Interrupt
  B:0021H.2       PUBLIC        T0Flag10ms
  B:0021H.3       PUBLIC        SPIFLG
  D:00CBH         PUBLIC        RCAPXH
  C:003AH         PUBLIC        PWMInterrupt
  D:00CAH         PUBLIC        RCAPXL
  X:0046H         PUBLIC        T0Flag10msCount
  B:0021H.4       PUBLIC        Uart0SendFlag
  X:0048H         PUBLIC        CaptureState
  D:00A5H         PUBLIC        US1CON1
  X:0049H         PUBLIC        Cycle
  B:0021H.5       PUBLIC        T0Flag100ms
  D:00CDH         PUBLIC        THX
  D:00CCH         PUBLIC        TLX
  D:00D0H         PUBLIC        PSW
  -------         PROC          EXTI0INTERRUPT
  C:001AH         LINE#         37
  C:001AH         LINE#         40
  -------         ENDPROC       EXTI0INTERRUPT
  -------         PROC          TIMER0INTERRUPT
  C:1685H         LINE#         42
  C:16A2H         LINE#         44
  C:16A9H         LINE#         46
  C:16B7H         LINE#         47
  C:16C5H         LINE#         49
  C:16D4H         LINE#         50
  C:16D4H         LINE#         51
  C:16D8H         LINE#         52
  C:16DAH         LINE#         53
  C:16DAH         LINE#         54
  C:16E9H         LINE#         55
  C:16E9H         LINE#         56
  C:16EDH         LINE#         57
  C:16EFH         LINE#         58
  C:16EFH         LINE#         59
  -------         ENDPROC       TIMER0INTERRUPT
  -------         PROC          EXTI1INTERRUPT
  C:0022H         LINE#         61
  C:0022H         LINE#         63
  -------         ENDPROC       EXTI1INTERRUPT
  -------         PROC          TIMER1INTERRUPT
  C:170AH         LINE#         65
  C:1727H         LINE#         67
  C:172EH         LINE#         68
  C:172EH         LINE#         69
  C:173AH         LINE#         70
  C:173AH         LINE#         71
  C:173FH         LINE#         72
  C:1741H         LINE#         74
  C:1741H         LINE#         75
  C:1746H         LINE#         76
  C:1746H         LINE#         77
  C:1746H         LINE#         78
  C:174DH         LINE#         79
  C:174DH         LINE#         80
BL51 BANKED LINKER/LOCATER V6.22                                                      11/12/2019  18:30:58  PAGE 28


  C:175BH         LINE#         81
  C:175BH         LINE#         82
  C:175EH         LINE#         83
  C:1760H         LINE#         85
  C:1760H         LINE#         86
  C:1763H         LINE#         87
  C:1763H         LINE#         88
  C:1763H         LINE#         89
  -------         ENDPROC       TIMER1INTERRUPT
  -------         PROC          UART0INTERRUPT
  C:1916H         LINE#         91
  C:1933H         LINE#         93
  C:193BH         LINE#         94
  C:193BH         LINE#         95
  C:1940H         LINE#         96
  C:1942H         LINE#         97
  C:1944H         LINE#         98
  C:194CH         LINE#         99
  C:194CH         LINE#         100
  C:1951H         LINE#         101
  C:1953H         LINE#         102
  C:1953H         LINE#         103
  -------         ENDPROC       UART0INTERRUPT
  -------         PROC          TIMER2INTERRUPT
  -------         DO            
  X:003EH         SYMBOL        CaptureValue1
  X:0040H         SYMBOL        CaptureValue2
  X:0042H         SYMBOL        ReloadCount
  -------         ENDDO         
  C:0807H         LINE#         105
  C:0824H         LINE#         109
  C:082EH         LINE#         110
  C:082EH         LINE#         111
  C:0838H         LINE#         112
  C:0838H         LINE#         113
  C:083FH         LINE#         114
  C:084DH         LINE#         115
  C:084DH         LINE#         116
  C:085AH         LINE#         117
  C:085AH         LINE#         118
  C:0866H         LINE#         119
  C:0866H         LINE#         120
  C:0878H         LINE#         121
  C:08D7H         LINE#         122
  C:08DAH         LINE#         123
  C:08DDH         LINE#         124
  C:08E3H         LINE#         125
  C:08E3H         LINE#         126
  C:08E5H         LINE#         128
  C:08E5H         LINE#         129
  C:08F7H         LINE#         130
  C:08FDH         LINE#         131
  C:0904H         LINE#         132
  C:0904H         LINE#         133
  C:0904H         LINE#         134
  C:0904H         LINE#         135
  C:090EH         LINE#         136
BL51 BANKED LINKER/LOCATER V6.22                                                      11/12/2019  18:30:58  PAGE 29


  C:090EH         LINE#         137
  C:0915H         LINE#         138
  C:0915H         LINE#         139
  C:091FH         LINE#         140
  C:091FH         LINE#         141
  C:0926H         LINE#         142
  C:0926H         LINE#         143
  -------         ENDPROC       TIMER2INTERRUPT
  -------         PROC          ADCINTERRUPT
  C:002AH         LINE#         145
  C:002AH         LINE#         147
  -------         ENDPROC       ADCINTERRUPT
  -------         PROC          USCI0INTERRUPT
  C:0032H         LINE#         149
  C:0032H         LINE#         152
  -------         ENDPROC       USCI0INTERRUPT
  -------         PROC          PWMINTERRUPT
  C:003AH         LINE#         154
  C:003AH         LINE#         157
  -------         ENDPROC       PWMINTERRUPT
  -------         PROC          BTMINTERRUPT
  C:0042H         LINE#         159
  C:0042H         LINE#         162
  -------         ENDPROC       BTMINTERRUPT
  -------         PROC          EXTI2INTERRUPT
  C:004AH         LINE#         164
  C:004AH         LINE#         167
  -------         ENDPROC       EXTI2INTERRUPT
  -------         PROC          CMPINTERRUPT
  C:0052H         LINE#         169
  C:0052H         LINE#         172
  -------         ENDPROC       CMPINTERRUPT
  -------         PROC          TIMER3INTERRUPT
  C:006AH         LINE#         174
  C:006AH         LINE#         177
  -------         ENDPROC       TIMER3INTERRUPT
  -------         PROC          TIMER4INTERRUPT
  C:0072H         LINE#         179
  C:0072H         LINE#         182
  -------         ENDPROC       TIMER4INTERRUPT
  -------         PROC          USCI1INTERRUPT
  C:1B8DH         LINE#         184
  C:1BAAH         LINE#         186
  C:1BB2H         LINE#         187
  C:1BB2H         LINE#         188
  C:1BB5H         LINE#         189
  C:1BB7H         LINE#         190
  C:1BB7H         LINE#         191
  -------         ENDPROC       USCI1INTERRUPT
  -------         PROC          USCI2INTERRUPT
  C:0079H         LINE#         193
  C:0079H         LINE#         196
  -------         ENDPROC       USCI2INTERRUPT
  -------         ENDMOD        SC95F761X_IT

  -------         MODULE        KEY
  C:0000H         SYMBOL        _ICE_DUMMY_
BL51 BANKED LINKER/LOCATER V6.22                                                      11/12/2019  18:30:58  PAGE 30


  D:0080H         PUBLIC        P0
  B:0021H.6       PUBLIC        S1Flag
  D:0090H         PUBLIC        P1
  B:0021H.7       PUBLIC        S2Flag
  D:00A0H         PUBLIC        P2
  D:00B0H         PUBLIC        P3
  B:0080H.3       PUBLIC        S1
  D:00C0H         PUBLIC        P4
  B:0080H.5       PUBLIC        S2
  D:00D8H         PUBLIC        P5
  D:00C8H         PUBLIC        TXCON
  D:00A8H         PUBLIC        IE
  D:00B8H         PUBLIC        IP
  B:0022H.0       PUBLIC        S1Temp
  B:0022H.1       PUBLIC        S2Temp
  C:196EH         PUBLIC        KeyScan
  D:0098H         PUBLIC        SCON
  D:0088H         PUBLIC        TCON
  D:00D0H         PUBLIC        PSW
  -------         PROC          KEYSCAN
  -------         DO            
  X:007DH         SYMBOL        KEY_State
  -------         ENDDO         
  C:196EH         LINE#         6
  C:196EH         LINE#         7
  C:196EH         LINE#         9
  C:197CH         LINE#         10
  C:197CH         LINE#         11
  C:197CH         LINE#         12
  C:1982H         LINE#         13
  C:1982H         LINE#         14
  C:1988H         LINE#         15
  C:1988H         LINE#         16
  C:1989H         LINE#         18
  C:1989H         LINE#         19
  C:198FH         LINE#         20
  C:198FH         LINE#         21
  C:1995H         LINE#         22
  C:1998H         LINE#         23
  C:1998H         LINE#         24
  C:199AH         LINE#         25
  C:199BH         LINE#         27
  C:199BH         LINE#         28
  C:199DH         LINE#         29
  C:199DH         LINE#         30
  C:199EH         LINE#         32
  C:199EH         LINE#         33
  C:19A3H         LINE#         34
  C:19A3H         LINE#         35
  C:19A4H         LINE#         37
  C:19A4H         LINE#         38
  C:19AAH         LINE#         39
  C:19AAH         LINE#         40
  C:19AFH         LINE#         41
  C:19B2H         LINE#         42
  C:19B2H         LINE#         43
  C:19B4H         LINE#         44
BL51 BANKED LINKER/LOCATER V6.22                                                      11/12/2019  18:30:58  PAGE 31


  C:19B6H         LINE#         45
  C:19B6H         LINE#         46
  C:19B9H         LINE#         47
  C:19B9H         LINE#         48
  C:19BBH         LINE#         49
  C:19BDH         LINE#         50
  C:19BDH         LINE#         51
  C:19BDH         LINE#         52
  C:19BDH         LINE#         53
  C:19BDH         LINE#         55
  -------         ENDPROC       KEYSCAN
  -------         ENDMOD        KEY

  -------         MODULE        SC95F761X_ADC
  C:0000H         SYMBOL        _ICE_DUMMY_
  D:00FFH         PUBLIC        OPREG
  D:0080H         PUBLIC        P0
  D:0090H         PUBLIC        P1
  D:00A0H         PUBLIC        P2
  D:00B0H         PUBLIC        P3
  D:00C0H         PUBLIC        P4
  D:00D8H         PUBLIC        P5
  B:00A8H.6       PUBLIC        EADC
  D:00C8H         PUBLIC        TXCON
  D:00A8H         PUBLIC        IE
  C:001EH         PUBLIC        ADC_ClearFlag
  D:00FEH         PUBLIC        OPINX
  C:217FH         PUBLIC        _ADC_VrefConfig
  D:00B8H         PUBLIC        IP
  C:239FH         PUBLIC        _ADC_ITConfig
  D:00ADH         PUBLIC        ADCCON
  D:0098H         PUBLIC        SCON
  D:0088H         PUBLIC        TCON
  C:2541H         PUBLIC        _ADC_Cmd
  C:0076H         PUBLIC        _ADC_Init
  C:1E65H         PUBLIC        _ADC_ChannelConfig
  D:00ABH         PUBLIC        ADCCFG0
  D:00ACH         PUBLIC        ADCCFG1
  D:00B5H         PUBLIC        ADCCFG2
  C:264FH         PUBLIC        ADC_GetFlagStatus
  B:00B8H.6       PUBLIC        IPADC
  D:00AFH         PUBLIC        ADCVH
  C:0016H         PUBLIC        ADC_StartConversion
  C:238DH         PUBLIC        ADC_DeInit
  D:00AEH         PUBLIC        ADCVL
  C:224CH         PUBLIC        ADC_GetConversionValue
  D:00D0H         PUBLIC        PSW
  -------         PROC          ADC_DEINIT
  C:238DH         LINE#         20
  C:238DH         LINE#         21
  C:238DH         LINE#         22
  C:2390H         LINE#         23
  C:2392H         LINE#         24
  C:2394H         LINE#         25
  C:2396H         LINE#         26
  C:2398H         LINE#         27
  C:239AH         LINE#         28
BL51 BANKED LINKER/LOCATER V6.22                                                      11/12/2019  18:30:58  PAGE 32


  C:239CH         LINE#         29
  C:239EH         LINE#         30
  -------         ENDPROC       ADC_DEINIT
  -------         PROC          _ADC_INIT
  D:0007H         SYMBOL        ADC_Cycle
  C:0076H         LINE#         39
  C:0076H         LINE#         40
  C:0076H         LINE#         41
  C:0078H         LINE#         42
  -------         ENDPROC       _ADC_INIT
  -------         PROC          _ADC_CHANNELCONFIG
  D:0004H         SYMBOL        ADC_Channel
  D:0005H         SYMBOL        NewState
  -------         DO            
  D:0006H         SYMBOL        tmpreg
  -------         ENDDO         
  C:1E65H         LINE#         51
  C:1E67H         LINE#         52
  C:1E67H         LINE#         55
  C:1E6EH         LINE#         56
  C:1E7FH         LINE#         58
  C:1E85H         LINE#         59
  C:1E85H         LINE#         60
  C:1E88H         LINE#         61
  C:1E88H         LINE#         62
  C:1E8CH         LINE#         63
  C:1E90H         LINE#         64
  C:1E91H         LINE#         66
  C:1E91H         LINE#         67
  C:1E94H         LINE#         68
  C:1E97H         LINE#         69
  C:1E97H         LINE#         70
  C:1E97H         LINE#         71
  -------         ENDPROC       _ADC_CHANNELCONFIG
  -------         PROC          _ADC_CMD
  D:0007H         SYMBOL        NewState
  C:2541H         LINE#         79
  C:2541H         LINE#         80
  C:2541H         LINE#         81
  C:2544H         LINE#         82
  C:2544H         LINE#         83
  C:2547H         LINE#         84
  C:2548H         LINE#         86
  C:2548H         LINE#         87
  C:254BH         LINE#         88
  C:254BH         LINE#         89
  -------         ENDPROC       _ADC_CMD
  -------         PROC          ADC_STARTCONVERSION
  C:0016H         LINE#         97
  C:0016H         LINE#         98
  C:0016H         LINE#         99
  C:0019H         LINE#         100
  -------         ENDPROC       ADC_STARTCONVERSION
  -------         PROC          ADC_GETCONVERSIONVALUE
  -------         DO            
  D:0006H         SYMBOL        temp
  -------         ENDDO         
BL51 BANKED LINKER/LOCATER V6.22                                                      11/12/2019  18:30:58  PAGE 33


  C:224CH         LINE#         108
  C:224CH         LINE#         109
  C:224CH         LINE#         111
  C:2261H         LINE#         112
  C:2261H         LINE#         113
  -------         ENDPROC       ADC_GETCONVERSIONVALUE
  -------         PROC          _ADC_ITCONFIG
  D:0007H         SYMBOL        NewState
  D:0005H         SYMBOL        Priority
  C:239FH         LINE#         122
  C:239FH         LINE#         123
  C:239FH         LINE#         124
  C:23A2H         LINE#         125
  C:23A2H         LINE#         126
  C:23A4H         LINE#         127
  C:23A6H         LINE#         129
  C:23A6H         LINE#         130
  C:23A8H         LINE#         131
  C:23A8H         LINE#         133
  C:23ABH         LINE#         134
  C:23ABH         LINE#         135
  C:23ADH         LINE#         136
  C:23AEH         LINE#         138
  C:23AEH         LINE#         139
  C:23B0H         LINE#         140
  C:23B0H         LINE#         141
  -------         ENDPROC       _ADC_ITCONFIG
  -------         PROC          ADC_GETFLAGSTATUS
  C:264FH         LINE#         149
  C:264FH         LINE#         150
  C:264FH         LINE#         151
  C:2654H         LINE#         152
  -------         ENDPROC       ADC_GETFLAGSTATUS
  -------         PROC          ADC_CLEARFLAG
  C:001EH         LINE#         160
  C:001EH         LINE#         161
  C:001EH         LINE#         162
  C:0021H         LINE#         163
  -------         ENDPROC       ADC_CLEARFLAG
  -------         PROC          _ADC_VREFCONFIG
  D:0007H         SYMBOL        ADC_Vref
  C:217FH         LINE#         171
  C:217FH         LINE#         172
  C:217FH         LINE#         173
  C:2182H         LINE#         174
  C:2186H         LINE#         175
  C:2186H         LINE#         176
  C:2189H         LINE#         177
  C:218CH         LINE#         178
  C:218CH         LINE#         179
  C:2190H         LINE#         180
  C:2190H         LINE#         181
  C:2193H         LINE#         182
  C:2196H         LINE#         183
  C:2196H         LINE#         184
  C:2199H         LINE#         185
  C:2199H         LINE#         186
BL51 BANKED LINKER/LOCATER V6.22                                                      11/12/2019  18:30:58  PAGE 34


  C:219CH         LINE#         187
  C:219CH         LINE#         188
  -------         ENDPROC       _ADC_VREFCONFIG
  -------         ENDMOD        SC95F761X_ADC

  -------         MODULE        SC95F761X_BTM
  C:0000H         SYMBOL        _ICE_DUMMY_
  D:0080H         PUBLIC        P0
  D:0090H         PUBLIC        P1
  D:00A0H         PUBLIC        P2
  D:00B0H         PUBLIC        P3
  D:00C0H         PUBLIC        P4
  C:0026H         PUBLIC        BTM_DeInit
  D:00D8H         PUBLIC        P5
  D:00C8H         PUBLIC        TXCON
  D:00A8H         PUBLIC        IE
  D:00B8H         PUBLIC        IP
  C:002EH         PUBLIC        BTM_ClearFlag
  D:0098H         PUBLIC        SCON
  D:0088H         PUBLIC        TCON
  C:2262H         PUBLIC        _BTM_ITConfig
  D:00A9H         PUBLIC        IE1
  D:00FBH         PUBLIC        BTMCON
  D:00B9H         PUBLIC        IP1
  C:254CH         PUBLIC        _BTM_Cmd
  C:2630H         PUBLIC        _BTM_Init
  C:2655H         PUBLIC        BTM_GetFlagStatus
  D:00D0H         PUBLIC        PSW
  -------         PROC          BTM_DEINIT
  C:0026H         LINE#         20
  C:0026H         LINE#         21
  C:0026H         LINE#         22
  C:0029H         LINE#         23
  -------         ENDPROC       BTM_DEINIT
  -------         PROC          _BTM_INIT
  D:0007H         SYMBOL        BTM_Timebase
  C:2630H         LINE#         31
  C:2630H         LINE#         32
  C:2630H         LINE#         33
  C:2637H         LINE#         34
  -------         ENDPROC       _BTM_INIT
  -------         PROC          _BTM_CMD
  D:0007H         SYMBOL        NewState
  C:254CH         LINE#         42
  C:254CH         LINE#         43
  C:254CH         LINE#         44
  C:254FH         LINE#         45
  C:254FH         LINE#         46
  C:2552H         LINE#         47
  C:2553H         LINE#         49
  C:2553H         LINE#         50
  C:2556H         LINE#         51
  C:2556H         LINE#         52
  -------         ENDPROC       _BTM_CMD
  -------         PROC          _BTM_ITCONFIG
  D:0007H         SYMBOL        NewState
  D:0005H         SYMBOL        Priority
BL51 BANKED LINKER/LOCATER V6.22                                                      11/12/2019  18:30:58  PAGE 35


  C:2262H         LINE#         61
  C:2262H         LINE#         62
  C:2262H         LINE#         64
  C:2265H         LINE#         65
  C:2265H         LINE#         66
  C:2268H         LINE#         67
  C:226AH         LINE#         69
  C:226AH         LINE#         70
  C:226DH         LINE#         71
  C:226DH         LINE#         74
  C:2270H         LINE#         75
  C:2270H         LINE#         76
  C:2273H         LINE#         77
  C:2274H         LINE#         79
  C:2274H         LINE#         80
  C:2277H         LINE#         81
  C:2277H         LINE#         82
  -------         ENDPROC       _BTM_ITCONFIG
  -------         PROC          BTM_GETFLAGSTATUS
  C:2655H         LINE#         90
  C:2655H         LINE#         91
  C:2655H         LINE#         92
  C:265AH         LINE#         93
  -------         ENDPROC       BTM_GETFLAGSTATUS
  -------         PROC          BTM_CLEARFLAG
  C:002EH         LINE#         101
  C:002EH         LINE#         102
  C:002EH         LINE#         103
  C:0031H         LINE#         104
  -------         ENDPROC       BTM_CLEARFLAG
  -------         ENDMOD        SC95F761X_BTM

  -------         MODULE        SC95F761X_DDIC
  C:0000H         SYMBOL        _ICE_DUMMY_
  D:0080H         PUBLIC        P0
  D:0090H         PUBLIC        P1
  D:00A0H         PUBLIC        P2
  D:00B0H         PUBLIC        P3
  D:00C0H         PUBLIC        P4
  D:008FH         PUBLIC        OTCON
  D:00D8H         PUBLIC        P5
  C:2557H         PUBLIC        _DDIC_Cmd
  C:21EDH         PUBLIC        _DDIC_Init
  D:00C8H         PUBLIC        TXCON
  D:00A8H         PUBLIC        IE
  D:00B8H         PUBLIC        IP
  C:2511H         PUBLIC        _DDIC_OutputPinOfDutycycleD4
  C:2471H         PUBLIC        _DDIC_LCDConfig
  C:0036H         PUBLIC        DDIC_LEDConfig
  D:009CH         PUBLIC        P0VO
  D:0094H         PUBLIC        P1VO
  D:00A3H         PUBLIC        P2VO
  D:00B3H         PUBLIC        P3VO
  D:0098H         PUBLIC        SCON
  D:0088H         PUBLIC        TCON
  C:2481H         PUBLIC        DDIC_DeInit
  D:0093H         PUBLIC        DDRCON
BL51 BANKED LINKER/LOCATER V6.22                                                      11/12/2019  18:30:58  PAGE 36


  D:00D0H         PUBLIC        PSW
  -------         PROC          DDIC_DEINIT
  C:2481H         LINE#         20
  C:2481H         LINE#         21
  C:2481H         LINE#         22
  C:2484H         LINE#         23
  C:2486H         LINE#         24
  C:2488H         LINE#         25
  C:248AH         LINE#         26
  C:248CH         LINE#         27
  C:248FH         LINE#         28
  -------         ENDPROC       DDIC_DEINIT
  -------         PROC          _DDIC_INIT
  D:0007H         SYMBOL        DDIC_DutyCylce
  D:0005H         SYMBOL        P0OutputPin
  D:0003H         SYMBOL        P1OutputPin
  X:0003H         SYMBOL        P2OutputPin
  X:0004H         SYMBOL        P3OutputPin
  C:21EDH         LINE#         40
  C:21EDH         LINE#         41
  C:21EDH         LINE#         42
  C:21F4H         LINE#         43
  C:21F8H         LINE#         44
  C:21FCH         LINE#         45
  C:2202H         LINE#         46
  C:2206H         LINE#         47
  -------         ENDPROC       _DDIC_INIT
  -------         PROC          DDIC_LEDCONFIG
  C:0036H         LINE#         55
  C:0036H         LINE#         56
  C:0036H         LINE#         57
  C:0039H         LINE#         58
  -------         ENDPROC       DDIC_LEDCONFIG
  -------         PROC          _DDIC_LCDCONFIG
  D:0007H         SYMBOL        LCDVoltage
  D:0005H         SYMBOL        DDIC_ResSel
  D:0003H         SYMBOL        DDIC_BiasVoltage
  C:2471H         LINE#         68
  C:2471H         LINE#         69
  C:2471H         LINE#         70
  C:2478H         LINE#         71
  C:2480H         LINE#         72
  -------         ENDPROC       _DDIC_LCDCONFIG
  -------         PROC          _DDIC_OUTPUTPINOFDUTYCYCLED4
  D:0007H         SYMBOL        DDIC_OutputPin
  C:2511H         LINE#         80
  C:2511H         LINE#         81
  C:2511H         LINE#         82
  C:2515H         LINE#         83
  C:2515H         LINE#         84
  C:2518H         LINE#         85
  C:2519H         LINE#         87
  C:2519H         LINE#         88
  C:251CH         LINE#         89
  C:251CH         LINE#         90
  -------         ENDPROC       _DDIC_OUTPUTPINOFDUTYCYCLED4
  -------         PROC          _DDIC_CMD
BL51 BANKED LINKER/LOCATER V6.22                                                      11/12/2019  18:30:58  PAGE 37


  D:0007H         SYMBOL        NewState
  C:2557H         LINE#         98
  C:2557H         LINE#         99
  C:2557H         LINE#         100
  C:255AH         LINE#         101
  C:255AH         LINE#         102
  C:255DH         LINE#         103
  C:255EH         LINE#         105
  C:255EH         LINE#         106
  C:2561H         LINE#         107
  C:2561H         LINE#         108
  -------         ENDPROC       _DDIC_CMD
  -------         ENDMOD        SC95F761X_DDIC

  -------         MODULE        SC95F761X_EXTI
  C:0000H         SYMBOL        _ICE_DUMMY_
  D:0080H         PUBLIC        P0
  D:0090H         PUBLIC        P1
  D:00A0H         PUBLIC        P2
  D:00B0H         PUBLIC        P3
  D:00C0H         PUBLIC        P4
  D:00D8H         PUBLIC        P5
  D:00C8H         PUBLIC        TXCON
  D:00A8H         PUBLIC        IE
  C:1AA9H         PUBLIC        _EXTI_ITConfig
  D:00B8H         PUBLIC        IP
  D:0098H         PUBLIC        SCON
  C:1C16H         PUBLIC        _EXTI_SetExtInt0xTriggerMode
  D:0088H         PUBLIC        TCON
  C:1C58H         PUBLIC        _EXTI_SetExtInt1xTriggerMode
  C:1C9AH         PUBLIC        _EXTI_SetExtInt2xTriggerMode
  D:00A9H         PUBLIC        IE1
  D:00B9H         PUBLIC        IP1
  C:1DFCH         PUBLIC        _EXTI_DeInit
  D:00B4H         PUBLIC        INT0F
  D:00BCH         PUBLIC        INT1F
  D:00BEH         PUBLIC        INT2F
  D:00BBH         PUBLIC        INT0R
  D:00BDH         PUBLIC        INT1R
  D:00BFH         PUBLIC        INT2R
  D:00D0H         PUBLIC        PSW
  -------         PROC          _EXTI_DEINIT
  D:0007H         SYMBOL        INTx
  C:1DFCH         LINE#         20
  C:1DFCH         LINE#         21
  C:1DFCH         LINE#         22
  C:1E07H         LINE#         23
  C:1E07H         LINE#         24
  C:1E07H         LINE#         25
  C:1E0AH         LINE#         26
  C:1E0CH         LINE#         27
  C:1E0FH         LINE#         28
  C:1E12H         LINE#         29
  C:1E15H         LINE#         30
  C:1E16H         LINE#         32
  C:1E16H         LINE#         33
  C:1E19H         LINE#         34
BL51 BANKED LINKER/LOCATER V6.22                                                      11/12/2019  18:30:58  PAGE 38


  C:1E1BH         LINE#         35
  C:1E1EH         LINE#         36
  C:1E21H         LINE#         37
  C:1E24H         LINE#         38
  C:1E25H         LINE#         40
  C:1E25H         LINE#         41
  C:1E28H         LINE#         42
  C:1E2AH         LINE#         43
  C:1E2DH         LINE#         44
  C:1E30H         LINE#         45
  C:1E30H         LINE#         47
  C:1E30H         LINE#         48
  C:1E30H         LINE#         49
  C:1E30H         LINE#         50
  -------         ENDPROC       _EXTI_DEINIT
  -------         PROC          _EXTI_SETEXTINT0XTRIGGERMODE
  D:0007H         SYMBOL        INT0x
  D:0005H         SYMBOL        TriggerMode
  C:1C16H         LINE#         59
  C:1C16H         LINE#         60
  C:1C16H         LINE#         61
  C:1C22H         LINE#         62
  C:1C22H         LINE#         63
  C:1C22H         LINE#         64
  C:1C30H         LINE#         65
  C:1C34H         LINE#         66
  C:1C35H         LINE#         67
  C:1C35H         LINE#         68
  C:1C44H         LINE#         69
  C:1C44H         LINE#         70
  C:1C46H         LINE#         71
  C:1C46H         LINE#         72
  C:1C54H         LINE#         73
  C:1C57H         LINE#         74
  C:1C57H         LINE#         75
  C:1C57H         LINE#         76
  C:1C57H         LINE#         77
  C:1C57H         LINE#         78
  -------         ENDPROC       _EXTI_SETEXTINT0XTRIGGERMODE
  -------         PROC          _EXTI_SETEXTINT1XTRIGGERMODE
  D:0007H         SYMBOL        INT1x
  D:0005H         SYMBOL        TriggerMode
  C:1C58H         LINE#         87
  C:1C58H         LINE#         88
  C:1C58H         LINE#         89
  C:1C64H         LINE#         90
  C:1C64H         LINE#         91
  C:1C64H         LINE#         92
  C:1C72H         LINE#         93
  C:1C76H         LINE#         94
  C:1C77H         LINE#         95
  C:1C77H         LINE#         96
  C:1C86H         LINE#         97
  C:1C86H         LINE#         98
  C:1C88H         LINE#         99
  C:1C88H         LINE#         100
  C:1C96H         LINE#         101
BL51 BANKED LINKER/LOCATER V6.22                                                      11/12/2019  18:30:58  PAGE 39


  C:1C99H         LINE#         102
  C:1C99H         LINE#         103
  C:1C99H         LINE#         104
  C:1C99H         LINE#         105
  C:1C99H         LINE#         106
  -------         ENDPROC       _EXTI_SETEXTINT1XTRIGGERMODE
  -------         PROC          _EXTI_SETEXTINT2XTRIGGERMODE
  D:0007H         SYMBOL        INT2x
  D:0005H         SYMBOL        TriggerMode
  C:1C9AH         LINE#         115
  C:1C9AH         LINE#         116
  C:1C9AH         LINE#         117
  C:1CA6H         LINE#         118
  C:1CA6H         LINE#         119
  C:1CA6H         LINE#         120
  C:1CB4H         LINE#         121
  C:1CB8H         LINE#         122
  C:1CB9H         LINE#         123
  C:1CB9H         LINE#         124
  C:1CC8H         LINE#         125
  C:1CC8H         LINE#         126
  C:1CCAH         LINE#         127
  C:1CCAH         LINE#         128
  C:1CD8H         LINE#         129
  C:1CDBH         LINE#         130
  C:1CDBH         LINE#         131
  C:1CDBH         LINE#         132
  C:1CDBH         LINE#         133
  C:1CDBH         LINE#         134
  -------         ENDPROC       _EXTI_SETEXTINT2XTRIGGERMODE
  -------         PROC          _EXTI_ITCONFIG
  D:0007H         SYMBOL        INTx
  D:0005H         SYMBOL        NewState
  D:0003H         SYMBOL        Priority
  C:1AA9H         LINE#         144
  C:1AA9H         LINE#         145
  C:1AA9H         LINE#         146
  C:1AB4H         LINE#         147
  C:1AB4H         LINE#         148
  C:1AB4H         LINE#         149
  C:1AB7H         LINE#         150
  C:1AB7H         LINE#         151
  C:1ABAH         LINE#         152
  C:1ABCH         LINE#         154
  C:1ABCH         LINE#         155
  C:1ABFH         LINE#         156
  C:1ABFH         LINE#         158
  C:1AC2H         LINE#         159
  C:1AC2H         LINE#         160
  C:1AC5H         LINE#         161
  C:1AC6H         LINE#         163
  C:1AC6H         LINE#         164
  C:1AC9H         LINE#         165
  C:1AC9H         LINE#         166
  C:1ACAH         LINE#         168
  C:1ACAH         LINE#         169
  C:1ACDH         LINE#         170
BL51 BANKED LINKER/LOCATER V6.22                                                      11/12/2019  18:30:58  PAGE 40


  C:1ACDH         LINE#         171
  C:1AD0H         LINE#         172
  C:1AD2H         LINE#         174
  C:1AD2H         LINE#         175
  C:1AD5H         LINE#         176
  C:1AD5H         LINE#         178
  C:1AD8H         LINE#         179
  C:1AD8H         LINE#         180
  C:1ADBH         LINE#         181
  C:1ADCH         LINE#         183
  C:1ADCH         LINE#         184
  C:1ADFH         LINE#         185
  C:1ADFH         LINE#         186
  C:1AE0H         LINE#         188
  C:1AE0H         LINE#         189
  C:1AE3H         LINE#         190
  C:1AE3H         LINE#         191
  C:1AE6H         LINE#         192
  C:1AE8H         LINE#         194
  C:1AE8H         LINE#         195
  C:1AEBH         LINE#         196
  C:1AEBH         LINE#         198
  C:1AEEH         LINE#         199
  C:1AEEH         LINE#         200
  C:1AF1H         LINE#         201
  C:1AF2H         LINE#         203
  C:1AF2H         LINE#         204
  C:1AF5H         LINE#         205
  C:1AF5H         LINE#         206
  C:1AF5H         LINE#         208
  C:1AF5H         LINE#         209
  C:1AF5H         LINE#         210
  C:1AF5H         LINE#         211
  -------         ENDPROC       _EXTI_ITCONFIG
  -------         ENDMOD        SC95F761X_EXTI

  -------         MODULE        SC95F761X_GPIO
  C:0000H         SYMBOL        _ICE_DUMMY_
  D:0080H         PUBLIC        P0
  D:0090H         PUBLIC        P1
  D:00A0H         PUBLIC        P2
  D:00B0H         PUBLIC        P3
  D:00C0H         PUBLIC        P4
  D:00D8H         PUBLIC        P5
  D:00C8H         PUBLIC        TXCON
  D:00A8H         PUBLIC        IE
  D:009BH         PUBLIC        P0PH
  D:00B8H         PUBLIC        IP
  D:0092H         PUBLIC        P1PH
  D:00A2H         PUBLIC        P2PH
  D:00B2H         PUBLIC        P3PH
  D:00C2H         PUBLIC        P4PH
  D:00DAH         PUBLIC        P5PH
  C:204DH         PUBLIC        _GPIO_Write
  C:1FAEH         PUBLIC        _GPIO_WriteHigh
  C:0E49H         PUBLIC        _GPIO_Init
  D:0098H         PUBLIC        SCON
BL51 BANKED LINKER/LOCATER V6.22                                                      11/12/2019  18:30:58  PAGE 41


  D:0088H         PUBLIC        TCON
  C:2099H         PUBLIC        _GPIO_ReadPort
  C:1ECAH         PUBLIC        _GPIO_ReadPin
  C:2027H         PUBLIC        GPIO_DeInit
  C:1EFBH         PUBLIC        _GPIO_WriteLow
  D:009AH         PUBLIC        P0CON
  D:0091H         PUBLIC        P1CON
  D:00A1H         PUBLIC        P2CON
  D:00B1H         PUBLIC        P3CON
  D:00C1H         PUBLIC        P4CON
  D:00D9H         PUBLIC        P5CON
  D:00D0H         PUBLIC        PSW
  -------         PROC          GPIO_DEINIT
  C:2027H         LINE#         21
  C:2027H         LINE#         22
  C:2027H         LINE#         23
  C:202AH         LINE#         24
  C:202CH         LINE#         25
  C:202EH         LINE#         26
  C:2030H         LINE#         27
  C:2032H         LINE#         28
  C:2034H         LINE#         29
  C:2036H         LINE#         30
  C:2038H         LINE#         31
  C:203AH         LINE#         32
  C:203CH         LINE#         33
  C:203EH         LINE#         34
  C:2040H         LINE#         35
  C:204CH         LINE#         36
  -------         ENDPROC       GPIO_DEINIT
  -------         PROC          _GPIO_INIT
  D:0007H         SYMBOL        GPIOx
  D:0005H         SYMBOL        PortPins
  D:0003H         SYMBOL        GPIO_Mode
  C:0E49H         LINE#         46
  C:0E49H         LINE#         47
  C:0E49H         LINE#         48
  C:0E4CH         LINE#         49
  C:0E4CH         LINE#         50
  C:0E4FH         LINE#         51
  C:0E4FH         LINE#         52
  C:0E53H         LINE#         53
  C:0E55H         LINE#         54
  C:0E55H         LINE#         55
  C:0E59H         LINE#         56
  C:0E59H         LINE#         57
  C:0E5DH         LINE#         58
  C:0E60H         LINE#         59
  C:0E60H         LINE#         60
  C:0E68H         LINE#         61
  C:0E68H         LINE#         62
  C:0E6BH         LINE#         63
  C:0E6BH         LINE#         64
  C:0E6CH         LINE#         65
  C:0E71H         LINE#         66
  C:0E71H         LINE#         67
  C:0E74H         LINE#         68
BL51 BANKED LINKER/LOCATER V6.22                                                      11/12/2019  18:30:58  PAGE 42


  C:0E74H         LINE#         69
  C:0E78H         LINE#         70
  C:0E7AH         LINE#         71
  C:0E7AH         LINE#         72
  C:0E7EH         LINE#         73
  C:0E7EH         LINE#         74
  C:0E82H         LINE#         75
  C:0E85H         LINE#         76
  C:0E85H         LINE#         77
  C:0E8DH         LINE#         78
  C:0E8DH         LINE#         79
  C:0E90H         LINE#         80
  C:0E90H         LINE#         81
  C:0E91H         LINE#         82
  C:0E96H         LINE#         83
  C:0E96H         LINE#         84
  C:0E99H         LINE#         85
  C:0E99H         LINE#         86
  C:0E9DH         LINE#         87
  C:0E9FH         LINE#         88
  C:0E9FH         LINE#         89
  C:0EA3H         LINE#         90
  C:0EA3H         LINE#         91
  C:0EA7H         LINE#         92
  C:0EAAH         LINE#         93
  C:0EAAH         LINE#         94
  C:0EAFH         LINE#         95
  C:0EAFH         LINE#         96
  C:0EB2H         LINE#         97
  C:0EB2H         LINE#         98
  C:0EB3H         LINE#         99
  C:0EB8H         LINE#         100
  C:0EB8H         LINE#         101
  C:0EBBH         LINE#         102
  C:0EBBH         LINE#         103
  C:0EBFH         LINE#         104
  C:0EC1H         LINE#         105
  C:0EC1H         LINE#         106
  C:0EC5H         LINE#         107
  C:0EC5H         LINE#         108
  C:0EC9H         LINE#         109
  C:0ECCH         LINE#         110
  C:0ECCH         LINE#         111
  C:0ED1H         LINE#         112
  C:0ED1H         LINE#         113
  C:0ED4H         LINE#         114
  C:0ED4H         LINE#         115
  C:0ED5H         LINE#         116
  C:0EDAH         LINE#         117
  C:0EDAH         LINE#         118
  C:0EDDH         LINE#         119
  C:0EDDH         LINE#         120
  C:0EE1H         LINE#         121
  C:0EE3H         LINE#         122
  C:0EE3H         LINE#         123
  C:0EE7H         LINE#         124
  C:0EE7H         LINE#         125
BL51 BANKED LINKER/LOCATER V6.22                                                      11/12/2019  18:30:58  PAGE 43


  C:0EEBH         LINE#         126
  C:0EEEH         LINE#         127
  C:0EEEH         LINE#         128
  C:0EF3H         LINE#         129
  C:0EF3H         LINE#         130
  C:0EF6H         LINE#         131
  C:0EF6H         LINE#         132
  C:0EF7H         LINE#         134
  C:0EF7H         LINE#         135
  C:0EFCH         LINE#         136
  C:0EFCH         LINE#         137
  C:0EFFH         LINE#         138
  C:0EFFH         LINE#         139
  C:0F03H         LINE#         140
  C:0F05H         LINE#         141
  C:0F05H         LINE#         142
  C:0F09H         LINE#         143
  C:0F09H         LINE#         144
  C:0F0DH         LINE#         145
  C:0F10H         LINE#         146
  C:0F10H         LINE#         147
  C:0F14H         LINE#         148
  C:0F14H         LINE#         149
  C:0F17H         LINE#         150
  C:0F17H         LINE#         151
  C:0F17H         LINE#         152
  C:0F17H         LINE#         153
  -------         ENDPROC       _GPIO_INIT
  -------         PROC          _GPIO_WRITE
  D:0007H         SYMBOL        GPIOx
  D:0005H         SYMBOL        PortVal
  C:204DH         LINE#         162
  C:204DH         LINE#         163
  C:204DH         LINE#         164
  C:2050H         LINE#         165
  C:2050H         LINE#         166
  C:2052H         LINE#         167
  C:2052H         LINE#         168
  C:2056H         LINE#         169
  C:2056H         LINE#         170
  C:2058H         LINE#         171
  C:2058H         LINE#         172
  C:205CH         LINE#         173
  C:205CH         LINE#         174
  C:205EH         LINE#         175
  C:205EH         LINE#         176
  C:2062H         LINE#         177
  C:2062H         LINE#         178
  C:2064H         LINE#         179
  C:2064H         LINE#         180
  C:2068H         LINE#         181
  C:2068H         LINE#         182
  C:206AH         LINE#         183
  C:206AH         LINE#         184
  C:206EH         LINE#         185
  C:206EH         LINE#         186
  C:2072H         LINE#         187
BL51 BANKED LINKER/LOCATER V6.22                                                      11/12/2019  18:30:58  PAGE 44


  C:2072H         LINE#         188
  -------         ENDPROC       _GPIO_WRITE
  -------         PROC          _GPIO_WRITEHIGH
  D:0007H         SYMBOL        GPIOx
  D:0005H         SYMBOL        PortPins
  C:1FAEH         LINE#         197
  C:1FAEH         LINE#         198
  C:1FAEH         LINE#         199
  C:1FB1H         LINE#         200
  C:1FB1H         LINE#         201
  C:1FB4H         LINE#         202
  C:1FB4H         LINE#         203
  C:1FB8H         LINE#         204
  C:1FB8H         LINE#         205
  C:1FBBH         LINE#         206
  C:1FBBH         LINE#         207
  C:1FBFH         LINE#         208
  C:1FBFH         LINE#         209
  C:1FC2H         LINE#         210
  C:1FC2H         LINE#         211
  C:1FC6H         LINE#         212
  C:1FC6H         LINE#         213
  C:1FC9H         LINE#         214
  C:1FC9H         LINE#         215
  C:1FCDH         LINE#         216
  C:1FCDH         LINE#         217
  C:1FD0H         LINE#         218
  C:1FD0H         LINE#         219
  C:1FD4H         LINE#         220
  C:1FD4H         LINE#         221
  C:1FD7H         LINE#         222
  C:1FD7H         LINE#         223
  -------         ENDPROC       _GPIO_WRITEHIGH
  -------         PROC          _GPIO_WRITELOW
  D:0007H         SYMBOL        GPIOx
  D:0005H         SYMBOL        PortPins
  C:1EFBH         LINE#         232
  C:1EFBH         LINE#         233
  C:1EFBH         LINE#         234
  C:1EFEH         LINE#         235
  C:1EFEH         LINE#         236
  C:1F02H         LINE#         237
  C:1F02H         LINE#         238
  C:1F06H         LINE#         239
  C:1F06H         LINE#         240
  C:1F0AH         LINE#         241
  C:1F0AH         LINE#         242
  C:1F0EH         LINE#         243
  C:1F0EH         LINE#         244
  C:1F12H         LINE#         245
  C:1F12H         LINE#         246
  C:1F16H         LINE#         247
  C:1F16H         LINE#         248
  C:1F1AH         LINE#         249
  C:1F1AH         LINE#         250
  C:1F1EH         LINE#         251
  C:1F1EH         LINE#         252
BL51 BANKED LINKER/LOCATER V6.22                                                      11/12/2019  18:30:58  PAGE 45


  C:1F22H         LINE#         253
  C:1F22H         LINE#         254
  C:1F26H         LINE#         255
  C:1F26H         LINE#         256
  C:1F2AH         LINE#         257
  C:1F2AH         LINE#         258
  -------         ENDPROC       _GPIO_WRITELOW
  -------         PROC          _GPIO_READPORT
  D:0007H         SYMBOL        GPIOx
  C:2099H         LINE#         266
  C:2099H         LINE#         267
  C:2099H         LINE#         268
  C:209CH         LINE#         269
  C:209CH         LINE#         270
  C:209FH         LINE#         271
  C:209FH         LINE#         272
  C:20A3H         LINE#         273
  C:20A3H         LINE#         274
  C:20A6H         LINE#         275
  C:20A6H         LINE#         276
  C:20AAH         LINE#         277
  C:20AAH         LINE#         278
  C:20ADH         LINE#         279
  C:20ADH         LINE#         280
  C:20B1H         LINE#         281
  C:20B1H         LINE#         282
  C:20B4H         LINE#         283
  C:20B4H         LINE#         284
  C:20B8H         LINE#         285
  C:20B8H         LINE#         286
  C:20BBH         LINE#         287
  C:20BBH         LINE#         289
  C:20BBH         LINE#         290
  C:20BDH         LINE#         291
  C:20BDH         LINE#         292
  -------         ENDPROC       _GPIO_READPORT
  -------         PROC          _GPIO_READPIN
  D:0007H         SYMBOL        GPIOx
  D:0005H         SYMBOL        PortPins
  C:1ECAH         LINE#         301
  C:1ECAH         LINE#         302
  C:1ECAH         LINE#         303
  C:1ECDH         LINE#         304
  C:1ECDH         LINE#         305
  C:1ED2H         LINE#         306
  C:1ED2H         LINE#         307
  C:1ED6H         LINE#         308
  C:1ED6H         LINE#         309
  C:1EDBH         LINE#         310
  C:1EDBH         LINE#         311
  C:1EDFH         LINE#         312
  C:1EDFH         LINE#         313
  C:1EE4H         LINE#         314
  C:1EE4H         LINE#         315
  C:1EE8H         LINE#         316
  C:1EE8H         LINE#         317
  C:1EEDH         LINE#         318
BL51 BANKED LINKER/LOCATER V6.22                                                      11/12/2019  18:30:58  PAGE 46


  C:1EEDH         LINE#         319
  C:1EF1H         LINE#         320
  C:1EF1H         LINE#         321
  C:1EF6H         LINE#         322
  C:1EF6H         LINE#         324
  C:1EF6H         LINE#         325
  C:1EFAH         LINE#         326
  C:1EFAH         LINE#         327
  -------         ENDPROC       _GPIO_READPIN
  -------         ENDMOD        SC95F761X_GPIO

  -------         MODULE        SC95F761X_IAP
  C:0000H         SYMBOL        _ICE_DUMMY_
  D:00FFH         PUBLIC        OPREG
  D:0080H         PUBLIC        P0
  D:0090H         PUBLIC        P1
  D:00A0H         PUBLIC        P2
  D:00B0H         PUBLIC        P3
  D:00C0H         PUBLIC        P4
  D:00D8H         PUBLIC        P5
  B:00A8H.7       PUBLIC        EA
  X:0079H         PUBLIC        POINT
  D:00C8H         PUBLIC        TXCON
  D:00A8H         PUBLIC        IE
  D:00FEH         PUBLIC        OPINX
  D:00B8H         PUBLIC        IP
  C:2102H         PUBLIC        _IAP_SectorErase
  D:00F4H         PUBLIC        IAPADE
  D:00F3H         PUBLIC        IAPADH
  D:00F2H         PUBLIC        IAPADL
  C:2562H         PUBLIC        _IAP_SetOperateRange
  C:1CDCH         PUBLIC        _IAP_ProgramByte
  D:0098H         PUBLIC        SCON
  D:00F5H         PUBLIC        IAPDAT
  D:0088H         PUBLIC        TCON
  D:00F6H         PUBLIC        IAPCTL
  D:00F1H         PUBLIC        IAPKEY
  C:1DC6H         PUBLIC        _IAP_ReadByte
  D:00D0H         PUBLIC        PSW
  C:24BDH         PUBLIC        IAP_DeInit
  -------         PROC          IAP_DEINIT
  C:24BDH         LINE#         22
  C:24BDH         LINE#         23
  C:24BDH         LINE#         24
  C:24C0H         LINE#         25
  C:24C2H         LINE#         26
  C:24C4H         LINE#         27
  C:24C6H         LINE#         28
  C:24C8H         LINE#         29
  C:24CAH         LINE#         30
  -------         ENDPROC       IAP_DEINIT
  -------         PROC          _IAP_PROGRAMBYTE
  X:0005H         SYMBOL        Address
  D:0005H         SYMBOL        Data
  D:0003H         SYMBOL        IAP_MemType
  X:0009H         SYMBOL        WriteTimeLimit
  -------         DO            
BL51 BANKED LINKER/LOCATER V6.22                                                      11/12/2019  18:30:58  PAGE 47


  D:0004H         SYMBOL        tmpbit
  -------         ENDDO         
  C:1CDCH         LINE#         41
  C:1CE4H         LINE#         42
  C:1CE4H         LINE#         44
  C:1CE9H         LINE#         45
  C:1CEBH         LINE#         46
  C:1CEBH         LINE#         47
  C:1CEDH         LINE#         48
  C:1CEDH         LINE#         50
  C:1CF1H         LINE#         51
  C:1CF5H         LINE#         52
  C:1D00H         LINE#         53
  C:1D02H         LINE#         54
  C:1D08H         LINE#         55
  C:1D0BH         LINE#         56
  C:1D0EH         LINE#         57
  C:1D0FH         LINE#         58
  C:1D10H         LINE#         59
  C:1D11H         LINE#         60
  C:1D12H         LINE#         61
  C:1D13H         LINE#         62
  C:1D14H         LINE#         63
  C:1D15H         LINE#         64
  C:1D16H         LINE#         67
  C:1D1BH         LINE#         68
  C:1D1BH         LINE#         69
  C:1D1DH         LINE#         70
  C:1D1DH         LINE#         71
  -------         ENDPROC       _IAP_PROGRAMBYTE
  -------         PROC          _IAP_READBYTE
  X:0005H         SYMBOL        Address
  D:0005H         SYMBOL        IAP_MemType
  -------         DO            
  D:0006H         SYMBOL        tmpbyte
  D:0007H         SYMBOL        tmpbit
  -------         ENDDO         
  C:1DC6H         LINE#         80
  C:1DCEH         LINE#         81
  C:1DCEH         LINE#         84
  C:1DD3H         LINE#         85
  C:1DD5H         LINE#         86
  C:1DD5H         LINE#         87
  C:1DD7H         LINE#         88
  C:1DD7H         LINE#         90
  C:1DDBH         LINE#         91
  C:1DF4H         LINE#         94
  C:1DF7H         LINE#         95
  C:1DF7H         LINE#         96
  C:1DF9H         LINE#         97
  C:1DF9H         LINE#         98
  C:1DFBH         LINE#         99
  -------         ENDPROC       _IAP_READBYTE
  -------         PROC          _IAP_SECTORERASE
  D:0007H         SYMBOL        IAP_MemType
  D:0004H         SYMBOL        IAP_SectorEraseAddress
  D:0003H         SYMBOL        WriteTimeLimit
BL51 BANKED LINKER/LOCATER V6.22                                                      11/12/2019  18:30:58  PAGE 48


  C:2102H         LINE#         109
  C:2102H         LINE#         110
  C:2102H         LINE#         111
  C:2104H         LINE#         112
  C:2106H         LINE#         113
  C:2109H         LINE#         114
  C:210DH         LINE#         115
  C:2111H         LINE#         116
  C:2114H         LINE#         117
  C:2117H         LINE#         118
  C:2118H         LINE#         119
  C:2119H         LINE#         120
  C:211AH         LINE#         121
  C:211BH         LINE#         122
  C:211CH         LINE#         123
  C:211DH         LINE#         124
  C:211EH         LINE#         125
  C:211FH         LINE#         127
  C:2121H         LINE#         128
  -------         ENDPROC       _IAP_SECTORERASE
  -------         PROC          _IAP_SETOPERATERANGE
  D:0007H         SYMBOL        IAP_OperateRange
  C:2562H         LINE#         136
  C:2562H         LINE#         137
  C:2562H         LINE#         138
  C:2565H         LINE#         139
  C:256CH         LINE#         140
  -------         ENDPROC       _IAP_SETOPERATERANGE
  -------         ENDMOD        SC95F761X_IAP

  -------         MODULE        SC95F761X_PWM
  C:0000H         SYMBOL        _ICE_DUMMY_
  D:0080H         PUBLIC        P0
  D:0090H         PUBLIC        P1
  D:00A0H         PUBLIC        P2
  D:00B0H         PUBLIC        P3
  D:00C0H         PUBLIC        P4
  D:00D8H         PUBLIC        P5
  C:1D8FH         PUBLIC        _PWM_PolarityConfig
  D:00C8H         PUBLIC        TXCON
  D:00A8H         PUBLIC        IE
  C:1D57H         PUBLIC        PWM_DeInit
  D:00B8H         PUBLIC        IP
  C:19BEH         PUBLIC        _PWM_ComplementaryModeConfig
  C:2661H         PUBLIC        PWM_GetFaultDetectionFlagStatus
  C:2073H         PUBLIC        _PWM_IndependentModeConfig
  C:25DAH         PUBLIC        _PWM_DeadTimeConfig
  D:0098H         PUBLIC        SCON
  D:0088H         PUBLIC        TCON
  C:240BH         PUBLIC        _PWM_ModeConfig
  C:003EH         PUBLIC        PWM_ClearFlag
  D:00A9H         PUBLIC        IE1
  D:00D4H         PUBLIC        PWMCFG
  C:1E31H         PUBLIC        _PWM_OutputStateConfig
  D:00B9H         PUBLIC        IP1
  C:2278H         PUBLIC        _PWM_ITConfig
  D:00D5H         PUBLIC        PWMDFR
BL51 BANKED LINKER/LOCATER V6.22                                                      11/12/2019  18:30:58  PAGE 49


  X:1040H         PUBLIC        PWMREG
  C:2578H         PUBLIC        _PWM_FaultDetectionConfig
  D:00D7H         PUBLIC        PWMMOD
  D:00D3H         PUBLIC        PWMCON
  D:00D6H         PUBLIC        PWMFLT
  C:25E4H         PUBLIC        _PWM_FaultDetectionModeConfig
  C:0046H         PUBLIC        PWM_ClearFaultDetectionFlag
  C:256DH         PUBLIC        _PWM_Cmd
  C:22BAH         PUBLIC        _PWM_Init
  D:00D0H         PUBLIC        PSW
  C:265BH         PUBLIC        PWM_GetFlagStatus
  -------         PROC          PWM_DEINIT
  -------         DO            
  X:007EH         SYMBOL        i
  -------         ENDDO         
  C:1D57H         LINE#         22
  C:1D57H         LINE#         23
  C:1D57H         LINE#         25
  C:1D5AH         LINE#         26
  C:1D5CH         LINE#         27
  C:1D5EH         LINE#         28
  C:1D60H         LINE#         29
  C:1D62H         LINE#         30
  C:1D65H         LINE#         31
  C:1D68H         LINE#         32
  C:1D76H         LINE#         33
  C:1D76H         LINE#         34
  C:1D86H         LINE#         35
  C:1D8EH         LINE#         36
  -------         ENDPROC       PWM_DEINIT
  -------         PROC          _PWM_INIT
  D:0007H         SYMBOL        PWM_PresSel
  D:0004H         SYMBOL        PWM_Period
  C:22BAH         LINE#         46
  C:22BAH         LINE#         47
  C:22BAH         LINE#         49
  C:22C1H         LINE#         50
  C:22CAH         LINE#         51
  C:22CDH         LINE#         52
  -------         ENDPROC       _PWM_INIT
  -------         PROC          _PWM_OUTPUTSTATECONFIG
  D:0007H         SYMBOL        PWM_OutputPin
  D:0005H         SYMBOL        PWM_OutputState
  C:1E31H         LINE#         62
  C:1E31H         LINE#         63
  C:1E31H         LINE#         64
  C:1E34H         LINE#         65
  C:1E34H         LINE#         66
  C:1E44H         LINE#         67
  C:1E45H         LINE#         69
  C:1E45H         LINE#         70
  C:1E64H         LINE#         71
  C:1E64H         LINE#         72
  -------         ENDPROC       _PWM_OUTPUTSTATECONFIG
  -------         PROC          _PWM_POLARITYCONFIG
  D:0007H         SYMBOL        PWM_OutputPin
  D:0005H         SYMBOL        PWM_Polarity
BL51 BANKED LINKER/LOCATER V6.22                                                      11/12/2019  18:30:58  PAGE 50


  C:1D8FH         LINE#         81
  C:1D8FH         LINE#         82
  C:1D8FH         LINE#         83
  C:1D92H         LINE#         84
  C:1D92H         LINE#         85
  C:1DA2H         LINE#         86
  C:1DA2H         LINE#         87
  C:1DA6H         LINE#         88
  C:1DA6H         LINE#         89
  C:1DC5H         LINE#         90
  C:1DC5H         LINE#         92
  -------         ENDPROC       _PWM_POLARITYCONFIG
  -------         PROC          _PWM_MODECONFIG
  D:0007H         SYMBOL        PWM_WorkMode
  C:240BH         LINE#         101
  C:240BH         LINE#         102
  C:240BH         LINE#         103
  C:2414H         LINE#         104
  C:2414H         LINE#         105
  C:2414H         LINE#         106
  C:2417H         LINE#         107
  C:2418H         LINE#         108
  C:2418H         LINE#         109
  C:241BH         LINE#         110
  C:241BH         LINE#         111
  C:241BH         LINE#         112
  C:241BH         LINE#         113
  C:241BH         LINE#         114
  -------         ENDPROC       _PWM_MODECONFIG
  -------         PROC          _PWM_INDEPENDENTMODECONFIG
  D:0007H         SYMBOL        PWM_OutputPin
  D:0004H         SYMBOL        PWM_DutyCycle
  C:2073H         LINE#         123
  C:2073H         LINE#         124
  C:2073H         LINE#         125
  C:2076H         LINE#         126
  C:2098H         LINE#         127
  -------         ENDPROC       _PWM_INDEPENDENTMODECONFIG
  -------         PROC          _PWM_COMPLEMENTARYMODECONFIG
  D:0007H         SYMBOL        PWM_ComplementaryOutputPin
  D:0004H         SYMBOL        PWM_DutyCycle
  C:19BEH         LINE#         136
  C:19BEH         LINE#         137
  C:19BEH         LINE#         138
  C:19C1H         LINE#         139
  C:19D2H         LINE#         140
  C:19D2H         LINE#         141
  C:19D2H         LINE#         142
  C:19DEH         LINE#         143
  C:19E0H         LINE#         144
  C:19E0H         LINE#         145
  C:19ECH         LINE#         146
  C:19EEH         LINE#         147
  C:19EEH         LINE#         148
  C:19FAH         LINE#         149
  C:19FCH         LINE#         150
  C:19FCH         LINE#         151
BL51 BANKED LINKER/LOCATER V6.22                                                      11/12/2019  18:30:58  PAGE 51


  C:1A0DH         LINE#         152
  C:1A0DH         LINE#         153
  C:1A0DH         LINE#         154
  C:1A0DH         LINE#         155
  C:1A0DH         LINE#         156
  -------         ENDPROC       _PWM_COMPLEMENTARYMODECONFIG
  -------         PROC          _PWM_DEADTIMECONFIG
  D:0007H         SYMBOL        PWM_RisingDeadTime
  D:0005H         SYMBOL        PWM_FallingDeadTime
  C:25DAH         LINE#         165
  C:25DAH         LINE#         166
  C:25DAH         LINE#         167
  C:25E3H         LINE#         168
  -------         ENDPROC       _PWM_DEADTIMECONFIG
  -------         PROC          _PWM_CMD
  D:0007H         SYMBOL        NewState
  C:256DH         LINE#         178
  C:256DH         LINE#         179
  C:256DH         LINE#         180
  C:2570H         LINE#         181
  C:2570H         LINE#         182
  C:2573H         LINE#         183
  C:2574H         LINE#         185
  C:2574H         LINE#         186
  C:2577H         LINE#         187
  C:2577H         LINE#         188
  -------         ENDPROC       _PWM_CMD
  -------         PROC          _PWM_ITCONFIG
  D:0007H         SYMBOL        NewState
  D:0005H         SYMBOL        Priority
  C:2278H         LINE#         198
  C:2278H         LINE#         199
  C:2278H         LINE#         200
  C:227BH         LINE#         201
  C:227BH         LINE#         202
  C:227EH         LINE#         203
  C:2280H         LINE#         205
  C:2280H         LINE#         206
  C:2283H         LINE#         207
  C:2283H         LINE#         209
  C:2286H         LINE#         210
  C:2286H         LINE#         211
  C:2289H         LINE#         212
  C:228AH         LINE#         214
  C:228AH         LINE#         215
  C:228DH         LINE#         216
  C:228DH         LINE#         217
  -------         ENDPROC       _PWM_ITCONFIG
  -------         PROC          PWM_GETFLAGSTATUS
  C:265BH         LINE#         225
  C:265BH         LINE#         226
  C:265BH         LINE#         227
  C:2660H         LINE#         228
  -------         ENDPROC       PWM_GETFLAGSTATUS
  -------         PROC          PWM_CLEARFLAG
  C:003EH         LINE#         236
  C:003EH         LINE#         237
BL51 BANKED LINKER/LOCATER V6.22                                                      11/12/2019  18:30:58  PAGE 52


  C:003EH         LINE#         238
  C:0041H         LINE#         239
  -------         ENDPROC       PWM_CLEARFLAG
  -------         PROC          PWM_GETFAULTDETECTIONFLAGSTATUS
  C:2661H         LINE#         247
  C:2661H         LINE#         248
  C:2661H         LINE#         249
  C:2666H         LINE#         250
  -------         ENDPROC       PWM_GETFAULTDETECTIONFLAGSTATUS
  -------         PROC          PWM_CLEARFAULTDETECTIONFLAG
  C:0046H         LINE#         258
  C:0046H         LINE#         259
  C:0046H         LINE#         260
  C:0049H         LINE#         261
  -------         ENDPROC       PWM_CLEARFAULTDETECTIONFLAG
  -------         PROC          _PWM_FAULTDETECTIONCONFIG
  D:0007H         SYMBOL        NewState
  C:2578H         LINE#         269
  C:2578H         LINE#         270
  C:2578H         LINE#         271
  C:257BH         LINE#         272
  C:257BH         LINE#         273
  C:257EH         LINE#         274
  C:257FH         LINE#         276
  C:257FH         LINE#         277
  C:2582H         LINE#         278
  C:2582H         LINE#         279
  -------         ENDPROC       _PWM_FAULTDETECTIONCONFIG
  -------         PROC          _PWM_FAULTDETECTIONMODECONFIG
  D:0007H         SYMBOL        FaultDetectionMode
  D:0005H         SYMBOL        FaultDetectionVoltageSelect
  D:0003H         SYMBOL        FaultDetectionWaveFilteringTime
  C:25E4H         LINE#         289
  C:25E4H         LINE#         290
  C:25E4H         LINE#         291
  C:25EDH         LINE#         293
  -------         ENDPROC       _PWM_FAULTDETECTIONMODECONFIG
  -------         ENDMOD        SC95F761X_PWM

  -------         MODULE        SC95F761X_TIMER0
  C:0000H         SYMBOL        _ICE_DUMMY_
  D:0080H         PUBLIC        P0
  D:0090H         PUBLIC        P1
  D:00A0H         PUBLIC        P2
  D:008EH         PUBLIC        TMCON
  D:00B0H         PUBLIC        P3
  D:00C0H         PUBLIC        P4
  D:00D8H         PUBLIC        P5
  D:00C8H         PUBLIC        TXCON
  D:00A8H         PUBLIC        IE
  C:2615H         PUBLIC        _TIM0_Cmd
  D:00B8H         PUBLIC        IP
  B:00B8H.1       PUBLIC        IPT0
  C:2141H         PUBLIC        _TIM0_TimeBaseInit
  C:2667H         PUBLIC        TIM0_GetFlagStatus
  C:2490H         PUBLIC        _TIM0_Mode0SetReloadCounter
  C:2638H         PUBLIC        _TIM0_Mode1SetReloadCounter
BL51 BANKED LINKER/LOCATER V6.22                                                      11/12/2019  18:30:58  PAGE 53


  C:23B1H         PUBLIC        _TIM0_WorkMode0Config
  D:0098H         PUBLIC        SCON
  C:24CBH         PUBLIC        _TIM0_WorkMode1Config
  D:0088H         PUBLIC        TCON
  D:0089H         PUBLIC        TMOD
  C:2583H         PUBLIC        _TIM0_WorkMode2Config
  C:25EEH         PUBLIC        _TIM0_WorkMode3Config
  C:232FH         PUBLIC        TIM0_DeInit
  B:00A8H.1       PUBLIC        ET0
  B:0088H.5       PUBLIC        TF0
  D:008CH         PUBLIC        TH0
  D:008AH         PUBLIC        TL0
  B:0088H.4       PUBLIC        TR0
  C:007EH         PUBLIC        TIM0_ClearFlag
  C:23C3H         PUBLIC        _TIM0_ITConfig
  D:00D0H         PUBLIC        PSW
  -------         PROC          TIM0_DEINIT
  C:232FH         LINE#         20
  C:232FH         LINE#         21
  C:232FH         LINE#         22
  C:2332H         LINE#         23
  C:2335H         LINE#         24
  C:2338H         LINE#         25
  C:233BH         LINE#         26
  C:233DH         LINE#         27
  C:233FH         LINE#         28
  C:2341H         LINE#         29
  -------         ENDPROC       TIM0_DEINIT
  -------         PROC          _TIM0_TIMEBASEINIT
  D:0007H         SYMBOL        TIM0_PrescalerSelection
  D:0005H         SYMBOL        TIM0_CountMode
  C:2141H         LINE#         38
  C:2141H         LINE#         39
  C:2141H         LINE#         40
  C:2144H         LINE#         41
  C:2144H         LINE#         42
  C:2147H         LINE#         43
  C:2149H         LINE#         44
  C:214DH         LINE#         45
  C:214DH         LINE#         46
  C:2150H         LINE#         47
  C:2150H         LINE#         49
  C:2154H         LINE#         50
  C:2154H         LINE#         51
  C:2157H         LINE#         52
  C:2158H         LINE#         53
  C:215CH         LINE#         54
  C:215CH         LINE#         55
  C:215FH         LINE#         56
  C:215FH         LINE#         57
  -------         ENDPROC       _TIM0_TIMEBASEINIT
  -------         PROC          _TIM0_WORKMODE0CONFIG
  D:0006H         SYMBOL        TIM0_SetCounter
  C:23B1H         LINE#         65
  C:23B1H         LINE#         66
  C:23B1H         LINE#         67
  C:23B4H         LINE#         68
BL51 BANKED LINKER/LOCATER V6.22                                                      11/12/2019  18:30:58  PAGE 54


  C:23B6H         LINE#         69
  C:23C2H         LINE#         70
  -------         ENDPROC       _TIM0_WORKMODE0CONFIG
  -------         PROC          _TIM0_WORKMODE1CONFIG
  D:0006H         SYMBOL        TIM0_SetCounter
  C:24CBH         LINE#         78
  C:24CBH         LINE#         79
  C:24CBH         LINE#         80
  C:24CEH         LINE#         81
  C:24D1H         LINE#         82
  C:24D5H         LINE#         83
  C:24D8H         LINE#         84
  -------         ENDPROC       _TIM0_WORKMODE1CONFIG
  -------         PROC          _TIM0_WORKMODE2CONFIG
  D:0007H         SYMBOL        TIM0_SetCounter
  C:2583H         LINE#         92
  C:2583H         LINE#         93
  C:2583H         LINE#         94
  C:2586H         LINE#         95
  C:2589H         LINE#         96
  C:258BH         LINE#         97
  C:258DH         LINE#         98
  -------         ENDPROC       _TIM0_WORKMODE2CONFIG
  -------         PROC          _TIM0_WORKMODE3CONFIG
  D:0007H         SYMBOL        TIM0_SetCounter
  D:0005H         SYMBOL        TIM1_SetCounter
  C:25EEH         LINE#         107
  C:25EEH         LINE#         108
  C:25EEH         LINE#         109
  C:25F1H         LINE#         110
  C:25F3H         LINE#         111
  C:25F7H         LINE#         112
  -------         ENDPROC       _TIM0_WORKMODE3CONFIG
  -------         PROC          _TIM0_MODE0SETRELOADCOUNTER
  D:0006H         SYMBOL        TIM0_SetCounter
  C:2490H         LINE#         120
  C:2490H         LINE#         121
  C:2490H         LINE#         122
  C:2492H         LINE#         123
  C:249EH         LINE#         124
  -------         ENDPROC       _TIM0_MODE0SETRELOADCOUNTER
  -------         PROC          _TIM0_MODE1SETRELOADCOUNTER
  D:0006H         SYMBOL        TIM0_SetCounter
  C:2638H         LINE#         132
  C:2638H         LINE#         133
  C:2638H         LINE#         134
  C:263CH         LINE#         135
  C:263FH         LINE#         136
  -------         ENDPROC       _TIM0_MODE1SETRELOADCOUNTER
  -------         PROC          _TIM0_CMD
  D:0007H         SYMBOL        NewState
  C:2615H         LINE#         144
  C:2615H         LINE#         145
  C:2615H         LINE#         146
  C:2618H         LINE#         147
  C:2618H         LINE#         148
  C:261AH         LINE#         149
BL51 BANKED LINKER/LOCATER V6.22                                                      11/12/2019  18:30:58  PAGE 55


  C:261BH         LINE#         151
  C:261BH         LINE#         152
  C:261DH         LINE#         153
  C:261DH         LINE#         154
  -------         ENDPROC       _TIM0_CMD
  -------         PROC          _TIM0_ITCONFIG
  D:0007H         SYMBOL        NewState
  D:0005H         SYMBOL        Priority
  C:23C3H         LINE#         163
  C:23C3H         LINE#         164
  C:23C3H         LINE#         165
  C:23C6H         LINE#         166
  C:23C6H         LINE#         167
  C:23C8H         LINE#         168
  C:23CAH         LINE#         170
  C:23CAH         LINE#         171
  C:23CCH         LINE#         172
  C:23CCH         LINE#         174
  C:23CFH         LINE#         175
  C:23CFH         LINE#         176
  C:23D1H         LINE#         177
  C:23D2H         LINE#         179
  C:23D2H         LINE#         180
  C:23D4H         LINE#         181
  C:23D4H         LINE#         182
  -------         ENDPROC       _TIM0_ITCONFIG
  -------         PROC          TIM0_GETFLAGSTATUS
  C:2667H         LINE#         190
  C:2667H         LINE#         191
  C:2667H         LINE#         192
  C:266CH         LINE#         193
  -------         ENDPROC       TIM0_GETFLAGSTATUS
  -------         PROC          TIM0_CLEARFLAG
  C:007EH         LINE#         201
  C:007EH         LINE#         202
  C:007EH         LINE#         203
  C:0080H         LINE#         204
  -------         ENDPROC       TIM0_CLEARFLAG
  -------         ENDMOD        SC95F761X_TIMER0

  -------         MODULE        SC95F761X_TIMER1
  C:0000H         SYMBOL        _ICE_DUMMY_
  D:0080H         PUBLIC        P0
  D:0090H         PUBLIC        P1
  D:00A0H         PUBLIC        P2
  D:008EH         PUBLIC        TMCON
  D:00B0H         PUBLIC        P3
  D:00C0H         PUBLIC        P4
  D:00D8H         PUBLIC        P5
  D:00C8H         PUBLIC        TXCON
  D:00A8H         PUBLIC        IE
  C:261EH         PUBLIC        _TIM1_Cmd
  D:00B8H         PUBLIC        IP
  B:00B8H.3       PUBLIC        IPT1
  C:2160H         PUBLIC        _TIM1_TimeBaseInit
  C:266DH         PUBLIC        TIM1_GetFlagStatus
  C:249FH         PUBLIC        _TIM1_Mode0SetReloadCounter
BL51 BANKED LINKER/LOCATER V6.22                                                      11/12/2019  18:30:58  PAGE 56


  C:2640H         PUBLIC        _TIM1_Mode1SetReloadCounter
  D:0098H         PUBLIC        SCON
  C:23D5H         PUBLIC        _TIM1_WorkMode0Config
  D:0088H         PUBLIC        TCON
  D:0089H         PUBLIC        TMOD
  C:24D9H         PUBLIC        _TIM1_WorkMode1Config
  C:258EH         PUBLIC        _TIM1_WorkMode2Config
  C:2342H         PUBLIC        TIM1_DeInit
  B:00A8H.3       PUBLIC        ET1
  B:0088H.7       PUBLIC        TF1
  D:008DH         PUBLIC        TH1
  D:008BH         PUBLIC        TL1
  B:0088H.6       PUBLIC        TR1
  C:2673H         PUBLIC        TIM1_ClearFlag
  C:23E7H         PUBLIC        _TIM1_ITConfig
  D:00D0H         PUBLIC        PSW
  -------         PROC          TIM1_DEINIT
  C:2342H         LINE#         21
  C:2342H         LINE#         22
  C:2342H         LINE#         23
  C:2345H         LINE#         24
  C:2348H         LINE#         25
  C:234BH         LINE#         26
  C:234EH         LINE#         27
  C:2350H         LINE#         28
  C:2352H         LINE#         29
  C:2354H         LINE#         30
  -------         ENDPROC       TIM1_DEINIT
  -------         PROC          _TIM1_TIMEBASEINIT
  D:0007H         SYMBOL        TIM1_PrescalerSelection
  D:0005H         SYMBOL        TIM1_CountMode
  C:2160H         LINE#         39
  C:2160H         LINE#         40
  C:2160H         LINE#         41
  C:2163H         LINE#         42
  C:2163H         LINE#         43
  C:2166H         LINE#         44
  C:2168H         LINE#         45
  C:216CH         LINE#         46
  C:216CH         LINE#         47
  C:216FH         LINE#         48
  C:216FH         LINE#         50
  C:2173H         LINE#         51
  C:2173H         LINE#         52
  C:2176H         LINE#         53
  C:2177H         LINE#         54
  C:217BH         LINE#         55
  C:217BH         LINE#         56
  C:217EH         LINE#         57
  C:217EH         LINE#         58
  -------         ENDPROC       _TIM1_TIMEBASEINIT
  -------         PROC          _TIM1_WORKMODE0CONFIG
  D:0006H         SYMBOL        TIM1_SetCounter
  C:23D5H         LINE#         66
  C:23D5H         LINE#         67
  C:23D5H         LINE#         68
  C:23D8H         LINE#         69
BL51 BANKED LINKER/LOCATER V6.22                                                      11/12/2019  18:30:58  PAGE 57


  C:23DAH         LINE#         70
  C:23E6H         LINE#         71
  -------         ENDPROC       _TIM1_WORKMODE0CONFIG
  -------         PROC          _TIM1_WORKMODE1CONFIG
  D:0006H         SYMBOL        TIM1_SetCounter
  C:24D9H         LINE#         79
  C:24D9H         LINE#         80
  C:24D9H         LINE#         81
  C:24DCH         LINE#         82
  C:24DFH         LINE#         83
  C:24E3H         LINE#         84
  C:24E6H         LINE#         85
  -------         ENDPROC       _TIM1_WORKMODE1CONFIG
  -------         PROC          _TIM1_WORKMODE2CONFIG
  D:0007H         SYMBOL        TIM1_SetCounter
  C:258EH         LINE#         93
  C:258EH         LINE#         94
  C:258EH         LINE#         95
  C:2591H         LINE#         96
  C:2594H         LINE#         97
  C:2596H         LINE#         98
  C:2598H         LINE#         99
  -------         ENDPROC       _TIM1_WORKMODE2CONFIG
  -------         PROC          _TIM1_MODE0SETRELOADCOUNTER
  D:0006H         SYMBOL        TIM1_SetCounter
  C:249FH         LINE#         107
  C:249FH         LINE#         108
  C:249FH         LINE#         109
  C:24A1H         LINE#         110
  C:24ADH         LINE#         111
  -------         ENDPROC       _TIM1_MODE0SETRELOADCOUNTER
  -------         PROC          _TIM1_MODE1SETRELOADCOUNTER
  D:0006H         SYMBOL        TIM1_SetCounter
  C:2640H         LINE#         119
  C:2640H         LINE#         120
  C:2640H         LINE#         121
  C:2644H         LINE#         122
  C:2647H         LINE#         123
  -------         ENDPROC       _TIM1_MODE1SETRELOADCOUNTER
  -------         PROC          _TIM1_CMD
  D:0007H         SYMBOL        NewState
  C:261EH         LINE#         131
  C:261EH         LINE#         132
  C:261EH         LINE#         133
  C:2621H         LINE#         134
  C:2621H         LINE#         135
  C:2623H         LINE#         136
  C:2624H         LINE#         138
  C:2624H         LINE#         139
  C:2626H         LINE#         140
  C:2626H         LINE#         141
  -------         ENDPROC       _TIM1_CMD
  -------         PROC          _TIM1_ITCONFIG
  D:0007H         SYMBOL        NewState
  D:0005H         SYMBOL        Priority
  C:23E7H         LINE#         150
  C:23E7H         LINE#         151
BL51 BANKED LINKER/LOCATER V6.22                                                      11/12/2019  18:30:58  PAGE 58


  C:23E7H         LINE#         152
  C:23EAH         LINE#         153
  C:23EAH         LINE#         154
  C:23ECH         LINE#         155
  C:23EEH         LINE#         157
  C:23EEH         LINE#         158
  C:23F0H         LINE#         159
  C:23F0H         LINE#         161
  C:23F3H         LINE#         162
  C:23F3H         LINE#         163
  C:23F5H         LINE#         164
  C:23F6H         LINE#         166
  C:23F6H         LINE#         167
  C:23F8H         LINE#         168
  C:23F8H         LINE#         169
  -------         ENDPROC       _TIM1_ITCONFIG
  -------         PROC          TIM1_GETFLAGSTATUS
  C:266DH         LINE#         177
  C:266DH         LINE#         178
  C:266DH         LINE#         179
  C:2672H         LINE#         180
  -------         ENDPROC       TIM1_GETFLAGSTATUS
  -------         PROC          TIM1_CLEARFLAG
  C:2673H         LINE#         188
  C:2673H         LINE#         189
  C:2673H         LINE#         190
  C:2675H         LINE#         191
  -------         ENDPROC       TIM1_CLEARFLAG
  -------         ENDMOD        SC95F761X_TIMER1

  -------         MODULE        SC95F761X_TIMERX
  C:0000H         SYMBOL        _ICE_DUMMY_
  B:00C8H.2       PUBLIC        TRX
  D:0080H         PUBLIC        P0
  D:0090H         PUBLIC        P1
  D:00A0H         PUBLIC        P2
  D:00B0H         PUBLIC        P3
  D:00C0H         PUBLIC        P4
  D:00D8H         PUBLIC        P5
  B:00C8H.3       PUBLIC        EXENX
  C:2648H         PUBLIC        _TIMX_ClearFlag
  C:2676H         PUBLIC        _TIMX_TimerSelect
  D:00C9H         PUBLIC        TXMOD
  D:00C8H         PUBLIC        TXCON
  D:00A8H         PUBLIC        IE
  C:251DH         PUBLIC        _TIM2_SetEXEN2
  D:00B8H         PUBLIC        IP
  C:1AF6H         PUBLIC        _TIMX_ITConfig
  D:00CEH         PUBLIC        TXINX
  B:00B8H.5       PUBLIC        IPT2
  C:20E0H         PUBLIC        _TIM2_TimeBaseInit
  C:25F8H         PUBLIC        TIM3_TimeBaseInit
  C:2602H         PUBLIC        TIM4_TimeBaseInit
  D:0098H         PUBLIC        SCON
  D:0088H         PUBLIC        TCON
  C:24E7H         PUBLIC        _TIM2_WorkMode0Config
  C:242DH         PUBLIC        _TIM2_WorkMode1Config
BL51 BANKED LINKER/LOCATER V6.22                                                      11/12/2019  18:30:58  PAGE 59


  C:243EH         PUBLIC        _TIM3_WorkMode1Config
  C:2599H         PUBLIC        _TIMX_Cmd
  C:24F5H         PUBLIC        _TIM2_WorkMode3Config
  C:244FH         PUBLIC        _TIM4_WorkMode1Config
  D:00A9H         PUBLIC        IE1
  D:00CBH         PUBLIC        RCAPXH
  D:00B9H         PUBLIC        IP1
  C:2460H         PUBLIC        _TIMX_GetFlagStatus
  B:00A8H.5       PUBLIC        ET2
  D:00CAH         PUBLIC        RCAPXL
  C:219DH         PUBLIC        _TIMX_DeInit
  D:00CDH         PUBLIC        THX
  C:241CH         PUBLIC        _TIMX_PrescalerSelection
  D:00CCH         PUBLIC        TLX
  D:00D0H         PUBLIC        PSW
  -------         PROC          _TIMX_DEINIT
  D:0007H         SYMBOL        TIMX_TimerSelect
  C:219DH         LINE#         20
  C:219DH         LINE#         21
  C:219DH         LINE#         22
  C:219FH         LINE#         23
  C:21A2H         LINE#         24
  C:21A4H         LINE#         25
  C:21A6H         LINE#         26
  C:21A8H         LINE#         27
  C:21AAH         LINE#         28
  C:21ACH         LINE#         29
  C:21AEH         LINE#         30
  C:21B1H         LINE#         31
  C:21B4H         LINE#         32
  C:21B6H         LINE#         33
  C:21B8H         LINE#         34
  -------         ENDPROC       _TIMX_DEINIT
  -------         PROC          _TIMX_TIMERSELECT
  D:0007H         SYMBOL        TIMX_TimerSelect
  C:2676H         LINE#         42
  C:2676H         LINE#         43
  C:2676H         LINE#         45
  C:2678H         LINE#         46
  -------         ENDPROC       _TIMX_TIMERSELECT
  -------         PROC          _TIMX_PRESCALERSELECTION
  D:0007H         SYMBOL        TIMX_TimerSelect
  D:0005H         SYMBOL        TIMX_PrescalerSelection
  C:241CH         LINE#         55
  C:241CH         LINE#         56
  C:241CH         LINE#         57
  C:241EH         LINE#         58
  C:2421H         LINE#         59
  C:2421H         LINE#         60
  C:2424H         LINE#         61
  C:2425H         LINE#         62
  C:2429H         LINE#         63
  C:2429H         LINE#         64
  C:242CH         LINE#         65
  C:242CH         LINE#         66
  -------         ENDPROC       _TIMX_PRESCALERSELECTION
  -------         PROC          _TIM2_TIMEBASEINIT
BL51 BANKED LINKER/LOCATER V6.22                                                      11/12/2019  18:30:58  PAGE 60


  D:0007H         SYMBOL        TIM2_CountMode
  D:0005H         SYMBOL        TIM2_CountDirection
  C:20E0H         LINE#         76
  C:20E0H         LINE#         77
  C:20E0H         LINE#         78
  C:20E3H         LINE#         79
  C:20E7H         LINE#         80
  C:20E7H         LINE#         81
  C:20EAH         LINE#         82
  C:20ECH         LINE#         83
  C:20F0H         LINE#         84
  C:20F0H         LINE#         85
  C:20F3H         LINE#         86
  C:20F3H         LINE#         88
  C:20F6H         LINE#         89
  C:20F6H         LINE#         90
  C:20F9H         LINE#         91
  C:20FAH         LINE#         92
  C:20FEH         LINE#         93
  C:20FEH         LINE#         94
  C:2101H         LINE#         95
  C:2101H         LINE#         96
  -------         ENDPROC       _TIM2_TIMEBASEINIT
  -------         PROC          TIM3_TIMEBASEINIT
  C:25F8H         LINE#         104
  C:25F8H         LINE#         105
  C:25F8H         LINE#         106
  C:25FBH         LINE#         107
  C:25FEH         LINE#         108
  C:2601H         LINE#         109
  -------         ENDPROC       TIM3_TIMEBASEINIT
  -------         PROC          TIM4_TIMEBASEINIT
  C:2602H         LINE#         117
  C:2602H         LINE#         118
  C:2602H         LINE#         119
  C:2605H         LINE#         120
  C:2608H         LINE#         121
  C:260BH         LINE#         122
  -------         ENDPROC       TIM4_TIMEBASEINIT
  -------         PROC          _TIM2_WORKMODE0CONFIG
  D:0006H         SYMBOL        TIM2_SetCounter
  C:24E7H         LINE#         130
  C:24E7H         LINE#         131
  C:24E7H         LINE#         132
  C:24EAH         LINE#         133
  C:24EDH         LINE#         135
  C:24F1H         LINE#         136
  C:24F4H         LINE#         137
  -------         ENDPROC       _TIM2_WORKMODE0CONFIG
  -------         PROC          _TIM2_WORKMODE1CONFIG
  D:0006H         SYMBOL        TIM2_SetCounter
  C:242DH         LINE#         145
  C:242DH         LINE#         146
  C:242DH         LINE#         147
  C:2430H         LINE#         148
  C:2434H         LINE#         149
  C:2437H         LINE#         151
BL51 BANKED LINKER/LOCATER V6.22                                                      11/12/2019  18:30:58  PAGE 61


  C:243AH         LINE#         152
  C:243DH         LINE#         153
  -------         ENDPROC       _TIM2_WORKMODE1CONFIG
  -------         PROC          _TIM3_WORKMODE1CONFIG
  D:0006H         SYMBOL        TIM3_SetCounter
  C:243EH         LINE#         161
  C:243EH         LINE#         162
  C:243EH         LINE#         163
  C:2441H         LINE#         164
  C:2445H         LINE#         165
  C:2448H         LINE#         167
  C:244BH         LINE#         168
  C:244EH         LINE#         169
  -------         ENDPROC       _TIM3_WORKMODE1CONFIG
  -------         PROC          _TIM4_WORKMODE1CONFIG
  D:0006H         SYMBOL        TIM4_SetCounter
  C:244FH         LINE#         177
  C:244FH         LINE#         178
  C:244FH         LINE#         179
  C:2452H         LINE#         180
  C:2456H         LINE#         181
  C:2459H         LINE#         183
  C:245CH         LINE#         184
  C:245FH         LINE#         185
  -------         ENDPROC       _TIM4_WORKMODE1CONFIG
  -------         PROC          _TIM2_WORKMODE3CONFIG
  D:0006H         SYMBOL        TIM2_SetCounter
  C:24F5H         LINE#         193
  C:24F5H         LINE#         194
  C:24F5H         LINE#         195
  C:24F8H         LINE#         196
  C:24FCH         LINE#         197
  C:24FFH         LINE#         198
  C:2502H         LINE#         199
  -------         ENDPROC       _TIM2_WORKMODE3CONFIG
  -------         PROC          _TIM2_SETEXEN2
  D:0007H         SYMBOL        NewState
  C:251DH         LINE#         207
  C:251DH         LINE#         208
  C:251DH         LINE#         209
  C:2520H         LINE#         210
  C:2523H         LINE#         211
  C:2523H         LINE#         212
  C:2525H         LINE#         213
  C:2526H         LINE#         215
  C:2526H         LINE#         216
  C:2528H         LINE#         217
  C:2528H         LINE#         218
  -------         ENDPROC       _TIM2_SETEXEN2
  -------         PROC          _TIMX_CMD
  D:0007H         SYMBOL        TIMX_TimerSelect
  D:0005H         SYMBOL        NewState
  C:2599H         LINE#         227
  C:2599H         LINE#         228
  C:2599H         LINE#         229
  C:259BH         LINE#         230
  C:259EH         LINE#         231
BL51 BANKED LINKER/LOCATER V6.22                                                      11/12/2019  18:30:58  PAGE 62


  C:259EH         LINE#         232
  C:25A0H         LINE#         233
  C:25A1H         LINE#         235
  C:25A1H         LINE#         236
  C:25A3H         LINE#         237
  C:25A3H         LINE#         238
  -------         ENDPROC       _TIMX_CMD
  -------         PROC          _TIMX_ITCONFIG
  D:0007H         SYMBOL        TIMX_TimerSelect
  D:0005H         SYMBOL        NewState
  D:0003H         SYMBOL        Priority
  C:1AF6H         LINE#         248
  C:1AF6H         LINE#         249
  C:1AF6H         LINE#         250
  C:1AFAH         LINE#         251
  C:1AFAH         LINE#         252
  C:1AFDH         LINE#         253
  C:1AFDH         LINE#         254
  C:1AFFH         LINE#         255
  C:1B01H         LINE#         257
  C:1B01H         LINE#         258
  C:1B03H         LINE#         259
  C:1B03H         LINE#         261
  C:1B06H         LINE#         262
  C:1B06H         LINE#         263
  C:1B08H         LINE#         264
  C:1B0AH         LINE#         266
  C:1B0AH         LINE#         267
  C:1B0CH         LINE#         268
  C:1B0CH         LINE#         269
  C:1B0CH         LINE#         271
  C:1B11H         LINE#         272
  C:1B11H         LINE#         273
  C:1B14H         LINE#         274
  C:1B14H         LINE#         275
  C:1B17H         LINE#         276
  C:1B19H         LINE#         278
  C:1B19H         LINE#         279
  C:1B1CH         LINE#         280
  C:1B1CH         LINE#         282
  C:1B1FH         LINE#         283
  C:1B1FH         LINE#         284
  C:1B22H         LINE#         285
  C:1B24H         LINE#         287
  C:1B24H         LINE#         288
  C:1B27H         LINE#         289
  C:1B27H         LINE#         290
  C:1B27H         LINE#         292
  C:1B2CH         LINE#         293
  C:1B2CH         LINE#         294
  C:1B2FH         LINE#         295
  C:1B2FH         LINE#         296
  C:1B32H         LINE#         297
  C:1B34H         LINE#         299
  C:1B34H         LINE#         300
  C:1B37H         LINE#         301
  C:1B37H         LINE#         303
BL51 BANKED LINKER/LOCATER V6.22                                                      11/12/2019  18:30:58  PAGE 63


  C:1B3AH         LINE#         304
  C:1B3AH         LINE#         305
  C:1B3DH         LINE#         306
  C:1B3EH         LINE#         308
  C:1B3EH         LINE#         309
  C:1B41H         LINE#         310
  C:1B41H         LINE#         311
  C:1B41H         LINE#         312
  -------         ENDPROC       _TIMX_ITCONFIG
  -------         PROC          _TIMX_GETFLAGSTATUS
  D:0007H         SYMBOL        TIMX_TimerSelect
  D:0005H         SYMBOL        TIMX_Flag
  -------         DO            
  D:0006H         SYMBOL        status
  -------         ENDDO         
  C:2460H         LINE#         320
  C:2460H         LINE#         321
  C:2460H         LINE#         322
  C:2462H         LINE#         323
  C:2464H         LINE#         324
  C:2469H         LINE#         325
  C:2469H         LINE#         326
  C:246AH         LINE#         327
  C:246CH         LINE#         329
  C:246CH         LINE#         330
  C:246EH         LINE#         331
  C:246EH         LINE#         332
  C:2470H         LINE#         333
  -------         ENDPROC       _TIMX_GETFLAGSTATUS
  -------         PROC          _TIMX_CLEARFLAG
  D:0007H         SYMBOL        TIMX_TimerSelect
  D:0005H         SYMBOL        TIMX_Flag
  C:2648H         LINE#         341
  C:2648H         LINE#         342
  C:2648H         LINE#         343
  C:264AH         LINE#         344
  C:264EH         LINE#         345
  -------         ENDPROC       _TIMX_CLEARFLAG
  -------         ENDMOD        SC95F761X_TIMERX

  -------         MODULE        SC95F761X_UART0
  C:0000H         SYMBOL        _ICE_DUMMY_
  D:0080H         PUBLIC        P0
  D:0090H         PUBLIC        P1
  D:00A0H         PUBLIC        P2
  B:00A8H.4       PUBLIC        EUART
  D:00B0H         PUBLIC        P3
  D:00C0H         PUBLIC        P4
  D:00D8H         PUBLIC        P5
  D:00C8H         PUBLIC        TXCON
  D:00A8H         PUBLIC        IE
  C:24AEH         PUBLIC        UART0_DeInit
  C:2679H         PUBLIC        _UART0_SendData8
  C:22CEH         PUBLIC        _UART0_SendData9
  D:00B8H         PUBLIC        IP
  D:0099H         PUBLIC        SBUF
  D:0087H         PUBLIC        PCON
BL51 BANKED LINKER/LOCATER V6.22                                                      11/12/2019  18:30:58  PAGE 64


  D:0098H         PUBLIC        SCON
  C:000EH         PUBLIC        _UART0_ClearFlag
  D:0088H         PUBLIC        TCON
  C:23F9H         PUBLIC        _UART0_ITConfig
  D:00CBH         PUBLIC        RCAPXH
  C:267CH         PUBLIC        UART0_ReceiveData8
  C:2355H         PUBLIC        UART0_ReceiveData9
  D:00CAH         PUBLIC        RCAPXL
  D:008DH         PUBLIC        TH1
  D:008BH         PUBLIC        TL1
  B:0088H.6       PUBLIC        TR1
  B:00B8H.4       PUBLIC        IPUART
  C:0FE6H         PUBLIC        _UART0_Init
  C:0006H         PUBLIC        _UART0_GetFlagStatus
  D:00D0H         PUBLIC        PSW
  -------         PROC          UART0_DEINIT
  C:24AEH         LINE#         20
  C:24AEH         LINE#         21
  C:24AEH         LINE#         22
  C:24B1H         LINE#         23
  C:24B3H         LINE#         24
  C:24B6H         LINE#         25
  C:24B9H         LINE#         26
  C:24BCH         LINE#         27
  -------         ENDPROC       UART0_DEINIT
  -------         PROC          _UART0_INIT
  X:0015H         SYMBOL        Uart0Fsys
  X:0019H         SYMBOL        BaudRate
  X:001DH         SYMBOL        Mode
  X:001EH         SYMBOL        ClockMode
  X:001FH         SYMBOL        RxMode
  C:0FE6H         LINE#         40
  C:0FECH         LINE#         42
  C:0FECH         LINE#         43
  C:0FFEH         LINE#         44
  C:100BH         LINE#         45
  C:100EH         LINE#         46
  C:100EH         LINE#         47
  C:1038H         LINE#         48
  C:1059H         LINE#         49
  C:105BH         LINE#         50
  C:105CH         LINE#         51
  C:1063H         LINE#         52
  C:1063H         LINE#         53
  C:108DH         LINE#         54
  C:10AEH         LINE#         55
  C:10AEH         LINE#         56
  -------         ENDPROC       _UART0_INIT
  -------         PROC          _UART0_SENDDATA8
  D:0007H         SYMBOL        Data
  C:2679H         LINE#         64
  C:2679H         LINE#         65
  C:2679H         LINE#         66
  C:267BH         LINE#         67
  -------         ENDPROC       _UART0_SENDDATA8
  -------         PROC          UART0_RECEIVEDATA8
  C:267CH         LINE#         75
BL51 BANKED LINKER/LOCATER V6.22                                                      11/12/2019  18:30:58  PAGE 65


  C:267CH         LINE#         76
  C:267CH         LINE#         77
  C:267EH         LINE#         78
  -------         ENDPROC       UART0_RECEIVEDATA8
  -------         PROC          _UART0_SENDDATA9
  D:0004H         SYMBOL        Data
  -------         DO            
  D:0007H         SYMBOL        Data_9Bit
  -------         ENDDO         
  C:22CEH         LINE#         86
  C:22D2H         LINE#         87
  C:22D2H         LINE#         89
  C:22D3H         LINE#         90
  C:22D5H         LINE#         91
  C:22D5H         LINE#         92
  C:22D8H         LINE#         93
  C:22DAH         LINE#         95
  C:22DAH         LINE#         96
  C:22DDH         LINE#         97
  C:22DDH         LINE#         98
  C:22E1H         LINE#         99
  -------         ENDPROC       _UART0_SENDDATA9
  -------         PROC          UART0_RECEIVEDATA9
  -------         DO            
  D:0006H         SYMBOL        Data9
  -------         ENDDO         
  C:2355H         LINE#         107
  C:2355H         LINE#         108
  C:2355H         LINE#         110
  C:2367H         LINE#         111
  C:2367H         LINE#         112
  -------         ENDPROC       UART0_RECEIVEDATA9
  -------         PROC          _UART0_ITCONFIG
  D:0007H         SYMBOL        NewState
  D:0005H         SYMBOL        Priority
  C:23F9H         LINE#         121
  C:23F9H         LINE#         122
  C:23F9H         LINE#         123
  C:23FCH         LINE#         124
  C:23FCH         LINE#         125
  C:23FEH         LINE#         126
  C:2400H         LINE#         128
  C:2400H         LINE#         129
  C:2402H         LINE#         130
  C:2402H         LINE#         132
  C:2405H         LINE#         133
  C:2405H         LINE#         134
  C:2407H         LINE#         135
  C:2408H         LINE#         137
  C:2408H         LINE#         138
  C:240AH         LINE#         139
  C:240AH         LINE#         140
  -------         ENDPROC       _UART0_ITCONFIG
  -------         PROC          _UART0_GETFLAGSTATUS
  D:0007H         SYMBOL        UART0_Flag
  C:0006H         LINE#         148
  C:0006H         LINE#         149
BL51 BANKED LINKER/LOCATER V6.22                                                      11/12/2019  18:30:58  PAGE 66


  C:0006H         LINE#         150
  C:000AH         LINE#         151
  -------         ENDPROC       _UART0_GETFLAGSTATUS
  -------         PROC          _UART0_CLEARFLAG
  D:0007H         SYMBOL        UART0_Flag
  C:000EH         LINE#         159
  C:000EH         LINE#         160
  C:000EH         LINE#         161
  C:0012H         LINE#         162
  -------         ENDPROC       _UART0_CLEARFLAG
  -------         ENDMOD        SC95F761X_UART0

  -------         MODULE        SC95F761X_USCI1
  C:0000H         SYMBOL        _ICE_DUMMY_
  D:0080H         PUBLIC        P0
  D:0090H         PUBLIC        P1
  D:00A0H         PUBLIC        P2
  D:00B0H         PUBLIC        P3
  D:00C0H         PUBLIC        P4
  D:008FH         PUBLIC        OTCON
  D:00D8H         PUBLIC        P5
  C:2368H         PUBLIC        USCI1_DeInit
  D:00C8H         PUBLIC        TXCON
  D:00A8H         PUBLIC        IE
  C:2503H         PUBLIC        _USCI1_TWI_Slave_Init
  D:00B8H         PUBLIC        IP
  C:2627H         PUBLIC        USCI1_SPI_ReceiveData_16
  C:2685H         PUBLIC        _USCI1_TWI_SendData
  C:268BH         PUBLIC        _USCI1_UART_SendData8
  C:22E2H         PUBLIC        _USCI1_UART_SendData9
  C:25A4H         PUBLIC        _USCI1_SPI_Cmd
  C:1F57H         PUBLIC        _USCI1_SPI_Init
  C:2207H         PUBLIC        _USCI1_ClearFlag
  C:004EH         PUBLIC        USCI1_TWI_Start
  C:25C5H         PUBLIC        _USCI1_TWI_Cmd
  D:0098H         PUBLIC        SCON
  D:0088H         PUBLIC        TCON
  C:267FH         PUBLIC        _USCI1_SPI_SendData_8
  C:0066H         PUBLIC        USCI1_TWI_MasterModeStop
  C:22A4H         PUBLIC        _USCI1_ITConfig
  D:00AAH         PUBLIC        IE2
  D:00BAH         PUBLIC        IP2
  C:006EH         PUBLIC        USCI1_TWI_SlaveClockExtension
  C:2688H         PUBLIC        USCI1_TWI_ReceiveData
  C:268EH         PUBLIC        USCI1_UART_ReceiveData8
  C:228EH         PUBLIC        USCI1_UART_ReceiveData9
  C:25AFH         PUBLIC        _USCI1_TWI_AcknowledgeConfig
  C:2529H         PUBLIC        _USCI1_SPI_SendData_16
  D:00A4H         PUBLIC        US1CON0
  D:00A5H         PUBLIC        US1CON1
  D:00A6H         PUBLIC        US1CON2
  C:1FD8H         PUBLIC        _USCI1_GetFlagStatus
  D:00A7H         PUBLIC        US1CON3
  C:2682H         PUBLIC        USCI1_SPI_ReceiveData_8
  C:25BAH         PUBLIC        _USCI1_TWI_GeneralCallCmd
  D:00D0H         PUBLIC        PSW
  C:1859H         PUBLIC        _USCI1_UART_Init
BL51 BANKED LINKER/LOCATER V6.22                                                      11/12/2019  18:30:58  PAGE 67


  C:2535H         PUBLIC        _USCI1_TWI_MasterCommunicationRate
  -------         PROC          USCI1_DEINIT
  C:2368H         LINE#         20
  C:2368H         LINE#         21
  C:2368H         LINE#         22
  C:236BH         LINE#         23
  C:236EH         LINE#         24
  C:2370H         LINE#         25
  C:2372H         LINE#         26
  C:2374H         LINE#         27
  C:2377H         LINE#         28
  C:237AH         LINE#         29
  -------         ENDPROC       USCI1_DEINIT
  -------         PROC          _USCI1_SPI_INIT
  D:0007H         SYMBOL        FirstBit
  D:0005H         SYMBOL        BaudRatePrescaler
  D:0003H         SYMBOL        Mode
  X:0018H         SYMBOL        ClockPolarity
  X:0019H         SYMBOL        ClockPhase
  X:001AH         SYMBOL        SPI_TXE_INT
  X:001BH         SYMBOL        TransmissionMode
  C:1F57H         LINE#         44
  C:1F57H         LINE#         46
  C:1F57H         LINE#         47
  C:1F5FH         LINE#         48
  C:1F70H         LINE#         49
  C:1F82H         LINE#         50
  -------         ENDPROC       _USCI1_SPI_INIT
  -------         PROC          _USCI1_SPI_CMD
  D:0007H         SYMBOL        NewState
  C:25A4H         LINE#         58
  C:25A4H         LINE#         59
  C:25A4H         LINE#         60
  C:25A7H         LINE#         61
  C:25A7H         LINE#         62
  C:25AAH         LINE#         63
  C:25ABH         LINE#         65
  C:25ABH         LINE#         66
  C:25AEH         LINE#         67
  C:25AEH         LINE#         68
  -------         ENDPROC       _USCI1_SPI_CMD
  -------         PROC          _USCI1_SPI_SENDDATA_8
  D:0007H         SYMBOL        Data
  C:267FH         LINE#         77
  C:267FH         LINE#         78
  C:267FH         LINE#         79
  C:2681H         LINE#         80
  -------         ENDPROC       _USCI1_SPI_SENDDATA_8
  -------         PROC          USCI1_SPI_RECEIVEDATA_8
  C:2682H         LINE#         88
  C:2682H         LINE#         89
  C:2682H         LINE#         90
  C:2684H         LINE#         91
  -------         ENDPROC       USCI1_SPI_RECEIVEDATA_8
  -------         PROC          _USCI1_SPI_SENDDATA_16
  D:0004H         SYMBOL        Data
  C:2529H         LINE#         99
BL51 BANKED LINKER/LOCATER V6.22                                                      11/12/2019  18:30:58  PAGE 68


  C:252DH         LINE#         100
  C:252DH         LINE#         101
  C:2530H         LINE#         102
  C:2534H         LINE#         103
  -------         ENDPROC       _USCI1_SPI_SENDDATA_16
  -------         PROC          USCI1_SPI_RECEIVEDATA_16
  -------         DO            
  D:0006H         SYMBOL        SPI_data
  -------         ENDDO         
  C:2627H         LINE#         111
  C:2627H         LINE#         112
  C:2627H         LINE#         114
  C:262FH         LINE#         115
  C:262FH         LINE#         116
  -------         ENDPROC       USCI1_SPI_RECEIVEDATA_16
  -------         PROC          _USCI1_TWI_SLAVE_INIT
  D:0007H         SYMBOL        TWI_Address
  C:2503H         LINE#         124
  C:2503H         LINE#         125
  C:2503H         LINE#         126
  C:250BH         LINE#         127
  C:2510H         LINE#         128
  -------         ENDPROC       _USCI1_TWI_SLAVE_INIT
  -------         PROC          _USCI1_TWI_MASTERCOMMUNICATIONRATE
  D:0007H         SYMBOL        TWI_MasterCommunicationRate
  C:2535H         LINE#         136
  C:2535H         LINE#         137
  C:2535H         LINE#         138
  C:253DH         LINE#         139
  C:2540H         LINE#         140
  -------         ENDPROC       _USCI1_TWI_MASTERCOMMUNICATIONRATE
  -------         PROC          USCI1_TWI_START
  C:004EH         LINE#         148
  C:004EH         LINE#         149
  C:004EH         LINE#         150
  C:0051H         LINE#         151
  -------         ENDPROC       USCI1_TWI_START
  -------         PROC          USCI1_TWI_MASTERMODESTOP
  C:0066H         LINE#         159
  C:0066H         LINE#         160
  C:0066H         LINE#         161
  C:0069H         LINE#         162
  -------         ENDPROC       USCI1_TWI_MASTERMODESTOP
  -------         PROC          USCI1_TWI_SLAVECLOCKEXTENSION
  C:006EH         LINE#         170
  C:006EH         LINE#         171
  C:006EH         LINE#         172
  C:0071H         LINE#         173
  -------         ENDPROC       USCI1_TWI_SLAVECLOCKEXTENSION
  -------         PROC          _USCI1_TWI_ACKNOWLEDGECONFIG
  D:0007H         SYMBOL        NewState
  C:25AFH         LINE#         183
  C:25AFH         LINE#         184
  C:25AFH         LINE#         185
  C:25B2H         LINE#         186
  C:25B2H         LINE#         187
  C:25B5H         LINE#         188
BL51 BANKED LINKER/LOCATER V6.22                                                      11/12/2019  18:30:58  PAGE 69


  C:25B6H         LINE#         190
  C:25B6H         LINE#         191
  C:25B9H         LINE#         192
  C:25B9H         LINE#         193
  -------         ENDPROC       _USCI1_TWI_ACKNOWLEDGECONFIG
  -------         PROC          _USCI1_TWI_GENERALCALLCMD
  D:0007H         SYMBOL        NewState
  C:25BAH         LINE#         201
  C:25BAH         LINE#         202
  C:25BAH         LINE#         203
  C:25BDH         LINE#         204
  C:25BDH         LINE#         205
  C:25C0H         LINE#         206
  C:25C1H         LINE#         208
  C:25C1H         LINE#         209
  C:25C4H         LINE#         210
  C:25C4H         LINE#         211
  -------         ENDPROC       _USCI1_TWI_GENERALCALLCMD
  -------         PROC          _USCI1_TWI_CMD
  D:0007H         SYMBOL        NewState
  C:25C5H         LINE#         219
  C:25C5H         LINE#         220
  C:25C5H         LINE#         221
  C:25C8H         LINE#         222
  C:25C8H         LINE#         223
  C:25CBH         LINE#         224
  C:25CCH         LINE#         226
  C:25CCH         LINE#         227
  C:25CFH         LINE#         228
  C:25CFH         LINE#         229
  -------         ENDPROC       _USCI1_TWI_CMD
  -------         PROC          _USCI1_TWI_SENDDATA
  D:0007H         SYMBOL        Data
  C:2685H         LINE#         237
  C:2685H         LINE#         238
  C:2685H         LINE#         239
  C:2687H         LINE#         240
  -------         ENDPROC       _USCI1_TWI_SENDDATA
  -------         PROC          USCI1_TWI_RECEIVEDATA
  C:2688H         LINE#         248
  C:2688H         LINE#         249
  C:2688H         LINE#         250
  C:268AH         LINE#         251
  -------         ENDPROC       USCI1_TWI_RECEIVEDATA
  -------         PROC          _USCI1_UART_INIT
  X:0005H         SYMBOL        UARTFsys
  X:0009H         SYMBOL        BaudRate
  X:000DH         SYMBOL        Mode
  X:000EH         SYMBOL        RxMode
  C:1859H         LINE#         262
  C:185FH         LINE#         263
  C:185FH         LINE#         264
  C:1862H         LINE#         265
  C:1872H         LINE#         266
  C:189CH         LINE#         267
  C:18BDH         LINE#         268
  -------         ENDPROC       _USCI1_UART_INIT
BL51 BANKED LINKER/LOCATER V6.22                                                      11/12/2019  18:30:58  PAGE 70


  -------         PROC          _USCI1_UART_SENDDATA8
  D:0007H         SYMBOL        Data
  C:268BH         LINE#         276
  C:268BH         LINE#         277
  C:268BH         LINE#         278
  C:268DH         LINE#         279
  -------         ENDPROC       _USCI1_UART_SENDDATA8
  -------         PROC          USCI1_UART_RECEIVEDATA8
  C:268EH         LINE#         287
  C:268EH         LINE#         288
  C:268EH         LINE#         289
  C:2690H         LINE#         290
  -------         ENDPROC       USCI1_UART_RECEIVEDATA8
  -------         PROC          _USCI1_UART_SENDDATA9
  D:0004H         SYMBOL        Data
  -------         DO            
  D:0007H         SYMBOL        Data_9Bit
  -------         ENDDO         
  C:22E2H         LINE#         298
  C:22E6H         LINE#         299
  C:22E6H         LINE#         301
  C:22E7H         LINE#         302
  C:22E9H         LINE#         303
  C:22E9H         LINE#         304
  C:22ECH         LINE#         305
  C:22EEH         LINE#         307
  C:22EEH         LINE#         308
  C:22F1H         LINE#         309
  C:22F1H         LINE#         311
  C:22F5H         LINE#         312
  -------         ENDPROC       _USCI1_UART_SENDDATA9
  -------         PROC          USCI1_UART_RECEIVEDATA9
  -------         DO            
  D:0006H         SYMBOL        Data9
  -------         ENDDO         
  C:228EH         LINE#         320
  C:228EH         LINE#         321
  C:228EH         LINE#         323
  C:22A0H         LINE#         324
  C:22A3H         LINE#         325
  C:22A3H         LINE#         326
  -------         ENDPROC       USCI1_UART_RECEIVEDATA9
  -------         PROC          _USCI1_ITCONFIG
  D:0007H         SYMBOL        NewState
  D:0005H         SYMBOL        Priority
  C:22A4H         LINE#         335
  C:22A4H         LINE#         336
  C:22A4H         LINE#         337
  C:22A7H         LINE#         338
  C:22A7H         LINE#         339
  C:22AAH         LINE#         340
  C:22ACH         LINE#         342
  C:22ACH         LINE#         343
  C:22AFH         LINE#         344
  C:22AFH         LINE#         346
  C:22B2H         LINE#         347
  C:22B2H         LINE#         348
BL51 BANKED LINKER/LOCATER V6.22                                                      11/12/2019  18:30:58  PAGE 71


  C:22B5H         LINE#         349
  C:22B6H         LINE#         351
  C:22B6H         LINE#         352
  C:22B9H         LINE#         353
  C:22B9H         LINE#         354
  -------         ENDPROC       _USCI1_ITCONFIG
  -------         PROC          _USCI1_GETFLAGSTATUS
  D:0007H         SYMBOL        USCI1_FLAG
  -------         DO            
  D:0006H         SYMBOL        bitstatus
  -------         ENDDO         
  C:1FD8H         LINE#         362
  C:1FD8H         LINE#         363
  C:1FD8H         LINE#         364
  C:1FD8H         LINE#         366
  C:1FE6H         LINE#         367
  C:1FE6H         LINE#         368
  C:1FEBH         LINE#         369
  C:1FEBH         LINE#         370
  C:1FEDH         LINE#         371
  C:1FEFH         LINE#         373
  C:1FEFH         LINE#         374
  C:1FF1H         LINE#         375
  C:1FF1H         LINE#         376
  C:1FF3H         LINE#         378
  C:1FF3H         LINE#         379
  C:1FF8H         LINE#         380
  C:1FF8H         LINE#         381
  C:1FFAH         LINE#         382
  C:1FFCH         LINE#         384
  C:1FFCH         LINE#         385
  C:1FFEH         LINE#         386
  C:1FFEH         LINE#         387
  C:1FFEH         LINE#         389
  C:2000H         LINE#         390
  -------         ENDPROC       _USCI1_GETFLAGSTATUS
  -------         PROC          _USCI1_CLEARFLAG
  D:0007H         SYMBOL        USCI1_FLAG
  C:2207H         LINE#         398
  C:2207H         LINE#         399
  C:2207H         LINE#         400
  C:2215H         LINE#         401
  C:2215H         LINE#         402
  C:2219H         LINE#         403
  C:221AH         LINE#         405
  C:221AH         LINE#         406
  C:221EH         LINE#         407
  C:221EH         LINE#         408
  -------         ENDPROC       _USCI1_CLEARFLAG
  -------         ENDMOD        SC95F761X_USCI1

  -------         MODULE        ?C_STARTUP
  C:14D4H         SEGMENT       ?C_C51STARTUP
  I:0023H         SEGMENT       ?STACK
  C:0000H         PUBLIC        ?C_STARTUP
  D:00E0H         SYMBOL        ACC
  D:00F0H         SYMBOL        B
BL51 BANKED LINKER/LOCATER V6.22                                                      11/12/2019  18:30:58  PAGE 72


  D:0083H         SYMBOL        DPH
  D:0082H         SYMBOL        DPL
  N:0000H         SYMBOL        IBPSTACK
  N:0100H         SYMBOL        IBPSTACKTOP
  N:0100H         SYMBOL        IDATALEN
  C:14D7H         SYMBOL        IDATALOOP
  N:0000H         SYMBOL        PBPSTACK
  N:0100H         SYMBOL        PBPSTACKTOP
  N:0000H         SYMBOL        PDATALEN
  N:0000H         SYMBOL        PDATASTART
  N:0000H         SYMBOL        PPAGE
  N:0000H         SYMBOL        PPAGEENABLE
  D:00A0H         SYMBOL        PPAGE_SFR
  D:0081H         SYMBOL        SP
  C:14D4H         SYMBOL        STARTUP1
  N:0000H         SYMBOL        XBPSTACK
  N:0000H         SYMBOL        XBPSTACKTOP
  N:0700H         SYMBOL        XDATALEN
  C:14E2H         SYMBOL        XDATALOOP
  N:0000H         SYMBOL        XDATASTART
  C:0000H         LINE#         126
  C:14D4H         LINE#         133
  C:14D6H         LINE#         134
  C:14D7H         LINE#         135
  C:14D8H         LINE#         136
  C:14DAH         LINE#         140
  C:14DDH         LINE#         141
  C:14DFH         LINE#         145
  C:14E1H         LINE#         147
  C:14E2H         LINE#         148
  C:14E3H         LINE#         149
  C:14E4H         LINE#         150
  C:14E6H         LINE#         151
  C:14E8H         LINE#         185
  C:14EBH         LINE#         196
  -------         ENDMOD        ?C_STARTUP

  -------         MODULE        ?C?CLDPTR
  C:03EBH         PUBLIC        ?C?CLDPTR
  -------         ENDMOD        ?C?CLDPTR

  -------         MODULE        ?C?CSTPTR
  C:0404H         PUBLIC        ?C?CSTPTR
  -------         ENDMOD        ?C?CSTPTR

  -------         MODULE        ?C?UIDIV
  C:0416H         PUBLIC        ?C?UIDIV
  -------         ENDMOD        ?C?UIDIV

  -------         MODULE        ?C?SIDIV
  C:046BH         PUBLIC        ?C?SIDIV
  -------         ENDMOD        ?C?SIDIV

  -------         MODULE        ?C?IILDX
  C:04A1H         PUBLIC        ?C?IILDX
  -------         ENDMOD        ?C?IILDX

BL51 BANKED LINKER/LOCATER V6.22                                                      11/12/2019  18:30:58  PAGE 73


  -------         MODULE        ?C?ILDIX
  C:04B7H         PUBLIC        ?C?ILDIX
  -------         ENDMOD        ?C?ILDIX

  -------         MODULE        ?C?LMUL
  C:04CDH         PUBLIC        ?C?LMUL
  -------         ENDMOD        ?C?LMUL

  -------         MODULE        ?C?ULDIV
  C:0558H         PUBLIC        ?C?ULDIV
  -------         ENDMOD        ?C?ULDIV

  -------         MODULE        ?C?SLDIV
  C:1BD2H         PUBLIC        ?C?SLDIV
  -------         ENDMOD        ?C?SLDIV

  -------         MODULE        ?C?SLCMP
  C:05EAH         PUBLIC        ?C?SLCMP
  -------         ENDMOD        ?C?SLCMP

  -------         MODULE        ?C?ULSHR
  C:0600H         PUBLIC        ?C?ULSHR
  -------         ENDMOD        ?C?ULSHR

  -------         MODULE        ?C?LSTXDATA
  C:0613H         PUBLIC        ?C?LSTXDATA
  -------         ENDMOD        ?C?LSTXDATA

  -------         MODULE        ?C?LSTKXDATA
  C:061FH         PUBLIC        ?C?LSTKXDATA
  -------         ENDMOD        ?C?LSTKXDATA

  -------         MODULE        PRINTF
  X:0015H         PUBLIC        ?_PRINTF517?BYTE
  X:0015H         PUBLIC        ?_PRINTF?BYTE
  X:0015H         PUBLIC        ?_SPRINTF517?BYTE
  X:0015H         PUBLIC        ?_SPRINTF?BYTE
  C:00F1H         PUBLIC        _PRINTF
  C:00F1H         PUBLIC        _PRINTF517
  C:00EBH         PUBLIC        _SPRINTF
  C:00EBH         PUBLIC        _SPRINTF517
  -------         ENDMOD        PRINTF

  -------         MODULE        ?C?CLDOPTR
  C:0650H         PUBLIC        ?C?CLDOPTR
  -------         ENDMOD        ?C?CLDOPTR

  -------         MODULE        ?C?PLDIXDATA
  C:067DH         PUBLIC        ?C?PLDIXDATA
  -------         ENDMOD        ?C?PLDIXDATA

  -------         MODULE        ?C?PSTXDATA
  C:0694H         PUBLIC        ?C?PSTXDATA
  -------         ENDMOD        ?C?PSTXDATA

  -------         MODULE        ?C?CCASE
  C:069DH         PUBLIC        ?C?CCASE
BL51 BANKED LINKER/LOCATER V6.22                                                      11/12/2019  18:30:58  PAGE 74


  -------         ENDMOD        ?C?CCASE

*** WARNING L6: XDATA SPACE MEMORY OVERLAP
    FROM:    1000H
    TO:      101BH

Program Size: data=16.4 xdata=199 code=9870
LINK/LOCATE RUN COMPLETE.  1 WARNING(S),  0 ERROR(S)
