BL51 BANKED LINKER/LOCATER V6.22.2.0                                                    10/01/2022  09:28:08  PAGE 1


BL51 BANKED LINKER/LOCATER V6.22.2.0, INVOKED BY:
C:\KEIL_V5\C51\BIN\BL51.EXE .\Objects\STARTUP.obj, .\Objects\main.obj TO .\Objects\LED PRINT (.\Listings\LED.m51) RAMSIZ
>> E (256)


MEMORY MODEL: SMALL


INPUT MODULES INCLUDED:
  .\Objects\STARTUP.obj (?C_STARTUP)
  .\Objects\main.obj (MAIN)


LINK MAP OF MODULE:  .\Objects\LED (?C_STARTUP)


            TYPE    BASE      LENGTH    RELOCATION   SEGMENT NAME
            -----------------------------------------------------

            * * * * * * *   D A T A   M E M O R Y   * * * * * * *
            REG     0000H     0008H     ABSOLUTE     "REG BANK 0"
            IDATA   0008H     0001H     UNIT         ?STACK

            * * * * * * *   C O D E   M E M O R Y   * * * * * * *
            CODE    0000H     0003H     ABSOLUTE     
            CODE    0003H     0038H     UNIT         ?PR?_DELAY_MS?MAIN
            CODE    003BH     0036H     UNIT         ?PR?MAIN?MAIN
            CODE    0071H     000CH     UNIT         ?C_C51STARTUP
            CODE    007DH     000BH     UNIT         ?PR?DELAY1MS?MAIN



OVERLAY MAP OF MODULE:   .\Objects\LED (?C_STARTUP)


SEGMENT
  +--> CALLED SEGMENT
---------------------
?C_C51STARTUP
  +--> ?PR?MAIN?MAIN

?PR?MAIN?MAIN
  +--> ?PR?_DELAY_MS?MAIN

?PR?_DELAY_MS?MAIN
  +--> ?PR?DELAY1MS?MAIN



SYMBOL TABLE OF MODULE:  .\Objects\LED (?C_STARTUP)

  VALUE           TYPE          NAME
  ----------------------------------

  -------         MODULE        ?C_STARTUP
  C:0071H         SEGMENT       ?C_C51STARTUP
  I:0008H         SEGMENT       ?STACK
  C:0000H         PUBLIC        ?C_STARTUP
BL51 BANKED LINKER/LOCATER V6.22.2.0                                                  10/01/2022  09:28:08  PAGE 2


  D:00E0H         SYMBOL        ACC
  D:00F0H         SYMBOL        B
  D:0083H         SYMBOL        DPH
  D:0082H         SYMBOL        DPL
  N:0000H         SYMBOL        IBPSTACK
  N:0100H         SYMBOL        IBPSTACKTOP
  N:0080H         SYMBOL        IDATALEN
  C:0074H         SYMBOL        IDATALOOP
  N:0000H         SYMBOL        PBPSTACK
  N:0100H         SYMBOL        PBPSTACKTOP
  N:0000H         SYMBOL        PDATALEN
  N:0000H         SYMBOL        PDATASTART
  N:0000H         SYMBOL        PPAGE
  N:0000H         SYMBOL        PPAGEENABLE
  D:00A0H         SYMBOL        PPAGE_SFR
  D:0081H         SYMBOL        SP
  C:0071H         SYMBOL        STARTUP1
  N:0000H         SYMBOL        XBPSTACK
  N:0000H         SYMBOL        XBPSTACKTOP
  N:0000H         SYMBOL        XDATALEN
  N:0000H         SYMBOL        XDATASTART
  C:0000H         LINE#         126
  C:0071H         LINE#         133
  C:0073H         LINE#         134
  C:0074H         LINE#         135
  C:0075H         LINE#         136
  C:0077H         LINE#         185
  C:007AH         LINE#         196
  -------         ENDMOD        ?C_STARTUP

  -------         MODULE        MAIN
  C:0000H         SYMBOL        _ICE_DUMMY_
  D:0093H         PUBLIC        P0M1
  D:0080H         PUBLIC        P0
  D:0090H         PUBLIC        P1
  D:00A0H         PUBLIC        P2
  D:00B0H         PUBLIC        P3
  D:00C0H         PUBLIC        P4
  C:007DH         PUBLIC        Delay1ms
  D:00C8H         PUBLIC        P5
  B:0080H.5       PUBLIC        LED_R
  D:00A8H         PUBLIC        IE
  B:0080H.6       PUBLIC        LED_Y
  D:00B8H         PUBLIC        IP
  D:00D8H         PUBLIC        CCON
  C:003BH         PUBLIC        main
  D:0098H         PUBLIC        SCON
  D:0088H         PUBLIC        TCON
  C:0027H         PUBLIC        _delay_ms
  D:00D0H         PUBLIC        PSW
  B:0080H.7       PUBLIC        LED_G
  D:0094H         PUBLIC        P0M0
  -------         PROC          DELAY1MS
  -------         DO            
  D:0007H         SYMBOL        i
  D:0006H         SYMBOL        j
  -------         ENDDO         
BL51 BANKED LINKER/LOCATER V6.22.2.0                                                  10/01/2022  09:28:08  PAGE 3


  C:007DH         LINE#         17
  C:007DH         LINE#         18
  C:007DH         LINE#         21
  C:007EH         LINE#         22
  C:007FH         LINE#         23
  C:0081H         LINE#         24
  C:0083H         LINE#         26
  C:0083H         LINE#         27
  C:0085H         LINE#         28
  C:0087H         LINE#         29
  -------         ENDPROC       DELAY1MS
  C:0023H         SYMBOL        L?0015
  -------         PROC          L?0014
  -------         ENDPROC       L?0014
  C:0023H         SYMBOL        L?0015
  -------         PROC          _DELAY_MS
  D:0004H         SYMBOL        ms
  C:0027H         LINE#         32
  C:002BH         LINE#         33
  C:002BH         LINE#         34
  C:0035H         LINE#         35
  C:0035H         LINE#         36
  C:0038H         LINE#         37
  C:003AH         LINE#         38
  -------         ENDPROC       _DELAY_MS
  -------         PROC          MAIN
  C:003BH         LINE#         41
  C:003BH         LINE#         42
  C:003BH         LINE#         43
  C:003EH         LINE#         44
  C:0040H         LINE#         46
  C:0040H         LINE#         47
  C:0040H         LINE#         48
  C:0042H         LINE#         49
  C:0046H         LINE#         51
  C:0046H         LINE#         52
  C:0046H         LINE#         53
  C:0046H         LINE#         54
  C:0046H         LINE#         56
  C:0046H         LINE#         57
  C:0046H         LINE#         58
  C:0046H         LINE#         59
  C:0049H         LINE#         61
  C:004BH         LINE#         62
  C:004EH         LINE#         63
  C:0050H         LINE#         64
  C:0054H         LINE#         66
  C:0054H         LINE#         67
  C:0054H         LINE#         68
  C:0054H         LINE#         69
  C:0054H         LINE#         71
  C:0054H         LINE#         72
  C:0054H         LINE#         73
  C:0054H         LINE#         74
  C:0057H         LINE#         76
  C:0059H         LINE#         77
  C:005BH         LINE#         78
BL51 BANKED LINKER/LOCATER V6.22.2.0                                                  10/01/2022  09:28:08  PAGE 4


  C:0062H         LINE#         79
  C:0064H         LINE#         81
  C:0066H         LINE#         82
  C:006DH         LINE#         83
  C:006FH         LINE#         84
  -------         ENDPROC       MAIN
  -------         ENDMOD        MAIN

Program Size: data=9.0 xdata=0 code=136
LINK/LOCATE RUN COMPLETE.  0 WARNING(S),  0 ERROR(S)
