:03000000021A22BF
:0C1A2200787FE4F6D8FD758155021A6942
:100B4500608003800000000000000000030000003A
:100B5500030000000307FFFF0307FFFF030000C0BA
:100B6500030000C07FF800C07FF800C0030000C08C
:100B7500030000C0030000C0030000C0030000C064
:100B8500031800C003FC00C007F000C03F8000C090
:100B9500FF0000C0630000C0030000C0030000C0E8
:100BA500030000C0030000C0030000C0030000C034
:100BB500030001C00300FF807F00FF007E000000EE
:100BC500000000006080030000000000000100003C
:100BD500000380000001C0000001E0003FFFFFFEB0
:100BE5003FFFFFFE30000006300000063008080613
:100BF500303C1E0600780F8001F003E003C000F0D2
:100C05000F80007C3E00001E3C00000F1000000617
:100C150007FFFFF007FFFFF00001800000018000E3
:100C250000018000000180000001800000018000BB
:100C350000018000000180003FFFFFFE3FFFFFFE37
:100C450000000000000000006080040000000000BB
:100C5500000000000001800000018000000180000C
:100C650000018000000180001FFFFFFC1FFFFFFC4B
:100C7500000180000001800000018000000180006B
:100C850000018000000180007FFFFFFF7FFFFFFF65
:100C95000001800000018000000180000C01801827
:100CA5000C0180180C0180180C0180180C018018AB
:100CB5000C0180180C0180180C0180180FFFFFF83B
:100CC5000FFFFFF8000000180000000060800280A0
:100CD500000000000000000000018000000180000D
:100CE50000018000000180000001800000018000FB
:100CF5001FFFFFFC1FFFFFFC1801800C1801800C73
:100D05001801800C1801800C1801800C1801800C4A
:100D15001801800C1801800C1FFFFFFC1FFFFFFC52
:100D25001801800C1801800C000180000001800072
:100D350000018000000180000001800000018000AA
:100D4500000180000001800000018000000180009A
:070D55000116000217000067
:101E7B00E4F594F593F592F591F596F595F5B2F5A4
:0A1E8B00B1F5B4F5B3F5CAF5C922AC
:07158200FB7DD07C007E0020
:081589008E438F448C458D4612
:10159100C3EB940AEA9400500CE4F54AF549F54886
:1015A1008B47021650C3EB9464EA9400500EE4F5A5
:1015B1004AF549FC7D0AAF03AE02802DC3EB94E8E6
:1015C100EA94035033E4F54AFC7D64AF03AE0212A2
:1015D100053B8F497C007D64AF03AE0212053B7E63
:1015E100007F0ACFCDCFCECCCE12053B8F487C00F9
:1015F1007D0AAF03AE028052C3EB9410EA942750E8
:101601004E7C037DE8AF03AE0212053B8F4A7C039B
:101611007DE8AF03AE0212053B7E007F64CFCDCFE4
:10162100CECCCE12053B8F497C007D64AF03AE0268
:1016310012053B7E007F0ACFCDCFCECCCE12053B2B
:101641008F48AE02AF037C007D0A12053B8D47E552
:101651004AFB7A00AD46AC45AF44AE431218F7E5FC
:10166100442410FFE43543FEE549FB7A00AD46AC66
:10167100451218F7E5442420FFE43543FEE548FB15
:101681007A00AD46AC451218F7E5442430FFE43545
:0E16910043FEE547FB7A00AD46AC450218F774
:03003B00021EF4AE
:101EF40030DA06C2DA7516013230D903C2D932306B
:051F0400D802C2D83232
:101EDE0053A2DF43A210E4F5D875D90875DC11754D
:061EEE00DB1175DA112280
:101DCC007F01121E408F437F02121E40EFFE7C00EB
:101DDC00E42543FFEC3EFE121C7C121C3A7C017D78
:081DEC0010120590AE04AF05D2
:011DF40022CC
:101DF50043BA8043F12090FCA2740FF090FCA0043C
:101E0500F0A37458F090FCC87408F0A3742CF0A3E8
:091E1500E4F0A3F0A374C0F02274
:0300A300021E5EDC
:101E5E00C0E00518E5187002051764644517700A8E
:0D1E6E00F517F51853FEEF53D13FD0E032C9
:0D1F7E0043D12075D34875D27743AF402280
:10060700C200121E7B7F647E00121F09121DF512A5
:100617001F7E121EDE121F8B12169F7F1F7E001277
:100627001D63C2B4750EFF750FE075100075111FBD
:1006370012003E754900754AEF754BF8754C007B03
:100647003F7A017DD07C00E4FFFE121CD174EEF5E9
:100657000EF50F752BA0752AA0752DBB752CBBAF9A
:100667002B7E00AD2D7C00754900754ACE7BA07AA4
:1006770000120FE97B06AD2DAF2B12131474FFF593
:100687000EF50F7510F87511007B017A0379807DDF
:10069700D07C00E4FFFE121B337B017A0379007DD7
:1006A700D07C007F207E00121B337B017A04790007
:1006B7007DD07C007FA07E00121B337B017A0279FC
:1006C700807DD07C007FC07E00121B33E4F53EF5B1
:1006D7003FF540F541750E07750FE07510F8F511F8
:1006E700AB3FAA3E7DD0FC7F50FE121589AB41AAD5
:1006F700407DD07C007FF07E00121589D2AF054285
:10070700D3E5429402748094804003E4F542121DBD
:10071700CC8E2E8F2FE4F529C3E529948C74809411
:10072700804003020B32E529FD7C008C30F531ABAC
:1007370042AF2FAE2E12178D121AAE8F248E238D35
:10074700228C21E4FBFA79A0784012019E8F248E37
:10075700238D228C21852A2B852C2DE4FFFEFDFC81
:10076700AB24AA23A922A82112034440647F9A7EBE
:10077700997D997C3FAB24AA23A922A8211203447F
:10078700600E400C75249A75239975229975213F3F
:10079700AF24AE23AD22AC21121204E4FBFA79A0F8
:1007A700784112019EA804A905AA06AB07E4FFFE3B
:1007B7007D207C431200A912040C8F2AAB24AA23A4
:1007C700A922A8217FC37EF57DC87C3F1200A9809E
:1007D7005B7F9A7E997D997CBFAB24AA23A922A827
:1007E70021120344500C75249A7523997522997523
:1007F70021BFAF24AE23AD22AC211203BD121204D8
:10080700E4FBFA79A0784112019EE4FBFA7920789B
:10081700431200AD12040C8F2A7FC37EF57DC87C7E
:100827003FAB24AA23A922A8211200AD121204E487
:10083700FBFA79A0784112019EA804A905AA06AB84
:1008470007E4FFFE7D4F7C431200A912040C8F2C96
:10085700750E00750F1FAF2B7E00AD2D7C007549FF
:1008670000754ACE7BA07A00120FE97B06AD2DAF4B
:100877002B12131474EEF50EF50FAF2A7E00AD2C74
:100887007C00754900754ACE7BA07A00120FE97B80
:1008970006AD2CAF2A121314E51664016003020B90
:1008A7002DF516AF2AFEC3EF94A074809480400301
:1008B700020940C374A09FFDE49EFC1203D3C00449
:1008C700C005C006C007C374CE952CFDE49400FC98
:1008D7001203D3D003D002D001D0001202A78F2871
:1008E7008E278D268C25C374D09529FDE49400FCB2
:1008F7001203D3AB28AA27A926A8251202A78F3946
:100907008E388D378C36E4FFFE7D207C43AB39AAC9
:1009170038A937A836120344600A4008E4F532F5CF
:10092700330209B1AB39AA38A937A836E4FFFE7DEF
:10093700207C431200A90209EFE52A2460FDE43474
:10094700FFFC1203D3C004C005C006C007C374CEA2
:10095700952CFDE49400FC1203D3D003D002D00100
:10096700D0001202A78F288E278D268C25C374D01E
:100977009529FDE49400FC1203D3AB28AA27A926E6
:10098700A8251202A78F398E388D378C36E4FFFEE3
:100997007D207C43AB39AA38A937A83612034460B7
:1009A70035403375320175333FE4FFFE7D207C43CC
:1009B700AB28AA27A926A82512019EA804A905AA3B
:1009C70006AB07E4FFFE7D507C431200A912040C1E
:1009D7008E348F35801FE4FFFE7D207C43AB39AA20
:1009E70038A937A8361200AD12040C8E328F337532
:1009F7003400852935E52AFB7A00754900852C4A9C
:100A0700AD35AC34AF33AE32120FE9852E3A852FB0
:100A17003BE52F2430FFE4352EFEC3E53B9FE53A47
:100A27009E504485303C85313DE5312430FFE43527
:100A370030FEC3E53D9FE53C9E501FAD3DAC3CAF4E
:100A47003BAE3A121D1BBEEE07BFEE04D200800A72
:100A5700053DE53D70D3053C80CF20000A053BE509
:100A67003B70AE053A80AA300060C20090FCA074CB
:100A77000CF0A374F8F090FCC87406F0A3747CF033
:100A870043FE1043D180C2877F0A7E00121F09D21E
:100A970087750E00750F1FE52AFB7A0075490085DB
:100AA7002C4AAD35AC34AF33AE32120FE90541E510
:100AB7004170020540750E07750FE07510F8751146
:100AC70000AA407FF0121582806190FCA07410F09C
:100AD700A37458F090FCC87408F0A3742CF043FE7C
:100AE7001043D180C2867F0A7E00121F09D2867505
:100AF7000E00750F1FE52AFB7A00754900852C4A01
:100B0700AD35AC34AF33AE32120FE9053FE53F7078
:100B170002053E750E07750FE07510F8751100AAEE
:100B27003E7F50121582052902071FE529FD7C002B
:0E0B37007B1F7A00AF2FAE2E121DA002070505
:0A1FA40000007F2E7E71DEFEDFFCE0
:011FAE002210
:101F0900AD07AC06ED1DAE0470011C4E6005121F35
:041F1900A480F1228D
:0D1F8B0053A2FB43A20875CED075CDC02235
:0B1EAF00AF53AE52AD51AC501205D441
:0D1EBA008FCFE5CD30E7FB75CDC0AFCF2257
:0E1BED008B4D8A4E894F8F538E528D518C50E6
:101BFB00C2CC7F03121EBA7810121EAF7808121EC9
:101C0B00AFAF53121EBAE4FDFCC3ED9555EC9554E2
:101C1B00501A7FFF121EBAAB4DAA4EA94F8D828C64
:0E1C2B0083EF1205070DBD00010C80DDD2CC49
:011C39002288
:0C1F980090FE82E030E6F9E054BFF02239
:0900320090FE817401F0021F9898
:0E1F700090FE86EFF090FE817402F0021F9842
:0B1F1D00121F70121F28AF06121F7069
:091F280090FE817403F0021F9881
:0F1F520090FE817404F0121F9890FE87E0FF222A
:0F1F610090FE827401F090FE817405F0021F98CB
:091FAF0090FE817406F0021F98F7
:101E9500AE05AD071200327F24121F70121F28AF46
:0A1EA50005121F1D121FAF7F00225F
:021E4000AE07EB
:101E42001200327F24121F1D1200327F25121F70D2
:0C1E5200121F28121F52121F61021FAF46
:101B9300E4F543F5447DB67F36121E957F057E003E
:101BA300121F09E4FD7F36121E957F0A7E00121F65
:101BB30009E4F544C3E544946474809480501A7F27
:101BC30033121E408F43E54330E00320E20B7F02D4
:101BD3007E00121F09054480DBC3E54494647480CE
:091BE300948050037F00227F0171
:011BEC0022D6
:10003E00E4FF43BAB090FE8074FFF090FE82E4F0CD
:10004E00121E40EFFB7A0064E770067DC07F1180C0
:10005E0037EB64904A7034121B937D807F11121E11
:10006E00957D847F11121E957D207F4A121E957DEF
:10007E00017F56121E957D807F5F121E957F027E38
:10008E0000121F09E4FD7F5F121E957F467E00025F
:02009E001F0938
:101991007F01121E407543008F447F02121E407565
:1019A10045008F467F03121E407547008F487F0414
:1019B100121E407549008F4A7F05121E40754B006B
:1019C1008F4C7F06121E40754D008F4EE5464543F4
:1019D100F508E544F509E54A4547F50AE548F50BFB
:1019E100E54E454BF50CE54CF50DAE08E5097802E1
:1019F100CEA2E713CE13D8F8F5098E08AE0AE50B8F
:101A01007802CEA2E713CE13D8F8F50B8E0AAE0CEE
:101A1100E50D7802CEA2E713CE13D8F8F50D8E0CA2
:011A210022A2
:101AAE007F007E007D007C00121991AC0AAD0BEC1C
:101ABE001203D3C004C005C006C007AC0AAD0BECC0
:101ACE001203D3D003D002D001D00012019EC00465
:101ADE00C005C006C007AC0CAD0DEC1203D3C0049C
:101AEE00C005C006C007AC0CAD0DEC1203D3D0037D
:101AFE00D002D001D00012019ED003D002D001D06E
:101B0E00001200AD121851C004C005C006C007ACCB
:101B1E0008AD09EC1203D3D003D002D001D00012CD
:051B2E0002A702147A79
:100D5C00020E00000210FFFF628000000000000085
:100D6C000000000000000000000000000FFA3FFF30
:100D7C007007700770077007700760010000400370
:100D8C007007700770077007700770022FF81FF854
:100D9C000000000000000000000000000000000047
:100DAC0000000000000000000000004000C001C076
:100DBC0001C001C001C001C001C000C0000000C0E2
:100DCC0001C001C001C001C001C001C000C0004091
:100DDC000000000000000000000000000000000007
:100DEC000000000000000000000000001FF83FFAA7
:100DFC00000700070007000700070FF31FFC600047
:100E0C007000700070007000700020001FF81FFE52
:100E1C0000000000000000000000000000000000C6
:100E2C000000000000000000000000003FF81FFC64
:100E3C00000E000E000E000E000E3FE63FF80006FE
:100E4C00000E000E000E000E000E00041FF83FF8FE
:100E5C000000000000000000000000000000000086
:100E6C00000000000000000000000001600370079B
:100E7C007007700770077007700767F31FFC00039B
:100E8C000007000700070007000700070003000128
:100E9C000000000000000000000000000000000046
:100EAC000000000000000000000000001FFC3FF8E4
:100EBC007000700070007000700067F81FFC000379
:100ECC000007000700070007000700021FF83FF8A3
:100EDC000000000000000000000000000000000006
:100EEC000000000000000000000000001FFC3FF8A4
:100EFC007000700070007000700067F81FFC6003D9
:100F0C007007700770077007700770020FF80FF802
:100F1C0000000000000000000000000000000000C5
:100F2C000000000000000000000000007FE43FCC47
:100F3C00001C001C001C001C001C000C0000000C01
:100F4C00001C001C001C001C001C001C000C0004DD
:100F5C000000000000000000000000000000000085
:100F6C000000000000000000000000000FF83FFA35
:100F7C007007700770077007700767E31FFC40036A
:100F8C007007700770077007700770020FF80FF882
:100F9C000000000000000000000000000000000045
:100FAC000000000000000000000000000FF83FFAF5
:100FBC007007700770077007700763E30FF8100174
:100FCC000007000700070007000700021FF83FF8A2
:0C0FDC0000000000000000000000000009
:100003001200257F311200257F331200257F48120D
:1000130000257F171200257F141200250F120025DB
:020023007F312B
:0D002500D2C9C2C88FA0C2C2D2C2D2C822A6
:041F31007F2C7E0083
:0D1F3500C2C9C2C88FA0C2C2D2C2D2C82287
:0F1F420075A0FFD2C9C2C8C2C4D2C4AFA0D2C852
:011F5100226D
:10169F007F787E00121F097F117E00121F357F7821
:1016AF00121F097F367E00121F357F601200257FC3
:1016BF003A121F357F051200257FB2121F357F0C9E
:1016CF00120025120025E4FF1200257F331200259A
:1016DF001200257FB7121F357F351200257FBB12F1
:1016EF001F357F291200257FC2121F357F0112007F
:1016FF00257FC3121F357F191200257FC4121F3596
:10170F007F201200257FC5121F357F1A1200257FFB
:10171F00C6121F357F1F1200257FD0121F357FA4E1
:10172F001200257FA11200257FE0121F357FD012F6
:10173F0000257F081200257F0E1200257F09120059
:10174F00251200257F051200037F341200257FE14B
:10175F00121F357FD01200257F081200257F0E1231
:10176F0000257F091200251200257F151200037F27
:0E177F00341200257F21121F357F29021F35ED
:101C8700EF2401FBE43EFAED2401F555E43CF5545D
:101C97008F828E837F2A7E00121F35E583FF120015
:101CA70025AF82120025EAFF120025AF0312002597
:101CB7007F2B121F35ECFF120025AF05120025E51B
:0A1CC70054FF120025AF550200255E
:101EC700AD07AC06D2C9C2C88CA0C2C2D2C28DA00F
:071ED700C2C2D2C2D2C82230
:041D63008E438F44D8
:101D67007554007555EF7B3F7A01E4FDFCFFFE12C9
:101D77001C97121F31E4FB1A900000AF44AE4312C8
:101D87001EC7A3E582B440F3E583B401EE0BBB00A5
:081D9700010AEB64F04A70E060
:011D9F002221
:101E1E007E00E5452543FFEE3544FEE97C0025476F
:051E2E00FDEC3546FC4F
:0D1E3300121C87121F31AF0FAE0E021EC72A
:101D1B00121C877F2E7E00121F35121F42AE071238
:101D2B001F42AE07121F42AD07121F42AC075306EC
:101D3B00F85305FC5304F8AF06EFFAAF05EF75F057
:101D4B0008A4FFE5F04202EFFBEC131313541FFF43
:071D5B00EF4203AE02AF03EB
:011D6200225E
:0418F7008A4B8B4C41
:1018FB00EF240FFBE43EFAED241F121C91121F3153
:10190B00AE4BE54C7802C333CE33CED8F9F54C8EC3
:10191B004BE4F9E9C39404748094805068E4FBEBC6
:10192B00C39410748094805051E54CC4F8540FC884
:10193B0068FFE54BC454F048FE74002FF582740029
:10194B003EF583E5822BF582E43583F583E0F54D97
:10195B00E4FAEAC3940874809480501BE54D30E799
:10196B0006AF0FAE0E8004AF11AE10121EC7E54DC1
:10197B0025E0F54D0A80DB0B80A5054CE54C70028C
:05198B00054B09808EF0
:011990002234
:061B33008B438A44894542
:101B3900EF241FFBE43EFAED241F121C91121F3102
:101B4900E4F546F547AB43AA44A94585478285464E
:101B5900831204DAF9E4FBFAE930E706AF0FAE0EB7
:101B69008004AF11AE10121EC7E925E0F90BBB00C6
:101B7900010AEB64084A70E00547E547700205462B
:091B8900C39480E546940040BCC1
:011B92002230
:08178D008E438F448C458D460C
:10179500AF037E007C127D00120529E42FFFE43E95
:1017A500FEED3460FDE4338F4A8E498D48F547E5FB
:1017B50044242FFBE43543FAE546242FF555E4355B
:1017C50045F554AD46AC45AF44AE43121C97121FC8
:1017D50031E4F54BF54C7B017A047980AF4AAE498B
:1017E500AD48AC47755402755500121BEDE4FBFA84
:1017F500C3EA9402502B74802BF58274043AF58366
:10180500E0FE74812BF58274043AF583E07C0024B4
:1018150000FFEC3EFE121EC774022BFBE43AFA8071
:10182500CFE4254AF54AE5493402F549E43548F55A
:1018350048E43547F547054CE54C7002054BC39424
:0718450009E54B9400408F00
:01184C002279
:041DA0008A438B44A3
:101DA400EF242FFBE43EFAED242F121C91121F3175
:101DB400E4FBFAAF44AE43121EC70BBB00010AE4B6
:071DC400B503F0EAB412ECD4
:011DCB0022F5
:040FE9008E438F4460
:100FED00E4900480F0A3F0A3F0A3F0C3EB9544FFCD
:100FFD00EA9543FEA3F0A3EFF0C3E54A9D90048765
:10100D00F0E5499C900486F090048EE543F0A3E54D
:10101D0044F0A3ECF0A3EDF0D3EF9400EE648094D4
:10102D0080400A90048AE4F0A304F08028900484A0
:10103D00E0FEA3E0FF4E700890048AF0A3F0801547
:10104D0074FF90048AF0A3F0C3E49FFFE49E900424
:10105D0084F0A3EFF0900486E0FEA3E0FFD39400AC
:10106D00EE64809480400A90048CE4F0A304F08038
:10107D0021EF4E700890048CF0A3F0801574FF9052
:10108D00048CF0A3F0C3E49FFFE49E900486F0A3CC
:10109D00EFF0900486E0FEA3E0FF900484E0FCA353
:1010AD00E0FDD39FEE6480F8EC6480989004884056
:1010BD0007ECF0A3EDF08005EEF0A3EFF0E4F54BB7
:1010CD00F54C900489E02401FF900488E03400FE83
:1010DD00D3E54C9FE54B9E40030211A590048EE095
:1010ED00FEA3E0FFA3E0FCA3E0FD121E33900484F9
:1010FD00E0FEA3E0FF900481E02FF0900480E03E3D
:10110D00F0900486E0FEA3E0FF900483E02FF090C2
:10111D000482E03EF0900488E0FEA3E0FF9004809E
:10112D00E0FCA3E0FDD39FEE6480F8EC6480984072
:10113D0020ED9FFFEC9E900480F0A3EFF090048AC9
:10114D00E0FEA3E0FF90048FE02FF090048EE03ED0
:10115D00F0900488E0FEA3E0FF900482E0FCA3E0A1
:10116D00FDD39FEE6480F8EC6480984020ED9FFFE6
:10117D00EC9E900482F0A3EFF090048CE0FEA3E0CF
:10118D00FF900491E02FF0900490E03EF0054CE5C7
:08119D004C7002054B0210CF5B
:0111A5002227
:041CD1008A478B486B
:101CD500854954854A55121C97121F31E4FBFAE5D4
:101CE500482401FFE43547FEC3EB9FEA9E5026904A
:101CF5000000E54A2401FFE43549FEC3E5829FE57E
:101D0500839E500AAF4CAE4B121EC7A380E40BBB9B
:051D150000010A80CA74
:011D1A0022A6
:041314008F43A90555
:10131800E4F544F545EB7E008E46F54725E0FFEE03
:1013280033FEC374039FF549E49EF548D3E545951C
:1013380047E5466480F8E544648098400302145900
:10134800C3E5439547FFE49546FEE9C39545FDE4AB
:101358009544FC121E337E00E5472543FFEE3546D3
:10136800FEE9C39545FDE49544FC121E33C3E543ED
:101378009545FFE49544121E28C3E5439547FFE4CD
:101388009546FEE9C39545FDE49544FC121E33C31A
:10139800E5439545FFE49544FEE9C39547FDE4958B
:1013A80046FC121E337E00E5472543FFEE3546FE18
:1013B800E97C002545FDEC3544FC121E337E00E532
:1013C800452543FFEE3544FEE9C39547FDE49546C0
:1013D800FC121E33121E1EC3E5439547FFE49546D3
:1013E800FEE97C002545FDEC3544FC121E3305451D
:1013F800E54570020544C3E54864809480501FAEFB
:1014080044E5457802C333CE33CED8F92406FFE449
:101418003EFEEF2549F549EE3548F548802DC3E5F0
:10142800459547FFE5449546FEEF7802C333CE3332
:10143800CED8F9240AFFE43EFEEF2549F549EE35FA
:1014480048F548E547154770021546121E1E021357
:01145800345F
:011459002270
:1000A600020478E86480F8E933E83360110460F00C
:1000B600ED33EC337009E8FCE9FDEAFEEBFF2204C0
:1000C60060DED3EB9FEA9EE99DE8C2E78CF0C2F7BB
:1000D60095F0400CE8CCF8E9CDF9EACEFAEBCFFB87
:1000E60012044385D0F05804700320D5B3E8047099
:1000F600075002B2D502048292D5EC0460F7E4CC34
:10010600C0E0C398F8603B94186008400DD0E0FB4F
:1001160002045AE4FBFAC9FC8028E830E406E4C984
:10012600FBE4CAFCE830E305E4C9CACBFCE85407A3
:100136006010F8C3E913F9EA13FAEB13FBEC13FCAE
:10014600D8F130F52FC3E49CFCEF9BFFEE9AFEED51
:1001560099FDD0E0FBEF4E4D4C701222DB030204FA
:100166007FEC2CFCEF33FFEE33FEED33FDED30E795
:10017600EB02045AEF2BFFEE3AFEED39FDD0E0FB21
:1001860050130BBB0003020482ED13FDEE13FEEFCA
:0801960013FFEC13FC02045AF4
:10019E00EC4D6011E8497017ED33EC3304600DE45B
:1001AE00FCFFFEFD22E933E8330470F802047812F6
:1001BE00044358046009E4CC2481500628500902F7
:1001CE00048228400302047FC0E0EB4A7044B980E9
:1001DE0006D0E0FB02046EEF4E701CBD8008EBFFF4
:1001EE00EAFEE9FD80EBE98DF0A4FEE5F002028760
:1001FE00E9CDF9EAFEEBFFEF89F0A4FCE5F0CE893C
:10020E00F0A42EFFE435F0CD89F0A42DFEE435F0F8
:10021E008067EF4E7005BD80D780C3EF8BF0A4AC26
:10022E00F0EE8BF0A42CFCE435F0F8EF8AF0A42C61
:10023E00E5F038FCE433CB8DF0A42CFCE5F03BF874
:10024E00EE8AF0A42CFCE5F038F8E433CF89F0A464
:10025E002CFCE5F038CF3400CE89F0A42FFFE5F06A
:10026E003EFEE433C98DF0A42EFEE5F039CD8AF0C2
:10027E00A42FFFE5F03EFEE43DFD33D0E0FB50073A
:10028E000BBB000F020482EC2CFCEF33FFEE33FEAF
:06029E00ED33FD02045ADD
:1002A400020482EC5D046005E859047003020478DA
:1002B400120443580460F6EC4860F2EC7004FDFE4E
:1002C400FF22C860DB2481C85009C398600250062D
:1002D40002047F9850CAF582E9294B4A7005AB8223
:1002E40002046E75F0007C1A7880C3EF9BEE9AEDE1
:1002F40099400DC3EF9BFFEE9AFEED99FDE842F0A5
:10030400DC23ACF0D0E0FFD0E0FED0E0FDAB8220F7
:10031400E7101BEB60BAEC2CFCEF33FFEE33FEED81
:1003240033FD02045AE803F830E705C0F075F00025
:10033400EF2FFFEE33FEED33FD40B830E7C280AA65
:1003440074F8CC6480CCC86480C8F58204604FC360
:10035400EB9FF5F0EA9E42F0E99D42F0E89C45F0FF
:10036400603C501DE5825FFFE582D313CB5BCBF489
:100374002B5582FB50280ABA002409B900200880B2
:100384001DE5825BFBE582D313CF5FCFF4C3132F4C
:100394005582FF50090EBE00050DBD00010CC3EBD4
:1003A4009FF5F0EA9E42F0E99D42F0E89C45F0603A
:0903B40007CC4820E701B3EC225C
:1003BD00ED33EC33600A047003BD8004ECB2E7FC4E
:0103CD00220D
:1003CE0075F020800E75F010800575F0087D007EAA
:1003DE00007F003392D530D5031205C6EC334010A2
:1003EE00EF33FFEE33FEED33FDEC33FCD5F0ED22B3
:0E03FE00E5F0247EA2D513CC92E7CDCEFF22EF
:10040C00EDD2E7CD33EC3392D524814006E4FFFEE8
:10041C00FDFC22FCE4CFCECDCC24E0501174FF8047
:10042C00EDC3CC13CCCD13CDCE13CECF13CF0470E4
:07043C00F030D5DE0205C619
:10184D0002047822EDA2E7D2E7F9EC3340F260F31F
:10185D00B4FF08ED547F70E8020482F82481C2E0E1
:10186D00C0E0F40428FAC313FCED92E7FD8C438D20
:10187D00448E458F46EEA2E7E9BA7F02C3133400CA
:10188D009400FA75F091A4E5F013F494FE8AF0A497
:10189D0033E5F033248CD313FDE492E7FE7F007C17
:1018AD003F758302ECC0E0F8EDC0E0F9EEC0E0FA60
:1018BD00EFC0E0FBAC43AD44AE45AF461202A7D03E
:1018CD00E0FBD0E0FAD0E0F9D0E0F81200ADED6425
:1018DD0080FD30E7011CD583CBED33CC33F8D0E060
:0A18ED00A2E71328C313CC13FD2259
:1011A6003A70FA83BCAAE9E43E81E0F8BF9DE9E61D
:1011B6003F80000039283C1ABB9969663DA335E398
:1011C600BF255DE73FC90FDB418DDBCCC44936EE59
:1011D60045C9913FC5B0F83D3F800000C317F534BF
:1011E600452FFA73C60AFDDD12129504A2E192019B
:1011F6001420E0159011A6740412048D8026121294
:101206009530E102B20120E0EB8C438D448E458F90
:10121600469011BA740412048DA843A944AA45AB9A
:101226004612019EED4C6007300104EC6480FC22FE
:10123600121295C0E08C438D448E458F469011DE88
:10124600740312048DA843A944AA45AB4612019E15
:10125600ECC543FCEDC544FDEEC545FEEFC546FFB6
:101266009011CE740312048DD082A843A944AA45D6
:10127600AB46E58230E0071202A7B20180A6EFCBAB
:10128600FFEECAFEEDC9FDECC8FC1202A78095ED83
:1012960033EC547FCC33920124605007D0E0D0E089
:1012A6000204787B837AF97922783E12019EEDF961
:1012B60033ECF83324815011EFFBEEFA12040C12D2
:1012C60003CEECB2E7FC1200ADED33EC33602F2415
:1012D60003F8C313FCED92E7FDE82481E4501FEC0C
:1012E600F8EDF9EEFAEFFB12040CEF04C2E0FCF5A0
:1012F600821203D8ECB2E7FC1200ADE58203FAEDE8
:0E13060033EC3360071413FCED92E7FDEA228E
:10145A00BE1249253E4CCCCDBEAAAAAB3F800000A5
:10146A003E7ADBB03EED63383F24BC7D3F490FDB5B
:10147A00ED33ECC2E7CC339201B4FF13ED547F6035
:10148A00030204787FDB7E0F7DC97C3F021575C29B
:10149A0002C3947F401E7007EDD2E794904015EF87
:1014AA00FBEEFAEDF9ECF87F007E007D807C3F12BE
:1014BA0002A7D202ED33EC33248430E705E4C0E01E
:1014CA00806D04FAEDD2E754F0C333DAFD540734E1
:1014DA00002323C0E0CCC0E0F8EDC0E0F9EEC0E0A4
:1014EA00FAEFC0E0FBE41203D8EC24FEFC8C438D37
:1014FA00448E458F4612019E7B007A007980783FA0
:10150A001200ADECC543B2E7FCEDC544FDEEC5459E
:10151A00FEEFC546FFD0E0FBD0E0FAD0E0F9D0E01C
:10152A00F81200ADA843A944AA45AB461202A78CFB
:10153A00438D448E458F4690145A740312048DA825
:10154A0043A944AA45AB4612019ED0E0600F246627
:10155A00F582E43414F5831205F71200AD30020B5C
:10156A007BDB7A0F79C978BF1200ADED33EC3360BB
:08157A0006ECA20192E7FC223D
:10044300E9D2E7C933E833F892D5EDD2E7CD33ECFF
:0704530033FC5002B2D52278
:10045A00EC30E7100FBF000C0EBE00080DBD000403
:10046A000BEB6014A2D5EB13FCED92E7FD2274FFAF
:10047A00FCFDFEFF22E480F8A2D574FF13FC7D8008
:03048A00E480EF1C
:10048D00C0E0EFFBEEFAEDF9ECF812019ED0E0F5CD
:10049D00F0EFFBEEFAEDF9ECF81205E7A3A3A3A339
:1004AD00E8C0E0E9C0E0EAC0E0EBC0E0C0F0120156
:1004BD009E1205F7A3A3A3A31200ADD0F0D0E0FBCD
:0D04CD00D0E0FAD0E0F9D0E0F8D5F0D4226C
:101A2E00020607E493A3F8E493A34003F68001F2C1
:101A3E0008DFF48029E493A3F85407240CC8C333B9
:101A4E00C4540F4420C8834004F456800146F6DF88
:101A5E00E4800B0102040810204080900B45E47EC8
:101A6E00019360BCA3FF543F30E509541FFEE4937D
:101A7E00A360010ECF54C025E060A840B8E493A344
:101A8E00FAE493A3F8E493A3C8C582C8CAC583CA6F
:101A9E00F0A3C8C582C8CAC583CADFE9DEE780BE27
:010FE8000008
:1004DA00BB010CE58229F582E5833AF583E02250D7
:1004EA0006E92582F8E622BBFE06E92582F8E22221
:0D04FA00E58229F582E5833AF583E493223B
:10050700F8BB010DE58229F582E5833AF583E8F02A
:10051700225006E92582C8F622BBFE05E92582C8D6
:02052700F222BE
:10052900EF8DF0A4A8F0CF8CF0A428CE8DF0A42EE6
:02053900FE22A0
:10053B00BC000BBE0029EF8DF084FFADF022E4CCA4
:10054B00F875F008EF2FFFEE33FEEC33FCEE9DEC6D
:10055B00984005FCEE9DFE0FD5F0E9E4CEFD22EDB3
:10056B00F8F5F0EE8420D21CFEADF075F008EF2FFD
:10057B00FFED33FD4007985006D5F0F222C398FDEE
:05058B000FD5F0EA228B
:10059000C2D5EC30E709B2D5E4C39DFDE49CFCEE86
:1005A00030E715B2D5E4C39FFFE49EFE12053BC3BE
:1005B000E49DFDE49CFC800312053B30D507C3E4B9
:0605C0009FFFE49EFE22F5
:0E05C600C3E49FFFE49EFEE49DFDE49CFC2246
:1005D400E8600FECC313FCED13FDEE13FEEF13FF05
:0305E400D8F12229
:1005E700E493FC740193FD740293FE740393FF225A
:1005F700E493F8740193F9740293FA740393FB225A
:101C3A00AC12AD13AE14AF157810EC4D4E4F7004C4
:101C4A007CA57DA5C3EC13FCED13FDEE13FEEF138B
:101C5A00FF5010EC64CCFCED644CFDEE644EFEEFDC
:101C6A0064CEFFD8DF8C128D138E148F15EE547F3D
:0D1C7A00FE228E128F1374A5F514F51522AD
:00000001FF
