C51 COMPILER V9.01   SC92F844XB_IT                                                         01/08/2019 11:37:57 PAGE 1   


C51 COMPILER V9.01, COMPILATION OF MODULE SC92F844XB_IT
OBJECT MODULE PLACED IN ..\OUTPUT\sc92f844xB_it.obj
COMPILER INVOKED BY: C:\Keil\C51\BIN\C51.EXE ..\USER\C\sc92f844xB_it.c BROWSE INCDIR(..\..\SC92F844xB_Lib\inc;..\USER\H)
                    - DEBUG OBJECTEXTEND PRINT(..\LST\sc92f844xB_it.lst) OBJECT(..\OUTPUT\sc92f844xB_it.obj)

line level    source

   1          //************************************************************
   2          //  Copyright (c) 深圳市赛元微电子有限公司
   3          //      文件名称        : sc92f844xB_it.c
   4          //      作者            : 
   5          //      模块功能        : sc92F844xB_IT固件库函数C文件
   6          //      局部函数列表:
   7          //  最后更正日期: 2018/10/12
   8          //      版本            : V1.0   
   9          //************************************************************
  10          
  11          #include "sc92f844xB_gpio.h"
  12          #include "sc92f844xB_timer0.h"
  13          #include "sc92f844xB_timer1.h"
  14          #include "sc92f844xB_timer2.h"
  15          #include "sc92f844xB_adc.h"
  16          #include "sc92f844xB_btm.h"
  17          #include "sc92f844xB_pwm.h"
  18          #include "sc92f844xB_exti.h"
  19          #include "sc92f844xB_uart0.h"
  20          #include "sc92f844xB_ssi.h"
  21          
  22          void EXTI0Interrupt()           interrupt 0
  23          {
  24   1      
  25   1      }
  26          
  27          void Timer0Interrupt()          interrupt 1
  28          {
  29   1      
  30   1      }
  31          
  32          void EXTI1Interrupt()           interrupt 2
  33          {
  34   1      }
  35          
  36          void Timer1Interrupt()          interrupt 3
  37          {
  38   1      
  39   1      }
  40          
  41          void UART0Interrupt()           interrupt 4
  42          {
  43   1      
  44   1      }
  45          
  46          void Timer2Interrupt()          interrupt 5
  47          {
  48   1              TIM2_ClearFlag(TIM2_FLAG_TF2);                  //清除中断标志位TF2
  49   1              if(GPIO_ReadPin(GPIO0, GPIO_PIN_0))             //翻IO
  50   1              {
  51   2                      GPIO_WriteLow(GPIO0,GPIO_PIN_0);        
  52   2              }
  53   1              else
  54   1              {
C51 COMPILER V9.01   SC92F844XB_IT                                                         01/08/2019 11:37:57 PAGE 2   

  55   2                      GPIO_WriteHigh(GPIO0,GPIO_PIN_0);
  56   2              }
  57   1      
  58   1      }
  59          
  60          void ADCInterrupt()                     interrupt 6
  61          {
  62   1      
  63   1      }
  64          
  65          void SSIInterrupt()                     interrupt 7
  66          {
  67   1              
  68   1      }
  69          
  70          void PWMInterrupt()                     interrupt 8
  71          {
  72   1      
  73   1      }
  74          
  75          void BTMInterrupt()                     interrupt 9
  76          {
  77   1      
  78   1      }
  79          
  80          void EXTI2Interrupt()           interrupt 10
  81          {
  82   1      
  83   1      }


MODULE INFORMATION:   STATIC OVERLAYABLE
   CODE SIZE        =     95    ----
   CONSTANT SIZE    =   ----    ----
   XDATA SIZE       =   ----    ----
   PDATA SIZE       =   ----    ----
   DATA SIZE        =   ----    ----
   IDATA SIZE       =   ----    ----
   BIT SIZE         =   ----    ----
END OF MODULE INFORMATION.


C51 COMPILATION COMPLETE.  0 WARNING(S),  0 ERROR(S)
