BL51 BANKED LINKER/LOCATER V6.22.2.0                                                    09/13/2023  21:27:11  PAGE 1


BL51 BANKED LINKER/LOCATER V6.22.2.0, INVOKED BY:
C:\KEIL_V5\C51\BIN\BL51.EXE .\Objects\STARTUP.obj, .\Objects\main.obj, .\Objects\delay.obj, .\Objects\st7789.obj, .\Obje
>> cts\uart.obj, .\Objects\gd25q64.obj TO .\Objects\Pic PRINT (.\Listings\Pic.m51) RAMSIZE (256)


MEMORY MODEL: SMALL


INPUT MODULES INCLUDED:
  .\Objects\STARTUP.obj (?C_STARTUP)
  .\Objects\main.obj (MAIN)
  .\Objects\delay.obj (DELAY)
  .\Objects\st7789.obj (ST7789)
  .\Objects\uart.obj (UART)
  .\Objects\gd25q64.obj (GD25Q64)
  C:\KEIL_V5\C51\LIB\C51S.LIB (?C_INIT)
  C:\KEIL_V5\C51\LIB\C51S.LIB (?C?CLDPTR)
  C:\KEIL_V5\C51\LIB\C51S.LIB (?C?CLDOPTR)
  C:\KEIL_V5\C51\LIB\C51S.LIB (?C?CSTOPTR)
  C:\KEIL_V5\C51\LIB\C51S.LIB (?C?LMUL)
  C:\KEIL_V5\C51\LIB\C51S.LIB (?C?ULSHR)
  C:\KEIL_V5\C51\LIB\C51S.LIB (?C?LIMUL)


LINK MAP OF MODULE:  .\Objects\Pic (?C_STARTUP)


            TYPE    BASE      LENGTH    RELOCATION   SEGMENT NAME
            -----------------------------------------------------

            * * * * * * *   D A T A   M E M O R Y   * * * * * * *
            REG     0000H     0008H     ABSOLUTE     "REG BANK 0"
            DATA    0008H     0024H     UNIT         ?DT?_LCD_SHOWGBK?ST7789
            DATA    002CH     0019H     UNIT         _DATA_GROUP_
            DATA    0045H     0007H     UNIT         ?DT?_GBK_FETCH?ST7789
            DATA    004CH     0005H     UNIT         ?DT?MAIN
            DATA    0051H     0004H     UNIT         ?DT?ST7789
            DATA    0055H     0004H     UNIT         ?DT?_GD25Q64_ERASE_SECTOR?GD25Q64
            IDATA   0059H     0001H     UNIT         ?STACK

            * * * * * * *  X D A T A   M E M O R Y  * * * * * * *
            XDATA   0000H     0280H     UNIT         _XDATA_GROUP_

            * * * * * * *   C O D E   M E M O R Y   * * * * * * *
            CODE    0000H     0003H     ABSOLUTE     
            CODE    0003H     001AH     UNIT         ?PR?IO_INIT?MAIN
                    001DH     0006H                  *** GAP ***
            CODE    0023H     0003H     ABSOLUTE     
            CODE    0026H     00F7H     UNIT         ?C?LIB_CODE
            CODE    011DH     00EEH     UNIT         ?PR?LCD_INIT?ST7789
            CODE    020BH     00A2H     UNIT         ?PR?_LCD_SHOWPICTURE?ST7789
            CODE    02ADH     008CH     UNIT         ?C_C51STARTUP
            CODE    0339H     0087H     UNIT         ?PR?MAIN?MAIN
            CODE    03C0H     0073H     UNIT         ?PR?UART1_ISR?MAIN
            CODE    0433H     006CH     UNIT         ?PR?_LCD_SHOWGBK?ST7789
            CODE    049FH     0066H     UNIT         ?PR?_GBK_FETCH?ST7789
            CODE    0505H     0066H     UNIT         ?PR?_GD25Q64_WRITE_PAGE?GD25Q64
            CODE    056BH     0063H     UNIT         ?PR?_GD25Q64_READ?GD25Q64
BL51 BANKED LINKER/LOCATER V6.22.2.0                                                  09/13/2023  21:27:11  PAGE 2


            CODE    05CEH     004DH     UNIT         ?PR?_GD25Q64_ERASE_BLOCK?GD25Q64
            CODE    061BH     0049H     UNIT         ?PR?_LCD_SETAREA?ST7789
            CODE    0664H     0037H     UNIT         ?PR?_GD25Q64_ERASE_SECTOR?GD25Q64
            CODE    069BH     0033H     UNIT         ?PR?GD25Q64_READDEVICEID?GD25Q64
            CODE    06CEH     002FH     UNIT         ?PR?_LCD_WR_DATA?ST7789
            CODE    06FDH     002EH     UNIT         ?PR?_LCD_CLEAR?ST7789
            CODE    072BH     0018H     UNIT         ?PR?_SPI_RW?GD25Q64
            CODE    0743H     0017H     UNIT         ?PR?_LCDWIRTECOLORDATA?ST7789
            CODE    075AH     0015H     UNIT         ?PR?UARTINIT?UART
            CODE    076FH     0014H     UNIT         ?PR?_DELAY_MS?DELAY
            CODE    0783H     0012H     UNIT         ?PR?GD25Q64_ERASE_CHIP?GD25Q64
            CODE    0795H     0011H     UNIT         ?PR?_LCD_WR_REG?ST7789
            CODE    07A6H     000FH     UNIT         ?C_INITSEG
            CODE    07B5H     000FH     UNIT         ?PR?GD25Q64_READSR?GD25Q64
            CODE    07C4H     000DH     UNIT         ?PR?SPI_INIT?GD25Q64
            CODE    07D1H     000BH     UNIT         ?PR?DELAY1MS?DELAY
            CODE    07DCH     000BH     UNIT         ?PR?GD25Q64_WAIT_BUSY?GD25Q64
            CODE    07E7H     000AH     UNIT         ?PR?GD25Q64_WRITE_ENABLE?GD25Q64



OVERLAY MAP OF MODULE:   .\Objects\Pic (?C_STARTUP)


SEGMENT                                     DATA_GROUP          XDATA_GROUP
  +--> CALLED SEGMENT                     START    LENGTH     START    LENGTH
-----------------------------------------------------------------------------
?C_C51STARTUP                             -----    -----      -----    -----
  +--> ?PR?MAIN?MAIN
  +--> ?C_INITSEG

?PR?MAIN?MAIN                             002CH    0001H      -----    -----
  +--> ?PR?IO_INIT?MAIN
  +--> ?PR?_DELAY_MS?DELAY
  +--> ?PR?UARTINIT?UART
  +--> ?PR?SPI_INIT?GD25Q64
  +--> ?PR?LCD_INIT?ST7789
  +--> ?PR?_LCD_CLEAR?ST7789
  +--> ?PR?_GD25Q64_ERASE_BLOCK?GD25Q64
  +--> ?PR?_LCD_SHOWPICTURE?ST7789

?PR?_DELAY_MS?DELAY                       -----    -----      -----    -----
  +--> ?PR?DELAY1MS?DELAY

?PR?LCD_INIT?ST7789                       -----    -----      -----    -----
  +--> ?PR?_DELAY_MS?DELAY
  +--> ?PR?_LCD_WR_REG?ST7789
  +--> ?PR?_LCD_WR_DATA?ST7789

?PR?_LCD_CLEAR?ST7789                     002DH    0002H      -----    -----
  +--> ?PR?_LCD_SETAREA?ST7789
  +--> ?PR?_LCD_WR_REG?ST7789
  +--> ?PR?_LCDWIRTECOLORDATA?ST7789

?PR?_LCD_SETAREA?ST7789                   0033H    0008H      -----    -----
  +--> ?PR?_LCD_WR_REG?ST7789
  +--> ?PR?_LCD_WR_DATA?ST7789
BL51 BANKED LINKER/LOCATER V6.22.2.0                                                  09/13/2023  21:27:11  PAGE 3



?PR?_GD25Q64_ERASE_BLOCK?GD25Q64          002DH    0004H      -----    -----
  +--> ?PR?GD25Q64_WAIT_BUSY?GD25Q64
  +--> ?PR?_SPI_RW?GD25Q64

?PR?GD25Q64_WAIT_BUSY?GD25Q64             -----    -----      -----    -----
  +--> ?PR?GD25Q64_WRITE_ENABLE?GD25Q64
  +--> ?PR?GD25Q64_READSR?GD25Q64

?PR?GD25Q64_WRITE_ENABLE?GD25Q64          -----    -----      -----    -----
  +--> ?PR?_SPI_RW?GD25Q64

?PR?GD25Q64_READSR?GD25Q64                -----    -----      -----    -----
  +--> ?PR?_SPI_RW?GD25Q64

?PR?_LCD_SHOWPICTURE?ST7789               002DH    0006H      0000H    0280H
  +--> ?PR?_LCD_SETAREA?ST7789
  +--> ?PR?_LCD_WR_REG?ST7789
  +--> ?PR?_GD25Q64_READ?GD25Q64
  +--> ?PR?_LCDWIRTECOLORDATA?ST7789

?PR?_GD25Q64_READ?GD25Q64                 0033H    0009H      -----    -----
  +--> ?PR?_SPI_RW?GD25Q64

*** NEW ROOT ***************************************************

?PR?UART1_ISR?MAIN                        -----    -----      -----    -----
  +--> ?PR?_GD25Q64_WRITE_PAGE?GD25Q64

?PR?_GD25Q64_WRITE_PAGE?GD25Q64           003CH    0009H      -----    -----
  +--> ?PR?GD25Q64_WRITE_ENABLE?GD25Q64
  +--> ?PR?_SPI_RW?GD25Q64
  +--> ?PR?GD25Q64_WAIT_BUSY?GD25Q64



SYMBOL TABLE OF MODULE:  .\Objects\Pic (?C_STARTUP)

  VALUE           TYPE          NAME
  ----------------------------------

  -------         MODULE        ?C_STARTUP
  C:02ADH         SEGMENT       ?C_C51STARTUP
  I:0059H         SEGMENT       ?STACK
  C:0000H         PUBLIC        ?C_STARTUP
  D:00E0H         SYMBOL        ACC
  D:00F0H         SYMBOL        B
  D:0083H         SYMBOL        DPH
  D:0082H         SYMBOL        DPL
  N:0000H         SYMBOL        IBPSTACK
  N:0100H         SYMBOL        IBPSTACKTOP
  N:0080H         SYMBOL        IDATALEN
  C:02B0H         SYMBOL        IDATALOOP
  N:0000H         SYMBOL        PBPSTACK
  N:0100H         SYMBOL        PBPSTACKTOP
  N:0000H         SYMBOL        PDATALEN
  N:0000H         SYMBOL        PDATASTART
BL51 BANKED LINKER/LOCATER V6.22.2.0                                                  09/13/2023  21:27:11  PAGE 4


  N:0000H         SYMBOL        PPAGE
  N:0000H         SYMBOL        PPAGEENABLE
  D:00A0H         SYMBOL        PPAGE_SFR
  D:0081H         SYMBOL        SP
  C:02ADH         SYMBOL        STARTUP1
  N:0000H         SYMBOL        XBPSTACK
  N:0000H         SYMBOL        XBPSTACKTOP
  N:0000H         SYMBOL        XDATALEN
  N:0000H         SYMBOL        XDATASTART
  C:0000H         LINE#         126
  C:02ADH         LINE#         133
  C:02AFH         LINE#         134
  C:02B0H         LINE#         135
  C:02B1H         LINE#         136
  C:02B3H         LINE#         185
  C:02B6H         LINE#         196
  -------         ENDMOD        ?C_STARTUP

  -------         MODULE        MAIN
  C:0000H         SYMBOL        _ICE_DUMMY_
  C:03C0H         PUBLIC        UART1_Isr
  D:0093H         PUBLIC        P0M1
  D:0092H         PUBLIC        P1M0
  D:0096H         PUBLIC        P2M0
  D:0091H         PUBLIC        P1M1
  D:0080H         PUBLIC        P0
  D:00B2H         PUBLIC        P3M0
  D:0095H         PUBLIC        P2M1
  D:0090H         PUBLIC        P1
  D:00B4H         PUBLIC        P4M0
  D:00B1H         PUBLIC        P3M1
  D:00A0H         PUBLIC        P2
  D:00CAH         PUBLIC        P5M0
  D:00B3H         PUBLIC        P4M1
  D:00B0H         PUBLIC        P3
  D:00C9H         PUBLIC        P5M1
  D:00C0H         PUBLIC        P4
  D:00C8H         PUBLIC        P5
  B:00A8H.7       PUBLIC        EA
  B:0080H.5       PUBLIC        LED_R
  D:00A8H         PUBLIC        IE
  C:0003H         PUBLIC        IO_Init
  D:004CH         PUBLIC        flash_addr
  D:00B8H         PUBLIC        IP
  B:0098H.0       PUBLIC        RI
  B:0098H.1       PUBLIC        TI
  D:00D8H         PUBLIC        CCON
  C:0339H         PUBLIC        main
  D:0099H         PUBLIC        SBUF
  D:0098H         PUBLIC        SCON
  D:0088H         PUBLIC        TCON
  D:0050H         PUBLIC        buf
  B:00B0H.4       PUBLIC        TFT_BL
  D:00D0H         PUBLIC        PSW
  B:00B0H.7       PUBLIC        K1
  B:00B0H.6       PUBLIC        K2
  B:00B0H.5       PUBLIC        K3
BL51 BANKED LINKER/LOCATER V6.22.2.0                                                  09/13/2023  21:27:11  PAGE 5


  D:0094H         PUBLIC        P0M0
  -------         PROC          UART1_ISR
  C:03C0H         LINE#         31
  C:03DDH         LINE#         33
  C:03E0H         LINE#         34
  C:03E0H         LINE#         35
  C:03E2H         LINE#         36
  C:03E4H         LINE#         37
  C:03E4H         LINE#         38
  C:03E7H         LINE#         39
  C:03E7H         LINE#         40
  C:03E9H         LINE#         41
  C:03ECH         LINE#         42
  C:0403H         LINE#         43
  C:0418H         LINE#         44
  C:0418H         LINE#         45
  -------         ENDPROC       UART1_ISR
  -------         PROC          IO_INIT
  C:0003H         LINE#         49
  C:0003H         LINE#         50
  C:0003H         LINE#         51
  C:0006H         LINE#         52
  C:0008H         LINE#         53
  C:000AH         LINE#         54
  C:000CH         LINE#         55
  C:000EH         LINE#         56
  C:0010H         LINE#         57
  C:0012H         LINE#         58
  C:0014H         LINE#         59
  C:0016H         LINE#         60
  C:0018H         LINE#         61
  C:001AH         LINE#         62
  C:001CH         LINE#         63
  -------         ENDPROC       IO_INIT
  -------         PROC          MAIN
  -------         DO            
  D:002CH         SYMBOL        i
  -------         ENDDO         
  C:0339H         LINE#         66
  C:0339H         LINE#         67
  C:0339H         LINE#         72
  C:033CH         LINE#         73
  C:0343H         LINE#         75
  C:0346H         LINE#         76
  C:0349H         LINE#         77
  C:034CH         LINE#         78
  C:0353H         LINE#         79
  C:0355H         LINE#         82
  C:0355H         LINE#         83
  C:0355H         LINE#         84
  C:0358H         LINE#         85
  C:0358H         LINE#         86
  C:035FH         LINE#         87
  C:0362H         LINE#         88
  C:0362H         LINE#         89
  C:0364H         LINE#         90
  C:0372H         LINE#         91
BL51 BANKED LINKER/LOCATER V6.22.2.0                                                  09/13/2023  21:27:11  PAGE 6


  C:0372H         LINE#         92
  C:037BH         LINE#         93
  C:037FH         LINE#         94
  C:0381H         LINE#         95
  C:038BH         LINE#         96
  C:038DH         LINE#         97
  C:038DH         LINE#         98
  C:0390H         LINE#         99
  C:0390H         LINE#         100
  C:0393H         LINE#         101
  C:0393H         LINE#         102
  C:039AH         LINE#         103
  C:039DH         LINE#         104
  C:039DH         LINE#         105
  C:03A2H         LINE#         106
  C:03A4H         LINE#         107
  C:03A4H         LINE#         108
  C:03A7H         LINE#         109
  C:03A7H         LINE#         110
  C:03AAH         LINE#         111
  C:03AAH         LINE#         112
  C:03B1H         LINE#         113
  C:03B4H         LINE#         114
  C:03B4H         LINE#         115
  C:03B9H         LINE#         116
  C:03BBH         LINE#         117
  C:03BBH         LINE#         118
  -------         ENDPROC       MAIN
  -------         ENDMOD        MAIN

  -------         MODULE        DELAY
  C:0000H         SYMBOL        _ICE_DUMMY_
  D:0080H         PUBLIC        P0
  D:0090H         PUBLIC        P1
  D:00A0H         PUBLIC        P2
  D:00B0H         PUBLIC        P3
  D:00C0H         PUBLIC        P4
  C:07D1H         PUBLIC        Delay1ms
  D:00C8H         PUBLIC        P5
  D:00A8H         PUBLIC        IE
  D:00B8H         PUBLIC        IP
  D:00D8H         PUBLIC        CCON
  D:0098H         PUBLIC        SCON
  D:0088H         PUBLIC        TCON
  C:076FH         PUBLIC        _delay_ms
  D:00D0H         PUBLIC        PSW
  -------         PROC          DELAY1MS
  -------         DO            
  D:0007H         SYMBOL        i
  D:0006H         SYMBOL        j
  -------         ENDDO         
  C:07D1H         LINE#         5
  C:07D1H         LINE#         6
  C:07D1H         LINE#         9
  C:07D2H         LINE#         10
  C:07D3H         LINE#         11
  C:07D5H         LINE#         12
BL51 BANKED LINKER/LOCATER V6.22.2.0                                                  09/13/2023  21:27:11  PAGE 7


  C:07D7H         LINE#         14
  C:07D7H         LINE#         15
  C:07D9H         LINE#         16
  C:07DBH         LINE#         17
  -------         ENDPROC       DELAY1MS
  -------         PROC          _DELAY_MS
  D:0004H         SYMBOL        ms
  C:076FH         LINE#         20
  C:0773H         LINE#         21
  C:0773H         LINE#         22
  C:077DH         LINE#         23
  C:077DH         LINE#         24
  C:0780H         LINE#         25
  C:0782H         LINE#         26
  -------         ENDPROC       _DELAY_MS
  -------         ENDMOD        DELAY

  -------         MODULE        ST7789
  C:0000H         SYMBOL        _ICE_DUMMY_
  D:0080H         PUBLIC        P0
  D:0090H         PUBLIC        P1
  D:00A0H         PUBLIC        P2
  D:00B0H         PUBLIC        P3
  D:00C0H         PUBLIC        P4
  D:00C8H         PUBLIC        P5
  D:00A8H         PUBLIC        IE
  D:00B8H         PUBLIC        IP
  C:0799H         PUBLIC        _LCD_WR_REG
  C:06FDH         PUBLIC        _LCD_Clear
  C:049FH         PUBLIC        _GBK_Fetch
  C:0743H         PUBLIC        _LcdWirteColorData
  D:00D8H         PUBLIC        CCON
  C:0433H         PUBLIC        _LCD_ShowGBK
  D:0098H         PUBLIC        SCON
  D:0088H         PUBLIC        TCON
  C:020BH         PUBLIC        _LCD_ShowPicture
  C:011DH         PUBLIC        LCD_Init
  B:00C8H.0       PUBLIC        LCD_CS
  C:06F0H         PUBLIC        _LCD_WR_DATA
  B:00C8H.1       PUBLIC        LCD_RS
  C:062AH         PUBLIC        _LCD_SetArea
  B:00C0H.2       PUBLIC        LCD_WR
  D:0051H         PUBLIC        POINT_COLOR
  D:0053H         PUBLIC        BACK_COLOR
  D:00D0H         PUBLIC        PSW
  -------         PROC          L?0037
  -------         ENDPROC       L?0037
  -------         PROC          _LCD_WR_DATA
  D:0006H         SYMBOL        val
  C:06F0H         LINE#         10
  C:06F0H         LINE#         11
  C:06F0H         LINE#         12
  C:06F2H         LINE#         13
  C:06F4H         LINE#         14
  C:06F6H         LINE#         15
  C:06F8H         LINE#         16
  C:06FAH         LINE#         17
BL51 BANKED LINKER/LOCATER V6.22.2.0                                                  09/13/2023  21:27:11  PAGE 8


  C:06FCH         LINE#         18
  -------         ENDPROC       _LCD_WR_DATA
  C:0795H         SYMBOL        L?0040
  -------         PROC          L?0039
  -------         ENDPROC       L?0039
  C:0795H         SYMBOL        L?0040
  -------         PROC          _LCD_WR_REG
  D:0006H         SYMBOL        reg
  C:0799H         LINE#         21
  C:0799H         LINE#         22
  C:0799H         LINE#         23
  C:079BH         LINE#         24
  C:079DH         LINE#         25
  C:079FH         LINE#         26
  C:07A1H         LINE#         27
  C:07A3H         LINE#         28
  C:07A5H         LINE#         29
  -------         ENDPROC       _LCD_WR_REG
  -------         PROC          LCD_INIT
  C:011DH         LINE#         32
  C:011DH         LINE#         33
  C:011DH         LINE#         34
  C:0124H         LINE#         36
  C:012BH         LINE#         37
  C:0130H         LINE#         39
  C:0137H         LINE#         40
  C:013CH         LINE#         42
  C:0141H         LINE#         43
  C:0146H         LINE#         47
  C:014BH         LINE#         48
  C:0150H         LINE#         49
  C:0153H         LINE#         50
  C:0158H         LINE#         51
  C:015DH         LINE#         52
  C:0160H         LINE#         54
  C:0165H         LINE#         55
  C:016AH         LINE#         57
  C:016FH         LINE#         58
  C:0174H         LINE#         60
  C:0179H         LINE#         61
  C:017EH         LINE#         63
  C:0183H         LINE#         64
  C:0188H         LINE#         66
  C:018DH         LINE#         67
  C:0192H         LINE#         69
  C:0197H         LINE#         70
  C:019CH         LINE#         72
  C:01A1H         LINE#         73
  C:01A6H         LINE#         75
  C:01ABH         LINE#         76
  C:01B0H         LINE#         77
  C:01B5H         LINE#         80
  C:01BAH         LINE#         81
  C:01BFH         LINE#         82
  C:01C4H         LINE#         83
  C:01C9H         LINE#         84
  C:01CEH         LINE#         85
BL51 BANKED LINKER/LOCATER V6.22.2.0                                                  09/13/2023  21:27:11  PAGE 9


  C:01D1H         LINE#         86
  C:01D3H         LINE#         87
  C:01D3H         LINE#         88
  C:01D3H         LINE#         89
  C:01D3H         LINE#         90
  C:01D3H         LINE#         91
  C:01D3H         LINE#         92
  C:01D3H         LINE#         93
  C:01D6H         LINE#         94
  C:01DBH         LINE#         96
  C:01E0H         LINE#         97
  C:01E5H         LINE#         98
  C:01EAH         LINE#         99
  C:01EFH         LINE#         100
  C:01F4H         LINE#         101
  C:01F7H         LINE#         102
  C:01F9H         LINE#         103
  C:01F9H         LINE#         104
  C:01F9H         LINE#         105
  C:01F9H         LINE#         106
  C:01F9H         LINE#         107
  C:01F9H         LINE#         108
  C:01F9H         LINE#         109
  C:01FCH         LINE#         110
  C:0201H         LINE#         113
  C:0206H         LINE#         115
  -------         ENDPROC       LCD_INIT
  -------         PROC          L?0038
  -------         ENDPROC       L?0038
  -------         PROC          _LCD_SETAREA
  D:0082H         SYMBOL        stx
  D:0004H         SYMBOL        sty
  D:0002H         SYMBOL        endx
  D:0039H         SYMBOL        endy
  C:062AH         LINE#         119
  C:062EH         LINE#         120
  C:062EH         LINE#         121
  C:0635H         LINE#         122
  C:063BH         LINE#         123
  C:0640H         LINE#         124
  C:0645H         LINE#         125
  C:064AH         LINE#         127
  C:064FH         LINE#         128
  C:0654H         LINE#         129
  C:0659H         LINE#         130
  C:065FH         LINE#         131
  -------         ENDPROC       _LCD_SETAREA
  -------         PROC          _LCDWIRTECOLORDATA
  D:0004H         SYMBOL        color
  C:0743H         LINE#         135
  C:0747H         LINE#         136
  C:0747H         LINE#         137
  C:0749H         LINE#         138
  C:074BH         LINE#         139
  C:074DH         LINE#         140
  C:074FH         LINE#         141
  C:0751H         LINE#         142
BL51 BANKED LINKER/LOCATER V6.22.2.0                                                  09/13/2023  21:27:11  PAGE 10


  C:0753H         LINE#         143
  C:0755H         LINE#         144
  C:0757H         LINE#         145
  C:0759H         LINE#         146
  -------         ENDPROC       _LCDWIRTECOLORDATA
  -------         PROC          _LCD_CLEAR
  D:002DH         SYMBOL        color
  -------         DO            
  D:0002H         SYMBOL        i
  D:0082H         SYMBOL        j
  -------         ENDDO         
  C:06FDH         LINE#         149
  C:0701H         LINE#         150
  C:0701H         LINE#         153
  C:0704H         LINE#         154
  C:0707H         LINE#         155
  C:070AH         LINE#         156
  C:070AH         LINE#         157
  C:070DH         LINE#         158
  C:070DH         LINE#         159
  C:0714H         LINE#         160
  C:071FH         LINE#         161
  C:072AH         LINE#         162
  -------         ENDPROC       _LCD_CLEAR
  -------         PROC          _GBK_FETCH
  D:0001H         SYMBOL        gbk
  D:0048H         SYMBOL        rec_data
  -------         DO            
  D:0007H         SYMBOL        GBKH
  D:004BH         SYMBOL        GBKL
  D:0004H         SYMBOL        addr
  -------         ENDDO         
  C:049FH         LINE#         167
  C:049FH         LINE#         168
  C:049FH         LINE#         172
  C:04A3H         LINE#         173
  C:04ABH         LINE#         175
  C:04C2H         LINE#         176
  C:04C6H         LINE#         177
  C:04CCH         LINE#         179
  C:04F5H         LINE#         180
  C:0504H         LINE#         181
  -------         ENDPROC       _GBK_FETCH
  -------         PROC          _LCD_SHOWGBK
  D:0008H         SYMBOL        x
  D:000AH         SYMBOL        y
  D:0001H         SYMBOL        gbk
  -------         DO            
  D:0002H         SYMBOL        i
  D:0082H         SYMBOL        j
  D:0001H         SYMBOL        temp
  D:000CH         SYMBOL        rec_data
  -------         ENDDO         
  C:0433H         LINE#         186
  C:043BH         LINE#         187
  C:043BH         LINE#         192
  C:0447H         LINE#         194
BL51 BANKED LINKER/LOCATER V6.22.2.0                                                  09/13/2023  21:27:11  PAGE 11


  C:0466H         LINE#         195
  C:0469H         LINE#         197
  C:046CH         LINE#         198
  C:046CH         LINE#         199
  C:0472H         LINE#         200
  C:0475H         LINE#         201
  C:0475H         LINE#         202
  C:0479H         LINE#         203
  C:047FH         LINE#         205
  C:0486H         LINE#         206
  C:048AH         LINE#         207
  C:0493H         LINE#         208
  C:049EH         LINE#         209
  -------         ENDPROC       _LCD_SHOWGBK
  -------         PROC          _LCD_SHOWPICTURE
  D:0007H         SYMBOL        x
  -------         DO            
  D:002DH         SYMBOL        pic_add
  X:0000H         SYMBOL        pic_buf
  D:0002H         SYMBOL        i
  D:0031H         SYMBOL        j
  -------         ENDDO         
  C:020BH         LINE#         212
  C:020BH         LINE#         213
  C:020BH         LINE#         215
  C:022CH         LINE#         221
  C:022FH         LINE#         222
  C:0232H         LINE#         225
  C:0237H         LINE#         226
  C:0237H         LINE#         227
  C:024EH         LINE#         228
  C:025AH         LINE#         229
  C:025AH         LINE#         230
  C:027CH         LINE#         231
  C:0285H         LINE#         232
  C:029BH         LINE#         233
  C:02ACH         LINE#         234
  -------         ENDPROC       _LCD_SHOWPICTURE
  -------         ENDMOD        ST7789

  -------         MODULE        UART
  C:0000H         SYMBOL        _ICE_DUMMY_
  D:0080H         PUBLIC        P0
  D:0090H         PUBLIC        P1
  D:00A0H         PUBLIC        P2
  D:00B0H         PUBLIC        P3
  D:00C0H         PUBLIC        P4
  D:00C8H         PUBLIC        P5
  D:00A8H         PUBLIC        IE
  B:00A8H.4       PUBLIC        ES
  D:00B8H         PUBLIC        IP
  D:00D8H         PUBLIC        CCON
  D:0098H         PUBLIC        SCON
  D:0088H         PUBLIC        TCON
  C:075AH         PUBLIC        UartInit
  D:008EH         PUBLIC        AUXR
  D:00D6H         PUBLIC        T2H
BL51 BANKED LINKER/LOCATER V6.22.2.0                                                  09/13/2023  21:27:11  PAGE 12


  D:00D7H         PUBLIC        T2L
  D:00D0H         PUBLIC        PSW
  -------         PROC          UARTINIT
  C:075AH         LINE#         6
  C:075AH         LINE#         7
  C:075AH         LINE#         8
  C:075DH         LINE#         9
  C:0760H         LINE#         10
  C:0763H         LINE#         11
  C:0766H         LINE#         12
  C:0769H         LINE#         13
  C:076CH         LINE#         15
  C:076EH         LINE#         16
  -------         ENDPROC       UARTINIT
  -------         ENDMOD        UART

  -------         MODULE        GD25Q64
  C:0000H         SYMBOL        _ICE_DUMMY_
  D:0080H         PUBLIC        P0
  D:0090H         PUBLIC        P1
  D:00A0H         PUBLIC        P2
  D:00B0H         PUBLIC        P3
  D:00C0H         PUBLIC        P4
  D:00C8H         PUBLIC        P5
  D:00CEH         PUBLIC        SPCTL
  D:00A2H         PUBLIC        P_SW1
  C:056BH         PUBLIC        _GD25Q64_Read
  D:00A8H         PUBLIC        IE
  D:00B8H         PUBLIC        IP
  D:00D8H         PUBLIC        CCON
  B:00C8H.4       PUBLIC        GD25Q64_CS
  C:07DFH         PUBLIC        GD25Q64_Wait_Busy
  C:07B5H         PUBLIC        GD25Q64_ReadSR
  D:0098H         PUBLIC        SCON
  D:0088H         PUBLIC        TCON
  C:07E7H         PUBLIC        GD25Q64_Write_Enable
  C:05CEH         PUBLIC        _GD25Q64_Erase_Block
  C:0664H         PUBLIC        _GD25Q64_Erase_Sector
  D:00CDH         PUBLIC        SPSTAT
  C:07C4H         PUBLIC        SPI_Init
  C:0783H         PUBLIC        GD25Q64_Erase_Chip
  C:069BH         PUBLIC        GD25Q64_ReadDeviceID
  C:0736H         PUBLIC        _SPI_RW
  D:00D0H         PUBLIC        PSW
  C:0505H         PUBLIC        _GD25Q64_Write_Page
  D:00CFH         PUBLIC        SPDAT
  -------         PROC          SPI_INIT
  C:07C4H         LINE#         4
  C:07C4H         LINE#         5
  C:07C4H         LINE#         7
  C:07C7H         LINE#         8
  C:07CAH         LINE#         9
  C:07CDH         LINE#         10
  C:07D0H         LINE#         11
  -------         ENDPROC       SPI_INIT
  -------         PROC          L?0024
  -------         ENDPROC       L?0024
BL51 BANKED LINKER/LOCATER V6.22.2.0                                                  09/13/2023  21:27:11  PAGE 13


  -------         PROC          _SPI_RW
  D:0007H         SYMBOL        byte
  C:0736H         LINE#         14
  C:0736H         LINE#         15
  C:0736H         LINE#         16
  C:0738H         LINE#         17
  C:073DH         LINE#         18
  C:0740H         LINE#         19
  C:0742H         LINE#         20
  -------         ENDPROC       _SPI_RW
  -------         PROC          GD25Q64_READDEVICEID
  -------         DO            
  D:0006H         SYMBOL        Temp
  D:0004H         SYMBOL        temp1
  D:0002H         SYMBOL        temp2
  -------         ENDDO         
  C:069BH         LINE#         23
  C:069BH         LINE#         24
  C:069BH         LINE#         28
  C:069DH         LINE#         31
  C:06A2H         LINE#         32
  C:06A7H         LINE#         33
  C:06ACH         LINE#         34
  C:06B1H         LINE#         37
  C:06BAH         LINE#         38
  C:06C3H         LINE#         41
  C:06C5H         LINE#         44
  C:06CDH         LINE#         46
  C:06CDH         LINE#         47
  -------         ENDPROC       GD25Q64_READDEVICEID
  -------         PROC          GD25Q64_READSR
  -------         DO            
  D:0007H         SYMBOL        byte
  -------         ENDDO         
  C:07B5H         LINE#         53
  C:07B5H         LINE#         54
  C:07B5H         LINE#         55
  C:07B5H         LINE#         57
  C:07B7H         LINE#         58
  C:07BCH         LINE#         59
  C:07C1H         LINE#         60
  C:07C3H         LINE#         62
  C:07C3H         LINE#         63
  -------         ENDPROC       GD25Q64_READSR
  -------         PROC          GD25Q64_WRITE_ENABLE
  C:07E7H         LINE#         68
  C:07E7H         LINE#         69
  C:07E7H         LINE#         70
  C:07E9H         LINE#         71
  C:07EEH         LINE#         72
  C:07F0H         LINE#         73
  -------         ENDPROC       GD25Q64_WRITE_ENABLE
  -------         PROC          L?0025
  -------         ENDPROC       L?0025
  -------         PROC          GD25Q64_WAIT_BUSY
  C:07DFH         LINE#         78
  C:07DFH         LINE#         79
BL51 BANKED LINKER/LOCATER V6.22.2.0                                                  09/13/2023  21:27:11  PAGE 14


  C:07DFH         LINE#         80
  C:07E6H         LINE#         81
  -------         ENDPROC       GD25Q64_WAIT_BUSY
  -------         PROC          _GD25Q64_ERASE_SECTOR
  D:0055H         SYMBOL        Dst_Addr
  C:0664H         LINE#         87
  C:066CH         LINE#         88
  C:066CH         LINE#         89
  C:067DH         LINE#         91
  C:067DH         LINE#         92
  C:0680H         LINE#         93
  C:0682H         LINE#         94
  C:0687H         LINE#         95
  C:068CH         LINE#         96
  C:0691H         LINE#         97
  C:0696H         LINE#         98
  C:0698H         LINE#         99
  -------         ENDPROC       _GD25Q64_ERASE_SECTOR
  -------         PROC          _GD25Q64_ERASE_BLOCK
  D:002DH         SYMBOL        Bst_Addr
  C:05CEH         LINE#         106
  C:05D6H         LINE#         107
  C:05D6H         LINE#         108
  C:05E7H         LINE#         110
  C:05E7H         LINE#         111
  C:05EAH         LINE#         112
  C:05ECH         LINE#         113
  C:05F1H         LINE#         114
  C:0601H         LINE#         115
  C:0611H         LINE#         116
  C:0616H         LINE#         117
  C:0618H         LINE#         118
  -------         ENDPROC       _GD25Q64_ERASE_BLOCK
  -------         PROC          GD25Q64_ERASE_CHIP
  C:0783H         LINE#         124
  C:0783H         LINE#         125
  C:0783H         LINE#         126
  C:0786H         LINE#         127
  C:0789H         LINE#         128
  C:078BH         LINE#         129
  C:0790H         LINE#         130
  C:0792H         LINE#         131
  -------         ENDPROC       GD25Q64_ERASE_CHIP
  -------         PROC          _GD25Q64_WRITE_PAGE
  D:003CH         SYMBOL        Buffer
  D:003FH         SYMBOL        Addr
  D:0043H         SYMBOL        ByteNum
  -------         DO            
  D:0004H         SYMBOL        i
  -------         ENDDO         
  C:0505H         LINE#         142
  C:0513H         LINE#         143
  C:0513H         LINE#         146
  C:0516H         LINE#         147
  C:0518H         LINE#         148
  C:051DH         LINE#         149
  C:052DH         LINE#         150
BL51 BANKED LINKER/LOCATER V6.22.2.0                                                  09/13/2023  21:27:11  PAGE 15


  C:053DH         LINE#         151
  C:0542H         LINE#         152
  C:0566H         LINE#         153
  C:0568H         LINE#         154
  -------         ENDPROC       _GD25Q64_WRITE_PAGE
  -------         PROC          _GD25Q64_READ
  D:0033H         SYMBOL        Buffer
  D:0036H         SYMBOL        Addr
  D:003AH         SYMBOL        ByteNum
  -------         DO            
  D:0004H         SYMBOL        i
  -------         ENDDO         
  C:056BH         LINE#         163
  C:0579H         LINE#         164
  C:0579H         LINE#         167
  C:057BH         LINE#         168
  C:0580H         LINE#         169
  C:0590H         LINE#         170
  C:05A0H         LINE#         171
  C:05A5H         LINE#         172
  C:05B1H         LINE#         173
  C:05B1H         LINE#         174
  C:05C4H         LINE#         175
  C:05CBH         LINE#         176
  C:05CDH         LINE#         177
  -------         ENDPROC       _GD25Q64_READ
  -------         ENDMOD        GD25Q64

  -------         MODULE        ?C?CLDPTR
  C:0026H         PUBLIC        ?C?CLDPTR
  -------         ENDMOD        ?C?CLDPTR

  -------         MODULE        ?C?CLDOPTR
  C:003FH         PUBLIC        ?C?CLDOPTR
  -------         ENDMOD        ?C?CLDOPTR

  -------         MODULE        ?C?CSTOPTR
  C:006CH         PUBLIC        ?C?CSTOPTR
  -------         ENDMOD        ?C?CSTOPTR

  -------         MODULE        ?C?LMUL
  C:008EH         PUBLIC        ?C?LMUL
  -------         ENDMOD        ?C?LMUL

  -------         MODULE        ?C?ULSHR
  C:00DDH         PUBLIC        ?C?ULSHR
  -------         ENDMOD        ?C?ULSHR

  -------         MODULE        ?C?LIMUL
  C:00F0H         PUBLIC        ?C?LIMUL
  -------         ENDMOD        ?C?LIMUL

*** WARNING L16: UNCALLED SEGMENT, IGNORED FOR OVERLAY PROCESS
    SEGMENT: ?PR?_LCD_SHOWGBK?ST7789

*** WARNING L16: UNCALLED SEGMENT, IGNORED FOR OVERLAY PROCESS
    SEGMENT: ?PR?GD25Q64_READDEVICEID?GD25Q64
BL51 BANKED LINKER/LOCATER V6.22.2.0                                                  09/13/2023  21:27:11  PAGE 16



*** WARNING L16: UNCALLED SEGMENT, IGNORED FOR OVERLAY PROCESS
    SEGMENT: ?PR?_GD25Q64_ERASE_SECTOR?GD25Q64

*** WARNING L16: UNCALLED SEGMENT, IGNORED FOR OVERLAY PROCESS
    SEGMENT: ?PR?GD25Q64_ERASE_CHIP?GD25Q64

Program Size: data=90.0 xdata=640 code=2027
LINK/LOCATE RUN COMPLETE.  4 WARNING(S),  0 ERROR(S)
