﻿C51 COMPILER V9.55   MAIN                                                                  12/10/2021 13:41:34 PAGE 1   
C51 COMPILER V9.55, COMPILATION OF MODULE MAIN
OBJECT MODULE PLACED IN ..\Output\main.obj
COMPILER INVOKED BY: C:\Keil_v5\C51\BIN\C51.EXE ..\User\main.c OMF2 OPTIMIZE(8,SPEED) BROWSE INCDIR(..\FWLib\SC95F_Lib\i
                    -nc;..\User) DEFINE(SC95F8x1x) DEBUG PRINT(..\List\main.lst) TABS(2) OBJECT(..\Output\main.obj)
line level    source
   1         
   2         
   3         
   4         
   5         
   6         
   7          
   8          #include "SC_Init.h" 
   9          #include "SC_it.h"
  10          #include "..\Drivers\SCDriver_List.h"
  11          #include "HeadFiles\SysFunVarDefine.h"
  12          
  13          
  14          
  15                
  16          
  17          
  18          
  19                
  20          
  21          
  22          
  23          
  24          
  25                
  26          
  27          
  28          
  29          
  30                
  31          
  32          
  33          
  34          
  35          
  36          
  37          
  43          void main(void)
  44          { 
  45   1         
  46   1      
  47   1          
  48   1          SC_Init();
  49   1          /*<UserCodeStart>*
  50   1          TouchKeyInit();
  51   1      
  52   1          /*<UserCodeEnd>*
  53   1          /*<UserCodeStart>*
  54   1      
  55   1          while(1)
  56   1          {
  57   2              /*<UserCodeStart>*
  58   2              if(T0Flag1ms)
  59   2              {
  60   3      
  61   3                  /*<UserCodeStart>*
  62   3                  T0Flag1ms = 0;
  63   3                  SCD_NT_Scan();
  64   3                  /*<UserCodeEnd>*
  65   3                  /*<UserCodeStart>*
  66   3                  Sys_Scan();
  67   3                  /*<UserCodeEnd>*
  68   3                  /*<UserCodeStart>*
  69   3                  shi = exKeyValue/10;
  70   3                  ge = exKeyValue%10;
  71   3                  SCD_NT_Display( shi , ge , 0 , 0 );
  72   3                  /*<UserCodeEnd>*
  73   3              }
  74   2              /*<UserCodeEnd>*
  75   2          }
  76   1          /*<UserCodeEnd>*
  77   1      
  78   1          
  79   1          
  80   1      }
MODULE INFORMATION:   STATIC OVERLAYABLE
   CODE SIZE        =    316    ----
   CONSTANT SIZE    =   ----    ----
   XDATA SIZE       =   ----    ----
   PDATA SIZE       =   ----    ----
   DATA SIZE        =     17    ----
   IDATA SIZE       =   ----    ----
   BIT SIZE         =      3    ----
   EDATA SIZE       =   ----    ----
   HDATA SIZE       =   ----    ----
   XDATA CONST SIZE =   ----    ----
   FAR CONST SIZE   =   ----    ----
END OF MODULE INFORMATION.
C51 COMPILATION COMPLETE.  0 WARNING(S),  0 ERROR(S)
