﻿C51 COMPILER V9.55   SC_IT                                                                 12/10/2021 13:41:34 PAGE 1   
C51 COMPILER V9.55, COMPILATION OF MODULE SC_IT
OBJECT MODULE PLACED IN ..\Output\SC_it.obj
COMPILER INVOKED BY: C:\Keil_v5\C51\BIN\C51.EXE ..\User\SC_it.c OMF2 OPTIMIZE(8,SPEED) BROWSE INCDIR(..\FWLib\SC95F_Lib\
                    -inc;..\User) DEFINE(SC95F8x1x) DEBUG PRINT(..\List\SC_it.lst) TABS(2) OBJECT(..\Output\SC_it.obj)
line level    source
   1         
   2         
   3         
   4         
   5         
   6         
   7          
   8          #include "SC_it.h"
   9          #include "..\Drivers\SCDriver_list.h"
  10          #include "HeadFiles\SC_itExtern.h"
  11          
  12          
  13          
  14                
  15          
  16          
  17          
  18                
  19          
  20          
  21          
  22          
  23          
  24                
  25          
  26          
  27          
  28          
  29                
  30          
  31          
  32          
  33          
  34          
  35          
  36          
  37          void INT0Interrupt()    interrupt 0       
  38          {
  39   1       
  40   1      
  41   1          TCON &= 0XFD
  42   1          
  43   1      
  44   1      
  45   1      }
  46          
  47          void Timer0Interrupt()    interrupt 1        
  48          {
  49   1       
  50   1      
  51   1          TIM0_Mode1SetReloadCounter(32000);
  52   1              
  53   1           
  80   1      
  81   1          TCON &= 0XF7
  82   1                    
  83   1      }
  84          
  85          void Timer1Interrupt()    interrupt 3   
  86          {
  87   1       
  88   1      
  89   1              
  90   1      }
  91          
  92          void UART0Interrupt()   interrupt 4   
  93          {
  94   1       
  95   1      
  96   1             
  97   1      }
  98          
  99          void Timer2Interrupt()    interrupt 5   
 100          {
 101   1       
 102   1      
 103   1              
 104   1      }
 105          
 106          void ADCInterrupt()     interrupt 6   
 107          {
 108   1       
 109   1      
 110   1             
 111   1      }
 112          
 113          void USCI0Interrupt()     interrupt 7   
 114          {
 115   1       
 116   1      
 117   1             
 118   1      }
 119          
 120          void PWMInterrupt()     interrupt 8
 121          {
 122   1       
 123   1      
 124   1             
 125   1      }
 126          
 127          void BTMInterrupt()     interrupt 9
 128          {
 129   1       
 130   1      
 131   1             
 132   1      }
 133          
 134          void INT2Interrupt()    interrupt 10
 135          {
 136   1       
 137   1      
 138   1              
 139   1      }
 140          
 141          void ACMPInterrupt()    interrupt 12
 142          {
 143   1       
 144   1      
 145   1              
 146   1      }
 147          void Timer3Interrupt()    interrupt 13
 148          {
 149   1       
 150   1      
 151   1              
 152   1      }
 153          void Timer4Interrupt()    interrupt 14
 154          {
 155   1       
 156   1      
 157   1              
 158   1      }
 159          void USCI1Interrupt()   interrupt 15    
 160          {
 161   1       
 162   1      
 163   1             
 164   1      }
 165          void USCI2Interrupt()   interrupt 16    
 166          {
 167   1       
 168   1      
 169   1             
 170   1      }
MODULE INFORMATION:   STATIC OVERLAYABLE
   CODE SIZE        =    186    ----
   CONSTANT SIZE    =   ----    ----
   XDATA SIZE       =   ----    ----
   PDATA SIZE       =   ----    ----
   DATA SIZE        =   ----    ----
   IDATA SIZE       =   ----    ----
   BIT SIZE         =   ----    ----
   EDATA SIZE       =   ----    ----
   HDATA SIZE       =   ----    ----
   XDATA CONST SIZE =   ----    ----
   FAR CONST SIZE   =   ----    ----
END OF MODULE INFORMATION.
C51 COMPILATION COMPLETE.  0 WARNING(S),  0 ERROR(S)
