:1000000002002875C15575C2557591557592557583
:10001000A15575A25575B15575B20553A2BF43A23E
:100020008090FFB07402F02278FFE4F6D8FD9000D3
:10003000007F007E08E4F0A3DFFCDEFA7581070292
:10004000005990FF70E04480F0E04401F090FF71AF
:10005000E04402F0E04480F022C2AF12000312003C
:080060006E120042D2AF80FED7
:10006B0002008443A40443A50475A6CA43A4805389
:0F007B00A5FE43A54043A9402253A5FEB2813202
:00000001FF
