:1000000002045343CE0143C80853C8FD43C80153FB
:10001000CEBF53CEDF53C98F43C94053C9F743CE38
:100020000443A90122D3EF9400EE9400400800EFAE
:070030001F70F21E80EF2299
:10003B0002058175C10575915575925575A155755B
:05004B00A255D2952230
:100053000205DAE517240BF8E605172278083007BE
:1000630002780BE475F00112041D0203C52000EBB6
:100073007F2ED2008018EF540F2490D43440D4FF45
:1000830030040BEF24BFB41A0050032461FFE518BA
:1000930060021518051BE51B7002051A30070D7861
:1000A30008E475F00112041DEF02040B0206397413
:1000B30003D2078003E4C207F5178B088A09890A6C
:1000C300E4F518F51AF51BE51860077F2012009177
:1000D30080F57519FFC201C200C202C203C205C284
:1000E30006C20812005FFF700D3007057F00120083
:1000F300A2AF1BAE1A22B4255FC2D5C20412005FA1
:10010300FF24D0B40A00501A75F00A781830D505C8
:1001130008B6FF0106C6A426F620D5047002D20352
:1001230080D924CFB41A00EF5004C2E5D2040202EE
:10013300A2D20180C6D20080C0D20280BCD2D580B8
:10014300BAD20580B47F201200912002077401B552
:10015300180040F1120056FF1200910200CAD208A3
:10016300D2068095120056FB120056FA120056F979
:100173004A4B700679737A037BFF20022EE51860E1
:100183002A7E008E827583001203DE60060EEE6502
:100193001970F0C2D5EBC0E0EAC0E0E9C0E0EE12AE
:1001A30002E9D0E0F9D0E0FAD0E0FB1203C5FF602A
:1001B300AAEBC0E0EAC0E0E9C0E0120091D0E0247D
:1001C30001F9D0E03400FAD0E0FBE5190460DCD596
:1001D30019D980877BFF7A0279E5D202809C791056
:1001E30080027908C206C2088008D2D5790A800441
:1001F300790AC2D5E519047002F519E4FAFDFEFF88
:10020300120056FC7B08200113120056FD7B1030B0
:10021300000A120056FE120056FF7B20EC3382D5F3
:1002230092D55013C3E43000069FFFE49EFEE42002
:1002330001039DFDE49CFCE4CBF8C201EC700CCF00
:10024300CECDCCE824F8F870F38017C3EF33FFEE7C
:1002530033FEED33FDEC33FCEB33FB994002FB0F34
:10026300D8E9EB300105F8D0E0C448B201C0E00A98
:10027300EC4D4E4F78207B0070C2EAB5190040BCAC
:10028300C0E01202EBD0F0D0E0200104C4C0E0C40F
:10029300B201C0F012007AD0F0D5F0EB0200CA121E
:1002A300042D01675301E15801384C01344201E543
:1002B3004F01ED4401ED49014D4301F35501D7468B
:1002C30001D74501D747039350013C2D01402E012F
:1002D300632B014423016120037C2A00FC480000B6
:1002E300015B3F3F3F00790AA2D520031430050983
:1002F300B910020404B9080104A2D5200602500172
:10030300042002689202B518005034C0E07F203008
:1003130003197F30A20272067205500F120342C204
:1003230002C206C205C2087F30800F300503E9C050
:10033300E0120091300503D0E0F9D0E0B518CC30DD
:1003430005177F30B9100C1200917F583004077FD6
:10035300788003B908031200913002057F2D020053
:10036300917F202008F87F2B2006F322920280CF72
:10037300286E756C6C2900D2011200563001F8C248
:1003830001781830D50108F60200FC2D5043495876
:100393001200562403B405004001E490038E931227
:1003A3000082743A120082D2037518040201E1E854
:1003B300600FEFC333FFEE33FEED33FDEC33FCD8B8
:1003C300F122BB010689828A83E0225002E722BB25
:1003D300FE02E32289828A83E49322BB010CE58235
:1003E30029F582E5833AF583E0225006E92582F870
:1003F300E622BBFE06E92582F8E222E58229F582A0
:10040300E5833AF583E49322BB010689828A83F06C
:10041300225002F722BBFE01F322FAE6FB0808E6AC
:10042300F925F0F618E6CA3AF622D083D082F8E42A
:10043300937012740193700DA3A393F8740193F551
:10044300828883E4737402936860EFA3A3A380DFBD
:1004530078FFE4F6D8FD9000007F007E01E4F0A36E
:10046300DFFCDEFA75812A0204A80204EDE493A3FB
:10047300F8E493A34003F68001F208DFF48029E453
:1004830093A3F85407240CC8C333C4540F4420C89F
:10049300834004F456800146F6DFE4800B01020436
:1004A300081020408090062EE47E019360BCA3FFD9
:1004B300543F30E509541FFEE493A360010ECF546B
:1004C300C025E060A840B8E493A3FAE493A3F8E45A
:1004D30093A3C8C582C8CAC583CAF0A3C8C582C8C6
:1004E300CAC583CADFE9DEE780BEC2AF12003E128F
:1004F3000613120003D2AF7F647E001200257BFF38
:100503007A0679441200B8E4F522E52230E1FB5380
:1005130022FDAFCAE48F28F527F526F525AFCBEFEB
:10052300FEE4FCFD2528F528E5273EF527ED3526D5
:10053300F526EC3525F525E4F5CCF5CDF5CAF5CB57
:100543005322FEAE23AF2478101203B2E5282FF511
:1005530028E5273EF527E5263DF526E5253CF52547
:100563007BFF7A06794E85280E85270D85260CF5A7
:100573000B1200B8E4F523F52443CE04808CC0E0CD
:10058300C0D075D000C007A2DEE4335401C43333B6
:10059300335480FFE529547F4FF529C2DE30CF0A5B
:1005A300C2CF0524E5247002052330CE17E522547B
:1005B30001700AD2CA43220153CEFB8005C2CA434B
:1005C3002202C2CEAF29EFC413131354011392DED8
:1005D300D007D0D0D0E032C0E0C0D075D000C00783
:1005E300A2DEE433540125E025E0FFE52A54FB4F66
:1005F300F52AC2DEE59C540164017003539CFEAFEF
:100603002AEF1313543F1392DED007D0D0D0E03239
:10061300438780539C3F439C505389CF4389207524
:100623008B98758D98D28E43A9082202230000046B
:100633002500000000008F9DE59C30E1FB539CFDED
:100643002253696E6F6D63750D0A00256C750D0A73
:0106530000A6
:00000001FF
