C51 COMPILER V9.59.0.0   MAIN                                                              03/03/2022 09:08:25 PAGE 1   


C51 COMPILER V9.59.0.0, COMPILATION OF MODULE MAIN
OBJECT MODULE PLACED IN .\Objects\main.obj
COMPILER INVOKED BY: C:\Keil_v5\C51\BIN\C51.EXE main.c OPTIMIZE(8,SPEED) BROWSE DEBUG OBJECTEXTEND PRINT(.\Listings\main
                    -.lst) TABS(2) OBJECT(.\Objects\main.obj)

line level    source

   1          /*
   2          标题：按键检测-CCP捕获中断
   3          主频：35MHz
   4          用于：51单片机学习机-学电
   5          资料：https://rationmcu.com
   6          */
   7          
   8          #include "stc8g.h"
   9          
  10          /* 发光二极管引脚定义 */
  11          sbit LED_R = P0^5;    // 红色LED
  12          sbit LED_Y = P0^6;    // 黄色LED
  13          sbit LED_G = P0^7;    // 绿色LED
  14          
  15          /* 按键中断处理 */
  16          void PCA_Isr() interrupt 7
  17          {
  18   1        if(CCF2 == 1)      // 如果是按键K1产生的CCP0中断
  19   1        {
  20   2          CCF2 = 0; // 清除中断标志位
  21   2          LED_R = !LED_R;
  22   2        }
  23   1        else if(CCF1 == 1) // 如果是按键K2产生的CCP1中断
  24   1        {
  25   2          CCF1 = 0; // 清除中断标志位
  26   2          LED_Y = !LED_Y;
  27   2        }
  28   1        else if(CCF0 == 1) // 如果是按键K3产生的CCP2中断
  29   1        {
  30   2          CCF0 = 0; // 清除中断标志位
  31   2          LED_G = !LED_G;
  32   2        }
  33   1      }
  34          
  35          /* 主函数 */
  36          void main()
  37          {
  38   1        P0M0 = 0x00;   //设置P0.0~P0.7为双向口模式
  39   1        P0M1 = 0x00;
  40   1        P3M0 = 0x00;   //设置P3.0~P3.7为双向口模式
  41   1        P3M1 = 0x00;
  42   1        
  43   1        /* PCA初始化 设置CCP2中断 */
  44   1        P_SW1 &= ~(1<<5);  // 把PCA映射到P3口  CCPS[1:0]=01
  45   1        P_SW1 |= (1<<4); 
  46   1        CCON = 0x00;       // PCA中断标志位清0   
  47   1        CMOD = 0x08;       // 设置PCA时钟为系统时钟 禁止PCA溢出中断
  48   1        CCAPM2 = 0x11;     // 扩展外部端口CCP2为下降沿中断口  对应按键K1
  49   1        CCAPM1 = 0x11;     // 扩展外部端口CCP1为下降沿中断口  对应按键K2
  50   1        CCAPM0 = 0x11;     // 扩展外部端口CCP0为下降沿中断口  对应按键K3
  51   1      
  52   1        EA = 1;            // 打开总中断
  53   1        
  54   1        while(1)
C51 COMPILER V9.59.0.0   MAIN                                                              03/03/2022 09:08:25 PAGE 2   

  55   1        {
  56   2      
  57   2        }
  58   1      }
  59          
  60          


MODULE INFORMATION:   STATIC OVERLAYABLE
   CODE SIZE        =     57    ----
   CONSTANT SIZE    =   ----    ----
   XDATA SIZE       =   ----    ----
   PDATA SIZE       =   ----    ----
   DATA SIZE        =   ----    ----
   IDATA SIZE       =   ----    ----
   BIT SIZE         =   ----    ----
END OF MODULE INFORMATION.


C51 COMPILATION COMPLETE.  0 WARNING(S),  0 ERROR(S)
