:0E096B005541525430206973204F4B210A0031
:100805007B017D027F021205B8E4750F80750E2508
:10081500F50DF50C751040F511751210FF7E487D2C
:0D082500E87C0112071AE4FD7F0102093A88
:10094C00120805D2AF7BFF7A09796B12016280F530
:04098600C10AC109D8
:0300030002099B54
:01099B003229
:03000B0002099C4B
:01099C003228
:0300130002099D42
:01099D003227
:03001B0002099E39
:01099E003226
:030023000207A72A
:1007A700C0E0C0F0C083C082C0D075D000C000C018
:1007B70001C002C003C004C005C006C0077F021203
:1007C700098BEF60097F02120990D20A80157F0119
:1007D70012098BEF600D7F01120990D20912099857
:1007E700120995D007D006D005D004D003D002D087
:0E07F70001D000D0D0D082D083D0F0D0E0323C
:03002B0002099F28
:01099F003225
:030033000209A01F
:0109A0003224
:03003B000209A116
:0109A1003223
:030043000209A20D
:0109A2003222
:03004B000209A304
:0109A3003221
:030053000209A4FB
:0109A4003220
:030063000209A5EA
:0109A500321F
:03006B000209A6E1
:0109A600321E
:030073000209A7D8
:0109A700321D
:03007B000209A8CF
:0109A800321C
:030083000209A9C6
:0109A900321B
:0D0979008F1C120995300AFDC20AAF1C2226
:10088A00E4F59AF591F5A1F5B1F5C1F5D9F59BF520
:10089A0092F5A2F5B2F5C2F5DAF5D8F5C0F5B0F5DC
:0608AA00A0F590F580228C
:1005B800EF701FEB7006EDF4529A529BBB0107EDEA
:1005C800F4529AED429BEB6402600302067FED420F
:1005D8009A22EF6401701FEB7006EDF4529152926B
:1005E800BB0107EDF45291ED4292EB640260030205
:1005F800067FED429122EF6402701CEB7006EDF469
:1006080052A152A2BB0107EDF452A1ED42A2EB6444
:10061800027064ED42A122EF6403701CEB7006EDDA
:10062800F452B152B2BB0107EDF452B1ED42B2EB54
:1006380064027043ED42B122EF6404701CEB700653
:10064800EDF452C152C2BB0107EDF452C1ED42C2F2
:10065800EB64027022ED42C122EF64057019EB7061
:1006680006EDF452D952DABB0107EDF452D9ED4246
:08067800DABB0203ED42D922B6
:1008F600EF70028D80BF01028D90BF02028DA0BFF6
:0F09060003028DB0BF04028DC0BF05028DD82241
:1008B000EF7003ED4280BF0103ED4290BF0203EDF4
:1008C00042A0BF0303ED42B0BF0403ED42C0BF0529
:0508D00003ED42D822F7
:10085F00EF7004EDF45280BF0104EDF45290BF022B
:10086F0004EDF452A0BF0304EDF452B0BF0404ED45
:0B087F00F452C0BF0504EDF452D82273
:1008D500EF7003AF8022BF0103AF9022BF0203AFC9
:1008E500A022BF0303AFB022BF0403AFC022AFD81D
:0108F50022E0
:10083200EF7005E5805DFF22BF0105E5905DFF22B7
:10084200BF0205E5A05DFF22BF0305E5B05DFF2203
:0D085200BF0405E5C05DFF22E5D85DFF2273
:0F095C00E4F598F59953877F53A8EF53B8EF222E
:10071A008F0B8E0A8D098C08E598542F45104512C7
:10072A00F598E5C854CF4511F5C8E5117036AB0FF9
:10073A00AA0EA90DA80CAF0BAE0AAD09AC0812049B
:10074A0098E4FB7A01F9F81204988F8DAB0FAA0E80
:10075A00A90DA80CAF0BAE0AAD09AC081204988F0C
:10076A008BC28E22E511B43033AB0FAA0EA90DA8A5
:10077A000CAF0BAE0AAD09AC08120498E4FB7A017F
:10078A00F9F81204988FCBAB0FAA0EA90DA80CAFDB
:0D079A000BAE0AAD09AC081204988FCA22FC
:030995008F992215
:03099800AF9922F2
:04092800AD07AC0665
:0D092C00EC600543980880035398F78D99FF
:01093900229B
:10091500E598540475F040A4AD997C002DFFEC35A5
:02092500F0FEE2
:0109270022AD
:10093A00EF7004C2AC8002D2ACED7003C2BC22D20A
:02094A00BC22CD
:05098B00E5985FFF226A
:05099000EFF452982273
:0300000002068075
:1006800078FFE4F6D8FD9000007F007E03E4F0A33D
:0A069000DFFCDEFA7581210206D5B9
:10069A0002094CE493A3F8E493A34003F68001F221
:1006AA0008DFF48029E493A3F85407240CC8C33361
:1006BA00C4540F4420C8834004F456800146F6DF30
:1006CA00E4800B0102040810204080900986E47E31
:1006DA00019360BCA3FF543F30E509541FFEE49325
:1006EA00A360010ECF54C025E060A840B8E493A3EC
:1006FA00FAE493A3F8E493A3C8C582C8CAC583CA17
:10070A00F0A3C8C582C8CAC583CADFE9DEE780BECE
:01098A00006C
:10045C0075F008758200EF2FFFEE33FECD33CDCC57
:10046C0033CCC58233C5829BED9AEC99E5829840DA
:10047C000CF582EE9BFEED9AFDEC99FC0FD5F0D6B7
:10048C00E4CEFBE4CDFAE4CCF9A88222B800C1B9E1
:10049C000059BA002DEC8BF084CFCECDFCE5F0CB1F
:1004AC00F97818EF2FFFEE33FEED33FDEC33FCEB58
:1004BC0033FB10D703994004EB99FB0FD8E5E4F913
:1004CC00FA227818EF2FFFEE33FEED33FDEC33FC00
:1004DC00C933C910D7059BE99A4007EC9BFCE99AF4
:1004EC00F90FD8E0E4C9FAE4CCFB2275F010EF2F39
:1004FC00FFEE33FEED33FDCC33CCC833C810D70739
:10050C009BEC9AE899400AED9BFDEC9AFCE899F873
:0E051C000FD5F0DAE4CDFBE4CCFAE4C8F92206
:10010000E517240BF8E60517227808300702780B6C
:10011000E475F00112058202052A2000EB7F2ED241
:10012000008018EF540F2490D43440D4FF30040BD7
:10013000EF24BFB41A0050032461FFE518600215D4
:1001400018051BE51B7002051A30070D7808E475C9
:10015000F001120582EF0205700209797403D207DB
:100160008003E4C207F5178B088A09890AE4F518A9
:10017000F51AF51BE51860077F2012013B80F57525
:1001800019FFC201C200C202C203C205C206C208F0
:10019000120109FF700D3007057F0012014CAF1BE3
:1001A000AE1A22B4255FC2D5C204120109FF24D0C1
:1001B000B40A00501A75F00A781830D50508B6FF51
:1001C0000106C6A426F620D5047002D20380D924E5
:1001D000CFB41A00EF5004C2E5D20402034CD2019E
:1001E00080C6D20080C0D20280BCD2D580BAD205EF
:1001F00080B47F2012013B2002077401B518004033
:10020000F1120100FF12013B020174D208D20680F4
:1002100095120100FB120100FA120100F94A4B701D
:1002200006791D7A047BFF20022EE518602A7E00E5
:100230008E8275830012054360060EEE651970F01C
:10024000C2D5EBC0E0EAC0E0E9C0E0EE120393D013
:10025000E0F9D0E0FAD0E0FB12052AFF60AAEBC07B
:10026000E0EAC0E0E9C0E012013BD0E02401F9D0AF
:10027000E03400FAD0E0FBE5190460DCD519D98040
:10028000877BFF7A03798FD202809C791080027974
:1002900008C206C2088008D2D5790A8004790AC249
:1002A000D5E519047002F519E4FAFDFEFF1201000C
:1002B000FC7B08200113120100FD7B1030000A12A4
:1002C0000100FE120100FF7B20EC3382D592D55055
:1002D00013C3E43000069FFFE49EFEE42001039D6B
:1002E000FDE49CFCE4CBF8C201EC700CCFCECDCC8D
:1002F000E824F8F870F38017C3EF33FFEE33FEED18
:1003000033FDEC33FCEB33FB994002FB0FD8E9EBF8
:10031000300105F8D0E0C448B201C0E00AEC4D4E0F
:100320004F78207B0070C2EAB5190040BCC0E012D3
:100330000395D0F0D0E0200104C4C0E0C4B201C0F5
:10034000F0120124D0F0D5F0EB02017412059202F4
:100350001153028B5801E24C01DE42028F4F02978B
:0F0360004402974901F743029D550281460281ED
:10036F0045028147043D5001E62D01EA2E020D2B77
:10037F0001EE23020B2004262A01A64800000205E5
:10038F003F3F3F00790AA2D5200314300509B91069
:10039F00020404B9080104A2D5200602500104206A
:1003AF0002689202B518005034C0E07F2030031964
:1003BF007F30A20272067205500F1203ECC202C206
:1003CF0006C205C2087F30800F300503E9C0E01276
:1003DF00013B300503D0E0F9D0E0B518CC3005175C
:1003EF007F30B9100C12013B7F583004077F7880A3
:1003FF0003B9080312013B3002057F2D02013B7F39
:10040F00202008F87F2B2006F322920280CF286E3F
:10041F00756C6C2900D2011201003001F8C201780D
:10042F001830D50108F60201A62D50434958120184
:10043F00002403B405004001E49004389312012C0A
:0D044F00743A12012CD20375180402028BBE
:10052A00BB010689828A83E0225002E722BBFE02CF
:09053A00E32289828A83E4932202
:10054300BB010CE58229F582E5833AF583E022506D
:1005530006E92582F8E622BBFE06E92582F8E222B7
:0D056300E58229F582E5833AF583E49322D1
:10057000BB010689828A83F0225002F722BBFE016A
:02058000F32264
:10058200FAE6FB0808E6F925F0F618E6CA3AF6227A
:10059200D083D082F8E4937012740193700DA3A3F8
:1005A20093F8740193F5828883E47374029368600C
:0605B200EFA3A3A380DF0C
:00000001FF
