:030000000205698D
:1005690078FFE4F6D8FD9000007F007E08E4F0A350
:0A057900DFFCDEFA75814B0204403E
:1005110053696E6F6D63750D0A000D0AC4FAB7A2B7
:10052100CBCDB5C4CFFBCFA2CEAA3A0D0A000D0A9E
:0C0531000D0A00C7EBCAE4C8EB0D0A007D
:100003007F507EC31200237F507EC31200237F5094
:100013007EC31200237F507EC31200237F507EC312
:10002300D3EF9400EE9400400800EF1F70F21E809F
:02003300EF22BA
:10044000E4F508F509C2AF12053D120035D2AF7FC1
:10045000647E001200237BFF7A0579111200B8E454
:10046000F54BE54B30E13E854A097BFF7A05791B68
:100470001200B8E4F508E508C39509501474222564
:1004800008F8E6F59DE59C30E1FB539CFD050880EE
:10049000E57BFF7A05792F1200B8534BFDE4F54A4E
:1004A000534BFE80BD7BFF7A0579341200B81200F1
:0A04B0000312001F12000302046291
:10053D0075C15575C25575915575925575A1557500
:10054D00A25575B15575B205D28453C2F753C2FB8E
:0C055D0090FF8C7404F090FF8D04F022DD
:10003500438780439C40439C104389205389EF4369
:0C0045009E807595FF7594D943A9082290
:0B0583008F9DE59C30E1FB539CFD22A6
:030053000204BAEA
:1004BA00C0E0C0D075D000C000C007E59C540164FC
:1004CA0001703B539CFEAF4BEFC3135401702FE5F1
:1004DA004B54017017AF9DEF640D7005434B0180BB
:1004EA001D7422254AF8A69D054A8012AF9DEF6425
:1004FA000A7005434B028006534BFE754A00D0072B
:07050A00D000D0D0D0E03298
:10005600E519240DF8E6051922780A300702780D0D
:10006600E475F00112040A0203B22000EB7F2ED2DF
:10007600008018EF540F2490D43440D4FF30040B82
:10008600EF24BFB41A0050032461FFE51A6002157D
:100096001A051DE51D7002051C30070D780AE4756A
:1000A600F00112040AEF0203F80205837403D20773
:1000B6008003E4C207F5198B0A8A0B890CE4F51A4A
:1000C600F51CF51DE51A60077F2012009180F57575
:1000D6001BFFC201C200C202C203C205C206C20899
:1000E60012005FFF700D3007057F001200A2AF1DE2
:1000F600AE1C22B4255FC2D5C20412005FFF24D015
:10010600B40A00501A75F00A781A30D50508B6FFF9
:100116000106C6A426F620D5047002D20380D9248F
:10012600CFB41A00EF5004C2E5D2040202A2D201F3
:1001360080C6D20080C0D20280BCD2D580BAD20599
:1001460080B47F201200912002077401B51A004086
:10015600F1120056FF1200910200CAD208D20680A0
:1001660095120056FB120056FA120056F94A4B70C9
:100176000679737A037BFF20022EE51A602A7E0039
:100186008E827583001203CB60060EEE651B70F03F
:10019600C2D5EBC0E0EAC0E0E9C0E0EE1202E9D069
:1001A600E0F9D0E0FAD0E0FB1203B2FF60AAEBC0A0
:1001B600E0EAC0E0E9C0E0120091D0E02401F9D005
:1001C600E03400FAD0E0FBE51B0460DCD51BD980E7
:1001D600877BFF7A0279E5D202809C7910800279CA
:1001E60008C206C2088008D2D5790A8004790AC2F4
:1001F600D5E51B047002F51BE4FAFDFEFF1200565E
:10020600FC7B08200113120056FD7B1030000A12F9
:100216000056FE120056FF7B20EC3382D592D55055
:1002260013C3E43000069FFFE49EFEE42001039D15
:10023600FDE49CFCE4CBF8C201EC700CCFCECDCC37
:10024600E824F8F870F38017C3EF33FFEE33FEEDC2
:1002560033FDEC33FCEB33FB994002FB0FD8E9EBA3
:10026600300105F8D0E0C448B201C0E00AEC4D4EBA
:100276004F78207B0070C2EAB51B0040BCC0E0127C
:1002860002EBD0F0D0E0200104C4C0E0C4B201C04B
:10029600F012007AD0F0D5F0EB0200CA12041A016F
:1002A600675301E15801384C01344201E54F01ED35
:0F02B6004401ED49014D4301F35501D74601D7EE
:1002C5004501D747039350013C2D01402E01632B77
:1002D500014423016120037C2A00FC480000015BE6
:1002E5003F3F3F00790AA2D5200314300509B91014
:1002F500020404B9080104A2D52006025001042015
:1003050002689202B51A005034C0E07F203003190C
:100315007F30A20272067205500F120342C202C25A
:1003250006C205C2087F30800F300503E9C0E01220
:100335000091300503D0E0F9D0E0B51ACC300517AF
:100345007F30B9100C1200917F583004077F7880F8
:1003550003B908031200913002057F2D0200917F39
:10036500202008F87F2B2006F322920280CF286EEA
:10037500756C6C2900D2011200563001F8C2017863
:100385001A30D50108F60200FC2D504349581200D9
:10039500562403B405004001E490038E93120082B5
:0D03A500743A120082D203751A040201E1BD
:1003B200BB010689828A83E0225002E722BBFE0249
:0903C200E32289828A83E493227C
:1003CB00BB010CE58229F582E5833AF583E02250E7
:1003DB0006E92582F8E622BBFE06E92582F8E22231
:0D03EB00E58229F582E5833AF583E493224B
:1003F800BB010689828A83F0225002F722BBFE01E4
:02040800F322DD
:10040A00FAE6FB0808E6F925F0F618E6CA3AF622F3
:10041A00D083D082F8E4937012740193700DA3A371
:10042A0093F8740193F5828883E473740293686085
:06043A00EFA3A3A380DF85
:00000001FF
