BL51 BANKED LINKER/LOCATER V6.22.2.0                                                    10/08/2024  14:07:10  PAGE 1


BL51 BANKED LINKER/LOCATER V6.22.2.0, INVOKED BY:
C:\KEIL_V5\C51\BIN\BL51.EXE .\Objects\STARTUP.obj, .\Objects\main.obj, .\Objects\delay.obj, .\Objects\uart.obj, .\Object
>> s\qma7981.obj TO .\Objects\qma7981 PRINT (.\Listings\qma7981.m51) RAMSIZE (256)


MEMORY MODEL: SMALL


INPUT MODULES INCLUDED:
  .\Objects\STARTUP.obj (?C_STARTUP)
  .\Objects\main.obj (MAIN)
  .\Objects\delay.obj (DELAY)
  .\Objects\uart.obj (UART)
  .\Objects\qma7981.obj (QMA7981)


LINK MAP OF MODULE:  .\Objects\qma7981 (?C_STARTUP)


            TYPE    BASE      LENGTH    RELOCATION   SEGMENT NAME
            -----------------------------------------------------

            * * * * * * *   D A T A   M E M O R Y   * * * * * * *
            REG     0000H     0008H     ABSOLUTE     "REG BANK 0"
            DATA    0008H     0001H     UNIT         _DATA_GROUP_
            IDATA   0009H     0001H     UNIT         ?STACK

            * * * * * * *   C O D E   M E M O R Y   * * * * * * *
            CODE    0000H     0003H     ABSOLUTE     
            CODE    0003H     002AH     UNIT         ?PR?MAIN?MAIN
            CODE    002DH     001EH     UNIT         ?PR?_READ_BYTE?QMA7981
            CODE    004BH     0017H     UNIT         ?PR?_WRITE_BYTE?QMA7981
            CODE    0062H     0015H     UNIT         ?PR?QMA7981INIT?QMA7981
            CODE    0077H     0014H     UNIT         ?PR?_DELAY_MS?DELAY
            CODE    008BH     0014H     UNIT         ?PR?RECVACK?QMA7981
            CODE    009FH     0013H     UNIT         ?PR?UARTINIT?UART
            CODE    00B2H     000FH     UNIT         ?PR?RECVDATA?QMA7981
            CODE    00C1H     000FH     UNIT         ?PR?SENDNAK?QMA7981
            CODE    00D0H     000EH     UNIT         ?PR?_SENDDATA?QMA7981
            CODE    00DEH     000CH     UNIT         ?C_C51STARTUP
            CODE    00EAH     000CH     UNIT         ?PR?WAIT?QMA7981
            CODE    00F6H     000BH     UNIT         ?PR?DELAY1MS?DELAY
            CODE    0101H     0009H     UNIT         ?PR?START?QMA7981
            CODE    010AH     0009H     UNIT         ?PR?STOP?QMA7981
            CODE    0113H     0008H     UNIT         ?PR?_UARTSEND_DATA?UART



OVERLAY MAP OF MODULE:   .\Objects\qma7981 (?C_STARTUP)


SEGMENT                           DATA_GROUP 
  +--> CALLED SEGMENT           START    LENGTH
-----------------------------------------------
?C_C51STARTUP                   -----    -----
  +--> ?PR?MAIN?MAIN

?PR?MAIN?MAIN                   0008H    0001H
BL51 BANKED LINKER/LOCATER V6.22.2.0                                                  10/08/2024  14:07:10  PAGE 2


  +--> ?PR?UARTINIT?UART
  +--> ?PR?QMA7981INIT?QMA7981
  +--> ?PR?_DELAY_MS?DELAY
  +--> ?PR?_READ_BYTE?QMA7981
  +--> ?PR?_UARTSEND_DATA?UART

?PR?QMA7981INIT?QMA7981         -----    -----
  +--> ?PR?_WRITE_BYTE?QMA7981

?PR?_WRITE_BYTE?QMA7981         -----    -----
  +--> ?PR?START?QMA7981
  +--> ?PR?_SENDDATA?QMA7981
  +--> ?PR?RECVACK?QMA7981
  +--> ?PR?STOP?QMA7981

?PR?START?QMA7981               -----    -----
  +--> ?PR?WAIT?QMA7981

?PR?_SENDDATA?QMA7981           -----    -----
  +--> ?PR?WAIT?QMA7981

?PR?RECVACK?QMA7981             -----    -----
  +--> ?PR?_SENDDATA?QMA7981
  +--> ?PR?WAIT?QMA7981

?PR?STOP?QMA7981                -----    -----
  +--> ?PR?WAIT?QMA7981

?PR?_DELAY_MS?DELAY             -----    -----
  +--> ?PR?DELAY1MS?DELAY

?PR?_READ_BYTE?QMA7981          -----    -----
  +--> ?PR?START?QMA7981
  +--> ?PR?RECVACK?QMA7981
  +--> ?PR?_SENDDATA?QMA7981
  +--> ?PR?RECVDATA?QMA7981
  +--> ?PR?SENDNAK?QMA7981
  +--> ?PR?STOP?QMA7981

?PR?RECVDATA?QMA7981            -----    -----
  +--> ?PR?WAIT?QMA7981

?PR?SENDNAK?QMA7981             -----    -----
  +--> ?PR?WAIT?QMA7981



SYMBOL TABLE OF MODULE:  .\Objects\qma7981 (?C_STARTUP)

  VALUE           TYPE          NAME
  ----------------------------------

  -------         MODULE        ?C_STARTUP
  C:00DEH         SEGMENT       ?C_C51STARTUP
  I:0009H         SEGMENT       ?STACK
  C:0000H         PUBLIC        ?C_STARTUP
  D:00E0H         SYMBOL        ACC
BL51 BANKED LINKER/LOCATER V6.22.2.0                                                  10/08/2024  14:07:10  PAGE 3


  D:00F0H         SYMBOL        B
  D:0083H         SYMBOL        DPH
  D:0082H         SYMBOL        DPL
  N:0000H         SYMBOL        IBPSTACK
  N:0100H         SYMBOL        IBPSTACKTOP
  N:0080H         SYMBOL        IDATALEN
  C:00E1H         SYMBOL        IDATALOOP
  N:0000H         SYMBOL        PBPSTACK
  N:0100H         SYMBOL        PBPSTACKTOP
  N:0000H         SYMBOL        PDATALEN
  N:0000H         SYMBOL        PDATASTART
  N:0000H         SYMBOL        PPAGE
  N:0000H         SYMBOL        PPAGEENABLE
  D:00A0H         SYMBOL        PPAGE_SFR
  D:0081H         SYMBOL        SP
  C:00DEH         SYMBOL        STARTUP1
  N:0000H         SYMBOL        XBPSTACK
  N:0000H         SYMBOL        XBPSTACKTOP
  N:0000H         SYMBOL        XDATALEN
  N:0000H         SYMBOL        XDATASTART
  C:0000H         LINE#         126
  C:00DEH         LINE#         133
  C:00E0H         LINE#         134
  C:00E1H         LINE#         135
  C:00E2H         LINE#         136
  C:00E4H         LINE#         185
  C:00E7H         LINE#         196
  -------         ENDMOD        ?C_STARTUP

  -------         MODULE        MAIN
  C:0000H         SYMBOL        _ICE_DUMMY_
  D:0093H         PUBLIC        P0M1
  D:0080H         PUBLIC        P0
  D:00B2H         PUBLIC        P3M0
  D:0090H         PUBLIC        P1
  D:00B1H         PUBLIC        P3M1
  D:00A0H         PUBLIC        P2
  D:00B0H         PUBLIC        P3
  D:00C0H         PUBLIC        P4
  D:00C8H         PUBLIC        P5
  B:0080H.5       PUBLIC        LED_R
  D:00A8H         PUBLIC        IE
  B:0080H.6       PUBLIC        LED_Y
  D:00B8H         PUBLIC        IP
  D:00D8H         PUBLIC        CCON
  C:0003H         PUBLIC        main
  D:0098H         PUBLIC        SCON
  D:0088H         PUBLIC        TCON
  D:00D0H         PUBLIC        PSW
  B:0080H.7       PUBLIC        LED_G
  D:0094H         PUBLIC        P0M0
  -------         PROC          MAIN
  -------         DO            
  D:0008H         SYMBOL        id
  -------         ENDDO         
  C:0003H         LINE#         20
  C:0003H         LINE#         21
BL51 BANKED LINKER/LOCATER V6.22.2.0                                                  10/08/2024  14:07:10  PAGE 4


  C:0003H         LINE#         23
  C:0006H         LINE#         25
  C:0008H         LINE#         26
  C:000AH         LINE#         27
  C:000CH         LINE#         28
  C:000EH         LINE#         30
  C:0011H         LINE#         31
  C:0014H         LINE#         33
  C:0014H         LINE#         34
  C:0014H         LINE#         35
  C:001BH         LINE#         36
  C:0022H         LINE#         37
  C:0025H         LINE#         39
  C:0027H         LINE#         40
  C:0029H         LINE#         41
  C:002BH         LINE#         42
  -------         ENDPROC       MAIN
  -------         ENDMOD        MAIN

  -------         MODULE        DELAY
  C:0000H         SYMBOL        _ICE_DUMMY_
  D:0080H         PUBLIC        P0
  D:0090H         PUBLIC        P1
  D:00A0H         PUBLIC        P2
  D:00B0H         PUBLIC        P3
  D:00C0H         PUBLIC        P4
  C:00F6H         PUBLIC        Delay1ms
  D:00C8H         PUBLIC        P5
  D:00A8H         PUBLIC        IE
  D:00B8H         PUBLIC        IP
  D:00D8H         PUBLIC        CCON
  D:0098H         PUBLIC        SCON
  D:0088H         PUBLIC        TCON
  C:0077H         PUBLIC        _delay_ms
  D:00D0H         PUBLIC        PSW
  -------         PROC          DELAY1MS
  -------         DO            
  D:0007H         SYMBOL        i
  D:0006H         SYMBOL        j
  -------         ENDDO         
  C:00F6H         LINE#         5
  C:00F6H         LINE#         6
  C:00F6H         LINE#         9
  C:00F7H         LINE#         10
  C:00F8H         LINE#         11
  C:00FAH         LINE#         12
  C:00FCH         LINE#         14
  C:00FCH         LINE#         15
  C:00FEH         LINE#         16
  C:0100H         LINE#         17
  -------         ENDPROC       DELAY1MS
  -------         PROC          _DELAY_MS
  D:0004H         SYMBOL        ms
  C:0077H         LINE#         20
  C:007BH         LINE#         21
  C:007BH         LINE#         22
  C:0085H         LINE#         23
BL51 BANKED LINKER/LOCATER V6.22.2.0                                                  10/08/2024  14:07:10  PAGE 5


  C:0085H         LINE#         24
  C:0088H         LINE#         25
  C:008AH         LINE#         26
  -------         ENDPROC       _DELAY_MS
  -------         ENDMOD        DELAY

  -------         MODULE        UART
  C:0000H         SYMBOL        _ICE_DUMMY_
  D:0080H         PUBLIC        P0
  D:0090H         PUBLIC        P1
  D:00A0H         PUBLIC        P2
  D:00B0H         PUBLIC        P3
  D:00C0H         PUBLIC        P4
  D:00C8H         PUBLIC        P5
  C:0113H         PUBLIC        _UartSend_Data
  D:00A8H         PUBLIC        IE
  D:00B8H         PUBLIC        IP
  B:0098H.1       PUBLIC        TI
  D:00D8H         PUBLIC        CCON
  D:0099H         PUBLIC        SBUF
  D:0098H         PUBLIC        SCON
  D:0088H         PUBLIC        TCON
  C:009FH         PUBLIC        UartInit
  D:008EH         PUBLIC        AUXR
  D:00D6H         PUBLIC        T2H
  D:00D7H         PUBLIC        T2L
  D:00D0H         PUBLIC        PSW
  -------         PROC          UARTINIT
  C:009FH         LINE#         6
  C:009FH         LINE#         7
  C:009FH         LINE#         8
  C:00A2H         LINE#         9
  C:00A5H         LINE#         10
  C:00A8H         LINE#         11
  C:00ABH         LINE#         12
  C:00AEH         LINE#         13
  C:00B1H         LINE#         16
  -------         ENDPROC       UARTINIT
  -------         PROC          _UARTSEND_DATA
  D:0007H         SYMBOL        dat
  C:0113H         LINE#         19
  C:0113H         LINE#         20
  C:0113H         LINE#         21
  C:0115H         LINE#         22
  C:0118H         LINE#         23
  C:011AH         LINE#         24
  -------         ENDPROC       _UARTSEND_DATA
  -------         ENDMOD        UART

  -------         MODULE        QMA7981
  C:0000H         SYMBOL        _ICE_DUMMY_
  D:0080H         PUBLIC        P0
  D:0090H         PUBLIC        P1
  D:00A0H         PUBLIC        P2
  D:00B0H         PUBLIC        P3
  D:00C0H         PUBLIC        P4
  C:004BH         PUBLIC        _Write_Byte
BL51 BANKED LINKER/LOCATER V6.22.2.0                                                  10/08/2024  14:07:10  PAGE 6


  D:00C8H         PUBLIC        P5
  C:00D0H         PUBLIC        _SendData
  D:00BAH         PUBLIC        P_SW2
  D:00A8H         PUBLIC        IE
  C:00B2H         PUBLIC        RecvData
  C:0101H         PUBLIC        Start
  C:00EAH         PUBLIC        Wait
  D:00B8H         PUBLIC        IP
  D:00D8H         PUBLIC        CCON
  C:010AH         PUBLIC        Stop
  D:0098H         PUBLIC        SCON
  D:0088H         PUBLIC        TCON
  C:0062H         PUBLIC        QMA7981Init
  C:0096H         PUBLIC        RecvACK
  C:00C1H         PUBLIC        SendNAK
  C:002DH         PUBLIC        _Read_Byte
  D:00D0H         PUBLIC        PSW
  -------         PROC          WAIT
  C:00EAH         LINE#         5
  C:00EAH         LINE#         6
  C:00EAH         LINE#         7
  C:00F1H         LINE#         8
  C:00F5H         LINE#         9
  -------         ENDPROC       WAIT
  -------         PROC          START
  C:0101H         LINE#         11
  C:0101H         LINE#         12
  C:0101H         LINE#         13
  C:0107H         LINE#         14
  -------         ENDPROC       START
  -------         PROC          _SENDDATA
  D:0007H         SYMBOL        dat
  C:00D0H         LINE#         17
  C:00D0H         LINE#         18
  C:00D0H         LINE#         19
  C:00D5H         LINE#         20
  C:00DBH         LINE#         21
  -------         ENDPROC       _SENDDATA
  -------         PROC          L?0013
  -------         ENDPROC       L?0013
  -------         PROC          RECVACK
  C:0096H         LINE#         24
  C:0096H         LINE#         25
  C:0096H         LINE#         26
  C:009CH         LINE#         27
  -------         ENDPROC       RECVACK
  -------         PROC          RECVDATA
  C:00B2H         LINE#         30
  C:00B2H         LINE#         31
  C:00B2H         LINE#         32
  C:00B8H         LINE#         33
  C:00BBH         LINE#         34
  C:00C0H         LINE#         35
  -------         ENDPROC       RECVDATA
  -------         PROC          SENDNAK
  C:00C1H         LINE#         44
  C:00C1H         LINE#         45
BL51 BANKED LINKER/LOCATER V6.22.2.0                                                  10/08/2024  14:07:10  PAGE 7


  C:00C1H         LINE#         46
  C:00C7H         LINE#         47
  C:00CDH         LINE#         48
  -------         ENDPROC       SENDNAK
  -------         PROC          STOP
  C:010AH         LINE#         51
  C:010AH         LINE#         52
  C:010AH         LINE#         53
  C:0110H         LINE#         54
  -------         ENDPROC       STOP
  -------         PROC          _WRITE_BYTE
  D:0005H         SYMBOL        reg
  D:0006H         SYMBOL        dat
  C:004BH         LINE#         60
  C:004FH         LINE#         61
  C:004FH         LINE#         62
  C:0052H         LINE#         63
  C:0057H         LINE#         64
  C:005AH         LINE#         65
  C:005CH         LINE#         66
  C:005CH         LINE#         67
  C:005CH         LINE#         68
  C:005FH         LINE#         69
  -------         ENDPROC       _WRITE_BYTE
  -------         PROC          _READ_BYTE
  D:0006H         SYMBOL        reg
  -------         DO            
  D:0007H         SYMBOL        res
  -------         ENDDO         
  C:002DH         LINE#         75
  C:002FH         LINE#         76
  C:002FH         LINE#         79
  C:0032H         LINE#         80
  C:0034H         LINE#         81
  C:0034H         LINE#         82
  C:0034H         LINE#         83
  C:0037H         LINE#         84
  C:003AH         LINE#         85
  C:003FH         LINE#         86
  C:0042H         LINE#         87
  C:0045H         LINE#         88
  C:0048H         LINE#         89
  -------         ENDPROC       _READ_BYTE
  -------         PROC          QMA7981INIT
  C:0062H         LINE#         95
  C:0062H         LINE#         96
  C:0062H         LINE#         97
  C:0065H         LINE#         99
  C:006BH         LINE#         100
  C:0070H         LINE#         101
  -------         ENDPROC       QMA7981INIT
  -------         ENDMOD        QMA7981

Program Size: data=10.0 xdata=0 code=283
LINK/LOCATE RUN COMPLETE.  0 WARNING(S),  0 ERROR(S)
