C51 COMPILER V9.59.0.0   QMA7981                                                           10/08/2024 14:07:10 PAGE 1   


C51 COMPILER V9.59.0.0, COMPILATION OF MODULE QMA7981
OBJECT MODULE PLACED IN .\Objects\qma7981.obj
COMPILER INVOKED BY: C:\Keil_v5\C51\BIN\C51.EXE module\qma7981.c OPTIMIZE(8,SPEED) BROWSE INCDIR(.\module) DEBUG OBJECTE
                    -XTEND PRINT(.\Listings\qma7981.lst) TABS(2) OBJECT(.\Objects\qma7981.obj)

line level    source

   1          #include "qma7981.h"
   2          #include "delay.h"
   3          #include "math.h"
   4          
   5          void Wait()
   6          {
   7   1        while (!(I2CMSST & 0x40));
   8   1        I2CMSST &= ~0x40;
   9   1      }
  10          
  11          void Start()
  12          {
  13   1        I2CMSCR = 0x01;                             //发送START命令
  14   1        Wait();
  15   1      }
  16          
  17          void SendData(char dat)
  18          {
  19   1        I2CTXD = dat;                               //写数据到数据缓冲区
  20   1        I2CMSCR = 0x02;                             //发送SEND命令
  21   1        Wait();
  22   1      }
  23          
  24          void RecvACK()
  25          {
  26   1        I2CMSCR = 0x03;                             //发送读ACK命令
  27   1        Wait();
  28   1      }
  29          
  30          char RecvData()
  31          {
  32   1        I2CMSCR = 0x04;                             //发送RECV命令
  33   1        Wait();
  34   1        return I2CRXD;
  35   1      }
  36          
  37          //void SendACK()
  38          //{
  39          //  I2CMSST = 0x00;                             //设置ACK信号
  40          //  I2CMSCR = 0x05;                             //发送ACK命令
  41          //  Wait();
  42          //}
  43          
  44          void SendNAK()
  45          {
  46   1        I2CMSST = 0x01;                             //设置NAK信号
  47   1        I2CMSCR = 0x05;                             //发送ACK命令
  48   1        Wait();
  49   1      }
  50          
  51          void Stop()
  52          {
  53   1        I2CMSCR = 0x06;                             //发送STOP命令
  54   1        Wait();
C51 COMPILER V9.59.0.0   QMA7981                                                           10/08/2024 14:07:10 PAGE 2   

  55   1      }
  56          
  57          /* IIC写一个字节 
  58             reg:寄存器地址
  59             dat:数据 */
  60          void Write_Byte(unsigned char reg, unsigned char dat)          
  61          { 
  62   1        Start(); 
  63   1        SendData(0x24);//发送器件地址+写命令  
  64   1        RecvACK();
  65   1        SendData(reg);  //写寄存器地址
  66   1        RecvACK();    //等待应答 
  67   1        SendData(dat);//发送数据
  68   1        RecvACK();   
  69   1        Stop();
  70   1      }
  71          
  72          /* IIC读一个字节  
  73             reg:寄存器地址 
  74             返回值:读到的数据 */
  75          unsigned char Read_Byte(unsigned char reg)
  76          {
  77   1        unsigned char res;
  78   1        
  79   1        Start(); 
  80   1        SendData(0x24);//发送器件地址+写命令  
  81   1        RecvACK();    //等待应答 
  82   1        SendData(reg);  //写寄存器地址
  83   1        RecvACK();    //等待应答
  84   1        Start(); 
  85   1        SendData(0x25);//发送器件地址+读命令  
  86   1        RecvACK();    //等待应答 
  87   1        res=RecvData();//读取数据,发送nACK 
  88   1        SendNAK();
  89   1        Stop();     //产生一个停止条件 
  90   1        
  91   1        return res;   
  92   1      }
  93          
  94          /* QMA7981初始化设置 */
  95          void QMA7981Init(void)   //QMA7981初始化设置
  96          {
  97   1        P_SW2 |= 0xB0; // EAXFR=1使能访问XFR  I2C_S=11把I2C引脚映射到P3.2 P3.3引脚
  98   1      
  99   1        I2CCFG = 0xFF;   //使能I2C主机模式
 100   1        I2CMSST = 0x00;
 101   1        Write_Byte(0x11,0xc0);       //将设备设置为active模式
 102   1      }
 103          
 104          
 105          
 106          


MODULE INFORMATION:   STATIC OVERLAYABLE
   CODE SIZE        =    168    ----
   CONSTANT SIZE    =   ----    ----
   XDATA SIZE       =   ----    ----
   PDATA SIZE       =   ----    ----
   DATA SIZE        =   ----    ----
   IDATA SIZE       =   ----    ----
   BIT SIZE         =   ----    ----
C51 COMPILER V9.59.0.0   QMA7981                                                           10/08/2024 14:07:10 PAGE 3   

END OF MODULE INFORMATION.


C51 COMPILATION COMPLETE.  0 WARNING(S),  0 ERROR(S)
