BL51 BANKED LINKER/LOCATER V6.22.2.0                                                    03/03/2022  09:15:07  PAGE 1


BL51 BANKED LINKER/LOCATER V6.22.2.0, INVOKED BY:
C:\KEIL_V5\C51\BIN\BL51.EXE .\Objects\STARTUP.obj, .\Objects\main.obj, .\Objects\uart.obj, .\Objects\adc.obj TO .\Object
>> s\wkt PRINT (.\Listings\wkt.m51) RAMSIZE (256)


MEMORY MODEL: SMALL


INPUT MODULES INCLUDED:
  .\Objects\STARTUP.obj (?C_STARTUP)
  .\Objects\main.obj (MAIN)
  .\Objects\uart.obj (UART)
  .\Objects\adc.obj (ADC)
  C:\KEIL_V5\C51\LIB\C51S.LIB (?C?ILDPTR)
  C:\KEIL_V5\C51\LIB\C51S.LIB (?C?LMUL)
  C:\KEIL_V5\C51\LIB\C51S.LIB (?C?ULDIV)
  C:\KEIL_V5\C51\LIB\C51S.LIB (?C?SLDIV)
  C:\KEIL_V5\C51\LIB\C51S.LIB (?C?LIMUL)
  C:\KEIL_V5\C51\LIB\C51S.LIB (PRINTF)
  C:\KEIL_V5\C51\LIB\C51S.LIB (?C?CLDPTR)
  C:\KEIL_V5\C51\LIB\C51S.LIB (?C?CLDOPTR)
  C:\KEIL_V5\C51\LIB\C51S.LIB (?C?CSTPTR)
  C:\KEIL_V5\C51\LIB\C51S.LIB (?C?PLDIIDATA)
  C:\KEIL_V5\C51\LIB\C51S.LIB (?C?CCASE)
  C:\KEIL_V5\C51\LIB\C51S.LIB (PUTCHAR)


LINK MAP OF MODULE:  .\Objects\wkt (?C_STARTUP)


            TYPE    BASE      LENGTH    RELOCATION   SEGMENT NAME
            -----------------------------------------------------

            * * * * * * *   D A T A   M E M O R Y   * * * * * * *
            REG     0000H     0008H     ABSOLUTE     "REG BANK 0"
            DATA    0008H     0014H     UNIT         _DATA_GROUP_
                    001CH     0004H                  *** GAP ***
            BIT     0020H.0   0001H.1   UNIT         _BIT_GROUP_
                    0021H.1   0000H.7                *** GAP ***
            DATA    0022H     0007H     UNIT         ?DT?ADC
            IDATA   0029H     0001H     UNIT         ?STACK

            * * * * * * *   C O D E   M E M O R Y   * * * * * * *
            CODE    0000H     0003H     ABSOLUTE     
            CODE    0003H     035CH     UNIT         ?PR?PRINTF?PRINTF
            CODE    035FH     0203H     UNIT         ?C?LIB_CODE
            CODE    0562H     006EH     UNIT         ?PR?FETCH_VDDA?ADC
            CODE    05D0H     0054H     UNIT         ?PR?FETCH_POWER_V?ADC
            CODE    0624H     0045H     UNIT         ?PR?MAIN?MAIN
            CODE    0669H     0044H     UNIT         ?C?LDIV
            CODE    06ADH     0027H     UNIT         ?PR?PUTCHAR?PUTCHAR
            CODE    06D4H     0016H     UNIT         ?PR?ADCREAD?ADC
            CODE    06EAH     0015H     UNIT         ?CO?MAIN
            CODE    06FFH     0015H     UNIT         ?PR?UARTINIT?UART
            CODE    0714H     000DH     UNIT         ?PR?ADC_INIT?ADC
            CODE    0721H     000CH     UNIT         ?C_C51STARTUP


BL51 BANKED LINKER/LOCATER V6.22.2.0                                                  03/03/2022  09:15:07  PAGE 2



OVERLAY MAP OF MODULE:   .\Objects\wkt (?C_STARTUP)


SEGMENT                           BIT_GROUP          DATA_GROUP 
  +--> CALLED SEGMENT          START    LENGTH     START    LENGTH
------------------------------------------------------------------
?C_C51STARTUP                  -----    -----      -----    -----
  +--> ?PR?MAIN?MAIN

?PR?MAIN?MAIN                  -----    -----      -----    -----
  +--> ?PR?UARTINIT?UART
  +--> ?PR?ADC_INIT?ADC
  +--> ?CO?MAIN
  +--> ?PR?PRINTF?PRINTF
  +--> ?PR?FETCH_VDDA?ADC
  +--> ?PR?FETCH_POWER_V?ADC

?PR?PRINTF?PRINTF              0020H.0  0001H.1    0008H    0014H
  +--> ?PR?PUTCHAR?PUTCHAR

?PR?FETCH_VDDA?ADC             -----    -----      0008H    0002H
  +--> ?PR?ADCREAD?ADC

?PR?FETCH_POWER_V?ADC          -----    -----      -----    -----
  +--> ?PR?ADCREAD?ADC



SYMBOL TABLE OF MODULE:  .\Objects\wkt (?C_STARTUP)

  VALUE           TYPE          NAME
  ----------------------------------

  -------         MODULE        ?C_STARTUP
  C:0721H         SEGMENT       ?C_C51STARTUP
  I:0029H         SEGMENT       ?STACK
  C:0000H         PUBLIC        ?C_STARTUP
  D:00E0H         SYMBOL        ACC
  D:00F0H         SYMBOL        B
  D:0083H         SYMBOL        DPH
  D:0082H         SYMBOL        DPL
  N:0000H         SYMBOL        IBPSTACK
  N:0100H         SYMBOL        IBPSTACKTOP
  N:0080H         SYMBOL        IDATALEN
  C:0724H         SYMBOL        IDATALOOP
  N:0000H         SYMBOL        PBPSTACK
  N:0100H         SYMBOL        PBPSTACKTOP
  N:0000H         SYMBOL        PDATALEN
  N:0000H         SYMBOL        PDATASTART
  N:0000H         SYMBOL        PPAGE
  N:0000H         SYMBOL        PPAGEENABLE
  D:00A0H         SYMBOL        PPAGE_SFR
  D:0081H         SYMBOL        SP
  C:0721H         SYMBOL        STARTUP1
  N:0000H         SYMBOL        XBPSTACK
  N:0000H         SYMBOL        XBPSTACKTOP
BL51 BANKED LINKER/LOCATER V6.22.2.0                                                  03/03/2022  09:15:07  PAGE 3


  N:0000H         SYMBOL        XDATALEN
  N:0000H         SYMBOL        XDATASTART
  C:0000H         LINE#         126
  C:0721H         LINE#         133
  C:0723H         LINE#         134
  C:0724H         LINE#         135
  C:0725H         LINE#         136
  C:0727H         LINE#         185
  C:072AH         LINE#         196
  -------         ENDMOD        ?C_STARTUP

  -------         MODULE        MAIN
  C:0000H         SYMBOL        _ICE_DUMMY_
  D:0093H         PUBLIC        P0M1
  D:0080H         PUBLIC        P0
  D:0090H         PUBLIC        P1
  D:00A0H         PUBLIC        P2
  D:00B0H         PUBLIC        P3
  D:00ABH         PUBLIC        WKTCH
  D:00C0H         PUBLIC        P4
  D:00C8H         PUBLIC        P5
  D:00AAH         PUBLIC        WKTCL
  B:0080H.5       PUBLIC        LED_R
  D:00A8H         PUBLIC        IE
  D:00B8H         PUBLIC        IP
  D:00D8H         PUBLIC        CCON
  C:0624H         PUBLIC        main
  D:0087H         PUBLIC        PCON
  D:0098H         PUBLIC        SCON
  D:0088H         PUBLIC        TCON
  D:00D0H         PUBLIC        PSW
  D:0094H         PUBLIC        P0M0
  -------         PROC          MAIN
  C:0624H         LINE#         23
  C:0624H         LINE#         24
  C:0624H         LINE#         25
  C:0627H         LINE#         26
  C:0629H         LINE#         29
  C:062CH         LINE#         30
  C:062FH         LINE#         33
  C:0632H         LINE#         34
  C:0635H         LINE#         36
  C:063EH         LINE#         38
  C:063EH         LINE#         39
  C:063EH         LINE#         41
  C:0643H         LINE#         42
  C:0646H         LINE#         43
  C:064BH         LINE#         44
  C:0650H         LINE#         46
  C:0652H         LINE#         47
  C:0655H         LINE#         48
  C:0658H         LINE#         49
  C:0667H         LINE#         50
  -------         ENDPROC       MAIN
  -------         ENDMOD        MAIN

  -------         MODULE        UART
BL51 BANKED LINKER/LOCATER V6.22.2.0                                                  03/03/2022  09:15:07  PAGE 4


  C:0000H         SYMBOL        _ICE_DUMMY_
  D:0080H         PUBLIC        P0
  D:0090H         PUBLIC        P1
  D:00A0H         PUBLIC        P2
  D:00B0H         PUBLIC        P3
  D:00C0H         PUBLIC        P4
  D:00C8H         PUBLIC        P5
  D:00A8H         PUBLIC        IE
  D:00B8H         PUBLIC        IP
  B:0098H.1       PUBLIC        TI
  D:00D8H         PUBLIC        CCON
  D:0098H         PUBLIC        SCON
  D:0088H         PUBLIC        TCON
  C:06FFH         PUBLIC        UartInit
  D:008EH         PUBLIC        AUXR
  D:00D6H         PUBLIC        T2H
  D:00D7H         PUBLIC        T2L
  D:00D0H         PUBLIC        PSW
  -------         PROC          UARTINIT
  C:06FFH         LINE#         6
  C:06FFH         LINE#         7
  C:06FFH         LINE#         8
  C:0702H         LINE#         9
  C:0705H         LINE#         10
  C:0708H         LINE#         11
  C:070BH         LINE#         12
  C:070EH         LINE#         13
  C:0711H         LINE#         15
  C:0713H         LINE#         16
  -------         ENDPROC       UARTINIT
  -------         ENDMOD        UART

  -------         MODULE        ADC
  C:0000H         SYMBOL        _ICE_DUMMY_
  D:0080H         PUBLIC        P0
  D:0090H         PUBLIC        P1
  D:00A0H         PUBLIC        P2
  D:00B0H         PUBLIC        P3
  D:00C0H         PUBLIC        P4
  D:00C8H         PUBLIC        P5
  D:00A8H         PUBLIC        IE
  C:05D0H         PUBLIC        Fetch_POWER_V
  D:00BDH         PUBLIC        ADC_RES
  D:0022H         PUBLIC        BGV_Voltage
  D:00B8H         PUBLIC        IP
  D:00DEH         PUBLIC        ADCCFG
  D:00D8H         PUBLIC        CCON
  D:00BCH         PUBLIC        ADC_CONTR
  D:0098H         PUBLIC        SCON
  D:0088H         PUBLIC        TCON
  C:0714H         PUBLIC        ADC_Init
  D:0025H         PUBLIC        POWER_Voltage
  C:06D4H         PUBLIC        ADCRead
  D:0027H         PUBLIC        VDDA_Voltage
  D:00BEH         PUBLIC        ADC_RESL
  C:0562H         PUBLIC        Fetch_VDDA
  D:00D0H         PUBLIC        PSW
BL51 BANKED LINKER/LOCATER V6.22.2.0                                                  03/03/2022  09:15:07  PAGE 5


  -------         PROC          ADC_INIT
  C:0714H         LINE#         10
  C:0714H         LINE#         11
  C:0714H         LINE#         12
  C:071DH         LINE#         13
  C:0720H         LINE#         14
  -------         ENDPROC       ADC_INIT
  -------         PROC          ADCREAD
  -------         DO            
  D:0006H         SYMBOL        res
  -------         ENDDO         
  C:06D4H         LINE#         17
  C:06D4H         LINE#         18
  C:06D4H         LINE#         21
  C:06D7H         LINE#         22
  C:06D8H         LINE#         23
  C:06D9H         LINE#         24
  C:06DEH         LINE#         25
  C:06E1H         LINE#         26
  C:06E9H         LINE#         28
  C:06E9H         LINE#         29
  -------         ENDPROC       ADCREAD
  -------         PROC          FETCH_VDDA
  -------         DO            
  D:0008H         SYMBOL        res
  D:0004H         SYMBOL        i
  -------         ENDDO         
  C:0562H         LINE#         32
  C:0562H         LINE#         33
  C:0562H         LINE#         34
  C:0567H         LINE#         37
  C:056AH         LINE#         38
  C:056DH         LINE#         39
  C:0570H         LINE#         40
  C:057CH         LINE#         41
  C:057CH         LINE#         42
  C:0589H         LINE#         43
  C:058CH         LINE#         44
  C:059DH         LINE#         45
  C:05CFH         LINE#         46
  -------         ENDPROC       FETCH_VDDA
  -------         PROC          FETCH_POWER_V
  -------         DO            
  D:0002H         SYMBOL        res
  D:0004H         SYMBOL        i
  -------         ENDDO         
  C:05D0H         LINE#         49
  C:05D0H         LINE#         50
  C:05D0H         LINE#         51
  C:05D3H         LINE#         54
  C:05D6H         LINE#         55
  C:05D9H         LINE#         56
  C:05DCH         LINE#         57
  C:05E8H         LINE#         58
  C:05E8H         LINE#         59
  C:05F1H         LINE#         60
  C:05F4H         LINE#         61
BL51 BANKED LINKER/LOCATER V6.22.2.0                                                  03/03/2022  09:15:07  PAGE 6


  C:0602H         LINE#         62
  C:0623H         LINE#         63
  -------         ENDPROC       FETCH_POWER_V
  -------         ENDMOD        ADC

  -------         MODULE        ?C?ILDPTR
  C:035FH         PUBLIC        ?C?ILDPTR
  -------         ENDMOD        ?C?ILDPTR

  -------         MODULE        ?C?LMUL
  C:038AH         PUBLIC        ?C?LMUL
  -------         ENDMOD        ?C?LMUL

  -------         MODULE        ?C?ULDIV
  C:0415H         PUBLIC        ?C?ULDIV
  -------         ENDMOD        ?C?ULDIV

  -------         MODULE        ?C?SLDIV
  C:0669H         PUBLIC        ?C?SLDIV
  -------         ENDMOD        ?C?SLDIV

  -------         MODULE        ?C?LIMUL
  C:04A7H         PUBLIC        ?C?LIMUL
  -------         ENDMOD        ?C?LIMUL

  -------         MODULE        PRINTF
  D:0008H         PUBLIC        ?_PRINTF517?BYTE
  D:0008H         PUBLIC        ?_PRINTF?BYTE
  D:0008H         PUBLIC        ?_SPRINTF517?BYTE
  D:0008H         PUBLIC        ?_SPRINTF?BYTE
  C:0065H         PUBLIC        _PRINTF
  C:0065H         PUBLIC        _PRINTF517
  C:005FH         PUBLIC        _SPRINTF
  C:005FH         PUBLIC        _SPRINTF517
  -------         ENDMOD        PRINTF

  -------         MODULE        ?C?CLDPTR
  C:04D4H         PUBLIC        ?C?CLDPTR
  -------         ENDMOD        ?C?CLDPTR

  -------         MODULE        ?C?CLDOPTR
  C:04EDH         PUBLIC        ?C?CLDOPTR
  -------         ENDMOD        ?C?CLDOPTR

  -------         MODULE        ?C?CSTPTR
  C:051AH         PUBLIC        ?C?CSTPTR
  -------         ENDMOD        ?C?CSTPTR

  -------         MODULE        ?C?PLDIIDATA
  C:052CH         PUBLIC        ?C?PLDIIDATA
  -------         ENDMOD        ?C?PLDIIDATA

  -------         MODULE        ?C?CCASE
  C:053CH         PUBLIC        ?C?CCASE
  -------         ENDMOD        ?C?CCASE

  -------         MODULE        PUTCHAR
BL51 BANKED LINKER/LOCATER V6.22.2.0                                                  03/03/2022  09:15:07  PAGE 7


  C:06ADH         PUBLIC        _PUTCHAR
  -------         ENDMOD        PUTCHAR

Program Size: data=37.1 xdata=0 code=1837
LINK/LOCATE RUN COMPLETE.  0 WARNING(S),  0 ERROR(S)
