:100000000201FC0201A9438F08438F40538FF8433C
:100010008F80220200F9C0E0C0D075D000C007A2D6
:10002000DEE4335401FFE50A54FE4FF50A750B0177
:0C003000E50A1392DED007D0D0D0E032F9
:03004300020016A2
:1000530002013DE4F50CC2AF120176D2C1D2AFE486
:10006300F50B1200061201D943A902D2A8D2AA7530
:10007300CF07758655438702000075CF07538FF767
:1000830053A9FDC2A8C2AAAF0BEF64017014750C8B
:1000930014C3E50C94017480948040C3B2A6150C7C
:1000A30080EFAF0BEF64027014750C14C3E50C946E
:1000B300017480948040A8B2A3150C80EFAF0BEFBE
:1000C30064037014750C14C3E50C9401748094805C
:1000D300408DB2A4150C80EFAF0BEF6404708075F4
:1000E3000C14C3E50C9401748094805003020062E5
:1000F300B2A5150C80ECC0E0C0D075D000C007A23B
:10010300DEE433540125E025E0FFE50954FB4FF518
:1001130009C2DEE5AB30E20653ABFB750B03E5AB7F
:1001230030E50653ABDF750B04AF09EF1313543FF0
:100133001392DED007D0D0D0E032C0E0C0D075D06B
:1001430000C007A2DEE433540125E025E0FFE50A01
:1001530054FB4FF50AC2DEE59C540164017003535E
:100163009CFEAF0AEF1313543F1392DED007D0D097
:10017300D0E03275C10575915575925575A15575C8
:10018300A255D295C294C293C2A25392FE43920245
:100193004393105391BF43918043930853A1EF437B
:1001A300A12043A30422C0E0C0D075D000C007A2A1
:1001B300DEE4335401FFE50954FE4FF509C2DEE5E1
:1001C300AC30E20653ACFB750B02E5091392DED0AB
:1001D30007D0D0D0E032D2DE43AC0143AC0443AB12
:1001E3000143AB0443AB0143AB20C2DE53ACFD433D
:1001F300AC0153ABFD43AB012278FFE4F6D8FD908D
:1002030000007F007E01E4F0A3DFFCDEFA75810CC1
:0302130002005690
:00000001FF
