BL51 BANKED LINKER/LOCATER V6.22.4.0                                                    03/14/2023  09:08:18  PAGE 1


BL51 BANKED LINKER/LOCATER V6.22.4.0, INVOKED BY:
D:\KEIL_V5\C51\BIN\BL51.EXE ..\OUTPUT\STARTUP.obj, ..\OUTPUT\main.obj, ..\OUTPUT\Work.obj, ..\OUTPUT\BootloaderEntrance.
>> obj TO ..\OUTPUT\Bootloader-SH0 PRINT (.\Bootloader-SH0.m51) RAMSIZE (256)


MEMORY MODEL: SMALL


INPUT MODULES INCLUDED:
  ..\OUTPUT\STARTUP.obj (?C_STARTUP)
  ..\OUTPUT\main.obj (MAIN)
  ..\OUTPUT\Work.obj (WORK)
  ..\OUTPUT\BootloaderEntrance.obj (BOOTLOADERENTRANCE)
  D:\KEIL_V5\C51\LIB\C51S.LIB (?C_INIT)
  D:\KEIL_V5\C51\LIB\C51S.LIB (PRINTF)
  D:\KEIL_V5\C51\LIB\C51S.LIB (?C?CLDPTR)
  D:\KEIL_V5\C51\LIB\C51S.LIB (?C?CLDOPTR)
  D:\KEIL_V5\C51\LIB\C51S.LIB (?C?CSTPTR)
  D:\KEIL_V5\C51\LIB\C51S.LIB (?C?PLDIIDATA)
  D:\KEIL_V5\C51\LIB\C51S.LIB (?C?CCASE)


LINK MAP OF MODULE:  ..\OUTPUT\Bootloader-SH0 (?C_STARTUP)


            TYPE    BASE      LENGTH    RELOCATION   SEGMENT NAME
            -----------------------------------------------------

            * * * * * * *   D A T A   M E M O R Y   * * * * * * *
            REG     0000H     0008H     ABSOLUTE     "REG BANK 0"
            DATA    0008H     0014H     UNIT         _DATA_GROUP_
            DATA    001CH     0004H     UNIT         ?DT?WORK
            BIT     0020H.0   0001H.1   UNIT         _BIT_GROUP_
                    0021H.1   0000H.7                *** GAP ***
            DATA    0022H     000BH     UNIT         ?DT?BOOTLOADERENTRANCE
            IDATA   002DH     0001H     UNIT         ?STACK

            * * * * * * *   C O D E   M E M O R Y   * * * * * * *
            CODE    0000H     0003H     ABSOLUTE     
            CODE    0003H     001FH     UNIT         ?PR?MAIN?MAIN
                    0022H     0001H                  *** GAP ***
            CODE    0023H     0003H     ABSOLUTE     
            CODE    0026H     035CH     UNIT         ?PR?PRINTF?PRINTF
            CODE    0382H     009AH     UNIT         ?C_C51STARTUP
            CODE    041CH     008EH     UNIT         ?C?LIB_CODE
            CODE    04AAH     0048H     UNIT         ?PR?UART_INTERRUPT?BOOTLOADERENTRANCE
            CODE    04F2H     0032H     UNIT         ?PR?UARTRECECMD?BOOTLOADERENTRANCE
            CODE    0524H     0030H     UNIT         ?CO?MAIN
            CODE    0554H     001BH     UNIT         ?PR?_IAP_GOTO?BOOTLOADERENTRANCE
            CODE    056FH     0019H     UNIT         ?PR?UARTINIT?BOOTLOADERENTRANCE
            CODE    0588H     0017H     UNIT         ?PR?BOOTLOADERCHECK?BOOTLOADERENTRANCE
            CODE    059FH     0013H     UNIT         ?PR?_DELAY40MS?WORK
            CODE    05B2H     0011H     UNIT         ?PR?_DELAY?WORK
            CODE    05C3H     000EH     UNIT         ?C_INITSEG
            CODE    05D1H     000AH     UNIT         ?PR?_PUTCHAR?MAIN
            CODE    05DBH     0007H     UNIT         ?PR?LEDINIT?WORK
            CODE    05E2H     0007H     UNIT         ?PR?LEDSHOW0?WORK

BL51 BANKED LINKER/LOCATER V6.22.4.0                                                  03/14/2023  09:08:18  PAGE 2




OVERLAY MAP OF MODULE:   ..\OUTPUT\Bootloader-SH0 (?C_STARTUP)


SEGMENT                                           BIT_GROUP          DATA_GROUP 
  +--> CALLED SEGMENT                          START    LENGTH     START    LENGTH
----------------------------------------------------------------------------------
?C_C51STARTUP                                  -----    -----      -----    -----
  +--> ?PR?MAIN?MAIN
  +--> ?C_INITSEG

?PR?MAIN?MAIN                                  -----    -----      -----    -----
  +--> ?PR?LEDINIT?WORK
  +--> ?PR?UARTINIT?BOOTLOADERENTRANCE
  +--> ?CO?MAIN
  +--> ?PR?PRINTF?PRINTF
  +--> ?PR?LEDSHOW0?WORK

?PR?PRINTF?PRINTF                              0020H.0  0001H.1    0008H    0014H
  +--> ?PR?_PUTCHAR?MAIN

?PR?LEDSHOW0?WORK                              -----    -----      -----    -----
  +--> ?PR?_DELAY40MS?WORK

?PR?_DELAY40MS?WORK                            -----    -----      -----    -----
  +--> ?PR?_DELAY?WORK

*** NEW ROOT ***************************************************

?PR?UART_INTERRUPT?BOOTLOADERENTRANCE          -----    -----      -----    -----
  +--> ?PR?BOOTLOADERCHECK?BOOTLOADERENTRANCE

?PR?BOOTLOADERCHECK?BOOTLOADERENTRANCE         -----    -----      -----    -----
  +--> ?PR?UARTRECECMD?BOOTLOADERENTRANCE
  +--> ?PR?_IAP_GOTO?BOOTLOADERENTRANCE



SYMBOL TABLE OF MODULE:  ..\OUTPUT\Bootloader-SH0 (?C_STARTUP)

  VALUE           TYPE          NAME
  ----------------------------------

  -------         MODULE        ?C_STARTUP
  C:0382H         SEGMENT       ?C_C51STARTUP
  I:002DH         SEGMENT       ?STACK
  C:0000H         PUBLIC        ?C_STARTUP
  D:00E0H         SYMBOL        ACC
  D:00F0H         SYMBOL        B
  D:0083H         SYMBOL        DPH
  D:0082H         SYMBOL        DPL
  N:0000H         SYMBOL        IBPSTACK
  N:0100H         SYMBOL        IBPSTACKTOP
  N:0100H         SYMBOL        IDATALEN
  C:0385H         SYMBOL        IDATALOOP
  N:0000H         SYMBOL        PBPSTACK
BL51 BANKED LINKER/LOCATER V6.22.4.0                                                  03/14/2023  09:08:18  PAGE 3


  N:0100H         SYMBOL        PBPSTACKTOP
  N:0000H         SYMBOL        PDATALEN
  N:0000H         SYMBOL        PDATASTART
  N:0000H         SYMBOL        PPAGE
  N:0000H         SYMBOL        PPAGEENABLE
  D:00A0H         SYMBOL        PPAGE_SFR
  D:0081H         SYMBOL        SP
  C:0382H         SYMBOL        STARTUP1
  N:0000H         SYMBOL        XBPSTACK
  N:0000H         SYMBOL        XBPSTACKTOP
  N:1000H         SYMBOL        XDATALEN
  C:0390H         SYMBOL        XDATALOOP
  N:0000H         SYMBOL        XDATASTART
  C:0000H         LINE#         126
  C:0382H         LINE#         134
  C:0384H         LINE#         135
  C:0385H         LINE#         136
  C:0386H         LINE#         137
  C:0388H         LINE#         141
  C:038BH         LINE#         142
  C:038DH         LINE#         146
  C:038FH         LINE#         148
  C:0390H         LINE#         149
  C:0391H         LINE#         150
  C:0392H         LINE#         151
  C:0394H         LINE#         152
  C:0396H         LINE#         186
  C:0399H         LINE#         197
  -------         ENDMOD        ?C_STARTUP

  -------         MODULE        MAIN
  C:0000H         SYMBOL        _ICE_DUMMY_
  D:0080H         PUBLIC        P0
  D:00E8H         PUBLIC        TKCON
  D:0090H         PUBLIC        P1
  D:00A0H         PUBLIC        P2
  D:00B0H         PUBLIC        P3
  D:00C0H         PUBLIC        P4
  D:00D8H         PUBLIC        P5
  B:00A8H.7       PUBLIC        EA
  D:00C8H         PUBLIC        TXCON
  D:00A8H         PUBLIC        IE
  D:00B8H         PUBLIC        IP
  C:0003H         PUBLIC        main
  D:0099H         PUBLIC        SBUF
  D:0098H         PUBLIC        SCON
  D:0088H         PUBLIC        TCON
  D:00D0H         PUBLIC        PSW
  C:05D1H         PUBLIC        _putchar
  -------         PROC          _PUTCHAR
  D:0007H         SYMBOL        c
  C:05D1H         LINE#         20
  C:05D1H         LINE#         21
  C:05D1H         LINE#         22
  C:05D3H         LINE#         23
  C:05D7H         LINE#         24
  C:05DAH         LINE#         25
BL51 BANKED LINKER/LOCATER V6.22.4.0                                                  03/14/2023  09:08:18  PAGE 4


  C:05DAH         LINE#         26
  -------         ENDPROC       _PUTCHAR
  -------         PROC          MAIN
  C:0003H         LINE#         34
  C:0003H         LINE#         35
  C:0003H         LINE#         36
  C:0006H         LINE#         37
  C:0009H         LINE#         38
  C:000BH         LINE#         39
  C:0014H         LINE#         40
  C:0014H         LINE#         41
  C:0014H         LINE#         42
  C:0017H         LINE#         43
  C:0020H         LINE#         44
  -------         ENDPROC       MAIN
  -------         ENDMOD        MAIN

  -------         MODULE        WORK
  C:0000H         SYMBOL        _ICE_DUMMY_
  D:0080H         PUBLIC        P0
  D:00E8H         PUBLIC        TKCON
  D:0090H         PUBLIC        P1
  D:00A0H         PUBLIC        P2
  D:00B0H         PUBLIC        P3
  D:00C0H         PUBLIC        P4
  D:00D8H         PUBLIC        P5
  D:00C8H         PUBLIC        TXCON
  D:00A8H         PUBLIC        IE
  D:001CH         PUBLIC        TimerCount
  D:009BH         PUBLIC        P0PH
  D:00B8H         PUBLIC        IP
  D:001DH         PUBLIC        LedShowSelect
  D:001EH         PUBLIC        LedPoint
  C:05DBH         PUBLIC        LedInit
  B:0080H.0       PUBLIC        P00
  D:0098H         PUBLIC        SCON
  D:0088H         PUBLIC        TCON
  C:059FH         PUBLIC        _Delay40ms
  D:009AH         PUBLIC        P0CON
  C:05E2H         PUBLIC        LedShow0
  C:05B2H         PUBLIC        _Delay
  D:00D0H         PUBLIC        PSW
  -------         PROC          _DELAY
  D:0006H         SYMBOL        timer
  C:05B2H         LINE#         22
  C:05B2H         LINE#         23
  C:05B2H         LINE#         24
  C:05C2H         LINE#         25
  -------         ENDPROC       _DELAY
  -------         PROC          _DELAY40MS
  D:0005H         SYMBOL        timer
  C:059FH         LINE#         33
  C:05A1H         LINE#         34
  C:05A1H         LINE#         35
  C:05A7H         LINE#         36
  C:05A7H         LINE#         37
  C:05AEH         LINE#         38
BL51 BANKED LINKER/LOCATER V6.22.4.0                                                  03/14/2023  09:08:18  PAGE 5


  C:05B1H         LINE#         39
  -------         ENDPROC       _DELAY40MS
  -------         PROC          LEDINIT
  C:05DBH         LINE#         47
  C:05DBH         LINE#         48
  C:05DBH         LINE#         49
  C:05DEH         LINE#         50
  C:05E1H         LINE#         51
  -------         ENDPROC       LEDINIT
  -------         PROC          LEDSHOW0
  C:05E2H         LINE#         59
  C:05E2H         LINE#         60
  C:05E2H         LINE#         61
  C:05E4H         LINE#         62
  -------         ENDPROC       LEDSHOW0
  -------         ENDMOD        WORK

  -------         MODULE        BOOTLOADERENTRANCE
  C:0000H         SYMBOL        _ICE_DUMMY_
  D:00FFH         PUBLIC        OPREG
  D:0080H         PUBLIC        P0
  D:00E8H         PUBLIC        TKCON
  D:0090H         PUBLIC        P1
  D:00A0H         PUBLIC        P2
  B:00A8H.4       PUBLIC        EUART
  D:00B0H         PUBLIC        P3
  D:00C0H         PUBLIC        P4
  D:0022H         PUBLIC        UartLength
  D:00D8H         PUBLIC        P5
  B:00A8H.7       PUBLIC        EA
  D:0023H         PUBLIC        UartReadNumber
  D:00C8H         PUBLIC        TXCON
  D:00A8H         PUBLIC        IE
  D:00FEH         PUBLIC        OPINX
  D:00B8H         PUBLIC        IP
  B:0098H.0       PUBLIC        RI
  D:00A2H         PUBLIC        P2PH
  D:0024H         PUBLIC        UartReceFlag
  B:0098H.1       PUBLIC        TI
  D:00CEH         PUBLIC        TXINX
  D:0025H         PUBLIC        UartSendFlag
  D:0026H         PUBLIC        IAPCMD
  D:0099H         PUBLIC        SBUF
  D:0087H         PUBLIC        PCON
  D:0098H         PUBLIC        SCON
  C:056FH         PUBLIC        UartInit
  D:0088H         PUBLIC        TCON
  C:0554H         PUBLIC        _IAP_GoTo
  D:00F6H         PUBLIC        IAPCTL
  D:00F1H         PUBLIC        IAPKEY
  D:008DH         PUBLIC        TH1
  D:008BH         PUBLIC        TL1
  B:0088H.6       PUBLIC        TR1
  C:04AAH         PUBLIC        UART_Interrupt
  C:0588H         PUBLIC        BootloaderCheck
  D:0027H         PUBLIC        UartCMD
  C:04F2H         PUBLIC        UartReceCMD
BL51 BANKED LINKER/LOCATER V6.22.4.0                                                  03/14/2023  09:08:18  PAGE 6


  D:00D0H         PUBLIC        PSW
  -------         PROC          UARTINIT
  C:056FH         LINE#         22
  C:056FH         LINE#         23
  C:056FH         LINE#         24
  C:0572H         LINE#         26
  C:0575H         LINE#         27
  C:0578H         LINE#         28
  C:057BH         LINE#         29
  C:057EH         LINE#         30
  C:0581H         LINE#         31
  C:0583H         LINE#         32
  C:0585H         LINE#         56
  C:0587H         LINE#         57
  -------         ENDPROC       UARTINIT
  -------         PROC          UART_INTERRUPT
  C:04AAH         LINE#         65
  C:04C7H         LINE#         67
  C:04CAH         LINE#         68
  C:04CAH         LINE#         69
  C:04CCH         LINE#         70
  C:04CFH         LINE#         71
  C:04CFH         LINE#         72
  C:04D2H         LINE#         73
  C:04D2H         LINE#         74
  C:04D4H         LINE#         75
  C:04D7H         LINE#         76
  C:04D7H         LINE#         77
  -------         ENDPROC       UART_INTERRUPT
  -------         PROC          _IAP_GOTO
  D:0007H         SYMBOL        mode
  C:0554H         LINE#         85
  C:0554H         LINE#         86
  C:0554H         LINE#         87
  C:0557H         LINE#         88
  C:055AH         LINE#         89
  C:055AH         LINE#         90
  C:055DH         LINE#         91
  C:055FH         LINE#         93
  C:0562H         LINE#         95
  C:0562H         LINE#         96
  C:0565H         LINE#         97
  C:0566H         LINE#         98
  C:0567H         LINE#         99
  C:0568H         LINE#         100
  C:0569H         LINE#         101
  C:056AH         LINE#         102
  C:056BH         LINE#         103
  C:056CH         LINE#         104
  C:056DH         LINE#         105
  C:056EH         LINE#         106
  -------         ENDPROC       _IAP_GOTO
  -------         PROC          UARTRECECMD
  C:04F2H         LINE#         113
  C:04F2H         LINE#         114
  C:04F2H         LINE#         115
  C:04F9H         LINE#         116
BL51 BANKED LINKER/LOCATER V6.22.4.0                                                  03/14/2023  09:08:18  PAGE 7


  C:04FCH         LINE#         117
  C:050BH         LINE#         118
  C:050BH         LINE#         119
  C:050EH         LINE#         120
  C:0511H         LINE#         121
  C:0513H         LINE#         122
  C:0515H         LINE#         123
  C:0517H         LINE#         124
  C:051AH         LINE#         125
  C:051AH         LINE#         126
  C:051FH         LINE#         127
  C:051FH         LINE#         128
  C:0521H         LINE#         129
  C:0521H         LINE#         130
  C:0523H         LINE#         131
  -------         ENDPROC       UARTRECECMD
  -------         PROC          BOOTLOADERCHECK
  C:0588H         LINE#         138
  C:0588H         LINE#         139
  C:0588H         LINE#         140
  C:058BH         LINE#         141
  C:058EH         LINE#         142
  C:0593H         LINE#         143
  C:0593H         LINE#         144
  C:0596H         LINE#         145
  C:0599H         LINE#         146
  C:059EH         LINE#         147
  C:059EH         LINE#         148
  -------         ENDPROC       BOOTLOADERCHECK
  -------         ENDMOD        BOOTLOADERENTRANCE

  -------         MODULE        PRINTF
  D:0008H         PUBLIC        ?_PRINTF517?BYTE
  D:0008H         PUBLIC        ?_PRINTF?BYTE
  D:0008H         PUBLIC        ?_SPRINTF517?BYTE
  D:0008H         PUBLIC        ?_SPRINTF?BYTE
  C:0088H         PUBLIC        _PRINTF
  C:0088H         PUBLIC        _PRINTF517
  C:0082H         PUBLIC        _SPRINTF
  C:0082H         PUBLIC        _SPRINTF517
  -------         ENDMOD        PRINTF

  -------         MODULE        ?C?CLDPTR
  C:041CH         PUBLIC        ?C?CLDPTR
  -------         ENDMOD        ?C?CLDPTR

  -------         MODULE        ?C?CLDOPTR
  C:0435H         PUBLIC        ?C?CLDOPTR
  -------         ENDMOD        ?C?CLDOPTR

  -------         MODULE        ?C?CSTPTR
  C:0462H         PUBLIC        ?C?CSTPTR
  -------         ENDMOD        ?C?CSTPTR

  -------         MODULE        ?C?PLDIIDATA
  C:0474H         PUBLIC        ?C?PLDIIDATA
  -------         ENDMOD        ?C?PLDIIDATA
BL51 BANKED LINKER/LOCATER V6.22.4.0                                                  03/14/2023  09:08:18  PAGE 8



  -------         MODULE        ?C?CCASE
  C:0484H         PUBLIC        ?C?CCASE
  -------         ENDMOD        ?C?CCASE

Program Size: data=45.1 xdata=0 code=1512
LINK/LOCATE RUN COMPLETE.  0 WARNING(S),  0 ERROR(S)
