LX51 LINKER/LOCATER V4.66.97.0                                                          10/13/2022  11:04:49  PAGE 1


LX51 LINKER/LOCATER V4.66.97.0, INVOKED BY:
D:\KEIL_V5\C51\BIN\LX51.EXE ..\OUTPUT\STARTUP.obj, ..\OUTPUT\IAP_Operate.obj, ..\OUTPUT\main.obj, ..\OUTPUT\IAP_Communic
>> ation.obj, ..\IAP_Lib\RD8X3XX_IAP_S_lib_V1.3.0.LIB TO ..\OUTPUT\Bootloader-BOOTLOADER PRINT (.\Bootloader-BOOTLOADER.
>> map) DISABLEWARNING (16)


CPU MODE:     8051 MODE
MEMORY MODEL: SMALL


INPUT MODULES INCLUDED:
  ..\OUTPUT\STARTUP.obj (?C_STARTUP)
         COMMENT TYPE 1: A51 / ASM51 Assembler
  ..\OUTPUT\IAP_Operate.obj (IAP_OPERATE)
         COMMENT TYPE 0: C51 V9.60.0.0
  ..\OUTPUT\main.obj (MAIN)
         COMMENT TYPE 0: C51 V9.60.0.0
  ..\OUTPUT\IAP_Communication.obj (IAP_COMMUNICATION)
         COMMENT TYPE 0: C51 V9.60.0.0
  ..\IAP_Lib\RD8X3XX_IAP_S_lib_V1.3.0.LIB (IAP_OPTION_EW)
         COMMENT TYPE 1: A51 / ASM51 Assembler
  D:\KEIL_V5\C51\LIB\C51S.LIB (?C?LMUL)
         COMMENT TYPE 1: A51 / ASM51 Assembler
  D:\KEIL_V5\C51\LIB\C51S.LIB (?C?ULCMP)
         COMMENT TYPE 1: A51 / ASM51 Assembler
  D:\KEIL_V5\C51\LIB\C51S.LIB (?C?ULSHR)
         COMMENT TYPE 1: A51 / ASM51 Assembler


ACTIVE MEMORY CLASSES OF MODULE:  ..\OUTPUT\Bootloader-BOOTLOADER (?C_STARTUP)

BASE        START       END         USED      MEMORY CLASS
==========================================================
C:000000H   C:000000H   C:00FFFFH   000672H   CODE
I:000000H   I:000000H   I:0000FFH   000001H   IDATA
I:000000H   I:000000H   I:00007FH   000078H   DATA


MEMORY MAP OF MODULE:  ..\OUTPUT\Bootloader-BOOTLOADER (?C_STARTUP)


START     STOP      LENGTH    ALIGN  RELOC    MEMORY CLASS   SEGMENT NAME
=========================================================================

* * * * * * * * * * *   D A T A   M E M O R Y   * * * * * * * * * * * * *
000000H   000007H   000008H   ---    AT..     DATA           "REG BANK 0"
000008H   00005BH   000054H   BYTE   UNIT     DATA           ?DT?IAP_COMMUNICATION
00005CH   00006CH   000011H   BYTE   UNIT     DATA           _DATA_GROUP_
00006DH   000070H   000004H   BYTE   UNIT     DATA           ?DT?_IAP_EEPROMPROGRAMBYTEOPTION?IAP_OPTION_EW
000071H   000074H   000004H   BYTE   UNIT     DATA           ?DT?_IAP_EEPROMSECTORERASEOPTION?IAP_OPTION_EW
000075H   000077H   000003H   BYTE   UNIT     DATA           ?DT?IAP_OPERATE
000078H   000078H   000001H   BYTE   UNIT     IDATA          ?STACK

* * * * * * * * * * *   C O D E   M E M O R Y   * * * * * * * * * * * * *
000000H   000002H   000003H   ---    OFFS..   CODE           ?CO??C_STARTUP?0
000003H   00003FH   00003DH   BYTE   UNIT     CODE           ?PR?BTM_INTERRUPT?IAP_COMMUNICATION
000040H   000047H   000008H   BYTE   UNIT     CODE           ?PR?MAIN?MAIN
000048H   00004AH   000003H   ---    ---      **GAP**
00004BH   00004DH   000003H   BYTE   OFFS..   CODE           ?IAP_COMMUNICATION?0004B
00004EH   000076H   000029H   BYTE   UNIT     CODE           ?PR?_IAP_WRITEONEBYTE?IAP_OPERATE
000077H   00007AH   000004H   ---    ---      **GAP**
00007BH   00007DH   000003H   BYTE   OFFS..   CODE           ?IAP_COMMUNICATION?0007B
00007EH   000142H   0000C5H   BYTE   UNIT     CODE           ?PR?_IAP_CODEPROGRAMBYTEOPTION?IAP_OPTION_EW
000143H   000204H   0000C2H   BYTE   UNIT     CODE           ?PR?_IAP_CODESECTORERASEOPTION?IAP_OPTION_EW
000205H   0002A4H   0000A0H   BYTE   UNIT     CODE           ?PR?WORKCMD?IAP_COMMUNICATION
0002A5H   00032CH   000088H   BYTE   UNIT     CODE           ?PR?UARTRECECMD?IAP_COMMUNICATION
LX51 LINKER/LOCATER V4.66.97.0                                                        10/13/2022  11:04:49  PAGE 2


00032DH   0003AFH   000083H   BYTE   UNIT     CODE           ?PR?UARTRECEDATA?IAP_COMMUNICATION
0003B0H   00042EH   00007FH   BYTE   UNIT     CODE           ?PR?IAP_ERASE_ALL?IAP_OPERATE
00042FH   0004A1H   000073H   BYTE   UNIT     CODE           ?C?LIB_CODE
0004A2H   0004F8H   000057H   BYTE   UNIT     CODE           ?PR?UART_INTERRUPT?IAP_COMMUNICATION
0004F9H   000549H   000051H   BYTE   UNIT     CODE           ?PR?_IAP_EEPROMPROGRAMBYTEOPTION?IAP_OPTION_EW
00054AH   000598H   00004FH   BYTE   UNIT     CODE           ?PR?_IAP_EEPROMSECTORERASEOPTION?IAP_OPTION_EW
000599H   0005C7H   00002FH   BYTE   UNIT     CODE           ?PR?_IAP_WRITEMULTIBYTE?IAP_OPERATE
0005C8H   0005E7H   000020H   BYTE   UNIT     CODE           ?PR?_IAP_READONEBYTE?IAP_OPERATE
0005E8H   000605H   00001EH   BYTE   UNIT     CODE           ?PR?_IAP_RESET?IAP_OPERATE
000606H   000623H   00001EH   BYTE   UNIT     CODE           ?PR?_UARTSENDCMD?IAP_COMMUNICATION
000624H   000640H   00001DH   BYTE   UNIT     CODE           ?C_C51STARTUP
000641H   00065DH   00001DH   BYTE   UNIT     CODE           ?PR?BOOTINIT?IAP_COMMUNICATION
00065EH   000672H   000015H   BYTE   UNIT     CODE           ?PR?UARTINIT?IAP_COMMUNICATION
000673H   000678H   000006H   BYTE   UNIT     CODE           ?PR?_IAP_ERASE_512B?IAP_OPERATE



OVERLAY MAP OF MODULE:   ..\OUTPUT\Bootloader-BOOTLOADER (?C_STARTUP)


FUNCTION/MODULE                                BIT_GROUP   DATA_GROUP 
--> CALLED FUNCTION/MODULE                    START  STOP  START  STOP
======================================================================
?C_C51STARTUP                                 ----- -----  ----- -----
  +--> MAIN/MAIN

MAIN/MAIN                                     ----- -----  ----- -----
  +--> BOOTINIT/IAP_COMMUNICATION
  +--> WORKCMD/IAP_COMMUNICATION

BOOTINIT/IAP_COMMUNICATION                    ----- -----  ----- -----
  +--> UARTINIT/IAP_COMMUNICATION
  +--> _UARTSENDCMD/IAP_COMMUNICATION

UARTINIT/IAP_COMMUNICATION                    ----- -----  ----- -----

_UARTSENDCMD/IAP_COMMUNICATION                ----- -----  ----- -----

WORKCMD/IAP_COMMUNICATION                     ----- -----  ----- -----
  +--> _IAP_WRITEMULTIBYTE/IAP_OPERATE
  +--> _UARTSENDCMD/IAP_COMMUNICATION
  +--> IAP_ERASE_ALL/IAP_OPERATE
  +--> _IAP_RESET/IAP_OPERATE

_IAP_WRITEMULTIBYTE/IAP_OPERATE               ----- -----  005CH 005EH
  +--> _IAP_WRITEONEBYTE/IAP_OPERATE

_IAP_WRITEONEBYTE/IAP_OPERATE                 ----- -----  005FH 0063H
  +--> _IAP_CODEPROGRAMBYTEOPTION/IAP_OPTION_EW
  +--> _IAP_READONEBYTE/IAP_OPERATE

_IAP_CODEPROGRAMBYTEOPTION/IAP_OPTION_EW      ----- -----  0064H 006CH

_IAP_READONEBYTE/IAP_OPERATE                  ----- -----  ----- -----

IAP_ERASE_ALL/IAP_OPERATE                     ----- -----  005CH 005FH
  +--> _IAP_ERASE_512B/IAP_OPERATE

_IAP_ERASE_512B/IAP_OPERATE                   ----- -----  ----- -----
  +--> _IAP_CODESECTORERASEOPTION/IAP_OPTION_EW

_IAP_CODESECTORERASEOPTION/IAP_OPTION_EW      ----- -----  0060H 0067H

_IAP_RESET/IAP_OPERATE                        ----- -----  ----- -----

LX51 LINKER/LOCATER V4.66.97.0                                                        10/13/2022  11:04:49  PAGE 3


*** NEW ROOT ********************************

UART_INTERRUPT/IAP_COMMUNICATION              ----- -----  ----- -----
  +--> UARTRECECMD/IAP_COMMUNICATION
  +--> UARTRECEDATA/IAP_COMMUNICATION

UARTRECECMD/IAP_COMMUNICATION                 ----- -----  ----- -----

UARTRECEDATA/IAP_COMMUNICATION                ----- -----  ----- -----

*** NEW ROOT ********************************

BTM_INTERRUPT/IAP_COMMUNICATION               ----- -----  ----- -----
  +--> _IAP_RESET/IAP_OPERATE



PUBLIC SYMBOLS OF MODULE:  ..\OUTPUT\Bootloader-BOOTLOADER (?C_STARTUP)


      VALUE       CLASS    TYPE      PUBLIC SYMBOL NAME
      =================================================
      00000064H   DATA     ---       ?_IAP_CODEPROGRAMBYTEOPTION?BYTE
      00000000H   NUMBER   ---       ?C?CODESEG
      0100042FH   CODE     ---       ?C?LMUL
      0100047EH   CODE     ---       ?C?ULCMP
      0100048FH   CODE     ---       ?C?ULSHR
      00000000H   NUMBER   ---       ?C?XDATASEG
      01000040H   CODE     ---       ?C_START
      01000000H   CODE     ---       ?C_STARTUP
      0100007EH   CODE     ---       _IAP_CODEPROGRAMBYTEOPTION
      01000143H   CODE     ---       _IAP_CODESECTORERASEOPTION
      010004F9H   CODE     ---       _IAP_EEPROMPROGRAMBYTEOPTION
      0100054AH   CODE     ---       _IAP_EEPROMSECTORERASEOPTION
      01000673H   CODE     ---       _IAP_Erase_512B
      010005C8H   CODE     ---       _IAP_ReadOneByte
      010005E8H   CODE     ---       _IAP_Reset
      01000599H   CODE     ---       _IAP_WriteMultiByte
      0100004EH   CODE     ---       _IAP_WriteOneByte
      01000606H   CODE     ---       _UartSendCMD
*SFR* 000000D0H.6 DATA     BIT       AC
*SFR* 000000E0H   DATA     BYTE      ACC
*SFR* 000000ABH   DATA     BYTE      ADCCFG0
*SFR* 000000ACH   DATA     BYTE      ADCCFG1
*SFR* 000000B5H   DATA     BYTE      ADCCFG2
*SFR* 000000ADH   DATA     BYTE      ADCCON
*SFR* 000000AFH   DATA     BYTE      ADCVH
*SFR* 000000AEH   DATA     BYTE      ADCVL
*SFR* 000000F0H   DATA     BYTE      B
      00000051H   DATA     DWORD     BeginAddr
      01000641H   CODE     ---       BootInit
      01000003H   CODE     ---       BTM_Interrupt
*SFR* 000000FBH   DATA     BYTE      BTMCON
*SFR* 000000B6H   DATA     BYTE      CMPCFG
*SFR* 000000B7H   DATA     BYTE      CMPCON
      0000004FH   DATA     BYTE      CommunicationCheckNumber
*SFR* 000000C8H.0 DATA     BIT       CP
*SFR* 000000FCH   DATA     BYTE      CRCINX
*SFR* 000000FDH   DATA     BYTE      CRCREG
*SFR* 000000D0H.7 DATA     BIT       CY
*SFR* 00000093H   DATA     BYTE      DDRCON
*SFR* 00000083H   DATA     BYTE      DPH
*SFR* 00000085H   DATA     BYTE      DPH1
*SFR* 00000082H   DATA     BYTE      DPL
*SFR* 00000084H   DATA     BYTE      DPL1
LX51 LINKER/LOCATER V4.66.97.0                                                        10/13/2022  11:04:49  PAGE 4


*SFR* 00000086H   DATA     BYTE      DPS
*SFR* 000000A8H.7 DATA     BIT       EA
*SFR* 000000A8H.6 DATA     BIT       EADC
*SFR* 000000A8H.0 DATA     BIT       EINT0
*SFR* 000000A8H.2 DATA     BIT       EINT1
*SFR* 000000E8H.7 DATA     BIT       ENTKS
*SFR* 000000A8H.1 DATA     BIT       ET0
*SFR* 000000A8H.3 DATA     BIT       ET1
*SFR* 000000A8H.5 DATA     BIT       ET2
*SFR* 000000A8H.4 DATA     BIT       EUART
*SFR* 00000088H.1 DATA     BIT       EX0
*SFR* 00000088H.3 DATA     BIT       EX1
*SFR* 000000E9H   DATA     BYTE      EXA0
*SFR* 000000EAH   DATA     BYTE      EXA1
*SFR* 000000EBH   DATA     BYTE      EXA2
*SFR* 000000ECH   DATA     BYTE      EXA3
*SFR* 000000F7H   DATA     BYTE      EXADH
*SFR* 000000EEH   DATA     BYTE      EXBH
*SFR* 000000EDH   DATA     BYTE      EXBL
*SFR* 000000C8H.3 DATA     BIT       EXENX
*SFR* 000000C8H.6 DATA     BIT       EXFX
*SFR* 000000D0H.5 DATA     BIT       F0
*SFR* 000000D0H.1 DATA     BIT       F1
      010003B0H   CODE     ---       IAP_Erase_ALL
      00000077H   DATA     BYTE      IAP_IapLength
*SFR* 000000F4H   DATA     BYTE      IAPADE
*SFR* 000000F3H   DATA     BYTE      IAPADH
*SFR* 000000F2H   DATA     BYTE      IAPADL
      00000050H   DATA     BYTE      IAPCMD
*SFR* 000000F6H   DATA     BYTE      IAPCTL
*SFR* 000000F5H   DATA     BYTE      IAPDAT
*SFR* 000000F1H   DATA     BYTE      IAPKEY
*SFR* 000000A8H   DATA     BYTE      IE
*SFR* 000000A9H   DATA     BYTE      IE1
*SFR* 000000AAH   DATA     BYTE      IE2
*SFR* 000000B4H   DATA     BYTE      INT0F
*SFR* 000000BBH   DATA     BYTE      INT0R
*SFR* 000000BCH   DATA     BYTE      INT1F
*SFR* 000000BDH   DATA     BYTE      INT1R
*SFR* 000000BEH   DATA     BYTE      INT2F
*SFR* 000000BFH   DATA     BYTE      INT2R
*SFR* 00000096H   DATA     BYTE      IOHCON0
*SFR* 00000097H   DATA     BYTE      IOHCON1
*SFR* 000000B8H   DATA     BYTE      IP
*SFR* 000000B9H   DATA     BYTE      IP1
*SFR* 000000BAH   DATA     BYTE      IP2
*SFR* 000000B8H.6 DATA     BIT       IPADC
*SFR* 000000B8H.0 DATA     BIT       IPINT0
*SFR* 000000B8H.2 DATA     BIT       IPINT1
*SFR* 000000B8H.1 DATA     BIT       IPT0
*SFR* 000000B8H.3 DATA     BIT       IPT1
*SFR* 000000B8H.5 DATA     BIT       IPT2
*SFR* 000000B8H.4 DATA     BIT       IPUART
      01000040H   CODE     ---       main
*SFR* 000000EFH   DATA     BYTE      OPERCON
*SFR* 000000FEH   DATA     BYTE      OPINX
*SFR* 000000FFH   DATA     BYTE      OPREG
*SFR* 0000008FH   DATA     BYTE      OTCON
*SFR* 000000D0H.2 DATA     BIT       OV
*SFR* 000000D0H.0 DATA     BIT       P
*SFR* 00000080H   DATA     BYTE      P0
*SFR* 00000080H.0 DATA     BIT       P00
*SFR* 00000080H.1 DATA     BIT       P01
*SFR* 00000080H.2 DATA     BIT       P02
*SFR* 00000080H.3 DATA     BIT       P03
LX51 LINKER/LOCATER V4.66.97.0                                                        10/13/2022  11:04:49  PAGE 5


*SFR* 00000080H.4 DATA     BIT       P04
*SFR* 00000080H.5 DATA     BIT       P05
*SFR* 00000080H.6 DATA     BIT       P06
*SFR* 00000080H.7 DATA     BIT       P07
*SFR* 0000009AH   DATA     BYTE      P0CON
*SFR* 0000009BH   DATA     BYTE      P0PH
*SFR* 0000009CH   DATA     BYTE      P0VO
*SFR* 00000090H   DATA     BYTE      P1
*SFR* 00000090H.0 DATA     BIT       P10
*SFR* 00000090H.1 DATA     BIT       P11
*SFR* 00000090H.2 DATA     BIT       P12
*SFR* 00000090H.3 DATA     BIT       P13
*SFR* 00000090H.4 DATA     BIT       P14
*SFR* 00000090H.5 DATA     BIT       P15
*SFR* 00000090H.6 DATA     BIT       P16
*SFR* 00000090H.7 DATA     BIT       P17
*SFR* 00000091H   DATA     BYTE      P1CON
*SFR* 00000092H   DATA     BYTE      P1PH
*SFR* 00000094H   DATA     BYTE      P1VO
*SFR* 000000A0H   DATA     BYTE      P2
*SFR* 000000A0H.0 DATA     BIT       P20
*SFR* 000000A0H.1 DATA     BIT       P21
*SFR* 000000A0H.2 DATA     BIT       P22
*SFR* 000000A0H.3 DATA     BIT       P23
*SFR* 000000A0H.4 DATA     BIT       P24
*SFR* 000000A0H.5 DATA     BIT       P25
*SFR* 000000A0H.6 DATA     BIT       P26
*SFR* 000000A0H.7 DATA     BIT       P27
*SFR* 000000A1H   DATA     BYTE      P2CON
*SFR* 000000A2H   DATA     BYTE      P2PH
*SFR* 000000A3H   DATA     BYTE      P2VO
*SFR* 000000B0H   DATA     BYTE      P3
*SFR* 000000B0H.0 DATA     BIT       P30
*SFR* 000000B0H.1 DATA     BIT       P31
*SFR* 000000B0H.2 DATA     BIT       P32
*SFR* 000000B0H.3 DATA     BIT       P33
*SFR* 000000B0H.4 DATA     BIT       P34
*SFR* 000000B0H.5 DATA     BIT       P35
*SFR* 000000B0H.6 DATA     BIT       P36
*SFR* 000000B0H.7 DATA     BIT       P37
*SFR* 000000B1H   DATA     BYTE      P3CON
*SFR* 000000B2H   DATA     BYTE      P3PH
*SFR* 000000B3H   DATA     BYTE      P3VO
*SFR* 000000C0H   DATA     BYTE      P4
*SFR* 000000C0H.0 DATA     BIT       P40
*SFR* 000000C0H.1 DATA     BIT       P41
*SFR* 000000C0H.2 DATA     BIT       P42
*SFR* 000000C0H.3 DATA     BIT       P43
*SFR* 000000C0H.4 DATA     BIT       P44
*SFR* 000000C0H.5 DATA     BIT       P45
*SFR* 000000C0H.6 DATA     BIT       P46
*SFR* 000000C0H.7 DATA     BIT       P47
*SFR* 000000C1H   DATA     BYTE      P4CON
*SFR* 000000C2H   DATA     BYTE      P4PH
*SFR* 000000D8H   DATA     BYTE      P5
*SFR* 000000D8H.0 DATA     BIT       P50
*SFR* 000000D8H.1 DATA     BIT       P51
*SFR* 000000D8H.2 DATA     BIT       P52
*SFR* 000000D8H.3 DATA     BIT       P53
*SFR* 000000D8H.4 DATA     BIT       P54
*SFR* 000000D8H.5 DATA     BIT       P55
*SFR* 000000D9H   DATA     BYTE      P5CON
*SFR* 000000DAH   DATA     BYTE      P5PH
*SFR* 00000087H   DATA     BYTE      PCON
      00000075H   DATA     ---       POINT
LX51 LINKER/LOCATER V4.66.97.0                                                        10/13/2022  11:04:49  PAGE 6


*SFR* 000000D0H   DATA     BYTE      PSW
*SFR* 000000D1H   DATA     BYTE      PWMCFG
*SFR* 000000D2H   DATA     BYTE      PWMCON0
*SFR* 000000D3H   DATA     BYTE      PWMCON1
*SFR* 000000D6H   DATA     BYTE      PWMDFR
*SFR* 000000D7H   DATA     BYTE      PWMFLT
*SFR* 000000D5H   DATA     BYTE      PWMPDH
*SFR* 000000D4H   DATA     BYTE      PWMPDL
*SFR* 00000098H.2 DATA     BIT       RB8
*SFR* 000000CBH   DATA     BYTE      RCAPXH
*SFR* 000000CAH   DATA     BYTE      RCAPXL
*SFR* 000000C8H.5 DATA     BIT       RCLKX
      00000055H   DATA     BYTE      ReceChoose
*SFR* 00000098H.4 DATA     BIT       REN
*SFR* 00000098H.0 DATA     BIT       RI
*SFR* 000000DFH   DATA     BYTE      ROMBNK
*SFR* 000000D0H.3 DATA     BIT       RS0
*SFR* 000000D0H.4 DATA     BIT       RS1
*SFR* 00000099H   DATA     BYTE      SBUF
*SFR* 00000098H   DATA     BYTE      SCON
*SFR* 00000098H.7 DATA     BIT       SM0
*SFR* 00000098H.6 DATA     BIT       SM1
*SFR* 00000098H.5 DATA     BIT       SM2
*SFR* 00000081H   DATA     BYTE      SP
*SFR* 00000098H.3 DATA     BIT       TB8
*SFR* 000000C8H.4 DATA     BIT       TCLKX
*SFR* 00000088H   DATA     BYTE      TCON
*SFR* 00000088H.5 DATA     BIT       TF0
*SFR* 00000088H.7 DATA     BIT       TF1
*SFR* 000000C8H.7 DATA     BIT       TFX
*SFR* 0000008CH   DATA     BYTE      TH0
*SFR* 0000008DH   DATA     BYTE      TH1
*SFR* 000000CDH   DATA     BYTE      THX
*SFR* 00000098H.1 DATA     BIT       TI
*SFR* 000000E1H   DATA     BYTE      TKCFG0
*SFR* 000000E2H   DATA     BYTE      TKCFG1
*SFR* 000000E3H   DATA     BYTE      TKCFG2
*SFR* 000000E5H   DATA     BYTE      TKCNTH
*SFR* 000000E4H   DATA     BYTE      TKCNTL
*SFR* 000000E8H   DATA     BYTE      TKCON
*SFR* 000000E8H.5 DATA     BIT       TKIF
*SFR* 000000DBH   DATA     BYTE      TKMOD
*SFR* 000000E7H   DATA     BYTE      TKTMH
*SFR* 000000E6H   DATA     BYTE      TKTML
*SFR* 0000008AH   DATA     BYTE      TL0
*SFR* 0000008BH   DATA     BYTE      TL1
*SFR* 000000CCH   DATA     BYTE      TLX
*SFR* 0000008EH   DATA     BYTE      TMCON
*SFR* 00000089H   DATA     BYTE      TMOD
*SFR* 00000088H.4 DATA     BIT       TR0
*SFR* 00000088H.6 DATA     BIT       TR1
*SFR* 000000E8H.6 DATA     BIT       TRIG
*SFR* 000000C8H.2 DATA     BIT       TRX
*SFR* 000000C8H.1 DATA     BIT       TX
*SFR* 000000C8H   DATA     BYTE      TXCON
*SFR* 000000CEH   DATA     BYTE      TXINX
*SFR* 000000C9H   DATA     BYTE      TXMOD
      010004A2H   CODE     ---       UART_Interrupt
      00000056H   DATA     ---       UartCMD
      0000000AH   DATA     ---       UartData
      0100065EH   CODE     ---       UartInit
      00000008H   DATA     BYTE      UartLength
      00000009H   DATA     BYTE      UartReadNumber
      010002A5H   CODE     ---       UartReceCMD
      0100032DH   CODE     ---       UartReceData
LX51 LINKER/LOCATER V4.66.97.0                                                        10/13/2022  11:04:49  PAGE 7


      0000004DH   DATA     BYTE      UartReceFlag
      0000004EH   DATA     BYTE      UartSendFlag
*SFR* 00000095H   DATA     BYTE      US0CON0
*SFR* 0000009DH   DATA     BYTE      US0CON1
*SFR* 0000009EH   DATA     BYTE      US0CON2
*SFR* 0000009FH   DATA     BYTE      US0CON3
*SFR* 000000A4H   DATA     BYTE      US1CON0
*SFR* 000000A5H   DATA     BYTE      US1CON1
*SFR* 000000A6H   DATA     BYTE      US1CON2
*SFR* 000000A7H   DATA     BYTE      US1CON3
*SFR* 000000C4H   DATA     BYTE      USXCON0
*SFR* 000000C5H   DATA     BYTE      USXCON1
*SFR* 000000C6H   DATA     BYTE      USXCON2
*SFR* 000000C7H   DATA     BYTE      USXCON3
*SFR* 000000DCH   DATA     BYTE      USXINX
*SFR* 000000CFH   DATA     BYTE      WDTCON
      01000205H   CODE     ---       WorkCMD



SYMBOL TABLE OF MODULE:  ..\OUTPUT\Bootloader-BOOTLOADER (?C_STARTUP)

      VALUE       REP       CLASS    TYPE      SYMBOL NAME
      ====================================================
      ---         MODULE    ---      ---       ?C_STARTUP
      01000000H   PUBLIC    CODE     ---       ?C_STARTUP
      000000E0H   SYMBOL    DATA     ---       ACC
      000000F0H   SYMBOL    DATA     ---       B
      00000083H   SYMBOL    DATA     ---       DPH
      00000082H   SYMBOL    DATA     ---       DPL
      00000000H   SYMBOL    NUMBER   ---       IBPSTACK
      00000100H   SYMBOL    NUMBER   ---       IBPSTACKTOP
      00000100H   SYMBOL    NUMBER   ---       IDATALEN
      0100062AH   SYMBOL    CODE     ---       IDATALOOP
      00000000H   SYMBOL    NUMBER   ---       PBPSTACK
      00000100H   SYMBOL    NUMBER   ---       PBPSTACKTOP
      00000000H   SYMBOL    NUMBER   ---       PDATALEN
      00000000H   SYMBOL    NUMBER   ---       PDATASTART
      00000000H   SYMBOL    NUMBER   ---       PPAGE
      00000000H   SYMBOL    NUMBER   ---       PPAGEENABLE
      000000A0H   SYMBOL    DATA     ---       PPAGE_SFR
      00000081H   SYMBOL    DATA     ---       SP
      01000624H   SYMBOL    CODE     ---       STARTUP1
      00000000H   SYMBOL    NUMBER   ---       XBPSTACK
      00000000H   SYMBOL    NUMBER   ---       XBPSTACKTOP
      00001000H   SYMBOL    NUMBER   ---       XDATALEN
      01000635H   SYMBOL    CODE     ---       XDATALOOP
      00000000H   SYMBOL    NUMBER   ---       XDATASTART
      01000000H   LINE      CODE     ---       #128
      01000624H   LINE      CODE     ---       #134
      01000627H   LINE      CODE     ---       #137
      01000629H   LINE      CODE     ---       #138
      0100062AH   LINE      CODE     ---       #139
      0100062BH   LINE      CODE     ---       #140
      0100062DH   LINE      CODE     ---       #144
      01000630H   LINE      CODE     ---       #145
      01000632H   LINE      CODE     ---       #149
      01000634H   LINE      CODE     ---       #151
      01000635H   LINE      CODE     ---       #152
      01000636H   LINE      CODE     ---       #153
      01000637H   LINE      CODE     ---       #154
      01000639H   LINE      CODE     ---       #155
      0100063BH   LINE      CODE     ---       #189
      0100063EH   LINE      CODE     ---       #200

LX51 LINKER/LOCATER V4.66.97.0                                                        10/13/2022  11:04:49  PAGE 8


      ---         MODULE    ---      ---       IAP_OPERATE
      00000077H   PUBLIC    DATA     BYTE      IAP_IapLength
      00000075H   PUBLIC    DATA     ---       POINT
      010005C8H   PUBLIC    CODE     ---       _IAP_ReadOneByte
      01000599H   PUBLIC    CODE     ---       _IAP_WriteMultiByte
      010005E8H   PUBLIC    CODE     ---       _IAP_Reset
      010003B0H   PUBLIC    CODE     ---       IAP_Erase_ALL
      01000673H   PUBLIC    CODE     ---       _IAP_Erase_512B
      0100004EH   PUBLIC    CODE     ---       _IAP_WriteOneByte
      000000C8H.2 SFRSYM    DATA     BIT       TRX
      000000FFH   SFRSYM    DATA     BYTE      OPREG
      00000080H   SFRSYM    DATA     BYTE      P0
      000000E8H   SFRSYM    DATA     BYTE      TKCON
      000000DBH   SFRSYM    DATA     BYTE      TKMOD
      00000090H   SFRSYM    DATA     BYTE      P1
      000000A0H   SFRSYM    DATA     BYTE      P2
      000000A8H.4 SFRSYM    DATA     BIT       EUART
      0000008EH   SFRSYM    DATA     BYTE      TMCON
      000000B0H   SFRSYM    DATA     BYTE      P3
      000000D0H.6 SFRSYM    DATA     BIT       AC
      000000C0H   SFRSYM    DATA     BYTE      P4
      0000008FH   SFRSYM    DATA     BYTE      OTCON
      000000D8H   SFRSYM    DATA     BYTE      P5
      000000A8H.7 SFRSYM    DATA     BIT       EA
      000000C8H.5 SFRSYM    DATA     BIT       RCLKX
      000000E8H.7 SFRSYM    DATA     BIT       ENTKS
      000000D2H   SFRSYM    DATA     BYTE      PWMCON0
      000000C8H.4 SFRSYM    DATA     BIT       TCLKX
      000000D3H   SFRSYM    DATA     BYTE      PWMCON1
      000000C8H.3 SFRSYM    DATA     BIT       EXENX
      000000E7H   SFRSYM    DATA     BYTE      TKTMH
      000000A8H.6 SFRSYM    DATA     BIT       EADC
      000000E6H   SFRSYM    DATA     BYTE      TKTML
      000000C9H   SFRSYM    DATA     BYTE      TXMOD
      000000C8H   SFRSYM    DATA     BYTE      TXCON
      000000A8H   SFRSYM    DATA     BYTE      IE
      00000085H   SFRSYM    DATA     BYTE      DPH1
      000000E9H   SFRSYM    DATA     BYTE      EXA0
      000000FEH   SFRSYM    DATA     BYTE      OPINX
      000000EAH   SFRSYM    DATA     BYTE      EXA1
      000000EBH   SFRSYM    DATA     BYTE      EXA2
      000000ECH   SFRSYM    DATA     BYTE      EXA3
      00000084H   SFRSYM    DATA     BYTE      DPL1
      000000C8H.0 SFRSYM    DATA     BIT       CP
      000000C4H   SFRSYM    DATA     BYTE      USXCON0
      000000C5H   SFRSYM    DATA     BYTE      USXCON1
      000000C6H   SFRSYM    DATA     BYTE      USXCON2
      000000C7H   SFRSYM    DATA     BYTE      USXCON3
      000000EFH   SFRSYM    DATA     BYTE      OPERCON
      0000009BH   SFRSYM    DATA     BYTE      P0PH
      000000B8H   SFRSYM    DATA     BYTE      IP
      00000092H   SFRSYM    DATA     BYTE      P1PH
      00000098H.0 SFRSYM    DATA     BIT       RI
      000000A2H   SFRSYM    DATA     BYTE      P2PH
      000000D0H.7 SFRSYM    DATA     BIT       CY
      000000B2H   SFRSYM    DATA     BYTE      P3PH
      00000098H.1 SFRSYM    DATA     BIT       TI
      000000CEH   SFRSYM    DATA     BYTE      TXINX
      000000C2H   SFRSYM    DATA     BYTE      P4PH
      000000B8H.1 SFRSYM    DATA     BIT       IPT0
      000000DAH   SFRSYM    DATA     BYTE      P5PH
      000000B8H.3 SFRSYM    DATA     BIT       IPT1
      000000B8H.5 SFRSYM    DATA     BIT       IPT2
      000000E1H   SFRSYM    DATA     BYTE      TKCFG0
      000000E2H   SFRSYM    DATA     BYTE      TKCFG1
LX51 LINKER/LOCATER V4.66.97.0                                                        10/13/2022  11:04:49  PAGE 9


      000000E3H   SFRSYM    DATA     BYTE      TKCFG2
      00000081H   SFRSYM    DATA     BYTE      SP
      000000D0H.2 SFRSYM    DATA     BIT       OV
      000000F4H   SFRSYM    DATA     BYTE      IAPADE
      0000009CH   SFRSYM    DATA     BYTE      P0VO
      00000094H   SFRSYM    DATA     BYTE      P1VO
      000000A3H   SFRSYM    DATA     BYTE      P2VO
      000000EEH   SFRSYM    DATA     BYTE      EXBH
      000000F3H   SFRSYM    DATA     BYTE      IAPADH
      000000B3H   SFRSYM    DATA     BYTE      P3VO
      000000ADH   SFRSYM    DATA     BYTE      ADCCON
      000000C8H.1 SFRSYM    DATA     BIT       TX
      000000EDH   SFRSYM    DATA     BYTE      EXBL
      000000F2H   SFRSYM    DATA     BYTE      IAPADL
      000000E8H.5 SFRSYM    DATA     BIT       TKIF
      00000080H.0 SFRSYM    DATA     BIT       P00
      00000090H.0 SFRSYM    DATA     BIT       P10
      00000080H.1 SFRSYM    DATA     BIT       P01
      00000099H   SFRSYM    DATA     BYTE      SBUF
      00000087H   SFRSYM    DATA     BYTE      PCON
      000000A0H.0 SFRSYM    DATA     BIT       P20
      00000090H.1 SFRSYM    DATA     BIT       P11
      00000080H.2 SFRSYM    DATA     BIT       P02
      000000B6H   SFRSYM    DATA     BYTE      CMPCFG
      000000B0H.0 SFRSYM    DATA     BIT       P30
      000000A0H.1 SFRSYM    DATA     BIT       P21
      00000090H.2 SFRSYM    DATA     BIT       P12
      00000080H.3 SFRSYM    DATA     BIT       P03
      000000C0H.0 SFRSYM    DATA     BIT       P40
      000000B0H.1 SFRSYM    DATA     BIT       P31
      000000A0H.2 SFRSYM    DATA     BIT       P22
      00000090H.3 SFRSYM    DATA     BIT       P13
      00000080H.4 SFRSYM    DATA     BIT       P04
      00000098H   SFRSYM    DATA     BYTE      SCON
      000000D8H.0 SFRSYM    DATA     BIT       P50
      000000C0H.1 SFRSYM    DATA     BIT       P41
      000000B0H.2 SFRSYM    DATA     BIT       P32
      000000A0H.3 SFRSYM    DATA     BIT       P23
      00000090H.4 SFRSYM    DATA     BIT       P14
      00000080H.5 SFRSYM    DATA     BIT       P05
      000000F5H   SFRSYM    DATA     BYTE      IAPDAT
      00000089H   SFRSYM    DATA     BYTE      TMOD
      00000088H   SFRSYM    DATA     BYTE      TCON
      000000D8H.1 SFRSYM    DATA     BIT       P51
      000000C0H.2 SFRSYM    DATA     BIT       P42
      000000B0H.3 SFRSYM    DATA     BIT       P33
      000000A0H.4 SFRSYM    DATA     BIT       P24
      00000090H.5 SFRSYM    DATA     BIT       P15
      00000080H.6 SFRSYM    DATA     BIT       P06
      000000B8H.0 SFRSYM    DATA     BIT       IPINT0
      000000D8H.2 SFRSYM    DATA     BIT       P52
      000000C0H.3 SFRSYM    DATA     BIT       P43
      000000B0H.4 SFRSYM    DATA     BIT       P34
      000000A0H.5 SFRSYM    DATA     BIT       P25
      00000090H.6 SFRSYM    DATA     BIT       P16
      00000080H.7 SFRSYM    DATA     BIT       P07
      000000E8H.6 SFRSYM    DATA     BIT       TRIG
      000000B8H.2 SFRSYM    DATA     BIT       IPINT1
      000000D8H.3 SFRSYM    DATA     BIT       P53
      000000C0H.4 SFRSYM    DATA     BIT       P44
      000000B0H.5 SFRSYM    DATA     BIT       P35
      000000A0H.6 SFRSYM    DATA     BIT       P26
      00000090H.7 SFRSYM    DATA     BIT       P17
      000000FDH   SFRSYM    DATA     BYTE      CRCREG
      000000D8H.4 SFRSYM    DATA     BIT       P54
LX51 LINKER/LOCATER V4.66.97.0                                                        10/13/2022  11:04:49  PAGE 10


      000000C0H.5 SFRSYM    DATA     BIT       P45
      000000B0H.6 SFRSYM    DATA     BIT       P36
      000000A0H.7 SFRSYM    DATA     BIT       P27
      000000D8H.5 SFRSYM    DATA     BIT       P55
      000000C0H.6 SFRSYM    DATA     BIT       P46
      000000B0H.7 SFRSYM    DATA     BIT       P37
      000000C0H.7 SFRSYM    DATA     BIT       P47
      000000C8H.6 SFRSYM    DATA     BIT       EXFX
      00000093H   SFRSYM    DATA     BYTE      DDRCON
      000000F6H   SFRSYM    DATA     BYTE      IAPCTL
      000000A9H   SFRSYM    DATA     BYTE      IE1
      000000AAH   SFRSYM    DATA     BYTE      IE2
      000000F0H   SFRSYM    DATA     BYTE      B
      000000B7H   SFRSYM    DATA     BYTE      CMPCON
      000000F1H   SFRSYM    DATA     BYTE      IAPKEY
      000000FBH   SFRSYM    DATA     BYTE      BTMCON
      000000D1H   SFRSYM    DATA     BYTE      PWMCFG
      000000E0H   SFRSYM    DATA     BYTE      ACC
      000000CBH   SFRSYM    DATA     BYTE      RCAPXH
      000000A8H.1 SFRSYM    DATA     BIT       ET0
      000000FCH   SFRSYM    DATA     BYTE      CRCINX
      00000088H.5 SFRSYM    DATA     BIT       TF0
      000000A8H.3 SFRSYM    DATA     BIT       ET1
      000000ABH   SFRSYM    DATA     BYTE      ADCCFG0
      000000B9H   SFRSYM    DATA     BYTE      IP1
      00000088H.7 SFRSYM    DATA     BIT       TF1
      000000A8H.5 SFRSYM    DATA     BIT       ET2
      000000ACH   SFRSYM    DATA     BYTE      ADCCFG1
      000000BAH   SFRSYM    DATA     BYTE      IP2
      000000DFH   SFRSYM    DATA     BYTE      ROMBNK
      00000098H.2 SFRSYM    DATA     BIT       RB8
      000000B5H   SFRSYM    DATA     BYTE      ADCCFG2
      000000CAH   SFRSYM    DATA     BYTE      RCAPXL
      0000008CH   SFRSYM    DATA     BYTE      TH0
      00000088H.1 SFRSYM    DATA     BIT       EX0
      0000008DH   SFRSYM    DATA     BYTE      TH1
      00000098H.3 SFRSYM    DATA     BIT       TB8
      00000088H.3 SFRSYM    DATA     BIT       EX1
      000000E5H   SFRSYM    DATA     BYTE      TKCNTH
      000000D0H.0 SFRSYM    DATA     BIT       P
      00000098H.7 SFRSYM    DATA     BIT       SM0
      0000008AH   SFRSYM    DATA     BYTE      TL0
      00000098H.6 SFRSYM    DATA     BIT       SM1
      000000CFH   SFRSYM    DATA     BYTE      WDTCON
      0000008BH   SFRSYM    DATA     BYTE      TL1
      00000098H.5 SFRSYM    DATA     BIT       SM2
      000000E4H   SFRSYM    DATA     BYTE      TKCNTL
      000000D6H   SFRSYM    DATA     BYTE      PWMDFR
      000000D5H   SFRSYM    DATA     BYTE      PWMPDH
      000000D0H.3 SFRSYM    DATA     BIT       RS0
      00000088H.4 SFRSYM    DATA     BIT       TR0
      000000D0H.4 SFRSYM    DATA     BIT       RS1
      000000D4H   SFRSYM    DATA     BYTE      PWMPDL
      00000088H.6 SFRSYM    DATA     BIT       TR1
      000000B8H.4 SFRSYM    DATA     BIT       IPUART
      000000D7H   SFRSYM    DATA     BYTE      PWMFLT
      00000083H   SFRSYM    DATA     BYTE      DPH
      00000082H   SFRSYM    DATA     BYTE      DPL
      000000A8H.0 SFRSYM    DATA     BIT       EINT0
      0000009AH   SFRSYM    DATA     BYTE      P0CON
      000000A8H.2 SFRSYM    DATA     BIT       EINT1
      000000B8H.6 SFRSYM    DATA     BIT       IPADC
      000000B4H   SFRSYM    DATA     BYTE      INT0F
      00000091H   SFRSYM    DATA     BYTE      P1CON
      000000BCH   SFRSYM    DATA     BYTE      INT1F
LX51 LINKER/LOCATER V4.66.97.0                                                        10/13/2022  11:04:49  PAGE 11


      000000A1H   SFRSYM    DATA     BYTE      P2CON
      000000BEH   SFRSYM    DATA     BYTE      INT2F
      000000B1H   SFRSYM    DATA     BYTE      P3CON
      00000098H.4 SFRSYM    DATA     BIT       REN
      000000C1H   SFRSYM    DATA     BYTE      P4CON
      000000D9H   SFRSYM    DATA     BYTE      P5CON
      000000AFH   SFRSYM    DATA     BYTE      ADCVH
      00000086H   SFRSYM    DATA     BYTE      DPS
      00000095H   SFRSYM    DATA     BYTE      US0CON0
      000000A4H   SFRSYM    DATA     BYTE      US1CON0
      0000009DH   SFRSYM    DATA     BYTE      US0CON1
      000000AEH   SFRSYM    DATA     BYTE      ADCVL
      000000F7H   SFRSYM    DATA     BYTE      EXADH
      000000A5H   SFRSYM    DATA     BYTE      US1CON1
      0000009EH   SFRSYM    DATA     BYTE      US0CON2
      000000A6H   SFRSYM    DATA     BYTE      US1CON2
      0000009FH   SFRSYM    DATA     BYTE      US0CON3
      000000A7H   SFRSYM    DATA     BYTE      US1CON3
      000000BBH   SFRSYM    DATA     BYTE      INT0R
      000000BDH   SFRSYM    DATA     BYTE      INT1R
      000000BFH   SFRSYM    DATA     BYTE      INT2R
      000000DCH   SFRSYM    DATA     BYTE      USXINX
      000000C8H.7 SFRSYM    DATA     BIT       TFX
      00000096H   SFRSYM    DATA     BYTE      IOHCON0
      00000097H   SFRSYM    DATA     BYTE      IOHCON1
      000000CDH   SFRSYM    DATA     BYTE      THX
      000000D0H.5 SFRSYM    DATA     BIT       F0
      000000D0H.1 SFRSYM    DATA     BIT       F1
      000000CCH   SFRSYM    DATA     BYTE      TLX
      000000D0H   SFRSYM    DATA     BYTE      PSW

      0100004EH   BLOCK     CODE     ---       LVL=0
      00000002H   SYMBOL    DATA     WORD      IAP_IapAddr
      0000005FH   SYMBOL    DATA     BYTE      Write_IAP_IapData
      01000054H   BLOCK     CODE     NEAR LAB  LVL=1
      00000060H   SYMBOL    DATA     DWORD     IAP_IapAddrTemp
      ---         BLOCKEND  ---      ---       LVL=1
      0100004EH   LINE      CODE     ---       #27
      01000054H   LINE      CODE     ---       #28
      01000054H   LINE      CODE     ---       #29
      0100005DH   LINE      CODE     ---       #31
      01000065H   LINE      CODE     ---       #34
      01000074H   LINE      CODE     ---       #35
      01000074H   LINE      CODE     ---       #36
      01000076H   LINE      CODE     ---       #37
      01000076H   LINE      CODE     ---       #39
      01000076H   LINE      CODE     ---       #40
      01000076H   LINE      CODE     ---       #41
      01000076H   LINE      CODE     ---       #43
      ---         BLOCKEND  ---      ---       LVL=0

      01000673H   BLOCK     CODE     ---       LVL=0
      00000006H   SYMBOL    DATA     WORD      IAP_IapAddr
      01000673H   LINE      CODE     ---       #52
      01000673H   LINE      CODE     ---       #53
      01000673H   LINE      CODE     ---       #54
      ---         BLOCKEND  ---      ---       LVL=0

      010003B0H   BLOCK     CODE     ---       LVL=0
      010003B0H   BLOCK     CODE     NEAR LAB  LVL=1
      0000005CH   SYMBOL    DATA     INT       SectorNum
      00000007H   SYMBOL    DATA     CHAR      LDSZIE
      0000005EH   SYMBOL    DATA     INT       i
      ---         BLOCKEND  ---      ---       LVL=1
      010003B0H   LINE      CODE     ---       #63
LX51 LINKER/LOCATER V4.66.97.0                                                        10/13/2022  11:04:49  PAGE 12


      010003B0H   LINE      CODE     ---       #64
      010003B0H   LINE      CODE     ---       #69
      010003B6H   LINE      CODE     ---       #71
      010003B9H   LINE      CODE     ---       #72
      010003BDH   LINE      CODE     ---       #74
      010003C8H   LINE      CODE     ---       #75
      010003D4H   LINE      CODE     ---       #76
      010003DAH   LINE      CODE     ---       #77
      010003E6H   LINE      CODE     ---       #78
      010003ECH   LINE      CODE     ---       #79
      010003F8H   LINE      CODE     ---       #81
      0100040EH   LINE      CODE     ---       #82
      0100040EH   LINE      CODE     ---       #83
      01000424H   LINE      CODE     ---       #84
      0100042EH   LINE      CODE     ---       #85
      ---         BLOCKEND  ---      ---       LVL=0

      010005E8H   BLOCK     CODE     ---       LVL=0
      00000007H   SYMBOL    DATA     BYTE      mode
      010005E8H   LINE      CODE     ---       #93
      010005E8H   LINE      CODE     ---       #94
      010005E8H   LINE      CODE     ---       #95
      010005EBH   LINE      CODE     ---       #96
      010005EEH   LINE      CODE     ---       #97
      010005F1H   LINE      CODE     ---       #98
      010005F1H   LINE      CODE     ---       #99
      010005F4H   LINE      CODE     ---       #100
      010005F6H   LINE      CODE     ---       #102
      010005F9H   LINE      CODE     ---       #104
      010005F9H   LINE      CODE     ---       #105
      010005FCH   LINE      CODE     ---       #106
      010005FDH   LINE      CODE     ---       #107
      010005FEH   LINE      CODE     ---       #108
      010005FFH   LINE      CODE     ---       #109
      01000600H   LINE      CODE     ---       #110
      01000601H   LINE      CODE     ---       #111
      01000602H   LINE      CODE     ---       #112
      01000603H   LINE      CODE     ---       #113
      01000604H   LINE      CODE     ---       #114
      01000605H   LINE      CODE     ---       #115
      ---         BLOCKEND  ---      ---       LVL=0

      01000599H   BLOCK     CODE     ---       LVL=0
      0000005CH   SYMBOL    DATA     WORD      IAP_IapAddr
      0100059DH   BLOCK     CODE     NEAR LAB  LVL=1
      0000005EH   SYMBOL    DATA     BYTE      i
      00000005H   SYMBOL    DATA     BYTE      Write_IAP_IapData
      ---         BLOCKEND  ---      ---       LVL=1
      01000599H   LINE      CODE     ---       #123
      0100059DH   LINE      CODE     ---       #124
      0100059DH   LINE      CODE     ---       #128
      010005A7H   LINE      CODE     ---       #129
      010005A7H   LINE      CODE     ---       #130
      010005AEH   LINE      CODE     ---       #132
      010005BFH   LINE      CODE     ---       #133
      010005BFH   LINE      CODE     ---       #134
      010005C1H   LINE      CODE     ---       #135
      010005C1H   LINE      CODE     ---       #136
      010005C5H   LINE      CODE     ---       #138
      010005C7H   LINE      CODE     ---       #140
      ---         BLOCKEND  ---      ---       LVL=0

      010005C8H   BLOCK     CODE     ---       LVL=0
      00000006H   SYMBOL    DATA     WORD      IAP_IapAddr
      00000005H   SYMBOL    DATA     BYTE      area
LX51 LINKER/LOCATER V4.66.97.0                                                        10/13/2022  11:04:49  PAGE 13


      010005C8H   BLOCK     CODE     NEAR LAB  LVL=1
      00000007H   SYMBOL    DATA     BYTE      IAP_IapData
      ---         BLOCKEND  ---      ---       LVL=1
      010005C8H   LINE      CODE     ---       #148
      010005C8H   LINE      CODE     ---       #149
      010005C8H   LINE      CODE     ---       #151
      010005CAH   LINE      CODE     ---       #152
      010005CCH   LINE      CODE     ---       #153
      010005D9H   LINE      CODE     ---       #154
      010005DAH   LINE      CODE     ---       #155
      010005DBH   LINE      CODE     ---       #156
      010005DCH   LINE      CODE     ---       #157
      010005DDH   LINE      CODE     ---       #158
      010005DEH   LINE      CODE     ---       #159
      010005DFH   LINE      CODE     ---       #160
      010005E0H   LINE      CODE     ---       #161
      010005E1H   LINE      CODE     ---       #162
      010005E2H   LINE      CODE     ---       #163
      010005E5H   LINE      CODE     ---       #164
      010005E7H   LINE      CODE     ---       #166
      010005E7H   LINE      CODE     ---       #167
      ---         BLOCKEND  ---      ---       LVL=0

      ---         MODULE    ---      ---       MAIN
      01000040H   PUBLIC    CODE     ---       main
      000000C8H.2 SFRSYM    DATA     BIT       TRX
      000000FFH   SFRSYM    DATA     BYTE      OPREG
      00000080H   SFRSYM    DATA     BYTE      P0
      000000E8H   SFRSYM    DATA     BYTE      TKCON
      000000DBH   SFRSYM    DATA     BYTE      TKMOD
      00000090H   SFRSYM    DATA     BYTE      P1
      000000A0H   SFRSYM    DATA     BYTE      P2
      000000A8H.4 SFRSYM    DATA     BIT       EUART
      0000008EH   SFRSYM    DATA     BYTE      TMCON
      000000B0H   SFRSYM    DATA     BYTE      P3
      000000D0H.6 SFRSYM    DATA     BIT       AC
      000000C0H   SFRSYM    DATA     BYTE      P4
      0000008FH   SFRSYM    DATA     BYTE      OTCON
      000000D8H   SFRSYM    DATA     BYTE      P5
      000000A8H.7 SFRSYM    DATA     BIT       EA
      000000C8H.5 SFRSYM    DATA     BIT       RCLKX
      000000E8H.7 SFRSYM    DATA     BIT       ENTKS
      000000D2H   SFRSYM    DATA     BYTE      PWMCON0
      000000C8H.4 SFRSYM    DATA     BIT       TCLKX
      000000D3H   SFRSYM    DATA     BYTE      PWMCON1
      000000C8H.3 SFRSYM    DATA     BIT       EXENX
      000000E7H   SFRSYM    DATA     BYTE      TKTMH
      000000A8H.6 SFRSYM    DATA     BIT       EADC
      000000E6H   SFRSYM    DATA     BYTE      TKTML
      000000C9H   SFRSYM    DATA     BYTE      TXMOD
      000000C8H   SFRSYM    DATA     BYTE      TXCON
      000000A8H   SFRSYM    DATA     BYTE      IE
      00000085H   SFRSYM    DATA     BYTE      DPH1
      000000E9H   SFRSYM    DATA     BYTE      EXA0
      000000FEH   SFRSYM    DATA     BYTE      OPINX
      000000EAH   SFRSYM    DATA     BYTE      EXA1
      000000EBH   SFRSYM    DATA     BYTE      EXA2
      000000ECH   SFRSYM    DATA     BYTE      EXA3
      00000084H   SFRSYM    DATA     BYTE      DPL1
      000000C8H.0 SFRSYM    DATA     BIT       CP
      000000C4H   SFRSYM    DATA     BYTE      USXCON0
      000000C5H   SFRSYM    DATA     BYTE      USXCON1
      000000C6H   SFRSYM    DATA     BYTE      USXCON2
      000000C7H   SFRSYM    DATA     BYTE      USXCON3
      000000EFH   SFRSYM    DATA     BYTE      OPERCON
LX51 LINKER/LOCATER V4.66.97.0                                                        10/13/2022  11:04:49  PAGE 14


      0000009BH   SFRSYM    DATA     BYTE      P0PH
      000000B8H   SFRSYM    DATA     BYTE      IP
      00000092H   SFRSYM    DATA     BYTE      P1PH
      00000098H.0 SFRSYM    DATA     BIT       RI
      000000A2H   SFRSYM    DATA     BYTE      P2PH
      000000D0H.7 SFRSYM    DATA     BIT       CY
      000000B2H   SFRSYM    DATA     BYTE      P3PH
      00000098H.1 SFRSYM    DATA     BIT       TI
      000000CEH   SFRSYM    DATA     BYTE      TXINX
      000000C2H   SFRSYM    DATA     BYTE      P4PH
      000000B8H.1 SFRSYM    DATA     BIT       IPT0
      000000DAH   SFRSYM    DATA     BYTE      P5PH
      000000B8H.3 SFRSYM    DATA     BIT       IPT1
      000000B8H.5 SFRSYM    DATA     BIT       IPT2
      000000E1H   SFRSYM    DATA     BYTE      TKCFG0
      000000E2H   SFRSYM    DATA     BYTE      TKCFG1
      000000E3H   SFRSYM    DATA     BYTE      TKCFG2
      00000081H   SFRSYM    DATA     BYTE      SP
      000000D0H.2 SFRSYM    DATA     BIT       OV
      000000F4H   SFRSYM    DATA     BYTE      IAPADE
      0000009CH   SFRSYM    DATA     BYTE      P0VO
      00000094H   SFRSYM    DATA     BYTE      P1VO
      000000A3H   SFRSYM    DATA     BYTE      P2VO
      000000EEH   SFRSYM    DATA     BYTE      EXBH
      000000F3H   SFRSYM    DATA     BYTE      IAPADH
      000000B3H   SFRSYM    DATA     BYTE      P3VO
      000000ADH   SFRSYM    DATA     BYTE      ADCCON
      000000C8H.1 SFRSYM    DATA     BIT       TX
      000000EDH   SFRSYM    DATA     BYTE      EXBL
      000000F2H   SFRSYM    DATA     BYTE      IAPADL
      000000E8H.5 SFRSYM    DATA     BIT       TKIF
      00000080H.0 SFRSYM    DATA     BIT       P00
      00000090H.0 SFRSYM    DATA     BIT       P10
      00000080H.1 SFRSYM    DATA     BIT       P01
      00000099H   SFRSYM    DATA     BYTE      SBUF
      00000087H   SFRSYM    DATA     BYTE      PCON
      000000A0H.0 SFRSYM    DATA     BIT       P20
      00000090H.1 SFRSYM    DATA     BIT       P11
      00000080H.2 SFRSYM    DATA     BIT       P02
      000000B6H   SFRSYM    DATA     BYTE      CMPCFG
      000000B0H.0 SFRSYM    DATA     BIT       P30
      000000A0H.1 SFRSYM    DATA     BIT       P21
      00000090H.2 SFRSYM    DATA     BIT       P12
      00000080H.3 SFRSYM    DATA     BIT       P03
      000000C0H.0 SFRSYM    DATA     BIT       P40
      000000B0H.1 SFRSYM    DATA     BIT       P31
      000000A0H.2 SFRSYM    DATA     BIT       P22
      00000090H.3 SFRSYM    DATA     BIT       P13
      00000080H.4 SFRSYM    DATA     BIT       P04
      00000098H   SFRSYM    DATA     BYTE      SCON
      000000D8H.0 SFRSYM    DATA     BIT       P50
      000000C0H.1 SFRSYM    DATA     BIT       P41
      000000B0H.2 SFRSYM    DATA     BIT       P32
      000000A0H.3 SFRSYM    DATA     BIT       P23
      00000090H.4 SFRSYM    DATA     BIT       P14
      00000080H.5 SFRSYM    DATA     BIT       P05
      000000F5H   SFRSYM    DATA     BYTE      IAPDAT
      00000089H   SFRSYM    DATA     BYTE      TMOD
      00000088H   SFRSYM    DATA     BYTE      TCON
      000000D8H.1 SFRSYM    DATA     BIT       P51
      000000C0H.2 SFRSYM    DATA     BIT       P42
      000000B0H.3 SFRSYM    DATA     BIT       P33
      000000A0H.4 SFRSYM    DATA     BIT       P24
      00000090H.5 SFRSYM    DATA     BIT       P15
      00000080H.6 SFRSYM    DATA     BIT       P06
LX51 LINKER/LOCATER V4.66.97.0                                                        10/13/2022  11:04:49  PAGE 15


      000000B8H.0 SFRSYM    DATA     BIT       IPINT0
      000000D8H.2 SFRSYM    DATA     BIT       P52
      000000C0H.3 SFRSYM    DATA     BIT       P43
      000000B0H.4 SFRSYM    DATA     BIT       P34
      000000A0H.5 SFRSYM    DATA     BIT       P25
      00000090H.6 SFRSYM    DATA     BIT       P16
      00000080H.7 SFRSYM    DATA     BIT       P07
      000000E8H.6 SFRSYM    DATA     BIT       TRIG
      000000B8H.2 SFRSYM    DATA     BIT       IPINT1
      000000D8H.3 SFRSYM    DATA     BIT       P53
      000000C0H.4 SFRSYM    DATA     BIT       P44
      000000B0H.5 SFRSYM    DATA     BIT       P35
      000000A0H.6 SFRSYM    DATA     BIT       P26
      00000090H.7 SFRSYM    DATA     BIT       P17
      000000FDH   SFRSYM    DATA     BYTE      CRCREG
      000000D8H.4 SFRSYM    DATA     BIT       P54
      000000C0H.5 SFRSYM    DATA     BIT       P45
      000000B0H.6 SFRSYM    DATA     BIT       P36
      000000A0H.7 SFRSYM    DATA     BIT       P27
      000000D8H.5 SFRSYM    DATA     BIT       P55
      000000C0H.6 SFRSYM    DATA     BIT       P46
      000000B0H.7 SFRSYM    DATA     BIT       P37
      000000C0H.7 SFRSYM    DATA     BIT       P47
      000000C8H.6 SFRSYM    DATA     BIT       EXFX
      00000093H   SFRSYM    DATA     BYTE      DDRCON
      000000F6H   SFRSYM    DATA     BYTE      IAPCTL
      000000A9H   SFRSYM    DATA     BYTE      IE1
      000000AAH   SFRSYM    DATA     BYTE      IE2
      000000F0H   SFRSYM    DATA     BYTE      B
      000000B7H   SFRSYM    DATA     BYTE      CMPCON
      000000F1H   SFRSYM    DATA     BYTE      IAPKEY
      000000FBH   SFRSYM    DATA     BYTE      BTMCON
      000000D1H   SFRSYM    DATA     BYTE      PWMCFG
      000000E0H   SFRSYM    DATA     BYTE      ACC
      000000CBH   SFRSYM    DATA     BYTE      RCAPXH
      000000A8H.1 SFRSYM    DATA     BIT       ET0
      000000FCH   SFRSYM    DATA     BYTE      CRCINX
      00000088H.5 SFRSYM    DATA     BIT       TF0
      000000A8H.3 SFRSYM    DATA     BIT       ET1
      000000ABH   SFRSYM    DATA     BYTE      ADCCFG0
      000000B9H   SFRSYM    DATA     BYTE      IP1
      00000088H.7 SFRSYM    DATA     BIT       TF1
      000000A8H.5 SFRSYM    DATA     BIT       ET2
      000000ACH   SFRSYM    DATA     BYTE      ADCCFG1
      000000BAH   SFRSYM    DATA     BYTE      IP2
      000000DFH   SFRSYM    DATA     BYTE      ROMBNK
      00000098H.2 SFRSYM    DATA     BIT       RB8
      000000B5H   SFRSYM    DATA     BYTE      ADCCFG2
      000000CAH   SFRSYM    DATA     BYTE      RCAPXL
      0000008CH   SFRSYM    DATA     BYTE      TH0
      00000088H.1 SFRSYM    DATA     BIT       EX0
      0000008DH   SFRSYM    DATA     BYTE      TH1
      00000098H.3 SFRSYM    DATA     BIT       TB8
      00000088H.3 SFRSYM    DATA     BIT       EX1
      000000E5H   SFRSYM    DATA     BYTE      TKCNTH
      000000D0H.0 SFRSYM    DATA     BIT       P
      00000098H.7 SFRSYM    DATA     BIT       SM0
      0000008AH   SFRSYM    DATA     BYTE      TL0
      00000098H.6 SFRSYM    DATA     BIT       SM1
      000000CFH   SFRSYM    DATA     BYTE      WDTCON
      0000008BH   SFRSYM    DATA     BYTE      TL1
      00000098H.5 SFRSYM    DATA     BIT       SM2
      000000E4H   SFRSYM    DATA     BYTE      TKCNTL
      000000D6H   SFRSYM    DATA     BYTE      PWMDFR
      000000D5H   SFRSYM    DATA     BYTE      PWMPDH
LX51 LINKER/LOCATER V4.66.97.0                                                        10/13/2022  11:04:49  PAGE 16


      000000D0H.3 SFRSYM    DATA     BIT       RS0
      00000088H.4 SFRSYM    DATA     BIT       TR0
      000000D0H.4 SFRSYM    DATA     BIT       RS1
      000000D4H   SFRSYM    DATA     BYTE      PWMPDL
      00000088H.6 SFRSYM    DATA     BIT       TR1
      000000B8H.4 SFRSYM    DATA     BIT       IPUART
      000000D7H   SFRSYM    DATA     BYTE      PWMFLT
      00000083H   SFRSYM    DATA     BYTE      DPH
      00000082H   SFRSYM    DATA     BYTE      DPL
      000000A8H.0 SFRSYM    DATA     BIT       EINT0
      0000009AH   SFRSYM    DATA     BYTE      P0CON
      000000A8H.2 SFRSYM    DATA     BIT       EINT1
      000000B8H.6 SFRSYM    DATA     BIT       IPADC
      000000B4H   SFRSYM    DATA     BYTE      INT0F
      00000091H   SFRSYM    DATA     BYTE      P1CON
      000000BCH   SFRSYM    DATA     BYTE      INT1F
      000000A1H   SFRSYM    DATA     BYTE      P2CON
      000000BEH   SFRSYM    DATA     BYTE      INT2F
      000000B1H   SFRSYM    DATA     BYTE      P3CON
      00000098H.4 SFRSYM    DATA     BIT       REN
      000000C1H   SFRSYM    DATA     BYTE      P4CON
      000000D9H   SFRSYM    DATA     BYTE      P5CON
      000000AFH   SFRSYM    DATA     BYTE      ADCVH
      00000086H   SFRSYM    DATA     BYTE      DPS
      00000095H   SFRSYM    DATA     BYTE      US0CON0
      000000A4H   SFRSYM    DATA     BYTE      US1CON0
      0000009DH   SFRSYM    DATA     BYTE      US0CON1
      000000AEH   SFRSYM    DATA     BYTE      ADCVL
      000000F7H   SFRSYM    DATA     BYTE      EXADH
      000000A5H   SFRSYM    DATA     BYTE      US1CON1
      0000009EH   SFRSYM    DATA     BYTE      US0CON2
      000000A6H   SFRSYM    DATA     BYTE      US1CON2
      0000009FH   SFRSYM    DATA     BYTE      US0CON3
      000000A7H   SFRSYM    DATA     BYTE      US1CON3
      000000BBH   SFRSYM    DATA     BYTE      INT0R
      000000BDH   SFRSYM    DATA     BYTE      INT1R
      000000BFH   SFRSYM    DATA     BYTE      INT2R
      000000DCH   SFRSYM    DATA     BYTE      USXINX
      000000C8H.7 SFRSYM    DATA     BIT       TFX
      00000096H   SFRSYM    DATA     BYTE      IOHCON0
      00000097H   SFRSYM    DATA     BYTE      IOHCON1
      000000CDH   SFRSYM    DATA     BYTE      THX
      000000D0H.5 SFRSYM    DATA     BIT       F0
      000000D0H.1 SFRSYM    DATA     BIT       F1
      000000CCH   SFRSYM    DATA     BYTE      TLX
      000000D0H   SFRSYM    DATA     BYTE      PSW

      01000040H   BLOCK     CODE     ---       LVL=0
      01000040H   LINE      CODE     ---       #20
      01000040H   LINE      CODE     ---       #21
      01000040H   LINE      CODE     ---       #22
      01000043H   LINE      CODE     ---       #23
      01000043H   LINE      CODE     ---       #24
      01000043H   LINE      CODE     ---       #26
      01000046H   LINE      CODE     ---       #27
      ---         BLOCKEND  ---      ---       LVL=0

      ---         MODULE    ---      ---       IAP_COMMUNICATION
      00000056H   PUBLIC    DATA     ---       UartCMD
      00000055H   PUBLIC    DATA     BYTE      ReceChoose
      00000051H   PUBLIC    DATA     DWORD     BeginAddr
      00000050H   PUBLIC    DATA     BYTE      IAPCMD
      0000004FH   PUBLIC    DATA     BYTE      CommunicationCheckNumber
      0000004EH   PUBLIC    DATA     BYTE      UartSendFlag
      0000004DH   PUBLIC    DATA     BYTE      UartReceFlag
LX51 LINKER/LOCATER V4.66.97.0                                                        10/13/2022  11:04:49  PAGE 17


      0000000AH   PUBLIC    DATA     ---       UartData
      00000009H   PUBLIC    DATA     BYTE      UartReadNumber
      00000008H   PUBLIC    DATA     BYTE      UartLength
      01000003H   PUBLIC    CODE     ---       BTM_Interrupt
      010004A2H   PUBLIC    CODE     ---       UART_Interrupt
      01000641H   PUBLIC    CODE     ---       BootInit
      01000205H   PUBLIC    CODE     ---       WorkCMD
      010002A5H   PUBLIC    CODE     ---       UartReceCMD
      0100032DH   PUBLIC    CODE     ---       UartReceData
      01000606H   PUBLIC    CODE     ---       _UartSendCMD
      0100065EH   PUBLIC    CODE     ---       UartInit
      000000C8H.2 SFRSYM    DATA     BIT       TRX
      000000FFH   SFRSYM    DATA     BYTE      OPREG
      00000080H   SFRSYM    DATA     BYTE      P0
      000000E8H   SFRSYM    DATA     BYTE      TKCON
      000000DBH   SFRSYM    DATA     BYTE      TKMOD
      00000090H   SFRSYM    DATA     BYTE      P1
      000000A0H   SFRSYM    DATA     BYTE      P2
      000000A8H.4 SFRSYM    DATA     BIT       EUART
      0000008EH   SFRSYM    DATA     BYTE      TMCON
      000000B0H   SFRSYM    DATA     BYTE      P3
      000000D0H.6 SFRSYM    DATA     BIT       AC
      000000C0H   SFRSYM    DATA     BYTE      P4
      0000008FH   SFRSYM    DATA     BYTE      OTCON
      000000D8H   SFRSYM    DATA     BYTE      P5
      000000A8H.7 SFRSYM    DATA     BIT       EA
      000000C8H.5 SFRSYM    DATA     BIT       RCLKX
      000000E8H.7 SFRSYM    DATA     BIT       ENTKS
      000000D2H   SFRSYM    DATA     BYTE      PWMCON0
      000000C8H.4 SFRSYM    DATA     BIT       TCLKX
      000000D3H   SFRSYM    DATA     BYTE      PWMCON1
      000000C8H.3 SFRSYM    DATA     BIT       EXENX
      000000E7H   SFRSYM    DATA     BYTE      TKTMH
      000000A8H.6 SFRSYM    DATA     BIT       EADC
      000000E6H   SFRSYM    DATA     BYTE      TKTML
      000000C9H   SFRSYM    DATA     BYTE      TXMOD
      000000C8H   SFRSYM    DATA     BYTE      TXCON
      000000A8H   SFRSYM    DATA     BYTE      IE
      00000085H   SFRSYM    DATA     BYTE      DPH1
      000000E9H   SFRSYM    DATA     BYTE      EXA0
      000000FEH   SFRSYM    DATA     BYTE      OPINX
      000000EAH   SFRSYM    DATA     BYTE      EXA1
      000000EBH   SFRSYM    DATA     BYTE      EXA2
      000000ECH   SFRSYM    DATA     BYTE      EXA3
      00000084H   SFRSYM    DATA     BYTE      DPL1
      000000C8H.0 SFRSYM    DATA     BIT       CP
      000000C4H   SFRSYM    DATA     BYTE      USXCON0
      000000C5H   SFRSYM    DATA     BYTE      USXCON1
      000000C6H   SFRSYM    DATA     BYTE      USXCON2
      000000C7H   SFRSYM    DATA     BYTE      USXCON3
      000000EFH   SFRSYM    DATA     BYTE      OPERCON
      0000009BH   SFRSYM    DATA     BYTE      P0PH
      000000B8H   SFRSYM    DATA     BYTE      IP
      00000092H   SFRSYM    DATA     BYTE      P1PH
      00000098H.0 SFRSYM    DATA     BIT       RI
      000000A2H   SFRSYM    DATA     BYTE      P2PH
      000000D0H.7 SFRSYM    DATA     BIT       CY
      000000B2H   SFRSYM    DATA     BYTE      P3PH
      00000098H.1 SFRSYM    DATA     BIT       TI
      000000CEH   SFRSYM    DATA     BYTE      TXINX
      000000C2H   SFRSYM    DATA     BYTE      P4PH
      000000B8H.1 SFRSYM    DATA     BIT       IPT0
      000000DAH   SFRSYM    DATA     BYTE      P5PH
      000000B8H.3 SFRSYM    DATA     BIT       IPT1
      000000B8H.5 SFRSYM    DATA     BIT       IPT2
LX51 LINKER/LOCATER V4.66.97.0                                                        10/13/2022  11:04:49  PAGE 18


      000000E1H   SFRSYM    DATA     BYTE      TKCFG0
      000000E2H   SFRSYM    DATA     BYTE      TKCFG1
      000000E3H   SFRSYM    DATA     BYTE      TKCFG2
      00000081H   SFRSYM    DATA     BYTE      SP
      000000D0H.2 SFRSYM    DATA     BIT       OV
      000000F4H   SFRSYM    DATA     BYTE      IAPADE
      0000009CH   SFRSYM    DATA     BYTE      P0VO
      00000094H   SFRSYM    DATA     BYTE      P1VO
      000000A3H   SFRSYM    DATA     BYTE      P2VO
      000000EEH   SFRSYM    DATA     BYTE      EXBH
      000000F3H   SFRSYM    DATA     BYTE      IAPADH
      000000B3H   SFRSYM    DATA     BYTE      P3VO
      000000ADH   SFRSYM    DATA     BYTE      ADCCON
      000000C8H.1 SFRSYM    DATA     BIT       TX
      000000EDH   SFRSYM    DATA     BYTE      EXBL
      000000F2H   SFRSYM    DATA     BYTE      IAPADL
      000000E8H.5 SFRSYM    DATA     BIT       TKIF
      00000080H.0 SFRSYM    DATA     BIT       P00
      00000090H.0 SFRSYM    DATA     BIT       P10
      00000080H.1 SFRSYM    DATA     BIT       P01
      00000099H   SFRSYM    DATA     BYTE      SBUF
      00000087H   SFRSYM    DATA     BYTE      PCON
      000000A0H.0 SFRSYM    DATA     BIT       P20
      00000090H.1 SFRSYM    DATA     BIT       P11
      00000080H.2 SFRSYM    DATA     BIT       P02
      000000B6H   SFRSYM    DATA     BYTE      CMPCFG
      000000B0H.0 SFRSYM    DATA     BIT       P30
      000000A0H.1 SFRSYM    DATA     BIT       P21
      00000090H.2 SFRSYM    DATA     BIT       P12
      00000080H.3 SFRSYM    DATA     BIT       P03
      000000C0H.0 SFRSYM    DATA     BIT       P40
      000000B0H.1 SFRSYM    DATA     BIT       P31
      000000A0H.2 SFRSYM    DATA     BIT       P22
      00000090H.3 SFRSYM    DATA     BIT       P13
      00000080H.4 SFRSYM    DATA     BIT       P04
      00000098H   SFRSYM    DATA     BYTE      SCON
      000000D8H.0 SFRSYM    DATA     BIT       P50
      000000C0H.1 SFRSYM    DATA     BIT       P41
      000000B0H.2 SFRSYM    DATA     BIT       P32
      000000A0H.3 SFRSYM    DATA     BIT       P23
      00000090H.4 SFRSYM    DATA     BIT       P14
      00000080H.5 SFRSYM    DATA     BIT       P05
      000000F5H   SFRSYM    DATA     BYTE      IAPDAT
      00000089H   SFRSYM    DATA     BYTE      TMOD
      00000088H   SFRSYM    DATA     BYTE      TCON
      000000D8H.1 SFRSYM    DATA     BIT       P51
      000000C0H.2 SFRSYM    DATA     BIT       P42
      000000B0H.3 SFRSYM    DATA     BIT       P33
      000000A0H.4 SFRSYM    DATA     BIT       P24
      00000090H.5 SFRSYM    DATA     BIT       P15
      00000080H.6 SFRSYM    DATA     BIT       P06
      000000B8H.0 SFRSYM    DATA     BIT       IPINT0
      000000D8H.2 SFRSYM    DATA     BIT       P52
      000000C0H.3 SFRSYM    DATA     BIT       P43
      000000B0H.4 SFRSYM    DATA     BIT       P34
      000000A0H.5 SFRSYM    DATA     BIT       P25
      00000090H.6 SFRSYM    DATA     BIT       P16
      00000080H.7 SFRSYM    DATA     BIT       P07
      000000E8H.6 SFRSYM    DATA     BIT       TRIG
      000000B8H.2 SFRSYM    DATA     BIT       IPINT1
      000000D8H.3 SFRSYM    DATA     BIT       P53
      000000C0H.4 SFRSYM    DATA     BIT       P44
      000000B0H.5 SFRSYM    DATA     BIT       P35
      000000A0H.6 SFRSYM    DATA     BIT       P26
      00000090H.7 SFRSYM    DATA     BIT       P17
LX51 LINKER/LOCATER V4.66.97.0                                                        10/13/2022  11:04:49  PAGE 19


      000000FDH   SFRSYM    DATA     BYTE      CRCREG
      000000D8H.4 SFRSYM    DATA     BIT       P54
      000000C0H.5 SFRSYM    DATA     BIT       P45
      000000B0H.6 SFRSYM    DATA     BIT       P36
      000000A0H.7 SFRSYM    DATA     BIT       P27
      000000D8H.5 SFRSYM    DATA     BIT       P55
      000000C0H.6 SFRSYM    DATA     BIT       P46
      000000B0H.7 SFRSYM    DATA     BIT       P37
      000000C0H.7 SFRSYM    DATA     BIT       P47
      000000C8H.6 SFRSYM    DATA     BIT       EXFX
      00000093H   SFRSYM    DATA     BYTE      DDRCON
      000000F6H   SFRSYM    DATA     BYTE      IAPCTL
      000000A9H   SFRSYM    DATA     BYTE      IE1
      000000AAH   SFRSYM    DATA     BYTE      IE2
      000000F0H   SFRSYM    DATA     BYTE      B
      000000B7H   SFRSYM    DATA     BYTE      CMPCON
      000000F1H   SFRSYM    DATA     BYTE      IAPKEY
      000000FBH   SFRSYM    DATA     BYTE      BTMCON
      000000D1H   SFRSYM    DATA     BYTE      PWMCFG
      000000E0H   SFRSYM    DATA     BYTE      ACC
      000000CBH   SFRSYM    DATA     BYTE      RCAPXH
      000000A8H.1 SFRSYM    DATA     BIT       ET0
      000000FCH   SFRSYM    DATA     BYTE      CRCINX
      00000088H.5 SFRSYM    DATA     BIT       TF0
      000000A8H.3 SFRSYM    DATA     BIT       ET1
      000000ABH   SFRSYM    DATA     BYTE      ADCCFG0
      000000B9H   SFRSYM    DATA     BYTE      IP1
      00000088H.7 SFRSYM    DATA     BIT       TF1
      000000A8H.5 SFRSYM    DATA     BIT       ET2
      000000ACH   SFRSYM    DATA     BYTE      ADCCFG1
      000000BAH   SFRSYM    DATA     BYTE      IP2
      000000DFH   SFRSYM    DATA     BYTE      ROMBNK
      00000098H.2 SFRSYM    DATA     BIT       RB8
      000000B5H   SFRSYM    DATA     BYTE      ADCCFG2
      000000CAH   SFRSYM    DATA     BYTE      RCAPXL
      0000008CH   SFRSYM    DATA     BYTE      TH0
      00000088H.1 SFRSYM    DATA     BIT       EX0
      0000008DH   SFRSYM    DATA     BYTE      TH1
      00000098H.3 SFRSYM    DATA     BIT       TB8
      00000088H.3 SFRSYM    DATA     BIT       EX1
      000000E5H   SFRSYM    DATA     BYTE      TKCNTH
      000000D0H.0 SFRSYM    DATA     BIT       P
      00000098H.7 SFRSYM    DATA     BIT       SM0
      0000008AH   SFRSYM    DATA     BYTE      TL0
      00000098H.6 SFRSYM    DATA     BIT       SM1
      000000CFH   SFRSYM    DATA     BYTE      WDTCON
      0000008BH   SFRSYM    DATA     BYTE      TL1
      00000098H.5 SFRSYM    DATA     BIT       SM2
      000000E4H   SFRSYM    DATA     BYTE      TKCNTL
      000000D6H   SFRSYM    DATA     BYTE      PWMDFR
      000000D5H   SFRSYM    DATA     BYTE      PWMPDH
      000000D0H.3 SFRSYM    DATA     BIT       RS0
      00000088H.4 SFRSYM    DATA     BIT       TR0
      000000D0H.4 SFRSYM    DATA     BIT       RS1
      000000D4H   SFRSYM    DATA     BYTE      PWMPDL
      00000088H.6 SFRSYM    DATA     BIT       TR1
      000000B8H.4 SFRSYM    DATA     BIT       IPUART
      000000D7H   SFRSYM    DATA     BYTE      PWMFLT
      00000083H   SFRSYM    DATA     BYTE      DPH
      00000082H   SFRSYM    DATA     BYTE      DPL
      000000A8H.0 SFRSYM    DATA     BIT       EINT0
      0000009AH   SFRSYM    DATA     BYTE      P0CON
      000000A8H.2 SFRSYM    DATA     BIT       EINT1
      000000B8H.6 SFRSYM    DATA     BIT       IPADC
      000000B4H   SFRSYM    DATA     BYTE      INT0F
LX51 LINKER/LOCATER V4.66.97.0                                                        10/13/2022  11:04:49  PAGE 20


      00000091H   SFRSYM    DATA     BYTE      P1CON
      000000BCH   SFRSYM    DATA     BYTE      INT1F
      000000A1H   SFRSYM    DATA     BYTE      P2CON
      000000BEH   SFRSYM    DATA     BYTE      INT2F
      000000B1H   SFRSYM    DATA     BYTE      P3CON
      00000098H.4 SFRSYM    DATA     BIT       REN
      000000C1H   SFRSYM    DATA     BYTE      P4CON
      000000D9H   SFRSYM    DATA     BYTE      P5CON
      000000AFH   SFRSYM    DATA     BYTE      ADCVH
      00000086H   SFRSYM    DATA     BYTE      DPS
      00000095H   SFRSYM    DATA     BYTE      US0CON0
      000000A4H   SFRSYM    DATA     BYTE      US1CON0
      0000009DH   SFRSYM    DATA     BYTE      US0CON1
      000000AEH   SFRSYM    DATA     BYTE      ADCVL
      000000F7H   SFRSYM    DATA     BYTE      EXADH
      000000A5H   SFRSYM    DATA     BYTE      US1CON1
      0000009EH   SFRSYM    DATA     BYTE      US0CON2
      000000A6H   SFRSYM    DATA     BYTE      US1CON2
      0000009FH   SFRSYM    DATA     BYTE      US0CON3
      000000A7H   SFRSYM    DATA     BYTE      US1CON3
      000000BBH   SFRSYM    DATA     BYTE      INT0R
      000000BDH   SFRSYM    DATA     BYTE      INT1R
      000000BFH   SFRSYM    DATA     BYTE      INT2R
      000000DCH   SFRSYM    DATA     BYTE      USXINX
      000000C8H.7 SFRSYM    DATA     BIT       TFX
      00000096H   SFRSYM    DATA     BYTE      IOHCON0
      00000097H   SFRSYM    DATA     BYTE      IOHCON1
      000000CDH   SFRSYM    DATA     BYTE      THX
      000000D0H.5 SFRSYM    DATA     BIT       F0
      000000D0H.1 SFRSYM    DATA     BIT       F1
      000000CCH   SFRSYM    DATA     BYTE      TLX
      000000D0H   SFRSYM    DATA     BYTE      PSW

      0100065EH   BLOCK     CODE     ---       LVL=0
      0100065EH   LINE      CODE     ---       #93
      0100065EH   LINE      CODE     ---       #94
      0100065EH   LINE      CODE     ---       #113
      01000661H   LINE      CODE     ---       #114
      01000664H   LINE      CODE     ---       #115
      01000667H   LINE      CODE     ---       #116
      0100066AH   LINE      CODE     ---       #117
      0100066DH   LINE      CODE     ---       #143
      01000670H   LINE      CODE     ---       #144
      01000672H   LINE      CODE     ---       #147
      ---         BLOCKEND  ---      ---       LVL=0

      01000606H   BLOCK     CODE     ---       LVL=0
      00000007H   SYMBOL    DATA     BYTE      IAP_Command
      01000606H   LINE      CODE     ---       #155
      01000606H   LINE      CODE     ---       #156
      01000606H   LINE      CODE     ---       #157
      01000609H   LINE      CODE     ---       #158
      0100060DH   LINE      CODE     ---       #159
      01000610H   LINE      CODE     ---       #160
      01000612H   LINE      CODE     ---       #161
      01000616H   LINE      CODE     ---       #162
      01000619H   LINE      CODE     ---       #163
      0100061CH   LINE      CODE     ---       #164
      01000620H   LINE      CODE     ---       #165
      01000623H   LINE      CODE     ---       #167
      ---         BLOCKEND  ---      ---       LVL=0

      0100032DH   BLOCK     CODE     ---       LVL=0
      0100032DH   LINE      CODE     ---       #175
      0100032DH   LINE      CODE     ---       #176
LX51 LINKER/LOCATER V4.66.97.0                                                        10/13/2022  11:04:49  PAGE 21


      0100032DH   LINE      CODE     ---       #177
      01000334H   LINE      CODE     ---       #179
      01000340H   LINE      CODE     ---       #180
      01000340H   LINE      CODE     ---       #181
      01000343H   LINE      CODE     ---       #182
      01000347H   LINE      CODE     ---       #183
      01000347H   LINE      CODE     ---       #184
      0100034AH   LINE      CODE     ---       #185
      0100034CH   LINE      CODE     ---       #186
      0100034EH   LINE      CODE     ---       #187
      01000351H   LINE      CODE     ---       #188
      01000351H   LINE      CODE     ---       #189
      01000351H   LINE      CODE     ---       #190
      0100035DH   LINE      CODE     ---       #191
      0100035DH   LINE      CODE     ---       #192
      01000371H   LINE      CODE     ---       #193
      01000371H   LINE      CODE     ---       #194
      0100037AH   LINE      CODE     ---       #195
      0100037CH   LINE      CODE     ---       #196
      01000384H   LINE      CODE     ---       #197
      01000384H   LINE      CODE     ---       #198
      01000386H   LINE      CODE     ---       #200
      0100038FH   LINE      CODE     ---       #201
      0100038FH   LINE      CODE     ---       #202
      01000392H   LINE      CODE     ---       #203
      01000395H   LINE      CODE     ---       #204
      01000398H   LINE      CODE     ---       #205
      01000398H   LINE      CODE     ---       #207
      01000398H   LINE      CODE     ---       #208
      0100039BH   LINE      CODE     ---       #209
      0100039EH   LINE      CODE     ---       #210
      010003A0H   LINE      CODE     ---       #211
      010003A0H   LINE      CODE     ---       #214
      010003A0H   LINE      CODE     ---       #215
      010003A0H   LINE      CODE     ---       #285
      010003A6H   LINE      CODE     ---       #286
      010003A6H   LINE      CODE     ---       #287
      010003A8H   LINE      CODE     ---       #288
      010003AAH   LINE      CODE     ---       #290
      010003AAH   LINE      CODE     ---       #291
      010003ADH   LINE      CODE     ---       #292
      010003ADH   LINE      CODE     ---       #293
      010003AFH   LINE      CODE     ---       #294
      ---         BLOCKEND  ---      ---       LVL=0

      010002A5H   BLOCK     CODE     ---       LVL=0
      010002A5H   LINE      CODE     ---       #302
      010002A5H   LINE      CODE     ---       #303
      010002A5H   LINE      CODE     ---       #304
      010002ACH   LINE      CODE     ---       #305
      010002C4H   LINE      CODE     ---       #306
      010002C4H   LINE      CODE     ---       #307
      010002D9H   LINE      CODE     ---       #309
      010002EAH   LINE      CODE     ---       #310
      010002EAH   LINE      CODE     ---       #311
      010002EDH   LINE      CODE     ---       #312
      010002EFH   LINE      CODE     ---       #314
      010002EFH   LINE      CODE     ---       #315
      010002F2H   LINE      CODE     ---       #316
      010002F2H   LINE      CODE     ---       #317
      010002F5H   LINE      CODE     ---       #318
      010002F7H   LINE      CODE     ---       #319
      010002F9H   LINE      CODE     ---       #320
      010002FBH   LINE      CODE     ---       #321
      010002FDH   LINE      CODE     ---       #322
LX51 LINKER/LOCATER V4.66.97.0                                                        10/13/2022  11:04:49  PAGE 22


      010002FFH   LINE      CODE     ---       #323
      01000302H   LINE      CODE     ---       #324
      01000302H   LINE      CODE     ---       #325
      01000314H   LINE      CODE     ---       #326
      01000314H   LINE      CODE     ---       #327
      01000317H   LINE      CODE     ---       #328
      01000319H   LINE      CODE     ---       #329
      0100031BH   LINE      CODE     ---       #330
      0100031DH   LINE      CODE     ---       #331
      0100031FH   LINE      CODE     ---       #332
      01000322H   LINE      CODE     ---       #333
      01000322H   LINE      CODE     ---       #334
      01000328H   LINE      CODE     ---       #335
      01000328H   LINE      CODE     ---       #336
      0100032AH   LINE      CODE     ---       #337
      0100032AH   LINE      CODE     ---       #338
      0100032CH   LINE      CODE     ---       #339
      ---         BLOCKEND  ---      ---       LVL=0

      01000205H   BLOCK     CODE     ---       LVL=0
      01000205H   LINE      CODE     ---       #347
      01000205H   LINE      CODE     ---       #348
      01000205H   LINE      CODE     ---       #349
      01000221H   LINE      CODE     ---       #350
      01000221H   LINE      CODE     ---       #351
      01000221H   LINE      CODE     ---       #352
      01000221H   LINE      CODE     ---       #353
      01000224H   LINE      CODE     ---       #354
      01000227H   LINE      CODE     ---       #355
      01000229H   LINE      CODE     ---       #356
      01000229H   LINE      CODE     ---       #357
      0100022BH   LINE      CODE     ---       #359
      0100022BH   LINE      CODE     ---       #360
      0100022BH   LINE      CODE     ---       #361
      0100022EH   LINE      CODE     ---       #362
      01000231H   LINE      CODE     ---       #363
      01000234H   LINE      CODE     ---       #365
      0100023EH   LINE      CODE     ---       #366
      0100023EH   LINE      CODE     ---       #367
      01000243H   LINE      CODE     ---       #368
      0100025CH   LINE      CODE     ---       #369
      0100025EH   LINE      CODE     ---       #371
      0100025EH   LINE      CODE     ---       #372
      01000263H   LINE      CODE     ---       #373
      01000263H   LINE      CODE     ---       #375
      01000263H   LINE      CODE     ---       #376
      01000265H   LINE      CODE     ---       #377
      01000265H   LINE      CODE     ---       #378
      01000265H   LINE      CODE     ---       #379
      01000268H   LINE      CODE     ---       #380
      0100026BH   LINE      CODE     ---       #381
      01000270H   LINE      CODE     ---       #382
      01000270H   LINE      CODE     ---       #383
      01000272H   LINE      CODE     ---       #384
      01000272H   LINE      CODE     ---       #385
      01000272H   LINE      CODE     ---       #386
      01000275H   LINE      CODE     ---       #387
      01000278H   LINE      CODE     ---       #388
      0100027BH   LINE      CODE     ---       #389
      01000280H   LINE      CODE     ---       #390
      01000283H   LINE      CODE     ---       #391
      01000283H   LINE      CODE     ---       #392
      01000285H   LINE      CODE     ---       #393
      01000285H   LINE      CODE     ---       #394
      01000285H   LINE      CODE     ---       #395
LX51 LINKER/LOCATER V4.66.97.0                                                        10/13/2022  11:04:49  PAGE 23


      01000288H   LINE      CODE     ---       #396
      0100028BH   LINE      CODE     ---       #397
      01000290H   LINE      CODE     ---       #398
      01000293H   LINE      CODE     ---       #399
      01000294H   LINE      CODE     ---       #400
      01000294H   LINE      CODE     ---       #401
      01000294H   LINE      CODE     ---       #402
      01000297H   LINE      CODE     ---       #403
      0100029AH   LINE      CODE     ---       #405
      0100029FH   LINE      CODE     ---       #406
      010002A4H   LINE      CODE     ---       #407
      010002A4H   LINE      CODE     ---       #408
      010002A4H   LINE      CODE     ---       #409
      010002A4H   LINE      CODE     ---       #410
      010002A4H   LINE      CODE     ---       #411
      ---         BLOCKEND  ---      ---       LVL=0

      01000641H   BLOCK     CODE     ---       LVL=0
      01000641H   LINE      CODE     ---       #418
      01000641H   LINE      CODE     ---       #419
      01000641H   LINE      CODE     ---       #421
      01000644H   LINE      CODE     ---       #422
      01000647H   LINE      CODE     ---       #423
      0100064AH   LINE      CODE     ---       #425
      0100064DH   LINE      CODE     ---       #426
      01000652H   LINE      CODE     ---       #427
      01000655H   LINE      CODE     ---       #430
      01000658H   LINE      CODE     ---       #431
      0100065BH   LINE      CODE     ---       #432
      0100065DH   LINE      CODE     ---       #433
      ---         BLOCKEND  ---      ---       LVL=0

      010004A2H   BLOCK     CODE     ---       LVL=0
      010004A2H   LINE      CODE     ---       #440
      010004BFH   LINE      CODE     ---       #442
      010004C4H   LINE      CODE     ---       #443
      010004C4H   LINE      CODE     ---       #444
      010004C7H   LINE      CODE     ---       #445
      010004CAH   LINE      CODE     ---       #446
      010004CAH   LINE      CODE     ---       #447
      010004CFH   LINE      CODE     ---       #448
      010004CFH   LINE      CODE     ---       #449
      010004D2H   LINE      CODE     ---       #450
      010004D6H   LINE      CODE     ---       #451
      010004D6H   LINE      CODE     ---       #452
      010004D9H   LINE      CODE     ---       #453
      010004DBH   LINE      CODE     ---       #455
      010004DBH   LINE      CODE     ---       #456
      010004DEH   LINE      CODE     ---       #457
      010004DEH   LINE      CODE     ---       #459
      010004DEH   LINE      CODE     ---       #460
      ---         BLOCKEND  ---      ---       LVL=0

      01000003H   BLOCK     CODE     ---       LVL=0
      01000003H   LINE      CODE     ---       #467
      01000020H   LINE      CODE     ---       #469
      01000025H   LINE      CODE     ---       #470
      ---         BLOCKEND  ---      ---       LVL=0

      ---         MODULE    ---      ---       IAP_OPTION_EW
      00000064H   PUBLIC    DATA     ---       ?_IAP_CODEPROGRAMBYTEOPTION?BYTE
      0100007EH   PUBLIC    CODE     ---       _IAP_CODEPROGRAMBYTEOPTION
      01000143H   PUBLIC    CODE     ---       _IAP_CODESECTORERASEOPTION
      010004F9H   PUBLIC    CODE     ---       _IAP_EEPROMPROGRAMBYTEOPTION
      0100054AH   PUBLIC    CODE     ---       _IAP_EEPROMSECTORERASEOPTION
LX51 LINKER/LOCATER V4.66.97.0                                                        10/13/2022  11:04:49  PAGE 24


      01000102H   SYMBOL    CODE     ---       ?C0001
      010000CEH   SYMBOL    CODE     ---       ?C0002
      0100010AH   SYMBOL    CODE     ---       ?C0005
      010001C7H   SYMBOL    CODE     ---       ?C0007
      01000193H   SYMBOL    CODE     ---       ?C0008
      010001CFH   SYMBOL    CODE     ---       ?C0011
      0100053DH   SYMBOL    CODE     ---       ?C0013
      0100058CH   SYMBOL    CODE     ---       ?C0015
      010000F2H   SYMBOL    CODE     ---       ?C0017
      010001B7H   SYMBOL    CODE     ---       ?C0018
      00000060H   SYMBOL    DATA     ---       ?_IAP_CODESECTORERASEOPTION?BYTE
      0000006DH   SYMBOL    DATA     ---       ?_IAP_EEPROMPROGRAMBYTEOPTION?BYTE
      00000071H   SYMBOL    DATA     ---       ?_IAP_EEPROMSECTORERASEOPTION?BYTE
      00000064H   SYMBOL    DATA     ---       ADD?040
      00000060H   SYMBOL    DATA     ---       ADD?145
      00000068H   SYMBOL    DATA     ---       DATA?041
      00000000H   SYMBOL    NUMBER   ---       IAP_OPTION_EW
      000000A8H.7 SYMBOL    BIT      ---       SOC_EA
      000000F4H   SYMBOL    DATA     ---       SOC_IAPADE
      000000F3H   SYMBOL    DATA     ---       SOC_IAPADH
      000000F2H   SYMBOL    DATA     ---       SOC_IAPADL
      000000F6H   SYMBOL    DATA     ---       SOC_IAPCTL
      000000F5H   SYMBOL    DATA     ---       SOC_IAPDAT
      000000F1H   SYMBOL    DATA     ---       SOC_IAPKEY
      000000A8H   SYMBOL    DATA     ---       SOC_IE
      000000DFH   SYMBOL    DATA     ---       SOC_ROMBNK
      00000069H   SYMBOL    DATA     ---       TEMPADER?042
      00000064H   SYMBOL    DATA     ---       TEMPADER?146
      0000006DH   SYMBOL    DATA     ---       TEMPADER?251
      00000071H   SYMBOL    DATA     ---       TEMPADER?355
      0000006AH   SYMBOL    DATA     ---       TEMPEA?043
      00000065H   SYMBOL    DATA     ---       TEMPEA?147
      0000006EH   SYMBOL    DATA     ---       TEMPEA?252
      00000072H   SYMBOL    DATA     ---       TEMPEA?356
      0000006BH   SYMBOL    DATA     ---       TEMPROMBNK?044
      00000066H   SYMBOL    DATA     ---       TEMPROMBNK?148
      0000006FH   SYMBOL    DATA     ---       TEMPROMBNK?253
      00000073H   SYMBOL    DATA     ---       TEMPROMBNK?357

      0100007EH   BLOCK     CODE     ---       LVL=0
      0100007EH   LINE      CODE     ---       #106
      01000080H   LINE      CODE     ---       #107
      01000082H   LINE      CODE     ---       #108
      01000084H   LINE      CODE     ---       #109
      01000086H   LINE      CODE     ---       #114
      01000089H   LINE      CODE     ---       #117
      0100008BH   LINE      CODE     ---       #118
      0100008CH   LINE      CODE     ---       #119
      0100008DH   LINE      CODE     ---       #120
      0100008FH   LINE      CODE     ---       #123
      01000091H   LINE      CODE     ---       #124
      01000094H   LINE      CODE     ---       #125
      01000096H   LINE      CODE     ---       #129
      01000098H   LINE      CODE     ---       #132
      01000099H   LINE      CODE     ---       #133
      0100009AH   LINE      CODE     ---       #134
      0100009BH   LINE      CODE     ---       #135
      0100009DH   LINE      CODE     ---       #136
      0100009EH   LINE      CODE     ---       #137
      010000A0H   LINE      CODE     ---       #138
      010000A2H   LINE      CODE     ---       #139
      010000A4H   LINE      CODE     ---       #140
      010000A6H   LINE      CODE     ---       #141
      010000A7H   LINE      CODE     ---       #142
      010000AAH   LINE      CODE     ---       #143
LX51 LINKER/LOCATER V4.66.97.0                                                        10/13/2022  11:04:49  PAGE 25


      010000ACH   LINE      CODE     ---       #148
      010000AEH   LINE      CODE     ---       #149
      010000B0H   LINE      CODE     ---       #150
      010000B2H   LINE      CODE     ---       #151
      010000B4H   LINE      CODE     ---       #152
      010000B6H   LINE      CODE     ---       #153
      010000B9H   LINE      CODE     ---       #154
      010000BBH   LINE      CODE     ---       #159
      010000BDH   LINE      CODE     ---       #160
      010000BFH   LINE      CODE     ---       #161
      010000C1H   LINE      CODE     ---       #162
      010000C3H   LINE      CODE     ---       #165
      010000C4H   LINE      CODE     ---       #166
      010000C6H   LINE      CODE     ---       #167
      010000C8H   LINE      CODE     ---       #168
      010000CAH   LINE      CODE     ---       #169
      010000CCH   LINE      CODE     ---       #172
      010000CEH   LINE      CODE     ---       #176
      010000CFH   LINE      CODE     ---       #177
      010000D0H   LINE      CODE     ---       #178
      010000D1H   LINE      CODE     ---       #179
      010000D3H   LINE      CODE     ---       #180
      010000D4H   LINE      CODE     ---       #181
      010000D6H   LINE      CODE     ---       #182
      010000D8H   LINE      CODE     ---       #183
      010000DAH   LINE      CODE     ---       #184
      010000DCH   LINE      CODE     ---       #185
      010000DDH   LINE      CODE     ---       #186
      010000E0H   LINE      CODE     ---       #187
      010000E2H   LINE      CODE     ---       #193
      010000E4H   LINE      CODE     ---       #194
      010000E6H   LINE      CODE     ---       #195
      010000E8H   LINE      CODE     ---       #196
      010000EAH   LINE      CODE     ---       #199
      010000EBH   LINE      CODE     ---       #200
      010000EDH   LINE      CODE     ---       #201
      010000EFH   LINE      CODE     ---       #202
      010000F0H   LINE      CODE     ---       #203
      010000F2H   LINE      CODE     ---       #205
      010000F4H   LINE      CODE     ---       #206
      010000F6H   LINE      CODE     ---       #207
      010000F8H   LINE      CODE     ---       #208
      010000FAH   LINE      CODE     ---       #209
      010000FCH   LINE      CODE     ---       #210
      010000FEH   LINE      CODE     ---       #211
      01000100H   LINE      CODE     ---       #216
      01000102H   LINE      CODE     ---       #223
      01000104H   LINE      CODE     ---       #224
      01000106H   LINE      CODE     ---       #225
      01000108H   LINE      CODE     ---       #226
      0100010AH   LINE      CODE     ---       #232
      0100010BH   LINE      CODE     ---       #233
      0100010DH   LINE      CODE     ---       #236
      01000110H   LINE      CODE     ---       #239
      01000112H   LINE      CODE     ---       #240
      01000114H   LINE      CODE     ---       #241
      01000116H   LINE      CODE     ---       #242
      01000118H   LINE      CODE     ---       #243
      0100011AH   LINE      CODE     ---       #244
      0100011DH   LINE      CODE     ---       #245
      0100011FH   LINE      CODE     ---       #248
      01000122H   LINE      CODE     ---       #251
      01000125H   LINE      CODE     ---       #254
      01000128H   LINE      CODE     ---       #257
      01000136H   LINE      CODE     ---       #286
LX51 LINKER/LOCATER V4.66.97.0                                                        10/13/2022  11:04:49  PAGE 26


      01000139H   LINE      CODE     ---       #289
      0100013CH   LINE      CODE     ---       #292
      0100013EH   LINE      CODE     ---       #293
      01000140H   LINE      CODE     ---       #294
      01000142H   LINE      CODE     ---       #298
      01000143H   LINE      CODE     ---       #315
      01000145H   LINE      CODE     ---       #316
      01000147H   LINE      CODE     ---       #317
      01000149H   LINE      CODE     ---       #318
      0100014BH   LINE      CODE     ---       #323
      0100014EH   LINE      CODE     ---       #326
      01000150H   LINE      CODE     ---       #327
      01000151H   LINE      CODE     ---       #328
      01000152H   LINE      CODE     ---       #329
      01000154H   LINE      CODE     ---       #332
      01000156H   LINE      CODE     ---       #333
      01000159H   LINE      CODE     ---       #334
      0100015BH   LINE      CODE     ---       #338
      0100015DH   LINE      CODE     ---       #342
      0100015EH   LINE      CODE     ---       #343
      0100015FH   LINE      CODE     ---       #344
      01000160H   LINE      CODE     ---       #345
      01000162H   LINE      CODE     ---       #346
      01000163H   LINE      CODE     ---       #347
      01000165H   LINE      CODE     ---       #348
      01000167H   LINE      CODE     ---       #349
      01000169H   LINE      CODE     ---       #350
      0100016BH   LINE      CODE     ---       #351
      0100016CH   LINE      CODE     ---       #352
      0100016FH   LINE      CODE     ---       #353
      01000171H   LINE      CODE     ---       #358
      01000173H   LINE      CODE     ---       #359
      01000175H   LINE      CODE     ---       #360
      01000177H   LINE      CODE     ---       #361
      01000179H   LINE      CODE     ---       #362
      0100017BH   LINE      CODE     ---       #363
      0100017EH   LINE      CODE     ---       #364
      01000180H   LINE      CODE     ---       #369
      01000182H   LINE      CODE     ---       #370
      01000184H   LINE      CODE     ---       #371
      01000186H   LINE      CODE     ---       #372
      01000188H   LINE      CODE     ---       #375
      01000189H   LINE      CODE     ---       #376
      0100018BH   LINE      CODE     ---       #377
      0100018DH   LINE      CODE     ---       #378
      0100018FH   LINE      CODE     ---       #379
      01000191H   LINE      CODE     ---       #382
      01000193H   LINE      CODE     ---       #386
      01000194H   LINE      CODE     ---       #387
      01000195H   LINE      CODE     ---       #388
      01000196H   LINE      CODE     ---       #389
      01000198H   LINE      CODE     ---       #390
      01000199H   LINE      CODE     ---       #391
      0100019BH   LINE      CODE     ---       #392
      0100019DH   LINE      CODE     ---       #393
      0100019FH   LINE      CODE     ---       #394
      010001A1H   LINE      CODE     ---       #395
      010001A2H   LINE      CODE     ---       #396
      010001A5H   LINE      CODE     ---       #397
      010001A7H   LINE      CODE     ---       #403
      010001A9H   LINE      CODE     ---       #404
      010001ABH   LINE      CODE     ---       #405
      010001ADH   LINE      CODE     ---       #406
      010001AFH   LINE      CODE     ---       #409
      010001B0H   LINE      CODE     ---       #410
LX51 LINKER/LOCATER V4.66.97.0                                                        10/13/2022  11:04:49  PAGE 27


      010001B2H   LINE      CODE     ---       #411
      010001B4H   LINE      CODE     ---       #412
      010001B5H   LINE      CODE     ---       #413
      010001B7H   LINE      CODE     ---       #415
      010001B9H   LINE      CODE     ---       #416
      010001BBH   LINE      CODE     ---       #417
      010001BDH   LINE      CODE     ---       #418
      010001BFH   LINE      CODE     ---       #419
      010001C1H   LINE      CODE     ---       #420
      010001C3H   LINE      CODE     ---       #421
      010001C5H   LINE      CODE     ---       #426
      010001C7H   LINE      CODE     ---       #433
      010001C9H   LINE      CODE     ---       #434
      010001CBH   LINE      CODE     ---       #435
      010001CDH   LINE      CODE     ---       #436
      010001CFH   LINE      CODE     ---       #443
      010001D0H   LINE      CODE     ---       #444
      010001D2H   LINE      CODE     ---       #448
      010001D4H   LINE      CODE     ---       #449
      010001D6H   LINE      CODE     ---       #450
      010001D8H   LINE      CODE     ---       #451
      010001DAH   LINE      CODE     ---       #452
      010001DCH   LINE      CODE     ---       #453
      010001DFH   LINE      CODE     ---       #454
      010001E1H   LINE      CODE     ---       #457
      010001E4H   LINE      CODE     ---       #461
      010001E7H   LINE      CODE     ---       #464
      010001EAH   LINE      CODE     ---       #467
      010001F8H   LINE      CODE     ---       #496
      010001FBH   LINE      CODE     ---       #499
      010001FEH   LINE      CODE     ---       #502
      01000200H   LINE      CODE     ---       #503
      01000202H   LINE      CODE     ---       #504
      01000204H   LINE      CODE     ---       #507
      ---         BLOCKEND  ---      ---       LVL=0

      010004F9H   BLOCK     CODE     ---       LVL=0
      010004F9H   LINE      CODE     ---       #526
      010004FBH   LINE      CODE     ---       #527
      010004FDH   LINE      CODE     ---       #533
      01000500H   LINE      CODE     ---       #536
      01000502H   LINE      CODE     ---       #537
      01000503H   LINE      CODE     ---       #538
      01000504H   LINE      CODE     ---       #539
      01000506H   LINE      CODE     ---       #542
      01000508H   LINE      CODE     ---       #543
      0100050BH   LINE      CODE     ---       #544
      0100050DH   LINE      CODE     ---       #548
      0100050FH   LINE      CODE     ---       #552
      01000512H   LINE      CODE     ---       #555
      01000514H   LINE      CODE     ---       #558
      01000516H   LINE      CODE     ---       #561
      01000518H   LINE      CODE     ---       #564
      0100051AH   LINE      CODE     ---       #565
      0100051BH   LINE      CODE     ---       #566
      0100051CH   LINE      CODE     ---       #567
      0100051EH   LINE      CODE     ---       #568
      01000520H   LINE      CODE     ---       #569
      01000521H   LINE      CODE     ---       #570
      01000522H   LINE      CODE     ---       #571
      01000523H   LINE      CODE     ---       #572
      01000524H   LINE      CODE     ---       #573
      01000525H   LINE      CODE     ---       #574
      01000527H   LINE      CODE     ---       #575
      01000529H   LINE      CODE     ---       #580
LX51 LINKER/LOCATER V4.66.97.0                                                        10/13/2022  11:04:49  PAGE 28


      0100052CH   LINE      CODE     ---       #583
      0100052FH   LINE      CODE     ---       #586
      0100053DH   LINE      CODE     ---       #617
      01000540H   LINE      CODE     ---       #620
      01000543H   LINE      CODE     ---       #623
      01000545H   LINE      CODE     ---       #624
      01000547H   LINE      CODE     ---       #625
      01000549H   LINE      CODE     ---       #629
      0100054AH   LINE      CODE     ---       #647
      0100054CH   LINE      CODE     ---       #648
      0100054EH   LINE      CODE     ---       #653
      01000551H   LINE      CODE     ---       #656
      01000553H   LINE      CODE     ---       #657
      01000554H   LINE      CODE     ---       #658
      01000555H   LINE      CODE     ---       #659
      01000557H   LINE      CODE     ---       #662
      01000559H   LINE      CODE     ---       #663
      0100055CH   LINE      CODE     ---       #664
      0100055EH   LINE      CODE     ---       #668
      01000560H   LINE      CODE     ---       #672
      01000563H   LINE      CODE     ---       #676
      01000565H   LINE      CODE     ---       #679
      01000567H   LINE      CODE     ---       #682
      01000569H   LINE      CODE     ---       #683
      0100056AH   LINE      CODE     ---       #684
      0100056BH   LINE      CODE     ---       #685
      0100056DH   LINE      CODE     ---       #686
      0100056FH   LINE      CODE     ---       #687
      01000570H   LINE      CODE     ---       #688
      01000571H   LINE      CODE     ---       #689
      01000572H   LINE      CODE     ---       #690
      01000573H   LINE      CODE     ---       #691
      01000574H   LINE      CODE     ---       #692
      01000576H   LINE      CODE     ---       #693
      01000578H   LINE      CODE     ---       #698
      0100057BH   LINE      CODE     ---       #701
      0100057EH   LINE      CODE     ---       #704
      0100058CH   LINE      CODE     ---       #736
      0100058FH   LINE      CODE     ---       #739
      01000592H   LINE      CODE     ---       #742
      01000594H   LINE      CODE     ---       #743
      01000596H   LINE      CODE     ---       #744
      01000598H   LINE      CODE     ---       #747
      ---         BLOCKEND  ---      ---       LVL=0

      ---         MODULE    ---      ---       ?C?LMUL
      0100042FH   PUBLIC    CODE     ---       ?C?LMUL

      ---         MODULE    ---      ---       ?C?ULCMP
      0100047EH   PUBLIC    CODE     ---       ?C?ULCMP

      ---         MODULE    ---      ---       ?C?ULSHR
      0100048FH   PUBLIC    CODE     ---       ?C?ULSHR

Program Size: data=121.0 xdata=0 const=0 code=1650
LX51 RUN COMPLETE.  0 WARNING(S),  0 ERROR(S)
