:100000000200B60200C275C15575C255759155758D
:10001000925575A15575A25575B15575B20553C167
:10002000FD53C1FE43C30122438F40438F01538FD1
:100030007F7596BF7597F9438F80438F0843A90258
:01004000229D
:100043000200C9E4F509C2AF12000612002812002B
:10005300A0D2C1D2AF75CF07758655438702000082
:1000630075CF07AF08EF64017016F508750914C35F
:10007300E50994017480948040DEB282150980EF13
:10008300AF08EF640270D1F508750914C3E509944C
:10009300017480948040C1B283150980EF43AA8024
:1000A30043B52053AAFD43AA0143A80143B9015311
:1000B300BAFE22787FE4F6D8FD7581090200465323
:0A00C300ACDF750802327508013247
:00000001FF
