:060000000208EA020B9D5C
:03000B00020BAB3A
:03001300020BA13C
:03001B00020BAC29
:030023000209E5EA
:03002B00020BAD18
:03003300020BAE0F
:03003B00020BAF06
:03004300020BB0FD
:03004B00020BB1F4
:03005300020BB2EB
:03006300020BB3DA
:03006B00020BB4D1
:03007300020BB5C8
:03007B00020BB6BF
:03008300020BB7B6
:10010000E5082403F582E43400F583E00508229035
:100110000000300703900003E475F0011205EF02C0
:1001200005972000E97F2ED2008018EF540F24900D
:10013000D43440D4FF30040BEF24BFB41A00500372
:100140002461FFE50960021509050CE50C70020544
:100150000B30070E900000E475F0011205EFEF027E
:1001600005DD020B5F7403D2078003E4C207F508C4
:10017000900000120606E4F509F50BF50CE50960A0
:10018000077F2012014380F5750AFFC201C200C239
:1001900002C203C205C206C20812010FFF700D3071
:1001A00007057F00120154AF0CAE0B22B4255FC2CD
:1001B000D5C20412010FFF24D0B40A00501A75F002
:1001C0000A780930D50508B6FF0106C6A426F62030
:1001D000D5047002D20380D924CFB41A00EF5004A2
:1001E000C2E5D204020355D20180C6D20080C0D23B
:1001F0000280BCD2D580BAD20580B47F20120143E0
:100200002002077401B5090040F1120100FF12013C
:100210004302017DD208D2068095120100FB120133
:1002200000FA120100F94A4B700679267A047BFF26
:1002300020022EE509602A7E008E82758300120559
:10024000B060060EEE650A70F0C2D5EBC0E0EAC001
:10025000E0E9C0E0EE12039CD0E0F9D0E0FAD0E093
:10026000FB120597FF60AAEBC0E0EAC0E0E9C0E03E
:10027000120143D0E02401F9D0E03400FAD0E0FBD1
:10028000E50A0460DCD50AD980877BFF7A03799878
:10029000D202809C791080027908C206C2088008C8
:1002A000D2D5790A8004790AC2D5E50A047002F52C
:1002B0000AE4FAFDFEFF120100FC7B082001131284
:1002C0000100FD7B1030000A120100FE120100FF48
:1002D0007B20EC3382D592D55013C3E43000069FC7
:1002E000FFE49EFEE42001039DFDE49CFCE4CBF8CA
:1002F000C201EC700CCFCECDCCE824F8F870F380BE
:1003000017C3EF33FFEE33FEED33FDEC33FCEB337D
:10031000FB994002FB0FD8E9EB300105F8D0E0C4AF
:1003200048B201C0E00AEC4D4E4F78207B0070C20D
:10033000EAB50A0040BCC0E012039ED0F0D0E02035
:100340000104C4C0E0C4B201C0F012012CD0F0D549
:10035000F0EB02017D12060F021A5302945801EBD2
:100360004C01E74202984F02A04402A04902004318
:1003700002A655028A46028A45028A47044650016F
:10038000EF2D01F32E02162B01F723021420042F68
:100390002A01AF480000020E3F3F3F00790AA2D574
:1003A000200314300509B910020404B9080104A29D
:1003B000D52006025001042002689202B5090050BF
:1003C00034C0E07F203003197F30A202720672052C
:1003D000500F1203F5C202C206C205C2087F308068
:1003E0000F300503E9C0E0120143300503D0E0F906
:1003F000D0E0B509CC3005177F30B9100C1201439D
:100400007F583004077F788003B908031201433016
:1004100002057F2D0201437F202008F87F2B200654
:10042000F322920280CF286E756C6C2900D20112E3
:1004300001003001F8C201780930D50108F6020147
:10044000AF2D504349581201002403B40500400168
:10045000E490044193120134743A120134D20375CA
:10046000090402029475F008758200EF2FFFEE3345
:10047000FECD33CDCC33CCC58233C5829BED9AEC17
:1004800099E58298400CF582EE9BFEED9AFDEC9981
:10049000FC0FD5F0D6E4CEFBE4CDFAE4CCF9A8828B
:1004A00022B800C1B90059BA002DEC8BF084CFCE30
:1004B000CDFCE5F0CBF97818EF2FFFEE33FEED33EE
:1004C000FDEC33FCEB33FB10D703994004EB99FBB5
:1004D0000FD8E5E4F9FA227818EF2FFFEE33FEED9E
:1004E00033FDEC33FCC933C910D7059BE99A4007AB
:1004F000EC9BFCE99AF90FD8E0E4C9FAE4CCFB22C2
:1005000075F010EF2FFFEE33FEED33FDCC33CCC88A
:1005100033C810D7079BEC9AE899400AED9BFDEC95
:100520009AFCE899F80FD5F0DAE4CDFBE4CCFAE4D4
:10053000C8F922EB9FF5F0EA9E42F0E99D42F0EC0B
:100540006480C864809845F022EB9FF5F0EA9E42F3
:10055000F0E99D42F0E89C45F022ECF0A3EDF0A319
:10056000EEF0A3EFF022A8828583F0D083D0821230
:10057000057D12057D12057D12057DE473E493A3CC
:10058000C583C5F0C583C8C582C8F0A3C583C5F0BF
:10059000C583C8C582C822BB010689828A83E0223E
:1005A0005002E722BBFE02E32289828A83E493227F
:1005B000BB010CE58229F582E5833AF583E0225000
:1005C00006E92582F8E622BBFE06E92582F8E2224A
:1005D000E58229F582E5833AF583E49322BB01069F
:1005E00089828A83F0225002F722BBFE01F322F8AF
:1005F000E0FBA3A3E0F925F0F0E582158270021577
:1006000083E0FA38F022EBF0A3EAF0A3E9F022D07D
:1006100083D082F8E4937012740193700DA3A393B6
:10062000F8740193F5828883E4737402936860EF31
:10063000A3A3A380DF90000012055AE598542FFF72
:10064000900008E0FE4FFF90000AE04FF598EE7032
:100650003DFFFEFDFC900004E0F8A3E0F9A3E0FA02
:10066000A3E0FBC312054970045398DF22E47F0125
:10067000FEFDFC900004E0F8A3E0F9A3E0FAA3E09B
:10068000FBC3120549600302073E43982022E5C8D8
:1006900054CFFF900009E0FE4FF5C8EE704E900079
:1006A00004E0F8A3E0F9A3E0FAA3E0FB900000E087
:1006B000FCA3E0FDA3E0FEA3E0FF1204A1E4FB7AAB
:1006C00001F9F81204A18F8D900004E0F8A3E0F97D
:1006D000A3E0FAA3E0FB900000E0FCA3E0FDA3E0B0
:1006E000FEA3E0FF1204A18F8BC28E22900009E0CE
:1006F000B4304B900004E0F8A3E0F9A3E0FAA3E0E3
:10070000FB900000E0FCA3E0FDA3E0FEA3E0FF12ED
:1007100004A1E4FB7A01F9F81204A18FCB90000444
:10072000E0F8A3E0F9A3E0FAA3E0FB900000E0FC0E
:10073000A3E0FDA3E0FEA3E0FF1204A18FCA2212F2
:100740000B847BF07D007CFCE4FF120B057BFF7AC1
:1007500009798412016B120A3D90002B74FCF0A3FE
:10076000E4F090002BE0FEA3E0FFE4FCFD7B0A7ABE
:10077000FCF9F8D3120533500302080D90002BE06A
:10078000FEA3E0FFA3A3E0FD90000474F0F0E4FBFF
:10079000120A8590002BE0FEA3E0FFE4FD120B425D
:1007A0007E00900029EEF0A3EFF090002DE07003A2
:1007B000A3E06F60397BFF7A09799C12016B7BFFA4
:1007C0007A0979B890002BE0FFA3E0900003CFF006
:1007D000A3EFF012016B7BFF7A0979C3900029E047
:1007E000FFA3E0900003CFF0A3EFF012016B9000A5
:1007F0002CE004F0700690002BE004F090002EE056
:1008000004F0700690002DE004F0020762120A3D29
:100810007BFF7A0979CC12016B80FEEF7020EB70C0
:1008200006EDF4529A529BEBB40107EDF4529AEDA7
:10083000429BEB640260030208E9ED429A22EF64F6
:10084000017020EB7006EDF452915292EBB4010767
:10085000EDF45291ED4292EB640260030208E9ED7F
:10086000429122EF6402701DEB7006EDF452A1522A
:10087000A2EBB40107EDF452A1ED42A2EB640270C9
:1008800068ED42A122EF6403701DEB7006EDF45297
:10089000B152B2EBB40107EDF452B1ED42B2EB64E8
:1008A000027046ED42B122EF6404701DEB7006ED5C
:1008B000F452C152C2EBB40107EDF452C1ED42C291
:1008C000EB64027024ED42C122EF6405701BEB70F3
:1008D00006EDF452D952DAEBB40107EDF452D9ED3A
:1008E00042DAEBB40203ED42D92278FFE4F6D8FDF8
:1008F0009000007F007E01E4F0A3DFFCDEFA75814A
:100900002102093F02073FE493A3F8E493A34003C5
:10091000F68001F208DFF48029E493A3F854072459
:100920000CC8C333C4540F4420C8834004F4568019
:100930000146F6DFE4800B0102040810204080909D
:100940000B24E47E019360BCA3FF543F30E50954BF
:100950001FFEE493A360010ECF54C025E060A840C1
:10096000B8E493A3FAE493A3F8E493A3C8C582C8B8
:10097000CAC583CAF0A3C8C582C8CAC583CADFE98D
:10098000DEE780BE49415020524F4D205354415222
:10099000542D2D2D2D2D2D2D2D2D0A00494150206A
:1009A0004661696C21204572726F72206D657373A8
:1009B0006167652069730A004164726573733A2543
:1009C000750A00446174613A25640A004941502067
:1009D000524F4D20454E442D2D2D2D2D2D2D2D2D9D
:1009E0002D2D2D0A00C0E0C0F0C083C082C0D0759C
:1009F000D000C000C001C002C003C004C005C006D2
:100A0000C0077F02120B93EF60097F02120B98D28E
:100A10000A800F7F01120B93EF60077F01120B9882
:100A2000D209D007D006D005D004D003D002D0011F
:100A3000D000D0D0D082D083D0F0D0E032E490008B
:100A400031F0A3F0C390002CE0942090002BE094B0
:100A5000005031E490002FF0A3F0900030E004F05B
:100A6000700690002FE004F090002FE07004A3E0E7
:100A7000646470E690002CE004F070C890002BE0F5
:100A800004F080C022900000EEF0A3EFF0A2AFE4EB
:100A900033FC6002C2AFAF038FF4AF058FF5900057
:100AA00000E0FAA3E0FBEAF5F38BF2900004E0F536
:100AB000F175F61043F6020000000000000000E4AB
:100AC000F5F4AF04EC6002D2AF227B017D017F021E
:100AD00012081B7B017D027F0212081B900004128A
:100AE0000566000025809000087440F0E4A3F0A3A0
:100AF0007410F07F007E487DE87C01120635E4FD2D
:100B00007F01020B728FF4ECF5F3AF058FF2AF03A8
:100B10008FF175F62043F60200000000000000008F
:100B2000E4F5F42242002B000442002D00044200B0
:100B3000290000C10AC109420031000042002F0013
:100B40000000A2AFE433FC6002C2AF8DF48F828E4E
:100B500083E493FFE4F5F4AE04EC6002D2AF22909C
:100B60000028EFF0120BA5300AFDC20A900028E021
:100B7000FF22EF7004C2AC8002D2ACED7003C2BCA5
:100B800022D2BC22120BA9120BA8120ACA120BAA5B
:100B9000D2AF22E5985FFF22EFF45298225388FDEE
:100BA000325388F7328F9922222222323232323265
:080BB0003232323232323232AD
:00000001FF
