:06000000021C6A0227D970
:03000B000219C017
:030013000227DDE4
:03001B000227F7C2
:03002300021FB108
:03002B000211EED1
:030033000227F8A9
:03003B000227F9A0
:030043000227FA97
:03004B000227FB8E
:030053000227FC85
:030063000227FD74
:03006B000220056B
:03007300021E92D8
:03007B0002204B15
:030083000227FE53
:100100009000BA120B3F9000B7EBF0A3EAF0A3E91E
:10011000F0900004120B9600000000120B7C00000F
:1001200000009000B7E0FBA3E0FAA3E0F99000081C
:10013000120B9600000000E49000C6F0A3F09000BF
:10014000C6E0FAA3E0FBC39420EA648094804003F5
:1001500002078AE47F01FEFDFCA903A801120ABD83
:100160009000BAE0F8A3E0F9A3E0FAA3E05FFFEAA9
:100170005EFEE95DFDE85C4D4E4F7003020501E453
:100180007F01FEFDFC9000C6A3E0F9F8120ABD90C5
:100190000014E0F8A3E0F9A3E0FAA3E05FFFEA5E51
:1001A000FEE95DFDE85CFCC004C005C006C007E4D4
:1001B0007F01FEFDFC9000C6A3E0F9F8120ABD9095
:1001C00000BAE0F8A3E0F9A3E0FAA3E05FFBEA5E7F
:1001D000FAE95DF9E85CF8D007D006D005D004C391
:1001E000120A837003020305E47F01FEFDFC900008
:1001F000C6A3E0F9F8120ABD900018E0F8A3E0F9F0
:10020000A3E0FAA3E05FFFEA5EFEE95DFDE85CFCC7
:100210004D4E4F70030202A49000B7E0FBA3E0FA3A
:10022000A3E02404F9E43AFAC003C002C001120AB0
:10023000D0C004C005C006C007E47F01FEFDFC90ED
:1002400000C6A3E0F9F8120ABDA804A905AA06ABE6
:1002500007D007D006D005D004EF4BFFEE4AFEEDE5
:1002600049FDEC48FCD001D002D003120AF0900006
:1002700018E0F8A3E0F9A3E0FAA3E0FBC000C00196
:10028000E47F01FEFDFC9000C6A3E0F9F8120ABD70
:10029000120A76D001D000EB5FFFEA5EFEE95DFD59
:1002A000E85C8031900018E0F8A3E0F9A3E0FAA33D
:1002B000E0FBC000C001E47F01FEFDFC9000C6A38E
:1002C000E0F9F8120ABDD001D000EB4FFFEA4EFE74
:1002D000E94DFDE84CFC900018120B3F9000BEE089
:1002E000FCA3E0FDA3E0FEA3E0FFC004C005C00640
:1002F000C0079000C6E0FEA3E07802C333CE33CE41
:10030000D8F90204EA9000C6E0FEA3E07802C33305
:10031000CE33CED8F92420F58274003EF583E0F880
:10032000A3E0F9A3E0FAA3E0FB9000BEE0FCA3E0A9
:10033000FDA3E0FEA3E0C39BFFEE9AFEED99FDEC6A
:1003400098FCC004C005C006C0079000C6E0FEA32C
:10035000E07802C333CE33CED8F92420F58274007E
:100360003EF583E0F8A3E0F9A3E0FAA3E0FB9000F8
:10037000BEE0FCA3E0FDA3E0FEA3E0C39BFFEE9A7A
:10038000FEED99FDEC98FCD003D002D001D0001214
:100390000959C004C005C006C0079000C2E0FCA314
:1003A000E0FDA3E0FEA3E0FFA804A905AA06FB1256
:1003B0000959A804A905AA06AB07D007D006D0059D
:1003C000D004D3120A834003020779E47F01FEFDC3
:1003D000FC9000C6A3E0F9F8120ABD90001CE0F8FA
:1003E000A3E0F9A3E0FAA3E05FFFEA5EFEE95DFDAA
:1003F000E85CFC4D4E4F60030207799000B7E0FBCC
:10040000A3E0FAA3E02408F9E43AFAC003C002C06A
:1004100001120AD0C004C005C006C007E47F01FE77
:10042000FDFC9000C6A3E0F9F8120ABDA804A905D6
:10043000AA06AB07D007D006D005D004EF4BFFEEDD
:100440004AFEED49FDEC48FCD001D002D003120A6F
:10045000F090001CE0F8A3E0F9A3E0FAA3E0FBC0F1
:1004600000C001E47F01FEFDFC9000C6A3E0F9F8A6
:10047000120ABDD001D000EB4FFFEA4EFEE94DFD60
:10048000E84CFC90001C120B3F900018E0F8A3E031
:10049000F9A3E0FAA3E0FBC000C001E47F01FEFD88
:1004A000FC9000C6A3E0F9F8120ABD120A76D0014A
:1004B000D000EB5FFFEA5EFEE95DFDE85CFC9000CA
:1004C00018120B3F9000BEE0FCA3E0FDA3E0FEA3EA
:1004D000E0FFC004C005C006C0079000C6E0FEA350
:1004E000E07802C333CE33CED8F92420F5827400ED
:1004F0003EF583D007D006D005D004120B3F02078B
:100500007990001CE0F8A3E0F9A3E0FAA3E0FBC0B7
:1005100000C001E47F01FEFDFC9000C6A3E0F9F8F5
:10052000120ABD120A76D001D000EB5FFFEA5EFE30
:10053000E95DFDE85CFC90001C120B3FE47F01FECE
:10054000FDFC9000C6A3E0F9F8120ABD900018E087
:10055000F8A3E0F9A3E0FAA3E05FFFEA5EFEE95D3D
:10056000FDE85C4D4E4F6066E47F01FEFDFC9000AF
:10057000C6A3E0F9F8120ABD900014E0F8A3E0F970
:10058000A3E0FAA3E05FFFEA5EFEE95DFDE85C4DF3
:100590004E4F603A9000BEE0FCA3E0FDA3E0FEA356
:1005A000E0FFC004C005C006C0079000C6E0FEA37F
:1005B000E07802C333CE33CED8F92420F58274001C
:1005C0003EF583D007D006D005D004120B3FE47F60
:1005D00001FEFDFC9000C6A3E0F9F8120ABD9000F0
:1005E00018E0F8A3E0F9A3E0FAA3E05FFFEA5EFEFB
:1005F000E95DFDE85CFC4D4E4F7003020779900009
:10060000C6E0FEA3E07802C333CE33CED8F924206F
:10061000F58274003EF583E0F8A3E0F9A3E0FAA3C5
:10062000E0FB9000BEE0FCA3E0FDA3E0FEA3E0C37E
:100630009BFFEE9AFEED99FDEC98FCC004C005C04E
:1006400006C0079000C6E0FEA3E07802C333CE33B5
:10065000CED8F92420F58274003EF583E0F8A3E0BB
:10066000F9A3E0FAA3E0FB9000BEE0FCA3E0FDA349
:10067000E0FEA3E0C39BFFEE9AFEED99FDEC98FC33
:10068000D003D002D001D000120959C004C005C067
:1006900006C0079000C2E0FCA3E0FDA3E0FEA3E0DB
:1006A000FFA804A905AA06FB120959E47B80FAF900
:1006B000F8122090A804A905AA06AB07D007D00617
:1006C000D005D004D3120A8340030207799000C6F4
:1006D000E0FEA3E07802C333CE33CED8F92420F570
:1006E0008274003EF583120B4B000000009000184E
:1006F000E0F8A3E0F9A3E0FAA3E0FBC000C001E446
:100700007F01FEFDFC9000C6A3E0F9F8120ABD12BD
:100710000A76D001D000EB5FFFEA5EFEE95DFDE8FE
:100720005CFC900018120B3F9000B7E0FBA3E0FACE
:10073000A3E0F9C003C002C001120AD0C004C00582
:10074000C006C007E47F01FEFDFC9000C6A3E0F9EF
:10075000F8120ABDA804A905AA06AB07D007D0065F
:10076000D005D004EF4BFFEE4AFEED49FDEC48FC0E
:10077000D001D002D003120AF09000C7E004F0705C
:10078000069000C6E004F002013E9000BAE0FCA32F
:10079000E0FDA3E0FEA3E0FF900014020B3FE70999
:1007A000F608DFFA8046E709F208DFFA803E888221
:1007B0008C83E709F0A3DFFA8032E309F608DFFA59
:1007C0008078E309F208DFFA807088828C83E3097D
:1007D000F0A3DFFA806489828A83E0A3F608DFFA57
:1007E000805889828A83E0A3F208DFFA804C80D2A5
:1007F00080FA80C680D4806980F28033801080A621
:1008000080EA809A80A880DA80E280CA8033898278
:100810008A83ECFAE493A3C8C582C8CCC583CCF024
:10082000A3C8C582C8CCC583CCDFE9DEE7800D89CB
:10083000828A83E493A3F608DFF9ECFAA9F0EDFBD2
:100840002289828A83ECFAE0A3C8C582C8CCC5831A
:10085000CCF0A3C8C582C8CCC583CCDFEADEE88073
:10086000DB89828A83E493A3F208DFF980CC88F0E5
:10087000EF60010E4E60C388F0ED2402B404005016
:10088000B9F582EB2402B4040050AF232345822340
:100890009007EE73BB010689828A83E0225002E74B
:1008A00022BBFE02E32289828A83E49322BB0106F3
:1008B00089828A83F0225002F722BBFE01F322C212
:1008C000D5EC30E709B2D5E4C39DFDE49CFCEE30E5
:1008D000E715B2D5E4C39FFFE49EFE120BE7C3E425
:1008E0009DFDE49CFC8003120BE730D507C3E49F19
:1008F000FFE49EFE22C5F0F8A3E028F0C5F0F8E57D
:1009000082158270021583E038F022A3F8E0C5F06A
:1009100025F0F0E582158270021583E0C838F0E812
:1009200022BB0110E58229F582E5833AF583E0F5E3
:10093000F0A3E0225009E92582F886F008E622BB00
:10094000FE0AE92582F8E2F5F008E222E5832AF5BD
:1009500083E993F5F0A3E99322E88FF0A4CC8BF020
:10096000A42CFCE98EF0A42CFC8AF0EDA42CFCEA6B
:100970008EF0A4CDA8F08BF0A42DCC3825F0FDE9A5
:100980008FF0A42CCD35F0FCEB8EF0A4FEA9F0EB9B
:100990008FF0A4CFC5F02ECD39FEE43CFCEAA42DA7
:1009A000CE35F0FDE43CFC2275F008758200EF2F97
:1009B000FFEE33FECD33CDCC33CCC58233C5829B25
:1009C000ED9AEC99E58298400CF582EE9BFEED9A4B
:1009D000FDEC99FC0FD5F0D6E4CEFBE4CDFAE4CCE7
:1009E000F9A88222B800C1B90059BA002DEC8BF0E9
:1009F00084CFCECDFCE5F0CBF97818EF2FFFEE33A6
:100A0000FEED33FDEC33FCEB33FB10D703994004D0
:100A1000EB99FB0FD8E5E4F9FA227818EF2FFFEEF7
:100A200033FEED33FDEC33FCC933C910D7059BE928
:100A30009A4007EC9BFCE99AF90FD8E0E4C9FAE484
:100A4000CCFB2275F010EF2FFFEE33FEED33FDCC23
:100A500033CCC833C810D7079BEC9AE899400AED0D
:100A60009BFDEC9AFCE899F80FD5F0DAE4CDFBE4B5
:100A7000CCFAE4C8F922CFF4CFCEF4CECDF4CDCC6D
:100A8000F4CC22EB9FF5F0EA9E42F0E99D42F0ECB7
:100A90006480C864809845F022EB9FF5F0EA9E429E
:100AA000F0E99D42F0E89C45F022E8600FECC313AA
:100AB000FCED13FDEE13FEEF13FFD8F122E8600FFB
:100AC000EFC333FFEE33FEED33FDEC33FCD8F12200
:100AD000BB010789828A83020C485005E9F8020CA1
:100AE0003CBBFE05E9F8020C5489828A83020C6043
:100AF000BB010789828A83020B3F5005E9F8020C8B
:100B000070BBFE05E9F8020C7C227401FF3395E00E
:100B1000FEFDFCA3A3A3E0CF2FF0E58215827002B7
:100B20001583E0CE3EF0E582158270021583E0CD9C
:100B30003DF0E582158270021583E0CC3CF022EC9A
:100B4000F0A3EDF0A3EEF0A3EFF022A8828583F0EE
:100B5000D083D082120B62120B62120B62120B62F4
:100B6000E473E493A3C583C5F0C583C8C582C8F008
:100B7000A3C583C5F0C583C8C582C822BB01078948
:100B8000828A83020B4B5005E9F8020C88BBFE05F4
:100B9000E9F8020CA122BB010DE58229F582E5836B
:100BA0003AF583020B4B5007E92582F8020C88BB0B
:100BB000FE07E92582F8020CA122BB010CE582297F
:100BC000F582E5833AF583E0225006E92582F8E6CE
:100BD00022BBFE06E92582F8E222E58229F582E5BC
:100BE000833AF583E49322BC000BBE0029EF8DF01D
:100BF00084FFADF022E4CCF875F008EF2FFFEE3360
:100C0000FEEC33FCEE9DEC984005FCEE9DFE0FD50E
:100C1000F0E9E4CEFD22EDF8F5F0EE8420D21CFEE2
:100C2000ADF075F008EF2FFFED33FD40079850064B
:100C3000D5F0F222C398FD0FD5F0EA22E6FC08E6D3
:100C4000FD08E6FE08E6FF22E0FCA3E0FDA3E0FECF
:100C5000A3E0FF22E2FC08E2FD08E2FE08E2FF2238
:100C6000E493FC740193FD740293FE740393FF22DA
:100C7000ECF608EDF608EEF608EFF622ECF208EDD9
:100C8000F208EEF208EFF222D083D082E493F60865
:100C9000740193F608740293F608740393F67404CF
:100CA00073D083D082E493F208740193F208740243
:100CB00093F208740393F2740473F8E0FBA3A3E0C7
:100CC000F925F0F0E582158270021583E0FA38F01C
:100CD00022EBF0A3EAF0A3E9F022D083D082F8E47B
:100CE000937012740193700DA3A393F8740193F59C
:100CF000828883E4737402936860EFA3A3A380DF08
:100D0000E50824CBF582E43400F583E00508229061
:100D100000C83007039000CBE475F001120CBA0252
:100D200008942000E97F2ED2008018EF540F249001
:100D3000D43440D4FF30040BEF24BFB41A00500366
:100D40002461FFE50960021509050CE50C70020538
:100D50000B30070E9000C8E475F001120CBAEF02D8
:100D600008AD02255A7403D2078003E4C207F508D0
:100D70009000C8120CD1E4F509F50BF50CE50960FB
:100D8000077F20120D4380F5750AFFC201C200C221
:100D900002C203C205C206C208120D0FFF700D3059
:100DA00007057F00120D54AF0CAE0B22B4255FC2B5
:100DB000D5C204120D0FFF24D0B40A00501A75F0EA
:100DC0000A780930D50508B6FF0106C6A426F62024
:100DD000D5047002D20380D924CFB41A00EF500496
:100DE000C2E5D204020F55D20180C6D20080C0D223
:100DF0000280BCD2D580BAD20580B47F20120D43C8
:100E00002002077401B5090040F1120D00FF120D18
:100E100043020D7DD208D2068095120D00FB120D03
:100E200000FA120D00F94A4B700679267A107BFF02
:100E300020022EE509602A7E008E82758300120B47
:100E4000BA60060EEE650A70F0C2D5EBC0E0EAC0EB
:100E5000E0E9C0E0EE120F9CD0E0F9D0E0FAD0E07B
:100E6000FB120894FF60AAEBC0E0EAC0E0E9C0E032
:100E7000120D43D0E02401F9D0E03400FAD0E0FBB9
:100E8000E50A0460DCD50AD980877BFF7A0F799860
:100E9000D202809C791080027908C206C2088008BC
:100EA000D2D5790A8004790AC2D5E50A047002F520
:100EB0000AE4FAFDFEFF120D00FC7B08200113126C
:100EC0000D00FD7B1030000A120D00FE120D00FF18
:100ED0007B20EC3382D592D55013C3E43000069FBB
:100EE000FFE49EFEE42001039DFDE49CFCE4CBF8BE
:100EF000C201EC700CCFCECDCCE824F8F870F380B2
:100F000017C3EF33FFEE33FEED33FDEC33FCEB3371
:100F1000FB994002FB0FD8E9EB300105F8D0E0C4A3
:100F200048B201C0E00AEC4D4E4F78207B0070C201
:100F3000EAB50A0040BCC0E0120F9ED0F0D0E0201D
:100F40000104C4C0E0C4B201C0F0120D2CD0F0D531
:100F5000F0EB020D7D120CDA0E1A530E94580DEBC5
:100F60004C0DE7420E984F0EA0440EA0490E0043D0
:100F70000EA6550E8A460E8A450E8A471046500D1B
:100F8000EF2D0DF32E0E162B0DF7230E1420102F20
:100F90002A0DAF4800000E0E3F3F3F00790AA2D550
:100FA000200314300509B910020404B9080104A291
:100FB000D52006025001042002689202B5090050B3
:100FC00034C0E07F203003197F30A2027206720520
:100FD000500F120FF5C202C206C205C2087F308050
:100FE0000F300503E9C0E0120D43300503D0E0F9EE
:100FF000D0E0B509CC3005177F30B9100C120D4385
:101000007F583004077F788003B90803120D4330FE
:1010100002057F2D020D437F202008F87F2B20063C
:10102000F322920280CF286E756C6C2900D20112D7
:101030000D003001F8C201780930D50108F6020D23
:10104000AF2D50434958120D002403B40500400150
:10105000E490104193120D34743A120D34D203759A
:101060000904020E94E49000B2F0A3120B4B0000AE
:1010700000007D80E4FF122297EF70299000B312E8
:101080000B4B000027109000B374FF120B0CEC4DBB
:101090004E4F70F27D80E4FF122297EF700C9000AB
:1010A000B204F08005E49000B2F07B017A0079028E
:1010B0009000B2E0FF3395E0FEFDFCC004C005C027
:1010C00006C0079000A1E0FCA3E0FDA3E0FEA3E0C2
:1010D000FF9000BE120B3F9000C2120B4B00002786
:1010E00010D007D006D005D004120100900000E017
:1010F00070497F01FEFDFC900002E0F8A3E0F9A337
:10110000E0FAA3E0FBC3120A837030900001E00410
:10111000F0E0D3648094844002E4F0900001E09019
:1011200000BAF07B0AE4FDFF12226F9000A0740168
:10113000F09000A5120B4B00000000E47F01FEFDC3
:10114000FC90000AE0F8A3E0F9A3E0FAA3E0FBC3F7
:10115000120A8360030211DC900000E07F0070023D
:101160007F01900000EFF0705D1223CA900001E053
:1011700014601614601E1460201460272404702A62
:10118000E4FD7F061221B7802112249812247D12DB
:1011900023E980161226B280111226B2E4FF12252E
:1011A000AA8007E4FD7F401226EA7B017D80E4FFF0
:1011B000121D891223CA900001E09000BAF07B0A48
:1011C000E4FDFF12226F9000A07401F09000A512C0
:1011D0000B4B000000009000A0E070FA900000E0CF
:1011E000C43333335480FFA3E0547F4FFF22C0E069
:1011F000C0F0C083C082C0D075D000C000C001C0A4
:1012000002C003C004C005C006C0077F40122617F5
:10121000EF70030213327F401227B39000F8E070A2
:1012200002A3E070159000A5120B4B000000009087
:1012300000F8E4F0A304F0021332E47B0AFAF9F8B0
:101240009000A5E0FCA3E0FDA3E0FEA3E0FF1209EF
:10125000E4AC00AD01AE02AF03E47B05FAF9F8D3CC
:10126000120A999000A5E0FC5016A3E0FDA3E0FE51
:10127000A3E0240AFFE43EFEE43DFDE43CFC8009DB
:10128000A3E0FDA3E0FEA3E0FF9000A5120B3FE466
:101290007B107A27F9F89000A5E0FCA3E0FDA3E01D
:1012A000FEA3E0FF1209E4E47B0AFAF9F81209E46C
:1012B000AF03C007E47BE87A03F9F89000A5E0FCEF
:1012C000A3E0FDA3E0FEA3E0FF1209E4E47B0AFA39
:1012D000F9F81209E4AF03AD07C005E47B64FAF93D
:1012E000F89000A5E0FCA3E0FDA3E0FEA3E0FF1260
:1012F00009E4E47B0AFAF9F81209E4C003E47B0A82
:10130000FAF9F89000A5E0FCA3E0FDA3E0FEA3E05D
:10131000FF1209E4E47B0AFAF9F81209E49000BA32
:10132000EBF0D003D005D00712226F9000F8E4F064
:10133000A3F07F80122617EF60057F801227B3D0BD
:1013400007D006D005D004D003D002D001D000D001
:10135000D0D082D083D0F0D0E0329000B2120B3FD8
:10136000E598542FFF9000BAE0FE4FFF9000BCE0DC
:101370004FF598EE703DFFFEFDFC9000B6E0F8A33F
:10138000E0F9A3E0FAA3E0FBC3120A9970045398B2
:10139000DF22E47F01FEFDFC9000B6E0F8A3E0F957
:1013A000A3E0FAA3E0FBC3120A99600302146943A5
:1013B00098202275CE02E5C854CFFF9000BBE0FE16
:1013C0004FF5C8EE704E9000B6E0F8A3E0F9A3E048
:1013D000FAA3E0FB9000B2E0FCA3E0FDA3E0FEA3D3
:1013E000E0FF1209E4E4FB7A01F9F81209E48F8DB9
:1013F0009000B6E0F8A3E0F9A3E0FAA3E0FB9000C8
:10140000B2E0FCA3E0FDA3E0FEA3E0FF1209E48F3D
:101410008BC28E229000BBE06430704D9000B6E02D
:10142000F8A3E0F9A3E0FAA3E0FB9000B2E0FCA38C
:10143000E0FDA3E0FEA3E0FF1209E4E4FB7A01F97A
:10144000F81209E48FCB9000B6E0F8A3E0F9A3E02E
:10145000FAA3E0FB9000B2E0FCA3E0FDA3E0FEA352
:10146000E0FF1209E48FCAD2CA22E49000AEF0A3D2
:10147000F09000B1F01223689000A1120B4B000015
:101480000000C209E49000BAF07B0AFDFF12226F4F
:10149000E4FD7F061221B712249812247D1223E95D
:1014A000E4FD7F401226EA1226B21210659000AECB
:1014B000EFF0E0FF5480FE9000B1F0EF547F900019
:1014C000B0F0EE70030215689000AFE0706FA3E01B
:1014D00014601214602C14603114604B2404705D8D
:1014E0001222E080581226B21224081222BD1223C2
:1014F000CA7B027D047F01121D897B027D087F016A
:1015000080141223CA122115800F12218412211572
:101510007B027D40E4FF121D899000BA740AF0FB43
:10152000FDFF12226F80161223CA9000BA740AF0CF
:10153000FBFDFF12226F7D017F401226EA9000B072
:10154000E0146012146014146016146018240470FF
:10155000171227C380121221EA800D1227F5800886
:10156000121573800312182B9000B1E09000AFF0B9
:101570000214AAE49000B2F0A3F09000B2E0FEA33F
:10158000E0FFC3940AEE9400502F9000B2E0FCA359
:10159000E0FB24B4F58274003CF583EBF074BE2FBD
:1015A000F58274003EF583E4F09000B3E004F0703F
:1015B000C99000B2E004F080C1E47F107E27FDFCFA
:1015C0009000A5E0F8A3E0F9A3E0FAA3E0FBD312B2
:1015D0000A9950030216769000A5120B4B000000EA
:1015E000007F007E007D007C00121F037B017A00DB
:1015F00079B49000CFE4F0A3740AF07F007E007D00
:10160000007C001216777B017A0079BE9000CFE44F
:10161000F0A3740AF07F007E007D007C00121BCDD9
:101620007BFF7A2779FF120D6BE49000B2F0A3F0F4
:101630009000B2E0FEA3E0FFC3940AEE9400502DA8
:101640007BFF7A28792074BE2FF58274003EF583E3
:10165000E0FF9000CBE4F0A3EFF0120D6B9000B32D
:10166000E004F070CB9000B2E004F080C37BFF7A1E
:10167000287923120D6B229000C8EBF0A3EAF0A3A7
:10168000E9F0A3120B3F9000CBA3A3A3E0FFE4C3B8
:101690009FFF74019400FE9000D1F0A3EFF0900042
:1016A000CFE0FCA3E0FDD39FEC9E5006A3ECF0A39B
:1016B000EDF09000CBE0FCA3E0FDA3E0FEA3E0FF93
:1016C0009000D1E0FBA3E09000DACBF0A3EBF09028
:1016D00000C8E0FBA3E0FAA3E0F9121D049000CFDC
:1016E000E0FEA3E0FFA3E0B50606A3E0B5070122F4
:1016F0009000D1E0FEA3E0FF9000C9EE8FF0120849
:10170000F59000CBE0F8A3E0F9A3E0FAA3E0FBE456
:10171000FCFDEB2FFFEA3EFEED39FDEC38FC9000BE
:10172000CB120B3F9000D1E0FEA3E0FFC39000D0AE
:10173000E09FFF9000CFE09EFEF0A3EFF0D3940077
:10174000EE9401400AA37401F0A3E4F00216B290F3
:1017500000CFE0FFA3E0A3CFF0A3EFF00216B2E4C6
:101760009000B4F0A3F09000B8F0A3F0A37413F0CD
:10177000A37488F0E49000B2F0A3F01227E11227DE
:10178000C9EF60FA1227E51225189000B6EEF0A313
:10179000EFF0D39000B9E09F9000B8E09E500D901C
:1017A00000B6E0FFA3E0A3CFF0A3EFF09000BAE013
:1017B000FEA3E0FF9000B6E0FCA3E0FDD39FEC9E0B
:1017C00050089000BAECF0A3EDF09000B5E02DF0D9
:1017D0009000B4E03CF09000B3E004F0700690009C
:1017E000B2E004F0C39000B3E0940A9000B2E09439
:1017F0000040889000B8E0FEA3E0FFC39000B5E091
:101800009FFF9000B4E09EFE9000BAE0FCA3E0FDD4
:10181000C3EF9DFFEE9CFEEF7803CEC313CE13D82B
:10182000F9FF9000B6EEF0A3EFF02278B27C007DD5
:10183000017BFF7A28792B7E007F2E12086EE47FD1
:10184000F47E01FDFC9000A5E0F8A3E0F9A3E0FA26
:10185000A3E0FBD3120A9950030218F5900012E09E
:101860007002A3E0703D90000FE004F0700690005D
:101870000EE004F090000EE0FEA3E0FF24B2F5823B
:1018800074003EF583E0FD900011E02DF090001013
:10189000E03400F0EF642D4E7044900012F0A30489
:1018A000F0803B90000EE0FEA3E024B2F5827400CD
:1018B0003EF583E0FFC3900011E09FF0900010E040
:1018C0009400F090000FE024FFF090000EE034FF51
:1018D000F0E07002A3E07006900012F0A3F0900018
:1018E00010E0FCA3E0FD7F40121F5B9000A5120BEF
:1018F0004B00000000224100A000C1094400A100EB
:10190000000000C10A410001004200120000440032
:1019100014000000004400180000000044001C00F7
:1019200000000060800020000000000000000000B7
:1019300000000000000000000000000000000000A7
:101940000000000000000000000000000000000097
:101950000000000000000000000000000000000087
:101960000000000000000000000000000000000077
:101970000000000000000000000000000000000067
:101980000000000000000000000000000000000057
:101990000000000000000000000000000000000047
:1019A00000000000000000C109C10A4200F8000068
:1019B0004100F2004400F3000000004100F100008B
:1019C000C0E0C0F0C083C082C0D075D000C000C0ED
:1019D00001C002C003C004C005C006C0079000A536
:1019E000E0FCA3E0FDA3E0FEA3E02401FFE43EFE53
:1019F000E43DFDE43CFC9000A5120B3F9000A1E00B
:101A0000FCA3E0FDA3E0FEA3E0FFE4FAF9F8EF2475
:101A100001FFEA3EFEE93DFDE83CFC9000A1120B0F
:101A20003F9000A0E0B4012CE47FE87E03FDFC9031
:101A300000A5E0F8A3E0F9A3E0FAA3E0FBD3120AC3
:101A400099400F9000A0E4F09000A5120B4B00000D
:101A50000000B2A77FFA7EFE1227BBD007D006D0C7
:101A600005D004D003D002D001D000D0D0D082D095
:101A700083D0F0D0E032AD07AC06E4FBFAEB25E012
:101A8000FFEA33FE74592FF58274283EF583D37430
:101A900001939DE4939C5025EB25E0FFEA33FE740F
:101AA0005B2FF58274283EF583D37401939DE493F4
:101AB0009C400A9000B2EAF0A3EBF0800B0BBB0055
:101AC000010AEB64644A70B59000B2E0FEA3E0FF47
:101AD000C3940FEE64809480500DC3740F9FF0E4A4
:101AE0009E9000B2F0800E9000B3E024F1F09000E0
:101AF000B2E034FFF09000B2E0FEA3E0FF7C007D96
:101B00000A1208BFAB079000B2E0FEA3E0FF7C0022
:101B10007D0A1208BFAF05AD03AB079000BA740C85
:101B2000F07F1002226F9000F7E004F09000F1E0E7
:101B3000700504F0121E0E9000F7E0C394045003E9
:101B4000021BCCE4F09000F2E0FF25E02431F582A6
:101B5000E43429F5837401937003E493F46030D284
:101B6000A4D2A5D294D29574F32FF582E43400F573
:101B700083E0FF1223899000F2E025E02431F58212
:101B8000E43429F583E493FE740193FF122670E494
:101B9000FF0F9000F2E004F0E0C394044002E4F090
:101BA0009000F2E0FE25E02431F582E43429F5834B
:101BB000740193B4000BE493B4FF06EFD394044094
:101BC000D0EEC394044005E49000F2F0229000C8E7
:101BD000EBF0A3EAF0A3E9F0A3120B3F1226DDEF2E
:101BE00020E0F912276BC2867F031224C49000CB39
:101BF000E0FCA3E0FDA3E0FEA3E0FF7810120AAA38
:101C00001224C49000CBE0FCA3E0FDA3E0FEA3E01F
:101C1000FF7808120AAA1224C49000CBA3A3A3E061
:101C2000FF1224C4E49000D1F0A3F09000CFE0FEB6
:101C3000A3E0FFC39000D2E09F9000D1E09E502728
:101C40001227899000C8E0FBA3E475F00112090B8C
:101C5000A9F0FAEF1208AD9000D2E004F070CC9039
:101C600000D1E004F080C4D2862278FFE4F6D8FDEB
:101C70009000007F007E01E4F0A3DFFCDEFA7581B6
:101C80000C021CBF02146AE493A3F8E493A340037C
:101C9000F68001F208DFF48029E493A3F8540724C6
:101CA0000CC8C333C4540F4420C8834004F4568086
:101CB0000146F6DFE4800B0102040810204080900A
:101CC00018F6E47E019360BCA3FF543F30E509544D
:101CD0001FFEE493A360010ECF54C025E060A8402E
:101CE000B8E493A3FAE493A3F8E493A3C8C582C825
:101CF000CAC583CAF0A3C8C582C8CAC583CADFE9FA
:101D0000DEE780BE9000D3EBF0A3EAF0A3E9F0A3F6
:101D1000120B3F12276B1226DDEF20E0F912276B22
:101D2000C2867F021224C478101224B378081224C9
:101D3000B39000D6A3A3A3E0FF1224C4E49000DC78
:101D4000F0A3F09000DAE0FEA3E0FFC39000DDE036
:101D50009F9000DCE09E50279000D3E0FBA3E47549
:101D6000F00112090BA9F0FA120894FF1224C49092
:101D700000DDE004F070CC9000DCE004F080C4D220
:101D8000861226DDEF20E0F922EF701DEB7006EDE4
:101D9000F4529A529BEBB40107EDF4529AED429B38
:101DA000EB64027068ED429A22EF6401701DEB70E3
:101DB00006EDF452915292EBB40107EDF45291ED1D
:101DC0004292EB64027046ED429122EF6402701D74
:101DD000EB7006EDF452A152A2EBB40107EDF45200
:101DE000A1ED42A2EB64027024ED42A122EF640552
:101DF000701BEB7006EDF452D952DAEBB40107ED2B
:101E0000F452D9ED42DAEBB40203ED42D922E49068
:101E100000ADF09000ADE0FFC394085026EF25E040
:101E20002421F582E43429F583E493FE740193FFC1
:101E30007002EEF460057D021224CD9000ADE00446
:101E4000F080D0E49000ADF09000ADE0FFC39404CA
:101E5000503FEF25E02431F582E43429F583E49303
:101E6000FE740193FF7002EEF4601E7D021224CD19
:101E70009000ADE025E02431F582E43429F583E4D7
:101E800093FE740193FF12265F9000ADE004F08092
:101E9000B722C0E0C0F0C083C082C0D075D000C0FF
:101EA00000C001C002C003C004C005C006C0077F57
:101EB000801225E1EF60057F801227A37D047F015A
:101EC000122297EF7D047F0160051223AA8003127E
:101ED00024467D087F01122297EF7D087F0160056F
:101EE0001223AA8003122446D007D006D005D004BE
:101EF000D003D002D001D000D0D0D082D083D0F097
:101F0000D0E0329000C8120B3F1226DDEF20E0F93E
:101F100012276BC2867F201224C49000C8E0FCA365
:101F2000E0FDA3E0FEA3E0FF7810120AAA1224C489
:101F30009000C8E0FCA3E0FDA3E0FEA3E0FF78086A
:101F4000120AAA1224C49000C8A3A3A3E0FF12247B
:101F5000C4D2861226DDEF20E0F92253D2FDEF2411
:101F6000FE602124FE602224FC602324F8602424E7
:101F7000F0602524E0602624C0602B247F7031901F
:101F80001040801C901042801790104480129010D6
:101F900046800D901048800890104A800390104CA5
:101FA000ECF0A3EDF022AF0590104EECF0A3EFF0B3
:101FB00022C0E0C0F0C083C082C0D075D000C00095
:101FC000C001C002C003C004C005C006C0077F0234
:101FD0001227CFEF60097F021227D4D20A800B7F2D
:101FE000011227D41227EC1227E9D007D006D0051A
:101FF000D004D003D002D001D000D0D0D082D08382
:10200000D0F0D0E032C0E0C0F0C083C082C0D07554
:10201000D000C000C001C002C003C004C005C0069B
:10202000C0071226C1EF60057F801227AB121B2666
:10203000D007D006D005D004D003D002D001D00004
:10204000D0D0D082D083D0F0D0E032C0E0C0F0C099
:1020500083C082C0D075D000C000C001C002C003E0
:10206000C004C005C006C0077F80122246EF60058D
:1020700053A57FD209D007D006D005D004D003D015
:1020800002D001D000D0D0D082D083D0F0D0E032C6
:10209000C2D5E830E70FB2D5E4C39BFBE49AFAE47B
:1020A00099F9E498F8EC30E717B2D51220C6120976
:1020B000E4E4C39BFBE49AFAE499F9E498F880031A
:1020C0001209E430D50DE4C39FFFE49EFEE49DFDBC
:1020D000E49CFC229000B7ECF0A3EDF0EF14601547
:1020E00014601D1460232403702A9000B7E0FEA33F
:1020F000E0FF0226299000B7E0FEA3E0FF0226CF12
:102100009000B7A3E0FF0227609000B7A3E0FFAD07
:102110000312277F227B017D047F01121D897B0131
:102120007D087F01121D899000B6120B4B0000251F
:10213000809000BA7440F0E4A3F0A37410F07F0024
:102140007E487DE87C0112135AE4FD7F0102264D92
:102150007D9F7C007F30122597E4FD7FFF1226F7DC
:10216000E4FDFF12252EE4FF1226A3E4FF12274A06
:10217000E4FBFD7F201227757D01E4FF1226EA7F34
:102180000102273F7B017D08E4FF121D897B017D51
:1021900004E4FF121D89E49000B5F0A3F0A304F05D
:1021A000E4A3F07B207D03FF12221BE4FD7F0112DC
:1021B00025447F010225AAAC07E5AD54E04CF5ADFE
:1021C00074017E00A804088005C333CE33CED8F94D
:1021D000FFECC3941F5012ED7009EFF452ABEEF414
:1021E00052AC22EF42ABEE42AC22E47F107E27FDE0
:1021F000FC9000A5E0F8A3E0F9A3E0FAA3E0FBD38C
:10220000120A994015E49000BAF0FBFDFF12226F0C
:102210009000A5120B4B0000000022E49000B7F0E4
:10222000E58F543F4440F58FE5A554FA4FFFA3E0F6
:102230004FF5A5E5A454804D4BFF9000B5E04FFF4E
:10224000A3E04FF5A422EF64806009EF64506004BE
:10225000EFB4080DE5A55F60047E01800FE4FE8009
:102260000BE5A45F60047E018002E4FEAF0622EF6E
:10227000902939939000F3F0ED902939939000F470
:10228000F0EB902939939000F5F09000BAE0902996
:1022900039939000F6F022EF7005E5805DFF22EFA4
:1022A000B40105E5905DFF22EFB40205E5A05DFFF6
:1022B00022EFB40505E5D85DFF227F0022E4FD7F13
:1022C00001122346E4FF122605E4FFFE1227557F84
:1022D0000112271CE4FD7F0112256F7F01022728D0
:1022E000E4FD7F1012279B7D017F407E0012258434
:1022F0007D017F061221B7E4FDFF1225BD7F01029B
:10230000273475CE04EFB4010553C8FD8007EFB440
:10231000020343C802ED700453C9FE22EDB410035A
:1023200043C9012275CE03EFB4010553C8FD8007F0
:10233000EFB4020343C802ED700453C9FE22EDB4AA
:10234000100343C9012275CE02EFB4010553C8FD45
:102350008007EFB4020343C802ED700453C9FE22A4
:10236000EDB4100343C901221224621227F6122190
:10237000841221151223CA1222BD1223E912240845
:102380001221501222E0D2AF22EF1392A3EFA2E16A
:1023900092A1A2E29296A2E39281A2E49280A2E5A7
:1023A00092A2A2E692A033928522EF7004EDF4523D
:1023B00080EFB40104EDF45290EFB40204EDF45256
:1023C000A0EFB40504EDF452D8227D01E4FF1224FD
:1023D00027E4FBFA7DF67CFE7F011220D47D017F8D
:1023E0000112263B7F01022792E4FD7F0112232484
:1023F000E4FF1225F37F967EF51226927D017F0180
:102400001224FF7F01022710E4FD7F01122302E462
:10241000FF1225CF7FD67E971226817D017F011284
:1024200024E67F01022704EF7005538EFE8007EF3C
:10243000B40103438E01EDB401045389FB22EDB4D2
:10244000020343890422EF7003ED4280EFB40103DD
:10245000ED4290EFB40203ED42A0EFB40503ED426C
:10246000D8227B027D807F02121D897B027D407F06
:1024700002121D897B017D80E4FF021D8975CE0457
:10248000E4F5C8F5C9F5CBF5CAF5CDF5CC53A93FB0
:1024900053B93FC2ADC2BD2275CE02E4F5C8F5C93D
:1024A000F5CBF5CAF5CDF5CC53A93F53B93FC2AD35
:1024B000C2BD229000D6E0FCA3E0FDA3E0FEA3E0B5
:1024C000FF120AAA1227EF3009FDC20922AB07AAA0
:1024D00006A905EB7002EAF4600BEAFFAD03AE015A
:1024E000AB06121D892275CE04EF700553A97F80BB
:1024F0000343A980ED700453B97F2243B98022754C
:10250000CE03EF700553A9BF800343A940ED7004CB
:1025100053B9BF2243B94022AFAFEF75F010A4FF0B
:10252000E5AEC4540F7C002FFFEC35F0FE22EF60C7
:102530000543A902800353A9FDED700453B9FD22A0
:1025400043B90222EF600543AA01800353AAFEEDBE
:10255000600443BA012253BAFE229000F0EFF0C2A9
:102560000A1227E9300AFDC20A9000F0E0FF227546
:10257000CE02EF7004C2AD8002D2ADED7003C2BDD9
:1025800022D2BD22ED7009EFF452ABEEF452AC2230
:10259000EF42ABEE42AC22ED1D70011C53D2CFEFE7
:1025A00042D28DD4AE04EEF5D522E58F543F44409F
:1025B000F58FEF600443A4802253A47F22EF7004C0
:1025C000C2AE8002D2AEED7003C2BE22D2BE227570
:1025D000CE04EF700453C97F22EFB4010343C980D6
:1025E00022E4FE75CE04E5C85F60030E8002E4FEBF
:1025F000AF062275CE03EF700453C97F22EFB401FA
:102600000343C9802275CE02EF700453C97F22EFC5
:10261000B4010343C98022E4FE75CE02E5C85F60C1
:10262000030E8002E4FEAF06225389FC8F8AEF7806
:1026300005CEC313CE13D8F9F58C22EF7004C2A9CE
:102640008002D2A9ED7003C2B922D2B922EF700480
:10265000C2AC8002D2ACED7003C2BC22D2BC22ADAF
:1026600007AC06ED7002ECF46005ECFF1224462284
:10267000AD07AC06ED7002ECF46005ECFF1223AA86
:102680002275CE04AD078DCAEEF5CB85CACC85CBBD
:10269000CD2275CE03AD078DCAEEF5CB85CACC85AC
:1026A000CBCD22EF700453D2FE22EFB4010343D20C
:1026B0000122E4F598F59953877F53A8EF53B8EFBB
:1026C00022E4FF75CE0330CF030F8002E4FF2253D4
:1026D00089FC438901AD078D8AEEF58C22C2867F85
:1026E000051224C4122789D28622EDB40104EF42D8
:1026F000D322EFF452D322EDB40104EF42D122EF02
:10270000F452D12275CE04EF7003C2CA22D2CA227B
:1027100075CE03EF7003C2CA22D2CA2275CE02EF71
:102720007003C2CB22D2CB2275CE02EF7003C2CA95
:1027300022D2CA22EF700453AD7F2243AD8022EF34
:10274000600443D2802253D27F22EF600443D780BB
:102750002253D77F2275CE02AD078DCCEEF5CD2268
:102760005389FC4389028F8A8F8C22C2867F06128E
:1027700024C4D28622E5D754C04F4D4BF5D722430F
:1027800089038F8AAF058F8C22E4FF1224C412279D
:10279000F222EF7003C28C22D28C229000B2EDF0B4
:1027A0008FB52275CE04EFF452C82275CE03EFF434
:1027B00052C82275CE02EFF452C822AD078D8AEEC0
:1027C000F58C2212175F021A76E5AD5420FF22E540
:1027D000985FFF22EFF45298225388FD325388F716
:1027E0003243AD402253ADDF228F9922AF99228F21
:1027F000A622AFA622222232323232323232320DB9
:102800000A0D0A0D0A0D0A205265635F44415441C6
:102810005B31305D2076616C7565203D200A7B0060
:102820002564007D0D0A0D0A0D0A00010101010158
:102830000101010101010101010101010101010188
:102840000202020202020202020202020202030366
:1028500003030303030303030300F8010601150147
:1028600025013601470159016C0180019401A9013C
:10287000BF01D601EE0206021F023A0255027002A3
:102880008D02AB02C902E803080329034A036D0362
:102890009003B403D803FE0424044A047104990489
:1028A000C104EA0513053D0567059105BC05E7066A
:1028B00012063E0669069506C106EC07180744078E
:1028C0006F079A07C607F1081B0845086F089908A3
:1028D000C308EB0914093C0963098A09B109D7093E
:1028E000FC0A210A450A680A8B0AAE0ACF0AF00BD5
:1028F000110B300B4F0B6E0B8C0BA90BC50BE10BA7
:10290000FD0C170C310C4B0C640C7B0C930CAA0CBB
:10291000C10CD60CEC0D000D140D280D3C0D4E0D08
:1029200060020802020140000200010204020100EC
:102930002002100220011001203F065B4F666D7DD2
:04294000077F6F405E
:00000001FF
