:060000000201000203F002
:03000B0002021FCF
:030013000203F4F1
:03001B000203F9E4
:030023000203FADB
:03002B000203FBD2
:030033000203FCC9
:03003B000203FDC0
:030043000203FEB7
:03004B000203FFAE
:03005300020400A4
:0300630002040193
:03006B000204028A
:0300730002040381
:03007B0002040478
:030083000204056F
:1001000078FFE4F6D8FD9000007F007E01E4F0A3C4
:10011000DFFCDEFA7581070201550203EBE493A3CD
:10012000F8E493A34003F68001F208DFF48029E4A9
:1001300093A3F85407240CC8C333C4540F4420C8F5
:10014000834004F456800146F6DFE4800B0102048C
:1001500008102040809003E5E47E019360BCA3FF7B
:10016000543F30E509541FFEE493A360010ECF54C1
:10017000C025E060A840B8E493A3FAE493A3F8E4B0
:1001800093A3C8C582C8CAC583CAF0A3C8C582C81C
:10019000CAC583CADFE9DEE780BEEF701DEB7006DB
:1001A000EDF4529A529BEBB40107EDF4529AED42F2
:1001B0009BEB64027068ED429A22EF6401701DEBC4
:1001C0007006EDF452915292EBB40107EDF45291A6
:1001D000ED4292EB64027046ED429122EF640270B0
:1001E0001DEB7006EDF452A152A2EBB40107EDF441
:1001F00052A1ED42A2EB64027024ED42A122EF6411
:1002000005701BEB7006EDF452D952DAEBB401071E
:10021000EDF452D9ED42DAEBB40203ED42D922C03B
:10022000E0C0F0C083C082C0D075D000C000C00163
:10023000C002C003C004C005C006C007900001E0B2
:1002400004F07006900000E004F0C3900001E09418
:1002500058900000E064809482401AE4F0A3F07D9E
:10026000407F021202D8EF7D407F0260051202FE3D
:10027000800312035C7F967EF51203DDD007D00663
:10028000D005D004D003D002D001D000D0D0D0828D
:10029000D083D0F0D0E032900002ECF0A3EDF0EF8C
:1002A00014601514601D1460232403702A9000024A
:1002B000E0FEA3E0FF020378900002E0FEA3E0FF6F
:1002C00002039C900002A3E0FF0203B6900002A389
:1002D000E0FFAD031203C122EF7005E5805DFF2250
:1002E000EFB40105E5905DFF22EFB40205E5A05DE6
:1002F000FF22EFB40505E5D85DFF227F0022EF70F5
:1003000004EDF45280EFB40104EDF45290EFB40226
:1003100004EDF452A0EFB40504EDF452D822EF70CE
:1003200005538EFE8007EFB40103438E01EDB40147
:10033000045389FB22EDB40203438904227D01E4C6
:10034000FF12031EE4FBFA7D967CF57F01120297F3
:10035000E4FD7F0112038A7F010203CBEF7003EDFE
:100360004280EFB40103ED4290EFB40203ED42A0EE
:10037000EFB40503ED42D8225389FC8F8AEF78054C
:10038000CEC313CE13D8F9F58C22EF7004C2A98026
:1003900002D2A9ED7003C2B922D2B9225389FC431B
:1003A0008901AD078D8AEEF58C221203D41203F871
:1003B00012033DD2AF225389FC4389028F8A8F8C6E
:1003C000224389038F8AAF058F8C22EF7003C28C82
:1003D00022D28C227B027D407F0202019AAD078DE2
:1003E0008AEEF58C224200000000001203AA80FE73
:1003F0005388FD325388F73222323232323232326F
:06040000323232323232CA
:00000001FF
