C51 COMPILER V9.59.0.0   MAIN                                                              03/03/2022 09:08:45 PAGE 1   


C51 COMPILER V9.59.0.0, COMPILATION OF MODULE MAIN
OBJECT MODULE PLACED IN .\Objects\main.obj
COMPILER INVOKED BY: C:\Keil_v5\C51\BIN\C51.EXE main.c OPTIMIZE(8,SPEED) BROWSE DEBUG OBJECTEXTEND PRINT(.\Listings\main
                    -.lst) TABS(2) OBJECT(.\Objects\main.obj)

line level    source

   1          /*
   2          标题：PWM呼吸灯
   3          主频：35MHz
   4          用于：51单片机学习机-学电
   5          版权：学电科技 
   6          官网：https://xuedian.tech
   7          */
   8          
   9          #include "stc8g.h"
  10          #include "intrins.h"
  11          
  12          /* 寄存器定义 */
  13          #define     PWM0C      (*(unsigned int volatile xdata *)0xFF00)
  14          #define     PWM05T1    (*(unsigned int volatile xdata *)0xFF38)
  15          #define     PWM05T2    (*(unsigned int volatile xdata *)0xFF3A)
  16          
  17          /* PWM周期 */
  18          #define CYCLE 0x1000
  19          
  20          /* PWM中断处理函数 */
  21          void PWM_Isr() interrupt 22
  22          {
  23   1        static bit dir = 1;
  24   1        static int val = 0;
  25   1      
  26   1        if(PWMCFG01 & 0x08) 
  27   1        {
  28   2          PWMCFG01 &= ~0x08;     //清中断标志
  29   2          if(dir)
  30   2          {
  31   3            val++;
  32   3            if(val >= CYCLE) dir = 0;
  33   3          }
  34   2          else
  35   2          {
  36   3            val--;
  37   3            if(val <= 1) dir = 1;
  38   3          }
  39   2          PWM05T2 = val;
  40   2        }
  41   1      }
  42          
  43          /* 主函数 */
  44          void main()
  45          {
  46   1        P0M0 = 0x00;   //设置P0.0~P0.7为双向口模式
  47   1        P0M1 = 0x00;
  48   1        
  49   1        /* PWM初始化设置 */
  50   1        P_SW2 |= 0x80; // 最高位EAXFR置1 允许访问XFR寄存器
  51   1        PWM0CKS = 0X00; // 选择PWM0的时钟为系统时钟
  52   1        PWMSET |= 0X01; // 使能PWM0模块
  53   1        PWM05CR = 0X80; // ENO=1把P0.5引脚设置为PWM引脚   INI=0初始电平是低电平
  54   1        PWM0C = CYCLE; // 写入周期值
C51 COMPILER V9.59.0.0   MAIN                                                              03/03/2022 09:08:45 PAGE 2   

  55   1        PWM05T1 = 0X0000; // 遇到这个值输出低电平
  56   1        PWM05T2 = 0X0001; // 遇到这个值输出高电平
  57   1        PWMCFG01 = 0X05; // PWM0CEN=1开启PWM定时器开始计数 
  58   1        
  59   1        EA = 1; // 打开总中断
  60   1        
  61   1        while(1)
  62   1        {
  63   2      
  64   2        }
  65   1      }
  66          
  67          
  68          
  69          
  70          
  71          
  72          
  73          
  74          
  75          


MODULE INFORMATION:   STATIC OVERLAYABLE
   CODE SIZE        =    130    ----
   CONSTANT SIZE    =   ----    ----
   XDATA SIZE       =   ----    ----
   PDATA SIZE       =   ----    ----
   DATA SIZE        =      2    ----
   IDATA SIZE       =   ----    ----
   BIT SIZE         =      1    ----
END OF MODULE INFORMATION.


C51 COMPILATION COMPLETE.  0 WARNING(S),  0 ERROR(S)
