BL51 BANKED LINKER/LOCATER V6.22.2.0                                                    03/03/2022  09:21:15  PAGE 1


BL51 BANKED LINKER/LOCATER V6.22.2.0, INVOKED BY:
C:\KEIL_V5\C51\BIN\BL51.EXE .\Objects\STARTUP.obj, .\Objects\main.obj, .\Objects\delay.obj, .\Objects\st7789.obj, .\Obje
>> cts\gd25q64.obj, .\Objects\uart.obj TO .\Objects\Pic PRINT (.\Listings\Pic.m51) RAMSIZE (256)


MEMORY MODEL: SMALL


INPUT MODULES INCLUDED:
  .\Objects\STARTUP.obj (?C_STARTUP)
  .\Objects\main.obj (MAIN)
  .\Objects\delay.obj (DELAY)
  .\Objects\st7789.obj (ST7789)
  .\Objects\gd25q64.obj (GD25Q64)
  .\Objects\uart.obj (UART)
  C:\KEIL_V5\C51\LIB\C51S.LIB (?C_INIT)
  C:\KEIL_V5\C51\LIB\C51S.LIB (?C?CLDOPTR)
  C:\KEIL_V5\C51\LIB\C51S.LIB (?C?CSTOPTR)
  C:\KEIL_V5\C51\LIB\C51S.LIB (?C?IMUL)
  C:\KEIL_V5\C51\LIB\C51S.LIB (?C?LMUL)
  C:\KEIL_V5\C51\LIB\C51S.LIB (?C?ULSHR)


LINK MAP OF MODULE:  .\Objects\Pic (?C_STARTUP)


            TYPE    BASE      LENGTH    RELOCATION   SEGMENT NAME
            -----------------------------------------------------

            * * * * * * *   D A T A   M E M O R Y   * * * * * * *
            REG     0000H     0008H     ABSOLUTE     "REG BANK 0"
            DATA    0008H     001CH     UNIT         _DATA_GROUP_
            DATA    0024H     0005H     UNIT         ?DT?MAIN
            DATA    0029H     0004H     UNIT         ?DT?ST7789
            IDATA   002DH     0001H     UNIT         ?STACK

            * * * * * * *  X D A T A   M E M O R Y  * * * * * * *
            XDATA   0000H     0200H     UNIT         _XDATA_GROUP_

            * * * * * * *   C O D E   M E M O R Y   * * * * * * *
            CODE    0000H     0003H     ABSOLUTE     
            CODE    0003H     001AH     UNIT         ?PR?IO_INIT?MAIN
                    001DH     0006H                  *** GAP ***
            CODE    0023H     0003H     ABSOLUTE     
            CODE    0026H     00EEH     UNIT         ?PR?LCD_INIT?ST7789
            CODE    0114H     00C4H     UNIT         ?PR?_LCD_SHOWPICTURE?ST7789
            CODE    01D8H     00C3H     UNIT         ?C?LIB_CODE
            CODE    029BH     009FH     UNIT         ?PR?MAIN?MAIN
            CODE    033AH     008CH     UNIT         ?C_C51STARTUP
            CODE    03C6H     0073H     UNIT         ?PR?UART1_ISR?MAIN
            CODE    0439H     0066H     UNIT         ?PR?_GD25Q64_WRITE_PAGE?GD25Q64
            CODE    049FH     0063H     UNIT         ?PR?_GD25Q64_READ?GD25Q64
            CODE    0502H     0041H     UNIT         ?PR?_LCD_CLEAR?ST7789
            CODE    0543H     003AH     UNIT         ?PR?_LCD_SETAREA?ST7789
            CODE    057DH     003AH     UNIT         ?PR?_GD25Q64_ERASE_BLOCK?GD25Q64
            CODE    05B7H     002FH     UNIT         ?PR?_LCD_WR_DATA?ST7789
            CODE    05E6H     0018H     UNIT         ?PR?_SPI_RW?GD25Q64
            CODE    05FEH     0017H     UNIT         ?PR?_LCDWIRTECOLORDATA?ST7789
BL51 BANKED LINKER/LOCATER V6.22.2.0                                                  03/03/2022  09:21:15  PAGE 2


            CODE    0615H     0015H     UNIT         ?PR?UARTINIT?UART
            CODE    062AH     0014H     UNIT         ?PR?_DELAY_MS?DELAY
            CODE    063EH     000FH     UNIT         ?C_INITSEG
            CODE    064DH     000FH     UNIT         ?PR?GD25Q64_READSR?GD25Q64
            CODE    065CH     000DH     UNIT         ?PR?_LCD_WR_REG?ST7789
            CODE    0669H     000DH     UNIT         ?PR?SPI_INIT?GD25Q64
            CODE    0676H     000BH     UNIT         ?PR?DELAY1MS?DELAY
            CODE    0681H     000AH     UNIT         ?PR?GD25Q64_WRITE_ENABLE?GD25Q64
            CODE    068BH     0008H     UNIT         ?PR?GD25Q64_WAIT_BUSY?GD25Q64



OVERLAY MAP OF MODULE:   .\Objects\Pic (?C_STARTUP)


SEGMENT                                    DATA_GROUP          XDATA_GROUP
  +--> CALLED SEGMENT                    START    LENGTH     START    LENGTH
----------------------------------------------------------------------------
?C_C51STARTUP                            -----    -----      -----    -----
  +--> ?PR?MAIN?MAIN
  +--> ?C_INITSEG

?PR?MAIN?MAIN                            -----    -----      -----    -----
  +--> ?PR?IO_INIT?MAIN
  +--> ?PR?_DELAY_MS?DELAY
  +--> ?PR?UARTINIT?UART
  +--> ?PR?SPI_INIT?GD25Q64
  +--> ?PR?LCD_INIT?ST7789
  +--> ?PR?_LCD_CLEAR?ST7789
  +--> ?PR?_GD25Q64_ERASE_BLOCK?GD25Q64
  +--> ?PR?_LCD_SHOWPICTURE?ST7789

?PR?_DELAY_MS?DELAY                      -----    -----      -----    -----
  +--> ?PR?DELAY1MS?DELAY

?PR?LCD_INIT?ST7789                      -----    -----      -----    -----
  +--> ?PR?_DELAY_MS?DELAY
  +--> ?PR?_LCD_WR_REG?ST7789
  +--> ?PR?_LCD_WR_DATA?ST7789

?PR?_LCD_CLEAR?ST7789                    0008H    0002H      -----    -----
  +--> ?PR?_LCD_SETAREA?ST7789
  +--> ?PR?_LCD_WR_REG?ST7789
  +--> ?PR?_LCDWIRTECOLORDATA?ST7789

?PR?_LCD_SETAREA?ST7789                  0012H    0008H      -----    -----
  +--> ?PR?_LCD_WR_REG?ST7789
  +--> ?PR?_LCD_WR_DATA?ST7789

?PR?_GD25Q64_ERASE_BLOCK?GD25Q64         0008H    0004H      -----    -----
  +--> ?PR?GD25Q64_WRITE_ENABLE?GD25Q64
  +--> ?PR?GD25Q64_WAIT_BUSY?GD25Q64
  +--> ?PR?_SPI_RW?GD25Q64

?PR?GD25Q64_WRITE_ENABLE?GD25Q64         -----    -----      -----    -----
  +--> ?PR?_SPI_RW?GD25Q64

BL51 BANKED LINKER/LOCATER V6.22.2.0                                                  03/03/2022  09:21:15  PAGE 3


?PR?GD25Q64_WAIT_BUSY?GD25Q64            -----    -----      -----    -----
  +--> ?PR?GD25Q64_READSR?GD25Q64

?PR?GD25Q64_READSR?GD25Q64               -----    -----      -----    -----
  +--> ?PR?_SPI_RW?GD25Q64

?PR?_LCD_SHOWPICTURE?ST7789              0008H    000AH      0000H    0200H
  +--> ?PR?_LCD_SETAREA?ST7789
  +--> ?PR?_LCD_WR_REG?ST7789
  +--> ?PR?_GD25Q64_READ?GD25Q64
  +--> ?PR?_LCDWIRTECOLORDATA?ST7789

?PR?_GD25Q64_READ?GD25Q64                0012H    0009H      -----    -----
  +--> ?PR?_SPI_RW?GD25Q64

*** NEW ROOT ***************************************************

?PR?UART1_ISR?MAIN                       -----    -----      -----    -----
  +--> ?PR?_GD25Q64_WRITE_PAGE?GD25Q64

?PR?_GD25Q64_WRITE_PAGE?GD25Q64          001BH    0009H      -----    -----
  +--> ?PR?GD25Q64_WRITE_ENABLE?GD25Q64
  +--> ?PR?_SPI_RW?GD25Q64
  +--> ?PR?GD25Q64_WAIT_BUSY?GD25Q64



SYMBOL TABLE OF MODULE:  .\Objects\Pic (?C_STARTUP)

  VALUE           TYPE          NAME
  ----------------------------------

  -------         MODULE        ?C_STARTUP
  C:033AH         SEGMENT       ?C_C51STARTUP
  I:002DH         SEGMENT       ?STACK
  C:0000H         PUBLIC        ?C_STARTUP
  D:00E0H         SYMBOL        ACC
  D:00F0H         SYMBOL        B
  D:0083H         SYMBOL        DPH
  D:0082H         SYMBOL        DPL
  N:0000H         SYMBOL        IBPSTACK
  N:0100H         SYMBOL        IBPSTACKTOP
  N:0080H         SYMBOL        IDATALEN
  C:033DH         SYMBOL        IDATALOOP
  N:0000H         SYMBOL        PBPSTACK
  N:0100H         SYMBOL        PBPSTACKTOP
  N:0000H         SYMBOL        PDATALEN
  N:0000H         SYMBOL        PDATASTART
  N:0000H         SYMBOL        PPAGE
  N:0000H         SYMBOL        PPAGEENABLE
  D:00A0H         SYMBOL        PPAGE_SFR
  D:0081H         SYMBOL        SP
  C:033AH         SYMBOL        STARTUP1
  N:0000H         SYMBOL        XBPSTACK
  N:0000H         SYMBOL        XBPSTACKTOP
  N:0000H         SYMBOL        XDATALEN
  N:0000H         SYMBOL        XDATASTART
BL51 BANKED LINKER/LOCATER V6.22.2.0                                                  03/03/2022  09:21:15  PAGE 4


  C:0000H         LINE#         126
  C:033AH         LINE#         133
  C:033CH         LINE#         134
  C:033DH         LINE#         135
  C:033EH         LINE#         136
  C:0340H         LINE#         185
  C:0343H         LINE#         196
  -------         ENDMOD        ?C_STARTUP

  -------         MODULE        MAIN
  C:0000H         SYMBOL        _ICE_DUMMY_
  C:03C6H         PUBLIC        UART1_Isr
  D:0093H         PUBLIC        P0M1
  D:0092H         PUBLIC        P1M0
  D:0096H         PUBLIC        P2M0
  D:0091H         PUBLIC        P1M1
  D:0080H         PUBLIC        P0
  D:00B2H         PUBLIC        P3M0
  D:0095H         PUBLIC        P2M1
  D:0090H         PUBLIC        P1
  D:00B4H         PUBLIC        P4M0
  D:00B1H         PUBLIC        P3M1
  D:00A0H         PUBLIC        P2
  D:00CAH         PUBLIC        P5M0
  D:00B3H         PUBLIC        P4M1
  D:00B0H         PUBLIC        P3
  D:00C9H         PUBLIC        P5M1
  D:00C0H         PUBLIC        P4
  D:00C8H         PUBLIC        P5
  B:00A8H.7       PUBLIC        EA
  B:0080H.5       PUBLIC        LED_R
  D:00A8H         PUBLIC        IE
  C:0003H         PUBLIC        IO_Init
  D:0024H         PUBLIC        flash_addr
  D:00B8H         PUBLIC        IP
  B:0098H.0       PUBLIC        RI
  B:0098H.1       PUBLIC        TI
  D:00D8H         PUBLIC        CCON
  C:029BH         PUBLIC        main
  D:0099H         PUBLIC        SBUF
  D:0098H         PUBLIC        SCON
  D:0088H         PUBLIC        TCON
  D:0028H         PUBLIC        buf
  B:00B0H.4       PUBLIC        TFT_BL
  D:00D0H         PUBLIC        PSW
  B:00B0H.7       PUBLIC        K1
  B:00B0H.6       PUBLIC        K2
  B:00B0H.5       PUBLIC        K3
  D:0094H         PUBLIC        P0M0
  -------         PROC          UART1_ISR
  C:03C6H         LINE#         34
  C:03E3H         LINE#         36
  C:03E6H         LINE#         37
  C:03E6H         LINE#         38
  C:03E8H         LINE#         39
  C:03EAH         LINE#         40
  C:03EAH         LINE#         41
BL51 BANKED LINKER/LOCATER V6.22.2.0                                                  03/03/2022  09:21:15  PAGE 5


  C:03EDH         LINE#         42
  C:03EDH         LINE#         43
  C:03EFH         LINE#         44
  C:03F2H         LINE#         45
  C:0409H         LINE#         46
  C:041EH         LINE#         47
  C:041EH         LINE#         48
  -------         ENDPROC       UART1_ISR
  -------         PROC          IO_INIT
  C:0003H         LINE#         51
  C:0003H         LINE#         52
  C:0003H         LINE#         53
  C:0006H         LINE#         54
  C:0008H         LINE#         55
  C:000AH         LINE#         56
  C:000CH         LINE#         57
  C:000EH         LINE#         58
  C:0010H         LINE#         59
  C:0012H         LINE#         60
  C:0014H         LINE#         61
  C:0016H         LINE#         62
  C:0018H         LINE#         63
  C:001AH         LINE#         64
  C:001CH         LINE#         65
  -------         ENDPROC       IO_INIT
  -------         PROC          MAIN
  C:029BH         LINE#         68
  C:029BH         LINE#         69
  C:029BH         LINE#         71
  C:029EH         LINE#         72
  C:02A5H         LINE#         73
  C:02A8H         LINE#         74
  C:02ABH         LINE#         75
  C:02AEH         LINE#         76
  C:02B5H         LINE#         77
  C:02B7H         LINE#         79
  C:02BDH         LINE#         80
  C:02C3H         LINE#         83
  C:02C3H         LINE#         84
  C:02C3H         LINE#         85
  C:02C6H         LINE#         86
  C:02C6H         LINE#         87
  C:02CDH         LINE#         88
  C:02D0H         LINE#         89
  C:02D0H         LINE#         90
  C:02D2H         LINE#         91
  C:02DDH         LINE#         92
  C:02DFH         LINE#         93
  C:02E9H         LINE#         94
  C:02EBH         LINE#         95
  C:02EBH         LINE#         96
  C:02EEH         LINE#         97
  C:02EEH         LINE#         98
  C:02F1H         LINE#         99
  C:02F1H         LINE#         100
  C:02F8H         LINE#         101
  C:02FBH         LINE#         102
BL51 BANKED LINKER/LOCATER V6.22.2.0                                                  03/03/2022  09:21:15  PAGE 6


  C:02FBH         LINE#         103
  C:0304H         LINE#         104
  C:030FH         LINE#         105
  C:031AH         LINE#         106
  C:031CH         LINE#         107
  C:031CH         LINE#         108
  C:031FH         LINE#         109
  C:031FH         LINE#         110
  C:0322H         LINE#         111
  C:0322H         LINE#         112
  C:0329H         LINE#         113
  C:032CH         LINE#         114
  C:032CH         LINE#         115
  C:0333H         LINE#         116
  C:0335H         LINE#         117
  C:0335H         LINE#         118
  -------         ENDPROC       MAIN
  -------         ENDMOD        MAIN

  -------         MODULE        DELAY
  C:0000H         SYMBOL        _ICE_DUMMY_
  D:0080H         PUBLIC        P0
  D:0090H         PUBLIC        P1
  D:00A0H         PUBLIC        P2
  D:00B0H         PUBLIC        P3
  D:00C0H         PUBLIC        P4
  C:0676H         PUBLIC        Delay1ms
  D:00C8H         PUBLIC        P5
  D:00A8H         PUBLIC        IE
  D:00B8H         PUBLIC        IP
  D:00D8H         PUBLIC        CCON
  D:0098H         PUBLIC        SCON
  D:0088H         PUBLIC        TCON
  C:062AH         PUBLIC        _delay_ms
  D:00D0H         PUBLIC        PSW
  -------         PROC          DELAY1MS
  -------         DO            
  D:0007H         SYMBOL        i
  D:0006H         SYMBOL        j
  -------         ENDDO         
  C:0676H         LINE#         4
  C:0676H         LINE#         5
  C:0676H         LINE#         8
  C:0677H         LINE#         9
  C:0678H         LINE#         10
  C:067AH         LINE#         11
  C:067CH         LINE#         13
  C:067CH         LINE#         14
  C:067EH         LINE#         15
  C:0680H         LINE#         16
  -------         ENDPROC       DELAY1MS
  -------         PROC          _DELAY_MS
  D:0004H         SYMBOL        ms
  C:062AH         LINE#         19
  C:062EH         LINE#         20
  C:062EH         LINE#         21
  C:0638H         LINE#         22
BL51 BANKED LINKER/LOCATER V6.22.2.0                                                  03/03/2022  09:21:15  PAGE 7


  C:0638H         LINE#         23
  C:063BH         LINE#         24
  C:063DH         LINE#         25
  -------         ENDPROC       _DELAY_MS
  -------         ENDMOD        DELAY

  -------         MODULE        ST7789
  C:0000H         SYMBOL        _ICE_DUMMY_
  D:0080H         PUBLIC        P0
  D:0090H         PUBLIC        P1
  D:00A0H         PUBLIC        P2
  D:00B0H         PUBLIC        P3
  D:00C0H         PUBLIC        P4
  D:00C8H         PUBLIC        P5
  D:00A8H         PUBLIC        IE
  D:00B8H         PUBLIC        IP
  C:065CH         PUBLIC        _LCD_WR_REG
  C:0502H         PUBLIC        _LCD_Clear
  C:05FEH         PUBLIC        _LcdWirteColorData
  D:00D8H         PUBLIC        CCON
  D:0098H         PUBLIC        SCON
  D:0088H         PUBLIC        TCON
  C:0114H         PUBLIC        _LCD_ShowPicture
  C:0026H         PUBLIC        LCD_Init
  B:00C8H.0       PUBLIC        LCD_CS
  C:05D9H         PUBLIC        _LCD_WR_DATA
  B:00C8H.1       PUBLIC        LCD_RS
  C:0543H         PUBLIC        _LCD_SetArea
  B:00C0H.2       PUBLIC        LCD_WR
  D:0029H         PUBLIC        POINT_COLOR
  D:002BH         PUBLIC        BACK_COLOR
  D:00D0H         PUBLIC        PSW
  -------         PROC          L?0023
  -------         ENDPROC       L?0023
  -------         PROC          _LCD_WR_DATA
  D:0006H         SYMBOL        val
  C:05D9H         LINE#         9
  C:05D9H         LINE#         10
  C:05D9H         LINE#         11
  C:05DBH         LINE#         12
  C:05DDH         LINE#         13
  C:05DFH         LINE#         14
  C:05E1H         LINE#         15
  C:05E3H         LINE#         16
  C:05E5H         LINE#         17
  -------         ENDPROC       _LCD_WR_DATA
  -------         PROC          _LCD_WR_REG
  D:0006H         SYMBOL        reg
  C:065CH         LINE#         20
  C:065CH         LINE#         21
  C:065CH         LINE#         22
  C:065EH         LINE#         23
  C:0660H         LINE#         24
  C:0662H         LINE#         25
  C:0664H         LINE#         26
  C:0666H         LINE#         27
  C:0668H         LINE#         28
BL51 BANKED LINKER/LOCATER V6.22.2.0                                                  03/03/2022  09:21:15  PAGE 8


  -------         ENDPROC       _LCD_WR_REG
  -------         PROC          LCD_INIT
  C:0026H         LINE#         31
  C:0026H         LINE#         32
  C:0026H         LINE#         33
  C:002DH         LINE#         35
  C:0034H         LINE#         36
  C:0039H         LINE#         38
  C:0040H         LINE#         39
  C:0045H         LINE#         41
  C:004AH         LINE#         42
  C:004FH         LINE#         46
  C:0054H         LINE#         47
  C:0059H         LINE#         48
  C:005CH         LINE#         49
  C:0061H         LINE#         50
  C:0066H         LINE#         51
  C:0069H         LINE#         53
  C:006EH         LINE#         54
  C:0073H         LINE#         56
  C:0078H         LINE#         57
  C:007DH         LINE#         59
  C:0082H         LINE#         60
  C:0087H         LINE#         62
  C:008CH         LINE#         63
  C:0091H         LINE#         65
  C:0096H         LINE#         66
  C:009BH         LINE#         68
  C:00A0H         LINE#         69
  C:00A5H         LINE#         71
  C:00AAH         LINE#         72
  C:00AFH         LINE#         74
  C:00B4H         LINE#         75
  C:00B9H         LINE#         76
  C:00BEH         LINE#         79
  C:00C3H         LINE#         80
  C:00C8H         LINE#         81
  C:00CDH         LINE#         82
  C:00D2H         LINE#         83
  C:00D7H         LINE#         84
  C:00DAH         LINE#         85
  C:00DCH         LINE#         86
  C:00DCH         LINE#         87
  C:00DCH         LINE#         88
  C:00DCH         LINE#         89
  C:00DCH         LINE#         90
  C:00DCH         LINE#         91
  C:00DCH         LINE#         92
  C:00DFH         LINE#         93
  C:00E4H         LINE#         95
  C:00E9H         LINE#         96
  C:00EEH         LINE#         97
  C:00F3H         LINE#         98
  C:00F8H         LINE#         99
  C:00FDH         LINE#         100
  C:0100H         LINE#         101
  C:0102H         LINE#         102
BL51 BANKED LINKER/LOCATER V6.22.2.0                                                  03/03/2022  09:21:15  PAGE 9


  C:0102H         LINE#         103
  C:0102H         LINE#         104
  C:0102H         LINE#         105
  C:0102H         LINE#         106
  C:0102H         LINE#         107
  C:0102H         LINE#         108
  C:0105H         LINE#         109
  C:010AH         LINE#         112
  C:010FH         LINE#         114
  -------         ENDPROC       LCD_INIT
  -------         PROC          _LCD_SETAREA
  D:0082H         SYMBOL        stx
  D:0004H         SYMBOL        sty
  D:0002H         SYMBOL        endx
  D:0018H         SYMBOL        endy
  C:0543H         LINE#         118
  C:0547H         LINE#         119
  C:0547H         LINE#         120
  C:054EH         LINE#         121
  C:0554H         LINE#         122
  C:0559H         LINE#         123
  C:055EH         LINE#         124
  C:0563H         LINE#         126
  C:0568H         LINE#         127
  C:056DH         LINE#         128
  C:0572H         LINE#         129
  C:0578H         LINE#         130
  -------         ENDPROC       _LCD_SETAREA
  -------         PROC          _LCDWIRTECOLORDATA
  D:0004H         SYMBOL        color
  C:05FEH         LINE#         134
  C:0602H         LINE#         135
  C:0602H         LINE#         136
  C:0604H         LINE#         137
  C:0606H         LINE#         138
  C:0608H         LINE#         139
  C:060AH         LINE#         140
  C:060CH         LINE#         141
  C:060EH         LINE#         142
  C:0610H         LINE#         143
  C:0612H         LINE#         144
  C:0614H         LINE#         145
  -------         ENDPROC       _LCDWIRTECOLORDATA
  -------         PROC          _LCD_CLEAR
  D:0008H         SYMBOL        color
  -------         DO            
  D:0002H         SYMBOL        i
  D:0082H         SYMBOL        j
  -------         ENDDO         
  C:0502H         LINE#         148
  C:0506H         LINE#         149
  C:0506H         LINE#         152
  C:0518H         LINE#         153
  C:051FH         LINE#         154
  C:0522H         LINE#         155
  C:0522H         LINE#         156
  C:0525H         LINE#         157
BL51 BANKED LINKER/LOCATER V6.22.2.0                                                  03/03/2022  09:21:15  PAGE 10


  C:0525H         LINE#         158
  C:052CH         LINE#         159
  C:0537H         LINE#         160
  C:0542H         LINE#         161
  -------         ENDPROC       _LCD_CLEAR
  -------         PROC          _LCD_SHOWPICTURE
  D:0008H         SYMBOL        x
  D:000AH         SYMBOL        y
  D:0003H         SYMBOL        cnt
  -------         DO            
  D:000CH         SYMBOL        pic_add
  X:0000H         SYMBOL        pic_buf
  D:0002H         SYMBOL        i
  D:0010H         SYMBOL        j
  -------         ENDDO         
  C:0114H         LINE#         207
  C:011CH         LINE#         208
  C:011CH         LINE#         209
  C:013BH         LINE#         213
  C:015AH         LINE#         214
  C:0161H         LINE#         216
  C:0166H         LINE#         217
  C:0166H         LINE#         218
  C:017DH         LINE#         219
  C:0186H         LINE#         220
  C:0186H         LINE#         221
  C:01A8H         LINE#         222
  C:01B1H         LINE#         223
  C:01C6H         LINE#         224
  C:01D7H         LINE#         225
  -------         ENDPROC       _LCD_SHOWPICTURE
  -------         ENDMOD        ST7789

  -------         MODULE        GD25Q64
  C:0000H         SYMBOL        _ICE_DUMMY_
  D:0080H         PUBLIC        P0
  D:0090H         PUBLIC        P1
  D:00A0H         PUBLIC        P2
  D:00B0H         PUBLIC        P3
  D:00C0H         PUBLIC        P4
  D:00C8H         PUBLIC        P5
  D:00CEH         PUBLIC        SPCTL
  D:00A2H         PUBLIC        P_SW1
  C:049FH         PUBLIC        _GD25Q64_Read
  D:00A8H         PUBLIC        IE
  D:00B8H         PUBLIC        IP
  D:00D8H         PUBLIC        CCON
  B:00C8H.4       PUBLIC        GD25Q64_CS
  C:068BH         PUBLIC        GD25Q64_Wait_Busy
  C:064DH         PUBLIC        GD25Q64_ReadSR
  D:0098H         PUBLIC        SCON
  D:0088H         PUBLIC        TCON
  C:0681H         PUBLIC        GD25Q64_Write_Enable
  C:057DH         PUBLIC        _GD25Q64_Erase_Block
  D:00CDH         PUBLIC        SPSTAT
  C:0669H         PUBLIC        SPI_Init
  C:05F1H         PUBLIC        _SPI_RW
BL51 BANKED LINKER/LOCATER V6.22.2.0                                                  03/03/2022  09:21:15  PAGE 11


  D:00D0H         PUBLIC        PSW
  C:0439H         PUBLIC        _GD25Q64_Write_Page
  D:00CFH         PUBLIC        SPDAT
  -------         PROC          SPI_INIT
  C:0669H         LINE#         4
  C:0669H         LINE#         5
  C:0669H         LINE#         8
  C:066CH         LINE#         9
  C:066FH         LINE#         10
  C:0672H         LINE#         11
  C:0675H         LINE#         12
  -------         ENDPROC       SPI_INIT
  -------         PROC          L?0021
  -------         ENDPROC       L?0021
  -------         PROC          _SPI_RW
  D:0007H         SYMBOL        byte
  C:05F1H         LINE#         14
  C:05F1H         LINE#         15
  C:05F1H         LINE#         16
  C:05F3H         LINE#         17
  C:05F8H         LINE#         18
  C:05FBH         LINE#         19
  C:05FDH         LINE#         20
  -------         ENDPROC       _SPI_RW
  -------         PROC          GD25Q64_READSR
  -------         DO            
  D:0007H         SYMBOL        byte
  -------         ENDDO         
  C:064DH         LINE#         52
  C:064DH         LINE#         53
  C:064DH         LINE#         54
  C:064DH         LINE#         56
  C:064FH         LINE#         57
  C:0654H         LINE#         58
  C:0659H         LINE#         59
  C:065BH         LINE#         61
  C:065BH         LINE#         62
  -------         ENDPROC       GD25Q64_READSR
  -------         PROC          GD25Q64_WRITE_ENABLE
  C:0681H         LINE#         67
  C:0681H         LINE#         68
  C:0681H         LINE#         69
  C:0683H         LINE#         70
  C:0688H         LINE#         71
  C:068AH         LINE#         72
  -------         ENDPROC       GD25Q64_WRITE_ENABLE
  -------         PROC          GD25Q64_WAIT_BUSY
  C:068BH         LINE#         77
  C:068BH         LINE#         78
  C:068BH         LINE#         79
  C:0692H         LINE#         80
  -------         ENDPROC       GD25Q64_WAIT_BUSY
  -------         PROC          _GD25Q64_ERASE_BLOCK
  D:0008H         SYMBOL        Bst_Addr
  C:057DH         LINE#         105
  C:0585H         LINE#         106
  C:0585H         LINE#         107
BL51 BANKED LINKER/LOCATER V6.22.2.0                                                  03/03/2022  09:21:15  PAGE 12


  C:0596H         LINE#         109
  C:0599H         LINE#         110
  C:059CH         LINE#         111
  C:059EH         LINE#         112
  C:05A3H         LINE#         113
  C:05A8H         LINE#         114
  C:05ADH         LINE#         115
  C:05B2H         LINE#         116
  C:05B4H         LINE#         117
  -------         ENDPROC       _GD25Q64_ERASE_BLOCK
  -------         PROC          _GD25Q64_WRITE_PAGE
  D:001BH         SYMBOL        Buffer
  D:001EH         SYMBOL        Addr
  D:0022H         SYMBOL        ByteNum
  -------         DO            
  D:0004H         SYMBOL        i
  -------         ENDDO         
  C:0439H         LINE#         141
  C:0447H         LINE#         142
  C:0447H         LINE#         145
  C:044AH         LINE#         146
  C:044CH         LINE#         147
  C:0451H         LINE#         148
  C:0461H         LINE#         149
  C:0471H         LINE#         150
  C:0476H         LINE#         151
  C:049AH         LINE#         152
  C:049CH         LINE#         153
  -------         ENDPROC       _GD25Q64_WRITE_PAGE
  -------         PROC          _GD25Q64_READ
  D:0012H         SYMBOL        Buffer
  D:0015H         SYMBOL        Addr
  D:0019H         SYMBOL        ByteNum
  -------         DO            
  D:0004H         SYMBOL        i
  -------         ENDDO         
  C:049FH         LINE#         162
  C:04ADH         LINE#         163
  C:04ADH         LINE#         166
  C:04AFH         LINE#         167
  C:04B4H         LINE#         168
  C:04C4H         LINE#         169
  C:04D4H         LINE#         170
  C:04D9H         LINE#         171
  C:04E5H         LINE#         172
  C:04E5H         LINE#         173
  C:04F8H         LINE#         174
  C:04FFH         LINE#         175
  C:0501H         LINE#         176
  -------         ENDPROC       _GD25Q64_READ
  -------         ENDMOD        GD25Q64

  -------         MODULE        UART
  C:0000H         SYMBOL        _ICE_DUMMY_
  D:0080H         PUBLIC        P0
  D:0090H         PUBLIC        P1
  D:00A0H         PUBLIC        P2
BL51 BANKED LINKER/LOCATER V6.22.2.0                                                  03/03/2022  09:21:15  PAGE 13


  D:00B0H         PUBLIC        P3
  D:00C0H         PUBLIC        P4
  D:00C8H         PUBLIC        P5
  D:00A8H         PUBLIC        IE
  B:00A8H.4       PUBLIC        ES
  D:00B8H         PUBLIC        IP
  D:00D8H         PUBLIC        CCON
  D:0098H         PUBLIC        SCON
  D:0088H         PUBLIC        TCON
  C:0615H         PUBLIC        UartInit
  D:008EH         PUBLIC        AUXR
  D:00D6H         PUBLIC        T2H
  D:00D7H         PUBLIC        T2L
  D:00D0H         PUBLIC        PSW
  -------         PROC          UARTINIT
  C:0615H         LINE#         6
  C:0615H         LINE#         7
  C:0615H         LINE#         8
  C:0618H         LINE#         9
  C:061BH         LINE#         10
  C:061EH         LINE#         11
  C:0621H         LINE#         12
  C:0624H         LINE#         13
  C:0627H         LINE#         15
  C:0629H         LINE#         16
  -------         ENDPROC       UARTINIT
  -------         ENDMOD        UART

  -------         MODULE        ?C?CLDOPTR
  C:01D8H         PUBLIC        ?C?CLDOPTR
  -------         ENDMOD        ?C?CLDOPTR

  -------         MODULE        ?C?CSTOPTR
  C:0205H         PUBLIC        ?C?CSTOPTR
  -------         ENDMOD        ?C?CSTOPTR

  -------         MODULE        ?C?IMUL
  C:0227H         PUBLIC        ?C?IMUL
  -------         ENDMOD        ?C?IMUL

  -------         MODULE        ?C?LMUL
  C:0239H         PUBLIC        ?C?LMUL
  -------         ENDMOD        ?C?LMUL

  -------         MODULE        ?C?ULSHR
  C:0288H         PUBLIC        ?C?ULSHR
  -------         ENDMOD        ?C?ULSHR

Program Size: data=46.0 xdata=512 code=1677
LINK/LOCATE RUN COMPLETE.  0 WARNING(S),  0 ERROR(S)
