:060000000201C802042207
:03000B000202628C
:03001300020426BE
:03001B0002042BB1
:0300230002042CA8
:03002B0002042D9F
:0300330002042E96
:03003B0002042F8D
:0300430002043084
:03004B000204317B
:0300530002043272
:0300630002043361
:03006B0002043458
:030073000204354F
:03007B0002043646
:030083000204373D
:10010000EF701FEB7006EDF4529A529BBB0107EDA6
:10011000F4529AED429BEB640260030201C7ED4288
:100120009A22EF6401701FEB7006EDF45291529227
:10013000BB0107EDF45291ED4292EB6402600302C1
:1001400001C7ED429122EF6402701CEB7006EDF4E2
:1001500052A152A2BB0107EDF452A1ED42A2EB6401
:10016000027064ED42A122EF6403701CEB7006ED97
:10017000F452B152B2BB0107EDF452B1ED42B2EB11
:1001800064027043ED42B122EF6404701CEB700610
:10019000EDF452C152C2BB0107EDF452C1ED42C2AF
:1001A000EB64027022ED42C122EF64057019EB701E
:1001B00006EDF452D952DABB0107EDF452D9ED4203
:1001C000DABB0203ED42D92278FFE4F6D8FD9000B5
:1001D000007F007E01E4F0A3DFFCDEFA75810902F6
:1001E000021D020418E493A3F8E493A34003F680ED
:1001F00001F208DFF48029E493A3F85407240CC823
:10020000C333C4540F4420C8834004F456800146CD
:10021000F6DFE4800B010204081020408090041DEA
:10022000E47E019360BCA3FF543F30E509541FFEF8
:10023000E493A360010ECF54C025E060A840B8E469
:1002400093A3FAE493A3F8E493A3C8C582C8CAC5EC
:1002500083CAF0A3C8C582C8CAC583CADFE9DEE77E
:1002600080BEC0E0C0F0C083C082C0D075D000C0E6
:1002700000C001C002C003C004C005C006C0077FA3
:10028000FF7E821204110509E5097002050864C8A1
:100290004508701BF508F5097D02FF1202CAEF7DC3
:1002A000026007E4FF1202FD8005E4FF120351D053
:1002B00007D006D005D004D003D002D001D000D0A2
:1002C000D0D082D083D0F0D0E032EF7005E5805DF1
:1002D000FF22BF0105E5905DFF22BF0205E5A05D9D
:1002E000FF22BF0305E5B05DFF22BF0405E5C05D49
:1002F000FF22BF0505E5D85DFF227F0022EF7004D5
:10030000EDF45280BF0104EDF45290BF0204EDF40D
:1003100052A0BF0304EDF452B0BF0404EDF452C088
:10032000BF0504EDF452D822EF14601114601514C7
:1003300060172403701AAF05AE040203AFAF05AE19
:10034000040203D3AF050203ECAF05AD03120409A9
:1003500022EF7003ED4280BF0103ED4290BF020324
:10036000ED42A0BF0303ED42B0BF0403ED42C0BFA6
:100370000503ED42D8227D017F01120393E4FBFACD
:10038000FDFC7F01120328E4FD7F011203C17F0100
:10039000020400EF7005538EFE8006BF0103438EFA
:1003A00001BD01045389FB22BD020343890422538A
:1003B00089FC8F8AEF7805CEC313CE13D8F9F58C5C
:1003C00022EF7004C2A98002D2A9ED7003C2B92243
:1003D000D2B9225389FC438901AD078D8A8E8C22C4
:1003E0001203F712042A120376D2AF225389FC4378
:1003F00089028F8A8F8C227B027D02E4FF0201003A
:10040000EF7003C28C22D28C224389038F8A8D8C99
:1004100022AD078D8A8E8C221203E080FE02080036
:1004200000005388FD325388F732223232323232A2
:08043000323232323232323234
:00000001FF
