LX51 LINKER/LOCATER V4.41                                                               02/26/2021  11:38:21  PAGE 1


LX51 LINKER/LOCATER V4.41, INVOKED BY:
C:\KEIL\C51\BIN\LX51.EXE ..\Output\main.obj, ..\Output\SC_Init.obj, ..\Output\SC_it.obj, ..\Output\sc95f_uart0.obj, ..\O
>> utput\sc95f_usci0.obj, ..\Output\sc95f_usci2.obj, ..\Output\sc95f_gpio.obj, ..\Output\sc95f_option.obj, ..\Output\STA
>> RTUP.obj TO ..\Output\SPI PRINT (..\List\SPI.map) REMOVEUNUSED CLASSES (CODE (C:0X100), CONST (C:0X100))


CPU MODE:     8051 MODE
MEMORY MODEL: SMALL


INPUT MODULES INCLUDED:
  ..\Output\main.obj (MAIN)
         COMMENT TYPE 0: C51 V9.01
  ..\Output\SC_Init.obj (SC_INIT)
         COMMENT TYPE 0: C51 V9.01
  ..\Output\SC_it.obj (SC_IT)
         COMMENT TYPE 0: C51 V9.01
  ..\Output\sc95f_uart0.obj (SC95F_UART0)
         COMMENT TYPE 0: C51 V9.01
  ..\Output\sc95f_usci0.obj (SC95F_USCI0)
         COMMENT TYPE 0: C51 V9.01
  ..\Output\sc95f_usci2.obj (SC95F_USCI2)
         COMMENT TYPE 0: C51 V9.01
  ..\Output\sc95f_gpio.obj (SC95F_GPIO)
         COMMENT TYPE 0: C51 V9.01
  ..\Output\sc95f_option.obj (SC95F_OPTION)
         COMMENT TYPE 0: C51 V9.01
  ..\Output\STARTUP.obj (?C_STARTUP)
         COMMENT TYPE 1: A51 / ASM51 Assembler
  C:\KEIL\C51\LIB\C51S.LIB (?C_INIT)
         COMMENT TYPE 1: A51 / ASM51 Assembler
  C:\KEIL\C51\LIB\C51S.LIB (?C?ULDIV)
         COMMENT TYPE 1: A51 / ASM51 Assembler
  C:\KEIL\C51\LIB\C51S.LIB (?C?ULCMP)
         COMMENT TYPE 1: A51 / ASM51 Assembler
  C:\KEIL\C51\LIB\C51S.LIB (PRINTF)
         COMMENT TYPE 1: A51 / ASM51 Assembler
  C:\KEIL\C51\LIB\C51S.LIB (?C?CLDPTR)
         COMMENT TYPE 1: A51 / ASM51 Assembler
  C:\KEIL\C51\LIB\C51S.LIB (?C?CLDOPTR)
         COMMENT TYPE 1: A51 / ASM51 Assembler
  C:\KEIL\C51\LIB\C51S.LIB (?C?CSTPTR)
         COMMENT TYPE 1: A51 / ASM51 Assembler
  C:\KEIL\C51\LIB\C51S.LIB (?C?PLDIIDATA)
         COMMENT TYPE 1: A51 / ASM51 Assembler
  C:\KEIL\C51\LIB\C51S.LIB (?C?CCASE)
         COMMENT TYPE 1: A51 / ASM51 Assembler


ACTIVE MEMORY CLASSES OF MODULE:  ..\Output\SPI (MAIN)

BASE        START       END         USED      MEMORY CLASS
==========================================================
C:000000H   C:000100H   C:00FFFFH   000A1EH   CODE
C:000000H   C:000100H   C:00FFFFH             CONST
I:000000H   I:000000H   I:00007FH   00001EH   DATA
I:000020H.0 I:000020H.0 I:00002FH.7 000001H.4 BIT
I:000000H   I:000000H   I:0000FFH   000001H   IDATA


MEMORY MAP OF MODULE:  ..\Output\SPI (MAIN)


START     STOP      LENGTH    ALIGN  RELOC    MEMORY CLASS   SEGMENT NAME
=========================================================================

LX51 LINKER/LOCATER V4.41                                                             02/26/2021  11:38:21  PAGE 2


* * * * * * * * * * *   D A T A   M E M O R Y   * * * * * * * * * * * * *
000000H   000007H   000008H   ---    AT..     DATA           "REG BANK 0"
000008H   00001CH   000015H   BYTE   UNIT     DATA           _DATA_GROUP_
00001DH   00001DH   000001H   BYTE   UNIT     DATA           ?DT?MAIN
00001EH.0 00001FH.7 000002H.0 ---    ---      **GAP**
000020H.0 000021H.0 000001H.1 BIT    UNIT     BIT            _BIT_GROUP_
000021H.1 000021H.3 000000H.3 BIT    UNIT     BIT            ?BI?MAIN
000021H.4 000021H   000000H.4 ---    ---      **GAP**
000022H   000022H   000001H   BYTE   UNIT     IDATA          ?STACK

* * * * * * * * * * *   C O D E   M E M O R Y   * * * * * * * * * * * * *
000000H   000002H   000003H   ---    OFFS..   CODE           ?CO??C_STARTUP?0
000003H   000005H   000003H   BYTE   OFFS..   CODE           ?SC_IT?00003
000006H   00000AH   000005H   ---    ---      **GAP**
00000BH   00000DH   000003H   BYTE   OFFS..   CODE           ?SC_IT?0000B
00000EH   000012H   000005H   ---    ---      **GAP**
000013H   000015H   000003H   BYTE   OFFS..   CODE           ?SC_IT?00013
000016H   00001AH   000005H   ---    ---      **GAP**
00001BH   00001DH   000003H   BYTE   OFFS..   CODE           ?SC_IT?0001B
00001EH   000022H   000005H   ---    ---      **GAP**
000023H   000025H   000003H   BYTE   OFFS..   CODE           ?SC_IT?00023
000026H   00002AH   000005H   ---    ---      **GAP**
00002BH   00002DH   000003H   BYTE   OFFS..   CODE           ?SC_IT?0002B
00002EH   000032H   000005H   ---    ---      **GAP**
000033H   000035H   000003H   BYTE   OFFS..   CODE           ?SC_IT?00033
000036H   00003AH   000005H   ---    ---      **GAP**
00003BH   00003DH   000003H   BYTE   OFFS..   CODE           ?SC_IT?0003B
00003EH   000042H   000005H   ---    ---      **GAP**
000043H   000045H   000003H   BYTE   OFFS..   CODE           ?SC_IT?00043
000046H   00004AH   000005H   ---    ---      **GAP**
00004BH   00004DH   000003H   BYTE   OFFS..   CODE           ?SC_IT?0004B
00004EH   000052H   000005H   ---    ---      **GAP**
000053H   000055H   000003H   BYTE   OFFS..   CODE           ?SC_IT?00053
000056H   000062H   00000DH   ---    ---      **GAP**
000063H   000065H   000003H   BYTE   OFFS..   CODE           ?SC_IT?00063
000066H   00006AH   000005H   ---    ---      **GAP**
00006BH   00006DH   000003H   BYTE   OFFS..   CODE           ?SC_IT?0006B
00006EH   000072H   000005H   ---    ---      **GAP**
000073H   000075H   000003H   BYTE   OFFS..   CODE           ?SC_IT?00073
000076H   00007AH   000005H   ---    ---      **GAP**
00007BH   00007DH   000003H   BYTE   OFFS..   CODE           ?SC_IT?0007B
00007EH   000082H   000005H   ---    ---      **GAP**
000083H   000085H   000003H   BYTE   OFFS..   CODE           ?SC_IT?00083
000086H   0000FFH   00007AH   ---    ---      **GAP**
000100H   00045BH   00035CH   BYTE   UNIT     CODE           ?PR?PRINTF?PRINTF
00045CH   0005C8H   00016DH   BYTE   UNIT     CODE           ?C?LIB_CODE
0005C9H   000690H   0000C8H   BYTE   UNIT     CODE           ?PR?_GPIO_INIT?SC95F_GPIO
000691H   000752H   0000C2H   BYTE   UNIT     CODE           ?PR?_UART0_INIT?SC95F_UART0
000753H   0007ECH   00009AH   BYTE   UNIT     CODE           ?C_C51STARTUP
0007EDH   000840H   000054H   BYTE   UNIT     CODE           ?PR?USCI0INTERRUPT?SC_IT
000841H   000894H   000054H   BYTE   UNIT     CODE           ?PR?USCI2INTERRUPT?SC_IT
000895H   0008D3H   00003FH   BYTE   UNIT     CODE           ?PR?UART0INTERRUPT?SC_IT
0008D4H   000909H   000036H   BYTE   UNIT     CODE           ?PR?SC_UART0_INIT?SC_INIT
00090AH   000938H   00002FH   BYTE   UNIT     CODE           ?PR?SC_USCI2_INIT?SC_INIT
000939H   000966H   00002EH   BYTE   UNIT     CODE           ?PR?SC_USCI0_INIT?SC_INIT
000967H   00098AH   000024H   BYTE   UNIT     CODE           ?PR?MAIN?MAIN
00098BH   0009ADH   000023H   BYTE   UNIT     CODE           ?PR?_USCI0_GETFLAGSTATUS?SC95F_USCI0
0009AEH   0009D0H   000023H   BYTE   UNIT     CODE           ?PR?_USCI2_GETFLAGSTATUS?SC95F_USCI2
0009D1H   0009F1H   000021H   BYTE   UNIT     CODE           ?PR?_USCI0_SPI_INIT?SC95F_USCI0
0009F2H   000A12H   000021H   BYTE   UNIT     CODE           ?PR?_USCI2_SPI_INIT?SC95F_USCI2
000A13H   000A28H   000016H   BYTE   UNIT     CODE           ?PR?_USCI0_ITCONFIG?SC95F_USCI0
000A29H   000A3EH   000016H   BYTE   UNIT     CODE           ?PR?_USCI2_ITCONFIG?SC95F_USCI2
000A3FH   000A51H   000013H   BYTE   UNIT     CODE           ?PR?_USCI0_SPI_CMD?SC95F_USCI0
000A52H   000A64H   000013H   BYTE   UNIT     CODE           ?PR?_USCI2_SPI_CMD?SC95F_USCI2
000A65H   000A76H   000012H   BYTE   UNIT     CODE           ?PR?SC_INIT?SC_INIT
LX51 LINKER/LOCATER V4.41                                                             02/26/2021  11:38:21  PAGE 3


000A77H   000A88H   000012H   BYTE   UNIT     CODE           ?PR?_UART0_ITCONFIG?SC95F_UART0
000A89H   000A9AH   000012H   BYTE   UNIT     CODE           ?PR?_USCI0_CLEARFLAG?SC95F_USCI0
000A9BH   000AACH   000012H   BYTE   UNIT     CODE           ?PR?_USCI2_CLEARFLAG?SC95F_USCI2
000AADH   000AB9H   00000DH   BYTE   UNIT     CODE           ?PR?_PUTCHAR?MAIN
000ABAH   000AC3H   00000AH   BYTE   UNIT     CODE           ?C_INITSEG
000AC4H   000AC8H   000005H   BYTE   UNIT     CODE           ?PR?_UART0_CLEARFLAG?SC95F_UART0
000AC9H   000ACCH   000004H   BYTE   UNIT     CODE           ?CO?MAIN
000ACDH   000AD0H   000004H   BYTE   UNIT     CODE           ?PR?INT0INTERRUPT?SC_IT
000AD1H   000AD4H   000004H   BYTE   UNIT     CODE           ?PR?INT1INTERRUPT?SC_IT
000AD5H   000AD7H   000003H   BYTE   UNIT     CODE           ?PR?_UART0_SENDDATA8?SC95F_UART0
000AD8H   000ADAH   000003H   BYTE   UNIT     CODE           ?PR?USCI0_SPI_RECEIVEDATA_8?SC95F_USCI0
000ADBH   000ADDH   000003H   BYTE   UNIT     CODE           ?PR?_USCI2_SPI_SENDDATA_8?SC95F_USCI2
000ADEH   000ADEH   000001H   BYTE   UNIT     CODE           ?PR?SC_OPTION_INIT?SC_INIT
000ADFH   000ADFH   000001H   BYTE   UNIT     CODE           ?PR?SC_GPIO_INIT?SC_INIT
000AE0H   000AE0H   000001H   BYTE   UNIT     CODE           ?PR?TIMER0INTERRUPT?SC_IT
000AE1H   000AE1H   000001H   BYTE   UNIT     CODE           ?PR?TIMER1INTERRUPT?SC_IT
000AE2H   000AE2H   000001H   BYTE   UNIT     CODE           ?PR?TIMER2INTERRUPT?SC_IT
000AE3H   000AE3H   000001H   BYTE   UNIT     CODE           ?PR?ADCINTERRUPT?SC_IT
000AE4H   000AE4H   000001H   BYTE   UNIT     CODE           ?PR?PWMINTERRUPT?SC_IT
000AE5H   000AE5H   000001H   BYTE   UNIT     CODE           ?PR?BTMINTERRUPT?SC_IT
000AE6H   000AE6H   000001H   BYTE   UNIT     CODE           ?PR?INT2INTERRUPT?SC_IT
000AE7H   000AE7H   000001H   BYTE   UNIT     CODE           ?PR?ACMPINTERRUPT?SC_IT
000AE8H   000AE8H   000001H   BYTE   UNIT     CODE           ?PR?TIMER3INTERRUPT?SC_IT
000AE9H   000AE9H   000001H   BYTE   UNIT     CODE           ?PR?TIMER4INTERRUPT?SC_IT
000AEAH   000AEAH   000001H   BYTE   UNIT     CODE           ?PR?USCI1INTERRUPT?SC_IT

* * * * * * * * *   R E M O V E D     S E G M E N T S   * * * * * * * *
   *DEL*:           000001H   BYTE   UNIT     CODE           ?PR?SC_TIM0_INIT?SC_INIT
   *DEL*:           000001H   BYTE   UNIT     CODE           ?PR?SC_TIM1_INIT?SC_INIT
   *DEL*:           000001H   BYTE   UNIT     CODE           ?PR?SC_TIM2_INIT?SC_INIT
   *DEL*:           000001H   BYTE   UNIT     CODE           ?PR?SC_TIM3_INIT?SC_INIT
   *DEL*:           000001H   BYTE   UNIT     CODE           ?PR?SC_TIM4_INIT?SC_INIT
   *DEL*:           000001H   BYTE   UNIT     CODE           ?PR?SC_PWM_INIT?SC_INIT
   *DEL*:           000001H   BYTE   UNIT     CODE           ?PR?SC_INT_INIT?SC_INIT
   *DEL*:           000001H   BYTE   UNIT     CODE           ?PR?SC_ADC_INIT?SC_INIT
   *DEL*:           000001H   BYTE   UNIT     CODE           ?PR?SC_IAP_INIT?SC_INIT
   *DEL*:           000001H   BYTE   UNIT     CODE           ?PR?SC_USCI1_INIT?SC_INIT
   *DEL*:           000001H   BYTE   UNIT     CODE           ?PR?SC_BTM_INIT?SC_INIT
   *DEL*:           000001H   BYTE   UNIT     CODE           ?PR?SC_CRC_INIT?SC_INIT
   *DEL*:           000001H   BYTE   UNIT     CODE           ?PR?SC_WDT_INIT?SC_INIT
   *DEL*:           000001H   BYTE   UNIT     CODE           ?PR?SC_PWR_INIT?SC_INIT
   *DEL*:           000001H   BYTE   UNIT     CODE           ?PR?SC_DDIC_INIT?SC_INIT
   *DEL*:           000001H   BYTE   UNIT     CODE           ?PR?SC_ACMP_INIT?SC_INIT
   *DEL*:           000001H   BYTE   UNIT     CODE           ?PR?SC_MDU_INIT?SC_INIT
   *DEL*:           00000FH   BYTE   UNIT     CODE           ?PR?UART0_DEINIT?SC95F_UART0
   *DEL*:           000003H   BYTE   UNIT     CODE           ?PR?UART0_RECEIVEDATA8?SC95F_UART0
   *DEL*:           000012H   BYTE   UNIT     CODE           ?PR?_UART0_SENDDATA9?SC95F_UART0
   *DEL*:           000016H   BYTE   UNIT     CODE           ?PR?UART0_RECEIVEDATA9?SC95F_UART0
   *DEL*:           000005H   BYTE   UNIT     CODE           ?PR?_UART0_GETFLAGSTATUS?SC95F_UART0
   *DEL*:           000013H   BYTE   UNIT     CODE           ?PR?USCI0_DEINIT?SC95F_USCI0
   *DEL*:           000003H   BYTE   UNIT     CODE           ?PR?_USCI0_SPI_SENDDATA_8?SC95F_USCI0
   *DEL*:           000009H   BYTE   UNIT     CODE           ?PR?_USCI0_SPI_SENDDATA_16?SC95F_USCI0
   *DEL*:           000009H   BYTE   UNIT     CODE           ?PR?USCI0_SPI_RECEIVEDATA_16?SC95F_USCI0
   *DEL*:           00000EH   BYTE   UNIT     CODE           ?PR?_USCI0_TWI_SLAVE_INIT?SC95F_USCI0
   *DEL*:           00000CH   BYTE   UNIT     CODE           ?PR?_USCI0_TWI_MASTERCOMMUNICATIONRATE?SC95F_USCI0
   *DEL*:           000004H   BYTE   UNIT     CODE           ?PR?USCI0_TWI_START?SC95F_USCI0
   *DEL*:           000004H   BYTE   UNIT     CODE           ?PR?USCI0_TWI_MASTERMODESTOP?SC95F_USCI0
   *DEL*:           000013H   BYTE   UNIT     CODE           ?PR?_USCI0_TWI_SLAVECLOCKEXTENSION?SC95F_USCI0
   *DEL*:           000013H   BYTE   UNIT     CODE           ?PR?_USCI0_TWI_ACKNOWLEDGECONFIG?SC95F_USCI0
   *DEL*:           000013H   BYTE   UNIT     CODE           ?PR?_USCI0_TWI_GENERALCALLCMD?SC95F_USCI0
   *DEL*:           000013H   BYTE   UNIT     CODE           ?PR?_USCI0_TWI_CMD?SC95F_USCI0
   *DEL*:           000003H   BYTE   UNIT     CODE           ?PR?_USCI0_TWI_SENDDATA?SC95F_USCI0
   *DEL*:           000003H   BYTE   UNIT     CODE           ?PR?USCI0_TWI_RECEIVEDATA?SC95F_USCI0
   *DEL*:           00007BH   BYTE   UNIT     CODE           ?PR?_USCI0_UART_INIT?SC95F_USCI0
   *DEL*:           00000AH   BYTE   UNIT     DATA           ?DT?_USCI0_UART_INIT?SC95F_USCI0
LX51 LINKER/LOCATER V4.41                                                             02/26/2021  11:38:21  PAGE 4


   *DEL*:           000003H   BYTE   UNIT     CODE           ?PR?_USCI0_UART_SENDDATA8?SC95F_USCI0
   *DEL*:           000003H   BYTE   UNIT     CODE           ?PR?USCI0_UART_RECEIVEDATA8?SC95F_USCI0
   *DEL*:           000012H   BYTE   UNIT     CODE           ?PR?_USCI0_UART_SENDDATA9?SC95F_USCI0
   *DEL*:           000013H   BYTE   UNIT     CODE           ?PR?USCI0_UART_RECEIVEDATA9?SC95F_USCI0
   *DEL*:           000007H   BYTE   UNIT     CODE           ?PR?_USCI0_TWI_SENDADDR?SC95F_USCI0
   *DEL*:           000013H   BYTE   UNIT     CODE           ?PR?USCI2_DEINIT?SC95F_USCI2
   *DEL*:           000003H   BYTE   UNIT     CODE           ?PR?USCI2_SPI_RECEIVEDATA_8?SC95F_USCI2
   *DEL*:           000009H   BYTE   UNIT     CODE           ?PR?_USCI2_SPI_SENDDATA_16?SC95F_USCI2
   *DEL*:           000009H   BYTE   UNIT     CODE           ?PR?USCI2_SPI_RECEIVEDATA_16?SC95F_USCI2
   *DEL*:           00000EH   BYTE   UNIT     CODE           ?PR?_USCI2_TWI_SLAVE_INIT?SC95F_USCI2
   *DEL*:           00000BH   BYTE   UNIT     CODE           ?PR?_USCI2_TWI_MASTERCOMMUNICATIONRATE?SC95F_USCI2
   *DEL*:           000004H   BYTE   UNIT     CODE           ?PR?USCI2_TWI_START?SC95F_USCI2
   *DEL*:           000004H   BYTE   UNIT     CODE           ?PR?USCI2_TWI_MASTERMODESTOP?SC95F_USCI2
   *DEL*:           000013H   BYTE   UNIT     CODE           ?PR?_USCI2_TWI_SLAVECLOCKEXTENSION?SC95F_USCI2
   *DEL*:           000013H   BYTE   UNIT     CODE           ?PR?_USCI2_TWI_ACKNOWLEDGECONFIG?SC95F_USCI2
   *DEL*:           000013H   BYTE   UNIT     CODE           ?PR?_USCI2_TWI_GENERALCALLCMD?SC95F_USCI2
   *DEL*:           000013H   BYTE   UNIT     CODE           ?PR?_USCI2_TWI_CMD?SC95F_USCI2
   *DEL*:           000003H   BYTE   UNIT     CODE           ?PR?_USCI2_TWI_SENDDATA?SC95F_USCI2
   *DEL*:           000007H   BYTE   UNIT     CODE           ?PR?_USCI2_TWI_SENDADDR?SC95F_USCI2
   *DEL*:           000003H   BYTE   UNIT     CODE           ?PR?USCI2_TWI_RECEIVEDATA?SC95F_USCI2
   *DEL*:           00007BH   BYTE   UNIT     CODE           ?PR?_USCI2_UART_INIT?SC95F_USCI2
   *DEL*:           00000AH   BYTE   UNIT     DATA           ?DT?_USCI2_UART_INIT?SC95F_USCI2
   *DEL*:           000003H   BYTE   UNIT     CODE           ?PR?_USCI2_UART_SENDDATA8?SC95F_USCI2
   *DEL*:           000003H   BYTE   UNIT     CODE           ?PR?USCI2_UART_RECEIVEDATA8?SC95F_USCI2
   *DEL*:           000012H   BYTE   UNIT     CODE           ?PR?_USCI2_UART_SENDDATA9?SC95F_USCI2
   *DEL*:           000013H   BYTE   UNIT     CODE           ?PR?USCI2_UART_RECEIVEDATA9?SC95F_USCI2
   *DEL*:           000026H   BYTE   UNIT     CODE           ?PR?GPIO_DEINIT?SC95F_GPIO
   *DEL*:           00001FH   BYTE   UNIT     CODE           ?PR?_GPIO_WRITE?SC95F_GPIO
   *DEL*:           000025H   BYTE   UNIT     CODE           ?PR?_GPIO_WRITEHIGH?SC95F_GPIO
   *DEL*:           00002BH   BYTE   UNIT     CODE           ?PR?_GPIO_WRITELOW?SC95F_GPIO
   *DEL*:           000021H   BYTE   UNIT     CODE           ?PR?_GPIO_READPORT?SC95F_GPIO
   *DEL*:           000033H   BYTE   UNIT     CODE           ?PR?_GPIO_READPIN?SC95F_GPIO
   *DEL*:           00000EH   BYTE   UNIT     CODE           ?PR?_OPTION_WDT_CMD?SC95F_OPTION
   *DEL*:           00000EH   BYTE   UNIT     CODE           ?PR?_OPTION_XTIPLL_CMD?SC95F_OPTION
   *DEL*:           00000BH   BYTE   UNIT     CODE           ?PR?_OPTION_SYSCLK_INIT?SC95F_OPTION
   *DEL*:           00000EH   BYTE   UNIT     CODE           ?PR?_OPTION_RST_PIN_CMD?SC95F_OPTION
   *DEL*:           00000BH   BYTE   UNIT     CODE           ?PR?_OPTION_LVR_INIT?SC95F_OPTION
   *DEL*:           00001CH   BYTE   UNIT     CODE           ?PR?_OPTION_ADC_VREFCONFIG?SC95F_OPTION
   *DEL*:           00000BH   BYTE   UNIT     CODE           ?PR?_OPTION_IAP_SETOPERATERANGE?SC95F_OPTION
   *DEL*:           00000EH   BYTE   UNIT     CODE           ?PR?_OPTION_JTG_CMD?SC95F_OPTION



OVERLAY MAP OF MODULE:   ..\Output\SPI (MAIN)


FUNCTION/MODULE                                BIT_GROUP   DATA_GROUP 
--> CALLED FUNCTION/MODULE                    START  STOP  START  STOP
======================================================================
INT0INTERRUPT/SC_IT                           ----- -----  ----- -----

*** NEW ROOT ********************************

TIMER0INTERRUPT/SC_IT                         ----- -----  ----- -----

*** NEW ROOT ********************************

INT1INTERRUPT/SC_IT                           ----- -----  ----- -----

*** NEW ROOT ********************************

TIMER1INTERRUPT/SC_IT                         ----- -----  ----- -----

*** NEW ROOT ********************************

LX51 LINKER/LOCATER V4.41                                                             02/26/2021  11:38:21  PAGE 5


UART0INTERRUPT/SC_IT                          ----- -----  ----- -----
  +--> ?PR?_UART0_CLEARFLAG?SC95F_UART0

_UART0_CLEARFLAG/SC95F_UART0                  ----- -----  ----- -----

*** NEW ROOT ********************************

TIMER2INTERRUPT/SC_IT                         ----- -----  ----- -----

*** NEW ROOT ********************************

ADCINTERRUPT/SC_IT                            ----- -----  ----- -----

*** NEW ROOT ********************************

USCI0INTERRUPT/SC_IT                          ----- -----  ----- -----
  +--> ?PR?_USCI0_GETFLAGSTATUS?SC95F_USCI0
  +--> ?PR?_USCI0_CLEARFLAG?SC95F_USCI0

_USCI0_GETFLAGSTATUS/SC95F_USCI0              ----- -----  ----- -----

_USCI0_CLEARFLAG/SC95F_USCI0                  ----- -----  ----- -----

*** NEW ROOT ********************************

PWMINTERRUPT/SC_IT                            ----- -----  ----- -----

*** NEW ROOT ********************************

BTMINTERRUPT/SC_IT                            ----- -----  ----- -----

*** NEW ROOT ********************************

INT2INTERRUPT/SC_IT                           ----- -----  ----- -----

*** NEW ROOT ********************************

ACMPINTERRUPT/SC_IT                           ----- -----  ----- -----

*** NEW ROOT ********************************

TIMER3INTERRUPT/SC_IT                         ----- -----  ----- -----

*** NEW ROOT ********************************

TIMER4INTERRUPT/SC_IT                         ----- -----  ----- -----

*** NEW ROOT ********************************

USCI1INTERRUPT/SC_IT                          ----- -----  ----- -----

*** NEW ROOT ********************************

USCI2INTERRUPT/SC_IT                          ----- -----  ----- -----
  +--> ?PR?_USCI2_GETFLAGSTATUS?SC95F_USCI2
  +--> ?PR?_USCI2_CLEARFLAG?SC95F_USCI2

_USCI2_GETFLAGSTATUS/SC95F_USCI2              ----- -----  ----- -----

_USCI2_CLEARFLAG/SC95F_USCI2                  ----- -----  ----- -----

*** NEW ROOT ********************************

?C_C51STARTUP                                 ----- -----  ----- -----
  +--> ?PR?MAIN?MAIN
LX51 LINKER/LOCATER V4.41                                                             02/26/2021  11:38:21  PAGE 6


  +--> ?C_INITSEG

MAIN/MAIN                                     ----- -----  ----- -----
  +--> ?PR?SC_INIT?SC_INIT
  +--> ?PR?_USCI2_SPI_SENDDATA_8?SC95F_USCI2
  +--> ?PR?USCI0_SPI_RECEIVEDATA_8?SC95F_USCI0
  +--> ?CO?MAIN
  +--> ?PR?PRINTF?PRINTF

SC_INIT/SC_INIT                               ----- -----  ----- -----
  +--> ?PR?SC_GPIO_INIT?SC_INIT
  +--> ?PR?SC_OPTION_INIT?SC_INIT
  +--> ?PR?SC_USCI0_INIT?SC_INIT
  +--> ?PR?SC_USCI2_INIT?SC_INIT
  +--> ?PR?SC_UART0_INIT?SC_INIT

SC_GPIO_INIT/SC_INIT                          ----- -----  ----- -----

SC_OPTION_INIT/SC_INIT                        ----- -----  ----- -----

SC_USCI0_INIT/SC_INIT                         ----- -----  ----- -----
  +--> ?PR?_GPIO_INIT?SC95F_GPIO
  +--> ?PR?_USCI0_SPI_INIT?SC95F_USCI0
  +--> ?PR?_USCI0_ITCONFIG?SC95F_USCI0
  +--> ?PR?_USCI0_SPI_CMD?SC95F_USCI0

_GPIO_INIT/SC95F_GPIO                         ----- -----  ----- -----

_USCI0_SPI_INIT/SC95F_USCI0                   ----- -----  0008H 000EH

_USCI0_ITCONFIG/SC95F_USCI0                   ----- -----  ----- -----

_USCI0_SPI_CMD/SC95F_USCI0                    ----- -----  ----- -----

SC_USCI2_INIT/SC_INIT                         ----- -----  ----- -----
  +--> ?PR?_GPIO_INIT?SC95F_GPIO
  +--> ?PR?_USCI2_SPI_INIT?SC95F_USCI2
  +--> ?PR?_USCI2_ITCONFIG?SC95F_USCI2
  +--> ?PR?_USCI2_SPI_CMD?SC95F_USCI2

_USCI2_SPI_INIT/SC95F_USCI2                   ----- -----  0008H 000EH

_USCI2_ITCONFIG/SC95F_USCI2                   ----- -----  ----- -----

_USCI2_SPI_CMD/SC95F_USCI2                    ----- -----  ----- -----

SC_UART0_INIT/SC_INIT                         ----- -----  ----- -----
  +--> ?PR?_GPIO_INIT?SC95F_GPIO
  +--> ?PR?_UART0_INIT?SC95F_UART0
  +--> ?PR?_UART0_ITCONFIG?SC95F_UART0

_UART0_INIT/SC95F_UART0                       ----- -----  0008H 0012H

_UART0_ITCONFIG/SC95F_UART0                   ----- -----  ----- -----

_USCI2_SPI_SENDDATA_8/SC95F_USCI2             ----- -----  ----- -----

USCI0_SPI_RECEIVEDATA_8/SC95F_USCI0           ----- -----  ----- -----

?CO?MAIN                                      ----- -----  ----- -----

PRINTF/PRINTF                                 20H.0 21H.0  0008H 001BH
  +--> ?PR?_PUTCHAR?MAIN

_PUTCHAR/MAIN                                 ----- -----  001CH 001CH
LX51 LINKER/LOCATER V4.41                                                             02/26/2021  11:38:21  PAGE 7


  +--> ?PR?_UART0_SENDDATA8?SC95F_UART0

_UART0_SENDDATA8/SC95F_UART0                  ----- -----  ----- -----

?C_INITSEG                                    ----- -----  ----- -----



PUBLIC SYMBOLS OF MODULE:  ..\Output\SPI (MAIN)


      VALUE       CLASS    TYPE      PUBLIC SYMBOL NAME
      =================================================
      00000008H   DATA     ---       ?_PRINTF517?BYTE
      00000008H   DATA     ---       ?_PRINTF?BYTE
      00000008H   DATA     ---       ?_SPRINTF517?BYTE
      00000008H   DATA     ---       ?_SPRINTF?BYTE
      00000008H   DATA     BYTE      ?_UART0_Init?BYTE
      00000008H   DATA     BYTE      ?_USCI0_SPI_Init?BYTE
*DEL*:00000000H   DATA     BYTE      ?_USCI0_UART_Init?BYTE
      00000008H   DATA     BYTE      ?_USCI2_SPI_Init?BYTE
*DEL*:00000000H   DATA     BYTE      ?_USCI2_UART_Init?BYTE
      010005A3H   CODE     ---       ?C?CCASE
      01000554H   CODE     ---       ?C?CLDOPTR
      0100053BH   CODE     ---       ?C?CLDPTR
      00000000H   NUMBER   ---       ?C?CODESEG
      01000581H   CODE     ---       ?C?CSTPTR
      01000593H   CODE     ---       ?C?PLDIIDATA
      0100052AH   CODE     ---       ?C?ULCMP
      01000498H   CODE     ---       ?C?ULDIV
      00000000H   NUMBER   ---       ?C?XDATASEG
      010007A8H   CODE     ---       ?C_START
      01000000H   CODE     ---       ?C_STARTUP
      010005C9H   CODE     ---       _GPIO_Init
*DEL*:00000000H   CODE     ---       _GPIO_ReadPin
*DEL*:00000000H   CODE     ---       _GPIO_ReadPort
*DEL*:00000000H   CODE     ---       _GPIO_Write
*DEL*:00000000H   CODE     ---       _GPIO_WriteHigh
*DEL*:00000000H   CODE     ---       _GPIO_WriteLow
*DEL*:00000000H   CODE     ---       _OPTION_ADC_VrefConfig
*DEL*:00000000H   CODE     ---       _OPTION_IAP_SetOperateRange
*DEL*:00000000H   CODE     ---       _OPTION_JTG_Cmd
*DEL*:00000000H   CODE     ---       _OPTION_LVR_Init
*DEL*:00000000H   CODE     ---       _OPTION_RST_PIN_Cmd
*DEL*:00000000H   CODE     ---       _OPTION_SYSCLK_Init
*DEL*:00000000H   CODE     ---       _OPTION_WDT_Cmd
*DEL*:00000000H   CODE     ---       _OPTION_XTIPLL_Cmd
      01000162H   CODE     ---       _PRINTF
      01000162H   CODE     ---       _PRINTF517
      01000AADH   CODE     ---       _putchar
      0100015CH   CODE     ---       _SPRINTF
      0100015CH   CODE     ---       _SPRINTF517
      01000AC4H   CODE     ---       _UART0_ClearFlag
*DEL*:00000000H   CODE     ---       _UART0_GetFlagStatus
      01000691H   CODE     ---       _UART0_Init
      01000A77H   CODE     ---       _UART0_ITConfig
      01000AD5H   CODE     ---       _UART0_SendData8
*DEL*:00000000H   CODE     ---       _UART0_SendData9
      01000A89H   CODE     ---       _USCI0_ClearFlag
      0100098BH   CODE     ---       _USCI0_GetFlagStatus
      01000A13H   CODE     ---       _USCI0_ITConfig
      01000A3FH   CODE     ---       _USCI0_SPI_Cmd
      010009D1H   CODE     ---       _USCI0_SPI_Init
*DEL*:00000000H   CODE     ---       _USCI0_SPI_SendData_16
*DEL*:00000000H   CODE     ---       _USCI0_SPI_SendData_8
LX51 LINKER/LOCATER V4.41                                                             02/26/2021  11:38:21  PAGE 8


*DEL*:00000000H   CODE     ---       _USCI0_TWI_AcknowledgeConfig
*DEL*:00000000H   CODE     ---       _USCI0_TWI_Cmd
*DEL*:00000000H   CODE     ---       _USCI0_TWI_GeneralCallCmd
*DEL*:00000000H   CODE     ---       _USCI0_TWI_MasterCommunicationRate
*DEL*:00000000H   CODE     ---       _USCI0_TWI_SendAddr
*DEL*:00000000H   CODE     ---       _USCI0_TWI_SendData
*DEL*:00000000H   CODE     ---       _USCI0_TWI_Slave_Init
*DEL*:00000000H   CODE     ---       _USCI0_TWI_SlaveClockExtension
*DEL*:00000000H   CODE     ---       _USCI0_UART_Init
*DEL*:00000000H   CODE     ---       _USCI0_UART_SendData8
*DEL*:00000000H   CODE     ---       _USCI0_UART_SendData9
      01000A9BH   CODE     ---       _USCI2_ClearFlag
      010009AEH   CODE     ---       _USCI2_GetFlagStatus
      01000A29H   CODE     ---       _USCI2_ITConfig
      01000A52H   CODE     ---       _USCI2_SPI_Cmd
      010009F2H   CODE     ---       _USCI2_SPI_Init
*DEL*:00000000H   CODE     ---       _USCI2_SPI_SendData_16
      01000ADBH   CODE     ---       _USCI2_SPI_SendData_8
*DEL*:00000000H   CODE     ---       _USCI2_TWI_AcknowledgeConfig
*DEL*:00000000H   CODE     ---       _USCI2_TWI_Cmd
*DEL*:00000000H   CODE     ---       _USCI2_TWI_GeneralCallCmd
*DEL*:00000000H   CODE     ---       _USCI2_TWI_MasterCommunicationRate
*DEL*:00000000H   CODE     ---       _USCI2_TWI_SendAddr
*DEL*:00000000H   CODE     ---       _USCI2_TWI_SendData
*DEL*:00000000H   CODE     ---       _USCI2_TWI_Slave_Init
*DEL*:00000000H   CODE     ---       _USCI2_TWI_SlaveClockExtension
*DEL*:00000000H   CODE     ---       _USCI2_UART_Init
*DEL*:00000000H   CODE     ---       _USCI2_UART_SendData8
*DEL*:00000000H   CODE     ---       _USCI2_UART_SendData9
*SFR* 000000D0H.6 DATA     BIT       AC
*SFR* 000000E0H   DATA     BYTE      ACC
      01000AE7H   CODE     ---       ACMPInterrupt
*SFR* 000000ABH   DATA     BYTE      ADCCFG0
*SFR* 000000ACH   DATA     BYTE      ADCCFG1
*SFR* 000000B5H   DATA     BYTE      ADCCFG2
*SFR* 000000ADH   DATA     BYTE      ADCCON
      01000AE3H   CODE     ---       ADCInterrupt
*SFR* 000000AFH   DATA     BYTE      ADCVH
*SFR* 000000AEH   DATA     BYTE      ADCVL
*SFR* 000000F0H   DATA     BYTE      B
*SFR* 000000FBH   DATA     BYTE      BTMCON
      01000AE5H   CODE     ---       BTMInterrupt
*SFR* 000000B6H   DATA     BYTE      CMPCFG
*SFR* 000000B7H   DATA     BYTE      CMPCON
*SFR* 000000C8H   DATA     BIT       CP
*SFR* 000000FCH   DATA     BYTE      CRCINX
*SFR* 000000FDH   DATA     BYTE      CRCREG
*SFR* 000000D0H.7 DATA     BIT       CY
      0000001DH   DATA     BYTE      DATA
*SFR* 00000093H   DATA     BYTE      DDRCON
*SFR* 00000083H   DATA     BYTE      DPH
*SFR* 00000085H   DATA     BYTE      DPH1
*SFR* 00000082H   DATA     BYTE      DPL
*SFR* 00000084H   DATA     BYTE      DPL1
*SFR* 00000086H   DATA     BYTE      DPS
*SFR* 000000A8H.7 DATA     BIT       EA
*SFR* 000000A8H.6 DATA     BIT       EADC
*SFR* 000000A8H   DATA     BIT       EINT0
*SFR* 000000A8H.2 DATA     BIT       EINT1
*SFR* 000000A8H.1 DATA     BIT       ET0
*SFR* 000000A8H.3 DATA     BIT       ET1
*SFR* 000000A8H.5 DATA     BIT       ET2
*SFR* 000000A8H.4 DATA     BIT       EUART
*SFR* 000000E9H   DATA     BYTE      EXA0
*SFR* 000000EAH   DATA     BYTE      EXA1
LX51 LINKER/LOCATER V4.41                                                             02/26/2021  11:38:21  PAGE 9


*SFR* 000000EBH   DATA     BYTE      EXA2
*SFR* 000000ECH   DATA     BYTE      EXA3
*SFR* 000000F7H   DATA     BYTE      EXADH
*SFR* 000000EEH   DATA     BYTE      EXBH
*SFR* 000000EDH   DATA     BYTE      EXBL
*SFR* 000000C8H.3 DATA     BIT       EXENX
*SFR* 000000C8H.6 DATA     BIT       EXFX
*SFR* 000000D0H.5 DATA     BIT       F0
*SFR* 000000D0H.1 DATA     BIT       F1
*DEL*:00000000H   CODE     ---       GPIO_DeInit
*SFR* 000000F4H   DATA     BYTE      IAPADE
*SFR* 000000F3H   DATA     BYTE      IAPADH
*SFR* 000000F2H   DATA     BYTE      IAPADL
*SFR* 000000F6H   DATA     BYTE      IAPCTL
*SFR* 000000F5H   DATA     BYTE      IAPDAT
*SFR* 000000F1H   DATA     BYTE      IAPKEY
*SFR* 000000A8H   DATA     BYTE      IE
*SFR* 000000A9H   DATA     BYTE      IE1
*SFR* 000000AAH   DATA     BYTE      IE2
*SFR* 000000B4H   DATA     BYTE      INT0F
      01000ACDH   CODE     ---       INT0Interrupt
*SFR* 000000BBH   DATA     BYTE      INT0R
*SFR* 000000BCH   DATA     BYTE      INT1F
      01000AD1H   CODE     ---       INT1Interrupt
*SFR* 000000BDH   DATA     BYTE      INT1R
*SFR* 000000BEH   DATA     BYTE      INT2F
      01000AE6H   CODE     ---       INT2Interrupt
*SFR* 000000BFH   DATA     BYTE      INT2R
*SFR* 00000096H   DATA     BYTE      IOHCON0
*SFR* 00000097H   DATA     BYTE      IOHCON1
*SFR* 000000B8H   DATA     BYTE      IP
*SFR* 000000B9H   DATA     BYTE      IP1
*SFR* 000000BAH   DATA     BYTE      IP2
*SFR* 000000B8H.6 DATA     BIT       IPADC
*SFR* 000000B8H   DATA     BIT       IPINT0
*SFR* 000000B8H.2 DATA     BIT       IPINT1
*SFR* 000000B8H.1 DATA     BIT       IPT0
*SFR* 000000B8H.3 DATA     BIT       IPT1
*SFR* 000000B8H.5 DATA     BIT       IPT2
*SFR* 000000B8H.4 DATA     BIT       IPUART
      01000967H   CODE     ---       main
*SFR* 000000EFH   DATA     BYTE      OPERCON
*SFR* 000000FEH   DATA     BYTE      OPINX
*SFR* 000000FFH   DATA     BYTE      OPREG
*SFR* 0000008FH   DATA     BYTE      OTCON
*SFR* 000000D0H.2 DATA     BIT       OV
*SFR* 000000D0H   DATA     BIT       P
*SFR* 00000080H   DATA     BYTE      P0
*SFR* 00000080H   DATA     BIT       P00
*SFR* 00000080H.1 DATA     BIT       P01
*SFR* 00000080H.2 DATA     BIT       P02
*SFR* 00000080H.3 DATA     BIT       P03
*SFR* 00000080H.4 DATA     BIT       P04
*SFR* 00000080H.5 DATA     BIT       P05
*SFR* 00000080H.6 DATA     BIT       P06
*SFR* 00000080H.7 DATA     BIT       P07
*SFR* 0000009AH   DATA     BYTE      P0CON
*SFR* 0000009BH   DATA     BYTE      P0PH
*SFR* 0000009CH   DATA     BYTE      P0VO
*SFR* 00000090H   DATA     BYTE      P1
*SFR* 00000090H   DATA     BIT       P10
*SFR* 00000090H.1 DATA     BIT       P11
*SFR* 00000090H.2 DATA     BIT       P12
*SFR* 00000090H.3 DATA     BIT       P13
*SFR* 00000090H.4 DATA     BIT       P14
LX51 LINKER/LOCATER V4.41                                                             02/26/2021  11:38:21  PAGE 10


*SFR* 00000090H.5 DATA     BIT       P15
*SFR* 00000090H.6 DATA     BIT       P16
*SFR* 00000090H.7 DATA     BIT       P17
*SFR* 00000091H   DATA     BYTE      P1CON
*SFR* 00000092H   DATA     BYTE      P1PH
*SFR* 00000094H   DATA     BYTE      P1VO
*SFR* 000000A0H   DATA     BYTE      P2
*SFR* 000000A0H   DATA     BIT       P20
*SFR* 000000A0H.1 DATA     BIT       P21
*SFR* 000000A0H.2 DATA     BIT       P22
*SFR* 000000A0H.3 DATA     BIT       P23
*SFR* 000000A0H.4 DATA     BIT       P24
*SFR* 000000A0H.5 DATA     BIT       P25
*SFR* 000000A0H.6 DATA     BIT       P26
*SFR* 000000A0H.7 DATA     BIT       P27
*SFR* 000000A1H   DATA     BYTE      P2CON
*SFR* 000000A2H   DATA     BYTE      P2PH
*SFR* 000000A3H   DATA     BYTE      P2VO
*SFR* 000000B0H   DATA     BYTE      P3
*SFR* 000000B0H   DATA     BIT       P30
*SFR* 000000B0H.1 DATA     BIT       P31
*SFR* 000000B0H.2 DATA     BIT       P32
*SFR* 000000B0H.3 DATA     BIT       P33
*SFR* 000000B0H.4 DATA     BIT       P34
*SFR* 000000B0H.5 DATA     BIT       P35
*SFR* 000000B0H.6 DATA     BIT       P36
*SFR* 000000B0H.7 DATA     BIT       P37
*SFR* 000000B1H   DATA     BYTE      P3CON
*SFR* 000000B2H   DATA     BYTE      P3PH
*SFR* 000000B3H   DATA     BYTE      P3VO
*SFR* 000000C0H   DATA     BYTE      P4
*SFR* 000000C0H   DATA     BIT       P40
*SFR* 000000C0H.1 DATA     BIT       P41
*SFR* 000000C0H.2 DATA     BIT       P42
*SFR* 000000C0H.3 DATA     BIT       P43
*SFR* 000000C0H.4 DATA     BIT       P44
*SFR* 000000C0H.5 DATA     BIT       P45
*SFR* 000000C0H.6 DATA     BIT       P46
*SFR* 000000C0H.7 DATA     BIT       P47
*SFR* 000000C1H   DATA     BYTE      P4CON
*SFR* 000000C2H   DATA     BYTE      P4PH
*SFR* 000000D8H   DATA     BYTE      P5
*SFR* 000000D8H   DATA     BIT       P50
*SFR* 000000D8H.1 DATA     BIT       P51
*SFR* 000000D8H.2 DATA     BIT       P52
*SFR* 000000D8H.3 DATA     BIT       P53
*SFR* 000000D8H.4 DATA     BIT       P54
*SFR* 000000D8H.5 DATA     BIT       P55
*SFR* 000000D9H   DATA     BYTE      P5CON
*SFR* 000000DAH   DATA     BYTE      P5PH
*SFR* 00000087H   DATA     BYTE      PCON
*SFR* 000000D0H   DATA     BYTE      PSW
*SFR* 000000D4H   DATA     BYTE      PWMCFG
*SFR* 000000D3H   DATA     BYTE      PWMCON
*SFR* 000000D5H   DATA     BYTE      PWMDFR
*SFR* 000000D6H   DATA     BYTE      PWMFLT
      01000AE4H   CODE     ---       PWMInterrupt
*SFR* 000000D7H   DATA     BYTE      PWMMOD
*SFR* 00000098H.2 DATA     BIT       RB8
*SFR* 000000CBH   DATA     BYTE      RCAPXH
*SFR* 000000CAH   DATA     BYTE      RCAPXL
*SFR* 000000C8H.5 DATA     BIT       RCLKX
*SFR* 00000098H.4 DATA     BIT       REN
*SFR* 00000098H   DATA     BIT       RI
*SFR* 000000D0H.3 DATA     BIT       RS0
LX51 LINKER/LOCATER V4.41                                                             02/26/2021  11:38:21  PAGE 11


*SFR* 000000D0H.4 DATA     BIT       RS1
*SFR* 00000099H   DATA     BYTE      SBUF
*DEL*:00000000H   CODE     ---       SC_ACMP_Init
*DEL*:00000000H   CODE     ---       SC_ADC_Init
*DEL*:00000000H   CODE     ---       SC_BTM_Init
*DEL*:00000000H   CODE     ---       SC_CRC_Init
*DEL*:00000000H   CODE     ---       SC_DDIC_Init
      01000ADFH   CODE     ---       SC_GPIO_Init
*DEL*:00000000H   CODE     ---       SC_IAP_Init
      01000A65H   CODE     ---       SC_Init
*DEL*:00000000H   CODE     ---       SC_INT_Init
*DEL*:00000000H   CODE     ---       SC_MDU_Init
      01000ADEH   CODE     ---       SC_OPTION_Init
*DEL*:00000000H   CODE     ---       SC_PWM_Init
*DEL*:00000000H   CODE     ---       SC_PWR_Init
*DEL*:00000000H   CODE     ---       SC_TIM0_Init
*DEL*:00000000H   CODE     ---       SC_TIM1_Init
*DEL*:00000000H   CODE     ---       SC_TIM2_Init
*DEL*:00000000H   CODE     ---       SC_TIM3_Init
*DEL*:00000000H   CODE     ---       SC_TIM4_Init
      010008D4H   CODE     ---       SC_UART0_Init
      01000939H   CODE     ---       SC_USCI0_Init
*DEL*:00000000H   CODE     ---       SC_USCI1_Init
      0100090AH   CODE     ---       SC_USCI2_Init
*DEL*:00000000H   CODE     ---       SC_WDT_Init
*SFR* 00000098H   DATA     BYTE      SCON
*SFR* 00000098H.7 DATA     BIT       SM0
*SFR* 00000098H.6 DATA     BIT       SM1
*SFR* 00000098H.5 DATA     BIT       SM2
*SFR* 00000081H   DATA     BYTE      SP
      00000021H.2 BIT      BIT       SPIFLG0
      00000021H.3 BIT      BIT       SPIFLG2
*SFR* 00000098H.3 DATA     BIT       TB8
*SFR* 000000C8H.4 DATA     BIT       TCLKX
*SFR* 00000088H   DATA     BYTE      TCON
*SFR* 00000088H.5 DATA     BIT       TF0
*SFR* 00000088H.7 DATA     BIT       TF1
*SFR* 000000C8H.7 DATA     BIT       TFX
*SFR* 0000008CH   DATA     BYTE      TH0
*SFR* 0000008DH   DATA     BYTE      TH1
*SFR* 000000CDH   DATA     BYTE      THX
*SFR* 00000098H.1 DATA     BIT       TI
      01000AE0H   CODE     ---       Timer0Interrupt
      01000AE1H   CODE     ---       Timer1Interrupt
      01000AE2H   CODE     ---       Timer2Interrupt
      01000AE8H   CODE     ---       Timer3Interrupt
      01000AE9H   CODE     ---       Timer4Interrupt
*SFR* 0000008AH   DATA     BYTE      TL0
*SFR* 0000008BH   DATA     BYTE      TL1
*SFR* 000000CCH   DATA     BYTE      TLX
*SFR* 0000008EH   DATA     BYTE      TMCON
*SFR* 00000089H   DATA     BYTE      TMOD
*SFR* 00000088H.4 DATA     BIT       TR0
*SFR* 00000088H.6 DATA     BIT       TR1
*SFR* 000000C8H.2 DATA     BIT       TRX
*SFR* 000000C8H.1 DATA     BIT       TX
*SFR* 000000C8H   DATA     BYTE      TXCON
*SFR* 000000CEH   DATA     BYTE      TXINX
*SFR* 000000C9H   DATA     BYTE      TXMOD
*DEL*:00000000H   CODE     ---       UART0_DeInit
*DEL*:00000000H   CODE     ---       UART0_ReceiveData8
*DEL*:00000000H   CODE     ---       UART0_ReceiveData9
      01000895H   CODE     ---       UART0Interrupt
      00000021H.1 BIT      BIT       Uart0SendFlag
*SFR* 00000095H   DATA     BYTE      US0CON0
LX51 LINKER/LOCATER V4.41                                                             02/26/2021  11:38:21  PAGE 12


*SFR* 0000009DH   DATA     BYTE      US0CON1
*SFR* 0000009EH   DATA     BYTE      US0CON2
*SFR* 0000009FH   DATA     BYTE      US0CON3
*SFR* 000000A4H   DATA     BYTE      US1CON0
*SFR* 000000A5H   DATA     BYTE      US1CON1
*SFR* 000000A6H   DATA     BYTE      US1CON2
*SFR* 000000A7H   DATA     BYTE      US1CON3
*SFR* 000000C4H   DATA     BYTE      US2CON0
*SFR* 000000C5H   DATA     BYTE      US2CON1
*SFR* 000000C6H   DATA     BYTE      US2CON2
*SFR* 000000C7H   DATA     BYTE      US2CON3
*DEL*:00000000H   CODE     ---       USCI0_DeInit
*DEL*:00000000H   CODE     ---       USCI0_SPI_ReceiveData_16
      01000AD8H   CODE     ---       USCI0_SPI_ReceiveData_8
*DEL*:00000000H   CODE     ---       USCI0_TWI_MasterModeStop
*DEL*:00000000H   CODE     ---       USCI0_TWI_ReceiveData
*DEL*:00000000H   CODE     ---       USCI0_TWI_Start
*DEL*:00000000H   CODE     ---       USCI0_UART_ReceiveData8
*DEL*:00000000H   CODE     ---       USCI0_UART_ReceiveData9
      010007EDH   CODE     ---       USCI0Interrupt
      01000AEAH   CODE     ---       USCI1Interrupt
*DEL*:00000000H   CODE     ---       USCI2_DeInit
*DEL*:00000000H   CODE     ---       USCI2_SPI_ReceiveData_16
*DEL*:00000000H   CODE     ---       USCI2_SPI_ReceiveData_8
*DEL*:00000000H   CODE     ---       USCI2_TWI_MasterModeStop
*DEL*:00000000H   CODE     ---       USCI2_TWI_ReceiveData
*DEL*:00000000H   CODE     ---       USCI2_TWI_Start
*DEL*:00000000H   CODE     ---       USCI2_UART_ReceiveData8
*DEL*:00000000H   CODE     ---       USCI2_UART_ReceiveData9
      01000841H   CODE     ---       USCI2Interrupt
*SFR* 000000CFH   DATA     BYTE      WDTCON



SYMBOL TABLE OF MODULE:  ..\Output\SPI (MAIN)

      VALUE       REP       CLASS    TYPE      SYMBOL NAME
      ====================================================
      ---         MODULE    ---      ---       MAIN
      00000021H.3 PUBLIC    BIT      BIT       SPIFLG2
      00000021H.2 PUBLIC    BIT      BIT       SPIFLG0
      00000021H.1 PUBLIC    BIT      BIT       Uart0SendFlag
      0000001DH   PUBLIC    DATA     BYTE      DATA
      01000967H   PUBLIC    CODE     ---       main
      01000AADH   PUBLIC    CODE     ---       _putchar
      000000C8H.2 SFRSYM    DATA     BIT       TRX
      000000FFH   SFRSYM    DATA     BYTE      OPREG
      00000080H   SFRSYM    DATA     BYTE      P0
      00000090H   SFRSYM    DATA     BYTE      P1
      000000A0H   SFRSYM    DATA     BYTE      P2
      000000A8H.4 SFRSYM    DATA     BIT       EUART
      0000008EH   SFRSYM    DATA     BYTE      TMCON
      000000B0H   SFRSYM    DATA     BYTE      P3
      000000D0H.6 SFRSYM    DATA     BIT       AC
      000000C0H   SFRSYM    DATA     BYTE      P4
      0000008FH   SFRSYM    DATA     BYTE      OTCON
      000000D8H   SFRSYM    DATA     BYTE      P5
      000000A8H.7 SFRSYM    DATA     BIT       EA
      000000C8H.5 SFRSYM    DATA     BIT       RCLKX
      000000C8H.4 SFRSYM    DATA     BIT       TCLKX
      000000C8H.3 SFRSYM    DATA     BIT       EXENX
      000000A8H.6 SFRSYM    DATA     BIT       EADC
      000000C9H   SFRSYM    DATA     BYTE      TXMOD
      000000C8H   SFRSYM    DATA     BYTE      TXCON
      000000A8H   SFRSYM    DATA     BYTE      IE
LX51 LINKER/LOCATER V4.41                                                             02/26/2021  11:38:21  PAGE 13


      00000085H   SFRSYM    DATA     BYTE      DPH1
      000000E9H   SFRSYM    DATA     BYTE      EXA0
      000000EAH   SFRSYM    DATA     BYTE      EXA1
      000000FEH   SFRSYM    DATA     BYTE      OPINX
      000000EBH   SFRSYM    DATA     BYTE      EXA2
      000000ECH   SFRSYM    DATA     BYTE      EXA3
      00000084H   SFRSYM    DATA     BYTE      DPL1
      000000C8H   SFRSYM    DATA     BIT       CP
      000000EFH   SFRSYM    DATA     BYTE      OPERCON
      0000009BH   SFRSYM    DATA     BYTE      P0PH
      000000B8H   SFRSYM    DATA     BYTE      IP
      00000092H   SFRSYM    DATA     BYTE      P1PH
      00000098H   SFRSYM    DATA     BIT       RI
      000000A2H   SFRSYM    DATA     BYTE      P2PH
      000000D0H.7 SFRSYM    DATA     BIT       CY
      000000B2H   SFRSYM    DATA     BYTE      P3PH
      00000098H.1 SFRSYM    DATA     BIT       TI
      000000CEH   SFRSYM    DATA     BYTE      TXINX
      000000C2H   SFRSYM    DATA     BYTE      P4PH
      000000B8H.1 SFRSYM    DATA     BIT       IPT0
      000000DAH   SFRSYM    DATA     BYTE      P5PH
      000000B8H.3 SFRSYM    DATA     BIT       IPT1
      000000B8H.5 SFRSYM    DATA     BIT       IPT2
      00000081H   SFRSYM    DATA     BYTE      SP
      000000D0H.2 SFRSYM    DATA     BIT       OV
      000000F4H   SFRSYM    DATA     BYTE      IAPADE
      0000009CH   SFRSYM    DATA     BYTE      P0VO
      00000094H   SFRSYM    DATA     BYTE      P1VO
      000000EEH   SFRSYM    DATA     BYTE      EXBH
      000000A3H   SFRSYM    DATA     BYTE      P2VO
      000000F3H   SFRSYM    DATA     BYTE      IAPADH
      000000B3H   SFRSYM    DATA     BYTE      P3VO
      000000ADH   SFRSYM    DATA     BYTE      ADCCON
      000000C8H.1 SFRSYM    DATA     BIT       TX
      000000EDH   SFRSYM    DATA     BYTE      EXBL
      000000F2H   SFRSYM    DATA     BYTE      IAPADL
      00000080H   SFRSYM    DATA     BIT       P00
      00000090H   SFRSYM    DATA     BIT       P10
      00000080H.1 SFRSYM    DATA     BIT       P01
      00000099H   SFRSYM    DATA     BYTE      SBUF
      00000087H   SFRSYM    DATA     BYTE      PCON
      000000A0H   SFRSYM    DATA     BIT       P20
      00000090H.1 SFRSYM    DATA     BIT       P11
      00000080H.2 SFRSYM    DATA     BIT       P02
      000000B6H   SFRSYM    DATA     BYTE      CMPCFG
      000000B0H   SFRSYM    DATA     BIT       P30
      000000A0H.1 SFRSYM    DATA     BIT       P21
      00000090H.2 SFRSYM    DATA     BIT       P12
      00000080H.3 SFRSYM    DATA     BIT       P03
      000000C0H   SFRSYM    DATA     BIT       P40
      000000B0H.1 SFRSYM    DATA     BIT       P31
      000000A0H.2 SFRSYM    DATA     BIT       P22
      00000090H.3 SFRSYM    DATA     BIT       P13
      00000080H.4 SFRSYM    DATA     BIT       P04
      00000098H   SFRSYM    DATA     BYTE      SCON
      000000D8H   SFRSYM    DATA     BIT       P50
      000000C0H.1 SFRSYM    DATA     BIT       P41
      000000B0H.2 SFRSYM    DATA     BIT       P32
      000000A0H.3 SFRSYM    DATA     BIT       P23
      00000090H.4 SFRSYM    DATA     BIT       P14
      00000080H.5 SFRSYM    DATA     BIT       P05
      000000F5H   SFRSYM    DATA     BYTE      IAPDAT
      00000088H   SFRSYM    DATA     BYTE      TCON
      00000089H   SFRSYM    DATA     BYTE      TMOD
      000000D8H.1 SFRSYM    DATA     BIT       P51
LX51 LINKER/LOCATER V4.41                                                             02/26/2021  11:38:21  PAGE 14


      000000C0H.2 SFRSYM    DATA     BIT       P42
      000000B0H.3 SFRSYM    DATA     BIT       P33
      000000A0H.4 SFRSYM    DATA     BIT       P24
      00000090H.5 SFRSYM    DATA     BIT       P15
      00000080H.6 SFRSYM    DATA     BIT       P06
      000000B8H   SFRSYM    DATA     BIT       IPINT0
      000000D8H.2 SFRSYM    DATA     BIT       P52
      000000C0H.3 SFRSYM    DATA     BIT       P43
      000000B0H.4 SFRSYM    DATA     BIT       P34
      000000A0H.5 SFRSYM    DATA     BIT       P25
      00000090H.6 SFRSYM    DATA     BIT       P16
      00000080H.7 SFRSYM    DATA     BIT       P07
      000000B8H.2 SFRSYM    DATA     BIT       IPINT1
      000000D8H.3 SFRSYM    DATA     BIT       P53
      000000C0H.4 SFRSYM    DATA     BIT       P44
      000000B0H.5 SFRSYM    DATA     BIT       P35
      000000A0H.6 SFRSYM    DATA     BIT       P26
      00000090H.7 SFRSYM    DATA     BIT       P17
      000000FDH   SFRSYM    DATA     BYTE      CRCREG
      000000D8H.4 SFRSYM    DATA     BIT       P54
      000000C0H.5 SFRSYM    DATA     BIT       P45
      000000B0H.6 SFRSYM    DATA     BIT       P36
      000000A0H.7 SFRSYM    DATA     BIT       P27
      000000D8H.5 SFRSYM    DATA     BIT       P55
      000000C0H.6 SFRSYM    DATA     BIT       P46
      000000B0H.7 SFRSYM    DATA     BIT       P37
      000000C0H.7 SFRSYM    DATA     BIT       P47
      000000C8H.6 SFRSYM    DATA     BIT       EXFX
      00000093H   SFRSYM    DATA     BYTE      DDRCON
      000000F6H   SFRSYM    DATA     BYTE      IAPCTL
      000000A9H   SFRSYM    DATA     BYTE      IE1
      000000AAH   SFRSYM    DATA     BYTE      IE2
      000000F0H   SFRSYM    DATA     BYTE      B
      000000B7H   SFRSYM    DATA     BYTE      CMPCON
      000000F1H   SFRSYM    DATA     BYTE      IAPKEY
      000000FBH   SFRSYM    DATA     BYTE      BTMCON
      000000D4H   SFRSYM    DATA     BYTE      PWMCFG
      000000E0H   SFRSYM    DATA     BYTE      ACC
      000000CBH   SFRSYM    DATA     BYTE      RCAPXH
      000000A8H.1 SFRSYM    DATA     BIT       ET0
      000000FCH   SFRSYM    DATA     BYTE      CRCINX
      00000088H.5 SFRSYM    DATA     BIT       TF0
      000000A8H.3 SFRSYM    DATA     BIT       ET1
      000000ABH   SFRSYM    DATA     BYTE      ADCCFG0
      000000B9H   SFRSYM    DATA     BYTE      IP1
      00000088H.7 SFRSYM    DATA     BIT       TF1
      000000A8H.5 SFRSYM    DATA     BIT       ET2
      000000ACH   SFRSYM    DATA     BYTE      ADCCFG1
      000000BAH   SFRSYM    DATA     BYTE      IP2
      00000098H.2 SFRSYM    DATA     BIT       RB8
      000000B5H   SFRSYM    DATA     BYTE      ADCCFG2
      000000CAH   SFRSYM    DATA     BYTE      RCAPXL
      0000008CH   SFRSYM    DATA     BYTE      TH0
      0000008DH   SFRSYM    DATA     BYTE      TH1
      00000098H.3 SFRSYM    DATA     BIT       TB8
      000000D0H   SFRSYM    DATA     BIT       P
      00000098H.7 SFRSYM    DATA     BIT       SM0
      0000008AH   SFRSYM    DATA     BYTE      TL0
      00000098H.6 SFRSYM    DATA     BIT       SM1
      000000CFH   SFRSYM    DATA     BYTE      WDTCON
      0000008BH   SFRSYM    DATA     BYTE      TL1
      00000098H.5 SFRSYM    DATA     BIT       SM2
      000000D5H   SFRSYM    DATA     BYTE      PWMDFR
      000000D0H.3 SFRSYM    DATA     BIT       RS0
      00000088H.4 SFRSYM    DATA     BIT       TR0
LX51 LINKER/LOCATER V4.41                                                             02/26/2021  11:38:21  PAGE 15


      000000D0H.4 SFRSYM    DATA     BIT       RS1
      000000D3H   SFRSYM    DATA     BYTE      PWMCON
      000000D7H   SFRSYM    DATA     BYTE      PWMMOD
      00000088H.6 SFRSYM    DATA     BIT       TR1
      000000B8H.4 SFRSYM    DATA     BIT       IPUART
      000000D6H   SFRSYM    DATA     BYTE      PWMFLT
      00000083H   SFRSYM    DATA     BYTE      DPH
      00000082H   SFRSYM    DATA     BYTE      DPL
      000000A8H   SFRSYM    DATA     BIT       EINT0
      0000009AH   SFRSYM    DATA     BYTE      P0CON
      000000A8H.2 SFRSYM    DATA     BIT       EINT1
      000000B8H.6 SFRSYM    DATA     BIT       IPADC
      000000B4H   SFRSYM    DATA     BYTE      INT0F
      00000091H   SFRSYM    DATA     BYTE      P1CON
      000000BCH   SFRSYM    DATA     BYTE      INT1F
      000000A1H   SFRSYM    DATA     BYTE      P2CON
      000000BEH   SFRSYM    DATA     BYTE      INT2F
      000000B1H   SFRSYM    DATA     BYTE      P3CON
      00000098H.4 SFRSYM    DATA     BIT       REN
      000000C1H   SFRSYM    DATA     BYTE      P4CON
      000000D9H   SFRSYM    DATA     BYTE      P5CON
      000000AFH   SFRSYM    DATA     BYTE      ADCVH
      00000086H   SFRSYM    DATA     BYTE      DPS
      00000095H   SFRSYM    DATA     BYTE      US0CON0
      000000F7H   SFRSYM    DATA     BYTE      EXADH
      000000A4H   SFRSYM    DATA     BYTE      US1CON0
      0000009DH   SFRSYM    DATA     BYTE      US0CON1
      000000AEH   SFRSYM    DATA     BYTE      ADCVL
      000000C4H   SFRSYM    DATA     BYTE      US2CON0
      000000A5H   SFRSYM    DATA     BYTE      US1CON1
      0000009EH   SFRSYM    DATA     BYTE      US0CON2
      000000C5H   SFRSYM    DATA     BYTE      US2CON1
      000000A6H   SFRSYM    DATA     BYTE      US1CON2
      0000009FH   SFRSYM    DATA     BYTE      US0CON3
      000000C6H   SFRSYM    DATA     BYTE      US2CON2
      000000A7H   SFRSYM    DATA     BYTE      US1CON3
      000000BBH   SFRSYM    DATA     BYTE      INT0R
      000000C7H   SFRSYM    DATA     BYTE      US2CON3
      000000BDH   SFRSYM    DATA     BYTE      INT1R
      000000BFH   SFRSYM    DATA     BYTE      INT2R
      000000C8H.7 SFRSYM    DATA     BIT       TFX
      00000096H   SFRSYM    DATA     BYTE      IOHCON0
      00000097H   SFRSYM    DATA     BYTE      IOHCON1
      000000CDH   SFRSYM    DATA     BYTE      THX
      000000D0H.5 SFRSYM    DATA     BIT       F0
      000000D0H.1 SFRSYM    DATA     BIT       F1
      000000CCH   SFRSYM    DATA     BYTE      TLX
      000000D0H   SFRSYM    DATA     BYTE      PSW

      01000AADH   BLOCK     CODE     ---       LVL=0
      0000001CH   SYMBOL    DATA     CHAR      c
      01000AADH   LINE      CODE     ---       #14
      01000AAFH   LINE      CODE     ---       #15
      01000AAFH   LINE      CODE     ---       #16
      01000AB2H   LINE      CODE     ---       #17
      01000AB5H   LINE      CODE     ---       #18
      01000AB7H   LINE      CODE     ---       #19
      01000AB9H   LINE      CODE     ---       #20
      ---         BLOCKEND  ---      ---       LVL=0

      01000967H   BLOCK     CODE     ---       LVL=0
      01000967H   LINE      CODE     ---       #51
      01000967H   LINE      CODE     ---       #52
      01000967H   LINE      CODE     ---       #56
      0100096AH   LINE      CODE     ---       #58
LX51 LINKER/LOCATER V4.41                                                             02/26/2021  11:38:21  PAGE 16


      0100096AH   LINE      CODE     ---       #59
      0100096AH   LINE      CODE     ---       #61
      0100096FH   LINE      CODE     ---       #62
      01000972H   LINE      CODE     ---       #63
      01000974H   LINE      CODE     ---       #67
      01000976H   LINE      CODE     ---       #68
      0100097BH   LINE      CODE     ---       #69
      01000989H   LINE      CODE     ---       #71
      ---         BLOCKEND  ---      ---       LVL=0

      ---         MODULE    ---      ---       SC_INIT
      0100090AH   PUBLIC    CODE     ---       SC_USCI2_Init
      01000939H   PUBLIC    CODE     ---       SC_USCI0_Init
      010008D4H   PUBLIC    CODE     ---       SC_UART0_Init
      01000ADFH   PUBLIC    CODE     ---       SC_GPIO_Init
      01000ADEH   PUBLIC    CODE     ---       SC_OPTION_Init
      01000A65H   PUBLIC    CODE     ---       SC_Init
      000000C8H.2 SFRSYM    DATA     BIT       TRX
      000000FFH   SFRSYM    DATA     BYTE      OPREG
      00000080H   SFRSYM    DATA     BYTE      P0
      00000090H   SFRSYM    DATA     BYTE      P1
      000000A0H   SFRSYM    DATA     BYTE      P2
      000000A8H.4 SFRSYM    DATA     BIT       EUART
      0000008EH   SFRSYM    DATA     BYTE      TMCON
      000000B0H   SFRSYM    DATA     BYTE      P3
      000000D0H.6 SFRSYM    DATA     BIT       AC
      000000C0H   SFRSYM    DATA     BYTE      P4
      0000008FH   SFRSYM    DATA     BYTE      OTCON
      000000D8H   SFRSYM    DATA     BYTE      P5
      000000A8H.7 SFRSYM    DATA     BIT       EA
      000000C8H.5 SFRSYM    DATA     BIT       RCLKX
      000000C8H.4 SFRSYM    DATA     BIT       TCLKX
      000000C8H.3 SFRSYM    DATA     BIT       EXENX
      000000A8H.6 SFRSYM    DATA     BIT       EADC
      000000C9H   SFRSYM    DATA     BYTE      TXMOD
      000000C8H   SFRSYM    DATA     BYTE      TXCON
      000000A8H   SFRSYM    DATA     BYTE      IE
      00000085H   SFRSYM    DATA     BYTE      DPH1
      000000E9H   SFRSYM    DATA     BYTE      EXA0
      000000EAH   SFRSYM    DATA     BYTE      EXA1
      000000FEH   SFRSYM    DATA     BYTE      OPINX
      000000EBH   SFRSYM    DATA     BYTE      EXA2
      000000ECH   SFRSYM    DATA     BYTE      EXA3
      00000084H   SFRSYM    DATA     BYTE      DPL1
      000000C8H   SFRSYM    DATA     BIT       CP
      000000EFH   SFRSYM    DATA     BYTE      OPERCON
      0000009BH   SFRSYM    DATA     BYTE      P0PH
      000000B8H   SFRSYM    DATA     BYTE      IP
      00000092H   SFRSYM    DATA     BYTE      P1PH
      00000098H   SFRSYM    DATA     BIT       RI
      000000A2H   SFRSYM    DATA     BYTE      P2PH
      000000D0H.7 SFRSYM    DATA     BIT       CY
      000000B2H   SFRSYM    DATA     BYTE      P3PH
      00000098H.1 SFRSYM    DATA     BIT       TI
      000000CEH   SFRSYM    DATA     BYTE      TXINX
      000000C2H   SFRSYM    DATA     BYTE      P4PH
      000000B8H.1 SFRSYM    DATA     BIT       IPT0
      000000DAH   SFRSYM    DATA     BYTE      P5PH
      000000B8H.3 SFRSYM    DATA     BIT       IPT1
      000000B8H.5 SFRSYM    DATA     BIT       IPT2
      00000081H   SFRSYM    DATA     BYTE      SP
      000000D0H.2 SFRSYM    DATA     BIT       OV
      000000F4H   SFRSYM    DATA     BYTE      IAPADE
      0000009CH   SFRSYM    DATA     BYTE      P0VO
      00000094H   SFRSYM    DATA     BYTE      P1VO
LX51 LINKER/LOCATER V4.41                                                             02/26/2021  11:38:21  PAGE 17


      000000EEH   SFRSYM    DATA     BYTE      EXBH
      000000A3H   SFRSYM    DATA     BYTE      P2VO
      000000F3H   SFRSYM    DATA     BYTE      IAPADH
      000000B3H   SFRSYM    DATA     BYTE      P3VO
      000000ADH   SFRSYM    DATA     BYTE      ADCCON
      000000C8H.1 SFRSYM    DATA     BIT       TX
      000000EDH   SFRSYM    DATA     BYTE      EXBL
      000000F2H   SFRSYM    DATA     BYTE      IAPADL
      00000080H   SFRSYM    DATA     BIT       P00
      00000090H   SFRSYM    DATA     BIT       P10
      00000080H.1 SFRSYM    DATA     BIT       P01
      00000099H   SFRSYM    DATA     BYTE      SBUF
      00000087H   SFRSYM    DATA     BYTE      PCON
      000000A0H   SFRSYM    DATA     BIT       P20
      00000090H.1 SFRSYM    DATA     BIT       P11
      00000080H.2 SFRSYM    DATA     BIT       P02
      000000B6H   SFRSYM    DATA     BYTE      CMPCFG
      000000B0H   SFRSYM    DATA     BIT       P30
      000000A0H.1 SFRSYM    DATA     BIT       P21
      00000090H.2 SFRSYM    DATA     BIT       P12
      00000080H.3 SFRSYM    DATA     BIT       P03
      000000C0H   SFRSYM    DATA     BIT       P40
      000000B0H.1 SFRSYM    DATA     BIT       P31
      000000A0H.2 SFRSYM    DATA     BIT       P22
      00000090H.3 SFRSYM    DATA     BIT       P13
      00000080H.4 SFRSYM    DATA     BIT       P04
      00000098H   SFRSYM    DATA     BYTE      SCON
      000000D8H   SFRSYM    DATA     BIT       P50
      000000C0H.1 SFRSYM    DATA     BIT       P41
      000000B0H.2 SFRSYM    DATA     BIT       P32
      000000A0H.3 SFRSYM    DATA     BIT       P23
      00000090H.4 SFRSYM    DATA     BIT       P14
      00000080H.5 SFRSYM    DATA     BIT       P05
      000000F5H   SFRSYM    DATA     BYTE      IAPDAT
      00000088H   SFRSYM    DATA     BYTE      TCON
      00000089H   SFRSYM    DATA     BYTE      TMOD
      000000D8H.1 SFRSYM    DATA     BIT       P51
      000000C0H.2 SFRSYM    DATA     BIT       P42
      000000B0H.3 SFRSYM    DATA     BIT       P33
      000000A0H.4 SFRSYM    DATA     BIT       P24
      00000090H.5 SFRSYM    DATA     BIT       P15
      00000080H.6 SFRSYM    DATA     BIT       P06
      000000B8H   SFRSYM    DATA     BIT       IPINT0
      000000D8H.2 SFRSYM    DATA     BIT       P52
      000000C0H.3 SFRSYM    DATA     BIT       P43
      000000B0H.4 SFRSYM    DATA     BIT       P34
      000000A0H.5 SFRSYM    DATA     BIT       P25
      00000090H.6 SFRSYM    DATA     BIT       P16
      00000080H.7 SFRSYM    DATA     BIT       P07
      000000B8H.2 SFRSYM    DATA     BIT       IPINT1
      000000D8H.3 SFRSYM    DATA     BIT       P53
      000000C0H.4 SFRSYM    DATA     BIT       P44
      000000B0H.5 SFRSYM    DATA     BIT       P35
      000000A0H.6 SFRSYM    DATA     BIT       P26
      00000090H.7 SFRSYM    DATA     BIT       P17
      000000FDH   SFRSYM    DATA     BYTE      CRCREG
      000000D8H.4 SFRSYM    DATA     BIT       P54
      000000C0H.5 SFRSYM    DATA     BIT       P45
      000000B0H.6 SFRSYM    DATA     BIT       P36
      000000A0H.7 SFRSYM    DATA     BIT       P27
      000000D8H.5 SFRSYM    DATA     BIT       P55
      000000C0H.6 SFRSYM    DATA     BIT       P46
      000000B0H.7 SFRSYM    DATA     BIT       P37
      000000C0H.7 SFRSYM    DATA     BIT       P47
      000000C8H.6 SFRSYM    DATA     BIT       EXFX
LX51 LINKER/LOCATER V4.41                                                             02/26/2021  11:38:21  PAGE 18


      00000093H   SFRSYM    DATA     BYTE      DDRCON
      000000F6H   SFRSYM    DATA     BYTE      IAPCTL
      000000A9H   SFRSYM    DATA     BYTE      IE1
      000000AAH   SFRSYM    DATA     BYTE      IE2
      000000F0H   SFRSYM    DATA     BYTE      B
      000000B7H   SFRSYM    DATA     BYTE      CMPCON
      000000F1H   SFRSYM    DATA     BYTE      IAPKEY
      000000FBH   SFRSYM    DATA     BYTE      BTMCON
      000000D4H   SFRSYM    DATA     BYTE      PWMCFG
      000000E0H   SFRSYM    DATA     BYTE      ACC
      000000CBH   SFRSYM    DATA     BYTE      RCAPXH
      000000A8H.1 SFRSYM    DATA     BIT       ET0
      000000FCH   SFRSYM    DATA     BYTE      CRCINX
      00000088H.5 SFRSYM    DATA     BIT       TF0
      000000A8H.3 SFRSYM    DATA     BIT       ET1
      000000ABH   SFRSYM    DATA     BYTE      ADCCFG0
      000000B9H   SFRSYM    DATA     BYTE      IP1
      00000088H.7 SFRSYM    DATA     BIT       TF1
      000000A8H.5 SFRSYM    DATA     BIT       ET2
      000000ACH   SFRSYM    DATA     BYTE      ADCCFG1
      000000BAH   SFRSYM    DATA     BYTE      IP2
      00000098H.2 SFRSYM    DATA     BIT       RB8
      000000B5H   SFRSYM    DATA     BYTE      ADCCFG2
      000000CAH   SFRSYM    DATA     BYTE      RCAPXL
      0000008CH   SFRSYM    DATA     BYTE      TH0
      0000008DH   SFRSYM    DATA     BYTE      TH1
      00000098H.3 SFRSYM    DATA     BIT       TB8
      000000D0H   SFRSYM    DATA     BIT       P
      00000098H.7 SFRSYM    DATA     BIT       SM0
      0000008AH   SFRSYM    DATA     BYTE      TL0
      00000098H.6 SFRSYM    DATA     BIT       SM1
      000000CFH   SFRSYM    DATA     BYTE      WDTCON
      0000008BH   SFRSYM    DATA     BYTE      TL1
      00000098H.5 SFRSYM    DATA     BIT       SM2
      000000D5H   SFRSYM    DATA     BYTE      PWMDFR
      000000D0H.3 SFRSYM    DATA     BIT       RS0
      00000088H.4 SFRSYM    DATA     BIT       TR0
      000000D0H.4 SFRSYM    DATA     BIT       RS1
      000000D3H   SFRSYM    DATA     BYTE      PWMCON
      000000D7H   SFRSYM    DATA     BYTE      PWMMOD
      00000088H.6 SFRSYM    DATA     BIT       TR1
      000000B8H.4 SFRSYM    DATA     BIT       IPUART
      000000D6H   SFRSYM    DATA     BYTE      PWMFLT
      00000083H   SFRSYM    DATA     BYTE      DPH
      00000082H   SFRSYM    DATA     BYTE      DPL
      000000A8H   SFRSYM    DATA     BIT       EINT0
      0000009AH   SFRSYM    DATA     BYTE      P0CON
      000000A8H.2 SFRSYM    DATA     BIT       EINT1
      000000B8H.6 SFRSYM    DATA     BIT       IPADC
      000000B4H   SFRSYM    DATA     BYTE      INT0F
      00000091H   SFRSYM    DATA     BYTE      P1CON
      000000BCH   SFRSYM    DATA     BYTE      INT1F
      000000A1H   SFRSYM    DATA     BYTE      P2CON
      000000BEH   SFRSYM    DATA     BYTE      INT2F
      000000B1H   SFRSYM    DATA     BYTE      P3CON
      00000098H.4 SFRSYM    DATA     BIT       REN
      000000C1H   SFRSYM    DATA     BYTE      P4CON
      000000D9H   SFRSYM    DATA     BYTE      P5CON
      000000AFH   SFRSYM    DATA     BYTE      ADCVH
      00000086H   SFRSYM    DATA     BYTE      DPS
      00000095H   SFRSYM    DATA     BYTE      US0CON0
      000000F7H   SFRSYM    DATA     BYTE      EXADH
      000000A4H   SFRSYM    DATA     BYTE      US1CON0
      0000009DH   SFRSYM    DATA     BYTE      US0CON1
      000000AEH   SFRSYM    DATA     BYTE      ADCVL
LX51 LINKER/LOCATER V4.41                                                             02/26/2021  11:38:21  PAGE 19


      000000C4H   SFRSYM    DATA     BYTE      US2CON0
      000000A5H   SFRSYM    DATA     BYTE      US1CON1
      0000009EH   SFRSYM    DATA     BYTE      US0CON2
      000000C5H   SFRSYM    DATA     BYTE      US2CON1
      000000A6H   SFRSYM    DATA     BYTE      US1CON2
      0000009FH   SFRSYM    DATA     BYTE      US0CON3
      000000C6H   SFRSYM    DATA     BYTE      US2CON2
      000000A7H   SFRSYM    DATA     BYTE      US1CON3
      000000BBH   SFRSYM    DATA     BYTE      INT0R
      000000C7H   SFRSYM    DATA     BYTE      US2CON3
      000000BDH   SFRSYM    DATA     BYTE      INT1R
      000000BFH   SFRSYM    DATA     BYTE      INT2R
      000000C8H.7 SFRSYM    DATA     BIT       TFX
      00000096H   SFRSYM    DATA     BYTE      IOHCON0
      00000097H   SFRSYM    DATA     BYTE      IOHCON1
      000000CDH   SFRSYM    DATA     BYTE      THX
      000000D0H.5 SFRSYM    DATA     BIT       F0
      000000D0H.1 SFRSYM    DATA     BIT       F1
      000000CCH   SFRSYM    DATA     BYTE      TLX
      000000D0H   SFRSYM    DATA     BYTE      PSW

      01000A65H   BLOCK     CODE     ---       LVL=0
      01000A65H   LINE      CODE     ---       #20
      01000A65H   LINE      CODE     ---       #21
      01000A65H   LINE      CODE     ---       #23
      01000A68H   LINE      CODE     ---       #24
      01000A6BH   LINE      CODE     ---       #25
      01000A6EH   LINE      CODE     ---       #26
      01000A71H   LINE      CODE     ---       #27
      01000A74H   LINE      CODE     ---       #29
      01000A76H   LINE      CODE     ---       #30
      ---         BLOCKEND  ---      ---       LVL=0

      01000ADEH   BLOCK     CODE     ---       LVL=0
      01000ADEH   LINE      CODE     ---       #38
      01000ADEH   LINE      CODE     ---       #39
      01000ADEH   LINE      CODE     ---       #41
      ---         BLOCKEND  ---      ---       LVL=0

      01000ADFH   BLOCK     CODE     ---       LVL=0
      01000ADFH   LINE      CODE     ---       #49
      01000ADFH   LINE      CODE     ---       #50
      01000ADFH   LINE      CODE     ---       #52
      ---         BLOCKEND  ---      ---       LVL=0

      010008D4H   BLOCK     CODE     ---       LVL=0
      010008D4H   LINE      CODE     ---       #60
      010008D4H   LINE      CODE     ---       #61
      010008D4H   LINE      CODE     ---       #63
      010008DDH   LINE      CODE     ---       #64
      010008E6H   LINE      CODE     ---       #65
      01000903H   LINE      CODE     ---       #66
      ---         BLOCKEND  ---      ---       LVL=0

      01000939H   BLOCK     CODE     ---       LVL=0
      01000939H   LINE      CODE     ---       #172
      01000939H   LINE      CODE     ---       #173
      01000939H   LINE      CODE     ---       #175
      01000942H   LINE      CODE     ---       #176
      0100094BH   LINE      CODE     ---       #177
      0100095BH   LINE      CODE     ---       #178
      01000962H   LINE      CODE     ---       #179
      ---         BLOCKEND  ---      ---       LVL=0

      0100090AH   BLOCK     CODE     ---       LVL=0
LX51 LINKER/LOCATER V4.41                                                             02/26/2021  11:38:21  PAGE 20


      0100090AH   LINE      CODE     ---       #198
      0100090AH   LINE      CODE     ---       #199
      0100090AH   LINE      CODE     ---       #201
      01000913H   LINE      CODE     ---       #202
      0100091CH   LINE      CODE     ---       #203
      0100092DH   LINE      CODE     ---       #204
      01000934H   LINE      CODE     ---       #205
      ---         BLOCKEND  ---      ---       LVL=0

      ---         MODULE    ---      ---       SC_IT
      01000841H   PUBLIC    CODE     ---       USCI2Interrupt
      01000AEAH   PUBLIC    CODE     ---       USCI1Interrupt
      01000AE9H   PUBLIC    CODE     ---       Timer4Interrupt
      01000AE8H   PUBLIC    CODE     ---       Timer3Interrupt
      01000AE7H   PUBLIC    CODE     ---       ACMPInterrupt
      01000AE6H   PUBLIC    CODE     ---       INT2Interrupt
      01000AE5H   PUBLIC    CODE     ---       BTMInterrupt
      01000AE4H   PUBLIC    CODE     ---       PWMInterrupt
      010007EDH   PUBLIC    CODE     ---       USCI0Interrupt
      01000AE3H   PUBLIC    CODE     ---       ADCInterrupt
      01000AE2H   PUBLIC    CODE     ---       Timer2Interrupt
      01000895H   PUBLIC    CODE     ---       UART0Interrupt
      01000AE1H   PUBLIC    CODE     ---       Timer1Interrupt
      01000AD1H   PUBLIC    CODE     ---       INT1Interrupt
      01000AE0H   PUBLIC    CODE     ---       Timer0Interrupt
      01000ACDH   PUBLIC    CODE     ---       INT0Interrupt
      000000C8H.2 SFRSYM    DATA     BIT       TRX
      000000FFH   SFRSYM    DATA     BYTE      OPREG
      00000080H   SFRSYM    DATA     BYTE      P0
      00000090H   SFRSYM    DATA     BYTE      P1
      000000A0H   SFRSYM    DATA     BYTE      P2
      000000A8H.4 SFRSYM    DATA     BIT       EUART
      0000008EH   SFRSYM    DATA     BYTE      TMCON
      000000B0H   SFRSYM    DATA     BYTE      P3
      000000D0H.6 SFRSYM    DATA     BIT       AC
      000000C0H   SFRSYM    DATA     BYTE      P4
      0000008FH   SFRSYM    DATA     BYTE      OTCON
      000000D8H   SFRSYM    DATA     BYTE      P5
      000000A8H.7 SFRSYM    DATA     BIT       EA
      000000C8H.5 SFRSYM    DATA     BIT       RCLKX
      000000C8H.4 SFRSYM    DATA     BIT       TCLKX
      000000C8H.3 SFRSYM    DATA     BIT       EXENX
      000000A8H.6 SFRSYM    DATA     BIT       EADC
      000000C9H   SFRSYM    DATA     BYTE      TXMOD
      000000C8H   SFRSYM    DATA     BYTE      TXCON
      000000A8H   SFRSYM    DATA     BYTE      IE
      00000085H   SFRSYM    DATA     BYTE      DPH1
      000000E9H   SFRSYM    DATA     BYTE      EXA0
      000000EAH   SFRSYM    DATA     BYTE      EXA1
      000000FEH   SFRSYM    DATA     BYTE      OPINX
      000000EBH   SFRSYM    DATA     BYTE      EXA2
      000000ECH   SFRSYM    DATA     BYTE      EXA3
      00000084H   SFRSYM    DATA     BYTE      DPL1
      000000C8H   SFRSYM    DATA     BIT       CP
      000000EFH   SFRSYM    DATA     BYTE      OPERCON
      0000009BH   SFRSYM    DATA     BYTE      P0PH
      000000B8H   SFRSYM    DATA     BYTE      IP
      00000092H   SFRSYM    DATA     BYTE      P1PH
      00000098H   SFRSYM    DATA     BIT       RI
      000000A2H   SFRSYM    DATA     BYTE      P2PH
      000000D0H.7 SFRSYM    DATA     BIT       CY
      000000B2H   SFRSYM    DATA     BYTE      P3PH
      00000098H.1 SFRSYM    DATA     BIT       TI
      000000CEH   SFRSYM    DATA     BYTE      TXINX
      000000C2H   SFRSYM    DATA     BYTE      P4PH
LX51 LINKER/LOCATER V4.41                                                             02/26/2021  11:38:21  PAGE 21


      000000B8H.1 SFRSYM    DATA     BIT       IPT0
      000000DAH   SFRSYM    DATA     BYTE      P5PH
      000000B8H.3 SFRSYM    DATA     BIT       IPT1
      000000B8H.5 SFRSYM    DATA     BIT       IPT2
      00000081H   SFRSYM    DATA     BYTE      SP
      000000D0H.2 SFRSYM    DATA     BIT       OV
      000000F4H   SFRSYM    DATA     BYTE      IAPADE
      0000009CH   SFRSYM    DATA     BYTE      P0VO
      00000094H   SFRSYM    DATA     BYTE      P1VO
      000000EEH   SFRSYM    DATA     BYTE      EXBH
      000000A3H   SFRSYM    DATA     BYTE      P2VO
      000000F3H   SFRSYM    DATA     BYTE      IAPADH
      000000B3H   SFRSYM    DATA     BYTE      P3VO
      000000ADH   SFRSYM    DATA     BYTE      ADCCON
      000000C8H.1 SFRSYM    DATA     BIT       TX
      000000EDH   SFRSYM    DATA     BYTE      EXBL
      000000F2H   SFRSYM    DATA     BYTE      IAPADL
      00000080H   SFRSYM    DATA     BIT       P00
      00000090H   SFRSYM    DATA     BIT       P10
      00000080H.1 SFRSYM    DATA     BIT       P01
      00000099H   SFRSYM    DATA     BYTE      SBUF
      00000087H   SFRSYM    DATA     BYTE      PCON
      000000A0H   SFRSYM    DATA     BIT       P20
      00000090H.1 SFRSYM    DATA     BIT       P11
      00000080H.2 SFRSYM    DATA     BIT       P02
      000000B6H   SFRSYM    DATA     BYTE      CMPCFG
      000000B0H   SFRSYM    DATA     BIT       P30
      000000A0H.1 SFRSYM    DATA     BIT       P21
      00000090H.2 SFRSYM    DATA     BIT       P12
      00000080H.3 SFRSYM    DATA     BIT       P03
      000000C0H   SFRSYM    DATA     BIT       P40
      000000B0H.1 SFRSYM    DATA     BIT       P31
      000000A0H.2 SFRSYM    DATA     BIT       P22
      00000090H.3 SFRSYM    DATA     BIT       P13
      00000080H.4 SFRSYM    DATA     BIT       P04
      00000098H   SFRSYM    DATA     BYTE      SCON
      000000D8H   SFRSYM    DATA     BIT       P50
      000000C0H.1 SFRSYM    DATA     BIT       P41
      000000B0H.2 SFRSYM    DATA     BIT       P32
      000000A0H.3 SFRSYM    DATA     BIT       P23
      00000090H.4 SFRSYM    DATA     BIT       P14
      00000080H.5 SFRSYM    DATA     BIT       P05
      000000F5H   SFRSYM    DATA     BYTE      IAPDAT
      00000088H   SFRSYM    DATA     BYTE      TCON
      00000089H   SFRSYM    DATA     BYTE      TMOD
      000000D8H.1 SFRSYM    DATA     BIT       P51
      000000C0H.2 SFRSYM    DATA     BIT       P42
      000000B0H.3 SFRSYM    DATA     BIT       P33
      000000A0H.4 SFRSYM    DATA     BIT       P24
      00000090H.5 SFRSYM    DATA     BIT       P15
      00000080H.6 SFRSYM    DATA     BIT       P06
      000000B8H   SFRSYM    DATA     BIT       IPINT0
      000000D8H.2 SFRSYM    DATA     BIT       P52
      000000C0H.3 SFRSYM    DATA     BIT       P43
      000000B0H.4 SFRSYM    DATA     BIT       P34
      000000A0H.5 SFRSYM    DATA     BIT       P25
      00000090H.6 SFRSYM    DATA     BIT       P16
      00000080H.7 SFRSYM    DATA     BIT       P07
      000000B8H.2 SFRSYM    DATA     BIT       IPINT1
      000000D8H.3 SFRSYM    DATA     BIT       P53
      000000C0H.4 SFRSYM    DATA     BIT       P44
      000000B0H.5 SFRSYM    DATA     BIT       P35
      000000A0H.6 SFRSYM    DATA     BIT       P26
      00000090H.7 SFRSYM    DATA     BIT       P17
      000000FDH   SFRSYM    DATA     BYTE      CRCREG
LX51 LINKER/LOCATER V4.41                                                             02/26/2021  11:38:21  PAGE 22


      000000D8H.4 SFRSYM    DATA     BIT       P54
      000000C0H.5 SFRSYM    DATA     BIT       P45
      000000B0H.6 SFRSYM    DATA     BIT       P36
      000000A0H.7 SFRSYM    DATA     BIT       P27
      000000D8H.5 SFRSYM    DATA     BIT       P55
      000000C0H.6 SFRSYM    DATA     BIT       P46
      000000B0H.7 SFRSYM    DATA     BIT       P37
      000000C0H.7 SFRSYM    DATA     BIT       P47
      000000C8H.6 SFRSYM    DATA     BIT       EXFX
      00000093H   SFRSYM    DATA     BYTE      DDRCON
      000000F6H   SFRSYM    DATA     BYTE      IAPCTL
      000000A9H   SFRSYM    DATA     BYTE      IE1
      000000AAH   SFRSYM    DATA     BYTE      IE2
      000000F0H   SFRSYM    DATA     BYTE      B
      000000B7H   SFRSYM    DATA     BYTE      CMPCON
      000000F1H   SFRSYM    DATA     BYTE      IAPKEY
      000000FBH   SFRSYM    DATA     BYTE      BTMCON
      000000D4H   SFRSYM    DATA     BYTE      PWMCFG
      000000E0H   SFRSYM    DATA     BYTE      ACC
      000000CBH   SFRSYM    DATA     BYTE      RCAPXH
      000000A8H.1 SFRSYM    DATA     BIT       ET0
      000000FCH   SFRSYM    DATA     BYTE      CRCINX
      00000088H.5 SFRSYM    DATA     BIT       TF0
      000000A8H.3 SFRSYM    DATA     BIT       ET1
      000000ABH   SFRSYM    DATA     BYTE      ADCCFG0
      000000B9H   SFRSYM    DATA     BYTE      IP1
      00000088H.7 SFRSYM    DATA     BIT       TF1
      000000A8H.5 SFRSYM    DATA     BIT       ET2
      000000ACH   SFRSYM    DATA     BYTE      ADCCFG1
      000000BAH   SFRSYM    DATA     BYTE      IP2
      00000098H.2 SFRSYM    DATA     BIT       RB8
      000000B5H   SFRSYM    DATA     BYTE      ADCCFG2
      000000CAH   SFRSYM    DATA     BYTE      RCAPXL
      0000008CH   SFRSYM    DATA     BYTE      TH0
      0000008DH   SFRSYM    DATA     BYTE      TH1
      00000098H.3 SFRSYM    DATA     BIT       TB8
      000000D0H   SFRSYM    DATA     BIT       P
      00000098H.7 SFRSYM    DATA     BIT       SM0
      0000008AH   SFRSYM    DATA     BYTE      TL0
      00000098H.6 SFRSYM    DATA     BIT       SM1
      000000CFH   SFRSYM    DATA     BYTE      WDTCON
      0000008BH   SFRSYM    DATA     BYTE      TL1
      00000098H.5 SFRSYM    DATA     BIT       SM2
      000000D5H   SFRSYM    DATA     BYTE      PWMDFR
      000000D0H.3 SFRSYM    DATA     BIT       RS0
      00000088H.4 SFRSYM    DATA     BIT       TR0
      000000D0H.4 SFRSYM    DATA     BIT       RS1
      000000D3H   SFRSYM    DATA     BYTE      PWMCON
      000000D7H   SFRSYM    DATA     BYTE      PWMMOD
      00000088H.6 SFRSYM    DATA     BIT       TR1
      000000B8H.4 SFRSYM    DATA     BIT       IPUART
      000000D6H   SFRSYM    DATA     BYTE      PWMFLT
      00000083H   SFRSYM    DATA     BYTE      DPH
      00000082H   SFRSYM    DATA     BYTE      DPL
      000000A8H   SFRSYM    DATA     BIT       EINT0
      0000009AH   SFRSYM    DATA     BYTE      P0CON
      000000A8H.2 SFRSYM    DATA     BIT       EINT1
      000000B8H.6 SFRSYM    DATA     BIT       IPADC
      000000B4H   SFRSYM    DATA     BYTE      INT0F
      00000091H   SFRSYM    DATA     BYTE      P1CON
      000000BCH   SFRSYM    DATA     BYTE      INT1F
      000000A1H   SFRSYM    DATA     BYTE      P2CON
      000000BEH   SFRSYM    DATA     BYTE      INT2F
      000000B1H   SFRSYM    DATA     BYTE      P3CON
      00000098H.4 SFRSYM    DATA     BIT       REN
LX51 LINKER/LOCATER V4.41                                                             02/26/2021  11:38:21  PAGE 23


      000000C1H   SFRSYM    DATA     BYTE      P4CON
      000000D9H   SFRSYM    DATA     BYTE      P5CON
      000000AFH   SFRSYM    DATA     BYTE      ADCVH
      00000086H   SFRSYM    DATA     BYTE      DPS
      00000095H   SFRSYM    DATA     BYTE      US0CON0
      000000F7H   SFRSYM    DATA     BYTE      EXADH
      000000A4H   SFRSYM    DATA     BYTE      US1CON0
      0000009DH   SFRSYM    DATA     BYTE      US0CON1
      000000AEH   SFRSYM    DATA     BYTE      ADCVL
      000000C4H   SFRSYM    DATA     BYTE      US2CON0
      000000A5H   SFRSYM    DATA     BYTE      US1CON1
      0000009EH   SFRSYM    DATA     BYTE      US0CON2
      000000C5H   SFRSYM    DATA     BYTE      US2CON1
      000000A6H   SFRSYM    DATA     BYTE      US1CON2
      0000009FH   SFRSYM    DATA     BYTE      US0CON3
      000000C6H   SFRSYM    DATA     BYTE      US2CON2
      000000A7H   SFRSYM    DATA     BYTE      US1CON3
      000000BBH   SFRSYM    DATA     BYTE      INT0R
      000000C7H   SFRSYM    DATA     BYTE      US2CON3
      000000BDH   SFRSYM    DATA     BYTE      INT1R
      000000BFH   SFRSYM    DATA     BYTE      INT2R
      000000C8H.7 SFRSYM    DATA     BIT       TFX
      00000096H   SFRSYM    DATA     BYTE      IOHCON0
      00000097H   SFRSYM    DATA     BYTE      IOHCON1
      000000CDH   SFRSYM    DATA     BYTE      THX
      000000D0H.5 SFRSYM    DATA     BIT       F0
      000000D0H.1 SFRSYM    DATA     BIT       F1
      000000CCH   SFRSYM    DATA     BYTE      TLX
      000000D0H   SFRSYM    DATA     BYTE      PSW

      01000ACDH   BLOCK     CODE     ---       LVL=0
      01000ACDH   LINE      CODE     ---       #37
      01000ACDH   LINE      CODE     ---       #41
      01000AD0H   LINE      CODE     ---       #45
      ---         BLOCKEND  ---      ---       LVL=0

      01000AE0H   BLOCK     CODE     ---       LVL=0
      01000AE0H   LINE      CODE     ---       #47
      01000AE0H   LINE      CODE     ---       #52
      ---         BLOCKEND  ---      ---       LVL=0

      01000AD1H   BLOCK     CODE     ---       LVL=0
      01000AD1H   LINE      CODE     ---       #54
      01000AD1H   LINE      CODE     ---       #58
      01000AD4H   LINE      CODE     ---       #60
      ---         BLOCKEND  ---      ---       LVL=0

      01000AE1H   BLOCK     CODE     ---       LVL=0
      01000AE1H   LINE      CODE     ---       #62
      01000AE1H   LINE      CODE     ---       #67
      ---         BLOCKEND  ---      ---       LVL=0

      01000895H   BLOCK     CODE     ---       LVL=0
      01000895H   LINE      CODE     ---       #69
      010008B2H   LINE      CODE     ---       #76
      010008B2H   LINE      CODE     ---       #79
      010008B7H   LINE      CODE     ---       #80
      010008B9H   LINE      CODE     ---       #83
      010008B9H   LINE      CODE     ---       #85
      ---         BLOCKEND  ---      ---       LVL=0

      01000AE2H   BLOCK     CODE     ---       LVL=0
      01000AE2H   LINE      CODE     ---       #87
      01000AE2H   LINE      CODE     ---       #92
      ---         BLOCKEND  ---      ---       LVL=0
LX51 LINKER/LOCATER V4.41                                                             02/26/2021  11:38:21  PAGE 24



      01000AE3H   BLOCK     CODE     ---       LVL=0
      01000AE3H   LINE      CODE     ---       #94
      01000AE3H   LINE      CODE     ---       #99
      ---         BLOCKEND  ---      ---       LVL=0

      010007EDH   BLOCK     CODE     ---       LVL=0
      010007EDH   LINE      CODE     ---       #101
      0100080AH   LINE      CODE     ---       #108
      0100080AH   LINE      CODE     ---       #111
      01000812H   LINE      CODE     ---       #112
      01000812H   LINE      CODE     ---       #113
      01000817H   LINE      CODE     ---       #114
      01000819H   LINE      CODE     ---       #115
      01000819H   LINE      CODE     ---       #117
      01000821H   LINE      CODE     ---       #118
      01000821H   LINE      CODE     ---       #119
      01000826H   LINE      CODE     ---       #120
      01000826H   LINE      CODE     ---       #123
      01000826H   LINE      CODE     ---       #125
      ---         BLOCKEND  ---      ---       LVL=0

      01000AE4H   BLOCK     CODE     ---       LVL=0
      01000AE4H   LINE      CODE     ---       #127
      01000AE4H   LINE      CODE     ---       #132
      ---         BLOCKEND  ---      ---       LVL=0

      01000AE5H   BLOCK     CODE     ---       LVL=0
      01000AE5H   LINE      CODE     ---       #134
      01000AE5H   LINE      CODE     ---       #139
      ---         BLOCKEND  ---      ---       LVL=0

      01000AE6H   BLOCK     CODE     ---       LVL=0
      01000AE6H   LINE      CODE     ---       #141
      01000AE6H   LINE      CODE     ---       #146
      ---         BLOCKEND  ---      ---       LVL=0

      01000AE7H   BLOCK     CODE     ---       LVL=0
      01000AE7H   LINE      CODE     ---       #148
      01000AE7H   LINE      CODE     ---       #153
      ---         BLOCKEND  ---      ---       LVL=0

      01000AE8H   BLOCK     CODE     ---       LVL=0
      01000AE8H   LINE      CODE     ---       #154
      01000AE8H   LINE      CODE     ---       #159
      ---         BLOCKEND  ---      ---       LVL=0

      01000AE9H   BLOCK     CODE     ---       LVL=0
      01000AE9H   LINE      CODE     ---       #160
      01000AE9H   LINE      CODE     ---       #165
      ---         BLOCKEND  ---      ---       LVL=0

      01000AEAH   BLOCK     CODE     ---       LVL=0
      01000AEAH   LINE      CODE     ---       #166
      01000AEAH   LINE      CODE     ---       #171
      ---         BLOCKEND  ---      ---       LVL=0

      01000841H   BLOCK     CODE     ---       LVL=0
      01000841H   LINE      CODE     ---       #172
      0100085EH   LINE      CODE     ---       #179
      0100085EH   LINE      CODE     ---       #182
      01000866H   LINE      CODE     ---       #183
      01000866H   LINE      CODE     ---       #184
      0100086BH   LINE      CODE     ---       #185
      0100086DH   LINE      CODE     ---       #186
LX51 LINKER/LOCATER V4.41                                                             02/26/2021  11:38:21  PAGE 25


      0100086DH   LINE      CODE     ---       #188
      01000875H   LINE      CODE     ---       #189
      01000875H   LINE      CODE     ---       #190
      0100087AH   LINE      CODE     ---       #191
      0100087AH   LINE      CODE     ---       #194
      0100087AH   LINE      CODE     ---       #196
      ---         BLOCKEND  ---      ---       LVL=0

      ---         MODULE    ---      ---       SC95F_UART0
      01000AC4H   PUBLIC    CODE     ---       _UART0_ClearFlag
      01000A77H   PUBLIC    CODE     ---       _UART0_ITConfig
      01000AD5H   PUBLIC    CODE     ---       _UART0_SendData8
      00000008H   PUBLIC    DATA     BYTE      ?_UART0_Init?BYTE
      01000691H   PUBLIC    CODE     ---       _UART0_Init
      000000C8H.2 SFRSYM    DATA     BIT       TRX
      000000FFH   SFRSYM    DATA     BYTE      OPREG
      00000080H   SFRSYM    DATA     BYTE      P0
      00000090H   SFRSYM    DATA     BYTE      P1
      000000A0H   SFRSYM    DATA     BYTE      P2
      000000A8H.4 SFRSYM    DATA     BIT       EUART
      0000008EH   SFRSYM    DATA     BYTE      TMCON
      000000B0H   SFRSYM    DATA     BYTE      P3
      000000D0H.6 SFRSYM    DATA     BIT       AC
      000000C0H   SFRSYM    DATA     BYTE      P4
      0000008FH   SFRSYM    DATA     BYTE      OTCON
      000000D8H   SFRSYM    DATA     BYTE      P5
      000000A8H.7 SFRSYM    DATA     BIT       EA
      000000C8H.5 SFRSYM    DATA     BIT       RCLKX
      000000C8H.4 SFRSYM    DATA     BIT       TCLKX
      000000C8H.3 SFRSYM    DATA     BIT       EXENX
      000000A8H.6 SFRSYM    DATA     BIT       EADC
      000000C9H   SFRSYM    DATA     BYTE      TXMOD
      000000C8H   SFRSYM    DATA     BYTE      TXCON
      000000A8H   SFRSYM    DATA     BYTE      IE
      00000085H   SFRSYM    DATA     BYTE      DPH1
      000000E9H   SFRSYM    DATA     BYTE      EXA0
      000000EAH   SFRSYM    DATA     BYTE      EXA1
      000000FEH   SFRSYM    DATA     BYTE      OPINX
      000000EBH   SFRSYM    DATA     BYTE      EXA2
      000000ECH   SFRSYM    DATA     BYTE      EXA3
      00000084H   SFRSYM    DATA     BYTE      DPL1
      000000C8H   SFRSYM    DATA     BIT       CP
      000000EFH   SFRSYM    DATA     BYTE      OPERCON
      0000009BH   SFRSYM    DATA     BYTE      P0PH
      000000B8H   SFRSYM    DATA     BYTE      IP
      00000092H   SFRSYM    DATA     BYTE      P1PH
      00000098H   SFRSYM    DATA     BIT       RI
      000000A2H   SFRSYM    DATA     BYTE      P2PH
      000000D0H.7 SFRSYM    DATA     BIT       CY
      000000B2H   SFRSYM    DATA     BYTE      P3PH
      00000098H.1 SFRSYM    DATA     BIT       TI
      000000CEH   SFRSYM    DATA     BYTE      TXINX
      000000C2H   SFRSYM    DATA     BYTE      P4PH
      000000B8H.1 SFRSYM    DATA     BIT       IPT0
      000000DAH   SFRSYM    DATA     BYTE      P5PH
      000000B8H.3 SFRSYM    DATA     BIT       IPT1
      000000B8H.5 SFRSYM    DATA     BIT       IPT2
      00000081H   SFRSYM    DATA     BYTE      SP
      000000D0H.2 SFRSYM    DATA     BIT       OV
      000000F4H   SFRSYM    DATA     BYTE      IAPADE
      0000009CH   SFRSYM    DATA     BYTE      P0VO
      00000094H   SFRSYM    DATA     BYTE      P1VO
      000000EEH   SFRSYM    DATA     BYTE      EXBH
      000000A3H   SFRSYM    DATA     BYTE      P2VO
      000000F3H   SFRSYM    DATA     BYTE      IAPADH
LX51 LINKER/LOCATER V4.41                                                             02/26/2021  11:38:21  PAGE 26


      000000B3H   SFRSYM    DATA     BYTE      P3VO
      000000ADH   SFRSYM    DATA     BYTE      ADCCON
      000000C8H.1 SFRSYM    DATA     BIT       TX
      000000EDH   SFRSYM    DATA     BYTE      EXBL
      000000F2H   SFRSYM    DATA     BYTE      IAPADL
      00000080H   SFRSYM    DATA     BIT       P00
      00000090H   SFRSYM    DATA     BIT       P10
      00000080H.1 SFRSYM    DATA     BIT       P01
      00000099H   SFRSYM    DATA     BYTE      SBUF
      00000087H   SFRSYM    DATA     BYTE      PCON
      000000A0H   SFRSYM    DATA     BIT       P20
      00000090H.1 SFRSYM    DATA     BIT       P11
      00000080H.2 SFRSYM    DATA     BIT       P02
      000000B6H   SFRSYM    DATA     BYTE      CMPCFG
      000000B0H   SFRSYM    DATA     BIT       P30
      000000A0H.1 SFRSYM    DATA     BIT       P21
      00000090H.2 SFRSYM    DATA     BIT       P12
      00000080H.3 SFRSYM    DATA     BIT       P03
      000000C0H   SFRSYM    DATA     BIT       P40
      000000B0H.1 SFRSYM    DATA     BIT       P31
      000000A0H.2 SFRSYM    DATA     BIT       P22
      00000090H.3 SFRSYM    DATA     BIT       P13
      00000080H.4 SFRSYM    DATA     BIT       P04
      00000098H   SFRSYM    DATA     BYTE      SCON
      000000D8H   SFRSYM    DATA     BIT       P50
      000000C0H.1 SFRSYM    DATA     BIT       P41
      000000B0H.2 SFRSYM    DATA     BIT       P32
      000000A0H.3 SFRSYM    DATA     BIT       P23
      00000090H.4 SFRSYM    DATA     BIT       P14
      00000080H.5 SFRSYM    DATA     BIT       P05
      000000F5H   SFRSYM    DATA     BYTE      IAPDAT
      00000088H   SFRSYM    DATA     BYTE      TCON
      00000089H   SFRSYM    DATA     BYTE      TMOD
      000000D8H.1 SFRSYM    DATA     BIT       P51
      000000C0H.2 SFRSYM    DATA     BIT       P42
      000000B0H.3 SFRSYM    DATA     BIT       P33
      000000A0H.4 SFRSYM    DATA     BIT       P24
      00000090H.5 SFRSYM    DATA     BIT       P15
      00000080H.6 SFRSYM    DATA     BIT       P06
      000000B8H   SFRSYM    DATA     BIT       IPINT0
      000000D8H.2 SFRSYM    DATA     BIT       P52
      000000C0H.3 SFRSYM    DATA     BIT       P43
      000000B0H.4 SFRSYM    DATA     BIT       P34
      000000A0H.5 SFRSYM    DATA     BIT       P25
      00000090H.6 SFRSYM    DATA     BIT       P16
      00000080H.7 SFRSYM    DATA     BIT       P07
      000000B8H.2 SFRSYM    DATA     BIT       IPINT1
      000000D8H.3 SFRSYM    DATA     BIT       P53
      000000C0H.4 SFRSYM    DATA     BIT       P44
      000000B0H.5 SFRSYM    DATA     BIT       P35
      000000A0H.6 SFRSYM    DATA     BIT       P26
      00000090H.7 SFRSYM    DATA     BIT       P17
      000000FDH   SFRSYM    DATA     BYTE      CRCREG
      000000D8H.4 SFRSYM    DATA     BIT       P54
      000000C0H.5 SFRSYM    DATA     BIT       P45
      000000B0H.6 SFRSYM    DATA     BIT       P36
      000000A0H.7 SFRSYM    DATA     BIT       P27
      000000D8H.5 SFRSYM    DATA     BIT       P55
      000000C0H.6 SFRSYM    DATA     BIT       P46
      000000B0H.7 SFRSYM    DATA     BIT       P37
      000000C0H.7 SFRSYM    DATA     BIT       P47
      000000C8H.6 SFRSYM    DATA     BIT       EXFX
      00000093H   SFRSYM    DATA     BYTE      DDRCON
      000000F6H   SFRSYM    DATA     BYTE      IAPCTL
      000000A9H   SFRSYM    DATA     BYTE      IE1
LX51 LINKER/LOCATER V4.41                                                             02/26/2021  11:38:21  PAGE 27


      000000AAH   SFRSYM    DATA     BYTE      IE2
      000000F0H   SFRSYM    DATA     BYTE      B
      000000B7H   SFRSYM    DATA     BYTE      CMPCON
      000000F1H   SFRSYM    DATA     BYTE      IAPKEY
      000000FBH   SFRSYM    DATA     BYTE      BTMCON
      000000D4H   SFRSYM    DATA     BYTE      PWMCFG
      000000E0H   SFRSYM    DATA     BYTE      ACC
      000000CBH   SFRSYM    DATA     BYTE      RCAPXH
      000000A8H.1 SFRSYM    DATA     BIT       ET0
      000000FCH   SFRSYM    DATA     BYTE      CRCINX
      00000088H.5 SFRSYM    DATA     BIT       TF0
      000000A8H.3 SFRSYM    DATA     BIT       ET1
      000000ABH   SFRSYM    DATA     BYTE      ADCCFG0
      000000B9H   SFRSYM    DATA     BYTE      IP1
      00000088H.7 SFRSYM    DATA     BIT       TF1
      000000A8H.5 SFRSYM    DATA     BIT       ET2
      000000ACH   SFRSYM    DATA     BYTE      ADCCFG1
      000000BAH   SFRSYM    DATA     BYTE      IP2
      00000098H.2 SFRSYM    DATA     BIT       RB8
      000000B5H   SFRSYM    DATA     BYTE      ADCCFG2
      000000CAH   SFRSYM    DATA     BYTE      RCAPXL
      0000008CH   SFRSYM    DATA     BYTE      TH0
      0000008DH   SFRSYM    DATA     BYTE      TH1
      00000098H.3 SFRSYM    DATA     BIT       TB8
      000000D0H   SFRSYM    DATA     BIT       P
      00000098H.7 SFRSYM    DATA     BIT       SM0
      0000008AH   SFRSYM    DATA     BYTE      TL0
      00000098H.6 SFRSYM    DATA     BIT       SM1
      000000CFH   SFRSYM    DATA     BYTE      WDTCON
      0000008BH   SFRSYM    DATA     BYTE      TL1
      00000098H.5 SFRSYM    DATA     BIT       SM2
      000000D5H   SFRSYM    DATA     BYTE      PWMDFR
      000000D0H.3 SFRSYM    DATA     BIT       RS0
      00000088H.4 SFRSYM    DATA     BIT       TR0
      000000D0H.4 SFRSYM    DATA     BIT       RS1
      000000D3H   SFRSYM    DATA     BYTE      PWMCON
      000000D7H   SFRSYM    DATA     BYTE      PWMMOD
      00000088H.6 SFRSYM    DATA     BIT       TR1
      000000B8H.4 SFRSYM    DATA     BIT       IPUART
      000000D6H   SFRSYM    DATA     BYTE      PWMFLT
      00000083H   SFRSYM    DATA     BYTE      DPH
      00000082H   SFRSYM    DATA     BYTE      DPL
      000000A8H   SFRSYM    DATA     BIT       EINT0
      0000009AH   SFRSYM    DATA     BYTE      P0CON
      000000A8H.2 SFRSYM    DATA     BIT       EINT1
      000000B8H.6 SFRSYM    DATA     BIT       IPADC
      000000B4H   SFRSYM    DATA     BYTE      INT0F
      00000091H   SFRSYM    DATA     BYTE      P1CON
      000000BCH   SFRSYM    DATA     BYTE      INT1F
      000000A1H   SFRSYM    DATA     BYTE      P2CON
      000000BEH   SFRSYM    DATA     BYTE      INT2F
      000000B1H   SFRSYM    DATA     BYTE      P3CON
      00000098H.4 SFRSYM    DATA     BIT       REN
      000000C1H   SFRSYM    DATA     BYTE      P4CON
      000000D9H   SFRSYM    DATA     BYTE      P5CON
      000000AFH   SFRSYM    DATA     BYTE      ADCVH
      00000086H   SFRSYM    DATA     BYTE      DPS
      00000095H   SFRSYM    DATA     BYTE      US0CON0
      000000F7H   SFRSYM    DATA     BYTE      EXADH
      000000A4H   SFRSYM    DATA     BYTE      US1CON0
      0000009DH   SFRSYM    DATA     BYTE      US0CON1
      000000AEH   SFRSYM    DATA     BYTE      ADCVL
      000000C4H   SFRSYM    DATA     BYTE      US2CON0
      000000A5H   SFRSYM    DATA     BYTE      US1CON1
      0000009EH   SFRSYM    DATA     BYTE      US0CON2
LX51 LINKER/LOCATER V4.41                                                             02/26/2021  11:38:21  PAGE 28


      000000C5H   SFRSYM    DATA     BYTE      US2CON1
      000000A6H   SFRSYM    DATA     BYTE      US1CON2
      0000009FH   SFRSYM    DATA     BYTE      US0CON3
      000000C6H   SFRSYM    DATA     BYTE      US2CON2
      000000A7H   SFRSYM    DATA     BYTE      US1CON3
      000000BBH   SFRSYM    DATA     BYTE      INT0R
      000000C7H   SFRSYM    DATA     BYTE      US2CON3
      000000BDH   SFRSYM    DATA     BYTE      INT1R
      000000BFH   SFRSYM    DATA     BYTE      INT2R
      000000C8H.7 SFRSYM    DATA     BIT       TFX
      00000096H   SFRSYM    DATA     BYTE      IOHCON0
      00000097H   SFRSYM    DATA     BYTE      IOHCON1
      000000CDH   SFRSYM    DATA     BYTE      THX
      000000D0H.5 SFRSYM    DATA     BIT       F0
      000000D0H.1 SFRSYM    DATA     BIT       F1
      000000CCH   SFRSYM    DATA     BYTE      TLX
      000000D0H   SFRSYM    DATA     BYTE      PSW

      01000691H   BLOCK     CODE     ---       LVL=0
      00000008H   SYMBOL    DATA     DWORD     Uart0Fsys
      0000000CH   SYMBOL    DATA     DWORD     BaudRate
      00000010H   SYMBOL    DATA     BYTE      Mode
      00000011H   SYMBOL    DATA     BYTE      ClockMode
      00000012H   SYMBOL    DATA     BYTE      RxMode
      01000691H   LINE      CODE     ---       #40
      01000699H   LINE      CODE     ---       #42
      01000699H   LINE      CODE     ---       #43
      010006A3H   LINE      CODE     ---       #45
      010006A7H   LINE      CODE     ---       #46
      010006A7H   LINE      CODE     ---       #47
      010006B9H   LINE      CODE     ---       #48
      010006B9H   LINE      CODE     ---       #49
      010006BCH   LINE      CODE     ---       #50
      010006BDH   LINE      CODE     ---       #51
      010006D4H   LINE      CODE     ---       #52
      010006D4H   LINE      CODE     ---       #53
      010006D7H   LINE      CODE     ---       #54
      010006D7H   LINE      CODE     ---       #55
      010006D8H   LINE      CODE     ---       #57
      010006D8H   LINE      CODE     ---       #61
      010006E0H   LINE      CODE     ---       #62
      010006E4H   LINE      CODE     ---       #63
      010006E4H   LINE      CODE     ---       #64
      01000702H   LINE      CODE     ---       #65
      01000717H   LINE      CODE     ---       #66
      01000719H   LINE      CODE     ---       #67
      0100071AH   LINE      CODE     ---       #68
      0100071FH   LINE      CODE     ---       #69
      0100071FH   LINE      CODE     ---       #70
      0100073DH   LINE      CODE     ---       #71
      01000752H   LINE      CODE     ---       #75
      01000752H   LINE      CODE     ---       #76
      01000752H   LINE      CODE     ---       #77
      ---         BLOCKEND  ---      ---       LVL=0

      01000AD5H   BLOCK     CODE     ---       LVL=0
      00000007H   SYMBOL    DATA     BYTE      Data
      01000AD5H   LINE      CODE     ---       #85
      01000AD5H   LINE      CODE     ---       #86
      01000AD5H   LINE      CODE     ---       #87
      01000AD7H   LINE      CODE     ---       #88
      ---         BLOCKEND  ---      ---       LVL=0
      00000004H   SYMBOL    DATA     WORD      Data
      00000007H   SYMBOL    DATA     BYTE      Data_9Bit
      00000006H   SYMBOL    DATA     WORD      Data9
LX51 LINKER/LOCATER V4.41                                                             02/26/2021  11:38:21  PAGE 29



      01000A77H   BLOCK     CODE     ---       LVL=0
      00000007H   SYMBOL    DATA     BYTE      NewState
      00000005H   SYMBOL    DATA     BYTE      Priority
      01000A77H   LINE      CODE     ---       #143
      01000A77H   LINE      CODE     ---       #144
      01000A77H   LINE      CODE     ---       #145
      01000A7AH   LINE      CODE     ---       #146
      01000A7AH   LINE      CODE     ---       #147
      01000A7CH   LINE      CODE     ---       #148
      01000A7EH   LINE      CODE     ---       #150
      01000A7EH   LINE      CODE     ---       #151
      01000A80H   LINE      CODE     ---       #152
      01000A80H   LINE      CODE     ---       #154
      01000A83H   LINE      CODE     ---       #155
      01000A83H   LINE      CODE     ---       #156
      01000A85H   LINE      CODE     ---       #157
      01000A86H   LINE      CODE     ---       #159
      01000A86H   LINE      CODE     ---       #160
      01000A88H   LINE      CODE     ---       #161
      01000A88H   LINE      CODE     ---       #162
      ---         BLOCKEND  ---      ---       LVL=0
      00000007H   SYMBOL    DATA     BYTE      UART0_Flag

      01000AC4H   BLOCK     CODE     ---       LVL=0
      00000007H   SYMBOL    DATA     BYTE      UART0_Flag
      01000AC4H   LINE      CODE     ---       #181
      01000AC4H   LINE      CODE     ---       #182
      01000AC4H   LINE      CODE     ---       #183
      01000AC8H   LINE      CODE     ---       #184
      ---         BLOCKEND  ---      ---       LVL=0

      ---         MODULE    ---      ---       SC95F_USCI0
      01000A89H   PUBLIC    CODE     ---       _USCI0_ClearFlag
      0100098BH   PUBLIC    CODE     ---       _USCI0_GetFlagStatus
      01000A13H   PUBLIC    CODE     ---       _USCI0_ITConfig
      01000AD8H   PUBLIC    CODE     ---       USCI0_SPI_ReceiveData_8
      01000A3FH   PUBLIC    CODE     ---       _USCI0_SPI_Cmd
      00000008H   PUBLIC    DATA     BYTE      ?_USCI0_SPI_Init?BYTE
      010009D1H   PUBLIC    CODE     ---       _USCI0_SPI_Init
      000000C8H.2 SFRSYM    DATA     BIT       TRX
      000000FFH   SFRSYM    DATA     BYTE      OPREG
      00000080H   SFRSYM    DATA     BYTE      P0
      00000090H   SFRSYM    DATA     BYTE      P1
      000000A0H   SFRSYM    DATA     BYTE      P2
      000000A8H.4 SFRSYM    DATA     BIT       EUART
      0000008EH   SFRSYM    DATA     BYTE      TMCON
      000000B0H   SFRSYM    DATA     BYTE      P3
      000000D0H.6 SFRSYM    DATA     BIT       AC
      000000C0H   SFRSYM    DATA     BYTE      P4
      0000008FH   SFRSYM    DATA     BYTE      OTCON
      000000D8H   SFRSYM    DATA     BYTE      P5
      000000A8H.7 SFRSYM    DATA     BIT       EA
      000000C8H.5 SFRSYM    DATA     BIT       RCLKX
      000000C8H.4 SFRSYM    DATA     BIT       TCLKX
      000000C8H.3 SFRSYM    DATA     BIT       EXENX
      000000A8H.6 SFRSYM    DATA     BIT       EADC
      000000C9H   SFRSYM    DATA     BYTE      TXMOD
      000000C8H   SFRSYM    DATA     BYTE      TXCON
      000000A8H   SFRSYM    DATA     BYTE      IE
      00000085H   SFRSYM    DATA     BYTE      DPH1
      000000E9H   SFRSYM    DATA     BYTE      EXA0
      000000EAH   SFRSYM    DATA     BYTE      EXA1
      000000FEH   SFRSYM    DATA     BYTE      OPINX
      000000EBH   SFRSYM    DATA     BYTE      EXA2
LX51 LINKER/LOCATER V4.41                                                             02/26/2021  11:38:21  PAGE 30


      000000ECH   SFRSYM    DATA     BYTE      EXA3
      00000084H   SFRSYM    DATA     BYTE      DPL1
      000000C8H   SFRSYM    DATA     BIT       CP
      000000EFH   SFRSYM    DATA     BYTE      OPERCON
      0000009BH   SFRSYM    DATA     BYTE      P0PH
      000000B8H   SFRSYM    DATA     BYTE      IP
      00000092H   SFRSYM    DATA     BYTE      P1PH
      00000098H   SFRSYM    DATA     BIT       RI
      000000A2H   SFRSYM    DATA     BYTE      P2PH
      000000D0H.7 SFRSYM    DATA     BIT       CY
      000000B2H   SFRSYM    DATA     BYTE      P3PH
      00000098H.1 SFRSYM    DATA     BIT       TI
      000000CEH   SFRSYM    DATA     BYTE      TXINX
      000000C2H   SFRSYM    DATA     BYTE      P4PH
      000000B8H.1 SFRSYM    DATA     BIT       IPT0
      000000DAH   SFRSYM    DATA     BYTE      P5PH
      000000B8H.3 SFRSYM    DATA     BIT       IPT1
      000000B8H.5 SFRSYM    DATA     BIT       IPT2
      00000081H   SFRSYM    DATA     BYTE      SP
      000000D0H.2 SFRSYM    DATA     BIT       OV
      000000F4H   SFRSYM    DATA     BYTE      IAPADE
      0000009CH   SFRSYM    DATA     BYTE      P0VO
      00000094H   SFRSYM    DATA     BYTE      P1VO
      000000EEH   SFRSYM    DATA     BYTE      EXBH
      000000A3H   SFRSYM    DATA     BYTE      P2VO
      000000F3H   SFRSYM    DATA     BYTE      IAPADH
      000000B3H   SFRSYM    DATA     BYTE      P3VO
      000000ADH   SFRSYM    DATA     BYTE      ADCCON
      000000C8H.1 SFRSYM    DATA     BIT       TX
      000000EDH   SFRSYM    DATA     BYTE      EXBL
      000000F2H   SFRSYM    DATA     BYTE      IAPADL
      00000080H   SFRSYM    DATA     BIT       P00
      00000090H   SFRSYM    DATA     BIT       P10
      00000080H.1 SFRSYM    DATA     BIT       P01
      00000099H   SFRSYM    DATA     BYTE      SBUF
      00000087H   SFRSYM    DATA     BYTE      PCON
      000000A0H   SFRSYM    DATA     BIT       P20
      00000090H.1 SFRSYM    DATA     BIT       P11
      00000080H.2 SFRSYM    DATA     BIT       P02
      000000B6H   SFRSYM    DATA     BYTE      CMPCFG
      000000B0H   SFRSYM    DATA     BIT       P30
      000000A0H.1 SFRSYM    DATA     BIT       P21
      00000090H.2 SFRSYM    DATA     BIT       P12
      00000080H.3 SFRSYM    DATA     BIT       P03
      000000C0H   SFRSYM    DATA     BIT       P40
      000000B0H.1 SFRSYM    DATA     BIT       P31
      000000A0H.2 SFRSYM    DATA     BIT       P22
      00000090H.3 SFRSYM    DATA     BIT       P13
      00000080H.4 SFRSYM    DATA     BIT       P04
      00000098H   SFRSYM    DATA     BYTE      SCON
      000000D8H   SFRSYM    DATA     BIT       P50
      000000C0H.1 SFRSYM    DATA     BIT       P41
      000000B0H.2 SFRSYM    DATA     BIT       P32
      000000A0H.3 SFRSYM    DATA     BIT       P23
      00000090H.4 SFRSYM    DATA     BIT       P14
      00000080H.5 SFRSYM    DATA     BIT       P05
      000000F5H   SFRSYM    DATA     BYTE      IAPDAT
      00000088H   SFRSYM    DATA     BYTE      TCON
      00000089H   SFRSYM    DATA     BYTE      TMOD
      000000D8H.1 SFRSYM    DATA     BIT       P51
      000000C0H.2 SFRSYM    DATA     BIT       P42
      000000B0H.3 SFRSYM    DATA     BIT       P33
      000000A0H.4 SFRSYM    DATA     BIT       P24
      00000090H.5 SFRSYM    DATA     BIT       P15
      00000080H.6 SFRSYM    DATA     BIT       P06
LX51 LINKER/LOCATER V4.41                                                             02/26/2021  11:38:21  PAGE 31


      000000B8H   SFRSYM    DATA     BIT       IPINT0
      000000D8H.2 SFRSYM    DATA     BIT       P52
      000000C0H.3 SFRSYM    DATA     BIT       P43
      000000B0H.4 SFRSYM    DATA     BIT       P34
      000000A0H.5 SFRSYM    DATA     BIT       P25
      00000090H.6 SFRSYM    DATA     BIT       P16
      00000080H.7 SFRSYM    DATA     BIT       P07
      000000B8H.2 SFRSYM    DATA     BIT       IPINT1
      000000D8H.3 SFRSYM    DATA     BIT       P53
      000000C0H.4 SFRSYM    DATA     BIT       P44
      000000B0H.5 SFRSYM    DATA     BIT       P35
      000000A0H.6 SFRSYM    DATA     BIT       P26
      00000090H.7 SFRSYM    DATA     BIT       P17
      000000FDH   SFRSYM    DATA     BYTE      CRCREG
      000000D8H.4 SFRSYM    DATA     BIT       P54
      000000C0H.5 SFRSYM    DATA     BIT       P45
      000000B0H.6 SFRSYM    DATA     BIT       P36
      000000A0H.7 SFRSYM    DATA     BIT       P27
      000000D8H.5 SFRSYM    DATA     BIT       P55
      000000C0H.6 SFRSYM    DATA     BIT       P46
      000000B0H.7 SFRSYM    DATA     BIT       P37
      000000C0H.7 SFRSYM    DATA     BIT       P47
      000000C8H.6 SFRSYM    DATA     BIT       EXFX
      00000093H   SFRSYM    DATA     BYTE      DDRCON
      000000F6H   SFRSYM    DATA     BYTE      IAPCTL
      000000A9H   SFRSYM    DATA     BYTE      IE1
      000000AAH   SFRSYM    DATA     BYTE      IE2
      000000F0H   SFRSYM    DATA     BYTE      B
      000000B7H   SFRSYM    DATA     BYTE      CMPCON
      000000F1H   SFRSYM    DATA     BYTE      IAPKEY
      000000FBH   SFRSYM    DATA     BYTE      BTMCON
      000000D4H   SFRSYM    DATA     BYTE      PWMCFG
      000000E0H   SFRSYM    DATA     BYTE      ACC
      000000CBH   SFRSYM    DATA     BYTE      RCAPXH
      000000A8H.1 SFRSYM    DATA     BIT       ET0
      000000FCH   SFRSYM    DATA     BYTE      CRCINX
      00000088H.5 SFRSYM    DATA     BIT       TF0
      000000A8H.3 SFRSYM    DATA     BIT       ET1
      000000ABH   SFRSYM    DATA     BYTE      ADCCFG0
      000000B9H   SFRSYM    DATA     BYTE      IP1
      00000088H.7 SFRSYM    DATA     BIT       TF1
      000000A8H.5 SFRSYM    DATA     BIT       ET2
      000000ACH   SFRSYM    DATA     BYTE      ADCCFG1
      000000BAH   SFRSYM    DATA     BYTE      IP2
      00000098H.2 SFRSYM    DATA     BIT       RB8
      000000B5H   SFRSYM    DATA     BYTE      ADCCFG2
      000000CAH   SFRSYM    DATA     BYTE      RCAPXL
      0000008CH   SFRSYM    DATA     BYTE      TH0
      0000008DH   SFRSYM    DATA     BYTE      TH1
      00000098H.3 SFRSYM    DATA     BIT       TB8
      000000D0H   SFRSYM    DATA     BIT       P
      00000098H.7 SFRSYM    DATA     BIT       SM0
      0000008AH   SFRSYM    DATA     BYTE      TL0
      00000098H.6 SFRSYM    DATA     BIT       SM1
      000000CFH   SFRSYM    DATA     BYTE      WDTCON
      0000008BH   SFRSYM    DATA     BYTE      TL1
      00000098H.5 SFRSYM    DATA     BIT       SM2
      000000D5H   SFRSYM    DATA     BYTE      PWMDFR
      000000D0H.3 SFRSYM    DATA     BIT       RS0
      00000088H.4 SFRSYM    DATA     BIT       TR0
      000000D0H.4 SFRSYM    DATA     BIT       RS1
      000000D3H   SFRSYM    DATA     BYTE      PWMCON
      000000D7H   SFRSYM    DATA     BYTE      PWMMOD
      00000088H.6 SFRSYM    DATA     BIT       TR1
      000000B8H.4 SFRSYM    DATA     BIT       IPUART
LX51 LINKER/LOCATER V4.41                                                             02/26/2021  11:38:21  PAGE 32


      000000D6H   SFRSYM    DATA     BYTE      PWMFLT
      00000083H   SFRSYM    DATA     BYTE      DPH
      00000082H   SFRSYM    DATA     BYTE      DPL
      000000A8H   SFRSYM    DATA     BIT       EINT0
      0000009AH   SFRSYM    DATA     BYTE      P0CON
      000000A8H.2 SFRSYM    DATA     BIT       EINT1
      000000B8H.6 SFRSYM    DATA     BIT       IPADC
      000000B4H   SFRSYM    DATA     BYTE      INT0F
      00000091H   SFRSYM    DATA     BYTE      P1CON
      000000BCH   SFRSYM    DATA     BYTE      INT1F
      000000A1H   SFRSYM    DATA     BYTE      P2CON
      000000BEH   SFRSYM    DATA     BYTE      INT2F
      000000B1H   SFRSYM    DATA     BYTE      P3CON
      00000098H.4 SFRSYM    DATA     BIT       REN
      000000C1H   SFRSYM    DATA     BYTE      P4CON
      000000D9H   SFRSYM    DATA     BYTE      P5CON
      000000AFH   SFRSYM    DATA     BYTE      ADCVH
      00000086H   SFRSYM    DATA     BYTE      DPS
      00000095H   SFRSYM    DATA     BYTE      US0CON0
      000000F7H   SFRSYM    DATA     BYTE      EXADH
      000000A4H   SFRSYM    DATA     BYTE      US1CON0
      0000009DH   SFRSYM    DATA     BYTE      US0CON1
      000000AEH   SFRSYM    DATA     BYTE      ADCVL
      000000C4H   SFRSYM    DATA     BYTE      US2CON0
      000000A5H   SFRSYM    DATA     BYTE      US1CON1
      0000009EH   SFRSYM    DATA     BYTE      US0CON2
      000000C5H   SFRSYM    DATA     BYTE      US2CON1
      000000A6H   SFRSYM    DATA     BYTE      US1CON2
      0000009FH   SFRSYM    DATA     BYTE      US0CON3
      000000C6H   SFRSYM    DATA     BYTE      US2CON2
      000000A7H   SFRSYM    DATA     BYTE      US1CON3
      000000BBH   SFRSYM    DATA     BYTE      INT0R
      000000C7H   SFRSYM    DATA     BYTE      US2CON3
      000000BDH   SFRSYM    DATA     BYTE      INT1R
      000000BFH   SFRSYM    DATA     BYTE      INT2R
      000000C8H.7 SFRSYM    DATA     BIT       TFX
      00000096H   SFRSYM    DATA     BYTE      IOHCON0
      00000097H   SFRSYM    DATA     BYTE      IOHCON1
      000000CDH   SFRSYM    DATA     BYTE      THX
      000000D0H.5 SFRSYM    DATA     BIT       F0
      000000D0H.1 SFRSYM    DATA     BIT       F1
      000000CCH   SFRSYM    DATA     BYTE      TLX
      000000D0H   SFRSYM    DATA     BYTE      PSW

      010009D1H   BLOCK     CODE     ---       LVL=0
      00000007H   SYMBOL    DATA     BYTE      FirstBit
      00000005H   SYMBOL    DATA     BYTE      BaudRatePrescaler
      00000003H   SYMBOL    DATA     BYTE      Mode
      0000000BH   SYMBOL    DATA     BYTE      ClockPolarity
      0000000CH   SYMBOL    DATA     BYTE      ClockPhase
      0000000DH   SYMBOL    DATA     BYTE      SPI_TXE_INT
      0000000EH   SYMBOL    DATA     BYTE      TransmissionMode
      010009D1H   LINE      CODE     ---       #44
      010009D1H   LINE      CODE     ---       #46
      010009D1H   LINE      CODE     ---       #48
      010009D9H   LINE      CODE     ---       #50
      010009DCH   LINE      CODE     ---       #51
      010009E5H   LINE      CODE     ---       #56
      010009F1H   LINE      CODE     ---       #57
      ---         BLOCKEND  ---      ---       LVL=0

      01000A3FH   BLOCK     CODE     ---       LVL=0
      00000007H   SYMBOL    DATA     BYTE      NewState
      01000A3FH   LINE      CODE     ---       #65
      01000A3FH   LINE      CODE     ---       #66
LX51 LINKER/LOCATER V4.41                                                             02/26/2021  11:38:21  PAGE 33


      01000A3FH   LINE      CODE     ---       #67
      01000A47H   LINE      CODE     ---       #68
      01000A4AH   LINE      CODE     ---       #69
      01000A4AH   LINE      CODE     ---       #70
      01000A4DH   LINE      CODE     ---       #71
      01000A4EH   LINE      CODE     ---       #73
      01000A4EH   LINE      CODE     ---       #74
      01000A51H   LINE      CODE     ---       #75
      01000A51H   LINE      CODE     ---       #76
      ---         BLOCKEND  ---      ---       LVL=0
      00000007H   SYMBOL    DATA     BYTE      Data

      01000AD8H   BLOCK     CODE     ---       LVL=0
      01000AD8H   LINE      CODE     ---       #94
      01000AD8H   LINE      CODE     ---       #95
      01000AD8H   LINE      CODE     ---       #96
      01000ADAH   LINE      CODE     ---       #97
      ---         BLOCKEND  ---      ---       LVL=0
      00000004H   SYMBOL    DATA     WORD      Data
      00000006H   SYMBOL    DATA     WORD      SPI_data
      00000007H   SYMBOL    DATA     BYTE      TWI_Address
      00000007H   SYMBOL    DATA     BYTE      TWI_MasterCommunicationRate
      00000007H   SYMBOL    DATA     BYTE      NewState
      00000007H   SYMBOL    DATA     BYTE      NewState
      00000007H   SYMBOL    DATA     BYTE      NewState
      00000007H   SYMBOL    DATA     BYTE      NewState
      00000007H   SYMBOL    DATA     BYTE      Data
      00000007H   SYMBOL    DATA     BYTE      Data
      00000004H   SYMBOL    DATA     WORD      Data
      00000007H   SYMBOL    DATA     BYTE      Data_9Bit
      00000006H   SYMBOL    DATA     WORD      Data9

      01000A13H   BLOCK     CODE     ---       LVL=0
      00000007H   SYMBOL    DATA     BYTE      NewState
      00000005H   SYMBOL    DATA     BYTE      Priority
      01000A13H   LINE      CODE     ---       #363
      01000A13H   LINE      CODE     ---       #364
      01000A13H   LINE      CODE     ---       #365
      01000A16H   LINE      CODE     ---       #366
      01000A16H   LINE      CODE     ---       #367
      01000A19H   LINE      CODE     ---       #368
      01000A1BH   LINE      CODE     ---       #370
      01000A1BH   LINE      CODE     ---       #371
      01000A1EH   LINE      CODE     ---       #372
      01000A1EH   LINE      CODE     ---       #374
      01000A21H   LINE      CODE     ---       #375
      01000A21H   LINE      CODE     ---       #376
      01000A24H   LINE      CODE     ---       #377
      01000A25H   LINE      CODE     ---       #379
      01000A25H   LINE      CODE     ---       #380
      01000A28H   LINE      CODE     ---       #381
      01000A28H   LINE      CODE     ---       #382
      ---         BLOCKEND  ---      ---       LVL=0

      0100098BH   BLOCK     CODE     ---       LVL=0
      00000007H   SYMBOL    DATA     BYTE      USCI0_FLAG
      0100098BH   BLOCK     CODE     NEAR LAB  LVL=1
      00000006H   SYMBOL    DATA     BYTE      bitstatus
      ---         BLOCKEND  ---      ---       LVL=1
      0100098BH   LINE      CODE     ---       #390
      0100098BH   LINE      CODE     ---       #391
      0100098BH   LINE      CODE     ---       #392
      0100098BH   LINE      CODE     ---       #394
      01000993H   LINE      CODE     ---       #399
      01000993H   LINE      CODE     ---       #400
LX51 LINKER/LOCATER V4.41                                                             02/26/2021  11:38:21  PAGE 34


      01000998H   LINE      CODE     ---       #401
      01000998H   LINE      CODE     ---       #402
      0100099AH   LINE      CODE     ---       #403
      0100099CH   LINE      CODE     ---       #405
      0100099CH   LINE      CODE     ---       #406
      0100099EH   LINE      CODE     ---       #407
      0100099EH   LINE      CODE     ---       #408
      010009A0H   LINE      CODE     ---       #410
      010009A0H   LINE      CODE     ---       #411
      010009A5H   LINE      CODE     ---       #412
      010009A5H   LINE      CODE     ---       #413
      010009A7H   LINE      CODE     ---       #414
      010009A9H   LINE      CODE     ---       #416
      010009A9H   LINE      CODE     ---       #417
      010009ABH   LINE      CODE     ---       #418
      010009ABH   LINE      CODE     ---       #419
      010009ABH   LINE      CODE     ---       #421
      010009ADH   LINE      CODE     ---       #422
      ---         BLOCKEND  ---      ---       LVL=0

      01000A89H   BLOCK     CODE     ---       LVL=0
      00000007H   SYMBOL    DATA     BYTE      USCI0_FLAG
      01000A89H   LINE      CODE     ---       #430
      01000A89H   LINE      CODE     ---       #431
      01000A89H   LINE      CODE     ---       #433
      01000A91H   LINE      CODE     ---       #438
      01000A91H   LINE      CODE     ---       #439
      01000A95H   LINE      CODE     ---       #440
      01000A96H   LINE      CODE     ---       #442
      01000A96H   LINE      CODE     ---       #443
      01000A9AH   LINE      CODE     ---       #444
      01000A9AH   LINE      CODE     ---       #445
      ---         BLOCKEND  ---      ---       LVL=0
      00000007H   SYMBOL    DATA     BYTE      Addr
      00000005H   SYMBOL    DATA     BYTE      RW

      ---         MODULE    ---      ---       SC95F_USCI2
      01000A9BH   PUBLIC    CODE     ---       _USCI2_ClearFlag
      010009AEH   PUBLIC    CODE     ---       _USCI2_GetFlagStatus
      01000A29H   PUBLIC    CODE     ---       _USCI2_ITConfig
      01000ADBH   PUBLIC    CODE     ---       _USCI2_SPI_SendData_8
      01000A52H   PUBLIC    CODE     ---       _USCI2_SPI_Cmd
      00000008H   PUBLIC    DATA     BYTE      ?_USCI2_SPI_Init?BYTE
      010009F2H   PUBLIC    CODE     ---       _USCI2_SPI_Init
      000000C8H.2 SFRSYM    DATA     BIT       TRX
      000000FFH   SFRSYM    DATA     BYTE      OPREG
      00000080H   SFRSYM    DATA     BYTE      P0
      00000090H   SFRSYM    DATA     BYTE      P1
      000000A0H   SFRSYM    DATA     BYTE      P2
      000000A8H.4 SFRSYM    DATA     BIT       EUART
      0000008EH   SFRSYM    DATA     BYTE      TMCON
      000000B0H   SFRSYM    DATA     BYTE      P3
      000000D0H.6 SFRSYM    DATA     BIT       AC
      000000C0H   SFRSYM    DATA     BYTE      P4
      0000008FH   SFRSYM    DATA     BYTE      OTCON
      000000D8H   SFRSYM    DATA     BYTE      P5
      000000A8H.7 SFRSYM    DATA     BIT       EA
      000000C8H.5 SFRSYM    DATA     BIT       RCLKX
      000000C8H.4 SFRSYM    DATA     BIT       TCLKX
      000000C8H.3 SFRSYM    DATA     BIT       EXENX
      000000A8H.6 SFRSYM    DATA     BIT       EADC
      000000C9H   SFRSYM    DATA     BYTE      TXMOD
      000000C8H   SFRSYM    DATA     BYTE      TXCON
      000000A8H   SFRSYM    DATA     BYTE      IE
      00000085H   SFRSYM    DATA     BYTE      DPH1
LX51 LINKER/LOCATER V4.41                                                             02/26/2021  11:38:21  PAGE 35


      000000E9H   SFRSYM    DATA     BYTE      EXA0
      000000EAH   SFRSYM    DATA     BYTE      EXA1
      000000FEH   SFRSYM    DATA     BYTE      OPINX
      000000EBH   SFRSYM    DATA     BYTE      EXA2
      000000ECH   SFRSYM    DATA     BYTE      EXA3
      00000084H   SFRSYM    DATA     BYTE      DPL1
      000000C8H   SFRSYM    DATA     BIT       CP
      000000EFH   SFRSYM    DATA     BYTE      OPERCON
      0000009BH   SFRSYM    DATA     BYTE      P0PH
      000000B8H   SFRSYM    DATA     BYTE      IP
      00000092H   SFRSYM    DATA     BYTE      P1PH
      00000098H   SFRSYM    DATA     BIT       RI
      000000A2H   SFRSYM    DATA     BYTE      P2PH
      000000D0H.7 SFRSYM    DATA     BIT       CY
      000000B2H   SFRSYM    DATA     BYTE      P3PH
      00000098H.1 SFRSYM    DATA     BIT       TI
      000000CEH   SFRSYM    DATA     BYTE      TXINX
      000000C2H   SFRSYM    DATA     BYTE      P4PH
      000000B8H.1 SFRSYM    DATA     BIT       IPT0
      000000DAH   SFRSYM    DATA     BYTE      P5PH
      000000B8H.3 SFRSYM    DATA     BIT       IPT1
      000000B8H.5 SFRSYM    DATA     BIT       IPT2
      00000081H   SFRSYM    DATA     BYTE      SP
      000000D0H.2 SFRSYM    DATA     BIT       OV
      000000F4H   SFRSYM    DATA     BYTE      IAPADE
      0000009CH   SFRSYM    DATA     BYTE      P0VO
      00000094H   SFRSYM    DATA     BYTE      P1VO
      000000EEH   SFRSYM    DATA     BYTE      EXBH
      000000A3H   SFRSYM    DATA     BYTE      P2VO
      000000F3H   SFRSYM    DATA     BYTE      IAPADH
      000000B3H   SFRSYM    DATA     BYTE      P3VO
      000000ADH   SFRSYM    DATA     BYTE      ADCCON
      000000C8H.1 SFRSYM    DATA     BIT       TX
      000000EDH   SFRSYM    DATA     BYTE      EXBL
      000000F2H   SFRSYM    DATA     BYTE      IAPADL
      00000080H   SFRSYM    DATA     BIT       P00
      00000090H   SFRSYM    DATA     BIT       P10
      00000080H.1 SFRSYM    DATA     BIT       P01
      00000099H   SFRSYM    DATA     BYTE      SBUF
      00000087H   SFRSYM    DATA     BYTE      PCON
      000000A0H   SFRSYM    DATA     BIT       P20
      00000090H.1 SFRSYM    DATA     BIT       P11
      00000080H.2 SFRSYM    DATA     BIT       P02
      000000B6H   SFRSYM    DATA     BYTE      CMPCFG
      000000B0H   SFRSYM    DATA     BIT       P30
      000000A0H.1 SFRSYM    DATA     BIT       P21
      00000090H.2 SFRSYM    DATA     BIT       P12
      00000080H.3 SFRSYM    DATA     BIT       P03
      000000C0H   SFRSYM    DATA     BIT       P40
      000000B0H.1 SFRSYM    DATA     BIT       P31
      000000A0H.2 SFRSYM    DATA     BIT       P22
      00000090H.3 SFRSYM    DATA     BIT       P13
      00000080H.4 SFRSYM    DATA     BIT       P04
      00000098H   SFRSYM    DATA     BYTE      SCON
      000000D8H   SFRSYM    DATA     BIT       P50
      000000C0H.1 SFRSYM    DATA     BIT       P41
      000000B0H.2 SFRSYM    DATA     BIT       P32
      000000A0H.3 SFRSYM    DATA     BIT       P23
      00000090H.4 SFRSYM    DATA     BIT       P14
      00000080H.5 SFRSYM    DATA     BIT       P05
      000000F5H   SFRSYM    DATA     BYTE      IAPDAT
      00000088H   SFRSYM    DATA     BYTE      TCON
      00000089H   SFRSYM    DATA     BYTE      TMOD
      000000D8H.1 SFRSYM    DATA     BIT       P51
      000000C0H.2 SFRSYM    DATA     BIT       P42
LX51 LINKER/LOCATER V4.41                                                             02/26/2021  11:38:21  PAGE 36


      000000B0H.3 SFRSYM    DATA     BIT       P33
      000000A0H.4 SFRSYM    DATA     BIT       P24
      00000090H.5 SFRSYM    DATA     BIT       P15
      00000080H.6 SFRSYM    DATA     BIT       P06
      000000B8H   SFRSYM    DATA     BIT       IPINT0
      000000D8H.2 SFRSYM    DATA     BIT       P52
      000000C0H.3 SFRSYM    DATA     BIT       P43
      000000B0H.4 SFRSYM    DATA     BIT       P34
      000000A0H.5 SFRSYM    DATA     BIT       P25
      00000090H.6 SFRSYM    DATA     BIT       P16
      00000080H.7 SFRSYM    DATA     BIT       P07
      000000B8H.2 SFRSYM    DATA     BIT       IPINT1
      000000D8H.3 SFRSYM    DATA     BIT       P53
      000000C0H.4 SFRSYM    DATA     BIT       P44
      000000B0H.5 SFRSYM    DATA     BIT       P35
      000000A0H.6 SFRSYM    DATA     BIT       P26
      00000090H.7 SFRSYM    DATA     BIT       P17
      000000FDH   SFRSYM    DATA     BYTE      CRCREG
      000000D8H.4 SFRSYM    DATA     BIT       P54
      000000C0H.5 SFRSYM    DATA     BIT       P45
      000000B0H.6 SFRSYM    DATA     BIT       P36
      000000A0H.7 SFRSYM    DATA     BIT       P27
      000000D8H.5 SFRSYM    DATA     BIT       P55
      000000C0H.6 SFRSYM    DATA     BIT       P46
      000000B0H.7 SFRSYM    DATA     BIT       P37
      000000C0H.7 SFRSYM    DATA     BIT       P47
      000000C8H.6 SFRSYM    DATA     BIT       EXFX
      00000093H   SFRSYM    DATA     BYTE      DDRCON
      000000F6H   SFRSYM    DATA     BYTE      IAPCTL
      000000A9H   SFRSYM    DATA     BYTE      IE1
      000000AAH   SFRSYM    DATA     BYTE      IE2
      000000F0H   SFRSYM    DATA     BYTE      B
      000000B7H   SFRSYM    DATA     BYTE      CMPCON
      000000F1H   SFRSYM    DATA     BYTE      IAPKEY
      000000FBH   SFRSYM    DATA     BYTE      BTMCON
      000000D4H   SFRSYM    DATA     BYTE      PWMCFG
      000000E0H   SFRSYM    DATA     BYTE      ACC
      000000CBH   SFRSYM    DATA     BYTE      RCAPXH
      000000A8H.1 SFRSYM    DATA     BIT       ET0
      000000FCH   SFRSYM    DATA     BYTE      CRCINX
      00000088H.5 SFRSYM    DATA     BIT       TF0
      000000A8H.3 SFRSYM    DATA     BIT       ET1
      000000ABH   SFRSYM    DATA     BYTE      ADCCFG0
      000000B9H   SFRSYM    DATA     BYTE      IP1
      00000088H.7 SFRSYM    DATA     BIT       TF1
      000000A8H.5 SFRSYM    DATA     BIT       ET2
      000000ACH   SFRSYM    DATA     BYTE      ADCCFG1
      000000BAH   SFRSYM    DATA     BYTE      IP2
      00000098H.2 SFRSYM    DATA     BIT       RB8
      000000B5H   SFRSYM    DATA     BYTE      ADCCFG2
      000000CAH   SFRSYM    DATA     BYTE      RCAPXL
      0000008CH   SFRSYM    DATA     BYTE      TH0
      0000008DH   SFRSYM    DATA     BYTE      TH1
      00000098H.3 SFRSYM    DATA     BIT       TB8
      000000D0H   SFRSYM    DATA     BIT       P
      00000098H.7 SFRSYM    DATA     BIT       SM0
      0000008AH   SFRSYM    DATA     BYTE      TL0
      00000098H.6 SFRSYM    DATA     BIT       SM1
      000000CFH   SFRSYM    DATA     BYTE      WDTCON
      0000008BH   SFRSYM    DATA     BYTE      TL1
      00000098H.5 SFRSYM    DATA     BIT       SM2
      000000D5H   SFRSYM    DATA     BYTE      PWMDFR
      000000D0H.3 SFRSYM    DATA     BIT       RS0
      00000088H.4 SFRSYM    DATA     BIT       TR0
      000000D0H.4 SFRSYM    DATA     BIT       RS1
LX51 LINKER/LOCATER V4.41                                                             02/26/2021  11:38:21  PAGE 37


      000000D3H   SFRSYM    DATA     BYTE      PWMCON
      000000D7H   SFRSYM    DATA     BYTE      PWMMOD
      00000088H.6 SFRSYM    DATA     BIT       TR1
      000000B8H.4 SFRSYM    DATA     BIT       IPUART
      000000D6H   SFRSYM    DATA     BYTE      PWMFLT
      00000083H   SFRSYM    DATA     BYTE      DPH
      00000082H   SFRSYM    DATA     BYTE      DPL
      000000A8H   SFRSYM    DATA     BIT       EINT0
      0000009AH   SFRSYM    DATA     BYTE      P0CON
      000000A8H.2 SFRSYM    DATA     BIT       EINT1
      000000B8H.6 SFRSYM    DATA     BIT       IPADC
      000000B4H   SFRSYM    DATA     BYTE      INT0F
      00000091H   SFRSYM    DATA     BYTE      P1CON
      000000BCH   SFRSYM    DATA     BYTE      INT1F
      000000A1H   SFRSYM    DATA     BYTE      P2CON
      000000BEH   SFRSYM    DATA     BYTE      INT2F
      000000B1H   SFRSYM    DATA     BYTE      P3CON
      00000098H.4 SFRSYM    DATA     BIT       REN
      000000C1H   SFRSYM    DATA     BYTE      P4CON
      000000D9H   SFRSYM    DATA     BYTE      P5CON
      000000AFH   SFRSYM    DATA     BYTE      ADCVH
      00000086H   SFRSYM    DATA     BYTE      DPS
      00000095H   SFRSYM    DATA     BYTE      US0CON0
      000000F7H   SFRSYM    DATA     BYTE      EXADH
      000000A4H   SFRSYM    DATA     BYTE      US1CON0
      0000009DH   SFRSYM    DATA     BYTE      US0CON1
      000000AEH   SFRSYM    DATA     BYTE      ADCVL
      000000C4H   SFRSYM    DATA     BYTE      US2CON0
      000000A5H   SFRSYM    DATA     BYTE      US1CON1
      0000009EH   SFRSYM    DATA     BYTE      US0CON2
      000000C5H   SFRSYM    DATA     BYTE      US2CON1
      000000A6H   SFRSYM    DATA     BYTE      US1CON2
      0000009FH   SFRSYM    DATA     BYTE      US0CON3
      000000C6H   SFRSYM    DATA     BYTE      US2CON2
      000000A7H   SFRSYM    DATA     BYTE      US1CON3
      000000BBH   SFRSYM    DATA     BYTE      INT0R
      000000C7H   SFRSYM    DATA     BYTE      US2CON3
      000000BDH   SFRSYM    DATA     BYTE      INT1R
      000000BFH   SFRSYM    DATA     BYTE      INT2R
      000000C8H.7 SFRSYM    DATA     BIT       TFX
      00000096H   SFRSYM    DATA     BYTE      IOHCON0
      00000097H   SFRSYM    DATA     BYTE      IOHCON1
      000000CDH   SFRSYM    DATA     BYTE      THX
      000000D0H.5 SFRSYM    DATA     BIT       F0
      000000D0H.1 SFRSYM    DATA     BIT       F1
      000000CCH   SFRSYM    DATA     BYTE      TLX
      000000D0H   SFRSYM    DATA     BYTE      PSW

      010009F2H   BLOCK     CODE     ---       LVL=0
      00000007H   SYMBOL    DATA     BYTE      FirstBit
      00000005H   SYMBOL    DATA     BYTE      BaudRatePrescaler
      00000003H   SYMBOL    DATA     BYTE      Mode
      0000000BH   SYMBOL    DATA     BYTE      ClockPolarity
      0000000CH   SYMBOL    DATA     BYTE      ClockPhase
      0000000DH   SYMBOL    DATA     BYTE      SPI_TXE_INT
      0000000EH   SYMBOL    DATA     BYTE      TransmissionMode
      010009F2H   LINE      CODE     ---       #44
      010009F2H   LINE      CODE     ---       #46
      010009F2H   LINE      CODE     ---       #47
      010009FAH   LINE      CODE     ---       #49
      010009FDH   LINE      CODE     ---       #50
      01000A06H   LINE      CODE     ---       #55
      01000A12H   LINE      CODE     ---       #56
      ---         BLOCKEND  ---      ---       LVL=0

LX51 LINKER/LOCATER V4.41                                                             02/26/2021  11:38:21  PAGE 38


      01000A52H   BLOCK     CODE     ---       LVL=0
      00000007H   SYMBOL    DATA     BYTE      NewState
      01000A52H   LINE      CODE     ---       #64
      01000A52H   LINE      CODE     ---       #65
      01000A52H   LINE      CODE     ---       #66
      01000A5AH   LINE      CODE     ---       #67
      01000A5DH   LINE      CODE     ---       #68
      01000A5DH   LINE      CODE     ---       #69
      01000A60H   LINE      CODE     ---       #70
      01000A61H   LINE      CODE     ---       #72
      01000A61H   LINE      CODE     ---       #73
      01000A64H   LINE      CODE     ---       #74
      01000A64H   LINE      CODE     ---       #75
      ---         BLOCKEND  ---      ---       LVL=0

      01000ADBH   BLOCK     CODE     ---       LVL=0
      00000007H   SYMBOL    DATA     BYTE      Data
      01000ADBH   LINE      CODE     ---       #83
      01000ADBH   LINE      CODE     ---       #84
      01000ADBH   LINE      CODE     ---       #85
      01000ADDH   LINE      CODE     ---       #86
      ---         BLOCKEND  ---      ---       LVL=0
      00000004H   SYMBOL    DATA     WORD      Data
      00000006H   SYMBOL    DATA     WORD      SPI_data
      00000007H   SYMBOL    DATA     BYTE      TWI_Address
      00000007H   SYMBOL    DATA     BYTE      TWI_MasterCommunicationRate
      00000007H   SYMBOL    DATA     BYTE      NewState
      00000007H   SYMBOL    DATA     BYTE      NewState
      00000007H   SYMBOL    DATA     BYTE      NewState
      00000007H   SYMBOL    DATA     BYTE      NewState
      00000007H   SYMBOL    DATA     BYTE      Data
      00000007H   SYMBOL    DATA     BYTE      Addr
      00000005H   SYMBOL    DATA     BYTE      RW
      00000007H   SYMBOL    DATA     BYTE      Data
      00000004H   SYMBOL    DATA     WORD      Data
      00000007H   SYMBOL    DATA     BYTE      Data_9Bit
      00000006H   SYMBOL    DATA     WORD      Data9

      01000A29H   BLOCK     CODE     ---       LVL=0
      00000007H   SYMBOL    DATA     BYTE      NewState
      00000005H   SYMBOL    DATA     BYTE      Priority
      01000A29H   LINE      CODE     ---       #374
      01000A29H   LINE      CODE     ---       #375
      01000A29H   LINE      CODE     ---       #376
      01000A2CH   LINE      CODE     ---       #377
      01000A2CH   LINE      CODE     ---       #378
      01000A2FH   LINE      CODE     ---       #379
      01000A31H   LINE      CODE     ---       #381
      01000A31H   LINE      CODE     ---       #382
      01000A34H   LINE      CODE     ---       #383
      01000A34H   LINE      CODE     ---       #385
      01000A37H   LINE      CODE     ---       #386
      01000A37H   LINE      CODE     ---       #387
      01000A3AH   LINE      CODE     ---       #388
      01000A3BH   LINE      CODE     ---       #390
      01000A3BH   LINE      CODE     ---       #391
      01000A3EH   LINE      CODE     ---       #392
      01000A3EH   LINE      CODE     ---       #393
      ---         BLOCKEND  ---      ---       LVL=0

      010009AEH   BLOCK     CODE     ---       LVL=0
      00000007H   SYMBOL    DATA     BYTE      USCI2_FLAG
      010009AEH   BLOCK     CODE     NEAR LAB  LVL=1
      00000006H   SYMBOL    DATA     BYTE      bitstatus
      ---         BLOCKEND  ---      ---       LVL=1
LX51 LINKER/LOCATER V4.41                                                             02/26/2021  11:38:21  PAGE 39


      010009AEH   LINE      CODE     ---       #401
      010009AEH   LINE      CODE     ---       #402
      010009AEH   LINE      CODE     ---       #403
      010009AEH   LINE      CODE     ---       #406
      010009B6H   LINE      CODE     ---       #411
      010009B6H   LINE      CODE     ---       #412
      010009BBH   LINE      CODE     ---       #413
      010009BBH   LINE      CODE     ---       #414
      010009BDH   LINE      CODE     ---       #415
      010009BFH   LINE      CODE     ---       #417
      010009BFH   LINE      CODE     ---       #418
      010009C1H   LINE      CODE     ---       #419
      010009C1H   LINE      CODE     ---       #420
      010009C3H   LINE      CODE     ---       #422
      010009C3H   LINE      CODE     ---       #423
      010009C8H   LINE      CODE     ---       #424
      010009C8H   LINE      CODE     ---       #425
      010009CAH   LINE      CODE     ---       #426
      010009CCH   LINE      CODE     ---       #428
      010009CCH   LINE      CODE     ---       #429
      010009CEH   LINE      CODE     ---       #430
      010009CEH   LINE      CODE     ---       #431
      010009CEH   LINE      CODE     ---       #433
      010009D0H   LINE      CODE     ---       #434
      ---         BLOCKEND  ---      ---       LVL=0

      01000A9BH   BLOCK     CODE     ---       LVL=0
      00000007H   SYMBOL    DATA     BYTE      USCI2_FLAG
      01000A9BH   LINE      CODE     ---       #442
      01000A9BH   LINE      CODE     ---       #443
      01000A9BH   LINE      CODE     ---       #444
      01000AA3H   LINE      CODE     ---       #445
      01000AA3H   LINE      CODE     ---       #446
      01000AA7H   LINE      CODE     ---       #447
      01000AA8H   LINE      CODE     ---       #449
      01000AA8H   LINE      CODE     ---       #450
      01000AACH   LINE      CODE     ---       #451
      01000AACH   LINE      CODE     ---       #452
      ---         BLOCKEND  ---      ---       LVL=0

      ---         MODULE    ---      ---       SC95F_GPIO
      010005C9H   PUBLIC    CODE     ---       _GPIO_Init
      000000C8H.2 SFRSYM    DATA     BIT       TRX
      000000FFH   SFRSYM    DATA     BYTE      OPREG
      00000080H   SFRSYM    DATA     BYTE      P0
      00000090H   SFRSYM    DATA     BYTE      P1
      000000A0H   SFRSYM    DATA     BYTE      P2
      000000A8H.4 SFRSYM    DATA     BIT       EUART
      0000008EH   SFRSYM    DATA     BYTE      TMCON
      000000B0H   SFRSYM    DATA     BYTE      P3
      000000D0H.6 SFRSYM    DATA     BIT       AC
      000000C0H   SFRSYM    DATA     BYTE      P4
      0000008FH   SFRSYM    DATA     BYTE      OTCON
      000000D8H   SFRSYM    DATA     BYTE      P5
      000000A8H.7 SFRSYM    DATA     BIT       EA
      000000C8H.5 SFRSYM    DATA     BIT       RCLKX
      000000C8H.4 SFRSYM    DATA     BIT       TCLKX
      000000C8H.3 SFRSYM    DATA     BIT       EXENX
      000000A8H.6 SFRSYM    DATA     BIT       EADC
      000000C9H   SFRSYM    DATA     BYTE      TXMOD
      000000C8H   SFRSYM    DATA     BYTE      TXCON
      000000A8H   SFRSYM    DATA     BYTE      IE
      00000085H   SFRSYM    DATA     BYTE      DPH1
      000000E9H   SFRSYM    DATA     BYTE      EXA0
      000000EAH   SFRSYM    DATA     BYTE      EXA1
LX51 LINKER/LOCATER V4.41                                                             02/26/2021  11:38:21  PAGE 40


      000000FEH   SFRSYM    DATA     BYTE      OPINX
      000000EBH   SFRSYM    DATA     BYTE      EXA2
      000000ECH   SFRSYM    DATA     BYTE      EXA3
      00000084H   SFRSYM    DATA     BYTE      DPL1
      000000C8H   SFRSYM    DATA     BIT       CP
      000000EFH   SFRSYM    DATA     BYTE      OPERCON
      0000009BH   SFRSYM    DATA     BYTE      P0PH
      000000B8H   SFRSYM    DATA     BYTE      IP
      00000092H   SFRSYM    DATA     BYTE      P1PH
      00000098H   SFRSYM    DATA     BIT       RI
      000000A2H   SFRSYM    DATA     BYTE      P2PH
      000000D0H.7 SFRSYM    DATA     BIT       CY
      000000B2H   SFRSYM    DATA     BYTE      P3PH
      00000098H.1 SFRSYM    DATA     BIT       TI
      000000CEH   SFRSYM    DATA     BYTE      TXINX
      000000C2H   SFRSYM    DATA     BYTE      P4PH
      000000B8H.1 SFRSYM    DATA     BIT       IPT0
      000000DAH   SFRSYM    DATA     BYTE      P5PH
      000000B8H.3 SFRSYM    DATA     BIT       IPT1
      000000B8H.5 SFRSYM    DATA     BIT       IPT2
      00000081H   SFRSYM    DATA     BYTE      SP
      000000D0H.2 SFRSYM    DATA     BIT       OV
      000000F4H   SFRSYM    DATA     BYTE      IAPADE
      0000009CH   SFRSYM    DATA     BYTE      P0VO
      00000094H   SFRSYM    DATA     BYTE      P1VO
      000000EEH   SFRSYM    DATA     BYTE      EXBH
      000000A3H   SFRSYM    DATA     BYTE      P2VO
      000000F3H   SFRSYM    DATA     BYTE      IAPADH
      000000B3H   SFRSYM    DATA     BYTE      P3VO
      000000ADH   SFRSYM    DATA     BYTE      ADCCON
      000000C8H.1 SFRSYM    DATA     BIT       TX
      000000EDH   SFRSYM    DATA     BYTE      EXBL
      000000F2H   SFRSYM    DATA     BYTE      IAPADL
      00000080H   SFRSYM    DATA     BIT       P00
      00000090H   SFRSYM    DATA     BIT       P10
      00000080H.1 SFRSYM    DATA     BIT       P01
      00000099H   SFRSYM    DATA     BYTE      SBUF
      00000087H   SFRSYM    DATA     BYTE      PCON
      000000A0H   SFRSYM    DATA     BIT       P20
      00000090H.1 SFRSYM    DATA     BIT       P11
      00000080H.2 SFRSYM    DATA     BIT       P02
      000000B6H   SFRSYM    DATA     BYTE      CMPCFG
      000000B0H   SFRSYM    DATA     BIT       P30
      000000A0H.1 SFRSYM    DATA     BIT       P21
      00000090H.2 SFRSYM    DATA     BIT       P12
      00000080H.3 SFRSYM    DATA     BIT       P03
      000000C0H   SFRSYM    DATA     BIT       P40
      000000B0H.1 SFRSYM    DATA     BIT       P31
      000000A0H.2 SFRSYM    DATA     BIT       P22
      00000090H.3 SFRSYM    DATA     BIT       P13
      00000080H.4 SFRSYM    DATA     BIT       P04
      00000098H   SFRSYM    DATA     BYTE      SCON
      000000D8H   SFRSYM    DATA     BIT       P50
      000000C0H.1 SFRSYM    DATA     BIT       P41
      000000B0H.2 SFRSYM    DATA     BIT       P32
      000000A0H.3 SFRSYM    DATA     BIT       P23
      00000090H.4 SFRSYM    DATA     BIT       P14
      00000080H.5 SFRSYM    DATA     BIT       P05
      000000F5H   SFRSYM    DATA     BYTE      IAPDAT
      00000088H   SFRSYM    DATA     BYTE      TCON
      00000089H   SFRSYM    DATA     BYTE      TMOD
      000000D8H.1 SFRSYM    DATA     BIT       P51
      000000C0H.2 SFRSYM    DATA     BIT       P42
      000000B0H.3 SFRSYM    DATA     BIT       P33
      000000A0H.4 SFRSYM    DATA     BIT       P24
LX51 LINKER/LOCATER V4.41                                                             02/26/2021  11:38:21  PAGE 41


      00000090H.5 SFRSYM    DATA     BIT       P15
      00000080H.6 SFRSYM    DATA     BIT       P06
      000000B8H   SFRSYM    DATA     BIT       IPINT0
      000000D8H.2 SFRSYM    DATA     BIT       P52
      000000C0H.3 SFRSYM    DATA     BIT       P43
      000000B0H.4 SFRSYM    DATA     BIT       P34
      000000A0H.5 SFRSYM    DATA     BIT       P25
      00000090H.6 SFRSYM    DATA     BIT       P16
      00000080H.7 SFRSYM    DATA     BIT       P07
      000000B8H.2 SFRSYM    DATA     BIT       IPINT1
      000000D8H.3 SFRSYM    DATA     BIT       P53
      000000C0H.4 SFRSYM    DATA     BIT       P44
      000000B0H.5 SFRSYM    DATA     BIT       P35
      000000A0H.6 SFRSYM    DATA     BIT       P26
      00000090H.7 SFRSYM    DATA     BIT       P17
      000000FDH   SFRSYM    DATA     BYTE      CRCREG
      000000D8H.4 SFRSYM    DATA     BIT       P54
      000000C0H.5 SFRSYM    DATA     BIT       P45
      000000B0H.6 SFRSYM    DATA     BIT       P36
      000000A0H.7 SFRSYM    DATA     BIT       P27
      000000D8H.5 SFRSYM    DATA     BIT       P55
      000000C0H.6 SFRSYM    DATA     BIT       P46
      000000B0H.7 SFRSYM    DATA     BIT       P37
      000000C0H.7 SFRSYM    DATA     BIT       P47
      000000C8H.6 SFRSYM    DATA     BIT       EXFX
      00000093H   SFRSYM    DATA     BYTE      DDRCON
      000000F6H   SFRSYM    DATA     BYTE      IAPCTL
      000000A9H   SFRSYM    DATA     BYTE      IE1
      000000AAH   SFRSYM    DATA     BYTE      IE2
      000000F0H   SFRSYM    DATA     BYTE      B
      000000B7H   SFRSYM    DATA     BYTE      CMPCON
      000000F1H   SFRSYM    DATA     BYTE      IAPKEY
      000000FBH   SFRSYM    DATA     BYTE      BTMCON
      000000D4H   SFRSYM    DATA     BYTE      PWMCFG
      000000E0H   SFRSYM    DATA     BYTE      ACC
      000000CBH   SFRSYM    DATA     BYTE      RCAPXH
      000000A8H.1 SFRSYM    DATA     BIT       ET0
      000000FCH   SFRSYM    DATA     BYTE      CRCINX
      00000088H.5 SFRSYM    DATA     BIT       TF0
      000000A8H.3 SFRSYM    DATA     BIT       ET1
      000000ABH   SFRSYM    DATA     BYTE      ADCCFG0
      000000B9H   SFRSYM    DATA     BYTE      IP1
      00000088H.7 SFRSYM    DATA     BIT       TF1
      000000A8H.5 SFRSYM    DATA     BIT       ET2
      000000ACH   SFRSYM    DATA     BYTE      ADCCFG1
      000000BAH   SFRSYM    DATA     BYTE      IP2
      00000098H.2 SFRSYM    DATA     BIT       RB8
      000000B5H   SFRSYM    DATA     BYTE      ADCCFG2
      000000CAH   SFRSYM    DATA     BYTE      RCAPXL
      0000008CH   SFRSYM    DATA     BYTE      TH0
      0000008DH   SFRSYM    DATA     BYTE      TH1
      00000098H.3 SFRSYM    DATA     BIT       TB8
      000000D0H   SFRSYM    DATA     BIT       P
      00000098H.7 SFRSYM    DATA     BIT       SM0
      0000008AH   SFRSYM    DATA     BYTE      TL0
      00000098H.6 SFRSYM    DATA     BIT       SM1
      000000CFH   SFRSYM    DATA     BYTE      WDTCON
      0000008BH   SFRSYM    DATA     BYTE      TL1
      00000098H.5 SFRSYM    DATA     BIT       SM2
      000000D5H   SFRSYM    DATA     BYTE      PWMDFR
      000000D0H.3 SFRSYM    DATA     BIT       RS0
      00000088H.4 SFRSYM    DATA     BIT       TR0
      000000D0H.4 SFRSYM    DATA     BIT       RS1
      000000D3H   SFRSYM    DATA     BYTE      PWMCON
      000000D7H   SFRSYM    DATA     BYTE      PWMMOD
LX51 LINKER/LOCATER V4.41                                                             02/26/2021  11:38:21  PAGE 42


      00000088H.6 SFRSYM    DATA     BIT       TR1
      000000B8H.4 SFRSYM    DATA     BIT       IPUART
      000000D6H   SFRSYM    DATA     BYTE      PWMFLT
      00000083H   SFRSYM    DATA     BYTE      DPH
      00000082H   SFRSYM    DATA     BYTE      DPL
      000000A8H   SFRSYM    DATA     BIT       EINT0
      0000009AH   SFRSYM    DATA     BYTE      P0CON
      000000A8H.2 SFRSYM    DATA     BIT       EINT1
      000000B8H.6 SFRSYM    DATA     BIT       IPADC
      000000B4H   SFRSYM    DATA     BYTE      INT0F
      00000091H   SFRSYM    DATA     BYTE      P1CON
      000000BCH   SFRSYM    DATA     BYTE      INT1F
      000000A1H   SFRSYM    DATA     BYTE      P2CON
      000000BEH   SFRSYM    DATA     BYTE      INT2F
      000000B1H   SFRSYM    DATA     BYTE      P3CON
      00000098H.4 SFRSYM    DATA     BIT       REN
      000000C1H   SFRSYM    DATA     BYTE      P4CON
      000000D9H   SFRSYM    DATA     BYTE      P5CON
      000000AFH   SFRSYM    DATA     BYTE      ADCVH
      00000086H   SFRSYM    DATA     BYTE      DPS
      00000095H   SFRSYM    DATA     BYTE      US0CON0
      000000F7H   SFRSYM    DATA     BYTE      EXADH
      000000A4H   SFRSYM    DATA     BYTE      US1CON0
      0000009DH   SFRSYM    DATA     BYTE      US0CON1
      000000AEH   SFRSYM    DATA     BYTE      ADCVL
      000000C4H   SFRSYM    DATA     BYTE      US2CON0
      000000A5H   SFRSYM    DATA     BYTE      US1CON1
      0000009EH   SFRSYM    DATA     BYTE      US0CON2
      000000C5H   SFRSYM    DATA     BYTE      US2CON1
      000000A6H   SFRSYM    DATA     BYTE      US1CON2
      0000009FH   SFRSYM    DATA     BYTE      US0CON3
      000000C6H   SFRSYM    DATA     BYTE      US2CON2
      000000A7H   SFRSYM    DATA     BYTE      US1CON3
      000000BBH   SFRSYM    DATA     BYTE      INT0R
      000000C7H   SFRSYM    DATA     BYTE      US2CON3
      000000BDH   SFRSYM    DATA     BYTE      INT1R
      000000BFH   SFRSYM    DATA     BYTE      INT2R
      000000C8H.7 SFRSYM    DATA     BIT       TFX
      00000096H   SFRSYM    DATA     BYTE      IOHCON0
      00000097H   SFRSYM    DATA     BYTE      IOHCON1
      000000CDH   SFRSYM    DATA     BYTE      THX
      000000D0H.5 SFRSYM    DATA     BIT       F0
      000000D0H.1 SFRSYM    DATA     BIT       F1
      000000CCH   SFRSYM    DATA     BYTE      TLX
      000000D0H   SFRSYM    DATA     BYTE      PSW

      010005C9H   BLOCK     CODE     ---       LVL=0
      00000007H   SYMBOL    DATA     BYTE      GPIOx
      00000005H   SYMBOL    DATA     BYTE      PortPins
      00000003H   SYMBOL    DATA     BYTE      GPIO_Mode
      010005C9H   LINE      CODE     ---       #58
      010005C9H   LINE      CODE     ---       #59
      010005C9H   LINE      CODE     ---       #60
      010005CCH   LINE      CODE     ---       #61
      010005CCH   LINE      CODE     ---       #62
      010005CFH   LINE      CODE     ---       #63
      010005CFH   LINE      CODE     ---       #64
      010005D3H   LINE      CODE     ---       #65
      010005D5H   LINE      CODE     ---       #66
      010005D5H   LINE      CODE     ---       #67
      010005D8H   LINE      CODE     ---       #68
      010005D8H   LINE      CODE     ---       #69
      010005DCH   LINE      CODE     ---       #70
      010005DFH   LINE      CODE     ---       #71
      010005DFH   LINE      CODE     ---       #72
LX51 LINKER/LOCATER V4.41                                                             02/26/2021  11:38:21  PAGE 43


      010005E7H   LINE      CODE     ---       #73
      010005E7H   LINE      CODE     ---       #74
      010005EAH   LINE      CODE     ---       #75
      010005EAH   LINE      CODE     ---       #76
      010005EBH   LINE      CODE     ---       #77
      010005F0H   LINE      CODE     ---       #78
      010005F0H   LINE      CODE     ---       #79
      010005F3H   LINE      CODE     ---       #80
      010005F3H   LINE      CODE     ---       #81
      010005F7H   LINE      CODE     ---       #82
      010005F9H   LINE      CODE     ---       #83
      010005F9H   LINE      CODE     ---       #84
      010005FCH   LINE      CODE     ---       #85
      010005FCH   LINE      CODE     ---       #86
      01000600H   LINE      CODE     ---       #87
      01000603H   LINE      CODE     ---       #88
      01000603H   LINE      CODE     ---       #89
      0100060BH   LINE      CODE     ---       #90
      0100060BH   LINE      CODE     ---       #91
      0100060EH   LINE      CODE     ---       #92
      0100060EH   LINE      CODE     ---       #93
      0100060FH   LINE      CODE     ---       #94
      01000614H   LINE      CODE     ---       #95
      01000614H   LINE      CODE     ---       #96
      01000617H   LINE      CODE     ---       #97
      01000617H   LINE      CODE     ---       #98
      0100061BH   LINE      CODE     ---       #99
      0100061DH   LINE      CODE     ---       #100
      0100061DH   LINE      CODE     ---       #101
      01000620H   LINE      CODE     ---       #102
      01000620H   LINE      CODE     ---       #103
      01000624H   LINE      CODE     ---       #104
      01000627H   LINE      CODE     ---       #105
      01000627H   LINE      CODE     ---       #106
      0100062CH   LINE      CODE     ---       #107
      0100062CH   LINE      CODE     ---       #108
      0100062FH   LINE      CODE     ---       #109
      0100062FH   LINE      CODE     ---       #110
      01000630H   LINE      CODE     ---       #112
      01000635H   LINE      CODE     ---       #113
      01000635H   LINE      CODE     ---       #114
      01000638H   LINE      CODE     ---       #115
      01000638H   LINE      CODE     ---       #116
      0100063CH   LINE      CODE     ---       #117
      0100063EH   LINE      CODE     ---       #118
      0100063EH   LINE      CODE     ---       #119
      01000641H   LINE      CODE     ---       #120
      01000641H   LINE      CODE     ---       #121
      01000645H   LINE      CODE     ---       #122
      01000648H   LINE      CODE     ---       #123
      01000648H   LINE      CODE     ---       #124
      0100064DH   LINE      CODE     ---       #125
      0100064DH   LINE      CODE     ---       #126
      01000650H   LINE      CODE     ---       #127
      01000650H   LINE      CODE     ---       #128
      01000651H   LINE      CODE     ---       #129
      01000656H   LINE      CODE     ---       #130
      01000656H   LINE      CODE     ---       #131
      01000659H   LINE      CODE     ---       #132
      01000659H   LINE      CODE     ---       #133
      0100065DH   LINE      CODE     ---       #134
      0100065FH   LINE      CODE     ---       #135
      0100065FH   LINE      CODE     ---       #136
      01000662H   LINE      CODE     ---       #137
      01000662H   LINE      CODE     ---       #138
LX51 LINKER/LOCATER V4.41                                                             02/26/2021  11:38:21  PAGE 44


      01000666H   LINE      CODE     ---       #139
      01000669H   LINE      CODE     ---       #140
      01000669H   LINE      CODE     ---       #141
      0100066EH   LINE      CODE     ---       #142
      0100066EH   LINE      CODE     ---       #143
      01000671H   LINE      CODE     ---       #144
      01000671H   LINE      CODE     ---       #145
      01000672H   LINE      CODE     ---       #148
      01000672H   LINE      CODE     ---       #149
      01000677H   LINE      CODE     ---       #150
      01000677H   LINE      CODE     ---       #151
      0100067AH   LINE      CODE     ---       #152
      0100067AH   LINE      CODE     ---       #153
      0100067EH   LINE      CODE     ---       #154
      01000680H   LINE      CODE     ---       #155
      01000680H   LINE      CODE     ---       #156
      01000683H   LINE      CODE     ---       #157
      01000683H   LINE      CODE     ---       #158
      01000687H   LINE      CODE     ---       #159
      0100068AH   LINE      CODE     ---       #160
      0100068AH   LINE      CODE     ---       #161
      0100068DH   LINE      CODE     ---       #162
      0100068DH   LINE      CODE     ---       #163
      01000690H   LINE      CODE     ---       #164
      01000690H   LINE      CODE     ---       #165
      01000690H   LINE      CODE     ---       #166
      01000690H   LINE      CODE     ---       #167
      ---         BLOCKEND  ---      ---       LVL=0
      00000007H   SYMBOL    DATA     BYTE      GPIOx
      00000005H   SYMBOL    DATA     BYTE      PortVal
      00000007H   SYMBOL    DATA     BYTE      GPIOx
      00000005H   SYMBOL    DATA     BYTE      PortPins
      00000007H   SYMBOL    DATA     BYTE      GPIOx
      00000005H   SYMBOL    DATA     BYTE      PortPins
      00000007H   SYMBOL    DATA     BYTE      GPIOx
      00000007H   SYMBOL    DATA     BYTE      GPIOx
      00000005H   SYMBOL    DATA     BYTE      PortPins

      ---         MODULE    ---      ---       SC95F_OPTION
      000000C8H.2 SFRSYM    DATA     BIT       TRX
      000000FFH   SFRSYM    DATA     BYTE      OPREG
      00000080H   SFRSYM    DATA     BYTE      P0
      00000090H   SFRSYM    DATA     BYTE      P1
      000000A0H   SFRSYM    DATA     BYTE      P2
      000000A8H.4 SFRSYM    DATA     BIT       EUART
      0000008EH   SFRSYM    DATA     BYTE      TMCON
      000000B0H   SFRSYM    DATA     BYTE      P3
      000000D0H.6 SFRSYM    DATA     BIT       AC
      000000C0H   SFRSYM    DATA     BYTE      P4
      0000008FH   SFRSYM    DATA     BYTE      OTCON
      000000D8H   SFRSYM    DATA     BYTE      P5
      000000A8H.7 SFRSYM    DATA     BIT       EA
      000000C8H.5 SFRSYM    DATA     BIT       RCLKX
      000000C8H.4 SFRSYM    DATA     BIT       TCLKX
      000000C8H.3 SFRSYM    DATA     BIT       EXENX
      000000A8H.6 SFRSYM    DATA     BIT       EADC
      000000C9H   SFRSYM    DATA     BYTE      TXMOD
      000000C8H   SFRSYM    DATA     BYTE      TXCON
      000000A8H   SFRSYM    DATA     BYTE      IE
      00000085H   SFRSYM    DATA     BYTE      DPH1
      000000E9H   SFRSYM    DATA     BYTE      EXA0
      000000EAH   SFRSYM    DATA     BYTE      EXA1
      000000FEH   SFRSYM    DATA     BYTE      OPINX
      000000EBH   SFRSYM    DATA     BYTE      EXA2
      000000ECH   SFRSYM    DATA     BYTE      EXA3
LX51 LINKER/LOCATER V4.41                                                             02/26/2021  11:38:21  PAGE 45


      00000084H   SFRSYM    DATA     BYTE      DPL1
      000000C8H   SFRSYM    DATA     BIT       CP
      000000EFH   SFRSYM    DATA     BYTE      OPERCON
      0000009BH   SFRSYM    DATA     BYTE      P0PH
      000000B8H   SFRSYM    DATA     BYTE      IP
      00000092H   SFRSYM    DATA     BYTE      P1PH
      00000098H   SFRSYM    DATA     BIT       RI
      000000A2H   SFRSYM    DATA     BYTE      P2PH
      000000D0H.7 SFRSYM    DATA     BIT       CY
      000000B2H   SFRSYM    DATA     BYTE      P3PH
      00000098H.1 SFRSYM    DATA     BIT       TI
      000000CEH   SFRSYM    DATA     BYTE      TXINX
      000000C2H   SFRSYM    DATA     BYTE      P4PH
      000000B8H.1 SFRSYM    DATA     BIT       IPT0
      000000DAH   SFRSYM    DATA     BYTE      P5PH
      000000B8H.3 SFRSYM    DATA     BIT       IPT1
      000000B8H.5 SFRSYM    DATA     BIT       IPT2
      00000081H   SFRSYM    DATA     BYTE      SP
      000000D0H.2 SFRSYM    DATA     BIT       OV
      000000F4H   SFRSYM    DATA     BYTE      IAPADE
      0000009CH   SFRSYM    DATA     BYTE      P0VO
      00000094H   SFRSYM    DATA     BYTE      P1VO
      000000EEH   SFRSYM    DATA     BYTE      EXBH
      000000A3H   SFRSYM    DATA     BYTE      P2VO
      000000F3H   SFRSYM    DATA     BYTE      IAPADH
      000000B3H   SFRSYM    DATA     BYTE      P3VO
      000000ADH   SFRSYM    DATA     BYTE      ADCCON
      000000C8H.1 SFRSYM    DATA     BIT       TX
      000000EDH   SFRSYM    DATA     BYTE      EXBL
      000000F2H   SFRSYM    DATA     BYTE      IAPADL
      00000080H   SFRSYM    DATA     BIT       P00
      00000090H   SFRSYM    DATA     BIT       P10
      00000080H.1 SFRSYM    DATA     BIT       P01
      00000099H   SFRSYM    DATA     BYTE      SBUF
      00000087H   SFRSYM    DATA     BYTE      PCON
      000000A0H   SFRSYM    DATA     BIT       P20
      00000090H.1 SFRSYM    DATA     BIT       P11
      00000080H.2 SFRSYM    DATA     BIT       P02
      000000B6H   SFRSYM    DATA     BYTE      CMPCFG
      000000B0H   SFRSYM    DATA     BIT       P30
      000000A0H.1 SFRSYM    DATA     BIT       P21
      00000090H.2 SFRSYM    DATA     BIT       P12
      00000080H.3 SFRSYM    DATA     BIT       P03
      000000C0H   SFRSYM    DATA     BIT       P40
      000000B0H.1 SFRSYM    DATA     BIT       P31
      000000A0H.2 SFRSYM    DATA     BIT       P22
      00000090H.3 SFRSYM    DATA     BIT       P13
      00000080H.4 SFRSYM    DATA     BIT       P04
      00000098H   SFRSYM    DATA     BYTE      SCON
      000000D8H   SFRSYM    DATA     BIT       P50
      000000C0H.1 SFRSYM    DATA     BIT       P41
      000000B0H.2 SFRSYM    DATA     BIT       P32
      000000A0H.3 SFRSYM    DATA     BIT       P23
      00000090H.4 SFRSYM    DATA     BIT       P14
      00000080H.5 SFRSYM    DATA     BIT       P05
      000000F5H   SFRSYM    DATA     BYTE      IAPDAT
      00000088H   SFRSYM    DATA     BYTE      TCON
      00000089H   SFRSYM    DATA     BYTE      TMOD
      000000D8H.1 SFRSYM    DATA     BIT       P51
      000000C0H.2 SFRSYM    DATA     BIT       P42
      000000B0H.3 SFRSYM    DATA     BIT       P33
      000000A0H.4 SFRSYM    DATA     BIT       P24
      00000090H.5 SFRSYM    DATA     BIT       P15
      00000080H.6 SFRSYM    DATA     BIT       P06
      000000B8H   SFRSYM    DATA     BIT       IPINT0
LX51 LINKER/LOCATER V4.41                                                             02/26/2021  11:38:21  PAGE 46


      000000D8H.2 SFRSYM    DATA     BIT       P52
      000000C0H.3 SFRSYM    DATA     BIT       P43
      000000B0H.4 SFRSYM    DATA     BIT       P34
      000000A0H.5 SFRSYM    DATA     BIT       P25
      00000090H.6 SFRSYM    DATA     BIT       P16
      00000080H.7 SFRSYM    DATA     BIT       P07
      000000B8H.2 SFRSYM    DATA     BIT       IPINT1
      000000D8H.3 SFRSYM    DATA     BIT       P53
      000000C0H.4 SFRSYM    DATA     BIT       P44
      000000B0H.5 SFRSYM    DATA     BIT       P35
      000000A0H.6 SFRSYM    DATA     BIT       P26
      00000090H.7 SFRSYM    DATA     BIT       P17
      000000FDH   SFRSYM    DATA     BYTE      CRCREG
      000000D8H.4 SFRSYM    DATA     BIT       P54
      000000C0H.5 SFRSYM    DATA     BIT       P45
      000000B0H.6 SFRSYM    DATA     BIT       P36
      000000A0H.7 SFRSYM    DATA     BIT       P27
      000000D8H.5 SFRSYM    DATA     BIT       P55
      000000C0H.6 SFRSYM    DATA     BIT       P46
      000000B0H.7 SFRSYM    DATA     BIT       P37
      000000C0H.7 SFRSYM    DATA     BIT       P47
      000000C8H.6 SFRSYM    DATA     BIT       EXFX
      00000093H   SFRSYM    DATA     BYTE      DDRCON
      000000F6H   SFRSYM    DATA     BYTE      IAPCTL
      000000A9H   SFRSYM    DATA     BYTE      IE1
      000000AAH   SFRSYM    DATA     BYTE      IE2
      000000F0H   SFRSYM    DATA     BYTE      B
      000000B7H   SFRSYM    DATA     BYTE      CMPCON
      000000F1H   SFRSYM    DATA     BYTE      IAPKEY
      000000FBH   SFRSYM    DATA     BYTE      BTMCON
      000000D4H   SFRSYM    DATA     BYTE      PWMCFG
      000000E0H   SFRSYM    DATA     BYTE      ACC
      000000CBH   SFRSYM    DATA     BYTE      RCAPXH
      000000A8H.1 SFRSYM    DATA     BIT       ET0
      000000FCH   SFRSYM    DATA     BYTE      CRCINX
      00000088H.5 SFRSYM    DATA     BIT       TF0
      000000A8H.3 SFRSYM    DATA     BIT       ET1
      000000ABH   SFRSYM    DATA     BYTE      ADCCFG0
      000000B9H   SFRSYM    DATA     BYTE      IP1
      00000088H.7 SFRSYM    DATA     BIT       TF1
      000000A8H.5 SFRSYM    DATA     BIT       ET2
      000000ACH   SFRSYM    DATA     BYTE      ADCCFG1
      000000BAH   SFRSYM    DATA     BYTE      IP2
      00000098H.2 SFRSYM    DATA     BIT       RB8
      000000B5H   SFRSYM    DATA     BYTE      ADCCFG2
      000000CAH   SFRSYM    DATA     BYTE      RCAPXL
      0000008CH   SFRSYM    DATA     BYTE      TH0
      0000008DH   SFRSYM    DATA     BYTE      TH1
      00000098H.3 SFRSYM    DATA     BIT       TB8
      000000D0H   SFRSYM    DATA     BIT       P
      00000098H.7 SFRSYM    DATA     BIT       SM0
      0000008AH   SFRSYM    DATA     BYTE      TL0
      00000098H.6 SFRSYM    DATA     BIT       SM1
      000000CFH   SFRSYM    DATA     BYTE      WDTCON
      0000008BH   SFRSYM    DATA     BYTE      TL1
      00000098H.5 SFRSYM    DATA     BIT       SM2
      000000D5H   SFRSYM    DATA     BYTE      PWMDFR
      000000D0H.3 SFRSYM    DATA     BIT       RS0
      00000088H.4 SFRSYM    DATA     BIT       TR0
      000000D0H.4 SFRSYM    DATA     BIT       RS1
      000000D3H   SFRSYM    DATA     BYTE      PWMCON
      000000D7H   SFRSYM    DATA     BYTE      PWMMOD
      00000088H.6 SFRSYM    DATA     BIT       TR1
      000000B8H.4 SFRSYM    DATA     BIT       IPUART
      000000D6H   SFRSYM    DATA     BYTE      PWMFLT
LX51 LINKER/LOCATER V4.41                                                             02/26/2021  11:38:21  PAGE 47


      00000083H   SFRSYM    DATA     BYTE      DPH
      00000082H   SFRSYM    DATA     BYTE      DPL
      000000A8H   SFRSYM    DATA     BIT       EINT0
      0000009AH   SFRSYM    DATA     BYTE      P0CON
      000000A8H.2 SFRSYM    DATA     BIT       EINT1
      000000B8H.6 SFRSYM    DATA     BIT       IPADC
      000000B4H   SFRSYM    DATA     BYTE      INT0F
      00000091H   SFRSYM    DATA     BYTE      P1CON
      000000BCH   SFRSYM    DATA     BYTE      INT1F
      000000A1H   SFRSYM    DATA     BYTE      P2CON
      000000BEH   SFRSYM    DATA     BYTE      INT2F
      000000B1H   SFRSYM    DATA     BYTE      P3CON
      00000098H.4 SFRSYM    DATA     BIT       REN
      000000C1H   SFRSYM    DATA     BYTE      P4CON
      000000D9H   SFRSYM    DATA     BYTE      P5CON
      000000AFH   SFRSYM    DATA     BYTE      ADCVH
      00000086H   SFRSYM    DATA     BYTE      DPS
      00000095H   SFRSYM    DATA     BYTE      US0CON0
      000000F7H   SFRSYM    DATA     BYTE      EXADH
      000000A4H   SFRSYM    DATA     BYTE      US1CON0
      0000009DH   SFRSYM    DATA     BYTE      US0CON1
      000000AEH   SFRSYM    DATA     BYTE      ADCVL
      000000C4H   SFRSYM    DATA     BYTE      US2CON0
      000000A5H   SFRSYM    DATA     BYTE      US1CON1
      0000009EH   SFRSYM    DATA     BYTE      US0CON2
      000000C5H   SFRSYM    DATA     BYTE      US2CON1
      000000A6H   SFRSYM    DATA     BYTE      US1CON2
      0000009FH   SFRSYM    DATA     BYTE      US0CON3
      000000C6H   SFRSYM    DATA     BYTE      US2CON2
      000000A7H   SFRSYM    DATA     BYTE      US1CON3
      000000BBH   SFRSYM    DATA     BYTE      INT0R
      000000C7H   SFRSYM    DATA     BYTE      US2CON3
      000000BDH   SFRSYM    DATA     BYTE      INT1R
      000000BFH   SFRSYM    DATA     BYTE      INT2R
      000000C8H.7 SFRSYM    DATA     BIT       TFX
      00000096H   SFRSYM    DATA     BYTE      IOHCON0
      00000097H   SFRSYM    DATA     BYTE      IOHCON1
      000000CDH   SFRSYM    DATA     BYTE      THX
      000000D0H.5 SFRSYM    DATA     BIT       F0
      000000D0H.1 SFRSYM    DATA     BIT       F1
      000000CCH   SFRSYM    DATA     BYTE      TLX
      000000D0H   SFRSYM    DATA     BYTE      PSW
      00000007H   SYMBOL    DATA     BYTE      NewState
      00000007H   SYMBOL    DATA     BYTE      NewState
      00000007H   SYMBOL    DATA     BYTE      SYSCLK_PresSel
      00000007H   SYMBOL    DATA     BYTE      NewState
      00000007H   SYMBOL    DATA     BYTE      LVR_Config
      00000007H   SYMBOL    DATA     BYTE      ADC_Vref
      00000007H   SYMBOL    DATA     BYTE      IAP_OperateRange
      00000007H   SYMBOL    DATA     BYTE      NewState

      ---         MODULE    ---      ---       ?C_STARTUP
      01000000H   PUBLIC    CODE     ---       ?C_STARTUP
      000000E0H   SYMBOL    DATA     ---       ACC
      000000F0H   SYMBOL    DATA     ---       B
      00000083H   SYMBOL    DATA     ---       DPH
      00000082H   SYMBOL    DATA     ---       DPL
      00000000H   SYMBOL    NUMBER   ---       IBPSTACK
      00000100H   SYMBOL    NUMBER   ---       IBPSTACKTOP
      00000100H   SYMBOL    NUMBER   ---       IDATALEN
      01000756H   SYMBOL    CODE     ---       IDATALOOP
      00000000H   SYMBOL    NUMBER   ---       PBPSTACK
      00000100H   SYMBOL    NUMBER   ---       PBPSTACKTOP
      00000000H   SYMBOL    NUMBER   ---       PDATALEN
      00000000H   SYMBOL    NUMBER   ---       PDATASTART
LX51 LINKER/LOCATER V4.41                                                             02/26/2021  11:38:21  PAGE 48


      00000000H   SYMBOL    NUMBER   ---       PPAGE
      00000000H   SYMBOL    NUMBER   ---       PPAGEENABLE
      000000A0H   SYMBOL    DATA     ---       PPAGE_SFR
      00000081H   SYMBOL    DATA     ---       SP
      01000753H   SYMBOL    CODE     ---       STARTUP1
      00000000H   SYMBOL    NUMBER   ---       XBPSTACK
      00000000H   SYMBOL    NUMBER   ---       XBPSTACKTOP
      00000100H   SYMBOL    NUMBER   ---       XDATALEN
      01000761H   SYMBOL    CODE     ---       XDATALOOP
      00000000H   SYMBOL    NUMBER   ---       XDATASTART
      01000000H   LINE      CODE     ---       #126
      01000753H   LINE      CODE     ---       #133
      01000755H   LINE      CODE     ---       #134
      01000756H   LINE      CODE     ---       #135
      01000757H   LINE      CODE     ---       #136
      01000759H   LINE      CODE     ---       #140
      0100075CH   LINE      CODE     ---       #141
      0100075EH   LINE      CODE     ---       #145
      01000760H   LINE      CODE     ---       #147
      01000761H   LINE      CODE     ---       #148
      01000762H   LINE      CODE     ---       #149
      01000763H   LINE      CODE     ---       #150
      01000765H   LINE      CODE     ---       #151
      01000767H   LINE      CODE     ---       #185
      0100076AH   LINE      CODE     ---       #196

      ---         MODULE    ---      ---       ?C_INIT
      010007A8H   PUBLIC    CODE     ---       ?C_START

      ---         MODULE    ---      ---       ?C?ULDIV
      01000498H   PUBLIC    CODE     ---       ?C?ULDIV

      ---         MODULE    ---      ---       ?C?ULCMP
      0100052AH   PUBLIC    CODE     ---       ?C?ULCMP

      ---         MODULE    ---      ---       PRINTF
      00000008H   PUBLIC    DATA     ---       ?_PRINTF517?BYTE
      00000008H   PUBLIC    DATA     ---       ?_PRINTF?BYTE
      00000008H   PUBLIC    DATA     ---       ?_SPRINTF517?BYTE
      00000008H   PUBLIC    DATA     ---       ?_SPRINTF?BYTE
      01000162H   PUBLIC    CODE     ---       _PRINTF
      01000162H   PUBLIC    CODE     ---       _PRINTF517
      0100015CH   PUBLIC    CODE     ---       _SPRINTF
      0100015CH   PUBLIC    CODE     ---       _SPRINTF517

      ---         MODULE    ---      ---       ?C?CLDPTR
      0100053BH   PUBLIC    CODE     ---       ?C?CLDPTR

      ---         MODULE    ---      ---       ?C?CLDOPTR
      01000554H   PUBLIC    CODE     ---       ?C?CLDOPTR

      ---         MODULE    ---      ---       ?C?CSTPTR
      01000581H   PUBLIC    CODE     ---       ?C?CSTPTR

      ---         MODULE    ---      ---       ?C?PLDIIDATA
      01000593H   PUBLIC    CODE     ---       ?C?PLDIIDATA

      ---         MODULE    ---      ---       ?C?CCASE
      010005A3H   PUBLIC    CODE     ---       ?C?CCASE

Program Size: data=32.4 xdata=0 const=0 code=2590
LX51 RUN COMPLETE.  0 WARNING(S),  0 ERROR(S)
