BL51 BANKED LINKER/LOCATER V6.22                                                        10/28/2019  17:02:53  PAGE 1


BL51 BANKED LINKER/LOCATER V6.22, INVOKED BY:
C:\KEIL\C51\BIN\BL51.EXE ..\OUTPUT\main.obj, ..\OUTPUT\sc95f861x_it.obj, ..\OUTPUT\sc95f861x_gpio.obj, ..\OUTPUT\sc95f86
>> 1x_usci2.obj, ..\OUTPUT\STARTUP.obj TO ..\OUTPUT\USCI2_Master PRINT (..\LST\USCI2_Master.m51) RAMSIZE (256) DISABLEWA
>> RNING (16) CODE (0X100)


MEMORY MODEL: SMALL


INPUT MODULES INCLUDED:
  ..\OUTPUT\main.obj (MAIN)
  ..\OUTPUT\sc95f861x_it.obj (SC95F861X_IT)
  ..\OUTPUT\sc95f861x_gpio.obj (SC95F861X_GPIO)
  ..\OUTPUT\sc95f861x_usci2.obj (SC95F861X_USCI2)
  ..\OUTPUT\STARTUP.obj (?C_STARTUP)
  C:\KEIL\C51\LIB\C51S.LIB (?C_INIT)
  C:\KEIL\C51\LIB\C51S.LIB (?C?ULDIV)


LINK MAP OF MODULE:  ..\OUTPUT\USCI2_Master (MAIN)


            TYPE    BASE      LENGTH    RELOCATION   SEGMENT NAME
            -----------------------------------------------------

            * * * * * * *   D A T A   M E M O R Y   * * * * * * *
            REG     0000H     0008H     ABSOLUTE     "REG BANK 0"
            DATA    0008H     000AH     UNIT         ?DT?_USCI2_UART_INIT?SC95F861X_USCI2
            DATA    0012H     0007H     UNIT         ?DT?_USCI2_SPI_INIT?SC95F861X_USCI2
                    0019H     0007H                  *** GAP ***
            BIT     0020H.0   0000H.1   UNIT         ?BI?SC95F861X_IT
                    0020H.1   0000H.7                *** GAP ***
            IDATA   0021H     0001H     UNIT         ?STACK

            * * * * * * *   C O D E   M E M O R Y   * * * * * * *
            CODE    0000H     0003H     ABSOLUTE     
            CODE    0003H     0003H     ABSOLUTE     
                    0006H     0005H                  *** GAP ***
            CODE    000BH     0003H     ABSOLUTE     
                    000EH     0005H                  *** GAP ***
            CODE    0013H     0003H     ABSOLUTE     
                    0016H     0005H                  *** GAP ***
            CODE    001BH     0003H     ABSOLUTE     
                    001EH     0005H                  *** GAP ***
            CODE    0023H     0003H     ABSOLUTE     
                    0026H     0005H                  *** GAP ***
            CODE    002BH     0003H     ABSOLUTE     
                    002EH     0005H                  *** GAP ***
            CODE    0033H     0003H     ABSOLUTE     
                    0036H     0005H                  *** GAP ***
            CODE    003BH     0003H     ABSOLUTE     
                    003EH     0005H                  *** GAP ***
            CODE    0043H     0003H     ABSOLUTE     
                    0046H     0005H                  *** GAP ***
            CODE    004BH     0003H     ABSOLUTE     
                    004EH     0005H                  *** GAP ***
            CODE    0053H     0003H     ABSOLUTE     
                    0056H     000DH                  *** GAP ***
BL51 BANKED LINKER/LOCATER V6.22                                                      10/28/2019  17:02:53  PAGE 2


            CODE    0063H     0003H     ABSOLUTE     
                    0066H     0005H                  *** GAP ***
            CODE    006BH     0003H     ABSOLUTE     
                    006EH     0005H                  *** GAP ***
            CODE    0073H     0003H     ABSOLUTE     
                    0076H     0005H                  *** GAP ***
            CODE    007BH     0003H     ABSOLUTE     
                    007EH     0005H                  *** GAP ***
            CODE    0083H     0003H     ABSOLUTE     
                    0086H     007AH                  *** GAP ***
            CODE    0100H     00CEH     UNIT         ?C?LIB_CODE
            CODE    01CEH     00C8H     UNIT         ?PR?_GPIO_INIT?SC95F861X_GPIO
            CODE    0296H     009AH     UNIT         ?C_C51STARTUP
            CODE    0330H     0049H     UNIT         ?PR?_USCI2_UART_INIT?SC95F861X_USCI2
            CODE    0379H     0043H     UNIT         ?PR?MAIN?MAIN
            CODE    03BCH     002DH     UNIT         ?PR?_GPIO_READPIN?SC95F861X_GPIO
            CODE    03E9H     002BH     UNIT         ?PR?_GPIO_WRITELOW?SC95F861X_GPIO
            CODE    0414H     0028H     UNIT         ?PR?_USCI2_GETFLAGSTATUS?SC95F861X_USCI2
            CODE    043CH     0026H     UNIT         ?PR?GPIO_DEINIT?SC95F861X_GPIO
            CODE    0462H     0025H     UNIT         ?PR?_GPIO_WRITEHIGH?SC95F861X_GPIO
            CODE    0487H     0021H     UNIT         ?PR?_GPIO_READPORT?SC95F861X_GPIO
            CODE    04A8H     0020H     UNIT         ?PR?_USCI2_SPI_INIT?SC95F861X_USCI2
            CODE    04C8H     001FH     UNIT         ?PR?_GPIO_WRITE?SC95F861X_GPIO
            CODE    04E7H     0017H     UNIT         ?PR?_USCI2_CLEARFLAG?SC95F861X_USCI2
            CODE    04FEH     0016H     UNIT         ?PR?_USCI2_ITCONFIG?SC95F861X_USCI2
            CODE    0514H     0013H     UNIT         ?PR?USCI2_DEINIT?SC95F861X_USCI2
            CODE    0527H     0013H     UNIT         ?PR?USCI2_UART_RECEIVEDATA9?SC95F861X_USCI2
            CODE    053AH     0012H     UNIT         ?PR?_USCI2_UART_SENDDATA9?SC95F861X_USCI2
            CODE    054CH     000FH     UNIT         ?PR?USCI2INTERRUPT?SC95F861X_IT
            CODE    055BH     000EH     UNIT         ?PR?_USCI2_TWI_SLAVE_INIT?SC95F861X_USCI2
            CODE    0569H     000BH     UNIT         ?PR?_USCI2_SPI_CMD?SC95F861X_USCI2
            CODE    0574H     000BH     UNIT         ?PR?_USCI2_TRANSMISSIONMODE?SC95F861X_USCI2
            CODE    057FH     000BH     UNIT         ?PR?_USCI2_TWI_MASTERCOMMUNICATIONRATE?SC95F861X_USCI2
            CODE    058AH     000BH     UNIT         ?PR?_USCI2_TWI_ACKNOWLEDGECONFIG?SC95F861X_USCI2
            CODE    0595H     000BH     UNIT         ?PR?_USCI2_TWI_GENERALCALLCMD?SC95F861X_USCI2
            CODE    05A0H     000BH     UNIT         ?PR?_USCI2_TWI_CMD?SC95F861X_USCI2
            CODE    05ABH     000AH     UNIT         ?PR?_DELAY?MAIN
            CODE    05B5H     0009H     UNIT         ?PR?_USCI2_SPI_SENDDATA_16?SC95F861X_USCI2
            CODE    05BEH     0009H     UNIT         ?PR?USCI2_SPI_RECEIVEDATA_16?SC95F861X_USCI2
            CODE    05C7H     0004H     UNIT         ?PR?USCI2_TWI_START?SC95F861X_USCI2
            CODE    05CBH     0004H     UNIT         ?PR?USCI2_TWI_MASTERMODESTOP?SC95F861X_USCI2
            CODE    05CFH     0004H     UNIT         ?PR?USCI2_TWI_SLAVECLOCKEXTENSION?SC95F861X_USCI2
            CODE    05D3H     0003H     UNIT         ?C_INITSEG
            CODE    05D6H     0003H     UNIT         ?PR?_USCI2_SPI_SENDDATA_8?SC95F861X_USCI2
            CODE    05D9H     0003H     UNIT         ?PR?USCI2_SPI_RECEIVEDATA_8?SC95F861X_USCI2
            CODE    05DCH     0003H     UNIT         ?PR?_USCI2_TWI_SENDDATA?SC95F861X_USCI2
            CODE    05DFH     0003H     UNIT         ?PR?USCI2_TWI_RECEIVEDATA?SC95F861X_USCI2
            CODE    05E2H     0003H     UNIT         ?PR?_USCI2_UART_SENDDATA8?SC95F861X_USCI2
            CODE    05E5H     0003H     UNIT         ?PR?USCI2_UART_RECEIVEDATA8?SC95F861X_USCI2
            CODE    05E8H     0001H     UNIT         ?PR?EXTI0INTERRUPT?SC95F861X_IT
            CODE    05E9H     0001H     UNIT         ?PR?TIMER0INTERRUPT?SC95F861X_IT
            CODE    05EAH     0001H     UNIT         ?PR?EXTI1INTERRUPT?SC95F861X_IT
            CODE    05EBH     0001H     UNIT         ?PR?TIMER1INTERRUPT?SC95F861X_IT
            CODE    05ECH     0001H     UNIT         ?PR?UART0INTERRUPT?SC95F861X_IT
            CODE    05EDH     0001H     UNIT         ?PR?TIMER2INTERRUPT?SC95F861X_IT
            CODE    05EEH     0001H     UNIT         ?PR?ADCINTERRUPT?SC95F861X_IT
            CODE    05EFH     0001H     UNIT         ?PR?USCI0INTERRUPT?SC95F861X_IT
BL51 BANKED LINKER/LOCATER V6.22                                                      10/28/2019  17:02:53  PAGE 3


            CODE    05F0H     0001H     UNIT         ?PR?PWMINTERRUPT?SC95F861X_IT
            CODE    05F1H     0001H     UNIT         ?PR?BTMINTERRUPT?SC95F861X_IT
            CODE    05F2H     0001H     UNIT         ?PR?EXTI2INTERRUPT?SC95F861X_IT
            CODE    05F3H     0001H     UNIT         ?PR?CMPINTERRUPT?SC95F861X_IT
            CODE    05F4H     0001H     UNIT         ?PR?TIMER3INTERRUPT?SC95F861X_IT
            CODE    05F5H     0001H     UNIT         ?PR?TIMER4INTERRUPT?SC95F861X_IT
            CODE    05F6H     0001H     UNIT         ?PR?USCI1INTERRUPT?SC95F861X_IT



OVERLAY MAP OF MODULE:   ..\OUTPUT\USCI2_Master (MAIN)


SEGMENT
  +--> CALLED SEGMENT
---------------------
?C_C51STARTUP
  +--> ?PR?MAIN?MAIN
  +--> ?C_INITSEG

?PR?MAIN?MAIN
  +--> ?PR?_USCI2_TWI_MASTERCOMMUNICATIONRAT...
  +--> ?PR?_USCI2_TWI_ACKNOWLEDGECONFIG?SC95...
  +--> ?PR?_USCI2_TWI_CMD?SC95F861X_USCI2
  +--> ?PR?_USCI2_ITCONFIG?SC95F861X_USCI2
  +--> ?PR?USCI2_TWI_START?SC95F861X_USCI2
  +--> ?PR?_USCI2_TWI_SENDDATA?SC95F861X_USCI2
  +--> ?PR?_DELAY?MAIN
  +--> ?PR?USCI2_TWI_MASTERMODESTOP?SC95F861...



SYMBOL TABLE OF MODULE:  ..\OUTPUT\USCI2_Master (MAIN)

  VALUE           TYPE          NAME
  ----------------------------------

  -------         MODULE        MAIN
  C:0000H         SYMBOL        _ICE_DUMMY_
  D:0080H         PUBLIC        P0
  D:0090H         PUBLIC        P1
  D:00A0H         PUBLIC        P2
  D:00B0H         PUBLIC        P3
  D:00C0H         PUBLIC        P4
  D:00D8H         PUBLIC        P5
  B:00A8H.7       PUBLIC        EA
  D:00C8H         PUBLIC        TXCON
  D:00A8H         PUBLIC        IE
  D:00B8H         PUBLIC        IP
  C:0379H         PUBLIC        main
  D:0098H         PUBLIC        SCON
  D:0088H         PUBLIC        TCON
  C:05ABH         PUBLIC        _Delay
  D:00D0H         PUBLIC        PSW
  -------         PROC          _DELAY
  D:0007H         SYMBOL        time
  C:05ABH         LINE#         16
BL51 BANKED LINKER/LOCATER V6.22                                                      10/28/2019  17:02:53  PAGE 4


  C:05ABH         LINE#         17
  C:05ABH         LINE#         18
  C:05B4H         LINE#         19
  -------         ENDPROC       _DELAY
  -------         PROC          MAIN
  C:0379H         LINE#         21
  C:0379H         LINE#         22
  C:0379H         LINE#         23
  C:037EH         LINE#         24
  C:0383H         LINE#         25
  C:0388H         LINE#         26
  C:038FH         LINE#         27
  C:0391H         LINE#         29
  C:0391H         LINE#         30
  C:0391H         LINE#         31
  C:0394H         LINE#         32
  C:0397H         LINE#         33
  C:0399H         LINE#         34
  C:039EH         LINE#         35
  C:03A1H         LINE#         36
  C:03A3H         LINE#         37
  C:03A8H         LINE#         38
  C:03ABH         LINE#         39
  C:03ADH         LINE#         40
  C:03B2H         LINE#         41
  C:03B5H         LINE#         42
  C:03BAH         LINE#         43
  -------         ENDPROC       MAIN
  -------         ENDMOD        MAIN

  -------         MODULE        SC95F861X_IT
  C:0000H         SYMBOL        _ICE_DUMMY_
  D:0080H         PUBLIC        P0
  D:0090H         PUBLIC        P1
  D:00A0H         PUBLIC        P2
  D:00B0H         PUBLIC        P3
  D:00C0H         PUBLIC        P4
  D:00D8H         PUBLIC        P5
  C:05E9H         PUBLIC        Timer0Interrupt
  C:05EBH         PUBLIC        Timer1Interrupt
  C:05EDH         PUBLIC        Timer2Interrupt
  C:05F4H         PUBLIC        Timer3Interrupt
  C:05F5H         PUBLIC        Timer4Interrupt
  D:00C8H         PUBLIC        TXCON
  D:00A8H         PUBLIC        IE
  D:00B8H         PUBLIC        IP
  C:05EEH         PUBLIC        ADCInterrupt
  B:0020H.0       PUBLIC        TWI2Flag
  D:0098H         PUBLIC        SCON
  C:05F3H         PUBLIC        CMPInterrupt
  D:0088H         PUBLIC        TCON
  C:05F1H         PUBLIC        BTMInterrupt
  C:05EFH         PUBLIC        USCI0Interrupt
  C:05F6H         PUBLIC        USCI1Interrupt
  C:054CH         PUBLIC        USCI2Interrupt
  C:05E8H         PUBLIC        EXTI0Interrupt
  C:05EAH         PUBLIC        EXTI1Interrupt
BL51 BANKED LINKER/LOCATER V6.22                                                      10/28/2019  17:02:53  PAGE 5


  C:05F2H         PUBLIC        EXTI2Interrupt
  C:05ECH         PUBLIC        UART0Interrupt
  C:05F0H         PUBLIC        PWMInterrupt
  D:00C4H         PUBLIC        US2CON0
  D:00D0H         PUBLIC        PSW
  -------         PROC          EXTI0INTERRUPT
  C:05E8H         LINE#         26
  C:05E8H         LINE#         29
  -------         ENDPROC       EXTI0INTERRUPT
  -------         PROC          TIMER0INTERRUPT
  C:05E9H         LINE#         31
  C:05E9H         LINE#         34
  -------         ENDPROC       TIMER0INTERRUPT
  -------         PROC          EXTI1INTERRUPT
  C:05EAH         LINE#         36
  C:05EAH         LINE#         38
  -------         ENDPROC       EXTI1INTERRUPT
  -------         PROC          TIMER1INTERRUPT
  C:05EBH         LINE#         40
  C:05EBH         LINE#         43
  -------         ENDPROC       TIMER1INTERRUPT
  -------         PROC          UART0INTERRUPT
  C:05ECH         LINE#         45
  C:05ECH         LINE#         48
  -------         ENDPROC       UART0INTERRUPT
  -------         PROC          TIMER2INTERRUPT
  C:05EDH         LINE#         50
  C:05EDH         LINE#         53
  -------         ENDPROC       TIMER2INTERRUPT
  -------         PROC          ADCINTERRUPT
  C:05EEH         LINE#         55
  C:05EEH         LINE#         58
  -------         ENDPROC       ADCINTERRUPT
  -------         PROC          USCI0INTERRUPT
  C:05EFH         LINE#         60
  C:05EFH         LINE#         63
  -------         ENDPROC       USCI0INTERRUPT
  -------         PROC          PWMINTERRUPT
  C:05F0H         LINE#         65
  C:05F0H         LINE#         68
  -------         ENDPROC       PWMINTERRUPT
  -------         PROC          BTMINTERRUPT
  C:05F1H         LINE#         70
  C:05F1H         LINE#         73
  -------         ENDPROC       BTMINTERRUPT
  -------         PROC          EXTI2INTERRUPT
  C:05F2H         LINE#         75
  C:05F2H         LINE#         78
  -------         ENDPROC       EXTI2INTERRUPT
  -------         PROC          CMPINTERRUPT
  C:05F3H         LINE#         80
  C:05F3H         LINE#         83
  -------         ENDPROC       CMPINTERRUPT
  -------         PROC          TIMER3INTERRUPT
  C:05F4H         LINE#         85
  C:05F4H         LINE#         88
  -------         ENDPROC       TIMER3INTERRUPT
BL51 BANKED LINKER/LOCATER V6.22                                                      10/28/2019  17:02:53  PAGE 6


  -------         PROC          TIMER4INTERRUPT
  C:05F5H         LINE#         90
  C:05F5H         LINE#         93
  -------         ENDPROC       TIMER4INTERRUPT
  -------         PROC          USCI1INTERRUPT
  C:05F6H         LINE#         95
  C:05F6H         LINE#         98
  -------         ENDPROC       USCI1INTERRUPT
  -------         PROC          USCI2INTERRUPT
  C:054CH         LINE#         100
  C:054EH         LINE#         102
  C:0553H         LINE#         103
  C:0553H         LINE#         104
  C:0556H         LINE#         105
  C:0558H         LINE#         106
  C:0558H         LINE#         108
  -------         ENDPROC       USCI2INTERRUPT
  -------         ENDMOD        SC95F861X_IT

  -------         MODULE        SC95F861X_GPIO
  C:0000H         SYMBOL        _ICE_DUMMY_
  D:0080H         PUBLIC        P0
  D:0090H         PUBLIC        P1
  D:00A0H         PUBLIC        P2
  D:00B0H         PUBLIC        P3
  D:00C0H         PUBLIC        P4
  D:00D8H         PUBLIC        P5
  D:00C8H         PUBLIC        TXCON
  D:00A8H         PUBLIC        IE
  D:009BH         PUBLIC        P0PH
  D:00B8H         PUBLIC        IP
  D:0092H         PUBLIC        P1PH
  D:00A2H         PUBLIC        P2PH
  D:00B2H         PUBLIC        P3PH
  D:00C2H         PUBLIC        P4PH
  D:00DAH         PUBLIC        P5PH
  C:04C8H         PUBLIC        _GPIO_Write
  C:0462H         PUBLIC        _GPIO_WriteHigh
  C:01CEH         PUBLIC        _GPIO_Init
  D:0098H         PUBLIC        SCON
  D:0088H         PUBLIC        TCON
  C:0487H         PUBLIC        _GPIO_ReadPort
  C:03BCH         PUBLIC        _GPIO_ReadPin
  C:043CH         PUBLIC        GPIO_DeInit
  C:03E9H         PUBLIC        _GPIO_WriteLow
  D:009AH         PUBLIC        P0CON
  D:0091H         PUBLIC        P1CON
  D:00A1H         PUBLIC        P2CON
  D:00B1H         PUBLIC        P3CON
  D:00C1H         PUBLIC        P4CON
  D:00D9H         PUBLIC        P5CON
  D:00D0H         PUBLIC        PSW
  -------         PROC          GPIO_DEINIT
  C:043CH         LINE#         21
  C:043CH         LINE#         22
  C:043CH         LINE#         23
  C:043FH         LINE#         24
BL51 BANKED LINKER/LOCATER V6.22                                                      10/28/2019  17:02:53  PAGE 7


  C:0441H         LINE#         25
  C:0443H         LINE#         26
  C:0445H         LINE#         27
  C:0447H         LINE#         28
  C:0449H         LINE#         29
  C:044BH         LINE#         30
  C:044DH         LINE#         31
  C:044FH         LINE#         32
  C:0451H         LINE#         33
  C:0453H         LINE#         34
  C:0455H         LINE#         35
  C:0461H         LINE#         36
  -------         ENDPROC       GPIO_DEINIT
  -------         PROC          _GPIO_INIT
  D:0007H         SYMBOL        GPIOx
  D:0005H         SYMBOL        PortPins
  D:0003H         SYMBOL        GPIO_Mode
  C:01CEH         LINE#         46
  C:01CEH         LINE#         47
  C:01CEH         LINE#         48
  C:01D1H         LINE#         49
  C:01D1H         LINE#         50
  C:01D4H         LINE#         51
  C:01D4H         LINE#         52
  C:01D8H         LINE#         53
  C:01DAH         LINE#         54
  C:01DAH         LINE#         55
  C:01DDH         LINE#         56
  C:01DDH         LINE#         57
  C:01E1H         LINE#         58
  C:01E4H         LINE#         59
  C:01E4H         LINE#         60
  C:01ECH         LINE#         61
  C:01ECH         LINE#         62
  C:01EFH         LINE#         63
  C:01EFH         LINE#         64
  C:01F0H         LINE#         65
  C:01F5H         LINE#         66
  C:01F5H         LINE#         67
  C:01F8H         LINE#         68
  C:01F8H         LINE#         69
  C:01FCH         LINE#         70
  C:01FEH         LINE#         71
  C:01FEH         LINE#         72
  C:0201H         LINE#         73
  C:0201H         LINE#         74
  C:0205H         LINE#         75
  C:0208H         LINE#         76
  C:0208H         LINE#         77
  C:0210H         LINE#         78
  C:0210H         LINE#         79
  C:0213H         LINE#         80
  C:0213H         LINE#         81
  C:0214H         LINE#         82
  C:0219H         LINE#         83
  C:0219H         LINE#         84
  C:021CH         LINE#         85
BL51 BANKED LINKER/LOCATER V6.22                                                      10/28/2019  17:02:53  PAGE 8


  C:021CH         LINE#         86
  C:0220H         LINE#         87
  C:0222H         LINE#         88
  C:0222H         LINE#         89
  C:0225H         LINE#         90
  C:0225H         LINE#         91
  C:0229H         LINE#         92
  C:022CH         LINE#         93
  C:022CH         LINE#         94
  C:0231H         LINE#         95
  C:0231H         LINE#         96
  C:0234H         LINE#         97
  C:0234H         LINE#         98
  C:0235H         LINE#         99
  C:023AH         LINE#         100
  C:023AH         LINE#         101
  C:023DH         LINE#         102
  C:023DH         LINE#         103
  C:0241H         LINE#         104
  C:0243H         LINE#         105
  C:0243H         LINE#         106
  C:0246H         LINE#         107
  C:0246H         LINE#         108
  C:024AH         LINE#         109
  C:024DH         LINE#         110
  C:024DH         LINE#         111
  C:0252H         LINE#         112
  C:0252H         LINE#         113
  C:0255H         LINE#         114
  C:0255H         LINE#         115
  C:0256H         LINE#         116
  C:025BH         LINE#         117
  C:025BH         LINE#         118
  C:025EH         LINE#         119
  C:025EH         LINE#         120
  C:0262H         LINE#         121
  C:0264H         LINE#         122
  C:0264H         LINE#         123
  C:0267H         LINE#         124
  C:0267H         LINE#         125
  C:026BH         LINE#         126
  C:026EH         LINE#         127
  C:026EH         LINE#         128
  C:0273H         LINE#         129
  C:0273H         LINE#         130
  C:0276H         LINE#         131
  C:0276H         LINE#         132
  C:0277H         LINE#         134
  C:0277H         LINE#         135
  C:027CH         LINE#         136
  C:027CH         LINE#         137
  C:027FH         LINE#         138
  C:027FH         LINE#         139
  C:0283H         LINE#         140
  C:0285H         LINE#         141
  C:0285H         LINE#         142
  C:0288H         LINE#         143
BL51 BANKED LINKER/LOCATER V6.22                                                      10/28/2019  17:02:53  PAGE 9


  C:0288H         LINE#         144
  C:028CH         LINE#         145
  C:028FH         LINE#         146
  C:028FH         LINE#         147
  C:0292H         LINE#         148
  C:0292H         LINE#         149
  C:0295H         LINE#         150
  C:0295H         LINE#         151
  C:0295H         LINE#         152
  C:0295H         LINE#         153
  -------         ENDPROC       _GPIO_INIT
  -------         PROC          _GPIO_WRITE
  D:0007H         SYMBOL        GPIOx
  D:0005H         SYMBOL        PortVal
  C:04C8H         LINE#         162
  C:04C8H         LINE#         163
  C:04C8H         LINE#         164
  C:04CBH         LINE#         165
  C:04CBH         LINE#         166
  C:04CDH         LINE#         167
  C:04CDH         LINE#         168
  C:04D0H         LINE#         169
  C:04D0H         LINE#         170
  C:04D2H         LINE#         171
  C:04D2H         LINE#         172
  C:04D5H         LINE#         173
  C:04D5H         LINE#         174
  C:04D7H         LINE#         175
  C:04D7H         LINE#         176
  C:04DAH         LINE#         177
  C:04DAH         LINE#         178
  C:04DCH         LINE#         179
  C:04DCH         LINE#         180
  C:04DFH         LINE#         181
  C:04DFH         LINE#         182
  C:04E1H         LINE#         183
  C:04E1H         LINE#         184
  C:04E4H         LINE#         185
  C:04E4H         LINE#         186
  C:04E6H         LINE#         187
  C:04E6H         LINE#         188
  -------         ENDPROC       _GPIO_WRITE
  -------         PROC          _GPIO_WRITEHIGH
  D:0007H         SYMBOL        GPIOx
  D:0005H         SYMBOL        PortPins
  C:0462H         LINE#         197
  C:0462H         LINE#         198
  C:0462H         LINE#         199
  C:0465H         LINE#         200
  C:0465H         LINE#         201
  C:0468H         LINE#         202
  C:0468H         LINE#         203
  C:046BH         LINE#         204
  C:046BH         LINE#         205
  C:046EH         LINE#         206
  C:046EH         LINE#         207
  C:0471H         LINE#         208
BL51 BANKED LINKER/LOCATER V6.22                                                      10/28/2019  17:02:53  PAGE 10


  C:0471H         LINE#         209
  C:0474H         LINE#         210
  C:0474H         LINE#         211
  C:0477H         LINE#         212
  C:0477H         LINE#         213
  C:047AH         LINE#         214
  C:047AH         LINE#         215
  C:047DH         LINE#         216
  C:047DH         LINE#         217
  C:0480H         LINE#         218
  C:0480H         LINE#         219
  C:0483H         LINE#         220
  C:0483H         LINE#         221
  C:0486H         LINE#         222
  C:0486H         LINE#         223
  -------         ENDPROC       _GPIO_WRITEHIGH
  -------         PROC          _GPIO_WRITELOW
  D:0007H         SYMBOL        GPIOx
  D:0005H         SYMBOL        PortPins
  C:03E9H         LINE#         232
  C:03E9H         LINE#         233
  C:03E9H         LINE#         234
  C:03ECH         LINE#         235
  C:03ECH         LINE#         236
  C:03F0H         LINE#         237
  C:03F0H         LINE#         238
  C:03F3H         LINE#         239
  C:03F3H         LINE#         240
  C:03F7H         LINE#         241
  C:03F7H         LINE#         242
  C:03FAH         LINE#         243
  C:03FAH         LINE#         244
  C:03FEH         LINE#         245
  C:03FEH         LINE#         246
  C:0401H         LINE#         247
  C:0401H         LINE#         248
  C:0405H         LINE#         249
  C:0405H         LINE#         250
  C:0408H         LINE#         251
  C:0408H         LINE#         252
  C:040CH         LINE#         253
  C:040CH         LINE#         254
  C:040FH         LINE#         255
  C:040FH         LINE#         256
  C:0413H         LINE#         257
  C:0413H         LINE#         258
  -------         ENDPROC       _GPIO_WRITELOW
  -------         PROC          _GPIO_READPORT
  D:0007H         SYMBOL        GPIOx
  C:0487H         LINE#         266
  C:0487H         LINE#         267
  C:0487H         LINE#         268
  C:048AH         LINE#         269
  C:048AH         LINE#         270
  C:048DH         LINE#         271
  C:048DH         LINE#         272
  C:0490H         LINE#         273
BL51 BANKED LINKER/LOCATER V6.22                                                      10/28/2019  17:02:53  PAGE 11


  C:0490H         LINE#         274
  C:0493H         LINE#         275
  C:0493H         LINE#         276
  C:0496H         LINE#         277
  C:0496H         LINE#         278
  C:0499H         LINE#         279
  C:0499H         LINE#         280
  C:049CH         LINE#         281
  C:049CH         LINE#         282
  C:049FH         LINE#         283
  C:049FH         LINE#         284
  C:04A2H         LINE#         285
  C:04A2H         LINE#         286
  C:04A5H         LINE#         287
  C:04A5H         LINE#         289
  C:04A5H         LINE#         290
  C:04A7H         LINE#         291
  C:04A7H         LINE#         292
  -------         ENDPROC       _GPIO_READPORT
  -------         PROC          _GPIO_READPIN
  D:0007H         SYMBOL        GPIOx
  D:0005H         SYMBOL        PortPins
  C:03BCH         LINE#         301
  C:03BCH         LINE#         302
  C:03BCH         LINE#         303
  C:03BFH         LINE#         304
  C:03BFH         LINE#         305
  C:03C4H         LINE#         306
  C:03C4H         LINE#         307
  C:03C7H         LINE#         308
  C:03C7H         LINE#         309
  C:03CCH         LINE#         310
  C:03CCH         LINE#         311
  C:03CFH         LINE#         312
  C:03CFH         LINE#         313
  C:03D4H         LINE#         314
  C:03D4H         LINE#         315
  C:03D7H         LINE#         316
  C:03D7H         LINE#         317
  C:03DCH         LINE#         318
  C:03DCH         LINE#         319
  C:03DFH         LINE#         320
  C:03DFH         LINE#         321
  C:03E4H         LINE#         322
  C:03E4H         LINE#         324
  C:03E4H         LINE#         325
  C:03E8H         LINE#         326
  C:03E8H         LINE#         327
  -------         ENDPROC       _GPIO_READPIN
  -------         ENDMOD        SC95F861X_GPIO

  -------         MODULE        SC95F861X_USCI2
  C:0000H         SYMBOL        _ICE_DUMMY_
  D:0080H         PUBLIC        P0
  D:0090H         PUBLIC        P1
  D:00A0H         PUBLIC        P2
  D:008EH         PUBLIC        TMCON
BL51 BANKED LINKER/LOCATER V6.22                                                      10/28/2019  17:02:53  PAGE 12


  D:00B0H         PUBLIC        P3
  D:00C0H         PUBLIC        P4
  D:00D8H         PUBLIC        P5
  C:0514H         PUBLIC        USCI2_DeInit
  D:00C8H         PUBLIC        TXCON
  D:00A8H         PUBLIC        IE
  C:055BH         PUBLIC        _USCI2_TWI_Slave_Init
  D:00B8H         PUBLIC        IP
  C:05BEH         PUBLIC        USCI2_SPI_ReceiveData_16
  C:05DCH         PUBLIC        _USCI2_TWI_SendData
  C:05E2H         PUBLIC        _USCI2_UART_SendData8
  C:053AH         PUBLIC        _USCI2_UART_SendData9
  C:0569H         PUBLIC        _USCI2_SPI_Cmd
  C:04A8H         PUBLIC        _USCI2_SPI_Init
  C:04E7H         PUBLIC        _USCI2_ClearFlag
  C:05C7H         PUBLIC        USCI2_TWI_Start
  C:05A0H         PUBLIC        _USCI2_TWI_Cmd
  D:0098H         PUBLIC        SCON
  D:0088H         PUBLIC        TCON
  C:05D6H         PUBLIC        _USCI2_SPI_SendData_8
  C:05CBH         PUBLIC        USCI2_TWI_MasterModeStop
  C:04FEH         PUBLIC        _USCI2_ITConfig
  D:00AAH         PUBLIC        IE2
  D:00BAH         PUBLIC        IP2
  C:05CFH         PUBLIC        USCI2_TWI_SlaveClockExtension
  C:05DFH         PUBLIC        USCI2_TWI_ReceiveData
  C:05E5H         PUBLIC        USCI2_UART_ReceiveData8
  C:0574H         PUBLIC        _USCI2_TransmissionMode
  C:0527H         PUBLIC        USCI2_UART_ReceiveData9
  C:058AH         PUBLIC        _USCI2_TWI_AcknowledgeConfig
  C:05B5H         PUBLIC        _USCI2_SPI_SendData_16
  D:00C4H         PUBLIC        US2CON0
  D:00C5H         PUBLIC        US2CON1
  D:00C6H         PUBLIC        US2CON2
  C:0414H         PUBLIC        _USCI2_GetFlagStatus
  D:00C7H         PUBLIC        US2CON3
  C:05D9H         PUBLIC        USCI2_SPI_ReceiveData_8
  C:0595H         PUBLIC        _USCI2_TWI_GeneralCallCmd
  D:00D0H         PUBLIC        PSW
  C:0330H         PUBLIC        _USCI2_UART_Init
  C:057FH         PUBLIC        _USCI2_TWI_MasterCommunicationRate
  -------         PROC          USCI2_DEINIT
  C:0514H         LINE#         20
  C:0514H         LINE#         21
  C:0514H         LINE#         22
  C:0517H         LINE#         23
  C:051AH         LINE#         24
  C:051CH         LINE#         25
  C:051EH         LINE#         26
  C:0520H         LINE#         27
  C:0523H         LINE#         28
  C:0526H         LINE#         29
  -------         ENDPROC       USCI2_DEINIT
  -------         PROC          _USCI2_SPI_INIT
  D:0007H         SYMBOL        FirstBit
  D:0005H         SYMBOL        BaudRatePrescaler
  D:0003H         SYMBOL        Mode
BL51 BANKED LINKER/LOCATER V6.22                                                      10/28/2019  17:02:53  PAGE 13


  D:0015H         SYMBOL        ClockPolarity
  D:0016H         SYMBOL        ClockPhase
  D:0017H         SYMBOL        SPI_TXE_INT
  D:0018H         SYMBOL        TransmissionMode
  C:04A8H         LINE#         44
  C:04A8H         LINE#         46
  C:04A8H         LINE#         47
  C:04B0H         LINE#         48
  C:04BBH         LINE#         49
  C:04C7H         LINE#         50
  -------         ENDPROC       _USCI2_SPI_INIT
  -------         PROC          _USCI2_SPI_CMD
  D:0007H         SYMBOL        NewState
  C:0569H         LINE#         58
  C:0569H         LINE#         59
  C:0569H         LINE#         60
  C:056CH         LINE#         61
  C:056CH         LINE#         62
  C:056FH         LINE#         63
  C:0570H         LINE#         65
  C:0570H         LINE#         66
  C:0573H         LINE#         67
  C:0573H         LINE#         68
  -------         ENDPROC       _USCI2_SPI_CMD
  -------         PROC          _USCI2_TRANSMISSIONMODE
  D:0007H         SYMBOL        TransmissionMode
  C:0574H         LINE#         76
  C:0574H         LINE#         77
  C:0574H         LINE#         78
  C:0577H         LINE#         79
  C:0577H         LINE#         80
  C:057AH         LINE#         81
  C:057BH         LINE#         83
  C:057BH         LINE#         84
  C:057EH         LINE#         85
  C:057EH         LINE#         86
  -------         ENDPROC       _USCI2_TRANSMISSIONMODE
  -------         PROC          _USCI2_SPI_SENDDATA_8
  D:0007H         SYMBOL        Data
  C:05D6H         LINE#         94
  C:05D6H         LINE#         95
  C:05D6H         LINE#         96
  C:05D8H         LINE#         97
  -------         ENDPROC       _USCI2_SPI_SENDDATA_8
  -------         PROC          USCI2_SPI_RECEIVEDATA_8
  C:05D9H         LINE#         105
  C:05D9H         LINE#         106
  C:05D9H         LINE#         107
  C:05DBH         LINE#         108
  -------         ENDPROC       USCI2_SPI_RECEIVEDATA_8
  -------         PROC          _USCI2_SPI_SENDDATA_16
  D:0004H         SYMBOL        Data
  C:05B5H         LINE#         116
  C:05B9H         LINE#         117
  C:05B9H         LINE#         118
  C:05BBH         LINE#         119
  C:05BDH         LINE#         120
BL51 BANKED LINKER/LOCATER V6.22                                                      10/28/2019  17:02:53  PAGE 14


  -------         ENDPROC       _USCI2_SPI_SENDDATA_16
  -------         PROC          USCI2_SPI_RECEIVEDATA_16
  -------         DO            
  D:0006H         SYMBOL        SPI_data
  -------         ENDDO         
  C:05BEH         LINE#         128
  C:05BEH         LINE#         129
  C:05BEH         LINE#         131
  C:05C6H         LINE#         132
  C:05C6H         LINE#         133
  -------         ENDPROC       USCI2_SPI_RECEIVEDATA_16
  -------         PROC          _USCI2_TWI_SLAVE_INIT
  D:0007H         SYMBOL        TWI_Address
  C:055BH         LINE#         141
  C:055BH         LINE#         142
  C:055BH         LINE#         143
  C:0563H         LINE#         144
  C:0568H         LINE#         145
  -------         ENDPROC       _USCI2_TWI_SLAVE_INIT
  -------         PROC          _USCI2_TWI_MASTERCOMMUNICATIONRATE
  D:0007H         SYMBOL        TWI_MasterCommunicationRate
  C:057FH         LINE#         153
  C:057FH         LINE#         154
  C:057FH         LINE#         155
  C:0587H         LINE#         157
  C:0589H         LINE#         158
  -------         ENDPROC       _USCI2_TWI_MASTERCOMMUNICATIONRATE
  -------         PROC          USCI2_TWI_START
  C:05C7H         LINE#         166
  C:05C7H         LINE#         167
  C:05C7H         LINE#         168
  C:05CAH         LINE#         169
  -------         ENDPROC       USCI2_TWI_START
  -------         PROC          USCI2_TWI_MASTERMODESTOP
  C:05CBH         LINE#         177
  C:05CBH         LINE#         178
  C:05CBH         LINE#         179
  C:05CEH         LINE#         180
  -------         ENDPROC       USCI2_TWI_MASTERMODESTOP
  -------         PROC          USCI2_TWI_SLAVECLOCKEXTENSION
  C:05CFH         LINE#         188
  C:05CFH         LINE#         189
  C:05CFH         LINE#         190
  C:05D2H         LINE#         191
  -------         ENDPROC       USCI2_TWI_SLAVECLOCKEXTENSION
  -------         PROC          _USCI2_TWI_ACKNOWLEDGECONFIG
  D:0007H         SYMBOL        NewState
  C:058AH         LINE#         201
  C:058AH         LINE#         202
  C:058AH         LINE#         203
  C:058DH         LINE#         204
  C:058DH         LINE#         205
  C:0590H         LINE#         206
  C:0591H         LINE#         208
  C:0591H         LINE#         209
  C:0594H         LINE#         210
  C:0594H         LINE#         211
BL51 BANKED LINKER/LOCATER V6.22                                                      10/28/2019  17:02:53  PAGE 15


  -------         ENDPROC       _USCI2_TWI_ACKNOWLEDGECONFIG
  -------         PROC          _USCI2_TWI_GENERALCALLCMD
  D:0007H         SYMBOL        NewState
  C:0595H         LINE#         219
  C:0595H         LINE#         220
  C:0595H         LINE#         221
  C:0598H         LINE#         222
  C:0598H         LINE#         223
  C:059BH         LINE#         224
  C:059CH         LINE#         226
  C:059CH         LINE#         227
  C:059FH         LINE#         228
  C:059FH         LINE#         229
  -------         ENDPROC       _USCI2_TWI_GENERALCALLCMD
  -------         PROC          _USCI2_TWI_CMD
  D:0007H         SYMBOL        NewState
  C:05A0H         LINE#         237
  C:05A0H         LINE#         238
  C:05A0H         LINE#         239
  C:05A3H         LINE#         240
  C:05A3H         LINE#         241
  C:05A6H         LINE#         242
  C:05A7H         LINE#         244
  C:05A7H         LINE#         245
  C:05AAH         LINE#         246
  C:05AAH         LINE#         247
  -------         ENDPROC       _USCI2_TWI_CMD
  -------         PROC          _USCI2_TWI_SENDDATA
  D:0007H         SYMBOL        Data
  C:05DCH         LINE#         255
  C:05DCH         LINE#         256
  C:05DCH         LINE#         257
  C:05DEH         LINE#         258
  -------         ENDPROC       _USCI2_TWI_SENDDATA
  -------         PROC          USCI2_TWI_RECEIVEDATA
  C:05DFH         LINE#         266
  C:05DFH         LINE#         267
  C:05DFH         LINE#         268
  C:05E1H         LINE#         269
  -------         ENDPROC       USCI2_TWI_RECEIVEDATA
  -------         PROC          _USCI2_UART_INIT
  D:0008H         SYMBOL        UARTFsys
  D:000CH         SYMBOL        BaudRate
  D:0010H         SYMBOL        Mode
  D:0011H         SYMBOL        RxMode
  C:0330H         LINE#         280
  C:0338H         LINE#         281
  C:0338H         LINE#         282
  C:033BH         LINE#         283
  C:0345H         LINE#         284
  C:0363H         LINE#         285
  C:0378H         LINE#         286
  -------         ENDPROC       _USCI2_UART_INIT
  -------         PROC          _USCI2_UART_SENDDATA8
  D:0007H         SYMBOL        Data
  C:05E2H         LINE#         294
  C:05E2H         LINE#         295
BL51 BANKED LINKER/LOCATER V6.22                                                      10/28/2019  17:02:53  PAGE 16


  C:05E2H         LINE#         296
  C:05E4H         LINE#         297
  -------         ENDPROC       _USCI2_UART_SENDDATA8
  -------         PROC          USCI2_UART_RECEIVEDATA8
  C:05E5H         LINE#         305
  C:05E5H         LINE#         306
  C:05E5H         LINE#         307
  C:05E7H         LINE#         308
  -------         ENDPROC       USCI2_UART_RECEIVEDATA8
  -------         PROC          _USCI2_UART_SENDDATA9
  D:0004H         SYMBOL        Data
  -------         DO            
  D:0007H         SYMBOL        Data_9Bit
  -------         ENDDO         
  C:053AH         LINE#         316
  C:053EH         LINE#         317
  C:053EH         LINE#         319
  C:053EH         LINE#         320
  C:0541H         LINE#         321
  C:0541H         LINE#         322
  C:0544H         LINE#         323
  C:0546H         LINE#         325
  C:0546H         LINE#         326
  C:0549H         LINE#         327
  C:0549H         LINE#         329
  C:054BH         LINE#         330
  -------         ENDPROC       _USCI2_UART_SENDDATA9
  -------         PROC          USCI2_UART_RECEIVEDATA9
  -------         DO            
  D:0006H         SYMBOL        Data9
  -------         ENDDO         
  C:0527H         LINE#         338
  C:0527H         LINE#         339
  C:0527H         LINE#         341
  C:0539H         LINE#         342
  C:0539H         LINE#         343
  -------         ENDPROC       USCI2_UART_RECEIVEDATA9
  -------         PROC          _USCI2_ITCONFIG
  D:0007H         SYMBOL        NewState
  D:0005H         SYMBOL        Priority
  C:04FEH         LINE#         352
  C:04FEH         LINE#         353
  C:04FEH         LINE#         354
  C:0501H         LINE#         355
  C:0501H         LINE#         356
  C:0504H         LINE#         357
  C:0506H         LINE#         359
  C:0506H         LINE#         360
  C:0509H         LINE#         361
  C:0509H         LINE#         363
  C:050CH         LINE#         364
  C:050CH         LINE#         365
  C:050FH         LINE#         366
  C:0510H         LINE#         368
  C:0510H         LINE#         369
  C:0513H         LINE#         370
  C:0513H         LINE#         371
BL51 BANKED LINKER/LOCATER V6.22                                                      10/28/2019  17:02:53  PAGE 17


  -------         ENDPROC       _USCI2_ITCONFIG
  -------         PROC          _USCI2_GETFLAGSTATUS
  D:0007H         SYMBOL        USCI2_FLAG
  -------         DO            
  D:0006H         SYMBOL        bitstatus
  -------         ENDDO         
  C:0414H         LINE#         379
  C:0414H         LINE#         380
  C:0414H         LINE#         381
  C:0414H         LINE#         383
  C:0421H         LINE#         384
  C:0421H         LINE#         385
  C:0426H         LINE#         386
  C:0426H         LINE#         387
  C:0428H         LINE#         388
  C:042AH         LINE#         390
  C:042AH         LINE#         391
  C:042CH         LINE#         392
  C:042CH         LINE#         393
  C:042EH         LINE#         395
  C:042EH         LINE#         396
  C:0433H         LINE#         397
  C:0433H         LINE#         398
  C:0435H         LINE#         399
  C:0437H         LINE#         401
  C:0437H         LINE#         402
  C:0439H         LINE#         403
  C:0439H         LINE#         404
  C:0439H         LINE#         406
  C:043BH         LINE#         407
  -------         ENDPROC       _USCI2_GETFLAGSTATUS
  -------         PROC          _USCI2_CLEARFLAG
  D:0007H         SYMBOL        USCI2_FLAG
  C:04E7H         LINE#         415
  C:04E7H         LINE#         416
  C:04E7H         LINE#         417
  C:04F4H         LINE#         418
  C:04F4H         LINE#         419
  C:04F8H         LINE#         420
  C:04F9H         LINE#         422
  C:04F9H         LINE#         423
  C:04FDH         LINE#         424
  C:04FDH         LINE#         425
  -------         ENDPROC       _USCI2_CLEARFLAG
  -------         ENDMOD        SC95F861X_USCI2

  -------         MODULE        ?C_STARTUP
  C:0296H         SEGMENT       ?C_C51STARTUP
  I:0021H         SEGMENT       ?STACK
  C:0000H         PUBLIC        ?C_STARTUP
  D:00E0H         SYMBOL        ACC
  D:00F0H         SYMBOL        B
  D:0083H         SYMBOL        DPH
  D:0082H         SYMBOL        DPL
  N:0000H         SYMBOL        IBPSTACK
  N:0100H         SYMBOL        IBPSTACKTOP
  N:0100H         SYMBOL        IDATALEN
BL51 BANKED LINKER/LOCATER V6.22                                                      10/28/2019  17:02:53  PAGE 18


  C:0299H         SYMBOL        IDATALOOP
  N:0000H         SYMBOL        PBPSTACK
  N:0100H         SYMBOL        PBPSTACKTOP
  N:0000H         SYMBOL        PDATALEN
  N:0000H         SYMBOL        PDATASTART
  N:0000H         SYMBOL        PPAGE
  N:0000H         SYMBOL        PPAGEENABLE
  D:00A0H         SYMBOL        PPAGE_SFR
  D:0081H         SYMBOL        SP
  C:0296H         SYMBOL        STARTUP1
  N:0000H         SYMBOL        XBPSTACK
  N:0000H         SYMBOL        XBPSTACKTOP
  N:0300H         SYMBOL        XDATALEN
  C:02A4H         SYMBOL        XDATALOOP
  N:0000H         SYMBOL        XDATASTART
  C:0000H         LINE#         126
  C:0296H         LINE#         133
  C:0298H         LINE#         134
  C:0299H         LINE#         135
  C:029AH         LINE#         136
  C:029CH         LINE#         140
  C:029FH         LINE#         141
  C:02A1H         LINE#         145
  C:02A3H         LINE#         147
  C:02A4H         LINE#         148
  C:02A5H         LINE#         149
  C:02A6H         LINE#         150
  C:02A8H         LINE#         151
  C:02AAH         LINE#         185
  C:02ADH         LINE#         196
  -------         ENDMOD        ?C_STARTUP

  -------         MODULE        ?C?ULDIV
  C:013CH         PUBLIC        ?C?ULDIV
  -------         ENDMOD        ?C?ULDIV

Program Size: data=26.1 xdata=0 code=1322
LINK/LOCATE RUN COMPLETE.  0 WARNING(S),  0 ERROR(S)
