:1002C2007F041204787D017F041203D912045E7F39
:1002D200807EC1120409E4FB7D017F0412021F7DAE
:0602E200017F0402043F4D
:090468007B027D01E4FF020100AA
:0A044A001204681202C2D2AF80FE55
:0300030002047B79
:01047B00324E
:03000B0002047C70
:01047C00324D
:0300130002047D67
:01047D00324C
:03001B0002047E5E
:01047E00324B
:0300230002047F55
:01047F00324A
:03002B000204804C
:010480003249
:0300330002048143
:010481003248
:03003B000204823A
:010482003247
:0300430002048331
:010483003246
:03004B0002048428
:010484003245
:030053000204851F
:010485003244
:030063000204860E
:010486003243
:03006B0002048705
:010487003242
:030073000201C8BF
:1001C800C0E0C0F0C083C082C0D075D000C000C0FD
:1001D80001C002C003C004C005C006C0077D807FFF
:1001E800041204717D01E4FF12026AEF7D016007C9
:1001F800E4FF1202978005E4FF12030ED007D00631
:10020800D005D004D003D002D001D000D0D0D08205
:07021800D083D0F0D0E032EA
:03007B00020488F4
:010488003241
:03008300020489EB
:010489003240
:1002E800E4F59AF591F5A1F5B1F5C1F5D9F59BF5C8
:1002F80092F5A2F5B2F5C2F5DAF5D8F5C0F5B0F584
:06030800A0F590F5802233
:10010000EF701FEB7006EDF4529A529BBB0107EDA6
:10011000F4529AED429BEB640260030201C7ED4288
:100120009A22EF6401701FEB7006EDF45291529227
:10013000BB0107EDF45291ED4292EB6402600302C1
:1001400001C7ED429122EF6402701CEB7006EDF4E2
:1001500052A152A2BB0107EDF452A1ED42A2EB6401
:10016000027064ED42A122EF6403701CEB7006ED97
:10017000F452B152B2BB0107EDF452B1ED42B2EB11
:1001800064027043ED42B122EF6404701CEB700610
:10019000EDF452C152C2BB0107EDF452C1ED42C2AF
:1001A000EB64027022ED42C122EF64057019EB701E
:1001B00006EDF452D952DABB0107EDF452D9ED4203
:0801C000DABB0203ED42D92273
:10035400EF70028D80BF01028D90BF02028DA0BF9D
:0F03640003028DB0BF04028DC0BF05028DD822E9
:10030E00EF7003ED4280BF0103ED4290BF0203ED9B
:10031E0042A0BF0303ED42B0BF0403ED42C0BF05D0
:05032E0003ED42D8229E
:10029700EF7004EDF45280BF0104EDF45290BF02F9
:1002A70004EDF452A0BF0304EDF452B0BF0404ED13
:0B02B700F452C0BF0504EDF452D82241
:10033300EF7003AF8022BF0103AF9022BF0203AF70
:10034300A022BF0303AFB022BF0403AFC022AFD8C4
:010353002287
:10026A00EF7005E5805DFF22BF0105E5905DFF2285
:10027A00BF0205E5A05DFF22BF0305E5B05DFF22D1
:0D028A00BF0405E5C05DFF22E5D85DFF2241
:100392008FCEE4F5C8F5C9F5CEF5CBF5CAF5CDF5A6
:0C03A200CC53A93F53B93FC2ADC2BD22ED
:030478008FCE2202
:1003D9008FCEED700453C97F22BD010343C980222A
:1003730075CE02BF010553C8FD8006BF020343C803
:0F03830002ED700453C9FE22BD100343C90122CD
:0A04540075CE0353C8FD53C9FE2204
:0A045E0075CE0453C8FD53C9FE22F9
:0D04190075CE0275C80DAD078DCC8ECD22BD
:1003E90075CE02AD078DCA8ECB85CACC85CBCD2201
:1003F90075CE03AD078DCA8ECB85CACC85CBCD22F0
:1004090075CE04AD078DCA8ECB85CACC85CBCD22DE
:0D04260075CE02AD078DCA8ECB43C90222F0
:0C04330075CE02EF7003C2CB22D2CB22A8
:0B043F008FCEED7003C2CA22D2CA2289
:10021F00BF0212ED7004C2AD8002D2ADEB7004C20A
:10022F00BD8002D2BDEF64037016ED700553A9BFF8
:10023F00800343A940EB700553B9BF800343B94016
:10024F00EF64047015ED700553A97F800343A980F7
:0B025F00EB700453B97F2243B98022EA
:1003C800E4FE8FCEE5C85D60030E8002E4FEAF0652
:0103D8002202
:070471008FCEEDF452C8220A
:030000000203AE4A
:1003AE0078FFE4F6D8FD9000007F007E03E4F0A312
:0A03BE00DFFCDEFA75810702044A35
:00000001FF
