:020000040000FA
:030000000203D127
:02003B00E18161
:02004B00C1C230
:10010000C0767401C0E0C082C08375760A75DF00D6
:1001100022C0767401C0E0C082C08375761B75DF93
:100120001122C0767401C0E0C082C08375762C7540
:10013000DF2222C0767401C0E0C082C08375763DA4
:0401400075DF332212
:10014500E88FF0A4CC8BF0A42CFCE98EF0A42CFC59
:100155008AF0EDA42CFCEA8EF0A4CDA8F08BF0A4D7
:100165002DCC3825F0FDE98FF0A42CCD35F0FCEB36
:100175008EF0A4FEA9F0EB8FF0A4CFC5F02ECD39FB
:10018500FEE43CFCEAA42DCE35F0FDE43CFC22EB7C
:100195009FF5F0EA9E42F0E99D42F0E89C45F02289
:1001A500E8600FECC313FCED13FDEE13FEEF13FF38
:1001B500D8F122BB010789828A830201FE5005E935
:1001C500F80201F2BBFE05E9F802020A89828A8378
:1001D500020216BB010789828A830202325005E9B1
:1001E500F8020226BBFE05E9F802023E22E6FC08FB
:1001F500E6FD08E6FE08E6FF22E0FCA3E0FDA3E03D
:10020500FEA3E0FF22E2FC08E2FD08E2FE08E2FFB1
:1002150022E493FC740193FD740293FE740393FF2F
:1002250022ECF608EDF608EEF608EFF622ECF0A360
:10023500EDF0A3EEF0A3EFF022ECF208EDF208EEFC
:10024500F208EFF2228F6D8E6C8D6B8C6A85F46FE0
:10025500A2AFE433F570AFDF7571008F72C2AFE402
:10026500FFFE7D01FCAB6DAA6CA96BA86AC31201E8
:100275009440567F007E807D017C00A86A1201941F
:100285005013E5DF54CF4420F5DFE4256DF56DE52A
:100295006C34808024E4FFFE7D02FCAB6DAA6CA962
:1002A5006BA86AC31201945028E5DF54CF4430F59A
:1002B500DFE4256DF56DE4356CF56CE56B34FFF524
:1002C5006BE56A34FFF56A8008E5DF54CF4410F525
:1002D500DFE4F5F4856EF5AF6DAE6CAD6BAC6A78A9
:1002E500081201A58FF3856DF275F1F075F61043CF
:1002F500F6020000000080050000000000856FF494
:100305008572DFE57024FF92AF228F678E668D655B
:100315008C6485F468A2AFE433F569AFDF756A00D4
:100325008F6BC2AFE4FFFE7D01FCAB67AA66A965D2
:10033500A864C312019440567F007E807D017C0035
:10034500A8641201945013E5DF54CF4420F5DFE48F
:100355002567F567E56634808024E4FFFE7D02FCB1
:10036500AB67AA66A965A864C31201945028E5DFA6
:1003750054CF4430F5DFE42567F567E43566F56667
:10038500E56534FFF565E56434FFF5648008E5DF70
:1003950054CF4410F5DFE4F5F4AF67AE66AD65AC58
:1003A5006478081201A58FF38567F275F1F075F68B
:1003B5002043F602000000008005000000000085D3
:1003C50068F4856BDFE56924FF92AF2275F4037845
:1003D500FFE4F6D8FD9000007F007E10E4F0A3DF77
:1003E500FCDEFA7581760203FBEF9003F79390012B
:1003F50000730A1B2C3D91B9910180FCE55024FE48
:10040500601F14605724F3605F24CC606C24456042
:100415007624FE6002819A53FB7F75CF107F0180A1
:100425004353FB7F75CF10850875AF54AE53AD525E
:10043500AC5191D4EF601F7F02919BE4FCFDFEE57A
:10044500542508F554EE3553F553ED3552F552EC78
:100455003551F551802D7F03919B802753FB7F7587
:10046500CF107F03919B801B53FB7F75CF10B17C11
:100475007F11919B755501800A53FB7F75CF107FC6
:1004850044919BE4F5502253FB7F75CF107FFF917C
:100495009B7F01D1A422759FAAE54E60FCE4F54E31
:1004A5008F9FE54E60FCE4F54E759FEFE54E60FCD1
:1004B500E4F54E2275FEC175FF8CE4F5CFD18F7F33
:1004C50001919BE4F55075FB8443A904D2AF228FBB
:1004D5005F8E5E8D5D8C5CE4F560E560C39575505F
:1004E50025740C2560F8E6FBE560255FFFE4355EC5
:1004F500FEE4355DFDE4355CFC8B65B10EEF700205
:10050500FF22056080D47F01228F648E638D628C0B
:10051500618F698E688D678C667B007A007961D101
:1005250013AF64AE63AD62AC6185656E514AAF6968
:10053500AE68AD67AC66E4F56EB149EF7F00B565B1
:10054500027F01228F6D8E6C8D6B8C6AC2AF856EBA
:10055500F47B007A00796AD113E574256DF582E59F
:1005650073356CF583E493FF000000000000000084
:100575000075F403D2AF22755C01755D0075FEC28E
:10058500E5FF5403FD3395E0FCED64014C700C74FC
:10059500FE255DF55D74FF355CF55CED64024C7020
:1005A5000C74FC255DF55D74FF355CF55CED64034D
:1005B5004C700C74F8255DF55D74FF355CF55CE4F5
:1005C500F55EF55FC3E55F955DE55C6480F8E55E26
:1005D500648098501EAE5EAF5FEE3395E0FDFCE49F
:1005E500FB7A02F9F83145B1F9055FE55F7002055F
:1005F5005E80D1228F638E628D618C607B007A0074
:100605007960D113AF63AE62AD61AC60610F8B6F82
:100615008A70897131B8E4FBFA7901F8D3319450C5
:1006250060AB6FAA70A97131B87B007A80790178C7
:1006350000D331944018E5DF54CF4420F5DFAB6F8C
:10064500AA70A97131B8E42FFFEE34808028AB6F12
:10065500AA70A97131B8E4FBFA7902F8D331944054
:1006650028E5DF54CF4430F5DFAB6FAA70A97131AF
:10067500B8E42FFFE43EFEED34FFFDEC34FFFC2132
:10068500D8E5DF54CF4410F5DF22758F30759550CE
:10069500759E01759D1543A901439B30D2AF227507
:1006A500F1F0E4F5F4EF700543F680800353F67F2F
:1006B50043870800000000000000000022C0E0C0E1
:1006C500F0C083C082C0D075D000C000C001C00298
:1006D500C003C004C005C006C0077F01D1A4D00770
:1006E500D006D005D004D003D002D001D000D0D0A0
:1006F500D082D083D0F0D0E032740A2509F8A69FC5
:10070500E50A64557017E50964017011850B08E564
:10071500087059755002F555F5097F0122AF09D3C7
:10072500EF9401748094804043E50B2402FDE4338B
:10073500FCC3EF9DEC6480F8748098500B740A2F0D
:10074500F8E6254FF54F8024ED65097001EC701C26
:10075500F509740C250BF8E6B54F09755002E4F55B
:100765004F7F0122755003E4F54FFF22E50A6455DA
:10077500700405098003E4F5097F0122C0E0C0F09B
:10078500C083C082C0D075D000C000C001C002C007
:1007950003C004C005C006C007E59530E1064395D2
:1007A50002754E01E59530E00D439501E555700460
:1007B500F1D68002D1FED007D006D005D004D003F3
:1007C500D002D001D000D0D0D082D083D0F0D0E0FC
:1007D5003274562509F8A69FE55664AA7050E55768
:1007E5006410704AE50964047044E55A64EF703E8C
:1007F500E558FE7C00E42559FFEC3EFEE48F548E5F
:1008050053F552F551FFFEFDAB54AA53A952A85119
:10081500C312019440057550108003755044E4F5EA
:1008250009F556F557F558F559F55AAF9F22E5568E
:1008350064AA701AE55864EF7014E5096402700E35
:10084500855750F509F556F557F558AF9F22E556EA
:0908550064AA70020509AF9F229C
:00000001FF
