LX51 LINKER/LOCATER V4.41                                                               03/02/2021  09:23:58  PAGE 1


LX51 LINKER/LOCATER V4.41, INVOKED BY:
C:\KEIL\C51\BIN\LX51.EXE ..\Output\main.obj, ..\Output\SC_Init.obj, ..\Output\SC_it.obj, ..\Output\sc95f_timer0.obj, ..\
>> Output\sc95f_gpio.obj, ..\Output\sc95f_option.obj, ..\Output\STARTUP.obj TO ..\Output\Timer0 PRINT (..\List\Timer0.ma
>> p) REMOVEUNUSED CLASSES (CODE (C:0X100), CONST (C:0X100))


CPU MODE:     8051 MODE
MEMORY MODEL: SMALL


INPUT MODULES INCLUDED:
  ..\Output\main.obj (MAIN)
         COMMENT TYPE 0: C51 V9.01
  ..\Output\SC_Init.obj (SC_INIT)
         COMMENT TYPE 0: C51 V9.01
  ..\Output\SC_it.obj (SC_IT)
         COMMENT TYPE 0: C51 V9.01
  ..\Output\sc95f_timer0.obj (SC95F_TIMER0)
         COMMENT TYPE 0: C51 V9.01
  ..\Output\sc95f_gpio.obj (SC95F_GPIO)
         COMMENT TYPE 0: C51 V9.01
  ..\Output\sc95f_option.obj (SC95F_OPTION)
         COMMENT TYPE 0: C51 V9.01
  ..\Output\STARTUP.obj (?C_STARTUP)
         COMMENT TYPE 1: A51 / ASM51 Assembler
  C:\KEIL\C51\LIB\C51S.LIB (?C_INIT)
         COMMENT TYPE 1: A51 / ASM51 Assembler


ACTIVE MEMORY CLASSES OF MODULE:  ..\Output\Timer0 (MAIN)

BASE        START       END         USED      MEMORY CLASS
==========================================================
C:000000H   C:000100H   C:00FFFFH   00036BH   CODE
C:000000H   C:000100H   C:00FFFFH             CONST
I:000000H   I:000000H   I:00007FH   00000AH   DATA
I:000000H   I:000000H   I:0000FFH   000001H   IDATA


MEMORY MAP OF MODULE:  ..\Output\Timer0 (MAIN)


START     STOP      LENGTH    ALIGN  RELOC    MEMORY CLASS   SEGMENT NAME
=========================================================================

* * * * * * * * * * *   D A T A   M E M O R Y   * * * * * * * * * * * * *
000000H   000007H   000008H   ---    AT..     DATA           "REG BANK 0"
000008H   000009H   000002H   BYTE   UNIT     DATA           ?DT?MAIN
00000AH   00000AH   000001H   BYTE   UNIT     IDATA          ?STACK

* * * * * * * * * * *   C O D E   M E M O R Y   * * * * * * * * * * * * *
000000H   000002H   000003H   ---    OFFS..   CODE           ?CO??C_STARTUP?0
000003H   000005H   000003H   BYTE   OFFS..   CODE           ?SC_IT?00003
000006H   00000AH   000005H   ---    ---      **GAP**
00000BH   00000DH   000003H   BYTE   OFFS..   CODE           ?SC_IT?0000B
00000EH   000012H   000005H   ---    ---      **GAP**
000013H   000015H   000003H   BYTE   OFFS..   CODE           ?SC_IT?00013
000016H   00001AH   000005H   ---    ---      **GAP**
00001BH   00001DH   000003H   BYTE   OFFS..   CODE           ?SC_IT?0001B
00001EH   000022H   000005H   ---    ---      **GAP**
000023H   000025H   000003H   BYTE   OFFS..   CODE           ?SC_IT?00023
000026H   00002AH   000005H   ---    ---      **GAP**
00002BH   00002DH   000003H   BYTE   OFFS..   CODE           ?SC_IT?0002B
00002EH   000032H   000005H   ---    ---      **GAP**
000033H   000035H   000003H   BYTE   OFFS..   CODE           ?SC_IT?00033
000036H   00003AH   000005H   ---    ---      **GAP**
LX51 LINKER/LOCATER V4.41                                                             03/02/2021  09:23:58  PAGE 2


00003BH   00003DH   000003H   BYTE   OFFS..   CODE           ?SC_IT?0003B
00003EH   000042H   000005H   ---    ---      **GAP**
000043H   000045H   000003H   BYTE   OFFS..   CODE           ?SC_IT?00043
000046H   00004AH   000005H   ---    ---      **GAP**
00004BH   00004DH   000003H   BYTE   OFFS..   CODE           ?SC_IT?0004B
00004EH   000052H   000005H   ---    ---      **GAP**
000053H   000055H   000003H   BYTE   OFFS..   CODE           ?SC_IT?00053
000056H   000062H   00000DH   ---    ---      **GAP**
000063H   000065H   000003H   BYTE   OFFS..   CODE           ?SC_IT?00063
000066H   00006AH   000005H   ---    ---      **GAP**
00006BH   00006DH   000003H   BYTE   OFFS..   CODE           ?SC_IT?0006B
00006EH   000072H   000005H   ---    ---      **GAP**
000073H   000075H   000003H   BYTE   OFFS..   CODE           ?SC_IT?00073
000076H   00007AH   000005H   ---    ---      **GAP**
00007BH   00007DH   000003H   BYTE   OFFS..   CODE           ?SC_IT?0007B
00007EH   000082H   000005H   ---    ---      **GAP**
000083H   000085H   000003H   BYTE   OFFS..   CODE           ?SC_IT?00083
000086H   0000FFH   00007AH   ---    ---      **GAP**
000100H   0001C7H   0000C8H   BYTE   UNIT     CODE           ?PR?_GPIO_INIT?SC95F_GPIO
0001C8H   000261H   00009AH   BYTE   UNIT     CODE           ?C_C51STARTUP
000262H   0002C9H   000068H   BYTE   UNIT     CODE           ?PR?TIMER0INTERRUPT?SC_IT
0002CAH   0002FCH   000033H   BYTE   UNIT     CODE           ?PR?_GPIO_READPIN?SC95F_GPIO
0002FDH   000327H   00002BH   BYTE   UNIT     CODE           ?PR?_GPIO_WRITELOW?SC95F_GPIO
000328H   000350H   000029H   BYTE   UNIT     CODE           ?PR?_TIM0_WORKMODECONFIG?SC95F_TIMER0
000351H   000375H   000025H   BYTE   UNIT     CODE           ?PR?_GPIO_WRITEHIGH?SC95F_GPIO
000376H   000392H   00001DH   BYTE   UNIT     CODE           ?PR?SC_TIM0_INIT?SC_INIT
000393H   0003AEH   00001CH   BYTE   UNIT     CODE           ?PR?_TIM0_TIMEBASEINIT?SC95F_TIMER0
0003AFH   0003C0H   000012H   BYTE   UNIT     CODE           ?PR?_TIM0_WORKMODE0CONFIG?SC95F_TIMER0
0003C1H   0003D2H   000012H   BYTE   UNIT     CODE           ?PR?_TIM0_ITCONFIG?SC95F_TIMER0
0003D3H   0003DFH   00000DH   BYTE   UNIT     CODE           ?PR?_TIM0_WORKMODE1CONFIG?SC95F_TIMER0
0003E0H   0003EBH   00000CH   BYTE   UNIT     CODE           ?PR?SC_INIT?SC_INIT
0003ECH   0003F6H   00000BH   BYTE   UNIT     CODE           ?PR?_TIM0_WORKMODE2CONFIG?SC95F_TIMER0
0003F7H   0003FFH   000009H   BYTE   UNIT     CODE           ?PR?SC_GPIO_INIT?SC_INIT
000400H   000408H   000009H   BYTE   UNIT     CODE           ?PR?_TIM0_CMD?SC95F_TIMER0
000409H   000410H   000008H   BYTE   UNIT     CODE           ?PR?_TIM0_WORKMODE3CONFIG?SC95F_TIMER0
000411H   000417H   000007H   BYTE   UNIT     CODE           ?PR?_TIM0_MODE1SETRELOADCOUNTER?SC95F_TIMER0
000418H   00041CH   000005H   BYTE   UNIT     CODE           ?PR?MAIN?MAIN
00041DH   000421H   000005H   BYTE   UNIT     CODE           ?C_INITSEG
000422H   000425H   000004H   BYTE   UNIT     CODE           ?PR?INT0INTERRUPT?SC_IT
000426H   000429H   000004H   BYTE   UNIT     CODE           ?PR?INT1INTERRUPT?SC_IT
00042AH   00042AH   000001H   BYTE   UNIT     CODE           ?PR?SC_OPTION_INIT?SC_INIT
00042BH   00042BH   000001H   BYTE   UNIT     CODE           ?PR?TIMER1INTERRUPT?SC_IT
00042CH   00042CH   000001H   BYTE   UNIT     CODE           ?PR?UART0INTERRUPT?SC_IT
00042DH   00042DH   000001H   BYTE   UNIT     CODE           ?PR?TIMER2INTERRUPT?SC_IT
00042EH   00042EH   000001H   BYTE   UNIT     CODE           ?PR?ADCINTERRUPT?SC_IT
00042FH   00042FH   000001H   BYTE   UNIT     CODE           ?PR?USCI0INTERRUPT?SC_IT
000430H   000430H   000001H   BYTE   UNIT     CODE           ?PR?PWMINTERRUPT?SC_IT
000431H   000431H   000001H   BYTE   UNIT     CODE           ?PR?BTMINTERRUPT?SC_IT
000432H   000432H   000001H   BYTE   UNIT     CODE           ?PR?INT2INTERRUPT?SC_IT
000433H   000433H   000001H   BYTE   UNIT     CODE           ?PR?ACMPINTERRUPT?SC_IT
000434H   000434H   000001H   BYTE   UNIT     CODE           ?PR?TIMER3INTERRUPT?SC_IT
000435H   000435H   000001H   BYTE   UNIT     CODE           ?PR?TIMER4INTERRUPT?SC_IT
000436H   000436H   000001H   BYTE   UNIT     CODE           ?PR?USCI1INTERRUPT?SC_IT
000437H   000437H   000001H   BYTE   UNIT     CODE           ?PR?USCI2INTERRUPT?SC_IT

* * * * * * * * *   R E M O V E D     S E G M E N T S   * * * * * * * *
   *DEL*:           000001H   BYTE   UNIT     CODE           ?PR?SC_UART0_INIT?SC_INIT
   *DEL*:           000001H   BYTE   UNIT     CODE           ?PR?SC_TIM1_INIT?SC_INIT
   *DEL*:           000001H   BYTE   UNIT     CODE           ?PR?SC_TIM2_INIT?SC_INIT
   *DEL*:           000001H   BYTE   UNIT     CODE           ?PR?SC_TIM3_INIT?SC_INIT
   *DEL*:           000001H   BYTE   UNIT     CODE           ?PR?SC_TIM4_INIT?SC_INIT
   *DEL*:           000001H   BYTE   UNIT     CODE           ?PR?SC_PWM_INIT?SC_INIT
   *DEL*:           000001H   BYTE   UNIT     CODE           ?PR?SC_INT_INIT?SC_INIT
   *DEL*:           000001H   BYTE   UNIT     CODE           ?PR?SC_ADC_INIT?SC_INIT
   *DEL*:           000001H   BYTE   UNIT     CODE           ?PR?SC_IAP_INIT?SC_INIT
LX51 LINKER/LOCATER V4.41                                                             03/02/2021  09:23:58  PAGE 3


   *DEL*:           000001H   BYTE   UNIT     CODE           ?PR?SC_USCI0_INIT?SC_INIT
   *DEL*:           000001H   BYTE   UNIT     CODE           ?PR?SC_USCI1_INIT?SC_INIT
   *DEL*:           000001H   BYTE   UNIT     CODE           ?PR?SC_USCI2_INIT?SC_INIT
   *DEL*:           000001H   BYTE   UNIT     CODE           ?PR?SC_BTM_INIT?SC_INIT
   *DEL*:           000001H   BYTE   UNIT     CODE           ?PR?SC_CRC_INIT?SC_INIT
   *DEL*:           000001H   BYTE   UNIT     CODE           ?PR?SC_WDT_INIT?SC_INIT
   *DEL*:           000001H   BYTE   UNIT     CODE           ?PR?SC_PWR_INIT?SC_INIT
   *DEL*:           000001H   BYTE   UNIT     CODE           ?PR?SC_DDIC_INIT?SC_INIT
   *DEL*:           000001H   BYTE   UNIT     CODE           ?PR?SC_ACMP_INIT?SC_INIT
   *DEL*:           000001H   BYTE   UNIT     CODE           ?PR?SC_MDU_INIT?SC_INIT
   *DEL*:           000013H   BYTE   UNIT     CODE           ?PR?TIM0_DEINIT?SC95F_TIMER0
   *DEL*:           00000FH   BYTE   UNIT     CODE           ?PR?_TIM0_MODE0SETRELOADCOUNTER?SC95F_TIMER0
   *DEL*:           000003H   BYTE   UNIT     CODE           ?PR?_TIM0_SETTL0COUNTER?SC95F_TIMER0
   *DEL*:           000003H   BYTE   UNIT     CODE           ?PR?_TIM0_SETTH0COUNTER?SC95F_TIMER0
   *DEL*:           000006H   BYTE   UNIT     CODE           ?PR?TIM0_GETFLAGSTATUS?SC95F_TIMER0
   *DEL*:           000003H   BYTE   UNIT     CODE           ?PR?TIM0_CLEARFLAG?SC95F_TIMER0
   *DEL*:           000026H   BYTE   UNIT     CODE           ?PR?GPIO_DEINIT?SC95F_GPIO
   *DEL*:           00001FH   BYTE   UNIT     CODE           ?PR?_GPIO_WRITE?SC95F_GPIO
   *DEL*:           000021H   BYTE   UNIT     CODE           ?PR?_GPIO_READPORT?SC95F_GPIO
   *DEL*:           00000EH   BYTE   UNIT     CODE           ?PR?_OPTION_WDT_CMD?SC95F_OPTION
   *DEL*:           00000EH   BYTE   UNIT     CODE           ?PR?_OPTION_XTIPLL_CMD?SC95F_OPTION
   *DEL*:           00000BH   BYTE   UNIT     CODE           ?PR?_OPTION_SYSCLK_INIT?SC95F_OPTION
   *DEL*:           00000EH   BYTE   UNIT     CODE           ?PR?_OPTION_RST_PIN_CMD?SC95F_OPTION
   *DEL*:           00000BH   BYTE   UNIT     CODE           ?PR?_OPTION_LVR_INIT?SC95F_OPTION
   *DEL*:           00001CH   BYTE   UNIT     CODE           ?PR?_OPTION_ADC_VREFCONFIG?SC95F_OPTION
   *DEL*:           00000BH   BYTE   UNIT     CODE           ?PR?_OPTION_IAP_SETOPERATERANGE?SC95F_OPTION
   *DEL*:           00000EH   BYTE   UNIT     CODE           ?PR?_OPTION_JTG_CMD?SC95F_OPTION



OVERLAY MAP OF MODULE:   ..\Output\Timer0 (MAIN)


FUNCTION/MODULE                                BIT_GROUP   DATA_GROUP 
--> CALLED FUNCTION/MODULE                    START  STOP  START  STOP
======================================================================
INT0INTERRUPT/SC_IT                           ----- -----  ----- -----

*** NEW ROOT ********************************

TIMER0INTERRUPT/SC_IT                         ----- -----  ----- -----
  +--> ?PR?_TIM0_MODE1SETRELOADCOUNTER?SC95F...
  +--> ?PR?_GPIO_READPIN?SC95F_GPIO
  +--> ?PR?_GPIO_WRITELOW?SC95F_GPIO
  +--> ?PR?_GPIO_WRITEHIGH?SC95F_GPIO

_TIM0_MODE1SETRELOADCOUNTER/SC95F_TIMER0      ----- -----  ----- -----

_GPIO_READPIN/SC95F_GPIO                      ----- -----  ----- -----

_GPIO_WRITELOW/SC95F_GPIO                     ----- -----  ----- -----

_GPIO_WRITEHIGH/SC95F_GPIO                    ----- -----  ----- -----

*** NEW ROOT ********************************

INT1INTERRUPT/SC_IT                           ----- -----  ----- -----

*** NEW ROOT ********************************

TIMER1INTERRUPT/SC_IT                         ----- -----  ----- -----

*** NEW ROOT ********************************

UART0INTERRUPT/SC_IT                          ----- -----  ----- -----
LX51 LINKER/LOCATER V4.41                                                             03/02/2021  09:23:58  PAGE 4



*** NEW ROOT ********************************

TIMER2INTERRUPT/SC_IT                         ----- -----  ----- -----

*** NEW ROOT ********************************

ADCINTERRUPT/SC_IT                            ----- -----  ----- -----

*** NEW ROOT ********************************

USCI0INTERRUPT/SC_IT                          ----- -----  ----- -----

*** NEW ROOT ********************************

PWMINTERRUPT/SC_IT                            ----- -----  ----- -----

*** NEW ROOT ********************************

BTMINTERRUPT/SC_IT                            ----- -----  ----- -----

*** NEW ROOT ********************************

INT2INTERRUPT/SC_IT                           ----- -----  ----- -----

*** NEW ROOT ********************************

ACMPINTERRUPT/SC_IT                           ----- -----  ----- -----

*** NEW ROOT ********************************

TIMER3INTERRUPT/SC_IT                         ----- -----  ----- -----

*** NEW ROOT ********************************

TIMER4INTERRUPT/SC_IT                         ----- -----  ----- -----

*** NEW ROOT ********************************

USCI1INTERRUPT/SC_IT                          ----- -----  ----- -----

*** NEW ROOT ********************************

USCI2INTERRUPT/SC_IT                          ----- -----  ----- -----

*** NEW ROOT ********************************

?C_C51STARTUP                                 ----- -----  ----- -----
  +--> ?PR?MAIN?MAIN
  +--> ?C_INITSEG

MAIN/MAIN                                     ----- -----  ----- -----
  +--> ?PR?SC_INIT?SC_INIT

SC_INIT/SC_INIT                               ----- -----  ----- -----
  +--> ?PR?SC_GPIO_INIT?SC_INIT
  +--> ?PR?SC_OPTION_INIT?SC_INIT
  +--> ?PR?SC_TIM0_INIT?SC_INIT

SC_GPIO_INIT/SC_INIT                          ----- -----  ----- -----
  +--> ?PR?_GPIO_INIT?SC95F_GPIO

_GPIO_INIT/SC95F_GPIO                         ----- -----  ----- -----

SC_OPTION_INIT/SC_INIT                        ----- -----  ----- -----
LX51 LINKER/LOCATER V4.41                                                             03/02/2021  09:23:58  PAGE 5



SC_TIM0_INIT/SC_INIT                          ----- -----  ----- -----
  +--> ?PR?_TIM0_TIMEBASEINIT?SC95F_TIMER0
  +--> ?PR?_TIM0_WORKMODECONFIG?SC95F_TIMER0
  +--> ?PR?_TIM0_ITCONFIG?SC95F_TIMER0
  +--> ?PR?_TIM0_CMD?SC95F_TIMER0

_TIM0_TIMEBASEINIT/SC95F_TIMER0               ----- -----  ----- -----

_TIM0_WORKMODECONFIG/SC95F_TIMER0             ----- -----  ----- -----
  +--> ?PR?_TIM0_WORKMODE0CONFIG?SC95F_TIMER0
  +--> ?PR?_TIM0_WORKMODE1CONFIG?SC95F_TIMER0
  +--> ?PR?_TIM0_WORKMODE2CONFIG?SC95F_TIMER0
  +--> ?PR?_TIM0_WORKMODE3CONFIG?SC95F_TIMER0

_TIM0_WORKMODE0CONFIG/SC95F_TIMER0            ----- -----  ----- -----

_TIM0_WORKMODE1CONFIG/SC95F_TIMER0            ----- -----  ----- -----

_TIM0_WORKMODE2CONFIG/SC95F_TIMER0            ----- -----  ----- -----

_TIM0_WORKMODE3CONFIG/SC95F_TIMER0            ----- -----  ----- -----

_TIM0_ITCONFIG/SC95F_TIMER0                   ----- -----  ----- -----

_TIM0_CMD/SC95F_TIMER0                        ----- -----  ----- -----

?C_INITSEG                                    ----- -----  ----- -----



PUBLIC SYMBOLS OF MODULE:  ..\Output\Timer0 (MAIN)


      VALUE       CLASS    TYPE      PUBLIC SYMBOL NAME
      =================================================
      00000000H   NUMBER   ---       ?C?CODESEG
      00000000H   NUMBER   ---       ?C?XDATASEG
      0100021DH   CODE     ---       ?C_START
      01000000H   CODE     ---       ?C_STARTUP
      01000100H   CODE     ---       _GPIO_Init
      010002CAH   CODE     ---       _GPIO_ReadPin
*DEL*:00000000H   CODE     ---       _GPIO_ReadPort
*DEL*:00000000H   CODE     ---       _GPIO_Write
      01000351H   CODE     ---       _GPIO_WriteHigh
      010002FDH   CODE     ---       _GPIO_WriteLow
*DEL*:00000000H   CODE     ---       _OPTION_ADC_VrefConfig
*DEL*:00000000H   CODE     ---       _OPTION_IAP_SetOperateRange
*DEL*:00000000H   CODE     ---       _OPTION_JTG_Cmd
*DEL*:00000000H   CODE     ---       _OPTION_LVR_Init
*DEL*:00000000H   CODE     ---       _OPTION_RST_PIN_Cmd
*DEL*:00000000H   CODE     ---       _OPTION_SYSCLK_Init
*DEL*:00000000H   CODE     ---       _OPTION_WDT_Cmd
*DEL*:00000000H   CODE     ---       _OPTION_XTIPLL_Cmd
      01000400H   CODE     ---       _TIM0_Cmd
      010003C1H   CODE     ---       _TIM0_ITConfig
*DEL*:00000000H   CODE     ---       _TIM0_Mode0SetReloadCounter
      01000411H   CODE     ---       _TIM0_Mode1SetReloadCounter
*DEL*:00000000H   CODE     ---       _TIM0_SetTH0Counter
*DEL*:00000000H   CODE     ---       _TIM0_SetTL0Counter
      01000393H   CODE     ---       _TIM0_TimeBaseInit
      010003AFH   CODE     ---       _TIM0_WorkMode0Config
      010003D3H   CODE     ---       _TIM0_WorkMode1Config
      010003ECH   CODE     ---       _TIM0_WorkMode2Config
      01000409H   CODE     ---       _TIM0_WorkMode3Config
LX51 LINKER/LOCATER V4.41                                                             03/02/2021  09:23:58  PAGE 6


      01000328H   CODE     ---       _TIM0_WorkModeConfig
*SFR* 000000D0H.6 DATA     BIT       AC
*SFR* 000000E0H   DATA     BYTE      ACC
      01000433H   CODE     ---       ACMPInterrupt
*SFR* 000000ABH   DATA     BYTE      ADCCFG0
*SFR* 000000ACH   DATA     BYTE      ADCCFG1
*SFR* 000000B5H   DATA     BYTE      ADCCFG2
*SFR* 000000ADH   DATA     BYTE      ADCCON
      0100042EH   CODE     ---       ADCInterrupt
*SFR* 000000AFH   DATA     BYTE      ADCVH
*SFR* 000000AEH   DATA     BYTE      ADCVL
*SFR* 000000F0H   DATA     BYTE      B
*SFR* 000000FBH   DATA     BYTE      BTMCON
      01000431H   CODE     ---       BTMInterrupt
*SFR* 000000B6H   DATA     BYTE      CMPCFG
*SFR* 000000B7H   DATA     BYTE      CMPCON
*SFR* 000000C8H   DATA     BIT       CP
*SFR* 000000FCH   DATA     BYTE      CRCINX
*SFR* 000000FDH   DATA     BYTE      CRCREG
*SFR* 000000D0H.7 DATA     BIT       CY
*SFR* 00000093H   DATA     BYTE      DDRCON
*SFR* 00000083H   DATA     BYTE      DPH
*SFR* 00000085H   DATA     BYTE      DPH1
*SFR* 00000082H   DATA     BYTE      DPL
*SFR* 00000084H   DATA     BYTE      DPL1
*SFR* 00000086H   DATA     BYTE      DPS
*SFR* 000000A8H.7 DATA     BIT       EA
*SFR* 000000A8H.6 DATA     BIT       EADC
*SFR* 000000A8H   DATA     BIT       EINT0
*SFR* 000000A8H.2 DATA     BIT       EINT1
*SFR* 000000A8H.1 DATA     BIT       ET0
*SFR* 000000A8H.3 DATA     BIT       ET1
*SFR* 000000A8H.5 DATA     BIT       ET2
*SFR* 000000A8H.4 DATA     BIT       EUART
*SFR* 000000E9H   DATA     BYTE      EXA0
*SFR* 000000EAH   DATA     BYTE      EXA1
*SFR* 000000EBH   DATA     BYTE      EXA2
*SFR* 000000ECH   DATA     BYTE      EXA3
*SFR* 000000F7H   DATA     BYTE      EXADH
*SFR* 000000EEH   DATA     BYTE      EXBH
*SFR* 000000EDH   DATA     BYTE      EXBL
*SFR* 000000C8H.3 DATA     BIT       EXENX
*SFR* 000000C8H.6 DATA     BIT       EXFX
*SFR* 000000D0H.5 DATA     BIT       F0
*SFR* 000000D0H.1 DATA     BIT       F1
*DEL*:00000000H   CODE     ---       GPIO_DeInit
*SFR* 000000F4H   DATA     BYTE      IAPADE
*SFR* 000000F3H   DATA     BYTE      IAPADH
*SFR* 000000F2H   DATA     BYTE      IAPADL
*SFR* 000000F6H   DATA     BYTE      IAPCTL
*SFR* 000000F5H   DATA     BYTE      IAPDAT
*SFR* 000000F1H   DATA     BYTE      IAPKEY
*SFR* 000000A8H   DATA     BYTE      IE
*SFR* 000000A9H   DATA     BYTE      IE1
*SFR* 000000AAH   DATA     BYTE      IE2
*SFR* 000000B4H   DATA     BYTE      INT0F
      01000422H   CODE     ---       INT0Interrupt
*SFR* 000000BBH   DATA     BYTE      INT0R
*SFR* 000000BCH   DATA     BYTE      INT1F
      01000426H   CODE     ---       INT1Interrupt
*SFR* 000000BDH   DATA     BYTE      INT1R
*SFR* 000000BEH   DATA     BYTE      INT2F
      01000432H   CODE     ---       INT2Interrupt
*SFR* 000000BFH   DATA     BYTE      INT2R
*SFR* 00000096H   DATA     BYTE      IOHCON0
LX51 LINKER/LOCATER V4.41                                                             03/02/2021  09:23:58  PAGE 7


*SFR* 00000097H   DATA     BYTE      IOHCON1
*SFR* 000000B8H   DATA     BYTE      IP
*SFR* 000000B9H   DATA     BYTE      IP1
*SFR* 000000BAH   DATA     BYTE      IP2
*SFR* 000000B8H.6 DATA     BIT       IPADC
*SFR* 000000B8H   DATA     BIT       IPINT0
*SFR* 000000B8H.2 DATA     BIT       IPINT1
*SFR* 000000B8H.1 DATA     BIT       IPT0
*SFR* 000000B8H.3 DATA     BIT       IPT1
*SFR* 000000B8H.5 DATA     BIT       IPT2
*SFR* 000000B8H.4 DATA     BIT       IPUART
      01000418H   CODE     ---       main
*SFR* 000000EFH   DATA     BYTE      OPERCON
*SFR* 000000FEH   DATA     BYTE      OPINX
*SFR* 000000FFH   DATA     BYTE      OPREG
*SFR* 0000008FH   DATA     BYTE      OTCON
*SFR* 000000D0H.2 DATA     BIT       OV
*SFR* 000000D0H   DATA     BIT       P
*SFR* 00000080H   DATA     BYTE      P0
*SFR* 00000080H   DATA     BIT       P00
*SFR* 00000080H.1 DATA     BIT       P01
*SFR* 00000080H.2 DATA     BIT       P02
*SFR* 00000080H.3 DATA     BIT       P03
*SFR* 00000080H.4 DATA     BIT       P04
*SFR* 00000080H.5 DATA     BIT       P05
*SFR* 00000080H.6 DATA     BIT       P06
*SFR* 00000080H.7 DATA     BIT       P07
*SFR* 0000009AH   DATA     BYTE      P0CON
*SFR* 0000009BH   DATA     BYTE      P0PH
*SFR* 0000009CH   DATA     BYTE      P0VO
*SFR* 00000090H   DATA     BYTE      P1
*SFR* 00000090H   DATA     BIT       P10
*SFR* 00000090H.1 DATA     BIT       P11
*SFR* 00000090H.2 DATA     BIT       P12
*SFR* 00000090H.3 DATA     BIT       P13
*SFR* 00000090H.4 DATA     BIT       P14
*SFR* 00000090H.5 DATA     BIT       P15
*SFR* 00000090H.6 DATA     BIT       P16
*SFR* 00000090H.7 DATA     BIT       P17
*SFR* 00000091H   DATA     BYTE      P1CON
*SFR* 00000092H   DATA     BYTE      P1PH
*SFR* 00000094H   DATA     BYTE      P1VO
*SFR* 000000A0H   DATA     BYTE      P2
*SFR* 000000A0H   DATA     BIT       P20
*SFR* 000000A0H.1 DATA     BIT       P21
*SFR* 000000A0H.2 DATA     BIT       P22
*SFR* 000000A0H.3 DATA     BIT       P23
*SFR* 000000A0H.4 DATA     BIT       P24
*SFR* 000000A0H.5 DATA     BIT       P25
*SFR* 000000A0H.6 DATA     BIT       P26
*SFR* 000000A0H.7 DATA     BIT       P27
*SFR* 000000A1H   DATA     BYTE      P2CON
*SFR* 000000A2H   DATA     BYTE      P2PH
*SFR* 000000A3H   DATA     BYTE      P2VO
*SFR* 000000B0H   DATA     BYTE      P3
*SFR* 000000B0H   DATA     BIT       P30
*SFR* 000000B0H.1 DATA     BIT       P31
*SFR* 000000B0H.2 DATA     BIT       P32
*SFR* 000000B0H.3 DATA     BIT       P33
*SFR* 000000B0H.4 DATA     BIT       P34
*SFR* 000000B0H.5 DATA     BIT       P35
*SFR* 000000B0H.6 DATA     BIT       P36
*SFR* 000000B0H.7 DATA     BIT       P37
*SFR* 000000B1H   DATA     BYTE      P3CON
*SFR* 000000B2H   DATA     BYTE      P3PH
LX51 LINKER/LOCATER V4.41                                                             03/02/2021  09:23:58  PAGE 8


*SFR* 000000B3H   DATA     BYTE      P3VO
*SFR* 000000C0H   DATA     BYTE      P4
*SFR* 000000C0H   DATA     BIT       P40
*SFR* 000000C0H.1 DATA     BIT       P41
*SFR* 000000C0H.2 DATA     BIT       P42
*SFR* 000000C0H.3 DATA     BIT       P43
*SFR* 000000C0H.4 DATA     BIT       P44
*SFR* 000000C0H.5 DATA     BIT       P45
*SFR* 000000C0H.6 DATA     BIT       P46
*SFR* 000000C0H.7 DATA     BIT       P47
*SFR* 000000C1H   DATA     BYTE      P4CON
*SFR* 000000C2H   DATA     BYTE      P4PH
*SFR* 000000D8H   DATA     BYTE      P5
*SFR* 000000D8H   DATA     BIT       P50
*SFR* 000000D8H.1 DATA     BIT       P51
*SFR* 000000D8H.2 DATA     BIT       P52
*SFR* 000000D8H.3 DATA     BIT       P53
*SFR* 000000D8H.4 DATA     BIT       P54
*SFR* 000000D8H.5 DATA     BIT       P55
*SFR* 000000D9H   DATA     BYTE      P5CON
*SFR* 000000DAH   DATA     BYTE      P5PH
*SFR* 00000087H   DATA     BYTE      PCON
*SFR* 000000D0H   DATA     BYTE      PSW
*SFR* 000000D4H   DATA     BYTE      PWMCFG
*SFR* 000000D3H   DATA     BYTE      PWMCON
*SFR* 000000D5H   DATA     BYTE      PWMDFR
*SFR* 000000D6H   DATA     BYTE      PWMFLT
      01000430H   CODE     ---       PWMInterrupt
*SFR* 000000D7H   DATA     BYTE      PWMMOD
*SFR* 00000098H.2 DATA     BIT       RB8
*SFR* 000000CBH   DATA     BYTE      RCAPXH
*SFR* 000000CAH   DATA     BYTE      RCAPXL
*SFR* 000000C8H.5 DATA     BIT       RCLKX
*SFR* 00000098H.4 DATA     BIT       REN
*SFR* 00000098H   DATA     BIT       RI
*SFR* 000000D0H.3 DATA     BIT       RS0
*SFR* 000000D0H.4 DATA     BIT       RS1
*SFR* 00000099H   DATA     BYTE      SBUF
*DEL*:00000000H   CODE     ---       SC_ACMP_Init
*DEL*:00000000H   CODE     ---       SC_ADC_Init
*DEL*:00000000H   CODE     ---       SC_BTM_Init
*DEL*:00000000H   CODE     ---       SC_CRC_Init
*DEL*:00000000H   CODE     ---       SC_DDIC_Init
      010003F7H   CODE     ---       SC_GPIO_Init
*DEL*:00000000H   CODE     ---       SC_IAP_Init
      010003E0H   CODE     ---       SC_Init
*DEL*:00000000H   CODE     ---       SC_INT_Init
*DEL*:00000000H   CODE     ---       SC_MDU_Init
      0100042AH   CODE     ---       SC_OPTION_Init
*DEL*:00000000H   CODE     ---       SC_PWM_Init
*DEL*:00000000H   CODE     ---       SC_PWR_Init
      01000376H   CODE     ---       SC_TIM0_Init
*DEL*:00000000H   CODE     ---       SC_TIM1_Init
*DEL*:00000000H   CODE     ---       SC_TIM2_Init
*DEL*:00000000H   CODE     ---       SC_TIM3_Init
*DEL*:00000000H   CODE     ---       SC_TIM4_Init
*DEL*:00000000H   CODE     ---       SC_UART0_Init
*DEL*:00000000H   CODE     ---       SC_USCI0_Init
*DEL*:00000000H   CODE     ---       SC_USCI1_Init
*DEL*:00000000H   CODE     ---       SC_USCI2_Init
*DEL*:00000000H   CODE     ---       SC_WDT_Init
*SFR* 00000098H   DATA     BYTE      SCON
*SFR* 00000098H.7 DATA     BIT       SM0
*SFR* 00000098H.6 DATA     BIT       SM1
*SFR* 00000098H.5 DATA     BIT       SM2
LX51 LINKER/LOCATER V4.41                                                             03/02/2021  09:23:58  PAGE 9


*SFR* 00000081H   DATA     BYTE      SP
      00000008H   DATA     WORD      T0CNT
*SFR* 00000098H.3 DATA     BIT       TB8
*SFR* 000000C8H.4 DATA     BIT       TCLKX
*SFR* 00000088H   DATA     BYTE      TCON
*SFR* 00000088H.5 DATA     BIT       TF0
*SFR* 00000088H.7 DATA     BIT       TF1
*SFR* 000000C8H.7 DATA     BIT       TFX
*SFR* 0000008CH   DATA     BYTE      TH0
*SFR* 0000008DH   DATA     BYTE      TH1
*SFR* 000000CDH   DATA     BYTE      THX
*SFR* 00000098H.1 DATA     BIT       TI
*DEL*:00000000H   CODE     ---       TIM0_ClearFlag
*DEL*:00000000H   CODE     ---       TIM0_DeInit
*DEL*:00000000H   CODE     ---       TIM0_GetFlagStatus
      01000262H   CODE     ---       Timer0Interrupt
      0100042BH   CODE     ---       Timer1Interrupt
      0100042DH   CODE     ---       Timer2Interrupt
      01000434H   CODE     ---       Timer3Interrupt
      01000435H   CODE     ---       Timer4Interrupt
*SFR* 0000008AH   DATA     BYTE      TL0
*SFR* 0000008BH   DATA     BYTE      TL1
*SFR* 000000CCH   DATA     BYTE      TLX
*SFR* 0000008EH   DATA     BYTE      TMCON
*SFR* 00000089H   DATA     BYTE      TMOD
*SFR* 00000088H.4 DATA     BIT       TR0
*SFR* 00000088H.6 DATA     BIT       TR1
*SFR* 000000C8H.2 DATA     BIT       TRX
*SFR* 000000C8H.1 DATA     BIT       TX
*SFR* 000000C8H   DATA     BYTE      TXCON
*SFR* 000000CEH   DATA     BYTE      TXINX
*SFR* 000000C9H   DATA     BYTE      TXMOD
      0100042CH   CODE     ---       UART0Interrupt
*SFR* 00000095H   DATA     BYTE      US0CON0
*SFR* 0000009DH   DATA     BYTE      US0CON1
*SFR* 0000009EH   DATA     BYTE      US0CON2
*SFR* 0000009FH   DATA     BYTE      US0CON3
*SFR* 000000A4H   DATA     BYTE      US1CON0
*SFR* 000000A5H   DATA     BYTE      US1CON1
*SFR* 000000A6H   DATA     BYTE      US1CON2
*SFR* 000000A7H   DATA     BYTE      US1CON3
*SFR* 000000C4H   DATA     BYTE      US2CON0
*SFR* 000000C5H   DATA     BYTE      US2CON1
*SFR* 000000C6H   DATA     BYTE      US2CON2
*SFR* 000000C7H   DATA     BYTE      US2CON3
      0100042FH   CODE     ---       USCI0Interrupt
      01000436H   CODE     ---       USCI1Interrupt
      01000437H   CODE     ---       USCI2Interrupt
*SFR* 000000CFH   DATA     BYTE      WDTCON



SYMBOL TABLE OF MODULE:  ..\Output\Timer0 (MAIN)

      VALUE       REP       CLASS    TYPE      SYMBOL NAME
      ====================================================
      ---         MODULE    ---      ---       MAIN
      00000008H   PUBLIC    DATA     WORD      T0CNT
      01000418H   PUBLIC    CODE     ---       main
      000000C8H.2 SFRSYM    DATA     BIT       TRX
      000000FFH   SFRSYM    DATA     BYTE      OPREG
      00000080H   SFRSYM    DATA     BYTE      P0
      00000090H   SFRSYM    DATA     BYTE      P1
      000000A0H   SFRSYM    DATA     BYTE      P2
      000000A8H.4 SFRSYM    DATA     BIT       EUART
LX51 LINKER/LOCATER V4.41                                                             03/02/2021  09:23:58  PAGE 10


      0000008EH   SFRSYM    DATA     BYTE      TMCON
      000000B0H   SFRSYM    DATA     BYTE      P3
      000000D0H.6 SFRSYM    DATA     BIT       AC
      000000C0H   SFRSYM    DATA     BYTE      P4
      0000008FH   SFRSYM    DATA     BYTE      OTCON
      000000D8H   SFRSYM    DATA     BYTE      P5
      000000A8H.7 SFRSYM    DATA     BIT       EA
      000000C8H.5 SFRSYM    DATA     BIT       RCLKX
      000000C8H.4 SFRSYM    DATA     BIT       TCLKX
      000000C8H.3 SFRSYM    DATA     BIT       EXENX
      000000A8H.6 SFRSYM    DATA     BIT       EADC
      000000C9H   SFRSYM    DATA     BYTE      TXMOD
      000000C8H   SFRSYM    DATA     BYTE      TXCON
      000000A8H   SFRSYM    DATA     BYTE      IE
      00000085H   SFRSYM    DATA     BYTE      DPH1
      000000E9H   SFRSYM    DATA     BYTE      EXA0
      000000EAH   SFRSYM    DATA     BYTE      EXA1
      000000FEH   SFRSYM    DATA     BYTE      OPINX
      000000EBH   SFRSYM    DATA     BYTE      EXA2
      000000ECH   SFRSYM    DATA     BYTE      EXA3
      00000084H   SFRSYM    DATA     BYTE      DPL1
      000000C8H   SFRSYM    DATA     BIT       CP
      000000EFH   SFRSYM    DATA     BYTE      OPERCON
      0000009BH   SFRSYM    DATA     BYTE      P0PH
      000000B8H   SFRSYM    DATA     BYTE      IP
      00000092H   SFRSYM    DATA     BYTE      P1PH
      00000098H   SFRSYM    DATA     BIT       RI
      000000A2H   SFRSYM    DATA     BYTE      P2PH
      000000D0H.7 SFRSYM    DATA     BIT       CY
      000000B2H   SFRSYM    DATA     BYTE      P3PH
      00000098H.1 SFRSYM    DATA     BIT       TI
      000000CEH   SFRSYM    DATA     BYTE      TXINX
      000000C2H   SFRSYM    DATA     BYTE      P4PH
      000000B8H.1 SFRSYM    DATA     BIT       IPT0
      000000DAH   SFRSYM    DATA     BYTE      P5PH
      000000B8H.3 SFRSYM    DATA     BIT       IPT1
      000000B8H.5 SFRSYM    DATA     BIT       IPT2
      00000081H   SFRSYM    DATA     BYTE      SP
      000000D0H.2 SFRSYM    DATA     BIT       OV
      000000F4H   SFRSYM    DATA     BYTE      IAPADE
      0000009CH   SFRSYM    DATA     BYTE      P0VO
      00000094H   SFRSYM    DATA     BYTE      P1VO
      000000EEH   SFRSYM    DATA     BYTE      EXBH
      000000A3H   SFRSYM    DATA     BYTE      P2VO
      000000F3H   SFRSYM    DATA     BYTE      IAPADH
      000000B3H   SFRSYM    DATA     BYTE      P3VO
      000000ADH   SFRSYM    DATA     BYTE      ADCCON
      000000C8H.1 SFRSYM    DATA     BIT       TX
      000000EDH   SFRSYM    DATA     BYTE      EXBL
      000000F2H   SFRSYM    DATA     BYTE      IAPADL
      00000080H   SFRSYM    DATA     BIT       P00
      00000090H   SFRSYM    DATA     BIT       P10
      00000080H.1 SFRSYM    DATA     BIT       P01
      00000099H   SFRSYM    DATA     BYTE      SBUF
      00000087H   SFRSYM    DATA     BYTE      PCON
      000000A0H   SFRSYM    DATA     BIT       P20
      00000090H.1 SFRSYM    DATA     BIT       P11
      00000080H.2 SFRSYM    DATA     BIT       P02
      000000B6H   SFRSYM    DATA     BYTE      CMPCFG
      000000B0H   SFRSYM    DATA     BIT       P30
      000000A0H.1 SFRSYM    DATA     BIT       P21
      00000090H.2 SFRSYM    DATA     BIT       P12
      00000080H.3 SFRSYM    DATA     BIT       P03
      000000C0H   SFRSYM    DATA     BIT       P40
      000000B0H.1 SFRSYM    DATA     BIT       P31
LX51 LINKER/LOCATER V4.41                                                             03/02/2021  09:23:58  PAGE 11


      000000A0H.2 SFRSYM    DATA     BIT       P22
      00000090H.3 SFRSYM    DATA     BIT       P13
      00000080H.4 SFRSYM    DATA     BIT       P04
      00000098H   SFRSYM    DATA     BYTE      SCON
      000000D8H   SFRSYM    DATA     BIT       P50
      000000C0H.1 SFRSYM    DATA     BIT       P41
      000000B0H.2 SFRSYM    DATA     BIT       P32
      000000A0H.3 SFRSYM    DATA     BIT       P23
      00000090H.4 SFRSYM    DATA     BIT       P14
      00000080H.5 SFRSYM    DATA     BIT       P05
      000000F5H   SFRSYM    DATA     BYTE      IAPDAT
      00000088H   SFRSYM    DATA     BYTE      TCON
      00000089H   SFRSYM    DATA     BYTE      TMOD
      000000D8H.1 SFRSYM    DATA     BIT       P51
      000000C0H.2 SFRSYM    DATA     BIT       P42
      000000B0H.3 SFRSYM    DATA     BIT       P33
      000000A0H.4 SFRSYM    DATA     BIT       P24
      00000090H.5 SFRSYM    DATA     BIT       P15
      00000080H.6 SFRSYM    DATA     BIT       P06
      000000B8H   SFRSYM    DATA     BIT       IPINT0
      000000D8H.2 SFRSYM    DATA     BIT       P52
      000000C0H.3 SFRSYM    DATA     BIT       P43
      000000B0H.4 SFRSYM    DATA     BIT       P34
      000000A0H.5 SFRSYM    DATA     BIT       P25
      00000090H.6 SFRSYM    DATA     BIT       P16
      00000080H.7 SFRSYM    DATA     BIT       P07
      000000B8H.2 SFRSYM    DATA     BIT       IPINT1
      000000D8H.3 SFRSYM    DATA     BIT       P53
      000000C0H.4 SFRSYM    DATA     BIT       P44
      000000B0H.5 SFRSYM    DATA     BIT       P35
      000000A0H.6 SFRSYM    DATA     BIT       P26
      00000090H.7 SFRSYM    DATA     BIT       P17
      000000FDH   SFRSYM    DATA     BYTE      CRCREG
      000000D8H.4 SFRSYM    DATA     BIT       P54
      000000C0H.5 SFRSYM    DATA     BIT       P45
      000000B0H.6 SFRSYM    DATA     BIT       P36
      000000A0H.7 SFRSYM    DATA     BIT       P27
      000000D8H.5 SFRSYM    DATA     BIT       P55
      000000C0H.6 SFRSYM    DATA     BIT       P46
      000000B0H.7 SFRSYM    DATA     BIT       P37
      000000C0H.7 SFRSYM    DATA     BIT       P47
      000000C8H.6 SFRSYM    DATA     BIT       EXFX
      00000093H   SFRSYM    DATA     BYTE      DDRCON
      000000F6H   SFRSYM    DATA     BYTE      IAPCTL
      000000A9H   SFRSYM    DATA     BYTE      IE1
      000000AAH   SFRSYM    DATA     BYTE      IE2
      000000F0H   SFRSYM    DATA     BYTE      B
      000000B7H   SFRSYM    DATA     BYTE      CMPCON
      000000F1H   SFRSYM    DATA     BYTE      IAPKEY
      000000FBH   SFRSYM    DATA     BYTE      BTMCON
      000000D4H   SFRSYM    DATA     BYTE      PWMCFG
      000000E0H   SFRSYM    DATA     BYTE      ACC
      000000CBH   SFRSYM    DATA     BYTE      RCAPXH
      000000A8H.1 SFRSYM    DATA     BIT       ET0
      000000FCH   SFRSYM    DATA     BYTE      CRCINX
      00000088H.5 SFRSYM    DATA     BIT       TF0
      000000A8H.3 SFRSYM    DATA     BIT       ET1
      000000ABH   SFRSYM    DATA     BYTE      ADCCFG0
      000000B9H   SFRSYM    DATA     BYTE      IP1
      00000088H.7 SFRSYM    DATA     BIT       TF1
      000000A8H.5 SFRSYM    DATA     BIT       ET2
      000000ACH   SFRSYM    DATA     BYTE      ADCCFG1
      000000BAH   SFRSYM    DATA     BYTE      IP2
      00000098H.2 SFRSYM    DATA     BIT       RB8
      000000B5H   SFRSYM    DATA     BYTE      ADCCFG2
LX51 LINKER/LOCATER V4.41                                                             03/02/2021  09:23:58  PAGE 12


      000000CAH   SFRSYM    DATA     BYTE      RCAPXL
      0000008CH   SFRSYM    DATA     BYTE      TH0
      0000008DH   SFRSYM    DATA     BYTE      TH1
      00000098H.3 SFRSYM    DATA     BIT       TB8
      000000D0H   SFRSYM    DATA     BIT       P
      00000098H.7 SFRSYM    DATA     BIT       SM0
      0000008AH   SFRSYM    DATA     BYTE      TL0
      00000098H.6 SFRSYM    DATA     BIT       SM1
      000000CFH   SFRSYM    DATA     BYTE      WDTCON
      0000008BH   SFRSYM    DATA     BYTE      TL1
      00000098H.5 SFRSYM    DATA     BIT       SM2
      000000D5H   SFRSYM    DATA     BYTE      PWMDFR
      000000D0H.3 SFRSYM    DATA     BIT       RS0
      00000088H.4 SFRSYM    DATA     BIT       TR0
      000000D0H.4 SFRSYM    DATA     BIT       RS1
      000000D3H   SFRSYM    DATA     BYTE      PWMCON
      000000D7H   SFRSYM    DATA     BYTE      PWMMOD
      00000088H.6 SFRSYM    DATA     BIT       TR1
      000000B8H.4 SFRSYM    DATA     BIT       IPUART
      000000D6H   SFRSYM    DATA     BYTE      PWMFLT
      00000083H   SFRSYM    DATA     BYTE      DPH
      00000082H   SFRSYM    DATA     BYTE      DPL
      000000A8H   SFRSYM    DATA     BIT       EINT0
      0000009AH   SFRSYM    DATA     BYTE      P0CON
      000000A8H.2 SFRSYM    DATA     BIT       EINT1
      000000B8H.6 SFRSYM    DATA     BIT       IPADC
      000000B4H   SFRSYM    DATA     BYTE      INT0F
      00000091H   SFRSYM    DATA     BYTE      P1CON
      000000BCH   SFRSYM    DATA     BYTE      INT1F
      000000A1H   SFRSYM    DATA     BYTE      P2CON
      000000BEH   SFRSYM    DATA     BYTE      INT2F
      000000B1H   SFRSYM    DATA     BYTE      P3CON
      00000098H.4 SFRSYM    DATA     BIT       REN
      000000C1H   SFRSYM    DATA     BYTE      P4CON
      000000D9H   SFRSYM    DATA     BYTE      P5CON
      000000AFH   SFRSYM    DATA     BYTE      ADCVH
      00000086H   SFRSYM    DATA     BYTE      DPS
      00000095H   SFRSYM    DATA     BYTE      US0CON0
      000000F7H   SFRSYM    DATA     BYTE      EXADH
      000000A4H   SFRSYM    DATA     BYTE      US1CON0
      0000009DH   SFRSYM    DATA     BYTE      US0CON1
      000000AEH   SFRSYM    DATA     BYTE      ADCVL
      000000C4H   SFRSYM    DATA     BYTE      US2CON0
      000000A5H   SFRSYM    DATA     BYTE      US1CON1
      0000009EH   SFRSYM    DATA     BYTE      US0CON2
      000000C5H   SFRSYM    DATA     BYTE      US2CON1
      000000A6H   SFRSYM    DATA     BYTE      US1CON2
      0000009FH   SFRSYM    DATA     BYTE      US0CON3
      000000C6H   SFRSYM    DATA     BYTE      US2CON2
      000000A7H   SFRSYM    DATA     BYTE      US1CON3
      000000BBH   SFRSYM    DATA     BYTE      INT0R
      000000C7H   SFRSYM    DATA     BYTE      US2CON3
      000000BDH   SFRSYM    DATA     BYTE      INT1R
      000000BFH   SFRSYM    DATA     BYTE      INT2R
      000000C8H.7 SFRSYM    DATA     BIT       TFX
      00000096H   SFRSYM    DATA     BYTE      IOHCON0
      00000097H   SFRSYM    DATA     BYTE      IOHCON1
      000000CDH   SFRSYM    DATA     BYTE      THX
      000000D0H.5 SFRSYM    DATA     BIT       F0
      000000D0H.1 SFRSYM    DATA     BIT       F1
      000000CCH   SFRSYM    DATA     BYTE      TLX
      000000D0H   SFRSYM    DATA     BYTE      PSW

      01000418H   BLOCK     CODE     ---       LVL=0
      01000418H   LINE      CODE     ---       #44
LX51 LINKER/LOCATER V4.41                                                             03/02/2021  09:23:58  PAGE 13


      01000418H   LINE      CODE     ---       #45
      01000418H   LINE      CODE     ---       #49
      0100041BH   LINE      CODE     ---       #51
      ---         BLOCKEND  ---      ---       LVL=0

      ---         MODULE    ---      ---       SC_INIT
      01000376H   PUBLIC    CODE     ---       SC_TIM0_Init
      010003F7H   PUBLIC    CODE     ---       SC_GPIO_Init
      0100042AH   PUBLIC    CODE     ---       SC_OPTION_Init
      010003E0H   PUBLIC    CODE     ---       SC_Init
      000000C8H.2 SFRSYM    DATA     BIT       TRX
      000000FFH   SFRSYM    DATA     BYTE      OPREG
      00000080H   SFRSYM    DATA     BYTE      P0
      00000090H   SFRSYM    DATA     BYTE      P1
      000000A0H   SFRSYM    DATA     BYTE      P2
      000000A8H.4 SFRSYM    DATA     BIT       EUART
      0000008EH   SFRSYM    DATA     BYTE      TMCON
      000000B0H   SFRSYM    DATA     BYTE      P3
      000000D0H.6 SFRSYM    DATA     BIT       AC
      000000C0H   SFRSYM    DATA     BYTE      P4
      0000008FH   SFRSYM    DATA     BYTE      OTCON
      000000D8H   SFRSYM    DATA     BYTE      P5
      000000A8H.7 SFRSYM    DATA     BIT       EA
      000000C8H.5 SFRSYM    DATA     BIT       RCLKX
      000000C8H.4 SFRSYM    DATA     BIT       TCLKX
      000000C8H.3 SFRSYM    DATA     BIT       EXENX
      000000A8H.6 SFRSYM    DATA     BIT       EADC
      000000C9H   SFRSYM    DATA     BYTE      TXMOD
      000000C8H   SFRSYM    DATA     BYTE      TXCON
      000000A8H   SFRSYM    DATA     BYTE      IE
      00000085H   SFRSYM    DATA     BYTE      DPH1
      000000E9H   SFRSYM    DATA     BYTE      EXA0
      000000EAH   SFRSYM    DATA     BYTE      EXA1
      000000FEH   SFRSYM    DATA     BYTE      OPINX
      000000EBH   SFRSYM    DATA     BYTE      EXA2
      000000ECH   SFRSYM    DATA     BYTE      EXA3
      00000084H   SFRSYM    DATA     BYTE      DPL1
      000000C8H   SFRSYM    DATA     BIT       CP
      000000EFH   SFRSYM    DATA     BYTE      OPERCON
      0000009BH   SFRSYM    DATA     BYTE      P0PH
      000000B8H   SFRSYM    DATA     BYTE      IP
      00000092H   SFRSYM    DATA     BYTE      P1PH
      00000098H   SFRSYM    DATA     BIT       RI
      000000A2H   SFRSYM    DATA     BYTE      P2PH
      000000D0H.7 SFRSYM    DATA     BIT       CY
      000000B2H   SFRSYM    DATA     BYTE      P3PH
      00000098H.1 SFRSYM    DATA     BIT       TI
      000000CEH   SFRSYM    DATA     BYTE      TXINX
      000000C2H   SFRSYM    DATA     BYTE      P4PH
      000000B8H.1 SFRSYM    DATA     BIT       IPT0
      000000DAH   SFRSYM    DATA     BYTE      P5PH
      000000B8H.3 SFRSYM    DATA     BIT       IPT1
      000000B8H.5 SFRSYM    DATA     BIT       IPT2
      00000081H   SFRSYM    DATA     BYTE      SP
      000000D0H.2 SFRSYM    DATA     BIT       OV
      000000F4H   SFRSYM    DATA     BYTE      IAPADE
      0000009CH   SFRSYM    DATA     BYTE      P0VO
      00000094H   SFRSYM    DATA     BYTE      P1VO
      000000EEH   SFRSYM    DATA     BYTE      EXBH
      000000A3H   SFRSYM    DATA     BYTE      P2VO
      000000F3H   SFRSYM    DATA     BYTE      IAPADH
      000000B3H   SFRSYM    DATA     BYTE      P3VO
      000000ADH   SFRSYM    DATA     BYTE      ADCCON
      000000C8H.1 SFRSYM    DATA     BIT       TX
      000000EDH   SFRSYM    DATA     BYTE      EXBL
LX51 LINKER/LOCATER V4.41                                                             03/02/2021  09:23:58  PAGE 14


      000000F2H   SFRSYM    DATA     BYTE      IAPADL
      00000080H   SFRSYM    DATA     BIT       P00
      00000090H   SFRSYM    DATA     BIT       P10
      00000080H.1 SFRSYM    DATA     BIT       P01
      00000099H   SFRSYM    DATA     BYTE      SBUF
      00000087H   SFRSYM    DATA     BYTE      PCON
      000000A0H   SFRSYM    DATA     BIT       P20
      00000090H.1 SFRSYM    DATA     BIT       P11
      00000080H.2 SFRSYM    DATA     BIT       P02
      000000B6H   SFRSYM    DATA     BYTE      CMPCFG
      000000B0H   SFRSYM    DATA     BIT       P30
      000000A0H.1 SFRSYM    DATA     BIT       P21
      00000090H.2 SFRSYM    DATA     BIT       P12
      00000080H.3 SFRSYM    DATA     BIT       P03
      000000C0H   SFRSYM    DATA     BIT       P40
      000000B0H.1 SFRSYM    DATA     BIT       P31
      000000A0H.2 SFRSYM    DATA     BIT       P22
      00000090H.3 SFRSYM    DATA     BIT       P13
      00000080H.4 SFRSYM    DATA     BIT       P04
      00000098H   SFRSYM    DATA     BYTE      SCON
      000000D8H   SFRSYM    DATA     BIT       P50
      000000C0H.1 SFRSYM    DATA     BIT       P41
      000000B0H.2 SFRSYM    DATA     BIT       P32
      000000A0H.3 SFRSYM    DATA     BIT       P23
      00000090H.4 SFRSYM    DATA     BIT       P14
      00000080H.5 SFRSYM    DATA     BIT       P05
      000000F5H   SFRSYM    DATA     BYTE      IAPDAT
      00000088H   SFRSYM    DATA     BYTE      TCON
      00000089H   SFRSYM    DATA     BYTE      TMOD
      000000D8H.1 SFRSYM    DATA     BIT       P51
      000000C0H.2 SFRSYM    DATA     BIT       P42
      000000B0H.3 SFRSYM    DATA     BIT       P33
      000000A0H.4 SFRSYM    DATA     BIT       P24
      00000090H.5 SFRSYM    DATA     BIT       P15
      00000080H.6 SFRSYM    DATA     BIT       P06
      000000B8H   SFRSYM    DATA     BIT       IPINT0
      000000D8H.2 SFRSYM    DATA     BIT       P52
      000000C0H.3 SFRSYM    DATA     BIT       P43
      000000B0H.4 SFRSYM    DATA     BIT       P34
      000000A0H.5 SFRSYM    DATA     BIT       P25
      00000090H.6 SFRSYM    DATA     BIT       P16
      00000080H.7 SFRSYM    DATA     BIT       P07
      000000B8H.2 SFRSYM    DATA     BIT       IPINT1
      000000D8H.3 SFRSYM    DATA     BIT       P53
      000000C0H.4 SFRSYM    DATA     BIT       P44
      000000B0H.5 SFRSYM    DATA     BIT       P35
      000000A0H.6 SFRSYM    DATA     BIT       P26
      00000090H.7 SFRSYM    DATA     BIT       P17
      000000FDH   SFRSYM    DATA     BYTE      CRCREG
      000000D8H.4 SFRSYM    DATA     BIT       P54
      000000C0H.5 SFRSYM    DATA     BIT       P45
      000000B0H.6 SFRSYM    DATA     BIT       P36
      000000A0H.7 SFRSYM    DATA     BIT       P27
      000000D8H.5 SFRSYM    DATA     BIT       P55
      000000C0H.6 SFRSYM    DATA     BIT       P46
      000000B0H.7 SFRSYM    DATA     BIT       P37
      000000C0H.7 SFRSYM    DATA     BIT       P47
      000000C8H.6 SFRSYM    DATA     BIT       EXFX
      00000093H   SFRSYM    DATA     BYTE      DDRCON
      000000F6H   SFRSYM    DATA     BYTE      IAPCTL
      000000A9H   SFRSYM    DATA     BYTE      IE1
      000000AAH   SFRSYM    DATA     BYTE      IE2
      000000F0H   SFRSYM    DATA     BYTE      B
      000000B7H   SFRSYM    DATA     BYTE      CMPCON
      000000F1H   SFRSYM    DATA     BYTE      IAPKEY
LX51 LINKER/LOCATER V4.41                                                             03/02/2021  09:23:58  PAGE 15


      000000FBH   SFRSYM    DATA     BYTE      BTMCON
      000000D4H   SFRSYM    DATA     BYTE      PWMCFG
      000000E0H   SFRSYM    DATA     BYTE      ACC
      000000CBH   SFRSYM    DATA     BYTE      RCAPXH
      000000A8H.1 SFRSYM    DATA     BIT       ET0
      000000FCH   SFRSYM    DATA     BYTE      CRCINX
      00000088H.5 SFRSYM    DATA     BIT       TF0
      000000A8H.3 SFRSYM    DATA     BIT       ET1
      000000ABH   SFRSYM    DATA     BYTE      ADCCFG0
      000000B9H   SFRSYM    DATA     BYTE      IP1
      00000088H.7 SFRSYM    DATA     BIT       TF1
      000000A8H.5 SFRSYM    DATA     BIT       ET2
      000000ACH   SFRSYM    DATA     BYTE      ADCCFG1
      000000BAH   SFRSYM    DATA     BYTE      IP2
      00000098H.2 SFRSYM    DATA     BIT       RB8
      000000B5H   SFRSYM    DATA     BYTE      ADCCFG2
      000000CAH   SFRSYM    DATA     BYTE      RCAPXL
      0000008CH   SFRSYM    DATA     BYTE      TH0
      0000008DH   SFRSYM    DATA     BYTE      TH1
      00000098H.3 SFRSYM    DATA     BIT       TB8
      000000D0H   SFRSYM    DATA     BIT       P
      00000098H.7 SFRSYM    DATA     BIT       SM0
      0000008AH   SFRSYM    DATA     BYTE      TL0
      00000098H.6 SFRSYM    DATA     BIT       SM1
      000000CFH   SFRSYM    DATA     BYTE      WDTCON
      0000008BH   SFRSYM    DATA     BYTE      TL1
      00000098H.5 SFRSYM    DATA     BIT       SM2
      000000D5H   SFRSYM    DATA     BYTE      PWMDFR
      000000D0H.3 SFRSYM    DATA     BIT       RS0
      00000088H.4 SFRSYM    DATA     BIT       TR0
      000000D0H.4 SFRSYM    DATA     BIT       RS1
      000000D3H   SFRSYM    DATA     BYTE      PWMCON
      000000D7H   SFRSYM    DATA     BYTE      PWMMOD
      00000088H.6 SFRSYM    DATA     BIT       TR1
      000000B8H.4 SFRSYM    DATA     BIT       IPUART
      000000D6H   SFRSYM    DATA     BYTE      PWMFLT
      00000083H   SFRSYM    DATA     BYTE      DPH
      00000082H   SFRSYM    DATA     BYTE      DPL
      000000A8H   SFRSYM    DATA     BIT       EINT0
      0000009AH   SFRSYM    DATA     BYTE      P0CON
      000000A8H.2 SFRSYM    DATA     BIT       EINT1
      000000B8H.6 SFRSYM    DATA     BIT       IPADC
      000000B4H   SFRSYM    DATA     BYTE      INT0F
      00000091H   SFRSYM    DATA     BYTE      P1CON
      000000BCH   SFRSYM    DATA     BYTE      INT1F
      000000A1H   SFRSYM    DATA     BYTE      P2CON
      000000BEH   SFRSYM    DATA     BYTE      INT2F
      000000B1H   SFRSYM    DATA     BYTE      P3CON
      00000098H.4 SFRSYM    DATA     BIT       REN
      000000C1H   SFRSYM    DATA     BYTE      P4CON
      000000D9H   SFRSYM    DATA     BYTE      P5CON
      000000AFH   SFRSYM    DATA     BYTE      ADCVH
      00000086H   SFRSYM    DATA     BYTE      DPS
      00000095H   SFRSYM    DATA     BYTE      US0CON0
      000000F7H   SFRSYM    DATA     BYTE      EXADH
      000000A4H   SFRSYM    DATA     BYTE      US1CON0
      0000009DH   SFRSYM    DATA     BYTE      US0CON1
      000000AEH   SFRSYM    DATA     BYTE      ADCVL
      000000C4H   SFRSYM    DATA     BYTE      US2CON0
      000000A5H   SFRSYM    DATA     BYTE      US1CON1
      0000009EH   SFRSYM    DATA     BYTE      US0CON2
      000000C5H   SFRSYM    DATA     BYTE      US2CON1
      000000A6H   SFRSYM    DATA     BYTE      US1CON2
      0000009FH   SFRSYM    DATA     BYTE      US0CON3
      000000C6H   SFRSYM    DATA     BYTE      US2CON2
LX51 LINKER/LOCATER V4.41                                                             03/02/2021  09:23:58  PAGE 16


      000000A7H   SFRSYM    DATA     BYTE      US1CON3
      000000BBH   SFRSYM    DATA     BYTE      INT0R
      000000C7H   SFRSYM    DATA     BYTE      US2CON3
      000000BDH   SFRSYM    DATA     BYTE      INT1R
      000000BFH   SFRSYM    DATA     BYTE      INT2R
      000000C8H.7 SFRSYM    DATA     BIT       TFX
      00000096H   SFRSYM    DATA     BYTE      IOHCON0
      00000097H   SFRSYM    DATA     BYTE      IOHCON1
      000000CDH   SFRSYM    DATA     BYTE      THX
      000000D0H.5 SFRSYM    DATA     BIT       F0
      000000D0H.1 SFRSYM    DATA     BIT       F1
      000000CCH   SFRSYM    DATA     BYTE      TLX
      000000D0H   SFRSYM    DATA     BYTE      PSW

      010003E0H   BLOCK     CODE     ---       LVL=0
      010003E0H   LINE      CODE     ---       #20
      010003E0H   LINE      CODE     ---       #21
      010003E0H   LINE      CODE     ---       #23
      010003E3H   LINE      CODE     ---       #24
      010003E6H   LINE      CODE     ---       #25
      010003E9H   LINE      CODE     ---       #27
      010003EBH   LINE      CODE     ---       #28
      ---         BLOCKEND  ---      ---       LVL=0

      0100042AH   BLOCK     CODE     ---       LVL=0
      0100042AH   LINE      CODE     ---       #36
      0100042AH   LINE      CODE     ---       #37
      0100042AH   LINE      CODE     ---       #39
      ---         BLOCKEND  ---      ---       LVL=0

      010003F7H   BLOCK     CODE     ---       LVL=0
      010003F7H   LINE      CODE     ---       #47
      010003F7H   LINE      CODE     ---       #48
      010003F7H   LINE      CODE     ---       #50
      ---         BLOCKEND  ---      ---       LVL=0

      01000376H   BLOCK     CODE     ---       LVL=0
      01000376H   LINE      CODE     ---       #71
      01000376H   LINE      CODE     ---       #72
      01000376H   LINE      CODE     ---       #74
      0100037DH   LINE      CODE     ---       #75
      01000387H   LINE      CODE     ---       #76
      0100038EH   LINE      CODE     ---       #77
      ---         BLOCKEND  ---      ---       LVL=0

      ---         MODULE    ---      ---       SC_IT
      01000437H   PUBLIC    CODE     ---       USCI2Interrupt
      01000436H   PUBLIC    CODE     ---       USCI1Interrupt
      01000435H   PUBLIC    CODE     ---       Timer4Interrupt
      01000434H   PUBLIC    CODE     ---       Timer3Interrupt
      01000433H   PUBLIC    CODE     ---       ACMPInterrupt
      01000432H   PUBLIC    CODE     ---       INT2Interrupt
      01000431H   PUBLIC    CODE     ---       BTMInterrupt
      01000430H   PUBLIC    CODE     ---       PWMInterrupt
      0100042FH   PUBLIC    CODE     ---       USCI0Interrupt
      0100042EH   PUBLIC    CODE     ---       ADCInterrupt
      0100042DH   PUBLIC    CODE     ---       Timer2Interrupt
      0100042CH   PUBLIC    CODE     ---       UART0Interrupt
      0100042BH   PUBLIC    CODE     ---       Timer1Interrupt
      01000426H   PUBLIC    CODE     ---       INT1Interrupt
      01000262H   PUBLIC    CODE     ---       Timer0Interrupt
      01000422H   PUBLIC    CODE     ---       INT0Interrupt
      000000C8H.2 SFRSYM    DATA     BIT       TRX
      000000FFH   SFRSYM    DATA     BYTE      OPREG
      00000080H   SFRSYM    DATA     BYTE      P0
LX51 LINKER/LOCATER V4.41                                                             03/02/2021  09:23:58  PAGE 17


      00000090H   SFRSYM    DATA     BYTE      P1
      000000A0H   SFRSYM    DATA     BYTE      P2
      000000A8H.4 SFRSYM    DATA     BIT       EUART
      0000008EH   SFRSYM    DATA     BYTE      TMCON
      000000B0H   SFRSYM    DATA     BYTE      P3
      000000D0H.6 SFRSYM    DATA     BIT       AC
      000000C0H   SFRSYM    DATA     BYTE      P4
      0000008FH   SFRSYM    DATA     BYTE      OTCON
      000000D8H   SFRSYM    DATA     BYTE      P5
      000000A8H.7 SFRSYM    DATA     BIT       EA
      000000C8H.5 SFRSYM    DATA     BIT       RCLKX
      000000C8H.4 SFRSYM    DATA     BIT       TCLKX
      000000C8H.3 SFRSYM    DATA     BIT       EXENX
      000000A8H.6 SFRSYM    DATA     BIT       EADC
      000000C9H   SFRSYM    DATA     BYTE      TXMOD
      000000C8H   SFRSYM    DATA     BYTE      TXCON
      000000A8H   SFRSYM    DATA     BYTE      IE
      00000085H   SFRSYM    DATA     BYTE      DPH1
      000000E9H   SFRSYM    DATA     BYTE      EXA0
      000000EAH   SFRSYM    DATA     BYTE      EXA1
      000000FEH   SFRSYM    DATA     BYTE      OPINX
      000000EBH   SFRSYM    DATA     BYTE      EXA2
      000000ECH   SFRSYM    DATA     BYTE      EXA3
      00000084H   SFRSYM    DATA     BYTE      DPL1
      000000C8H   SFRSYM    DATA     BIT       CP
      000000EFH   SFRSYM    DATA     BYTE      OPERCON
      0000009BH   SFRSYM    DATA     BYTE      P0PH
      000000B8H   SFRSYM    DATA     BYTE      IP
      00000092H   SFRSYM    DATA     BYTE      P1PH
      00000098H   SFRSYM    DATA     BIT       RI
      000000A2H   SFRSYM    DATA     BYTE      P2PH
      000000D0H.7 SFRSYM    DATA     BIT       CY
      000000B2H   SFRSYM    DATA     BYTE      P3PH
      00000098H.1 SFRSYM    DATA     BIT       TI
      000000CEH   SFRSYM    DATA     BYTE      TXINX
      000000C2H   SFRSYM    DATA     BYTE      P4PH
      000000B8H.1 SFRSYM    DATA     BIT       IPT0
      000000DAH   SFRSYM    DATA     BYTE      P5PH
      000000B8H.3 SFRSYM    DATA     BIT       IPT1
      000000B8H.5 SFRSYM    DATA     BIT       IPT2
      00000081H   SFRSYM    DATA     BYTE      SP
      000000D0H.2 SFRSYM    DATA     BIT       OV
      000000F4H   SFRSYM    DATA     BYTE      IAPADE
      0000009CH   SFRSYM    DATA     BYTE      P0VO
      00000094H   SFRSYM    DATA     BYTE      P1VO
      000000EEH   SFRSYM    DATA     BYTE      EXBH
      000000A3H   SFRSYM    DATA     BYTE      P2VO
      000000F3H   SFRSYM    DATA     BYTE      IAPADH
      000000B3H   SFRSYM    DATA     BYTE      P3VO
      000000ADH   SFRSYM    DATA     BYTE      ADCCON
      000000C8H.1 SFRSYM    DATA     BIT       TX
      000000EDH   SFRSYM    DATA     BYTE      EXBL
      000000F2H   SFRSYM    DATA     BYTE      IAPADL
      00000080H   SFRSYM    DATA     BIT       P00
      00000090H   SFRSYM    DATA     BIT       P10
      00000080H.1 SFRSYM    DATA     BIT       P01
      00000099H   SFRSYM    DATA     BYTE      SBUF
      00000087H   SFRSYM    DATA     BYTE      PCON
      000000A0H   SFRSYM    DATA     BIT       P20
      00000090H.1 SFRSYM    DATA     BIT       P11
      00000080H.2 SFRSYM    DATA     BIT       P02
      000000B6H   SFRSYM    DATA     BYTE      CMPCFG
      000000B0H   SFRSYM    DATA     BIT       P30
      000000A0H.1 SFRSYM    DATA     BIT       P21
      00000090H.2 SFRSYM    DATA     BIT       P12
LX51 LINKER/LOCATER V4.41                                                             03/02/2021  09:23:58  PAGE 18


      00000080H.3 SFRSYM    DATA     BIT       P03
      000000C0H   SFRSYM    DATA     BIT       P40
      000000B0H.1 SFRSYM    DATA     BIT       P31
      000000A0H.2 SFRSYM    DATA     BIT       P22
      00000090H.3 SFRSYM    DATA     BIT       P13
      00000080H.4 SFRSYM    DATA     BIT       P04
      00000098H   SFRSYM    DATA     BYTE      SCON
      000000D8H   SFRSYM    DATA     BIT       P50
      000000C0H.1 SFRSYM    DATA     BIT       P41
      000000B0H.2 SFRSYM    DATA     BIT       P32
      000000A0H.3 SFRSYM    DATA     BIT       P23
      00000090H.4 SFRSYM    DATA     BIT       P14
      00000080H.5 SFRSYM    DATA     BIT       P05
      000000F5H   SFRSYM    DATA     BYTE      IAPDAT
      00000088H   SFRSYM    DATA     BYTE      TCON
      00000089H   SFRSYM    DATA     BYTE      TMOD
      000000D8H.1 SFRSYM    DATA     BIT       P51
      000000C0H.2 SFRSYM    DATA     BIT       P42
      000000B0H.3 SFRSYM    DATA     BIT       P33
      000000A0H.4 SFRSYM    DATA     BIT       P24
      00000090H.5 SFRSYM    DATA     BIT       P15
      00000080H.6 SFRSYM    DATA     BIT       P06
      000000B8H   SFRSYM    DATA     BIT       IPINT0
      000000D8H.2 SFRSYM    DATA     BIT       P52
      000000C0H.3 SFRSYM    DATA     BIT       P43
      000000B0H.4 SFRSYM    DATA     BIT       P34
      000000A0H.5 SFRSYM    DATA     BIT       P25
      00000090H.6 SFRSYM    DATA     BIT       P16
      00000080H.7 SFRSYM    DATA     BIT       P07
      000000B8H.2 SFRSYM    DATA     BIT       IPINT1
      000000D8H.3 SFRSYM    DATA     BIT       P53
      000000C0H.4 SFRSYM    DATA     BIT       P44
      000000B0H.5 SFRSYM    DATA     BIT       P35
      000000A0H.6 SFRSYM    DATA     BIT       P26
      00000090H.7 SFRSYM    DATA     BIT       P17
      000000FDH   SFRSYM    DATA     BYTE      CRCREG
      000000D8H.4 SFRSYM    DATA     BIT       P54
      000000C0H.5 SFRSYM    DATA     BIT       P45
      000000B0H.6 SFRSYM    DATA     BIT       P36
      000000A0H.7 SFRSYM    DATA     BIT       P27
      000000D8H.5 SFRSYM    DATA     BIT       P55
      000000C0H.6 SFRSYM    DATA     BIT       P46
      000000B0H.7 SFRSYM    DATA     BIT       P37
      000000C0H.7 SFRSYM    DATA     BIT       P47
      000000C8H.6 SFRSYM    DATA     BIT       EXFX
      00000093H   SFRSYM    DATA     BYTE      DDRCON
      000000F6H   SFRSYM    DATA     BYTE      IAPCTL
      000000A9H   SFRSYM    DATA     BYTE      IE1
      000000AAH   SFRSYM    DATA     BYTE      IE2
      000000F0H   SFRSYM    DATA     BYTE      B
      000000B7H   SFRSYM    DATA     BYTE      CMPCON
      000000F1H   SFRSYM    DATA     BYTE      IAPKEY
      000000FBH   SFRSYM    DATA     BYTE      BTMCON
      000000D4H   SFRSYM    DATA     BYTE      PWMCFG
      000000E0H   SFRSYM    DATA     BYTE      ACC
      000000CBH   SFRSYM    DATA     BYTE      RCAPXH
      000000A8H.1 SFRSYM    DATA     BIT       ET0
      000000FCH   SFRSYM    DATA     BYTE      CRCINX
      00000088H.5 SFRSYM    DATA     BIT       TF0
      000000A8H.3 SFRSYM    DATA     BIT       ET1
      000000ABH   SFRSYM    DATA     BYTE      ADCCFG0
      000000B9H   SFRSYM    DATA     BYTE      IP1
      00000088H.7 SFRSYM    DATA     BIT       TF1
      000000A8H.5 SFRSYM    DATA     BIT       ET2
      000000ACH   SFRSYM    DATA     BYTE      ADCCFG1
LX51 LINKER/LOCATER V4.41                                                             03/02/2021  09:23:58  PAGE 19


      000000BAH   SFRSYM    DATA     BYTE      IP2
      00000098H.2 SFRSYM    DATA     BIT       RB8
      000000B5H   SFRSYM    DATA     BYTE      ADCCFG2
      000000CAH   SFRSYM    DATA     BYTE      RCAPXL
      0000008CH   SFRSYM    DATA     BYTE      TH0
      0000008DH   SFRSYM    DATA     BYTE      TH1
      00000098H.3 SFRSYM    DATA     BIT       TB8
      000000D0H   SFRSYM    DATA     BIT       P
      00000098H.7 SFRSYM    DATA     BIT       SM0
      0000008AH   SFRSYM    DATA     BYTE      TL0
      00000098H.6 SFRSYM    DATA     BIT       SM1
      000000CFH   SFRSYM    DATA     BYTE      WDTCON
      0000008BH   SFRSYM    DATA     BYTE      TL1
      00000098H.5 SFRSYM    DATA     BIT       SM2
      000000D5H   SFRSYM    DATA     BYTE      PWMDFR
      000000D0H.3 SFRSYM    DATA     BIT       RS0
      00000088H.4 SFRSYM    DATA     BIT       TR0
      000000D0H.4 SFRSYM    DATA     BIT       RS1
      000000D3H   SFRSYM    DATA     BYTE      PWMCON
      000000D7H   SFRSYM    DATA     BYTE      PWMMOD
      00000088H.6 SFRSYM    DATA     BIT       TR1
      000000B8H.4 SFRSYM    DATA     BIT       IPUART
      000000D6H   SFRSYM    DATA     BYTE      PWMFLT
      00000083H   SFRSYM    DATA     BYTE      DPH
      00000082H   SFRSYM    DATA     BYTE      DPL
      000000A8H   SFRSYM    DATA     BIT       EINT0
      0000009AH   SFRSYM    DATA     BYTE      P0CON
      000000A8H.2 SFRSYM    DATA     BIT       EINT1
      000000B8H.6 SFRSYM    DATA     BIT       IPADC
      000000B4H   SFRSYM    DATA     BYTE      INT0F
      00000091H   SFRSYM    DATA     BYTE      P1CON
      000000BCH   SFRSYM    DATA     BYTE      INT1F
      000000A1H   SFRSYM    DATA     BYTE      P2CON
      000000BEH   SFRSYM    DATA     BYTE      INT2F
      000000B1H   SFRSYM    DATA     BYTE      P3CON
      00000098H.4 SFRSYM    DATA     BIT       REN
      000000C1H   SFRSYM    DATA     BYTE      P4CON
      000000D9H   SFRSYM    DATA     BYTE      P5CON
      000000AFH   SFRSYM    DATA     BYTE      ADCVH
      00000086H   SFRSYM    DATA     BYTE      DPS
      00000095H   SFRSYM    DATA     BYTE      US0CON0
      000000F7H   SFRSYM    DATA     BYTE      EXADH
      000000A4H   SFRSYM    DATA     BYTE      US1CON0
      0000009DH   SFRSYM    DATA     BYTE      US0CON1
      000000AEH   SFRSYM    DATA     BYTE      ADCVL
      000000C4H   SFRSYM    DATA     BYTE      US2CON0
      000000A5H   SFRSYM    DATA     BYTE      US1CON1
      0000009EH   SFRSYM    DATA     BYTE      US0CON2
      000000C5H   SFRSYM    DATA     BYTE      US2CON1
      000000A6H   SFRSYM    DATA     BYTE      US1CON2
      0000009FH   SFRSYM    DATA     BYTE      US0CON3
      000000C6H   SFRSYM    DATA     BYTE      US2CON2
      000000A7H   SFRSYM    DATA     BYTE      US1CON3
      000000BBH   SFRSYM    DATA     BYTE      INT0R
      000000C7H   SFRSYM    DATA     BYTE      US2CON3
      000000BDH   SFRSYM    DATA     BYTE      INT1R
      000000BFH   SFRSYM    DATA     BYTE      INT2R
      000000C8H.7 SFRSYM    DATA     BIT       TFX
      00000096H   SFRSYM    DATA     BYTE      IOHCON0
      00000097H   SFRSYM    DATA     BYTE      IOHCON1
      000000CDH   SFRSYM    DATA     BYTE      THX
      000000D0H.5 SFRSYM    DATA     BIT       F0
      000000D0H.1 SFRSYM    DATA     BIT       F1
      000000CCH   SFRSYM    DATA     BYTE      TLX
      000000D0H   SFRSYM    DATA     BYTE      PSW
LX51 LINKER/LOCATER V4.41                                                             03/02/2021  09:23:58  PAGE 20



      01000422H   BLOCK     CODE     ---       LVL=0
      01000422H   LINE      CODE     ---       #37
      01000422H   LINE      CODE     ---       #41
      01000425H   LINE      CODE     ---       #45
      ---         BLOCKEND  ---      ---       LVL=0

      01000262H   BLOCK     CODE     ---       LVL=0
      01000262H   LINE      CODE     ---       #47
      0100027FH   LINE      CODE     ---       #51
      01000286H   LINE      CODE     ---       #55
      01000286H   LINE      CODE     ---       #58
      01000294H   LINE      CODE     ---       #59
      01000294H   LINE      CODE     ---       #61
      01000298H   LINE      CODE     ---       #62
      010002A3H   LINE      CODE     ---       #63
      010002A3H   LINE      CODE     ---       #64
      010002A8H   LINE      CODE     ---       #65
      010002AAH   LINE      CODE     ---       #69
      010002AAH   LINE      CODE     ---       #70
      010002AFH   LINE      CODE     ---       #71
      010002AFH   LINE      CODE     ---       #73
      010002AFH   LINE      CODE     ---       #75
      010002AFH   LINE      CODE     ---       #77
      ---         BLOCKEND  ---      ---       LVL=0

      01000426H   BLOCK     CODE     ---       LVL=0
      01000426H   LINE      CODE     ---       #79
      01000426H   LINE      CODE     ---       #83
      01000429H   LINE      CODE     ---       #85
      ---         BLOCKEND  ---      ---       LVL=0

      0100042BH   BLOCK     CODE     ---       LVL=0
      0100042BH   LINE      CODE     ---       #87
      0100042BH   LINE      CODE     ---       #92
      ---         BLOCKEND  ---      ---       LVL=0

      0100042CH   BLOCK     CODE     ---       LVL=0
      0100042CH   LINE      CODE     ---       #94
      0100042CH   LINE      CODE     ---       #99
      ---         BLOCKEND  ---      ---       LVL=0

      0100042DH   BLOCK     CODE     ---       LVL=0
      0100042DH   LINE      CODE     ---       #101
      0100042DH   LINE      CODE     ---       #106
      ---         BLOCKEND  ---      ---       LVL=0

      0100042EH   BLOCK     CODE     ---       LVL=0
      0100042EH   LINE      CODE     ---       #108
      0100042EH   LINE      CODE     ---       #113
      ---         BLOCKEND  ---      ---       LVL=0

      0100042FH   BLOCK     CODE     ---       LVL=0
      0100042FH   LINE      CODE     ---       #115
      0100042FH   LINE      CODE     ---       #120
      ---         BLOCKEND  ---      ---       LVL=0

      01000430H   BLOCK     CODE     ---       LVL=0
      01000430H   LINE      CODE     ---       #122
      01000430H   LINE      CODE     ---       #127
      ---         BLOCKEND  ---      ---       LVL=0

      01000431H   BLOCK     CODE     ---       LVL=0
      01000431H   LINE      CODE     ---       #129
      01000431H   LINE      CODE     ---       #134
LX51 LINKER/LOCATER V4.41                                                             03/02/2021  09:23:58  PAGE 21


      ---         BLOCKEND  ---      ---       LVL=0

      01000432H   BLOCK     CODE     ---       LVL=0
      01000432H   LINE      CODE     ---       #136
      01000432H   LINE      CODE     ---       #141
      ---         BLOCKEND  ---      ---       LVL=0

      01000433H   BLOCK     CODE     ---       LVL=0
      01000433H   LINE      CODE     ---       #143
      01000433H   LINE      CODE     ---       #148
      ---         BLOCKEND  ---      ---       LVL=0

      01000434H   BLOCK     CODE     ---       LVL=0
      01000434H   LINE      CODE     ---       #149
      01000434H   LINE      CODE     ---       #154
      ---         BLOCKEND  ---      ---       LVL=0

      01000435H   BLOCK     CODE     ---       LVL=0
      01000435H   LINE      CODE     ---       #155
      01000435H   LINE      CODE     ---       #160
      ---         BLOCKEND  ---      ---       LVL=0

      01000436H   BLOCK     CODE     ---       LVL=0
      01000436H   LINE      CODE     ---       #161
      01000436H   LINE      CODE     ---       #166
      ---         BLOCKEND  ---      ---       LVL=0

      01000437H   BLOCK     CODE     ---       LVL=0
      01000437H   LINE      CODE     ---       #167
      01000437H   LINE      CODE     ---       #172
      ---         BLOCKEND  ---      ---       LVL=0

      ---         MODULE    ---      ---       SC95F_TIMER0
      010003C1H   PUBLIC    CODE     ---       _TIM0_ITConfig
      01000400H   PUBLIC    CODE     ---       _TIM0_Cmd
      01000411H   PUBLIC    CODE     ---       _TIM0_Mode1SetReloadCounter
      01000409H   PUBLIC    CODE     ---       _TIM0_WorkMode3Config
      01000328H   PUBLIC    CODE     ---       _TIM0_WorkModeConfig
      010003ECH   PUBLIC    CODE     ---       _TIM0_WorkMode2Config
      010003D3H   PUBLIC    CODE     ---       _TIM0_WorkMode1Config
      010003AFH   PUBLIC    CODE     ---       _TIM0_WorkMode0Config
      01000393H   PUBLIC    CODE     ---       _TIM0_TimeBaseInit
      000000C8H.2 SFRSYM    DATA     BIT       TRX
      000000FFH   SFRSYM    DATA     BYTE      OPREG
      00000080H   SFRSYM    DATA     BYTE      P0
      00000090H   SFRSYM    DATA     BYTE      P1
      000000A0H   SFRSYM    DATA     BYTE      P2
      000000A8H.4 SFRSYM    DATA     BIT       EUART
      0000008EH   SFRSYM    DATA     BYTE      TMCON
      000000B0H   SFRSYM    DATA     BYTE      P3
      000000D0H.6 SFRSYM    DATA     BIT       AC
      000000C0H   SFRSYM    DATA     BYTE      P4
      0000008FH   SFRSYM    DATA     BYTE      OTCON
      000000D8H   SFRSYM    DATA     BYTE      P5
      000000A8H.7 SFRSYM    DATA     BIT       EA
      000000C8H.5 SFRSYM    DATA     BIT       RCLKX
      000000C8H.4 SFRSYM    DATA     BIT       TCLKX
      000000C8H.3 SFRSYM    DATA     BIT       EXENX
      000000A8H.6 SFRSYM    DATA     BIT       EADC
      000000C9H   SFRSYM    DATA     BYTE      TXMOD
      000000C8H   SFRSYM    DATA     BYTE      TXCON
      000000A8H   SFRSYM    DATA     BYTE      IE
      00000085H   SFRSYM    DATA     BYTE      DPH1
      000000E9H   SFRSYM    DATA     BYTE      EXA0
      000000EAH   SFRSYM    DATA     BYTE      EXA1
LX51 LINKER/LOCATER V4.41                                                             03/02/2021  09:23:58  PAGE 22


      000000FEH   SFRSYM    DATA     BYTE      OPINX
      000000EBH   SFRSYM    DATA     BYTE      EXA2
      000000ECH   SFRSYM    DATA     BYTE      EXA3
      00000084H   SFRSYM    DATA     BYTE      DPL1
      000000C8H   SFRSYM    DATA     BIT       CP
      000000EFH   SFRSYM    DATA     BYTE      OPERCON
      0000009BH   SFRSYM    DATA     BYTE      P0PH
      000000B8H   SFRSYM    DATA     BYTE      IP
      00000092H   SFRSYM    DATA     BYTE      P1PH
      00000098H   SFRSYM    DATA     BIT       RI
      000000A2H   SFRSYM    DATA     BYTE      P2PH
      000000D0H.7 SFRSYM    DATA     BIT       CY
      000000B2H   SFRSYM    DATA     BYTE      P3PH
      00000098H.1 SFRSYM    DATA     BIT       TI
      000000CEH   SFRSYM    DATA     BYTE      TXINX
      000000C2H   SFRSYM    DATA     BYTE      P4PH
      000000B8H.1 SFRSYM    DATA     BIT       IPT0
      000000DAH   SFRSYM    DATA     BYTE      P5PH
      000000B8H.3 SFRSYM    DATA     BIT       IPT1
      000000B8H.5 SFRSYM    DATA     BIT       IPT2
      00000081H   SFRSYM    DATA     BYTE      SP
      000000D0H.2 SFRSYM    DATA     BIT       OV
      000000F4H   SFRSYM    DATA     BYTE      IAPADE
      0000009CH   SFRSYM    DATA     BYTE      P0VO
      00000094H   SFRSYM    DATA     BYTE      P1VO
      000000EEH   SFRSYM    DATA     BYTE      EXBH
      000000A3H   SFRSYM    DATA     BYTE      P2VO
      000000F3H   SFRSYM    DATA     BYTE      IAPADH
      000000B3H   SFRSYM    DATA     BYTE      P3VO
      000000ADH   SFRSYM    DATA     BYTE      ADCCON
      000000C8H.1 SFRSYM    DATA     BIT       TX
      000000EDH   SFRSYM    DATA     BYTE      EXBL
      000000F2H   SFRSYM    DATA     BYTE      IAPADL
      00000080H   SFRSYM    DATA     BIT       P00
      00000090H   SFRSYM    DATA     BIT       P10
      00000080H.1 SFRSYM    DATA     BIT       P01
      00000099H   SFRSYM    DATA     BYTE      SBUF
      00000087H   SFRSYM    DATA     BYTE      PCON
      000000A0H   SFRSYM    DATA     BIT       P20
      00000090H.1 SFRSYM    DATA     BIT       P11
      00000080H.2 SFRSYM    DATA     BIT       P02
      000000B6H   SFRSYM    DATA     BYTE      CMPCFG
      000000B0H   SFRSYM    DATA     BIT       P30
      000000A0H.1 SFRSYM    DATA     BIT       P21
      00000090H.2 SFRSYM    DATA     BIT       P12
      00000080H.3 SFRSYM    DATA     BIT       P03
      000000C0H   SFRSYM    DATA     BIT       P40
      000000B0H.1 SFRSYM    DATA     BIT       P31
      000000A0H.2 SFRSYM    DATA     BIT       P22
      00000090H.3 SFRSYM    DATA     BIT       P13
      00000080H.4 SFRSYM    DATA     BIT       P04
      00000098H   SFRSYM    DATA     BYTE      SCON
      000000D8H   SFRSYM    DATA     BIT       P50
      000000C0H.1 SFRSYM    DATA     BIT       P41
      000000B0H.2 SFRSYM    DATA     BIT       P32
      000000A0H.3 SFRSYM    DATA     BIT       P23
      00000090H.4 SFRSYM    DATA     BIT       P14
      00000080H.5 SFRSYM    DATA     BIT       P05
      000000F5H   SFRSYM    DATA     BYTE      IAPDAT
      00000088H   SFRSYM    DATA     BYTE      TCON
      00000089H   SFRSYM    DATA     BYTE      TMOD
      000000D8H.1 SFRSYM    DATA     BIT       P51
      000000C0H.2 SFRSYM    DATA     BIT       P42
      000000B0H.3 SFRSYM    DATA     BIT       P33
      000000A0H.4 SFRSYM    DATA     BIT       P24
LX51 LINKER/LOCATER V4.41                                                             03/02/2021  09:23:58  PAGE 23


      00000090H.5 SFRSYM    DATA     BIT       P15
      00000080H.6 SFRSYM    DATA     BIT       P06
      000000B8H   SFRSYM    DATA     BIT       IPINT0
      000000D8H.2 SFRSYM    DATA     BIT       P52
      000000C0H.3 SFRSYM    DATA     BIT       P43
      000000B0H.4 SFRSYM    DATA     BIT       P34
      000000A0H.5 SFRSYM    DATA     BIT       P25
      00000090H.6 SFRSYM    DATA     BIT       P16
      00000080H.7 SFRSYM    DATA     BIT       P07
      000000B8H.2 SFRSYM    DATA     BIT       IPINT1
      000000D8H.3 SFRSYM    DATA     BIT       P53
      000000C0H.4 SFRSYM    DATA     BIT       P44
      000000B0H.5 SFRSYM    DATA     BIT       P35
      000000A0H.6 SFRSYM    DATA     BIT       P26
      00000090H.7 SFRSYM    DATA     BIT       P17
      000000FDH   SFRSYM    DATA     BYTE      CRCREG
      000000D8H.4 SFRSYM    DATA     BIT       P54
      000000C0H.5 SFRSYM    DATA     BIT       P45
      000000B0H.6 SFRSYM    DATA     BIT       P36
      000000A0H.7 SFRSYM    DATA     BIT       P27
      000000D8H.5 SFRSYM    DATA     BIT       P55
      000000C0H.6 SFRSYM    DATA     BIT       P46
      000000B0H.7 SFRSYM    DATA     BIT       P37
      000000C0H.7 SFRSYM    DATA     BIT       P47
      000000C8H.6 SFRSYM    DATA     BIT       EXFX
      00000093H   SFRSYM    DATA     BYTE      DDRCON
      000000F6H   SFRSYM    DATA     BYTE      IAPCTL
      000000A9H   SFRSYM    DATA     BYTE      IE1
      000000AAH   SFRSYM    DATA     BYTE      IE2
      000000F0H   SFRSYM    DATA     BYTE      B
      000000B7H   SFRSYM    DATA     BYTE      CMPCON
      000000F1H   SFRSYM    DATA     BYTE      IAPKEY
      000000FBH   SFRSYM    DATA     BYTE      BTMCON
      000000D4H   SFRSYM    DATA     BYTE      PWMCFG
      000000E0H   SFRSYM    DATA     BYTE      ACC
      000000CBH   SFRSYM    DATA     BYTE      RCAPXH
      000000A8H.1 SFRSYM    DATA     BIT       ET0
      000000FCH   SFRSYM    DATA     BYTE      CRCINX
      00000088H.5 SFRSYM    DATA     BIT       TF0
      000000A8H.3 SFRSYM    DATA     BIT       ET1
      000000ABH   SFRSYM    DATA     BYTE      ADCCFG0
      000000B9H   SFRSYM    DATA     BYTE      IP1
      00000088H.7 SFRSYM    DATA     BIT       TF1
      000000A8H.5 SFRSYM    DATA     BIT       ET2
      000000ACH   SFRSYM    DATA     BYTE      ADCCFG1
      000000BAH   SFRSYM    DATA     BYTE      IP2
      00000098H.2 SFRSYM    DATA     BIT       RB8
      000000B5H   SFRSYM    DATA     BYTE      ADCCFG2
      000000CAH   SFRSYM    DATA     BYTE      RCAPXL
      0000008CH   SFRSYM    DATA     BYTE      TH0
      0000008DH   SFRSYM    DATA     BYTE      TH1
      00000098H.3 SFRSYM    DATA     BIT       TB8
      000000D0H   SFRSYM    DATA     BIT       P
      00000098H.7 SFRSYM    DATA     BIT       SM0
      0000008AH   SFRSYM    DATA     BYTE      TL0
      00000098H.6 SFRSYM    DATA     BIT       SM1
      000000CFH   SFRSYM    DATA     BYTE      WDTCON
      0000008BH   SFRSYM    DATA     BYTE      TL1
      00000098H.5 SFRSYM    DATA     BIT       SM2
      000000D5H   SFRSYM    DATA     BYTE      PWMDFR
      000000D0H.3 SFRSYM    DATA     BIT       RS0
      00000088H.4 SFRSYM    DATA     BIT       TR0
      000000D0H.4 SFRSYM    DATA     BIT       RS1
      000000D3H   SFRSYM    DATA     BYTE      PWMCON
      000000D7H   SFRSYM    DATA     BYTE      PWMMOD
LX51 LINKER/LOCATER V4.41                                                             03/02/2021  09:23:58  PAGE 24


      00000088H.6 SFRSYM    DATA     BIT       TR1
      000000B8H.4 SFRSYM    DATA     BIT       IPUART
      000000D6H   SFRSYM    DATA     BYTE      PWMFLT
      00000083H   SFRSYM    DATA     BYTE      DPH
      00000082H   SFRSYM    DATA     BYTE      DPL
      000000A8H   SFRSYM    DATA     BIT       EINT0
      0000009AH   SFRSYM    DATA     BYTE      P0CON
      000000A8H.2 SFRSYM    DATA     BIT       EINT1
      000000B8H.6 SFRSYM    DATA     BIT       IPADC
      000000B4H   SFRSYM    DATA     BYTE      INT0F
      00000091H   SFRSYM    DATA     BYTE      P1CON
      000000BCH   SFRSYM    DATA     BYTE      INT1F
      000000A1H   SFRSYM    DATA     BYTE      P2CON
      000000BEH   SFRSYM    DATA     BYTE      INT2F
      000000B1H   SFRSYM    DATA     BYTE      P3CON
      00000098H.4 SFRSYM    DATA     BIT       REN
      000000C1H   SFRSYM    DATA     BYTE      P4CON
      000000D9H   SFRSYM    DATA     BYTE      P5CON
      000000AFH   SFRSYM    DATA     BYTE      ADCVH
      00000086H   SFRSYM    DATA     BYTE      DPS
      00000095H   SFRSYM    DATA     BYTE      US0CON0
      000000F7H   SFRSYM    DATA     BYTE      EXADH
      000000A4H   SFRSYM    DATA     BYTE      US1CON0
      0000009DH   SFRSYM    DATA     BYTE      US0CON1
      000000AEH   SFRSYM    DATA     BYTE      ADCVL
      000000C4H   SFRSYM    DATA     BYTE      US2CON0
      000000A5H   SFRSYM    DATA     BYTE      US1CON1
      0000009EH   SFRSYM    DATA     BYTE      US0CON2
      000000C5H   SFRSYM    DATA     BYTE      US2CON1
      000000A6H   SFRSYM    DATA     BYTE      US1CON2
      0000009FH   SFRSYM    DATA     BYTE      US0CON3
      000000C6H   SFRSYM    DATA     BYTE      US2CON2
      000000A7H   SFRSYM    DATA     BYTE      US1CON3
      000000BBH   SFRSYM    DATA     BYTE      INT0R
      000000C7H   SFRSYM    DATA     BYTE      US2CON3
      000000BDH   SFRSYM    DATA     BYTE      INT1R
      000000BFH   SFRSYM    DATA     BYTE      INT2R
      000000C8H.7 SFRSYM    DATA     BIT       TFX
      00000096H   SFRSYM    DATA     BYTE      IOHCON0
      00000097H   SFRSYM    DATA     BYTE      IOHCON1
      000000CDH   SFRSYM    DATA     BYTE      THX
      000000D0H.5 SFRSYM    DATA     BIT       F0
      000000D0H.1 SFRSYM    DATA     BIT       F1
      000000CCH   SFRSYM    DATA     BYTE      TLX
      000000D0H   SFRSYM    DATA     BYTE      PSW

      01000393H   BLOCK     CODE     ---       LVL=0
      00000007H   SYMBOL    DATA     BYTE      TIM0_PrescalerSelection
      00000005H   SYMBOL    DATA     BYTE      TIM0_CountMode
      01000393H   LINE      CODE     ---       #38
      01000393H   LINE      CODE     ---       #39
      01000393H   LINE      CODE     ---       #40
      01000396H   LINE      CODE     ---       #41
      01000396H   LINE      CODE     ---       #42
      01000399H   LINE      CODE     ---       #43
      0100039BH   LINE      CODE     ---       #44
      0100039EH   LINE      CODE     ---       #45
      0100039EH   LINE      CODE     ---       #46
      010003A1H   LINE      CODE     ---       #47
      010003A1H   LINE      CODE     ---       #49
      010003A4H   LINE      CODE     ---       #50
      010003A4H   LINE      CODE     ---       #51
      010003A7H   LINE      CODE     ---       #52
      010003A8H   LINE      CODE     ---       #53
      010003ABH   LINE      CODE     ---       #54
LX51 LINKER/LOCATER V4.41                                                             03/02/2021  09:23:58  PAGE 25


      010003ABH   LINE      CODE     ---       #55
      010003AEH   LINE      CODE     ---       #56
      010003AEH   LINE      CODE     ---       #57
      ---         BLOCKEND  ---      ---       LVL=0

      010003AFH   BLOCK     CODE     ---       LVL=0
      00000006H   SYMBOL    DATA     WORD      TIM0_SetCounter
      010003AFH   LINE      CODE     ---       #65
      010003AFH   LINE      CODE     ---       #66
      010003AFH   LINE      CODE     ---       #67
      010003B2H   LINE      CODE     ---       #68
      010003B4H   LINE      CODE     ---       #69
      010003C0H   LINE      CODE     ---       #70
      ---         BLOCKEND  ---      ---       LVL=0

      010003D3H   BLOCK     CODE     ---       LVL=0
      00000006H   SYMBOL    DATA     WORD      TIM0_SetCounter
      010003D3H   LINE      CODE     ---       #78
      010003D3H   LINE      CODE     ---       #79
      010003D3H   LINE      CODE     ---       #80
      010003D6H   LINE      CODE     ---       #81
      010003D9H   LINE      CODE     ---       #82
      010003DDH   LINE      CODE     ---       #83
      010003DFH   LINE      CODE     ---       #84
      ---         BLOCKEND  ---      ---       LVL=0

      010003ECH   BLOCK     CODE     ---       LVL=0
      00000007H   SYMBOL    DATA     BYTE      TIM0_SetCounter
      010003ECH   LINE      CODE     ---       #92
      010003ECH   LINE      CODE     ---       #93
      010003ECH   LINE      CODE     ---       #94
      010003EFH   LINE      CODE     ---       #95
      010003F2H   LINE      CODE     ---       #96
      010003F4H   LINE      CODE     ---       #97
      010003F6H   LINE      CODE     ---       #98
      ---         BLOCKEND  ---      ---       LVL=0

      01000328H   BLOCK     CODE     ---       LVL=0
      00000007H   SYMBOL    DATA     BYTE      TIM0_WorkMode
      00000004H   SYMBOL    DATA     WORD      TIM0_SetCounter1
      00000002H   SYMBOL    DATA     WORD      TIM0_SetCounter2
      01000328H   LINE      CODE     ---       #108
      01000328H   LINE      CODE     ---       #109
      01000328H   LINE      CODE     ---       #110
      01000336H   LINE      CODE     ---       #111
      01000336H   LINE      CODE     ---       #112
      01000336H   LINE      CODE     ---       #113
      0100033DH   LINE      CODE     ---       #114
      0100033DH   LINE      CODE     ---       #116
      0100033DH   LINE      CODE     ---       #117
      01000344H   LINE      CODE     ---       #118
      01000344H   LINE      CODE     ---       #120
      01000344H   LINE      CODE     ---       #121
      01000349H   LINE      CODE     ---       #122
      01000349H   LINE      CODE     ---       #124
      01000349H   LINE      CODE     ---       #125
      01000350H   LINE      CODE     ---       #126
      01000350H   LINE      CODE     ---       #128
      01000350H   LINE      CODE     ---       #129
      01000350H   LINE      CODE     ---       #130
      01000350H   LINE      CODE     ---       #131
      ---         BLOCKEND  ---      ---       LVL=0

      01000409H   BLOCK     CODE     ---       LVL=0
      00000007H   SYMBOL    DATA     BYTE      TIM0_SetCounter
LX51 LINKER/LOCATER V4.41                                                             03/02/2021  09:23:58  PAGE 26


      00000005H   SYMBOL    DATA     BYTE      TIM1_SetCounter
      01000409H   LINE      CODE     ---       #140
      01000409H   LINE      CODE     ---       #141
      01000409H   LINE      CODE     ---       #142
      0100040CH   LINE      CODE     ---       #143
      0100040EH   LINE      CODE     ---       #144
      01000410H   LINE      CODE     ---       #145
      ---         BLOCKEND  ---      ---       LVL=0
      00000006H   SYMBOL    DATA     WORD      TIM0_SetCounter

      01000411H   BLOCK     CODE     ---       LVL=0
      00000006H   SYMBOL    DATA     WORD      TIM0_SetCounter
      01000411H   LINE      CODE     ---       #165
      01000411H   LINE      CODE     ---       #166
      01000411H   LINE      CODE     ---       #167
      01000415H   LINE      CODE     ---       #168
      01000417H   LINE      CODE     ---       #169
      ---         BLOCKEND  ---      ---       LVL=0

      01000400H   BLOCK     CODE     ---       LVL=0
      00000007H   SYMBOL    DATA     BYTE      NewState
      01000400H   LINE      CODE     ---       #177
      01000400H   LINE      CODE     ---       #178
      01000400H   LINE      CODE     ---       #179
      01000403H   LINE      CODE     ---       #180
      01000403H   LINE      CODE     ---       #181
      01000405H   LINE      CODE     ---       #182
      01000406H   LINE      CODE     ---       #184
      01000406H   LINE      CODE     ---       #185
      01000408H   LINE      CODE     ---       #186
      01000408H   LINE      CODE     ---       #187
      ---         BLOCKEND  ---      ---       LVL=0
      00000007H   SYMBOL    DATA     BYTE      TIM0_SetCounter
      00000007H   SYMBOL    DATA     BYTE      TIM0_SetCounter

      010003C1H   BLOCK     CODE     ---       LVL=0
      00000007H   SYMBOL    DATA     BYTE      NewState
      00000005H   SYMBOL    DATA     BYTE      Priority
      010003C1H   LINE      CODE     ---       #218
      010003C1H   LINE      CODE     ---       #219
      010003C1H   LINE      CODE     ---       #220
      010003C4H   LINE      CODE     ---       #221
      010003C4H   LINE      CODE     ---       #222
      010003C6H   LINE      CODE     ---       #223
      010003C8H   LINE      CODE     ---       #225
      010003C8H   LINE      CODE     ---       #226
      010003CAH   LINE      CODE     ---       #227
      010003CAH   LINE      CODE     ---       #229
      010003CDH   LINE      CODE     ---       #230
      010003CDH   LINE      CODE     ---       #231
      010003CFH   LINE      CODE     ---       #232
      010003D0H   LINE      CODE     ---       #234
      010003D0H   LINE      CODE     ---       #235
      010003D2H   LINE      CODE     ---       #236
      010003D2H   LINE      CODE     ---       #237
      ---         BLOCKEND  ---      ---       LVL=0

      ---         MODULE    ---      ---       SC95F_GPIO
      010002CAH   PUBLIC    CODE     ---       _GPIO_ReadPin
      010002FDH   PUBLIC    CODE     ---       _GPIO_WriteLow
      01000351H   PUBLIC    CODE     ---       _GPIO_WriteHigh
      01000100H   PUBLIC    CODE     ---       _GPIO_Init
      000000C8H.2 SFRSYM    DATA     BIT       TRX
      000000FFH   SFRSYM    DATA     BYTE      OPREG
      00000080H   SFRSYM    DATA     BYTE      P0
LX51 LINKER/LOCATER V4.41                                                             03/02/2021  09:23:58  PAGE 27


      00000090H   SFRSYM    DATA     BYTE      P1
      000000A0H   SFRSYM    DATA     BYTE      P2
      000000A8H.4 SFRSYM    DATA     BIT       EUART
      0000008EH   SFRSYM    DATA     BYTE      TMCON
      000000B0H   SFRSYM    DATA     BYTE      P3
      000000D0H.6 SFRSYM    DATA     BIT       AC
      000000C0H   SFRSYM    DATA     BYTE      P4
      0000008FH   SFRSYM    DATA     BYTE      OTCON
      000000D8H   SFRSYM    DATA     BYTE      P5
      000000A8H.7 SFRSYM    DATA     BIT       EA
      000000C8H.5 SFRSYM    DATA     BIT       RCLKX
      000000C8H.4 SFRSYM    DATA     BIT       TCLKX
      000000C8H.3 SFRSYM    DATA     BIT       EXENX
      000000A8H.6 SFRSYM    DATA     BIT       EADC
      000000C9H   SFRSYM    DATA     BYTE      TXMOD
      000000C8H   SFRSYM    DATA     BYTE      TXCON
      000000A8H   SFRSYM    DATA     BYTE      IE
      00000085H   SFRSYM    DATA     BYTE      DPH1
      000000E9H   SFRSYM    DATA     BYTE      EXA0
      000000EAH   SFRSYM    DATA     BYTE      EXA1
      000000FEH   SFRSYM    DATA     BYTE      OPINX
      000000EBH   SFRSYM    DATA     BYTE      EXA2
      000000ECH   SFRSYM    DATA     BYTE      EXA3
      00000084H   SFRSYM    DATA     BYTE      DPL1
      000000C8H   SFRSYM    DATA     BIT       CP
      000000EFH   SFRSYM    DATA     BYTE      OPERCON
      0000009BH   SFRSYM    DATA     BYTE      P0PH
      000000B8H   SFRSYM    DATA     BYTE      IP
      00000092H   SFRSYM    DATA     BYTE      P1PH
      00000098H   SFRSYM    DATA     BIT       RI
      000000A2H   SFRSYM    DATA     BYTE      P2PH
      000000D0H.7 SFRSYM    DATA     BIT       CY
      000000B2H   SFRSYM    DATA     BYTE      P3PH
      00000098H.1 SFRSYM    DATA     BIT       TI
      000000CEH   SFRSYM    DATA     BYTE      TXINX
      000000C2H   SFRSYM    DATA     BYTE      P4PH
      000000B8H.1 SFRSYM    DATA     BIT       IPT0
      000000DAH   SFRSYM    DATA     BYTE      P5PH
      000000B8H.3 SFRSYM    DATA     BIT       IPT1
      000000B8H.5 SFRSYM    DATA     BIT       IPT2
      00000081H   SFRSYM    DATA     BYTE      SP
      000000D0H.2 SFRSYM    DATA     BIT       OV
      000000F4H   SFRSYM    DATA     BYTE      IAPADE
      0000009CH   SFRSYM    DATA     BYTE      P0VO
      00000094H   SFRSYM    DATA     BYTE      P1VO
      000000EEH   SFRSYM    DATA     BYTE      EXBH
      000000A3H   SFRSYM    DATA     BYTE      P2VO
      000000F3H   SFRSYM    DATA     BYTE      IAPADH
      000000B3H   SFRSYM    DATA     BYTE      P3VO
      000000ADH   SFRSYM    DATA     BYTE      ADCCON
      000000C8H.1 SFRSYM    DATA     BIT       TX
      000000EDH   SFRSYM    DATA     BYTE      EXBL
      000000F2H   SFRSYM    DATA     BYTE      IAPADL
      00000080H   SFRSYM    DATA     BIT       P00
      00000090H   SFRSYM    DATA     BIT       P10
      00000080H.1 SFRSYM    DATA     BIT       P01
      00000099H   SFRSYM    DATA     BYTE      SBUF
      00000087H   SFRSYM    DATA     BYTE      PCON
      000000A0H   SFRSYM    DATA     BIT       P20
      00000090H.1 SFRSYM    DATA     BIT       P11
      00000080H.2 SFRSYM    DATA     BIT       P02
      000000B6H   SFRSYM    DATA     BYTE      CMPCFG
      000000B0H   SFRSYM    DATA     BIT       P30
      000000A0H.1 SFRSYM    DATA     BIT       P21
      00000090H.2 SFRSYM    DATA     BIT       P12
LX51 LINKER/LOCATER V4.41                                                             03/02/2021  09:23:58  PAGE 28


      00000080H.3 SFRSYM    DATA     BIT       P03
      000000C0H   SFRSYM    DATA     BIT       P40
      000000B0H.1 SFRSYM    DATA     BIT       P31
      000000A0H.2 SFRSYM    DATA     BIT       P22
      00000090H.3 SFRSYM    DATA     BIT       P13
      00000080H.4 SFRSYM    DATA     BIT       P04
      00000098H   SFRSYM    DATA     BYTE      SCON
      000000D8H   SFRSYM    DATA     BIT       P50
      000000C0H.1 SFRSYM    DATA     BIT       P41
      000000B0H.2 SFRSYM    DATA     BIT       P32
      000000A0H.3 SFRSYM    DATA     BIT       P23
      00000090H.4 SFRSYM    DATA     BIT       P14
      00000080H.5 SFRSYM    DATA     BIT       P05
      000000F5H   SFRSYM    DATA     BYTE      IAPDAT
      00000088H   SFRSYM    DATA     BYTE      TCON
      00000089H   SFRSYM    DATA     BYTE      TMOD
      000000D8H.1 SFRSYM    DATA     BIT       P51
      000000C0H.2 SFRSYM    DATA     BIT       P42
      000000B0H.3 SFRSYM    DATA     BIT       P33
      000000A0H.4 SFRSYM    DATA     BIT       P24
      00000090H.5 SFRSYM    DATA     BIT       P15
      00000080H.6 SFRSYM    DATA     BIT       P06
      000000B8H   SFRSYM    DATA     BIT       IPINT0
      000000D8H.2 SFRSYM    DATA     BIT       P52
      000000C0H.3 SFRSYM    DATA     BIT       P43
      000000B0H.4 SFRSYM    DATA     BIT       P34
      000000A0H.5 SFRSYM    DATA     BIT       P25
      00000090H.6 SFRSYM    DATA     BIT       P16
      00000080H.7 SFRSYM    DATA     BIT       P07
      000000B8H.2 SFRSYM    DATA     BIT       IPINT1
      000000D8H.3 SFRSYM    DATA     BIT       P53
      000000C0H.4 SFRSYM    DATA     BIT       P44
      000000B0H.5 SFRSYM    DATA     BIT       P35
      000000A0H.6 SFRSYM    DATA     BIT       P26
      00000090H.7 SFRSYM    DATA     BIT       P17
      000000FDH   SFRSYM    DATA     BYTE      CRCREG
      000000D8H.4 SFRSYM    DATA     BIT       P54
      000000C0H.5 SFRSYM    DATA     BIT       P45
      000000B0H.6 SFRSYM    DATA     BIT       P36
      000000A0H.7 SFRSYM    DATA     BIT       P27
      000000D8H.5 SFRSYM    DATA     BIT       P55
      000000C0H.6 SFRSYM    DATA     BIT       P46
      000000B0H.7 SFRSYM    DATA     BIT       P37
      000000C0H.7 SFRSYM    DATA     BIT       P47
      000000C8H.6 SFRSYM    DATA     BIT       EXFX
      00000093H   SFRSYM    DATA     BYTE      DDRCON
      000000F6H   SFRSYM    DATA     BYTE      IAPCTL
      000000A9H   SFRSYM    DATA     BYTE      IE1
      000000AAH   SFRSYM    DATA     BYTE      IE2
      000000F0H   SFRSYM    DATA     BYTE      B
      000000B7H   SFRSYM    DATA     BYTE      CMPCON
      000000F1H   SFRSYM    DATA     BYTE      IAPKEY
      000000FBH   SFRSYM    DATA     BYTE      BTMCON
      000000D4H   SFRSYM    DATA     BYTE      PWMCFG
      000000E0H   SFRSYM    DATA     BYTE      ACC
      000000CBH   SFRSYM    DATA     BYTE      RCAPXH
      000000A8H.1 SFRSYM    DATA     BIT       ET0
      000000FCH   SFRSYM    DATA     BYTE      CRCINX
      00000088H.5 SFRSYM    DATA     BIT       TF0
      000000A8H.3 SFRSYM    DATA     BIT       ET1
      000000ABH   SFRSYM    DATA     BYTE      ADCCFG0
      000000B9H   SFRSYM    DATA     BYTE      IP1
      00000088H.7 SFRSYM    DATA     BIT       TF1
      000000A8H.5 SFRSYM    DATA     BIT       ET2
      000000ACH   SFRSYM    DATA     BYTE      ADCCFG1
LX51 LINKER/LOCATER V4.41                                                             03/02/2021  09:23:58  PAGE 29


      000000BAH   SFRSYM    DATA     BYTE      IP2
      00000098H.2 SFRSYM    DATA     BIT       RB8
      000000B5H   SFRSYM    DATA     BYTE      ADCCFG2
      000000CAH   SFRSYM    DATA     BYTE      RCAPXL
      0000008CH   SFRSYM    DATA     BYTE      TH0
      0000008DH   SFRSYM    DATA     BYTE      TH1
      00000098H.3 SFRSYM    DATA     BIT       TB8
      000000D0H   SFRSYM    DATA     BIT       P
      00000098H.7 SFRSYM    DATA     BIT       SM0
      0000008AH   SFRSYM    DATA     BYTE      TL0
      00000098H.6 SFRSYM    DATA     BIT       SM1
      000000CFH   SFRSYM    DATA     BYTE      WDTCON
      0000008BH   SFRSYM    DATA     BYTE      TL1
      00000098H.5 SFRSYM    DATA     BIT       SM2
      000000D5H   SFRSYM    DATA     BYTE      PWMDFR
      000000D0H.3 SFRSYM    DATA     BIT       RS0
      00000088H.4 SFRSYM    DATA     BIT       TR0
      000000D0H.4 SFRSYM    DATA     BIT       RS1
      000000D3H   SFRSYM    DATA     BYTE      PWMCON
      000000D7H   SFRSYM    DATA     BYTE      PWMMOD
      00000088H.6 SFRSYM    DATA     BIT       TR1
      000000B8H.4 SFRSYM    DATA     BIT       IPUART
      000000D6H   SFRSYM    DATA     BYTE      PWMFLT
      00000083H   SFRSYM    DATA     BYTE      DPH
      00000082H   SFRSYM    DATA     BYTE      DPL
      000000A8H   SFRSYM    DATA     BIT       EINT0
      0000009AH   SFRSYM    DATA     BYTE      P0CON
      000000A8H.2 SFRSYM    DATA     BIT       EINT1
      000000B8H.6 SFRSYM    DATA     BIT       IPADC
      000000B4H   SFRSYM    DATA     BYTE      INT0F
      00000091H   SFRSYM    DATA     BYTE      P1CON
      000000BCH   SFRSYM    DATA     BYTE      INT1F
      000000A1H   SFRSYM    DATA     BYTE      P2CON
      000000BEH   SFRSYM    DATA     BYTE      INT2F
      000000B1H   SFRSYM    DATA     BYTE      P3CON
      00000098H.4 SFRSYM    DATA     BIT       REN
      000000C1H   SFRSYM    DATA     BYTE      P4CON
      000000D9H   SFRSYM    DATA     BYTE      P5CON
      000000AFH   SFRSYM    DATA     BYTE      ADCVH
      00000086H   SFRSYM    DATA     BYTE      DPS
      00000095H   SFRSYM    DATA     BYTE      US0CON0
      000000F7H   SFRSYM    DATA     BYTE      EXADH
      000000A4H   SFRSYM    DATA     BYTE      US1CON0
      0000009DH   SFRSYM    DATA     BYTE      US0CON1
      000000AEH   SFRSYM    DATA     BYTE      ADCVL
      000000C4H   SFRSYM    DATA     BYTE      US2CON0
      000000A5H   SFRSYM    DATA     BYTE      US1CON1
      0000009EH   SFRSYM    DATA     BYTE      US0CON2
      000000C5H   SFRSYM    DATA     BYTE      US2CON1
      000000A6H   SFRSYM    DATA     BYTE      US1CON2
      0000009FH   SFRSYM    DATA     BYTE      US0CON3
      000000C6H   SFRSYM    DATA     BYTE      US2CON2
      000000A7H   SFRSYM    DATA     BYTE      US1CON3
      000000BBH   SFRSYM    DATA     BYTE      INT0R
      000000C7H   SFRSYM    DATA     BYTE      US2CON3
      000000BDH   SFRSYM    DATA     BYTE      INT1R
      000000BFH   SFRSYM    DATA     BYTE      INT2R
      000000C8H.7 SFRSYM    DATA     BIT       TFX
      00000096H   SFRSYM    DATA     BYTE      IOHCON0
      00000097H   SFRSYM    DATA     BYTE      IOHCON1
      000000CDH   SFRSYM    DATA     BYTE      THX
      000000D0H.5 SFRSYM    DATA     BIT       F0
      000000D0H.1 SFRSYM    DATA     BIT       F1
      000000CCH   SFRSYM    DATA     BYTE      TLX
      000000D0H   SFRSYM    DATA     BYTE      PSW
LX51 LINKER/LOCATER V4.41                                                             03/02/2021  09:23:58  PAGE 30



      01000100H   BLOCK     CODE     ---       LVL=0
      00000007H   SYMBOL    DATA     BYTE      GPIOx
      00000005H   SYMBOL    DATA     BYTE      PortPins
      00000003H   SYMBOL    DATA     BYTE      GPIO_Mode
      01000100H   LINE      CODE     ---       #58
      01000100H   LINE      CODE     ---       #59
      01000100H   LINE      CODE     ---       #60
      01000103H   LINE      CODE     ---       #61
      01000103H   LINE      CODE     ---       #62
      01000106H   LINE      CODE     ---       #63
      01000106H   LINE      CODE     ---       #64
      0100010AH   LINE      CODE     ---       #65
      0100010CH   LINE      CODE     ---       #66
      0100010CH   LINE      CODE     ---       #67
      0100010FH   LINE      CODE     ---       #68
      0100010FH   LINE      CODE     ---       #69
      01000113H   LINE      CODE     ---       #70
      01000116H   LINE      CODE     ---       #71
      01000116H   LINE      CODE     ---       #72
      0100011EH   LINE      CODE     ---       #73
      0100011EH   LINE      CODE     ---       #74
      01000121H   LINE      CODE     ---       #75
      01000121H   LINE      CODE     ---       #76
      01000122H   LINE      CODE     ---       #77
      01000127H   LINE      CODE     ---       #78
      01000127H   LINE      CODE     ---       #79
      0100012AH   LINE      CODE     ---       #80
      0100012AH   LINE      CODE     ---       #81
      0100012EH   LINE      CODE     ---       #82
      01000130H   LINE      CODE     ---       #83
      01000130H   LINE      CODE     ---       #84
      01000133H   LINE      CODE     ---       #85
      01000133H   LINE      CODE     ---       #86
      01000137H   LINE      CODE     ---       #87
      0100013AH   LINE      CODE     ---       #88
      0100013AH   LINE      CODE     ---       #89
      01000142H   LINE      CODE     ---       #90
      01000142H   LINE      CODE     ---       #91
      01000145H   LINE      CODE     ---       #92
      01000145H   LINE      CODE     ---       #93
      01000146H   LINE      CODE     ---       #94
      0100014BH   LINE      CODE     ---       #95
      0100014BH   LINE      CODE     ---       #96
      0100014EH   LINE      CODE     ---       #97
      0100014EH   LINE      CODE     ---       #98
      01000152H   LINE      CODE     ---       #99
      01000154H   LINE      CODE     ---       #100
      01000154H   LINE      CODE     ---       #101
      01000157H   LINE      CODE     ---       #102
      01000157H   LINE      CODE     ---       #103
      0100015BH   LINE      CODE     ---       #104
      0100015EH   LINE      CODE     ---       #105
      0100015EH   LINE      CODE     ---       #106
      01000163H   LINE      CODE     ---       #107
      01000163H   LINE      CODE     ---       #108
      01000166H   LINE      CODE     ---       #109
      01000166H   LINE      CODE     ---       #110
      01000167H   LINE      CODE     ---       #112
      0100016CH   LINE      CODE     ---       #113
      0100016CH   LINE      CODE     ---       #114
      0100016FH   LINE      CODE     ---       #115
      0100016FH   LINE      CODE     ---       #116
      01000173H   LINE      CODE     ---       #117
      01000175H   LINE      CODE     ---       #118
LX51 LINKER/LOCATER V4.41                                                             03/02/2021  09:23:58  PAGE 31


      01000175H   LINE      CODE     ---       #119
      01000178H   LINE      CODE     ---       #120
      01000178H   LINE      CODE     ---       #121
      0100017CH   LINE      CODE     ---       #122
      0100017FH   LINE      CODE     ---       #123
      0100017FH   LINE      CODE     ---       #124
      01000184H   LINE      CODE     ---       #125
      01000184H   LINE      CODE     ---       #126
      01000187H   LINE      CODE     ---       #127
      01000187H   LINE      CODE     ---       #128
      01000188H   LINE      CODE     ---       #129
      0100018DH   LINE      CODE     ---       #130
      0100018DH   LINE      CODE     ---       #131
      01000190H   LINE      CODE     ---       #132
      01000190H   LINE      CODE     ---       #133
      01000194H   LINE      CODE     ---       #134
      01000196H   LINE      CODE     ---       #135
      01000196H   LINE      CODE     ---       #136
      01000199H   LINE      CODE     ---       #137
      01000199H   LINE      CODE     ---       #138
      0100019DH   LINE      CODE     ---       #139
      010001A0H   LINE      CODE     ---       #140
      010001A0H   LINE      CODE     ---       #141
      010001A5H   LINE      CODE     ---       #142
      010001A5H   LINE      CODE     ---       #143
      010001A8H   LINE      CODE     ---       #144
      010001A8H   LINE      CODE     ---       #145
      010001A9H   LINE      CODE     ---       #148
      010001A9H   LINE      CODE     ---       #149
      010001AEH   LINE      CODE     ---       #150
      010001AEH   LINE      CODE     ---       #151
      010001B1H   LINE      CODE     ---       #152
      010001B1H   LINE      CODE     ---       #153
      010001B5H   LINE      CODE     ---       #154
      010001B7H   LINE      CODE     ---       #155
      010001B7H   LINE      CODE     ---       #156
      010001BAH   LINE      CODE     ---       #157
      010001BAH   LINE      CODE     ---       #158
      010001BEH   LINE      CODE     ---       #159
      010001C1H   LINE      CODE     ---       #160
      010001C1H   LINE      CODE     ---       #161
      010001C4H   LINE      CODE     ---       #162
      010001C4H   LINE      CODE     ---       #163
      010001C7H   LINE      CODE     ---       #164
      010001C7H   LINE      CODE     ---       #165
      010001C7H   LINE      CODE     ---       #166
      010001C7H   LINE      CODE     ---       #167
      ---         BLOCKEND  ---      ---       LVL=0
      00000007H   SYMBOL    DATA     BYTE      GPIOx
      00000005H   SYMBOL    DATA     BYTE      PortVal

      01000351H   BLOCK     CODE     ---       LVL=0
      00000007H   SYMBOL    DATA     BYTE      GPIOx
      00000005H   SYMBOL    DATA     BYTE      PortPins
      01000351H   LINE      CODE     ---       #213
      01000351H   LINE      CODE     ---       #214
      01000351H   LINE      CODE     ---       #215
      01000354H   LINE      CODE     ---       #216
      01000354H   LINE      CODE     ---       #217
      01000357H   LINE      CODE     ---       #218
      01000357H   LINE      CODE     ---       #219
      0100035AH   LINE      CODE     ---       #220
      0100035AH   LINE      CODE     ---       #221
      0100035DH   LINE      CODE     ---       #222
      0100035DH   LINE      CODE     ---       #223
LX51 LINKER/LOCATER V4.41                                                             03/02/2021  09:23:58  PAGE 32


      01000360H   LINE      CODE     ---       #224
      01000360H   LINE      CODE     ---       #225
      01000363H   LINE      CODE     ---       #226
      01000363H   LINE      CODE     ---       #228
      01000366H   LINE      CODE     ---       #229
      01000366H   LINE      CODE     ---       #230
      01000369H   LINE      CODE     ---       #231
      01000369H   LINE      CODE     ---       #232
      0100036CH   LINE      CODE     ---       #233
      0100036CH   LINE      CODE     ---       #234
      0100036FH   LINE      CODE     ---       #235
      0100036FH   LINE      CODE     ---       #237
      01000372H   LINE      CODE     ---       #238
      01000372H   LINE      CODE     ---       #239
      01000375H   LINE      CODE     ---       #240
      01000375H   LINE      CODE     ---       #241
      ---         BLOCKEND  ---      ---       LVL=0

      010002FDH   BLOCK     CODE     ---       LVL=0
      00000007H   SYMBOL    DATA     BYTE      GPIOx
      00000005H   SYMBOL    DATA     BYTE      PortPins
      010002FDH   LINE      CODE     ---       #250
      010002FDH   LINE      CODE     ---       #251
      010002FDH   LINE      CODE     ---       #252
      01000300H   LINE      CODE     ---       #253
      01000300H   LINE      CODE     ---       #254
      01000304H   LINE      CODE     ---       #255
      01000304H   LINE      CODE     ---       #256
      01000307H   LINE      CODE     ---       #257
      01000307H   LINE      CODE     ---       #258
      0100030BH   LINE      CODE     ---       #259
      0100030BH   LINE      CODE     ---       #260
      0100030EH   LINE      CODE     ---       #261
      0100030EH   LINE      CODE     ---       #262
      01000312H   LINE      CODE     ---       #263
      01000312H   LINE      CODE     ---       #265
      01000315H   LINE      CODE     ---       #266
      01000315H   LINE      CODE     ---       #267
      01000319H   LINE      CODE     ---       #268
      01000319H   LINE      CODE     ---       #269
      0100031CH   LINE      CODE     ---       #270
      0100031CH   LINE      CODE     ---       #271
      01000320H   LINE      CODE     ---       #272
      01000320H   LINE      CODE     ---       #274
      01000323H   LINE      CODE     ---       #275
      01000323H   LINE      CODE     ---       #276
      01000327H   LINE      CODE     ---       #277
      01000327H   LINE      CODE     ---       #278
      ---         BLOCKEND  ---      ---       LVL=0
      00000007H   SYMBOL    DATA     BYTE      GPIOx

      010002CAH   BLOCK     CODE     ---       LVL=0
      00000007H   SYMBOL    DATA     BYTE      GPIOx
      00000005H   SYMBOL    DATA     BYTE      PortPins
      010002CAH   LINE      CODE     ---       #323
      010002CAH   LINE      CODE     ---       #324
      010002CAH   LINE      CODE     ---       #325
      010002CDH   LINE      CODE     ---       #326
      010002CDH   LINE      CODE     ---       #327
      010002D2H   LINE      CODE     ---       #328
      010002D2H   LINE      CODE     ---       #329
      010002D5H   LINE      CODE     ---       #330
      010002D5H   LINE      CODE     ---       #331
      010002DAH   LINE      CODE     ---       #332
      010002DAH   LINE      CODE     ---       #333
LX51 LINKER/LOCATER V4.41                                                             03/02/2021  09:23:58  PAGE 33


      010002DDH   LINE      CODE     ---       #334
      010002DDH   LINE      CODE     ---       #335
      010002E2H   LINE      CODE     ---       #336
      010002E2H   LINE      CODE     ---       #338
      010002E5H   LINE      CODE     ---       #339
      010002E5H   LINE      CODE     ---       #340
      010002EAH   LINE      CODE     ---       #341
      010002EAH   LINE      CODE     ---       #342
      010002EDH   LINE      CODE     ---       #343
      010002EDH   LINE      CODE     ---       #344
      010002F2H   LINE      CODE     ---       #345
      010002F2H   LINE      CODE     ---       #347
      010002F5H   LINE      CODE     ---       #348
      010002F5H   LINE      CODE     ---       #349
      010002FAH   LINE      CODE     ---       #350
      010002FAH   LINE      CODE     ---       #351
      010002FCH   LINE      CODE     ---       #352
      ---         BLOCKEND  ---      ---       LVL=0

      ---         MODULE    ---      ---       SC95F_OPTION
      000000C8H.2 SFRSYM    DATA     BIT       TRX
      000000FFH   SFRSYM    DATA     BYTE      OPREG
      00000080H   SFRSYM    DATA     BYTE      P0
      00000090H   SFRSYM    DATA     BYTE      P1
      000000A0H   SFRSYM    DATA     BYTE      P2
      000000A8H.4 SFRSYM    DATA     BIT       EUART
      0000008EH   SFRSYM    DATA     BYTE      TMCON
      000000B0H   SFRSYM    DATA     BYTE      P3
      000000D0H.6 SFRSYM    DATA     BIT       AC
      000000C0H   SFRSYM    DATA     BYTE      P4
      0000008FH   SFRSYM    DATA     BYTE      OTCON
      000000D8H   SFRSYM    DATA     BYTE      P5
      000000A8H.7 SFRSYM    DATA     BIT       EA
      000000C8H.5 SFRSYM    DATA     BIT       RCLKX
      000000C8H.4 SFRSYM    DATA     BIT       TCLKX
      000000C8H.3 SFRSYM    DATA     BIT       EXENX
      000000A8H.6 SFRSYM    DATA     BIT       EADC
      000000C9H   SFRSYM    DATA     BYTE      TXMOD
      000000C8H   SFRSYM    DATA     BYTE      TXCON
      000000A8H   SFRSYM    DATA     BYTE      IE
      00000085H   SFRSYM    DATA     BYTE      DPH1
      000000E9H   SFRSYM    DATA     BYTE      EXA0
      000000EAH   SFRSYM    DATA     BYTE      EXA1
      000000FEH   SFRSYM    DATA     BYTE      OPINX
      000000EBH   SFRSYM    DATA     BYTE      EXA2
      000000ECH   SFRSYM    DATA     BYTE      EXA3
      00000084H   SFRSYM    DATA     BYTE      DPL1
      000000C8H   SFRSYM    DATA     BIT       CP
      000000EFH   SFRSYM    DATA     BYTE      OPERCON
      0000009BH   SFRSYM    DATA     BYTE      P0PH
      000000B8H   SFRSYM    DATA     BYTE      IP
      00000092H   SFRSYM    DATA     BYTE      P1PH
      00000098H   SFRSYM    DATA     BIT       RI
      000000A2H   SFRSYM    DATA     BYTE      P2PH
      000000D0H.7 SFRSYM    DATA     BIT       CY
      000000B2H   SFRSYM    DATA     BYTE      P3PH
      00000098H.1 SFRSYM    DATA     BIT       TI
      000000CEH   SFRSYM    DATA     BYTE      TXINX
      000000C2H   SFRSYM    DATA     BYTE      P4PH
      000000B8H.1 SFRSYM    DATA     BIT       IPT0
      000000DAH   SFRSYM    DATA     BYTE      P5PH
      000000B8H.3 SFRSYM    DATA     BIT       IPT1
      000000B8H.5 SFRSYM    DATA     BIT       IPT2
      00000081H   SFRSYM    DATA     BYTE      SP
      000000D0H.2 SFRSYM    DATA     BIT       OV
LX51 LINKER/LOCATER V4.41                                                             03/02/2021  09:23:58  PAGE 34


      000000F4H   SFRSYM    DATA     BYTE      IAPADE
      0000009CH   SFRSYM    DATA     BYTE      P0VO
      00000094H   SFRSYM    DATA     BYTE      P1VO
      000000EEH   SFRSYM    DATA     BYTE      EXBH
      000000A3H   SFRSYM    DATA     BYTE      P2VO
      000000F3H   SFRSYM    DATA     BYTE      IAPADH
      000000B3H   SFRSYM    DATA     BYTE      P3VO
      000000ADH   SFRSYM    DATA     BYTE      ADCCON
      000000C8H.1 SFRSYM    DATA     BIT       TX
      000000EDH   SFRSYM    DATA     BYTE      EXBL
      000000F2H   SFRSYM    DATA     BYTE      IAPADL
      00000080H   SFRSYM    DATA     BIT       P00
      00000090H   SFRSYM    DATA     BIT       P10
      00000080H.1 SFRSYM    DATA     BIT       P01
      00000099H   SFRSYM    DATA     BYTE      SBUF
      00000087H   SFRSYM    DATA     BYTE      PCON
      000000A0H   SFRSYM    DATA     BIT       P20
      00000090H.1 SFRSYM    DATA     BIT       P11
      00000080H.2 SFRSYM    DATA     BIT       P02
      000000B6H   SFRSYM    DATA     BYTE      CMPCFG
      000000B0H   SFRSYM    DATA     BIT       P30
      000000A0H.1 SFRSYM    DATA     BIT       P21
      00000090H.2 SFRSYM    DATA     BIT       P12
      00000080H.3 SFRSYM    DATA     BIT       P03
      000000C0H   SFRSYM    DATA     BIT       P40
      000000B0H.1 SFRSYM    DATA     BIT       P31
      000000A0H.2 SFRSYM    DATA     BIT       P22
      00000090H.3 SFRSYM    DATA     BIT       P13
      00000080H.4 SFRSYM    DATA     BIT       P04
      00000098H   SFRSYM    DATA     BYTE      SCON
      000000D8H   SFRSYM    DATA     BIT       P50
      000000C0H.1 SFRSYM    DATA     BIT       P41
      000000B0H.2 SFRSYM    DATA     BIT       P32
      000000A0H.3 SFRSYM    DATA     BIT       P23
      00000090H.4 SFRSYM    DATA     BIT       P14
      00000080H.5 SFRSYM    DATA     BIT       P05
      000000F5H   SFRSYM    DATA     BYTE      IAPDAT
      00000088H   SFRSYM    DATA     BYTE      TCON
      00000089H   SFRSYM    DATA     BYTE      TMOD
      000000D8H.1 SFRSYM    DATA     BIT       P51
      000000C0H.2 SFRSYM    DATA     BIT       P42
      000000B0H.3 SFRSYM    DATA     BIT       P33
      000000A0H.4 SFRSYM    DATA     BIT       P24
      00000090H.5 SFRSYM    DATA     BIT       P15
      00000080H.6 SFRSYM    DATA     BIT       P06
      000000B8H   SFRSYM    DATA     BIT       IPINT0
      000000D8H.2 SFRSYM    DATA     BIT       P52
      000000C0H.3 SFRSYM    DATA     BIT       P43
      000000B0H.4 SFRSYM    DATA     BIT       P34
      000000A0H.5 SFRSYM    DATA     BIT       P25
      00000090H.6 SFRSYM    DATA     BIT       P16
      00000080H.7 SFRSYM    DATA     BIT       P07
      000000B8H.2 SFRSYM    DATA     BIT       IPINT1
      000000D8H.3 SFRSYM    DATA     BIT       P53
      000000C0H.4 SFRSYM    DATA     BIT       P44
      000000B0H.5 SFRSYM    DATA     BIT       P35
      000000A0H.6 SFRSYM    DATA     BIT       P26
      00000090H.7 SFRSYM    DATA     BIT       P17
      000000FDH   SFRSYM    DATA     BYTE      CRCREG
      000000D8H.4 SFRSYM    DATA     BIT       P54
      000000C0H.5 SFRSYM    DATA     BIT       P45
      000000B0H.6 SFRSYM    DATA     BIT       P36
      000000A0H.7 SFRSYM    DATA     BIT       P27
      000000D8H.5 SFRSYM    DATA     BIT       P55
      000000C0H.6 SFRSYM    DATA     BIT       P46
LX51 LINKER/LOCATER V4.41                                                             03/02/2021  09:23:58  PAGE 35


      000000B0H.7 SFRSYM    DATA     BIT       P37
      000000C0H.7 SFRSYM    DATA     BIT       P47
      000000C8H.6 SFRSYM    DATA     BIT       EXFX
      00000093H   SFRSYM    DATA     BYTE      DDRCON
      000000F6H   SFRSYM    DATA     BYTE      IAPCTL
      000000A9H   SFRSYM    DATA     BYTE      IE1
      000000AAH   SFRSYM    DATA     BYTE      IE2
      000000F0H   SFRSYM    DATA     BYTE      B
      000000B7H   SFRSYM    DATA     BYTE      CMPCON
      000000F1H   SFRSYM    DATA     BYTE      IAPKEY
      000000FBH   SFRSYM    DATA     BYTE      BTMCON
      000000D4H   SFRSYM    DATA     BYTE      PWMCFG
      000000E0H   SFRSYM    DATA     BYTE      ACC
      000000CBH   SFRSYM    DATA     BYTE      RCAPXH
      000000A8H.1 SFRSYM    DATA     BIT       ET0
      000000FCH   SFRSYM    DATA     BYTE      CRCINX
      00000088H.5 SFRSYM    DATA     BIT       TF0
      000000A8H.3 SFRSYM    DATA     BIT       ET1
      000000ABH   SFRSYM    DATA     BYTE      ADCCFG0
      000000B9H   SFRSYM    DATA     BYTE      IP1
      00000088H.7 SFRSYM    DATA     BIT       TF1
      000000A8H.5 SFRSYM    DATA     BIT       ET2
      000000ACH   SFRSYM    DATA     BYTE      ADCCFG1
      000000BAH   SFRSYM    DATA     BYTE      IP2
      00000098H.2 SFRSYM    DATA     BIT       RB8
      000000B5H   SFRSYM    DATA     BYTE      ADCCFG2
      000000CAH   SFRSYM    DATA     BYTE      RCAPXL
      0000008CH   SFRSYM    DATA     BYTE      TH0
      0000008DH   SFRSYM    DATA     BYTE      TH1
      00000098H.3 SFRSYM    DATA     BIT       TB8
      000000D0H   SFRSYM    DATA     BIT       P
      00000098H.7 SFRSYM    DATA     BIT       SM0
      0000008AH   SFRSYM    DATA     BYTE      TL0
      00000098H.6 SFRSYM    DATA     BIT       SM1
      000000CFH   SFRSYM    DATA     BYTE      WDTCON
      0000008BH   SFRSYM    DATA     BYTE      TL1
      00000098H.5 SFRSYM    DATA     BIT       SM2
      000000D5H   SFRSYM    DATA     BYTE      PWMDFR
      000000D0H.3 SFRSYM    DATA     BIT       RS0
      00000088H.4 SFRSYM    DATA     BIT       TR0
      000000D0H.4 SFRSYM    DATA     BIT       RS1
      000000D3H   SFRSYM    DATA     BYTE      PWMCON
      000000D7H   SFRSYM    DATA     BYTE      PWMMOD
      00000088H.6 SFRSYM    DATA     BIT       TR1
      000000B8H.4 SFRSYM    DATA     BIT       IPUART
      000000D6H   SFRSYM    DATA     BYTE      PWMFLT
      00000083H   SFRSYM    DATA     BYTE      DPH
      00000082H   SFRSYM    DATA     BYTE      DPL
      000000A8H   SFRSYM    DATA     BIT       EINT0
      0000009AH   SFRSYM    DATA     BYTE      P0CON
      000000A8H.2 SFRSYM    DATA     BIT       EINT1
      000000B8H.6 SFRSYM    DATA     BIT       IPADC
      000000B4H   SFRSYM    DATA     BYTE      INT0F
      00000091H   SFRSYM    DATA     BYTE      P1CON
      000000BCH   SFRSYM    DATA     BYTE      INT1F
      000000A1H   SFRSYM    DATA     BYTE      P2CON
      000000BEH   SFRSYM    DATA     BYTE      INT2F
      000000B1H   SFRSYM    DATA     BYTE      P3CON
      00000098H.4 SFRSYM    DATA     BIT       REN
      000000C1H   SFRSYM    DATA     BYTE      P4CON
      000000D9H   SFRSYM    DATA     BYTE      P5CON
      000000AFH   SFRSYM    DATA     BYTE      ADCVH
      00000086H   SFRSYM    DATA     BYTE      DPS
      00000095H   SFRSYM    DATA     BYTE      US0CON0
      000000F7H   SFRSYM    DATA     BYTE      EXADH
LX51 LINKER/LOCATER V4.41                                                             03/02/2021  09:23:58  PAGE 36


      000000A4H   SFRSYM    DATA     BYTE      US1CON0
      0000009DH   SFRSYM    DATA     BYTE      US0CON1
      000000AEH   SFRSYM    DATA     BYTE      ADCVL
      000000C4H   SFRSYM    DATA     BYTE      US2CON0
      000000A5H   SFRSYM    DATA     BYTE      US1CON1
      0000009EH   SFRSYM    DATA     BYTE      US0CON2
      000000C5H   SFRSYM    DATA     BYTE      US2CON1
      000000A6H   SFRSYM    DATA     BYTE      US1CON2
      0000009FH   SFRSYM    DATA     BYTE      US0CON3
      000000C6H   SFRSYM    DATA     BYTE      US2CON2
      000000A7H   SFRSYM    DATA     BYTE      US1CON3
      000000BBH   SFRSYM    DATA     BYTE      INT0R
      000000C7H   SFRSYM    DATA     BYTE      US2CON3
      000000BDH   SFRSYM    DATA     BYTE      INT1R
      000000BFH   SFRSYM    DATA     BYTE      INT2R
      000000C8H.7 SFRSYM    DATA     BIT       TFX
      00000096H   SFRSYM    DATA     BYTE      IOHCON0
      00000097H   SFRSYM    DATA     BYTE      IOHCON1
      000000CDH   SFRSYM    DATA     BYTE      THX
      000000D0H.5 SFRSYM    DATA     BIT       F0
      000000D0H.1 SFRSYM    DATA     BIT       F1
      000000CCH   SFRSYM    DATA     BYTE      TLX
      000000D0H   SFRSYM    DATA     BYTE      PSW
      00000007H   SYMBOL    DATA     BYTE      NewState
      00000007H   SYMBOL    DATA     BYTE      NewState
      00000007H   SYMBOL    DATA     BYTE      SYSCLK_PresSel
      00000007H   SYMBOL    DATA     BYTE      NewState
      00000007H   SYMBOL    DATA     BYTE      LVR_Config
      00000007H   SYMBOL    DATA     BYTE      ADC_Vref
      00000007H   SYMBOL    DATA     BYTE      IAP_OperateRange
      00000007H   SYMBOL    DATA     BYTE      NewState

      ---         MODULE    ---      ---       ?C_STARTUP
      01000000H   PUBLIC    CODE     ---       ?C_STARTUP
      000000E0H   SYMBOL    DATA     ---       ACC
      000000F0H   SYMBOL    DATA     ---       B
      00000083H   SYMBOL    DATA     ---       DPH
      00000082H   SYMBOL    DATA     ---       DPL
      00000000H   SYMBOL    NUMBER   ---       IBPSTACK
      00000100H   SYMBOL    NUMBER   ---       IBPSTACKTOP
      00000100H   SYMBOL    NUMBER   ---       IDATALEN
      010001CBH   SYMBOL    CODE     ---       IDATALOOP
      00000000H   SYMBOL    NUMBER   ---       PBPSTACK
      00000100H   SYMBOL    NUMBER   ---       PBPSTACKTOP
      00000000H   SYMBOL    NUMBER   ---       PDATALEN
      00000000H   SYMBOL    NUMBER   ---       PDATASTART
      00000000H   SYMBOL    NUMBER   ---       PPAGE
      00000000H   SYMBOL    NUMBER   ---       PPAGEENABLE
      000000A0H   SYMBOL    DATA     ---       PPAGE_SFR
      00000081H   SYMBOL    DATA     ---       SP
      010001C8H   SYMBOL    CODE     ---       STARTUP1
      00000000H   SYMBOL    NUMBER   ---       XBPSTACK
      00000000H   SYMBOL    NUMBER   ---       XBPSTACKTOP
      00000100H   SYMBOL    NUMBER   ---       XDATALEN
      010001D6H   SYMBOL    CODE     ---       XDATALOOP
      00000000H   SYMBOL    NUMBER   ---       XDATASTART
      01000000H   LINE      CODE     ---       #126
      010001C8H   LINE      CODE     ---       #133
      010001CAH   LINE      CODE     ---       #134
      010001CBH   LINE      CODE     ---       #135
      010001CCH   LINE      CODE     ---       #136
      010001CEH   LINE      CODE     ---       #140
      010001D1H   LINE      CODE     ---       #141
      010001D3H   LINE      CODE     ---       #145
      010001D5H   LINE      CODE     ---       #147
LX51 LINKER/LOCATER V4.41                                                             03/02/2021  09:23:58  PAGE 37


      010001D6H   LINE      CODE     ---       #148
      010001D7H   LINE      CODE     ---       #149
      010001D8H   LINE      CODE     ---       #150
      010001DAH   LINE      CODE     ---       #151
      010001DCH   LINE      CODE     ---       #185
      010001DFH   LINE      CODE     ---       #196

      ---         MODULE    ---      ---       ?C_INIT
      0100021DH   PUBLIC    CODE     ---       ?C_START

Program Size: data=11.0 xdata=0 const=0 code=875
LX51 RUN COMPLETE.  0 WARNING(S),  0 ERROR(S)
