C51 COMPILER V9.00   SC95F761X_IT                                                          11/12/2019 16:25:05 PAGE 1   


C51 COMPILER V9.00, COMPILATION OF MODULE SC95F761X_IT
OBJECT MODULE PLACED IN ..\OUTPUT\sc95f761x_it.obj
COMPILER INVOKED BY: C:\Keil\C51\BIN\C51.EXE ..\USER\C\sc95f761x_it.c BROWSE INCDIR(..\..\..\SC95F761x_lib\inc;..\USER\H
                    -) DEBUG OBJECTEXTEND PRINT(..\LST\sc95f761x_it.lst) OBJECT(..\OUTPUT\sc95f761x_it.obj)

line level    source

   1          //************************************************************
   2          //  Copyright (c) 深圳市赛元微电子有限公司
   3          //      文件名称        : SC95F761x_it.c
   4          //      作者            : 
   5          //      模块功能        : SC95F761x_IT固件库函数C文件
   6          //      局部函数列表:
   7          //  最后更正日期: 2018/10/12
   8          //      版本            : V1.0   
   9          //************************************************************
  10          
  11          #include "SC95F761x_gpio.h"
  12          #include "SC95F761x_timer0.h"
  13          #include "SC95F761x_timer1.h"
  14          #include "SC95F761x_timerx.h"
  15          #include "SC95F761x_adc.h"
  16          #include "SC95F761x_btm.h"
  17          #include "SC95F761x_pwm.h"
  18          #include "SC95F761x_exti.h"
  19          #include "SC95F761x_uart0.h"
  20          #include "SC95F761x_usci0.h"
  21          #include "SC95F761x_usci1.h"
  22          #include "SC95F761x_usci2.h"
  23          #include "SC95F761x_acmp.h"
  24          
  25          uint16_t T0CNT = 0;
  26          
  27          void EXTI0Interrupt()           interrupt 0
  28          {
  29   1      
  30   1      }
  31          
  32          void Timer0Interrupt()          interrupt 1
  33          {
  34   1              if(++T0CNT == 300)
  35   1              {
  36   2                      T0CNT = 0;
  37   2                      TIM0_Mode0SetReloadCounter(4192);
  38   2                      if(GPIO_ReadPin(GPIO0, GPIO_PIN_6))
  39   2                      {
  40   3                              GPIO_WriteLow(GPIO0,GPIO_PIN_6);        
  41   3                      }
  42   2                      else
  43   2                      {
  44   3                              GPIO_WriteHigh(GPIO0,GPIO_PIN_6);
  45   3                      }
  46   2              }
  47   1      }
  48          
  49          void EXTI1Interrupt()           interrupt 2
  50          {
  51   1      }
  52          
  53          void Timer1Interrupt()          interrupt 3
  54          {
C51 COMPILER V9.00   SC95F761X_IT                                                          11/12/2019 16:25:05 PAGE 2   

  55   1      
  56   1      }
  57          
  58          void UART0Interrupt()           interrupt 4
  59          {
  60   1      
  61   1      }
  62          
  63          void Timer2Interrupt()          interrupt 5
  64          {
  65   1      
  66   1      }
  67          
  68          void ADCInterrupt()                     interrupt 6
  69          {
  70   1      
  71   1      }
  72          
  73          void USCI0Interrupt()                   interrupt 7
  74          {
  75   1              
  76   1      }
  77          
  78          void PWMInterrupt()                     interrupt 8
  79          {
  80   1      
  81   1      }
  82          
  83          void BTMInterrupt()                     interrupt 9
  84          {
  85   1      
  86   1      }
  87          
  88          void EXTI2Interrupt()           interrupt 10
  89          {
  90   1      
  91   1      }
  92          
  93          void CMPInterrupt()             interrupt 12
  94          {
  95   1      
  96   1      }
  97          
  98          void Timer3Interrupt()          interrupt 13
  99          {
 100   1      
 101   1      }
 102          
 103          void Timer4Interrupt()          interrupt 14
 104          {
 105   1      
 106   1      }
 107          
 108          void USCI1Interrupt()                   interrupt 15
 109          {
 110   1              
 111   1      }
 112          
 113          void USCI2Interrupt()                   interrupt 16
 114          {
 115   1              
 116   1      }
C51 COMPILER V9.00   SC95F761X_IT                                                          11/12/2019 16:25:05 PAGE 3   



MODULE INFORMATION:   STATIC OVERLAYABLE
   CODE SIZE        =    124    ----
   CONSTANT SIZE    =   ----    ----
   XDATA SIZE       =   ----    ----
   PDATA SIZE       =   ----    ----
   DATA SIZE        =      2    ----
   IDATA SIZE       =   ----    ----
   BIT SIZE         =   ----    ----
END OF MODULE INFORMATION.


C51 COMPILATION COMPLETE.  0 WARNING(S),  0 ERROR(S)
