:06000000020AB60210AE78
:03000B000210C31D
:030013000210B226
:03001B000210C40C
:030023000210C503
:03002B000210C6FA
:030033000210C7F1
:03003B000210C8E8
:030043000210C9DF
:03004B000210CAD6
:030053000210CBCD
:03005B00020E454D
:030063000210CCBC
:03006B000210CDB3
:030073000210CEAA
:03007B000210CFA1
:030083000210D098
:10010000900018EFF0E4900020F0900018E09000CC
:100110000112050B120642900019F0A3EFF0E47FE4
:1001200001FEFDFC900018E0F9F8120A978F198E75
:10013000188D178C16AF01120F5390001EEEF0A30E
:10014000EFF012055E40051206648005E490001B86
:10015000F090001BE0640160030202A2900018E02E
:10016000FF2407120573E0C394FA5006120570E0ED
:1001700004F0120615FCE4FBFAF9F8C3120A7360E6
:100180000302028F900000E090001DF01210B6EF05
:100190006030E490001BF0A3F01205AB5014120580
:1001A00070E0C39401400690001BE004F0120629A1
:1001B00080E790001BE0C39403400790001DE024FB
:1001C0000FF0900018E02407120573120685500303
:1001D00002028FE490001BF012109EEF705A900004
:1001E0001CF01205AB5022900018E06F6016121040
:1001F0007A90001CE02407120573E0C39F400512AB
:100200000664800512062980D91210B6EF705C9042
:10021000001BE07056A3F01205AB504F900018E0A1
:100220006F601012107A90001C1205C5E0C39F4049
:1002300002803512062980DF1210B6EF702D900073
:100240001DF090001CF01205AB5014120570E0C3B5
:100250009402400690001DE004F012062980E79009
:10026000001DE0C39403400312066490001BE0B439
:100270000102D200E5154519FFE5144518FEE51306
:100280004517FDE51245168F158E148D13F5129046
:100290000018E0FF240B120521E4F0A31205B802B8
:1002A00004B0900018E0FF120FFF900019E0FCA3CB
:1002B000E0FDD312055240081205C2E004F0800BA5
:1002C00090002BE004F01205C2E4F012064CC3E4E7
:1002D0009FFBE49EFAC3ED9BEA1205544066D312DD
:1002E000055F50601205F3F583E41205B812058925
:1002F0006003020404900019E0FEA3E0FF900018E0
:10030000E09000091205A5EE8FF0120A5012106F4E
:10031000120540400912057BE475F00180191210A6
:100320006FC3E49FFFE49EFE1205404003020404F5
:1003300012057B74FFF5F0120A50120536E4F0A3A3
:10034000F002040412064CC3E49FFFE412055C5063
:100350006F1205F31205B4F583E4F0740B2FF582E8
:10036000E43400F583E0FF75F00A84E5F07040EFB7
:10037000C39464900018E040101205F8F583E4F08F
:10038000D20190001604F08026120580C083C0823E
:10039000E0FEA3E0FF900012E0A2E713FD3395E03A
:1003A000FCC3EF9DFFEE9CD082D083F0A3EFF090D2
:1003B0000018E0FF900024E06F704974FFF0804463
:1003C00012064CD312055F403B900018E01205F86E
:1003D000120589702F12066B1205B4F583E0B42064
:1003E0002312066BF583E4F0900012E0A2E713A25B
:1003F000E713FD3395E0FC75F002EF120583EC8DF9
:10040000F0120A501206154D4E4F70030204BC90B4
:10041000001EE0FCA3E0FDAE047802CEA2E713CEFE
:1004200013D8F8FFC3ED9FFFEC12055C40030204F4
:10043000B51205D0E004F01210A690001DEFF0E414
:1004400090001CF01205AB5014120570E0C394012B
:10045000400690001BE004F012062980E790001B84
:10046000E0C394034008900000E090001DF090006D
:1004700018E0FB1205D41206855003020506741518
:100480002B1205D6E4F0AF19AE18AD17AC16120A50
:1004900066E5155FFFE5145EFEE5135DFDE5125CA4
:1004A0008F158E148D13F51274072BF582E434002A
:1004B000F583E4F0221205D0E014F022900018E059
:1004C000240712057312058B7008900018E0FF12C4
:1004D0000C5EE51A14FF900018E06F702990002B55
:1004E000E0C3951A4020E490001CF01205AB500EBA
:1004F000120570E0600312066412062980ED900078
:100500001BE07002C20022E0900013FF75F002129F
:100510000AAAE0FCA3E0FDEF90000575F002020AD4
:10052000AAF582E43400F583E4F074152FF582E433
:100530003400F583E4F0900009EF75F002020AAA96
:10054000900018E075F002900009120AAAE0FCA3DE
:10055000E0C39FEE6480F8EC648098229EFEC39016
:10056000001AE09FEE6480F8900019E06480982201
:1005700074072FF582E43400F58322900018E0FF21
:1005800075F002900001020AAAF583E4F0FFFEFD77
:10059000FCAB15AA14A913A812C3020A7390001980
:1005A000E0FD90001375F002020AAA90001CE0FF23
:1005B000C3951A22F583E004F074032FF582E43426
:1005C0000022900018E02408F582E43400F583222C
:1005D000900018E02415F582E43400F583227D0AAA
:1005E0001209FBAD037C001209E9900021E0FD90A7
:1005F000000122900018E0FF240BF582E434002271
:10060000E0FCA3E0FD75F002EF900013120AAAECE3
:10061000F0A3EDF022E5155519FFE5145518FEE598
:10062000135517FDE51255162290001CE004F02228
:100630007E00900025E0FCA3E0FD1209E98EE78F23
:10064000E622E0FEA3E0C39DFFEE9C22900012E0B4
:10065000FF3395E0FE22A4FFE0C39FE5F06480F83D
:100660007480982290001B7401F022900018E0FF23
:100670002403F582E4340022900012E0FB3395E07D
:10068000FAEBAE0222E0FF90001DE0FEEFC39E22D7
:100690009FEE6480F8EA64809822900017E0FF9053
:1006A0000023E022900017EFF0900029E0C39403AC
:1006B000403EE4F0900016E0702B900018F090009F
:1006C00018E0C3951A501EE0FF1205A2E0FCA3E05B
:1006D000FD75F002EF120583ECF0A3EDF090001829
:1006E000E004F080D9120E80C201E4900016F022DE
:1006F000900023E004F012069AB50708121039E4BE
:10070000900024F012069AD39F50030207D6E4907B
:100710000018F0900018E0C3951A507A12050712DD
:100720000642AD07FC900016E0702E1206787802A3
:10073000C333CE33CED8F9FFD3ED1205524046E491
:100740009BFFE49AFEEF7802C333CE33CED8F9FF95
:10075000C3ED120552502E803D1206787803C33344
:10076000CE33CED8F9FFD3ED1205524018E49BFFEB
:10077000E49AFEEF7803C333CE33CED8F9FFC3ED4E
:100780001205524011900018E0FF1208F99000186D
:10079000E004F0020713900018E0B51A0690002458
:1007A000E004F0900017E0FD75F0089000231206B9
:1007B000564023E4F0C200900029E004F0ED75F00B
:1007C00004900024120656400DE4900029F0120F08
:1007D000C4120E80C20122E4F509F511F510F50FDF
:1007E000F50E1210BC50030208E5120F248F0D8E77
:1007F0000C8D0B8C0AE4F508E508C3951A5049AF37
:100800000DAE0CAD0BAC0A7801120A848F0D8E0C64
:100810008D0B8C0A30D72DE47F01FEFDFC7404257E
:1008200008F582E43400F583E0F9F8120A97E5113F
:100830004FF511E5104EF510E50F4DF50FE50E4C97
:10084000F50E0509050880B0E509C394024015D2EC
:1008500000E509940340051210BF800812109EEFB6
:100860006002C20020002CE4FFFEFDFCAB11AA10C8
:10087000A90FA80EC3120A736010900011E004F0D3
:100880007006900010E004F08020E4900010F0A3C7
:10089000F0801790000EE004F0700690000DE00468
:1008A000F0E4F511F510F50FF50E121064D3900079
:1008B00011E09F900010E09E400A1210BFE49000EB
:1008C00010F0A3F0D390000EE0942C90000DE09473
:1008D00001401D1210BF9000167401F0E490000D4D
:1008E000F0A3F0800B9010E1E4740193FF1206A4D2
:1008F000AF11AE10AD0FAC0E22900019EFF0F9124F
:10090000050712064290001AF0A3EFF0AF01120F94
:1009100053AD07AC0690001AE0FEA3E0FFD39DECB8
:100920006480F8EE6480985014C3E49DFBE49CFA64
:10093000C3EF9BEA6480F8EE648098500E90001933
:10094000E0FF1205181206000209DDECA2E713FE13
:10095000ED13FF90001AE0FAA3E0FBD312069050CB
:1009600016ECA2E713FEED13FFC3E49FFFE49EFE27
:10097000C3EB120690502312059DE0FAA3E0FBEAB8
:10098000C313FEEB13FFC3EB9FFBEA9EFAED1205C8
:1009900018E0C313FEA3E013803212059DE0FAA312
:1009A000E0FBAE027803CEC313CE13D8F9FFC3EB3E
:1009B0009FFBEA9EFA75F002ED900005120AAAE08C
:1009C000FEA3E07803CEC313CE13D8F92BFFEA3E83
:1009D000FE900019E01205A2EEF0A3EFF0900019CE
:1009E000120507ECF0A3EDF022EF8DF0A4A8F0CFF4
:1009F0008CF0A428CE8DF0A42EFE22BC000BBE00ED
:100A000029EF8DF084FFADF022E4CCF875F008EF0B
:100A10002FFFEE33FEEC33FCEE9DEC984005FCEE30
:100A20009DFE0FD5F0E9E4CEFD22EDF8F5F0EE8461
:100A300020D21CFEADF075F008EF2FFFED33FD4026
:100A400007985006D5F0F222C398FD0FD5F0EA22A0
:100A5000C5F0F8A3E028F0C5F0F8E5821582700231
:100A60001583E038F022CFF4CFCEF4CECDF4CDCC48
:100A7000F4CC22EB9FF5F0EA9E42F0E99D42F0E8CB
:100A80009C45F022E8600FECC313FCED13FDEE1360
:100A9000FEEF13FFD8F122E8600FEFC333FFEE3310
:100AA000FEED33FDEC33FCD8F122A42582F582E57E
:100AB000F03583F5832278FFE4F6D8FD9000007FBF
:100AC000007E01E4F0A3DFFCDEFA758120020B0B4F
:100AD000020EBBE493A3F8E493A34003F68001F273
:100AE00008DFF48029E493A3F85407240CC8C33327
:100AF000C4540F4420C8834004F456800146F6DFF6
:100B0000E4800B010204081020408090108DE47EE8
:100B1000019360BCA3FF543F30E509541FFEE493EA
:100B2000A360010ECF54C025E060A840B8E493A3B1
:100B3000FAE493A3F8E493A3C8C582C8CAC583CADC
:100B4000F0A3C8C582C8CAC583CADFE9DEE780BE94
:100B500075FE8543FF2053DB7FD2AFC201E49000D6
:100B60002AF090000FF0120DAFE4FF120EF2EF2406
:100B700001FDE433FC7E0F7FA01209FB900025EEFF
:100B8000F0A3EFF0E4FF1210271206307F02120EDE
:100B9000F2EFC454F0FEC006E4FF120EF2D0E02FD4
:100BA000F5E17F03120EF2E5E254804FF5E27F0497
:100BB000120EF2EF6008E5E254804480F5E27F0116
:100BC000120EF28FE3120E8043A910900004E0444D
:100BD00080F5E8120CDE020FC4EF701DEB7006ED1D
:100BE000F4529A529BEBB40107EDF4529AED429BFA
:100BF000EB64027068ED429A22EF6401701DEB70A5
:100C000006EDF452915292EBB40107EDF45291EDDE
:100C10004292EB64027046ED429122EF6402701D35
:100C2000EB7006EDF452A152A2EBB40107EDF452C1
:100C3000A1ED42A2EB64027024ED42A122EF640513
:100C4000701BEB7006EDF452D952DAEBB40107EDEC
:100C5000F452D9ED42DAEBB40203ED42D92290000E
:100C600021EFF012104B900022EFF0120CD3900005
:100C700026E025E0FF900025E033FE7C001205DE33
:100C800012051BE0FAA3E0C39FEA9E5009900022E0
:100C9000E0603F14802D120CD3900025E0FEA3E00D
:100CA000FF7C007D071209E91205DE12053AE0FA21
:100CB000A3E0D39FEA9E401A900022E0FF647E608A
:100CC00011EF04FF740C2DF582E43400F583EFF08E
:100CD000D20122900021E0FF121027EFFB229000AA
:100CE000177420F0120F7FE4900018F0900018E0C5
:100CF000FFC3951A5021E0FE120518E0FCA3E0FDA9
:100D000075F002EE120583ECF0A3EDF0120C5E908C
:100D10000018E004F080D5900017E0FF14F0EF70A9
:100D2000C3121039121096900017EFF0120F7FE4E3
:100D3000900018F0900018E0FFC3951A500B1208AD
:100D4000F9900018E004F080EB900017E0FF14F039
:100D5000EF70D922C20290002AE0120518E5E5F0F2
:100D6000A3E5E4F090002AE004F0E0C3951A400BFC
:100D7000E4F090000FE04480F08002D20290002A5C
:100D8000E0FF12102712063090002AE0FF12104BED
:100D9000E5E254804FF5E290002AE02404F582E475
:100DA0003400F583E04480F5E8300202D2EE229070
:100DB00010D7740193900000F09010F1740193909B
:100DC0000012F0120DFBE4F508E508C3951A502354
:100DD000E50875F008A424F7F582E43410F583E4FF
:100DE00093FF740C2508F582E43400F583EFF005D9
:100DF0000880D6E4900010F0A3F022E4F509F50A8B
:100E0000F50EF50D750C40F50BF509AF0EAE0DADF9
:100E10000CAC0B7801120A848F0E8E0D8D0C8C0B8E
:100E200030D7177404250AF582E43400F583E50908
:100E3000F0050AE50AC3940150070509E509B41F46
:100E4000CA850A1A22C0E0C0F0C083C082C0D07533
:100E5000D000C000C001C002C003C004C005C0066D
:100E6000C007120D54D007D006D005D004D003D04F
:100E700002D001D000D0D0D082D083D0F0D0E032E8
:100E8000E4FFEFC3951A501A120570E4F0740B2FAB
:100E9000120521E4F0A3F074082F1205C8E4F00F46
:100EA00080E0E4F515F514F513F51290002474FFB5
:100EB000F0E4900027F0A3F0C201221210847D011B
:100EC0007F01120FE3120B5090000FE0FF30E7F8A4
:100ED000547FF01207D7E4FEED5440FDE4FCED7DB5
:100EE000407F026005120FE38003120FA41210B9B5
:100EF00080D6EF14601214601414601814601A2461
:100F000004701E9010F380089010F480039010F588
:100F1000E493FF22E4FF02104B9010E5740193FF6D
:100F2000227F0022E490002BF0900017F090001731
:100F3000E0FFC3951A50131208F9900017E0FF1252
:100F40000100900017E004F080E3AF15AE14AD137C
:100F5000AC1222AD07ED75F008A424F9F582E43453
:100F600010F583E493FEED75F008A424FAF582E40D
:100F70003410F583E4937C002400FFEC3EFE22E471
:100F8000FD90000FE0547FF0D2EE90000FE020E7DC
:100F9000127FE87E0312105843CF100DEDC3943238
:100FA00040E82222EF7004EDF45280EFB40104ED2A
:100FB000F45290EFB40204EDF452A0EFB40504ED46
:100FC000F452D822E4FFEFC3951A5016120517E029
:100FD000FCA3E0FD900001120539ECF0A3EDF00F49
:100FE00080E422EF7003ED4280EFB40103ED429004
:100FF000EFB40203ED42A0EFB40503ED42D8221294
:101000000F53EF7803C333CE33CED8F9FF7C007D86
:101010000A1209FB227B027D027F01120BD97B029F
:101020007D407F02020BD9EF75F008A424F6F5820B
:10103000E43410F583E493FF22E4FFEFC3951A50E4
:10104000091205171206000F80F122740C2FF58289
:10105000E43400F583E0FF22EF4E6007EF1F70F8E5
:101060001E80F5229010DBE493FE740193FF229022
:1010700010DFE493FE740193FF22900000E075F00E
:101080000384FF221210151210C2D2AF22410016A3
:101090000041002900009010D9740193FF229010A4
:1010A000D3740193FF22900000E0C313FF22538802
:1010B000FD325388F7327F0122D2EE22A20122D2E2
:1010C0000122223232323232323232323232323251
:1010D000320000000000000005000A0BB800C80044
:1010E0006400020000000000040000FFFFFFFFFF9B
:0B10F000FF001403320408210507FB79
:00000001FF
