LX51 LINKER/LOCATER V4.66.87.0                                                          04/03/2025  13:07:21  PAGE 1


LX51 LINKER/LOCATER V4.66.87.0, INVOKED BY:
H:\SOFTWAREAPPLICATION\MDK-KEIL\C51\BIN\LX51.EXE .\list\main.obj, .\list\system_init.obj, .\list\Task.obj, .\list\isr.ob
>> j, .\list\APP.obj, .\list\APP_AD_UART2.obj, .\list\APP_INT_UART1.obj, .\list\APP_Lamp.obj, .\list\APP_RTC.obj, .\list
>> \APP_I2C_PS.obj, .\list\APP_SPI_PS.obj, .\list\APP_WDT.obj, .\list\APP_EEPROM.obj, .\list\APP_PWMA_Output.obj, .\list
>> \APP_PWMB_Output.obj, .\list\APP_PCA_PWM.obj, .\list\APP_PCA_Capture.obj, .\list\APP_PWM15bit.obj, .\list\STC8G_H_ADC
>> .obj, .\list\STC8G_H_Compare.obj, .\list\STC8G_H_Delay.obj, .\list\STC8G_H_EEPROM.obj, .\list\STC8G_H_Exti.obj, .\lis
>> t\STC8G_H_GPIO.obj, .\list\STC8G_H_I2C.obj, .\list\STC8G_H_Timer.obj, .\list\STC8G_H_UART.obj, .\list\STC8G_PCA.obj, 
>> .\list\STC8G_PWM15bit.obj, .\list\STC8H_PWM.obj, .\list\STC8G_H_SPI.obj, .\list\STC8G_H_Soft_I2C.obj, .\list\STC8G_H_
>> Soft_UART.obj, .\list\STC8G_H_WDT.obj, .\list\STC8G_H_NVIC.obj, .\list\STC8H_RTC.obj, .\list\STC8G_H_ADC_Isr.obj, .\l
>> ist\STC8G_H_Compare_Isr.obj, .\list\STC8G_H_Exti_Isr.obj, .\list\STC8G_H_GPIO_Isr.obj, .\list\STC8G_H_I2C_Isr.obj, .\
>> list\STC8G_H_Timer_Isr.obj, .\list\STC8G_H_UART_Isr.obj, .\list\STC8G_PCA_Isr.obj, .\list\STC8G_PWM15bit_Isr.obj, .\l
>> ist\STC8H_PWM_Isr.obj, .\list\STC8G_H_SPI_Isr.obj, .\list\STC8H_RTC_Isr.obj TO .\list\STC8G-H-LIB PRINT (.\list\STC8G
>> -H-LIB.map) REMOVEUNUSED


CPU MODE:     8051 MODE
MEMORY MODEL: LARGE


INPUT MODULES INCLUDED:
  .\list\main.obj (MAIN)
         COMMENT TYPE 0: C51 V9.57.0.0
  .\list\system_init.obj (SYSTEM_INIT)
         COMMENT TYPE 0: C51 V9.57.0.0
  .\list\Task.obj (TASK)
         COMMENT TYPE 0: C51 V9.57.0.0
  .\list\isr.obj (ISR)
         COMMENT TYPE 1: A51 / ASM51 Assembler
  .\list\APP.obj (APP)
         COMMENT TYPE 0: C51 V9.57.0.0
  .\list\APP_AD_UART2.obj (APP_AD_UART2)
         COMMENT TYPE 0: C51 V9.57.0.0
  .\list\APP_INT_UART1.obj (APP_INT_UART1)
         COMMENT TYPE 0: C51 V9.57.0.0
  .\list\APP_Lamp.obj (APP_LAMP)
         COMMENT TYPE 0: C51 V9.57.0.0
  .\list\APP_RTC.obj (APP_RTC)
         COMMENT TYPE 0: C51 V9.57.0.0
  .\list\APP_I2C_PS.obj (APP_I2C_PS)
         COMMENT TYPE 0: C51 V9.57.0.0
  .\list\APP_SPI_PS.obj (APP_SPI_PS)
         COMMENT TYPE 0: C51 V9.57.0.0
  .\list\APP_WDT.obj (APP_WDT)
         COMMENT TYPE 0: C51 V9.57.0.0
  .\list\APP_EEPROM.obj (APP_EEPROM)
         COMMENT TYPE 0: C51 V9.57.0.0
  .\list\APP_PWMA_Output.obj (APP_PWMA_OUTPUT)
         COMMENT TYPE 0: C51 V9.57.0.0
  .\list\APP_PWMB_Output.obj (APP_PWMB_OUTPUT)
         COMMENT TYPE 0: C51 V9.57.0.0
  .\list\APP_PCA_PWM.obj (APP_PCA_PWM)
         COMMENT TYPE 0: C51 V9.57.0.0
  .\list\APP_PCA_Capture.obj (APP_PCA_CAPTURE)
         COMMENT TYPE 0: C51 V9.57.0.0
  .\list\APP_PWM15bit.obj (APP_PWM15BIT)
         COMMENT TYPE 0: C51 V9.57.0.0
  .\list\STC8G_H_ADC.obj (STC8G_H_ADC)
         COMMENT TYPE 0: C51 V9.57.0.0
  .\list\STC8G_H_Compare.obj (STC8G_H_COMPARE)
         COMMENT TYPE 0: C51 V9.57.0.0
  .\list\STC8G_H_Delay.obj (STC8G_H_DELAY)
         COMMENT TYPE 0: C51 V9.57.0.0
  .\list\STC8G_H_EEPROM.obj (STC8G_H_EEPROM)
         COMMENT TYPE 0: C51 V9.57.0.0
  .\list\STC8G_H_Exti.obj (STC8G_H_EXTI)
         COMMENT TYPE 0: C51 V9.57.0.0
LX51 LINKER/LOCATER V4.66.87.0                                                        04/03/2025  13:07:21  PAGE 2


  .\list\STC8G_H_GPIO.obj (STC8G_H_GPIO)
         COMMENT TYPE 0: C51 V9.57.0.0
  .\list\STC8G_H_I2C.obj (STC8G_H_I2C)
         COMMENT TYPE 0: C51 V9.57.0.0
  .\list\STC8G_H_Timer.obj (STC8G_H_TIMER)
         COMMENT TYPE 0: C51 V9.57.0.0
  .\list\STC8G_H_UART.obj (STC8G_H_UART)
         COMMENT TYPE 0: C51 V9.57.0.0
  .\list\STC8G_PCA.obj (STC8G_PCA)
         COMMENT TYPE 0: C51 V9.57.0.0
  .\list\STC8G_PWM15bit.obj (STC8G_PWM15BIT)
         COMMENT TYPE 0: C51 V9.57.0.0
  .\list\STC8H_PWM.obj (STC8H_PWM)
         COMMENT TYPE 0: C51 V9.57.0.0
  .\list\STC8G_H_SPI.obj (STC8G_H_SPI)
         COMMENT TYPE 0: C51 V9.57.0.0
  .\list\STC8G_H_Soft_I2C.obj (STC8G_H_SOFT_I2C)
         COMMENT TYPE 0: C51 V9.57.0.0
  .\list\STC8G_H_Soft_UART.obj (STC8G_H_SOFT_UART)
         COMMENT TYPE 0: C51 V9.57.0.0
  .\list\STC8G_H_WDT.obj (STC8G_H_WDT)
         COMMENT TYPE 0: C51 V9.57.0.0
  .\list\STC8G_H_NVIC.obj (STC8G_H_NVIC)
         COMMENT TYPE 0: C51 V9.57.0.0
  .\list\STC8H_RTC.obj (STC8H_RTC)
         COMMENT TYPE 0: C51 V9.57.0.0
  .\list\STC8G_H_ADC_Isr.obj (STC8G_H_ADC_ISR)
         COMMENT TYPE 0: C51 V9.57.0.0
  .\list\STC8G_H_Compare_Isr.obj (STC8G_H_COMPARE_ISR)
         COMMENT TYPE 0: C51 V9.57.0.0
  .\list\STC8G_H_Exti_Isr.obj (STC8G_H_EXTI_ISR)
         COMMENT TYPE 0: C51 V9.57.0.0
  .\list\STC8G_H_GPIO_Isr.obj (STC8G_H_GPIO_ISR)
         COMMENT TYPE 0: C51 V9.57.0.0
  .\list\STC8G_H_I2C_Isr.obj (STC8G_H_I2C_ISR)
         COMMENT TYPE 0: C51 V9.57.0.0
  .\list\STC8G_H_Timer_Isr.obj (STC8G_H_TIMER_ISR)
         COMMENT TYPE 0: C51 V9.57.0.0
  .\list\STC8G_H_UART_Isr.obj (STC8G_H_UART_ISR)
         COMMENT TYPE 0: C51 V9.57.0.0
  .\list\STC8G_PCA_Isr.obj (STC8G_PCA_ISR)
         COMMENT TYPE 0: C51 V9.57.0.0
  .\list\STC8G_PWM15bit_Isr.obj (STC8G_PWM15BIT_ISR)
         COMMENT TYPE 0: C51 V9.57.0.0
  .\list\STC8H_PWM_Isr.obj (STC8H_PWM_ISR)
         COMMENT TYPE 0: C51 V9.57.0.0
  .\list\STC8G_H_SPI_Isr.obj (STC8G_H_SPI_ISR)
         COMMENT TYPE 0: C51 V9.57.0.0
  .\list\STC8H_RTC_Isr.obj (STC8H_RTC_ISR)
         COMMENT TYPE 0: C51 V9.57.0.0
  H:\SOFTWAREAPPLICATION\MDK-KEIL\C51\LIB\C51L.LIB (?C_STARTUP)
         COMMENT TYPE 1: A51 / ASM51 Assembler
  H:\SOFTWAREAPPLICATION\MDK-KEIL\C51\LIB\C51L.LIB (?C?CLDPTR)
         COMMENT TYPE 1: A51 / ASM51 Assembler
  H:\SOFTWAREAPPLICATION\MDK-KEIL\C51\LIB\C51L.LIB (?C?CLDOPTR)
         COMMENT TYPE 1: A51 / ASM51 Assembler
  H:\SOFTWAREAPPLICATION\MDK-KEIL\C51\LIB\C51L.LIB (?C?CSTPTR)
         COMMENT TYPE 1: A51 / ASM51 Assembler
  H:\SOFTWAREAPPLICATION\MDK-KEIL\C51\LIB\C51L.LIB (?C?UIDIV)
         COMMENT TYPE 1: A51 / ASM51 Assembler
  H:\SOFTWAREAPPLICATION\MDK-KEIL\C51\LIB\C51L.LIB (?C?IILDX)
         COMMENT TYPE 1: A51 / ASM51 Assembler
  H:\SOFTWAREAPPLICATION\MDK-KEIL\C51\LIB\C51L.LIB (?C?ILDIX)
         COMMENT TYPE 1: A51 / ASM51 Assembler
  H:\SOFTWAREAPPLICATION\MDK-KEIL\C51\LIB\C51L.LIB (?C?ILDPTR)
LX51 LINKER/LOCATER V4.66.87.0                                                        04/03/2025  13:07:21  PAGE 3


         COMMENT TYPE 1: A51 / ASM51 Assembler
  H:\SOFTWAREAPPLICATION\MDK-KEIL\C51\LIB\C51L.LIB (?C?ILDOPTR)
         COMMENT TYPE 1: A51 / ASM51 Assembler
  H:\SOFTWAREAPPLICATION\MDK-KEIL\C51\LIB\C51L.LIB (?C?ULDIV)
         COMMENT TYPE 1: A51 / ASM51 Assembler
  H:\SOFTWAREAPPLICATION\MDK-KEIL\C51\LIB\C51L.LIB (?C?SLCMP)
         COMMENT TYPE 1: A51 / ASM51 Assembler
  H:\SOFTWAREAPPLICATION\MDK-KEIL\C51\LIB\C51L.LIB (?C?ULCMP)
         COMMENT TYPE 1: A51 / ASM51 Assembler
  H:\SOFTWAREAPPLICATION\MDK-KEIL\C51\LIB\C51L.LIB (?C?ULSHR)
         COMMENT TYPE 1: A51 / ASM51 Assembler
  H:\SOFTWAREAPPLICATION\MDK-KEIL\C51\LIB\C51L.LIB (?C?LLDOPTR0)
         COMMENT TYPE 1: A51 / ASM51 Assembler
  H:\SOFTWAREAPPLICATION\MDK-KEIL\C51\LIB\C51L.LIB (?C?LSTXDATA)
         COMMENT TYPE 1: A51 / ASM51 Assembler
  H:\SOFTWAREAPPLICATION\MDK-KEIL\C51\LIB\C51L.LIB (?C?LSTKXDATA)
         COMMENT TYPE 1: A51 / ASM51 Assembler
  H:\SOFTWAREAPPLICATION\MDK-KEIL\C51\LIB\C51L.LIB (?C?ICALL)
         COMMENT TYPE 1: A51 / ASM51 Assembler
  H:\SOFTWAREAPPLICATION\MDK-KEIL\C51\LIB\C51L.LIB (PRINTF)
         COMMENT TYPE 1: A51 / ASM51 Assembler
  H:\SOFTWAREAPPLICATION\MDK-KEIL\C51\LIB\C51L.LIB (?C_INIT)
         COMMENT TYPE 1: A51 / ASM51 Assembler
  H:\SOFTWAREAPPLICATION\MDK-KEIL\C51\LIB\C51L.LIB (?C?LLDIDATA0)
         COMMENT TYPE 1: A51 / ASM51 Assembler
  H:\SOFTWAREAPPLICATION\MDK-KEIL\C51\LIB\C51L.LIB (?C?LLDXDATA0)
         COMMENT TYPE 1: A51 / ASM51 Assembler
  H:\SOFTWAREAPPLICATION\MDK-KEIL\C51\LIB\C51L.LIB (?C?LLDPDATA0)
         COMMENT TYPE 1: A51 / ASM51 Assembler
  H:\SOFTWAREAPPLICATION\MDK-KEIL\C51\LIB\C51L.LIB (?C?LLDCODE0)
         COMMENT TYPE 1: A51 / ASM51 Assembler
  H:\SOFTWAREAPPLICATION\MDK-KEIL\C51\LIB\C51L.LIB (?C?PLDIXDATA)
         COMMENT TYPE 1: A51 / ASM51 Assembler
  H:\SOFTWAREAPPLICATION\MDK-KEIL\C51\LIB\C51L.LIB (?C?PSTXDATA)
         COMMENT TYPE 1: A51 / ASM51 Assembler
  H:\SOFTWAREAPPLICATION\MDK-KEIL\C51\LIB\C51L.LIB (?C?CCASE)
         COMMENT TYPE 1: A51 / ASM51 Assembler


ACTIVE MEMORY CLASSES OF MODULE:  .\list\STC8G-H-LIB (MAIN)

BASE        START       END         USED      MEMORY CLASS
==========================================================
C:000000H   C:000000H   C:00FFFFH   00169EH   CODE
X:000000H   X:000000H   X:00FFFFH   000453H   XDATA
C:000000H   C:000000H   C:00FFFFH   00000BH   CONST
I:000020H.0 I:000020H.0 I:00002FH.7 000002H.6 BIT
I:000000H   I:000000H   I:0000FFH   000001H   IDATA
I:000000H   I:000000H   I:00007FH   000008H   DATA


MEMORY MAP OF MODULE:  .\list\STC8G-H-LIB (MAIN)


START     STOP      LENGTH    ALIGN  RELOC    MEMORY CLASS   SEGMENT NAME
=========================================================================

* * * * * * * * * * *   D A T A   M E M O R Y   * * * * * * * * * * * * *
000000H   000007H   000008H   ---    AT..     DATA           "REG BANK 0"
000008H.0 00001FH.7 000018H.0 ---    ---      **GAP**
000020H.0 000020H.3 000000H.4 BIT    UNIT     BIT            ?BI?APP_PWMA_OUTPUT
000020H.4 000020H.7 000000H.4 BIT    UNIT     BIT            ?BI?APP_PWMB_OUTPUT
000021H.0 000021H.2 000000H.3 BIT    UNIT     BIT            ?BI?APP_PCA_PWM
000021H.3 000021H.5 000000H.3 BIT    UNIT     BIT            ?BI?STC8G_PCA
000021H.6 000021H.7 000000H.2 BIT    UNIT     BIT            ?BI?APP_PWM15BIT
LX51 LINKER/LOCATER V4.66.87.0                                                        04/03/2025  13:07:21  PAGE 4


000022H.0 000022H.1 000000H.2 BIT    UNIT     BIT            ?BI?STC8H_RTC_ISR
000022H.2 000022H.2 000000H.1 BIT    UNIT     BIT            ?BI?APP_SPI_PS
000022H.3 000022H.3 000000H.1 BIT    UNIT     BIT            ?BI?APP_PCA_CAPTURE
000022H.4 000022H.4 000000H.1 BIT    UNIT     BIT            ?BI?STC8G_H_SPI
000022H.5 000022H.5 000000H.1 BIT    UNIT     BIT            ?BI?STC8G_H_I2C_ISR
000022H.6 000022H   000000H.2 ---    ---      **GAP**
000023H   000023H   000001H   BYTE   UNIT     IDATA          ?STACK

* * * * * * * * * * *   C O D E   M E M O R Y   * * * * * * * * * * * * *
000000H   000002H   000003H   ---    OFFS..   CODE           ?CO??C_STARTUP?0
000003H   000005H   000003H   BYTE   OFFS..   CODE           ?STC8G_H_EXTI_ISR?00003
000006H   000009H   000004H   BYTE   UNIT     CODE           ?PR?ADC_ISR_HANDLER?STC8G_H_ADC_ISR
00000AH   00000AH   000001H   ---    ---      **GAP**
00000BH   00000DH   000003H   BYTE   OFFS..   CODE           ?STC8G_H_TIMER_ISR?0000B
00000EH   000010H   000003H   BYTE   UNIT     CODE           ?PR?TIMER1_ISR_HANDLER?STC8G_H_TIMER_ISR
000011H   000012H   000002H   ---    ---      **GAP**
000013H   000015H   000003H   BYTE   OFFS..   CODE           ?STC8G_H_EXTI_ISR?00013
000016H   000018H   000003H   BYTE   UNIT     CODE           ?PR?TIMER2_ISR_HANDLER?STC8G_H_TIMER_ISR
000019H   00001AH   000002H   ---    ---      **GAP**
00001BH   00001DH   000003H   BYTE   OFFS..   CODE           ?STC8G_H_TIMER_ISR?0001B
00001EH   000020H   000003H   BYTE   UNIT     CODE           ?PR?TIMER3_ISR_HANDLER?STC8G_H_TIMER_ISR
000021H   000022H   000002H   ---    ---      **GAP**
000023H   000025H   000003H   BYTE   OFFS..   CODE           ?STC8G_H_UART_ISR?00023
000026H   000028H   000003H   BYTE   UNIT     CODE           ?PR?TIMER4_ISR_HANDLER?STC8G_H_TIMER_ISR
000029H   00002AH   000002H   ---    ---      **GAP**
00002BH   00002DH   000003H   BYTE   OFFS..   CODE           ?STC8G_H_ADC_ISR?0002B
00002EH   00003AH   00000DH   BYTE   UNIT     CODE           ?PR?LAMP_INIT?APP_LAMP
00003BH   00003DH   000003H   BYTE   OFFS..   CODE           ?STC8G_PCA_ISR?0003B
00003EH   000040H   000003H   BYTE   UNIT     CONST          ?CO?APP_AD_UART2
000041H   000042H   000002H   ---    ---      **GAP**
000043H   000045H   000003H   BYTE   OFFS..   CODE           ?STC8G_H_UART_ISR?00043
000046H   00004AH   000005H   ---    ---      **GAP**
00004BH   00004DH   000003H   BYTE   OFFS..   CODE           ?STC8G_H_SPI_ISR?0004B
00004EH   000052H   000005H   ---    ---      **GAP**
000053H   000055H   000003H   BYTE   OFFS..   CODE           ?STC8G_H_EXTI_ISR?00053
000056H   00005AH   000005H   ---    ---      **GAP**
00005BH   00005DH   000003H   BYTE   OFFS..   CODE           ?STC8G_H_EXTI_ISR?0005B
00005EH   000062H   000005H   ---    ---      **GAP**
000063H   000065H   000003H   BYTE   OFFS..   CODE           ?STC8G_H_TIMER_ISR?00063
000066H   00006AH   000005H   ---    ---      **GAP**
00006BH   00006DH   000003H   BYTE   OFFS..   CODE           ?STC8H_RTC_ISR?0006B
00006EH   000080H   000013H   BYTE   UNIT     CODE           ?PR?_PRINTSTRING2?STC8G_H_UART
000081H   000082H   000002H   ---    ---      **GAP**
000083H   000085H   000003H   BYTE   OFFS..   CODE           ?STC8G_H_EXTI_ISR?00083
000086H   00008AH   000005H   ---    ---      **GAP**
00008BH   00008DH   000003H   BYTE   OFFS..   CODE           ?STC8G_H_UART_ISR?0008B
00008EH   000092H   000005H   ---    ---      **GAP**
000093H   000095H   000003H   BYTE   OFFS..   CODE           ?STC8G_H_UART_ISR?00093
000096H   00009AH   000005H   ---    ---      **GAP**
00009BH   00009DH   000003H   BYTE   OFFS..   CODE           ?STC8G_H_TIMER_ISR?0009B
00009EH   0000A2H   000005H   ---    ---      **GAP**
0000A3H   0000A5H   000003H   BYTE   OFFS..   CODE           ?STC8G_H_TIMER_ISR?000A3
0000A6H   0000AAH   000005H   ---    ---      **GAP**
0000ABH   0000ADH   000003H   BYTE   OFFS..   CODE           ?STC8G_H_COMPARE_ISR?000AB
0000AEH   0000B2H   000005H   ---    ---      **GAP**
0000B3H   0000B5H   000003H   BYTE   OFFS..   CODE           ?STC8G_PWM15BIT_ISR?000B3
0000B6H   0000C1H   00000CH   BYTE   UNIT     CODE           ?PR?_ADC_POWERCONTROL?STC8G_H_ADC
0000C2H   0000C2H   000001H   ---    ---      **GAP**
0000C3H   0000C5H   000003H   BYTE   OFFS..   CODE           ?STC8G_H_I2C_ISR?000C3
0000C6H   0000E2H   00001DH   BYTE   UNIT     CODE           ?PR?PWM0_ISR_HANDLER?STC8G_PWM15BIT_ISR
0000E3H   0000E5H   000003H   BYTE   OFFS..   CODE           ?STC8G_PWM15BIT_ISR?000E3
0000E6H   0000EAH   000005H   ---    ---      **GAP**
0000EBH   0000EDH   000003H   BYTE   OFFS..   CODE           ?STC8G_PWM15BIT_ISR?000EB
0000EEH   0000F2H   000005H   ---    ---      **GAP**
0000F3H   0000F5H   000003H   BYTE   OFFS..   CODE           ?STC8G_PWM15BIT_ISR?000F3
LX51 LINKER/LOCATER V4.66.87.0                                                        04/03/2025  13:07:21  PAGE 5


0000F6H   0000FAH   000005H   ---    ---      **GAP**
0000FBH   0000FDH   000003H   BYTE   OFFS..   CODE           ?STC8G_PWM15BIT_ISR?000FB
0000FEH   00011BH   00001EH   BYTE   UNIT     CODE           ?C_INITSEG
00011CH   000121H   000006H   BYTE   UNIT     CODE           ?PR?APP_CONFIG?APP
000122H   000122H   000001H   ---    ---      **GAP**
000123H   000124H   000002H   ---    OFFS..   CODE           ?CO?ISR?0
000125H   000777H   000653H   BYTE   UNIT     CODE           ?PR?_UART_CONFIGURATION?STC8G_H_UART
000778H   000AAAH   000333H   BYTE   UNIT     CODE           ?C?LIB_CODE
000AABH   000D11H   000267H   BYTE   UNIT     CODE           ?PR?_TIMER_INILIZE?STC8G_H_TIMER
000D12H   000EA5H   000194H   BYTE   UNIT     CODE           ?PR?PCA_ISR_HANDLER?STC8G_PCA_ISR
000EA6H   000F62H   0000BDH   BYTE   UNIT     CODE           ?PR?SAMPLE_ADTOUART?APP_AD_UART2
000F63H   001012H   0000B0H   BYTE   UNIT     CODE           ?PR?I2C_ISR_HANDLER?STC8G_H_I2C_ISR
001013H   00109EH   00008CH   BYTE   UNIT     CODE           ?C_C51STARTUP
00109FH   001125H   000087H   BYTE   UNIT     CODE           ?PR?TASK_MARKS_HANDLER_CALLBACK?TASK
001126H   00119DH   000078H   BYTE   UNIT     CODE           ?PR?_GET_ADCRESULT?STC8G_H_ADC
00119EH   0011F9H   00005CH   BYTE   UNIT     CODE           ?PR?ADTOUART_INIT?APP_AD_UART2
0011FAH   001251H   000058H   BYTE   UNIT     CODE           ?PR?TASK_PRO_HANDLER_CALLBACK?TASK
001252H   0012A6H   000055H   BYTE   UNIT     CODE           ?PR?_ADC_INILIZE?STC8G_H_ADC
0012A7H   0012F8H   000052H   BYTE   UNIT     CODE           ?PR?UART2_ISR_HANDLER?STC8G_H_UART_ISR
0012F9H   00134AH   000052H   BYTE   UNIT     CODE           ?PR?UART3_ISR_HANDLER?STC8G_H_UART_ISR
00134BH   00139CH   000052H   BYTE   UNIT     CODE           ?PR?UART4_ISR_HANDLER?STC8G_H_UART_ISR
00139DH   0013E8H   00004CH   BYTE   UNIT     CODE           ?PR?UART1_ISR_HANDLER?STC8G_H_UART_ISR
0013E9H   001432H   00004AH   BYTE   UNIT     CODE           ?PR?SWITCH_CONFIG?SYSTEM_INIT
001433H   00147BH   000049H   BYTE   UNIT     CODE           ?PR?SPI_ISR_HANDLER?STC8G_H_SPI_ISR
00147CH   0014BEH   000043H   BYTE   UNIT     CODE           ?PR?_NVIC_UART2_INIT?STC8G_H_NVIC
0014BFH   0014FFH   000041H   BYTE   UNIT     CODE           ?PR?_NVIC_TIMER0_INIT?STC8G_H_NVIC
001500H   001540H   000041H   BYTE   UNIT     CODE           ?PR?_NVIC_ADC_INIT?STC8G_H_NVIC
001541H   00157BH   00003BH   BYTE   UNIT     CODE           ?PR?TIMER0_ISR_HANDLER?STC8G_H_TIMER_ISR
00157CH   0015A6H   00002BH   BYTE   UNIT     CODE           ?PR?RTC_ISR_HANDLER?STC8H_RTC_ISR
0015A7H   0015D0H   00002AH   BYTE   UNIT     CODE           ?PR?TIMER_CONFIG?SYSTEM_INIT
0015D1H   0015EDH   00001DH   BYTE   UNIT     CODE           ?PR?PWM1_ISR_HANDLER?STC8G_PWM15BIT_ISR
0015EEH   00160AH   00001DH   BYTE   UNIT     CODE           ?PR?PWM2_ISR_HANDLER?STC8G_PWM15BIT_ISR
00160BH   001627H   00001DH   BYTE   UNIT     CODE           ?PR?PWM3_ISR_HANDLER?STC8G_PWM15BIT_ISR
001628H   001644H   00001DH   BYTE   UNIT     CODE           ?PR?PWM4_ISR_HANDLER?STC8G_PWM15BIT_ISR
001645H   001660H   00001CH   BYTE   UNIT     CODE           ?PR?SAMPLE_LAMP?APP_LAMP
001661H   001673H   000013H   BYTE   UNIT     CODE           ?PR?INT0_ISR_HANDLER?STC8G_H_EXTI_ISR
001674H   001686H   000013H   BYTE   UNIT     CODE           ?PR?INT1_ISR_HANDLER?STC8G_H_EXTI_ISR
001687H   001699H   000013H   BYTE   UNIT     CODE           ?PR?INT2_ISR_HANDLER?STC8G_H_EXTI_ISR
00169AH   0016ACH   000013H   BYTE   UNIT     CODE           ?PR?INT3_ISR_HANDLER?STC8G_H_EXTI_ISR
0016ADH   0016BFH   000013H   BYTE   UNIT     CODE           ?PR?INT4_ISR_HANDLER?STC8G_H_EXTI_ISR
0016C0H   0016D0H   000011H   BYTE   UNIT     CODE           ?PR?CMP_ISR_HANDLER?STC8G_H_COMPARE_ISR
0016D1H   0016DFH   00000FH   BYTE   UNIT     CODE           ?PR?_TX2_WRITE2BUFF?STC8G_H_UART
0016E0H   0016EAH   00000BH   BYTE   UNIT     CODE           ?PR?MAIN?MAIN
0016EBH   0016F5H   00000BH   BYTE   UNIT     CODE           ?PR?SYS_INIT?SYSTEM_INIT
0016F6H   0016FDH   000008H   BYTE   UNIT     CONST          ?CO?APP_LAMP

* * * * * * * * * * *  X D A T A   M E M O R Y  * * * * * * * * * * * * *
000000H   0002D3H   0002D4H   BYTE   UNIT     XDATA          ?XD?STC8G_H_UART
0002D4H   000354H   000081H   BYTE   UNIT     XDATA          ?XD?STC8G_H_SPI
000355H   0003B8H   000064H   BYTE   UNIT     XDATA          ?XD?APP_EEPROM
0003B9H   0003D0H   000018H   BYTE   UNIT     XDATA          _XDATA_GROUP_
0003D1H   0003E4H   000014H   BYTE   UNIT     XDATA          ?XD?APP
0003E5H   0003F5H   000011H   BYTE   UNIT     XDATA          ?XD?TASK
0003F6H   000405H   000010H   BYTE   UNIT     XDATA          ?XD?APP_PWMA_OUTPUT
000406H   000415H   000010H   BYTE   UNIT     XDATA          ?XD?APP_PWMB_OUTPUT
000416H   000424H   00000FH   BYTE   UNIT     XDATA          ?XD?STC8G_PCA
000425H   000430H   00000CH   BYTE   UNIT     XDATA          ?XD?STC8G_PCA_ISR
000431H   000438H   000008H   BYTE   UNIT     XDATA          ?XD?STC8G_H_I2C
000439H   00043EH   000006H   BYTE   UNIT     XDATA          ?XD?APP_PCA_PWM
00043FH   000444H   000006H   BYTE   UNIT     XDATA          ?XD?APP_PWM15BIT
000445H   000448H   000004H   BYTE   UNIT     XDATA          ?XD?APP_I2C_PS
000449H   00044BH   000003H   BYTE   UNIT     XDATA          ?XD?STC8G_H_I2C_ISR
00044CH   00044DH   000002H   BYTE   UNIT     XDATA          ?XD?APP_PCA_CAPTURE
00044EH   00044EH   000001H   BYTE   UNIT     XDATA          ?XD?APP_AD_UART2
00044FH   00044FH   000001H   BYTE   UNIT     XDATA          ?XD?APP_INT_UART1
LX51 LINKER/LOCATER V4.66.87.0                                                        04/03/2025  13:07:21  PAGE 6


000450H   000450H   000001H   BYTE   UNIT     XDATA          ?XD?APP_LAMP
000451H   000451H   000001H   BYTE   UNIT     XDATA          ?XD?STC8G_H_EXTI_ISR
000452H   000452H   000001H   BYTE   UNIT     XDATA          ?XD?STC8G_H_SPI_ISR

* * * * * * * * *   R E M O V E D     S E G M E N T S   * * * * * * * *
   *DEL*:           00003EH   BYTE   UNIT     CODE           ?PR?GPIO_CONFIG?SYSTEM_INIT
   *DEL*:           00002BH   BYTE   UNIT     CODE           ?PR?ADC_CONFIG?SYSTEM_INIT
   *DEL*:           000005H   BYTE   UNIT     XDATA          ?XD?ADC_CONFIG?SYSTEM_INIT
   *DEL*:           00002DH   BYTE   UNIT     CODE           ?PR?UART_CONFIG?SYSTEM_INIT
   *DEL*:           000009H   BYTE   UNIT     XDATA          ?XD?UART_CONFIG?SYSTEM_INIT
   *DEL*:           000026H   BYTE   UNIT     CODE           ?PR?I2C_CONFIG?SYSTEM_INIT
   *DEL*:           000006H   BYTE   UNIT     XDATA          ?XD?I2C_CONFIG?SYSTEM_INIT
   *DEL*:           000025H   BYTE   UNIT     CODE           ?PR?SPI_CONFIG?SYSTEM_INIT
   *DEL*:           000007H   BYTE   UNIT     XDATA          ?XD?SPI_CONFIG?SYSTEM_INIT
   *DEL*:           000033H   BYTE   UNIT     CODE           ?PR?CMP_CONFIG?SYSTEM_INIT
   *DEL*:           000008H   BYTE   UNIT     XDATA          ?XD?CMP_CONFIG?SYSTEM_INIT
   *DEL*:           000042H   BYTE   UNIT     CODE           ?PR?EXTI_CONFIG?SYSTEM_INIT
   *DEL*:           000001H   BYTE   UNIT     XDATA          ?XD?EXTI_CONFIG?SYSTEM_INIT
   *DEL*:           00003EH   BYTE   UNIT     CODE           ?PR?DISPLAYSCAN?APP
   *DEL*:           000043H   BYTE   UNIT     CONST          ?CO?APP
   *DEL*:           000076H   BYTE   UNIT     CODE           ?PR?INTTOUART_INIT?APP_INT_UART1
   *DEL*:           00000AH   BYTE   UNIT     XDATA          ?XD?INTTOUART_INIT?APP_INT_UART1
   *DEL*:           0000E5H   BYTE   UNIT     CODE           ?PR?SAMPLE_INTTOUART?APP_INT_UART1
   *DEL*:           00005EH   BYTE   UNIT     CONST          ?CO?APP_INT_UART1
   *DEL*:           0000B0H   BYTE   UNIT     CODE           ?PR?RTC_INIT?APP_RTC
   *DEL*:           000016H   BYTE   UNIT     XDATA          ?XD?RTC_INIT?APP_RTC
   *DEL*:           0000DFH   BYTE   UNIT     CODE           ?PR?SAMPLE_RTC?APP_RTC
   *DEL*:           000075H   BYTE   UNIT     CODE           ?PR?DISPLAYRTC?APP_RTC
   *DEL*:           000035H   BYTE   UNIT     CODE           ?PR?WRITERTC?APP_RTC
   *DEL*:           000005H   BYTE   UNIT     CODE           ?PR?IO_KEYDELAY?APP_RTC
   *DEL*:           000089H   BYTE   UNIT     CODE           ?PR?IO_KEYSCAN?APP_RTC
   *DEL*:           000057H   BYTE   UNIT     CONST          ?CO?APP_RTC
   *DEL*:           000077H   BYTE   UNIT     CODE           ?PR?I2C_PS_INIT?APP_I2C_PS
   *DEL*:           00000FH   BYTE   UNIT     XDATA          ?XD?I2C_PS_INIT?APP_I2C_PS
   *DEL*:           0000CDH   BYTE   UNIT     CODE           ?PR?SAMPLE_I2C_PS?APP_I2C_PS
   *DEL*:           00002CH   BYTE   UNIT     CONST          ?CO?APP_I2C_PS
   *DEL*:           00005BH   BYTE   UNIT     CODE           ?PR?SPI_PS_INIT?APP_SPI_PS
   *DEL*:           000010H   BYTE   UNIT     XDATA          ?XD?SPI_PS_INIT?APP_SPI_PS
   *DEL*:           0000A5H   BYTE   UNIT     CODE           ?PR?SAMPLE_SPI_PS?APP_SPI_PS
   *DEL*:           000001H   BYTE   UNIT     XDATA          ?XD?SAMPLE_SPI_PS?APP_SPI_PS
   *DEL*:           000022H   BYTE   UNIT     CODE           ?PR?WDT_INIT?APP_WDT
   *DEL*:           000003H   BYTE   UNIT     XDATA          ?XD?WDT_INIT?APP_WDT
   *DEL*:           00002FH   BYTE   UNIT     CODE           ?PR?SAMPLE_WDT?APP_WDT
   *DEL*:           000051H   BYTE   UNIT     CODE           ?PR?EEPROM_INIT?APP_EEPROM
   *DEL*:           000009H   BYTE   UNIT     XDATA          ?XD?EEPROM_INIT?APP_EEPROM
   *DEL*:           000043H   BYTE   UNIT     CODE           ?PR?_CHECKDATA?APP_EEPROM
   *DEL*:           000048H   BYTE   UNIT     CODE           ?PR?GETADDRESS?APP_EEPROM
   *DEL*:           000027H   BYTE   UNIT     CODE           ?PR?GETDATALENGTH?APP_EEPROM
   *DEL*:           000255H   BYTE   UNIT     CODE           ?PR?SAMPLE_EEPROM?APP_EEPROM
   *DEL*:           000005H   BYTE   UNIT     XDATA          ?XD?SAMPLE_EEPROM?APP_EEPROM
   *DEL*:           000121H   BYTE   UNIT     CONST          ?CO?APP_EEPROM
   *DEL*:           0000EFH   BYTE   UNIT     CODE           ?PR?PWMA_OUTPUT_INIT?APP_PWMA_OUTPUT
   *DEL*:           000009H   BYTE   UNIT     XDATA          ?XD?PWMA_OUTPUT_INIT?APP_PWMA_OUTPUT
   *DEL*:           00010FH   BYTE   UNIT     CODE           ?PR?SAMPLE_PWMA_OUTPUT?APP_PWMA_OUTPUT
   *DEL*:           0000E6H   BYTE   UNIT     CODE           ?PR?PWMB_OUTPUT_INIT?APP_PWMB_OUTPUT
   *DEL*:           000009H   BYTE   UNIT     XDATA          ?XD?PWMB_OUTPUT_INIT?APP_PWMB_OUTPUT
   *DEL*:           00010FH   BYTE   UNIT     CODE           ?PR?SAMPLE_PWMB_OUTPUT?APP_PWMB_OUTPUT
   *DEL*:           0000C9H   BYTE   UNIT     CODE           ?PR?PCA_PWM_INIT?APP_PCA_PWM
   *DEL*:           000005H   BYTE   UNIT     XDATA          ?XD?PCA_PWM_INIT?APP_PCA_PWM
   *DEL*:           0000C0H   BYTE   UNIT     CODE           ?PR?SAMPLE_PCA_PWM?APP_PCA_PWM
   *DEL*:           0000CDH   BYTE   UNIT     CODE           ?PR?PCA_CAPTURE_INIT?APP_PCA_CAPTURE
   *DEL*:           00000EH   BYTE   UNIT     XDATA          ?XD?PCA_CAPTURE_INIT?APP_PCA_CAPTURE
   *DEL*:           0000DFH   BYTE   UNIT     CODE           ?PR?SAMPLE_PCA_CAPTURE?APP_PCA_CAPTURE
   *DEL*:           000023H   BYTE   UNIT     CONST          ?CO?APP_PCA_CAPTURE
   *DEL*:           0000C0H   BYTE   UNIT     CODE           ?PR?PWM15BIT_INIT?APP_PWM15BIT
LX51 LINKER/LOCATER V4.66.87.0                                                        04/03/2025  13:07:21  PAGE 7


   *DEL*:           000009H   BYTE   UNIT     XDATA          ?XD?PWM15BIT_INIT?APP_PWM15BIT
   *DEL*:           0000CCH   BYTE   UNIT     CODE           ?PR?SAMPLE_PWM15BIT?APP_PWM15BIT
   *DEL*:           00006DH   BYTE   UNIT     CODE           ?PR?_CMP_INILIZE?STC8G_H_COMPARE
   *DEL*:           000010H   BYTE   UNIT     CODE           ?PR?_DELAY_MS?STC8G_H_DELAY
   *DEL*:           00000EH   BYTE   UNIT     CODE           ?PR?DISABLEEEPROM?STC8G_H_EEPROM
   *DEL*:           00001AH   BYTE   UNIT     CODE           ?PR?EEPROM_TRIG?STC8G_H_EEPROM
   *DEL*:           000032H   BYTE   UNIT     CODE           ?PR?_EEPROM_READ_N?STC8G_H_EEPROM
   *DEL*:           000007H   BYTE   UNIT     XDATA          ?XD?_EEPROM_READ_N?STC8G_H_EEPROM
   *DEL*:           000013H   BYTE   UNIT     CODE           ?PR?_EEPROM_SECTORERASE?STC8G_H_EEPROM
   *DEL*:           000039H   BYTE   UNIT     CODE           ?PR?_EEPROM_WRITE_N?STC8G_H_EEPROM
   *DEL*:           000007H   BYTE   UNIT     XDATA          ?XD?_EEPROM_WRITE_N?STC8G_H_EEPROM
   *DEL*:           000033H   BYTE   UNIT     CODE           ?PR?_EXT_INILIZE?STC8G_H_EXTI
   *DEL*:           000254H   BYTE   UNIT     CODE           ?PR?_GPIO_INILIZE?STC8G_H_GPIO
   *DEL*:           00007CH   BYTE   UNIT     CODE           ?PR?_I2C_INIT?STC8G_H_I2C
   *DEL*:           000008H   BYTE   UNIT     CODE           ?PR?GET_MSBUSY_STATUS?STC8G_H_I2C
   *DEL*:           00000CH   BYTE   UNIT     CODE           ?PR?WAIT?STC8G_H_I2C
   *DEL*:           000009H   BYTE   UNIT     CODE           ?PR?START?STC8G_H_I2C
   *DEL*:           00000EH   BYTE   UNIT     CODE           ?PR?_SENDDATA?STC8G_H_I2C
   *DEL*:           000017H   BYTE   UNIT     CODE           ?PR?RECVACK?STC8G_H_I2C
   *DEL*:           00000FH   BYTE   UNIT     CODE           ?PR?RECVDATA?STC8G_H_I2C
   *DEL*:           00000EH   BYTE   UNIT     CODE           ?PR?SENDACK?STC8G_H_I2C
   *DEL*:           00000FH   BYTE   UNIT     CODE           ?PR?SENDNAK?STC8G_H_I2C
   *DEL*:           000009H   BYTE   UNIT     CODE           ?PR?STOP?STC8G_H_I2C
   *DEL*:           00000DH   BYTE   UNIT     CODE           ?PR?_SENDCMDDATA?STC8G_H_I2C
   *DEL*:           000033H   BYTE   UNIT     CODE           ?PR?_I2C_WRITENBYTE?STC8G_H_I2C
   *DEL*:           000006H   BYTE   UNIT     XDATA          ?XD?_I2C_WRITENBYTE?STC8G_H_I2C
   *DEL*:           000039H   BYTE   UNIT     CODE           ?PR?_I2C_READNBYTE?STC8G_H_I2C
   *DEL*:           000006H   BYTE   UNIT     XDATA          ?XD?_I2C_READNBYTE?STC8G_H_I2C
   *DEL*:           00000FH   BYTE   UNIT     CODE           ?PR?_TX1_WRITE2BUFF?STC8G_H_UART
   *DEL*:           000013H   BYTE   UNIT     CODE           ?PR?_PRINTSTRING1?STC8G_H_UART
   *DEL*:           00000FH   BYTE   UNIT     CODE           ?PR?_TX3_WRITE2BUFF?STC8G_H_UART
   *DEL*:           000013H   BYTE   UNIT     CODE           ?PR?_PRINTSTRING3?STC8G_H_UART
   *DEL*:           00000FH   BYTE   UNIT     CODE           ?PR?_TX4_WRITE2BUFF?STC8G_H_UART
   *DEL*:           000013H   BYTE   UNIT     CODE           ?PR?_PRINTSTRING4?STC8G_H_UART
   *DEL*:           000005H   BYTE   UNIT     CODE           ?PR?_PUTCHAR?STC8G_H_UART
   *DEL*:           00006CH   BYTE   UNIT     CODE           ?PR?_UPDATEPCAPWM?STC8G_PCA
   *DEL*:           0000D7H   BYTE   UNIT     CODE           ?PR?_PCA_INIT?STC8G_PCA
   *DEL*:           000054H   BYTE   UNIT     CODE           ?PR?_NVIC_PCA_INIT?STC8G_PCA
   *DEL*:           00008DH   BYTE   UNIT     CODE           ?PR?_PWMCHANNELCTRL?STC8G_PWM15BIT
   *DEL*:           000008H   BYTE   UNIT     XDATA          ?XD?_PWMCHANNELCTRL?STC8G_PWM15BIT
   *DEL*:           000064H   BYTE   UNIT     CODE           ?PR?_PWM15DUTY?STC8G_PWM15BIT
   *DEL*:           00003BH   BYTE   UNIT     CODE           ?PR?_PWMLEVELSET?STC8G_PWM15BIT
   *DEL*:           00029EH   BYTE   UNIT     CODE           ?PR?_PWM15_INIT?STC8G_PWM15BIT
   *DEL*:           000180H   BYTE   UNIT     CONST          ?CO?STC8G_PWM15BIT
   *DEL*:           000412H   BYTE   UNIT     CODE           ?PR?_PWM_CONFIGURATION?STC8H_PWM
   *DEL*:           00014DH   BYTE   UNIT     CODE           ?PR?_UPDATEPWM?STC8H_PWM
   *DEL*:           00007FH   BYTE   UNIT     CODE           ?PR?_SPI_INIT?STC8G_H_SPI
   *DEL*:           000011H   BYTE   UNIT     CODE           ?PR?_SPI_SETMODE?STC8G_H_SPI
   *DEL*:           000008H   BYTE   UNIT     CODE           ?PR?_SPI_WRITEBYTE?STC8G_H_SPI
   *DEL*:           00000CH   BYTE   UNIT     CODE           ?PR?I2C_DELAY?STC8G_H_SOFT_I2C
   *DEL*:           00000DH   BYTE   UNIT     CODE           ?PR?I2C_START?STC8G_H_SOFT_I2C
   *DEL*:           00000AH   BYTE   UNIT     CODE           ?PR?I2C_STOP?STC8G_H_SOFT_I2C
   *DEL*:           00000AH   BYTE   UNIT     CODE           ?PR?S_ACK?STC8G_H_SOFT_I2C
   *DEL*:           000008H   BYTE   UNIT     CODE           ?PR?S_NOACK?STC8G_H_SOFT_I2C
   *DEL*:           000011H   BYTE   UNIT     CODE           ?PR?I2C_CHECK_ACK?STC8G_H_SOFT_I2C
   *DEL*:           00001DH   BYTE   UNIT     CODE           ?PR?_I2C_WRITEABYTE?STC8G_H_SOFT_I2C
   *DEL*:           00001BH   BYTE   UNIT     CODE           ?PR?I2C_READABYTE?STC8G_H_SOFT_I2C
   *DEL*:           000037H   BYTE   UNIT     CODE           ?PR?_SI2C_WRITENBYTE?STC8G_H_SOFT_I2C
   *DEL*:           000006H   BYTE   UNIT     XDATA          ?XD?_SI2C_WRITENBYTE?STC8G_H_SOFT_I2C
   *DEL*:           000052H   BYTE   UNIT     CODE           ?PR?_SI2C_READNBYTE?STC8G_H_SOFT_I2C
   *DEL*:           000006H   BYTE   UNIT     XDATA          ?XD?_SI2C_READNBYTE?STC8G_H_SOFT_I2C
   *DEL*:           00000EH   BYTE   UNIT     CODE           ?PR?BITTIME?STC8G_H_SOFT_UART
   *DEL*:           00002BH   BYTE   UNIT     CODE           ?PR?_TXSEND?STC8G_H_SOFT_UART
   *DEL*:           000010H   BYTE   UNIT     CODE           ?PR?_PRINTSTRING?STC8G_H_SOFT_UART
   *DEL*:           000029H   BYTE   UNIT     CODE           ?PR?_WDT_INILIZE?STC8G_H_WDT
LX51 LINKER/LOCATER V4.66.87.0                                                        04/03/2025  13:07:21  PAGE 8


   *DEL*:           000004H   BYTE   UNIT     CODE           ?PR?WDT_CLEAR?STC8G_H_WDT
   *DEL*:           000041H   BYTE   UNIT     CODE           ?PR?_NVIC_TIMER1_INIT?STC8G_H_NVIC
   *DEL*:           000022H   BYTE   UNIT     CODE           ?PR?_NVIC_TIMER2_INIT?STC8G_H_NVIC
   *DEL*:           000022H   BYTE   UNIT     CODE           ?PR?_NVIC_TIMER3_INIT?STC8G_H_NVIC
   *DEL*:           000023H   BYTE   UNIT     CODE           ?PR?_NVIC_TIMER4_INIT?STC8G_H_NVIC
   *DEL*:           000041H   BYTE   UNIT     CODE           ?PR?_NVIC_INT0_INIT?STC8G_H_NVIC
   *DEL*:           000041H   BYTE   UNIT     CODE           ?PR?_NVIC_INT1_INIT?STC8G_H_NVIC
   *DEL*:           000018H   BYTE   UNIT     CODE           ?PR?_NVIC_INT2_INIT?STC8G_H_NVIC
   *DEL*:           000019H   BYTE   UNIT     CODE           ?PR?_NVIC_INT3_INIT?STC8G_H_NVIC
   *DEL*:           00001AH   BYTE   UNIT     CODE           ?PR?_NVIC_INT4_INIT?STC8G_H_NVIC
   *DEL*:           00004BH   BYTE   UNIT     CODE           ?PR?_NVIC_CMP_INIT?STC8G_H_NVIC
   *DEL*:           00005DH   BYTE   UNIT     CODE           ?PR?_NVIC_I2C_INIT?STC8G_H_NVIC
   *DEL*:           000041H   BYTE   UNIT     CODE           ?PR?_NVIC_UART1_INIT?STC8G_H_NVIC
   *DEL*:           00004AH   BYTE   UNIT     CODE           ?PR?_NVIC_UART3_INIT?STC8G_H_NVIC
   *DEL*:           000048H   BYTE   UNIT     CODE           ?PR?_NVIC_UART4_INIT?STC8G_H_NVIC
   *DEL*:           000047H   BYTE   UNIT     CODE           ?PR?_NVIC_SPI_INIT?STC8G_H_NVIC
   *DEL*:           00007FH   BYTE   UNIT     CODE           ?PR?_NVIC_PWM_INIT?STC8G_H_NVIC
   *DEL*:           00003AH   BYTE   UNIT     CODE           ?PR?_NVIC_RTC_INIT?STC8G_H_NVIC
   *DEL*:           000143H   BYTE   UNIT     CODE           ?PR?_RTC_INILIZE?STC8H_RTC
   *DEL*:           000365H   BYTE   UNIT     CODE           ?PR?PRINTF?PRINTF
   *DEL*:           000005H   BYTE   UNIT     DATA           ?DT?PRINTF?PRINTF
   *DEL*:           000001H.1 BIT    UNIT     BIT            ?BI?PRINTF?PRINTF
   *DEL*:           000028H   BYTE   UNIT     XDATA          ?XD?PRINTF?PRINTF



OVERLAY MAP OF MODULE:   .\list\STC8G-H-LIB (MAIN)


FUNCTION/MODULE                           XDATA_GROUP
--> CALLED FUNCTION/MODULE                START  STOP
=====================================================
ADC_ISR_HANDLER/STC8G_H_ADC_ISR           ----- -----

*** NEW ROOT ****************************

CMP_ISR_HANDLER/STC8G_H_COMPARE_ISR       ----- -----

*** NEW ROOT ****************************

INT0_ISR_HANDLER/STC8G_H_EXTI_ISR         ----- -----

*** NEW ROOT ****************************

INT1_ISR_HANDLER/STC8G_H_EXTI_ISR         ----- -----

*** NEW ROOT ****************************

INT2_ISR_HANDLER/STC8G_H_EXTI_ISR         ----- -----

*** NEW ROOT ****************************

INT3_ISR_HANDLER/STC8G_H_EXTI_ISR         ----- -----

*** NEW ROOT ****************************

INT4_ISR_HANDLER/STC8G_H_EXTI_ISR         ----- -----

*** NEW ROOT ****************************

I2C_ISR_HANDLER/STC8G_H_I2C_ISR           ----- -----

*** NEW ROOT ****************************

TIMER0_ISR_HANDLER/STC8G_H_TIMER_ISR      ----- -----
LX51 LINKER/LOCATER V4.66.87.0                                                        04/03/2025  13:07:21  PAGE 9


  +--> TASK_MARKS_HANDLER_CALLBACK/TASK

TASK_MARKS_HANDLER_CALLBACK/TASK          ----- -----

*** NEW ROOT ****************************

TIMER1_ISR_HANDLER/STC8G_H_TIMER_ISR      ----- -----

*** NEW ROOT ****************************

TIMER2_ISR_HANDLER/STC8G_H_TIMER_ISR      ----- -----

*** NEW ROOT ****************************

TIMER3_ISR_HANDLER/STC8G_H_TIMER_ISR      ----- -----

*** NEW ROOT ****************************

TIMER4_ISR_HANDLER/STC8G_H_TIMER_ISR      ----- -----

*** NEW ROOT ****************************

UART1_ISR_HANDLER/STC8G_H_UART_ISR        ----- -----

*** NEW ROOT ****************************

UART2_ISR_HANDLER/STC8G_H_UART_ISR        ----- -----

*** NEW ROOT ****************************

UART3_ISR_HANDLER/STC8G_H_UART_ISR        ----- -----

*** NEW ROOT ****************************

UART4_ISR_HANDLER/STC8G_H_UART_ISR        ----- -----

*** NEW ROOT ****************************

PCA_ISR_HANDLER/STC8G_PCA_ISR             ----- -----

*** NEW ROOT ****************************

PWM0_ISR_HANDLER/STC8G_PWM15BIT_ISR       ----- -----

*** NEW ROOT ****************************

PWM1_ISR_HANDLER/STC8G_PWM15BIT_ISR       ----- -----

*** NEW ROOT ****************************

PWM2_ISR_HANDLER/STC8G_PWM15BIT_ISR       ----- -----

*** NEW ROOT ****************************

PWM3_ISR_HANDLER/STC8G_PWM15BIT_ISR       ----- -----

*** NEW ROOT ****************************

PWM4_ISR_HANDLER/STC8G_PWM15BIT_ISR       ----- -----

*** NEW ROOT ****************************

SPI_ISR_HANDLER/STC8G_H_SPI_ISR           ----- -----

*** NEW ROOT ****************************
LX51 LINKER/LOCATER V4.66.87.0                                                        04/03/2025  13:07:21  PAGE 10



RTC_ISR_HANDLER/STC8H_RTC_ISR             ----- -----

*** NEW ROOT ****************************

?C_C51STARTUP                             ----- -----
  +--> MAIN/MAIN
  +--> ?C_INITSEG

MAIN/MAIN                                 ----- -----
  +--> SYS_INIT/SYSTEM_INIT
  +--> TASK_PRO_HANDLER_CALLBACK/TASK

SYS_INIT/SYSTEM_INIT                      ----- -----
  +--> TIMER_CONFIG/SYSTEM_INIT
  +--> SWITCH_CONFIG/SYSTEM_INIT
  +--> APP_CONFIG/APP

TIMER_CONFIG/SYSTEM_INIT                  03B9H 03BFH
  +--> _TIMER_INILIZE/STC8G_H_TIMER
  +--> _NVIC_TIMER0_INIT/STC8G_H_NVIC

_TIMER_INILIZE/STC8G_H_TIMER              ----- -----

_NVIC_TIMER0_INIT/STC8G_H_NVIC            ----- -----

SWITCH_CONFIG/SYSTEM_INIT                 ----- -----

APP_CONFIG/APP                            ----- -----
  +--> LAMP_INIT/APP_LAMP
  +--> ADTOUART_INIT/APP_AD_UART2

LAMP_INIT/APP_LAMP                        ----- -----

ADTOUART_INIT/APP_AD_UART2                03B9H 03C6H
  +--> _UART_CONFIGURATION/STC8G_H_UART
  +--> _NVIC_UART2_INIT/STC8G_H_NVIC
  +--> _ADC_INILIZE/STC8G_H_ADC
  +--> _ADC_POWERCONTROL/STC8G_H_ADC
  +--> _NVIC_ADC_INIT/STC8G_H_NVIC

_UART_CONFIGURATION/STC8G_H_UART          03C7H 03D0H

_NVIC_UART2_INIT/STC8G_H_NVIC             ----- -----

_ADC_INILIZE/STC8G_H_ADC                  ----- -----

_ADC_POWERCONTROL/STC8G_H_ADC             ----- -----

_NVIC_ADC_INIT/STC8G_H_NVIC               ----- -----

TASK_PRO_HANDLER_CALLBACK/TASK            03B9H 03B9H

?C_INITSEG                                ----- -----
  +--> SAMPLE_LAMP/APP_LAMP
  +--> SAMPLE_ADTOUART/APP_AD_UART2

SAMPLE_LAMP/APP_LAMP                      ----- -----

SAMPLE_ADTOUART/APP_AD_UART2              03B9H 03BAH
  +--> _GET_ADCRESULT/STC8G_H_ADC
  +--> _TX2_WRITE2BUFF/STC8G_H_UART
  +--> _PRINTSTRING2/STC8G_H_UART

_GET_ADCRESULT/STC8G_H_ADC                03BBH 03BCH
LX51 LINKER/LOCATER V4.66.87.0                                                        04/03/2025  13:07:21  PAGE 11



_TX2_WRITE2BUFF/STC8G_H_UART              ----- -----

_PRINTSTRING2/STC8G_H_UART                ----- -----
  +--> _TX2_WRITE2BUFF/STC8G_H_UART



PUBLIC SYMBOLS OF MODULE:  .\list\STC8G-H-LIB (MAIN)


      VALUE       CLASS    TYPE      PUBLIC SYMBOL NAME
      =================================================
*DEL*:00000000H   XDATA    BYTE      ?_EEPROM_read_n?BYTE
*DEL*:00000000H   XDATA    BYTE      ?_EEPROM_write_n?BYTE
*DEL*:00000000H   XDATA    BYTE      ?_I2C_ReadNbyte?BYTE
*DEL*:00000000H   XDATA    BYTE      ?_I2C_WriteNbyte?BYTE
*DEL*:00000000H   XDATA    ---       ?_PRINTF517?BYTE
*DEL*:00000000H   XDATA    ---       ?_PRINTF?BYTE
*DEL*:00000000H   XDATA    BYTE      ?_PWMChannelCtrl?BYTE
*DEL*:00000000H   XDATA    BYTE      ?_SI2C_ReadNbyte?BYTE
*DEL*:00000000H   XDATA    BYTE      ?_SI2C_WriteNbyte?BYTE
*DEL*:00000000H   XDATA    ---       ?_SPRINTF517?BYTE
*DEL*:00000000H   XDATA    ---       ?_SPRINTF?BYTE
      01000A85H   CODE     ---       ?C?CCASE
      01000791H   CODE     ---       ?C?CLDOPTR
      01000778H   CODE     ---       ?C?CLDPTR
      00000000H   NUMBER   ---       ?C?CODESEG
      010007BEH   CODE     ---       ?C?CSTPTR
      01000A29H   CODE     ---       ?C?ICALL
      01000A2DH   CODE     ---       ?C?ICALL2
      01000825H   CODE     ---       ?C?IILDX
      0100083BH   CODE     ---       ?C?ILDIX
      0100087CH   CODE     ---       ?C?ILDOPTR
      01000851H   CODE     ---       ?C?ILDPTR
      01000A55H   CODE     ---       ?C?LLDCODE0
      01000A2FH   CODE     ---       ?C?LLDIDATA0
      010009BCH   CODE     ---       ?C?LLDOPTR0
      01000A48H   CODE     ---       ?C?LLDPDATA0
      01000A3CH   CODE     ---       ?C?LLDXDATA0
      010009F8H   CODE     ---       ?C?LSTKXDATA
      010009ECH   CODE     ---       ?C?LSTXDATA
      01000A65H   CODE     ---       ?C?PLDIXDATA
      01000A7CH   CODE     ---       ?C?PSTXDATA
      01000982H   CODE     ---       ?C?SLCMP
      010007D0H   CODE     ---       ?C?UIDIV
      01000998H   CODE     ---       ?C?ULCMP
      010008F0H   CODE     ---       ?C?ULDIV
      010009A9H   CODE     ---       ?C?ULSHR
      00000000H   NUMBER   ---       ?C?XDATASEG
      0100105AH   CODE     ---       ?C_START
      01000000H   CODE     ---       ?C_STARTUP
      01001252H   CODE     ---       _ADC_Inilize
      010000B6H   CODE     ---       _ADC_PowerControl
*DEL*:0000000CH   CODE     ---       _CheckData
*DEL*:00000000H   CODE     ---       _CMP_Inilize
*DEL*:00000000H   CODE     ---       _delay_ms
*DEL*:00000000H   CODE     ---       _EEPROM_read_n
*DEL*:00000000H   CODE     ---       _EEPROM_SectorErase
*DEL*:00000000H   CODE     ---       _EEPROM_write_n
*DEL*:00000000H   CODE     ---       _Ext_Inilize
      01001126H   CODE     ---       _Get_ADCResult
*DEL*:00000000H   CODE     ---       _GPIO_Inilize
*DEL*:00000000H   CODE     ---       _I2C_Init
*DEL*:00000000H   CODE     ---       _I2C_ReadNbyte
LX51 LINKER/LOCATER V4.66.87.0                                                        04/03/2025  13:07:21  PAGE 12


*DEL*:00000000H   CODE     ---       _I2C_WriteAbyte
*DEL*:00000000H   CODE     ---       _I2C_WriteNbyte
      01001500H   CODE     ---       _NVIC_ADC_Init
*DEL*:00000000H   CODE     ---       _NVIC_CMP_Init
*DEL*:00000000H   CODE     ---       _NVIC_I2C_Init
*DEL*:00000000H   CODE     ---       _NVIC_INT0_Init
*DEL*:00000000H   CODE     ---       _NVIC_INT1_Init
*DEL*:00000000H   CODE     ---       _NVIC_INT2_Init
*DEL*:00000000H   CODE     ---       _NVIC_INT3_Init
*DEL*:00000000H   CODE     ---       _NVIC_INT4_Init
*DEL*:00000000H   CODE     ---       _NVIC_PCA_Init
*DEL*:00000000H   CODE     ---       _NVIC_PWM_Init
*DEL*:00000000H   CODE     ---       _NVIC_RTC_Init
*DEL*:00000000H   CODE     ---       _NVIC_SPI_Init
      010014BFH   CODE     ---       _NVIC_Timer0_Init
*DEL*:00000000H   CODE     ---       _NVIC_Timer1_Init
*DEL*:00000000H   CODE     ---       _NVIC_Timer2_Init
*DEL*:00000000H   CODE     ---       _NVIC_Timer3_Init
*DEL*:00000000H   CODE     ---       _NVIC_Timer4_Init
*DEL*:00000000H   CODE     ---       _NVIC_UART1_Init
      0100147CH   CODE     ---       _NVIC_UART2_Init
*DEL*:00000000H   CODE     ---       _NVIC_UART3_Init
*DEL*:00000000H   CODE     ---       _NVIC_UART4_Init
*DEL*:00000000H   CODE     ---       _PCA_Init
*DEL*:0000006BH   CODE     ---       _PRINTF
*DEL*:0000006BH   CODE     ---       _PRINTF517
*DEL*:00000000H   CODE     ---       _PrintString
*DEL*:00000000H   CODE     ---       _PrintString1
      0100006EH   CODE     ---       _PrintString2
*DEL*:00000000H   CODE     ---       _PrintString3
*DEL*:00000000H   CODE     ---       _PrintString4
*DEL*:00000000H   CODE     ---       _putchar
*DEL*:00000000H   CODE     ---       _PWM15_Init
*DEL*:00000000H   CODE     ---       _PWM15Duty
*DEL*:00000000H   CODE     ---       _PWM_Configuration
*DEL*:00000000H   CODE     ---       _PWMChannelCtrl
*DEL*:00000000H   CODE     ---       _PWMLevelSet
*DEL*:00000000H   CODE     ---       _RTC_Inilize
*DEL*:00000000H   CODE     ---       _SendCmdData
*DEL*:00000000H   CODE     ---       _SendData
*DEL*:00000000H   CODE     ---       _SI2C_ReadNbyte
*DEL*:00000000H   CODE     ---       _SI2C_WriteNbyte
*DEL*:00000000H   CODE     ---       _SPI_Init
*DEL*:00000000H   CODE     ---       _SPI_SetMode
*DEL*:00000000H   CODE     ---       _SPI_WriteByte
*DEL*:00000065H   CODE     ---       _SPRINTF
*DEL*:00000065H   CODE     ---       _SPRINTF517
      01000AABH   CODE     ---       _Timer_Inilize
*DEL*:00000000H   CODE     ---       _TX1_write2buff
      010016D1H   CODE     ---       _TX2_write2buff
*DEL*:00000000H   CODE     ---       _TX3_write2buff
*DEL*:00000000H   CODE     ---       _TX4_write2buff
*DEL*:00000000H   CODE     ---       _TxSend
      01000125H   CODE     ---       _UART_Configuration
*DEL*:00000000H   CODE     ---       _UpdatePcaPwm
*DEL*:00000000H   CODE     ---       _UpdatePwm
*DEL*:00000000H   CODE     ---       _WDT_Inilize
*SFR* 000000D0H.6 DATA     BIT       AC
*SFR* 000000E0H   DATA     BYTE      ACC
*DEL*:00000000H   CODE     ---       ADC_config
*SFR* 000000BCH   DATA     BYTE      ADC_CONTR
      01000006H   CODE     ---       ADC_ISR_Handler
*SFR* 000000BDH   DATA     BYTE      ADC_RES
*SFR* 000000BEH   DATA     BYTE      ADC_RESL
*SFR* 000000DEH   DATA     BYTE      ADCCFG
LX51 LINKER/LOCATER V4.66.87.0                                                        04/03/2025  13:07:21  PAGE 13


      0100119EH   CODE     ---       ADtoUART_init
      0100011CH   CODE     ---       APP_config
*SFR* 000000EFH   DATA     BYTE      AUXINTIF
*SFR* 0000008EH   DATA     BYTE      AUXR
*SFR* 000000F0H   DATA     BYTE      B
      00000022H.1 BIT      BIT       B_1S
      00000022H.0 BIT      BIT       B_Alarm
      00000021H.3 BIT      BIT       B_Capture0
      00000021H.4 BIT      BIT       B_Capture1
      00000021H.5 BIT      BIT       B_Capture2
      00000021H.6 BIT      BIT       B_PWM0_Dir
      00000021H.7 BIT      BIT       B_PWM1_Dir
      00000022H.4 BIT      BIT       B_SPI_Busy
*DEL*:00000000H   CODE     ---       BitTime
      0200042BH   XDATA    WORD      CAP0_New
      02000425H   XDATA    WORD      CAP0_Old
      0200042DH   XDATA    WORD      CAP1_New
      02000427H   XDATA    WORD      CAP1_Old
      0200042FH   XDATA    WORD      CAP2_New
      02000429H   XDATA    WORD      CAP2_Old
      0200041FH   XDATA    WORD      CCAP0_tmp
*SFR* 000000FAH   DATA     BYTE      CCAP0H
*SFR* 000000EAH   DATA     BYTE      CCAP0L
      02000421H   XDATA    WORD      CCAP1_tmp
*SFR* 000000FBH   DATA     BYTE      CCAP1H
*SFR* 000000EBH   DATA     BYTE      CCAP1L
      02000423H   XDATA    WORD      CCAP2_tmp
*SFR* 000000FCH   DATA     BYTE      CCAP2H
*SFR* 000000ECH   DATA     BYTE      CCAP2L
*SFR* 000000DAH   DATA     BYTE      CCAPM0
*SFR* 000000DBH   DATA     BYTE      CCAPM1
*SFR* 000000DCH   DATA     BYTE      CCAPM2
*SFR* 000000D8H.0 DATA     BIT       CCF0
*SFR* 000000D8H.1 DATA     BIT       CCF1
*SFR* 000000D8H.2 DATA     BIT       CCF2
*SFR* 000000D8H   DATA     BYTE      CCON
*SFR* 000000D8H.7 DATA     BIT       CF
*SFR* 000000F9H   DATA     BYTE      CH
*SFR* 000000E9H   DATA     BYTE      CL
*SFR* 000000D9H   DATA     BYTE      CMOD
*DEL*:00000000H   CODE     ---       CMP_config
      010016C0H   CODE     ---       CMP_ISR_Handler
*SFR* 000000E6H   DATA     BYTE      CMPCR1
*SFR* 000000E7H   DATA     BYTE      CMPCR2
      020003D2H   XDATA    BYTE      cnt50ms
      02000000H   XDATA    ---       COM1
      02000005H   XDATA    ---       COM2
      0200000AH   XDATA    ---       COM3
      0200000FH   XDATA    ---       COM4
*SFR* 000000D8H.6 DATA     BIT       CR
*SFR* 000000D0H.7 DATA     BIT       CY
*DEL*:00000000H   CODE     ---       DisableEEPROM
      020003E4H   XDATA    BYTE      display_index
      00000022H.5 BIT      BIT       DisplayFlag
*DEL*:00000000H   CODE     ---       DisplayRTC
*DEL*:00000000H   CODE     ---       DisplayScan
*SFR* 00000083H   DATA     BYTE      DPH
*SFR* 000000E5H   DATA     BYTE      DPH1
*SFR* 00000082H   DATA     BYTE      DPL
*SFR* 000000E4H   DATA     BYTE      DPL1
*SFR* 000000E3H   DATA     BYTE      DPS
*SFR* 000000A8H.7 DATA     BIT       EA
*SFR* 000000A8H.5 DATA     BIT       EADC
*DEL*:00000000H   CODE     ---       EEPROM_init
*DEL*:00000007H   CODE     ---       EEPROM_Trig
LX51 LINKER/LOCATER V4.66.87.0                                                        04/03/2025  13:07:21  PAGE 14


*SFR* 000000A8H.6 DATA     BIT       ELVD
*SFR* 000000A8H.4 DATA     BIT       ES
*SFR* 000000A8H.1 DATA     BIT       ET0
*SFR* 000000A8H.3 DATA     BIT       ET1
*SFR* 000000A8H.0 DATA     BIT       EX0
*SFR* 000000A8H.2 DATA     BIT       EX1
*DEL*:00000000H   CODE     ---       Exti_config
*SFR* 000000D0H.5 DATA     BIT       F0
*SFR* 000000D0H.1 DATA     BIT       F1
*DEL*:00000000H   CODE     ---       Get_MSBusy_Status
*DEL*:00000000H   CODE     ---       GetAddress
*DEL*:00000000H   CODE     ---       GetDataLength
*DEL*:00000000H   CODE     ---       GPIO_config
      020003DEH   XDATA    BYTE      hour
      02000431H   XDATA    ---       I2C_Buffer
*DEL*:00000005H   CODE     ---       I2C_Check_ACK
*DEL*:00000000H   CODE     ---       I2C_config
*DEL*:00000007H   CODE     ---       I2C_Delay
      01000F63H   CODE     ---       I2C_ISR_Handler
*DEL*:00000000H   CODE     ---       I2C_PS_init
*DEL*:00000000H   CODE     ---       I2C_ReadAbyte
*DEL*:00000000H   CODE     ---       I2C_Start
*DEL*:00000000H   CODE     ---       I2C_Stop
      02000449H   XDATA    ---       I2CIsr
*SFR* 000000C3H   DATA     BYTE      IAP_ADDRH
*SFR* 000000C4H   DATA     BYTE      IAP_ADDRL
*SFR* 000000C5H   DATA     BYTE      IAP_CMD
*SFR* 000000C7H   DATA     BYTE      IAP_CONTR
*SFR* 000000C2H   DATA     BYTE      IAP_DATA
*SFR* 000000F5H   DATA     BYTE      IAP_TPS
*SFR* 000000C6H   DATA     BYTE      IAP_TRIG
*SFR* 000000A8H   DATA     BYTE      IE
*SFR* 00000088H.1 DATA     BIT       IE0
*SFR* 00000088H.3 DATA     BIT       IE1
*SFR* 000000AFH   DATA     BYTE      IE2
      0200044EH   XDATA    BYTE      index
*SFR* 000000B0H.2 DATA     BIT       INT0
      01001661H   CODE     ---       INT0_ISR_Handler
*SFR* 000000B0H.3 DATA     BIT       INT1
      01001674H   CODE     ---       INT1_ISR_Handler
*SFR* 000000B0H.6 DATA     BIT       INT2
      01001687H   CODE     ---       INT2_ISR_Handler
*SFR* 000000B0H.7 DATA     BIT       INT3
      0100169AH   CODE     ---       INT3_ISR_Handler
*SFR* 000000B0H.0 DATA     BIT       INT4
      010016ADH   CODE     ---       INT4_ISR_Handler
*SFR* 0000008FH   DATA     BYTE      INTCLKO
*DEL*:00000000H   CODE     ---       INTtoUART_init
*DEL*:00000000H   CODE     ---       IO_KeyDelay
      020003DFH   XDATA    BYTE      IO_KeyHoldCnt
*DEL*:00000000H   CODE     ---       IO_KeyScan
      020003DDH   XDATA    BYTE      IO_KeyState
      020003E0H   XDATA    BYTE      IO_KeyState1
*SFR* 000000B8H   DATA     BYTE      IP
*SFR* 000000B5H   DATA     BYTE      IP2
*SFR* 000000B6H   DATA     BYTE      IP2H
*SFR* 000000DFH   DATA     BYTE      IP3
*SFR* 000000EEH   DATA     BYTE      IP3H
*SFR* 000000B7H   DATA     BYTE      IPH
*SFR* 0000009DH   DATA     BYTE      IRCBAND
*SFR* 0000009FH   DATA     BYTE      IRTRIM
*SFR* 00000088H.0 DATA     BIT       IT0
*SFR* 00000088H.2 DATA     BIT       IT1
      020003DCH   XDATA    BYTE      KeyCode
      020003E1H   XDATA    BYTE      KeyHoldCnt
LX51 LINKER/LOCATER V4.66.87.0                                                        04/03/2025  13:07:21  PAGE 15


      0100002EH   CODE     ---       Lamp_init
      020003D3H   XDATA    ---       LED8
      02000450H   XDATA    BYTE      ledIndex
      010016F6H   CONST    ---       ledNum
*SFR* 0000009EH   DATA     BYTE      LIRTRIM
      010016E0H   CODE     ---       main
      020003DBH   XDATA    BYTE      minute
      020003E2H   XDATA    WORD      msecond
*SFR* 000000D0H.2 DATA     BIT       OV
*SFR* 000000D0H.0 DATA     BIT       P
*SFR* 00000080H   DATA     BYTE      P0
*SFR* 00000080H.0 DATA     BIT       P00
*SFR* 00000080H.1 DATA     BIT       P01
*SFR* 00000080H.2 DATA     BIT       P02
*SFR* 00000080H.3 DATA     BIT       P03
*SFR* 00000080H.4 DATA     BIT       P04
*SFR* 00000080H.5 DATA     BIT       P05
*SFR* 00000080H.6 DATA     BIT       P06
*SFR* 00000080H.7 DATA     BIT       P07
*SFR* 00000094H   DATA     BYTE      P0M0
*SFR* 00000093H   DATA     BYTE      P0M1
*SFR* 00000090H   DATA     BYTE      P1
*SFR* 00000090H.0 DATA     BIT       P10
*SFR* 00000090H.1 DATA     BIT       P11
*SFR* 00000090H.2 DATA     BIT       P12
*SFR* 00000090H.3 DATA     BIT       P13
*SFR* 00000090H.4 DATA     BIT       P14
*SFR* 00000090H.5 DATA     BIT       P15
*SFR* 00000090H.6 DATA     BIT       P16
*SFR* 00000090H.7 DATA     BIT       P17
*SFR* 00000092H   DATA     BYTE      P1M0
*SFR* 00000091H   DATA     BYTE      P1M1
*SFR* 000000A0H   DATA     BYTE      P2
*SFR* 000000A0H.0 DATA     BIT       P20
*SFR* 000000A0H.1 DATA     BIT       P21
*SFR* 000000A0H.2 DATA     BIT       P22
*SFR* 000000A0H.3 DATA     BIT       P23
*SFR* 000000A0H.4 DATA     BIT       P24
*SFR* 000000A0H.5 DATA     BIT       P25
*SFR* 000000A0H.6 DATA     BIT       P26
*SFR* 000000A0H.7 DATA     BIT       P27
*SFR* 00000096H   DATA     BYTE      P2M0
*SFR* 00000095H   DATA     BYTE      P2M1
*SFR* 000000B0H   DATA     BYTE      P3
*SFR* 000000B0H.0 DATA     BIT       P30
*SFR* 000000B0H.1 DATA     BIT       P31
*SFR* 000000B0H.2 DATA     BIT       P32
*SFR* 000000B0H.3 DATA     BIT       P33
*SFR* 000000B0H.4 DATA     BIT       P34
*SFR* 000000B0H.5 DATA     BIT       P35
*SFR* 000000B0H.6 DATA     BIT       P36
*SFR* 000000B0H.7 DATA     BIT       P37
*SFR* 000000B2H   DATA     BYTE      P3M0
*SFR* 000000B1H   DATA     BYTE      P3M1
*SFR* 000000C0H   DATA     BYTE      P4
*SFR* 000000C0H.0 DATA     BIT       P40
*SFR* 000000C0H.1 DATA     BIT       P41
*SFR* 000000C0H.2 DATA     BIT       P42
*SFR* 000000C0H.3 DATA     BIT       P43
*SFR* 000000C0H.4 DATA     BIT       P44
*SFR* 000000C0H.5 DATA     BIT       P45
*SFR* 000000C0H.6 DATA     BIT       P46
*SFR* 000000C0H.7 DATA     BIT       P47
*SFR* 000000B4H   DATA     BYTE      P4M0
*SFR* 000000B3H   DATA     BYTE      P4M1
LX51 LINKER/LOCATER V4.66.87.0                                                        04/03/2025  13:07:21  PAGE 16


*SFR* 000000C8H   DATA     BYTE      P5
*SFR* 000000C8H.0 DATA     BIT       P50
*SFR* 000000C8H.1 DATA     BIT       P51
*SFR* 000000C8H.2 DATA     BIT       P52
*SFR* 000000C8H.3 DATA     BIT       P53
*SFR* 000000C8H.4 DATA     BIT       P54
*SFR* 000000C8H.5 DATA     BIT       P55
*SFR* 000000C8H.6 DATA     BIT       P56
*SFR* 000000C8H.7 DATA     BIT       P57
*SFR* 000000CAH   DATA     BYTE      P5M0
*SFR* 000000C9H   DATA     BYTE      P5M1
*SFR* 000000E8H   DATA     BYTE      P6
*SFR* 000000E8H.0 DATA     BIT       P60
*SFR* 000000E8H.1 DATA     BIT       P61
*SFR* 000000E8H.2 DATA     BIT       P62
*SFR* 000000E8H.3 DATA     BIT       P63
*SFR* 000000E8H.4 DATA     BIT       P64
*SFR* 000000E8H.5 DATA     BIT       P65
*SFR* 000000E8H.6 DATA     BIT       P66
*SFR* 000000E8H.7 DATA     BIT       P67
*SFR* 000000CCH   DATA     BYTE      P6M0
*SFR* 000000CBH   DATA     BYTE      P6M1
*SFR* 000000F8H   DATA     BYTE      P7
*SFR* 000000F8H.0 DATA     BIT       P70
*SFR* 000000F8H.1 DATA     BIT       P71
*SFR* 000000F8H.2 DATA     BIT       P72
*SFR* 000000F8H.3 DATA     BIT       P73
*SFR* 000000F8H.4 DATA     BIT       P74
*SFR* 000000F8H.5 DATA     BIT       P75
*SFR* 000000F8H.6 DATA     BIT       P76
*SFR* 000000F8H.7 DATA     BIT       P77
*SFR* 000000E2H   DATA     BYTE      P7M0
*SFR* 000000E1H   DATA     BYTE      P7M1
*SFR* 000000A2H   DATA     BYTE      P_SW1
*SFR* 000000BAH   DATA     BYTE      P_SW2
*SFR* 000000B0H.1 DATA     BIT       P_TXD
*SFR* 000000B8H.5 DATA     BIT       PADC
      02000416H   XDATA    BYTE      PCA0_mode
      02000417H   XDATA    BYTE      PCA1_mode
      02000418H   XDATA    BYTE      PCA2_mode
*DEL*:00000000H   CODE     ---       PCA_Capture_init
      01000D12H   CODE     ---       PCA_ISR_Handler
*SFR* 000000F2H   DATA     BYTE      PCA_PWM0
*SFR* 000000F3H   DATA     BYTE      PCA_PWM1
*SFR* 000000F4H   DATA     BYTE      PCA_PWM2
*DEL*:00000000H   CODE     ---       PCA_PWM_init
      02000419H   XDATA    WORD      PCA_Timer0
      0200041BH   XDATA    WORD      PCA_Timer1
      0200041DH   XDATA    WORD      PCA_Timer2
*SFR* 00000087H   DATA     BYTE      PCON
*SFR* 000000DCH   DATA     BYTE      PLLCR
*SFR* 000000B8H.6 DATA     BIT       PLVD
*SFR* 000000B8H.7 DATA     BIT       PPCA
*SFR* 000000B8H.4 DATA     BIT       PS
*SFR* 000000D0H   DATA     BYTE      PSW
*SFR* 000000B8H.1 DATA     BIT       PT0
*SFR* 000000B8H.3 DATA     BIT       PT1
      0200043FH   XDATA    WORD      pwm0
      010000C6H   CODE     ---       PWM0_ISR_Handler
      02000441H   XDATA    WORD      pwm1
*DEL*:00000000H   CODE     ---       PWM15bit_init
      00000020H.0 BIT      BIT       PWM1_Flag
      010015D1H   CODE     ---       PWM1_ISR_Handler
      02000443H   XDATA    WORD      pwm2
      00000020H.1 BIT      BIT       PWM2_Flag
LX51 LINKER/LOCATER V4.66.87.0                                                        04/03/2025  13:07:21  PAGE 17


      010015EEH   CODE     ---       PWM2_ISR_Handler
      00000020H.2 BIT      BIT       PWM3_Flag
      0100160BH   CODE     ---       PWM3_ISR_Handler
      00000020H.3 BIT      BIT       PWM4_Flag
      01001628H   CODE     ---       PWM4_ISR_Handler
      00000020H.4 BIT      BIT       PWM5_Flag
      00000020H.5 BIT      BIT       PWM6_Flag
      00000020H.6 BIT      BIT       PWM7_Flag
      00000020H.7 BIT      BIT       PWM8_Flag
      020003F6H   XDATA    ---       PWMA_Duty
*DEL*:00000000H   CODE     ---       PWMA_Output_init
      02000406H   XDATA    ---       PWMB_Duty
*DEL*:00000000H   CODE     ---       PWMB_Output_init
*SFR* 000000F6H   DATA     BYTE      PWMCFG01
*SFR* 000000F7H   DATA     BYTE      PWMCFG23
*SFR* 000000FEH   DATA     BYTE      PWMCFG45
*SFR* 000000F1H   DATA     BYTE      PWMSET
*DEL*:00000000H   CONST    ---       PWMxCR
*DEL*:00000120H   CONST    ---       PWMxHLD
*DEL*:00000060H   CONST    ---       PWMxT1
*DEL*:000000C0H   CONST    ---       PWMxT2
*SFR* 000000B8H.0 DATA     BIT       PX0
*SFR* 000000B8H.2 DATA     BIT       PX1
*SFR* 00000098H.2 DATA     BIT       RB8
*DEL*:0000000EH   CODE     ---       RecvACK
*DEL*:00000000H   CODE     ---       RecvData
*SFR* 00000098H.4 DATA     BIT       REN
*SFR* 00000098H.0 DATA     BIT       RI
*SFR* 000000D0H.3 DATA     BIT       RS0
*SFR* 000000D0H.4 DATA     BIT       RS1
*SFR* 000000FFH   DATA     BYTE      RSTCFG
*DEL*:00000000H   CODE     ---       RTC_init
      0100157CH   CODE     ---       RTC_ISR_Handler
      02000014H   XDATA    ---       RX1_Buffer
      02000094H   XDATA    ---       RX2_Buffer
      02000114H   XDATA    ---       RX3_Buffer
      020001D4H   XDATA    ---       RX4_Buffer
*SFR* 0000009BH   DATA     BYTE      S2BUF
*SFR* 0000009AH   DATA     BYTE      S2CON
*SFR* 000000ADH   DATA     BYTE      S3BUF
*SFR* 000000ACH   DATA     BYTE      S3CON
*SFR* 00000085H   DATA     BYTE      S4BUF
*SFR* 00000084H   DATA     BYTE      S4CON
*DEL*:00000000H   CODE     ---       S_ACK
*DEL*:00000000H   CODE     ---       S_NoACK
*SFR* 000000A9H   DATA     BYTE      SADDR
*SFR* 000000B9H   DATA     BYTE      SADEN
      01000EA6H   CODE     ---       Sample_ADtoUART
*DEL*:00000000H   CODE     ---       Sample_EEPROM
*DEL*:00000000H   CODE     ---       Sample_I2C_PS
*DEL*:00000000H   CODE     ---       Sample_INTtoUART
      01001645H   CODE     ---       Sample_Lamp
*DEL*:00000000H   CODE     ---       Sample_PCA_Capture
*DEL*:00000000H   CODE     ---       Sample_PCA_PWM
*DEL*:00000000H   CODE     ---       Sample_PWM15bit
*DEL*:00000000H   CODE     ---       Sample_PWMA_Output
*DEL*:00000000H   CODE     ---       Sample_PWMB_Output
*DEL*:00000000H   CODE     ---       Sample_RTC
*DEL*:00000000H   CODE     ---       Sample_SPI_PS
*DEL*:00000000H   CODE     ---       Sample_WDT
*SFR* 00000099H   DATA     BYTE      SBUF
*SFR* 00000080H.0 DATA     BIT       SCL
*SFR* 00000098H   DATA     BYTE      SCON
*SFR* 00000080H.1 DATA     BIT       SDA
      020003D1H   XDATA    BYTE      second
LX51 LINKER/LOCATER V4.66.87.0                                                        04/03/2025  13:07:21  PAGE 18


*DEL*:00000000H   CODE     ---       SendACK
*DEL*:00000000H   CODE     ---       SendNAK
*SFR* 00000098H.7 DATA     BIT       SM0
*SFR* 00000098H.6 DATA     BIT       SM1
*SFR* 00000098H.5 DATA     BIT       SM2
*SFR* 00000081H   DATA     BYTE      SP
*SFR* 000000CEH   DATA     BYTE      SPCTL
*SFR* 000000CFH   DATA     BYTE      SPDAT
*DEL*:00000000H   CODE     ---       SPI_config
      01001433H   CODE     ---       SPI_ISR_Handler
*SFR* 00000090H.4 DATA     BIT       SPI_MISO
*SFR* 000000A0H.4 DATA     BIT       SPI_MISO_2
*SFR* 000000C0H.1 DATA     BIT       SPI_MISO_3
*SFR* 000000B0H.3 DATA     BIT       SPI_MISO_4
*SFR* 00000090H.3 DATA     BIT       SPI_MOSI
*SFR* 000000A0H.3 DATA     BIT       SPI_MOSI_2
*SFR* 000000C0H.0 DATA     BIT       SPI_MOSI_3
*SFR* 000000B0H.4 DATA     BIT       SPI_MOSI_4
*DEL*:00000000H   CODE     ---       SPI_PS_init
      020002D5H   XDATA    ---       SPI_RxBuffer
      02000452H   XDATA    BYTE      SPI_RxCnt
      020002D4H   XDATA    BYTE      SPI_RxTimerOut
*SFR* 00000090H.5 DATA     BIT       SPI_SCLK
*SFR* 000000A0H.5 DATA     BIT       SPI_SCLK_2
*SFR* 000000C0H.3 DATA     BIT       SPI_SCLK_3
*SFR* 000000B0H.2 DATA     BIT       SPI_SCLK_4
*SFR* 00000090H.2 DATA     BIT       SPI_SS
*SFR* 000000A0H.2 DATA     BIT       SPI_SS_2
*SFR* 000000C8H.4 DATA     BIT       SPI_SS_3
*SFR* 000000B0H.5 DATA     BIT       SPI_SS_4
*SFR* 000000CDH   DATA     BYTE      SPSTAT
*DEL*:00000000H   CODE     ---       Start
*DEL*:00000000H   CODE     ---       Stop
      010013E9H   CODE     ---       Switch_config
      010016EBH   CODE     ---       SYS_Init
*SFR* 000000D6H   DATA     BYTE      T2H
*SFR* 000000D7H   DATA     BYTE      T2L
*SFR* 000000D4H   DATA     BYTE      T3H
*SFR* 000000D5H   DATA     BYTE      T3L
*SFR* 000000D2H   DATA     BYTE      T4H
*SFR* 000000D3H   DATA     BYTE      T4L
*SFR* 000000D1H   DATA     BYTE      T4T3M
*DEL*:0000002BH   CONST    ---       T_COM
*DEL*:00000000H   CONST    ---       t_display
*DEL*:00000033H   CONST    ---       T_KeyTable
*SFR* 000000AEH   DATA     BYTE      TA
      0100109FH   CODE     ---       Task_Marks_Handler_Callback
      010011FAH   CODE     ---       Task_Pro_Handler_Callback
      020003E5H   XDATA    BYTE      Tasks_Max
*SFR* 00000098H.3 DATA     BIT       TB8
*SFR* 00000088H   DATA     BYTE      TCON
      02000445H   XDATA    ---       temp
*SFR* 00000088H.5 DATA     BIT       TF0
*SFR* 00000088H.7 DATA     BIT       TF1
*SFR* 0000008CH   DATA     BYTE      TH0
*SFR* 0000008DH   DATA     BYTE      TH1
*SFR* 00000098H.1 DATA     BIT       TI
      01001541H   CODE     ---       Timer0_ISR_Handler
      0100000EH   CODE     ---       Timer1_ISR_Handler
      01000016H   CODE     ---       Timer2_ISR_Handler
      0100001EH   CODE     ---       Timer3_ISR_Handler
      01000026H   CODE     ---       Timer4_ISR_Handler
      010015A7H   CODE     ---       Timer_config
*SFR* 0000008AH   DATA     BYTE      TL0
*SFR* 0000008BH   DATA     BYTE      TL1
LX51 LINKER/LOCATER V4.66.87.0                                                        04/03/2025  13:07:21  PAGE 19


*SFR* 00000089H   DATA     BYTE      TMOD
      02000355H   XDATA    ---       tmp
*SFR* 00000088H.4 DATA     BIT       TR0
*SFR* 00000088H.6 DATA     BIT       TR1
      02000154H   XDATA    ---       TX1_Buffer
      020001F4H   XDATA    ---       TX2_Buffer
      02000274H   XDATA    ---       TX3_Buffer
      020002B4H   XDATA    ---       TX4_Buffer
      0100139DH   CODE     ---       UART1_ISR_Handler
      010012A7H   CODE     ---       UART2_ISR_Handler
      010012F9H   CODE     ---       UART3_ISR_Handler
      0100134BH   CODE     ---       UART4_ISR_Handler
*DEL*:00000000H   CODE     ---       UART_config
      00000022H.2 BIT      BIT       UartReceived
*SFR* 000000FCH   DATA     BYTE      USBADR
*SFR* 000000DCH   DATA     BYTE      USBCLK
*SFR* 000000F4H   DATA     BYTE      USBCON
*SFR* 000000ECH   DATA     BYTE      USBDAT
*DEL*:00000000H   CODE     ---       Wait
      0200044FH   XDATA    BYTE      WakeUpCnt
      02000451H   XDATA    BYTE      WakeUpSource
*DEL*:00000000H   CODE     ---       WDT_Clear
*SFR* 000000C1H   DATA     BYTE      WDT_CONTR
*DEL*:00000000H   CODE     ---       WDT_init
*SFR* 000000ABH   DATA     BYTE      WKTCH
*SFR* 000000AAH   DATA     BYTE      WKTCL
*DEL*:00000000H   CODE     ---       WriteRTC



SYMBOL TABLE OF MODULE:  .\list\STC8G-H-LIB (MAIN)

      VALUE       REP       CLASS    TYPE      SYMBOL NAME
      ====================================================
      ---         MODULE    ---      ---       MAIN
      010016E0H   PUBLIC    CODE     ---       main
      000000DCH   SFRSYM    DATA     BYTE      PLLCR
      00000093H   SFRSYM    DATA     BYTE      P0M1
      00000092H   SFRSYM    DATA     BYTE      P1M0
      00000096H   SFRSYM    DATA     BYTE      P2M0
      00000091H   SFRSYM    DATA     BYTE      P1M1
      00000080H   SFRSYM    DATA     BYTE      P0
      000000B2H   SFRSYM    DATA     BYTE      P3M0
      00000095H   SFRSYM    DATA     BYTE      P2M1
      00000090H   SFRSYM    DATA     BYTE      P1
      000000B4H   SFRSYM    DATA     BYTE      P4M0
      000000B1H   SFRSYM    DATA     BYTE      P3M1
      000000A0H   SFRSYM    DATA     BYTE      P2
      000000CAH   SFRSYM    DATA     BYTE      P5M0
      000000B3H   SFRSYM    DATA     BYTE      P4M1
      000000B0H   SFRSYM    DATA     BYTE      P3
      000000ABH   SFRSYM    DATA     BYTE      WKTCH
      000000D0H.6 SFRSYM    DATA     BIT       AC
      000000CCH   SFRSYM    DATA     BYTE      P6M0
      000000C9H   SFRSYM    DATA     BYTE      P5M1
      000000C0H   SFRSYM    DATA     BYTE      P4
      000000E2H   SFRSYM    DATA     BYTE      P7M0
      000000CBH   SFRSYM    DATA     BYTE      P6M1
      000000C8H   SFRSYM    DATA     BYTE      P5
      000000E8H   SFRSYM    DATA     BYTE      P6
      000000E1H   SFRSYM    DATA     BYTE      P7M1
      000000A8H.7 SFRSYM    DATA     BIT       EA
      000000F8H   SFRSYM    DATA     BYTE      P7
      000000AAH   SFRSYM    DATA     BYTE      WKTCL
      000000CEH   SFRSYM    DATA     BYTE      SPCTL
LX51 LINKER/LOCATER V4.66.87.0                                                        04/03/2025  13:07:21  PAGE 20


      000000A2H   SFRSYM    DATA     BYTE      P_SW1
      000000BAH   SFRSYM    DATA     BYTE      P_SW2
      000000E5H   SFRSYM    DATA     BYTE      DPH1
      000000A8H.5 SFRSYM    DATA     BIT       EADC
      000000A8H   SFRSYM    DATA     BYTE      IE
      000000C5H   SFRSYM    DATA     BYTE      IAP_CMD
      000000E4H   SFRSYM    DATA     BYTE      DPL1
      000000BDH   SFRSYM    DATA     BYTE      ADC_RES
      000000B6H   SFRSYM    DATA     BYTE      IP2H
      000000EEH   SFRSYM    DATA     BYTE      IP3H
      000000AEH   SFRSYM    DATA     BYTE      TA
      0000008FH   SFRSYM    DATA     BYTE      INTCLKO
      000000A8H.4 SFRSYM    DATA     BIT       ES
      000000B8H.5 SFRSYM    DATA     BIT       PADC
      000000B8H   SFRSYM    DATA     BYTE      IP
      000000DEH   SFRSYM    DATA     BYTE      ADCCFG
      00000098H.0 SFRSYM    DATA     BIT       RI
      000000D0H.7 SFRSYM    DATA     BIT       CY
      00000098H.1 SFRSYM    DATA     BIT       TI
      000000C3H   SFRSYM    DATA     BYTE      IAP_ADDRH
      000000B8H.4 SFRSYM    DATA     BIT       PS
      00000081H   SFRSYM    DATA     BYTE      SP
      000000C4H   SFRSYM    DATA     BYTE      IAP_ADDRL
      000000D0H.2 SFRSYM    DATA     BIT       OV
      000000B8H.7 SFRSYM    DATA     BIT       PPCA
      0000009EH   SFRSYM    DATA     BYTE      LIRTRIM
      000000E6H   SFRSYM    DATA     BYTE      CMPCR1
      000000E7H   SFRSYM    DATA     BYTE      CMPCR2
      000000A8H.6 SFRSYM    DATA     BIT       ELVD
      00000080H.0 SFRSYM    DATA     BIT       P00
      000000BCH   SFRSYM    DATA     BYTE      ADC_CONTR
      00000099H   SFRSYM    DATA     BYTE      SBUF
      00000090H.0 SFRSYM    DATA     BIT       P10
      00000087H   SFRSYM    DATA     BYTE      PCON
      00000080H.1 SFRSYM    DATA     BIT       P01
      000000A0H.0 SFRSYM    DATA     BIT       P20
      00000090H.1 SFRSYM    DATA     BIT       P11
      00000080H.2 SFRSYM    DATA     BIT       P02
      000000F5H   SFRSYM    DATA     BYTE      IAP_TPS
      000000B0H.0 SFRSYM    DATA     BIT       P30
      000000A0H.1 SFRSYM    DATA     BIT       P21
      00000090H.2 SFRSYM    DATA     BIT       P12
      00000080H.3 SFRSYM    DATA     BIT       P03
      000000C0H.0 SFRSYM    DATA     BIT       P40
      000000B0H.1 SFRSYM    DATA     BIT       P31
      000000A0H.2 SFRSYM    DATA     BIT       P22
      00000098H   SFRSYM    DATA     BYTE      SCON
      00000090H.3 SFRSYM    DATA     BIT       P13
      00000080H.4 SFRSYM    DATA     BIT       P04
      000000C8H.0 SFRSYM    DATA     BIT       P50
      000000C0H.1 SFRSYM    DATA     BIT       P41
      000000B0H.2 SFRSYM    DATA     BIT       P32
      000000A0H.3 SFRSYM    DATA     BIT       P23
      00000090H.4 SFRSYM    DATA     BIT       P14
      00000089H   SFRSYM    DATA     BYTE      TMOD
      00000088H   SFRSYM    DATA     BYTE      TCON
      00000080H.5 SFRSYM    DATA     BIT       P05
      000000E8H.0 SFRSYM    DATA     BIT       P60
      000000C8H.1 SFRSYM    DATA     BIT       P51
      000000C0H.2 SFRSYM    DATA     BIT       P42
      000000B0H.3 SFRSYM    DATA     BIT       P33
      000000A0H.4 SFRSYM    DATA     BIT       P24
      00000090H.5 SFRSYM    DATA     BIT       P15
      00000080H.6 SFRSYM    DATA     BIT       P06
      000000F8H.0 SFRSYM    DATA     BIT       P70
LX51 LINKER/LOCATER V4.66.87.0                                                        04/03/2025  13:07:21  PAGE 21


      000000E8H.1 SFRSYM    DATA     BIT       P61
      000000C8H.2 SFRSYM    DATA     BIT       P52
      000000C0H.3 SFRSYM    DATA     BIT       P43
      000000B8H.6 SFRSYM    DATA     BIT       PLVD
      000000B0H.4 SFRSYM    DATA     BIT       P34
      000000A0H.5 SFRSYM    DATA     BIT       P25
      00000090H.6 SFRSYM    DATA     BIT       P16
      00000080H.7 SFRSYM    DATA     BIT       P07
      000000F8H.1 SFRSYM    DATA     BIT       P71
      000000E8H.2 SFRSYM    DATA     BIT       P62
      000000C8H.3 SFRSYM    DATA     BIT       P53
      000000C0H.4 SFRSYM    DATA     BIT       P44
      000000B0H.5 SFRSYM    DATA     BIT       P35
      000000A0H.6 SFRSYM    DATA     BIT       P26
      00000090H.7 SFRSYM    DATA     BIT       P17
      000000F8H.2 SFRSYM    DATA     BIT       P72
      000000E8H.3 SFRSYM    DATA     BIT       P63
      000000C8H.4 SFRSYM    DATA     BIT       P54
      000000C0H.5 SFRSYM    DATA     BIT       P45
      000000B0H.6 SFRSYM    DATA     BIT       P36
      000000A0H.7 SFRSYM    DATA     BIT       P27
      000000F8H.3 SFRSYM    DATA     BIT       P73
      000000E8H.4 SFRSYM    DATA     BIT       P64
      000000C8H.5 SFRSYM    DATA     BIT       P55
      000000C0H.6 SFRSYM    DATA     BIT       P46
      000000B0H.7 SFRSYM    DATA     BIT       P37
      000000F8H.4 SFRSYM    DATA     BIT       P74
      000000E8H.5 SFRSYM    DATA     BIT       P65
      000000C8H.6 SFRSYM    DATA     BIT       P56
      000000C0H.7 SFRSYM    DATA     BIT       P47
      000000F8H.5 SFRSYM    DATA     BIT       P75
      000000E8H.6 SFRSYM    DATA     BIT       P66
      000000C8H.7 SFRSYM    DATA     BIT       P57
      000000F8H.6 SFRSYM    DATA     BIT       P76
      000000E8H.7 SFRSYM    DATA     BIT       P67
      000000F8H.7 SFRSYM    DATA     BIT       P77
      00000088H.1 SFRSYM    DATA     BIT       IE0
      00000088H.3 SFRSYM    DATA     BIT       IE1
      000000AFH   SFRSYM    DATA     BYTE      IE2
      000000F0H   SFRSYM    DATA     BYTE      B
      0000008EH   SFRSYM    DATA     BYTE      AUXR
      000000FCH   SFRSYM    DATA     BYTE      USBADR
      000000C7H   SFRSYM    DATA     BYTE      IAP_CONTR
      000000ECH   SFRSYM    DATA     BYTE      USBDAT
      000000DCH   SFRSYM    DATA     BYTE      USBCLK
      000000E0H   SFRSYM    DATA     BYTE      ACC
      000000A8H.1 SFRSYM    DATA     BIT       ET0
      000000A8H.3 SFRSYM    DATA     BIT       ET1
      00000088H.5 SFRSYM    DATA     BIT       TF0
      000000FFH   SFRSYM    DATA     BYTE      RSTCFG
      000000B5H   SFRSYM    DATA     BYTE      IP2
      00000088H.7 SFRSYM    DATA     BIT       TF1
      000000F4H   SFRSYM    DATA     BYTE      USBCON
      000000DFH   SFRSYM    DATA     BYTE      IP3
      00000098H.2 SFRSYM    DATA     BIT       RB8
      0000008CH   SFRSYM    DATA     BYTE      TH0
      000000A8H.0 SFRSYM    DATA     BIT       EX0
      0000008DH   SFRSYM    DATA     BYTE      TH1
      00000088H.0 SFRSYM    DATA     BIT       IT0
      000000D6H   SFRSYM    DATA     BYTE      T2H
      000000A8H.2 SFRSYM    DATA     BIT       EX1
      00000098H.3 SFRSYM    DATA     BIT       TB8
      00000088H.2 SFRSYM    DATA     BIT       IT1
      000000D4H   SFRSYM    DATA     BYTE      T3H
      000000D0H.0 SFRSYM    DATA     BIT       P
LX51 LINKER/LOCATER V4.66.87.0                                                        04/03/2025  13:07:21  PAGE 22


      000000D2H   SFRSYM    DATA     BYTE      T4H
      00000098H.7 SFRSYM    DATA     BIT       SM0
      0000008AH   SFRSYM    DATA     BYTE      TL0
      00000098H.6 SFRSYM    DATA     BIT       SM1
      0000008BH   SFRSYM    DATA     BYTE      TL1
      000000D7H   SFRSYM    DATA     BYTE      T2L
      00000098H.5 SFRSYM    DATA     BIT       SM2
      000000D5H   SFRSYM    DATA     BYTE      T3L
      000000D3H   SFRSYM    DATA     BYTE      T4L
      000000B8H.1 SFRSYM    DATA     BIT       PT0
      000000D0H.3 SFRSYM    DATA     BIT       RS0
      000000B8H.3 SFRSYM    DATA     BIT       PT1
      000000D0H.4 SFRSYM    DATA     BIT       RS1
      000000C2H   SFRSYM    DATA     BYTE      IAP_DATA
      00000088H.4 SFRSYM    DATA     BIT       TR0
      00000088H.6 SFRSYM    DATA     BIT       TR1
      000000C1H   SFRSYM    DATA     BYTE      WDT_CONTR
      000000B8H.0 SFRSYM    DATA     BIT       PX0
      000000B8H.2 SFRSYM    DATA     BIT       PX1
      0000009FH   SFRSYM    DATA     BYTE      IRTRIM
      00000083H   SFRSYM    DATA     BYTE      DPH
      000000D1H   SFRSYM    DATA     BYTE      T4T3M
      000000BEH   SFRSYM    DATA     BYTE      ADC_RESL
      00000082H   SFRSYM    DATA     BYTE      DPL
      000000CDH   SFRSYM    DATA     BYTE      SPSTAT
      000000B7H   SFRSYM    DATA     BYTE      IPH
      0000009BH   SFRSYM    DATA     BYTE      S2BUF
      000000ADH   SFRSYM    DATA     BYTE      S3BUF
      00000098H.4 SFRSYM    DATA     BIT       REN
      00000085H   SFRSYM    DATA     BYTE      S4BUF
      0000009AH   SFRSYM    DATA     BYTE      S2CON
      000000E3H   SFRSYM    DATA     BYTE      DPS
      000000ACH   SFRSYM    DATA     BYTE      S3CON
      00000084H   SFRSYM    DATA     BYTE      S4CON
      000000EFH   SFRSYM    DATA     BYTE      AUXINTIF
      000000B9H   SFRSYM    DATA     BYTE      SADEN
      000000A9H   SFRSYM    DATA     BYTE      SADDR
      000000C6H   SFRSYM    DATA     BYTE      IAP_TRIG
      000000D0H.5 SFRSYM    DATA     BIT       F0
      0000009DH   SFRSYM    DATA     BYTE      IRCBAND
      000000D0H.1 SFRSYM    DATA     BIT       F1
      000000D0H   SFRSYM    DATA     BYTE      PSW
      000000CFH   SFRSYM    DATA     BYTE      SPDAT
      00000094H   SFRSYM    DATA     BYTE      P0M0

      010016E0H   BLOCK     CODE     ---       LVL=0
      010016E0H   LINE      CODE     ---       #24
      010016E0H   LINE      CODE     ---       #25
      010016E0H   LINE      CODE     ---       #26
      010016E3H   LINE      CODE     ---       #27
      010016E6H   LINE      CODE     ---       #29
      010016E6H   LINE      CODE     ---       #30
      010016E6H   LINE      CODE     ---       #31
      010016E9H   LINE      CODE     ---       #32
      ---         BLOCKEND  ---      ---       LVL=0

      ---         MODULE    ---      ---       SYSTEM_INIT
      010016EBH   PUBLIC    CODE     ---       SYS_Init
      010013E9H   PUBLIC    CODE     ---       Switch_config
      010015A7H   PUBLIC    CODE     ---       Timer_config
      000000D8H.2 SFRSYM    DATA     BIT       CCF2
      000000DCH   SFRSYM    DATA     BYTE      PLLCR
      00000093H   SFRSYM    DATA     BYTE      P0M1
      00000092H   SFRSYM    DATA     BYTE      P1M0
      00000096H   SFRSYM    DATA     BYTE      P2M0
LX51 LINKER/LOCATER V4.66.87.0                                                        04/03/2025  13:07:21  PAGE 23


      00000091H   SFRSYM    DATA     BYTE      P1M1
      00000080H   SFRSYM    DATA     BYTE      P0
      000000B2H   SFRSYM    DATA     BYTE      P3M0
      00000095H   SFRSYM    DATA     BYTE      P2M1
      00000090H   SFRSYM    DATA     BYTE      P1
      000000B4H   SFRSYM    DATA     BYTE      P4M0
      000000B1H   SFRSYM    DATA     BYTE      P3M1
      000000A0H   SFRSYM    DATA     BYTE      P2
      000000CAH   SFRSYM    DATA     BYTE      P5M0
      000000B3H   SFRSYM    DATA     BYTE      P4M1
      000000B0H   SFRSYM    DATA     BYTE      P3
      000000ABH   SFRSYM    DATA     BYTE      WKTCH
      000000D0H.6 SFRSYM    DATA     BIT       AC
      000000CCH   SFRSYM    DATA     BYTE      P6M0
      000000C9H   SFRSYM    DATA     BYTE      P5M1
      000000C0H   SFRSYM    DATA     BYTE      P4
      000000E2H   SFRSYM    DATA     BYTE      P7M0
      000000CBH   SFRSYM    DATA     BYTE      P6M1
      000000C8H   SFRSYM    DATA     BYTE      P5
      000000A0H.2 SFRSYM    DATA     BIT       SPI_SS_2
      000000E8H   SFRSYM    DATA     BYTE      P6
      000000E1H   SFRSYM    DATA     BYTE      P7M1
      000000A8H.7 SFRSYM    DATA     BIT       EA
      000000C8H.4 SFRSYM    DATA     BIT       SPI_SS_3
      00000090H.4 SFRSYM    DATA     BIT       SPI_MISO
      00000090H.3 SFRSYM    DATA     BIT       SPI_MOSI
      000000F8H   SFRSYM    DATA     BYTE      P7
      000000AAH   SFRSYM    DATA     BYTE      WKTCL
      000000B0H.5 SFRSYM    DATA     BIT       SPI_SS_4
      000000CEH   SFRSYM    DATA     BYTE      SPCTL
      000000D8H.7 SFRSYM    DATA     BIT       CF
      000000F9H   SFRSYM    DATA     BYTE      CH
      000000A2H   SFRSYM    DATA     BYTE      P_SW1
      000000BAH   SFRSYM    DATA     BYTE      P_SW2
      000000A0H.5 SFRSYM    DATA     BIT       SPI_SCLK_2
      000000E5H   SFRSYM    DATA     BYTE      DPH1
      000000A8H.5 SFRSYM    DATA     BIT       EADC
      000000A8H   SFRSYM    DATA     BYTE      IE
      000000C0H.3 SFRSYM    DATA     BIT       SPI_SCLK_3
      000000E9H   SFRSYM    DATA     BYTE      CL
      000000B0H.2 SFRSYM    DATA     BIT       SPI_SCLK_4
      000000C5H   SFRSYM    DATA     BYTE      IAP_CMD
      000000FAH   SFRSYM    DATA     BYTE      CCAP0H
      000000FBH   SFRSYM    DATA     BYTE      CCAP1H
      000000E4H   SFRSYM    DATA     BYTE      DPL1
      000000FCH   SFRSYM    DATA     BYTE      CCAP2H
      000000BDH   SFRSYM    DATA     BYTE      ADC_RES
      000000B6H   SFRSYM    DATA     BYTE      IP2H
      000000D8H.6 SFRSYM    DATA     BIT       CR
      000000EAH   SFRSYM    DATA     BYTE      CCAP0L
      000000EEH   SFRSYM    DATA     BYTE      IP3H
      000000AEH   SFRSYM    DATA     BYTE      TA
      000000EBH   SFRSYM    DATA     BYTE      CCAP1L
      000000DAH   SFRSYM    DATA     BYTE      CCAPM0
      000000ECH   SFRSYM    DATA     BYTE      CCAP2L
      000000DBH   SFRSYM    DATA     BYTE      CCAPM1
      0000008FH   SFRSYM    DATA     BYTE      INTCLKO
      000000DCH   SFRSYM    DATA     BYTE      CCAPM2
      000000A8H.4 SFRSYM    DATA     BIT       ES
      000000A0H.4 SFRSYM    DATA     BIT       SPI_MISO_2
      000000A0H.3 SFRSYM    DATA     BIT       SPI_MOSI_2
      000000B8H.5 SFRSYM    DATA     BIT       PADC
      000000B8H   SFRSYM    DATA     BYTE      IP
      000000C0H.1 SFRSYM    DATA     BIT       SPI_MISO_3
      000000C0H.0 SFRSYM    DATA     BIT       SPI_MOSI_3
LX51 LINKER/LOCATER V4.66.87.0                                                        04/03/2025  13:07:21  PAGE 24


      000000DEH   SFRSYM    DATA     BYTE      ADCCFG
      000000B0H.3 SFRSYM    DATA     BIT       SPI_MISO_4
      000000B0H.4 SFRSYM    DATA     BIT       SPI_MOSI_4
      00000098H.0 SFRSYM    DATA     BIT       RI
      000000B0H.2 SFRSYM    DATA     BIT       INT0
      000000D0H.7 SFRSYM    DATA     BIT       CY
      000000B0H.3 SFRSYM    DATA     BIT       INT1
      00000098H.1 SFRSYM    DATA     BIT       TI
      000000B0H.6 SFRSYM    DATA     BIT       INT2
      000000B0H.7 SFRSYM    DATA     BIT       INT3
      000000B0H.0 SFRSYM    DATA     BIT       INT4
      000000C3H   SFRSYM    DATA     BYTE      IAP_ADDRH
      000000B8H.4 SFRSYM    DATA     BIT       PS
      00000081H   SFRSYM    DATA     BYTE      SP
      000000D9H   SFRSYM    DATA     BYTE      CMOD
      000000D8H   SFRSYM    DATA     BYTE      CCON
      000000C4H   SFRSYM    DATA     BYTE      IAP_ADDRL
      000000D0H.2 SFRSYM    DATA     BIT       OV
      000000B8H.7 SFRSYM    DATA     BIT       PPCA
      0000009EH   SFRSYM    DATA     BYTE      LIRTRIM
      000000F6H   SFRSYM    DATA     BYTE      PWMCFG01
      000000E6H   SFRSYM    DATA     BYTE      CMPCR1
      000000E7H   SFRSYM    DATA     BYTE      CMPCR2
      000000F7H   SFRSYM    DATA     BYTE      PWMCFG23
      000000A8H.6 SFRSYM    DATA     BIT       ELVD
      000000FEH   SFRSYM    DATA     BYTE      PWMCFG45
      00000080H.0 SFRSYM    DATA     BIT       P00
      000000BCH   SFRSYM    DATA     BYTE      ADC_CONTR
      00000099H   SFRSYM    DATA     BYTE      SBUF
      00000090H.0 SFRSYM    DATA     BIT       P10
      00000087H   SFRSYM    DATA     BYTE      PCON
      00000080H.1 SFRSYM    DATA     BIT       P01
      000000A0H.0 SFRSYM    DATA     BIT       P20
      00000090H.1 SFRSYM    DATA     BIT       P11
      00000080H.2 SFRSYM    DATA     BIT       P02
      000000F5H   SFRSYM    DATA     BYTE      IAP_TPS
      000000B0H.0 SFRSYM    DATA     BIT       P30
      000000A0H.1 SFRSYM    DATA     BIT       P21
      00000090H.2 SFRSYM    DATA     BIT       P12
      00000080H.3 SFRSYM    DATA     BIT       P03
      000000C0H.0 SFRSYM    DATA     BIT       P40
      000000B0H.1 SFRSYM    DATA     BIT       P31
      000000A0H.2 SFRSYM    DATA     BIT       P22
      00000098H   SFRSYM    DATA     BYTE      SCON
      00000090H.3 SFRSYM    DATA     BIT       P13
      00000080H.4 SFRSYM    DATA     BIT       P04
      000000C8H.0 SFRSYM    DATA     BIT       P50
      000000C0H.1 SFRSYM    DATA     BIT       P41
      000000B0H.2 SFRSYM    DATA     BIT       P32
      000000A0H.3 SFRSYM    DATA     BIT       P23
      00000090H.4 SFRSYM    DATA     BIT       P14
      00000089H   SFRSYM    DATA     BYTE      TMOD
      00000088H   SFRSYM    DATA     BYTE      TCON
      00000080H.5 SFRSYM    DATA     BIT       P05
      000000E8H.0 SFRSYM    DATA     BIT       P60
      000000C8H.1 SFRSYM    DATA     BIT       P51
      000000C0H.2 SFRSYM    DATA     BIT       P42
      000000B0H.3 SFRSYM    DATA     BIT       P33
      000000A0H.4 SFRSYM    DATA     BIT       P24
      00000090H.5 SFRSYM    DATA     BIT       P15
      00000080H.6 SFRSYM    DATA     BIT       P06
      000000F8H.0 SFRSYM    DATA     BIT       P70
      000000E8H.1 SFRSYM    DATA     BIT       P61
      000000C8H.2 SFRSYM    DATA     BIT       P52
      000000C0H.3 SFRSYM    DATA     BIT       P43
LX51 LINKER/LOCATER V4.66.87.0                                                        04/03/2025  13:07:21  PAGE 25


      000000B8H.6 SFRSYM    DATA     BIT       PLVD
      000000B0H.4 SFRSYM    DATA     BIT       P34
      000000A0H.5 SFRSYM    DATA     BIT       P25
      00000090H.6 SFRSYM    DATA     BIT       P16
      00000080H.7 SFRSYM    DATA     BIT       P07
      000000F8H.1 SFRSYM    DATA     BIT       P71
      000000E8H.2 SFRSYM    DATA     BIT       P62
      000000C8H.3 SFRSYM    DATA     BIT       P53
      000000C0H.4 SFRSYM    DATA     BIT       P44
      000000B0H.5 SFRSYM    DATA     BIT       P35
      000000A0H.6 SFRSYM    DATA     BIT       P26
      00000090H.7 SFRSYM    DATA     BIT       P17
      000000F8H.2 SFRSYM    DATA     BIT       P72
      000000E8H.3 SFRSYM    DATA     BIT       P63
      000000C8H.4 SFRSYM    DATA     BIT       P54
      000000C0H.5 SFRSYM    DATA     BIT       P45
      000000B0H.6 SFRSYM    DATA     BIT       P36
      000000A0H.7 SFRSYM    DATA     BIT       P27
      000000F8H.3 SFRSYM    DATA     BIT       P73
      000000E8H.4 SFRSYM    DATA     BIT       P64
      000000C8H.5 SFRSYM    DATA     BIT       P55
      000000C0H.6 SFRSYM    DATA     BIT       P46
      000000B0H.7 SFRSYM    DATA     BIT       P37
      000000F8H.4 SFRSYM    DATA     BIT       P74
      000000E8H.5 SFRSYM    DATA     BIT       P65
      000000C8H.6 SFRSYM    DATA     BIT       P56
      000000C0H.7 SFRSYM    DATA     BIT       P47
      000000F8H.5 SFRSYM    DATA     BIT       P75
      000000E8H.6 SFRSYM    DATA     BIT       P66
      000000C8H.7 SFRSYM    DATA     BIT       P57
      000000F8H.6 SFRSYM    DATA     BIT       P76
      000000E8H.7 SFRSYM    DATA     BIT       P67
      000000F8H.7 SFRSYM    DATA     BIT       P77
      00000088H.1 SFRSYM    DATA     BIT       IE0
      00000088H.3 SFRSYM    DATA     BIT       IE1
      000000AFH   SFRSYM    DATA     BYTE      IE2
      000000F0H   SFRSYM    DATA     BYTE      B
      0000008EH   SFRSYM    DATA     BYTE      AUXR
      000000FCH   SFRSYM    DATA     BYTE      USBADR
      000000C7H   SFRSYM    DATA     BYTE      IAP_CONTR
      000000ECH   SFRSYM    DATA     BYTE      USBDAT
      000000DCH   SFRSYM    DATA     BYTE      USBCLK
      000000E0H   SFRSYM    DATA     BYTE      ACC
      000000A8H.1 SFRSYM    DATA     BIT       ET0
      000000A8H.3 SFRSYM    DATA     BIT       ET1
      00000088H.5 SFRSYM    DATA     BIT       TF0
      000000FFH   SFRSYM    DATA     BYTE      RSTCFG
      000000B5H   SFRSYM    DATA     BYTE      IP2
      00000088H.7 SFRSYM    DATA     BIT       TF1
      000000F4H   SFRSYM    DATA     BYTE      USBCON
      000000DFH   SFRSYM    DATA     BYTE      IP3
      00000098H.2 SFRSYM    DATA     BIT       RB8
      0000008CH   SFRSYM    DATA     BYTE      TH0
      000000A8H.0 SFRSYM    DATA     BIT       EX0
      0000008DH   SFRSYM    DATA     BYTE      TH1
      00000088H.0 SFRSYM    DATA     BIT       IT0
      000000D6H   SFRSYM    DATA     BYTE      T2H
      000000A8H.2 SFRSYM    DATA     BIT       EX1
      00000098H.3 SFRSYM    DATA     BIT       TB8
      00000088H.2 SFRSYM    DATA     BIT       IT1
      000000D4H   SFRSYM    DATA     BYTE      T3H
      000000D0H.0 SFRSYM    DATA     BIT       P
      000000D2H   SFRSYM    DATA     BYTE      T4H
      00000098H.7 SFRSYM    DATA     BIT       SM0
      0000008AH   SFRSYM    DATA     BYTE      TL0
LX51 LINKER/LOCATER V4.66.87.0                                                        04/03/2025  13:07:21  PAGE 26


      00000098H.6 SFRSYM    DATA     BIT       SM1
      0000008BH   SFRSYM    DATA     BYTE      TL1
      000000D7H   SFRSYM    DATA     BYTE      T2L
      00000098H.5 SFRSYM    DATA     BIT       SM2
      000000D5H   SFRSYM    DATA     BYTE      T3L
      000000D3H   SFRSYM    DATA     BYTE      T4L
      000000B8H.1 SFRSYM    DATA     BIT       PT0
      000000D0H.3 SFRSYM    DATA     BIT       RS0
      000000B8H.3 SFRSYM    DATA     BIT       PT1
      000000D0H.4 SFRSYM    DATA     BIT       RS1
      000000C2H   SFRSYM    DATA     BYTE      IAP_DATA
      00000088H.4 SFRSYM    DATA     BIT       TR0
      00000088H.6 SFRSYM    DATA     BIT       TR1
      000000C1H   SFRSYM    DATA     BYTE      WDT_CONTR
      000000B8H.0 SFRSYM    DATA     BIT       PX0
      000000B8H.2 SFRSYM    DATA     BIT       PX1
      0000009FH   SFRSYM    DATA     BYTE      IRTRIM
      000000F2H   SFRSYM    DATA     BYTE      PCA_PWM0
      000000F3H   SFRSYM    DATA     BYTE      PCA_PWM1
      000000F4H   SFRSYM    DATA     BYTE      PCA_PWM2
      00000083H   SFRSYM    DATA     BYTE      DPH
      000000D1H   SFRSYM    DATA     BYTE      T4T3M
      000000BEH   SFRSYM    DATA     BYTE      ADC_RESL
      00000082H   SFRSYM    DATA     BYTE      DPL
      000000CDH   SFRSYM    DATA     BYTE      SPSTAT
      000000B7H   SFRSYM    DATA     BYTE      IPH
      000000F1H   SFRSYM    DATA     BYTE      PWMSET
      0000009BH   SFRSYM    DATA     BYTE      S2BUF
      000000ADH   SFRSYM    DATA     BYTE      S3BUF
      00000098H.4 SFRSYM    DATA     BIT       REN
      00000085H   SFRSYM    DATA     BYTE      S4BUF
      0000009AH   SFRSYM    DATA     BYTE      S2CON
      000000E3H   SFRSYM    DATA     BYTE      DPS
      000000ACH   SFRSYM    DATA     BYTE      S3CON
      00000084H   SFRSYM    DATA     BYTE      S4CON
      000000EFH   SFRSYM    DATA     BYTE      AUXINTIF
      000000B9H   SFRSYM    DATA     BYTE      SADEN
      000000A9H   SFRSYM    DATA     BYTE      SADDR
      000000C6H   SFRSYM    DATA     BYTE      IAP_TRIG
      00000090H.2 SFRSYM    DATA     BIT       SPI_SS
      000000D0H.5 SFRSYM    DATA     BIT       F0
      0000009DH   SFRSYM    DATA     BYTE      IRCBAND
      000000D0H.1 SFRSYM    DATA     BIT       F1
      000000D0H   SFRSYM    DATA     BYTE      PSW
      00000090H.5 SFRSYM    DATA     BIT       SPI_SCLK
      000000D8H.0 SFRSYM    DATA     BIT       CCF0
      000000D8H.1 SFRSYM    DATA     BIT       CCF1
      000000CFH   SFRSYM    DATA     BYTE      SPDAT
      00000094H   SFRSYM    DATA     BYTE      P0M0

      010015A7H   BLOCK     CODE     ---       LVL=0
      010015A7H   BLOCK     CODE     NEAR LAB  LVL=1
      020003B9H   SYMBOL    XDATA    ---       TIM_InitStructure
      ---         BLOCKEND  ---      ---       LVL=1
      010015A7H   LINE      CODE     ---       #53
      010015A7H   LINE      CODE     ---       #54
      010015A7H   LINE      CODE     ---       #56
      010015ACH   LINE      CODE     ---       #57
      010015AFH   LINE      CODE     ---       #58
      010015B2H   LINE      CODE     ---       #59
      010015BAH   LINE      CODE     ---       #60
      010015C0H   LINE      CODE     ---       #61
      010015CAH   LINE      CODE     ---       #62
      ---         BLOCKEND  ---      ---       LVL=0

LX51 LINKER/LOCATER V4.66.87.0                                                        04/03/2025  13:07:21  PAGE 27


      010013E9H   BLOCK     CODE     ---       LVL=0
      010013E9H   LINE      CODE     ---       #226
      010013E9H   LINE      CODE     ---       #227
      010013E9H   LINE      CODE     ---       #228
      010013ECH   LINE      CODE     ---       #229
      010013F4H   LINE      CODE     ---       #234
      010013FCH   LINE      CODE     ---       #236
      01001405H   LINE      CODE     ---       #237
      0100140BH   LINE      CODE     ---       #238
      01001411H   LINE      CODE     ---       #239
      01001417H   LINE      CODE     ---       #241
      01001420H   LINE      CODE     ---       #242
      01001426H   LINE      CODE     ---       #243
      0100142CH   LINE      CODE     ---       #244
      01001432H   LINE      CODE     ---       #247
      ---         BLOCKEND  ---      ---       LVL=0

      010016EBH   BLOCK     CODE     ---       LVL=0
      010016EBH   LINE      CODE     ---       #252
      010016EBH   LINE      CODE     ---       #253
      010016EBH   LINE      CODE     ---       #255
      010016EEH   LINE      CODE     ---       #262
      010016F1H   LINE      CODE     ---       #263
      010016F3H   LINE      CODE     ---       #265
      ---         BLOCKEND  ---      ---       LVL=0

      ---         MODULE    ---      ---       TASK
      020003E5H   PUBLIC    XDATA    BYTE      Tasks_Max
      010011FAH   PUBLIC    CODE     ---       Task_Pro_Handler_Callback
      0100109FH   PUBLIC    CODE     ---       Task_Marks_Handler_Callback
      000000DCH   SFRSYM    DATA     BYTE      PLLCR
      00000093H   SFRSYM    DATA     BYTE      P0M1
      00000092H   SFRSYM    DATA     BYTE      P1M0
      00000096H   SFRSYM    DATA     BYTE      P2M0
      00000091H   SFRSYM    DATA     BYTE      P1M1
      00000080H   SFRSYM    DATA     BYTE      P0
      000000B2H   SFRSYM    DATA     BYTE      P3M0
      00000095H   SFRSYM    DATA     BYTE      P2M1
      00000090H   SFRSYM    DATA     BYTE      P1
      000000B4H   SFRSYM    DATA     BYTE      P4M0
      000000B1H   SFRSYM    DATA     BYTE      P3M1
      000000A0H   SFRSYM    DATA     BYTE      P2
      000000CAH   SFRSYM    DATA     BYTE      P5M0
      000000B3H   SFRSYM    DATA     BYTE      P4M1
      000000B0H   SFRSYM    DATA     BYTE      P3
      000000ABH   SFRSYM    DATA     BYTE      WKTCH
      000000D0H.6 SFRSYM    DATA     BIT       AC
      000000CCH   SFRSYM    DATA     BYTE      P6M0
      000000C9H   SFRSYM    DATA     BYTE      P5M1
      000000C0H   SFRSYM    DATA     BYTE      P4
      000000E2H   SFRSYM    DATA     BYTE      P7M0
      000000CBH   SFRSYM    DATA     BYTE      P6M1
      000000C8H   SFRSYM    DATA     BYTE      P5
      000000E8H   SFRSYM    DATA     BYTE      P6
      000000E1H   SFRSYM    DATA     BYTE      P7M1
      000000A8H.7 SFRSYM    DATA     BIT       EA
      000000F8H   SFRSYM    DATA     BYTE      P7
      000000AAH   SFRSYM    DATA     BYTE      WKTCL
      000000CEH   SFRSYM    DATA     BYTE      SPCTL
      000000A2H   SFRSYM    DATA     BYTE      P_SW1
      000000BAH   SFRSYM    DATA     BYTE      P_SW2
      000000E5H   SFRSYM    DATA     BYTE      DPH1
      000000A8H.5 SFRSYM    DATA     BIT       EADC
      000000A8H   SFRSYM    DATA     BYTE      IE
      000000C5H   SFRSYM    DATA     BYTE      IAP_CMD
LX51 LINKER/LOCATER V4.66.87.0                                                        04/03/2025  13:07:21  PAGE 28


      000000E4H   SFRSYM    DATA     BYTE      DPL1
      000000BDH   SFRSYM    DATA     BYTE      ADC_RES
      000000B6H   SFRSYM    DATA     BYTE      IP2H
      000000EEH   SFRSYM    DATA     BYTE      IP3H
      000000AEH   SFRSYM    DATA     BYTE      TA
      0000008FH   SFRSYM    DATA     BYTE      INTCLKO
      000000A8H.4 SFRSYM    DATA     BIT       ES
      000000B8H.5 SFRSYM    DATA     BIT       PADC
      000000B8H   SFRSYM    DATA     BYTE      IP
      000000DEH   SFRSYM    DATA     BYTE      ADCCFG
      00000098H.0 SFRSYM    DATA     BIT       RI
      000000D0H.7 SFRSYM    DATA     BIT       CY
      00000098H.1 SFRSYM    DATA     BIT       TI
      000000C3H   SFRSYM    DATA     BYTE      IAP_ADDRH
      000000B8H.4 SFRSYM    DATA     BIT       PS
      00000081H   SFRSYM    DATA     BYTE      SP
      000000C4H   SFRSYM    DATA     BYTE      IAP_ADDRL
      000000D0H.2 SFRSYM    DATA     BIT       OV
      000000B8H.7 SFRSYM    DATA     BIT       PPCA
      0000009EH   SFRSYM    DATA     BYTE      LIRTRIM
      000000E6H   SFRSYM    DATA     BYTE      CMPCR1
      000000E7H   SFRSYM    DATA     BYTE      CMPCR2
      000000A8H.6 SFRSYM    DATA     BIT       ELVD
      00000080H.0 SFRSYM    DATA     BIT       P00
      000000BCH   SFRSYM    DATA     BYTE      ADC_CONTR
      00000099H   SFRSYM    DATA     BYTE      SBUF
      00000090H.0 SFRSYM    DATA     BIT       P10
      00000087H   SFRSYM    DATA     BYTE      PCON
      00000080H.1 SFRSYM    DATA     BIT       P01
      000000A0H.0 SFRSYM    DATA     BIT       P20
      00000090H.1 SFRSYM    DATA     BIT       P11
      00000080H.2 SFRSYM    DATA     BIT       P02
      000000F5H   SFRSYM    DATA     BYTE      IAP_TPS
      000000B0H.0 SFRSYM    DATA     BIT       P30
      000000A0H.1 SFRSYM    DATA     BIT       P21
      00000090H.2 SFRSYM    DATA     BIT       P12
      00000080H.3 SFRSYM    DATA     BIT       P03
      000000C0H.0 SFRSYM    DATA     BIT       P40
      000000B0H.1 SFRSYM    DATA     BIT       P31
      000000A0H.2 SFRSYM    DATA     BIT       P22
      00000098H   SFRSYM    DATA     BYTE      SCON
      00000090H.3 SFRSYM    DATA     BIT       P13
      00000080H.4 SFRSYM    DATA     BIT       P04
      000000C8H.0 SFRSYM    DATA     BIT       P50
      000000C0H.1 SFRSYM    DATA     BIT       P41
      000000B0H.2 SFRSYM    DATA     BIT       P32
      000000A0H.3 SFRSYM    DATA     BIT       P23
      00000090H.4 SFRSYM    DATA     BIT       P14
      00000089H   SFRSYM    DATA     BYTE      TMOD
      00000088H   SFRSYM    DATA     BYTE      TCON
      00000080H.5 SFRSYM    DATA     BIT       P05
      000000E8H.0 SFRSYM    DATA     BIT       P60
      000000C8H.1 SFRSYM    DATA     BIT       P51
      000000C0H.2 SFRSYM    DATA     BIT       P42
      000000B0H.3 SFRSYM    DATA     BIT       P33
      000000A0H.4 SFRSYM    DATA     BIT       P24
      00000090H.5 SFRSYM    DATA     BIT       P15
      00000080H.6 SFRSYM    DATA     BIT       P06
      000000F8H.0 SFRSYM    DATA     BIT       P70
      000000E8H.1 SFRSYM    DATA     BIT       P61
      000000C8H.2 SFRSYM    DATA     BIT       P52
      000000C0H.3 SFRSYM    DATA     BIT       P43
      000000B8H.6 SFRSYM    DATA     BIT       PLVD
      000000B0H.4 SFRSYM    DATA     BIT       P34
      000000A0H.5 SFRSYM    DATA     BIT       P25
LX51 LINKER/LOCATER V4.66.87.0                                                        04/03/2025  13:07:21  PAGE 29


      00000090H.6 SFRSYM    DATA     BIT       P16
      00000080H.7 SFRSYM    DATA     BIT       P07
      000000F8H.1 SFRSYM    DATA     BIT       P71
      000000E8H.2 SFRSYM    DATA     BIT       P62
      000000C8H.3 SFRSYM    DATA     BIT       P53
      000000C0H.4 SFRSYM    DATA     BIT       P44
      000000B0H.5 SFRSYM    DATA     BIT       P35
      000000A0H.6 SFRSYM    DATA     BIT       P26
      00000090H.7 SFRSYM    DATA     BIT       P17
      000000F8H.2 SFRSYM    DATA     BIT       P72
      000000E8H.3 SFRSYM    DATA     BIT       P63
      000000C8H.4 SFRSYM    DATA     BIT       P54
      000000C0H.5 SFRSYM    DATA     BIT       P45
      000000B0H.6 SFRSYM    DATA     BIT       P36
      000000A0H.7 SFRSYM    DATA     BIT       P27
      000000F8H.3 SFRSYM    DATA     BIT       P73
      000000E8H.4 SFRSYM    DATA     BIT       P64
      000000C8H.5 SFRSYM    DATA     BIT       P55
      000000C0H.6 SFRSYM    DATA     BIT       P46
      000000B0H.7 SFRSYM    DATA     BIT       P37
      000000F8H.4 SFRSYM    DATA     BIT       P74
      000000E8H.5 SFRSYM    DATA     BIT       P65
      000000C8H.6 SFRSYM    DATA     BIT       P56
      000000C0H.7 SFRSYM    DATA     BIT       P47
      000000F8H.5 SFRSYM    DATA     BIT       P75
      000000E8H.6 SFRSYM    DATA     BIT       P66
      000000C8H.7 SFRSYM    DATA     BIT       P57
      000000F8H.6 SFRSYM    DATA     BIT       P76
      000000E8H.7 SFRSYM    DATA     BIT       P67
      000000F8H.7 SFRSYM    DATA     BIT       P77
      00000088H.1 SFRSYM    DATA     BIT       IE0
      00000088H.3 SFRSYM    DATA     BIT       IE1
      000000AFH   SFRSYM    DATA     BYTE      IE2
      000000F0H   SFRSYM    DATA     BYTE      B
      0000008EH   SFRSYM    DATA     BYTE      AUXR
      000000FCH   SFRSYM    DATA     BYTE      USBADR
      000000C7H   SFRSYM    DATA     BYTE      IAP_CONTR
      000000ECH   SFRSYM    DATA     BYTE      USBDAT
      000000DCH   SFRSYM    DATA     BYTE      USBCLK
      000000E0H   SFRSYM    DATA     BYTE      ACC
      000000A8H.1 SFRSYM    DATA     BIT       ET0
      000000A8H.3 SFRSYM    DATA     BIT       ET1
      00000088H.5 SFRSYM    DATA     BIT       TF0
      000000FFH   SFRSYM    DATA     BYTE      RSTCFG
      000000B5H   SFRSYM    DATA     BYTE      IP2
      00000088H.7 SFRSYM    DATA     BIT       TF1
      000000F4H   SFRSYM    DATA     BYTE      USBCON
      000000DFH   SFRSYM    DATA     BYTE      IP3
      00000098H.2 SFRSYM    DATA     BIT       RB8
      0000008CH   SFRSYM    DATA     BYTE      TH0
      000000A8H.0 SFRSYM    DATA     BIT       EX0
      0000008DH   SFRSYM    DATA     BYTE      TH1
      00000088H.0 SFRSYM    DATA     BIT       IT0
      000000D6H   SFRSYM    DATA     BYTE      T2H
      000000A8H.2 SFRSYM    DATA     BIT       EX1
      00000098H.3 SFRSYM    DATA     BIT       TB8
      00000088H.2 SFRSYM    DATA     BIT       IT1
      000000D4H   SFRSYM    DATA     BYTE      T3H
      000000D0H.0 SFRSYM    DATA     BIT       P
      000000D2H   SFRSYM    DATA     BYTE      T4H
      00000098H.7 SFRSYM    DATA     BIT       SM0
      0000008AH   SFRSYM    DATA     BYTE      TL0
      00000098H.6 SFRSYM    DATA     BIT       SM1
      0000008BH   SFRSYM    DATA     BYTE      TL1
      000000D7H   SFRSYM    DATA     BYTE      T2L
LX51 LINKER/LOCATER V4.66.87.0                                                        04/03/2025  13:07:21  PAGE 30


      00000098H.5 SFRSYM    DATA     BIT       SM2
      000000D5H   SFRSYM    DATA     BYTE      T3L
      000000D3H   SFRSYM    DATA     BYTE      T4L
      000000B8H.1 SFRSYM    DATA     BIT       PT0
      000000D0H.3 SFRSYM    DATA     BIT       RS0
      000000B8H.3 SFRSYM    DATA     BIT       PT1
      000000D0H.4 SFRSYM    DATA     BIT       RS1
      000000C2H   SFRSYM    DATA     BYTE      IAP_DATA
      00000088H.4 SFRSYM    DATA     BIT       TR0
      00000088H.6 SFRSYM    DATA     BIT       TR1
      000000C1H   SFRSYM    DATA     BYTE      WDT_CONTR
      000000B8H.0 SFRSYM    DATA     BIT       PX0
      000000B8H.2 SFRSYM    DATA     BIT       PX1
      0000009FH   SFRSYM    DATA     BYTE      IRTRIM
      00000083H   SFRSYM    DATA     BYTE      DPH
      000000D1H   SFRSYM    DATA     BYTE      T4T3M
      000000BEH   SFRSYM    DATA     BYTE      ADC_RESL
      00000082H   SFRSYM    DATA     BYTE      DPL
      000000CDH   SFRSYM    DATA     BYTE      SPSTAT
      000000B7H   SFRSYM    DATA     BYTE      IPH
      0000009BH   SFRSYM    DATA     BYTE      S2BUF
      000000ADH   SFRSYM    DATA     BYTE      S3BUF
      00000098H.4 SFRSYM    DATA     BIT       REN
      00000085H   SFRSYM    DATA     BYTE      S4BUF
      0000009AH   SFRSYM    DATA     BYTE      S2CON
      000000E3H   SFRSYM    DATA     BYTE      DPS
      000000ACH   SFRSYM    DATA     BYTE      S3CON
      00000084H   SFRSYM    DATA     BYTE      S4CON
      000000EFH   SFRSYM    DATA     BYTE      AUXINTIF
      000000B9H   SFRSYM    DATA     BYTE      SADEN
      000000A9H   SFRSYM    DATA     BYTE      SADDR
      000000C6H   SFRSYM    DATA     BYTE      IAP_TRIG
      000000D0H.5 SFRSYM    DATA     BIT       F0
      0000009DH   SFRSYM    DATA     BYTE      IRCBAND
      000000D0H.1 SFRSYM    DATA     BIT       F1
      000000D0H   SFRSYM    DATA     BYTE      PSW
      000000CFH   SFRSYM    DATA     BYTE      SPDAT
      00000094H   SFRSYM    DATA     BYTE      P0M0
      020003E6H   SYMBOL    XDATA    ---       Task_Comps

      0100109FH   BLOCK     CODE     ---       LVL=0
      0100109FH   BLOCK     CODE     NEAR LAB  LVL=1
      00000007H   SYMBOL    DATA     BYTE      i
      ---         BLOCKEND  ---      ---       LVL=1
      0100109FH   LINE      CODE     ---       #48
      0100109FH   LINE      CODE     ---       #49
      0100109FH   LINE      CODE     ---       #51
      010010ABH   LINE      CODE     ---       #52
      010010ABH   LINE      CODE     ---       #53
      010010C0H   LINE      CODE     ---       #54
      010010C0H   LINE      CODE     ---       #55
      010010D5H   LINE      CODE     ---       #56
      010010EAH   LINE      CODE     ---       #57
      010010EAH   LINE      CODE     ---       #59
      01001110H   LINE      CODE     ---       #60
      01001121H   LINE      CODE     ---       #61
      01001121H   LINE      CODE     ---       #62
      01001121H   LINE      CODE     ---       #63
      01001125H   LINE      CODE     ---       #64
      ---         BLOCKEND  ---      ---       LVL=0

      010011FAH   BLOCK     CODE     ---       LVL=0
      010011FAH   BLOCK     CODE     NEAR LAB  LVL=1
      020003B9H   SYMBOL    XDATA    BYTE      i
      ---         BLOCKEND  ---      ---       LVL=1
LX51 LINKER/LOCATER V4.66.87.0                                                        04/03/2025  13:07:21  PAGE 31


      010011FAH   LINE      CODE     ---       #73
      010011FAH   LINE      CODE     ---       #74
      010011FAH   LINE      CODE     ---       #76
      0100120DH   LINE      CODE     ---       #77
      0100120DH   LINE      CODE     ---       #78
      0100121EH   LINE      CODE     ---       #79
      0100121EH   LINE      CODE     ---       #80
      01001232H   LINE      CODE     ---       #81
      01001249H   LINE      CODE     ---       #82
      01001249H   LINE      CODE     ---       #83
      01001251H   LINE      CODE     ---       #84
      ---         BLOCKEND  ---      ---       LVL=0

      ---         MODULE    ---      ---       ISR
      01000123H   LINE      CODE     ---       #3

      ---         MODULE    ---      ---       APP
      020003E4H   PUBLIC    XDATA    BYTE      display_index
      020003E2H   PUBLIC    XDATA    WORD      msecond
      020003E1H   PUBLIC    XDATA    BYTE      KeyHoldCnt
      020003E0H   PUBLIC    XDATA    BYTE      IO_KeyState1
      020003DFH   PUBLIC    XDATA    BYTE      IO_KeyHoldCnt
      020003DEH   PUBLIC    XDATA    BYTE      hour
      020003DDH   PUBLIC    XDATA    BYTE      IO_KeyState
      020003DCH   PUBLIC    XDATA    BYTE      KeyCode
      020003DBH   PUBLIC    XDATA    BYTE      minute
      020003D3H   PUBLIC    XDATA    ---       LED8
      020003D2H   PUBLIC    XDATA    BYTE      cnt50ms
      020003D1H   PUBLIC    XDATA    BYTE      second
      0100011CH   PUBLIC    CODE     ---       APP_config
      000000DCH   SFRSYM    DATA     BYTE      PLLCR
      00000093H   SFRSYM    DATA     BYTE      P0M1
      00000092H   SFRSYM    DATA     BYTE      P1M0
      00000096H   SFRSYM    DATA     BYTE      P2M0
      00000091H   SFRSYM    DATA     BYTE      P1M1
      00000080H   SFRSYM    DATA     BYTE      P0
      000000B2H   SFRSYM    DATA     BYTE      P3M0
      00000095H   SFRSYM    DATA     BYTE      P2M1
      00000090H   SFRSYM    DATA     BYTE      P1
      000000B4H   SFRSYM    DATA     BYTE      P4M0
      000000B1H   SFRSYM    DATA     BYTE      P3M1
      000000A0H   SFRSYM    DATA     BYTE      P2
      000000CAH   SFRSYM    DATA     BYTE      P5M0
      000000B3H   SFRSYM    DATA     BYTE      P4M1
      000000B0H   SFRSYM    DATA     BYTE      P3
      000000ABH   SFRSYM    DATA     BYTE      WKTCH
      000000D0H.6 SFRSYM    DATA     BIT       AC
      000000CCH   SFRSYM    DATA     BYTE      P6M0
      000000C9H   SFRSYM    DATA     BYTE      P5M1
      000000C0H   SFRSYM    DATA     BYTE      P4
      000000E2H   SFRSYM    DATA     BYTE      P7M0
      000000CBH   SFRSYM    DATA     BYTE      P6M1
      000000C8H   SFRSYM    DATA     BYTE      P5
      000000E8H   SFRSYM    DATA     BYTE      P6
      000000E1H   SFRSYM    DATA     BYTE      P7M1
      000000A8H.7 SFRSYM    DATA     BIT       EA
      000000F8H   SFRSYM    DATA     BYTE      P7
      000000AAH   SFRSYM    DATA     BYTE      WKTCL
      000000CEH   SFRSYM    DATA     BYTE      SPCTL
      000000A2H   SFRSYM    DATA     BYTE      P_SW1
      000000BAH   SFRSYM    DATA     BYTE      P_SW2
      000000E5H   SFRSYM    DATA     BYTE      DPH1
      000000A8H.5 SFRSYM    DATA     BIT       EADC
      000000A8H   SFRSYM    DATA     BYTE      IE
      000000C5H   SFRSYM    DATA     BYTE      IAP_CMD
LX51 LINKER/LOCATER V4.66.87.0                                                        04/03/2025  13:07:21  PAGE 32


      000000E4H   SFRSYM    DATA     BYTE      DPL1
      000000BDH   SFRSYM    DATA     BYTE      ADC_RES
      000000B6H   SFRSYM    DATA     BYTE      IP2H
      000000EEH   SFRSYM    DATA     BYTE      IP3H
      000000AEH   SFRSYM    DATA     BYTE      TA
      0000008FH   SFRSYM    DATA     BYTE      INTCLKO
      000000A8H.4 SFRSYM    DATA     BIT       ES
      000000B8H.5 SFRSYM    DATA     BIT       PADC
      000000B8H   SFRSYM    DATA     BYTE      IP
      000000DEH   SFRSYM    DATA     BYTE      ADCCFG
      00000098H.0 SFRSYM    DATA     BIT       RI
      000000D0H.7 SFRSYM    DATA     BIT       CY
      00000098H.1 SFRSYM    DATA     BIT       TI
      000000C3H   SFRSYM    DATA     BYTE      IAP_ADDRH
      000000B8H.4 SFRSYM    DATA     BIT       PS
      00000081H   SFRSYM    DATA     BYTE      SP
      000000C4H   SFRSYM    DATA     BYTE      IAP_ADDRL
      000000D0H.2 SFRSYM    DATA     BIT       OV
      000000B8H.7 SFRSYM    DATA     BIT       PPCA
      0000009EH   SFRSYM    DATA     BYTE      LIRTRIM
      000000E6H   SFRSYM    DATA     BYTE      CMPCR1
      000000E7H   SFRSYM    DATA     BYTE      CMPCR2
      000000A8H.6 SFRSYM    DATA     BIT       ELVD
      00000080H.0 SFRSYM    DATA     BIT       P00
      000000BCH   SFRSYM    DATA     BYTE      ADC_CONTR
      00000099H   SFRSYM    DATA     BYTE      SBUF
      00000090H.0 SFRSYM    DATA     BIT       P10
      00000087H   SFRSYM    DATA     BYTE      PCON
      00000080H.1 SFRSYM    DATA     BIT       P01
      000000A0H.0 SFRSYM    DATA     BIT       P20
      00000090H.1 SFRSYM    DATA     BIT       P11
      00000080H.2 SFRSYM    DATA     BIT       P02
      000000F5H   SFRSYM    DATA     BYTE      IAP_TPS
      000000B0H.0 SFRSYM    DATA     BIT       P30
      000000A0H.1 SFRSYM    DATA     BIT       P21
      00000090H.2 SFRSYM    DATA     BIT       P12
      00000080H.3 SFRSYM    DATA     BIT       P03
      000000C0H.0 SFRSYM    DATA     BIT       P40
      000000B0H.1 SFRSYM    DATA     BIT       P31
      000000A0H.2 SFRSYM    DATA     BIT       P22
      00000098H   SFRSYM    DATA     BYTE      SCON
      00000090H.3 SFRSYM    DATA     BIT       P13
      00000080H.4 SFRSYM    DATA     BIT       P04
      000000C8H.0 SFRSYM    DATA     BIT       P50
      000000C0H.1 SFRSYM    DATA     BIT       P41
      000000B0H.2 SFRSYM    DATA     BIT       P32
      000000A0H.3 SFRSYM    DATA     BIT       P23
      00000090H.4 SFRSYM    DATA     BIT       P14
      00000089H   SFRSYM    DATA     BYTE      TMOD
      00000088H   SFRSYM    DATA     BYTE      TCON
      00000080H.5 SFRSYM    DATA     BIT       P05
      000000E8H.0 SFRSYM    DATA     BIT       P60
      000000C8H.1 SFRSYM    DATA     BIT       P51
      000000C0H.2 SFRSYM    DATA     BIT       P42
      000000B0H.3 SFRSYM    DATA     BIT       P33
      000000A0H.4 SFRSYM    DATA     BIT       P24
      00000090H.5 SFRSYM    DATA     BIT       P15
      00000080H.6 SFRSYM    DATA     BIT       P06
      000000F8H.0 SFRSYM    DATA     BIT       P70
      000000E8H.1 SFRSYM    DATA     BIT       P61
      000000C8H.2 SFRSYM    DATA     BIT       P52
      000000C0H.3 SFRSYM    DATA     BIT       P43
      000000B8H.6 SFRSYM    DATA     BIT       PLVD
      000000B0H.4 SFRSYM    DATA     BIT       P34
      000000A0H.5 SFRSYM    DATA     BIT       P25
LX51 LINKER/LOCATER V4.66.87.0                                                        04/03/2025  13:07:21  PAGE 33


      00000090H.6 SFRSYM    DATA     BIT       P16
      00000080H.7 SFRSYM    DATA     BIT       P07
      000000F8H.1 SFRSYM    DATA     BIT       P71
      000000E8H.2 SFRSYM    DATA     BIT       P62
      000000C8H.3 SFRSYM    DATA     BIT       P53
      000000C0H.4 SFRSYM    DATA     BIT       P44
      000000B0H.5 SFRSYM    DATA     BIT       P35
      000000A0H.6 SFRSYM    DATA     BIT       P26
      00000090H.7 SFRSYM    DATA     BIT       P17
      000000F8H.2 SFRSYM    DATA     BIT       P72
      000000E8H.3 SFRSYM    DATA     BIT       P63
      000000C8H.4 SFRSYM    DATA     BIT       P54
      000000C0H.5 SFRSYM    DATA     BIT       P45
      000000B0H.6 SFRSYM    DATA     BIT       P36
      000000A0H.7 SFRSYM    DATA     BIT       P27
      000000F8H.3 SFRSYM    DATA     BIT       P73
      000000E8H.4 SFRSYM    DATA     BIT       P64
      000000C8H.5 SFRSYM    DATA     BIT       P55
      000000C0H.6 SFRSYM    DATA     BIT       P46
      000000B0H.7 SFRSYM    DATA     BIT       P37
      000000F8H.4 SFRSYM    DATA     BIT       P74
      000000E8H.5 SFRSYM    DATA     BIT       P65
      000000C8H.6 SFRSYM    DATA     BIT       P56
      000000C0H.7 SFRSYM    DATA     BIT       P47
      000000F8H.5 SFRSYM    DATA     BIT       P75
      000000E8H.6 SFRSYM    DATA     BIT       P66
      000000C8H.7 SFRSYM    DATA     BIT       P57
      000000F8H.6 SFRSYM    DATA     BIT       P76
      000000E8H.7 SFRSYM    DATA     BIT       P67
      000000F8H.7 SFRSYM    DATA     BIT       P77
      00000088H.1 SFRSYM    DATA     BIT       IE0
      00000088H.3 SFRSYM    DATA     BIT       IE1
      000000AFH   SFRSYM    DATA     BYTE      IE2
      000000F0H   SFRSYM    DATA     BYTE      B
      0000008EH   SFRSYM    DATA     BYTE      AUXR
      000000FCH   SFRSYM    DATA     BYTE      USBADR
      000000C7H   SFRSYM    DATA     BYTE      IAP_CONTR
      000000ECH   SFRSYM    DATA     BYTE      USBDAT
      000000DCH   SFRSYM    DATA     BYTE      USBCLK
      000000E0H   SFRSYM    DATA     BYTE      ACC
      000000A8H.1 SFRSYM    DATA     BIT       ET0
      000000A8H.3 SFRSYM    DATA     BIT       ET1
      00000088H.5 SFRSYM    DATA     BIT       TF0
      000000FFH   SFRSYM    DATA     BYTE      RSTCFG
      000000B5H   SFRSYM    DATA     BYTE      IP2
      00000088H.7 SFRSYM    DATA     BIT       TF1
      000000F4H   SFRSYM    DATA     BYTE      USBCON
      000000DFH   SFRSYM    DATA     BYTE      IP3
      00000098H.2 SFRSYM    DATA     BIT       RB8
      0000008CH   SFRSYM    DATA     BYTE      TH0
      000000A8H.0 SFRSYM    DATA     BIT       EX0
      0000008DH   SFRSYM    DATA     BYTE      TH1
      00000088H.0 SFRSYM    DATA     BIT       IT0
      000000D6H   SFRSYM    DATA     BYTE      T2H
      000000A8H.2 SFRSYM    DATA     BIT       EX1
      00000098H.3 SFRSYM    DATA     BIT       TB8
      00000088H.2 SFRSYM    DATA     BIT       IT1
      000000D4H   SFRSYM    DATA     BYTE      T3H
      000000D0H.0 SFRSYM    DATA     BIT       P
      000000D2H   SFRSYM    DATA     BYTE      T4H
      00000098H.7 SFRSYM    DATA     BIT       SM0
      0000008AH   SFRSYM    DATA     BYTE      TL0
      00000098H.6 SFRSYM    DATA     BIT       SM1
      0000008BH   SFRSYM    DATA     BYTE      TL1
      000000D7H   SFRSYM    DATA     BYTE      T2L
LX51 LINKER/LOCATER V4.66.87.0                                                        04/03/2025  13:07:21  PAGE 34


      00000098H.5 SFRSYM    DATA     BIT       SM2
      000000D5H   SFRSYM    DATA     BYTE      T3L
      000000D3H   SFRSYM    DATA     BYTE      T4L
      000000B8H.1 SFRSYM    DATA     BIT       PT0
      000000D0H.3 SFRSYM    DATA     BIT       RS0
      000000B8H.3 SFRSYM    DATA     BIT       PT1
      000000D0H.4 SFRSYM    DATA     BIT       RS1
      000000C2H   SFRSYM    DATA     BYTE      IAP_DATA
      00000088H.4 SFRSYM    DATA     BIT       TR0
      00000088H.6 SFRSYM    DATA     BIT       TR1
      000000C1H   SFRSYM    DATA     BYTE      WDT_CONTR
      000000B8H.0 SFRSYM    DATA     BIT       PX0
      000000B8H.2 SFRSYM    DATA     BIT       PX1
      0000009FH   SFRSYM    DATA     BYTE      IRTRIM
      00000083H   SFRSYM    DATA     BYTE      DPH
      000000D1H   SFRSYM    DATA     BYTE      T4T3M
      000000BEH   SFRSYM    DATA     BYTE      ADC_RESL
      00000082H   SFRSYM    DATA     BYTE      DPL
      000000CDH   SFRSYM    DATA     BYTE      SPSTAT
      000000B7H   SFRSYM    DATA     BYTE      IPH
      0000009BH   SFRSYM    DATA     BYTE      S2BUF
      000000ADH   SFRSYM    DATA     BYTE      S3BUF
      00000098H.4 SFRSYM    DATA     BIT       REN
      00000085H   SFRSYM    DATA     BYTE      S4BUF
      0000009AH   SFRSYM    DATA     BYTE      S2CON
      000000E3H   SFRSYM    DATA     BYTE      DPS
      000000ACH   SFRSYM    DATA     BYTE      S3CON
      00000084H   SFRSYM    DATA     BYTE      S4CON
      000000EFH   SFRSYM    DATA     BYTE      AUXINTIF
      000000B9H   SFRSYM    DATA     BYTE      SADEN
      000000A9H   SFRSYM    DATA     BYTE      SADDR
      000000C6H   SFRSYM    DATA     BYTE      IAP_TRIG
      000000D0H.5 SFRSYM    DATA     BIT       F0
      0000009DH   SFRSYM    DATA     BYTE      IRCBAND
      000000D0H.1 SFRSYM    DATA     BIT       F1
      000000D0H   SFRSYM    DATA     BYTE      PSW
      000000CFH   SFRSYM    DATA     BYTE      SPDAT
      00000094H   SFRSYM    DATA     BYTE      P0M0

      0100011CH   BLOCK     CODE     ---       LVL=0
      0100011CH   LINE      CODE     ---       #52
      0100011CH   LINE      CODE     ---       #53
      0100011CH   LINE      CODE     ---       #54
      0100011FH   LINE      CODE     ---       #55
      ---         BLOCKEND  ---      ---       LVL=0

      ---         MODULE    ---      ---       APP_AD_UART2
      0200044EH   PUBLIC    XDATA    BYTE      index
      01000EA6H   PUBLIC    CODE     ---       Sample_ADtoUART
      0100119EH   PUBLIC    CODE     ---       ADtoUART_init
      000000DCH   SFRSYM    DATA     BYTE      PLLCR
      00000093H   SFRSYM    DATA     BYTE      P0M1
      00000092H   SFRSYM    DATA     BYTE      P1M0
      00000096H   SFRSYM    DATA     BYTE      P2M0
      00000091H   SFRSYM    DATA     BYTE      P1M1
      00000080H   SFRSYM    DATA     BYTE      P0
      000000B2H   SFRSYM    DATA     BYTE      P3M0
      00000095H   SFRSYM    DATA     BYTE      P2M1
      00000090H   SFRSYM    DATA     BYTE      P1
      000000B4H   SFRSYM    DATA     BYTE      P4M0
      000000B1H   SFRSYM    DATA     BYTE      P3M1
      000000A0H   SFRSYM    DATA     BYTE      P2
      000000CAH   SFRSYM    DATA     BYTE      P5M0
      000000B3H   SFRSYM    DATA     BYTE      P4M1
      000000B0H   SFRSYM    DATA     BYTE      P3
LX51 LINKER/LOCATER V4.66.87.0                                                        04/03/2025  13:07:21  PAGE 35


      000000ABH   SFRSYM    DATA     BYTE      WKTCH
      000000D0H.6 SFRSYM    DATA     BIT       AC
      000000CCH   SFRSYM    DATA     BYTE      P6M0
      000000C9H   SFRSYM    DATA     BYTE      P5M1
      000000C0H   SFRSYM    DATA     BYTE      P4
      000000E2H   SFRSYM    DATA     BYTE      P7M0
      000000CBH   SFRSYM    DATA     BYTE      P6M1
      000000C8H   SFRSYM    DATA     BYTE      P5
      000000E8H   SFRSYM    DATA     BYTE      P6
      000000E1H   SFRSYM    DATA     BYTE      P7M1
      000000A8H.7 SFRSYM    DATA     BIT       EA
      000000F8H   SFRSYM    DATA     BYTE      P7
      000000AAH   SFRSYM    DATA     BYTE      WKTCL
      000000CEH   SFRSYM    DATA     BYTE      SPCTL
      000000A2H   SFRSYM    DATA     BYTE      P_SW1
      000000BAH   SFRSYM    DATA     BYTE      P_SW2
      000000E5H   SFRSYM    DATA     BYTE      DPH1
      000000A8H.5 SFRSYM    DATA     BIT       EADC
      000000A8H   SFRSYM    DATA     BYTE      IE
      000000C5H   SFRSYM    DATA     BYTE      IAP_CMD
      000000E4H   SFRSYM    DATA     BYTE      DPL1
      000000BDH   SFRSYM    DATA     BYTE      ADC_RES
      000000B6H   SFRSYM    DATA     BYTE      IP2H
      000000EEH   SFRSYM    DATA     BYTE      IP3H
      000000AEH   SFRSYM    DATA     BYTE      TA
      0000008FH   SFRSYM    DATA     BYTE      INTCLKO
      000000A8H.4 SFRSYM    DATA     BIT       ES
      000000B8H.5 SFRSYM    DATA     BIT       PADC
      000000B8H   SFRSYM    DATA     BYTE      IP
      000000DEH   SFRSYM    DATA     BYTE      ADCCFG
      00000098H.0 SFRSYM    DATA     BIT       RI
      000000D0H.7 SFRSYM    DATA     BIT       CY
      00000098H.1 SFRSYM    DATA     BIT       TI
      000000C3H   SFRSYM    DATA     BYTE      IAP_ADDRH
      000000B8H.4 SFRSYM    DATA     BIT       PS
      00000081H   SFRSYM    DATA     BYTE      SP
      000000C4H   SFRSYM    DATA     BYTE      IAP_ADDRL
      000000D0H.2 SFRSYM    DATA     BIT       OV
      000000B8H.7 SFRSYM    DATA     BIT       PPCA
      0000009EH   SFRSYM    DATA     BYTE      LIRTRIM
      000000E6H   SFRSYM    DATA     BYTE      CMPCR1
      000000E7H   SFRSYM    DATA     BYTE      CMPCR2
      000000A8H.6 SFRSYM    DATA     BIT       ELVD
      00000080H.0 SFRSYM    DATA     BIT       P00
      000000BCH   SFRSYM    DATA     BYTE      ADC_CONTR
      00000099H   SFRSYM    DATA     BYTE      SBUF
      00000090H.0 SFRSYM    DATA     BIT       P10
      00000087H   SFRSYM    DATA     BYTE      PCON
      00000080H.1 SFRSYM    DATA     BIT       P01
      000000A0H.0 SFRSYM    DATA     BIT       P20
      00000090H.1 SFRSYM    DATA     BIT       P11
      00000080H.2 SFRSYM    DATA     BIT       P02
      000000F5H   SFRSYM    DATA     BYTE      IAP_TPS
      000000B0H.0 SFRSYM    DATA     BIT       P30
      000000A0H.1 SFRSYM    DATA     BIT       P21
      00000090H.2 SFRSYM    DATA     BIT       P12
      00000080H.3 SFRSYM    DATA     BIT       P03
      000000C0H.0 SFRSYM    DATA     BIT       P40
      000000B0H.1 SFRSYM    DATA     BIT       P31
      000000A0H.2 SFRSYM    DATA     BIT       P22
      00000098H   SFRSYM    DATA     BYTE      SCON
      00000090H.3 SFRSYM    DATA     BIT       P13
      00000080H.4 SFRSYM    DATA     BIT       P04
      000000C8H.0 SFRSYM    DATA     BIT       P50
      000000C0H.1 SFRSYM    DATA     BIT       P41
LX51 LINKER/LOCATER V4.66.87.0                                                        04/03/2025  13:07:21  PAGE 36


      000000B0H.2 SFRSYM    DATA     BIT       P32
      000000A0H.3 SFRSYM    DATA     BIT       P23
      00000090H.4 SFRSYM    DATA     BIT       P14
      00000089H   SFRSYM    DATA     BYTE      TMOD
      00000088H   SFRSYM    DATA     BYTE      TCON
      00000080H.5 SFRSYM    DATA     BIT       P05
      000000E8H.0 SFRSYM    DATA     BIT       P60
      000000C8H.1 SFRSYM    DATA     BIT       P51
      000000C0H.2 SFRSYM    DATA     BIT       P42
      000000B0H.3 SFRSYM    DATA     BIT       P33
      000000A0H.4 SFRSYM    DATA     BIT       P24
      00000090H.5 SFRSYM    DATA     BIT       P15
      00000080H.6 SFRSYM    DATA     BIT       P06
      000000F8H.0 SFRSYM    DATA     BIT       P70
      000000E8H.1 SFRSYM    DATA     BIT       P61
      000000C8H.2 SFRSYM    DATA     BIT       P52
      000000C0H.3 SFRSYM    DATA     BIT       P43
      000000B8H.6 SFRSYM    DATA     BIT       PLVD
      000000B0H.4 SFRSYM    DATA     BIT       P34
      000000A0H.5 SFRSYM    DATA     BIT       P25
      00000090H.6 SFRSYM    DATA     BIT       P16
      00000080H.7 SFRSYM    DATA     BIT       P07
      000000F8H.1 SFRSYM    DATA     BIT       P71
      000000E8H.2 SFRSYM    DATA     BIT       P62
      000000C8H.3 SFRSYM    DATA     BIT       P53
      000000C0H.4 SFRSYM    DATA     BIT       P44
      000000B0H.5 SFRSYM    DATA     BIT       P35
      000000A0H.6 SFRSYM    DATA     BIT       P26
      00000090H.7 SFRSYM    DATA     BIT       P17
      000000F8H.2 SFRSYM    DATA     BIT       P72
      000000E8H.3 SFRSYM    DATA     BIT       P63
      000000C8H.4 SFRSYM    DATA     BIT       P54
      000000C0H.5 SFRSYM    DATA     BIT       P45
      000000B0H.6 SFRSYM    DATA     BIT       P36
      000000A0H.7 SFRSYM    DATA     BIT       P27
      000000F8H.3 SFRSYM    DATA     BIT       P73
      000000E8H.4 SFRSYM    DATA     BIT       P64
      000000C8H.5 SFRSYM    DATA     BIT       P55
      000000C0H.6 SFRSYM    DATA     BIT       P46
      000000B0H.7 SFRSYM    DATA     BIT       P37
      000000F8H.4 SFRSYM    DATA     BIT       P74
      000000E8H.5 SFRSYM    DATA     BIT       P65
      000000C8H.6 SFRSYM    DATA     BIT       P56
      000000C0H.7 SFRSYM    DATA     BIT       P47
      000000F8H.5 SFRSYM    DATA     BIT       P75
      000000E8H.6 SFRSYM    DATA     BIT       P66
      000000C8H.7 SFRSYM    DATA     BIT       P57
      000000F8H.6 SFRSYM    DATA     BIT       P76
      000000E8H.7 SFRSYM    DATA     BIT       P67
      000000F8H.7 SFRSYM    DATA     BIT       P77
      00000088H.1 SFRSYM    DATA     BIT       IE0
      00000088H.3 SFRSYM    DATA     BIT       IE1
      000000AFH   SFRSYM    DATA     BYTE      IE2
      000000F0H   SFRSYM    DATA     BYTE      B
      0000008EH   SFRSYM    DATA     BYTE      AUXR
      000000FCH   SFRSYM    DATA     BYTE      USBADR
      000000C7H   SFRSYM    DATA     BYTE      IAP_CONTR
      000000ECH   SFRSYM    DATA     BYTE      USBDAT
      000000DCH   SFRSYM    DATA     BYTE      USBCLK
      000000E0H   SFRSYM    DATA     BYTE      ACC
      000000A8H.1 SFRSYM    DATA     BIT       ET0
      000000A8H.3 SFRSYM    DATA     BIT       ET1
      00000088H.5 SFRSYM    DATA     BIT       TF0
      000000FFH   SFRSYM    DATA     BYTE      RSTCFG
      000000B5H   SFRSYM    DATA     BYTE      IP2
LX51 LINKER/LOCATER V4.66.87.0                                                        04/03/2025  13:07:21  PAGE 37


      00000088H.7 SFRSYM    DATA     BIT       TF1
      000000F4H   SFRSYM    DATA     BYTE      USBCON
      000000DFH   SFRSYM    DATA     BYTE      IP3
      00000098H.2 SFRSYM    DATA     BIT       RB8
      0000008CH   SFRSYM    DATA     BYTE      TH0
      000000A8H.0 SFRSYM    DATA     BIT       EX0
      0000008DH   SFRSYM    DATA     BYTE      TH1
      00000088H.0 SFRSYM    DATA     BIT       IT0
      000000D6H   SFRSYM    DATA     BYTE      T2H
      000000A8H.2 SFRSYM    DATA     BIT       EX1
      00000098H.3 SFRSYM    DATA     BIT       TB8
      00000088H.2 SFRSYM    DATA     BIT       IT1
      000000D4H   SFRSYM    DATA     BYTE      T3H
      000000D0H.0 SFRSYM    DATA     BIT       P
      000000D2H   SFRSYM    DATA     BYTE      T4H
      00000098H.7 SFRSYM    DATA     BIT       SM0
      0000008AH   SFRSYM    DATA     BYTE      TL0
      00000098H.6 SFRSYM    DATA     BIT       SM1
      0000008BH   SFRSYM    DATA     BYTE      TL1
      000000D7H   SFRSYM    DATA     BYTE      T2L
      00000098H.5 SFRSYM    DATA     BIT       SM2
      000000D5H   SFRSYM    DATA     BYTE      T3L
      000000D3H   SFRSYM    DATA     BYTE      T4L
      000000B8H.1 SFRSYM    DATA     BIT       PT0
      000000D0H.3 SFRSYM    DATA     BIT       RS0
      000000B8H.3 SFRSYM    DATA     BIT       PT1
      000000D0H.4 SFRSYM    DATA     BIT       RS1
      000000C2H   SFRSYM    DATA     BYTE      IAP_DATA
      00000088H.4 SFRSYM    DATA     BIT       TR0
      00000088H.6 SFRSYM    DATA     BIT       TR1
      000000C1H   SFRSYM    DATA     BYTE      WDT_CONTR
      000000B8H.0 SFRSYM    DATA     BIT       PX0
      000000B8H.2 SFRSYM    DATA     BIT       PX1
      0000009FH   SFRSYM    DATA     BYTE      IRTRIM
      00000083H   SFRSYM    DATA     BYTE      DPH
      000000D1H   SFRSYM    DATA     BYTE      T4T3M
      000000BEH   SFRSYM    DATA     BYTE      ADC_RESL
      00000082H   SFRSYM    DATA     BYTE      DPL
      000000CDH   SFRSYM    DATA     BYTE      SPSTAT
      000000B7H   SFRSYM    DATA     BYTE      IPH
      0000009BH   SFRSYM    DATA     BYTE      S2BUF
      000000ADH   SFRSYM    DATA     BYTE      S3BUF
      00000098H.4 SFRSYM    DATA     BIT       REN
      00000085H   SFRSYM    DATA     BYTE      S4BUF
      0000009AH   SFRSYM    DATA     BYTE      S2CON
      000000E3H   SFRSYM    DATA     BYTE      DPS
      000000ACH   SFRSYM    DATA     BYTE      S3CON
      00000084H   SFRSYM    DATA     BYTE      S4CON
      000000EFH   SFRSYM    DATA     BYTE      AUXINTIF
      000000B9H   SFRSYM    DATA     BYTE      SADEN
      000000A9H   SFRSYM    DATA     BYTE      SADDR
      000000C6H   SFRSYM    DATA     BYTE      IAP_TRIG
      000000D0H.5 SFRSYM    DATA     BIT       F0
      0000009DH   SFRSYM    DATA     BYTE      IRCBAND
      000000D0H.1 SFRSYM    DATA     BIT       F1
      000000D0H   SFRSYM    DATA     BYTE      PSW
      000000CFH   SFRSYM    DATA     BYTE      SPDAT
      00000094H   SFRSYM    DATA     BYTE      P0M0

      0100119EH   BLOCK     CODE     ---       LVL=0
      0100119EH   BLOCK     CODE     NEAR LAB  LVL=1
      020003B9H   SYMBOL    XDATA    ---       ADC_InitStructure
      020003BEH   SYMBOL    XDATA    ---       COMx_InitStructure
      ---         BLOCKEND  ---      ---       LVL=1
      0100119EH   LINE      CODE     ---       #61
LX51 LINKER/LOCATER V4.66.87.0                                                        04/03/2025  13:07:21  PAGE 38


      0100119EH   LINE      CODE     ---       #62
      0100119EH   LINE      CODE     ---       #66
      010011A4H   LINE      CODE     ---       #67
      010011AAH   LINE      CODE     ---       #69
      010011B0H   LINE      CODE     ---       #71
      010011BAH   LINE      CODE     ---       #72
      010011C0H   LINE      CODE     ---       #73
      010011CAH   LINE      CODE     ---       #74
      010011D1H   LINE      CODE     ---       #76
      010011D7H   LINE      CODE     ---       #77
      010011DCH   LINE      CODE     ---       #78
      010011DFH   LINE      CODE     ---       #79
      010011E4H   LINE      CODE     ---       #80
      010011E7H   LINE      CODE     ---       #81
      010011EFH   LINE      CODE     ---       #82
      010011F4H   LINE      CODE     ---       #83
      ---         BLOCKEND  ---      ---       LVL=0

      01000EA6H   BLOCK     CODE     ---       LVL=0
      01000EA6H   BLOCK     CODE     NEAR LAB  LVL=1
      020003B9H   SYMBOL    XDATA    WORD      j
      ---         BLOCKEND  ---      ---       LVL=1
      01000EA6H   LINE      CODE     ---       #93
      01000EA6H   LINE      CODE     ---       #94
      01000EA6H   LINE      CODE     ---       #97
      01000EB6H   LINE      CODE     ---       #98
      01000EBBH   LINE      CODE     ---       #99
      01000EC0H   LINE      CODE     ---       #100
      01000ECAH   LINE      CODE     ---       #101
      01000ECFH   LINE      CODE     ---       #102
      01000EE5H   LINE      CODE     ---       #103
      01000F08H   LINE      CODE     ---       #104
      01000F2BH   LINE      CODE     ---       #105
      01000F41H   LINE      CODE     ---       #106
      01000F46H   LINE      CODE     ---       #107
      01000F4BH   LINE      CODE     ---       #109
      01000F51H   LINE      CODE     ---       #110
      01000F57H   LINE      CODE     ---       #111
      01000F57H   LINE      CODE     ---       #112
      01000F59H   LINE      CODE     ---       #113
      01000F62H   LINE      CODE     ---       #114
      01000F62H   LINE      CODE     ---       #115
      ---         BLOCKEND  ---      ---       LVL=0

      ---         MODULE    ---      ---       APP_INT_UART1
      0200044FH   PUBLIC    XDATA    BYTE      WakeUpCnt
      000000DCH   SFRSYM    DATA     BYTE      PLLCR
      00000093H   SFRSYM    DATA     BYTE      P0M1
      00000092H   SFRSYM    DATA     BYTE      P1M0
      00000096H   SFRSYM    DATA     BYTE      P2M0
      00000091H   SFRSYM    DATA     BYTE      P1M1
      00000080H   SFRSYM    DATA     BYTE      P0
      000000B2H   SFRSYM    DATA     BYTE      P3M0
      00000095H   SFRSYM    DATA     BYTE      P2M1
      00000090H   SFRSYM    DATA     BYTE      P1
      000000B4H   SFRSYM    DATA     BYTE      P4M0
      000000B1H   SFRSYM    DATA     BYTE      P3M1
      000000A0H   SFRSYM    DATA     BYTE      P2
      000000CAH   SFRSYM    DATA     BYTE      P5M0
      000000B3H   SFRSYM    DATA     BYTE      P4M1
      000000B0H   SFRSYM    DATA     BYTE      P3
      000000ABH   SFRSYM    DATA     BYTE      WKTCH
      000000D0H.6 SFRSYM    DATA     BIT       AC
      000000CCH   SFRSYM    DATA     BYTE      P6M0
      000000C9H   SFRSYM    DATA     BYTE      P5M1
LX51 LINKER/LOCATER V4.66.87.0                                                        04/03/2025  13:07:21  PAGE 39


      000000C0H   SFRSYM    DATA     BYTE      P4
      000000E2H   SFRSYM    DATA     BYTE      P7M0
      000000CBH   SFRSYM    DATA     BYTE      P6M1
      000000C8H   SFRSYM    DATA     BYTE      P5
      000000E8H   SFRSYM    DATA     BYTE      P6
      000000E1H   SFRSYM    DATA     BYTE      P7M1
      000000A8H.7 SFRSYM    DATA     BIT       EA
      000000F8H   SFRSYM    DATA     BYTE      P7
      000000AAH   SFRSYM    DATA     BYTE      WKTCL
      000000CEH   SFRSYM    DATA     BYTE      SPCTL
      000000A2H   SFRSYM    DATA     BYTE      P_SW1
      000000BAH   SFRSYM    DATA     BYTE      P_SW2
      000000E5H   SFRSYM    DATA     BYTE      DPH1
      000000A8H.5 SFRSYM    DATA     BIT       EADC
      000000A8H   SFRSYM    DATA     BYTE      IE
      000000C5H   SFRSYM    DATA     BYTE      IAP_CMD
      000000E4H   SFRSYM    DATA     BYTE      DPL1
      000000BDH   SFRSYM    DATA     BYTE      ADC_RES
      000000B6H   SFRSYM    DATA     BYTE      IP2H
      000000EEH   SFRSYM    DATA     BYTE      IP3H
      000000AEH   SFRSYM    DATA     BYTE      TA
      0000008FH   SFRSYM    DATA     BYTE      INTCLKO
      000000A8H.4 SFRSYM    DATA     BIT       ES
      000000B8H.5 SFRSYM    DATA     BIT       PADC
      000000B8H   SFRSYM    DATA     BYTE      IP
      000000DEH   SFRSYM    DATA     BYTE      ADCCFG
      00000098H.0 SFRSYM    DATA     BIT       RI
      000000B0H.2 SFRSYM    DATA     BIT       INT0
      000000D0H.7 SFRSYM    DATA     BIT       CY
      000000B0H.3 SFRSYM    DATA     BIT       INT1
      00000098H.1 SFRSYM    DATA     BIT       TI
      000000B0H.6 SFRSYM    DATA     BIT       INT2
      000000B0H.7 SFRSYM    DATA     BIT       INT3
      000000B0H.0 SFRSYM    DATA     BIT       INT4
      000000C3H   SFRSYM    DATA     BYTE      IAP_ADDRH
      000000B8H.4 SFRSYM    DATA     BIT       PS
      00000081H   SFRSYM    DATA     BYTE      SP
      000000C4H   SFRSYM    DATA     BYTE      IAP_ADDRL
      000000D0H.2 SFRSYM    DATA     BIT       OV
      000000B8H.7 SFRSYM    DATA     BIT       PPCA
      0000009EH   SFRSYM    DATA     BYTE      LIRTRIM
      000000E6H   SFRSYM    DATA     BYTE      CMPCR1
      000000E7H   SFRSYM    DATA     BYTE      CMPCR2
      000000A8H.6 SFRSYM    DATA     BIT       ELVD
      00000080H.0 SFRSYM    DATA     BIT       P00
      000000BCH   SFRSYM    DATA     BYTE      ADC_CONTR
      00000099H   SFRSYM    DATA     BYTE      SBUF
      00000090H.0 SFRSYM    DATA     BIT       P10
      00000087H   SFRSYM    DATA     BYTE      PCON
      00000080H.1 SFRSYM    DATA     BIT       P01
      000000A0H.0 SFRSYM    DATA     BIT       P20
      00000090H.1 SFRSYM    DATA     BIT       P11
      00000080H.2 SFRSYM    DATA     BIT       P02
      000000F5H   SFRSYM    DATA     BYTE      IAP_TPS
      000000B0H.0 SFRSYM    DATA     BIT       P30
      000000A0H.1 SFRSYM    DATA     BIT       P21
      00000090H.2 SFRSYM    DATA     BIT       P12
      00000080H.3 SFRSYM    DATA     BIT       P03
      000000C0H.0 SFRSYM    DATA     BIT       P40
      000000B0H.1 SFRSYM    DATA     BIT       P31
      000000A0H.2 SFRSYM    DATA     BIT       P22
      00000098H   SFRSYM    DATA     BYTE      SCON
      00000090H.3 SFRSYM    DATA     BIT       P13
      00000080H.4 SFRSYM    DATA     BIT       P04
      000000C8H.0 SFRSYM    DATA     BIT       P50
LX51 LINKER/LOCATER V4.66.87.0                                                        04/03/2025  13:07:21  PAGE 40


      000000C0H.1 SFRSYM    DATA     BIT       P41
      000000B0H.2 SFRSYM    DATA     BIT       P32
      000000A0H.3 SFRSYM    DATA     BIT       P23
      00000090H.4 SFRSYM    DATA     BIT       P14
      00000089H   SFRSYM    DATA     BYTE      TMOD
      00000088H   SFRSYM    DATA     BYTE      TCON
      00000080H.5 SFRSYM    DATA     BIT       P05
      000000E8H.0 SFRSYM    DATA     BIT       P60
      000000C8H.1 SFRSYM    DATA     BIT       P51
      000000C0H.2 SFRSYM    DATA     BIT       P42
      000000B0H.3 SFRSYM    DATA     BIT       P33
      000000A0H.4 SFRSYM    DATA     BIT       P24
      00000090H.5 SFRSYM    DATA     BIT       P15
      00000080H.6 SFRSYM    DATA     BIT       P06
      000000F8H.0 SFRSYM    DATA     BIT       P70
      000000E8H.1 SFRSYM    DATA     BIT       P61
      000000C8H.2 SFRSYM    DATA     BIT       P52
      000000C0H.3 SFRSYM    DATA     BIT       P43
      000000B8H.6 SFRSYM    DATA     BIT       PLVD
      000000B0H.4 SFRSYM    DATA     BIT       P34
      000000A0H.5 SFRSYM    DATA     BIT       P25
      00000090H.6 SFRSYM    DATA     BIT       P16
      00000080H.7 SFRSYM    DATA     BIT       P07
      000000F8H.1 SFRSYM    DATA     BIT       P71
      000000E8H.2 SFRSYM    DATA     BIT       P62
      000000C8H.3 SFRSYM    DATA     BIT       P53
      000000C0H.4 SFRSYM    DATA     BIT       P44
      000000B0H.5 SFRSYM    DATA     BIT       P35
      000000A0H.6 SFRSYM    DATA     BIT       P26
      00000090H.7 SFRSYM    DATA     BIT       P17
      000000F8H.2 SFRSYM    DATA     BIT       P72
      000000E8H.3 SFRSYM    DATA     BIT       P63
      000000C8H.4 SFRSYM    DATA     BIT       P54
      000000C0H.5 SFRSYM    DATA     BIT       P45
      000000B0H.6 SFRSYM    DATA     BIT       P36
      000000A0H.7 SFRSYM    DATA     BIT       P27
      000000F8H.3 SFRSYM    DATA     BIT       P73
      000000E8H.4 SFRSYM    DATA     BIT       P64
      000000C8H.5 SFRSYM    DATA     BIT       P55
      000000C0H.6 SFRSYM    DATA     BIT       P46
      000000B0H.7 SFRSYM    DATA     BIT       P37
      000000F8H.4 SFRSYM    DATA     BIT       P74
      000000E8H.5 SFRSYM    DATA     BIT       P65
      000000C8H.6 SFRSYM    DATA     BIT       P56
      000000C0H.7 SFRSYM    DATA     BIT       P47
      000000F8H.5 SFRSYM    DATA     BIT       P75
      000000E8H.6 SFRSYM    DATA     BIT       P66
      000000C8H.7 SFRSYM    DATA     BIT       P57
      000000F8H.6 SFRSYM    DATA     BIT       P76
      000000E8H.7 SFRSYM    DATA     BIT       P67
      000000F8H.7 SFRSYM    DATA     BIT       P77
      00000088H.1 SFRSYM    DATA     BIT       IE0
      00000088H.3 SFRSYM    DATA     BIT       IE1
      000000AFH   SFRSYM    DATA     BYTE      IE2
      000000F0H   SFRSYM    DATA     BYTE      B
      0000008EH   SFRSYM    DATA     BYTE      AUXR
      000000FCH   SFRSYM    DATA     BYTE      USBADR
      000000C7H   SFRSYM    DATA     BYTE      IAP_CONTR
      000000ECH   SFRSYM    DATA     BYTE      USBDAT
      000000DCH   SFRSYM    DATA     BYTE      USBCLK
      000000E0H   SFRSYM    DATA     BYTE      ACC
      000000A8H.1 SFRSYM    DATA     BIT       ET0
      000000A8H.3 SFRSYM    DATA     BIT       ET1
      00000088H.5 SFRSYM    DATA     BIT       TF0
      000000FFH   SFRSYM    DATA     BYTE      RSTCFG
LX51 LINKER/LOCATER V4.66.87.0                                                        04/03/2025  13:07:21  PAGE 41


      000000B5H   SFRSYM    DATA     BYTE      IP2
      00000088H.7 SFRSYM    DATA     BIT       TF1
      000000F4H   SFRSYM    DATA     BYTE      USBCON
      000000DFH   SFRSYM    DATA     BYTE      IP3
      00000098H.2 SFRSYM    DATA     BIT       RB8
      0000008CH   SFRSYM    DATA     BYTE      TH0
      000000A8H.0 SFRSYM    DATA     BIT       EX0
      0000008DH   SFRSYM    DATA     BYTE      TH1
      00000088H.0 SFRSYM    DATA     BIT       IT0
      000000D6H   SFRSYM    DATA     BYTE      T2H
      000000A8H.2 SFRSYM    DATA     BIT       EX1
      00000098H.3 SFRSYM    DATA     BIT       TB8
      00000088H.2 SFRSYM    DATA     BIT       IT1
      000000D4H   SFRSYM    DATA     BYTE      T3H
      000000D0H.0 SFRSYM    DATA     BIT       P
      000000D2H   SFRSYM    DATA     BYTE      T4H
      00000098H.7 SFRSYM    DATA     BIT       SM0
      0000008AH   SFRSYM    DATA     BYTE      TL0
      00000098H.6 SFRSYM    DATA     BIT       SM1
      0000008BH   SFRSYM    DATA     BYTE      TL1
      000000D7H   SFRSYM    DATA     BYTE      T2L
      00000098H.5 SFRSYM    DATA     BIT       SM2
      000000D5H   SFRSYM    DATA     BYTE      T3L
      000000D3H   SFRSYM    DATA     BYTE      T4L
      000000B8H.1 SFRSYM    DATA     BIT       PT0
      000000D0H.3 SFRSYM    DATA     BIT       RS0
      000000B8H.3 SFRSYM    DATA     BIT       PT1
      000000D0H.4 SFRSYM    DATA     BIT       RS1
      000000C2H   SFRSYM    DATA     BYTE      IAP_DATA
      00000088H.4 SFRSYM    DATA     BIT       TR0
      00000088H.6 SFRSYM    DATA     BIT       TR1
      000000C1H   SFRSYM    DATA     BYTE      WDT_CONTR
      000000B8H.0 SFRSYM    DATA     BIT       PX0
      000000B8H.2 SFRSYM    DATA     BIT       PX1
      0000009FH   SFRSYM    DATA     BYTE      IRTRIM
      00000083H   SFRSYM    DATA     BYTE      DPH
      000000D1H   SFRSYM    DATA     BYTE      T4T3M
      000000BEH   SFRSYM    DATA     BYTE      ADC_RESL
      00000082H   SFRSYM    DATA     BYTE      DPL
      000000CDH   SFRSYM    DATA     BYTE      SPSTAT
      000000B7H   SFRSYM    DATA     BYTE      IPH
      0000009BH   SFRSYM    DATA     BYTE      S2BUF
      000000ADH   SFRSYM    DATA     BYTE      S3BUF
      00000098H.4 SFRSYM    DATA     BIT       REN
      00000085H   SFRSYM    DATA     BYTE      S4BUF
      0000009AH   SFRSYM    DATA     BYTE      S2CON
      000000E3H   SFRSYM    DATA     BYTE      DPS
      000000ACH   SFRSYM    DATA     BYTE      S3CON
      00000084H   SFRSYM    DATA     BYTE      S4CON
      000000EFH   SFRSYM    DATA     BYTE      AUXINTIF
      000000B9H   SFRSYM    DATA     BYTE      SADEN
      000000A9H   SFRSYM    DATA     BYTE      SADDR
      000000C6H   SFRSYM    DATA     BYTE      IAP_TRIG
      000000D0H.5 SFRSYM    DATA     BIT       F0
      0000009DH   SFRSYM    DATA     BYTE      IRCBAND
      000000D0H.1 SFRSYM    DATA     BIT       F1
      000000D0H   SFRSYM    DATA     BYTE      PSW
      000000CFH   SFRSYM    DATA     BYTE      SPDAT
      00000094H   SFRSYM    DATA     BYTE      P0M0

      ---         MODULE    ---      ---       APP_LAMP
      02000450H   PUBLIC    XDATA    BYTE      ledIndex
      010016F6H   PUBLIC    CONST    ---       ledNum
      01001645H   PUBLIC    CODE     ---       Sample_Lamp
      0100002EH   PUBLIC    CODE     ---       Lamp_init
LX51 LINKER/LOCATER V4.66.87.0                                                        04/03/2025  13:07:21  PAGE 42


      000000DCH   SFRSYM    DATA     BYTE      PLLCR
      00000093H   SFRSYM    DATA     BYTE      P0M1
      00000092H   SFRSYM    DATA     BYTE      P1M0
      00000096H   SFRSYM    DATA     BYTE      P2M0
      00000091H   SFRSYM    DATA     BYTE      P1M1
      00000080H   SFRSYM    DATA     BYTE      P0
      000000B2H   SFRSYM    DATA     BYTE      P3M0
      00000095H   SFRSYM    DATA     BYTE      P2M1
      00000090H   SFRSYM    DATA     BYTE      P1
      000000B4H   SFRSYM    DATA     BYTE      P4M0
      000000B1H   SFRSYM    DATA     BYTE      P3M1
      000000A0H   SFRSYM    DATA     BYTE      P2
      000000CAH   SFRSYM    DATA     BYTE      P5M0
      000000B3H   SFRSYM    DATA     BYTE      P4M1
      000000B0H   SFRSYM    DATA     BYTE      P3
      000000ABH   SFRSYM    DATA     BYTE      WKTCH
      000000D0H.6 SFRSYM    DATA     BIT       AC
      000000CCH   SFRSYM    DATA     BYTE      P6M0
      000000C9H   SFRSYM    DATA     BYTE      P5M1
      000000C0H   SFRSYM    DATA     BYTE      P4
      000000E2H   SFRSYM    DATA     BYTE      P7M0
      000000CBH   SFRSYM    DATA     BYTE      P6M1
      000000C8H   SFRSYM    DATA     BYTE      P5
      000000E8H   SFRSYM    DATA     BYTE      P6
      000000E1H   SFRSYM    DATA     BYTE      P7M1
      000000A8H.7 SFRSYM    DATA     BIT       EA
      000000F8H   SFRSYM    DATA     BYTE      P7
      000000AAH   SFRSYM    DATA     BYTE      WKTCL
      000000CEH   SFRSYM    DATA     BYTE      SPCTL
      000000A2H   SFRSYM    DATA     BYTE      P_SW1
      000000BAH   SFRSYM    DATA     BYTE      P_SW2
      000000E5H   SFRSYM    DATA     BYTE      DPH1
      000000A8H.5 SFRSYM    DATA     BIT       EADC
      000000A8H   SFRSYM    DATA     BYTE      IE
      000000C5H   SFRSYM    DATA     BYTE      IAP_CMD
      000000E4H   SFRSYM    DATA     BYTE      DPL1
      000000BDH   SFRSYM    DATA     BYTE      ADC_RES
      000000B6H   SFRSYM    DATA     BYTE      IP2H
      000000EEH   SFRSYM    DATA     BYTE      IP3H
      000000AEH   SFRSYM    DATA     BYTE      TA
      0000008FH   SFRSYM    DATA     BYTE      INTCLKO
      000000A8H.4 SFRSYM    DATA     BIT       ES
      000000B8H.5 SFRSYM    DATA     BIT       PADC
      000000B8H   SFRSYM    DATA     BYTE      IP
      000000DEH   SFRSYM    DATA     BYTE      ADCCFG
      00000098H.0 SFRSYM    DATA     BIT       RI
      000000D0H.7 SFRSYM    DATA     BIT       CY
      00000098H.1 SFRSYM    DATA     BIT       TI
      000000C3H   SFRSYM    DATA     BYTE      IAP_ADDRH
      000000B8H.4 SFRSYM    DATA     BIT       PS
      00000081H   SFRSYM    DATA     BYTE      SP
      000000C4H   SFRSYM    DATA     BYTE      IAP_ADDRL
      000000D0H.2 SFRSYM    DATA     BIT       OV
      000000B8H.7 SFRSYM    DATA     BIT       PPCA
      0000009EH   SFRSYM    DATA     BYTE      LIRTRIM
      000000E6H   SFRSYM    DATA     BYTE      CMPCR1
      000000E7H   SFRSYM    DATA     BYTE      CMPCR2
      000000A8H.6 SFRSYM    DATA     BIT       ELVD
      00000080H.0 SFRSYM    DATA     BIT       P00
      000000BCH   SFRSYM    DATA     BYTE      ADC_CONTR
      00000099H   SFRSYM    DATA     BYTE      SBUF
      00000090H.0 SFRSYM    DATA     BIT       P10
      00000087H   SFRSYM    DATA     BYTE      PCON
      00000080H.1 SFRSYM    DATA     BIT       P01
      000000A0H.0 SFRSYM    DATA     BIT       P20
LX51 LINKER/LOCATER V4.66.87.0                                                        04/03/2025  13:07:21  PAGE 43


      00000090H.1 SFRSYM    DATA     BIT       P11
      00000080H.2 SFRSYM    DATA     BIT       P02
      000000F5H   SFRSYM    DATA     BYTE      IAP_TPS
      000000B0H.0 SFRSYM    DATA     BIT       P30
      000000A0H.1 SFRSYM    DATA     BIT       P21
      00000090H.2 SFRSYM    DATA     BIT       P12
      00000080H.3 SFRSYM    DATA     BIT       P03
      000000C0H.0 SFRSYM    DATA     BIT       P40
      000000B0H.1 SFRSYM    DATA     BIT       P31
      000000A0H.2 SFRSYM    DATA     BIT       P22
      00000098H   SFRSYM    DATA     BYTE      SCON
      00000090H.3 SFRSYM    DATA     BIT       P13
      00000080H.4 SFRSYM    DATA     BIT       P04
      000000C8H.0 SFRSYM    DATA     BIT       P50
      000000C0H.1 SFRSYM    DATA     BIT       P41
      000000B0H.2 SFRSYM    DATA     BIT       P32
      000000A0H.3 SFRSYM    DATA     BIT       P23
      00000090H.4 SFRSYM    DATA     BIT       P14
      00000089H   SFRSYM    DATA     BYTE      TMOD
      00000088H   SFRSYM    DATA     BYTE      TCON
      00000080H.5 SFRSYM    DATA     BIT       P05
      000000E8H.0 SFRSYM    DATA     BIT       P60
      000000C8H.1 SFRSYM    DATA     BIT       P51
      000000C0H.2 SFRSYM    DATA     BIT       P42
      000000B0H.3 SFRSYM    DATA     BIT       P33
      000000A0H.4 SFRSYM    DATA     BIT       P24
      00000090H.5 SFRSYM    DATA     BIT       P15
      00000080H.6 SFRSYM    DATA     BIT       P06
      000000F8H.0 SFRSYM    DATA     BIT       P70
      000000E8H.1 SFRSYM    DATA     BIT       P61
      000000C8H.2 SFRSYM    DATA     BIT       P52
      000000C0H.3 SFRSYM    DATA     BIT       P43
      000000B8H.6 SFRSYM    DATA     BIT       PLVD
      000000B0H.4 SFRSYM    DATA     BIT       P34
      000000A0H.5 SFRSYM    DATA     BIT       P25
      00000090H.6 SFRSYM    DATA     BIT       P16
      00000080H.7 SFRSYM    DATA     BIT       P07
      000000F8H.1 SFRSYM    DATA     BIT       P71
      000000E8H.2 SFRSYM    DATA     BIT       P62
      000000C8H.3 SFRSYM    DATA     BIT       P53
      000000C0H.4 SFRSYM    DATA     BIT       P44
      000000B0H.5 SFRSYM    DATA     BIT       P35
      000000A0H.6 SFRSYM    DATA     BIT       P26
      00000090H.7 SFRSYM    DATA     BIT       P17
      000000F8H.2 SFRSYM    DATA     BIT       P72
      000000E8H.3 SFRSYM    DATA     BIT       P63
      000000C8H.4 SFRSYM    DATA     BIT       P54
      000000C0H.5 SFRSYM    DATA     BIT       P45
      000000B0H.6 SFRSYM    DATA     BIT       P36
      000000A0H.7 SFRSYM    DATA     BIT       P27
      000000F8H.3 SFRSYM    DATA     BIT       P73
      000000E8H.4 SFRSYM    DATA     BIT       P64
      000000C8H.5 SFRSYM    DATA     BIT       P55
      000000C0H.6 SFRSYM    DATA     BIT       P46
      000000B0H.7 SFRSYM    DATA     BIT       P37
      000000F8H.4 SFRSYM    DATA     BIT       P74
      000000E8H.5 SFRSYM    DATA     BIT       P65
      000000C8H.6 SFRSYM    DATA     BIT       P56
      000000C0H.7 SFRSYM    DATA     BIT       P47
      000000F8H.5 SFRSYM    DATA     BIT       P75
      000000E8H.6 SFRSYM    DATA     BIT       P66
      000000C8H.7 SFRSYM    DATA     BIT       P57
      000000F8H.6 SFRSYM    DATA     BIT       P76
      000000E8H.7 SFRSYM    DATA     BIT       P67
      000000F8H.7 SFRSYM    DATA     BIT       P77
LX51 LINKER/LOCATER V4.66.87.0                                                        04/03/2025  13:07:21  PAGE 44


      00000088H.1 SFRSYM    DATA     BIT       IE0
      00000088H.3 SFRSYM    DATA     BIT       IE1
      000000AFH   SFRSYM    DATA     BYTE      IE2
      000000F0H   SFRSYM    DATA     BYTE      B
      0000008EH   SFRSYM    DATA     BYTE      AUXR
      000000FCH   SFRSYM    DATA     BYTE      USBADR
      000000C7H   SFRSYM    DATA     BYTE      IAP_CONTR
      000000ECH   SFRSYM    DATA     BYTE      USBDAT
      000000DCH   SFRSYM    DATA     BYTE      USBCLK
      000000E0H   SFRSYM    DATA     BYTE      ACC
      000000A8H.1 SFRSYM    DATA     BIT       ET0
      000000A8H.3 SFRSYM    DATA     BIT       ET1
      00000088H.5 SFRSYM    DATA     BIT       TF0
      000000FFH   SFRSYM    DATA     BYTE      RSTCFG
      000000B5H   SFRSYM    DATA     BYTE      IP2
      00000088H.7 SFRSYM    DATA     BIT       TF1
      000000F4H   SFRSYM    DATA     BYTE      USBCON
      000000DFH   SFRSYM    DATA     BYTE      IP3
      00000098H.2 SFRSYM    DATA     BIT       RB8
      0000008CH   SFRSYM    DATA     BYTE      TH0
      000000A8H.0 SFRSYM    DATA     BIT       EX0
      0000008DH   SFRSYM    DATA     BYTE      TH1
      00000088H.0 SFRSYM    DATA     BIT       IT0
      000000D6H   SFRSYM    DATA     BYTE      T2H
      000000A8H.2 SFRSYM    DATA     BIT       EX1
      00000098H.3 SFRSYM    DATA     BIT       TB8
      00000088H.2 SFRSYM    DATA     BIT       IT1
      000000D4H   SFRSYM    DATA     BYTE      T3H
      000000D0H.0 SFRSYM    DATA     BIT       P
      000000D2H   SFRSYM    DATA     BYTE      T4H
      00000098H.7 SFRSYM    DATA     BIT       SM0
      0000008AH   SFRSYM    DATA     BYTE      TL0
      00000098H.6 SFRSYM    DATA     BIT       SM1
      0000008BH   SFRSYM    DATA     BYTE      TL1
      000000D7H   SFRSYM    DATA     BYTE      T2L
      00000098H.5 SFRSYM    DATA     BIT       SM2
      000000D5H   SFRSYM    DATA     BYTE      T3L
      000000D3H   SFRSYM    DATA     BYTE      T4L
      000000B8H.1 SFRSYM    DATA     BIT       PT0
      000000D0H.3 SFRSYM    DATA     BIT       RS0
      000000B8H.3 SFRSYM    DATA     BIT       PT1
      000000D0H.4 SFRSYM    DATA     BIT       RS1
      000000C2H   SFRSYM    DATA     BYTE      IAP_DATA
      00000088H.4 SFRSYM    DATA     BIT       TR0
      00000088H.6 SFRSYM    DATA     BIT       TR1
      000000C1H   SFRSYM    DATA     BYTE      WDT_CONTR
      000000B8H.0 SFRSYM    DATA     BIT       PX0
      000000B8H.2 SFRSYM    DATA     BIT       PX1
      0000009FH   SFRSYM    DATA     BYTE      IRTRIM
      00000083H   SFRSYM    DATA     BYTE      DPH
      000000D1H   SFRSYM    DATA     BYTE      T4T3M
      000000BEH   SFRSYM    DATA     BYTE      ADC_RESL
      00000082H   SFRSYM    DATA     BYTE      DPL
      000000CDH   SFRSYM    DATA     BYTE      SPSTAT
      000000B7H   SFRSYM    DATA     BYTE      IPH
      0000009BH   SFRSYM    DATA     BYTE      S2BUF
      000000ADH   SFRSYM    DATA     BYTE      S3BUF
      00000098H.4 SFRSYM    DATA     BIT       REN
      00000085H   SFRSYM    DATA     BYTE      S4BUF
      0000009AH   SFRSYM    DATA     BYTE      S2CON
      000000E3H   SFRSYM    DATA     BYTE      DPS
      000000ACH   SFRSYM    DATA     BYTE      S3CON
      00000084H   SFRSYM    DATA     BYTE      S4CON
      000000EFH   SFRSYM    DATA     BYTE      AUXINTIF
      000000B9H   SFRSYM    DATA     BYTE      SADEN
LX51 LINKER/LOCATER V4.66.87.0                                                        04/03/2025  13:07:21  PAGE 45


      000000A9H   SFRSYM    DATA     BYTE      SADDR
      000000C6H   SFRSYM    DATA     BYTE      IAP_TRIG
      000000D0H.5 SFRSYM    DATA     BIT       F0
      0000009DH   SFRSYM    DATA     BYTE      IRCBAND
      000000D0H.1 SFRSYM    DATA     BIT       F1
      000000D0H   SFRSYM    DATA     BYTE      PSW
      000000CFH   SFRSYM    DATA     BYTE      SPDAT
      00000094H   SFRSYM    DATA     BYTE      P0M0

      0100002EH   BLOCK     CODE     ---       LVL=0
      0100002EH   LINE      CODE     ---       #56
      0100002EH   LINE      CODE     ---       #57
      0100002EH   LINE      CODE     ---       #58
      01000034H   LINE      CODE     ---       #59
      0100003AH   LINE      CODE     ---       #60
      ---         BLOCKEND  ---      ---       LVL=0

      01001645H   BLOCK     CODE     ---       LVL=0
      01001645H   LINE      CODE     ---       #69
      01001645H   LINE      CODE     ---       #70
      01001645H   LINE      CODE     ---       #71
      01001647H   LINE      CODE     ---       #72
      01001652H   LINE      CODE     ---       #73
      01001658H   LINE      CODE     ---       #74
      0100165EH   LINE      CODE     ---       #75
      0100165EH   LINE      CODE     ---       #76
      01001660H   LINE      CODE     ---       #77
      01001660H   LINE      CODE     ---       #78
      ---         BLOCKEND  ---      ---       LVL=0

      ---         MODULE    ---      ---       APP_RTC
      000000DCH   SFRSYM    DATA     BYTE      PLLCR
      00000093H   SFRSYM    DATA     BYTE      P0M1
      00000092H   SFRSYM    DATA     BYTE      P1M0
      00000096H   SFRSYM    DATA     BYTE      P2M0
      00000091H   SFRSYM    DATA     BYTE      P1M1
      00000080H   SFRSYM    DATA     BYTE      P0
      000000B2H   SFRSYM    DATA     BYTE      P3M0
      00000095H   SFRSYM    DATA     BYTE      P2M1
      00000090H   SFRSYM    DATA     BYTE      P1
      000000B4H   SFRSYM    DATA     BYTE      P4M0
      000000B1H   SFRSYM    DATA     BYTE      P3M1
      000000A0H   SFRSYM    DATA     BYTE      P2
      000000CAH   SFRSYM    DATA     BYTE      P5M0
      000000B3H   SFRSYM    DATA     BYTE      P4M1
      000000B0H   SFRSYM    DATA     BYTE      P3
      000000ABH   SFRSYM    DATA     BYTE      WKTCH
      000000D0H.6 SFRSYM    DATA     BIT       AC
      000000CCH   SFRSYM    DATA     BYTE      P6M0
      000000C9H   SFRSYM    DATA     BYTE      P5M1
      000000C0H   SFRSYM    DATA     BYTE      P4
      000000E2H   SFRSYM    DATA     BYTE      P7M0
      000000CBH   SFRSYM    DATA     BYTE      P6M1
      000000C8H   SFRSYM    DATA     BYTE      P5
      000000E8H   SFRSYM    DATA     BYTE      P6
      000000E1H   SFRSYM    DATA     BYTE      P7M1
      000000A8H.7 SFRSYM    DATA     BIT       EA
      000000F8H   SFRSYM    DATA     BYTE      P7
      000000AAH   SFRSYM    DATA     BYTE      WKTCL
      000000CEH   SFRSYM    DATA     BYTE      SPCTL
      000000A2H   SFRSYM    DATA     BYTE      P_SW1
      000000BAH   SFRSYM    DATA     BYTE      P_SW2
      000000E5H   SFRSYM    DATA     BYTE      DPH1
      000000A8H.5 SFRSYM    DATA     BIT       EADC
      000000A8H   SFRSYM    DATA     BYTE      IE
LX51 LINKER/LOCATER V4.66.87.0                                                        04/03/2025  13:07:21  PAGE 46


      000000C5H   SFRSYM    DATA     BYTE      IAP_CMD
      000000E4H   SFRSYM    DATA     BYTE      DPL1
      000000BDH   SFRSYM    DATA     BYTE      ADC_RES
      000000B6H   SFRSYM    DATA     BYTE      IP2H
      000000EEH   SFRSYM    DATA     BYTE      IP3H
      000000AEH   SFRSYM    DATA     BYTE      TA
      0000008FH   SFRSYM    DATA     BYTE      INTCLKO
      000000A8H.4 SFRSYM    DATA     BIT       ES
      000000B8H.5 SFRSYM    DATA     BIT       PADC
      000000B8H   SFRSYM    DATA     BYTE      IP
      000000DEH   SFRSYM    DATA     BYTE      ADCCFG
      00000098H.0 SFRSYM    DATA     BIT       RI
      000000D0H.7 SFRSYM    DATA     BIT       CY
      00000098H.1 SFRSYM    DATA     BIT       TI
      000000C3H   SFRSYM    DATA     BYTE      IAP_ADDRH
      000000B8H.4 SFRSYM    DATA     BIT       PS
      00000081H   SFRSYM    DATA     BYTE      SP
      000000C4H   SFRSYM    DATA     BYTE      IAP_ADDRL
      000000D0H.2 SFRSYM    DATA     BIT       OV
      000000B8H.7 SFRSYM    DATA     BIT       PPCA
      0000009EH   SFRSYM    DATA     BYTE      LIRTRIM
      000000E6H   SFRSYM    DATA     BYTE      CMPCR1
      000000E7H   SFRSYM    DATA     BYTE      CMPCR2
      000000A8H.6 SFRSYM    DATA     BIT       ELVD
      00000080H.0 SFRSYM    DATA     BIT       P00
      000000BCH   SFRSYM    DATA     BYTE      ADC_CONTR
      00000099H   SFRSYM    DATA     BYTE      SBUF
      00000090H.0 SFRSYM    DATA     BIT       P10
      00000087H   SFRSYM    DATA     BYTE      PCON
      00000080H.1 SFRSYM    DATA     BIT       P01
      000000A0H.0 SFRSYM    DATA     BIT       P20
      00000090H.1 SFRSYM    DATA     BIT       P11
      00000080H.2 SFRSYM    DATA     BIT       P02
      000000F5H   SFRSYM    DATA     BYTE      IAP_TPS
      000000B0H.0 SFRSYM    DATA     BIT       P30
      000000A0H.1 SFRSYM    DATA     BIT       P21
      00000090H.2 SFRSYM    DATA     BIT       P12
      00000080H.3 SFRSYM    DATA     BIT       P03
      000000C0H.0 SFRSYM    DATA     BIT       P40
      000000B0H.1 SFRSYM    DATA     BIT       P31
      000000A0H.2 SFRSYM    DATA     BIT       P22
      00000098H   SFRSYM    DATA     BYTE      SCON
      00000090H.3 SFRSYM    DATA     BIT       P13
      00000080H.4 SFRSYM    DATA     BIT       P04
      000000C8H.0 SFRSYM    DATA     BIT       P50
      000000C0H.1 SFRSYM    DATA     BIT       P41
      000000B0H.2 SFRSYM    DATA     BIT       P32
      000000A0H.3 SFRSYM    DATA     BIT       P23
      00000090H.4 SFRSYM    DATA     BIT       P14
      00000089H   SFRSYM    DATA     BYTE      TMOD
      00000088H   SFRSYM    DATA     BYTE      TCON
      00000080H.5 SFRSYM    DATA     BIT       P05
      000000E8H.0 SFRSYM    DATA     BIT       P60
      000000C8H.1 SFRSYM    DATA     BIT       P51
      000000C0H.2 SFRSYM    DATA     BIT       P42
      000000B0H.3 SFRSYM    DATA     BIT       P33
      000000A0H.4 SFRSYM    DATA     BIT       P24
      00000090H.5 SFRSYM    DATA     BIT       P15
      00000080H.6 SFRSYM    DATA     BIT       P06
      000000F8H.0 SFRSYM    DATA     BIT       P70
      000000E8H.1 SFRSYM    DATA     BIT       P61
      000000C8H.2 SFRSYM    DATA     BIT       P52
      000000C0H.3 SFRSYM    DATA     BIT       P43
      000000B8H.6 SFRSYM    DATA     BIT       PLVD
      000000B0H.4 SFRSYM    DATA     BIT       P34
LX51 LINKER/LOCATER V4.66.87.0                                                        04/03/2025  13:07:21  PAGE 47


      000000A0H.5 SFRSYM    DATA     BIT       P25
      00000090H.6 SFRSYM    DATA     BIT       P16
      00000080H.7 SFRSYM    DATA     BIT       P07
      000000F8H.1 SFRSYM    DATA     BIT       P71
      000000E8H.2 SFRSYM    DATA     BIT       P62
      000000C8H.3 SFRSYM    DATA     BIT       P53
      000000C0H.4 SFRSYM    DATA     BIT       P44
      000000B0H.5 SFRSYM    DATA     BIT       P35
      000000A0H.6 SFRSYM    DATA     BIT       P26
      00000090H.7 SFRSYM    DATA     BIT       P17
      000000F8H.2 SFRSYM    DATA     BIT       P72
      000000E8H.3 SFRSYM    DATA     BIT       P63
      000000C8H.4 SFRSYM    DATA     BIT       P54
      000000C0H.5 SFRSYM    DATA     BIT       P45
      000000B0H.6 SFRSYM    DATA     BIT       P36
      000000A0H.7 SFRSYM    DATA     BIT       P27
      000000F8H.3 SFRSYM    DATA     BIT       P73
      000000E8H.4 SFRSYM    DATA     BIT       P64
      000000C8H.5 SFRSYM    DATA     BIT       P55
      000000C0H.6 SFRSYM    DATA     BIT       P46
      000000B0H.7 SFRSYM    DATA     BIT       P37
      000000F8H.4 SFRSYM    DATA     BIT       P74
      000000E8H.5 SFRSYM    DATA     BIT       P65
      000000C8H.6 SFRSYM    DATA     BIT       P56
      000000C0H.7 SFRSYM    DATA     BIT       P47
      000000F8H.5 SFRSYM    DATA     BIT       P75
      000000E8H.6 SFRSYM    DATA     BIT       P66
      000000C8H.7 SFRSYM    DATA     BIT       P57
      000000F8H.6 SFRSYM    DATA     BIT       P76
      000000E8H.7 SFRSYM    DATA     BIT       P67
      000000F8H.7 SFRSYM    DATA     BIT       P77
      00000088H.1 SFRSYM    DATA     BIT       IE0
      00000088H.3 SFRSYM    DATA     BIT       IE1
      000000AFH   SFRSYM    DATA     BYTE      IE2
      000000F0H   SFRSYM    DATA     BYTE      B
      0000008EH   SFRSYM    DATA     BYTE      AUXR
      000000FCH   SFRSYM    DATA     BYTE      USBADR
      000000C7H   SFRSYM    DATA     BYTE      IAP_CONTR
      000000ECH   SFRSYM    DATA     BYTE      USBDAT
      000000DCH   SFRSYM    DATA     BYTE      USBCLK
      000000E0H   SFRSYM    DATA     BYTE      ACC
      000000A8H.1 SFRSYM    DATA     BIT       ET0
      000000A8H.3 SFRSYM    DATA     BIT       ET1
      00000088H.5 SFRSYM    DATA     BIT       TF0
      000000FFH   SFRSYM    DATA     BYTE      RSTCFG
      000000B5H   SFRSYM    DATA     BYTE      IP2
      00000088H.7 SFRSYM    DATA     BIT       TF1
      000000F4H   SFRSYM    DATA     BYTE      USBCON
      000000DFH   SFRSYM    DATA     BYTE      IP3
      00000098H.2 SFRSYM    DATA     BIT       RB8
      0000008CH   SFRSYM    DATA     BYTE      TH0
      000000A8H.0 SFRSYM    DATA     BIT       EX0
      0000008DH   SFRSYM    DATA     BYTE      TH1
      00000088H.0 SFRSYM    DATA     BIT       IT0
      000000D6H   SFRSYM    DATA     BYTE      T2H
      000000A8H.2 SFRSYM    DATA     BIT       EX1
      00000098H.3 SFRSYM    DATA     BIT       TB8
      00000088H.2 SFRSYM    DATA     BIT       IT1
      000000D4H   SFRSYM    DATA     BYTE      T3H
      000000D0H.0 SFRSYM    DATA     BIT       P
      000000D2H   SFRSYM    DATA     BYTE      T4H
      00000098H.7 SFRSYM    DATA     BIT       SM0
      0000008AH   SFRSYM    DATA     BYTE      TL0
      00000098H.6 SFRSYM    DATA     BIT       SM1
      0000008BH   SFRSYM    DATA     BYTE      TL1
LX51 LINKER/LOCATER V4.66.87.0                                                        04/03/2025  13:07:21  PAGE 48


      000000D7H   SFRSYM    DATA     BYTE      T2L
      00000098H.5 SFRSYM    DATA     BIT       SM2
      000000D5H   SFRSYM    DATA     BYTE      T3L
      000000D3H   SFRSYM    DATA     BYTE      T4L
      000000B8H.1 SFRSYM    DATA     BIT       PT0
      000000D0H.3 SFRSYM    DATA     BIT       RS0
      000000B8H.3 SFRSYM    DATA     BIT       PT1
      000000D0H.4 SFRSYM    DATA     BIT       RS1
      000000C2H   SFRSYM    DATA     BYTE      IAP_DATA
      00000088H.4 SFRSYM    DATA     BIT       TR0
      00000088H.6 SFRSYM    DATA     BIT       TR1
      000000C1H   SFRSYM    DATA     BYTE      WDT_CONTR
      000000B8H.0 SFRSYM    DATA     BIT       PX0
      000000B8H.2 SFRSYM    DATA     BIT       PX1
      0000009FH   SFRSYM    DATA     BYTE      IRTRIM
      00000083H   SFRSYM    DATA     BYTE      DPH
      000000D1H   SFRSYM    DATA     BYTE      T4T3M
      000000BEH   SFRSYM    DATA     BYTE      ADC_RESL
      00000082H   SFRSYM    DATA     BYTE      DPL
      000000CDH   SFRSYM    DATA     BYTE      SPSTAT
      000000B7H   SFRSYM    DATA     BYTE      IPH
      0000009BH   SFRSYM    DATA     BYTE      S2BUF
      000000ADH   SFRSYM    DATA     BYTE      S3BUF
      00000098H.4 SFRSYM    DATA     BIT       REN
      00000085H   SFRSYM    DATA     BYTE      S4BUF
      0000009AH   SFRSYM    DATA     BYTE      S2CON
      000000E3H   SFRSYM    DATA     BYTE      DPS
      000000ACH   SFRSYM    DATA     BYTE      S3CON
      00000084H   SFRSYM    DATA     BYTE      S4CON
      000000EFH   SFRSYM    DATA     BYTE      AUXINTIF
      000000B9H   SFRSYM    DATA     BYTE      SADEN
      000000A9H   SFRSYM    DATA     BYTE      SADDR
      000000C6H   SFRSYM    DATA     BYTE      IAP_TRIG
      000000D0H.5 SFRSYM    DATA     BIT       F0
      0000009DH   SFRSYM    DATA     BYTE      IRCBAND
      000000D0H.1 SFRSYM    DATA     BIT       F1
      000000D0H   SFRSYM    DATA     BYTE      PSW
      000000CFH   SFRSYM    DATA     BYTE      SPDAT
      00000094H   SFRSYM    DATA     BYTE      P0M0
      00000007H   SYMBOL    DATA     BYTE      i
      00000007H   SYMBOL    DATA     BYTE      i
      00000006H   SYMBOL    DATA     BYTE      j

      ---         MODULE    ---      ---       APP_I2C_PS
      02000445H   PUBLIC    XDATA    ---       temp
      000000DCH   SFRSYM    DATA     BYTE      PLLCR
      00000093H   SFRSYM    DATA     BYTE      P0M1
      00000092H   SFRSYM    DATA     BYTE      P1M0
      00000096H   SFRSYM    DATA     BYTE      P2M0
      00000091H   SFRSYM    DATA     BYTE      P1M1
      00000080H   SFRSYM    DATA     BYTE      P0
      000000B2H   SFRSYM    DATA     BYTE      P3M0
      00000095H   SFRSYM    DATA     BYTE      P2M1
      00000090H   SFRSYM    DATA     BYTE      P1
      000000B4H   SFRSYM    DATA     BYTE      P4M0
      000000B1H   SFRSYM    DATA     BYTE      P3M1
      000000A0H   SFRSYM    DATA     BYTE      P2
      000000CAH   SFRSYM    DATA     BYTE      P5M0
      000000B3H   SFRSYM    DATA     BYTE      P4M1
      000000B0H   SFRSYM    DATA     BYTE      P3
      000000ABH   SFRSYM    DATA     BYTE      WKTCH
      000000D0H.6 SFRSYM    DATA     BIT       AC
      000000CCH   SFRSYM    DATA     BYTE      P6M0
      000000C9H   SFRSYM    DATA     BYTE      P5M1
      000000C0H   SFRSYM    DATA     BYTE      P4
LX51 LINKER/LOCATER V4.66.87.0                                                        04/03/2025  13:07:21  PAGE 49


      000000E2H   SFRSYM    DATA     BYTE      P7M0
      000000CBH   SFRSYM    DATA     BYTE      P6M1
      000000C8H   SFRSYM    DATA     BYTE      P5
      000000E8H   SFRSYM    DATA     BYTE      P6
      000000E1H   SFRSYM    DATA     BYTE      P7M1
      000000A8H.7 SFRSYM    DATA     BIT       EA
      000000F8H   SFRSYM    DATA     BYTE      P7
      000000AAH   SFRSYM    DATA     BYTE      WKTCL
      000000CEH   SFRSYM    DATA     BYTE      SPCTL
      000000A2H   SFRSYM    DATA     BYTE      P_SW1
      000000BAH   SFRSYM    DATA     BYTE      P_SW2
      000000E5H   SFRSYM    DATA     BYTE      DPH1
      000000A8H.5 SFRSYM    DATA     BIT       EADC
      000000A8H   SFRSYM    DATA     BYTE      IE
      000000C5H   SFRSYM    DATA     BYTE      IAP_CMD
      000000E4H   SFRSYM    DATA     BYTE      DPL1
      000000BDH   SFRSYM    DATA     BYTE      ADC_RES
      000000B6H   SFRSYM    DATA     BYTE      IP2H
      000000EEH   SFRSYM    DATA     BYTE      IP3H
      000000AEH   SFRSYM    DATA     BYTE      TA
      0000008FH   SFRSYM    DATA     BYTE      INTCLKO
      000000A8H.4 SFRSYM    DATA     BIT       ES
      000000B8H.5 SFRSYM    DATA     BIT       PADC
      000000B8H   SFRSYM    DATA     BYTE      IP
      000000DEH   SFRSYM    DATA     BYTE      ADCCFG
      00000098H.0 SFRSYM    DATA     BIT       RI
      000000D0H.7 SFRSYM    DATA     BIT       CY
      00000098H.1 SFRSYM    DATA     BIT       TI
      000000C3H   SFRSYM    DATA     BYTE      IAP_ADDRH
      000000B8H.4 SFRSYM    DATA     BIT       PS
      00000081H   SFRSYM    DATA     BYTE      SP
      000000C4H   SFRSYM    DATA     BYTE      IAP_ADDRL
      000000D0H.2 SFRSYM    DATA     BIT       OV
      000000B8H.7 SFRSYM    DATA     BIT       PPCA
      0000009EH   SFRSYM    DATA     BYTE      LIRTRIM
      000000E6H   SFRSYM    DATA     BYTE      CMPCR1
      000000E7H   SFRSYM    DATA     BYTE      CMPCR2
      000000A8H.6 SFRSYM    DATA     BIT       ELVD
      00000080H.0 SFRSYM    DATA     BIT       P00
      000000BCH   SFRSYM    DATA     BYTE      ADC_CONTR
      00000099H   SFRSYM    DATA     BYTE      SBUF
      00000090H.0 SFRSYM    DATA     BIT       P10
      00000087H   SFRSYM    DATA     BYTE      PCON
      00000080H.1 SFRSYM    DATA     BIT       P01
      000000A0H.0 SFRSYM    DATA     BIT       P20
      00000090H.1 SFRSYM    DATA     BIT       P11
      00000080H.2 SFRSYM    DATA     BIT       P02
      000000F5H   SFRSYM    DATA     BYTE      IAP_TPS
      000000B0H.0 SFRSYM    DATA     BIT       P30
      000000A0H.1 SFRSYM    DATA     BIT       P21
      00000090H.2 SFRSYM    DATA     BIT       P12
      00000080H.3 SFRSYM    DATA     BIT       P03
      000000C0H.0 SFRSYM    DATA     BIT       P40
      000000B0H.1 SFRSYM    DATA     BIT       P31
      000000A0H.2 SFRSYM    DATA     BIT       P22
      00000098H   SFRSYM    DATA     BYTE      SCON
      00000090H.3 SFRSYM    DATA     BIT       P13
      00000080H.4 SFRSYM    DATA     BIT       P04
      000000C8H.0 SFRSYM    DATA     BIT       P50
      000000C0H.1 SFRSYM    DATA     BIT       P41
      000000B0H.2 SFRSYM    DATA     BIT       P32
      000000A0H.3 SFRSYM    DATA     BIT       P23
      00000090H.4 SFRSYM    DATA     BIT       P14
      00000089H   SFRSYM    DATA     BYTE      TMOD
      00000088H   SFRSYM    DATA     BYTE      TCON
LX51 LINKER/LOCATER V4.66.87.0                                                        04/03/2025  13:07:21  PAGE 50


      00000080H.5 SFRSYM    DATA     BIT       P05
      000000E8H.0 SFRSYM    DATA     BIT       P60
      000000C8H.1 SFRSYM    DATA     BIT       P51
      000000C0H.2 SFRSYM    DATA     BIT       P42
      000000B0H.3 SFRSYM    DATA     BIT       P33
      000000A0H.4 SFRSYM    DATA     BIT       P24
      00000090H.5 SFRSYM    DATA     BIT       P15
      00000080H.6 SFRSYM    DATA     BIT       P06
      000000F8H.0 SFRSYM    DATA     BIT       P70
      000000E8H.1 SFRSYM    DATA     BIT       P61
      000000C8H.2 SFRSYM    DATA     BIT       P52
      000000C0H.3 SFRSYM    DATA     BIT       P43
      000000B8H.6 SFRSYM    DATA     BIT       PLVD
      000000B0H.4 SFRSYM    DATA     BIT       P34
      000000A0H.5 SFRSYM    DATA     BIT       P25
      00000090H.6 SFRSYM    DATA     BIT       P16
      00000080H.7 SFRSYM    DATA     BIT       P07
      000000F8H.1 SFRSYM    DATA     BIT       P71
      000000E8H.2 SFRSYM    DATA     BIT       P62
      000000C8H.3 SFRSYM    DATA     BIT       P53
      000000C0H.4 SFRSYM    DATA     BIT       P44
      000000B0H.5 SFRSYM    DATA     BIT       P35
      000000A0H.6 SFRSYM    DATA     BIT       P26
      00000090H.7 SFRSYM    DATA     BIT       P17
      000000F8H.2 SFRSYM    DATA     BIT       P72
      000000E8H.3 SFRSYM    DATA     BIT       P63
      000000C8H.4 SFRSYM    DATA     BIT       P54
      000000C0H.5 SFRSYM    DATA     BIT       P45
      000000B0H.6 SFRSYM    DATA     BIT       P36
      000000A0H.7 SFRSYM    DATA     BIT       P27
      000000F8H.3 SFRSYM    DATA     BIT       P73
      000000E8H.4 SFRSYM    DATA     BIT       P64
      000000C8H.5 SFRSYM    DATA     BIT       P55
      000000C0H.6 SFRSYM    DATA     BIT       P46
      000000B0H.7 SFRSYM    DATA     BIT       P37
      000000F8H.4 SFRSYM    DATA     BIT       P74
      000000E8H.5 SFRSYM    DATA     BIT       P65
      000000C8H.6 SFRSYM    DATA     BIT       P56
      000000C0H.7 SFRSYM    DATA     BIT       P47
      000000F8H.5 SFRSYM    DATA     BIT       P75
      000000E8H.6 SFRSYM    DATA     BIT       P66
      000000C8H.7 SFRSYM    DATA     BIT       P57
      000000F8H.6 SFRSYM    DATA     BIT       P76
      000000E8H.7 SFRSYM    DATA     BIT       P67
      000000F8H.7 SFRSYM    DATA     BIT       P77
      00000088H.1 SFRSYM    DATA     BIT       IE0
      00000088H.3 SFRSYM    DATA     BIT       IE1
      000000AFH   SFRSYM    DATA     BYTE      IE2
      000000F0H   SFRSYM    DATA     BYTE      B
      0000008EH   SFRSYM    DATA     BYTE      AUXR
      000000FCH   SFRSYM    DATA     BYTE      USBADR
      000000C7H   SFRSYM    DATA     BYTE      IAP_CONTR
      000000ECH   SFRSYM    DATA     BYTE      USBDAT
      000000DCH   SFRSYM    DATA     BYTE      USBCLK
      000000E0H   SFRSYM    DATA     BYTE      ACC
      000000A8H.1 SFRSYM    DATA     BIT       ET0
      000000A8H.3 SFRSYM    DATA     BIT       ET1
      00000088H.5 SFRSYM    DATA     BIT       TF0
      000000FFH   SFRSYM    DATA     BYTE      RSTCFG
      000000B5H   SFRSYM    DATA     BYTE      IP2
      00000088H.7 SFRSYM    DATA     BIT       TF1
      000000F4H   SFRSYM    DATA     BYTE      USBCON
      000000DFH   SFRSYM    DATA     BYTE      IP3
      00000098H.2 SFRSYM    DATA     BIT       RB8
      0000008CH   SFRSYM    DATA     BYTE      TH0
LX51 LINKER/LOCATER V4.66.87.0                                                        04/03/2025  13:07:21  PAGE 51


      000000A8H.0 SFRSYM    DATA     BIT       EX0
      0000008DH   SFRSYM    DATA     BYTE      TH1
      00000088H.0 SFRSYM    DATA     BIT       IT0
      000000D6H   SFRSYM    DATA     BYTE      T2H
      000000A8H.2 SFRSYM    DATA     BIT       EX1
      00000098H.3 SFRSYM    DATA     BIT       TB8
      00000088H.2 SFRSYM    DATA     BIT       IT1
      000000D4H   SFRSYM    DATA     BYTE      T3H
      000000D0H.0 SFRSYM    DATA     BIT       P
      000000D2H   SFRSYM    DATA     BYTE      T4H
      00000098H.7 SFRSYM    DATA     BIT       SM0
      0000008AH   SFRSYM    DATA     BYTE      TL0
      00000098H.6 SFRSYM    DATA     BIT       SM1
      0000008BH   SFRSYM    DATA     BYTE      TL1
      000000D7H   SFRSYM    DATA     BYTE      T2L
      00000098H.5 SFRSYM    DATA     BIT       SM2
      000000D5H   SFRSYM    DATA     BYTE      T3L
      000000D3H   SFRSYM    DATA     BYTE      T4L
      000000B8H.1 SFRSYM    DATA     BIT       PT0
      000000D0H.3 SFRSYM    DATA     BIT       RS0
      000000B8H.3 SFRSYM    DATA     BIT       PT1
      000000D0H.4 SFRSYM    DATA     BIT       RS1
      000000C2H   SFRSYM    DATA     BYTE      IAP_DATA
      00000088H.4 SFRSYM    DATA     BIT       TR0
      00000088H.6 SFRSYM    DATA     BIT       TR1
      000000C1H   SFRSYM    DATA     BYTE      WDT_CONTR
      000000B8H.0 SFRSYM    DATA     BIT       PX0
      000000B8H.2 SFRSYM    DATA     BIT       PX1
      0000009FH   SFRSYM    DATA     BYTE      IRTRIM
      00000083H   SFRSYM    DATA     BYTE      DPH
      000000D1H   SFRSYM    DATA     BYTE      T4T3M
      000000BEH   SFRSYM    DATA     BYTE      ADC_RESL
      00000082H   SFRSYM    DATA     BYTE      DPL
      000000CDH   SFRSYM    DATA     BYTE      SPSTAT
      000000B7H   SFRSYM    DATA     BYTE      IPH
      0000009BH   SFRSYM    DATA     BYTE      S2BUF
      000000ADH   SFRSYM    DATA     BYTE      S3BUF
      00000098H.4 SFRSYM    DATA     BIT       REN
      00000085H   SFRSYM    DATA     BYTE      S4BUF
      0000009AH   SFRSYM    DATA     BYTE      S2CON
      000000E3H   SFRSYM    DATA     BYTE      DPS
      000000ACH   SFRSYM    DATA     BYTE      S3CON
      00000084H   SFRSYM    DATA     BYTE      S4CON
      000000EFH   SFRSYM    DATA     BYTE      AUXINTIF
      000000B9H   SFRSYM    DATA     BYTE      SADEN
      000000A9H   SFRSYM    DATA     BYTE      SADDR
      000000C6H   SFRSYM    DATA     BYTE      IAP_TRIG
      000000D0H.5 SFRSYM    DATA     BIT       F0
      0000009DH   SFRSYM    DATA     BYTE      IRCBAND
      000000D0H.1 SFRSYM    DATA     BIT       F1
      000000D0H   SFRSYM    DATA     BYTE      PSW
      000000CFH   SFRSYM    DATA     BYTE      SPDAT
      00000094H   SFRSYM    DATA     BYTE      P0M0

      ---         MODULE    ---      ---       APP_SPI_PS
      00000022H.2 PUBLIC    BIT      BIT       UartReceived
      000000DCH   SFRSYM    DATA     BYTE      PLLCR
      00000093H   SFRSYM    DATA     BYTE      P0M1
      00000092H   SFRSYM    DATA     BYTE      P1M0
      00000096H   SFRSYM    DATA     BYTE      P2M0
      00000091H   SFRSYM    DATA     BYTE      P1M1
      00000080H   SFRSYM    DATA     BYTE      P0
      000000B2H   SFRSYM    DATA     BYTE      P3M0
      00000095H   SFRSYM    DATA     BYTE      P2M1
      00000090H   SFRSYM    DATA     BYTE      P1
LX51 LINKER/LOCATER V4.66.87.0                                                        04/03/2025  13:07:21  PAGE 52


      000000B4H   SFRSYM    DATA     BYTE      P4M0
      000000B1H   SFRSYM    DATA     BYTE      P3M1
      000000A0H   SFRSYM    DATA     BYTE      P2
      000000CAH   SFRSYM    DATA     BYTE      P5M0
      000000B3H   SFRSYM    DATA     BYTE      P4M1
      000000B0H   SFRSYM    DATA     BYTE      P3
      000000ABH   SFRSYM    DATA     BYTE      WKTCH
      000000D0H.6 SFRSYM    DATA     BIT       AC
      000000CCH   SFRSYM    DATA     BYTE      P6M0
      000000C9H   SFRSYM    DATA     BYTE      P5M1
      000000C0H   SFRSYM    DATA     BYTE      P4
      000000E2H   SFRSYM    DATA     BYTE      P7M0
      000000CBH   SFRSYM    DATA     BYTE      P6M1
      000000C8H   SFRSYM    DATA     BYTE      P5
      000000A0H.2 SFRSYM    DATA     BIT       SPI_SS_2
      000000E8H   SFRSYM    DATA     BYTE      P6
      000000E1H   SFRSYM    DATA     BYTE      P7M1
      000000A8H.7 SFRSYM    DATA     BIT       EA
      000000C8H.4 SFRSYM    DATA     BIT       SPI_SS_3
      00000090H.4 SFRSYM    DATA     BIT       SPI_MISO
      00000090H.3 SFRSYM    DATA     BIT       SPI_MOSI
      000000F8H   SFRSYM    DATA     BYTE      P7
      000000AAH   SFRSYM    DATA     BYTE      WKTCL
      000000B0H.5 SFRSYM    DATA     BIT       SPI_SS_4
      000000CEH   SFRSYM    DATA     BYTE      SPCTL
      000000A2H   SFRSYM    DATA     BYTE      P_SW1
      000000BAH   SFRSYM    DATA     BYTE      P_SW2
      000000A0H.5 SFRSYM    DATA     BIT       SPI_SCLK_2
      000000E5H   SFRSYM    DATA     BYTE      DPH1
      000000A8H.5 SFRSYM    DATA     BIT       EADC
      000000A8H   SFRSYM    DATA     BYTE      IE
      000000C0H.3 SFRSYM    DATA     BIT       SPI_SCLK_3
      000000B0H.2 SFRSYM    DATA     BIT       SPI_SCLK_4
      000000C5H   SFRSYM    DATA     BYTE      IAP_CMD
      000000E4H   SFRSYM    DATA     BYTE      DPL1
      000000BDH   SFRSYM    DATA     BYTE      ADC_RES
      000000B6H   SFRSYM    DATA     BYTE      IP2H
      000000EEH   SFRSYM    DATA     BYTE      IP3H
      000000AEH   SFRSYM    DATA     BYTE      TA
      0000008FH   SFRSYM    DATA     BYTE      INTCLKO
      000000A8H.4 SFRSYM    DATA     BIT       ES
      000000A0H.4 SFRSYM    DATA     BIT       SPI_MISO_2
      000000A0H.3 SFRSYM    DATA     BIT       SPI_MOSI_2
      000000B8H.5 SFRSYM    DATA     BIT       PADC
      000000B8H   SFRSYM    DATA     BYTE      IP
      000000C0H.1 SFRSYM    DATA     BIT       SPI_MISO_3
      000000C0H.0 SFRSYM    DATA     BIT       SPI_MOSI_3
      000000DEH   SFRSYM    DATA     BYTE      ADCCFG
      000000B0H.3 SFRSYM    DATA     BIT       SPI_MISO_4
      000000B0H.4 SFRSYM    DATA     BIT       SPI_MOSI_4
      00000098H.0 SFRSYM    DATA     BIT       RI
      000000D0H.7 SFRSYM    DATA     BIT       CY
      00000098H.1 SFRSYM    DATA     BIT       TI
      000000C3H   SFRSYM    DATA     BYTE      IAP_ADDRH
      000000B8H.4 SFRSYM    DATA     BIT       PS
      00000081H   SFRSYM    DATA     BYTE      SP
      000000C4H   SFRSYM    DATA     BYTE      IAP_ADDRL
      000000D0H.2 SFRSYM    DATA     BIT       OV
      000000B8H.7 SFRSYM    DATA     BIT       PPCA
      0000009EH   SFRSYM    DATA     BYTE      LIRTRIM
      000000E6H   SFRSYM    DATA     BYTE      CMPCR1
      000000E7H   SFRSYM    DATA     BYTE      CMPCR2
      000000A8H.6 SFRSYM    DATA     BIT       ELVD
      00000080H.0 SFRSYM    DATA     BIT       P00
      000000BCH   SFRSYM    DATA     BYTE      ADC_CONTR
LX51 LINKER/LOCATER V4.66.87.0                                                        04/03/2025  13:07:21  PAGE 53


      00000099H   SFRSYM    DATA     BYTE      SBUF
      00000090H.0 SFRSYM    DATA     BIT       P10
      00000087H   SFRSYM    DATA     BYTE      PCON
      00000080H.1 SFRSYM    DATA     BIT       P01
      000000A0H.0 SFRSYM    DATA     BIT       P20
      00000090H.1 SFRSYM    DATA     BIT       P11
      00000080H.2 SFRSYM    DATA     BIT       P02
      000000F5H   SFRSYM    DATA     BYTE      IAP_TPS
      000000B0H.0 SFRSYM    DATA     BIT       P30
      000000A0H.1 SFRSYM    DATA     BIT       P21
      00000090H.2 SFRSYM    DATA     BIT       P12
      00000080H.3 SFRSYM    DATA     BIT       P03
      000000C0H.0 SFRSYM    DATA     BIT       P40
      000000B0H.1 SFRSYM    DATA     BIT       P31
      000000A0H.2 SFRSYM    DATA     BIT       P22
      00000098H   SFRSYM    DATA     BYTE      SCON
      00000090H.3 SFRSYM    DATA     BIT       P13
      00000080H.4 SFRSYM    DATA     BIT       P04
      000000C8H.0 SFRSYM    DATA     BIT       P50
      000000C0H.1 SFRSYM    DATA     BIT       P41
      000000B0H.2 SFRSYM    DATA     BIT       P32
      000000A0H.3 SFRSYM    DATA     BIT       P23
      00000090H.4 SFRSYM    DATA     BIT       P14
      00000089H   SFRSYM    DATA     BYTE      TMOD
      00000088H   SFRSYM    DATA     BYTE      TCON
      00000080H.5 SFRSYM    DATA     BIT       P05
      000000E8H.0 SFRSYM    DATA     BIT       P60
      000000C8H.1 SFRSYM    DATA     BIT       P51
      000000C0H.2 SFRSYM    DATA     BIT       P42
      000000B0H.3 SFRSYM    DATA     BIT       P33
      000000A0H.4 SFRSYM    DATA     BIT       P24
      00000090H.5 SFRSYM    DATA     BIT       P15
      00000080H.6 SFRSYM    DATA     BIT       P06
      000000F8H.0 SFRSYM    DATA     BIT       P70
      000000E8H.1 SFRSYM    DATA     BIT       P61
      000000C8H.2 SFRSYM    DATA     BIT       P52
      000000C0H.3 SFRSYM    DATA     BIT       P43
      000000B8H.6 SFRSYM    DATA     BIT       PLVD
      000000B0H.4 SFRSYM    DATA     BIT       P34
      000000A0H.5 SFRSYM    DATA     BIT       P25
      00000090H.6 SFRSYM    DATA     BIT       P16
      00000080H.7 SFRSYM    DATA     BIT       P07
      000000F8H.1 SFRSYM    DATA     BIT       P71
      000000E8H.2 SFRSYM    DATA     BIT       P62
      000000C8H.3 SFRSYM    DATA     BIT       P53
      000000C0H.4 SFRSYM    DATA     BIT       P44
      000000B0H.5 SFRSYM    DATA     BIT       P35
      000000A0H.6 SFRSYM    DATA     BIT       P26
      00000090H.7 SFRSYM    DATA     BIT       P17
      000000F8H.2 SFRSYM    DATA     BIT       P72
      000000E8H.3 SFRSYM    DATA     BIT       P63
      000000C8H.4 SFRSYM    DATA     BIT       P54
      000000C0H.5 SFRSYM    DATA     BIT       P45
      000000B0H.6 SFRSYM    DATA     BIT       P36
      000000A0H.7 SFRSYM    DATA     BIT       P27
      000000F8H.3 SFRSYM    DATA     BIT       P73
      000000E8H.4 SFRSYM    DATA     BIT       P64
      000000C8H.5 SFRSYM    DATA     BIT       P55
      000000C0H.6 SFRSYM    DATA     BIT       P46
      000000B0H.7 SFRSYM    DATA     BIT       P37
      000000F8H.4 SFRSYM    DATA     BIT       P74
      000000E8H.5 SFRSYM    DATA     BIT       P65
      000000C8H.6 SFRSYM    DATA     BIT       P56
      000000C0H.7 SFRSYM    DATA     BIT       P47
      000000F8H.5 SFRSYM    DATA     BIT       P75
LX51 LINKER/LOCATER V4.66.87.0                                                        04/03/2025  13:07:21  PAGE 54


      000000E8H.6 SFRSYM    DATA     BIT       P66
      000000C8H.7 SFRSYM    DATA     BIT       P57
      000000F8H.6 SFRSYM    DATA     BIT       P76
      000000E8H.7 SFRSYM    DATA     BIT       P67
      000000F8H.7 SFRSYM    DATA     BIT       P77
      00000088H.1 SFRSYM    DATA     BIT       IE0
      00000088H.3 SFRSYM    DATA     BIT       IE1
      000000AFH   SFRSYM    DATA     BYTE      IE2
      000000F0H   SFRSYM    DATA     BYTE      B
      0000008EH   SFRSYM    DATA     BYTE      AUXR
      000000FCH   SFRSYM    DATA     BYTE      USBADR
      000000C7H   SFRSYM    DATA     BYTE      IAP_CONTR
      000000ECH   SFRSYM    DATA     BYTE      USBDAT
      000000DCH   SFRSYM    DATA     BYTE      USBCLK
      000000E0H   SFRSYM    DATA     BYTE      ACC
      000000A8H.1 SFRSYM    DATA     BIT       ET0
      000000A8H.3 SFRSYM    DATA     BIT       ET1
      00000088H.5 SFRSYM    DATA     BIT       TF0
      000000FFH   SFRSYM    DATA     BYTE      RSTCFG
      000000B5H   SFRSYM    DATA     BYTE      IP2
      00000088H.7 SFRSYM    DATA     BIT       TF1
      000000F4H   SFRSYM    DATA     BYTE      USBCON
      000000DFH   SFRSYM    DATA     BYTE      IP3
      00000098H.2 SFRSYM    DATA     BIT       RB8
      0000008CH   SFRSYM    DATA     BYTE      TH0
      000000A8H.0 SFRSYM    DATA     BIT       EX0
      0000008DH   SFRSYM    DATA     BYTE      TH1
      00000088H.0 SFRSYM    DATA     BIT       IT0
      000000D6H   SFRSYM    DATA     BYTE      T2H
      000000A8H.2 SFRSYM    DATA     BIT       EX1
      00000098H.3 SFRSYM    DATA     BIT       TB8
      00000088H.2 SFRSYM    DATA     BIT       IT1
      000000D4H   SFRSYM    DATA     BYTE      T3H
      000000D0H.0 SFRSYM    DATA     BIT       P
      000000D2H   SFRSYM    DATA     BYTE      T4H
      00000098H.7 SFRSYM    DATA     BIT       SM0
      0000008AH   SFRSYM    DATA     BYTE      TL0
      00000098H.6 SFRSYM    DATA     BIT       SM1
      0000008BH   SFRSYM    DATA     BYTE      TL1
      000000D7H   SFRSYM    DATA     BYTE      T2L
      00000098H.5 SFRSYM    DATA     BIT       SM2
      000000D5H   SFRSYM    DATA     BYTE      T3L
      000000D3H   SFRSYM    DATA     BYTE      T4L
      000000B8H.1 SFRSYM    DATA     BIT       PT0
      000000D0H.3 SFRSYM    DATA     BIT       RS0
      000000B8H.3 SFRSYM    DATA     BIT       PT1
      000000D0H.4 SFRSYM    DATA     BIT       RS1
      000000C2H   SFRSYM    DATA     BYTE      IAP_DATA
      00000088H.4 SFRSYM    DATA     BIT       TR0
      00000088H.6 SFRSYM    DATA     BIT       TR1
      000000C1H   SFRSYM    DATA     BYTE      WDT_CONTR
      000000B8H.0 SFRSYM    DATA     BIT       PX0
      000000B8H.2 SFRSYM    DATA     BIT       PX1
      0000009FH   SFRSYM    DATA     BYTE      IRTRIM
      00000083H   SFRSYM    DATA     BYTE      DPH
      000000D1H   SFRSYM    DATA     BYTE      T4T3M
      000000BEH   SFRSYM    DATA     BYTE      ADC_RESL
      00000082H   SFRSYM    DATA     BYTE      DPL
      000000CDH   SFRSYM    DATA     BYTE      SPSTAT
      000000B7H   SFRSYM    DATA     BYTE      IPH
      0000009BH   SFRSYM    DATA     BYTE      S2BUF
      000000ADH   SFRSYM    DATA     BYTE      S3BUF
      00000098H.4 SFRSYM    DATA     BIT       REN
      00000085H   SFRSYM    DATA     BYTE      S4BUF
      0000009AH   SFRSYM    DATA     BYTE      S2CON
LX51 LINKER/LOCATER V4.66.87.0                                                        04/03/2025  13:07:21  PAGE 55


      000000E3H   SFRSYM    DATA     BYTE      DPS
      000000ACH   SFRSYM    DATA     BYTE      S3CON
      00000084H   SFRSYM    DATA     BYTE      S4CON
      000000EFH   SFRSYM    DATA     BYTE      AUXINTIF
      000000B9H   SFRSYM    DATA     BYTE      SADEN
      000000A9H   SFRSYM    DATA     BYTE      SADDR
      000000C6H   SFRSYM    DATA     BYTE      IAP_TRIG
      00000090H.2 SFRSYM    DATA     BIT       SPI_SS
      000000D0H.5 SFRSYM    DATA     BIT       F0
      0000009DH   SFRSYM    DATA     BYTE      IRCBAND
      000000D0H.1 SFRSYM    DATA     BIT       F1
      000000D0H   SFRSYM    DATA     BYTE      PSW
      00000090H.5 SFRSYM    DATA     BIT       SPI_SCLK
      000000CFH   SFRSYM    DATA     BYTE      SPDAT
      00000094H   SFRSYM    DATA     BYTE      P0M0

      ---         MODULE    ---      ---       APP_WDT
      000000DCH   SFRSYM    DATA     BYTE      PLLCR
      00000093H   SFRSYM    DATA     BYTE      P0M1
      00000092H   SFRSYM    DATA     BYTE      P1M0
      00000096H   SFRSYM    DATA     BYTE      P2M0
      00000091H   SFRSYM    DATA     BYTE      P1M1
      00000080H   SFRSYM    DATA     BYTE      P0
      000000B2H   SFRSYM    DATA     BYTE      P3M0
      00000095H   SFRSYM    DATA     BYTE      P2M1
      00000090H   SFRSYM    DATA     BYTE      P1
      000000B4H   SFRSYM    DATA     BYTE      P4M0
      000000B1H   SFRSYM    DATA     BYTE      P3M1
      000000A0H   SFRSYM    DATA     BYTE      P2
      000000CAH   SFRSYM    DATA     BYTE      P5M0
      000000B3H   SFRSYM    DATA     BYTE      P4M1
      000000B0H   SFRSYM    DATA     BYTE      P3
      000000ABH   SFRSYM    DATA     BYTE      WKTCH
      000000D0H.6 SFRSYM    DATA     BIT       AC
      000000CCH   SFRSYM    DATA     BYTE      P6M0
      000000C9H   SFRSYM    DATA     BYTE      P5M1
      000000C0H   SFRSYM    DATA     BYTE      P4
      000000E2H   SFRSYM    DATA     BYTE      P7M0
      000000CBH   SFRSYM    DATA     BYTE      P6M1
      000000C8H   SFRSYM    DATA     BYTE      P5
      000000E8H   SFRSYM    DATA     BYTE      P6
      000000E1H   SFRSYM    DATA     BYTE      P7M1
      000000A8H.7 SFRSYM    DATA     BIT       EA
      000000F8H   SFRSYM    DATA     BYTE      P7
      000000AAH   SFRSYM    DATA     BYTE      WKTCL
      000000CEH   SFRSYM    DATA     BYTE      SPCTL
      000000A2H   SFRSYM    DATA     BYTE      P_SW1
      000000BAH   SFRSYM    DATA     BYTE      P_SW2
      000000E5H   SFRSYM    DATA     BYTE      DPH1
      000000A8H.5 SFRSYM    DATA     BIT       EADC
      000000A8H   SFRSYM    DATA     BYTE      IE
      000000C5H   SFRSYM    DATA     BYTE      IAP_CMD
      000000E4H   SFRSYM    DATA     BYTE      DPL1
      000000BDH   SFRSYM    DATA     BYTE      ADC_RES
      000000B6H   SFRSYM    DATA     BYTE      IP2H
      000000EEH   SFRSYM    DATA     BYTE      IP3H
      000000AEH   SFRSYM    DATA     BYTE      TA
      0000008FH   SFRSYM    DATA     BYTE      INTCLKO
      000000A8H.4 SFRSYM    DATA     BIT       ES
      000000B8H.5 SFRSYM    DATA     BIT       PADC
      000000B8H   SFRSYM    DATA     BYTE      IP
      000000DEH   SFRSYM    DATA     BYTE      ADCCFG
      00000098H.0 SFRSYM    DATA     BIT       RI
      000000D0H.7 SFRSYM    DATA     BIT       CY
      00000098H.1 SFRSYM    DATA     BIT       TI
LX51 LINKER/LOCATER V4.66.87.0                                                        04/03/2025  13:07:21  PAGE 56


      000000C3H   SFRSYM    DATA     BYTE      IAP_ADDRH
      000000B8H.4 SFRSYM    DATA     BIT       PS
      00000081H   SFRSYM    DATA     BYTE      SP
      000000C4H   SFRSYM    DATA     BYTE      IAP_ADDRL
      000000D0H.2 SFRSYM    DATA     BIT       OV
      000000B8H.7 SFRSYM    DATA     BIT       PPCA
      0000009EH   SFRSYM    DATA     BYTE      LIRTRIM
      000000E6H   SFRSYM    DATA     BYTE      CMPCR1
      000000E7H   SFRSYM    DATA     BYTE      CMPCR2
      000000A8H.6 SFRSYM    DATA     BIT       ELVD
      00000080H.0 SFRSYM    DATA     BIT       P00
      000000BCH   SFRSYM    DATA     BYTE      ADC_CONTR
      00000099H   SFRSYM    DATA     BYTE      SBUF
      00000090H.0 SFRSYM    DATA     BIT       P10
      00000087H   SFRSYM    DATA     BYTE      PCON
      00000080H.1 SFRSYM    DATA     BIT       P01
      000000A0H.0 SFRSYM    DATA     BIT       P20
      00000090H.1 SFRSYM    DATA     BIT       P11
      00000080H.2 SFRSYM    DATA     BIT       P02
      000000F5H   SFRSYM    DATA     BYTE      IAP_TPS
      000000B0H.0 SFRSYM    DATA     BIT       P30
      000000A0H.1 SFRSYM    DATA     BIT       P21
      00000090H.2 SFRSYM    DATA     BIT       P12
      00000080H.3 SFRSYM    DATA     BIT       P03
      000000C0H.0 SFRSYM    DATA     BIT       P40
      000000B0H.1 SFRSYM    DATA     BIT       P31
      000000A0H.2 SFRSYM    DATA     BIT       P22
      00000098H   SFRSYM    DATA     BYTE      SCON
      00000090H.3 SFRSYM    DATA     BIT       P13
      00000080H.4 SFRSYM    DATA     BIT       P04
      000000C8H.0 SFRSYM    DATA     BIT       P50
      000000C0H.1 SFRSYM    DATA     BIT       P41
      000000B0H.2 SFRSYM    DATA     BIT       P32
      000000A0H.3 SFRSYM    DATA     BIT       P23
      00000090H.4 SFRSYM    DATA     BIT       P14
      00000089H   SFRSYM    DATA     BYTE      TMOD
      00000088H   SFRSYM    DATA     BYTE      TCON
      00000080H.5 SFRSYM    DATA     BIT       P05
      000000E8H.0 SFRSYM    DATA     BIT       P60
      000000C8H.1 SFRSYM    DATA     BIT       P51
      000000C0H.2 SFRSYM    DATA     BIT       P42
      000000B0H.3 SFRSYM    DATA     BIT       P33
      000000A0H.4 SFRSYM    DATA     BIT       P24
      00000090H.5 SFRSYM    DATA     BIT       P15
      00000080H.6 SFRSYM    DATA     BIT       P06
      000000F8H.0 SFRSYM    DATA     BIT       P70
      000000E8H.1 SFRSYM    DATA     BIT       P61
      000000C8H.2 SFRSYM    DATA     BIT       P52
      000000C0H.3 SFRSYM    DATA     BIT       P43
      000000B8H.6 SFRSYM    DATA     BIT       PLVD
      000000B0H.4 SFRSYM    DATA     BIT       P34
      000000A0H.5 SFRSYM    DATA     BIT       P25
      00000090H.6 SFRSYM    DATA     BIT       P16
      00000080H.7 SFRSYM    DATA     BIT       P07
      000000F8H.1 SFRSYM    DATA     BIT       P71
      000000E8H.2 SFRSYM    DATA     BIT       P62
      000000C8H.3 SFRSYM    DATA     BIT       P53
      000000C0H.4 SFRSYM    DATA     BIT       P44
      000000B0H.5 SFRSYM    DATA     BIT       P35
      000000A0H.6 SFRSYM    DATA     BIT       P26
      00000090H.7 SFRSYM    DATA     BIT       P17
      000000F8H.2 SFRSYM    DATA     BIT       P72
      000000E8H.3 SFRSYM    DATA     BIT       P63
      000000C8H.4 SFRSYM    DATA     BIT       P54
      000000C0H.5 SFRSYM    DATA     BIT       P45
LX51 LINKER/LOCATER V4.66.87.0                                                        04/03/2025  13:07:21  PAGE 57


      000000B0H.6 SFRSYM    DATA     BIT       P36
      000000A0H.7 SFRSYM    DATA     BIT       P27
      000000F8H.3 SFRSYM    DATA     BIT       P73
      000000E8H.4 SFRSYM    DATA     BIT       P64
      000000C8H.5 SFRSYM    DATA     BIT       P55
      000000C0H.6 SFRSYM    DATA     BIT       P46
      000000B0H.7 SFRSYM    DATA     BIT       P37
      000000F8H.4 SFRSYM    DATA     BIT       P74
      000000E8H.5 SFRSYM    DATA     BIT       P65
      000000C8H.6 SFRSYM    DATA     BIT       P56
      000000C0H.7 SFRSYM    DATA     BIT       P47
      000000F8H.5 SFRSYM    DATA     BIT       P75
      000000E8H.6 SFRSYM    DATA     BIT       P66
      000000C8H.7 SFRSYM    DATA     BIT       P57
      000000F8H.6 SFRSYM    DATA     BIT       P76
      000000E8H.7 SFRSYM    DATA     BIT       P67
      000000F8H.7 SFRSYM    DATA     BIT       P77
      00000088H.1 SFRSYM    DATA     BIT       IE0
      00000088H.3 SFRSYM    DATA     BIT       IE1
      000000AFH   SFRSYM    DATA     BYTE      IE2
      000000F0H   SFRSYM    DATA     BYTE      B
      0000008EH   SFRSYM    DATA     BYTE      AUXR
      000000FCH   SFRSYM    DATA     BYTE      USBADR
      000000C7H   SFRSYM    DATA     BYTE      IAP_CONTR
      000000ECH   SFRSYM    DATA     BYTE      USBDAT
      000000DCH   SFRSYM    DATA     BYTE      USBCLK
      000000E0H   SFRSYM    DATA     BYTE      ACC
      000000A8H.1 SFRSYM    DATA     BIT       ET0
      000000A8H.3 SFRSYM    DATA     BIT       ET1
      00000088H.5 SFRSYM    DATA     BIT       TF0
      000000FFH   SFRSYM    DATA     BYTE      RSTCFG
      000000B5H   SFRSYM    DATA     BYTE      IP2
      00000088H.7 SFRSYM    DATA     BIT       TF1
      000000F4H   SFRSYM    DATA     BYTE      USBCON
      000000DFH   SFRSYM    DATA     BYTE      IP3
      00000098H.2 SFRSYM    DATA     BIT       RB8
      0000008CH   SFRSYM    DATA     BYTE      TH0
      000000A8H.0 SFRSYM    DATA     BIT       EX0
      0000008DH   SFRSYM    DATA     BYTE      TH1
      00000088H.0 SFRSYM    DATA     BIT       IT0
      000000D6H   SFRSYM    DATA     BYTE      T2H
      000000A8H.2 SFRSYM    DATA     BIT       EX1
      00000098H.3 SFRSYM    DATA     BIT       TB8
      00000088H.2 SFRSYM    DATA     BIT       IT1
      000000D4H   SFRSYM    DATA     BYTE      T3H
      000000D0H.0 SFRSYM    DATA     BIT       P
      000000D2H   SFRSYM    DATA     BYTE      T4H
      00000098H.7 SFRSYM    DATA     BIT       SM0
      0000008AH   SFRSYM    DATA     BYTE      TL0
      00000098H.6 SFRSYM    DATA     BIT       SM1
      0000008BH   SFRSYM    DATA     BYTE      TL1
      000000D7H   SFRSYM    DATA     BYTE      T2L
      00000098H.5 SFRSYM    DATA     BIT       SM2
      000000D5H   SFRSYM    DATA     BYTE      T3L
      000000D3H   SFRSYM    DATA     BYTE      T4L
      000000B8H.1 SFRSYM    DATA     BIT       PT0
      000000D0H.3 SFRSYM    DATA     BIT       RS0
      000000B8H.3 SFRSYM    DATA     BIT       PT1
      000000D0H.4 SFRSYM    DATA     BIT       RS1
      000000C2H   SFRSYM    DATA     BYTE      IAP_DATA
      00000088H.4 SFRSYM    DATA     BIT       TR0
      00000088H.6 SFRSYM    DATA     BIT       TR1
      000000C1H   SFRSYM    DATA     BYTE      WDT_CONTR
      000000B8H.0 SFRSYM    DATA     BIT       PX0
      000000B8H.2 SFRSYM    DATA     BIT       PX1
LX51 LINKER/LOCATER V4.66.87.0                                                        04/03/2025  13:07:21  PAGE 58


      0000009FH   SFRSYM    DATA     BYTE      IRTRIM
      00000083H   SFRSYM    DATA     BYTE      DPH
      000000D1H   SFRSYM    DATA     BYTE      T4T3M
      000000BEH   SFRSYM    DATA     BYTE      ADC_RESL
      00000082H   SFRSYM    DATA     BYTE      DPL
      000000CDH   SFRSYM    DATA     BYTE      SPSTAT
      000000B7H   SFRSYM    DATA     BYTE      IPH
      0000009BH   SFRSYM    DATA     BYTE      S2BUF
      000000ADH   SFRSYM    DATA     BYTE      S3BUF
      00000098H.4 SFRSYM    DATA     BIT       REN
      00000085H   SFRSYM    DATA     BYTE      S4BUF
      0000009AH   SFRSYM    DATA     BYTE      S2CON
      000000E3H   SFRSYM    DATA     BYTE      DPS
      000000ACH   SFRSYM    DATA     BYTE      S3CON
      00000084H   SFRSYM    DATA     BYTE      S4CON
      000000EFH   SFRSYM    DATA     BYTE      AUXINTIF
      000000B9H   SFRSYM    DATA     BYTE      SADEN
      000000A9H   SFRSYM    DATA     BYTE      SADDR
      000000C6H   SFRSYM    DATA     BYTE      IAP_TRIG
      000000D0H.5 SFRSYM    DATA     BIT       F0
      0000009DH   SFRSYM    DATA     BYTE      IRCBAND
      000000D0H.1 SFRSYM    DATA     BIT       F1
      000000D0H   SFRSYM    DATA     BYTE      PSW
      000000CFH   SFRSYM    DATA     BYTE      SPDAT
      00000094H   SFRSYM    DATA     BYTE      P0M0

