LX51 LINKER/LOCATER V4.66.97.0                                                          03/30/2022  10:48:14  PAGE 1


LX51 LINKER/LOCATER V4.66.97.0, INVOKED BY:
D:\KEIL_V5\C51\BIN\LX51.EXE COMMON {..\OUTPUT\L51_BANK.obj}, COMMON {..\OUTPUT\STARTUP.obj}, COMMON {..\OUTPUT\main.obj}
>> , COMMON {..\OUTPUT\Work.obj}, COMMON {..\OUTPUT\BootloaderEntrance.obj} TO ..\OUTPUT\APP0 BANKAREA (0X008000, 0X00FF
>> FF) PRINT (.\APP0.map) REMOVEUNUSED CLASSES (CODE (C:0X100), CONST (C:0X100))


CPU MODE:     8051 MODE
MEMORY MODEL: LARGE


INPUT MODULES INCLUDED:
  ..\OUTPUT\L51_BANK.obj (?BANK?SWITCHING)
         COMMENT TYPE 1: A51 / ASM51 Assembler
  ..\OUTPUT\STARTUP.obj (?C_STARTUP)
         COMMENT TYPE 1: A51 / ASM51 Assembler
  ..\OUTPUT\main.obj (MAIN)
         COMMENT TYPE 0: C51 V9.60.0.0
  ..\OUTPUT\Work.obj (WORK)
         COMMENT TYPE 0: C51 V9.60.0.0
  ..\OUTPUT\BootloaderEntrance.obj (BOOTLOADERENTRANCE)
         COMMENT TYPE 0: C51 V9.60.0.0
  D:\KEIL_V5\C51\LIB\C51L.LIB (?C_INIT)
         COMMENT TYPE 1: A51 / ASM51 Assembler
  D:\KEIL_V5\C51\LIB\C51L.LIB (PRINTF)
         COMMENT TYPE 1: A51 / ASM51 Assembler
  D:\KEIL_V5\C51\LIB\C51L.LIB (?C?CLDPTR)
         COMMENT TYPE 1: A51 / ASM51 Assembler
  D:\KEIL_V5\C51\LIB\C51L.LIB (?C?CLDOPTR)
         COMMENT TYPE 1: A51 / ASM51 Assembler
  D:\KEIL_V5\C51\LIB\C51L.LIB (?C?CSTPTR)
         COMMENT TYPE 1: A51 / ASM51 Assembler
  D:\KEIL_V5\C51\LIB\C51L.LIB (?C?PLDIXDATA)
         COMMENT TYPE 1: A51 / ASM51 Assembler
  D:\KEIL_V5\C51\LIB\C51L.LIB (?C?PSTXDATA)
         COMMENT TYPE 1: A51 / ASM51 Assembler
  D:\KEIL_V5\C51\LIB\C51L.LIB (?C?CCASE)
         COMMENT TYPE 1: A51 / ASM51 Assembler


ACTIVE MEMORY CLASSES OF MODULE:  ..\OUTPUT\APP0 (?BANK?SWITCHING)

BASE        START       END         USED      MEMORY CLASS
==========================================================
C:000000H   C:000100H   C:00FFFFH   000660H   CODE
C:000000H   C:000100H   C:00FFFFH   00002FH   CONST
I:000000H   I:000000H   I:00007FH   00000EH   DATA
I:000000H   I:000000H   I:0000FFH   000001H   IDATA
X:000000H   X:000000H   X:00FFFFH   000035H   XDATA
I:000020H.0 I:000020H.0 I:00002FH.7 000001H.1 BIT


MEMORY MAP OF MODULE:  ..\OUTPUT\APP0 (?BANK?SWITCHING)


START     STOP      LENGTH    ALIGN  RELOC    MEMORY CLASS   SEGMENT NAME
=========================================================================

* * * * * * * * * * *   D A T A   M E M O R Y   * * * * * * * * * * * * *
000000H   000007H   000008H   ---    AT..     DATA           "REG BANK 0"
000008H   00000CH   000005H   BYTE   UNIT     DATA           _DATA_GROUP_
00000DH   00000DH   000001H   BYTE   UNIT     DATA           ?BANK?DATA
00000EH.0 00001FH.7 000012H.0 ---    ---      **GAP**
000020H.0 000021H.0 000001H.1 BIT    UNIT     BIT            _BIT_GROUP_
000021H.1 000021H   000000H.7 ---    ---      **GAP**
000022H   000022H   000001H   BYTE   UNIT     IDATA          ?STACK

LX51 LINKER/LOCATER V4.66.97.0                                                        03/30/2022  10:48:14  PAGE 2


* * * * * * * * * * *   C O D E   M E M O R Y   * * * * * * * * * * * * *
000000H   000002H   000003H   ---    OFFS..   CODE           ?CO??C_STARTUP?0
000003H   00003AH   000038H   ---    ---      **GAP**
00003BH   00003DH   000003H   BYTE   OFFS..   CODE           ?BOOTLOADERENTRANCE?0003B
00003EH   0000FFH   0000C2H   ---    ---      **GAP**
000100H   000158H   000059H   PAGE   INBLOCK  CODE           ?BANK?SWITCH
000159H   0004BDH   000365H   BYTE   UNIT     CODE           ?PR?PRINTF?PRINTF
0004BEH   00055BH   00009EH   BYTE   UNIT     CODE           ?C?LIB_CODE
00055CH   0005EAH   00008FH   BYTE   UNIT     CODE           ?C_C51STARTUP
0005EBH   00063FH   000055H   BYTE   UNIT     CODE           ?PR?UARTRECECMD?BOOTLOADERENTRANCE
000640H   000690H   000051H   BYTE   UNIT     CODE           ?PR?UART_INTERRUPT?BOOTLOADERENTRANCE
000691H   0006AFH   00001FH   BYTE   UNIT     CODE           ?PR?MAIN?MAIN
0006B0H   0006CDH   00001EH   BYTE   UNIT     CODE           ?PR?_IAP_GOTO?BOOTLOADERENTRANCE
0006CEH   0006E9H   00001CH   BYTE   UNIT     CODE           ?PR?BOOTLOADERCHECK?BOOTLOADERENTRANCE
0006EAH   000700H   000017H   BYTE   UNIT     CODE           ?PR?_DELAY40MS?WORK
000701H   000715H   000015H   BYTE   UNIT     CODE           ?PR?UARTINIT?BOOTLOADERENTRANCE
000716H   000726H   000011H   BYTE   UNIT     CODE           ?PR?_DELAY?WORK
000727H   000733H   00000DH   BYTE   UNIT     CODE           ?BANK?SELECT
000734H   000740H   00000DH   BYTE   UNIT     CODE           ?C_INITSEG
000741H   00074BH   00000BH   BYTE   UNIT     CODE           ?PR?_PUTCHAR?MAIN
00074CH   000752H   000007H   BYTE   UNIT     CODE           ?PR?LEDINIT?WORK
000753H   000759H   000007H   BYTE   UNIT     CODE           ?PR?LEDSHOW0?WORK
00075AH   000788H   00002FH   BYTE   UNIT     CONST          ?CO?MAIN

* * * * * * * * * * *  X D A T A   M E M O R Y  * * * * * * * * * * * * *
000000H   000027H   000028H   BYTE   UNIT     XDATA          _XDATA_GROUP_
000028H   000032H   00000BH   BYTE   UNIT     XDATA          ?XD?BOOTLOADERENTRANCE
000033H   000034H   000002H   BYTE   UNIT     XDATA          ?XD?WORK



OVERLAY MAP OF MODULE:   ..\OUTPUT\APP0 (?BANK?SWITCHING)


FUNCTION/MODULE                          BIT_GROUP   DATA_GROUP   XDATA_GROUP
--> CALLED FUNCTION/MODULE              START  STOP  START  STOP  START  STOP
=============================================================================
?C_C51STARTUP                           ----- -----  ----- -----  ----- -----
  +--> MAIN/MAIN
  +--> ?C_INITSEG

MAIN/MAIN                               ----- -----  ----- -----  ----- -----
  +--> LEDINIT/WORK
  +--> UARTINIT/BOOTLOADERENTRANCE
  +--> PRINTF/PRINTF
  +--> LEDSHOW0/WORK

LEDINIT/WORK                            ----- -----  ----- -----  ----- -----

UARTINIT/BOOTLOADERENTRANCE             ----- -----  ----- -----  ----- -----

PRINTF/PRINTF                           20H.0 21H.0  0008H 000CH  0000H 0027H
  +--> _PUTCHAR/MAIN

_PUTCHAR/MAIN                           ----- -----  ----- -----  ----- -----

LEDSHOW0/WORK                           ----- -----  ----- -----  ----- -----
  +--> _DELAY40MS/WORK

_DELAY40MS/WORK                         ----- -----  ----- -----  ----- -----
  +--> _DELAY/WORK

_DELAY/WORK                             ----- -----  ----- -----  ----- -----

?C_INITSEG                              ----- -----  ----- -----  ----- -----
LX51 LINKER/LOCATER V4.66.97.0                                                        03/30/2022  10:48:14  PAGE 3



*** NEW ROOT **************************

UART_INTERRUPT/BOOTLOADERENTRANCE       ----- -----  ----- -----  ----- -----
  +--> BOOTLOADERCHECK/BOOTLOADERENTRANCE

BOOTLOADERCHECK/BOOTLOADERENTRANCE      ----- -----  ----- -----  ----- -----
  +--> UARTRECECMD/BOOTLOADERENTRANCE
  +--> _IAP_GOTO/BOOTLOADERENTRANCE

UARTRECECMD/BOOTLOADERENTRANCE          ----- -----  ----- -----  ----- -----

_IAP_GOTO/BOOTLOADERENTRANCE            ----- -----  ----- -----  ----- -----



PUBLIC SYMBOLS OF MODULE:  ..\OUTPUT\APP0 (?BANK?SWITCHING)


      VALUE       CLASS    TYPE      PUBLIC SYMBOL NAME
      =================================================
      02000000H   XDATA    ---       ?_PRINTF517?BYTE
      02000000H   XDATA    ---       ?_PRINTF?BYTE
      02000000H   XDATA    ---       ?_SPRINTF517?BYTE
      02000000H   XDATA    ---       ?_SPRINTF?BYTE
      01000100H   CODE     ---       ?B_BANK0
      01000116H   CODE     ---       ?B_BANK1
      0100012CH   CODE     ---       ?B_BANK2
      01000142H   CODE     ---       ?B_BANK3
      0000000DH   DATA     ---       ?B_CURRENTBANK
      00000000H   NUMBER   ---       ?B_FACTOR
      00000003H   NUMBER   ---       ?B_MASK
      00000004H   NUMBER   ---       ?B_MODE
      00000004H   NUMBER   ---       ?B_NBANKS
      000000FFH   NUMBER   ---       ?B_RST_BANK
      0100010AH   CODE     ---       ?B_SWITCH0
      01000120H   CODE     ---       ?B_SWITCH1
      01000136H   CODE     ---       ?B_SWITCH2
      0100014CH   CODE     ---       ?B_SWITCH3
      01000728H   CODE     ---       ?B_SWITCHBANK_A
      01000536H   CODE     ---       ?C?CCASE
      010004D7H   CODE     ---       ?C?CLDOPTR
      010004BEH   CODE     ---       ?C?CLDPTR
      00000000H   NUMBER   ---       ?C?CODESEG
      01000504H   CODE     ---       ?C?CSTPTR
      01000516H   CODE     ---       ?C?PLDIXDATA
      0100052DH   CODE     ---       ?C?PSTXDATA
      00000000H   NUMBER   ---       ?C?XDATASEG
      010005A6H   CODE     ---       ?C_START
      01000000H   CODE     ---       ?C_STARTUP
      01000716H   CODE     ---       _Delay
      010006EAH   CODE     ---       _Delay40ms
      010006B0H   CODE     ---       _IAP_GoTo
      010001C4H   CODE     ---       _PRINTF
      010001C4H   CODE     ---       _PRINTF517
      01000741H   CODE     ---       _putchar
      010001BEH   CODE     ---       _SPRINTF
      010001BEH   CODE     ---       _SPRINTF517
      01000727H   CODE     ---       _SWITCHBANK
*SFR* 000000D0H.6 DATA     BIT       AC
*SFR* 000000E0H   DATA     BYTE      ACC
*SFR* 000000ABH   DATA     BYTE      ADCCFG0
*SFR* 000000ACH   DATA     BYTE      ADCCFG1
*SFR* 000000B5H   DATA     BYTE      ADCCFG2
*SFR* 000000ADH   DATA     BYTE      ADCCON
LX51 LINKER/LOCATER V4.66.97.0                                                        03/30/2022  10:48:14  PAGE 4


*SFR* 000000AFH   DATA     BYTE      ADCVH
*SFR* 000000AEH   DATA     BYTE      ADCVL
*SFR* 000000F0H   DATA     BYTE      B
      010006CEH   CODE     ---       BootloaderCheck
*SFR* 000000FBH   DATA     BYTE      BTMCON
*SFR* 000000B6H   DATA     BYTE      CMPCFG
*SFR* 000000B7H   DATA     BYTE      CMPCON
*SFR* 000000C8H.0 DATA     BIT       CP
*SFR* 000000FCH   DATA     BYTE      CRCINX
*SFR* 000000FDH   DATA     BYTE      CRCREG
*SFR* 000000D0H.7 DATA     BIT       CY
*SFR* 00000093H   DATA     BYTE      DDRCON
*SFR* 00000083H   DATA     BYTE      DPH
*SFR* 00000085H   DATA     BYTE      DPH1
*SFR* 00000082H   DATA     BYTE      DPL
*SFR* 00000084H   DATA     BYTE      DPL1
*SFR* 00000086H   DATA     BYTE      DPS
*SFR* 000000A8H.7 DATA     BIT       EA
*SFR* 000000A8H.6 DATA     BIT       EADC
*SFR* 000000A8H.0 DATA     BIT       EINT0
*SFR* 000000A8H.2 DATA     BIT       EINT1
*SFR* 000000A8H.1 DATA     BIT       ET0
*SFR* 000000A8H.3 DATA     BIT       ET1
*SFR* 000000A8H.5 DATA     BIT       ET2
*SFR* 000000A8H.4 DATA     BIT       EUART
*SFR* 000000E9H   DATA     BYTE      EXA0
*SFR* 000000EAH   DATA     BYTE      EXA1
*SFR* 000000EBH   DATA     BYTE      EXA2
*SFR* 000000ECH   DATA     BYTE      EXA3
*SFR* 000000F7H   DATA     BYTE      EXADH
*SFR* 000000EEH   DATA     BYTE      EXBH
*SFR* 000000EDH   DATA     BYTE      EXBL
*SFR* 000000C8H.3 DATA     BIT       EXENX
*SFR* 000000C8H.6 DATA     BIT       EXFX
*SFR* 000000D0H.5 DATA     BIT       F0
*SFR* 000000D0H.1 DATA     BIT       F1
*SFR* 000000F4H   DATA     BYTE      IAPADE
*SFR* 000000F3H   DATA     BYTE      IAPADH
*SFR* 000000F2H   DATA     BYTE      IAPADL
      0200002CH   XDATA    BYTE      IAPCMD
*SFR* 000000F6H   DATA     BYTE      IAPCTL
*SFR* 000000F5H   DATA     BYTE      IAPDAT
*SFR* 000000F1H   DATA     BYTE      IAPKEY
*SFR* 000000A8H   DATA     BYTE      IE
*SFR* 000000A9H   DATA     BYTE      IE1
*SFR* 000000AAH   DATA     BYTE      IE2
*SFR* 000000B4H   DATA     BYTE      INT0F
*SFR* 000000BBH   DATA     BYTE      INT0R
*SFR* 000000BCH   DATA     BYTE      INT1F
*SFR* 000000BDH   DATA     BYTE      INT1R
*SFR* 000000BEH   DATA     BYTE      INT2F
*SFR* 000000BFH   DATA     BYTE      INT2R
*SFR* 00000096H   DATA     BYTE      IOHCON0
*SFR* 00000097H   DATA     BYTE      IOHCON1
*SFR* 000000B8H   DATA     BYTE      IP
*SFR* 000000B9H   DATA     BYTE      IP1
*SFR* 000000BAH   DATA     BYTE      IP2
*SFR* 000000B8H.6 DATA     BIT       IPADC
*SFR* 000000B8H.0 DATA     BIT       IPINT0
*SFR* 000000B8H.2 DATA     BIT       IPINT1
*SFR* 000000B8H.1 DATA     BIT       IPT0
*SFR* 000000B8H.3 DATA     BIT       IPT1
*SFR* 000000B8H.5 DATA     BIT       IPT2
*SFR* 000000B8H.4 DATA     BIT       IPUART
      0100074CH   CODE     ---       LedInit
LX51 LINKER/LOCATER V4.66.97.0                                                        03/30/2022  10:48:14  PAGE 5


      01000753H   CODE     ---       LedShow0
      02000034H   XDATA    BYTE      LedShowSelect
      01000691H   CODE     ---       main
*SFR* 000000EFH   DATA     BYTE      OPERCON
*SFR* 000000FEH   DATA     BYTE      OPINX
*SFR* 000000FFH   DATA     BYTE      OPREG
*SFR* 0000008FH   DATA     BYTE      OTCON
*SFR* 000000D0H.2 DATA     BIT       OV
*SFR* 000000D0H.0 DATA     BIT       P
*SFR* 00000080H   DATA     BYTE      P0
*SFR* 00000080H.0 DATA     BIT       P00
*SFR* 00000080H.1 DATA     BIT       P01
*SFR* 00000080H.2 DATA     BIT       P02
*SFR* 00000080H.3 DATA     BIT       P03
*SFR* 00000080H.4 DATA     BIT       P04
*SFR* 00000080H.5 DATA     BIT       P05
*SFR* 00000080H.6 DATA     BIT       P06
*SFR* 00000080H.7 DATA     BIT       P07
*SFR* 0000009AH   DATA     BYTE      P0CON
*SFR* 0000009BH   DATA     BYTE      P0PH
*SFR* 0000009CH   DATA     BYTE      P0VO
*SFR* 00000090H   DATA     BYTE      P1
*SFR* 00000090H.0 DATA     BIT       P10
*SFR* 00000090H.1 DATA     BIT       P11
*SFR* 00000090H.2 DATA     BIT       P12
*SFR* 00000090H.3 DATA     BIT       P13
*SFR* 00000090H.4 DATA     BIT       P14
*SFR* 00000090H.5 DATA     BIT       P15
*SFR* 00000090H.6 DATA     BIT       P16
*SFR* 00000090H.7 DATA     BIT       P17
*SFR* 00000091H   DATA     BYTE      P1CON
*SFR* 00000092H   DATA     BYTE      P1PH
*SFR* 00000094H   DATA     BYTE      P1VO
*SFR* 000000A0H   DATA     BYTE      P2
*SFR* 000000A0H.0 DATA     BIT       P20
*SFR* 000000A0H.1 DATA     BIT       P21
*SFR* 000000A0H.2 DATA     BIT       P22
*SFR* 000000A0H.3 DATA     BIT       P23
*SFR* 000000A0H.4 DATA     BIT       P24
*SFR* 000000A0H.5 DATA     BIT       P25
*SFR* 000000A0H.6 DATA     BIT       P26
*SFR* 000000A0H.7 DATA     BIT       P27
*SFR* 000000A1H   DATA     BYTE      P2CON
*SFR* 000000A2H   DATA     BYTE      P2PH
*SFR* 000000A3H   DATA     BYTE      P2VO
*SFR* 000000B0H   DATA     BYTE      P3
*SFR* 000000B0H.0 DATA     BIT       P30
*SFR* 000000B0H.1 DATA     BIT       P31
*SFR* 000000B0H.2 DATA     BIT       P32
*SFR* 000000B0H.3 DATA     BIT       P33
*SFR* 000000B0H.4 DATA     BIT       P34
*SFR* 000000B0H.5 DATA     BIT       P35
*SFR* 000000B0H.6 DATA     BIT       P36
*SFR* 000000B0H.7 DATA     BIT       P37
*SFR* 000000B1H   DATA     BYTE      P3CON
*SFR* 000000B2H   DATA     BYTE      P3PH
*SFR* 000000B3H   DATA     BYTE      P3VO
*SFR* 000000C0H   DATA     BYTE      P4
*SFR* 000000C0H.0 DATA     BIT       P40
*SFR* 000000C0H.1 DATA     BIT       P41
*SFR* 000000C0H.2 DATA     BIT       P42
*SFR* 000000C0H.3 DATA     BIT       P43
*SFR* 000000C0H.4 DATA     BIT       P44
*SFR* 000000C0H.5 DATA     BIT       P45
*SFR* 000000C0H.6 DATA     BIT       P46
LX51 LINKER/LOCATER V4.66.97.0                                                        03/30/2022  10:48:14  PAGE 6


*SFR* 000000C0H.7 DATA     BIT       P47
*SFR* 000000C1H   DATA     BYTE      P4CON
*SFR* 000000C2H   DATA     BYTE      P4PH
*SFR* 000000D8H   DATA     BYTE      P5
*SFR* 000000D8H.0 DATA     BIT       P50
*SFR* 000000D8H.1 DATA     BIT       P51
*SFR* 000000D8H.2 DATA     BIT       P52
*SFR* 000000D8H.3 DATA     BIT       P53
*SFR* 000000D8H.4 DATA     BIT       P54
*SFR* 000000D8H.5 DATA     BIT       P55
*SFR* 000000D9H   DATA     BYTE      P5CON
*SFR* 000000DAH   DATA     BYTE      P5PH
*SFR* 00000087H   DATA     BYTE      PCON
*SFR* 000000D0H   DATA     BYTE      PSW
*SFR* 000000D1H   DATA     BYTE      PWMCFG
*SFR* 000000D2H   DATA     BYTE      PWMCON0
*SFR* 000000D3H   DATA     BYTE      PWMCON1
*SFR* 000000D6H   DATA     BYTE      PWMDFR
*SFR* 000000D7H   DATA     BYTE      PWMFLT
*SFR* 000000D5H   DATA     BYTE      PWMPDH
*SFR* 000000D4H   DATA     BYTE      PWMPDL
*SFR* 00000098H.2 DATA     BIT       RB8
*SFR* 000000CBH   DATA     BYTE      RCAPXH
*SFR* 000000CAH   DATA     BYTE      RCAPXL
*SFR* 000000C8H.5 DATA     BIT       RCLKX
*SFR* 00000098H.4 DATA     BIT       REN
*SFR* 00000098H.0 DATA     BIT       RI
*SFR* 000000DFH   DATA     BYTE      ROMBNK
*SFR* 000000D0H.3 DATA     BIT       RS0
*SFR* 000000D0H.4 DATA     BIT       RS1
*SFR* 00000099H   DATA     BYTE      SBUF
*SFR* 00000098H   DATA     BYTE      SCON
*SFR* 00000098H.7 DATA     BIT       SM0
*SFR* 00000098H.6 DATA     BIT       SM1
*SFR* 00000098H.5 DATA     BIT       SM2
*SFR* 00000081H   DATA     BYTE      SP
*SFR* 00000098H.3 DATA     BIT       TB8
*SFR* 000000C8H.4 DATA     BIT       TCLKX
*SFR* 00000088H   DATA     BYTE      TCON
*SFR* 00000088H.5 DATA     BIT       TF0
*SFR* 00000088H.7 DATA     BIT       TF1
*SFR* 000000C8H.7 DATA     BIT       TFX
*SFR* 0000008CH   DATA     BYTE      TH0
*SFR* 0000008DH   DATA     BYTE      TH1
*SFR* 000000CDH   DATA     BYTE      THX
*SFR* 00000098H.1 DATA     BIT       TI
      02000033H   XDATA    BYTE      TimerCount
*SFR* 0000008AH   DATA     BYTE      TL0
*SFR* 0000008BH   DATA     BYTE      TL1
*SFR* 000000CCH   DATA     BYTE      TLX
*SFR* 0000008EH   DATA     BYTE      TMCON
*SFR* 00000089H   DATA     BYTE      TMOD
*SFR* 00000088H.4 DATA     BIT       TR0
*SFR* 00000088H.6 DATA     BIT       TR1
*SFR* 000000C8H.2 DATA     BIT       TRX
*SFR* 000000C8H.1 DATA     BIT       TX
*SFR* 000000C8H   DATA     BYTE      TXCON
*SFR* 000000CEH   DATA     BYTE      TXINX
*SFR* 000000C9H   DATA     BYTE      TXMOD
      01000640H   CODE     ---       UART_Interrupt
      0200002DH   XDATA    ---       UartCMD
      01000701H   CODE     ---       UartInit
      02000028H   XDATA    BYTE      UartLength
      02000029H   XDATA    BYTE      UartReadNumber
      010005EBH   CODE     ---       UartReceCMD
LX51 LINKER/LOCATER V4.66.97.0                                                        03/30/2022  10:48:14  PAGE 7


      0200002AH   XDATA    BYTE      UartReceFlag
      0200002BH   XDATA    BYTE      UartSendFlag
*SFR* 00000095H   DATA     BYTE      US0CON0
*SFR* 0000009DH   DATA     BYTE      US0CON1
*SFR* 0000009EH   DATA     BYTE      US0CON2
*SFR* 0000009FH   DATA     BYTE      US0CON3
*SFR* 000000A4H   DATA     BYTE      US1CON0
*SFR* 000000A5H   DATA     BYTE      US1CON1
*SFR* 000000A6H   DATA     BYTE      US1CON2
*SFR* 000000A7H   DATA     BYTE      US1CON3
*SFR* 000000C4H   DATA     BYTE      USXCON0
*SFR* 000000C5H   DATA     BYTE      USXCON1
*SFR* 000000C6H   DATA     BYTE      USXCON2
*SFR* 000000C7H   DATA     BYTE      USXCON3
*SFR* 000000DCH   DATA     BYTE      USXINX
*SFR* 000000CFH   DATA     BYTE      WDTCON



SYMBOL TABLE OF MODULE:  ..\OUTPUT\APP0 (?BANK?SWITCHING)

      VALUE       REP       CLASS    TYPE      SYMBOL NAME
      ====================================================
      ---         MODULE    ---      ---       ?BANK?SWITCHING
      01000100H   PUBLIC    CODE     ---       ?B_BANK0
      01000116H   PUBLIC    CODE     ---       ?B_BANK1
      0100012CH   PUBLIC    CODE     ---       ?B_BANK2
      01000142H   PUBLIC    CODE     ---       ?B_BANK3
      0000000DH   PUBLIC    DATA     ---       ?B_CURRENTBANK
      00000000H   PUBLIC    NUMBER   ---       ?B_FACTOR
      00000003H   PUBLIC    NUMBER   ---       ?B_MASK
      00000004H   PUBLIC    NUMBER   ---       ?B_MODE
      00000004H   PUBLIC    NUMBER   ---       ?B_NBANKS
      000000FFH   PUBLIC    NUMBER   ---       ?B_RST_BANK
      0100010AH   PUBLIC    CODE     ---       ?B_SWITCH0
      01000120H   PUBLIC    CODE     ---       ?B_SWITCH1
      01000136H   PUBLIC    CODE     ---       ?B_SWITCH2
      0100014CH   PUBLIC    CODE     ---       ?B_SWITCH3
      01000728H   PUBLIC    CODE     ---       ?B_SWITCHBANK_A
      01000727H   PUBLIC    CODE     ---       _SWITCHBANK
      00000000H   SYMBOL    NUMBER   ---       ?BANK?SWITCHING
      00000000H   SYMBOL    NUMBER   ---       ?B_FIRSTBIT
      0100072CH   SYMBOL    CODE     ---       ?B_RESTORE_BANK
      00000000H   SYMBOL    NUMBER   ---       ?B_RTX
      00000000H   SYMBOL    NUMBER   ---       ?B_VAR_BANKING
      000000E0H   SYMBOL    DATA     ---       ACC
      000000F0H   SYMBOL    DATA     ---       B
      00000058H   SYMBOL    NUMBER   ---       B_SWITCH_SIZE
      01000100H   SYMBOL    CODE     ---       B_SWITCH_START
      00000004H   SYMBOL    NUMBER   ---       CNT
      00000083H   SYMBOL    DATA     ---       DPH
      00000082H   SYMBOL    DATA     ---       DPL
      000000A8H.7 SYMBOL    BIT      ---       EA
      000000A8H   SYMBOL    DATA     ---       IE
      00000000H   SYMBOL    NUMBER   ---       LONG_MACRO
      00000003H   SYMBOL    NUMBER   ---       MASK
      000000DFH   SYMBOL    DATA     ---       ROMBANK
      01000730H   SYMBOL    CODE     ---       SWITCH_TAB

      ---         MODULE    ---      ---       ?C_STARTUP
      01000000H   PUBLIC    CODE     ---       ?C_STARTUP
      000000E0H   SYMBOL    DATA     ---       ACC
      000000F0H   SYMBOL    DATA     ---       B
      00000083H   SYMBOL    DATA     ---       DPH
      00000082H   SYMBOL    DATA     ---       DPL
LX51 LINKER/LOCATER V4.66.97.0                                                        03/30/2022  10:48:14  PAGE 8


      00000000H   SYMBOL    NUMBER   ---       IBPSTACK
      00000100H   SYMBOL    NUMBER   ---       IBPSTACKTOP
      00000080H   SYMBOL    NUMBER   ---       IDATALEN
      0100055FH   SYMBOL    CODE     ---       IDATALOOP
      00000000H   SYMBOL    NUMBER   ---       PBPSTACK
      00000100H   SYMBOL    NUMBER   ---       PBPSTACKTOP
      00000000H   SYMBOL    NUMBER   ---       PDATALEN
      00000000H   SYMBOL    NUMBER   ---       PDATASTART
      00000000H   SYMBOL    NUMBER   ---       PPAGE
      00000000H   SYMBOL    NUMBER   ---       PPAGEENABLE
      000000A0H   SYMBOL    DATA     ---       PPAGE_SFR
      00000081H   SYMBOL    DATA     ---       SP
      0100055CH   SYMBOL    CODE     ---       STARTUP1
      00000000H   SYMBOL    NUMBER   ---       XBPSTACK
      00001000H   SYMBOL    NUMBER   ---       XBPSTACKTOP
      00000000H   SYMBOL    NUMBER   ---       XDATALEN
      00000000H   SYMBOL    NUMBER   ---       XDATASTART
      01000000H   LINE      CODE     ---       #126
      0100055CH   LINE      CODE     ---       #133
      0100055EH   LINE      CODE     ---       #134
      0100055FH   LINE      CODE     ---       #135
      01000560H   LINE      CODE     ---       #136
      01000562H   LINE      CODE     ---       #185
      01000565H   LINE      CODE     ---       #193
      01000568H   LINE      CODE     ---       #196

      ---         MODULE    ---      ---       MAIN
      01000691H   PUBLIC    CODE     ---       main
      01000741H   PUBLIC    CODE     ---       _putchar
      000000C8H.2 SFRSYM    DATA     BIT       TRX
      000000FFH   SFRSYM    DATA     BYTE      OPREG
      00000080H   SFRSYM    DATA     BYTE      P0
      00000090H   SFRSYM    DATA     BYTE      P1
      000000A0H   SFRSYM    DATA     BYTE      P2
      000000A8H.4 SFRSYM    DATA     BIT       EUART
      0000008EH   SFRSYM    DATA     BYTE      TMCON
      000000B0H   SFRSYM    DATA     BYTE      P3
      000000D0H.6 SFRSYM    DATA     BIT       AC
      000000C0H   SFRSYM    DATA     BYTE      P4
      0000008FH   SFRSYM    DATA     BYTE      OTCON
      000000D8H   SFRSYM    DATA     BYTE      P5
      000000A8H.7 SFRSYM    DATA     BIT       EA
      000000C8H.5 SFRSYM    DATA     BIT       RCLKX
      000000D2H   SFRSYM    DATA     BYTE      PWMCON0
      000000C8H.4 SFRSYM    DATA     BIT       TCLKX
      000000D3H   SFRSYM    DATA     BYTE      PWMCON1
      000000C8H.3 SFRSYM    DATA     BIT       EXENX
      000000A8H.6 SFRSYM    DATA     BIT       EADC
      000000C9H   SFRSYM    DATA     BYTE      TXMOD
      000000C8H   SFRSYM    DATA     BYTE      TXCON
      000000A8H   SFRSYM    DATA     BYTE      IE
      00000085H   SFRSYM    DATA     BYTE      DPH1
      000000E9H   SFRSYM    DATA     BYTE      EXA0
      000000FEH   SFRSYM    DATA     BYTE      OPINX
      000000EAH   SFRSYM    DATA     BYTE      EXA1
      000000EBH   SFRSYM    DATA     BYTE      EXA2
      000000ECH   SFRSYM    DATA     BYTE      EXA3
      00000084H   SFRSYM    DATA     BYTE      DPL1
      000000C8H.0 SFRSYM    DATA     BIT       CP
      000000C4H   SFRSYM    DATA     BYTE      USXCON0
      000000C5H   SFRSYM    DATA     BYTE      USXCON1
      000000C6H   SFRSYM    DATA     BYTE      USXCON2
      000000C7H   SFRSYM    DATA     BYTE      USXCON3
      000000EFH   SFRSYM    DATA     BYTE      OPERCON
      0000009BH   SFRSYM    DATA     BYTE      P0PH
LX51 LINKER/LOCATER V4.66.97.0                                                        03/30/2022  10:48:14  PAGE 9


      000000B8H   SFRSYM    DATA     BYTE      IP
      00000092H   SFRSYM    DATA     BYTE      P1PH
      00000098H.0 SFRSYM    DATA     BIT       RI
      000000A2H   SFRSYM    DATA     BYTE      P2PH
      000000D0H.7 SFRSYM    DATA     BIT       CY
      000000B2H   SFRSYM    DATA     BYTE      P3PH
      00000098H.1 SFRSYM    DATA     BIT       TI
      000000CEH   SFRSYM    DATA     BYTE      TXINX
      000000C2H   SFRSYM    DATA     BYTE      P4PH
      000000B8H.1 SFRSYM    DATA     BIT       IPT0
      000000DAH   SFRSYM    DATA     BYTE      P5PH
      000000B8H.3 SFRSYM    DATA     BIT       IPT1
      000000B8H.5 SFRSYM    DATA     BIT       IPT2
      00000081H   SFRSYM    DATA     BYTE      SP
      000000D0H.2 SFRSYM    DATA     BIT       OV
      000000F4H   SFRSYM    DATA     BYTE      IAPADE
      0000009CH   SFRSYM    DATA     BYTE      P0VO
      00000094H   SFRSYM    DATA     BYTE      P1VO
      000000A3H   SFRSYM    DATA     BYTE      P2VO
      000000EEH   SFRSYM    DATA     BYTE      EXBH
      000000F3H   SFRSYM    DATA     BYTE      IAPADH
      000000B3H   SFRSYM    DATA     BYTE      P3VO
      000000ADH   SFRSYM    DATA     BYTE      ADCCON
      000000C8H.1 SFRSYM    DATA     BIT       TX
      000000EDH   SFRSYM    DATA     BYTE      EXBL
      000000F2H   SFRSYM    DATA     BYTE      IAPADL
      00000080H.0 SFRSYM    DATA     BIT       P00
      00000090H.0 SFRSYM    DATA     BIT       P10
      00000080H.1 SFRSYM    DATA     BIT       P01
      00000099H   SFRSYM    DATA     BYTE      SBUF
      00000087H   SFRSYM    DATA     BYTE      PCON
      000000A0H.0 SFRSYM    DATA     BIT       P20
      00000090H.1 SFRSYM    DATA     BIT       P11
      00000080H.2 SFRSYM    DATA     BIT       P02
      000000B6H   SFRSYM    DATA     BYTE      CMPCFG
      000000B0H.0 SFRSYM    DATA     BIT       P30
      000000A0H.1 SFRSYM    DATA     BIT       P21
      00000090H.2 SFRSYM    DATA     BIT       P12
      00000080H.3 SFRSYM    DATA     BIT       P03
      000000C0H.0 SFRSYM    DATA     BIT       P40
      000000B0H.1 SFRSYM    DATA     BIT       P31
      000000A0H.2 SFRSYM    DATA     BIT       P22
      00000090H.3 SFRSYM    DATA     BIT       P13
      00000080H.4 SFRSYM    DATA     BIT       P04
      00000098H   SFRSYM    DATA     BYTE      SCON
      000000D8H.0 SFRSYM    DATA     BIT       P50
      000000C0H.1 SFRSYM    DATA     BIT       P41
      000000B0H.2 SFRSYM    DATA     BIT       P32
      000000A0H.3 SFRSYM    DATA     BIT       P23
      00000090H.4 SFRSYM    DATA     BIT       P14
      00000080H.5 SFRSYM    DATA     BIT       P05
      000000F5H   SFRSYM    DATA     BYTE      IAPDAT
      00000089H   SFRSYM    DATA     BYTE      TMOD
      00000088H   SFRSYM    DATA     BYTE      TCON
      000000D8H.1 SFRSYM    DATA     BIT       P51
      000000C0H.2 SFRSYM    DATA     BIT       P42
      000000B0H.3 SFRSYM    DATA     BIT       P33
      000000A0H.4 SFRSYM    DATA     BIT       P24
      00000090H.5 SFRSYM    DATA     BIT       P15
      00000080H.6 SFRSYM    DATA     BIT       P06
      000000B8H.0 SFRSYM    DATA     BIT       IPINT0
      000000D8H.2 SFRSYM    DATA     BIT       P52
      000000C0H.3 SFRSYM    DATA     BIT       P43
      000000B0H.4 SFRSYM    DATA     BIT       P34
      000000A0H.5 SFRSYM    DATA     BIT       P25
LX51 LINKER/LOCATER V4.66.97.0                                                        03/30/2022  10:48:14  PAGE 10


      00000090H.6 SFRSYM    DATA     BIT       P16
      00000080H.7 SFRSYM    DATA     BIT       P07
      000000B8H.2 SFRSYM    DATA     BIT       IPINT1
      000000D8H.3 SFRSYM    DATA     BIT       P53
      000000C0H.4 SFRSYM    DATA     BIT       P44
      000000B0H.5 SFRSYM    DATA     BIT       P35
      000000A0H.6 SFRSYM    DATA     BIT       P26
      00000090H.7 SFRSYM    DATA     BIT       P17
      000000FDH   SFRSYM    DATA     BYTE      CRCREG
      000000D8H.4 SFRSYM    DATA     BIT       P54
      000000C0H.5 SFRSYM    DATA     BIT       P45
      000000B0H.6 SFRSYM    DATA     BIT       P36
      000000A0H.7 SFRSYM    DATA     BIT       P27
      000000D8H.5 SFRSYM    DATA     BIT       P55
      000000C0H.6 SFRSYM    DATA     BIT       P46
      000000B0H.7 SFRSYM    DATA     BIT       P37
      000000C0H.7 SFRSYM    DATA     BIT       P47
      000000C8H.6 SFRSYM    DATA     BIT       EXFX
      00000093H   SFRSYM    DATA     BYTE      DDRCON
      000000F6H   SFRSYM    DATA     BYTE      IAPCTL
      000000A9H   SFRSYM    DATA     BYTE      IE1
      000000AAH   SFRSYM    DATA     BYTE      IE2
      000000F0H   SFRSYM    DATA     BYTE      B
      000000B7H   SFRSYM    DATA     BYTE      CMPCON
      000000F1H   SFRSYM    DATA     BYTE      IAPKEY
      000000FBH   SFRSYM    DATA     BYTE      BTMCON
      000000D1H   SFRSYM    DATA     BYTE      PWMCFG
      000000E0H   SFRSYM    DATA     BYTE      ACC
      000000CBH   SFRSYM    DATA     BYTE      RCAPXH
      000000A8H.1 SFRSYM    DATA     BIT       ET0
      000000FCH   SFRSYM    DATA     BYTE      CRCINX
      00000088H.5 SFRSYM    DATA     BIT       TF0
      000000A8H.3 SFRSYM    DATA     BIT       ET1
      000000ABH   SFRSYM    DATA     BYTE      ADCCFG0
      000000B9H   SFRSYM    DATA     BYTE      IP1
      00000088H.7 SFRSYM    DATA     BIT       TF1
      000000A8H.5 SFRSYM    DATA     BIT       ET2
      000000ACH   SFRSYM    DATA     BYTE      ADCCFG1
      000000BAH   SFRSYM    DATA     BYTE      IP2
      000000DFH   SFRSYM    DATA     BYTE      ROMBNK
      00000098H.2 SFRSYM    DATA     BIT       RB8
      000000B5H   SFRSYM    DATA     BYTE      ADCCFG2
      000000CAH   SFRSYM    DATA     BYTE      RCAPXL
      0000008CH   SFRSYM    DATA     BYTE      TH0
      0000008DH   SFRSYM    DATA     BYTE      TH1
      00000098H.3 SFRSYM    DATA     BIT       TB8
      000000D0H.0 SFRSYM    DATA     BIT       P
      00000098H.7 SFRSYM    DATA     BIT       SM0
      0000008AH   SFRSYM    DATA     BYTE      TL0
      00000098H.6 SFRSYM    DATA     BIT       SM1
      000000CFH   SFRSYM    DATA     BYTE      WDTCON
      0000008BH   SFRSYM    DATA     BYTE      TL1
      00000098H.5 SFRSYM    DATA     BIT       SM2
      000000D6H   SFRSYM    DATA     BYTE      PWMDFR
      000000D5H   SFRSYM    DATA     BYTE      PWMPDH
      000000D0H.3 SFRSYM    DATA     BIT       RS0
      00000088H.4 SFRSYM    DATA     BIT       TR0
      000000D0H.4 SFRSYM    DATA     BIT       RS1
      000000D4H   SFRSYM    DATA     BYTE      PWMPDL
      00000088H.6 SFRSYM    DATA     BIT       TR1
      000000B8H.4 SFRSYM    DATA     BIT       IPUART
      000000D7H   SFRSYM    DATA     BYTE      PWMFLT
      00000083H   SFRSYM    DATA     BYTE      DPH
      00000082H   SFRSYM    DATA     BYTE      DPL
      000000A8H.0 SFRSYM    DATA     BIT       EINT0
LX51 LINKER/LOCATER V4.66.97.0                                                        03/30/2022  10:48:14  PAGE 11


      0000009AH   SFRSYM    DATA     BYTE      P0CON
      000000A8H.2 SFRSYM    DATA     BIT       EINT1
      000000B8H.6 SFRSYM    DATA     BIT       IPADC
      000000B4H   SFRSYM    DATA     BYTE      INT0F
      00000091H   SFRSYM    DATA     BYTE      P1CON
      000000BCH   SFRSYM    DATA     BYTE      INT1F
      000000A1H   SFRSYM    DATA     BYTE      P2CON
      000000BEH   SFRSYM    DATA     BYTE      INT2F
      000000B1H   SFRSYM    DATA     BYTE      P3CON
      00000098H.4 SFRSYM    DATA     BIT       REN
      000000C1H   SFRSYM    DATA     BYTE      P4CON
      000000D9H   SFRSYM    DATA     BYTE      P5CON
      000000AFH   SFRSYM    DATA     BYTE      ADCVH
      00000086H   SFRSYM    DATA     BYTE      DPS
      00000095H   SFRSYM    DATA     BYTE      US0CON0
      000000A4H   SFRSYM    DATA     BYTE      US1CON0
      0000009DH   SFRSYM    DATA     BYTE      US0CON1
      000000AEH   SFRSYM    DATA     BYTE      ADCVL
      000000F7H   SFRSYM    DATA     BYTE      EXADH
      000000A5H   SFRSYM    DATA     BYTE      US1CON1
      0000009EH   SFRSYM    DATA     BYTE      US0CON2
      000000A6H   SFRSYM    DATA     BYTE      US1CON2
      0000009FH   SFRSYM    DATA     BYTE      US0CON3
      000000A7H   SFRSYM    DATA     BYTE      US1CON3
      000000BBH   SFRSYM    DATA     BYTE      INT0R
      000000BDH   SFRSYM    DATA     BYTE      INT1R
      000000BFH   SFRSYM    DATA     BYTE      INT2R
      000000DCH   SFRSYM    DATA     BYTE      USXINX
      000000C8H.7 SFRSYM    DATA     BIT       TFX
      00000096H   SFRSYM    DATA     BYTE      IOHCON0
      00000097H   SFRSYM    DATA     BYTE      IOHCON1
      000000CDH   SFRSYM    DATA     BYTE      THX
      000000D0H.5 SFRSYM    DATA     BIT       F0
      000000D0H.1 SFRSYM    DATA     BIT       F1
      000000CCH   SFRSYM    DATA     BYTE      TLX
      000000D0H   SFRSYM    DATA     BYTE      PSW

      01000741H   BLOCK     CODE     ---       LVL=0
      00000007H   SYMBOL    DATA     CHAR      c
      01000741H   LINE      CODE     ---       #20
      01000741H   LINE      CODE     ---       #21
      01000741H   LINE      CODE     ---       #22
      01000743H   LINE      CODE     ---       #23
      01000749H   LINE      CODE     ---       #24
      0100074BH   LINE      CODE     ---       #25
      0100074BH   LINE      CODE     ---       #26
      ---         BLOCKEND  ---      ---       LVL=0

      01000691H   BLOCK     CODE     ---       LVL=0
      01000691H   LINE      CODE     ---       #34
      01000691H   LINE      CODE     ---       #35
      01000691H   LINE      CODE     ---       #36
      01000694H   LINE      CODE     ---       #37
      01000697H   LINE      CODE     ---       #38
      01000699H   LINE      CODE     ---       #39
      010006A2H   LINE      CODE     ---       #40
      010006A2H   LINE      CODE     ---       #41
      010006A2H   LINE      CODE     ---       #42
      010006A5H   LINE      CODE     ---       #43
      010006AEH   LINE      CODE     ---       #45
      ---         BLOCKEND  ---      ---       LVL=0

      ---         MODULE    ---      ---       WORK
      02000034H   PUBLIC    XDATA    BYTE      LedShowSelect
      02000033H   PUBLIC    XDATA    BYTE      TimerCount
LX51 LINKER/LOCATER V4.66.97.0                                                        03/30/2022  10:48:14  PAGE 12


      01000753H   PUBLIC    CODE     ---       LedShow0
      0100074CH   PUBLIC    CODE     ---       LedInit
      010006EAH   PUBLIC    CODE     ---       _Delay40ms
      01000716H   PUBLIC    CODE     ---       _Delay
      000000C8H.2 SFRSYM    DATA     BIT       TRX
      000000FFH   SFRSYM    DATA     BYTE      OPREG
      00000080H   SFRSYM    DATA     BYTE      P0
      00000090H   SFRSYM    DATA     BYTE      P1
      000000A0H   SFRSYM    DATA     BYTE      P2
      000000A8H.4 SFRSYM    DATA     BIT       EUART
      0000008EH   SFRSYM    DATA     BYTE      TMCON
      000000B0H   SFRSYM    DATA     BYTE      P3
      000000D0H.6 SFRSYM    DATA     BIT       AC
      000000C0H   SFRSYM    DATA     BYTE      P4
      0000008FH   SFRSYM    DATA     BYTE      OTCON
      000000D8H   SFRSYM    DATA     BYTE      P5
      000000A8H.7 SFRSYM    DATA     BIT       EA
      000000C8H.5 SFRSYM    DATA     BIT       RCLKX
      000000D2H   SFRSYM    DATA     BYTE      PWMCON0
      000000C8H.4 SFRSYM    DATA     BIT       TCLKX
      000000D3H   SFRSYM    DATA     BYTE      PWMCON1
      000000C8H.3 SFRSYM    DATA     BIT       EXENX
      000000A8H.6 SFRSYM    DATA     BIT       EADC
      000000C9H   SFRSYM    DATA     BYTE      TXMOD
      000000C8H   SFRSYM    DATA     BYTE      TXCON
      000000A8H   SFRSYM    DATA     BYTE      IE
      00000085H   SFRSYM    DATA     BYTE      DPH1
      000000E9H   SFRSYM    DATA     BYTE      EXA0
      000000FEH   SFRSYM    DATA     BYTE      OPINX
      000000EAH   SFRSYM    DATA     BYTE      EXA1
      000000EBH   SFRSYM    DATA     BYTE      EXA2
      000000ECH   SFRSYM    DATA     BYTE      EXA3
      00000084H   SFRSYM    DATA     BYTE      DPL1
      000000C8H.0 SFRSYM    DATA     BIT       CP
      000000C4H   SFRSYM    DATA     BYTE      USXCON0
      000000C5H   SFRSYM    DATA     BYTE      USXCON1
      000000C6H   SFRSYM    DATA     BYTE      USXCON2
      000000C7H   SFRSYM    DATA     BYTE      USXCON3
      000000EFH   SFRSYM    DATA     BYTE      OPERCON
      0000009BH   SFRSYM    DATA     BYTE      P0PH
      000000B8H   SFRSYM    DATA     BYTE      IP
      00000092H   SFRSYM    DATA     BYTE      P1PH
      00000098H.0 SFRSYM    DATA     BIT       RI
      000000A2H   SFRSYM    DATA     BYTE      P2PH
      000000D0H.7 SFRSYM    DATA     BIT       CY
      000000B2H   SFRSYM    DATA     BYTE      P3PH
      00000098H.1 SFRSYM    DATA     BIT       TI
      000000CEH   SFRSYM    DATA     BYTE      TXINX
      000000C2H   SFRSYM    DATA     BYTE      P4PH
      000000B8H.1 SFRSYM    DATA     BIT       IPT0
      000000DAH   SFRSYM    DATA     BYTE      P5PH
      000000B8H.3 SFRSYM    DATA     BIT       IPT1
      000000B8H.5 SFRSYM    DATA     BIT       IPT2
      00000081H   SFRSYM    DATA     BYTE      SP
      000000D0H.2 SFRSYM    DATA     BIT       OV
      000000F4H   SFRSYM    DATA     BYTE      IAPADE
      0000009CH   SFRSYM    DATA     BYTE      P0VO
      00000094H   SFRSYM    DATA     BYTE      P1VO
      000000A3H   SFRSYM    DATA     BYTE      P2VO
      000000EEH   SFRSYM    DATA     BYTE      EXBH
      000000F3H   SFRSYM    DATA     BYTE      IAPADH
      000000B3H   SFRSYM    DATA     BYTE      P3VO
      000000ADH   SFRSYM    DATA     BYTE      ADCCON
      000000C8H.1 SFRSYM    DATA     BIT       TX
      000000EDH   SFRSYM    DATA     BYTE      EXBL
LX51 LINKER/LOCATER V4.66.97.0                                                        03/30/2022  10:48:14  PAGE 13


      000000F2H   SFRSYM    DATA     BYTE      IAPADL
      00000080H.0 SFRSYM    DATA     BIT       P00
      00000090H.0 SFRSYM    DATA     BIT       P10
      00000080H.1 SFRSYM    DATA     BIT       P01
      00000099H   SFRSYM    DATA     BYTE      SBUF
      00000087H   SFRSYM    DATA     BYTE      PCON
      000000A0H.0 SFRSYM    DATA     BIT       P20
      00000090H.1 SFRSYM    DATA     BIT       P11
      00000080H.2 SFRSYM    DATA     BIT       P02
      000000B6H   SFRSYM    DATA     BYTE      CMPCFG
      000000B0H.0 SFRSYM    DATA     BIT       P30
      000000A0H.1 SFRSYM    DATA     BIT       P21
      00000090H.2 SFRSYM    DATA     BIT       P12
      00000080H.3 SFRSYM    DATA     BIT       P03
      000000C0H.0 SFRSYM    DATA     BIT       P40
      000000B0H.1 SFRSYM    DATA     BIT       P31
      000000A0H.2 SFRSYM    DATA     BIT       P22
      00000090H.3 SFRSYM    DATA     BIT       P13
      00000080H.4 SFRSYM    DATA     BIT       P04
      00000098H   SFRSYM    DATA     BYTE      SCON
      000000D8H.0 SFRSYM    DATA     BIT       P50
      000000C0H.1 SFRSYM    DATA     BIT       P41
      000000B0H.2 SFRSYM    DATA     BIT       P32
      000000A0H.3 SFRSYM    DATA     BIT       P23
      00000090H.4 SFRSYM    DATA     BIT       P14
      00000080H.5 SFRSYM    DATA     BIT       P05
      000000F5H   SFRSYM    DATA     BYTE      IAPDAT
      00000089H   SFRSYM    DATA     BYTE      TMOD
      00000088H   SFRSYM    DATA     BYTE      TCON
      000000D8H.1 SFRSYM    DATA     BIT       P51
      000000C0H.2 SFRSYM    DATA     BIT       P42
      000000B0H.3 SFRSYM    DATA     BIT       P33
      000000A0H.4 SFRSYM    DATA     BIT       P24
      00000090H.5 SFRSYM    DATA     BIT       P15
      00000080H.6 SFRSYM    DATA     BIT       P06
      000000B8H.0 SFRSYM    DATA     BIT       IPINT0
      000000D8H.2 SFRSYM    DATA     BIT       P52
      000000C0H.3 SFRSYM    DATA     BIT       P43
      000000B0H.4 SFRSYM    DATA     BIT       P34
      000000A0H.5 SFRSYM    DATA     BIT       P25
      00000090H.6 SFRSYM    DATA     BIT       P16
      00000080H.7 SFRSYM    DATA     BIT       P07
      000000B8H.2 SFRSYM    DATA     BIT       IPINT1
      000000D8H.3 SFRSYM    DATA     BIT       P53
      000000C0H.4 SFRSYM    DATA     BIT       P44
      000000B0H.5 SFRSYM    DATA     BIT       P35
      000000A0H.6 SFRSYM    DATA     BIT       P26
      00000090H.7 SFRSYM    DATA     BIT       P17
      000000FDH   SFRSYM    DATA     BYTE      CRCREG
      000000D8H.4 SFRSYM    DATA     BIT       P54
      000000C0H.5 SFRSYM    DATA     BIT       P45
      000000B0H.6 SFRSYM    DATA     BIT       P36
      000000A0H.7 SFRSYM    DATA     BIT       P27
      000000D8H.5 SFRSYM    DATA     BIT       P55
      000000C0H.6 SFRSYM    DATA     BIT       P46
      000000B0H.7 SFRSYM    DATA     BIT       P37
      000000C0H.7 SFRSYM    DATA     BIT       P47
      000000C8H.6 SFRSYM    DATA     BIT       EXFX
      00000093H   SFRSYM    DATA     BYTE      DDRCON
      000000F6H   SFRSYM    DATA     BYTE      IAPCTL
      000000A9H   SFRSYM    DATA     BYTE      IE1
      000000AAH   SFRSYM    DATA     BYTE      IE2
      000000F0H   SFRSYM    DATA     BYTE      B
      000000B7H   SFRSYM    DATA     BYTE      CMPCON
      000000F1H   SFRSYM    DATA     BYTE      IAPKEY
LX51 LINKER/LOCATER V4.66.97.0                                                        03/30/2022  10:48:14  PAGE 14


      000000FBH   SFRSYM    DATA     BYTE      BTMCON
      000000D1H   SFRSYM    DATA     BYTE      PWMCFG
      000000E0H   SFRSYM    DATA     BYTE      ACC
      000000CBH   SFRSYM    DATA     BYTE      RCAPXH
      000000A8H.1 SFRSYM    DATA     BIT       ET0
      000000FCH   SFRSYM    DATA     BYTE      CRCINX
      00000088H.5 SFRSYM    DATA     BIT       TF0
      000000A8H.3 SFRSYM    DATA     BIT       ET1
      000000ABH   SFRSYM    DATA     BYTE      ADCCFG0
      000000B9H   SFRSYM    DATA     BYTE      IP1
      00000088H.7 SFRSYM    DATA     BIT       TF1
      000000A8H.5 SFRSYM    DATA     BIT       ET2
      000000ACH   SFRSYM    DATA     BYTE      ADCCFG1
      000000BAH   SFRSYM    DATA     BYTE      IP2
      000000DFH   SFRSYM    DATA     BYTE      ROMBNK
      00000098H.2 SFRSYM    DATA     BIT       RB8
      000000B5H   SFRSYM    DATA     BYTE      ADCCFG2
      000000CAH   SFRSYM    DATA     BYTE      RCAPXL
      0000008CH   SFRSYM    DATA     BYTE      TH0
      0000008DH   SFRSYM    DATA     BYTE      TH1
      00000098H.3 SFRSYM    DATA     BIT       TB8
      000000D0H.0 SFRSYM    DATA     BIT       P
      00000098H.7 SFRSYM    DATA     BIT       SM0
      0000008AH   SFRSYM    DATA     BYTE      TL0
      00000098H.6 SFRSYM    DATA     BIT       SM1
      000000CFH   SFRSYM    DATA     BYTE      WDTCON
      0000008BH   SFRSYM    DATA     BYTE      TL1
      00000098H.5 SFRSYM    DATA     BIT       SM2
      000000D6H   SFRSYM    DATA     BYTE      PWMDFR
      000000D5H   SFRSYM    DATA     BYTE      PWMPDH
      000000D0H.3 SFRSYM    DATA     BIT       RS0
      00000088H.4 SFRSYM    DATA     BIT       TR0
      000000D0H.4 SFRSYM    DATA     BIT       RS1
      000000D4H   SFRSYM    DATA     BYTE      PWMPDL
      00000088H.6 SFRSYM    DATA     BIT       TR1
      000000B8H.4 SFRSYM    DATA     BIT       IPUART
      000000D7H   SFRSYM    DATA     BYTE      PWMFLT
      00000083H   SFRSYM    DATA     BYTE      DPH
      00000082H   SFRSYM    DATA     BYTE      DPL
      000000A8H.0 SFRSYM    DATA     BIT       EINT0
      0000009AH   SFRSYM    DATA     BYTE      P0CON
      000000A8H.2 SFRSYM    DATA     BIT       EINT1
      000000B8H.6 SFRSYM    DATA     BIT       IPADC
      000000B4H   SFRSYM    DATA     BYTE      INT0F
      00000091H   SFRSYM    DATA     BYTE      P1CON
      000000BCH   SFRSYM    DATA     BYTE      INT1F
      000000A1H   SFRSYM    DATA     BYTE      P2CON
      000000BEH   SFRSYM    DATA     BYTE      INT2F
      000000B1H   SFRSYM    DATA     BYTE      P3CON
      00000098H.4 SFRSYM    DATA     BIT       REN
      000000C1H   SFRSYM    DATA     BYTE      P4CON
      000000D9H   SFRSYM    DATA     BYTE      P5CON
      000000AFH   SFRSYM    DATA     BYTE      ADCVH
      00000086H   SFRSYM    DATA     BYTE      DPS
      00000095H   SFRSYM    DATA     BYTE      US0CON0
      000000A4H   SFRSYM    DATA     BYTE      US1CON0
      0000009DH   SFRSYM    DATA     BYTE      US0CON1
      000000AEH   SFRSYM    DATA     BYTE      ADCVL
      000000F7H   SFRSYM    DATA     BYTE      EXADH
      000000A5H   SFRSYM    DATA     BYTE      US1CON1
      0000009EH   SFRSYM    DATA     BYTE      US0CON2
      000000A6H   SFRSYM    DATA     BYTE      US1CON2
      0000009FH   SFRSYM    DATA     BYTE      US0CON3
      000000A7H   SFRSYM    DATA     BYTE      US1CON3
      000000BBH   SFRSYM    DATA     BYTE      INT0R
LX51 LINKER/LOCATER V4.66.97.0                                                        03/30/2022  10:48:14  PAGE 15


      000000BDH   SFRSYM    DATA     BYTE      INT1R
      000000BFH   SFRSYM    DATA     BYTE      INT2R
      000000DCH   SFRSYM    DATA     BYTE      USXINX
      000000C8H.7 SFRSYM    DATA     BIT       TFX
      00000096H   SFRSYM    DATA     BYTE      IOHCON0
      00000097H   SFRSYM    DATA     BYTE      IOHCON1
      000000CDH   SFRSYM    DATA     BYTE      THX
      000000D0H.5 SFRSYM    DATA     BIT       F0
      000000D0H.1 SFRSYM    DATA     BIT       F1
      000000CCH   SFRSYM    DATA     BYTE      TLX
      000000D0H   SFRSYM    DATA     BYTE      PSW

      01000716H   BLOCK     CODE     ---       LVL=0
      00000006H   SYMBOL    DATA     WORD      timer
      01000716H   LINE      CODE     ---       #23
      01000716H   LINE      CODE     ---       #24
      01000716H   LINE      CODE     ---       #25
      01000726H   LINE      CODE     ---       #26
      ---         BLOCKEND  ---      ---       LVL=0

      010006EAH   BLOCK     CODE     ---       LVL=0
      00000005H   SYMBOL    DATA     BYTE      timer
      010006EAH   LINE      CODE     ---       #34
      010006ECH   LINE      CODE     ---       #35
      010006ECH   LINE      CODE     ---       #36
      010006F6H   LINE      CODE     ---       #37
      010006F6H   LINE      CODE     ---       #38
      010006FDH   LINE      CODE     ---       #39
      01000700H   LINE      CODE     ---       #40
      ---         BLOCKEND  ---      ---       LVL=0

      0100074CH   BLOCK     CODE     ---       LVL=0
      0100074CH   LINE      CODE     ---       #48
      0100074CH   LINE      CODE     ---       #49
      0100074CH   LINE      CODE     ---       #50
      0100074FH   LINE      CODE     ---       #51
      01000752H   LINE      CODE     ---       #52
      ---         BLOCKEND  ---      ---       LVL=0

      01000753H   BLOCK     CODE     ---       LVL=0
      01000753H   LINE      CODE     ---       #60
      01000753H   LINE      CODE     ---       #61
      01000753H   LINE      CODE     ---       #62
      01000755H   LINE      CODE     ---       #63
      ---         BLOCKEND  ---      ---       LVL=0

      ---         MODULE    ---      ---       BOOTLOADERENTRANCE
      0200002DH   PUBLIC    XDATA    ---       UartCMD
      0200002CH   PUBLIC    XDATA    BYTE      IAPCMD
      0200002BH   PUBLIC    XDATA    BYTE      UartSendFlag
      0200002AH   PUBLIC    XDATA    BYTE      UartReceFlag
      02000029H   PUBLIC    XDATA    BYTE      UartReadNumber
      02000028H   PUBLIC    XDATA    BYTE      UartLength
      010006CEH   PUBLIC    CODE     ---       BootloaderCheck
      010005EBH   PUBLIC    CODE     ---       UartReceCMD
      010006B0H   PUBLIC    CODE     ---       _IAP_GoTo
      01000640H   PUBLIC    CODE     ---       UART_Interrupt
      01000701H   PUBLIC    CODE     ---       UartInit
      000000C8H.2 SFRSYM    DATA     BIT       TRX
      000000FFH   SFRSYM    DATA     BYTE      OPREG
      00000080H   SFRSYM    DATA     BYTE      P0
      00000090H   SFRSYM    DATA     BYTE      P1
      000000A0H   SFRSYM    DATA     BYTE      P2
      000000A8H.4 SFRSYM    DATA     BIT       EUART
      0000008EH   SFRSYM    DATA     BYTE      TMCON
LX51 LINKER/LOCATER V4.66.97.0                                                        03/30/2022  10:48:14  PAGE 16


      000000B0H   SFRSYM    DATA     BYTE      P3
      000000D0H.6 SFRSYM    DATA     BIT       AC
      000000C0H   SFRSYM    DATA     BYTE      P4
      0000008FH   SFRSYM    DATA     BYTE      OTCON
      000000D8H   SFRSYM    DATA     BYTE      P5
      000000A8H.7 SFRSYM    DATA     BIT       EA
      000000C8H.5 SFRSYM    DATA     BIT       RCLKX
      000000D2H   SFRSYM    DATA     BYTE      PWMCON0
      000000C8H.4 SFRSYM    DATA     BIT       TCLKX
      000000D3H   SFRSYM    DATA     BYTE      PWMCON1
      000000C8H.3 SFRSYM    DATA     BIT       EXENX
      000000A8H.6 SFRSYM    DATA     BIT       EADC
      000000C9H   SFRSYM    DATA     BYTE      TXMOD
      000000C8H   SFRSYM    DATA     BYTE      TXCON
      000000A8H   SFRSYM    DATA     BYTE      IE
      00000085H   SFRSYM    DATA     BYTE      DPH1
      000000E9H   SFRSYM    DATA     BYTE      EXA0
      000000FEH   SFRSYM    DATA     BYTE      OPINX
      000000EAH   SFRSYM    DATA     BYTE      EXA1
      000000EBH   SFRSYM    DATA     BYTE      EXA2
      000000ECH   SFRSYM    DATA     BYTE      EXA3
      00000084H   SFRSYM    DATA     BYTE      DPL1
      000000C8H.0 SFRSYM    DATA     BIT       CP
      000000C4H   SFRSYM    DATA     BYTE      USXCON0
      000000C5H   SFRSYM    DATA     BYTE      USXCON1
      000000C6H   SFRSYM    DATA     BYTE      USXCON2
      000000C7H   SFRSYM    DATA     BYTE      USXCON3
      000000EFH   SFRSYM    DATA     BYTE      OPERCON
      0000009BH   SFRSYM    DATA     BYTE      P0PH
      000000B8H   SFRSYM    DATA     BYTE      IP
      00000092H   SFRSYM    DATA     BYTE      P1PH
      00000098H.0 SFRSYM    DATA     BIT       RI
      000000A2H   SFRSYM    DATA     BYTE      P2PH
      000000D0H.7 SFRSYM    DATA     BIT       CY
      000000B2H   SFRSYM    DATA     BYTE      P3PH
      00000098H.1 SFRSYM    DATA     BIT       TI
      000000CEH   SFRSYM    DATA     BYTE      TXINX
      000000C2H   SFRSYM    DATA     BYTE      P4PH
      000000B8H.1 SFRSYM    DATA     BIT       IPT0
      000000DAH   SFRSYM    DATA     BYTE      P5PH
      000000B8H.3 SFRSYM    DATA     BIT       IPT1
      000000B8H.5 SFRSYM    DATA     BIT       IPT2
      00000081H   SFRSYM    DATA     BYTE      SP
      000000D0H.2 SFRSYM    DATA     BIT       OV
      000000F4H   SFRSYM    DATA     BYTE      IAPADE
      0000009CH   SFRSYM    DATA     BYTE      P0VO
      00000094H   SFRSYM    DATA     BYTE      P1VO
      000000A3H   SFRSYM    DATA     BYTE      P2VO
      000000EEH   SFRSYM    DATA     BYTE      EXBH
      000000F3H   SFRSYM    DATA     BYTE      IAPADH
      000000B3H   SFRSYM    DATA     BYTE      P3VO
      000000ADH   SFRSYM    DATA     BYTE      ADCCON
      000000C8H.1 SFRSYM    DATA     BIT       TX
      000000EDH   SFRSYM    DATA     BYTE      EXBL
      000000F2H   SFRSYM    DATA     BYTE      IAPADL
      00000080H.0 SFRSYM    DATA     BIT       P00
      00000090H.0 SFRSYM    DATA     BIT       P10
      00000080H.1 SFRSYM    DATA     BIT       P01
      00000099H   SFRSYM    DATA     BYTE      SBUF
      00000087H   SFRSYM    DATA     BYTE      PCON
      000000A0H.0 SFRSYM    DATA     BIT       P20
      00000090H.1 SFRSYM    DATA     BIT       P11
      00000080H.2 SFRSYM    DATA     BIT       P02
      000000B6H   SFRSYM    DATA     BYTE      CMPCFG
      000000B0H.0 SFRSYM    DATA     BIT       P30
LX51 LINKER/LOCATER V4.66.97.0                                                        03/30/2022  10:48:14  PAGE 17


      000000A0H.1 SFRSYM    DATA     BIT       P21
      00000090H.2 SFRSYM    DATA     BIT       P12
      00000080H.3 SFRSYM    DATA     BIT       P03
      000000C0H.0 SFRSYM    DATA     BIT       P40
      000000B0H.1 SFRSYM    DATA     BIT       P31
      000000A0H.2 SFRSYM    DATA     BIT       P22
      00000090H.3 SFRSYM    DATA     BIT       P13
      00000080H.4 SFRSYM    DATA     BIT       P04
      00000098H   SFRSYM    DATA     BYTE      SCON
      000000D8H.0 SFRSYM    DATA     BIT       P50
      000000C0H.1 SFRSYM    DATA     BIT       P41
      000000B0H.2 SFRSYM    DATA     BIT       P32
      000000A0H.3 SFRSYM    DATA     BIT       P23
      00000090H.4 SFRSYM    DATA     BIT       P14
      00000080H.5 SFRSYM    DATA     BIT       P05
      000000F5H   SFRSYM    DATA     BYTE      IAPDAT
      00000089H   SFRSYM    DATA     BYTE      TMOD
      00000088H   SFRSYM    DATA     BYTE      TCON
      000000D8H.1 SFRSYM    DATA     BIT       P51
      000000C0H.2 SFRSYM    DATA     BIT       P42
      000000B0H.3 SFRSYM    DATA     BIT       P33
      000000A0H.4 SFRSYM    DATA     BIT       P24
      00000090H.5 SFRSYM    DATA     BIT       P15
      00000080H.6 SFRSYM    DATA     BIT       P06
      000000B8H.0 SFRSYM    DATA     BIT       IPINT0
      000000D8H.2 SFRSYM    DATA     BIT       P52
      000000C0H.3 SFRSYM    DATA     BIT       P43
      000000B0H.4 SFRSYM    DATA     BIT       P34
      000000A0H.5 SFRSYM    DATA     BIT       P25
      00000090H.6 SFRSYM    DATA     BIT       P16
      00000080H.7 SFRSYM    DATA     BIT       P07
      000000B8H.2 SFRSYM    DATA     BIT       IPINT1
      000000D8H.3 SFRSYM    DATA     BIT       P53
      000000C0H.4 SFRSYM    DATA     BIT       P44
      000000B0H.5 SFRSYM    DATA     BIT       P35
      000000A0H.6 SFRSYM    DATA     BIT       P26
      00000090H.7 SFRSYM    DATA     BIT       P17
      000000FDH   SFRSYM    DATA     BYTE      CRCREG
      000000D8H.4 SFRSYM    DATA     BIT       P54
      000000C0H.5 SFRSYM    DATA     BIT       P45
      000000B0H.6 SFRSYM    DATA     BIT       P36
      000000A0H.7 SFRSYM    DATA     BIT       P27
      000000D8H.5 SFRSYM    DATA     BIT       P55
      000000C0H.6 SFRSYM    DATA     BIT       P46
      000000B0H.7 SFRSYM    DATA     BIT       P37
      000000C0H.7 SFRSYM    DATA     BIT       P47
      000000C8H.6 SFRSYM    DATA     BIT       EXFX
      00000093H   SFRSYM    DATA     BYTE      DDRCON
      000000F6H   SFRSYM    DATA     BYTE      IAPCTL
      000000A9H   SFRSYM    DATA     BYTE      IE1
      000000AAH   SFRSYM    DATA     BYTE      IE2
      000000F0H   SFRSYM    DATA     BYTE      B
      000000B7H   SFRSYM    DATA     BYTE      CMPCON
      000000F1H   SFRSYM    DATA     BYTE      IAPKEY
      000000FBH   SFRSYM    DATA     BYTE      BTMCON
      000000D1H   SFRSYM    DATA     BYTE      PWMCFG
      000000E0H   SFRSYM    DATA     BYTE      ACC
      000000CBH   SFRSYM    DATA     BYTE      RCAPXH
      000000A8H.1 SFRSYM    DATA     BIT       ET0
      000000FCH   SFRSYM    DATA     BYTE      CRCINX
      00000088H.5 SFRSYM    DATA     BIT       TF0
      000000A8H.3 SFRSYM    DATA     BIT       ET1
      000000ABH   SFRSYM    DATA     BYTE      ADCCFG0
      000000B9H   SFRSYM    DATA     BYTE      IP1
      00000088H.7 SFRSYM    DATA     BIT       TF1
LX51 LINKER/LOCATER V4.66.97.0                                                        03/30/2022  10:48:14  PAGE 18


      000000A8H.5 SFRSYM    DATA     BIT       ET2
      000000ACH   SFRSYM    DATA     BYTE      ADCCFG1
      000000BAH   SFRSYM    DATA     BYTE      IP2
      000000DFH   SFRSYM    DATA     BYTE      ROMBNK
      00000098H.2 SFRSYM    DATA     BIT       RB8
      000000B5H   SFRSYM    DATA     BYTE      ADCCFG2
      000000CAH   SFRSYM    DATA     BYTE      RCAPXL
      0000008CH   SFRSYM    DATA     BYTE      TH0
      0000008DH   SFRSYM    DATA     BYTE      TH1
      00000098H.3 SFRSYM    DATA     BIT       TB8
      000000D0H.0 SFRSYM    DATA     BIT       P
      00000098H.7 SFRSYM    DATA     BIT       SM0
      0000008AH   SFRSYM    DATA     BYTE      TL0
      00000098H.6 SFRSYM    DATA     BIT       SM1
      000000CFH   SFRSYM    DATA     BYTE      WDTCON
      0000008BH   SFRSYM    DATA     BYTE      TL1
      00000098H.5 SFRSYM    DATA     BIT       SM2
      000000D6H   SFRSYM    DATA     BYTE      PWMDFR
      000000D5H   SFRSYM    DATA     BYTE      PWMPDH
      000000D0H.3 SFRSYM    DATA     BIT       RS0
      00000088H.4 SFRSYM    DATA     BIT       TR0
      000000D0H.4 SFRSYM    DATA     BIT       RS1
      000000D4H   SFRSYM    DATA     BYTE      PWMPDL
      00000088H.6 SFRSYM    DATA     BIT       TR1
      000000B8H.4 SFRSYM    DATA     BIT       IPUART
      000000D7H   SFRSYM    DATA     BYTE      PWMFLT
      00000083H   SFRSYM    DATA     BYTE      DPH
      00000082H   SFRSYM    DATA     BYTE      DPL
      000000A8H.0 SFRSYM    DATA     BIT       EINT0
      0000009AH   SFRSYM    DATA     BYTE      P0CON
      000000A8H.2 SFRSYM    DATA     BIT       EINT1
      000000B8H.6 SFRSYM    DATA     BIT       IPADC
      000000B4H   SFRSYM    DATA     BYTE      INT0F
      00000091H   SFRSYM    DATA     BYTE      P1CON
      000000BCH   SFRSYM    DATA     BYTE      INT1F
      000000A1H   SFRSYM    DATA     BYTE      P2CON
      000000BEH   SFRSYM    DATA     BYTE      INT2F
      000000B1H   SFRSYM    DATA     BYTE      P3CON
      00000098H.4 SFRSYM    DATA     BIT       REN
      000000C1H   SFRSYM    DATA     BYTE      P4CON
      000000D9H   SFRSYM    DATA     BYTE      P5CON
      000000AFH   SFRSYM    DATA     BYTE      ADCVH
      00000086H   SFRSYM    DATA     BYTE      DPS
      00000095H   SFRSYM    DATA     BYTE      US0CON0
      000000A4H   SFRSYM    DATA     BYTE      US1CON0
      0000009DH   SFRSYM    DATA     BYTE      US0CON1
      000000AEH   SFRSYM    DATA     BYTE      ADCVL
      000000F7H   SFRSYM    DATA     BYTE      EXADH
      000000A5H   SFRSYM    DATA     BYTE      US1CON1
      0000009EH   SFRSYM    DATA     BYTE      US0CON2
      000000A6H   SFRSYM    DATA     BYTE      US1CON2
      0000009FH   SFRSYM    DATA     BYTE      US0CON3
      000000A7H   SFRSYM    DATA     BYTE      US1CON3
      000000BBH   SFRSYM    DATA     BYTE      INT0R
      000000BDH   SFRSYM    DATA     BYTE      INT1R
      000000BFH   SFRSYM    DATA     BYTE      INT2R
      000000DCH   SFRSYM    DATA     BYTE      USXINX
      000000C8H.7 SFRSYM    DATA     BIT       TFX
      00000096H   SFRSYM    DATA     BYTE      IOHCON0
      00000097H   SFRSYM    DATA     BYTE      IOHCON1
      000000CDH   SFRSYM    DATA     BYTE      THX
      000000D0H.5 SFRSYM    DATA     BIT       F0
      000000D0H.1 SFRSYM    DATA     BIT       F1
      000000CCH   SFRSYM    DATA     BYTE      TLX
      000000D0H   SFRSYM    DATA     BYTE      PSW
LX51 LINKER/LOCATER V4.66.97.0                                                        03/30/2022  10:48:14  PAGE 19



      01000701H   BLOCK     CODE     ---       LVL=0
      01000701H   LINE      CODE     ---       #30
      01000701H   LINE      CODE     ---       #31
      01000701H   LINE      CODE     ---       #43
      01000704H   LINE      CODE     ---       #44
      01000707H   LINE      CODE     ---       #45
      0100070AH   LINE      CODE     ---       #46
      0100070DH   LINE      CODE     ---       #47
      01000710H   LINE      CODE     ---       #80
      01000713H   LINE      CODE     ---       #81
      01000715H   LINE      CODE     ---       #82
      ---         BLOCKEND  ---      ---       LVL=0

      01000640H   BLOCK     CODE     ---       LVL=0
      01000640H   LINE      CODE     ---       #90
      0100065DH   LINE      CODE     ---       #92
      01000662H   LINE      CODE     ---       #93
      01000662H   LINE      CODE     ---       #94
      01000665H   LINE      CODE     ---       #95
      0100066BH   LINE      CODE     ---       #96
      0100066BH   LINE      CODE     ---       #97
      01000670H   LINE      CODE     ---       #98
      01000670H   LINE      CODE     ---       #99
      01000673H   LINE      CODE     ---       #100
      01000676H   LINE      CODE     ---       #101
      01000676H   LINE      CODE     ---       #102
      ---         BLOCKEND  ---      ---       LVL=0

      010006B0H   BLOCK     CODE     ---       LVL=0
      00000007H   SYMBOL    DATA     BYTE      mode
      010006B0H   LINE      CODE     ---       #110
      010006B0H   LINE      CODE     ---       #111
      010006B0H   LINE      CODE     ---       #112
      010006B3H   LINE      CODE     ---       #113
      010006B6H   LINE      CODE     ---       #114
      010006B9H   LINE      CODE     ---       #115
      010006B9H   LINE      CODE     ---       #116
      010006BCH   LINE      CODE     ---       #117
      010006BEH   LINE      CODE     ---       #119
      010006C1H   LINE      CODE     ---       #121
      010006C1H   LINE      CODE     ---       #122
      010006C4H   LINE      CODE     ---       #123
      010006C5H   LINE      CODE     ---       #124
      010006C6H   LINE      CODE     ---       #125
      010006C7H   LINE      CODE     ---       #126
      010006C8H   LINE      CODE     ---       #127
      010006C9H   LINE      CODE     ---       #128
      010006CAH   LINE      CODE     ---       #129
      010006CBH   LINE      CODE     ---       #130
      010006CCH   LINE      CODE     ---       #131
      010006CDH   LINE      CODE     ---       #132
      ---         BLOCKEND  ---      ---       LVL=0

      010005EBH   BLOCK     CODE     ---       LVL=0
      010005EBH   LINE      CODE     ---       #140
      010005EBH   LINE      CODE     ---       #141
      010005EBH   LINE      CODE     ---       #142
      010005FCH   LINE      CODE     ---       #143
      01000601H   LINE      CODE     ---       #144
      01000619H   LINE      CODE     ---       #145
      01000619H   LINE      CODE     ---       #146
      01000621H   LINE      CODE     ---       #147
      01000626H   LINE      CODE     ---       #148
      0100062AH   LINE      CODE     ---       #149
LX51 LINKER/LOCATER V4.66.97.0                                                        03/30/2022  10:48:14  PAGE 20


      0100062CH   LINE      CODE     ---       #150
      0100062EH   LINE      CODE     ---       #151
      01000631H   LINE      CODE     ---       #152
      01000631H   LINE      CODE     ---       #153
      01000637H   LINE      CODE     ---       #154
      01000637H   LINE      CODE     ---       #155
      0100063DH   LINE      CODE     ---       #156
      0100063DH   LINE      CODE     ---       #157
      0100063FH   LINE      CODE     ---       #158
      ---         BLOCKEND  ---      ---       LVL=0

      010006CEH   BLOCK     CODE     ---       LVL=0
      010006CEH   LINE      CODE     ---       #166
      010006CEH   LINE      CODE     ---       #167
      010006CEH   LINE      CODE     ---       #168
      010006D4H   LINE      CODE     ---       #169
      010006D7H   LINE      CODE     ---       #170
      010006DFH   LINE      CODE     ---       #171
      010006DFH   LINE      CODE     ---       #172
      010006E2H   LINE      CODE     ---       #173
      010006E5H   LINE      CODE     ---       #174
      010006E9H   LINE      CODE     ---       #175
      010006E9H   LINE      CODE     ---       #176
      ---         BLOCKEND  ---      ---       LVL=0

      ---         MODULE    ---      ---       ?C_INIT
      010005A6H   PUBLIC    CODE     ---       ?C_START

      ---         MODULE    ---      ---       PRINTF
      02000000H   PUBLIC    XDATA    ---       ?_PRINTF517?BYTE
      02000000H   PUBLIC    XDATA    ---       ?_PRINTF?BYTE
      02000000H   PUBLIC    XDATA    ---       ?_SPRINTF517?BYTE
      02000000H   PUBLIC    XDATA    ---       ?_SPRINTF?BYTE
      010001C4H   PUBLIC    CODE     ---       _PRINTF
      010001C4H   PUBLIC    CODE     ---       _PRINTF517
      010001BEH   PUBLIC    CODE     ---       _SPRINTF
      010001BEH   PUBLIC    CODE     ---       _SPRINTF517

      ---         MODULE    ---      ---       ?C?CLDPTR
      010004BEH   PUBLIC    CODE     ---       ?C?CLDPTR

      ---         MODULE    ---      ---       ?C?CLDOPTR
      010004D7H   PUBLIC    CODE     ---       ?C?CLDOPTR

      ---         MODULE    ---      ---       ?C?CSTPTR
      01000504H   PUBLIC    CODE     ---       ?C?CSTPTR

      ---         MODULE    ---      ---       ?C?PLDIXDATA
      01000516H   PUBLIC    CODE     ---       ?C?PLDIXDATA

      ---         MODULE    ---      ---       ?C?PSTXDATA
      0100052DH   PUBLIC    CODE     ---       ?C?PSTXDATA

      ---         MODULE    ---      ---       ?C?CCASE
      01000536H   PUBLIC    CODE     ---       ?C?CCASE

Program Size: data=16.1 xdata=53 const=47 code=1632
LX51 RUN COMPLETE.  0 WARNING(S),  0 ERROR(S)
