C51 COMPILER V9.00   ADC                                                                   10/28/2019 16:46:03 PAGE 1   


C51 COMPILER V9.00, COMPILATION OF MODULE ADC
OBJECT MODULE PLACED IN ..\OUTPUT\ADC.obj
COMPILER INVOKED BY: C:\Keil\C51\BIN\C51.EXE ..\USER\C\ADC.C BROWSE INCDIR(..\..\..\SC95F861x_lib\inc;..\USER\H) DEBUG O
                    -BJECTEXTEND PRINT(..\LST\ADC.lst) OBJECT(..\OUTPUT\ADC.obj)

line level    source

   1          //************************************************************
   2          //  Copyright (c) 深圳市赛元微电子有限公司
   3          //      文件名称        : ADC.c
   4          //      作者            : 
   5          //      模块功能        : ADC测温
   6          //      局部函数列表:
   7          //  最后更正日期:
   8          //      版本            : V1.0
   9          //*************************************************************
  10          #include "ADC.H"
  11          #include "sc95f861x_adc.h"
  12          
  13          //-15~84度和ADC值的关系表
  14          uint16_t code ADCValueToTemp[100] =                     
  15          {
  16          248     ,       262     ,       277     ,       293     ,       310     ,       327     ,       345     ,       364     ,       384     ,       404 ,
  17          425     ,       447     ,       470     ,       494     ,       518     ,       543     ,       570     ,       597     ,       624     ,       653 ,
  18          683     ,       713     ,       744     ,       776     ,       809     ,       842     ,       877     ,       912     ,       948     ,       984 ,
  19          1022    ,       1060    ,       1098    ,       1137    ,       1177    ,       1217    ,       1258    ,       1299    ,       1341    ,       1383, 
  20          1425    ,       1468    ,       1511    ,       1554    ,       1598    ,       1641    ,       1685    ,       1729    ,       1772    ,       1816, 
  21          1860    ,       1903    ,       1946    ,       1990    ,       2033    ,       2075    ,       2117    ,       2159    ,       2201    ,       2243, 
  22          2283    ,       2324    ,       2364    ,       2403    ,       2442    ,       2481    ,       2519    ,       2556    ,       2593    ,       2629, 
  23          2664    ,       2699    ,       2734    ,       2767    ,       2800    ,       2833    ,       2864    ,       2895    ,       2926    ,       2956, 
  24          2985    ,       3013    ,       3041    ,       3069    ,       3095    ,       3121    ,       3147    ,       3172    ,       3195    ,       3219, 
  25          3242    ,       3265    ,       3286    ,       3308    ,       3328    ,       3348    ,       3368    ,       3388    ,       3406    ,       3424,                                                                                                   
  26          };
  27                                                    
  28          int TEMP = 0;                                 //温度值
  29          uint8_t i,j;
  30          uint8_t ADC_High,ADC_Low;             //温度值的十位，个位
  31          uint16_t  value_max = 0,value_min = 5000;
  32          uint16_t ADC_Value, ADC_ValueSum; //ADC转换值，ADC转换值和
  33          
  34          extern uint8_t LedDataTab[4];    //数码管编码表 下标数据
  35          
  36          /**************************************************
  37          *函数名称：void ADCInit(void)
  38          *函数功能：ADC初始化
  39          *入口参数：void
  40          *出口参数：void
  41          *功能说明：使能ADC通道14，参考电压为VDD
  42          **************************************************/
  43          void ADCInit(void)
  44          {
  45   1              ADC_Init(ADC_Cycle_32Cycle);
  46   1              ADC_ChannelConfig(ADC_CHANNEL_14, ENABLE);
  47   1              ADC_Cmd(ENABLE);
  48   1              ADC_VrefConfig(ADC_VREF_VDD);   
  49   1      }
  50          
  51          /**************************************************
  52          *函数名称：void GetADCValue(void)
  53          *函数功能：得到温度值在数组ADCValueToTemp[]的下标值
  54          *入口参数：void
C51 COMPILER V9.00   ADC                                                                   10/28/2019 16:46:03 PAGE 2   

  55          *出口参数：void
  56          *功能说明：每个下标值测十次，去掉最高最低值求平均值
  57          **************************************************/
  58          void GetADCValue(void)
  59          {
  60   1              ADC_ValueSum = 0;               //测十次，去掉最高最低值
  61   1              for(i=0;i<10;i++)
  62   1              {
  63   2                      ADC_StartConversion();                    //开始一次ADC转换
  64   2                      while(!ADC_GetFlagStatus());      //转换完成，等待标志位置1
  65   2                      ADC_ClearFlag();
  66   2                      ADC_Value = ADC_GetConversionValue(); //得到ADC转换值
  67   2                                 
  68   2                      if(ADC_Value >= value_max)  value_max = ADC_Value;
  69   2                      if(ADC_Value <= value_min)  value_min = ADC_Value; 
  70   2                      ADC_ValueSum = ADC_ValueSum + ADC_Value;
  71   2              }
  72   1              ADC_Value = (ADC_ValueSum-value_max-value_min)/8;         //转换值平均值
  73   1              value_min = 5000;   value_max = 0;                              
  74   1      }
  75          
  76          /**************************************************
  77          *函数名称：void GetTemperature(void)
  78          *函数功能：将温度对应的下标值转为温度值
  79          *入口参数：void
  80          *出口参数：void
  81          *功能说明：
  82          **************************************************/
  83          void GetTemperature(void)
  84          {
  85   1              for(j=0;j<100;j++)
  86   1              {
  87   2                      if((ADC_Value >= ADCValueToTemp[j]) && (ADC_Value < ADCValueToTemp[j+1]))
  88   2                      {                                                                                                                       
  89   3                              TEMP = j;                  //得转换值对应数组下标
  90   3                              break;
  91   3                      }                                                        
  92   2              }
  93   1              if(TEMP < 15)
  94   1              {
  95   2                      LedDataTab[0] = 18;        //负温度显示‘-’
  96   2                      TEMP = 15 - TEMP;          //温度值
  97   2              }
  98   1              else
  99   1              {
 100   2                      LedDataTab[0]= 16;         //正温度不显示+
 101   2                      TEMP = TEMP - 15; 
 102   2              }
 103   1              
 104   1              ADC_High = TEMP / 10;
 105   1              ADC_Low  = TEMP % 10;
 106   1              LedDataTab[1]= ADC_High;                                
 107   1              LedDataTab[2]= ADC_Low;
 108   1      }
 109          
 110          


MODULE INFORMATION:   STATIC OVERLAYABLE
   CODE SIZE        =    295    ----
   CONSTANT SIZE    =    200    ----
   XDATA SIZE       =   ----    ----
C51 COMPILER V9.00   ADC                                                                   10/28/2019 16:46:03 PAGE 3   

   PDATA SIZE       =   ----    ----
   DATA SIZE        =     14    ----
   IDATA SIZE       =   ----    ----
   BIT SIZE         =   ----    ----
END OF MODULE INFORMATION.


C51 COMPILATION COMPLETE.  0 WARNING(S),  0 ERROR(S)
