:10000000020093C0E0C0D075D000C007A2DEE43388
:10001000540125E025E0FFE50A54FB4FF50AC2DE56
:10002000E59C540164017003539CFEAF0AEF131367
:10003000543F1392DED007D0D0D0E03275DE9F75EA
:10004000DF4F43DD8053DDF853DDF743DD1043A977
:0200500010227C
:03005300020003A5
:10005B0002005EC0E0C0D075D000C007A2DEE43362
:10006B00540133333354F8FFE50A54F74FF50AC202
:10007B00DE53DDDFB280AF0AEF131313541F13925D
:10008B00DED007D0D0D0E03278FFE4F6D8FD900078
:10009B00007F007E01E4F0A3DFFCDEFA75810A022B
:1000AB0000ADC2AF1200D212003CD2AF7F647E0013
:1000BB001200C080FED3EF9400EE9400400800EFD6
:1000CB001F70F21E80EF2275C10575915575925503
:0900DB0075A15575A255D29522BC
:00000001FF
