C51 COMPILER V9.60.0.0   MULTIPLICATION_DIVISION                                           12/22/2021 11:26:37 PAGE 1   


C51 COMPILER V9.60.0.0, COMPILATION OF MODULE MULTIPLICATION_DIVISION
OBJECT MODULE PLACED IN ..\Objects\Multiplication_Division.obj
COMPILER INVOKED BY: D:\Keil_v5\C51\BIN\C51.EXE ..\C\Multiplication_Division.c LARGE OMF2 OPTIMIZE(8,SPEED) BROWSE INCDI
                    -R(..\H;..\SC95F_Lib\inc) DEFINE(SC95F8x3x) DEBUG PRINT(..\Listings\Multiplication_Division.lst) TABS(2) OBJECT(..\Object
                    -s\Multiplication_Division.obj)

line level    source

   1          #include "H/Function_Init.H"
*** WARNING C318 IN LINE 1 OF ..\C\Multiplication_Division.c: can't open file 'H/Function_Init.H'
   2          
   3          unsigned long product = 0;//乘积
   4          unsigned long quotient = 0;//商
   5          unsigned int remainder = 0;//余数
   6          
   7          typedef struct      
   8          {
   9            unsigned char MDU_EXA3Reg;   //EXA3寄存器
  10            unsigned char MDU_EXA2Reg;   //EXA2寄存器
  11            unsigned char MDU_EXA1Reg;   //EXA1寄存器
  12            unsigned char MDU_EXA0Reg;   //EXA0寄存器
  13          } MDU_EXAxReg_Typedef;  
  14          
  15          typedef union
  16          {
  17            MDU_EXAxReg_Typedef MDU_EXAxReg;
  18            unsigned long MDU_Temp;
  19          } MDU_Temp_Union;     
  20          //Result_union result;
  21          
  22          void Multiplication(unsigned int faciend, unsigned int Multiplier);
  23          void Division(unsigned long dividend,unsigned int divisor);
  24          
  25          void  Multiplier_Divider_Test()
  26          {
  27   1        while(1)
  28   1        {
  29   2          Multiplication(15,16);
  30   2          if(product == 240)
  31   2          {
  32   3            P03 = ~P03;
*** ERROR C202 IN LINE 32 OF ..\C\Multiplication_Division.c: 'P03': undefined identifier
  33   3          }
  34   2          Division(16,5);
  35   2          if((quotient == 3) && (remainder == 1))
  36   2          {
  37   3            P04 = ~P04;
*** ERROR C202 IN LINE 37 OF ..\C\Multiplication_Division.c: 'P04': undefined identifier
  38   3          }
  39   2        }
  40   1        
  41   1      }
  42          
  43          
  44          /****************************************************
  45          *函数名称：Multiplication(unsigned int faciend, unsigned int Multiplier)
  46          *函数功能：乘法运算
  47          *入口参数：faciend，Multiplier
  48          *出口参数：无
  49          ****************************************************/
  50          void Multiplication(unsigned int faciend, unsigned int Multiplier)
C51 COMPILER V9.60.0.0   MULTIPLICATION_DIVISION                                           12/22/2021 11:26:37 PAGE 2   

  51          {
  52   1        MDU_Temp_Union MDU_ProductTemp;
  53   1          OPERCON &= ~0x40;   //选择乘法
*** ERROR C202 IN LINE 53 OF ..\C\Multiplication_Division.c: 'OPERCON': undefined identifier
  54   1          
  55   1        EXA0 = faciend;
*** ERROR C202 IN LINE 55 OF ..\C\Multiplication_Division.c: 'EXA0': undefined identifier
  56   1        EXA1 = faciend>>8;
*** ERROR C202 IN LINE 56 OF ..\C\Multiplication_Division.c: 'EXA1': undefined identifier
  57   1        EXBL = Multiplier;
*** ERROR C202 IN LINE 57 OF ..\C\Multiplication_Division.c: 'EXBL': undefined identifier
  58   1        EXBH = Multiplier>>8;
*** ERROR C202 IN LINE 58 OF ..\C\Multiplication_Division.c: 'EXBH': undefined identifier
  59   1      
  60   1        OPERCON |= 0x80;      //开始计算
*** ERROR C202 IN LINE 60 OF ..\C\Multiplication_Division.c: 'OPERCON': undefined identifier
  61   1        while(OPERCON & 0x80);      //等待计算完成
*** ERROR C202 IN LINE 61 OF ..\C\Multiplication_Division.c: 'OPERCON': undefined identifier
  62   1      
  63   1        MDU_ProductTemp.MDU_EXAxReg.MDU_EXA0Reg = EXA0;
*** ERROR C202 IN LINE 63 OF ..\C\Multiplication_Division.c: 'EXA0': undefined identifier
  64   1        MDU_ProductTemp.MDU_EXAxReg.MDU_EXA1Reg = EXA1;
*** ERROR C202 IN LINE 64 OF ..\C\Multiplication_Division.c: 'EXA1': undefined identifier
  65   1        MDU_ProductTemp.MDU_EXAxReg.MDU_EXA2Reg = EXA2;
*** ERROR C202 IN LINE 65 OF ..\C\Multiplication_Division.c: 'EXA2': undefined identifier
  66   1        MDU_ProductTemp.MDU_EXAxReg.MDU_EXA3Reg = EXA3;
*** ERROR C202 IN LINE 66 OF ..\C\Multiplication_Division.c: 'EXA3': undefined identifier
  67   1        
  68   1        product =  MDU_ProductTemp.MDU_Temp;      //获取乘积
  69   1      } 
  70          
  71          /****************************************************
  72          *函数名称：Division(unsigned long dividend,unsigned int divisor)
  73          *函数功能：除法运算
  74          *入口参数：dividend，divisor
  75          *出口参数：无
  76          ****************************************************/
  77          void Division(unsigned long dividend,unsigned int divisor)
  78          {
  79   1        MDU_Temp_Union MDU_ProductTemp;
  80   1        MDU_ProductTemp.MDU_Temp = dividend;
  81   1      
  82   1        OPERCON &= ~0x40;
*** ERROR C202 IN LINE 82 OF ..\C\Multiplication_Division.c: 'OPERCON': undefined identifier
  83   1        OPERCON |= 0x40;    //选择除法
*** ERROR C202 IN LINE 83 OF ..\C\Multiplication_Division.c: 'OPERCON': undefined identifier
  84   1        
  85   1        EXA0 = MDU_ProductTemp.MDU_EXAxReg.MDU_EXA0Reg;     //输入除数
*** ERROR C202 IN LINE 85 OF ..\C\Multiplication_Division.c: 'EXA0': undefined identifier
  86   1        EXA1 = MDU_ProductTemp.MDU_EXAxReg.MDU_EXA1Reg;
*** ERROR C202 IN LINE 86 OF ..\C\Multiplication_Division.c: 'EXA1': undefined identifier
  87   1        EXA2 = MDU_ProductTemp.MDU_EXAxReg.MDU_EXA2Reg;
*** ERROR C202 IN LINE 87 OF ..\C\Multiplication_Division.c: 'EXA2': undefined identifier
  88   1        EXA3 = MDU_ProductTemp.MDU_EXAxReg.MDU_EXA3Reg;
*** ERROR C202 IN LINE 88 OF ..\C\Multiplication_Division.c: 'EXA3': undefined identifier
  89   1      
  90   1        EXBL = divisor;     //输入被除数
*** ERROR C202 IN LINE 90 OF ..\C\Multiplication_Division.c: 'EXBL': undefined identifier
  91   1        EXBH = divisor>>8;
*** ERROR C202 IN LINE 91 OF ..\C\Multiplication_Division.c: 'EXBH': undefined identifier
  92   1      
  93   1        OPERCON |= 0xC0;      //开始计算
C51 COMPILER V9.60.0.0   MULTIPLICATION_DIVISION                                           12/22/2021 11:26:37 PAGE 3   

*** ERROR C202 IN LINE 93 OF ..\C\Multiplication_Division.c: 'OPERCON': undefined identifier
  94   1        while(OPERCON & 0x80);      //等待计算完成
*** ERROR C202 IN LINE 94 OF ..\C\Multiplication_Division.c: 'OPERCON': undefined identifier
  95   1      
  96   1        MDU_ProductTemp.MDU_EXAxReg.MDU_EXA0Reg = EXA0;
*** ERROR C202 IN LINE 96 OF ..\C\Multiplication_Division.c: 'EXA0': undefined identifier
  97   1        MDU_ProductTemp.MDU_EXAxReg.MDU_EXA1Reg = EXA1;
*** ERROR C202 IN LINE 97 OF ..\C\Multiplication_Division.c: 'EXA1': undefined identifier
  98   1        MDU_ProductTemp.MDU_EXAxReg.MDU_EXA2Reg = EXA2;
*** ERROR C202 IN LINE 98 OF ..\C\Multiplication_Division.c: 'EXA2': undefined identifier
  99   1        MDU_ProductTemp.MDU_EXAxReg.MDU_EXA3Reg = EXA3;
*** ERROR C202 IN LINE 99 OF ..\C\Multiplication_Division.c: 'EXA3': undefined identifier
 100   1      
 101   1        remainder = EXBH*256+ EXBL;     //余数
*** ERROR C202 IN LINE 101 OF ..\C\Multiplication_Division.c: 'EXBH': undefined identifier
 102   1        quotient  = MDU_ProductTemp.MDU_Temp;     //商
 103   1      }
 104          

C51 COMPILATION COMPLETE.  1 WARNING(S),  28 ERROR(S)
