C51 COMPILER V9.01   SC_IT                                                                 02/07/2021 16:31:53 PAGE 1   


C51 COMPILER V9.01, COMPILATION OF MODULE SC_IT
OBJECT MODULE PLACED IN ..\Output\SC_it.obj
COMPILER INVOKED BY: C:\Keil\C51\BIN\C51.exe ..\User\SC_it.c OMF2 INTVECTOR(0X0000) DEFINE(SC95F8x1x) LARGE INCDIR(..\FW
                    -Lib\SC95F_Lib\inc;..\User) PRINT(..\List\SC_it.lst) OBJECT(..\Output\SC_it.obj)

line level    source

   1          //************************************************************
   2          //  Copyright (c) 深圳市赛元微电子有限公司
   3          //      文件名称        : SC_it.c
   4          //      模块功能        : 中断服务程序
   5          //  说明        :  
   6          //*************************************************************
   7          /********************Includes************************************************************************/
   8          #include "SC_it.h"
   9          #include "..\Drivers\SCDriver_list.h"
  10          #include "HeadFiles\SC_itExtern.h"
  11          /*<define>*//*<UserCodeStart>*/
  12          /*<UserCodeEnd>*/
  13          
  14          /*********<GlobalVariables>**************************************************************************/                  
  15          /*********<GlobalVariablesAnnounceBegin>**************************************/
  16          /*********<GlobalVariablesAnnounceEnd>****************************************/
  17          
  18          /*********<GlobalFunctions>**************************************************************************/                  
  19          /*********<GlobalFunctionsAnnounceBegin>**************************************/
  20          /*********<GlobalFunctionsAnnounceEnd>****************************************/
  21          
  22          /****************Pragma directive********************************************************************/
  23          
  24          /*********<GlobalVariables>**************************************************************************/                  
  25          /*********<GlobalVariablesDefineBegin>**************************************/
  26          /*********<GlobalVariablesDefineEnd>****************************************/
  27          
  28          
  29          /*********<GlobalFunctions>**************************************************************************/                  
  30          /*********<GlobalFunctionsDefineBegin>**************************************/
  31          /*********<GlobalFunctionsDefineEnd>****************************************/
  32          /*********<GlobalFunctionsRealizeBegin>**************************************/
  33          /*********<GlobalFunctionsRealizeEnd>****************************************/
  34          
  35          
  36          
  37          void INT0Interrupt()            interrupt 0                             
  38          {
  39   1      /*<UserCodeStart>*/     
  40   1      /*<UserCodeEnd>*/
  41   1          TCON &= 0XFD;//清中断标志位         
  42   1          /*INT0_it write here*/
  43   1      
  44   1      
  45   1      }
  46          
  47          void Timer0Interrupt()          interrupt 1                        
  48          {
  49   1      /*<UserCodeStart>*/     
  50   1      /*<UserCodeEnd>*/
  51   1          /*TIM0_it write here*/              
  52   1      }
  53          
  54          void INT1Interrupt()            interrupt 2             
C51 COMPILER V9.01   SC_IT                                                                 02/07/2021 16:31:53 PAGE 2   

  55          {
  56   1      /*<UserCodeStart>*/     
  57   1      /*<UserCodeEnd>*/
  58   1          TCON &= 0XF7;//清中断标志位
  59   1          /*INT1_it write here*/                                      
  60   1      }
  61          
  62          void Timer1Interrupt()          interrupt 3             
  63          {
  64   1      /*<UserCodeStart>*/     
  65   1      /*<UserCodeEnd>*/
  66   1          /*TIM1_it write here*/              
  67   1      }
  68          
  69          void UART0Interrupt()           interrupt 4             
  70          {
  71   1      /*<UserCodeStart>*/     
  72   1      /*<UserCodeEnd>*/
  73   1          /*UART0_it write here*/             
  74   1          /*<UserCodeStart>*///<SinOne-Tag><117>
  75   1          //UART0Interrupt
  76   1          {
  77   2      
  78   2              /*<UserCodeStart>*///<SinOne-Tag><118>
  79   2              UART0_ClearFlag(UART0_FLAG_TI);
  80   2              Uart0SendFlag = 1;
  81   2      
  82   2              /*<UserCodeEnd>*///<SinOne-Tag><118>
  83   2          }
  84   1          /*<UserCodeEnd>*///<SinOne-Tag><117>
  85   1      }
  86          
  87          void Timer2Interrupt()          interrupt 5             
  88          {
  89   1      /*<UserCodeStart>*/     
  90   1      /*<UserCodeEnd>*/
  91   1          /*TIM2_it write here*/              
  92   1      }
  93          
  94          void ADCInterrupt()                     interrupt 6             
  95          {
  96   1      /*<UserCodeStart>*/     
  97   1      /*<UserCodeEnd>*/
  98   1          /*ADC_it write here*/               
  99   1      }
 100          
 101          void USCI0Interrupt()                   interrupt 7             
 102          {
 103   1      /*<UserCodeStart>*/     
 104   1      /*<UserCodeEnd>*/
 105   1          /*USCI0_it write here*/             
 106   1          /*<UserCodeStart>*///<SinOne-Tag><120>
 107   1          //USCI0Interrupt
 108   1          {
 109   2      
 110   2              /*<UserCodeStart>*///<SinOne-Tag><123>
 111   2              if(USCI0_GetFlagStatus(USCI0_TWI_FLAG_TWIF))
 112   2              {
 113   3                  USCI0_ClearFlag(USCI0_TWI_FLAG_TWIF);  //中断清零
 114   3                  TWI0Flag = 1;
 115   3              }
 116   2              /*<UserCodeEnd>*///<SinOne-Tag><123>
C51 COMPILER V9.01   SC_IT                                                                 02/07/2021 16:31:53 PAGE 3   

 117   2          }
 118   1          /*<UserCodeEnd>*///<SinOne-Tag><120>
 119   1      }
 120          
 121          void PWMInterrupt()                     interrupt 8
 122          {
 123   1      /*<UserCodeStart>*/     
 124   1      /*<UserCodeEnd>*/
 125   1          /*PWM_it write here*/               
 126   1      }
 127          
 128          void BTMInterrupt()                     interrupt 9
 129          {
 130   1      /*<UserCodeStart>*/     
 131   1      /*<UserCodeEnd>*/
 132   1          /*BTM_it write here*/               
 133   1      }
 134          
 135          void INT2Interrupt()            interrupt 10
 136          {
 137   1      /*<UserCodeStart>*/     
 138   1      /*<UserCodeEnd>*/
 139   1          /*INT2_it write here*/              
 140   1      }
 141          
 142          void ACMPInterrupt()            interrupt 12
 143          {
 144   1      /*<UserCodeStart>*/     
 145   1      /*<UserCodeEnd>*/
 146   1          /*ACMP_it write here*/              
 147   1      }
 148          void Timer3Interrupt()          interrupt 13
 149          {
 150   1      /*<UserCodeStart>*/     
 151   1      /*<UserCodeEnd>*/
 152   1          /*Timer3_it write here*/            
 153   1      }
 154          void Timer4Interrupt()          interrupt 14
 155          {
 156   1      /*<UserCodeStart>*/     
 157   1      /*<UserCodeEnd>*/
 158   1          /*Timer4_it write here*/            
 159   1      }
 160          void USCI1Interrupt()           interrupt 15            
 161          {
 162   1      /*<UserCodeStart>*/     
 163   1      /*<UserCodeEnd>*/
 164   1          /*USCI1_it write here*/             
 165   1      }
 166          void USCI2Interrupt()           interrupt 16            
 167          {
 168   1      /*<UserCodeStart>*/     
 169   1      /*<UserCodeEnd>*/
 170   1          /*USCI2_it write here*/             
 171   1          /*<UserCodeStart>*///<SinOne-Tag><119>
 172   1          //USCI2Interrupt
 173   1          {
 174   2      
 175   2              /*<UserCodeStart>*///<SinOne-Tag><124>
 176   2              if(USCI2_GetFlagStatus(USCI2_TWI_FLAG_TWIF))
 177   2              {
 178   3                  USCI2_ClearFlag(USCI2_TWI_FLAG_TWIF);  //中断清零
C51 COMPILER V9.01   SC_IT                                                                 02/07/2021 16:31:53 PAGE 4   

 179   3                  TWI2Flag = 1;
 180   3              }
 181   2              /*<UserCodeEnd>*///<SinOne-Tag><124>
 182   2          }
 183   1          /*<UserCodeEnd>*///<SinOne-Tag><119>
 184   1      }


MODULE INFORMATION:   STATIC OVERLAYABLE
   CODE SIZE        =    272    ----
   CONSTANT SIZE    =   ----    ----
   XDATA SIZE       =   ----    ----
   PDATA SIZE       =   ----    ----
   DATA SIZE        =   ----    ----
   IDATA SIZE       =   ----    ----
   BIT SIZE         =   ----    ----
   EDATA SIZE       =   ----    ----
   HDATA SIZE       =   ----    ----
   XDATA CONST SIZE =   ----    ----
   FAR CONST SIZE   =   ----    ----
END OF MODULE INFORMATION.


C51 COMPILATION COMPLETE.  0 WARNING(S),  0 ERROR(S)
