C51 COMPILER V9.00   SC95F861X_IT                                                          10/28/2019 16:43:47 PAGE 1   


C51 COMPILER V9.00, COMPILATION OF MODULE SC95F861X_IT
OBJECT MODULE PLACED IN ..\OUTPUT\sc95f861x_it.obj
COMPILER INVOKED BY: C:\Keil\C51\BIN\C51.EXE ..\USER\C\sc95f861x_it.c BROWSE INCDIR(..\..\..\SC95F861x_lib\inc;..\USER\H
                    -) DEBUG OBJECTEXTEND PRINT(..\LST\sc95f861x_it.lst) OBJECT(..\OUTPUT\sc95f861x_it.obj)

line level    source

   1          //************************************************************
   2          //  Copyright (c) 深圳市赛元微电子有限公司
   3          //      文件名称        : sc95f861x_it.c
   4          //      作者            : 
   5          //      模块功能        : sc95f861x_IT固件库函数C文件
   6          //      局部函数列表:
   7          //  最后更正日期: 2019/04/16
   8          //      版本            : V1.0   
   9          //************************************************************
  10          
  11          #include "sc95f861x_gpio.h"
  12          #include "sc95f861x_timer0.h"
  13          #include "sc95f861x_timer1.h"
  14          #include "sc95f861x_timerx.h"
  15          #include "sc95f861x_adc.h"
  16          #include "sc95f861x_btm.h"
  17          #include "sc95f861x_pwm.h"
  18          #include "sc95f861x_exti.h"
  19          #include "sc95f861x_uart0.h"
  20          #include "sc95f861x_usci0.h"
  21          #include "sc95f861x_usci1.h"
  22          #include "sc95f861x_usci2.h"
  23          #include "sc95f861x_acmp.h"
  24          
  25          
  26          sbit buzzer = P4^5;      //蜂鸣器
  27          uint16_t buzzer_count = 0;  //蜂鸣器鸣响时长控制
  28          extern bit BuzzerFlag;
  29          
  30          void EXTI0Interrupt()           interrupt 0
  31          {
  32   1      
  33   1      }
  34          
  35          void Timer0Interrupt()          interrupt 1
  36          {
  37   1              TIM0_Mode0SetReloadCounter(8192-4000);
  38   1              if(BuzzerFlag == 1)                                     //按下TouchKey按键时置一
  39   1              {                                                                       
  40   2                      buzzer = ~buzzer;                               //产生方波
  41   2                      
  42   2                      buzzer_count++;                                 //控制发声时长
  43   2                      if(buzzer_count>=1000)
  44   2                      {
  45   3                              buzzer = 0;
  46   3                              buzzer_count = 0;
  47   3                              BuzzerFlag = 0;
  48   3                      }       
  49   2              }
  50   1      }
  51          
  52          void EXTI1Interrupt()           interrupt 2
  53          {
  54   1      }
C51 COMPILER V9.00   SC95F861X_IT                                                          10/28/2019 16:43:47 PAGE 2   

  55          
  56          void Timer1Interrupt()          interrupt 3
  57          {
  58   1      
  59   1      }
  60          
  61          void UART0Interrupt()           interrupt 4
  62          {
  63   1      
  64   1      }
  65          
  66          void Timer2Interrupt()          interrupt 5
  67          {
  68   1      
  69   1      }
  70          
  71          void ADCInterrupt()                     interrupt 6
  72          {
  73   1      
  74   1      }
  75          
  76          void USCI0Interrupt()                   interrupt 7
  77          {
  78   1              
  79   1      }
  80          
  81          void PWMInterrupt()                     interrupt 8
  82          {
  83   1      
  84   1      }
  85          
  86          void BTMInterrupt()                     interrupt 9
  87          {
  88   1      
  89   1      }
  90          
  91          void EXTI2Interrupt()           interrupt 10
  92          {
  93   1      
  94   1      }
  95          
  96          void CMPInterrupt()             interrupt 12
  97          {
  98   1      
  99   1      }
 100          
 101          void Timer3Interrupt()          interrupt 13
 102          {
 103   1        
 104   1      }
 105          
 106          void Timer4Interrupt()          interrupt 14
 107          {
 108   1      
 109   1      }
 110          
 111          void USCI1Interrupt()                   interrupt 15
 112          {
 113   1              
 114   1      }
 115          
 116          void USCI2Interrupt()                   interrupt 16
C51 COMPILER V9.00   SC95F861X_IT                                                          10/28/2019 16:43:47 PAGE 3   

 117          {
 118   1              
 119   1      }


MODULE INFORMATION:   STATIC OVERLAYABLE
   CODE SIZE        =    110    ----
   CONSTANT SIZE    =   ----    ----
   XDATA SIZE       =   ----    ----
   PDATA SIZE       =   ----    ----
   DATA SIZE        =      2    ----
   IDATA SIZE       =   ----    ----
   BIT SIZE         =   ----    ----
END OF MODULE INFORMATION.


C51 COMPILATION COMPLETE.  0 WARNING(S),  0 ERROR(S)
