:0300000002001EDD
:0C001E00787FE4F6D8FD758109020065CA
:0400D500020800001D
:03001B000200AA36
:1000AA00C0E0C0D00509E50970020508B4E80DE50D
:1000BA0008B40308750800750900B285D0D0D0E0ED
:0100CA003203
:10000300438E4053890F758B48758D77C28FD28E7F
:05001300D2ABD2AF22C8
:0A00CB00E4F594F59312000380FEA3
:10002A000200CBE493A3F8E493A34003F68001F221
:10003A0008DFF48029E493A3F85407240CC8C333D7
:10004A00C4540F4420C8834004F456800146F6DFA6
:10005A00E4800B01020408102040809000D5E47E61
:10006A00019360BCA3FF543F30E509541FFEE4939B
:10007A00A360010ECF54C025E060A840B8E493A362
:10008A00FAE493A3F8E493A3C8C582C8CAC583CA8D
:10009A00F0A3C8C582C8CAC583CADFE9DEE780BE45
:0100D9000026
:00000001FF
