LX51 LINKER/LOCATER V4.66.100.0                                                         08/30/2023  14:49:07  PAGE 1


LX51 LINKER/LOCATER V4.66.100.0, INVOKED BY:
C:\KEIL_V5\C51\BIN\LX51.EXE .\Objects\STARTUP.obj, .\Objects\main.obj, .\Objects\IO_Init.obj, .\Objects\BTM.obj, .\Objec
>> ts\EX_Init.obj, .\Objects\Timer_Init.obj, .\Objects\LCD_LED_Init.obj, .\Objects\PWM_Init.obj, .\Objects\Uart_Init.obj
>> , .\Objects\SSIX_Init.obj, .\Objects\SSI0_Init.obj, .\Objects\SSI1_Init.obj, .\Objects\ADC_Init.obj, .\Objects\IAP_In
>> it.obj, .\Objects\Multiplication_Division.obj, .\Objects\CMP_Init.obj, .\Objects\CRC_Init.obj, .\IAP_Lib\RD8X36X_IAP_
>> L_lib_V1.4.0 .LIB TO .\Objects\Test PRINT (.\Listings\Test.map) REMOVEUNUSED CLASSES (CODE (C:0X100), CONST (C:0X100)
>> )


CPU MODE:     8051 MODE
MEMORY MODEL: LARGE


INPUT MODULES INCLUDED:
  .\Objects\STARTUP.obj (?C_STARTUP)
         COMMENT TYPE 1: A51 / ASM51 Assembler
  .\Objects\main.obj (MAIN)
         COMMENT TYPE 0: C51 V9.60.7.0
  .\Objects\IO_Init.obj (IO_INIT)
         COMMENT TYPE 0: C51 V9.60.7.0
  .\Objects\BTM.obj (BTM)
         COMMENT TYPE 0: C51 V9.60.7.0
  .\Objects\EX_Init.obj (EX_INIT)
         COMMENT TYPE 0: C51 V9.60.7.0
  .\Objects\Timer_Init.obj (TIMER_INIT)
         COMMENT TYPE 0: C51 V9.60.7.0
  .\Objects\LCD_LED_Init.obj (LCD_LED_INIT)
         COMMENT TYPE 0: C51 V9.60.7.0
  .\Objects\PWM_Init.obj (PWM_INIT)
         COMMENT TYPE 0: C51 V9.60.7.0
  .\Objects\Uart_Init.obj (UART_INIT)
         COMMENT TYPE 0: C51 V9.60.7.0
  .\Objects\SSIX_Init.obj (SSIX_INIT)
         COMMENT TYPE 0: C51 V9.60.7.0
  .\Objects\SSI0_Init.obj (SSI0_INIT)
         COMMENT TYPE 0: C51 V9.60.7.0
  .\Objects\SSI1_Init.obj (SSI1_INIT)
         COMMENT TYPE 0: C51 V9.60.7.0
  .\Objects\ADC_Init.obj (ADC_INIT)
         COMMENT TYPE 0: C51 V9.60.7.0
  .\Objects\IAP_Init.obj (IAP_INIT)
         COMMENT TYPE 0: C51 V9.60.7.0
  .\Objects\Multiplication_Division.obj (MULTIPLICATION_DIVISION)
         COMMENT TYPE 0: C51 V9.60.7.0
  .\Objects\CMP_Init.obj (CMP_INIT)
         COMMENT TYPE 0: C51 V9.60.7.0
  .\Objects\CRC_Init.obj (CRC_INIT)
         COMMENT TYPE 0: C51 V9.60.7.0
  .\IAP_Lib\RD8X36X_IAP_L_lib_V1.4.0 .LIB (IAP_OPTION_EW)
         COMMENT TYPE 1: A51 / ASM51 Assembler
  C:\KEIL_V5\C51\LIB\C51L.LIB (?C_INIT)
         COMMENT TYPE 1: A51 / ASM51 Assembler
  C:\KEIL_V5\C51\LIB\C51L.LIB (?C?CLDOPTR)
         COMMENT TYPE 1: A51 / ASM51 Assembler
  C:\KEIL_V5\C51\LIB\C51L.LIB (?C?LMUL)
         COMMENT TYPE 1: A51 / ASM51 Assembler
  C:\KEIL_V5\C51\LIB\C51L.LIB (?C?ULDIV)
         COMMENT TYPE 1: A51 / ASM51 Assembler
  C:\KEIL_V5\C51\LIB\C51L.LIB (?C?ULCMP)
         COMMENT TYPE 1: A51 / ASM51 Assembler
  C:\KEIL_V5\C51\LIB\C51L.LIB (?C?ULSHR)
         COMMENT TYPE 1: A51 / ASM51 Assembler
  C:\KEIL_V5\C51\LIB\C51L.LIB (?C?LLDIXDATA)
         COMMENT TYPE 1: A51 / ASM51 Assembler
  C:\KEIL_V5\C51\LIB\C51L.LIB (?C?LSTXDATA)
         COMMENT TYPE 1: A51 / ASM51 Assembler
LX51 LINKER/LOCATER V4.66.100.0                                                       08/30/2023  14:49:07  PAGE 2


  C:\KEIL_V5\C51\LIB\C51L.LIB (?C?LSTKXDATA)
         COMMENT TYPE 1: A51 / ASM51 Assembler


ACTIVE MEMORY CLASSES OF MODULE:  .\Objects\Test (?C_STARTUP)

BASE        START       END         USED      MEMORY CLASS
==========================================================
C:000000H   C:000100H   C:00FFFFH   000DE8H   CODE
C:000000H   C:000100H   C:00FFFFH             CONST
I:000000H   I:000000H   I:0000FFH   000001H   IDATA
X:000000H   X:000000H   X:00FFFFH   000070H   XDATA
I:000020H.0 I:000020H.0 I:00002FH.7 000002H.1 BIT
I:000000H   I:000000H   I:00007FH   000008H   DATA


MEMORY MAP OF MODULE:  .\Objects\Test (?C_STARTUP)


START     STOP      LENGTH    ALIGN  RELOC    MEMORY CLASS   SEGMENT NAME
=========================================================================

* * * * * * * * * * *   D A T A   M E M O R Y   * * * * * * * * * * * * *
000000H   000007H   000008H   ---    AT..     DATA           "REG BANK 0"
000008H.0 00001FH.7 000018H.0 ---    ---      **GAP**
000020H.0 000020H.3 000000H.4 BIT    UNIT     BIT            ?BI?SSIX_INIT
000020H.4 000020H.7 000000H.4 BIT    UNIT     BIT            ?BI?SSI0_INIT
000021H.0 000021H.3 000000H.4 BIT    UNIT     BIT            ?BI?SSI1_INIT
000021H.4 000021H.5 000000H.2 BIT    UNIT     BIT            ?BI?UART_INIT
000021H.6 000021H.6 000000H.1 BIT    UNIT     BIT            ?BI?ADC_INIT
000021H.7 000021H.7 000000H.1 BIT    UNIT     BIT            ?BI?CMP_INIT
000022H.0 000022H.0 000000H.1 BIT    UNIT     BIT            _BIT_GROUP_
000022H.1 000022H   000000H.7 ---    ---      **GAP**
000023H   000023H   000001H   BYTE   UNIT     IDATA          ?STACK

* * * * * * * * * * *   C O D E   M E M O R Y   * * * * * * * * * * * * *
000000H   000002H   000003H   ---    OFFS..   CODE           ?CO??C_STARTUP?0
000003H   000005H   000003H   BYTE   OFFS..   CODE           ?EX_INIT?00003
000006H   00000AH   000005H   ---    ---      **GAP**
00000BH   00000DH   000003H   BYTE   OFFS..   CODE           ?TIMER_INIT?0000B
00000EH   000012H   000005H   ---    ---      **GAP**
000013H   000015H   000003H   BYTE   OFFS..   CODE           ?EX_INIT?00013
000016H   00001AH   000005H   ---    ---      **GAP**
00001BH   00001DH   000003H   BYTE   OFFS..   CODE           ?TIMER_INIT?0001B
00001EH   000022H   000005H   ---    ---      **GAP**
000023H   000025H   000003H   BYTE   OFFS..   CODE           ?UART_INIT?00023
000026H   00002AH   000005H   ---    ---      **GAP**
00002BH   00002DH   000003H   BYTE   OFFS..   CODE           ?TIMER_INIT?0002B
00002EH   000032H   000005H   ---    ---      **GAP**
000033H   000035H   000003H   BYTE   OFFS..   CODE           ?ADC_INIT?00033
000036H   00003AH   000005H   ---    ---      **GAP**
00003BH   00003DH   000003H   BYTE   OFFS..   CODE           ?SSI0_INIT?0003B
00003EH   000042H   000005H   ---    ---      **GAP**
000043H   000045H   000003H   BYTE   OFFS..   CODE           ?PWM_INIT?00043
000046H   00004AH   000005H   ---    ---      **GAP**
00004BH   00004DH   000003H   BYTE   OFFS..   CODE           ?BTM?0004B
00004EH   000052H   000005H   ---    ---      **GAP**
000053H   000055H   000003H   BYTE   OFFS..   CODE           ?EX_INIT?00053
000056H   000062H   00000DH   ---    ---      **GAP**
000063H   000065H   000003H   BYTE   OFFS..   CODE           ?CMP_INIT?00063
000066H   00006AH   000005H   ---    ---      **GAP**
00006BH   00006DH   000003H   BYTE   OFFS..   CODE           ?TIMER_INIT?0006B
00006EH   000072H   000005H   ---    ---      **GAP**
000073H   000075H   000003H   BYTE   OFFS..   CODE           ?TIMER_INIT?00073
000076H   00007AH   000005H   ---    ---      **GAP**
LX51 LINKER/LOCATER V4.66.100.0                                                       08/30/2023  14:49:07  PAGE 3


00007BH   00007DH   000003H   BYTE   OFFS..   CODE           ?SSI1_INIT?0007B
00007EH   00008AH   00000DH   ---    ---      **GAP**
00008BH   00008DH   000003H   BYTE   OFFS..   CODE           ?SSIX_INIT?0008B
00008EH   0000FFH   000072H   ---    ---      **GAP**
000100H   0002DFH   0001E0H   BYTE   UNIT     CODE           ?C?LIB_CODE
0002E0H   0003E6H   000107H   BYTE   UNIT     CODE           ?PR?_IAP_CODEPROGRAMBYTEOPTION?IAP_OPTION_EW
0003E7H   0004E7H   000101H   BYTE   UNIT     CODE           ?PR?_IAP_CODESECTORERASEOPTION?IAP_OPTION_EW
0004E8H   00058EH   0000A7H   BYTE   UNIT     CODE           ?PR?PWM_INIT?PWM_INIT
00058FH   00062EH   0000A0H   BYTE   UNIT     CODE           ?PR?TIMER2INT?TIMER_INIT
00062FH   0006C8H   00009AH   BYTE   UNIT     CODE           ?C_C51STARTUP
0006C9H   000743H   00007BH   BYTE   UNIT     CODE           ?PR?_CRC_SOFTWARE_INIT?CRC_INIT
000744H   0007BBH   000078H   BYTE   UNIT     CODE           ?PR?_DIVISION?MULTIPLICATION_DIVISION
0007BCH   00082DH   000072H   BYTE   UNIT     CODE           ?PR?_UART_INIT?UART_INIT
00082EH   00089CH   00006FH   BYTE   UNIT     CODE           ?PR?_UART1_INIT?SSI1_INIT
00089DH   000906H   00006AH   BYTE   UNIT     CODE           ?C_INITSEG
000907H   00096FH   000069H   BYTE   UNIT     CODE           ?PR?TIMER_INIT?TIMER_INIT
000970H   0009D6H   000067H   BYTE   UNIT     CODE           ?PR?MAIN?MAIN
0009D7H   000A3BH   000065H   BYTE   UNIT     CODE           ?PR?MULTIPLIER_DIVIDER_TEST?MULTIPLICATION_DIVISION
000A3CH   000A9EH   000063H   BYTE   UNIT     CODE           ?PR?IAP_TEST?IAP_INIT
000A9FH   000B01H   000063H   BYTE   UNIT     CODE           ?PR?_IAP_EEPROMPROGRAMBYTEOPTION?IAP_OPTION_EW
000B02H   000B60H   00005FH   BYTE   UNIT     CODE           ?PR?_IAP_EEPROMSECTORERASEOPTION?IAP_OPTION_EW
000B61H   000BA2H   000042H   BYTE   UNIT     CODE           ?PR?CRC_HARDWARE_INIT?CRC_INIT
000BA3H   000BE0H   00003EH   BYTE   UNIT     CODE           ?PR?_MULTIPLICATION?MULTIPLICATION_DIVISION
000BE1H   000C1BH   00003BH   BYTE   UNIT     CODE           ?PR?_IAP_READ?IAP_INIT
000C1CH   000C53H   000038H   BYTE   UNIT     CODE           ?PR?_ADC_INIT?ADC_INIT
000C54H   000C7FH   00002CH   BYTE   UNIT     CODE           ?PR?EX_INIT?EX_INIT
000C80H   000CABH   00002CH   BYTE   UNIT     CODE           ?PR?ADC_TEST?ADC_INIT
000CACH   000CD1H   000026H   BYTE   UNIT     CODE           ?PR?UART_TEST?UART_INIT
000CD2H   000CF2H   000021H   BYTE   UNIT     CODE           ?PR?INT1INTERRUPT?EX_INIT
000CF3H   000D12H   000020H   BYTE   UNIT     CODE           ?PR?IO_INIT?IO_INIT
000D13H   000D30H   00001EH   BYTE   UNIT     CODE           ?PR?SPIX_INIT?SSIX_INIT
000D31H   000D4BH   00001BH   BYTE   UNIT     CODE           ?PR?SSIX_TEST?SSIX_INIT
000D4CH   000D66H   00001BH   BYTE   UNIT     CODE           ?PR?SSI1_TEST?SSI1_INIT
000D67H   000D7FH   000019H   BYTE   UNIT     CODE           ?PR?UART1_INT?SSI1_INIT
000D80H   000D97H   000018H   BYTE   UNIT     CODE           ?PR?SSI0_TEST?SSI0_INIT
000D98H   000DAEH   000017H   BYTE   UNIT     CODE           ?PR?SPI3_INT?SSIX_INIT
000DAFH   000DC5H   000017H   BYTE   UNIT     CODE           ?PR?SPI0_INT?SSI0_INIT
000DC6H   000DDBH   000016H   BYTE   UNIT     CODE           ?PR?CMP_TEST?CMP_INIT
000DDCH   000DF0H   000015H   BYTE   UNIT     CODE           ?PR?_DELAY?IO_INIT
000DF1H   000E04H   000014H   BYTE   UNIT     CODE           ?PR?LED_INIT?LCD_LED_INIT
000E05H   000E16H   000012H   BYTE   UNIT     CODE           ?PR?SPI0_INIT?SSI0_INIT
000E17H   000E28H   000012H   BYTE   UNIT     CODE           ?PR?_CMP_INIT?CMP_INIT
000E29H   000E37H   00000FH   BYTE   UNIT     CODE           ?PR?PWM0_INTERRUP?PWM_INIT
000E38H   000E46H   00000FH   BYTE   UNIT     CODE           ?PR?UARTINT?UART_INIT
000E47H   000E54H   00000EH   BYTE   UNIT     CODE           ?PR?CRC_TEST?CRC_INIT
000E55H   000E61H   00000DH   BYTE   UNIT     CODE           ?PR?PXVO_INIT?LCD_LED_INIT
000E62H   000E6AH   000009H   BYTE   UNIT     CODE           ?PR?BTM_INIT?BTM
000E6BH   000E73H   000009H   BYTE   UNIT     CODE           ?PR?TIMER0?TIMER_INIT
000E74H   000E7BH   000008H   BYTE   UNIT     CODE           ?PR?TIMER3INT?TIMER_INIT
000E7CH   000E83H   000008H   BYTE   UNIT     CODE           ?PR?TIMER4INT?TIMER_INIT
000E84H   000E89H   000006H   BYTE   UNIT     CODE           ?PR?ADC_INTERRUPT?ADC_INIT
000E8AH   000E8FH   000006H   BYTE   UNIT     CODE           ?PR?CMP_INTERRUPT?CMP_INIT
000E90H   000E94H   000005H   BYTE   UNIT     CODE           ?PR?BTM_TEST?BTM
000E95H   000E99H   000005H   BYTE   UNIT     CODE           ?PR?EXTI_TEST?EX_INIT
000E9AH   000E9EH   000005H   BYTE   UNIT     CODE           ?PR?TIMER_TEST?TIMER_INIT
000E9FH   000EA3H   000005H   BYTE   UNIT     CODE           ?PR?LED_TEST?LCD_LED_INIT
000EA4H   000EA8H   000005H   BYTE   UNIT     CODE           ?PR?PWM_TEST?PWM_INIT
000EA9H   000EABH   000003H   BYTE   UNIT     CODE           ?PR?BTM_INT?BTM
000EACH   000EAEH   000003H   BYTE   UNIT     CODE           ?PR?INT0INTERRUPT?EX_INIT
000EAFH   000EB1H   000003H   BYTE   UNIT     CODE           ?PR?INT2INTERRUPT?EX_INIT
000EB2H   000EB4H   000003H   BYTE   UNIT     CODE           ?PR?TIMER1?TIMER_INIT

* * * * * * * * * * *  X D A T A   M E M O R Y  * * * * * * * * * * * * *
000000H   000017H   000018H   BYTE   UNIT     XDATA          ?XD?CRC_INIT
000018H   000021H   00000AH   BYTE   UNIT     XDATA          ?XD?MULTIPLICATION_DIVISION
LX51 LINKER/LOCATER V4.66.100.0                                                       08/30/2023  14:49:07  PAGE 4


000022H   00002BH   00000AH   BYTE   UNIT     XDATA          _XDATA_GROUP_
00002CH   000032H   000007H   BYTE   UNIT     XDATA          ?XD?TIMER_INIT
000033H   000034H   000002H   BYTE   UNIT     XDATA          ?XD?ADC_INIT
000035H   000036H   000002H   BYTE   UNIT     XDATA          ?XD?IAP_INIT
000037H   000037H   000001H   BYTE   UNIT     XDATA          ?XD?EX_INIT
000038H   001FFFH   001FC8H   ---    ---      **GAP**
002000H   00201BH   00001CH   BYTE   OFFS..   XDATA          ?XD?LCD_LED_INIT?0
00201CH   002033H   000018H   ---    ---      **GAP**
002034H   00204FH   00001CH   BYTE   OFFS..   XDATA          ?XD?PWM_INIT?0

* * * * * * * * *   R E M O V E D     S E G M E N T S   * * * * * * * *
   *DEL*:           000004H   BYTE   UNIT     CODE           ?PR?PWM_FLT_INIT?PWM_INIT
   *DEL*:           00006FH   BYTE   UNIT     CODE           ?PR?_UARTX_INIT?SSIX_INIT
   *DEL*:           000006H   BYTE   UNIT     XDATA          ?XD?_UARTX_INIT?SSIX_INIT
   *DEL*:           00001BH   BYTE   UNIT     CODE           ?PR?TWIX_INIT?SSIX_INIT
   *DEL*:           00006FH   BYTE   UNIT     CODE           ?PR?_UART0_INIT?SSI0_INIT
   *DEL*:           000006H   BYTE   UNIT     XDATA          ?XD?_UART0_INIT?SSI0_INIT
   *DEL*:           00000FH   BYTE   UNIT     CODE           ?PR?TWI0_INIT?SSI0_INIT
   *DEL*:           00000FH   BYTE   UNIT     CODE           ?PR?TWI1_INIT?SSI1_INIT
   *DEL*:           000012H   BYTE   UNIT     CODE           ?PR?SPI1_INIT?SSI1_INIT



OVERLAY MAP OF MODULE:   .\Objects\Test (?C_STARTUP)


FUNCTION/MODULE                                BIT_GROUP   XDATA_GROUP
--> CALLED FUNCTION/MODULE                    START  STOP  START  STOP
======================================================================
?C_C51STARTUP                                 ----- -----  ----- -----
  +--> MAIN/MAIN
  +--> ?C_INITSEG

MAIN/MAIN                                     ----- -----  ----- -----
  +--> IO_INIT/IO_INIT
  +--> BTM_TEST/BTM
  +--> EXTI_TEST/EX_INIT
  +--> TIMER_TEST/TIMER_INIT
  +--> LED_TEST/LCD_LED_INIT
  +--> PWM_TEST/PWM_INIT
  +--> UART_TEST/UART_INIT
  +--> SSI0_TEST/SSI0_INIT
  +--> SSI1_TEST/SSI1_INIT
  +--> SSIX_TEST/SSIX_INIT
  +--> ADC_TEST/ADC_INIT
  +--> IAP_TEST/IAP_INIT
  +--> MULTIPLIER_DIVIDER_TEST/MULTIPLICATION_DIVISION
  +--> CMP_TEST/CMP_INIT
  +--> CRC_TEST/CRC_INIT

IO_INIT/IO_INIT                               ----- -----  ----- -----

BTM_TEST/BTM                                  ----- -----  ----- -----
  +--> BTM_INIT/BTM

BTM_INIT/BTM                                  ----- -----  ----- -----

EXTI_TEST/EX_INIT                             ----- -----  ----- -----
  +--> EX_INIT/EX_INIT

EX_INIT/EX_INIT                               ----- -----  ----- -----

TIMER_TEST/TIMER_INIT                         ----- -----  ----- -----
  +--> TIMER_INIT/TIMER_INIT

LX51 LINKER/LOCATER V4.66.100.0                                                       08/30/2023  14:49:07  PAGE 5


TIMER_INIT/TIMER_INIT                         ----- -----  ----- -----

LED_TEST/LCD_LED_INIT                         ----- -----  ----- -----
  +--> LED_INIT/LCD_LED_INIT

LED_INIT/LCD_LED_INIT                         ----- -----  ----- -----
  +--> PXVO_INIT/LCD_LED_INIT

PXVO_INIT/LCD_LED_INIT                        ----- -----  ----- -----

PWM_TEST/PWM_INIT                             ----- -----  ----- -----
  +--> PWM_INIT/PWM_INIT

PWM_INIT/PWM_INIT                             ----- -----  ----- -----

UART_TEST/UART_INIT                           ----- -----  ----- -----
  +--> _UART_INIT/UART_INIT
  +--> _DELAY/IO_INIT

_UART_INIT/UART_INIT                          ----- -----  0022H 0027H

_DELAY/IO_INIT                                ----- -----  0022H 0025H

SSI0_TEST/SSI0_INIT                           ----- -----  ----- -----
  +--> SPI0_INIT/SSI0_INIT
  +--> _DELAY/IO_INIT

SPI0_INIT/SSI0_INIT                           ----- -----  ----- -----

SSI1_TEST/SSI1_INIT                           ----- -----  ----- -----
  +--> _UART1_INIT/SSI1_INIT

_UART1_INIT/SSI1_INIT                         ----- -----  0022H 0027H

SSIX_TEST/SSIX_INIT                           ----- -----  ----- -----
  +--> SPIX_INIT/SSIX_INIT
  +--> _DELAY/IO_INIT

SPIX_INIT/SSIX_INIT                           ----- -----  ----- -----

ADC_TEST/ADC_INIT                             ----- -----  ----- -----
  +--> _ADC_INIT/ADC_INIT

_ADC_INIT/ADC_INIT                            ----- -----  ----- -----

IAP_TEST/IAP_INIT                             ----- -----  0022H 0022H
  +--> _IAP_CODESECTORERASEOPTION/IAP_OPTION_EW
  +--> _IAP_CODEPROGRAMBYTEOPTION/IAP_OPTION_EW
  +--> _IAP_READ/IAP_INIT
  +--> _IAP_EEPROMSECTORERASEOPTION/IAP_OPTION_EW
  +--> _IAP_EEPROMPROGRAMBYTEOPTION/IAP_OPTION_EW

_IAP_CODESECTORERASEOPTION/IAP_OPTION_EW      ----- -----  0023H 002AH

_IAP_CODEPROGRAMBYTEOPTION/IAP_OPTION_EW      ----- -----  0023H 002BH

_IAP_READ/IAP_INIT                            ----- -----  0023H 0028H

_IAP_EEPROMSECTORERASEOPTION/IAP_OPTION_+     ----- -----  0023H 0026H
... EW

_IAP_EEPROMPROGRAMBYTEOPTION/IAP_OPTION_+     ----- -----  0023H 0026H
... EW

MULTIPLIER_DIVIDER_TEST/MULTIPLICATION_D+     ----- -----  ----- -----
LX51 LINKER/LOCATER V4.66.100.0                                                       08/30/2023  14:49:07  PAGE 6


... IVISION
  +--> _MULTIPLICATION/MULTIPLICATION_DIVISION
  +--> _DIVISION/MULTIPLICATION_DIVISION

_MULTIPLICATION/MULTIPLICATION_DIVISION       ----- -----  0022H 0025H

_DIVISION/MULTIPLICATION_DIVISION             ----- -----  0022H 002BH

CMP_TEST/CMP_INIT                             ----- -----  ----- -----
  +--> _CMP_INIT/CMP_INIT

_CMP_INIT/CMP_INIT                            ----- -----  ----- -----

CRC_TEST/CRC_INIT                             ----- -----  ----- -----
  +--> CRC_HARDWARE_INIT/CRC_INIT
  +--> _CRC_SOFTWARE_INIT/CRC_INIT

CRC_HARDWARE_INIT/CRC_INIT                    22H.0 22H.0  ----- -----

_CRC_SOFTWARE_INIT/CRC_INIT                   22H.0 22H.0  0022H 0024H

?C_INITSEG                                    ----- -----  ----- -----

*** NEW ROOT ********************************

BTM_INT/BTM                                   ----- -----  ----- -----

*** NEW ROOT ********************************

INT0INTERRUPT/EX_INIT                         ----- -----  ----- -----

*** NEW ROOT ********************************

INT1INTERRUPT/EX_INIT                         ----- -----  ----- -----

*** NEW ROOT ********************************

INT2INTERRUPT/EX_INIT                         ----- -----  ----- -----

*** NEW ROOT ********************************

TIMER0/TIMER_INIT                             ----- -----  ----- -----

*** NEW ROOT ********************************

TIMER1/TIMER_INIT                             ----- -----  ----- -----

*** NEW ROOT ********************************

TIMER2INT/TIMER_INIT                          ----- -----  ----- -----

*** NEW ROOT ********************************

TIMER3INT/TIMER_INIT                          ----- -----  ----- -----

*** NEW ROOT ********************************

TIMER4INT/TIMER_INIT                          ----- -----  ----- -----

*** NEW ROOT ********************************

PWM0_INTERRUP/PWM_INIT                        ----- -----  ----- -----

*** NEW ROOT ********************************

LX51 LINKER/LOCATER V4.66.100.0                                                       08/30/2023  14:49:07  PAGE 7


UARTINT/UART_INIT                             ----- -----  ----- -----

*** NEW ROOT ********************************

SPI3_INT/SSIX_INIT                            ----- -----  ----- -----

*** NEW ROOT ********************************

SPI0_INT/SSI0_INIT                            ----- -----  ----- -----

*** NEW ROOT ********************************

UART1_INT/SSI1_INIT                           ----- -----  ----- -----

*** NEW ROOT ********************************

ADC_INTERRUPT/ADC_INIT                        ----- -----  ----- -----

*** NEW ROOT ********************************

CMP_INTERRUPT/CMP_INIT                        ----- -----  ----- -----



PUBLIC SYMBOLS OF MODULE:  .\Objects\Test (?C_STARTUP)


      VALUE       CLASS    TYPE      PUBLIC SYMBOL NAME
      =================================================
      02000022H   XDATA    BYTE      ?_Division?BYTE
      02000023H   XDATA    ---       ?_IAP_CODEPROGRAMBYTEOPTION?BYTE
      02000023H   XDATA    BYTE      ?_IAP_Read?BYTE
*DEL*:00000000H   XDATA    BYTE      ?_Uart0_Init?BYTE
      02000022H   XDATA    BYTE      ?_Uart1_Init?BYTE
      02000022H   XDATA    BYTE      ?_Uart_Init?BYTE
*DEL*:00000000H   XDATA    BYTE      ?_UARTX_Init?BYTE
      01000100H   CODE     ---       ?C?CLDOPTR
      00000000H   NUMBER   ---       ?C?CODESEG
      01000277H   CODE     ---       ?C?LLDIXDATA
      0100026EH   CODE     ---       ?C?LLDIXDATA1
      01000270H   CODE     ---       ?C?LLDIXDATA8
      0100012DH   CODE     ---       ?C?LMUL
      010002AFH   CODE     ---       ?C?LSTKXDATA
      010002A3H   CODE     ---       ?C?LSTXDATA
      0100024AH   CODE     ---       ?C?ULCMP
      010001B8H   CODE     ---       ?C?ULDIV
      0100025BH   CODE     ---       ?C?ULSHR
      00000000H   NUMBER   ---       ?C?XDATASEG
      01000684H   CODE     ---       ?C_START
      01000000H   CODE     ---       ?C_STARTUP
      01000C1CH   CODE     ---       _ADC_Init
      01000E17H   CODE     ---       _CMP_Init
      010006C9H   CODE     ---       _CRC_Software_Init
      01000DDCH   CODE     ---       _Delay
      01000744H   CODE     ---       _Division
      010002E0H   CODE     ---       _IAP_CODEPROGRAMBYTEOPTION
      010003E7H   CODE     ---       _IAP_CODESECTORERASEOPTION
      01000A9FH   CODE     ---       _IAP_EEPROMPROGRAMBYTEOPTION
      01000B02H   CODE     ---       _IAP_EEPROMSECTORERASEOPTION
      01000BE1H   CODE     ---       _IAP_Read
      01000BA3H   CODE     ---       _Multiplication
*DEL*:00000000H   CODE     ---       _Uart0_Init
      0100082EH   CODE     ---       _Uart1_Init
      010007BCH   CODE     ---       _Uart_Init
*DEL*:00000000H   CODE     ---       _UARTX_Init
LX51 LINKER/LOCATER V4.66.100.0                                                       08/30/2023  14:49:07  PAGE 8


*SFR* 000000D0H.6 DATA     BIT       AC
*SFR* 000000E0H   DATA     BYTE      ACC
      01000E84H   CODE     ---       ADC_Interrupt
      01000C80H   CODE     ---       ADC_Test
*SFR* 000000ABH   DATA     BYTE      ADCCFG0
*SFR* 000000ACH   DATA     BYTE      ADCCFG1
*SFR* 000000B5H   DATA     BYTE      ADCCFG2
*SFR* 000000ADH   DATA     BYTE      ADCCON
      00000021H.6 BIT      BIT       AdcFlag
      02000033H   XDATA    WORD      ADCValue
*SFR* 000000AFH   DATA     BYTE      ADCVH
*SFR* 000000AEH   DATA     BYTE      ADCVL
      02000000H   XDATA    ---       Array
*SFR* 000000F0H   DATA     BYTE      B
      01000E62H   CODE     ---       BTM_Init
      01000EA9H   CODE     ---       BTM_Int
      01000E90H   CODE     ---       BTM_Test
*SFR* 000000FBH   DATA     BYTE      BTMCON
      01000E8AH   CODE     ---       CMP_INTERRUPT
      01000DC6H   CODE     ---       CMP_Test
*SFR* 000000B6H   DATA     BYTE      CMPCFG
*SFR* 000000B7H   DATA     BYTE      CMPCON
      00000021H.7 BIT      BIT       CMPSTA
      0200002DH   XDATA    WORD      count
      0200002FH   XDATA    WORD      count1
      02000031H   XDATA    WORD      count2
*SFR* 000000C8H.0 DATA     BIT       CP
      01000B61H   CODE     ---       CRC_Hardware_Init
      02000014H   XDATA    ---       CRC_Result
      01000E47H   CODE     ---       CRC_Test
*SFR* 000000FCH   DATA     BYTE      CRCINX
*SFR* 000000FDH   DATA     BYTE      CRCREG
*SFR* 000000D0H.7 DATA     BIT       CY
*SFR* 00000093H   DATA     BYTE      DDRCON
*SFR* 00000083H   DATA     BYTE      DPH
*SFR* 00000085H   DATA     BYTE      DPH1
*SFR* 00000082H   DATA     BYTE      DPL
*SFR* 00000084H   DATA     BYTE      DPL1
*SFR* 00000086H   DATA     BYTE      DPS
*SFR* 000000A8H.7 DATA     BIT       EA
*SFR* 000000A8H.6 DATA     BIT       EADC
*SFR* 000000A8H.0 DATA     BIT       EINT0
*SFR* 000000A8H.2 DATA     BIT       EINT1
*SFR* 000000A8H.1 DATA     BIT       ET0
*SFR* 000000A8H.3 DATA     BIT       ET1
*SFR* 000000A8H.5 DATA     BIT       ET2
*SFR* 000000A8H.4 DATA     BIT       EUART
      01000C54H   CODE     ---       EX_Init
*SFR* 000000E9H   DATA     BYTE      EXA0
*SFR* 000000EAH   DATA     BYTE      EXA1
*SFR* 000000EBH   DATA     BYTE      EXA2
*SFR* 000000ECH   DATA     BYTE      EXA3
*SFR* 000000F7H   DATA     BYTE      EXADH
*SFR* 000000EEH   DATA     BYTE      EXBH
*SFR* 000000EDH   DATA     BYTE      EXBL
*SFR* 000000C8H.3 DATA     BIT       EXENX
*SFR* 000000C8H.6 DATA     BIT       EXFX
      01000E95H   CODE     ---       EXTI_Test
*SFR* 000000D0H.5 DATA     BIT       F0
*SFR* 000000D0H.1 DATA     BIT       F1
      0200002CH   XDATA    BYTE      flag
      01000A3CH   CODE     ---       IAP_Test
*SFR* 000000F4H   DATA     BYTE      IAPADE
*SFR* 000000F3H   DATA     BYTE      IAPADH
*SFR* 000000F2H   DATA     BYTE      IAPADL
LX51 LINKER/LOCATER V4.66.100.0                                                       08/30/2023  14:49:07  PAGE 9


*SFR* 000000F6H   DATA     BYTE      IAPCTL
*SFR* 000000F5H   DATA     BYTE      IAPDAT
*SFR* 000000F1H   DATA     BYTE      IAPKEY
*SFR* 000000A8H   DATA     BYTE      IE
*SFR* 000000A9H   DATA     BYTE      IE1
*SFR* 000000AAH   DATA     BYTE      IE2
*SFR* 000000B4H   DATA     BYTE      INT0F
      01000EACH   CODE     ---       INT0Interrupt
*SFR* 000000BBH   DATA     BYTE      INT0R
      02000037H   XDATA    BYTE      INT1_flag
*SFR* 000000BCH   DATA     BYTE      INT1F
      01000CD2H   CODE     ---       INT1Interrupt
*SFR* 000000BDH   DATA     BYTE      INT1R
*SFR* 000000BEH   DATA     BYTE      INT2F
      01000EAFH   CODE     ---       INT2Interrupt
*SFR* 000000BFH   DATA     BYTE      INT2R
      01000CF3H   CODE     ---       IO_Init
*SFR* 00000096H   DATA     BYTE      IOHCON0
*SFR* 00000097H   DATA     BYTE      IOHCON1
*SFR* 000000B8H   DATA     BYTE      IP
*SFR* 000000B9H   DATA     BYTE      IP1
*SFR* 000000BAH   DATA     BYTE      IP2
*SFR* 000000B8H.6 DATA     BIT       IPADC
*SFR* 000000B8H.0 DATA     BIT       IPINT0
*SFR* 000000B8H.2 DATA     BIT       IPINT1
*SFR* 000000B8H.1 DATA     BIT       IPT0
*SFR* 000000B8H.3 DATA     BIT       IPT1
*SFR* 000000B8H.5 DATA     BIT       IPT2
*SFR* 000000B8H.4 DATA     BIT       IPUART
      02002000H   XDATA    ---       LCDRAM
      01000DF1H   CODE     ---       LED_Init
      01000E9FH   CODE     ---       LED_Test
      01000970H   CODE     ---       main
      010009D7H   CODE     ---       Multiplier_Divider_Test
*SFR* 000000EFH   DATA     BYTE      OPERCON
*SFR* 000000FEH   DATA     BYTE      OPINX
*SFR* 000000FFH   DATA     BYTE      OPREG
*SFR* 0000008FH   DATA     BYTE      OTCON
*SFR* 000000D0H.2 DATA     BIT       OV
*SFR* 000000D0H.0 DATA     BIT       P
*SFR* 00000080H   DATA     BYTE      P0
*SFR* 00000080H.0 DATA     BIT       P00
*SFR* 00000080H.1 DATA     BIT       P01
*SFR* 00000080H.2 DATA     BIT       P02
*SFR* 00000080H.3 DATA     BIT       P03
*SFR* 00000080H.4 DATA     BIT       P04
*SFR* 00000080H.5 DATA     BIT       P05
*SFR* 00000080H.6 DATA     BIT       P06
*SFR* 00000080H.7 DATA     BIT       P07
*SFR* 0000009AH   DATA     BYTE      P0CON
*SFR* 0000009BH   DATA     BYTE      P0PH
*SFR* 0000009CH   DATA     BYTE      P0VO
*SFR* 00000090H   DATA     BYTE      P1
*SFR* 00000090H.0 DATA     BIT       P10
*SFR* 00000090H.1 DATA     BIT       P11
*SFR* 00000090H.2 DATA     BIT       P12
*SFR* 00000090H.3 DATA     BIT       P13
*SFR* 00000090H.4 DATA     BIT       P14
*SFR* 00000090H.5 DATA     BIT       P15
*SFR* 00000090H.6 DATA     BIT       P16
*SFR* 00000090H.7 DATA     BIT       P17
*SFR* 00000091H   DATA     BYTE      P1CON
*SFR* 00000092H   DATA     BYTE      P1PH
*SFR* 00000094H   DATA     BYTE      P1VO
*SFR* 000000A0H   DATA     BYTE      P2
LX51 LINKER/LOCATER V4.66.100.0                                                       08/30/2023  14:49:07  PAGE 10


*SFR* 000000A0H.0 DATA     BIT       P20
*SFR* 000000A0H.1 DATA     BIT       P21
*SFR* 000000A0H.2 DATA     BIT       P22
*SFR* 000000A0H.3 DATA     BIT       P23
*SFR* 000000A0H.4 DATA     BIT       P24
*SFR* 000000A0H.5 DATA     BIT       P25
*SFR* 000000A0H.6 DATA     BIT       P26
*SFR* 000000A0H.7 DATA     BIT       P27
*SFR* 000000A1H   DATA     BYTE      P2CON
*SFR* 000000A2H   DATA     BYTE      P2PH
*SFR* 000000A3H   DATA     BYTE      P2VO
*SFR* 000000B0H   DATA     BYTE      P3
*SFR* 000000B0H.0 DATA     BIT       P30
*SFR* 000000B0H.1 DATA     BIT       P31
*SFR* 000000B0H.2 DATA     BIT       P32
*SFR* 000000B0H.3 DATA     BIT       P33
*SFR* 000000B0H.4 DATA     BIT       P34
*SFR* 000000B0H.5 DATA     BIT       P35
*SFR* 000000B0H.6 DATA     BIT       P36
*SFR* 000000B0H.7 DATA     BIT       P37
*SFR* 000000B1H   DATA     BYTE      P3CON
*SFR* 000000B2H   DATA     BYTE      P3PH
*SFR* 000000B3H   DATA     BYTE      P3VO
*SFR* 000000C0H   DATA     BYTE      P4
*SFR* 000000C0H.0 DATA     BIT       P40
*SFR* 000000C0H.1 DATA     BIT       P41
*SFR* 000000C0H.2 DATA     BIT       P42
*SFR* 000000C0H.3 DATA     BIT       P43
*SFR* 000000C0H.4 DATA     BIT       P44
*SFR* 000000C0H.5 DATA     BIT       P45
*SFR* 000000C0H.6 DATA     BIT       P46
*SFR* 000000C0H.7 DATA     BIT       P47
*SFR* 000000C1H   DATA     BYTE      P4CON
*SFR* 000000C2H   DATA     BYTE      P4PH
*SFR* 000000D8H   DATA     BYTE      P5
*SFR* 000000D8H.0 DATA     BIT       P50
*SFR* 000000D8H.1 DATA     BIT       P51
*SFR* 000000D8H.2 DATA     BIT       P52
*SFR* 000000D8H.3 DATA     BIT       P53
*SFR* 000000D8H.4 DATA     BIT       P54
*SFR* 000000D8H.5 DATA     BIT       P55
*SFR* 000000D9H   DATA     BYTE      P5CON
*SFR* 000000DAH   DATA     BYTE      P5PH
*SFR* 00000087H   DATA     BYTE      PCON
      02000035H   XDATA    ---       POINT
      0200001CH   XDATA    DWORD     product
*SFR* 000000D0H   DATA     BYTE      PSW
      01000E29H   CODE     ---       PWM0_Interrup
*DEL*:00000000H   CODE     ---       PWM_FLT_Init
      010004E8H   CODE     ---       PWM_Init
      01000EA4H   CODE     ---       PWM_Test
*SFR* 000000D1H   DATA     BYTE      PWMCFG
*SFR* 000000D2H   DATA     BYTE      PWMCON0
*SFR* 000000D3H   DATA     BYTE      PWMCON1
*SFR* 000000D6H   DATA     BYTE      PWMDFR
*SFR* 000000D7H   DATA     BYTE      PWMFLT
*SFR* 000000D5H   DATA     BYTE      PWMPDH
*SFR* 000000D4H   DATA     BYTE      PWMPDL
      02002034H   XDATA    ---       PWMREG
      01000E55H   CODE     ---       PxVO_Init
      02000018H   XDATA    DWORD     quotient
*SFR* 00000098H.2 DATA     BIT       RB8
*SFR* 000000CBH   DATA     BYTE      RCAPXH
*SFR* 000000CAH   DATA     BYTE      RCAPXL
*SFR* 000000C8H.5 DATA     BIT       RCLKX
LX51 LINKER/LOCATER V4.66.100.0                                                       08/30/2023  14:49:07  PAGE 11


      02000020H   XDATA    WORD      remainder
*SFR* 00000098H.4 DATA     BIT       REN
*SFR* 00000098H.0 DATA     BIT       RI
*SFR* 000000D0H.3 DATA     BIT       RS0
*SFR* 000000D0H.4 DATA     BIT       RS1
*SFR* 00000099H   DATA     BYTE      SBUF
*SFR* 00000098H   DATA     BYTE      SCON
*SFR* 00000098H.7 DATA     BIT       SM0
*SFR* 00000098H.6 DATA     BIT       SM1
*SFR* 00000098H.5 DATA     BIT       SM2
*SFR* 00000081H   DATA     BYTE      SP
      01000E05H   CODE     ---       SPI0_Init
      01000DAFH   CODE     ---       Spi0_Int
      00000020H.5 BIT      BIT       SPI0Flag
*DEL*:00000000H   CODE     ---       SPI1_Init
      00000021H.1 BIT      BIT       SPI1Flag
      01000D98H   CODE     ---       SPI3_Int
      01000D13H   CODE     ---       SPIX_Init
      00000020H.2 BIT      BIT       SPIXFlag
      01000D80H   CODE     ---       SSI0_Test
      01000D4CH   CODE     ---       SSI1_Test
      01000D31H   CODE     ---       SSIX_Test
*SFR* 00000098H.3 DATA     BIT       TB8
*SFR* 000000C8H.4 DATA     BIT       TCLKX
*SFR* 00000088H   DATA     BYTE      TCON
      02000010H   XDATA    DWORD     temp
*SFR* 00000088H.5 DATA     BIT       TF0
*SFR* 00000088H.7 DATA     BIT       TF1
*SFR* 000000C8H.7 DATA     BIT       TFX
*SFR* 0000008CH   DATA     BYTE      TH0
*SFR* 0000008DH   DATA     BYTE      TH1
*SFR* 000000CDH   DATA     BYTE      THX
*SFR* 00000098H.1 DATA     BIT       TI
      01000E6BH   CODE     ---       timer0
      01000EB2H   CODE     ---       timer1
      0100058FH   CODE     ---       Timer2Int
      01000E74H   CODE     ---       Timer3Int
      01000E7CH   CODE     ---       Timer4Int
      01000907H   CODE     ---       Timer_Init
      01000E9AH   CODE     ---       Timer_Test
*SFR* 0000008AH   DATA     BYTE      TL0
*SFR* 0000008BH   DATA     BYTE      TL1
*SFR* 000000CCH   DATA     BYTE      TLX
*SFR* 0000008EH   DATA     BYTE      TMCON
*SFR* 00000089H   DATA     BYTE      TMOD
*SFR* 00000088H.4 DATA     BIT       TR0
*SFR* 00000088H.6 DATA     BIT       TR1
*SFR* 000000C8H.2 DATA     BIT       TRX
*DEL*:00000000H   CODE     ---       TWI0_Init
      00000020H.6 BIT      BIT       TWI0Flag
*DEL*:00000000H   CODE     ---       TWI1_Init
      00000021H.2 BIT      BIT       TWI1Flag
*DEL*:00000000H   CODE     ---       TWIX_Init
      00000020H.3 BIT      BIT       TWIXFlag
*SFR* 000000C8H.1 DATA     BIT       TX
*SFR* 000000C8H   DATA     BYTE      TXCON
*SFR* 000000CEH   DATA     BYTE      TXINX
*SFR* 000000C9H   DATA     BYTE      TXMOD
      00000020H.4 BIT      BIT       Uart0ReceiveFlag
      00000020H.7 BIT      BIT       Uart0SendFlag
      01000D67H   CODE     ---       Uart1_Int
      00000021H.0 BIT      BIT       Uart1ReceiveFlag
      00000021H.3 BIT      BIT       Uart1SendFlag
      01000CACH   CODE     ---       Uart_Test
      01000E38H   CODE     ---       UartInt
LX51 LINKER/LOCATER V4.66.100.0                                                       08/30/2023  14:49:07  PAGE 12


      00000021H.5 BIT      BIT       UartReceiveFlag
      00000021H.4 BIT      BIT       UartSendFlag
      00000020H.1 BIT      BIT       UartXReceiveFlag
      00000020H.0 BIT      BIT       UartXSendFlag
*SFR* 00000095H   DATA     BYTE      US0CON0
*SFR* 0000009DH   DATA     BYTE      US0CON1
*SFR* 0000009EH   DATA     BYTE      US0CON2
*SFR* 0000009FH   DATA     BYTE      US0CON3
*SFR* 000000A4H   DATA     BYTE      US1CON0
*SFR* 000000A5H   DATA     BYTE      US1CON1
*SFR* 000000A6H   DATA     BYTE      US1CON2
*SFR* 000000A7H   DATA     BYTE      US1CON3
*SFR* 000000C4H   DATA     BYTE      USXCON0
*SFR* 000000C5H   DATA     BYTE      USXCON1
*SFR* 000000C6H   DATA     BYTE      USXCON2
*SFR* 000000C7H   DATA     BYTE      USXCON3
*SFR* 000000DCH   DATA     BYTE      USXINX
*SFR* 000000CFH   DATA     BYTE      WDTCON



SYMBOL TABLE OF MODULE:  .\Objects\Test (?C_STARTUP)

      VALUE       REP       CLASS    TYPE      SYMBOL NAME
      ====================================================
      ---         MODULE    ---      ---       ?C_STARTUP
      01000000H   PUBLIC    CODE     ---       ?C_STARTUP
      000000E0H   SYMBOL    DATA     ---       ACC
      000000F0H   SYMBOL    DATA     ---       B
      00000083H   SYMBOL    DATA     ---       DPH
      00000082H   SYMBOL    DATA     ---       DPL
      00000000H   SYMBOL    NUMBER   ---       IBPSTACK
      00000100H   SYMBOL    NUMBER   ---       IBPSTACKTOP
      00000100H   SYMBOL    NUMBER   ---       IDATALEN
      01000632H   SYMBOL    CODE     ---       IDATALOOP
      00000000H   SYMBOL    NUMBER   ---       PBPSTACK
      00000100H   SYMBOL    NUMBER   ---       PBPSTACKTOP
      00000000H   SYMBOL    NUMBER   ---       PDATALEN
      00000000H   SYMBOL    NUMBER   ---       PDATASTART
      00000000H   SYMBOL    NUMBER   ---       PPAGE
      00000000H   SYMBOL    NUMBER   ---       PPAGEENABLE
      000000A0H   SYMBOL    DATA     ---       PPAGE_SFR
      00000081H   SYMBOL    DATA     ---       SP
      0100062FH   SYMBOL    CODE     ---       STARTUP1
      00000000H   SYMBOL    NUMBER   ---       XBPSTACK
      00000000H   SYMBOL    NUMBER   ---       XBPSTACKTOP
      00000FFFH   SYMBOL    NUMBER   ---       XDATALEN
      0100063DH   SYMBOL    CODE     ---       XDATALOOP
      00000000H   SYMBOL    NUMBER   ---       XDATASTART
      01000000H   LINE      CODE     ---       #126
      0100062FH   LINE      CODE     ---       #133
      01000631H   LINE      CODE     ---       #134
      01000632H   LINE      CODE     ---       #135
      01000633H   LINE      CODE     ---       #136
      01000635H   LINE      CODE     ---       #140
      01000638H   LINE      CODE     ---       #141
      0100063AH   LINE      CODE     ---       #143
      0100063CH   LINE      CODE     ---       #147
      0100063DH   LINE      CODE     ---       #148
      0100063EH   LINE      CODE     ---       #149
      0100063FH   LINE      CODE     ---       #150
      01000641H   LINE      CODE     ---       #151
      01000643H   LINE      CODE     ---       #185
      01000646H   LINE      CODE     ---       #196

LX51 LINKER/LOCATER V4.66.100.0                                                       08/30/2023  14:49:07  PAGE 13


      ---         MODULE    ---      ---       MAIN
      01000970H   PUBLIC    CODE     ---       main
      000000C8H.2 SFRSYM    DATA     BIT       TRX
      000000FFH   SFRSYM    DATA     BYTE      OPREG
      00000080H   SFRSYM    DATA     BYTE      P0
      00000090H   SFRSYM    DATA     BYTE      P1
      000000A0H   SFRSYM    DATA     BYTE      P2
      000000A8H.4 SFRSYM    DATA     BIT       EUART
      0000008EH   SFRSYM    DATA     BYTE      TMCON
      000000B0H   SFRSYM    DATA     BYTE      P3
      000000D0H.6 SFRSYM    DATA     BIT       AC
      000000C0H   SFRSYM    DATA     BYTE      P4
      0000008FH   SFRSYM    DATA     BYTE      OTCON
      000000D8H   SFRSYM    DATA     BYTE      P5
      000000A8H.7 SFRSYM    DATA     BIT       EA
      000000C8H.5 SFRSYM    DATA     BIT       RCLKX
      000000D2H   SFRSYM    DATA     BYTE      PWMCON0
      000000C8H.4 SFRSYM    DATA     BIT       TCLKX
      000000D3H   SFRSYM    DATA     BYTE      PWMCON1
      000000C8H.3 SFRSYM    DATA     BIT       EXENX
      000000A8H.6 SFRSYM    DATA     BIT       EADC
      000000C9H   SFRSYM    DATA     BYTE      TXMOD
      000000C8H   SFRSYM    DATA     BYTE      TXCON
      000000A8H   SFRSYM    DATA     BYTE      IE
      00000085H   SFRSYM    DATA     BYTE      DPH1
      000000E9H   SFRSYM    DATA     BYTE      EXA0
      000000FEH   SFRSYM    DATA     BYTE      OPINX
      000000EAH   SFRSYM    DATA     BYTE      EXA1
      000000EBH   SFRSYM    DATA     BYTE      EXA2
      000000ECH   SFRSYM    DATA     BYTE      EXA3
      00000084H   SFRSYM    DATA     BYTE      DPL1
      000000C8H.0 SFRSYM    DATA     BIT       CP
      000000C4H   SFRSYM    DATA     BYTE      USXCON0
      000000C5H   SFRSYM    DATA     BYTE      USXCON1
      000000C6H   SFRSYM    DATA     BYTE      USXCON2
      000000C7H   SFRSYM    DATA     BYTE      USXCON3
      000000EFH   SFRSYM    DATA     BYTE      OPERCON
      0000009BH   SFRSYM    DATA     BYTE      P0PH
      000000B8H   SFRSYM    DATA     BYTE      IP
      00000092H   SFRSYM    DATA     BYTE      P1PH
      00000098H.0 SFRSYM    DATA     BIT       RI
      000000A2H   SFRSYM    DATA     BYTE      P2PH
      000000D0H.7 SFRSYM    DATA     BIT       CY
      000000B2H   SFRSYM    DATA     BYTE      P3PH
      00000098H.1 SFRSYM    DATA     BIT       TI
      000000CEH   SFRSYM    DATA     BYTE      TXINX
      000000C2H   SFRSYM    DATA     BYTE      P4PH
      000000B8H.1 SFRSYM    DATA     BIT       IPT0
      000000DAH   SFRSYM    DATA     BYTE      P5PH
      000000B8H.3 SFRSYM    DATA     BIT       IPT1
      000000B8H.5 SFRSYM    DATA     BIT       IPT2
      00000081H   SFRSYM    DATA     BYTE      SP
      000000D0H.2 SFRSYM    DATA     BIT       OV
      000000F4H   SFRSYM    DATA     BYTE      IAPADE
      0000009CH   SFRSYM    DATA     BYTE      P0VO
      00000094H   SFRSYM    DATA     BYTE      P1VO
      000000A3H   SFRSYM    DATA     BYTE      P2VO
      000000EEH   SFRSYM    DATA     BYTE      EXBH
      000000F3H   SFRSYM    DATA     BYTE      IAPADH
      000000B3H   SFRSYM    DATA     BYTE      P3VO
      000000ADH   SFRSYM    DATA     BYTE      ADCCON
      000000C8H.1 SFRSYM    DATA     BIT       TX
      000000EDH   SFRSYM    DATA     BYTE      EXBL
      000000F2H   SFRSYM    DATA     BYTE      IAPADL
      00000080H.0 SFRSYM    DATA     BIT       P00
LX51 LINKER/LOCATER V4.66.100.0                                                       08/30/2023  14:49:07  PAGE 14


      00000090H.0 SFRSYM    DATA     BIT       P10
      00000080H.1 SFRSYM    DATA     BIT       P01
      00000099H   SFRSYM    DATA     BYTE      SBUF
      00000087H   SFRSYM    DATA     BYTE      PCON
      000000A0H.0 SFRSYM    DATA     BIT       P20
      00000090H.1 SFRSYM    DATA     BIT       P11
      00000080H.2 SFRSYM    DATA     BIT       P02
      000000B6H   SFRSYM    DATA     BYTE      CMPCFG
      000000B0H.0 SFRSYM    DATA     BIT       P30
      000000A0H.1 SFRSYM    DATA     BIT       P21
      00000090H.2 SFRSYM    DATA     BIT       P12
      00000080H.3 SFRSYM    DATA     BIT       P03
      000000C0H.0 SFRSYM    DATA     BIT       P40
      000000B0H.1 SFRSYM    DATA     BIT       P31
      000000A0H.2 SFRSYM    DATA     BIT       P22
      00000090H.3 SFRSYM    DATA     BIT       P13
      00000080H.4 SFRSYM    DATA     BIT       P04
      00000098H   SFRSYM    DATA     BYTE      SCON
      000000D8H.0 SFRSYM    DATA     BIT       P50
      000000C0H.1 SFRSYM    DATA     BIT       P41
      000000B0H.2 SFRSYM    DATA     BIT       P32
      000000A0H.3 SFRSYM    DATA     BIT       P23
      00000090H.4 SFRSYM    DATA     BIT       P14
      00000080H.5 SFRSYM    DATA     BIT       P05
      000000F5H   SFRSYM    DATA     BYTE      IAPDAT
      00000089H   SFRSYM    DATA     BYTE      TMOD
      00000088H   SFRSYM    DATA     BYTE      TCON
      000000D8H.1 SFRSYM    DATA     BIT       P51
      000000C0H.2 SFRSYM    DATA     BIT       P42
      000000B0H.3 SFRSYM    DATA     BIT       P33
      000000A0H.4 SFRSYM    DATA     BIT       P24
      00000090H.5 SFRSYM    DATA     BIT       P15
      00000080H.6 SFRSYM    DATA     BIT       P06
      000000B8H.0 SFRSYM    DATA     BIT       IPINT0
      000000D8H.2 SFRSYM    DATA     BIT       P52
      000000C0H.3 SFRSYM    DATA     BIT       P43
      000000B0H.4 SFRSYM    DATA     BIT       P34
      000000A0H.5 SFRSYM    DATA     BIT       P25
      00000090H.6 SFRSYM    DATA     BIT       P16
      00000080H.7 SFRSYM    DATA     BIT       P07
      000000B8H.2 SFRSYM    DATA     BIT       IPINT1
      000000D8H.3 SFRSYM    DATA     BIT       P53
      000000C0H.4 SFRSYM    DATA     BIT       P44
      000000B0H.5 SFRSYM    DATA     BIT       P35
      000000A0H.6 SFRSYM    DATA     BIT       P26
      00000090H.7 SFRSYM    DATA     BIT       P17
      000000FDH   SFRSYM    DATA     BYTE      CRCREG
      000000D8H.4 SFRSYM    DATA     BIT       P54
      000000C0H.5 SFRSYM    DATA     BIT       P45
      000000B0H.6 SFRSYM    DATA     BIT       P36
      000000A0H.7 SFRSYM    DATA     BIT       P27
      000000D8H.5 SFRSYM    DATA     BIT       P55
      000000C0H.6 SFRSYM    DATA     BIT       P46
      000000B0H.7 SFRSYM    DATA     BIT       P37
      000000C0H.7 SFRSYM    DATA     BIT       P47
      000000C8H.6 SFRSYM    DATA     BIT       EXFX
      00000093H   SFRSYM    DATA     BYTE      DDRCON
      000000F6H   SFRSYM    DATA     BYTE      IAPCTL
      000000A9H   SFRSYM    DATA     BYTE      IE1
      000000AAH   SFRSYM    DATA     BYTE      IE2
      000000F0H   SFRSYM    DATA     BYTE      B
      000000B7H   SFRSYM    DATA     BYTE      CMPCON
      000000F1H   SFRSYM    DATA     BYTE      IAPKEY
      000000FBH   SFRSYM    DATA     BYTE      BTMCON
      000000D1H   SFRSYM    DATA     BYTE      PWMCFG
LX51 LINKER/LOCATER V4.66.100.0                                                       08/30/2023  14:49:07  PAGE 15


      000000E0H   SFRSYM    DATA     BYTE      ACC
      000000CBH   SFRSYM    DATA     BYTE      RCAPXH
      000000A8H.1 SFRSYM    DATA     BIT       ET0
      000000FCH   SFRSYM    DATA     BYTE      CRCINX
      00000088H.5 SFRSYM    DATA     BIT       TF0
      000000A8H.3 SFRSYM    DATA     BIT       ET1
      000000ABH   SFRSYM    DATA     BYTE      ADCCFG0
      000000B9H   SFRSYM    DATA     BYTE      IP1
      00000088H.7 SFRSYM    DATA     BIT       TF1
      000000A8H.5 SFRSYM    DATA     BIT       ET2
      000000ACH   SFRSYM    DATA     BYTE      ADCCFG1
      000000BAH   SFRSYM    DATA     BYTE      IP2
      00000098H.2 SFRSYM    DATA     BIT       RB8
      000000B5H   SFRSYM    DATA     BYTE      ADCCFG2
      000000CAH   SFRSYM    DATA     BYTE      RCAPXL
      0000008CH   SFRSYM    DATA     BYTE      TH0
      0000008DH   SFRSYM    DATA     BYTE      TH1
      00000098H.3 SFRSYM    DATA     BIT       TB8
      000000D0H.0 SFRSYM    DATA     BIT       P
      00000098H.7 SFRSYM    DATA     BIT       SM0
      0000008AH   SFRSYM    DATA     BYTE      TL0
      00000098H.6 SFRSYM    DATA     BIT       SM1
      000000CFH   SFRSYM    DATA     BYTE      WDTCON
      0000008BH   SFRSYM    DATA     BYTE      TL1
      00000098H.5 SFRSYM    DATA     BIT       SM2
      000000D6H   SFRSYM    DATA     BYTE      PWMDFR
      000000D5H   SFRSYM    DATA     BYTE      PWMPDH
      000000D0H.3 SFRSYM    DATA     BIT       RS0
      00000088H.4 SFRSYM    DATA     BIT       TR0
      000000D0H.4 SFRSYM    DATA     BIT       RS1
      000000D4H   SFRSYM    DATA     BYTE      PWMPDL
      00000088H.6 SFRSYM    DATA     BIT       TR1
      000000B8H.4 SFRSYM    DATA     BIT       IPUART
      000000D7H   SFRSYM    DATA     BYTE      PWMFLT
      00000083H   SFRSYM    DATA     BYTE      DPH
      00000082H   SFRSYM    DATA     BYTE      DPL
      000000A8H.0 SFRSYM    DATA     BIT       EINT0
      0000009AH   SFRSYM    DATA     BYTE      P0CON
      000000A8H.2 SFRSYM    DATA     BIT       EINT1
      000000B8H.6 SFRSYM    DATA     BIT       IPADC
      000000B4H   SFRSYM    DATA     BYTE      INT0F
      00000091H   SFRSYM    DATA     BYTE      P1CON
      000000BCH   SFRSYM    DATA     BYTE      INT1F
      000000A1H   SFRSYM    DATA     BYTE      P2CON
      000000BEH   SFRSYM    DATA     BYTE      INT2F
      000000B1H   SFRSYM    DATA     BYTE      P3CON
      00000098H.4 SFRSYM    DATA     BIT       REN
      000000C1H   SFRSYM    DATA     BYTE      P4CON
      000000D9H   SFRSYM    DATA     BYTE      P5CON
      000000AFH   SFRSYM    DATA     BYTE      ADCVH
      00000086H   SFRSYM    DATA     BYTE      DPS
      00000095H   SFRSYM    DATA     BYTE      US0CON0
      000000A4H   SFRSYM    DATA     BYTE      US1CON0
      0000009DH   SFRSYM    DATA     BYTE      US0CON1
      000000AEH   SFRSYM    DATA     BYTE      ADCVL
      000000F7H   SFRSYM    DATA     BYTE      EXADH
      000000A5H   SFRSYM    DATA     BYTE      US1CON1
      0000009EH   SFRSYM    DATA     BYTE      US0CON2
      000000A6H   SFRSYM    DATA     BYTE      US1CON2
      0000009FH   SFRSYM    DATA     BYTE      US0CON3
      000000A7H   SFRSYM    DATA     BYTE      US1CON3
      000000BBH   SFRSYM    DATA     BYTE      INT0R
      000000BDH   SFRSYM    DATA     BYTE      INT1R
      000000BFH   SFRSYM    DATA     BYTE      INT2R
      000000DCH   SFRSYM    DATA     BYTE      USXINX
LX51 LINKER/LOCATER V4.66.100.0                                                       08/30/2023  14:49:07  PAGE 16


      000000C8H.7 SFRSYM    DATA     BIT       TFX
      00000096H   SFRSYM    DATA     BYTE      IOHCON0
      00000097H   SFRSYM    DATA     BYTE      IOHCON1
      000000CDH   SFRSYM    DATA     BYTE      THX
      000000D0H.5 SFRSYM    DATA     BIT       F0
      000000D0H.1 SFRSYM    DATA     BIT       F1
      000000CCH   SFRSYM    DATA     BYTE      TLX
      000000D0H   SFRSYM    DATA     BYTE      PSW

      01000970H   BLOCK     CODE     ---       LVL=0
      01000970H   LINE      CODE     ---       #12
      01000970H   LINE      CODE     ---       #13
      01000970H   LINE      CODE     ---       #14
      01000973H   LINE      CODE     ---       #17
      010009ACH   LINE      CODE     ---       #18
      010009ACH   LINE      CODE     ---       #19
      010009AFH   LINE      CODE     ---       #20
      010009AFH   LINE      CODE     ---       #21
      010009B2H   LINE      CODE     ---       #22
      010009B2H   LINE      CODE     ---       #23
      010009B5H   LINE      CODE     ---       #24
      010009B5H   LINE      CODE     ---       #25
      010009B8H   LINE      CODE     ---       #26
      010009B8H   LINE      CODE     ---       #27
      010009BBH   LINE      CODE     ---       #28
      010009BBH   LINE      CODE     ---       #29
      010009BEH   LINE      CODE     ---       #30
      010009BEH   LINE      CODE     ---       #31
      010009C1H   LINE      CODE     ---       #32
      010009C1H   LINE      CODE     ---       #33
      010009C4H   LINE      CODE     ---       #34
      010009C4H   LINE      CODE     ---       #35
      010009C7H   LINE      CODE     ---       #36
      010009C7H   LINE      CODE     ---       #37
      010009CAH   LINE      CODE     ---       #38
      010009CAH   LINE      CODE     ---       #39
      010009CDH   LINE      CODE     ---       #40
      010009CDH   LINE      CODE     ---       #41
      010009D0H   LINE      CODE     ---       #42
      010009D0H   LINE      CODE     ---       #43
      010009D3H   LINE      CODE     ---       #44
      010009D3H   LINE      CODE     ---       #45
      010009D6H   LINE      CODE     ---       #46
      010009D6H   LINE      CODE     ---       #47
      010009D6H   LINE      CODE     ---       #48
      010009D6H   LINE      CODE     ---       #49
      010009D6H   LINE      CODE     ---       #50
      ---         BLOCKEND  ---      ---       LVL=0

      ---         MODULE    ---      ---       IO_INIT
      01000DDCH   PUBLIC    CODE     ---       _Delay
      01000CF3H   PUBLIC    CODE     ---       IO_Init
      000000C8H.2 SFRSYM    DATA     BIT       TRX
      000000FFH   SFRSYM    DATA     BYTE      OPREG
      00000080H   SFRSYM    DATA     BYTE      P0
      00000090H   SFRSYM    DATA     BYTE      P1
      000000A0H   SFRSYM    DATA     BYTE      P2
      000000A8H.4 SFRSYM    DATA     BIT       EUART
      0000008EH   SFRSYM    DATA     BYTE      TMCON
      000000B0H   SFRSYM    DATA     BYTE      P3
      000000D0H.6 SFRSYM    DATA     BIT       AC
      000000C0H   SFRSYM    DATA     BYTE      P4
      0000008FH   SFRSYM    DATA     BYTE      OTCON
      000000D8H   SFRSYM    DATA     BYTE      P5
      000000A8H.7 SFRSYM    DATA     BIT       EA
LX51 LINKER/LOCATER V4.66.100.0                                                       08/30/2023  14:49:07  PAGE 17


      000000C8H.5 SFRSYM    DATA     BIT       RCLKX
      000000D2H   SFRSYM    DATA     BYTE      PWMCON0
      000000C8H.4 SFRSYM    DATA     BIT       TCLKX
      000000D3H   SFRSYM    DATA     BYTE      PWMCON1
      000000C8H.3 SFRSYM    DATA     BIT       EXENX
      000000A8H.6 SFRSYM    DATA     BIT       EADC
      000000C9H   SFRSYM    DATA     BYTE      TXMOD
      000000C8H   SFRSYM    DATA     BYTE      TXCON
      000000A8H   SFRSYM    DATA     BYTE      IE
      00000085H   SFRSYM    DATA     BYTE      DPH1
      000000E9H   SFRSYM    DATA     BYTE      EXA0
      000000FEH   SFRSYM    DATA     BYTE      OPINX
      000000EAH   SFRSYM    DATA     BYTE      EXA1
      000000EBH   SFRSYM    DATA     BYTE      EXA2
      000000ECH   SFRSYM    DATA     BYTE      EXA3
      00000084H   SFRSYM    DATA     BYTE      DPL1
      000000C8H.0 SFRSYM    DATA     BIT       CP
      000000C4H   SFRSYM    DATA     BYTE      USXCON0
      000000C5H   SFRSYM    DATA     BYTE      USXCON1
      000000C6H   SFRSYM    DATA     BYTE      USXCON2
      000000C7H   SFRSYM    DATA     BYTE      USXCON3
      000000EFH   SFRSYM    DATA     BYTE      OPERCON
      0000009BH   SFRSYM    DATA     BYTE      P0PH
      000000B8H   SFRSYM    DATA     BYTE      IP
      00000092H   SFRSYM    DATA     BYTE      P1PH
      00000098H.0 SFRSYM    DATA     BIT       RI
      000000A2H   SFRSYM    DATA     BYTE      P2PH
      000000D0H.7 SFRSYM    DATA     BIT       CY
      000000B2H   SFRSYM    DATA     BYTE      P3PH
      00000098H.1 SFRSYM    DATA     BIT       TI
      000000CEH   SFRSYM    DATA     BYTE      TXINX
      000000C2H   SFRSYM    DATA     BYTE      P4PH
      000000B8H.1 SFRSYM    DATA     BIT       IPT0
      000000DAH   SFRSYM    DATA     BYTE      P5PH
      000000B8H.3 SFRSYM    DATA     BIT       IPT1
      000000B8H.5 SFRSYM    DATA     BIT       IPT2
      00000081H   SFRSYM    DATA     BYTE      SP
      000000D0H.2 SFRSYM    DATA     BIT       OV
      000000F4H   SFRSYM    DATA     BYTE      IAPADE
      0000009CH   SFRSYM    DATA     BYTE      P0VO
      00000094H   SFRSYM    DATA     BYTE      P1VO
      000000A3H   SFRSYM    DATA     BYTE      P2VO
      000000EEH   SFRSYM    DATA     BYTE      EXBH
      000000F3H   SFRSYM    DATA     BYTE      IAPADH
      000000B3H   SFRSYM    DATA     BYTE      P3VO
      000000ADH   SFRSYM    DATA     BYTE      ADCCON
      000000C8H.1 SFRSYM    DATA     BIT       TX
      000000EDH   SFRSYM    DATA     BYTE      EXBL
      000000F2H   SFRSYM    DATA     BYTE      IAPADL
      00000080H.0 SFRSYM    DATA     BIT       P00
      00000090H.0 SFRSYM    DATA     BIT       P10
      00000080H.1 SFRSYM    DATA     BIT       P01
      00000099H   SFRSYM    DATA     BYTE      SBUF
      00000087H   SFRSYM    DATA     BYTE      PCON
      000000A0H.0 SFRSYM    DATA     BIT       P20
      00000090H.1 SFRSYM    DATA     BIT       P11
      00000080H.2 SFRSYM    DATA     BIT       P02
      000000B6H   SFRSYM    DATA     BYTE      CMPCFG
      000000B0H.0 SFRSYM    DATA     BIT       P30
      000000A0H.1 SFRSYM    DATA     BIT       P21
      00000090H.2 SFRSYM    DATA     BIT       P12
      00000080H.3 SFRSYM    DATA     BIT       P03
      000000C0H.0 SFRSYM    DATA     BIT       P40
      000000B0H.1 SFRSYM    DATA     BIT       P31
      000000A0H.2 SFRSYM    DATA     BIT       P22
LX51 LINKER/LOCATER V4.66.100.0                                                       08/30/2023  14:49:07  PAGE 18


      00000090H.3 SFRSYM    DATA     BIT       P13
      00000080H.4 SFRSYM    DATA     BIT       P04
      00000098H   SFRSYM    DATA     BYTE      SCON
      000000D8H.0 SFRSYM    DATA     BIT       P50
      000000C0H.1 SFRSYM    DATA     BIT       P41
      000000B0H.2 SFRSYM    DATA     BIT       P32
      000000A0H.3 SFRSYM    DATA     BIT       P23
      00000090H.4 SFRSYM    DATA     BIT       P14
      00000080H.5 SFRSYM    DATA     BIT       P05
      000000F5H   SFRSYM    DATA     BYTE      IAPDAT
      00000089H   SFRSYM    DATA     BYTE      TMOD
      00000088H   SFRSYM    DATA     BYTE      TCON
      000000D8H.1 SFRSYM    DATA     BIT       P51
      000000C0H.2 SFRSYM    DATA     BIT       P42
      000000B0H.3 SFRSYM    DATA     BIT       P33
      000000A0H.4 SFRSYM    DATA     BIT       P24
      00000090H.5 SFRSYM    DATA     BIT       P15
      00000080H.6 SFRSYM    DATA     BIT       P06
      000000B8H.0 SFRSYM    DATA     BIT       IPINT0
      000000D8H.2 SFRSYM    DATA     BIT       P52
      000000C0H.3 SFRSYM    DATA     BIT       P43
      000000B0H.4 SFRSYM    DATA     BIT       P34
      000000A0H.5 SFRSYM    DATA     BIT       P25
      00000090H.6 SFRSYM    DATA     BIT       P16
      00000080H.7 SFRSYM    DATA     BIT       P07
      000000B8H.2 SFRSYM    DATA     BIT       IPINT1
      000000D8H.3 SFRSYM    DATA     BIT       P53
      000000C0H.4 SFRSYM    DATA     BIT       P44
      000000B0H.5 SFRSYM    DATA     BIT       P35
      000000A0H.6 SFRSYM    DATA     BIT       P26
      00000090H.7 SFRSYM    DATA     BIT       P17
      000000FDH   SFRSYM    DATA     BYTE      CRCREG
      000000D8H.4 SFRSYM    DATA     BIT       P54
      000000C0H.5 SFRSYM    DATA     BIT       P45
      000000B0H.6 SFRSYM    DATA     BIT       P36
      000000A0H.7 SFRSYM    DATA     BIT       P27
      000000D8H.5 SFRSYM    DATA     BIT       P55
      000000C0H.6 SFRSYM    DATA     BIT       P46
      000000B0H.7 SFRSYM    DATA     BIT       P37
      000000C0H.7 SFRSYM    DATA     BIT       P47
      000000C8H.6 SFRSYM    DATA     BIT       EXFX
      00000093H   SFRSYM    DATA     BYTE      DDRCON
      000000F6H   SFRSYM    DATA     BYTE      IAPCTL
      000000A9H   SFRSYM    DATA     BYTE      IE1
      000000AAH   SFRSYM    DATA     BYTE      IE2
      000000F0H   SFRSYM    DATA     BYTE      B
      000000B7H   SFRSYM    DATA     BYTE      CMPCON
      000000F1H   SFRSYM    DATA     BYTE      IAPKEY
      000000FBH   SFRSYM    DATA     BYTE      BTMCON
      000000D1H   SFRSYM    DATA     BYTE      PWMCFG
      000000E0H   SFRSYM    DATA     BYTE      ACC
      000000CBH   SFRSYM    DATA     BYTE      RCAPXH
      000000A8H.1 SFRSYM    DATA     BIT       ET0
      000000FCH   SFRSYM    DATA     BYTE      CRCINX
      00000088H.5 SFRSYM    DATA     BIT       TF0
      000000A8H.3 SFRSYM    DATA     BIT       ET1
      000000ABH   SFRSYM    DATA     BYTE      ADCCFG0
      000000B9H   SFRSYM    DATA     BYTE      IP1
      00000088H.7 SFRSYM    DATA     BIT       TF1
      000000A8H.5 SFRSYM    DATA     BIT       ET2
      000000ACH   SFRSYM    DATA     BYTE      ADCCFG1
      000000BAH   SFRSYM    DATA     BYTE      IP2
      00000098H.2 SFRSYM    DATA     BIT       RB8
      000000B5H   SFRSYM    DATA     BYTE      ADCCFG2
      000000CAH   SFRSYM    DATA     BYTE      RCAPXL
LX51 LINKER/LOCATER V4.66.100.0                                                       08/30/2023  14:49:07  PAGE 19


      0000008CH   SFRSYM    DATA     BYTE      TH0
      0000008DH   SFRSYM    DATA     BYTE      TH1
      00000098H.3 SFRSYM    DATA     BIT       TB8
      000000D0H.0 SFRSYM    DATA     BIT       P
      00000098H.7 SFRSYM    DATA     BIT       SM0
      0000008AH   SFRSYM    DATA     BYTE      TL0
      00000098H.6 SFRSYM    DATA     BIT       SM1
      000000CFH   SFRSYM    DATA     BYTE      WDTCON
      0000008BH   SFRSYM    DATA     BYTE      TL1
      00000098H.5 SFRSYM    DATA     BIT       SM2
      000000D6H   SFRSYM    DATA     BYTE      PWMDFR
      000000D5H   SFRSYM    DATA     BYTE      PWMPDH
      000000D0H.3 SFRSYM    DATA     BIT       RS0
      00000088H.4 SFRSYM    DATA     BIT       TR0
      000000D0H.4 SFRSYM    DATA     BIT       RS1
      000000D4H   SFRSYM    DATA     BYTE      PWMPDL
      00000088H.6 SFRSYM    DATA     BIT       TR1
      000000B8H.4 SFRSYM    DATA     BIT       IPUART
      000000D7H   SFRSYM    DATA     BYTE      PWMFLT
      00000083H   SFRSYM    DATA     BYTE      DPH
      00000082H   SFRSYM    DATA     BYTE      DPL
      000000A8H.0 SFRSYM    DATA     BIT       EINT0
      0000009AH   SFRSYM    DATA     BYTE      P0CON
      000000A8H.2 SFRSYM    DATA     BIT       EINT1
      000000B8H.6 SFRSYM    DATA     BIT       IPADC
      000000B4H   SFRSYM    DATA     BYTE      INT0F
      00000091H   SFRSYM    DATA     BYTE      P1CON
      000000BCH   SFRSYM    DATA     BYTE      INT1F
      000000A1H   SFRSYM    DATA     BYTE      P2CON
      000000BEH   SFRSYM    DATA     BYTE      INT2F
      000000B1H   SFRSYM    DATA     BYTE      P3CON
      00000098H.4 SFRSYM    DATA     BIT       REN
      000000C1H   SFRSYM    DATA     BYTE      P4CON
      000000D9H   SFRSYM    DATA     BYTE      P5CON
      000000AFH   SFRSYM    DATA     BYTE      ADCVH
      00000086H   SFRSYM    DATA     BYTE      DPS
      00000095H   SFRSYM    DATA     BYTE      US0CON0
      000000A4H   SFRSYM    DATA     BYTE      US1CON0
      0000009DH   SFRSYM    DATA     BYTE      US0CON1
      000000AEH   SFRSYM    DATA     BYTE      ADCVL
      000000F7H   SFRSYM    DATA     BYTE      EXADH
      000000A5H   SFRSYM    DATA     BYTE      US1CON1
      0000009EH   SFRSYM    DATA     BYTE      US0CON2
      000000A6H   SFRSYM    DATA     BYTE      US1CON2
      0000009FH   SFRSYM    DATA     BYTE      US0CON3
      000000A7H   SFRSYM    DATA     BYTE      US1CON3
      000000BBH   SFRSYM    DATA     BYTE      INT0R
      000000BDH   SFRSYM    DATA     BYTE      INT1R
      000000BFH   SFRSYM    DATA     BYTE      INT2R
      000000DCH   SFRSYM    DATA     BYTE      USXINX
      000000C8H.7 SFRSYM    DATA     BIT       TFX
      00000096H   SFRSYM    DATA     BYTE      IOHCON0
      00000097H   SFRSYM    DATA     BYTE      IOHCON1
      000000CDH   SFRSYM    DATA     BYTE      THX
      000000D0H.5 SFRSYM    DATA     BIT       F0
      000000D0H.1 SFRSYM    DATA     BIT       F1
      000000CCH   SFRSYM    DATA     BYTE      TLX
      000000D0H   SFRSYM    DATA     BYTE      PSW

      01000CF3H   BLOCK     CODE     ---       LVL=0
      01000CF3H   LINE      CODE     ---       #8
      01000CF3H   LINE      CODE     ---       #9
      01000CF3H   LINE      CODE     ---       #11
      01000CF6H   LINE      CODE     ---       #12
      01000CF9H   LINE      CODE     ---       #13
LX51 LINKER/LOCATER V4.66.100.0                                                       08/30/2023  14:49:07  PAGE 20


      01000CFBH   LINE      CODE     ---       #14
      01000CFDH   LINE      CODE     ---       #15
      01000CFFH   LINE      CODE     ---       #16
      01000D02H   LINE      CODE     ---       #17
      01000D05H   LINE      CODE     ---       #18
      01000D07H   LINE      CODE     ---       #19
      01000D0AH   LINE      CODE     ---       #20
      01000D0DH   LINE      CODE     ---       #21
      01000D10H   LINE      CODE     ---       #22
      01000D12H   LINE      CODE     ---       #84
      ---         BLOCKEND  ---      ---       LVL=0

      01000DDCH   BLOCK     CODE     ---       LVL=0
      02000022H   SYMBOL    XDATA    DWORD     time
      01000DDCH   LINE      CODE     ---       #86
      01000DE2H   LINE      CODE     ---       #87
      01000DE2H   LINE      CODE     ---       #88
      01000DF0H   LINE      CODE     ---       #89
      ---         BLOCKEND  ---      ---       LVL=0

      ---         MODULE    ---      ---       BTM
      01000EA9H   PUBLIC    CODE     ---       BTM_Int
      01000E62H   PUBLIC    CODE     ---       BTM_Init
      01000E90H   PUBLIC    CODE     ---       BTM_Test
      000000C8H.2 SFRSYM    DATA     BIT       TRX
      000000FFH   SFRSYM    DATA     BYTE      OPREG
      00000080H   SFRSYM    DATA     BYTE      P0
      00000090H   SFRSYM    DATA     BYTE      P1
      000000A0H   SFRSYM    DATA     BYTE      P2
      000000A8H.4 SFRSYM    DATA     BIT       EUART
      0000008EH   SFRSYM    DATA     BYTE      TMCON
      000000B0H   SFRSYM    DATA     BYTE      P3
      000000D0H.6 SFRSYM    DATA     BIT       AC
      000000C0H   SFRSYM    DATA     BYTE      P4
      0000008FH   SFRSYM    DATA     BYTE      OTCON
      000000D8H   SFRSYM    DATA     BYTE      P5
      000000A8H.7 SFRSYM    DATA     BIT       EA
      000000C8H.5 SFRSYM    DATA     BIT       RCLKX
      000000D2H   SFRSYM    DATA     BYTE      PWMCON0
      000000C8H.4 SFRSYM    DATA     BIT       TCLKX
      000000D3H   SFRSYM    DATA     BYTE      PWMCON1
      000000C8H.3 SFRSYM    DATA     BIT       EXENX
      000000A8H.6 SFRSYM    DATA     BIT       EADC
      000000C9H   SFRSYM    DATA     BYTE      TXMOD
      000000C8H   SFRSYM    DATA     BYTE      TXCON
      000000A8H   SFRSYM    DATA     BYTE      IE
      00000085H   SFRSYM    DATA     BYTE      DPH1
      000000E9H   SFRSYM    DATA     BYTE      EXA0
      000000FEH   SFRSYM    DATA     BYTE      OPINX
      000000EAH   SFRSYM    DATA     BYTE      EXA1
      000000EBH   SFRSYM    DATA     BYTE      EXA2
      000000ECH   SFRSYM    DATA     BYTE      EXA3
      00000084H   SFRSYM    DATA     BYTE      DPL1
      000000C8H.0 SFRSYM    DATA     BIT       CP
      000000C4H   SFRSYM    DATA     BYTE      USXCON0
      000000C5H   SFRSYM    DATA     BYTE      USXCON1
      000000C6H   SFRSYM    DATA     BYTE      USXCON2
      000000C7H   SFRSYM    DATA     BYTE      USXCON3
      000000EFH   SFRSYM    DATA     BYTE      OPERCON
      0000009BH   SFRSYM    DATA     BYTE      P0PH
      000000B8H   SFRSYM    DATA     BYTE      IP
      00000092H   SFRSYM    DATA     BYTE      P1PH
      00000098H.0 SFRSYM    DATA     BIT       RI
      000000A2H   SFRSYM    DATA     BYTE      P2PH
      000000D0H.7 SFRSYM    DATA     BIT       CY
LX51 LINKER/LOCATER V4.66.100.0                                                       08/30/2023  14:49:07  PAGE 21


      000000B2H   SFRSYM    DATA     BYTE      P3PH
      00000098H.1 SFRSYM    DATA     BIT       TI
      000000CEH   SFRSYM    DATA     BYTE      TXINX
      000000C2H   SFRSYM    DATA     BYTE      P4PH
      000000B8H.1 SFRSYM    DATA     BIT       IPT0
      000000DAH   SFRSYM    DATA     BYTE      P5PH
      000000B8H.3 SFRSYM    DATA     BIT       IPT1
      000000B8H.5 SFRSYM    DATA     BIT       IPT2
      00000081H   SFRSYM    DATA     BYTE      SP
      000000D0H.2 SFRSYM    DATA     BIT       OV
      000000F4H   SFRSYM    DATA     BYTE      IAPADE
      0000009CH   SFRSYM    DATA     BYTE      P0VO
      00000094H   SFRSYM    DATA     BYTE      P1VO
      000000A3H   SFRSYM    DATA     BYTE      P2VO
      000000EEH   SFRSYM    DATA     BYTE      EXBH
      000000F3H   SFRSYM    DATA     BYTE      IAPADH
      000000B3H   SFRSYM    DATA     BYTE      P3VO
      000000ADH   SFRSYM    DATA     BYTE      ADCCON
      000000C8H.1 SFRSYM    DATA     BIT       TX
      000000EDH   SFRSYM    DATA     BYTE      EXBL
      000000F2H   SFRSYM    DATA     BYTE      IAPADL
      00000080H.0 SFRSYM    DATA     BIT       P00
      00000090H.0 SFRSYM    DATA     BIT       P10
      00000080H.1 SFRSYM    DATA     BIT       P01
      00000099H   SFRSYM    DATA     BYTE      SBUF
      00000087H   SFRSYM    DATA     BYTE      PCON
      000000A0H.0 SFRSYM    DATA     BIT       P20
      00000090H.1 SFRSYM    DATA     BIT       P11
      00000080H.2 SFRSYM    DATA     BIT       P02
      000000B6H   SFRSYM    DATA     BYTE      CMPCFG
      000000B0H.0 SFRSYM    DATA     BIT       P30
      000000A0H.1 SFRSYM    DATA     BIT       P21
      00000090H.2 SFRSYM    DATA     BIT       P12
      00000080H.3 SFRSYM    DATA     BIT       P03
      000000C0H.0 SFRSYM    DATA     BIT       P40
      000000B0H.1 SFRSYM    DATA     BIT       P31
      000000A0H.2 SFRSYM    DATA     BIT       P22
      00000090H.3 SFRSYM    DATA     BIT       P13
      00000080H.4 SFRSYM    DATA     BIT       P04
      00000098H   SFRSYM    DATA     BYTE      SCON
      000000D8H.0 SFRSYM    DATA     BIT       P50
      000000C0H.1 SFRSYM    DATA     BIT       P41
      000000B0H.2 SFRSYM    DATA     BIT       P32
      000000A0H.3 SFRSYM    DATA     BIT       P23
      00000090H.4 SFRSYM    DATA     BIT       P14
      00000080H.5 SFRSYM    DATA     BIT       P05
      000000F5H   SFRSYM    DATA     BYTE      IAPDAT
      00000089H   SFRSYM    DATA     BYTE      TMOD
      00000088H   SFRSYM    DATA     BYTE      TCON
      000000D8H.1 SFRSYM    DATA     BIT       P51
      000000C0H.2 SFRSYM    DATA     BIT       P42
      000000B0H.3 SFRSYM    DATA     BIT       P33
      000000A0H.4 SFRSYM    DATA     BIT       P24
      00000090H.5 SFRSYM    DATA     BIT       P15
      00000080H.6 SFRSYM    DATA     BIT       P06
      000000B8H.0 SFRSYM    DATA     BIT       IPINT0
      000000D8H.2 SFRSYM    DATA     BIT       P52
      000000C0H.3 SFRSYM    DATA     BIT       P43
      000000B0H.4 SFRSYM    DATA     BIT       P34
      000000A0H.5 SFRSYM    DATA     BIT       P25
      00000090H.6 SFRSYM    DATA     BIT       P16
      00000080H.7 SFRSYM    DATA     BIT       P07
      000000B8H.2 SFRSYM    DATA     BIT       IPINT1
      000000D8H.3 SFRSYM    DATA     BIT       P53
      000000C0H.4 SFRSYM    DATA     BIT       P44
LX51 LINKER/LOCATER V4.66.100.0                                                       08/30/2023  14:49:07  PAGE 22


      000000B0H.5 SFRSYM    DATA     BIT       P35
      000000A0H.6 SFRSYM    DATA     BIT       P26
      00000090H.7 SFRSYM    DATA     BIT       P17
      000000FDH   SFRSYM    DATA     BYTE      CRCREG
      000000D8H.4 SFRSYM    DATA     BIT       P54
      000000C0H.5 SFRSYM    DATA     BIT       P45
      000000B0H.6 SFRSYM    DATA     BIT       P36
      000000A0H.7 SFRSYM    DATA     BIT       P27
      000000D8H.5 SFRSYM    DATA     BIT       P55
      000000C0H.6 SFRSYM    DATA     BIT       P46
      000000B0H.7 SFRSYM    DATA     BIT       P37
      000000C0H.7 SFRSYM    DATA     BIT       P47
      000000C8H.6 SFRSYM    DATA     BIT       EXFX
      00000093H   SFRSYM    DATA     BYTE      DDRCON
      000000F6H   SFRSYM    DATA     BYTE      IAPCTL
      000000A9H   SFRSYM    DATA     BYTE      IE1
      000000AAH   SFRSYM    DATA     BYTE      IE2
      000000F0H   SFRSYM    DATA     BYTE      B
      000000B7H   SFRSYM    DATA     BYTE      CMPCON
      000000F1H   SFRSYM    DATA     BYTE      IAPKEY
      000000FBH   SFRSYM    DATA     BYTE      BTMCON
      000000D1H   SFRSYM    DATA     BYTE      PWMCFG
      000000E0H   SFRSYM    DATA     BYTE      ACC
      000000CBH   SFRSYM    DATA     BYTE      RCAPXH
      000000A8H.1 SFRSYM    DATA     BIT       ET0
      000000FCH   SFRSYM    DATA     BYTE      CRCINX
      00000088H.5 SFRSYM    DATA     BIT       TF0
      000000A8H.3 SFRSYM    DATA     BIT       ET1
      000000ABH   SFRSYM    DATA     BYTE      ADCCFG0
      000000B9H   SFRSYM    DATA     BYTE      IP1
      00000088H.7 SFRSYM    DATA     BIT       TF1
      000000A8H.5 SFRSYM    DATA     BIT       ET2
      000000ACH   SFRSYM    DATA     BYTE      ADCCFG1
      000000BAH   SFRSYM    DATA     BYTE      IP2
      00000098H.2 SFRSYM    DATA     BIT       RB8
      000000B5H   SFRSYM    DATA     BYTE      ADCCFG2
      000000CAH   SFRSYM    DATA     BYTE      RCAPXL
      0000008CH   SFRSYM    DATA     BYTE      TH0
      0000008DH   SFRSYM    DATA     BYTE      TH1
      00000098H.3 SFRSYM    DATA     BIT       TB8
      000000D0H.0 SFRSYM    DATA     BIT       P
      00000098H.7 SFRSYM    DATA     BIT       SM0
      0000008AH   SFRSYM    DATA     BYTE      TL0
      00000098H.6 SFRSYM    DATA     BIT       SM1
      000000CFH   SFRSYM    DATA     BYTE      WDTCON
      0000008BH   SFRSYM    DATA     BYTE      TL1
      00000098H.5 SFRSYM    DATA     BIT       SM2
      000000D6H   SFRSYM    DATA     BYTE      PWMDFR
      000000D5H   SFRSYM    DATA     BYTE      PWMPDH
      000000D0H.3 SFRSYM    DATA     BIT       RS0
      00000088H.4 SFRSYM    DATA     BIT       TR0
      000000D0H.4 SFRSYM    DATA     BIT       RS1
      000000D4H   SFRSYM    DATA     BYTE      PWMPDL
      00000088H.6 SFRSYM    DATA     BIT       TR1
      000000B8H.4 SFRSYM    DATA     BIT       IPUART
      000000D7H   SFRSYM    DATA     BYTE      PWMFLT
      00000083H   SFRSYM    DATA     BYTE      DPH
      00000082H   SFRSYM    DATA     BYTE      DPL
      000000A8H.0 SFRSYM    DATA     BIT       EINT0
      0000009AH   SFRSYM    DATA     BYTE      P0CON
      000000A8H.2 SFRSYM    DATA     BIT       EINT1
      000000B8H.6 SFRSYM    DATA     BIT       IPADC
      000000B4H   SFRSYM    DATA     BYTE      INT0F
      00000091H   SFRSYM    DATA     BYTE      P1CON
      000000BCH   SFRSYM    DATA     BYTE      INT1F
LX51 LINKER/LOCATER V4.66.100.0                                                       08/30/2023  14:49:07  PAGE 23


      000000A1H   SFRSYM    DATA     BYTE      P2CON
      000000BEH   SFRSYM    DATA     BYTE      INT2F
      000000B1H   SFRSYM    DATA     BYTE      P3CON
      00000098H.4 SFRSYM    DATA     BIT       REN
      000000C1H   SFRSYM    DATA     BYTE      P4CON
      000000D9H   SFRSYM    DATA     BYTE      P5CON
      000000AFH   SFRSYM    DATA     BYTE      ADCVH
      00000086H   SFRSYM    DATA     BYTE      DPS
      00000095H   SFRSYM    DATA     BYTE      US0CON0
      000000A4H   SFRSYM    DATA     BYTE      US1CON0
      0000009DH   SFRSYM    DATA     BYTE      US0CON1
      000000AEH   SFRSYM    DATA     BYTE      ADCVL
      000000F7H   SFRSYM    DATA     BYTE      EXADH
      000000A5H   SFRSYM    DATA     BYTE      US1CON1
      0000009EH   SFRSYM    DATA     BYTE      US0CON2
      000000A6H   SFRSYM    DATA     BYTE      US1CON2
      0000009FH   SFRSYM    DATA     BYTE      US0CON3
      000000A7H   SFRSYM    DATA     BYTE      US1CON3
      000000BBH   SFRSYM    DATA     BYTE      INT0R
      000000BDH   SFRSYM    DATA     BYTE      INT1R
      000000BFH   SFRSYM    DATA     BYTE      INT2R
      000000DCH   SFRSYM    DATA     BYTE      USXINX
      000000C8H.7 SFRSYM    DATA     BIT       TFX
      00000096H   SFRSYM    DATA     BYTE      IOHCON0
      00000097H   SFRSYM    DATA     BYTE      IOHCON1
      000000CDH   SFRSYM    DATA     BYTE      THX
      000000D0H.5 SFRSYM    DATA     BIT       F0
      000000D0H.1 SFRSYM    DATA     BIT       F1
      000000CCH   SFRSYM    DATA     BYTE      TLX
      000000D0H   SFRSYM    DATA     BYTE      PSW

      01000E90H   BLOCK     CODE     ---       LVL=0
      01000E90H   LINE      CODE     ---       #11
      01000E90H   LINE      CODE     ---       #12
      01000E90H   LINE      CODE     ---       #13
      01000E93H   LINE      CODE     ---       #14
      01000E93H   LINE      CODE     ---       #15
      01000E93H   LINE      CODE     ---       #16
      ---         BLOCKEND  ---      ---       LVL=0

      01000E62H   BLOCK     CODE     ---       LVL=0
      01000E62H   LINE      CODE     ---       #25
      01000E62H   LINE      CODE     ---       #26
      01000E62H   LINE      CODE     ---       #32
      01000E65H   LINE      CODE     ---       #40
      01000E68H   LINE      CODE     ---       #41
      01000E6AH   LINE      CODE     ---       #43
      ---         BLOCKEND  ---      ---       LVL=0

      01000EA9H   BLOCK     CODE     ---       LVL=0
      01000EA9H   LINE      CODE     ---       #51
      01000EA9H   LINE      CODE     ---       #53
      01000EABH   LINE      CODE     ---       #54
      ---         BLOCKEND  ---      ---       LVL=0

      ---         MODULE    ---      ---       EX_INIT
      02000037H   PUBLIC    XDATA    BYTE      INT1_flag
      01000EAFH   PUBLIC    CODE     ---       INT2Interrupt
      01000CD2H   PUBLIC    CODE     ---       INT1Interrupt
      01000EACH   PUBLIC    CODE     ---       INT0Interrupt
      01000C54H   PUBLIC    CODE     ---       EX_Init
      01000E95H   PUBLIC    CODE     ---       EXTI_Test
      000000C8H.2 SFRSYM    DATA     BIT       TRX
      000000FFH   SFRSYM    DATA     BYTE      OPREG
      00000080H   SFRSYM    DATA     BYTE      P0
LX51 LINKER/LOCATER V4.66.100.0                                                       08/30/2023  14:49:07  PAGE 24


      00000090H   SFRSYM    DATA     BYTE      P1
      000000A0H   SFRSYM    DATA     BYTE      P2
      000000A8H.4 SFRSYM    DATA     BIT       EUART
      0000008EH   SFRSYM    DATA     BYTE      TMCON
      000000B0H   SFRSYM    DATA     BYTE      P3
      000000D0H.6 SFRSYM    DATA     BIT       AC
      000000C0H   SFRSYM    DATA     BYTE      P4
      0000008FH   SFRSYM    DATA     BYTE      OTCON
      000000D8H   SFRSYM    DATA     BYTE      P5
      000000A8H.7 SFRSYM    DATA     BIT       EA
      000000C8H.5 SFRSYM    DATA     BIT       RCLKX
      000000D2H   SFRSYM    DATA     BYTE      PWMCON0
      000000C8H.4 SFRSYM    DATA     BIT       TCLKX
      000000D3H   SFRSYM    DATA     BYTE      PWMCON1
      000000C8H.3 SFRSYM    DATA     BIT       EXENX
      000000A8H.6 SFRSYM    DATA     BIT       EADC
      000000C9H   SFRSYM    DATA     BYTE      TXMOD
      000000C8H   SFRSYM    DATA     BYTE      TXCON
      000000A8H   SFRSYM    DATA     BYTE      IE
      00000085H   SFRSYM    DATA     BYTE      DPH1
      000000E9H   SFRSYM    DATA     BYTE      EXA0
      000000FEH   SFRSYM    DATA     BYTE      OPINX
      000000EAH   SFRSYM    DATA     BYTE      EXA1
      000000EBH   SFRSYM    DATA     BYTE      EXA2
      000000ECH   SFRSYM    DATA     BYTE      EXA3
      00000084H   SFRSYM    DATA     BYTE      DPL1
      000000C8H.0 SFRSYM    DATA     BIT       CP
      000000C4H   SFRSYM    DATA     BYTE      USXCON0
      000000C5H   SFRSYM    DATA     BYTE      USXCON1
      000000C6H   SFRSYM    DATA     BYTE      USXCON2
      000000C7H   SFRSYM    DATA     BYTE      USXCON3
      000000EFH   SFRSYM    DATA     BYTE      OPERCON
      0000009BH   SFRSYM    DATA     BYTE      P0PH
      000000B8H   SFRSYM    DATA     BYTE      IP
      00000092H   SFRSYM    DATA     BYTE      P1PH
      00000098H.0 SFRSYM    DATA     BIT       RI
      000000A2H   SFRSYM    DATA     BYTE      P2PH
      000000D0H.7 SFRSYM    DATA     BIT       CY
      000000B2H   SFRSYM    DATA     BYTE      P3PH
      00000098H.1 SFRSYM    DATA     BIT       TI
      000000CEH   SFRSYM    DATA     BYTE      TXINX
      000000C2H   SFRSYM    DATA     BYTE      P4PH
      000000B8H.1 SFRSYM    DATA     BIT       IPT0
      000000DAH   SFRSYM    DATA     BYTE      P5PH
      000000B8H.3 SFRSYM    DATA     BIT       IPT1
      000000B8H.5 SFRSYM    DATA     BIT       IPT2
      00000081H   SFRSYM    DATA     BYTE      SP
      000000D0H.2 SFRSYM    DATA     BIT       OV
      000000F4H   SFRSYM    DATA     BYTE      IAPADE
      0000009CH   SFRSYM    DATA     BYTE      P0VO
      00000094H   SFRSYM    DATA     BYTE      P1VO
      000000A3H   SFRSYM    DATA     BYTE      P2VO
      000000EEH   SFRSYM    DATA     BYTE      EXBH
      000000F3H   SFRSYM    DATA     BYTE      IAPADH
      000000B3H   SFRSYM    DATA     BYTE      P3VO
      000000ADH   SFRSYM    DATA     BYTE      ADCCON
      000000C8H.1 SFRSYM    DATA     BIT       TX
      000000EDH   SFRSYM    DATA     BYTE      EXBL
      000000F2H   SFRSYM    DATA     BYTE      IAPADL
      00000080H.0 SFRSYM    DATA     BIT       P00
      00000090H.0 SFRSYM    DATA     BIT       P10
      00000080H.1 SFRSYM    DATA     BIT       P01
      00000099H   SFRSYM    DATA     BYTE      SBUF
      00000087H   SFRSYM    DATA     BYTE      PCON
      000000A0H.0 SFRSYM    DATA     BIT       P20
LX51 LINKER/LOCATER V4.66.100.0                                                       08/30/2023  14:49:07  PAGE 25


      00000090H.1 SFRSYM    DATA     BIT       P11
      00000080H.2 SFRSYM    DATA     BIT       P02
      000000B6H   SFRSYM    DATA     BYTE      CMPCFG
      000000B0H.0 SFRSYM    DATA     BIT       P30
      000000A0H.1 SFRSYM    DATA     BIT       P21
      00000090H.2 SFRSYM    DATA     BIT       P12
      00000080H.3 SFRSYM    DATA     BIT       P03
      000000C0H.0 SFRSYM    DATA     BIT       P40
      000000B0H.1 SFRSYM    DATA     BIT       P31
      000000A0H.2 SFRSYM    DATA     BIT       P22
      00000090H.3 SFRSYM    DATA     BIT       P13
      00000080H.4 SFRSYM    DATA     BIT       P04
      00000098H   SFRSYM    DATA     BYTE      SCON
      000000D8H.0 SFRSYM    DATA     BIT       P50
      000000C0H.1 SFRSYM    DATA     BIT       P41
      000000B0H.2 SFRSYM    DATA     BIT       P32
      000000A0H.3 SFRSYM    DATA     BIT       P23
      00000090H.4 SFRSYM    DATA     BIT       P14
      00000080H.5 SFRSYM    DATA     BIT       P05
      000000F5H   SFRSYM    DATA     BYTE      IAPDAT
      00000089H   SFRSYM    DATA     BYTE      TMOD
      00000088H   SFRSYM    DATA     BYTE      TCON
      000000D8H.1 SFRSYM    DATA     BIT       P51
      000000C0H.2 SFRSYM    DATA     BIT       P42
      000000B0H.3 SFRSYM    DATA     BIT       P33
      000000A0H.4 SFRSYM    DATA     BIT       P24
      00000090H.5 SFRSYM    DATA     BIT       P15
      00000080H.6 SFRSYM    DATA     BIT       P06
      000000B8H.0 SFRSYM    DATA     BIT       IPINT0
      000000D8H.2 SFRSYM    DATA     BIT       P52
      000000C0H.3 SFRSYM    DATA     BIT       P43
      000000B0H.4 SFRSYM    DATA     BIT       P34
      000000A0H.5 SFRSYM    DATA     BIT       P25
      00000090H.6 SFRSYM    DATA     BIT       P16
      00000080H.7 SFRSYM    DATA     BIT       P07
      000000B8H.2 SFRSYM    DATA     BIT       IPINT1
      000000D8H.3 SFRSYM    DATA     BIT       P53
      000000C0H.4 SFRSYM    DATA     BIT       P44
      000000B0H.5 SFRSYM    DATA     BIT       P35
      000000A0H.6 SFRSYM    DATA     BIT       P26
      00000090H.7 SFRSYM    DATA     BIT       P17
      000000FDH   SFRSYM    DATA     BYTE      CRCREG
      000000D8H.4 SFRSYM    DATA     BIT       P54
      000000C0H.5 SFRSYM    DATA     BIT       P45
      000000B0H.6 SFRSYM    DATA     BIT       P36
      000000A0H.7 SFRSYM    DATA     BIT       P27
      000000D8H.5 SFRSYM    DATA     BIT       P55
      000000C0H.6 SFRSYM    DATA     BIT       P46
      000000B0H.7 SFRSYM    DATA     BIT       P37
      000000C0H.7 SFRSYM    DATA     BIT       P47
      000000C8H.6 SFRSYM    DATA     BIT       EXFX
      00000093H   SFRSYM    DATA     BYTE      DDRCON
      000000F6H   SFRSYM    DATA     BYTE      IAPCTL
      000000A9H   SFRSYM    DATA     BYTE      IE1
      000000AAH   SFRSYM    DATA     BYTE      IE2
      000000F0H   SFRSYM    DATA     BYTE      B
      000000B7H   SFRSYM    DATA     BYTE      CMPCON
      000000F1H   SFRSYM    DATA     BYTE      IAPKEY
      000000FBH   SFRSYM    DATA     BYTE      BTMCON
      000000D1H   SFRSYM    DATA     BYTE      PWMCFG
      000000E0H   SFRSYM    DATA     BYTE      ACC
      000000CBH   SFRSYM    DATA     BYTE      RCAPXH
      000000A8H.1 SFRSYM    DATA     BIT       ET0
      000000FCH   SFRSYM    DATA     BYTE      CRCINX
      00000088H.5 SFRSYM    DATA     BIT       TF0
LX51 LINKER/LOCATER V4.66.100.0                                                       08/30/2023  14:49:07  PAGE 26


      000000A8H.3 SFRSYM    DATA     BIT       ET1
      000000ABH   SFRSYM    DATA     BYTE      ADCCFG0
      000000B9H   SFRSYM    DATA     BYTE      IP1
      00000088H.7 SFRSYM    DATA     BIT       TF1
      000000A8H.5 SFRSYM    DATA     BIT       ET2
      000000ACH   SFRSYM    DATA     BYTE      ADCCFG1
      000000BAH   SFRSYM    DATA     BYTE      IP2
      00000098H.2 SFRSYM    DATA     BIT       RB8
      000000B5H   SFRSYM    DATA     BYTE      ADCCFG2
      000000CAH   SFRSYM    DATA     BYTE      RCAPXL
      0000008CH   SFRSYM    DATA     BYTE      TH0
      0000008DH   SFRSYM    DATA     BYTE      TH1
      00000098H.3 SFRSYM    DATA     BIT       TB8
      000000D0H.0 SFRSYM    DATA     BIT       P
      00000098H.7 SFRSYM    DATA     BIT       SM0
      0000008AH   SFRSYM    DATA     BYTE      TL0
      00000098H.6 SFRSYM    DATA     BIT       SM1
      000000CFH   SFRSYM    DATA     BYTE      WDTCON
      0000008BH   SFRSYM    DATA     BYTE      TL1
      00000098H.5 SFRSYM    DATA     BIT       SM2
      000000D6H   SFRSYM    DATA     BYTE      PWMDFR
      000000D5H   SFRSYM    DATA     BYTE      PWMPDH
      000000D0H.3 SFRSYM    DATA     BIT       RS0
      00000088H.4 SFRSYM    DATA     BIT       TR0
      000000D0H.4 SFRSYM    DATA     BIT       RS1
      000000D4H   SFRSYM    DATA     BYTE      PWMPDL
      00000088H.6 SFRSYM    DATA     BIT       TR1
      000000B8H.4 SFRSYM    DATA     BIT       IPUART
      000000D7H   SFRSYM    DATA     BYTE      PWMFLT
      00000083H   SFRSYM    DATA     BYTE      DPH
      00000082H   SFRSYM    DATA     BYTE      DPL
      000000A8H.0 SFRSYM    DATA     BIT       EINT0
      0000009AH   SFRSYM    DATA     BYTE      P0CON
      000000A8H.2 SFRSYM    DATA     BIT       EINT1
      000000B8H.6 SFRSYM    DATA     BIT       IPADC
      000000B4H   SFRSYM    DATA     BYTE      INT0F
      00000091H   SFRSYM    DATA     BYTE      P1CON
      000000BCH   SFRSYM    DATA     BYTE      INT1F
      000000A1H   SFRSYM    DATA     BYTE      P2CON
      000000BEH   SFRSYM    DATA     BYTE      INT2F
      000000B1H   SFRSYM    DATA     BYTE      P3CON
      00000098H.4 SFRSYM    DATA     BIT       REN
      000000C1H   SFRSYM    DATA     BYTE      P4CON
      000000D9H   SFRSYM    DATA     BYTE      P5CON
      000000AFH   SFRSYM    DATA     BYTE      ADCVH
      00000086H   SFRSYM    DATA     BYTE      DPS
      00000095H   SFRSYM    DATA     BYTE      US0CON0
      000000A4H   SFRSYM    DATA     BYTE      US1CON0
      0000009DH   SFRSYM    DATA     BYTE      US0CON1
      000000AEH   SFRSYM    DATA     BYTE      ADCVL
      000000F7H   SFRSYM    DATA     BYTE      EXADH
      000000A5H   SFRSYM    DATA     BYTE      US1CON1
      0000009EH   SFRSYM    DATA     BYTE      US0CON2
      000000A6H   SFRSYM    DATA     BYTE      US1CON2
      0000009FH   SFRSYM    DATA     BYTE      US0CON3
      000000A7H   SFRSYM    DATA     BYTE      US1CON3
      000000BBH   SFRSYM    DATA     BYTE      INT0R
      000000BDH   SFRSYM    DATA     BYTE      INT1R
      000000BFH   SFRSYM    DATA     BYTE      INT2R
      000000DCH   SFRSYM    DATA     BYTE      USXINX
      000000C8H.7 SFRSYM    DATA     BIT       TFX
      00000096H   SFRSYM    DATA     BYTE      IOHCON0
      00000097H   SFRSYM    DATA     BYTE      IOHCON1
      000000CDH   SFRSYM    DATA     BYTE      THX
      000000D0H.5 SFRSYM    DATA     BIT       F0
LX51 LINKER/LOCATER V4.66.100.0                                                       08/30/2023  14:49:07  PAGE 27


      000000D0H.1 SFRSYM    DATA     BIT       F1
      000000CCH   SFRSYM    DATA     BYTE      TLX
      000000D0H   SFRSYM    DATA     BYTE      PSW

      01000E95H   BLOCK     CODE     ---       LVL=0
      01000E95H   LINE      CODE     ---       #11
      01000E95H   LINE      CODE     ---       #12
      01000E95H   LINE      CODE     ---       #13
      01000E98H   LINE      CODE     ---       #14
      01000E98H   LINE      CODE     ---       #15
      01000E98H   LINE      CODE     ---       #16
      ---         BLOCKEND  ---      ---       LVL=0

      01000C54H   BLOCK     CODE     ---       LVL=0
      01000C54H   LINE      CODE     ---       #24
      01000C54H   LINE      CODE     ---       #25
      01000C54H   LINE      CODE     ---       #27
      01000C57H   LINE      CODE     ---       #28
      01000C5AH   LINE      CODE     ---       #29
      01000C5DH   LINE      CODE     ---       #30
      01000C60H   LINE      CODE     ---       #31
      01000C63H   LINE      CODE     ---       #32
      01000C66H   LINE      CODE     ---       #36
      01000C69H   LINE      CODE     ---       #37
      01000C6CH   LINE      CODE     ---       #38
      01000C6FH   LINE      CODE     ---       #40
      01000C72H   LINE      CODE     ---       #41
      01000C74H   LINE      CODE     ---       #42
      01000C77H   LINE      CODE     ---       #45
      01000C7AH   LINE      CODE     ---       #46
      01000C7DH   LINE      CODE     ---       #47
      01000C7DH   LINE      CODE     ---       #48
      01000C7DH   LINE      CODE     ---       #49
      01000C7FH   LINE      CODE     ---       #50
      ---         BLOCKEND  ---      ---       LVL=0

      01000EACH   BLOCK     CODE     ---       LVL=0
      01000EACH   LINE      CODE     ---       #58
      01000EACH   LINE      CODE     ---       #60
      01000EAEH   LINE      CODE     ---       #61
      ---         BLOCKEND  ---      ---       LVL=0

      01000CD2H   BLOCK     CODE     ---       LVL=0
      01000CD2H   LINE      CODE     ---       #63
      01000CD8H   LINE      CODE     ---       #65
      01000CDAH   LINE      CODE     ---       #66
      01000CDDH   LINE      CODE     ---       #67
      01000CDDH   LINE      CODE     ---       #68
      01000CE3H   LINE      CODE     ---       #69
      01000CE3H   LINE      CODE     ---       #70
      01000CE6H   LINE      CODE     ---       #71
      01000CE6H   LINE      CODE     ---       #72
      01000CECH   LINE      CODE     ---       #73
      01000CECH   LINE      CODE     ---       #74
      ---         BLOCKEND  ---      ---       LVL=0

      01000EAFH   BLOCK     CODE     ---       LVL=0
      01000EAFH   LINE      CODE     ---       #76
      01000EAFH   LINE      CODE     ---       #78
      01000EB1H   LINE      CODE     ---       #79
      ---         BLOCKEND  ---      ---       LVL=0

      ---         MODULE    ---      ---       TIMER_INIT
      02000031H   PUBLIC    XDATA    WORD      count2
      0200002FH   PUBLIC    XDATA    WORD      count1
LX51 LINKER/LOCATER V4.66.100.0                                                       08/30/2023  14:49:07  PAGE 28


      0200002DH   PUBLIC    XDATA    WORD      count
      0200002CH   PUBLIC    XDATA    BYTE      flag
      01000E7CH   PUBLIC    CODE     ---       Timer4Int
      01000E74H   PUBLIC    CODE     ---       Timer3Int
      0100058FH   PUBLIC    CODE     ---       Timer2Int
      01000EB2H   PUBLIC    CODE     ---       timer1
      01000E6BH   PUBLIC    CODE     ---       timer0
      01000907H   PUBLIC    CODE     ---       Timer_Init
      01000E9AH   PUBLIC    CODE     ---       Timer_Test
      000000C8H.2 SFRSYM    DATA     BIT       TRX
      000000FFH   SFRSYM    DATA     BYTE      OPREG
      00000080H   SFRSYM    DATA     BYTE      P0
      00000090H   SFRSYM    DATA     BYTE      P1
      000000A0H   SFRSYM    DATA     BYTE      P2
      000000A8H.4 SFRSYM    DATA     BIT       EUART
      0000008EH   SFRSYM    DATA     BYTE      TMCON
      000000B0H   SFRSYM    DATA     BYTE      P3
      000000D0H.6 SFRSYM    DATA     BIT       AC
      000000C0H   SFRSYM    DATA     BYTE      P4
      0000008FH   SFRSYM    DATA     BYTE      OTCON
      000000D8H   SFRSYM    DATA     BYTE      P5
      000000A8H.7 SFRSYM    DATA     BIT       EA
      000000C8H.5 SFRSYM    DATA     BIT       RCLKX
      000000D2H   SFRSYM    DATA     BYTE      PWMCON0
      000000C8H.4 SFRSYM    DATA     BIT       TCLKX
      000000D3H   SFRSYM    DATA     BYTE      PWMCON1
      000000C8H.3 SFRSYM    DATA     BIT       EXENX
      000000A8H.6 SFRSYM    DATA     BIT       EADC
      000000C9H   SFRSYM    DATA     BYTE      TXMOD
      000000C8H   SFRSYM    DATA     BYTE      TXCON
      000000A8H   SFRSYM    DATA     BYTE      IE
      00000085H   SFRSYM    DATA     BYTE      DPH1
      000000E9H   SFRSYM    DATA     BYTE      EXA0
      000000FEH   SFRSYM    DATA     BYTE      OPINX
      000000EAH   SFRSYM    DATA     BYTE      EXA1
      000000EBH   SFRSYM    DATA     BYTE      EXA2
      000000ECH   SFRSYM    DATA     BYTE      EXA3
      00000084H   SFRSYM    DATA     BYTE      DPL1
      000000C8H.0 SFRSYM    DATA     BIT       CP
      000000C4H   SFRSYM    DATA     BYTE      USXCON0
      000000C5H   SFRSYM    DATA     BYTE      USXCON1
      000000C6H   SFRSYM    DATA     BYTE      USXCON2
      000000C7H   SFRSYM    DATA     BYTE      USXCON3
      000000EFH   SFRSYM    DATA     BYTE      OPERCON
      0000009BH   SFRSYM    DATA     BYTE      P0PH
      000000B8H   SFRSYM    DATA     BYTE      IP
      00000092H   SFRSYM    DATA     BYTE      P1PH
      00000098H.0 SFRSYM    DATA     BIT       RI
      000000A2H   SFRSYM    DATA     BYTE      P2PH
      000000D0H.7 SFRSYM    DATA     BIT       CY
      000000B2H   SFRSYM    DATA     BYTE      P3PH
      00000098H.1 SFRSYM    DATA     BIT       TI
      000000CEH   SFRSYM    DATA     BYTE      TXINX
      000000C2H   SFRSYM    DATA     BYTE      P4PH
      000000B8H.1 SFRSYM    DATA     BIT       IPT0
      000000DAH   SFRSYM    DATA     BYTE      P5PH
      000000B8H.3 SFRSYM    DATA     BIT       IPT1
      000000B8H.5 SFRSYM    DATA     BIT       IPT2
      00000081H   SFRSYM    DATA     BYTE      SP
      000000D0H.2 SFRSYM    DATA     BIT       OV
      000000F4H   SFRSYM    DATA     BYTE      IAPADE
      0000009CH   SFRSYM    DATA     BYTE      P0VO
      00000094H   SFRSYM    DATA     BYTE      P1VO
      000000A3H   SFRSYM    DATA     BYTE      P2VO
      000000EEH   SFRSYM    DATA     BYTE      EXBH
LX51 LINKER/LOCATER V4.66.100.0                                                       08/30/2023  14:49:07  PAGE 29


      000000F3H   SFRSYM    DATA     BYTE      IAPADH
      000000B3H   SFRSYM    DATA     BYTE      P3VO
      000000ADH   SFRSYM    DATA     BYTE      ADCCON
      000000C8H.1 SFRSYM    DATA     BIT       TX
      000000EDH   SFRSYM    DATA     BYTE      EXBL
      000000F2H   SFRSYM    DATA     BYTE      IAPADL
      00000080H.0 SFRSYM    DATA     BIT       P00
      00000090H.0 SFRSYM    DATA     BIT       P10
      00000080H.1 SFRSYM    DATA     BIT       P01
      00000099H   SFRSYM    DATA     BYTE      SBUF
      00000087H   SFRSYM    DATA     BYTE      PCON
      000000A0H.0 SFRSYM    DATA     BIT       P20
      00000090H.1 SFRSYM    DATA     BIT       P11
      00000080H.2 SFRSYM    DATA     BIT       P02
      000000B6H   SFRSYM    DATA     BYTE      CMPCFG
      000000B0H.0 SFRSYM    DATA     BIT       P30
      000000A0H.1 SFRSYM    DATA     BIT       P21
      00000090H.2 SFRSYM    DATA     BIT       P12
      00000080H.3 SFRSYM    DATA     BIT       P03
      000000C0H.0 SFRSYM    DATA     BIT       P40
      000000B0H.1 SFRSYM    DATA     BIT       P31
      000000A0H.2 SFRSYM    DATA     BIT       P22
      00000090H.3 SFRSYM    DATA     BIT       P13
      00000080H.4 SFRSYM    DATA     BIT       P04
      00000098H   SFRSYM    DATA     BYTE      SCON
      000000D8H.0 SFRSYM    DATA     BIT       P50
      000000C0H.1 SFRSYM    DATA     BIT       P41
      000000B0H.2 SFRSYM    DATA     BIT       P32
      000000A0H.3 SFRSYM    DATA     BIT       P23
      00000090H.4 SFRSYM    DATA     BIT       P14
      00000080H.5 SFRSYM    DATA     BIT       P05
      000000F5H   SFRSYM    DATA     BYTE      IAPDAT
      00000089H   SFRSYM    DATA     BYTE      TMOD
      00000088H   SFRSYM    DATA     BYTE      TCON
      000000D8H.1 SFRSYM    DATA     BIT       P51
      000000C0H.2 SFRSYM    DATA     BIT       P42
      000000B0H.3 SFRSYM    DATA     BIT       P33
      000000A0H.4 SFRSYM    DATA     BIT       P24
      00000090H.5 SFRSYM    DATA     BIT       P15
      00000080H.6 SFRSYM    DATA     BIT       P06
      000000B8H.0 SFRSYM    DATA     BIT       IPINT0
      000000D8H.2 SFRSYM    DATA     BIT       P52
      000000C0H.3 SFRSYM    DATA     BIT       P43
      000000B0H.4 SFRSYM    DATA     BIT       P34
      000000A0H.5 SFRSYM    DATA     BIT       P25
      00000090H.6 SFRSYM    DATA     BIT       P16
      00000080H.7 SFRSYM    DATA     BIT       P07
      000000B8H.2 SFRSYM    DATA     BIT       IPINT1
      000000D8H.3 SFRSYM    DATA     BIT       P53
      000000C0H.4 SFRSYM    DATA     BIT       P44
      000000B0H.5 SFRSYM    DATA     BIT       P35
      000000A0H.6 SFRSYM    DATA     BIT       P26
      00000090H.7 SFRSYM    DATA     BIT       P17
      000000FDH   SFRSYM    DATA     BYTE      CRCREG
      000000D8H.4 SFRSYM    DATA     BIT       P54
      000000C0H.5 SFRSYM    DATA     BIT       P45
      000000B0H.6 SFRSYM    DATA     BIT       P36
      000000A0H.7 SFRSYM    DATA     BIT       P27
      000000D8H.5 SFRSYM    DATA     BIT       P55
      000000C0H.6 SFRSYM    DATA     BIT       P46
      000000B0H.7 SFRSYM    DATA     BIT       P37
      000000C0H.7 SFRSYM    DATA     BIT       P47
      000000C8H.6 SFRSYM    DATA     BIT       EXFX
      00000093H   SFRSYM    DATA     BYTE      DDRCON
      000000F6H   SFRSYM    DATA     BYTE      IAPCTL
LX51 LINKER/LOCATER V4.66.100.0                                                       08/30/2023  14:49:07  PAGE 30


      000000A9H   SFRSYM    DATA     BYTE      IE1
      000000AAH   SFRSYM    DATA     BYTE      IE2
      000000F0H   SFRSYM    DATA     BYTE      B
      000000B7H   SFRSYM    DATA     BYTE      CMPCON
      000000F1H   SFRSYM    DATA     BYTE      IAPKEY
      000000FBH   SFRSYM    DATA     BYTE      BTMCON
      000000D1H   SFRSYM    DATA     BYTE      PWMCFG
      000000E0H   SFRSYM    DATA     BYTE      ACC
      000000CBH   SFRSYM    DATA     BYTE      RCAPXH
      000000A8H.1 SFRSYM    DATA     BIT       ET0
      000000FCH   SFRSYM    DATA     BYTE      CRCINX
      00000088H.5 SFRSYM    DATA     BIT       TF0
      000000A8H.3 SFRSYM    DATA     BIT       ET1
      000000ABH   SFRSYM    DATA     BYTE      ADCCFG0
      000000B9H   SFRSYM    DATA     BYTE      IP1
      00000088H.7 SFRSYM    DATA     BIT       TF1
      000000A8H.5 SFRSYM    DATA     BIT       ET2
      000000ACH   SFRSYM    DATA     BYTE      ADCCFG1
      000000BAH   SFRSYM    DATA     BYTE      IP2
      00000098H.2 SFRSYM    DATA     BIT       RB8
      000000B5H   SFRSYM    DATA     BYTE      ADCCFG2
      000000CAH   SFRSYM    DATA     BYTE      RCAPXL
      0000008CH   SFRSYM    DATA     BYTE      TH0
      0000008DH   SFRSYM    DATA     BYTE      TH1
      00000098H.3 SFRSYM    DATA     BIT       TB8
      000000D0H.0 SFRSYM    DATA     BIT       P
      00000098H.7 SFRSYM    DATA     BIT       SM0
      0000008AH   SFRSYM    DATA     BYTE      TL0
      00000098H.6 SFRSYM    DATA     BIT       SM1
      000000CFH   SFRSYM    DATA     BYTE      WDTCON
      0000008BH   SFRSYM    DATA     BYTE      TL1
      00000098H.5 SFRSYM    DATA     BIT       SM2
      000000D6H   SFRSYM    DATA     BYTE      PWMDFR
      000000D5H   SFRSYM    DATA     BYTE      PWMPDH
      000000D0H.3 SFRSYM    DATA     BIT       RS0
      00000088H.4 SFRSYM    DATA     BIT       TR0
      000000D0H.4 SFRSYM    DATA     BIT       RS1
      000000D4H   SFRSYM    DATA     BYTE      PWMPDL
      00000088H.6 SFRSYM    DATA     BIT       TR1
      000000B8H.4 SFRSYM    DATA     BIT       IPUART
      000000D7H   SFRSYM    DATA     BYTE      PWMFLT
      00000083H   SFRSYM    DATA     BYTE      DPH
      00000082H   SFRSYM    DATA     BYTE      DPL
      000000A8H.0 SFRSYM    DATA     BIT       EINT0
      0000009AH   SFRSYM    DATA     BYTE      P0CON
      000000A8H.2 SFRSYM    DATA     BIT       EINT1
      000000B8H.6 SFRSYM    DATA     BIT       IPADC
      000000B4H   SFRSYM    DATA     BYTE      INT0F
      00000091H   SFRSYM    DATA     BYTE      P1CON
      000000BCH   SFRSYM    DATA     BYTE      INT1F
      000000A1H   SFRSYM    DATA     BYTE      P2CON
      000000BEH   SFRSYM    DATA     BYTE      INT2F
      000000B1H   SFRSYM    DATA     BYTE      P3CON
      00000098H.4 SFRSYM    DATA     BIT       REN
      000000C1H   SFRSYM    DATA     BYTE      P4CON
      000000D9H   SFRSYM    DATA     BYTE      P5CON
      000000AFH   SFRSYM    DATA     BYTE      ADCVH
      00000086H   SFRSYM    DATA     BYTE      DPS
      00000095H   SFRSYM    DATA     BYTE      US0CON0
      000000A4H   SFRSYM    DATA     BYTE      US1CON0
      0000009DH   SFRSYM    DATA     BYTE      US0CON1
      000000AEH   SFRSYM    DATA     BYTE      ADCVL
      000000F7H   SFRSYM    DATA     BYTE      EXADH
      000000A5H   SFRSYM    DATA     BYTE      US1CON1
      0000009EH   SFRSYM    DATA     BYTE      US0CON2
LX51 LINKER/LOCATER V4.66.100.0                                                       08/30/2023  14:49:07  PAGE 31


      000000A6H   SFRSYM    DATA     BYTE      US1CON2
      0000009FH   SFRSYM    DATA     BYTE      US0CON3
      000000A7H   SFRSYM    DATA     BYTE      US1CON3
      000000BBH   SFRSYM    DATA     BYTE      INT0R
      000000BDH   SFRSYM    DATA     BYTE      INT1R
      000000BFH   SFRSYM    DATA     BYTE      INT2R
      000000DCH   SFRSYM    DATA     BYTE      USXINX
      000000C8H.7 SFRSYM    DATA     BIT       TFX
      00000096H   SFRSYM    DATA     BYTE      IOHCON0
      00000097H   SFRSYM    DATA     BYTE      IOHCON1
      000000CDH   SFRSYM    DATA     BYTE      THX
      000000D0H.5 SFRSYM    DATA     BIT       F0
      000000D0H.1 SFRSYM    DATA     BIT       F1
      000000CCH   SFRSYM    DATA     BYTE      TLX
      000000D0H   SFRSYM    DATA     BYTE      PSW

      01000E9AH   BLOCK     CODE     ---       LVL=0
      01000E9AH   LINE      CODE     ---       #13
      01000E9AH   LINE      CODE     ---       #14
      01000E9AH   LINE      CODE     ---       #15
      01000E9DH   LINE      CODE     ---       #16
      01000E9DH   LINE      CODE     ---       #17
      01000E9DH   LINE      CODE     ---       #18
      ---         BLOCKEND  ---      ---       LVL=0

      01000907H   BLOCK     CODE     ---       LVL=0
      01000907H   LINE      CODE     ---       #26
      01000907H   LINE      CODE     ---       #27
      01000907H   LINE      CODE     ---       #28
      0100090AH   LINE      CODE     ---       #31
      0100090DH   LINE      CODE     ---       #32
      01000910H   LINE      CODE     ---       #33
      01000913H   LINE      CODE     ---       #34
      01000915H   LINE      CODE     ---       #35
      01000917H   LINE      CODE     ---       #36
      01000919H   LINE      CODE     ---       #39
      0100091CH   LINE      CODE     ---       #40
      0100091FH   LINE      CODE     ---       #41
      01000922H   LINE      CODE     ---       #42
      01000924H   LINE      CODE     ---       #43
      01000926H   LINE      CODE     ---       #44
      01000928H   LINE      CODE     ---       #47
      0100092BH   LINE      CODE     ---       #48
      0100092EH   LINE      CODE     ---       #49
      01000931H   LINE      CODE     ---       #50
      01000934H   LINE      CODE     ---       #51
      01000936H   LINE      CODE     ---       #52
      01000938H   LINE      CODE     ---       #53
      0100093AH   LINE      CODE     ---       #54
      0100093CH   LINE      CODE     ---       #55
      0100093EH   LINE      CODE     ---       #58
      01000941H   LINE      CODE     ---       #59
      01000944H   LINE      CODE     ---       #60
      01000946H   LINE      CODE     ---       #61
      01000949H   LINE      CODE     ---       #62
      0100094CH   LINE      CODE     ---       #63
      0100094EH   LINE      CODE     ---       #64
      01000951H   LINE      CODE     ---       #65
      01000954H   LINE      CODE     ---       #66
      01000956H   LINE      CODE     ---       #69
      01000959H   LINE      CODE     ---       #70
      0100095CH   LINE      CODE     ---       #71
      0100095EH   LINE      CODE     ---       #72
      01000961H   LINE      CODE     ---       #73
      01000963H   LINE      CODE     ---       #74
LX51 LINKER/LOCATER V4.66.100.0                                                       08/30/2023  14:49:07  PAGE 32


      01000965H   LINE      CODE     ---       #75
      01000968H   LINE      CODE     ---       #76
      0100096BH   LINE      CODE     ---       #77
      0100096DH   LINE      CODE     ---       #79
      0100096FH   LINE      CODE     ---       #80
      ---         BLOCKEND  ---      ---       LVL=0

      01000E6BH   BLOCK     CODE     ---       LVL=0
      01000E6BH   LINE      CODE     ---       #88
      01000E6BH   LINE      CODE     ---       #90
      01000E6EH   LINE      CODE     ---       #91
      01000E71H   LINE      CODE     ---       #92
      01000E73H   LINE      CODE     ---       #93
      ---         BLOCKEND  ---      ---       LVL=0

      01000EB2H   BLOCK     CODE     ---       LVL=0
      01000EB2H   LINE      CODE     ---       #95
      01000EB2H   LINE      CODE     ---       #97
      01000EB4H   LINE      CODE     ---       #98
      ---         BLOCKEND  ---      ---       LVL=0

      0100058FH   BLOCK     CODE     ---       LVL=0
      0100058FH   LINE      CODE     ---       #100
      010005A4H   LINE      CODE     ---       #102
      010005A7H   LINE      CODE     ---       #103
      010005ACH   LINE      CODE     ---       #104
      010005ACH   LINE      CODE     ---       #105
      010005AFH   LINE      CODE     ---       #106
      010005B2H   LINE      CODE     ---       #107
      010005B5H   LINE      CODE     ---       #108
      010005B5H   LINE      CODE     ---       #110
      010005BAH   LINE      CODE     ---       #111
      010005BAH   LINE      CODE     ---       #112
      010005BCH   LINE      CODE     ---       #113
      010005BFH   LINE      CODE     ---       #114
      010005CAH   LINE      CODE     ---       #115
      010005CAH   LINE      CODE     ---       #116
      010005CCH   LINE      CODE     ---       #118
      010005CCH   LINE      CODE     ---       #119
      010005D4H   LINE      CODE     ---       #120
      010005D4H   LINE      CODE     ---       #121
      010005E9H   LINE      CODE     ---       #122
      010005E9H   LINE      CODE     ---       #123
      010005EDH   LINE      CODE     ---       #124
      010005EDH   LINE      CODE     ---       #125
      01000601H   LINE      CODE     ---       #126
      0100061CH   LINE      CODE     ---       #127
      0100061CH   LINE      CODE     ---       #128
      0100061CH   LINE      CODE     ---       #129
      ---         BLOCKEND  ---      ---       LVL=0

      01000E74H   BLOCK     CODE     ---       LVL=0
      01000E74H   LINE      CODE     ---       #131
      01000E74H   LINE      CODE     ---       #133
      01000E77H   LINE      CODE     ---       #134
      01000E79H   LINE      CODE     ---       #135
      01000E7BH   LINE      CODE     ---       #136
      ---         BLOCKEND  ---      ---       LVL=0

      01000E7CH   BLOCK     CODE     ---       LVL=0
      01000E7CH   LINE      CODE     ---       #138
      01000E7CH   LINE      CODE     ---       #140
      01000E7FH   LINE      CODE     ---       #141
      01000E81H   LINE      CODE     ---       #142
      01000E83H   LINE      CODE     ---       #143
LX51 LINKER/LOCATER V4.66.100.0                                                       08/30/2023  14:49:07  PAGE 33


      ---         BLOCKEND  ---      ---       LVL=0

      ---         MODULE    ---      ---       LCD_LED_INIT
      02002000H   PUBLIC    XDATA    ---       LCDRAM
      01000E55H   PUBLIC    CODE     ---       PxVO_Init
      01000DF1H   PUBLIC    CODE     ---       LED_Init
      01000E9FH   PUBLIC    CODE     ---       LED_Test
      000000C8H.2 SFRSYM    DATA     BIT       TRX
      000000FFH   SFRSYM    DATA     BYTE      OPREG
      00000080H   SFRSYM    DATA     BYTE      P0
      00000090H   SFRSYM    DATA     BYTE      P1
      000000A0H   SFRSYM    DATA     BYTE      P2
      000000A8H.4 SFRSYM    DATA     BIT       EUART
      0000008EH   SFRSYM    DATA     BYTE      TMCON
      000000B0H   SFRSYM    DATA     BYTE      P3
      000000D0H.6 SFRSYM    DATA     BIT       AC
      000000C0H   SFRSYM    DATA     BYTE      P4
      0000008FH   SFRSYM    DATA     BYTE      OTCON
      000000D8H   SFRSYM    DATA     BYTE      P5
      000000A8H.7 SFRSYM    DATA     BIT       EA
      000000C8H.5 SFRSYM    DATA     BIT       RCLKX
      000000D2H   SFRSYM    DATA     BYTE      PWMCON0
      000000C8H.4 SFRSYM    DATA     BIT       TCLKX
      000000D3H   SFRSYM    DATA     BYTE      PWMCON1
      000000C8H.3 SFRSYM    DATA     BIT       EXENX
      000000A8H.6 SFRSYM    DATA     BIT       EADC
      000000C9H   SFRSYM    DATA     BYTE      TXMOD
      000000C8H   SFRSYM    DATA     BYTE      TXCON
      000000A8H   SFRSYM    DATA     BYTE      IE
      00000085H   SFRSYM    DATA     BYTE      DPH1
      000000E9H   SFRSYM    DATA     BYTE      EXA0
      000000FEH   SFRSYM    DATA     BYTE      OPINX
      000000EAH   SFRSYM    DATA     BYTE      EXA1
      000000EBH   SFRSYM    DATA     BYTE      EXA2
      000000ECH   SFRSYM    DATA     BYTE      EXA3
      00000084H   SFRSYM    DATA     BYTE      DPL1
      000000C8H.0 SFRSYM    DATA     BIT       CP
      000000C4H   SFRSYM    DATA     BYTE      USXCON0
      000000C5H   SFRSYM    DATA     BYTE      USXCON1
      000000C6H   SFRSYM    DATA     BYTE      USXCON2
      000000C7H   SFRSYM    DATA     BYTE      USXCON3
      000000EFH   SFRSYM    DATA     BYTE      OPERCON
      0000009BH   SFRSYM    DATA     BYTE      P0PH
      000000B8H   SFRSYM    DATA     BYTE      IP
      00000092H   SFRSYM    DATA     BYTE      P1PH
      00000098H.0 SFRSYM    DATA     BIT       RI
      000000A2H   SFRSYM    DATA     BYTE      P2PH
      000000D0H.7 SFRSYM    DATA     BIT       CY
      000000B2H   SFRSYM    DATA     BYTE      P3PH
      00000098H.1 SFRSYM    DATA     BIT       TI
      000000CEH   SFRSYM    DATA     BYTE      TXINX
      000000C2H   SFRSYM    DATA     BYTE      P4PH
      000000B8H.1 SFRSYM    DATA     BIT       IPT0
      000000DAH   SFRSYM    DATA     BYTE      P5PH
      000000B8H.3 SFRSYM    DATA     BIT       IPT1
      000000B8H.5 SFRSYM    DATA     BIT       IPT2
      00000081H   SFRSYM    DATA     BYTE      SP
      000000D0H.2 SFRSYM    DATA     BIT       OV
      000000F4H   SFRSYM    DATA     BYTE      IAPADE
      0000009CH   SFRSYM    DATA     BYTE      P0VO
      00000094H   SFRSYM    DATA     BYTE      P1VO
      000000A3H   SFRSYM    DATA     BYTE      P2VO
      000000EEH   SFRSYM    DATA     BYTE      EXBH
      000000F3H   SFRSYM    DATA     BYTE      IAPADH
      000000B3H   SFRSYM    DATA     BYTE      P3VO
LX51 LINKER/LOCATER V4.66.100.0                                                       08/30/2023  14:49:07  PAGE 34


      000000ADH   SFRSYM    DATA     BYTE      ADCCON
      000000C8H.1 SFRSYM    DATA     BIT       TX
      000000EDH   SFRSYM    DATA     BYTE      EXBL
      000000F2H   SFRSYM    DATA     BYTE      IAPADL
      00000080H.0 SFRSYM    DATA     BIT       P00
      00000090H.0 SFRSYM    DATA     BIT       P10
      00000080H.1 SFRSYM    DATA     BIT       P01
      00000099H   SFRSYM    DATA     BYTE      SBUF
      00000087H   SFRSYM    DATA     BYTE      PCON
      000000A0H.0 SFRSYM    DATA     BIT       P20
      00000090H.1 SFRSYM    DATA     BIT       P11
      00000080H.2 SFRSYM    DATA     BIT       P02
      000000B6H   SFRSYM    DATA     BYTE      CMPCFG
      000000B0H.0 SFRSYM    DATA     BIT       P30
      000000A0H.1 SFRSYM    DATA     BIT       P21
      00000090H.2 SFRSYM    DATA     BIT       P12
      00000080H.3 SFRSYM    DATA     BIT       P03
      000000C0H.0 SFRSYM    DATA     BIT       P40
      000000B0H.1 SFRSYM    DATA     BIT       P31
      000000A0H.2 SFRSYM    DATA     BIT       P22
      00000090H.3 SFRSYM    DATA     BIT       P13
      00000080H.4 SFRSYM    DATA     BIT       P04
      00000098H   SFRSYM    DATA     BYTE      SCON
      000000D8H.0 SFRSYM    DATA     BIT       P50
      000000C0H.1 SFRSYM    DATA     BIT       P41
      000000B0H.2 SFRSYM    DATA     BIT       P32
      000000A0H.3 SFRSYM    DATA     BIT       P23
      00000090H.4 SFRSYM    DATA     BIT       P14
      00000080H.5 SFRSYM    DATA     BIT       P05
      000000F5H   SFRSYM    DATA     BYTE      IAPDAT
      00000089H   SFRSYM    DATA     BYTE      TMOD
      00000088H   SFRSYM    DATA     BYTE      TCON
      000000D8H.1 SFRSYM    DATA     BIT       P51
      000000C0H.2 SFRSYM    DATA     BIT       P42
      000000B0H.3 SFRSYM    DATA     BIT       P33
      000000A0H.4 SFRSYM    DATA     BIT       P24
      00000090H.5 SFRSYM    DATA     BIT       P15
      00000080H.6 SFRSYM    DATA     BIT       P06
      000000B8H.0 SFRSYM    DATA     BIT       IPINT0
      000000D8H.2 SFRSYM    DATA     BIT       P52
      000000C0H.3 SFRSYM    DATA     BIT       P43
      000000B0H.4 SFRSYM    DATA     BIT       P34
      000000A0H.5 SFRSYM    DATA     BIT       P25
      00000090H.6 SFRSYM    DATA     BIT       P16
      00000080H.7 SFRSYM    DATA     BIT       P07
      000000B8H.2 SFRSYM    DATA     BIT       IPINT1
      000000D8H.3 SFRSYM    DATA     BIT       P53
      000000C0H.4 SFRSYM    DATA     BIT       P44
      000000B0H.5 SFRSYM    DATA     BIT       P35
      000000A0H.6 SFRSYM    DATA     BIT       P26
      00000090H.7 SFRSYM    DATA     BIT       P17
      000000FDH   SFRSYM    DATA     BYTE      CRCREG
      000000D8H.4 SFRSYM    DATA     BIT       P54
      000000C0H.5 SFRSYM    DATA     BIT       P45
      000000B0H.6 SFRSYM    DATA     BIT       P36
      000000A0H.7 SFRSYM    DATA     BIT       P27
      000000D8H.5 SFRSYM    DATA     BIT       P55
      000000C0H.6 SFRSYM    DATA     BIT       P46
      000000B0H.7 SFRSYM    DATA     BIT       P37
      000000C0H.7 SFRSYM    DATA     BIT       P47
      000000C8H.6 SFRSYM    DATA     BIT       EXFX
      00000093H   SFRSYM    DATA     BYTE      DDRCON
      000000F6H   SFRSYM    DATA     BYTE      IAPCTL
      000000A9H   SFRSYM    DATA     BYTE      IE1
      000000AAH   SFRSYM    DATA     BYTE      IE2
LX51 LINKER/LOCATER V4.66.100.0                                                       08/30/2023  14:49:07  PAGE 35


      000000F0H   SFRSYM    DATA     BYTE      B
      000000B7H   SFRSYM    DATA     BYTE      CMPCON
      000000F1H   SFRSYM    DATA     BYTE      IAPKEY
      000000FBH   SFRSYM    DATA     BYTE      BTMCON
      000000D1H   SFRSYM    DATA     BYTE      PWMCFG
      000000E0H   SFRSYM    DATA     BYTE      ACC
      000000CBH   SFRSYM    DATA     BYTE      RCAPXH
      000000A8H.1 SFRSYM    DATA     BIT       ET0
      000000FCH   SFRSYM    DATA     BYTE      CRCINX
      00000088H.5 SFRSYM    DATA     BIT       TF0
      000000A8H.3 SFRSYM    DATA     BIT       ET1
      000000ABH   SFRSYM    DATA     BYTE      ADCCFG0
      000000B9H   SFRSYM    DATA     BYTE      IP1
      00000088H.7 SFRSYM    DATA     BIT       TF1
      000000A8H.5 SFRSYM    DATA     BIT       ET2
      000000ACH   SFRSYM    DATA     BYTE      ADCCFG1
      000000BAH   SFRSYM    DATA     BYTE      IP2
      00000098H.2 SFRSYM    DATA     BIT       RB8
      000000B5H   SFRSYM    DATA     BYTE      ADCCFG2
      000000CAH   SFRSYM    DATA     BYTE      RCAPXL
      0000008CH   SFRSYM    DATA     BYTE      TH0
      0000008DH   SFRSYM    DATA     BYTE      TH1
      00000098H.3 SFRSYM    DATA     BIT       TB8
      000000D0H.0 SFRSYM    DATA     BIT       P
      00000098H.7 SFRSYM    DATA     BIT       SM0
      0000008AH   SFRSYM    DATA     BYTE      TL0
      00000098H.6 SFRSYM    DATA     BIT       SM1
      000000CFH   SFRSYM    DATA     BYTE      WDTCON
      0000008BH   SFRSYM    DATA     BYTE      TL1
      00000098H.5 SFRSYM    DATA     BIT       SM2
      000000D6H   SFRSYM    DATA     BYTE      PWMDFR
      000000D5H   SFRSYM    DATA     BYTE      PWMPDH
      000000D0H.3 SFRSYM    DATA     BIT       RS0
      00000088H.4 SFRSYM    DATA     BIT       TR0
      000000D0H.4 SFRSYM    DATA     BIT       RS1
      000000D4H   SFRSYM    DATA     BYTE      PWMPDL
      00000088H.6 SFRSYM    DATA     BIT       TR1
      000000B8H.4 SFRSYM    DATA     BIT       IPUART
      000000D7H   SFRSYM    DATA     BYTE      PWMFLT
      00000083H   SFRSYM    DATA     BYTE      DPH
      00000082H   SFRSYM    DATA     BYTE      DPL
      000000A8H.0 SFRSYM    DATA     BIT       EINT0
      0000009AH   SFRSYM    DATA     BYTE      P0CON
      000000A8H.2 SFRSYM    DATA     BIT       EINT1
      000000B8H.6 SFRSYM    DATA     BIT       IPADC
      000000B4H   SFRSYM    DATA     BYTE      INT0F
      00000091H   SFRSYM    DATA     BYTE      P1CON
      000000BCH   SFRSYM    DATA     BYTE      INT1F
      000000A1H   SFRSYM    DATA     BYTE      P2CON
      000000BEH   SFRSYM    DATA     BYTE      INT2F
      000000B1H   SFRSYM    DATA     BYTE      P3CON
      00000098H.4 SFRSYM    DATA     BIT       REN
      000000C1H   SFRSYM    DATA     BYTE      P4CON
      000000D9H   SFRSYM    DATA     BYTE      P5CON
      000000AFH   SFRSYM    DATA     BYTE      ADCVH
      00000086H   SFRSYM    DATA     BYTE      DPS
      00000095H   SFRSYM    DATA     BYTE      US0CON0
      000000A4H   SFRSYM    DATA     BYTE      US1CON0
      0000009DH   SFRSYM    DATA     BYTE      US0CON1
      000000AEH   SFRSYM    DATA     BYTE      ADCVL
      000000F7H   SFRSYM    DATA     BYTE      EXADH
      000000A5H   SFRSYM    DATA     BYTE      US1CON1
      0000009EH   SFRSYM    DATA     BYTE      US0CON2
      000000A6H   SFRSYM    DATA     BYTE      US1CON2
      0000009FH   SFRSYM    DATA     BYTE      US0CON3
LX51 LINKER/LOCATER V4.66.100.0                                                       08/30/2023  14:49:07  PAGE 36


      000000A7H   SFRSYM    DATA     BYTE      US1CON3
      000000BBH   SFRSYM    DATA     BYTE      INT0R
      000000BDH   SFRSYM    DATA     BYTE      INT1R
      000000BFH   SFRSYM    DATA     BYTE      INT2R
      000000DCH   SFRSYM    DATA     BYTE      USXINX
      000000C8H.7 SFRSYM    DATA     BIT       TFX
      00000096H   SFRSYM    DATA     BYTE      IOHCON0
      00000097H   SFRSYM    DATA     BYTE      IOHCON1
      000000CDH   SFRSYM    DATA     BYTE      THX
      000000D0H.5 SFRSYM    DATA     BIT       F0
      000000D0H.1 SFRSYM    DATA     BIT       F1
      000000CCH   SFRSYM    DATA     BYTE      TLX
      000000D0H   SFRSYM    DATA     BYTE      PSW

      01000E9FH   BLOCK     CODE     ---       LVL=0
      01000E9FH   LINE      CODE     ---       #13
      01000E9FH   LINE      CODE     ---       #14
      01000E9FH   LINE      CODE     ---       #15
      01000EA2H   LINE      CODE     ---       #16
      01000EA2H   LINE      CODE     ---       #17
      01000EA2H   LINE      CODE     ---       #18
      ---         BLOCKEND  ---      ---       LVL=0

      01000DF1H   BLOCK     CODE     ---       LVL=0
      01000DF1H   BLOCK     CODE     NEAR LAB  LVL=1
      00000006H   SYMBOL    DATA     WORD      i
      ---         BLOCKEND  ---      ---       LVL=1
      01000DF1H   LINE      CODE     ---       #27
      01000DF1H   LINE      CODE     ---       #28
      01000DF1H   LINE      CODE     ---       #30
      01000DF4H   LINE      CODE     ---       #31
      01000DF7H   LINE      CODE     ---       #32
      01000DF7H   LINE      CODE     ---       #33
      01000DF9H   LINE      CODE     ---       #34
      01000DF9H   LINE      CODE     ---       #35
      01000E04H   LINE      CODE     ---       #36
      01000E04H   LINE      CODE     ---       #37
      ---         BLOCKEND  ---      ---       LVL=0

      01000E55H   BLOCK     CODE     ---       LVL=0
      01000E55H   LINE      CODE     ---       #45
      01000E55H   LINE      CODE     ---       #46
      01000E55H   LINE      CODE     ---       #47
      01000E58H   LINE      CODE     ---       #48
      01000E5BH   LINE      CODE     ---       #49
      01000E5EH   LINE      CODE     ---       #50
      01000E61H   LINE      CODE     ---       #51
      ---         BLOCKEND  ---      ---       LVL=0

      ---         MODULE    ---      ---       PWM_INIT
      02002034H   PUBLIC    XDATA    ---       PWMREG
      01000E29H   PUBLIC    CODE     ---       PWM0_Interrup
      010004E8H   PUBLIC    CODE     ---       PWM_Init
      01000EA4H   PUBLIC    CODE     ---       PWM_Test
      000000C8H.2 SFRSYM    DATA     BIT       TRX
      000000FFH   SFRSYM    DATA     BYTE      OPREG
      00000080H   SFRSYM    DATA     BYTE      P0
      00000090H   SFRSYM    DATA     BYTE      P1
      000000A0H   SFRSYM    DATA     BYTE      P2
      000000A8H.4 SFRSYM    DATA     BIT       EUART
      0000008EH   SFRSYM    DATA     BYTE      TMCON
      000000B0H   SFRSYM    DATA     BYTE      P3
      000000D0H.6 SFRSYM    DATA     BIT       AC
      000000C0H   SFRSYM    DATA     BYTE      P4
      0000008FH   SFRSYM    DATA     BYTE      OTCON
LX51 LINKER/LOCATER V4.66.100.0                                                       08/30/2023  14:49:07  PAGE 37


      000000D8H   SFRSYM    DATA     BYTE      P5
      000000A8H.7 SFRSYM    DATA     BIT       EA
      000000C8H.5 SFRSYM    DATA     BIT       RCLKX
      000000D2H   SFRSYM    DATA     BYTE      PWMCON0
      000000C8H.4 SFRSYM    DATA     BIT       TCLKX
      000000D3H   SFRSYM    DATA     BYTE      PWMCON1
      000000C8H.3 SFRSYM    DATA     BIT       EXENX
      000000A8H.6 SFRSYM    DATA     BIT       EADC
      000000C9H   SFRSYM    DATA     BYTE      TXMOD
      000000C8H   SFRSYM    DATA     BYTE      TXCON
      000000A8H   SFRSYM    DATA     BYTE      IE
      00000085H   SFRSYM    DATA     BYTE      DPH1
      000000E9H   SFRSYM    DATA     BYTE      EXA0
      000000FEH   SFRSYM    DATA     BYTE      OPINX
      000000EAH   SFRSYM    DATA     BYTE      EXA1
      000000EBH   SFRSYM    DATA     BYTE      EXA2
      000000ECH   SFRSYM    DATA     BYTE      EXA3
      00000084H   SFRSYM    DATA     BYTE      DPL1
      000000C8H.0 SFRSYM    DATA     BIT       CP
      000000C4H   SFRSYM    DATA     BYTE      USXCON0
      000000C5H   SFRSYM    DATA     BYTE      USXCON1
      000000C6H   SFRSYM    DATA     BYTE      USXCON2
      000000C7H   SFRSYM    DATA     BYTE      USXCON3
      000000EFH   SFRSYM    DATA     BYTE      OPERCON
      0000009BH   SFRSYM    DATA     BYTE      P0PH
      000000B8H   SFRSYM    DATA     BYTE      IP
      00000092H   SFRSYM    DATA     BYTE      P1PH
      00000098H.0 SFRSYM    DATA     BIT       RI
      000000A2H   SFRSYM    DATA     BYTE      P2PH
      000000D0H.7 SFRSYM    DATA     BIT       CY
      000000B2H   SFRSYM    DATA     BYTE      P3PH
      00000098H.1 SFRSYM    DATA     BIT       TI
      000000CEH   SFRSYM    DATA     BYTE      TXINX
      000000C2H   SFRSYM    DATA     BYTE      P4PH
      000000B8H.1 SFRSYM    DATA     BIT       IPT0
      000000DAH   SFRSYM    DATA     BYTE      P5PH
      000000B8H.3 SFRSYM    DATA     BIT       IPT1
      000000B8H.5 SFRSYM    DATA     BIT       IPT2
      00000081H   SFRSYM    DATA     BYTE      SP
      000000D0H.2 SFRSYM    DATA     BIT       OV
      000000F4H   SFRSYM    DATA     BYTE      IAPADE
      0000009CH   SFRSYM    DATA     BYTE      P0VO
      00000094H   SFRSYM    DATA     BYTE      P1VO
      000000A3H   SFRSYM    DATA     BYTE      P2VO
      000000EEH   SFRSYM    DATA     BYTE      EXBH
      000000F3H   SFRSYM    DATA     BYTE      IAPADH
      000000B3H   SFRSYM    DATA     BYTE      P3VO
      000000ADH   SFRSYM    DATA     BYTE      ADCCON
      000000C8H.1 SFRSYM    DATA     BIT       TX
      000000EDH   SFRSYM    DATA     BYTE      EXBL
      000000F2H   SFRSYM    DATA     BYTE      IAPADL
      00000080H.0 SFRSYM    DATA     BIT       P00
      00000090H.0 SFRSYM    DATA     BIT       P10
      00000080H.1 SFRSYM    DATA     BIT       P01
      00000099H   SFRSYM    DATA     BYTE      SBUF
      00000087H   SFRSYM    DATA     BYTE      PCON
      000000A0H.0 SFRSYM    DATA     BIT       P20
      00000090H.1 SFRSYM    DATA     BIT       P11
      00000080H.2 SFRSYM    DATA     BIT       P02
      000000B6H   SFRSYM    DATA     BYTE      CMPCFG
      000000B0H.0 SFRSYM    DATA     BIT       P30
      000000A0H.1 SFRSYM    DATA     BIT       P21
      00000090H.2 SFRSYM    DATA     BIT       P12
      00000080H.3 SFRSYM    DATA     BIT       P03
      000000C0H.0 SFRSYM    DATA     BIT       P40
LX51 LINKER/LOCATER V4.66.100.0                                                       08/30/2023  14:49:07  PAGE 38


      000000B0H.1 SFRSYM    DATA     BIT       P31
      000000A0H.2 SFRSYM    DATA     BIT       P22
      00000090H.3 SFRSYM    DATA     BIT       P13
      00000080H.4 SFRSYM    DATA     BIT       P04
      00000098H   SFRSYM    DATA     BYTE      SCON
      000000D8H.0 SFRSYM    DATA     BIT       P50
      000000C0H.1 SFRSYM    DATA     BIT       P41
      000000B0H.2 SFRSYM    DATA     BIT       P32
      000000A0H.3 SFRSYM    DATA     BIT       P23
      00000090H.4 SFRSYM    DATA     BIT       P14
      00000080H.5 SFRSYM    DATA     BIT       P05
      000000F5H   SFRSYM    DATA     BYTE      IAPDAT
      00000089H   SFRSYM    DATA     BYTE      TMOD
      00000088H   SFRSYM    DATA     BYTE      TCON
      000000D8H.1 SFRSYM    DATA     BIT       P51
      000000C0H.2 SFRSYM    DATA     BIT       P42
      000000B0H.3 SFRSYM    DATA     BIT       P33
      000000A0H.4 SFRSYM    DATA     BIT       P24
      00000090H.5 SFRSYM    DATA     BIT       P15
      00000080H.6 SFRSYM    DATA     BIT       P06
      000000B8H.0 SFRSYM    DATA     BIT       IPINT0
      000000D8H.2 SFRSYM    DATA     BIT       P52
      000000C0H.3 SFRSYM    DATA     BIT       P43
      000000B0H.4 SFRSYM    DATA     BIT       P34
      000000A0H.5 SFRSYM    DATA     BIT       P25
      00000090H.6 SFRSYM    DATA     BIT       P16
      00000080H.7 SFRSYM    DATA     BIT       P07
      000000B8H.2 SFRSYM    DATA     BIT       IPINT1
      000000D8H.3 SFRSYM    DATA     BIT       P53
      000000C0H.4 SFRSYM    DATA     BIT       P44
      000000B0H.5 SFRSYM    DATA     BIT       P35
      000000A0H.6 SFRSYM    DATA     BIT       P26
      00000090H.7 SFRSYM    DATA     BIT       P17
      000000FDH   SFRSYM    DATA     BYTE      CRCREG
      000000D8H.4 SFRSYM    DATA     BIT       P54
      000000C0H.5 SFRSYM    DATA     BIT       P45
      000000B0H.6 SFRSYM    DATA     BIT       P36
      000000A0H.7 SFRSYM    DATA     BIT       P27
      000000D8H.5 SFRSYM    DATA     BIT       P55
      000000C0H.6 SFRSYM    DATA     BIT       P46
      000000B0H.7 SFRSYM    DATA     BIT       P37
      000000C0H.7 SFRSYM    DATA     BIT       P47
      000000C8H.6 SFRSYM    DATA     BIT       EXFX
      00000093H   SFRSYM    DATA     BYTE      DDRCON
      000000F6H   SFRSYM    DATA     BYTE      IAPCTL
      000000A9H   SFRSYM    DATA     BYTE      IE1
      000000AAH   SFRSYM    DATA     BYTE      IE2
      000000F0H   SFRSYM    DATA     BYTE      B
      000000B7H   SFRSYM    DATA     BYTE      CMPCON
      000000F1H   SFRSYM    DATA     BYTE      IAPKEY
      000000FBH   SFRSYM    DATA     BYTE      BTMCON
      000000D1H   SFRSYM    DATA     BYTE      PWMCFG
      000000E0H   SFRSYM    DATA     BYTE      ACC
      000000CBH   SFRSYM    DATA     BYTE      RCAPXH
      000000A8H.1 SFRSYM    DATA     BIT       ET0
      000000FCH   SFRSYM    DATA     BYTE      CRCINX
      00000088H.5 SFRSYM    DATA     BIT       TF0
      000000A8H.3 SFRSYM    DATA     BIT       ET1
      000000ABH   SFRSYM    DATA     BYTE      ADCCFG0
      000000B9H   SFRSYM    DATA     BYTE      IP1
      00000088H.7 SFRSYM    DATA     BIT       TF1
      000000A8H.5 SFRSYM    DATA     BIT       ET2
      000000ACH   SFRSYM    DATA     BYTE      ADCCFG1
      000000BAH   SFRSYM    DATA     BYTE      IP2
      00000098H.2 SFRSYM    DATA     BIT       RB8
LX51 LINKER/LOCATER V4.66.100.0                                                       08/30/2023  14:49:07  PAGE 39


      000000B5H   SFRSYM    DATA     BYTE      ADCCFG2
      000000CAH   SFRSYM    DATA     BYTE      RCAPXL
      0000008CH   SFRSYM    DATA     BYTE      TH0
      0000008DH   SFRSYM    DATA     BYTE      TH1
      00000098H.3 SFRSYM    DATA     BIT       TB8
      000000D0H.0 SFRSYM    DATA     BIT       P
      00000098H.7 SFRSYM    DATA     BIT       SM0
      0000008AH   SFRSYM    DATA     BYTE      TL0
      00000098H.6 SFRSYM    DATA     BIT       SM1
      000000CFH   SFRSYM    DATA     BYTE      WDTCON
      0000008BH   SFRSYM    DATA     BYTE      TL1
      00000098H.5 SFRSYM    DATA     BIT       SM2
      000000D6H   SFRSYM    DATA     BYTE      PWMDFR
      000000D5H   SFRSYM    DATA     BYTE      PWMPDH
      000000D0H.3 SFRSYM    DATA     BIT       RS0
      00000088H.4 SFRSYM    DATA     BIT       TR0
      000000D0H.4 SFRSYM    DATA     BIT       RS1
      000000D4H   SFRSYM    DATA     BYTE      PWMPDL
      00000088H.6 SFRSYM    DATA     BIT       TR1
      000000B8H.4 SFRSYM    DATA     BIT       IPUART
      000000D7H   SFRSYM    DATA     BYTE      PWMFLT
      00000083H   SFRSYM    DATA     BYTE      DPH
      00000082H   SFRSYM    DATA     BYTE      DPL
      000000A8H.0 SFRSYM    DATA     BIT       EINT0
      0000009AH   SFRSYM    DATA     BYTE      P0CON
      000000A8H.2 SFRSYM    DATA     BIT       EINT1
      000000B8H.6 SFRSYM    DATA     BIT       IPADC
      000000B4H   SFRSYM    DATA     BYTE      INT0F
      00000091H   SFRSYM    DATA     BYTE      P1CON
      000000BCH   SFRSYM    DATA     BYTE      INT1F
      000000A1H   SFRSYM    DATA     BYTE      P2CON
      000000BEH   SFRSYM    DATA     BYTE      INT2F
      000000B1H   SFRSYM    DATA     BYTE      P3CON
      00000098H.4 SFRSYM    DATA     BIT       REN
      000000C1H   SFRSYM    DATA     BYTE      P4CON
      000000D9H   SFRSYM    DATA     BYTE      P5CON
      000000AFH   SFRSYM    DATA     BYTE      ADCVH
      00000086H   SFRSYM    DATA     BYTE      DPS
      00000095H   SFRSYM    DATA     BYTE      US0CON0
      000000A4H   SFRSYM    DATA     BYTE      US1CON0
      0000009DH   SFRSYM    DATA     BYTE      US0CON1
      000000AEH   SFRSYM    DATA     BYTE      ADCVL
      000000F7H   SFRSYM    DATA     BYTE      EXADH
      000000A5H   SFRSYM    DATA     BYTE      US1CON1
      0000009EH   SFRSYM    DATA     BYTE      US0CON2
      000000A6H   SFRSYM    DATA     BYTE      US1CON2
      0000009FH   SFRSYM    DATA     BYTE      US0CON3
      000000A7H   SFRSYM    DATA     BYTE      US1CON3
      000000BBH   SFRSYM    DATA     BYTE      INT0R
      000000BDH   SFRSYM    DATA     BYTE      INT1R
      000000BFH   SFRSYM    DATA     BYTE      INT2R
      000000DCH   SFRSYM    DATA     BYTE      USXINX
      000000C8H.7 SFRSYM    DATA     BIT       TFX
      00000096H   SFRSYM    DATA     BYTE      IOHCON0
      00000097H   SFRSYM    DATA     BYTE      IOHCON1
      000000CDH   SFRSYM    DATA     BYTE      THX
      000000D0H.5 SFRSYM    DATA     BIT       F0
      000000D0H.1 SFRSYM    DATA     BIT       F1
      000000CCH   SFRSYM    DATA     BYTE      TLX
      000000D0H   SFRSYM    DATA     BYTE      PSW

      01000EA4H   BLOCK     CODE     ---       LVL=0
      01000EA4H   LINE      CODE     ---       #12
      01000EA4H   LINE      CODE     ---       #13
      01000EA4H   LINE      CODE     ---       #14
LX51 LINKER/LOCATER V4.66.100.0                                                       08/30/2023  14:49:07  PAGE 40


      01000EA7H   LINE      CODE     ---       #15
      01000EA7H   LINE      CODE     ---       #16
      01000EA7H   LINE      CODE     ---       #17
      ---         BLOCKEND  ---      ---       LVL=0

      010004E8H   BLOCK     CODE     ---       LVL=0
      010004E8H   LINE      CODE     ---       #26
      010004E8H   LINE      CODE     ---       #27
      010004E8H   LINE      CODE     ---       #30
      010004EBH   LINE      CODE     ---       #31
      010004EEH   LINE      CODE     ---       #32
      010004F1H   LINE      CODE     ---       #33
      010004F4H   LINE      CODE     ---       #34
      010004F7H   LINE      CODE     ---       #35
      01000501H   LINE      CODE     ---       #36
      01000509H   LINE      CODE     ---       #37
      0100050CH   LINE      CODE     ---       #38
      0100050FH   LINE      CODE     ---       #41
      01000512H   LINE      CODE     ---       #42
      01000515H   LINE      CODE     ---       #43
      01000517H   LINE      CODE     ---       #44
      0100051AH   LINE      CODE     ---       #45
      0100051DH   LINE      CODE     ---       #46
      01000520H   LINE      CODE     ---       #47
      01000523H   LINE      CODE     ---       #48
      0100052DH   LINE      CODE     ---       #49
      01000535H   LINE      CODE     ---       #50
      01000538H   LINE      CODE     ---       #51
      0100053AH   LINE      CODE     ---       #54
      0100053DH   LINE      CODE     ---       #55
      01000540H   LINE      CODE     ---       #56
      01000542H   LINE      CODE     ---       #57
      01000545H   LINE      CODE     ---       #58
      01000548H   LINE      CODE     ---       #59
      0100054BH   LINE      CODE     ---       #60
      0100054EH   LINE      CODE     ---       #61
      01000556H   LINE      CODE     ---       #62
      0100055EH   LINE      CODE     ---       #63
      01000561H   LINE      CODE     ---       #64
      01000564H   LINE      CODE     ---       #67
      01000567H   LINE      CODE     ---       #68
      0100056AH   LINE      CODE     ---       #69
      0100056CH   LINE      CODE     ---       #70
      0100056FH   LINE      CODE     ---       #71
      01000572H   LINE      CODE     ---       #72
      01000575H   LINE      CODE     ---       #73
      01000578H   LINE      CODE     ---       #74
      0100057FH   LINE      CODE     ---       #75
      01000586H   LINE      CODE     ---       #76
      01000589H   LINE      CODE     ---       #77
      0100058CH   LINE      CODE     ---       #79
      0100058EH   LINE      CODE     ---       #80
      ---         BLOCKEND  ---      ---       LVL=0

      01000E29H   BLOCK     CODE     ---       LVL=0
      01000E29H   LINE      CODE     ---       #121
      01000E2BH   LINE      CODE     ---       #123
      01000E30H   LINE      CODE     ---       #124
      01000E30H   LINE      CODE     ---       #125
      01000E33H   LINE      CODE     ---       #126
      01000E35H   LINE      CODE     ---       #127
      01000E35H   LINE      CODE     ---       #128
      ---         BLOCKEND  ---      ---       LVL=0

      ---         MODULE    ---      ---       UART_INIT
LX51 LINKER/LOCATER V4.66.100.0                                                       08/30/2023  14:49:07  PAGE 41


      00000021H.5 PUBLIC    BIT      BIT       UartReceiveFlag
      00000021H.4 PUBLIC    BIT      BIT       UartSendFlag
      01000E38H   PUBLIC    CODE     ---       UartInt
      02000022H   PUBLIC    XDATA    BYTE      ?_Uart_Init?BYTE
      010007BCH   PUBLIC    CODE     ---       _Uart_Init
      01000CACH   PUBLIC    CODE     ---       Uart_Test
      000000C8H.2 SFRSYM    DATA     BIT       TRX
      000000FFH   SFRSYM    DATA     BYTE      OPREG
      00000080H   SFRSYM    DATA     BYTE      P0
      00000090H   SFRSYM    DATA     BYTE      P1
      000000A0H   SFRSYM    DATA     BYTE      P2
      000000A8H.4 SFRSYM    DATA     BIT       EUART
      0000008EH   SFRSYM    DATA     BYTE      TMCON
      000000B0H   SFRSYM    DATA     BYTE      P3
      000000D0H.6 SFRSYM    DATA     BIT       AC
      000000C0H   SFRSYM    DATA     BYTE      P4
      0000008FH   SFRSYM    DATA     BYTE      OTCON
      000000D8H   SFRSYM    DATA     BYTE      P5
      000000A8H.7 SFRSYM    DATA     BIT       EA
      000000C8H.5 SFRSYM    DATA     BIT       RCLKX
      000000D2H   SFRSYM    DATA     BYTE      PWMCON0
      000000C8H.4 SFRSYM    DATA     BIT       TCLKX
      000000D3H   SFRSYM    DATA     BYTE      PWMCON1
      000000C8H.3 SFRSYM    DATA     BIT       EXENX
      000000A8H.6 SFRSYM    DATA     BIT       EADC
      000000C9H   SFRSYM    DATA     BYTE      TXMOD
      000000C8H   SFRSYM    DATA     BYTE      TXCON
      000000A8H   SFRSYM    DATA     BYTE      IE
      00000085H   SFRSYM    DATA     BYTE      DPH1
      000000E9H   SFRSYM    DATA     BYTE      EXA0
      000000FEH   SFRSYM    DATA     BYTE      OPINX
      000000EAH   SFRSYM    DATA     BYTE      EXA1
      000000EBH   SFRSYM    DATA     BYTE      EXA2
      000000ECH   SFRSYM    DATA     BYTE      EXA3
      00000084H   SFRSYM    DATA     BYTE      DPL1
      000000C8H.0 SFRSYM    DATA     BIT       CP
      000000C4H   SFRSYM    DATA     BYTE      USXCON0
      000000C5H   SFRSYM    DATA     BYTE      USXCON1
      000000C6H   SFRSYM    DATA     BYTE      USXCON2
      000000C7H   SFRSYM    DATA     BYTE      USXCON3
      000000EFH   SFRSYM    DATA     BYTE      OPERCON
      0000009BH   SFRSYM    DATA     BYTE      P0PH
      000000B8H   SFRSYM    DATA     BYTE      IP
      00000092H   SFRSYM    DATA     BYTE      P1PH
      00000098H.0 SFRSYM    DATA     BIT       RI
      000000A2H   SFRSYM    DATA     BYTE      P2PH
      000000D0H.7 SFRSYM    DATA     BIT       CY
      000000B2H   SFRSYM    DATA     BYTE      P3PH
      00000098H.1 SFRSYM    DATA     BIT       TI
      000000CEH   SFRSYM    DATA     BYTE      TXINX
      000000C2H   SFRSYM    DATA     BYTE      P4PH
      000000B8H.1 SFRSYM    DATA     BIT       IPT0
      000000DAH   SFRSYM    DATA     BYTE      P5PH
      000000B8H.3 SFRSYM    DATA     BIT       IPT1
      000000B8H.5 SFRSYM    DATA     BIT       IPT2
      00000081H   SFRSYM    DATA     BYTE      SP
      000000D0H.2 SFRSYM    DATA     BIT       OV
      000000F4H   SFRSYM    DATA     BYTE      IAPADE
      0000009CH   SFRSYM    DATA     BYTE      P0VO
      00000094H   SFRSYM    DATA     BYTE      P1VO
      000000A3H   SFRSYM    DATA     BYTE      P2VO
      000000EEH   SFRSYM    DATA     BYTE      EXBH
      000000F3H   SFRSYM    DATA     BYTE      IAPADH
      000000B3H   SFRSYM    DATA     BYTE      P3VO
      000000ADH   SFRSYM    DATA     BYTE      ADCCON
LX51 LINKER/LOCATER V4.66.100.0                                                       08/30/2023  14:49:07  PAGE 42


      000000C8H.1 SFRSYM    DATA     BIT       TX
      000000EDH   SFRSYM    DATA     BYTE      EXBL
      000000F2H   SFRSYM    DATA     BYTE      IAPADL
      00000080H.0 SFRSYM    DATA     BIT       P00
      00000090H.0 SFRSYM    DATA     BIT       P10
      00000080H.1 SFRSYM    DATA     BIT       P01
      00000099H   SFRSYM    DATA     BYTE      SBUF
      00000087H   SFRSYM    DATA     BYTE      PCON
      000000A0H.0 SFRSYM    DATA     BIT       P20
      00000090H.1 SFRSYM    DATA     BIT       P11
      00000080H.2 SFRSYM    DATA     BIT       P02
      000000B6H   SFRSYM    DATA     BYTE      CMPCFG
      000000B0H.0 SFRSYM    DATA     BIT       P30
      000000A0H.1 SFRSYM    DATA     BIT       P21
      00000090H.2 SFRSYM    DATA     BIT       P12
      00000080H.3 SFRSYM    DATA     BIT       P03
      000000C0H.0 SFRSYM    DATA     BIT       P40
      000000B0H.1 SFRSYM    DATA     BIT       P31
      000000A0H.2 SFRSYM    DATA     BIT       P22
      00000090H.3 SFRSYM    DATA     BIT       P13
      00000080H.4 SFRSYM    DATA     BIT       P04
      00000098H   SFRSYM    DATA     BYTE      SCON
      000000D8H.0 SFRSYM    DATA     BIT       P50
      000000C0H.1 SFRSYM    DATA     BIT       P41
      000000B0H.2 SFRSYM    DATA     BIT       P32
      000000A0H.3 SFRSYM    DATA     BIT       P23
      00000090H.4 SFRSYM    DATA     BIT       P14
      00000080H.5 SFRSYM    DATA     BIT       P05
      000000F5H   SFRSYM    DATA     BYTE      IAPDAT
      00000089H   SFRSYM    DATA     BYTE      TMOD
      00000088H   SFRSYM    DATA     BYTE      TCON
      000000D8H.1 SFRSYM    DATA     BIT       P51
      000000C0H.2 SFRSYM    DATA     BIT       P42
      000000B0H.3 SFRSYM    DATA     BIT       P33
      000000A0H.4 SFRSYM    DATA     BIT       P24
      00000090H.5 SFRSYM    DATA     BIT       P15
      00000080H.6 SFRSYM    DATA     BIT       P06
      000000B8H.0 SFRSYM    DATA     BIT       IPINT0
      000000D8H.2 SFRSYM    DATA     BIT       P52
      000000C0H.3 SFRSYM    DATA     BIT       P43
      000000B0H.4 SFRSYM    DATA     BIT       P34
      000000A0H.5 SFRSYM    DATA     BIT       P25
      00000090H.6 SFRSYM    DATA     BIT       P16
      00000080H.7 SFRSYM    DATA     BIT       P07
      000000B8H.2 SFRSYM    DATA     BIT       IPINT1
      000000D8H.3 SFRSYM    DATA     BIT       P53
      000000C0H.4 SFRSYM    DATA     BIT       P44
      000000B0H.5 SFRSYM    DATA     BIT       P35
      000000A0H.6 SFRSYM    DATA     BIT       P26
      00000090H.7 SFRSYM    DATA     BIT       P17
      000000FDH   SFRSYM    DATA     BYTE      CRCREG
      000000D8H.4 SFRSYM    DATA     BIT       P54
      000000C0H.5 SFRSYM    DATA     BIT       P45
      000000B0H.6 SFRSYM    DATA     BIT       P36
      000000A0H.7 SFRSYM    DATA     BIT       P27
      000000D8H.5 SFRSYM    DATA     BIT       P55
      000000C0H.6 SFRSYM    DATA     BIT       P46
      000000B0H.7 SFRSYM    DATA     BIT       P37
      000000C0H.7 SFRSYM    DATA     BIT       P47
      000000C8H.6 SFRSYM    DATA     BIT       EXFX
      00000093H   SFRSYM    DATA     BYTE      DDRCON
      000000F6H   SFRSYM    DATA     BYTE      IAPCTL
      000000A9H   SFRSYM    DATA     BYTE      IE1
      000000AAH   SFRSYM    DATA     BYTE      IE2
      000000F0H   SFRSYM    DATA     BYTE      B
LX51 LINKER/LOCATER V4.66.100.0                                                       08/30/2023  14:49:07  PAGE 43


      000000B7H   SFRSYM    DATA     BYTE      CMPCON
      000000F1H   SFRSYM    DATA     BYTE      IAPKEY
      000000FBH   SFRSYM    DATA     BYTE      BTMCON
      000000D1H   SFRSYM    DATA     BYTE      PWMCFG
      000000E0H   SFRSYM    DATA     BYTE      ACC
      000000CBH   SFRSYM    DATA     BYTE      RCAPXH
      000000A8H.1 SFRSYM    DATA     BIT       ET0
      000000FCH   SFRSYM    DATA     BYTE      CRCINX
      00000088H.5 SFRSYM    DATA     BIT       TF0
      000000A8H.3 SFRSYM    DATA     BIT       ET1
      000000ABH   SFRSYM    DATA     BYTE      ADCCFG0
      000000B9H   SFRSYM    DATA     BYTE      IP1
      00000088H.7 SFRSYM    DATA     BIT       TF1
      000000A8H.5 SFRSYM    DATA     BIT       ET2
      000000ACH   SFRSYM    DATA     BYTE      ADCCFG1
      000000BAH   SFRSYM    DATA     BYTE      IP2
      00000098H.2 SFRSYM    DATA     BIT       RB8
      000000B5H   SFRSYM    DATA     BYTE      ADCCFG2
      000000CAH   SFRSYM    DATA     BYTE      RCAPXL
      0000008CH   SFRSYM    DATA     BYTE      TH0
      0000008DH   SFRSYM    DATA     BYTE      TH1
      00000098H.3 SFRSYM    DATA     BIT       TB8
      000000D0H.0 SFRSYM    DATA     BIT       P
      00000098H.7 SFRSYM    DATA     BIT       SM0
      0000008AH   SFRSYM    DATA     BYTE      TL0
      00000098H.6 SFRSYM    DATA     BIT       SM1
      000000CFH   SFRSYM    DATA     BYTE      WDTCON
      0000008BH   SFRSYM    DATA     BYTE      TL1
      00000098H.5 SFRSYM    DATA     BIT       SM2
      000000D6H   SFRSYM    DATA     BYTE      PWMDFR
      000000D5H   SFRSYM    DATA     BYTE      PWMPDH
      000000D0H.3 SFRSYM    DATA     BIT       RS0
      00000088H.4 SFRSYM    DATA     BIT       TR0
      000000D0H.4 SFRSYM    DATA     BIT       RS1
      000000D4H   SFRSYM    DATA     BYTE      PWMPDL
      00000088H.6 SFRSYM    DATA     BIT       TR1
      000000B8H.4 SFRSYM    DATA     BIT       IPUART
      000000D7H   SFRSYM    DATA     BYTE      PWMFLT
      00000083H   SFRSYM    DATA     BYTE      DPH
      00000082H   SFRSYM    DATA     BYTE      DPL
      000000A8H.0 SFRSYM    DATA     BIT       EINT0
      0000009AH   SFRSYM    DATA     BYTE      P0CON
      000000A8H.2 SFRSYM    DATA     BIT       EINT1
      000000B8H.6 SFRSYM    DATA     BIT       IPADC
      000000B4H   SFRSYM    DATA     BYTE      INT0F
      00000091H   SFRSYM    DATA     BYTE      P1CON
      000000BCH   SFRSYM    DATA     BYTE      INT1F
      000000A1H   SFRSYM    DATA     BYTE      P2CON
      000000BEH   SFRSYM    DATA     BYTE      INT2F
      000000B1H   SFRSYM    DATA     BYTE      P3CON
      00000098H.4 SFRSYM    DATA     BIT       REN
      000000C1H   SFRSYM    DATA     BYTE      P4CON
      000000D9H   SFRSYM    DATA     BYTE      P5CON
      000000AFH   SFRSYM    DATA     BYTE      ADCVH
      00000086H   SFRSYM    DATA     BYTE      DPS
      00000095H   SFRSYM    DATA     BYTE      US0CON0
      000000A4H   SFRSYM    DATA     BYTE      US1CON0
      0000009DH   SFRSYM    DATA     BYTE      US0CON1
      000000AEH   SFRSYM    DATA     BYTE      ADCVL
      000000F7H   SFRSYM    DATA     BYTE      EXADH
      000000A5H   SFRSYM    DATA     BYTE      US1CON1
      0000009EH   SFRSYM    DATA     BYTE      US0CON2
      000000A6H   SFRSYM    DATA     BYTE      US1CON2
      0000009FH   SFRSYM    DATA     BYTE      US0CON3
      000000A7H   SFRSYM    DATA     BYTE      US1CON3
LX51 LINKER/LOCATER V4.66.100.0                                                       08/30/2023  14:49:07  PAGE 44


      000000BBH   SFRSYM    DATA     BYTE      INT0R
      000000BDH   SFRSYM    DATA     BYTE      INT1R
      000000BFH   SFRSYM    DATA     BYTE      INT2R
      000000DCH   SFRSYM    DATA     BYTE      USXINX
      000000C8H.7 SFRSYM    DATA     BIT       TFX
      00000096H   SFRSYM    DATA     BYTE      IOHCON0
      00000097H   SFRSYM    DATA     BYTE      IOHCON1
      000000CDH   SFRSYM    DATA     BYTE      THX
      000000D0H.5 SFRSYM    DATA     BIT       F0
      000000D0H.1 SFRSYM    DATA     BIT       F1
      000000CCH   SFRSYM    DATA     BYTE      TLX
      000000D0H   SFRSYM    DATA     BYTE      PSW

      01000CACH   BLOCK     CODE     ---       LVL=0
      01000CACH   LINE      CODE     ---       #12
      01000CACH   LINE      CODE     ---       #13
      01000CACH   LINE      CODE     ---       #14
      01000CBDH   LINE      CODE     ---       #15
      01000CBDH   LINE      CODE     ---       #16
      01000CBDH   LINE      CODE     ---       #17
      01000CC0H   LINE      CODE     ---       #18
      01000CC3H   LINE      CODE     ---       #19
      01000CC5H   LINE      CODE     ---       #20
      01000CD0H   LINE      CODE     ---       #21
      ---         BLOCKEND  ---      ---       LVL=0

      010007BCH   BLOCK     CODE     ---       LVL=0
      02000022H   SYMBOL    XDATA    WORD      Freq
      02000024H   SYMBOL    XDATA    DWORD     baud
      010007BCH   LINE      CODE     ---       #29
      010007C4H   LINE      CODE     ---       #30
      010007C4H   LINE      CODE     ---       #31
      010007C7H   LINE      CODE     ---       #32
      010007CAH   LINE      CODE     ---       #33
      010007CDH   LINE      CODE     ---       #34
      010007D0H   LINE      CODE     ---       #35
      010007FDH   LINE      CODE     ---       #36
      01000825H   LINE      CODE     ---       #37
      01000827H   LINE      CODE     ---       #38
      01000829H   LINE      CODE     ---       #39
      0100082BH   LINE      CODE     ---       #40
      0100082DH   LINE      CODE     ---       #41
      ---         BLOCKEND  ---      ---       LVL=0

      01000E38H   BLOCK     CODE     ---       LVL=0
      01000E38H   LINE      CODE     ---       #69
      01000E38H   LINE      CODE     ---       #71
      01000E3BH   LINE      CODE     ---       #72
      01000E3BH   LINE      CODE     ---       #73
      01000E3DH   LINE      CODE     ---       #74
      01000E3FH   LINE      CODE     ---       #75
      01000E3FH   LINE      CODE     ---       #76
      01000E42H   LINE      CODE     ---       #77
      01000E42H   LINE      CODE     ---       #78
      01000E44H   LINE      CODE     ---       #79
      01000E46H   LINE      CODE     ---       #80
      01000E46H   LINE      CODE     ---       #81
      ---         BLOCKEND  ---      ---       LVL=0

      ---         MODULE    ---      ---       SSIX_INIT
      00000020H.3 PUBLIC    BIT      BIT       TWIXFlag
      00000020H.2 PUBLIC    BIT      BIT       SPIXFlag
      00000020H.1 PUBLIC    BIT      BIT       UartXReceiveFlag
      00000020H.0 PUBLIC    BIT      BIT       UartXSendFlag
      01000D98H   PUBLIC    CODE     ---       SPI3_Int
LX51 LINKER/LOCATER V4.66.100.0                                                       08/30/2023  14:49:07  PAGE 45


      01000D13H   PUBLIC    CODE     ---       SPIX_Init
      01000D31H   PUBLIC    CODE     ---       SSIX_Test
      000000C8H.2 SFRSYM    DATA     BIT       TRX
      000000FFH   SFRSYM    DATA     BYTE      OPREG
      00000080H   SFRSYM    DATA     BYTE      P0
      00000090H   SFRSYM    DATA     BYTE      P1
      000000A0H   SFRSYM    DATA     BYTE      P2
      000000A8H.4 SFRSYM    DATA     BIT       EUART
      0000008EH   SFRSYM    DATA     BYTE      TMCON
      000000B0H   SFRSYM    DATA     BYTE      P3
      000000D0H.6 SFRSYM    DATA     BIT       AC
      000000C0H   SFRSYM    DATA     BYTE      P4
      0000008FH   SFRSYM    DATA     BYTE      OTCON
      000000D8H   SFRSYM    DATA     BYTE      P5
      000000A8H.7 SFRSYM    DATA     BIT       EA
      000000C8H.5 SFRSYM    DATA     BIT       RCLKX
      000000D2H   SFRSYM    DATA     BYTE      PWMCON0
      000000C8H.4 SFRSYM    DATA     BIT       TCLKX
      000000D3H   SFRSYM    DATA     BYTE      PWMCON1
      000000C8H.3 SFRSYM    DATA     BIT       EXENX
      000000A8H.6 SFRSYM    DATA     BIT       EADC
      000000C9H   SFRSYM    DATA     BYTE      TXMOD
      000000C8H   SFRSYM    DATA     BYTE      TXCON
      000000A8H   SFRSYM    DATA     BYTE      IE
      00000085H   SFRSYM    DATA     BYTE      DPH1
      000000E9H   SFRSYM    DATA     BYTE      EXA0
      000000FEH   SFRSYM    DATA     BYTE      OPINX
      000000EAH   SFRSYM    DATA     BYTE      EXA1
      000000EBH   SFRSYM    DATA     BYTE      EXA2
      000000ECH   SFRSYM    DATA     BYTE      EXA3
      00000084H   SFRSYM    DATA     BYTE      DPL1
      000000C8H.0 SFRSYM    DATA     BIT       CP
      000000C4H   SFRSYM    DATA     BYTE      USXCON0
      000000C5H   SFRSYM    DATA     BYTE      USXCON1
      000000C6H   SFRSYM    DATA     BYTE      USXCON2
      000000C7H   SFRSYM    DATA     BYTE      USXCON3
      000000EFH   SFRSYM    DATA     BYTE      OPERCON
      0000009BH   SFRSYM    DATA     BYTE      P0PH
      000000B8H   SFRSYM    DATA     BYTE      IP
      00000092H   SFRSYM    DATA     BYTE      P1PH
      00000098H.0 SFRSYM    DATA     BIT       RI
      000000A2H   SFRSYM    DATA     BYTE      P2PH
      000000D0H.7 SFRSYM    DATA     BIT       CY
      000000B2H   SFRSYM    DATA     BYTE      P3PH
      00000098H.1 SFRSYM    DATA     BIT       TI
      000000CEH   SFRSYM    DATA     BYTE      TXINX
      000000C2H   SFRSYM    DATA     BYTE      P4PH
      000000B8H.1 SFRSYM    DATA     BIT       IPT0
      000000DAH   SFRSYM    DATA     BYTE      P5PH
      000000B8H.3 SFRSYM    DATA     BIT       IPT1
      000000B8H.5 SFRSYM    DATA     BIT       IPT2
      00000081H   SFRSYM    DATA     BYTE      SP
      000000D0H.2 SFRSYM    DATA     BIT       OV
      000000F4H   SFRSYM    DATA     BYTE      IAPADE
      0000009CH   SFRSYM    DATA     BYTE      P0VO
      00000094H   SFRSYM    DATA     BYTE      P1VO
      000000A3H   SFRSYM    DATA     BYTE      P2VO
      000000EEH   SFRSYM    DATA     BYTE      EXBH
      000000F3H   SFRSYM    DATA     BYTE      IAPADH
      000000B3H   SFRSYM    DATA     BYTE      P3VO
      000000ADH   SFRSYM    DATA     BYTE      ADCCON
      000000C8H.1 SFRSYM    DATA     BIT       TX
      000000EDH   SFRSYM    DATA     BYTE      EXBL
      000000F2H   SFRSYM    DATA     BYTE      IAPADL
      00000080H.0 SFRSYM    DATA     BIT       P00
LX51 LINKER/LOCATER V4.66.100.0                                                       08/30/2023  14:49:07  PAGE 46


      00000090H.0 SFRSYM    DATA     BIT       P10
      00000080H.1 SFRSYM    DATA     BIT       P01
      00000099H   SFRSYM    DATA     BYTE      SBUF
      00000087H   SFRSYM    DATA     BYTE      PCON
      000000A0H.0 SFRSYM    DATA     BIT       P20
      00000090H.1 SFRSYM    DATA     BIT       P11
      00000080H.2 SFRSYM    DATA     BIT       P02
      000000B6H   SFRSYM    DATA     BYTE      CMPCFG
      000000B0H.0 SFRSYM    DATA     BIT       P30
      000000A0H.1 SFRSYM    DATA     BIT       P21
      00000090H.2 SFRSYM    DATA     BIT       P12
      00000080H.3 SFRSYM    DATA     BIT       P03
      000000C0H.0 SFRSYM    DATA     BIT       P40
      000000B0H.1 SFRSYM    DATA     BIT       P31
      000000A0H.2 SFRSYM    DATA     BIT       P22
      00000090H.3 SFRSYM    DATA     BIT       P13
      00000080H.4 SFRSYM    DATA     BIT       P04
      00000098H   SFRSYM    DATA     BYTE      SCON
      000000D8H.0 SFRSYM    DATA     BIT       P50
      000000C0H.1 SFRSYM    DATA     BIT       P41
      000000B0H.2 SFRSYM    DATA     BIT       P32
      000000A0H.3 SFRSYM    DATA     BIT       P23
      00000090H.4 SFRSYM    DATA     BIT       P14
      00000080H.5 SFRSYM    DATA     BIT       P05
      000000F5H   SFRSYM    DATA     BYTE      IAPDAT
      00000089H   SFRSYM    DATA     BYTE      TMOD
      00000088H   SFRSYM    DATA     BYTE      TCON
      000000D8H.1 SFRSYM    DATA     BIT       P51
      000000C0H.2 SFRSYM    DATA     BIT       P42
      000000B0H.3 SFRSYM    DATA     BIT       P33
      000000A0H.4 SFRSYM    DATA     BIT       P24
      00000090H.5 SFRSYM    DATA     BIT       P15
      00000080H.6 SFRSYM    DATA     BIT       P06
      000000B8H.0 SFRSYM    DATA     BIT       IPINT0
      000000D8H.2 SFRSYM    DATA     BIT       P52
      000000C0H.3 SFRSYM    DATA     BIT       P43
      000000B0H.4 SFRSYM    DATA     BIT       P34
      000000A0H.5 SFRSYM    DATA     BIT       P25
      00000090H.6 SFRSYM    DATA     BIT       P16
      00000080H.7 SFRSYM    DATA     BIT       P07
      000000B8H.2 SFRSYM    DATA     BIT       IPINT1
      000000D8H.3 SFRSYM    DATA     BIT       P53
      000000C0H.4 SFRSYM    DATA     BIT       P44
      000000B0H.5 SFRSYM    DATA     BIT       P35
      000000A0H.6 SFRSYM    DATA     BIT       P26
      00000090H.7 SFRSYM    DATA     BIT       P17
      000000FDH   SFRSYM    DATA     BYTE      CRCREG
      000000D8H.4 SFRSYM    DATA     BIT       P54
      000000C0H.5 SFRSYM    DATA     BIT       P45
      000000B0H.6 SFRSYM    DATA     BIT       P36
      000000A0H.7 SFRSYM    DATA     BIT       P27
      000000D8H.5 SFRSYM    DATA     BIT       P55
      000000C0H.6 SFRSYM    DATA     BIT       P46
      000000B0H.7 SFRSYM    DATA     BIT       P37
      000000C0H.7 SFRSYM    DATA     BIT       P47
      000000C8H.6 SFRSYM    DATA     BIT       EXFX
      00000093H   SFRSYM    DATA     BYTE      DDRCON
      000000F6H   SFRSYM    DATA     BYTE      IAPCTL
      000000A9H   SFRSYM    DATA     BYTE      IE1
      000000AAH   SFRSYM    DATA     BYTE      IE2
      000000F0H   SFRSYM    DATA     BYTE      B
      000000B7H   SFRSYM    DATA     BYTE      CMPCON
      000000F1H   SFRSYM    DATA     BYTE      IAPKEY
      000000FBH   SFRSYM    DATA     BYTE      BTMCON
      000000D1H   SFRSYM    DATA     BYTE      PWMCFG
LX51 LINKER/LOCATER V4.66.100.0                                                       08/30/2023  14:49:07  PAGE 47


      000000E0H   SFRSYM    DATA     BYTE      ACC
      000000CBH   SFRSYM    DATA     BYTE      RCAPXH
      000000A8H.1 SFRSYM    DATA     BIT       ET0
      000000FCH   SFRSYM    DATA     BYTE      CRCINX
      00000088H.5 SFRSYM    DATA     BIT       TF0
      000000A8H.3 SFRSYM    DATA     BIT       ET1
      000000ABH   SFRSYM    DATA     BYTE      ADCCFG0
      000000B9H   SFRSYM    DATA     BYTE      IP1
      00000088H.7 SFRSYM    DATA     BIT       TF1
      000000A8H.5 SFRSYM    DATA     BIT       ET2
      000000ACH   SFRSYM    DATA     BYTE      ADCCFG1
      000000BAH   SFRSYM    DATA     BYTE      IP2
      00000098H.2 SFRSYM    DATA     BIT       RB8
      000000B5H   SFRSYM    DATA     BYTE      ADCCFG2
      000000CAH   SFRSYM    DATA     BYTE      RCAPXL
      0000008CH   SFRSYM    DATA     BYTE      TH0
      0000008DH   SFRSYM    DATA     BYTE      TH1
      00000098H.3 SFRSYM    DATA     BIT       TB8
      000000D0H.0 SFRSYM    DATA     BIT       P
      00000098H.7 SFRSYM    DATA     BIT       SM0
      0000008AH   SFRSYM    DATA     BYTE      TL0
      00000098H.6 SFRSYM    DATA     BIT       SM1
      000000CFH   SFRSYM    DATA     BYTE      WDTCON
      0000008BH   SFRSYM    DATA     BYTE      TL1
      00000098H.5 SFRSYM    DATA     BIT       SM2
      000000D6H   SFRSYM    DATA     BYTE      PWMDFR
      000000D5H   SFRSYM    DATA     BYTE      PWMPDH
      000000D0H.3 SFRSYM    DATA     BIT       RS0
      00000088H.4 SFRSYM    DATA     BIT       TR0
      000000D0H.4 SFRSYM    DATA     BIT       RS1
      000000D4H   SFRSYM    DATA     BYTE      PWMPDL
      00000088H.6 SFRSYM    DATA     BIT       TR1
      000000B8H.4 SFRSYM    DATA     BIT       IPUART
      000000D7H   SFRSYM    DATA     BYTE      PWMFLT
      00000083H   SFRSYM    DATA     BYTE      DPH
      00000082H   SFRSYM    DATA     BYTE      DPL
      000000A8H.0 SFRSYM    DATA     BIT       EINT0
      0000009AH   SFRSYM    DATA     BYTE      P0CON
      000000A8H.2 SFRSYM    DATA     BIT       EINT1
      000000B8H.6 SFRSYM    DATA     BIT       IPADC
      000000B4H   SFRSYM    DATA     BYTE      INT0F
      00000091H   SFRSYM    DATA     BYTE      P1CON
      000000BCH   SFRSYM    DATA     BYTE      INT1F
      000000A1H   SFRSYM    DATA     BYTE      P2CON
      000000BEH   SFRSYM    DATA     BYTE      INT2F
      000000B1H   SFRSYM    DATA     BYTE      P3CON
      00000098H.4 SFRSYM    DATA     BIT       REN
      000000C1H   SFRSYM    DATA     BYTE      P4CON
      000000D9H   SFRSYM    DATA     BYTE      P5CON
      000000AFH   SFRSYM    DATA     BYTE      ADCVH
      00000086H   SFRSYM    DATA     BYTE      DPS
      00000095H   SFRSYM    DATA     BYTE      US0CON0
      000000A4H   SFRSYM    DATA     BYTE      US1CON0
      0000009DH   SFRSYM    DATA     BYTE      US0CON1
      000000AEH   SFRSYM    DATA     BYTE      ADCVL
      000000F7H   SFRSYM    DATA     BYTE      EXADH
      000000A5H   SFRSYM    DATA     BYTE      US1CON1
      0000009EH   SFRSYM    DATA     BYTE      US0CON2
      000000A6H   SFRSYM    DATA     BYTE      US1CON2
      0000009FH   SFRSYM    DATA     BYTE      US0CON3
      000000A7H   SFRSYM    DATA     BYTE      US1CON3
      000000BBH   SFRSYM    DATA     BYTE      INT0R
      000000BDH   SFRSYM    DATA     BYTE      INT1R
      000000BFH   SFRSYM    DATA     BYTE      INT2R
      000000DCH   SFRSYM    DATA     BYTE      USXINX
LX51 LINKER/LOCATER V4.66.100.0                                                       08/30/2023  14:49:07  PAGE 48


      000000C8H.7 SFRSYM    DATA     BIT       TFX
      00000096H   SFRSYM    DATA     BYTE      IOHCON0
      00000097H   SFRSYM    DATA     BYTE      IOHCON1
      000000CDH   SFRSYM    DATA     BYTE      THX
      000000D0H.5 SFRSYM    DATA     BIT       F0
      000000D0H.1 SFRSYM    DATA     BIT       F1
      000000CCH   SFRSYM    DATA     BYTE      TLX
      000000D0H   SFRSYM    DATA     BYTE      PSW

      01000D31H   BLOCK     CODE     ---       LVL=0
      01000D31H   LINE      CODE     ---       #32
      01000D31H   LINE      CODE     ---       #33
      01000D31H   LINE      CODE     ---       #34
      01000D34H   LINE      CODE     ---       #67
      01000D34H   LINE      CODE     ---       #68
      01000D37H   LINE      CODE     ---       #69
      01000D37H   LINE      CODE     ---       #70
      01000D37H   LINE      CODE     ---       #71
      01000D3AH   LINE      CODE     ---       #72
      01000D3DH   LINE      CODE     ---       #73
      01000D3FH   LINE      CODE     ---       #74
      01000D4AH   LINE      CODE     ---       #75
      ---         BLOCKEND  ---      ---       LVL=0

      01000D13H   BLOCK     CODE     ---       LVL=0
      01000D13H   LINE      CODE     ---       #156
      01000D13H   LINE      CODE     ---       #157
      01000D13H   LINE      CODE     ---       #158
      01000D16H   LINE      CODE     ---       #164
      01000D19H   LINE      CODE     ---       #165
      01000D1CH   LINE      CODE     ---       #166
      01000D1FH   LINE      CODE     ---       #178
      01000D22H   LINE      CODE     ---       #179
      01000D25H   LINE      CODE     ---       #180
      01000D28H   LINE      CODE     ---       #181
      01000D2BH   LINE      CODE     ---       #182
      01000D2EH   LINE      CODE     ---       #183
      01000D30H   LINE      CODE     ---       #184
      ---         BLOCKEND  ---      ---       LVL=0

      01000D98H   BLOCK     CODE     ---       LVL=0
      01000D98H   LINE      CODE     ---       #261
      01000D9AH   LINE      CODE     ---       #263
      01000D9FH   LINE      CODE     ---       #264
      01000D9FH   LINE      CODE     ---       #265
      01000DA2H   LINE      CODE     ---       #266
      01000DA2H   LINE      CODE     ---       #267
      01000DA7H   LINE      CODE     ---       #268
      01000DA7H   LINE      CODE     ---       #269
      01000DAAH   LINE      CODE     ---       #270
      01000DACH   LINE      CODE     ---       #271
      01000DACH   LINE      CODE     ---       #272
      ---         BLOCKEND  ---      ---       LVL=0

      ---         MODULE    ---      ---       SSI0_INIT
      00000020H.7 PUBLIC    BIT      BIT       Uart0SendFlag
      00000020H.6 PUBLIC    BIT      BIT       TWI0Flag
      00000020H.5 PUBLIC    BIT      BIT       SPI0Flag
      00000020H.4 PUBLIC    BIT      BIT       Uart0ReceiveFlag
      01000DAFH   PUBLIC    CODE     ---       Spi0_Int
      01000E05H   PUBLIC    CODE     ---       SPI0_Init
      01000D80H   PUBLIC    CODE     ---       SSI0_Test
      000000C8H.2 SFRSYM    DATA     BIT       TRX
      000000FFH   SFRSYM    DATA     BYTE      OPREG
      00000080H   SFRSYM    DATA     BYTE      P0
LX51 LINKER/LOCATER V4.66.100.0                                                       08/30/2023  14:49:07  PAGE 49


      00000090H   SFRSYM    DATA     BYTE      P1
      000000A0H   SFRSYM    DATA     BYTE      P2
      000000A8H.4 SFRSYM    DATA     BIT       EUART
      0000008EH   SFRSYM    DATA     BYTE      TMCON
      000000B0H   SFRSYM    DATA     BYTE      P3
      000000D0H.6 SFRSYM    DATA     BIT       AC
      000000C0H   SFRSYM    DATA     BYTE      P4
      0000008FH   SFRSYM    DATA     BYTE      OTCON
      000000D8H   SFRSYM    DATA     BYTE      P5
      000000A8H.7 SFRSYM    DATA     BIT       EA
      000000C8H.5 SFRSYM    DATA     BIT       RCLKX
      000000D2H   SFRSYM    DATA     BYTE      PWMCON0
      000000C8H.4 SFRSYM    DATA     BIT       TCLKX
      000000D3H   SFRSYM    DATA     BYTE      PWMCON1
      000000C8H.3 SFRSYM    DATA     BIT       EXENX
      000000A8H.6 SFRSYM    DATA     BIT       EADC
      000000C9H   SFRSYM    DATA     BYTE      TXMOD
      000000C8H   SFRSYM    DATA     BYTE      TXCON
      000000A8H   SFRSYM    DATA     BYTE      IE
      00000085H   SFRSYM    DATA     BYTE      DPH1
      000000E9H   SFRSYM    DATA     BYTE      EXA0
      000000FEH   SFRSYM    DATA     BYTE      OPINX
      000000EAH   SFRSYM    DATA     BYTE      EXA1
      000000EBH   SFRSYM    DATA     BYTE      EXA2
      000000ECH   SFRSYM    DATA     BYTE      EXA3
      00000084H   SFRSYM    DATA     BYTE      DPL1
      000000C8H.0 SFRSYM    DATA     BIT       CP
      000000C4H   SFRSYM    DATA     BYTE      USXCON0
      000000C5H   SFRSYM    DATA     BYTE      USXCON1
      000000C6H   SFRSYM    DATA     BYTE      USXCON2
      000000C7H   SFRSYM    DATA     BYTE      USXCON3
      000000EFH   SFRSYM    DATA     BYTE      OPERCON
      0000009BH   SFRSYM    DATA     BYTE      P0PH
      000000B8H   SFRSYM    DATA     BYTE      IP
      00000092H   SFRSYM    DATA     BYTE      P1PH
      00000098H.0 SFRSYM    DATA     BIT       RI
      000000A2H   SFRSYM    DATA     BYTE      P2PH
      000000D0H.7 SFRSYM    DATA     BIT       CY
      000000B2H   SFRSYM    DATA     BYTE      P3PH
      00000098H.1 SFRSYM    DATA     BIT       TI
      000000CEH   SFRSYM    DATA     BYTE      TXINX
      000000C2H   SFRSYM    DATA     BYTE      P4PH
      000000B8H.1 SFRSYM    DATA     BIT       IPT0
      000000DAH   SFRSYM    DATA     BYTE      P5PH
      000000B8H.3 SFRSYM    DATA     BIT       IPT1
      000000B8H.5 SFRSYM    DATA     BIT       IPT2
      00000081H   SFRSYM    DATA     BYTE      SP
      000000D0H.2 SFRSYM    DATA     BIT       OV
      000000F4H   SFRSYM    DATA     BYTE      IAPADE
      0000009CH   SFRSYM    DATA     BYTE      P0VO
      00000094H   SFRSYM    DATA     BYTE      P1VO
      000000A3H   SFRSYM    DATA     BYTE      P2VO
      000000EEH   SFRSYM    DATA     BYTE      EXBH
      000000F3H   SFRSYM    DATA     BYTE      IAPADH
      000000B3H   SFRSYM    DATA     BYTE      P3VO
      000000ADH   SFRSYM    DATA     BYTE      ADCCON
      000000C8H.1 SFRSYM    DATA     BIT       TX
      000000EDH   SFRSYM    DATA     BYTE      EXBL
      000000F2H   SFRSYM    DATA     BYTE      IAPADL
      00000080H.0 SFRSYM    DATA     BIT       P00
      00000090H.0 SFRSYM    DATA     BIT       P10
      00000080H.1 SFRSYM    DATA     BIT       P01
      00000099H   SFRSYM    DATA     BYTE      SBUF
      00000087H   SFRSYM    DATA     BYTE      PCON
      000000A0H.0 SFRSYM    DATA     BIT       P20
LX51 LINKER/LOCATER V4.66.100.0                                                       08/30/2023  14:49:07  PAGE 50


      00000090H.1 SFRSYM    DATA     BIT       P11
      00000080H.2 SFRSYM    DATA     BIT       P02
      000000B6H   SFRSYM    DATA     BYTE      CMPCFG
      000000B0H.0 SFRSYM    DATA     BIT       P30
      000000A0H.1 SFRSYM    DATA     BIT       P21
      00000090H.2 SFRSYM    DATA     BIT       P12
      00000080H.3 SFRSYM    DATA     BIT       P03
      000000C0H.0 SFRSYM    DATA     BIT       P40
      000000B0H.1 SFRSYM    DATA     BIT       P31
      000000A0H.2 SFRSYM    DATA     BIT       P22
      00000090H.3 SFRSYM    DATA     BIT       P13
      00000080H.4 SFRSYM    DATA     BIT       P04
      00000098H   SFRSYM    DATA     BYTE      SCON
      000000D8H.0 SFRSYM    DATA     BIT       P50
      000000C0H.1 SFRSYM    DATA     BIT       P41
      000000B0H.2 SFRSYM    DATA     BIT       P32
      000000A0H.3 SFRSYM    DATA     BIT       P23
      00000090H.4 SFRSYM    DATA     BIT       P14
      00000080H.5 SFRSYM    DATA     BIT       P05
      000000F5H   SFRSYM    DATA     BYTE      IAPDAT
      00000089H   SFRSYM    DATA     BYTE      TMOD
      00000088H   SFRSYM    DATA     BYTE      TCON
      000000D8H.1 SFRSYM    DATA     BIT       P51
      000000C0H.2 SFRSYM    DATA     BIT       P42
      000000B0H.3 SFRSYM    DATA     BIT       P33
      000000A0H.4 SFRSYM    DATA     BIT       P24
      00000090H.5 SFRSYM    DATA     BIT       P15
      00000080H.6 SFRSYM    DATA     BIT       P06
      000000B8H.0 SFRSYM    DATA     BIT       IPINT0
      000000D8H.2 SFRSYM    DATA     BIT       P52
      000000C0H.3 SFRSYM    DATA     BIT       P43
      000000B0H.4 SFRSYM    DATA     BIT       P34
      000000A0H.5 SFRSYM    DATA     BIT       P25
      00000090H.6 SFRSYM    DATA     BIT       P16
      00000080H.7 SFRSYM    DATA     BIT       P07
      000000B8H.2 SFRSYM    DATA     BIT       IPINT1
      000000D8H.3 SFRSYM    DATA     BIT       P53
      000000C0H.4 SFRSYM    DATA     BIT       P44
      000000B0H.5 SFRSYM    DATA     BIT       P35
      000000A0H.6 SFRSYM    DATA     BIT       P26
      00000090H.7 SFRSYM    DATA     BIT       P17
      000000FDH   SFRSYM    DATA     BYTE      CRCREG
      000000D8H.4 SFRSYM    DATA     BIT       P54
      000000C0H.5 SFRSYM    DATA     BIT       P45
      000000B0H.6 SFRSYM    DATA     BIT       P36
      000000A0H.7 SFRSYM    DATA     BIT       P27
      000000D8H.5 SFRSYM    DATA     BIT       P55
      000000C0H.6 SFRSYM    DATA     BIT       P46
      000000B0H.7 SFRSYM    DATA     BIT       P37
      000000C0H.7 SFRSYM    DATA     BIT       P47
      000000C8H.6 SFRSYM    DATA     BIT       EXFX
      00000093H   SFRSYM    DATA     BYTE      DDRCON
      000000F6H   SFRSYM    DATA     BYTE      IAPCTL
      000000A9H   SFRSYM    DATA     BYTE      IE1
      000000AAH   SFRSYM    DATA     BYTE      IE2
      000000F0H   SFRSYM    DATA     BYTE      B
      000000B7H   SFRSYM    DATA     BYTE      CMPCON
      000000F1H   SFRSYM    DATA     BYTE      IAPKEY
      000000FBH   SFRSYM    DATA     BYTE      BTMCON
      000000D1H   SFRSYM    DATA     BYTE      PWMCFG
      000000E0H   SFRSYM    DATA     BYTE      ACC
      000000CBH   SFRSYM    DATA     BYTE      RCAPXH
      000000A8H.1 SFRSYM    DATA     BIT       ET0
      000000FCH   SFRSYM    DATA     BYTE      CRCINX
      00000088H.5 SFRSYM    DATA     BIT       TF0
LX51 LINKER/LOCATER V4.66.100.0                                                       08/30/2023  14:49:07  PAGE 51


      000000A8H.3 SFRSYM    DATA     BIT       ET1
      000000ABH   SFRSYM    DATA     BYTE      ADCCFG0
      000000B9H   SFRSYM    DATA     BYTE      IP1
      00000088H.7 SFRSYM    DATA     BIT       TF1
      000000A8H.5 SFRSYM    DATA     BIT       ET2
      000000ACH   SFRSYM    DATA     BYTE      ADCCFG1
      000000BAH   SFRSYM    DATA     BYTE      IP2
      00000098H.2 SFRSYM    DATA     BIT       RB8
      000000B5H   SFRSYM    DATA     BYTE      ADCCFG2
      000000CAH   SFRSYM    DATA     BYTE      RCAPXL
      0000008CH   SFRSYM    DATA     BYTE      TH0
      0000008DH   SFRSYM    DATA     BYTE      TH1
      00000098H.3 SFRSYM    DATA     BIT       TB8
      000000D0H.0 SFRSYM    DATA     BIT       P
      00000098H.7 SFRSYM    DATA     BIT       SM0
      0000008AH   SFRSYM    DATA     BYTE      TL0
      00000098H.6 SFRSYM    DATA     BIT       SM1
      000000CFH   SFRSYM    DATA     BYTE      WDTCON
      0000008BH   SFRSYM    DATA     BYTE      TL1
      00000098H.5 SFRSYM    DATA     BIT       SM2
      000000D6H   SFRSYM    DATA     BYTE      PWMDFR
      000000D5H   SFRSYM    DATA     BYTE      PWMPDH
      000000D0H.3 SFRSYM    DATA     BIT       RS0
      00000088H.4 SFRSYM    DATA     BIT       TR0
      000000D0H.4 SFRSYM    DATA     BIT       RS1
      000000D4H   SFRSYM    DATA     BYTE      PWMPDL
      00000088H.6 SFRSYM    DATA     BIT       TR1
      000000B8H.4 SFRSYM    DATA     BIT       IPUART
      000000D7H   SFRSYM    DATA     BYTE      PWMFLT
      00000083H   SFRSYM    DATA     BYTE      DPH
      00000082H   SFRSYM    DATA     BYTE      DPL
      000000A8H.0 SFRSYM    DATA     BIT       EINT0
      0000009AH   SFRSYM    DATA     BYTE      P0CON
      000000A8H.2 SFRSYM    DATA     BIT       EINT1
      000000B8H.6 SFRSYM    DATA     BIT       IPADC
      000000B4H   SFRSYM    DATA     BYTE      INT0F
      00000091H   SFRSYM    DATA     BYTE      P1CON
      000000BCH   SFRSYM    DATA     BYTE      INT1F
      000000A1H   SFRSYM    DATA     BYTE      P2CON
      000000BEH   SFRSYM    DATA     BYTE      INT2F
      000000B1H   SFRSYM    DATA     BYTE      P3CON
      00000098H.4 SFRSYM    DATA     BIT       REN
      000000C1H   SFRSYM    DATA     BYTE      P4CON
      000000D9H   SFRSYM    DATA     BYTE      P5CON
      000000AFH   SFRSYM    DATA     BYTE      ADCVH
      00000086H   SFRSYM    DATA     BYTE      DPS
      00000095H   SFRSYM    DATA     BYTE      US0CON0
      000000A4H   SFRSYM    DATA     BYTE      US1CON0
      0000009DH   SFRSYM    DATA     BYTE      US0CON1
      000000AEH   SFRSYM    DATA     BYTE      ADCVL
      000000F7H   SFRSYM    DATA     BYTE      EXADH
      000000A5H   SFRSYM    DATA     BYTE      US1CON1
      0000009EH   SFRSYM    DATA     BYTE      US0CON2
      000000A6H   SFRSYM    DATA     BYTE      US1CON2
      0000009FH   SFRSYM    DATA     BYTE      US0CON3
      000000A7H   SFRSYM    DATA     BYTE      US1CON3
      000000BBH   SFRSYM    DATA     BYTE      INT0R
      000000BDH   SFRSYM    DATA     BYTE      INT1R
      000000BFH   SFRSYM    DATA     BYTE      INT2R
      000000DCH   SFRSYM    DATA     BYTE      USXINX
      000000C8H.7 SFRSYM    DATA     BIT       TFX
      00000096H   SFRSYM    DATA     BYTE      IOHCON0
      00000097H   SFRSYM    DATA     BYTE      IOHCON1
      000000CDH   SFRSYM    DATA     BYTE      THX
      000000D0H.5 SFRSYM    DATA     BIT       F0
LX51 LINKER/LOCATER V4.66.100.0                                                       08/30/2023  14:49:07  PAGE 52


      000000D0H.1 SFRSYM    DATA     BIT       F1
      000000CCH   SFRSYM    DATA     BYTE      TLX
      000000D0H   SFRSYM    DATA     BYTE      PSW

      01000D80H   BLOCK     CODE     ---       LVL=0
      01000D80H   LINE      CODE     ---       #25
      01000D80H   LINE      CODE     ---       #26
      01000D80H   LINE      CODE     ---       #57
      01000D83H   LINE      CODE     ---       #58
      01000D83H   LINE      CODE     ---       #59
      01000D83H   LINE      CODE     ---       #60
      01000D86H   LINE      CODE     ---       #61
      01000D89H   LINE      CODE     ---       #62
      01000D8BH   LINE      CODE     ---       #63
      01000D96H   LINE      CODE     ---       #64
      ---         BLOCKEND  ---      ---       LVL=0

      01000E05H   BLOCK     CODE     ---       LVL=0
      01000E05H   LINE      CODE     ---       #107
      01000E05H   LINE      CODE     ---       #108
      01000E05H   LINE      CODE     ---       #109
      01000E08H   LINE      CODE     ---       #110
      01000E0BH   LINE      CODE     ---       #111
      01000E0EH   LINE      CODE     ---       #112
      01000E11H   LINE      CODE     ---       #113
      01000E14H   LINE      CODE     ---       #114
      01000E16H   LINE      CODE     ---       #115
      ---         BLOCKEND  ---      ---       LVL=0

      01000DAFH   BLOCK     CODE     ---       LVL=0
      01000DAFH   LINE      CODE     ---       #152
      01000DB1H   LINE      CODE     ---       #154
      01000DB6H   LINE      CODE     ---       #155
      01000DB6H   LINE      CODE     ---       #156
      01000DB9H   LINE      CODE     ---       #157
      01000DB9H   LINE      CODE     ---       #158
      01000DBEH   LINE      CODE     ---       #159
      01000DBEH   LINE      CODE     ---       #160
      01000DC1H   LINE      CODE     ---       #161
      01000DC3H   LINE      CODE     ---       #162
      01000DC3H   LINE      CODE     ---       #163
      ---         BLOCKEND  ---      ---       LVL=0

      ---         MODULE    ---      ---       SSI1_INIT
      00000021H.3 PUBLIC    BIT      BIT       Uart1SendFlag
      00000021H.2 PUBLIC    BIT      BIT       TWI1Flag
      00000021H.1 PUBLIC    BIT      BIT       SPI1Flag
      00000021H.0 PUBLIC    BIT      BIT       Uart1ReceiveFlag
      01000D67H   PUBLIC    CODE     ---       Uart1_Int
      02000022H   PUBLIC    XDATA    BYTE      ?_Uart1_Init?BYTE
      0100082EH   PUBLIC    CODE     ---       _Uart1_Init
      01000D4CH   PUBLIC    CODE     ---       SSI1_Test
      000000C8H.2 SFRSYM    DATA     BIT       TRX
      000000FFH   SFRSYM    DATA     BYTE      OPREG
      00000080H   SFRSYM    DATA     BYTE      P0
      00000090H   SFRSYM    DATA     BYTE      P1
      000000A0H   SFRSYM    DATA     BYTE      P2
      000000A8H.4 SFRSYM    DATA     BIT       EUART
      0000008EH   SFRSYM    DATA     BYTE      TMCON
      000000B0H   SFRSYM    DATA     BYTE      P3
      000000D0H.6 SFRSYM    DATA     BIT       AC
      000000C0H   SFRSYM    DATA     BYTE      P4
      0000008FH   SFRSYM    DATA     BYTE      OTCON
      000000D8H   SFRSYM    DATA     BYTE      P5
      000000A8H.7 SFRSYM    DATA     BIT       EA
LX51 LINKER/LOCATER V4.66.100.0                                                       08/30/2023  14:49:07  PAGE 53


      000000C8H.5 SFRSYM    DATA     BIT       RCLKX
      000000D2H   SFRSYM    DATA     BYTE      PWMCON0
      000000C8H.4 SFRSYM    DATA     BIT       TCLKX
      000000D3H   SFRSYM    DATA     BYTE      PWMCON1
      000000C8H.3 SFRSYM    DATA     BIT       EXENX
      000000A8H.6 SFRSYM    DATA     BIT       EADC
      000000C9H   SFRSYM    DATA     BYTE      TXMOD
      000000C8H   SFRSYM    DATA     BYTE      TXCON
      000000A8H   SFRSYM    DATA     BYTE      IE
      00000085H   SFRSYM    DATA     BYTE      DPH1
      000000E9H   SFRSYM    DATA     BYTE      EXA0
      000000FEH   SFRSYM    DATA     BYTE      OPINX
      000000EAH   SFRSYM    DATA     BYTE      EXA1
      000000EBH   SFRSYM    DATA     BYTE      EXA2
      000000ECH   SFRSYM    DATA     BYTE      EXA3
      00000084H   SFRSYM    DATA     BYTE      DPL1
      000000C8H.0 SFRSYM    DATA     BIT       CP
      000000C4H   SFRSYM    DATA     BYTE      USXCON0
      000000C5H   SFRSYM    DATA     BYTE      USXCON1
      000000C6H   SFRSYM    DATA     BYTE      USXCON2
      000000C7H   SFRSYM    DATA     BYTE      USXCON3
      000000EFH   SFRSYM    DATA     BYTE      OPERCON
      0000009BH   SFRSYM    DATA     BYTE      P0PH
      000000B8H   SFRSYM    DATA     BYTE      IP
      00000092H   SFRSYM    DATA     BYTE      P1PH
      00000098H.0 SFRSYM    DATA     BIT       RI
      000000A2H   SFRSYM    DATA     BYTE      P2PH
      000000D0H.7 SFRSYM    DATA     BIT       CY
      000000B2H   SFRSYM    DATA     BYTE      P3PH
      00000098H.1 SFRSYM    DATA     BIT       TI
      000000CEH   SFRSYM    DATA     BYTE      TXINX
      000000C2H   SFRSYM    DATA     BYTE      P4PH
      000000B8H.1 SFRSYM    DATA     BIT       IPT0
      000000DAH   SFRSYM    DATA     BYTE      P5PH
      000000B8H.3 SFRSYM    DATA     BIT       IPT1
      000000B8H.5 SFRSYM    DATA     BIT       IPT2
      00000081H   SFRSYM    DATA     BYTE      SP
      000000D0H.2 SFRSYM    DATA     BIT       OV
      000000F4H   SFRSYM    DATA     BYTE      IAPADE
      0000009CH   SFRSYM    DATA     BYTE      P0VO
      00000094H   SFRSYM    DATA     BYTE      P1VO
      000000A3H   SFRSYM    DATA     BYTE      P2VO
      000000EEH   SFRSYM    DATA     BYTE      EXBH
      000000F3H   SFRSYM    DATA     BYTE      IAPADH
      000000B3H   SFRSYM    DATA     BYTE      P3VO
      000000ADH   SFRSYM    DATA     BYTE      ADCCON
      000000C8H.1 SFRSYM    DATA     BIT       TX
      000000EDH   SFRSYM    DATA     BYTE      EXBL
      000000F2H   SFRSYM    DATA     BYTE      IAPADL
      00000080H.0 SFRSYM    DATA     BIT       P00
      00000090H.0 SFRSYM    DATA     BIT       P10
      00000080H.1 SFRSYM    DATA     BIT       P01
      00000099H   SFRSYM    DATA     BYTE      SBUF
      00000087H   SFRSYM    DATA     BYTE      PCON
      000000A0H.0 SFRSYM    DATA     BIT       P20
      00000090H.1 SFRSYM    DATA     BIT       P11
      00000080H.2 SFRSYM    DATA     BIT       P02
      000000B6H   SFRSYM    DATA     BYTE      CMPCFG
      000000B0H.0 SFRSYM    DATA     BIT       P30
      000000A0H.1 SFRSYM    DATA     BIT       P21
      00000090H.2 SFRSYM    DATA     BIT       P12
      00000080H.3 SFRSYM    DATA     BIT       P03
      000000C0H.0 SFRSYM    DATA     BIT       P40
      000000B0H.1 SFRSYM    DATA     BIT       P31
      000000A0H.2 SFRSYM    DATA     BIT       P22
LX51 LINKER/LOCATER V4.66.100.0                                                       08/30/2023  14:49:07  PAGE 54


      00000090H.3 SFRSYM    DATA     BIT       P13
      00000080H.4 SFRSYM    DATA     BIT       P04
      00000098H   SFRSYM    DATA     BYTE      SCON
      000000D8H.0 SFRSYM    DATA     BIT       P50
      000000C0H.1 SFRSYM    DATA     BIT       P41
      000000B0H.2 SFRSYM    DATA     BIT       P32
      000000A0H.3 SFRSYM    DATA     BIT       P23
      00000090H.4 SFRSYM    DATA     BIT       P14
      00000080H.5 SFRSYM    DATA     BIT       P05
      000000F5H   SFRSYM    DATA     BYTE      IAPDAT
      00000089H   SFRSYM    DATA     BYTE      TMOD
      00000088H   SFRSYM    DATA     BYTE      TCON
      000000D8H.1 SFRSYM    DATA     BIT       P51
      000000C0H.2 SFRSYM    DATA     BIT       P42
      000000B0H.3 SFRSYM    DATA     BIT       P33
      000000A0H.4 SFRSYM    DATA     BIT       P24
      00000090H.5 SFRSYM    DATA     BIT       P15
      00000080H.6 SFRSYM    DATA     BIT       P06
      000000B8H.0 SFRSYM    DATA     BIT       IPINT0
      000000D8H.2 SFRSYM    DATA     BIT       P52
      000000C0H.3 SFRSYM    DATA     BIT       P43
      000000B0H.4 SFRSYM    DATA     BIT       P34
      000000A0H.5 SFRSYM    DATA     BIT       P25
      00000090H.6 SFRSYM    DATA     BIT       P16
      00000080H.7 SFRSYM    DATA     BIT       P07
      000000B8H.2 SFRSYM    DATA     BIT       IPINT1
      000000D8H.3 SFRSYM    DATA     BIT       P53
      000000C0H.4 SFRSYM    DATA     BIT       P44
      000000B0H.5 SFRSYM    DATA     BIT       P35
      000000A0H.6 SFRSYM    DATA     BIT       P26
      00000090H.7 SFRSYM    DATA     BIT       P17
      000000FDH   SFRSYM    DATA     BYTE      CRCREG
      000000D8H.4 SFRSYM    DATA     BIT       P54
      000000C0H.5 SFRSYM    DATA     BIT       P45
      000000B0H.6 SFRSYM    DATA     BIT       P36
      000000A0H.7 SFRSYM    DATA     BIT       P27
      000000D8H.5 SFRSYM    DATA     BIT       P55
      000000C0H.6 SFRSYM    DATA     BIT       P46
      000000B0H.7 SFRSYM    DATA     BIT       P37
      000000C0H.7 SFRSYM    DATA     BIT       P47
      000000C8H.6 SFRSYM    DATA     BIT       EXFX
      00000093H   SFRSYM    DATA     BYTE      DDRCON
      000000F6H   SFRSYM    DATA     BYTE      IAPCTL
      000000A9H   SFRSYM    DATA     BYTE      IE1
      000000AAH   SFRSYM    DATA     BYTE      IE2
      000000F0H   SFRSYM    DATA     BYTE      B
      000000B7H   SFRSYM    DATA     BYTE      CMPCON
      000000F1H   SFRSYM    DATA     BYTE      IAPKEY
      000000FBH   SFRSYM    DATA     BYTE      BTMCON
      000000D1H   SFRSYM    DATA     BYTE      PWMCFG
      000000E0H   SFRSYM    DATA     BYTE      ACC
      000000CBH   SFRSYM    DATA     BYTE      RCAPXH
      000000A8H.1 SFRSYM    DATA     BIT       ET0
      000000FCH   SFRSYM    DATA     BYTE      CRCINX
      00000088H.5 SFRSYM    DATA     BIT       TF0
      000000A8H.3 SFRSYM    DATA     BIT       ET1
      000000ABH   SFRSYM    DATA     BYTE      ADCCFG0
      000000B9H   SFRSYM    DATA     BYTE      IP1
      00000088H.7 SFRSYM    DATA     BIT       TF1
      000000A8H.5 SFRSYM    DATA     BIT       ET2
      000000ACH   SFRSYM    DATA     BYTE      ADCCFG1
      000000BAH   SFRSYM    DATA     BYTE      IP2
      00000098H.2 SFRSYM    DATA     BIT       RB8
      000000B5H   SFRSYM    DATA     BYTE      ADCCFG2
      000000CAH   SFRSYM    DATA     BYTE      RCAPXL
LX51 LINKER/LOCATER V4.66.100.0                                                       08/30/2023  14:49:07  PAGE 55


      0000008CH   SFRSYM    DATA     BYTE      TH0
      0000008DH   SFRSYM    DATA     BYTE      TH1
      00000098H.3 SFRSYM    DATA     BIT       TB8
      000000D0H.0 SFRSYM    DATA     BIT       P
      00000098H.7 SFRSYM    DATA     BIT       SM0
      0000008AH   SFRSYM    DATA     BYTE      TL0
      00000098H.6 SFRSYM    DATA     BIT       SM1
      000000CFH   SFRSYM    DATA     BYTE      WDTCON
      0000008BH   SFRSYM    DATA     BYTE      TL1
      00000098H.5 SFRSYM    DATA     BIT       SM2
      000000D6H   SFRSYM    DATA     BYTE      PWMDFR
      000000D5H   SFRSYM    DATA     BYTE      PWMPDH
      000000D0H.3 SFRSYM    DATA     BIT       RS0
      00000088H.4 SFRSYM    DATA     BIT       TR0
      000000D0H.4 SFRSYM    DATA     BIT       RS1
      000000D4H   SFRSYM    DATA     BYTE      PWMPDL
      00000088H.6 SFRSYM    DATA     BIT       TR1
      000000B8H.4 SFRSYM    DATA     BIT       IPUART
      000000D7H   SFRSYM    DATA     BYTE      PWMFLT
      00000083H   SFRSYM    DATA     BYTE      DPH
      00000082H   SFRSYM    DATA     BYTE      DPL
      000000A8H.0 SFRSYM    DATA     BIT       EINT0
      0000009AH   SFRSYM    DATA     BYTE      P0CON
      000000A8H.2 SFRSYM    DATA     BIT       EINT1
      000000B8H.6 SFRSYM    DATA     BIT       IPADC
      000000B4H   SFRSYM    DATA     BYTE      INT0F
      00000091H   SFRSYM    DATA     BYTE      P1CON
      000000BCH   SFRSYM    DATA     BYTE      INT1F
      000000A1H   SFRSYM    DATA     BYTE      P2CON
      000000BEH   SFRSYM    DATA     BYTE      INT2F
      000000B1H   SFRSYM    DATA     BYTE      P3CON
      00000098H.4 SFRSYM    DATA     BIT       REN
      000000C1H   SFRSYM    DATA     BYTE      P4CON
      000000D9H   SFRSYM    DATA     BYTE      P5CON
      000000AFH   SFRSYM    DATA     BYTE      ADCVH
      00000086H   SFRSYM    DATA     BYTE      DPS
      00000095H   SFRSYM    DATA     BYTE      US0CON0
      000000A4H   SFRSYM    DATA     BYTE      US1CON0
      0000009DH   SFRSYM    DATA     BYTE      US0CON1
      000000AEH   SFRSYM    DATA     BYTE      ADCVL
      000000F7H   SFRSYM    DATA     BYTE      EXADH
      000000A5H   SFRSYM    DATA     BYTE      US1CON1
      0000009EH   SFRSYM    DATA     BYTE      US0CON2
      000000A6H   SFRSYM    DATA     BYTE      US1CON2
      0000009FH   SFRSYM    DATA     BYTE      US0CON3
      000000A7H   SFRSYM    DATA     BYTE      US1CON3
      000000BBH   SFRSYM    DATA     BYTE      INT0R
      000000BDH   SFRSYM    DATA     BYTE      INT1R
      000000BFH   SFRSYM    DATA     BYTE      INT2R
      000000DCH   SFRSYM    DATA     BYTE      USXINX
      000000C8H.7 SFRSYM    DATA     BIT       TFX
      00000096H   SFRSYM    DATA     BYTE      IOHCON0
      00000097H   SFRSYM    DATA     BYTE      IOHCON1
      000000CDH   SFRSYM    DATA     BYTE      THX
      000000D0H.5 SFRSYM    DATA     BIT       F0
      000000D0H.1 SFRSYM    DATA     BIT       F1
      000000CCH   SFRSYM    DATA     BYTE      TLX
      000000D0H   SFRSYM    DATA     BYTE      PSW

      01000D4CH   BLOCK     CODE     ---       LVL=0
      01000D4CH   LINE      CODE     ---       #25
      01000D4CH   LINE      CODE     ---       #26
      01000D4CH   LINE      CODE     ---       #28
      01000D5DH   LINE      CODE     ---       #29
      01000D5DH   LINE      CODE     ---       #30
LX51 LINKER/LOCATER V4.66.100.0                                                       08/30/2023  14:49:07  PAGE 56


      01000D5DH   LINE      CODE     ---       #31
      01000D60H   LINE      CODE     ---       #32
      01000D63H   LINE      CODE     ---       #33
      01000D65H   LINE      CODE     ---       #34
      ---         BLOCKEND  ---      ---       LVL=0

      0100082EH   BLOCK     CODE     ---       LVL=0
      02000022H   SYMBOL    XDATA    WORD      Freq
      02000024H   SYMBOL    XDATA    DWORD     baud
      0100082EH   LINE      CODE     ---       #73
      01000836H   LINE      CODE     ---       #74
      01000836H   LINE      CODE     ---       #75
      01000839H   LINE      CODE     ---       #76
      0100083CH   LINE      CODE     ---       #78
      0100083FH   LINE      CODE     ---       #79
      01000842H   LINE      CODE     ---       #80
      0100086AH   LINE      CODE     ---       #81
      01000897H   LINE      CODE     ---       #82
      0100089AH   LINE      CODE     ---       #83
      0100089CH   LINE      CODE     ---       #84
      ---         BLOCKEND  ---      ---       LVL=0

      01000D67H   BLOCK     CODE     ---       LVL=0
      01000D67H   LINE      CODE     ---       #125
      01000D69H   LINE      CODE     ---       #127
      01000D6EH   LINE      CODE     ---       #128
      01000D6EH   LINE      CODE     ---       #129
      01000D71H   LINE      CODE     ---       #130
      01000D73H   LINE      CODE     ---       #131
      01000D73H   LINE      CODE     ---       #132
      01000D78H   LINE      CODE     ---       #133
      01000D78H   LINE      CODE     ---       #134
      01000D7BH   LINE      CODE     ---       #135
      01000D7DH   LINE      CODE     ---       #136
      01000D7DH   LINE      CODE     ---       #137
      ---         BLOCKEND  ---      ---       LVL=0

      ---         MODULE    ---      ---       ADC_INIT
      02000033H   PUBLIC    XDATA    WORD      ADCValue
      00000021H.6 PUBLIC    BIT      BIT       AdcFlag
      01000E84H   PUBLIC    CODE     ---       ADC_Interrupt
      01000C1CH   PUBLIC    CODE     ---       _ADC_Init
      01000C80H   PUBLIC    CODE     ---       ADC_Test
      000000C8H.2 SFRSYM    DATA     BIT       TRX
      000000FFH   SFRSYM    DATA     BYTE      OPREG
      00000080H   SFRSYM    DATA     BYTE      P0
      00000090H   SFRSYM    DATA     BYTE      P1
      000000A0H   SFRSYM    DATA     BYTE      P2
      000000A8H.4 SFRSYM    DATA     BIT       EUART
      0000008EH   SFRSYM    DATA     BYTE      TMCON
      000000B0H   SFRSYM    DATA     BYTE      P3
      000000D0H.6 SFRSYM    DATA     BIT       AC
      000000C0H   SFRSYM    DATA     BYTE      P4
      0000008FH   SFRSYM    DATA     BYTE      OTCON
      000000D8H   SFRSYM    DATA     BYTE      P5
      000000A8H.7 SFRSYM    DATA     BIT       EA
      000000C8H.5 SFRSYM    DATA     BIT       RCLKX
      000000D2H   SFRSYM    DATA     BYTE      PWMCON0
      000000C8H.4 SFRSYM    DATA     BIT       TCLKX
      000000D3H   SFRSYM    DATA     BYTE      PWMCON1
      000000C8H.3 SFRSYM    DATA     BIT       EXENX
      000000A8H.6 SFRSYM    DATA     BIT       EADC
      000000C9H   SFRSYM    DATA     BYTE      TXMOD
      000000C8H   SFRSYM    DATA     BYTE      TXCON
      000000A8H   SFRSYM    DATA     BYTE      IE
LX51 LINKER/LOCATER V4.66.100.0                                                       08/30/2023  14:49:07  PAGE 57


      00000085H   SFRSYM    DATA     BYTE      DPH1
      000000E9H   SFRSYM    DATA     BYTE      EXA0
      000000FEH   SFRSYM    DATA     BYTE      OPINX
      000000EAH   SFRSYM    DATA     BYTE      EXA1
      000000EBH   SFRSYM    DATA     BYTE      EXA2
      000000ECH   SFRSYM    DATA     BYTE      EXA3
      00000084H   SFRSYM    DATA     BYTE      DPL1
      000000C8H.0 SFRSYM    DATA     BIT       CP
      000000C4H   SFRSYM    DATA     BYTE      USXCON0
      000000C5H   SFRSYM    DATA     BYTE      USXCON1
      000000C6H   SFRSYM    DATA     BYTE      USXCON2
      000000C7H   SFRSYM    DATA     BYTE      USXCON3
      000000EFH   SFRSYM    DATA     BYTE      OPERCON
      0000009BH   SFRSYM    DATA     BYTE      P0PH
      000000B8H   SFRSYM    DATA     BYTE      IP
      00000092H   SFRSYM    DATA     BYTE      P1PH
      00000098H.0 SFRSYM    DATA     BIT       RI
      000000A2H   SFRSYM    DATA     BYTE      P2PH
      000000D0H.7 SFRSYM    DATA     BIT       CY
      000000B2H   SFRSYM    DATA     BYTE      P3PH
      00000098H.1 SFRSYM    DATA     BIT       TI
      000000CEH   SFRSYM    DATA     BYTE      TXINX
      000000C2H   SFRSYM    DATA     BYTE      P4PH
      000000B8H.1 SFRSYM    DATA     BIT       IPT0
      000000DAH   SFRSYM    DATA     BYTE      P5PH
      000000B8H.3 SFRSYM    DATA     BIT       IPT1
      000000B8H.5 SFRSYM    DATA     BIT       IPT2
      00000081H   SFRSYM    DATA     BYTE      SP
      000000D0H.2 SFRSYM    DATA     BIT       OV
      000000F4H   SFRSYM    DATA     BYTE      IAPADE
      0000009CH   SFRSYM    DATA     BYTE      P0VO
      00000094H   SFRSYM    DATA     BYTE      P1VO
      000000A3H   SFRSYM    DATA     BYTE      P2VO
      000000EEH   SFRSYM    DATA     BYTE      EXBH
      000000F3H   SFRSYM    DATA     BYTE      IAPADH
      000000B3H   SFRSYM    DATA     BYTE      P3VO
      000000ADH   SFRSYM    DATA     BYTE      ADCCON
      000000C8H.1 SFRSYM    DATA     BIT       TX
      000000EDH   SFRSYM    DATA     BYTE      EXBL
      000000F2H   SFRSYM    DATA     BYTE      IAPADL
      00000080H.0 SFRSYM    DATA     BIT       P00
      00000090H.0 SFRSYM    DATA     BIT       P10
      00000080H.1 SFRSYM    DATA     BIT       P01
      00000099H   SFRSYM    DATA     BYTE      SBUF
      00000087H   SFRSYM    DATA     BYTE      PCON
      000000A0H.0 SFRSYM    DATA     BIT       P20
      00000090H.1 SFRSYM    DATA     BIT       P11
      00000080H.2 SFRSYM    DATA     BIT       P02
      000000B6H   SFRSYM    DATA     BYTE      CMPCFG
      000000B0H.0 SFRSYM    DATA     BIT       P30
      000000A0H.1 SFRSYM    DATA     BIT       P21
      00000090H.2 SFRSYM    DATA     BIT       P12
      00000080H.3 SFRSYM    DATA     BIT       P03
      000000C0H.0 SFRSYM    DATA     BIT       P40
      000000B0H.1 SFRSYM    DATA     BIT       P31
      000000A0H.2 SFRSYM    DATA     BIT       P22
      00000090H.3 SFRSYM    DATA     BIT       P13
      00000080H.4 SFRSYM    DATA     BIT       P04
      00000098H   SFRSYM    DATA     BYTE      SCON
      000000D8H.0 SFRSYM    DATA     BIT       P50
      000000C0H.1 SFRSYM    DATA     BIT       P41
      000000B0H.2 SFRSYM    DATA     BIT       P32
      000000A0H.3 SFRSYM    DATA     BIT       P23
      00000090H.4 SFRSYM    DATA     BIT       P14
      00000080H.5 SFRSYM    DATA     BIT       P05
LX51 LINKER/LOCATER V4.66.100.0                                                       08/30/2023  14:49:07  PAGE 58


      000000F5H   SFRSYM    DATA     BYTE      IAPDAT
      00000089H   SFRSYM    DATA     BYTE      TMOD
      00000088H   SFRSYM    DATA     BYTE      TCON
      000000D8H.1 SFRSYM    DATA     BIT       P51
      000000C0H.2 SFRSYM    DATA     BIT       P42
      000000B0H.3 SFRSYM    DATA     BIT       P33
      000000A0H.4 SFRSYM    DATA     BIT       P24
      00000090H.5 SFRSYM    DATA     BIT       P15
      00000080H.6 SFRSYM    DATA     BIT       P06
      000000B8H.0 SFRSYM    DATA     BIT       IPINT0
      000000D8H.2 SFRSYM    DATA     BIT       P52
      000000C0H.3 SFRSYM    DATA     BIT       P43
      000000B0H.4 SFRSYM    DATA     BIT       P34
      000000A0H.5 SFRSYM    DATA     BIT       P25
      00000090H.6 SFRSYM    DATA     BIT       P16
      00000080H.7 SFRSYM    DATA     BIT       P07
      000000B8H.2 SFRSYM    DATA     BIT       IPINT1
      000000D8H.3 SFRSYM    DATA     BIT       P53
      000000C0H.4 SFRSYM    DATA     BIT       P44
      000000B0H.5 SFRSYM    DATA     BIT       P35
      000000A0H.6 SFRSYM    DATA     BIT       P26
      00000090H.7 SFRSYM    DATA     BIT       P17
      000000FDH   SFRSYM    DATA     BYTE      CRCREG
      000000D8H.4 SFRSYM    DATA     BIT       P54
      000000C0H.5 SFRSYM    DATA     BIT       P45
      000000B0H.6 SFRSYM    DATA     BIT       P36
      000000A0H.7 SFRSYM    DATA     BIT       P27
      000000D8H.5 SFRSYM    DATA     BIT       P55
      000000C0H.6 SFRSYM    DATA     BIT       P46
      000000B0H.7 SFRSYM    DATA     BIT       P37
      000000C0H.7 SFRSYM    DATA     BIT       P47
      000000C8H.6 SFRSYM    DATA     BIT       EXFX
      00000093H   SFRSYM    DATA     BYTE      DDRCON
      000000F6H   SFRSYM    DATA     BYTE      IAPCTL
      000000A9H   SFRSYM    DATA     BYTE      IE1
      000000AAH   SFRSYM    DATA     BYTE      IE2
      000000F0H   SFRSYM    DATA     BYTE      B
      000000B7H   SFRSYM    DATA     BYTE      CMPCON
      000000F1H   SFRSYM    DATA     BYTE      IAPKEY
      000000FBH   SFRSYM    DATA     BYTE      BTMCON
      000000D1H   SFRSYM    DATA     BYTE      PWMCFG
      000000E0H   SFRSYM    DATA     BYTE      ACC
      000000CBH   SFRSYM    DATA     BYTE      RCAPXH
      000000A8H.1 SFRSYM    DATA     BIT       ET0
      000000FCH   SFRSYM    DATA     BYTE      CRCINX
      00000088H.5 SFRSYM    DATA     BIT       TF0
      000000A8H.3 SFRSYM    DATA     BIT       ET1
      000000ABH   SFRSYM    DATA     BYTE      ADCCFG0
      000000B9H   SFRSYM    DATA     BYTE      IP1
      00000088H.7 SFRSYM    DATA     BIT       TF1
      000000A8H.5 SFRSYM    DATA     BIT       ET2
      000000ACH   SFRSYM    DATA     BYTE      ADCCFG1
      000000BAH   SFRSYM    DATA     BYTE      IP2
      00000098H.2 SFRSYM    DATA     BIT       RB8
      000000B5H   SFRSYM    DATA     BYTE      ADCCFG2
      000000CAH   SFRSYM    DATA     BYTE      RCAPXL
      0000008CH   SFRSYM    DATA     BYTE      TH0
      0000008DH   SFRSYM    DATA     BYTE      TH1
      00000098H.3 SFRSYM    DATA     BIT       TB8
      000000D0H.0 SFRSYM    DATA     BIT       P
      00000098H.7 SFRSYM    DATA     BIT       SM0
      0000008AH   SFRSYM    DATA     BYTE      TL0
      00000098H.6 SFRSYM    DATA     BIT       SM1
      000000CFH   SFRSYM    DATA     BYTE      WDTCON
      0000008BH   SFRSYM    DATA     BYTE      TL1
LX51 LINKER/LOCATER V4.66.100.0                                                       08/30/2023  14:49:07  PAGE 59


      00000098H.5 SFRSYM    DATA     BIT       SM2
      000000D6H   SFRSYM    DATA     BYTE      PWMDFR
      000000D5H   SFRSYM    DATA     BYTE      PWMPDH
      000000D0H.3 SFRSYM    DATA     BIT       RS0
      00000088H.4 SFRSYM    DATA     BIT       TR0
      000000D0H.4 SFRSYM    DATA     BIT       RS1
      000000D4H   SFRSYM    DATA     BYTE      PWMPDL
      00000088H.6 SFRSYM    DATA     BIT       TR1
      000000B8H.4 SFRSYM    DATA     BIT       IPUART
      000000D7H   SFRSYM    DATA     BYTE      PWMFLT
      00000083H   SFRSYM    DATA     BYTE      DPH
      00000082H   SFRSYM    DATA     BYTE      DPL
      000000A8H.0 SFRSYM    DATA     BIT       EINT0
      0000009AH   SFRSYM    DATA     BYTE      P0CON
      000000A8H.2 SFRSYM    DATA     BIT       EINT1
      000000B8H.6 SFRSYM    DATA     BIT       IPADC
      000000B4H   SFRSYM    DATA     BYTE      INT0F
      00000091H   SFRSYM    DATA     BYTE      P1CON
      000000BCH   SFRSYM    DATA     BYTE      INT1F
      000000A1H   SFRSYM    DATA     BYTE      P2CON
      000000BEH   SFRSYM    DATA     BYTE      INT2F
      000000B1H   SFRSYM    DATA     BYTE      P3CON
      00000098H.4 SFRSYM    DATA     BIT       REN
      000000C1H   SFRSYM    DATA     BYTE      P4CON
      000000D9H   SFRSYM    DATA     BYTE      P5CON
      000000AFH   SFRSYM    DATA     BYTE      ADCVH
      00000086H   SFRSYM    DATA     BYTE      DPS
      00000095H   SFRSYM    DATA     BYTE      US0CON0
      000000A4H   SFRSYM    DATA     BYTE      US1CON0
      0000009DH   SFRSYM    DATA     BYTE      US0CON1
      000000AEH   SFRSYM    DATA     BYTE      ADCVL
      000000F7H   SFRSYM    DATA     BYTE      EXADH
      000000A5H   SFRSYM    DATA     BYTE      US1CON1
      0000009EH   SFRSYM    DATA     BYTE      US0CON2
      000000A6H   SFRSYM    DATA     BYTE      US1CON2
      0000009FH   SFRSYM    DATA     BYTE      US0CON3
      000000A7H   SFRSYM    DATA     BYTE      US1CON3
      000000BBH   SFRSYM    DATA     BYTE      INT0R
      000000BDH   SFRSYM    DATA     BYTE      INT1R
      000000BFH   SFRSYM    DATA     BYTE      INT2R
      000000DCH   SFRSYM    DATA     BYTE      USXINX
      000000C8H.7 SFRSYM    DATA     BIT       TFX
      00000096H   SFRSYM    DATA     BYTE      IOHCON0
      00000097H   SFRSYM    DATA     BYTE      IOHCON1
      000000CDH   SFRSYM    DATA     BYTE      THX
      000000D0H.5 SFRSYM    DATA     BIT       F0
      000000D0H.1 SFRSYM    DATA     BIT       F1
      000000CCH   SFRSYM    DATA     BYTE      TLX
      000000D0H   SFRSYM    DATA     BYTE      PSW

      01000C80H   BLOCK     CODE     ---       LVL=0
      01000C80H   LINE      CODE     ---       #22
      01000C80H   LINE      CODE     ---       #23
      01000C80H   LINE      CODE     ---       #24
      01000C87H   LINE      CODE     ---       #25
      01000C87H   LINE      CODE     ---       #26
      01000C87H   LINE      CODE     ---       #27
      01000C8AH   LINE      CODE     ---       #28
      01000C8DH   LINE      CODE     ---       #29
      01000C8FH   LINE      CODE     ---       #30
      01000CAAH   LINE      CODE     ---       #31
      ---         BLOCKEND  ---      ---       LVL=0

      01000C1CH   BLOCK     CODE     ---       LVL=0
      00000006H   SYMBOL    DATA     WORD      Channel
LX51 LINKER/LOCATER V4.66.100.0                                                       08/30/2023  14:49:07  PAGE 60


      01000C1CH   LINE      CODE     ---       #39
