BL51 BANKED LINKER/LOCATER V6.22                                                        02/20/2019  13:49:04  PAGE 1


BL51 BANKED LINKER/LOCATER V6.22, INVOKED BY:
C:\KEIL\C51\BIN\BL51.EXE ..\OUTPUT\FUNCTION.obj, ..\OUTPUT\main.obj, ..\OUTPUT\LCD_DISPLAY.obj, ..\OUTPUT\LED_DISPLAY.ob
>> j, ..\OUTPUT\sc92f854x_it.obj, ..\OUTPUT\UART0.obj, ..\OUTPUT\W25Q16.obj, ..\OUTPUT\TK.obj, ..\OUTPUT\ADC.obj, ..\OUT
>> PUT\sc92f854x_acmp.obj, ..\OUTPUT\sc92f854x_adc.obj, ..\OUTPUT\sc92f854x_ddic.obj, ..\OUTPUT\sc92f854x_exti.obj, ..\O
>> UTPUT\sc92f854x_gpio.obj, ..\OUTPUT\sc92f854x_iap.obj, ..\OUTPUT\sc92f854x_pwm.obj, ..\OUTPUT\sc92f854x_ssi.obj, ..\O
>> UTPUT\sc92f854x_timer0.obj, ..\OUTPUT\sc92f854x_timer1.obj, ..\OUTPUT\sc92f854x_timer2.obj, ..\OUTPUT\sc92f854x_uart0
>> .obj, ..\OUTPUT\S_TouchKeyCFG.obj, .\lib\SC92F8X4X_HighSensitive_Lib_T2_V0.0.1.LIB, ..\OUTPUT\STARTUP.obj TO ..\OUTPU
>> T\Function Demo PRINT (..\LST\Function Demo.m51) RAMSIZE (256) DISABLEWARNING (16) CODE (0X100)


MEMORY MODEL: LARGE


INPUT MODULES INCLUDED:
  ..\OUTPUT\FUNCTION.obj (FUNCTION)
  ..\OUTPUT\main.obj (MAIN)
  ..\OUTPUT\LCD_DISPLAY.obj (LCD_DISPLAY)
  ..\OUTPUT\LED_DISPLAY.obj (LED_DISPLAY)
  ..\OUTPUT\sc92f854x_it.obj (SC92F854X_IT)
  ..\OUTPUT\UART0.obj (UART0)
  ..\OUTPUT\W25Q16.obj (W25Q16)
  ..\OUTPUT\TK.obj (TK)
  ..\OUTPUT\ADC.obj (ADC)
  ..\OUTPUT\sc92f854x_acmp.obj (SC92F854X_ACMP)
  ..\OUTPUT\sc92f854x_adc.obj (SC92F854X_ADC)
  ..\OUTPUT\sc92f854x_ddic.obj (SC92F854X_DDIC)
  ..\OUTPUT\sc92f854x_exti.obj (SC92F854X_EXTI)
  ..\OUTPUT\sc92f854x_gpio.obj (SC92F854X_GPIO)
  ..\OUTPUT\sc92f854x_iap.obj (SC92F854X_IAP)
  ..\OUTPUT\sc92f854x_pwm.obj (SC92F854X_PWM)
  ..\OUTPUT\sc92f854x_ssi.obj (SC92F854X_SSI)
  ..\OUTPUT\sc92f854x_timer0.obj (SC92F854X_TIMER0)
  ..\OUTPUT\sc92f854x_timer1.obj (SC92F854X_TIMER1)
  ..\OUTPUT\sc92f854x_timer2.obj (SC92F854X_TIMER2)
  ..\OUTPUT\sc92f854x_uart0.obj (SC92F854X_UART0)
  ..\OUTPUT\S_TouchKeyCFG.obj (S_TOUCHKEYCFG)
  .\lib\SC92F8X4X_HighSensitive_Lib_T2_V0.0.1.LIB (SENSORMETHOD)
  ..\OUTPUT\STARTUP.obj (?C_STARTUP)
  C:\KEIL\C51\LIB\C51L.LIB (?C_INIT)
  C:\KEIL\C51\LIB\C51L.LIB (?C?CLDPTR)
  C:\KEIL\C51\LIB\C51L.LIB (?C?CSTPTR)
  C:\KEIL\C51\LIB\C51L.LIB (?C?IMUL)
  C:\KEIL\C51\LIB\C51L.LIB (?C?UIDIV)
  C:\KEIL\C51\LIB\C51L.LIB (?C?SIDIV)
  C:\KEIL\C51\LIB\C51L.LIB (?C?IILDX)
  C:\KEIL\C51\LIB\C51L.LIB (?C?ILDIX)
  C:\KEIL\C51\LIB\C51L.LIB (?C?LMUL)
  C:\KEIL\C51\LIB\C51L.LIB (?C?ULDIV)
  C:\KEIL\C51\LIB\C51L.LIB (?C?SLDIV)
  C:\KEIL\C51\LIB\C51L.LIB (?C?ULCMP)
  C:\KEIL\C51\LIB\C51L.LIB (?C?ULSHR)
  C:\KEIL\C51\LIB\C51L.LIB (?C?LSHL)
  C:\KEIL\C51\LIB\C51L.LIB (?C?LSTXDATA)
  C:\KEIL\C51\LIB\C51L.LIB (?C?LSTKXDATA)
  C:\KEIL\C51\LIB\C51L.LIB (?C?OFFXADD)
  C:\KEIL\C51\LIB\C51L.LIB (?C?LCASE)
  C:\KEIL\C51\LIB\C51L.LIB (PRINTF)
  C:\KEIL\C51\LIB\C51L.LIB (?C?CLDOPTR)
BL51 BANKED LINKER/LOCATER V6.22                                                      02/20/2019  13:49:04  PAGE 2


  C:\KEIL\C51\LIB\C51L.LIB (?C?PLDIXDATA)
  C:\KEIL\C51\LIB\C51L.LIB (?C?PSTXDATA)
  C:\KEIL\C51\LIB\C51L.LIB (?C?CCASE)


LINK MAP OF MODULE:  ..\OUTPUT\Function Demo (FUNCTION)


            TYPE    BASE      LENGTH    RELOCATION   SEGMENT NAME
            -----------------------------------------------------

            * * * * * * *   D A T A   M E M O R Y   * * * * * * *
            REG     0000H     0008H     ABSOLUTE     "REG BANK 0"
            DATA    0008H     0010H     UNIT         ?DT?SENSORMETHOD
                    0018H     0008H                  *** GAP ***
            BIT     0020H.0   0001H.2   UNIT         _BIT_GROUP_
            BIT     0021H.2   0000H.5   UNIT         ?BI?SC92F854X_IT
            BIT     0021H.7   0000H.5   UNIT         ?BI?TK
            BIT     0022H.4   0000H.3   UNIT         ?BI?FUNCTION
            BIT     0022H.7   0000H.2   UNIT         ?BI?SENSORMETHOD
                    0023H.1   0000H.7                *** GAP ***
            DATA    0024H     000EH     UNIT         _DATA_GROUP_
            IDATA   0032H     0001H     UNIT         ?STACK

            * * * * * * *  X D A T A   M E M O R Y  * * * * * * *
            XDATA   0000H     003EH     UNIT         _XDATA_GROUP_
            XDATA   003EH     002CH     UNIT         ?XD?S_TOUCHKEYCFG
            XDATA   006AH     0011H     UNIT         ?XD?SC92F854X_IT
            XDATA   007BH     0011H     UNIT         ?XD?SC92F854X_PWM
            XDATA   008CH     000EH     UNIT         ?XD?ADC
            XDATA   009AH     000DH     UNIT         ?XD?LCD_DISPLAY
            XDATA   00A7H     000CH     UNIT         ?XD?LED_DISPLAY
            XDATA   00B3H     0008H     UNIT         ?XD?SENSORMETHOD
            XDATA   00BBH     0006H     UNIT         ?XD?TK
            XDATA   00C1H     0001H     UNIT         ?XD?MAIN
            XDATA   00C2H     0001H     UNIT         ?XD?_W25Q16_WRITESTATUS?W25Q16
                    00C3H     063DH                  *** GAP ***
            XDATA   0700H     001CH     ABSOLUTE     
                    071CH     0024H                  *** GAP ***
            XDATA   0740H     0010H     ABSOLUTE     

            * * * * * * *   C O D E   M E M O R Y   * * * * * * *
            CODE    0000H     0003H     ABSOLUTE     
            CODE    0003H     0003H     ABSOLUTE     
                    0006H     0005H                  *** GAP ***
            CODE    000BH     0003H     ABSOLUTE     
                    000EH     0005H                  *** GAP ***
            CODE    0013H     0003H     ABSOLUTE     
                    0016H     0005H                  *** GAP ***
            CODE    001BH     0003H     ABSOLUTE     
                    001EH     0005H                  *** GAP ***
            CODE    0023H     0003H     ABSOLUTE     
                    0026H     0005H                  *** GAP ***
            CODE    002BH     0003H     ABSOLUTE     
                    002EH     0005H                  *** GAP ***
            CODE    0033H     0003H     ABSOLUTE     
                    0036H     0005H                  *** GAP ***
BL51 BANKED LINKER/LOCATER V6.22                                                      02/20/2019  13:49:04  PAGE 3


            CODE    003BH     0003H     ABSOLUTE     
                    003EH     0005H                  *** GAP ***
            CODE    0043H     0003H     ABSOLUTE     
                    0046H     0005H                  *** GAP ***
            CODE    004BH     0003H     ABSOLUTE     
                    004EH     0005H                  *** GAP ***
            CODE    0053H     0003H     ABSOLUTE     
                    0056H     0005H                  *** GAP ***
            CODE    005BH     0003H     ABSOLUTE     
                    005EH     0005H                  *** GAP ***
            CODE    0063H     0003H     ABSOLUTE     
                    0066H     009AH                  *** GAP ***
            CODE    0100H     03DBH     UNIT         ?PR?SENSORRENOVATE?SENSORMETHOD
            CODE    04DBH     0365H     UNIT         ?PR?PRINTF?PRINTF
            CODE    0840H     033EH     UNIT         ?C?LIB_CODE
            CODE    0B7EH     0144H     UNIT         ?PR?MODE5_SPI?FUNCTION
            CODE    0CC2H     0134H     UNIT         ?PR?MODE7_IAP?FUNCTION
            CODE    0DF6H     0131H     UNIT         ?PR?_LCDSEGDATA?LCD_DISPLAY
            CODE    0F27H     012EH     UNIT         ?PR?TIMER2INTERRUPT?SC92F854X_IT
            CODE    1055H     0112H     UNIT         ?PR?SENSORMETHOD
            CODE    1167H     0102H     UNIT         ?PR?MODE6_TIMER2CAPTURE?FUNCTION
            CODE    1269H     00F4H     UNIT         ?PR?TOUCHKEYSCAN?S_TOUCHKEYCFG
            CODE    135DH     00F0H     UNIT         ?PR?MODE1_PWM?FUNCTION
            CODE    144DH     00E8H     UNIT         ?PR?_SPI_FLASH_WRITE_NOCHECK?W25Q16
            CODE    1535H     00D2H     UNIT         ?PR?GETTEMPERATURE?ADC
            CODE    1607H     00CFH     UNIT         ?PR?_GPIO_INIT?SC92F854X_GPIO
            CODE    16D6H     00C9H     UNIT         ?PR?_UART0_INIT?SC92F854X_UART0
            CODE    179FH     00C8H     UNIT         ?CO?ADC
            CODE    1867H     00C0H     UNIT         ?PR?_LEDSEGDATA?LED_DISPLAY
            CODE    1927H     00BAH     UNIT         ?PR?_FILTERDATADEAL?SENSORMETHOD
            CODE    19E1H     00B9H     UNIT         ?PR?GETADCVALUE?ADC
            CODE    1A9AH     00AFH     UNIT         ?PR?TIMER0INTERRUPT?SC92F854X_IT
            CODE    1B49H     00AEH     UNIT         ?PR?_MULTIPLEDEAL?SENSORMETHOD
            CODE    1BF7H     00A9H     UNIT         ?PR?CTK_ISR?SENSORMETHOD
            CODE    1CA0H     009DH     UNIT         ?C_INITSEG
            CODE    1D3DH     009DH     UNIT         ?PR?_SPI_FLASH_READ?W25Q16
            CODE    1DDAH     009AH     UNIT         ?C_C51STARTUP
            CODE    1E74H     0096H     UNIT         ?PR?MAIN?MAIN
            CODE    1F0AH     0085H     UNIT         ?PR?_W25_FLASH_WRITE_PAGE?W25Q16
            CODE    1F8FH     0081H     UNIT         ?CO?FUNCTION
            CODE    2010H     0074H     UNIT         ?PR?TIMER1INTERRUPT?SC92F854X_IT
            CODE    2084H     0071H     UNIT         ?PR?CHANGETOUCHKEYVALUE?TK
            CODE    20F5H     006BH     UNIT         ?PR?TOUCHKEYINIT?SENSORMETHOD
            CODE    2160H     0069H     UNIT         ?PR?LED_DISPLAY?LED_DISPLAY
            CODE    21C9H     0065H     UNIT         ?PR?_SSI_UART1_INIT?SC92F854X_SSI
            CODE    222EH     0061H     UNIT         ?PR?MODE3_UART1?FUNCTION
            CODE    228FH     005BH     UNIT         ?PR?INPUTPASSWORD?TK
            CODE    22EAH     0058H     UNIT         ?PR?UART0INTERRUPT?SC92F854X_IT
            CODE    2342H     0058H     UNIT         ?PR?_W25_SECTORERASE?W25Q16
            CODE    239AH     0057H     UNIT         ?PR?_PWM_OUTPUTSTATECONFIG?SC92F854X_PWM
            CODE    23F1H     0057H     UNIT         ?PR?_PWM_POLARITYCONFIG?SC92F854X_PWM
            CODE    2448H     0055H     UNIT         ?PR?SENSORKEYFLAG?SENSORMETHOD
            CODE    249DH     0051H     UNIT         ?PR?GETS1STATE?FUNCTION
            CODE    24EEH     0050H     UNIT         ?PR?CURRENTSENSORCHOOSE?S_TOUCHKEYCFG
            CODE    253EH     004DH     UNIT         ?PR?_EXTI_ITCONFIG?SC92F854X_EXTI
            CODE    258BH     0049H     UNIT         ?PR?MODE2_TIMER1COUNTER?FUNCTION
            CODE    25D4H     0047H     UNIT         ?PR?SSIINTERRUPT?SC92F854X_IT
BL51 BANKED LINKER/LOCATER V6.22                                                      02/20/2019  13:49:04  PAGE 4


            CODE    261BH     0045H     UNIT         ?PR?_PWM_INDEPENDENTMODECONFIG?SC92F854X_PWM
            CODE    2660H     0044H     UNIT         ?C?LDIV
            CODE    26A4H     0042H     UNIT         ?PR?MODE4_ADC?FUNCTION
            CODE    26E6H     0042H     UNIT         ?PR?_EXTI_SETEXTINT0XTRIGGERMODE?SC92F854X_EXTI
            CODE    2728H     0042H     UNIT         ?PR?_EXTI_SETEXTINT1XTRIGGERMODE?SC92F854X_EXTI
            CODE    276AH     0042H     UNIT         ?PR?_EXTI_SETEXTINT2XTRIGGERMODE?SC92F854X_EXTI
            CODE    27ACH     0042H     UNIT         ?PR?_IAP_PROGRAMBYTE?SC92F854X_IAP
            CODE    27EEH     0041H     UNIT         ?PR?INITIALIZESENSORFLAG?SENSORMETHOD
            CODE    282FH     003AH     UNIT         ?CO?S_TOUCHKEYCFG
            CODE    2869H     0039H     UNIT         ?PR?_UART1SENDSTRING?FUNCTION
            CODE    28A2H     0036H     UNIT         ?PR?GPIOINIT?FUNCTION
            CODE    28D8H     0035H     UNIT         ?PR?_EXTI_DEINIT?SC92F854X_EXTI
            CODE    290DH     0035H     UNIT         ?PR?FILTERCOMMCODE?SENSORMETHOD
            CODE    2942H     0033H     UNIT         ?PR?SYS_SCAN?TK
            CODE    2975H     0033H     UNIT         ?PR?_ADC_CHANNELCONFIG?SC92F854X_ADC
            CODE    29A8H     0033H     UNIT         ?PR?FILTERAVERGEDEAL?SENSORMETHOD
            CODE    29DBH     0032H     UNIT         ?PR?PWM_DEINIT?SC92F854X_PWM
            CODE    2A0DH     0031H     UNIT         ?PR?_GPIO_READPIN?SC92F854X_GPIO
            CODE    2A3EH     0030H     UNIT         ?PR?_GPIO_WRITELOW?SC92F854X_GPIO
            CODE    2A6EH     002EH     UNIT         ?PR?_TIM2_TIMEBASEINIT?SC92F854X_TIMER2
            CODE    2A9CH     002DH     UNIT         ?PR?_GETCFGMSG?S_TOUCHKEYCFG
            CODE    2AC9H     002CH     UNIT         ?PR?_GETCURRFINGERVALUE?S_TOUCHKEYCFG
            CODE    2AF5H     002AH     UNIT         ?PR?_GPIO_WRITEHIGH?SC92F854X_GPIO
            CODE    2B1FH     0029H     UNIT         ?PR?_SSI_GETFLAGSTATUS?SC92F854X_SSI
            CODE    2B48H     0028H     UNIT         ?PR?_SSI_SPI_INIT?SC92F854X_SSI
            CODE    2B70H     0027H     UNIT         ?PR?LCD_DISPLAY?LCD_DISPLAY
            CODE    2B97H     0027H     UNIT         ?PR?LED?TK
            CODE    2BBEH     0026H     UNIT         ?PR?DDIC_LCDINIT?FUNCTION
            CODE    2BE4H     0026H     UNIT         ?PR?GPIO_DEINIT?SC92F854X_GPIO
            CODE    2C0AH     0026H     UNIT         ?PR?_GPIO_WRITE?SC92F854X_GPIO
            CODE    2C30H     0025H     UNIT         ?PR?_GPIO_READPORT?SC92F854X_GPIO
            CODE    2C55H     0022H     UNIT         ?PR?_DELAY_SOME_TIME?FUNCTION
            CODE    2C77H     001FH     UNIT         ?PR?DDIC_LEDINIT?FUNCTION
            CODE    2C96H     001FH     UNIT         ?PR?_TIM0_TIMEBASEINIT?SC92F854X_TIMER0
            CODE    2CB5H     001FH     UNIT         ?PR?_TIM1_TIMEBASEINIT?SC92F854X_TIMER1
            CODE    2CD4H     001FH     UNIT         ?PR?TOUCHKEYCFGINIT?S_TOUCHKEYCFG
            CODE    2CF3H     001EH     UNIT         ?PR?INITIALIZEBASELINES?SENSORMETHOD
            CODE    2D11H     001EH     UNIT         ?PR?FILTERIIRINIT?SENSORMETHOD
            CODE    2D2FH     001DH     UNIT         ?PR?_IAP_READBYTE?SC92F854X_IAP
            CODE    2D4CH     001AH     UNIT         ?PR?TIMER0INIT?FUNCTION
            CODE    2D66H     001AH     UNIT         ?PR?_SPI_WRITEBYTE?W25Q16
            CODE    2D80H     001AH     UNIT         ?PR?_DDIC_INIT?SC92F854X_DDIC
            CODE    2D9AH     0018H     UNIT         ?PR?ADCINIT?ADC
            CODE    2DB2H     0018H     UNIT         ?PR?_SSI_CLEARFLAG?SC92F854X_SSI
            CODE    2DCAH     0017H     UNIT         ?PR?_W25Q16_WRITESTATUS?W25Q16
            CODE    2DE1H     0016H     UNIT         ?PR?_ACMP_ITCONFIG?SC92F854X_ACMP
            CODE    2DF7H     0016H     UNIT         ?PR?ADC_GETCONVERSIONVALUE?SC92F854X_ADC
            CODE    2E0DH     0016H     UNIT         ?PR?_PWM_ITCONFIG?SC92F854X_PWM
            CODE    2E23H     0016H     UNIT         ?PR?SSI_UART1_RECEIVEDATA9?SC92F854X_SSI
            CODE    2E39H     0016H     UNIT         ?PR?_SSI_ITCONFIG?SC92F854X_SSI
            CODE    2E4FH     0016H     UNIT         ?PR?UART0_RECEIVEDATA9?SC92F854X_UART0
            CODE    2E65H     0015H     UNIT         ?PR?TIM2_DEINIT?SC92F854X_TIMER2
            CODE    2E7AH     0014H     UNIT         ?PR?_PWM_INIT?SC92F854X_PWM
            CODE    2E8EH     0014H     UNIT         ?PR?_SSI_UART1_SENDDATA9?SC92F854X_SSI
            CODE    2EA2H     0014H     UNIT         ?PR?_UART0_SENDDATA9?SC92F854X_UART0
            CODE    2EB6H     0013H     UNIT         ?CO?LCD_DISPLAY
            CODE    2EC9H     0013H     UNIT         ?CO?LED_DISPLAY
BL51 BANKED LINKER/LOCATER V6.22                                                      02/20/2019  13:49:04  PAGE 5


            CODE    2EDCH     0013H     UNIT         ?PR?_PUTCHAR?UART0
            CODE    2EEFH     0013H     UNIT         ?PR?SSI_DEINIT?SC92F854X_SSI
            CODE    2F02H     0013H     UNIT         ?PR?TIM0_DEINIT?SC92F854X_TIMER0
            CODE    2F15H     0013H     UNIT         ?PR?TIM1_DEINIT?SC92F854X_TIMER1
            CODE    2F28H     0012H     UNIT         ?PR?ADC_DEINIT?SC92F854X_ADC
            CODE    2F3AH     0012H     UNIT         ?PR?_ADC_ITCONFIG?SC92F854X_ADC
            CODE    2F4CH     0012H     UNIT         ?PR?_ADC_VREFCONFIG?SC92F854X_ADC
            CODE    2F5EH     0012H     UNIT         ?PR?_TIM0_WORKMODE0CONFIG?SC92F854X_TIMER0
            CODE    2F70H     0012H     UNIT         ?PR?_TIM0_ITCONFIG?SC92F854X_TIMER0
            CODE    2F82H     0012H     UNIT         ?PR?_TIM1_WORKMODE0CONFIG?SC92F854X_TIMER1
            CODE    2F94H     0012H     UNIT         ?PR?_TIM1_ITCONFIG?SC92F854X_TIMER1
            CODE    2FA6H     0012H     UNIT         ?PR?_TIM2_ITCONFIG?SC92F854X_TIMER2
            CODE    2FB8H     0012H     UNIT         ?PR?_UART0_ITCONFIG?SC92F854X_UART0
            CODE    2FCAH     0012H     UNIT         ?PR?_GETSCANTIMEVALUE?S_TOUCHKEYCFG
            CODE    2FDCH     0012H     UNIT         ?PR?_GETBASELINEADJUSTVALUE?S_TOUCHKEYCFG
            CODE    2FEEH     0010H     UNIT         ?PR?_DDIC_LCDCONFIG?SC92F854X_DDIC
            CODE    2FFEH     000FH     UNIT         ?PR?_ACMP_INIT?SC92F854X_ACMP
            CODE    300DH     000FH     UNIT         ?PR?DDIC_DEINIT?SC92F854X_DDIC
            CODE    301CH     000FH     UNIT         ?PR?_TIM0_MODE0SETRELOADCOUNTER?SC92F854X_TIMER0
            CODE    302BH     000FH     UNIT         ?PR?_TIM1_MODE0SETRELOADCOUNTER?SC92F854X_TIMER1
            CODE    303AH     000FH     UNIT         ?PR?_TIM2_GETFLAGSTATUS?SC92F854X_TIMER2
            CODE    3049H     000FH     UNIT         ?PR?UART0_DEINIT?SC92F854X_UART0
            CODE    3058H     000EH     UNIT         ?PR?IAP_DEINIT?SC92F854X_IAP
            CODE    3066H     000EH     UNIT         ?PR?_SSI_TWI_INIT?SC92F854X_SSI
            CODE    3074H     000EH     UNIT         ?PR?_TIM0_WORKMODE1CONFIG?SC92F854X_TIMER0
            CODE    3082H     000EH     UNIT         ?PR?_TIM1_WORKMODE1CONFIG?SC92F854X_TIMER1
            CODE    3090H     000EH     UNIT         ?PR?_TIM2_WORKMODE1CONFIG?SC92F854X_TIMER2
            CODE    309EH     000DH     UNIT         ?PR?W25Q16_READSTATUS?W25Q16
            CODE    30ABH     000CH     UNIT         ?PR?_DDIC_OUTPUTPINOFDUTYCYCLED4?SC92F854X_DDIC
            CODE    30B7H     000CH     UNIT         ?PR?_USDELAY?SENSORMETHOD
            CODE    30C3H     000BH     UNIT         ?PR?_ACMP_CMD?SC92F854X_ACMP
            CODE    30CEH     000BH     UNIT         ?PR?_ADC_CMD?SC92F854X_ADC
            CODE    30D9H     000BH     UNIT         ?PR?_DDIC_CMD?SC92F854X_DDIC
            CODE    30E4H     000BH     UNIT         ?PR?_IAP_SETOPERATERANGE?SC92F854X_IAP
            CODE    30EFH     000BH     UNIT         ?PR?_PWM_CMD?SC92F854X_PWM
            CODE    30FAH     000BH     UNIT         ?PR?_SSI_SPI_CMD?SC92F854X_SSI
            CODE    3105H     000BH     UNIT         ?PR?_SSI_TWI_ACKNOWLEDGECONFIG?SC92F854X_SSI
            CODE    3110H     000BH     UNIT         ?PR?_SSI_TWI_GENERALCALLCMD?SC92F854X_SSI
            CODE    311BH     000BH     UNIT         ?PR?_SSI_TWI_CMD?SC92F854X_SSI
            CODE    3126H     000BH     UNIT         ?PR?_TIM0_WORKMODE2CONFIG?SC92F854X_TIMER0
            CODE    3131H     000BH     UNIT         ?PR?_TIM1_WORKMODE2CONFIG?SC92F854X_TIMER1
            CODE    313CH     000BH     UNIT         ?PR?_TIM2_WORKMODE0CONFIG?SC92F854X_TIMER2
            CODE    3147H     000BH     UNIT         ?PR?_TIM2_WORKMODE3CONFIG?SC92F854X_TIMER2
            CODE    3152H     000BH     UNIT         ?PR?SETONEKEYPUSHRESETTIME?S_TOUCHKEYCFG
            CODE    315DH     000BH     UNIT         ?PR?GETBASELINEUPDATETHRESHOLD?S_TOUCHKEYCFG
            CODE    3168H     000AH     UNIT         ?PR?WRITEENABLE?W25Q16
            CODE    3172H     000AH     UNIT         ?PR?_TIM0_WORKMODE3CONFIG?SC92F854X_TIMER0
            CODE    317CH     0009H     UNIT         ?PR?SPI_READBYTE?W25Q16
            CODE    3185H     0009H     UNIT         ?PR?_TIM0_CMD?SC92F854X_TIMER0
            CODE    318EH     0009H     UNIT         ?PR?_TIM1_CMD?SC92F854X_TIMER1
            CODE    3197H     0009H     UNIT         ?PR?_TIM2_SETEXEN2?SC92F854X_TIMER2
            CODE    31A0H     0009H     UNIT         ?PR?_TIM2_CMD?SC92F854X_TIMER2
            CODE    31A9H     0008H     UNIT         ?PR?_ACMP_SETTRIGGERMODE?SC92F854X_ACMP
            CODE    31B1H     0008H     UNIT         ?PR?_IAP_SETHOLDTIME?SC92F854X_IAP
            CODE    31B9H     0008H     UNIT         ?PR?_TIM0_MODE1SETRELOADCOUNTER?SC92F854X_TIMER0
            CODE    31C1H     0008H     UNIT         ?PR?_TIM1_MODE1SETRELOADCOUNTER?SC92F854X_TIMER1
            CODE    31C9H     0008H     UNIT         ?PR?GETINITAUTOUPDATETIME?S_TOUCHKEYCFG
BL51 BANKED LINKER/LOCATER V6.22                                                      02/20/2019  13:49:04  PAGE 6


            CODE    31D1H     0008H     UNIT         ?PR?GETUPCONFIRMCNT?S_TOUCHKEYCFG
            CODE    31D9H     0006H     UNIT         ?PR?ACMP_DEINIT?SC92F854X_ACMP
            CODE    31DFH     0006H     UNIT         ?PR?ADC_GETFLAGSTATUS?SC92F854X_ADC
            CODE    31E5H     0006H     UNIT         ?PR?PWM_GETFLAGSTATUS?SC92F854X_PWM
            CODE    31EBH     0006H     UNIT         ?PR?TIM0_GETFLAGSTATUS?SC92F854X_TIMER0
            CODE    31F1H     0006H     UNIT         ?PR?TIM1_GETFLAGSTATUS?SC92F854X_TIMER1
            CODE    31F7H     0005H     UNIT         ?PR?_ACMP_GETFLAGSTATUS?SC92F854X_ACMP
            CODE    31FCH     0005H     UNIT         ?PR?_ADC_INIT?SC92F854X_ADC
            CODE    3201H     0005H     UNIT         ?PR?_TIM2_CLEARFLAG?SC92F854X_TIMER2
            CODE    3206H     0005H     UNIT         ?PR?_UART0_GETFLAGSTATUS?SC92F854X_UART0
            CODE    320BH     0005H     UNIT         ?PR?_UART0_CLEARFLAG?SC92F854X_UART0
            CODE    3210H     0004H     UNIT         ?PR?ACMP_CLEARFLAG?SC92F854X_ACMP
            CODE    3214H     0004H     UNIT         ?PR?ADC_STARTCONVERSION?SC92F854X_ADC
            CODE    3218H     0004H     UNIT         ?PR?ADC_CLEARFLAG?SC92F854X_ADC
            CODE    321CH     0004H     UNIT         ?PR?DDIC_LEDCONFIG?SC92F854X_DDIC
            CODE    3220H     0004H     UNIT         ?PR?PWM_CLEARFLAG?SC92F854X_PWM
            CODE    3224H     0003H     UNIT         ?PR?_SSI_SPI_SENDDATA?SC92F854X_SSI
            CODE    3227H     0003H     UNIT         ?PR?SSI_SPI_RECEIVEDATA?SC92F854X_SSI
            CODE    322AH     0003H     UNIT         ?PR?_SSI_TWI_SENDDATA?SC92F854X_SSI
            CODE    322DH     0003H     UNIT         ?PR?SSI_TWI_RECEIVEDATA?SC92F854X_SSI
            CODE    3230H     0003H     UNIT         ?PR?_SSI_UART1_SENDDATA8?SC92F854X_SSI
            CODE    3233H     0003H     UNIT         ?PR?SSI_UART1_RECEIVEDATA8?SC92F854X_SSI
            CODE    3236H     0003H     UNIT         ?PR?TIM0_CLEARFLAG?SC92F854X_TIMER0
            CODE    3239H     0003H     UNIT         ?PR?TIM1_CLEARFLAG?SC92F854X_TIMER1
            CODE    323CH     0003H     UNIT         ?PR?_UART0_SENDDATA8?SC92F854X_UART0
            CODE    323FH     0003H     UNIT         ?PR?UART0_RECEIVEDATA8?SC92F854X_UART0
            CODE    3242H     0003H     UNIT         ?PR?TOUCHKEYRESTART?SENSORMETHOD
            CODE    3245H     0003H     UNIT         ?PR?GETISNEEDUPDATEBASELINE?SENSORMETHOD
            CODE    3248H     0003H     UNIT         ?PR?SETNEEDUPDATEBASELINE?SENSORMETHOD
            CODE    324BH     0001H     UNIT         ?PR?EXTI0INTERRUPT?SC92F854X_IT
            CODE    324CH     0001H     UNIT         ?PR?EXTI1INTERRUPT?SC92F854X_IT
            CODE    324DH     0001H     UNIT         ?PR?ADCINTERRUPT?SC92F854X_IT
            CODE    324EH     0001H     UNIT         ?PR?PWMINTERRUPT?SC92F854X_IT
            CODE    324FH     0001H     UNIT         ?PR?BTMINTERRUPT?SC92F854X_IT
            CODE    3250H     0001H     UNIT         ?PR?EXTI2INTERRUPT?SC92F854X_IT
            CODE    3251H     0001H     UNIT         ?PR?ACMPINTERRUPT?SC92F854X_IT



OVERLAY MAP OF MODULE:   ..\OUTPUT\Function Demo (FUNCTION)


SEGMENT                                             BIT_GROUP          DATA_GROUP          XDATA_GROUP
  +--> CALLED SEGMENT                            START    LENGTH     START    LENGTH     START    LENGTH
--------------------------------------------------------------------------------------------------------
?PR?TIMER0INTERRUPT?SC92F854X_IT                 -----    -----      -----    -----      -----    -----
  +--> ?PR?_TIM0_MODE0SETRELOADCOUNTER?SC92F...

*** NEW ROOT ***************************************************

?PR?TIMER1INTERRUPT?SC92F854X_IT                 -----    -----      -----    -----      -----    -----
  +--> ?PR?_GPIO_READPIN?SC92F854X_GPIO
  +--> ?PR?_GPIO_WRITELOW?SC92F854X_GPIO
  +--> ?PR?_GPIO_WRITEHIGH?SC92F854X_GPIO

*** NEW ROOT ***************************************************

BL51 BANKED LINKER/LOCATER V6.22                                                      02/20/2019  13:49:04  PAGE 7


?PR?UART0INTERRUPT?SC92F854X_IT                  -----    -----      -----    -----      -----    -----
  +--> ?PR?_UART0_GETFLAGSTATUS?SC92F854X_UART0
  +--> ?PR?_UART0_CLEARFLAG?SC92F854X_UART0

*** NEW ROOT ***************************************************

?PR?TIMER2INTERRUPT?SC92F854X_IT                 -----    -----      -----    -----      -----    -----
  +--> ?PR?_TIM2_GETFLAGSTATUS?SC92F854X_TIMER2
  +--> ?PR?_TIM2_CLEARFLAG?SC92F854X_TIMER2

*** NEW ROOT ***************************************************

?PR?SSIINTERRUPT?SC92F854X_IT                    -----    -----      -----    -----      -----    -----
  +--> ?PR?_SSI_GETFLAGSTATUS?SC92F854X_SSI
  +--> ?PR?_SSI_CLEARFLAG?SC92F854X_SSI

*** NEW ROOT ***************************************************

?PR?CTK_ISR?SENSORMETHOD                         0020H.0  0000H.1    -----    -----      -----    -----
  +--> ?PR?SENSORMETHOD
  +--> ?PR?_GETSCANTIMEVALUE?S_TOUCHKEYCFG
  +--> ?PR?_GETBASELINEADJUSTVALUE?S_TOUCHKE...

?PR?_GETSCANTIMEVALUE?S_TOUCHKEYCFG              -----    -----      -----    -----      -----    -----
  +--> ?CO?S_TOUCHKEYCFG

?PR?_GETBASELINEADJUSTVALUE?S_TOUCHKE...         -----    -----      -----    -----      -----    -----
  +--> ?CO?S_TOUCHKEYCFG

*** NEW ROOT ***************************************************

?C_C51STARTUP                                    -----    -----      -----    -----      -----    -----
  +--> ?PR?MAIN?MAIN
  +--> ?C_INITSEG

?PR?MAIN?MAIN                                    -----    -----      -----    -----      -----    -----
  +--> ?PR?GPIOINIT?FUNCTION
  +--> ?PR?TIMER0INIT?FUNCTION
  +--> ?PR?DDIC_LCDINIT?FUNCTION
  +--> ?PR?TOUCHKEYINIT?SENSORMETHOD
  +--> ?PR?_GPIO_INIT?SC92F854X_GPIO
  +--> ?PR?SYS_SCAN?TK
  +--> ?PR?LCD_DISPLAY?LCD_DISPLAY
  +--> ?PR?GETS1STATE?FUNCTION
  +--> ?PR?MODE1_PWM?FUNCTION
  +--> ?PR?MODE2_TIMER1COUNTER?FUNCTION
  +--> ?PR?MODE3_UART1?FUNCTION
  +--> ?PR?MODE4_ADC?FUNCTION
  +--> ?PR?MODE5_SPI?FUNCTION
  +--> ?PR?MODE6_TIMER2CAPTURE?FUNCTION
  +--> ?PR?MODE7_IAP?FUNCTION

?PR?GPIOINIT?FUNCTION                            -----    -----      -----    -----      -----    -----
  +--> ?PR?_GPIO_INIT?SC92F854X_GPIO

?PR?TIMER0INIT?FUNCTION                          -----    -----      -----    -----      -----    -----
  +--> ?PR?_TIM0_TIMEBASEINIT?SC92F854X_TIMER0
BL51 BANKED LINKER/LOCATER V6.22                                                      02/20/2019  13:49:04  PAGE 8


  +--> ?PR?_TIM0_WORKMODE0CONFIG?SC92F854X_T...
  +--> ?PR?_TIM0_CMD?SC92F854X_TIMER0
  +--> ?PR?_TIM0_ITCONFIG?SC92F854X_TIMER0

?PR?DDIC_LCDINIT?FUNCTION                        -----    -----      -----    -----      -----    -----
  +--> ?PR?_DDIC_INIT?SC92F854X_DDIC
  +--> ?PR?_DDIC_LCDCONFIG?SC92F854X_DDIC
  +--> ?PR?_DDIC_OUTPUTPINOFDUTYCYCLED4?SC92...
  +--> ?PR?_DDIC_CMD?SC92F854X_DDIC

?PR?_DDIC_INIT?SC92F854X_DDIC                    -----    -----      -----    -----      0003H    0005H

?PR?TOUCHKEYINIT?SENSORMETHOD                    -----    -----      -----    -----      -----    -----
  +--> ?PR?TOUCHKEYCFGINIT?S_TOUCHKEYCFG
  +--> ?PR?_GETCFGMSG?S_TOUCHKEYCFG
  +--> ?PR?_GETSCANTIMEVALUE?S_TOUCHKEYCFG
  +--> ?PR?SENSORMETHOD
  +--> ?PR?INITIALIZESENSORFLAG?SENSORMETHOD
  +--> ?PR?FILTERAVERGEDEAL?SENSORMETHOD
  +--> ?PR?INITIALIZEBASELINES?SENSORMETHOD

?PR?TOUCHKEYCFGINIT?S_TOUCHKEYCFG                -----    -----      -----    -----      -----    -----
  +--> ?CO?S_TOUCHKEYCFG
  +--> ?PR?CURRENTSENSORCHOOSE?S_TOUCHKEYCFG

?PR?CURRENTSENSORCHOOSE?S_TOUCHKEYCFG            -----    -----      -----    -----      0000H    0004H

?PR?_GETCFGMSG?S_TOUCHKEYCFG                     -----    -----      -----    -----      -----    -----
  +--> ?CO?S_TOUCHKEYCFG

?PR?INITIALIZESENSORFLAG?SENSORMETHOD            -----    -----      -----    -----      -----    -----
  +--> ?PR?SENSORMETHOD

?PR?FILTERAVERGEDEAL?SENSORMETHOD                -----    -----      0024H    0002H      -----    -----
  +--> ?PR?FILTERCOMMCODE?SENSORMETHOD
  +--> ?PR?FILTERIIRINIT?SENSORMETHOD
  +--> ?PR?GETINITAUTOUPDATETIME?S_TOUCHKEYCFG
  +--> ?PR?_FILTERDATADEAL?SENSORMETHOD

?PR?FILTERCOMMCODE?SENSORMETHOD                  -----    -----      -----    -----      -----    -----
  +--> ?PR?_USDELAY?SENSORMETHOD

?PR?FILTERIIRINIT?SENSORMETHOD                   -----    -----      -----    -----      -----    -----
  +--> ?PR?SENSORMETHOD

?PR?GETINITAUTOUPDATETIME?S_TOUCHKEYCFG          -----    -----      -----    -----      -----    -----
  +--> ?CO?S_TOUCHKEYCFG

?PR?_FILTERDATADEAL?SENSORMETHOD                 -----    -----      0026H    0003H      -----    -----
  +--> ?PR?_GETCURRFINGERVALUE?S_TOUCHKEYCFG
  +--> ?PR?SENSORMETHOD

?PR?_GETCURRFINGERVALUE?S_TOUCHKEYCFG            -----    -----      -----    -----      -----    -----
  +--> ?CO?S_TOUCHKEYCFG

?PR?INITIALIZEBASELINES?SENSORMETHOD             -----    -----      -----    -----      -----    -----
  +--> ?PR?SENSORMETHOD
BL51 BANKED LINKER/LOCATER V6.22                                                      02/20/2019  13:49:04  PAGE 9



?PR?SYS_SCAN?TK                                  -----    -----      -----    -----      -----    -----
  +--> ?PR?TOUCHKEYSCAN?S_TOUCHKEYCFG
  +--> ?PR?CHANGETOUCHKEYVALUE?TK
  +--> ?PR?LED?TK
  +--> ?PR?INPUTPASSWORD?TK
  +--> ?PR?TOUCHKEYRESTART?SENSORMETHOD

?PR?TOUCHKEYSCAN?S_TOUCHKEYCFG                   -----    -----      -----    -----      0000H    0009H
  +--> ?PR?GETISNEEDUPDATEBASELINE?SENSORMETHOD
  +--> ?PR?SENSORKEYFLAG?SENSORMETHOD
  +--> ?PR?SETONEKEYPUSHRESETTIME?S_TOUCHKEYCFG
  +--> ?PR?SETNEEDUPDATEBASELINE?SENSORMETHOD
  +--> ?CO?S_TOUCHKEYCFG
  +--> ?PR?_MULTIPLEDEAL?SENSORMETHOD

?PR?SENSORKEYFLAG?SENSORMETHOD                   -----    -----      0024H    0001H      -----    -----
  +--> ?PR?_FILTERDATADEAL?SENSORMETHOD
  +--> ?PR?SENSORRENOVATE?SENSORMETHOD
  +--> ?PR?SENSORMETHOD

?PR?SENSORRENOVATE?SENSORMETHOD                  -----    -----      0025H    000DH      -----    -----
  +--> ?PR?SENSORMETHOD
  +--> ?PR?_GETCURRFINGERVALUE?S_TOUCHKEYCFG
  +--> ?PR?GETBASELINEUPDATETHRESHOLD?S_TOUC...
  +--> ?PR?GETUPCONFIRMCNT?S_TOUCHKEYCFG

?PR?GETBASELINEUPDATETHRESHOLD?S_TOUC...         -----    -----      -----    -----      -----    -----
  +--> ?CO?S_TOUCHKEYCFG

?PR?SETONEKEYPUSHRESETTIME?S_TOUCHKEYCFG         -----    -----      -----    -----      -----    -----
  +--> ?CO?S_TOUCHKEYCFG

?PR?_MULTIPLEDEAL?SENSORMETHOD                   -----    -----      0024H    0002H      -----    -----
  +--> ?PR?FILTERIIRINIT?SENSORMETHOD
  +--> ?PR?SENSORMETHOD
  +--> ?PR?_FILTERDATADEAL?SENSORMETHOD
  +--> ?PR?INITIALIZEBASELINES?SENSORMETHOD
  +--> ?PR?INITIALIZESENSORFLAG?SENSORMETHOD

?PR?LCD_DISPLAY?LCD_DISPLAY                      -----    -----      -----    -----      -----    -----
  +--> ?CO?LCD_DISPLAY
  +--> ?PR?_LCDSEGDATA?LCD_DISPLAY

?PR?_LCDSEGDATA?LCD_DISPLAY                      -----    -----      -----    -----      -----    -----
  +--> ?CO?LCD_DISPLAY

?PR?GETS1STATE?FUNCTION                          -----    -----      -----    -----      -----    -----
  +--> ?PR?_GPIO_READPIN?SC92F854X_GPIO

?PR?MODE1_PWM?FUNCTION                           -----    -----      -----    -----      0000H    0002H
  +--> ?PR?PWM_DEINIT?SC92F854X_PWM
  +--> ?PR?_PWM_INIT?SC92F854X_PWM
  +--> ?PR?_PWM_OUTPUTSTATECONFIG?SC92F854X_PWM
  +--> ?PR?_PWM_CMD?SC92F854X_PWM
  +--> ?PR?_PWM_INDEPENDENTMODECONFIG?SC92F8...
  +--> ?PR?_DELAY_SOME_TIME?FUNCTION
BL51 BANKED LINKER/LOCATER V6.22                                                      02/20/2019  13:49:04  PAGE 10


  +--> ?PR?_GPIO_READPIN?SC92F854X_GPIO

?PR?MODE2_TIMER1COUNTER?FUNCTION                 -----    -----      -----    -----      -----    -----
  +--> ?PR?_TIM1_TIMEBASEINIT?SC92F854X_TIMER1
  +--> ?PR?_TIM1_WORKMODE2CONFIG?SC92F854X_T...
  +--> ?PR?_TIM1_CMD?SC92F854X_TIMER1
  +--> ?PR?_TIM1_ITCONFIG?SC92F854X_TIMER1
  +--> ?PR?_GPIO_READPIN?SC92F854X_GPIO

?PR?MODE3_UART1?FUNCTION                         -----    -----      -----    -----      -----    -----
  +--> ?PR?_GPIO_INIT?SC92F854X_GPIO
  +--> ?PR?_SSI_UART1_INIT?SC92F854X_SSI
  +--> ?CO?FUNCTION
  +--> ?PR?_UART1SENDSTRING?FUNCTION
  +--> ?PR?_GPIO_READPIN?SC92F854X_GPIO

?PR?_SSI_UART1_INIT?SC92F854X_SSI                -----    -----      -----    -----      0003H    000AH

?PR?_UART1SENDSTRING?FUNCTION                    -----    -----      -----    -----      0003H    0003H
  +--> ?PR?_SSI_UART1_SENDDATA8?SC92F854X_SSI
  +--> ?PR?_SSI_GETFLAGSTATUS?SC92F854X_SSI
  +--> ?PR?_SSI_CLEARFLAG?SC92F854X_SSI

?PR?MODE4_ADC?FUNCTION                           -----    -----      -----    -----      -----    -----
  +--> ?PR?ADCINIT?ADC
  +--> ?PR?DDIC_LEDINIT?FUNCTION
  +--> ?PR?GETADCVALUE?ADC
  +--> ?PR?GETTEMPERATURE?ADC
  +--> ?PR?LED_DISPLAY?LED_DISPLAY
  +--> ?PR?_GPIO_READPIN?SC92F854X_GPIO
  +--> ?PR?_ADC_CMD?SC92F854X_ADC
  +--> ?PR?DDIC_LCDINIT?FUNCTION

?PR?ADCINIT?ADC                                  -----    -----      -----    -----      -----    -----
  +--> ?PR?_ADC_INIT?SC92F854X_ADC
  +--> ?PR?_ADC_CHANNELCONFIG?SC92F854X_ADC
  +--> ?PR?_ADC_CMD?SC92F854X_ADC
  +--> ?PR?_ADC_VREFCONFIG?SC92F854X_ADC

?PR?DDIC_LEDINIT?FUNCTION                        -----    -----      -----    -----      -----    -----
  +--> ?PR?_DDIC_INIT?SC92F854X_DDIC
  +--> ?PR?DDIC_LEDCONFIG?SC92F854X_DDIC
  +--> ?PR?_DDIC_OUTPUTPINOFDUTYCYCLED4?SC92...
  +--> ?PR?_DDIC_CMD?SC92F854X_DDIC

?PR?GETADCVALUE?ADC                              -----    -----      -----    -----      -----    -----
  +--> ?PR?ADC_STARTCONVERSION?SC92F854X_ADC
  +--> ?PR?ADC_GETFLAGSTATUS?SC92F854X_ADC
  +--> ?PR?ADC_CLEARFLAG?SC92F854X_ADC
  +--> ?PR?ADC_GETCONVERSIONVALUE?SC92F854X_ADC

?PR?GETTEMPERATURE?ADC                           -----    -----      -----    -----      -----    -----
  +--> ?CO?ADC

?PR?LED_DISPLAY?LED_DISPLAY                      -----    -----      -----    -----      -----    -----
  +--> ?CO?LED_DISPLAY
  +--> ?PR?_LEDSEGDATA?LED_DISPLAY
BL51 BANKED LINKER/LOCATER V6.22                                                      02/20/2019  13:49:04  PAGE 11



?PR?MODE5_SPI?FUNCTION                           -----    -----      -----    -----      0000H    0015H
  +--> ?PR?_GPIO_INIT?SC92F854X_GPIO
  +--> ?PR?_UART0_INIT?SC92F854X_UART0
  +--> ?PR?_UART0_ITCONFIG?SC92F854X_UART0
  +--> ?PR?_SSI_SPI_INIT?SC92F854X_SSI
  +--> ?PR?_SSI_SPI_CMD?SC92F854X_SSI
  +--> ?PR?_SSI_ITCONFIG?SC92F854X_SSI
  +--> ?PR?_W25_SECTORERASE?W25Q16
  +--> ?PR?_SPI_FLASH_WRITE_NOCHECK?W25Q16
  +--> ?PR?_SPI_FLASH_READ?W25Q16
  +--> ?CO?FUNCTION
  +--> ?PR?PRINTF?PRINTF
  +--> ?PR?_GPIO_READPIN?SC92F854X_GPIO

?PR?_UART0_INIT?SC92F854X_UART0                  -----    -----      -----    -----      0015H    000BH

?PR?_SSI_SPI_INIT?SC92F854X_SSI                  -----    -----      -----    -----      0015H    0006H

?PR?_W25_SECTORERASE?W25Q16                      -----    -----      -----    -----      0015H    0004H
  +--> ?PR?W25Q16_READSTATUS?W25Q16
  +--> ?PR?WRITEENABLE?W25Q16
  +--> ?PR?_SPI_WRITEBYTE?W25Q16

?PR?W25Q16_READSTATUS?W25Q16                     -----    -----      -----    -----      -----    -----
  +--> ?PR?_SPI_WRITEBYTE?W25Q16
  +--> ?PR?SPI_READBYTE?W25Q16

?PR?_SPI_WRITEBYTE?W25Q16                        -----    -----      -----    -----      -----    -----
  +--> ?PR?_SSI_SPI_SENDDATA?SC92F854X_SSI

?PR?SPI_READBYTE?W25Q16                          -----    -----      -----    -----      -----    -----
  +--> ?PR?_SPI_WRITEBYTE?W25Q16
  +--> ?PR?SSI_SPI_RECEIVEDATA?SC92F854X_SSI

?PR?WRITEENABLE?W25Q16                           -----    -----      -----    -----      -----    -----
  +--> ?PR?_SPI_WRITEBYTE?W25Q16

?PR?_SPI_FLASH_WRITE_NOCHECK?W25Q16              -----    -----      -----    -----      0015H    000BH
  +--> ?PR?_W25_FLASH_WRITE_PAGE?W25Q16

?PR?_W25_FLASH_WRITE_PAGE?W25Q16                 -----    -----      -----    -----      0020H    000BH
  +--> ?PR?WRITEENABLE?W25Q16
  +--> ?PR?W25Q16_READSTATUS?W25Q16
  +--> ?PR?_SPI_WRITEBYTE?W25Q16

?PR?_SPI_FLASH_READ?W25Q16                       -----    -----      -----    -----      0015H    000BH
  +--> ?PR?W25Q16_READSTATUS?W25Q16
  +--> ?PR?WRITEENABLE?W25Q16
  +--> ?PR?_SPI_WRITEBYTE?W25Q16
  +--> ?PR?SPI_READBYTE?W25Q16

?PR?PRINTF?PRINTF                                0020H.1  0001H.1    0024H    0005H      0015H    0028H
  +--> ?PR?_PUTCHAR?UART0

?PR?_PUTCHAR?UART0                               -----    -----      -----    -----      003DH    0001H
  +--> ?PR?_UART0_SENDDATA8?SC92F854X_UART0
BL51 BANKED LINKER/LOCATER V6.22                                                      02/20/2019  13:49:04  PAGE 12



?PR?MODE6_TIMER2CAPTURE?FUNCTION                 -----    -----      -----    -----      -----    -----
  +--> ?PR?_TIM2_TIMEBASEINIT?SC92F854X_TIMER2
  +--> ?PR?_TIM2_WORKMODE0CONFIG?SC92F854X_T...
  +--> ?PR?_TIM2_CMD?SC92F854X_TIMER2
  +--> ?PR?_TIM2_ITCONFIG?SC92F854X_TIMER2
  +--> ?PR?_TIM1_TIMEBASEINIT?SC92F854X_TIMER1
  +--> ?PR?_TIM1_WORKMODE2CONFIG?SC92F854X_T...
  +--> ?PR?_TIM1_CMD?SC92F854X_TIMER1
  +--> ?PR?_TIM1_ITCONFIG?SC92F854X_TIMER1
  +--> ?PR?_GPIO_INIT?SC92F854X_GPIO
  +--> ?PR?DDIC_LEDINIT?FUNCTION
  +--> ?PR?LED_DISPLAY?LED_DISPLAY
  +--> ?PR?_GPIO_READPIN?SC92F854X_GPIO
  +--> ?PR?DDIC_LCDINIT?FUNCTION

?PR?MODE7_IAP?FUNCTION                           -----    -----      -----    -----      0000H    0003H
  +--> ?PR?_GPIO_INIT?SC92F854X_GPIO
  +--> ?PR?_SSI_UART1_INIT?SC92F854X_SSI
  +--> ?PR?_IAP_SETHOLDTIME?SC92F854X_IAP
  +--> ?PR?_IAP_SETOPERATERANGE?SC92F854X_IAP
  +--> ?PR?_IAP_PROGRAMBYTE?SC92F854X_IAP
  +--> ?CO?FUNCTION
  +--> ?PR?_UART1SENDSTRING?FUNCTION
  +--> ?PR?_IAP_READBYTE?SC92F854X_IAP
  +--> ?PR?_SSI_UART1_SENDDATA8?SC92F854X_SSI
  +--> ?PR?_SSI_GETFLAGSTATUS?SC92F854X_SSI
  +--> ?PR?_SSI_CLEARFLAG?SC92F854X_SSI
  +--> ?PR?_GPIO_READPIN?SC92F854X_GPIO
  +--> ?PR?DDIC_LCDINIT?FUNCTION

?PR?_IAP_PROGRAMBYTE?SC92F854X_IAP               -----    -----      -----    -----      0003H    0005H



SYMBOL TABLE OF MODULE:  ..\OUTPUT\Function Demo (FUNCTION)

  VALUE           TYPE          NAME
  ----------------------------------

  -------         MODULE        FUNCTION
  C:0000H         SYMBOL        _ICE_DUMMY_
  D:0080H         PUBLIC        P0
  B:0022H.4       PUBLIC        S1Flag
  D:0090H         PUBLIC        P1
  B:0022H.5       PUBLIC        S2Flag
  D:00A0H         PUBLIC        P2
  D:00B0H         PUBLIC        P3
  D:00C0H         PUBLIC        P4
  D:008FH         PUBLIC        OTCON
  D:00D8H         PUBLIC        P5
  C:0B7EH         PUBLIC        Mode5_SPI
  C:222EH         PUBLIC        Mode3_UART1
  C:135DH         PUBLIC        Mode1_PWM
  D:00A8H         PUBLIC        IE
  D:00B8H         PUBLIC        IP
  C:249DH         PUBLIC        GetS1State
BL51 BANKED LINKER/LOCATER V6.22                                                      02/20/2019  13:49:04  PAGE 13


  C:1167H         PUBLIC        Mode6_Timer2Capture
  D:0098H         PUBLIC        SCON
  C:258BH         PUBLIC        Mode2_Timer1Counter
  D:0088H         PUBLIC        TCON
  C:28A2H         PUBLIC        GPIOInit
  C:2D4CH         PUBLIC        Timer0Init
  C:2869H         PUBLIC        _Uart1SendString
  C:2C59H         PUBLIC        _Delay_Some_Time
  B:0022H.6       PUBLIC        PWMCNT
  C:2BBEH         PUBLIC        DDIC_LCDInit
  C:2C77H         PUBLIC        DDIC_LEDInit
  C:26A4H         PUBLIC        Mode4_ADC
  D:00C8H         PUBLIC        T2CON
  C:0CC2H         PUBLIC        Mode7_IAP
  D:00D0H         PUBLIC        PSW
  -------         PROC          GPIOINIT
  C:28A2H         LINE#         24
  C:28A2H         LINE#         25
  C:28A2H         LINE#         26
  C:28ABH         LINE#         27
  C:28B4H         LINE#         28
  C:28BDH         LINE#         29
  C:28C6H         LINE#         30
  C:28CFH         LINE#         31
  -------         ENDPROC       GPIOINIT
  -------         PROC          TIMER0INIT
  C:2D4CH         LINE#         34
  C:2D4CH         LINE#         35
  C:2D4CH         LINE#         36
  C:2D53H         LINE#         37
  C:2D5AH         LINE#         38
  C:2D5FH         LINE#         39
  -------         ENDPROC       TIMER0INIT
  -------         PROC          DDIC_LCDINIT
  C:2BBEH         LINE#         42
  C:2BBEH         LINE#         43
  C:2BBEH         LINE#         44
  C:2BD1H         LINE#         45
  C:2BDAH         LINE#         46
  C:2BDFH         LINE#         47
  -------         ENDPROC       DDIC_LCDINIT
  -------         PROC          DDIC_LEDINIT
  C:2C77H         LINE#         50
  C:2C77H         LINE#         51
  C:2C77H         LINE#         52
  C:2C89H         LINE#         53
  C:2C8CH         LINE#         54
  C:2C91H         LINE#         55
  -------         ENDPROC       DDIC_LEDINIT
  -------         PROC          GETS1STATE
  C:249DH         LINE#         58
  C:249DH         LINE#         59
  C:249DH         LINE#         60
  C:24B4H         LINE#         61
  C:24B4H         LINE#         62
  C:24CBH         LINE#         63
  C:24CBH         LINE#         64
BL51 BANKED LINKER/LOCATER V6.22                                                      02/20/2019  13:49:04  PAGE 14


  C:24E2H         LINE#         65
  C:24E2H         LINE#         66
  C:24E5H         LINE#         67
  C:24E5H         LINE#         69
  C:24E5H         LINE#         70
  C:24E8H         LINE#         71
  C:24E8H         LINE#         72
  C:24E8H         LINE#         74
  C:24E8H         LINE#         75
  C:24EBH         LINE#         76
  C:24EBH         LINE#         77
  C:24EBH         LINE#         79
  C:24EBH         LINE#         80
  C:24EDH         LINE#         81
  C:24EDH         LINE#         82
  -------         ENDPROC       GETS1STATE
  C:2C55H         SYMBOL        L?0096
  -------         PROC          L?0095
  -------         ENDPROC       L?0095
  C:2C55H         SYMBOL        L?0096
  -------         PROC          _DELAY_SOME_TIME
  D:0006H         SYMBOL        Some_Time
  -------         DO            
  D:0006H         SYMBOL        i
  D:0004H         SYMBOL        j
  -------         ENDDO         
  C:2C59H         LINE#         84
  C:2C59H         LINE#         85
  C:2C59H         LINE#         87
  C:2C62H         LINE#         88
  C:2C76H         LINE#         89
  -------         ENDPROC       _DELAY_SOME_TIME
  -------         PROC          _UART1SENDSTRING
  X:0003H         SYMBOL        str
  C:2869H         LINE#         91
  C:2874H         LINE#         92
  C:2874H         LINE#         93
  C:2885H         LINE#         94
  C:2885H         LINE#         95
  C:2888H         LINE#         96
  C:2890H         LINE#         97
  C:2895H         LINE#         98
  C:289FH         LINE#         99
  C:28A1H         LINE#         100
  -------         ENDPROC       _UART1SENDSTRING
  -------         PROC          MODE1_PWM
  -------         DO            
  X:0000H         SYMBOL        i
  -------         ENDDO         
  C:135DH         LINE#         102
  C:135DH         LINE#         103
  C:135DH         LINE#         105
  C:1360H         LINE#         106
  C:1369H         LINE#         107
  C:1370H         LINE#         108
  C:1377H         LINE#         109
  C:137EH         LINE#         110
BL51 BANKED LINKER/LOCATER V6.22                                                      02/20/2019  13:49:04  PAGE 15


  C:1383H         LINE#         112
  C:1383H         LINE#         113
  C:1383H         LINE#         114
  C:1385H         LINE#         115
  C:139FH         LINE#         116
  C:139FH         LINE#         117
  C:13A2H         LINE#         118
  C:13A2H         LINE#         119
  C:13A7H         LINE#         120
  C:13AAH         LINE#         121
  C:13BFH         LINE#         122
  C:13C2H         LINE#         123
  C:13CAH         LINE#         124
  C:13CAH         LINE#         125
  C:13CCH         LINE#         127
  C:13CCH         LINE#         128
  C:13E1H         LINE#         129
  C:13E4H         LINE#         130
  C:13F1H         LINE#         131
  C:13F4H         LINE#         132
  C:1409H         LINE#         133
  C:140CH         LINE#         134
  C:140CH         LINE#         136
  C:1416H         LINE#         137
  C:1416H         LINE#         138
  C:1418H         LINE#         139
  C:141AH         LINE#         140
  C:141EH         LINE#         141
  C:1420H         LINE#         142
  C:142CH         LINE#         143
  C:142EH         LINE#         144
  C:142EH         LINE#         145
  C:143FH         LINE#         147
  C:1445H         LINE#         148
  C:1445H         LINE#         149
  C:1447H         LINE#         150
  C:144CH         LINE#         151
  C:144CH         LINE#         152
  C:144CH         LINE#         153
  C:144CH         LINE#         154
  -------         ENDPROC       MODE1_PWM
  -------         PROC          MODE2_TIMER1COUNTER
  C:258BH         LINE#         156
  C:258BH         LINE#         157
  C:258BH         LINE#         158
  C:2592H         LINE#         159
  C:2597H         LINE#         160
  C:259CH         LINE#         161
  C:25A3H         LINE#         163
  C:25A3H         LINE#         164
  C:25A3H         LINE#         165
  C:25ADH         LINE#         166
  C:25ADH         LINE#         167
  C:25AFH         LINE#         168
  C:25B1H         LINE#         169
  C:25B5H         LINE#         170
  C:25B7H         LINE#         171
BL51 BANKED LINKER/LOCATER V6.22                                                      02/20/2019  13:49:04  PAGE 16


  C:25C3H         LINE#         172
  C:25C3H         LINE#         173
  C:25C6H         LINE#         174
  C:25C6H         LINE#         175
  C:25C8H         LINE#         176
  C:25CDH         LINE#         177
  C:25D3H         LINE#         178
  C:25D3H         LINE#         179
  C:25D3H         LINE#         180
  C:25D3H         LINE#         181
  -------         ENDPROC       MODE2_TIMER1COUNTER
  -------         PROC          MODE3_UART1
  C:222EH         LINE#         183
  C:222EH         LINE#         184
  C:222EH         LINE#         185
  C:2237H         LINE#         186
  C:2255H         LINE#         187
  C:2255H         LINE#         188
  C:2255H         LINE#         189
  C:225EH         LINE#         190
  C:2268H         LINE#         191
  C:2268H         LINE#         192
  C:226AH         LINE#         193
  C:226CH         LINE#         194
  C:2270H         LINE#         195
  C:2272H         LINE#         196
  C:227AH         LINE#         197
  C:2286H         LINE#         198
  C:2286H         LINE#         199
  C:2289H         LINE#         200
  C:2289H         LINE#         201
  C:228BH         LINE#         202
  C:228EH         LINE#         203
  C:228EH         LINE#         204
  C:228EH         LINE#         205
  C:228EH         LINE#         206
  -------         ENDPROC       MODE3_UART1
  -------         PROC          MODE4_ADC
  C:26A4H         LINE#         208
  C:26A4H         LINE#         209
  C:26A4H         LINE#         211
  C:26A7H         LINE#         212
  C:26AAH         LINE#         213
  C:26AAH         LINE#         214
  C:26AAH         LINE#         215
  C:26ADH         LINE#         216
  C:26ADH         LINE#         217
  C:26AFH         LINE#         218
  C:26B2H         LINE#         219
  C:26B5H         LINE#         220
  C:26B8H         LINE#         221
  C:26B8H         LINE#         223
  C:26C2H         LINE#         224
  C:26C2H         LINE#         225
  C:26C4H         LINE#         226
  C:26C6H         LINE#         227
  C:26CAH         LINE#         228
BL51 BANKED LINKER/LOCATER V6.22                                                      02/20/2019  13:49:04  PAGE 17


  C:26CCH         LINE#         229
  C:26D8H         LINE#         230
  C:26D8H         LINE#         231
  C:26DBH         LINE#         232
  C:26DBH         LINE#         233
  C:26DDH         LINE#         234
  C:26E2H         LINE#         235
  C:26E5H         LINE#         236
  C:26E5H         LINE#         237
  C:26E5H         LINE#         239
  C:26E5H         LINE#         240
  -------         ENDPROC       MODE4_ADC
  -------         PROC          MODE5_SPI
  -------         DO            
  X:0000H         SYMBOL        i
  X:0001H         SYMBOL        Send_DATA
  X:000BH         SYMBOL        Rec_DATA
  -------         ENDDO         
  C:0B7EH         LINE#         242
  C:0B7EH         LINE#         243
  C:0B7EH         LINE#         247
  C:0B87H         LINE#         248
  C:0B90H         LINE#         249
  C:0BB2H         LINE#         250
  C:0BB9H         LINE#         252
  C:0BCAH         LINE#         253
  C:0BCFH         LINE#         254
  C:0BD6H         LINE#         256
  C:0BE5H         LINE#         257
  C:0BE5H         LINE#         258
  C:0BF1H         LINE#         259
  C:0BFEH         LINE#         260
  C:0C06H         LINE#         262
  C:0C11H         LINE#         263
  C:0C2BH         LINE#         264
  C:0C45H         LINE#         266
  C:0C45H         LINE#         267
  C:0C45H         LINE#         268
  C:0C4EH         LINE#         270
  C:0C5DH         LINE#         271
  C:0C5DH         LINE#         272
  C:0C77H         LINE#         273
  C:0C7FH         LINE#         274
  C:0C88H         LINE#         276
  C:0C92H         LINE#         277
  C:0C92H         LINE#         278
  C:0C94H         LINE#         279
  C:0C96H         LINE#         280
  C:0C9AH         LINE#         281
  C:0C9CH         LINE#         282
  C:0CA8H         LINE#         283
  C:0CA8H         LINE#         284
  C:0CABH         LINE#         285
  C:0CABH         LINE#         286
  C:0CADH         LINE#         287
  C:0CB3H         LINE#         288
  C:0CB9H         LINE#         289
BL51 BANKED LINKER/LOCATER V6.22                                                      02/20/2019  13:49:04  PAGE 18


  C:0CBEH         LINE#         290
  C:0CC1H         LINE#         291
  C:0CC1H         LINE#         292
  C:0CC1H         LINE#         293
  C:0CC1H         LINE#         294
  -------         ENDPROC       MODE5_SPI
  -------         PROC          MODE6_TIMER2CAPTURE
  C:1167H         LINE#         296
  C:1167H         LINE#         297
  C:1167H         LINE#         298
  C:1170H         LINE#         299
  C:1176H         LINE#         300
  C:117BH         LINE#         301
  C:1182H         LINE#         303
  C:1189H         LINE#         304
  C:118EH         LINE#         305
  C:1193H         LINE#         306
  C:119AH         LINE#         308
  C:11A3H         LINE#         309
  C:11A6H         LINE#         310
  C:11ABH         LINE#         311
  C:11ADH         LINE#         312
  C:11AFH         LINE#         313
  C:11B1H         LINE#         314
  C:11B1H         LINE#         315
  C:11B1H         LINE#         316
  C:11B4H         LINE#         317
  C:11B4H         LINE#         318
  C:11B6H         LINE#         319
  C:11BDH         LINE#         320
  C:11BDH         LINE#         321
  C:11D6H         LINE#         322
  C:11EBH         LINE#         323
  C:1208H         LINE#         324
  C:1216H         LINE#         325
  C:121BH         LINE#         326
  C:121BH         LINE#         327
  C:121EH         LINE#         328
  C:121EH         LINE#         330
  C:1228H         LINE#         331
  C:1228H         LINE#         332
  C:122AH         LINE#         333
  C:122CH         LINE#         334
  C:1230H         LINE#         335
  C:1232H         LINE#         336
  C:1236H         LINE#         337
  C:123CH         LINE#         338
  C:1248H         LINE#         339
  C:1254H         LINE#         340
  C:1254H         LINE#         341
  C:125AH         LINE#         342
  C:125AH         LINE#         343
  C:125CH         LINE#         344
  C:1265H         LINE#         345
  C:1268H         LINE#         346
  C:1268H         LINE#         347
  C:1268H         LINE#         348
BL51 BANKED LINKER/LOCATER V6.22                                                      02/20/2019  13:49:04  PAGE 19


  C:1268H         LINE#         349
  -------         ENDPROC       MODE6_TIMER2CAPTURE
  -------         PROC          MODE7_IAP
  -------         DO            
  X:0000H         SYMBOL        i
  X:0002H         SYMBOL        IAP_Value
  -------         ENDDO         
  C:0CC2H         LINE#         351
  C:0CC2H         LINE#         352
  C:0CC2H         LINE#         354
  C:0CC7H         LINE#         356
  C:0CD0H         LINE#         357
  C:0CEAH         LINE#         359
  C:0CEFH         LINE#         360
  C:0CF4H         LINE#         362
  C:0CFBH         LINE#         363
  C:0CFBH         LINE#         364
  C:0D14H         LINE#         365
  C:0D31H         LINE#         366
  C:0D31H         LINE#         367
  C:0D31H         LINE#         368
  C:0D3AH         LINE#         369
  C:0D51H         LINE#         370
  C:0D51H         LINE#         371
  C:0D5BH         LINE#         372
  C:0D64H         LINE#         374
  C:0D6FH         LINE#         375
  C:0D77H         LINE#         376
  C:0D7CH         LINE#         378
  C:0D85H         LINE#         379
  C:0D8FH         LINE#         380
  C:0D97H         LINE#         381
  C:0D9CH         LINE#         382
  C:0DA5H         LINE#         383
  C:0DB5H         LINE#         384
  C:0DBEH         LINE#         385
  C:0DC8H         LINE#         386
  C:0DC8H         LINE#         387
  C:0DCAH         LINE#         388
  C:0DCCH         LINE#         389
  C:0DD0H         LINE#         390
  C:0DD2H         LINE#         391
  C:0DDEH         LINE#         392
  C:0DE7H         LINE#         393
  C:0DE7H         LINE#         394
  C:0DEDH         LINE#         395
  C:0DEDH         LINE#         396
  C:0DF0H         LINE#         397
  C:0DF2H         LINE#         398
  C:0DF5H         LINE#         399
  C:0DF5H         LINE#         400
  C:0DF5H         LINE#         401
  C:0DF5H         LINE#         402
  -------         ENDPROC       MODE7_IAP
  -------         ENDMOD        FUNCTION

  -------         MODULE        MAIN
BL51 BANKED LINKER/LOCATER V6.22                                                      02/20/2019  13:49:04  PAGE 20


  C:0000H         SYMBOL        _ICE_DUMMY_
  D:0080H         PUBLIC        P0
  D:0090H         PUBLIC        P1
  D:00A0H         PUBLIC        P2
  D:00B0H         PUBLIC        P3
  D:00C0H         PUBLIC        P4
  D:00D8H         PUBLIC        P5
  B:00A8H.7       PUBLIC        EA
  X:00C1H         PUBLIC        Mode
  D:00A8H         PUBLIC        IE
  D:00B8H         PUBLIC        IP
  C:1E74H         PUBLIC        main
  D:0098H         PUBLIC        SCON
  D:0088H         PUBLIC        TCON
  D:00C8H         PUBLIC        T2CON
  D:00D0H         PUBLIC        PSW
  -------         PROC          MAIN
  C:1E74H         LINE#         40
  C:1E74H         LINE#         41
  C:1E74H         LINE#         42
  C:1E77H         LINE#         43
  C:1E7AH         LINE#         44
  C:1E7DH         LINE#         45
  C:1E80H         LINE#         46
  C:1E82H         LINE#         47
  C:1E8BH         LINE#         48
  C:1E8BH         LINE#         49
  C:1E8BH         LINE#         50
  C:1E8EH         LINE#         52
  C:1E91H         LINE#         53
  C:1E91H         LINE#         54
  C:1E93H         LINE#         55
  C:1E96H         LINE#         57
  C:1E96H         LINE#         58
  C:1E9CH         LINE#         59
  C:1E9CH         LINE#         60
  C:1EBEH         LINE#         62
  C:1EE7H         LINE#         63
  C:1EE7H         LINE#         64
  C:1EECH         LINE#         65
  C:1EF1H         LINE#         66
  C:1EF6H         LINE#         67
  C:1EFBH         LINE#         68
  C:1F00H         LINE#         69
  C:1F05H         LINE#         70
  -------         ENDPROC       MAIN
  -------         ENDMOD        MAIN

  -------         MODULE        LCD_DISPLAY
  C:0000H         SYMBOL        _ICE_DUMMY_
  D:0080H         PUBLIC        P0
  D:0090H         PUBLIC        P1
  X:009AH         PUBLIC        LcdCOMConut
  D:00A0H         PUBLIC        P2
  D:00B0H         PUBLIC        P3
  D:00C0H         PUBLIC        P4
  D:00D8H         PUBLIC        P5
BL51 BANKED LINKER/LOCATER V6.22                                                      02/20/2019  13:49:04  PAGE 21


  D:00A8H         PUBLIC        IE
  D:00B8H         PUBLIC        IP
  X:009BH         PUBLIC        SEGA
  X:009CH         PUBLIC        SEGB
  X:009DH         PUBLIC        SEGC
  X:009EH         PUBLIC        SEGD
  X:009FH         PUBLIC        SEGE
  X:00A0H         PUBLIC        SEGF
  X:00A1H         PUBLIC        SEGG
  X:00A2H         PUBLIC        LcdDataTab
  C:2EB6H         PUBLIC        LcdCodeTab
  C:0DFDH         PUBLIC        _LcdSegData
  D:0098H         PUBLIC        SCON
  D:0088H         PUBLIC        TCON
  C:2B70H         PUBLIC        Lcd_Display
  X:0700H         PUBLIC        Display
  D:00C8H         PUBLIC        T2CON
  X:00A6H         PUBLIC        SEGDP
  D:00D0H         PUBLIC        PSW
  -------         PROC          L?0007
  -------         ENDPROC       L?0007
  -------         PROC          _LCDSEGDATA
  D:0006H         SYMBOL        LcdData
  D:0005H         SYMBOL        COMx
  C:0DFDH         LINE#         30
  C:0DFFH         LINE#         31
  C:0DFFH         LINE#         33
  C:0E06H         LINE#         34
  C:0E0DH         LINE#         35
  C:0E18H         LINE#         36
  C:0E25H         LINE#         37
  C:0E2FH         LINE#         38
  C:0E38H         LINE#         39
  C:0E42H         LINE#         40
  C:0E54H         LINE#         41
  C:0E57H         LINE#         42
  C:0E57H         LINE#         43
  C:0E71H         LINE#         44
  C:0E87H         LINE#         46
  C:0E87H         LINE#         47
  C:0E8CH         LINE#         48
  C:0E8CH         LINE#         49
  C:0EA6H         LINE#         50
  C:0EBCH         LINE#         51
  C:0EBCH         LINE#         52
  C:0EC1H         LINE#         53
  C:0EC1H         LINE#         54
  C:0EDBH         LINE#         55
  C:0EF1H         LINE#         56
  C:0EF1H         LINE#         57
  C:0EF6H         LINE#         58
  C:0EF6H         LINE#         59
  C:0F10H         LINE#         60
  C:0F26H         LINE#         61
  C:0F26H         LINE#         63
  -------         ENDPROC       _LCDSEGDATA
  -------         PROC          LCD_DISPLAY
BL51 BANKED LINKER/LOCATER V6.22                                                      02/20/2019  13:49:04  PAGE 22


  C:2B70H         LINE#         71
  C:2B70H         LINE#         72
  C:2B70H         LINE#         73
  C:2B7EH         LINE#         74
  C:2B84H         LINE#         75
  C:2B8AH         LINE#         76
  -------         ENDPROC       LCD_DISPLAY
  -------         ENDMOD        LCD_DISPLAY

  -------         MODULE        LED_DISPLAY
  C:0000H         SYMBOL        _ICE_DUMMY_
  D:0080H         PUBLIC        P0
  D:0090H         PUBLIC        P1
  D:00A0H         PUBLIC        P2
  D:00B0H         PUBLIC        P3
  D:00C0H         PUBLIC        P4
  D:00D8H         PUBLIC        P5
  D:00A8H         PUBLIC        IE
  D:00B8H         PUBLIC        IP
  X:00A7H         PUBLIC        LedDataTab
  C:2EC9H         PUBLIC        LedCodeTab
  X:00ABH         PUBLIC        LedTemp
  C:1867H         PUBLIC        _LedSegData
  D:0098H         PUBLIC        SCON
  D:0088H         PUBLIC        TCON
  C:2160H         PUBLIC        Led_Display
  D:00C8H         PUBLIC        T2CON
  D:00D0H         PUBLIC        PSW
  -------         PROC          _LEDSEGDATA
  D:0004H         SYMBOL        LedData
  D:0005H         SYMBOL        COMx
  C:1867H         LINE#         30
  C:1869H         LINE#         31
  C:1869H         LINE#         32
  C:1880H         LINE#         33
  C:1897H         LINE#         34
  C:18AEH         LINE#         35
  C:18C6H         LINE#         36
  C:18DCH         LINE#         37
  C:18F3H         LINE#         38
  C:190BH         LINE#         39
  C:1926H         LINE#         40
  -------         ENDPROC       _LEDSEGDATA
  -------         PROC          LED_DISPLAY
  -------         DO            
  D:0003H         SYMBOL        i
  -------         ENDDO         
  C:2160H         LINE#         48
  C:2160H         LINE#         49
  C:2160H         LINE#         51
  C:2160H         LINE#         52
  C:2160H         LINE#         53
  C:216AH         LINE#         54
  C:216AH         LINE#         55
  C:216CH         LINE#         56
  C:216CH         LINE#         57
  C:2183H         LINE#         58
BL51 BANKED LINKER/LOCATER V6.22                                                      02/20/2019  13:49:04  PAGE 23


  C:2188H         LINE#         59
  C:2190H         LINE#         60
  C:2198H         LINE#         61
  C:21A0H         LINE#         62
  C:21A8H         LINE#         63
  C:21B0H         LINE#         64
  C:21B8H         LINE#         65
  C:21C0H         LINE#         66
  C:21C8H         LINE#         67
  -------         ENDPROC       LED_DISPLAY
  -------         ENDMOD        LED_DISPLAY

  -------         MODULE        SC92F854X_IT
  C:0000H         SYMBOL        _ICE_DUMMY_
  D:0080H         PUBLIC        P0
  D:0090H         PUBLIC        P1
  X:0070H         PUBLIC        T0Flag100msCount
  D:00A0H         PUBLIC        P2
  D:00B0H         PUBLIC        P3
  D:00C0H         PUBLIC        P4
  D:00D8H         PUBLIC        P5
  C:1A9AH         PUBLIC        Timer0Interrupt
  C:2010H         PUBLIC        Timer1Interrupt
  C:0F27H         PUBLIC        Timer2Interrupt
  D:00A8H         PUBLIC        IE
  B:0021H.2       PUBLIC        Uart0ReceiveFlag
  D:00B8H         PUBLIC        IP
  C:324DH         PUBLIC        ADCInterrupt
  D:00CBH         PUBLIC        RCAP2H
  B:00C0H.7       PUBLIC        buzzer
  D:00CAH         PUBLIC        RCAP2L
  X:0072H         PUBLIC        buzzer_count
  D:0098H         PUBLIC        SCON
  D:0088H         PUBLIC        TCON
  C:324FH         PUBLIC        BTMInterrupt
  C:324BH         PUBLIC        EXTI0Interrupt
  C:324CH         PUBLIC        EXTI1Interrupt
  C:3250H         PUBLIC        EXTI2Interrupt
  C:22EAH         PUBLIC        UART0Interrupt
  C:25D4H         PUBLIC        SSIInterrupt
  B:0021H.3       PUBLIC        T0Flag10ms
  B:0021H.4       PUBLIC        SPIFLG
  C:324EH         PUBLIC        PWMInterrupt
  D:00CDH         PUBLIC        TH2
  X:0074H         PUBLIC        T0Flag10msCount
  D:00CCH         PUBLIC        TL2
  B:0021H.5       PUBLIC        Uart0SendFlag
  X:0076H         PUBLIC        CaptureState
  D:00C8H         PUBLIC        T2CON
  X:0077H         PUBLIC        Cycle
  B:0021H.6       PUBLIC        T0Flag100ms
  C:3251H         PUBLIC        ACMPInterrupt
  D:00D0H         PUBLIC        PSW
  -------         PROC          EXTI0INTERRUPT
  C:324BH         LINE#         37
  C:324BH         LINE#         40
  -------         ENDPROC       EXTI0INTERRUPT
BL51 BANKED LINKER/LOCATER V6.22                                                      02/20/2019  13:49:04  PAGE 24


  -------         PROC          TIMER0INTERRUPT
  C:1A9AH         LINE#         42
  C:1AB7H         LINE#         44
  C:1ABEH         LINE#         46
  C:1ACCH         LINE#         47
  C:1ADAH         LINE#         49
  C:1AE9H         LINE#         50
  C:1AE9H         LINE#         51
  C:1AEDH         LINE#         52
  C:1AEFH         LINE#         53
  C:1AEFH         LINE#         54
  C:1AFEH         LINE#         55
  C:1AFEH         LINE#         56
  C:1B02H         LINE#         57
  C:1B04H         LINE#         58
  C:1B04H         LINE#         60
  C:1B07H         LINE#         61
  C:1B07H         LINE#         62
  C:1B09H         LINE#         63
  C:1B17H         LINE#         65
  C:1B26H         LINE#         66
  C:1B26H         LINE#         67
  C:1B28H         LINE#         68
  C:1B2CH         LINE#         69
  C:1B2EH         LINE#         70
  C:1B2EH         LINE#         71
  C:1B2EH         LINE#         72
  -------         ENDPROC       TIMER0INTERRUPT
  -------         PROC          EXTI1INTERRUPT
  C:324CH         LINE#         74
  C:324CH         LINE#         77
  -------         ENDPROC       EXTI1INTERRUPT
  -------         PROC          TIMER1INTERRUPT
  C:2010H         LINE#         79
  C:202DH         LINE#         81
  C:2034H         LINE#         82
  C:2034H         LINE#         83
  C:2040H         LINE#         84
  C:2040H         LINE#         85
  C:2045H         LINE#         86
  C:2047H         LINE#         88
  C:2047H         LINE#         89
  C:204CH         LINE#         90
  C:204CH         LINE#         91
  C:204CH         LINE#         92
  C:2053H         LINE#         93
  C:2053H         LINE#         94
  C:2061H         LINE#         95
  C:2061H         LINE#         96
  C:2064H         LINE#         97
  C:2066H         LINE#         99
  C:2066H         LINE#         100
  C:2069H         LINE#         101
  C:2069H         LINE#         102
  C:2069H         LINE#         103
  -------         ENDPROC       TIMER1INTERRUPT
  -------         PROC          UART0INTERRUPT
BL51 BANKED LINKER/LOCATER V6.22                                                      02/20/2019  13:49:04  PAGE 25


  C:22EAH         LINE#         105
  C:2307H         LINE#         107
  C:230FH         LINE#         108
  C:230FH         LINE#         109
  C:2314H         LINE#         110
  C:2316H         LINE#         111
  C:2318H         LINE#         112
  C:2320H         LINE#         113
  C:2320H         LINE#         114
  C:2325H         LINE#         115
  C:2327H         LINE#         116
  C:2327H         LINE#         117
  -------         ENDPROC       UART0INTERRUPT
  -------         PROC          TIMER2INTERRUPT
  -------         DO            
  X:006AH         SYMBOL        CaptureValue1
  X:006CH         SYMBOL        CaptureValue2
  X:006EH         SYMBOL        ReloadCount
  -------         ENDDO         
  C:0F27H         LINE#         120
  C:0F44H         LINE#         124
  C:0F4EH         LINE#         125
  C:0F4EH         LINE#         126
  C:0F56H         LINE#         127
  C:0F56H         LINE#         128
  C:0F5DH         LINE#         129
  C:0F6BH         LINE#         130
  C:0F6BH         LINE#         131
  C:0F76H         LINE#         132
  C:0F76H         LINE#         133
  C:0F82H         LINE#         134
  C:0F82H         LINE#         135
  C:0F94H         LINE#         136
  C:0FF3H         LINE#         137
  C:0FF6H         LINE#         138
  C:0FF9H         LINE#         139
  C:0FFFH         LINE#         140
  C:0FFFH         LINE#         141
  C:1001H         LINE#         143
  C:1001H         LINE#         144
  C:1013H         LINE#         145
  C:1019H         LINE#         146
  C:1020H         LINE#         147
  C:1020H         LINE#         148
  C:1020H         LINE#         149
  C:1020H         LINE#         150
  C:1028H         LINE#         151
  C:1028H         LINE#         152
  C:102DH         LINE#         153
  C:102DH         LINE#         154
  C:1035H         LINE#         155
  C:1035H         LINE#         156
  C:103AH         LINE#         157
  C:103AH         LINE#         158
  -------         ENDPROC       TIMER2INTERRUPT
  -------         PROC          ADCINTERRUPT
  C:324DH         LINE#         160
BL51 BANKED LINKER/LOCATER V6.22                                                      02/20/2019  13:49:04  PAGE 26


  C:324DH         LINE#         163
  -------         ENDPROC       ADCINTERRUPT
  -------         PROC          SSIINTERRUPT
  C:25D4H         LINE#         165
  C:25F1H         LINE#         167
  C:25F9H         LINE#         168
  C:25F9H         LINE#         169
  C:25FEH         LINE#         170
  C:2600H         LINE#         171
  C:2600H         LINE#         172
  -------         ENDPROC       SSIINTERRUPT
  -------         PROC          PWMINTERRUPT
  C:324EH         LINE#         174
  C:324EH         LINE#         177
  -------         ENDPROC       PWMINTERRUPT
  -------         PROC          BTMINTERRUPT
  C:324FH         LINE#         179
  C:324FH         LINE#         182
  -------         ENDPROC       BTMINTERRUPT
  -------         PROC          EXTI2INTERRUPT
  C:3250H         LINE#         184
  C:3250H         LINE#         187
  -------         ENDPROC       EXTI2INTERRUPT
  -------         PROC          ACMPINTERRUPT
  C:3251H         LINE#         189
  C:3251H         LINE#         192
  -------         ENDPROC       ACMPINTERRUPT
  -------         ENDMOD        SC92F854X_IT

  -------         MODULE        UART0
  C:0000H         SYMBOL        _ICE_DUMMY_
  D:0080H         PUBLIC        P0
  D:0090H         PUBLIC        P1
  D:00A0H         PUBLIC        P2
  D:00B0H         PUBLIC        P3
  D:00C0H         PUBLIC        P4
  D:00D8H         PUBLIC        P5
  D:00A8H         PUBLIC        IE
  D:00B8H         PUBLIC        IP
  D:0098H         PUBLIC        SCON
  D:0088H         PUBLIC        TCON
  D:00C8H         PUBLIC        T2CON
  D:00D0H         PUBLIC        PSW
  C:2EDCH         PUBLIC        _putchar
  -------         PROC          _PUTCHAR
  X:003DH         SYMBOL        c
  C:2EDCH         LINE#         16
  C:2EE1H         LINE#         17
  C:2EE1H         LINE#         18
  C:2EE4H         LINE#         19
  C:2EE7H         LINE#         20
  C:2EE9H         LINE#         21
  C:2EEEH         LINE#         22
  -------         ENDPROC       _PUTCHAR
  -------         ENDMOD        UART0

  -------         MODULE        W25Q16
BL51 BANKED LINKER/LOCATER V6.22                                                      02/20/2019  13:49:04  PAGE 27


  C:0000H         SYMBOL        _ICE_DUMMY_
  D:0080H         PUBLIC        P0
  D:0090H         PUBLIC        P1
  D:00A0H         PUBLIC        P2
  D:00B0H         PUBLIC        P3
  D:00C0H         PUBLIC        P4
  D:00D8H         PUBLIC        P5
  C:2342H         PUBLIC        _W25_SectorErase
  D:00A8H         PUBLIC        IE
  B:0090H.0       PUBLIC        CS
  D:00B8H         PUBLIC        IP
  C:1D3DH         PUBLIC        _SPI_Flash_Read
  C:144DH         PUBLIC        _SPI_Flash_Write_NoCheck
  D:0098H         PUBLIC        SCON
  D:0088H         PUBLIC        TCON
  C:3168H         PUBLIC        WriteEnable
  C:1F0AH         PUBLIC        _W25_Flash_Write_Page
  C:309EH         PUBLIC        W25Q16_ReadStatus
  C:317CH         PUBLIC        SPI_ReadByte
  D:00C8H         PUBLIC        T2CON
  C:2DCAH         PUBLIC        _W25Q16_WriteStatus
  C:2D77H         PUBLIC        _SPI_WriteByte
  D:00D0H         PUBLIC        PSW
  -------         PROC          L?0038
  -------         ENDPROC       L?0038
  -------         PROC          _SPI_WRITEBYTE
  D:0007H         SYMBOL        DATA
  C:2D77H         LINE#         24
  C:2D77H         LINE#         25
  C:2D77H         LINE#         26
  C:2D7AH         LINE#         27
  C:2D7DH         LINE#         28
  C:2D7FH         LINE#         29
  -------         ENDPROC       _SPI_WRITEBYTE
  -------         PROC          SPI_READBYTE
  -------         DO            
  D:0007H         SYMBOL        DATA
  -------         ENDDO         
  C:317CH         LINE#         38
  C:317CH         LINE#         39
  C:317CH         LINE#         41
  C:3181H         LINE#         42
  C:3184H         LINE#         43
  C:3184H         LINE#         44
  -------         ENDPROC       SPI_READBYTE
  -------         PROC          WRITEENABLE
  C:3168H         LINE#         53
  C:3168H         LINE#         54
  C:3168H         LINE#         55
  C:316AH         LINE#         56
  C:316FH         LINE#         57
  C:3171H         LINE#         58
  -------         ENDPROC       WRITEENABLE
  -------         PROC          W25Q16_READSTATUS
  -------         DO            
  D:0007H         SYMBOL        status
  -------         ENDDO         
BL51 BANKED LINKER/LOCATER V6.22                                                      02/20/2019  13:49:04  PAGE 28


  C:309EH         LINE#         67
  C:309EH         LINE#         68
  C:309EH         LINE#         69
  C:309EH         LINE#         70
  C:30A0H         LINE#         71
  C:30A5H         LINE#         72
  C:30A8H         LINE#         73
  C:30AAH         LINE#         74
  C:30AAH         LINE#         75
  -------         ENDPROC       W25Q16_READSTATUS
  -------         PROC          _W25Q16_WRITESTATUS
  X:00C2H         SYMBOL        Status
  C:2DCAH         LINE#         84
  C:2DCFH         LINE#         85
  C:2DCFH         LINE#         86
  C:2DD1H         LINE#         87
  C:2DD6H         LINE#         88
  C:2DDEH         LINE#         89
  C:2DE0H         LINE#         90
  -------         ENDPROC       _W25Q16_WRITESTATUS
  -------         PROC          _W25_FLASH_WRITE_PAGE
  X:0020H         SYMBOL        pbuf
  X:0023H         SYMBOL        WriteAddr
  X:0027H         SYMBOL        Len
  -------         DO            
  X:0029H         SYMBOL        i
  -------         ENDDO         
  C:1F0AH         LINE#         101
  C:1F19H         LINE#         102
  C:1F19H         LINE#         104
  C:1F1CH         LINE#         105
  C:1F23H         LINE#         106
  C:1F26H         LINE#         107
  C:1F28H         LINE#         108
  C:1F2DH         LINE#         109
  C:1F32H         LINE#         110
  C:1F37H         LINE#         111
  C:1F42H         LINE#         112
  C:1F5EH         LINE#         113
  C:1F5EH         LINE#         114
  C:1F75H         LINE#         115
  C:1F85H         LINE#         116
  C:1F87H         LINE#         117
  C:1F8EH         LINE#         118
  -------         ENDPROC       _W25_FLASH_WRITE_PAGE
  -------         PROC          _SPI_FLASH_WRITE_NOCHECK
  X:0015H         SYMBOL        pbuf
  X:0018H         SYMBOL        WriteAddr
  X:001CH         SYMBOL        Len
  -------         DO            
  X:001EH         SYMBOL        PageLen
  -------         ENDDO         
  C:144DH         LINE#         129
  C:145CH         LINE#         130
  C:145CH         LINE#         132
  C:1474H         LINE#         133
  C:1482H         LINE#         134
BL51 BANKED LINKER/LOCATER V6.22                                                      02/20/2019  13:49:04  PAGE 29


  C:1488H         LINE#         135
  C:1488H         LINE#         136
  C:1488H         LINE#         137
  C:14B3H         LINE#         138
  C:14C5H         LINE#         139
  C:14C6H         LINE#         141
  C:14C6H         LINE#         142
  C:14D7H         LINE#         143
  C:14FAH         LINE#         144
  C:1513H         LINE#         145
  C:151BH         LINE#         146
  C:151BH         LINE#         147
  C:1522H         LINE#         148
  C:1525H         LINE#         150
  C:1525H         LINE#         151
  C:1532H         LINE#         152
  C:1532H         LINE#         153
  C:1532H         LINE#         154
  -------         ENDPROC       _SPI_FLASH_WRITE_NOCHECK
  -------         PROC          _SPI_FLASH_READ
  X:0015H         SYMBOL        pbuf
  X:0018H         SYMBOL        ReadAddr
  X:001CH         SYMBOL        Len
  -------         DO            
  X:001EH         SYMBOL        i
  -------         ENDDO         
  C:1D3DH         LINE#         165
  C:1D4CH         LINE#         166
  C:1D4CH         LINE#         168
  C:1D53H         LINE#         169
  C:1D56H         LINE#         170
  C:1D58H         LINE#         171
  C:1D5DH         LINE#         172
  C:1D73H         LINE#         173
  C:1D89H         LINE#         174
  C:1D94H         LINE#         175
  C:1DB0H         LINE#         176
  C:1DB0H         LINE#         177
  C:1DC7H         LINE#         178
  C:1DD7H         LINE#         179
  C:1DD9H         LINE#         180
  -------         ENDPROC       _SPI_FLASH_READ
  -------         PROC          _W25_SECTORERASE
  X:0015H         SYMBOL        Addr4KB
  C:2342H         LINE#         189
  C:2348H         LINE#         190
  C:2348H         LINE#         191
  C:234FH         LINE#         192
  C:2352H         LINE#         193
  C:2354H         LINE#         194
  C:2359H         LINE#         195
  C:236FH         LINE#         196
  C:2385H         LINE#         197
  C:2390H         LINE#         198
  C:2392H         LINE#         199
  C:2399H         LINE#         200
  -------         ENDPROC       _W25_SECTORERASE
BL51 BANKED LINKER/LOCATER V6.22                                                      02/20/2019  13:49:04  PAGE 30


  -------         ENDMOD        W25Q16

  -------         MODULE        TK
  C:0000H         SYMBOL        _ICE_DUMMY_
  D:0080H         PUBLIC        P0
  D:0090H         PUBLIC        P1
  D:00A0H         PUBLIC        P2
  B:0021H.7       PUBLIC        BuzzerFlag
  D:00B0H         PUBLIC        P3
  D:00C0H         PUBLIC        P4
  D:00D8H         PUBLIC        P5
  X:00BBH         PUBLIC        exKeyValueFlag
  X:00BFH         PUBLIC        exKeyValue
  X:00C0H         PUBLIC        TK_Count
  D:00A8H         PUBLIC        IE
  B:0022H.0       PUBLIC        Retry
  D:00B8H         PUBLIC        IP
  C:2084H         PUBLIC        ChangeTouchKeyvalue
  C:2942H         PUBLIC        Sys_Scan
  B:0022H.1       PUBLIC        FreeKey
  D:0098H         PUBLIC        SCON
  D:0088H         PUBLIC        TCON
  B:0080H.6       PUBLIC        P06
  B:00D8H.2       PUBLIC        P52
  B:00D8H.4       PUBLIC        P54
  B:0022H.2       PUBLIC        TKScanflag
  C:2B97H         PUBLIC        LED
  D:00C8H         PUBLIC        T2CON
  C:228FH         PUBLIC        InputPassword
  B:0022H.3       PUBLIC        InputFinish
  D:00D0H         PUBLIC        PSW
  -------         PROC          SYS_SCAN
  C:2942H         LINE#         35
  C:2942H         LINE#         36
  C:2942H         LINE#         37
  C:2945H         LINE#         38
  C:2945H         LINE#         39
  C:294DH         LINE#         40
  C:294DH         LINE#         41
  C:2950H         LINE#         42
  C:2959H         LINE#         43
  C:295CH         LINE#         44
  C:295FH         LINE#         46
  C:295FH         LINE#         47
  C:295FH         LINE#         48
  C:2962H         LINE#         49
  C:2962H         LINE#         50
  C:2965H         LINE#         51
  C:2968H         LINE#         52
  C:296FH         LINE#         53
  C:2972H         LINE#         54
  C:2974H         LINE#         55
  C:2974H         LINE#         56
  -------         ENDPROC       SYS_SCAN
  -------         PROC          CHANGETOUCHKEYVALUE
  C:2084H         LINE#         64
  C:2084H         LINE#         65
BL51 BANKED LINKER/LOCATER V6.22                                                      02/20/2019  13:49:04  PAGE 31


  C:2084H         LINE#         66
  C:209DH         LINE#         67
  C:209DH         LINE#         68
  C:20A0H         LINE#         69
  C:20A0H         LINE#         70
  C:20A2H         LINE#         71
  C:20C9H         LINE#         72
  C:20C9H         LINE#         73
  C:20CFH         LINE#         74
  C:20DBH         LINE#         75
  C:20E5H         LINE#         76
  C:20EFH         LINE#         77
  C:20EFH         LINE#         78
  C:20F1H         LINE#         79
  C:20F1H         LINE#         80
  C:20F2H         LINE#         82
  C:20F2H         LINE#         83
  C:20F4H         LINE#         84
  C:20F4H         LINE#         85
  -------         ENDPROC       CHANGETOUCHKEYVALUE
  -------         PROC          LED
  C:2B97H         LINE#         94
  C:2B97H         LINE#         95
  C:2B97H         LINE#         96
  C:2BA5H         LINE#         97
  C:2BA5H         LINE#         98
  C:2BA9H         LINE#         99
  C:2BB0H         LINE#         100
  C:2BB7H         LINE#         101
  C:2BBDH         LINE#         102
  C:2BBDH         LINE#         103
  -------         ENDPROC       LED
  -------         PROC          INPUTPASSWORD
  C:228FH         LINE#         105
  C:228FH         LINE#         106
  C:228FH         LINE#         107
  C:2292H         LINE#         108
  C:2292H         LINE#         109
  C:22A4H         LINE#         110
  C:22A4H         LINE#         111
  C:22AEH         LINE#         112
  C:22B8H         LINE#         113
  C:22C2H         LINE#         114
  C:22D1H         LINE#         115
  C:22D1H         LINE#         116
  C:22D1H         LINE#         117
  C:22D4H         LINE#         118
  C:22D4H         LINE#         119
  C:22D6H         LINE#         120
  C:22DBH         LINE#         121
  C:22DDH         LINE#         122
  C:22E9H         LINE#         123
  C:22E9H         LINE#         124
  -------         ENDPROC       INPUTPASSWORD
  -------         ENDMOD        TK

  -------         MODULE        ADC
BL51 BANKED LINKER/LOCATER V6.22                                                      02/20/2019  13:49:04  PAGE 32


  C:0000H         SYMBOL        _ICE_DUMMY_
  D:0080H         PUBLIC        P0
  D:0090H         PUBLIC        P1
  D:00A0H         PUBLIC        P2
  D:00B0H         PUBLIC        P3
  D:00C0H         PUBLIC        P4
  D:00D8H         PUBLIC        P5
  D:00A8H         PUBLIC        IE
  D:00B8H         PUBLIC        IP
  C:179FH         PUBLIC        ADCValueToTemp
  X:008CH         PUBLIC        ADC_Value
  X:008EH         PUBLIC        ADC_High
  D:0098H         PUBLIC        SCON
  D:0088H         PUBLIC        TCON
  X:008FH         PUBLIC        TEMP
  C:1535H         PUBLIC        GetTemperature
  X:0091H         PUBLIC        value_min
  X:0093H         PUBLIC        value_max
  X:0095H         PUBLIC        ADC_Low
  C:2D9AH         PUBLIC        ADCInit
  X:0096H         PUBLIC        ADC_ValueSum
  D:00C8H         PUBLIC        T2CON
  X:0098H         PUBLIC        i
  X:0099H         PUBLIC        j
  C:19E1H         PUBLIC        GetADCValue
  D:00D0H         PUBLIC        PSW
  -------         PROC          ADCINIT
  C:2D9AH         LINE#         44
  C:2D9AH         LINE#         45
  C:2D9AH         LINE#         46
  C:2DA1H         LINE#         47
  C:2DA8H         LINE#         48
  C:2DADH         LINE#         49
  -------         ENDPROC       ADCINIT
  -------         PROC          GETADCVALUE
  C:19E1H         LINE#         59
  C:19E1H         LINE#         60
  C:19E1H         LINE#         61
  C:19E8H         LINE#         62
  C:19EAH         LINE#         63
  C:19EAH         LINE#         64
  C:19EDH         LINE#         65
  C:19F3H         LINE#         66
  C:19F6H         LINE#         67
  C:1A01H         LINE#         69
  C:1A1DH         LINE#         70
  C:1A3BH         LINE#         71
  C:1A47H         LINE#         72
  C:1A53H         LINE#         73
  C:1A8AH         LINE#         74
  C:1A99H         LINE#         75
  -------         ENDPROC       GETADCVALUE
  -------         PROC          GETTEMPERATURE
  C:1535H         LINE#         84
  C:1535H         LINE#         85
  C:1535H         LINE#         86
  C:1544H         LINE#         87
BL51 BANKED LINKER/LOCATER V6.22                                                      02/20/2019  13:49:04  PAGE 33


  C:1544H         LINE#         88
  C:1583H         LINE#         89
  C:1583H         LINE#         90
  C:158BH         LINE#         91
  C:158DH         LINE#         92
  C:158DH         LINE#         93
  C:1595H         LINE#         94
  C:15AAH         LINE#         95
  C:15AAH         LINE#         96
  C:15ADH         LINE#         97
  C:15BBH         LINE#         98
  C:15BDH         LINE#         100
  C:15BDH         LINE#         101
  C:15C0H         LINE#         102
  C:15CEH         LINE#         103
  C:15CEH         LINE#         105
  C:15E5H         LINE#         106
  C:15F7H         LINE#         107
  C:15FFH         LINE#         108
  C:1602H         LINE#         109
  C:1606H         LINE#         110
  -------         ENDPROC       GETTEMPERATURE
  -------         ENDMOD        ADC

  -------         MODULE        SC92F854X_ACMP
  C:0000H         SYMBOL        _ICE_DUMMY_
  D:0080H         PUBLIC        P0
  D:0090H         PUBLIC        P1
  D:00A0H         PUBLIC        P2
  D:00B0H         PUBLIC        P3
  D:00C0H         PUBLIC        P4
  D:00D8H         PUBLIC        P5
  D:00A8H         PUBLIC        IE
  C:31A9H         PUBLIC        _ACMP_SetTriggerMode
  C:30C3H         PUBLIC        _ACMP_Cmd
  C:2FFEH         PUBLIC        _ACMP_Init
  D:00B8H         PUBLIC        IP
  C:31F7H         PUBLIC        _ACMP_GetFlagStatus
  D:00B6H         PUBLIC        CMPCFG
  D:0098H         PUBLIC        SCON
  D:0088H         PUBLIC        TCON
  D:00A9H         PUBLIC        IE1
  D:00B7H         PUBLIC        CMPCON
  C:31D9H         PUBLIC        ACMP_DeInit
  D:00B9H         PUBLIC        IP1
  D:00C8H         PUBLIC        T2CON
  C:3210H         PUBLIC        ACMP_ClearFlag
  C:2DE1H         PUBLIC        _ACMP_ITConfig
  D:00D0H         PUBLIC        PSW
  -------         PROC          ACMP_DEINIT
  C:31D9H         LINE#         20
  C:31D9H         LINE#         21
  C:31D9H         LINE#         22
  C:31DCH         LINE#         23
  C:31DEH         LINE#         24
  -------         ENDPROC       ACMP_DEINIT
  -------         PROC          _ACMP_INIT
BL51 BANKED LINKER/LOCATER V6.22                                                      02/20/2019  13:49:04  PAGE 34


  D:0007H         SYMBOL        ACMP_Vref
  D:0005H         SYMBOL        ACMP_Channel
  C:2FFEH         LINE#         33
  C:2FFEH         LINE#         34
  C:2FFEH         LINE#         35
  C:3005H         LINE#         36
  C:300CH         LINE#         37
  -------         ENDPROC       _ACMP_INIT
  -------         PROC          _ACMP_SETTRIGGERMODE
  D:0007H         SYMBOL        ACMP_TriggerMode
  C:31A9H         LINE#         45
  C:31A9H         LINE#         46
  C:31A9H         LINE#         47
  C:31B0H         LINE#         48
  -------         ENDPROC       _ACMP_SETTRIGGERMODE
  -------         PROC          _ACMP_CMD
  D:0007H         SYMBOL        NewState
  C:30C3H         LINE#         56
  C:30C3H         LINE#         57
  C:30C3H         LINE#         58
  C:30C6H         LINE#         59
  C:30C6H         LINE#         60
  C:30C9H         LINE#         61
  C:30CAH         LINE#         63
  C:30CAH         LINE#         64
  C:30CDH         LINE#         65
  C:30CDH         LINE#         66
  -------         ENDPROC       _ACMP_CMD
  -------         PROC          _ACMP_ITCONFIG
  D:0007H         SYMBOL        NewState
  D:0005H         SYMBOL        Priority
  C:2DE1H         LINE#         75
  C:2DE1H         LINE#         76
  C:2DE1H         LINE#         77
  C:2DE4H         LINE#         78
  C:2DE4H         LINE#         79
  C:2DE7H         LINE#         80
  C:2DE9H         LINE#         82
  C:2DE9H         LINE#         83
  C:2DECH         LINE#         84
  C:2DECH         LINE#         86
  C:2DEFH         LINE#         87
  C:2DEFH         LINE#         88
  C:2DF2H         LINE#         89
  C:2DF3H         LINE#         91
  C:2DF3H         LINE#         92
  C:2DF6H         LINE#         93
  C:2DF6H         LINE#         94
  -------         ENDPROC       _ACMP_ITCONFIG
  -------         PROC          _ACMP_GETFLAGSTATUS
  D:0007H         SYMBOL        ACMP_Flag
  C:31F7H         LINE#         102
  C:31F7H         LINE#         103
  C:31F7H         LINE#         104
  C:31FBH         LINE#         105
  -------         ENDPROC       _ACMP_GETFLAGSTATUS
  -------         PROC          ACMP_CLEARFLAG
BL51 BANKED LINKER/LOCATER V6.22                                                      02/20/2019  13:49:04  PAGE 35


  C:3210H         LINE#         113
  C:3210H         LINE#         114
  C:3210H         LINE#         115
  C:3213H         LINE#         116
  -------         ENDPROC       ACMP_CLEARFLAG
  -------         ENDMOD        SC92F854X_ACMP

  -------         MODULE        SC92F854X_ADC
  C:0000H         SYMBOL        _ICE_DUMMY_
  D:00FFH         PUBLIC        OPREG
  D:0080H         PUBLIC        P0
  D:0090H         PUBLIC        P1
  D:00A0H         PUBLIC        P2
  D:00B0H         PUBLIC        P3
  D:00C0H         PUBLIC        P4
  D:00D8H         PUBLIC        P5
  B:00A8H.6       PUBLIC        EADC
  D:00A8H         PUBLIC        IE
  C:3218H         PUBLIC        ADC_ClearFlag
  D:00FEH         PUBLIC        OPINX
  C:2F4CH         PUBLIC        _ADC_VrefConfig
  D:00B8H         PUBLIC        IP
  C:2F3AH         PUBLIC        _ADC_ITConfig
  D:00ADH         PUBLIC        ADCCON
  D:0098H         PUBLIC        SCON
  D:0088H         PUBLIC        TCON
  C:30CEH         PUBLIC        _ADC_Cmd
  C:31FCH         PUBLIC        _ADC_Init
  C:2975H         PUBLIC        _ADC_ChannelConfig
  D:00ABH         PUBLIC        ADCCFG0
  D:00ACH         PUBLIC        ADCCFG1
  D:00AAH         PUBLIC        ADCCFG2
  C:31DFH         PUBLIC        ADC_GetFlagStatus
  B:00B8H.6       PUBLIC        IPADC
  D:00AFH         PUBLIC        ADCVH
  D:00C8H         PUBLIC        T2CON
  C:3214H         PUBLIC        ADC_StartConversion
  C:2F28H         PUBLIC        ADC_DeInit
  D:00AEH         PUBLIC        ADCVL
  C:2DF7H         PUBLIC        ADC_GetConversionValue
  D:00D0H         PUBLIC        PSW
  -------         PROC          ADC_DEINIT
  C:2F28H         LINE#         20
  C:2F28H         LINE#         21
  C:2F28H         LINE#         22
  C:2F2BH         LINE#         23
  C:2F2DH         LINE#         24
  C:2F2FH         LINE#         25
  C:2F31H         LINE#         26
  C:2F33H         LINE#         27
  C:2F35H         LINE#         28
  C:2F37H         LINE#         29
  C:2F39H         LINE#         30
  -------         ENDPROC       ADC_DEINIT
  -------         PROC          _ADC_INIT
  D:0007H         SYMBOL        ADC_PrescalerSelection
  D:0005H         SYMBOL        ADC_Cycle
BL51 BANKED LINKER/LOCATER V6.22                                                      02/20/2019  13:49:04  PAGE 36


  -------         DO            
  D:0007H         SYMBOL        tmpreg
  -------         ENDDO         
  C:31FCH         LINE#         39
  C:31FCH         LINE#         40
  C:31FCH         LINE#         42
  C:31FEH         LINE#         43
  C:3200H         LINE#         44
  -------         ENDPROC       _ADC_INIT
  -------         PROC          _ADC_CHANNELCONFIG
  D:0004H         SYMBOL        ADC_Channel
  D:0005H         SYMBOL        NewState
  -------         DO            
  D:0006H         SYMBOL        tmpreg
  -------         ENDDO         
  C:2975H         LINE#         53
  C:2977H         LINE#         54
  C:2977H         LINE#         57
  C:297EH         LINE#         58
  C:298FH         LINE#         60
  C:2995H         LINE#         61
  C:2995H         LINE#         62
  C:2998H         LINE#         63
  C:2998H         LINE#         64
  C:299CH         LINE#         65
  C:29A0H         LINE#         66
  C:29A1H         LINE#         68
  C:29A1H         LINE#         69
  C:29A4H         LINE#         70
  C:29A7H         LINE#         71
  C:29A7H         LINE#         72
  C:29A7H         LINE#         73
  -------         ENDPROC       _ADC_CHANNELCONFIG
  -------         PROC          _ADC_CMD
  D:0007H         SYMBOL        NewState
  C:30CEH         LINE#         81
  C:30CEH         LINE#         82
  C:30CEH         LINE#         83
  C:30D1H         LINE#         84
  C:30D1H         LINE#         85
  C:30D4H         LINE#         86
  C:30D5H         LINE#         88
  C:30D5H         LINE#         89
  C:30D8H         LINE#         90
  C:30D8H         LINE#         91
  -------         ENDPROC       _ADC_CMD
  -------         PROC          ADC_STARTCONVERSION
  C:3214H         LINE#         99
  C:3214H         LINE#         100
  C:3214H         LINE#         101
  C:3217H         LINE#         102
  -------         ENDPROC       ADC_STARTCONVERSION
  -------         PROC          ADC_GETCONVERSIONVALUE
  -------         DO            
  D:0006H         SYMBOL        temp
  -------         ENDDO         
  C:2DF7H         LINE#         110
BL51 BANKED LINKER/LOCATER V6.22                                                      02/20/2019  13:49:04  PAGE 37


  C:2DF7H         LINE#         111
  C:2DF7H         LINE#         113
  C:2E0CH         LINE#         114
  C:2E0CH         LINE#         115
  -------         ENDPROC       ADC_GETCONVERSIONVALUE
  -------         PROC          _ADC_ITCONFIG
  D:0007H         SYMBOL        NewState
  D:0005H         SYMBOL        Priority
  C:2F3AH         LINE#         124
  C:2F3AH         LINE#         125
  C:2F3AH         LINE#         126
  C:2F3DH         LINE#         127
  C:2F3DH         LINE#         128
  C:2F3FH         LINE#         129
  C:2F41H         LINE#         131
  C:2F41H         LINE#         132
  C:2F43H         LINE#         133
  C:2F43H         LINE#         135
  C:2F46H         LINE#         136
  C:2F46H         LINE#         137
  C:2F48H         LINE#         138
  C:2F49H         LINE#         140
  C:2F49H         LINE#         141
  C:2F4BH         LINE#         142
  C:2F4BH         LINE#         143
  -------         ENDPROC       _ADC_ITCONFIG
  -------         PROC          ADC_GETFLAGSTATUS
  C:31DFH         LINE#         151
  C:31DFH         LINE#         152
  C:31DFH         LINE#         153
  C:31E4H         LINE#         154
  -------         ENDPROC       ADC_GETFLAGSTATUS
  -------         PROC          ADC_CLEARFLAG
  C:3218H         LINE#         162
  C:3218H         LINE#         163
  C:3218H         LINE#         164
  C:321BH         LINE#         165
  -------         ENDPROC       ADC_CLEARFLAG
  -------         PROC          _ADC_VREFCONFIG
  D:0007H         SYMBOL        ADC_Vref
  C:2F4CH         LINE#         173
  C:2F4CH         LINE#         174
  C:2F4CH         LINE#         175
  C:2F4FH         LINE#         176
  C:2F53H         LINE#         177
  C:2F53H         LINE#         178
  C:2F56H         LINE#         179
  C:2F56H         LINE#         180
  C:2F5AH         LINE#         181
  C:2F5AH         LINE#         182
  C:2F5DH         LINE#         183
  C:2F5DH         LINE#         184
  -------         ENDPROC       _ADC_VREFCONFIG
  -------         ENDMOD        SC92F854X_ADC

  -------         MODULE        SC92F854X_DDIC
  C:0000H         SYMBOL        _ICE_DUMMY_
BL51 BANKED LINKER/LOCATER V6.22                                                      02/20/2019  13:49:04  PAGE 38


  D:0080H         PUBLIC        P0
  D:0090H         PUBLIC        P1
  D:00A0H         PUBLIC        P2
  D:00B0H         PUBLIC        P3
  D:00C0H         PUBLIC        P4
  D:008FH         PUBLIC        OTCON
  D:00D8H         PUBLIC        P5
  C:30D9H         PUBLIC        _DDIC_Cmd
  C:2D80H         PUBLIC        _DDIC_Init
  D:00A8H         PUBLIC        IE
  D:00B8H         PUBLIC        IP
  C:30ABH         PUBLIC        _DDIC_OutputPinOfDutycycleD4
  C:2FEEH         PUBLIC        _DDIC_LCDConfig
  C:321CH         PUBLIC        DDIC_LEDConfig
  D:009CH         PUBLIC        P0VO
  D:0094H         PUBLIC        P1VO
  D:00A3H         PUBLIC        P2VO
  D:00B3H         PUBLIC        P3VO
  D:0098H         PUBLIC        SCON
  D:0088H         PUBLIC        TCON
  C:300DH         PUBLIC        DDIC_DeInit
  D:0093H         PUBLIC        DDRCON
  D:00C8H         PUBLIC        T2CON
  D:00D0H         PUBLIC        PSW
  -------         PROC          DDIC_DEINIT
  C:300DH         LINE#         20
  C:300DH         LINE#         21
  C:300DH         LINE#         22
  C:3010H         LINE#         23
  C:3012H         LINE#         24
  C:3014H         LINE#         25
  C:3016H         LINE#         26
  C:3018H         LINE#         27
  C:301BH         LINE#         28
  -------         ENDPROC       DDIC_DEINIT
  -------         PROC          _DDIC_INIT
  D:0007H         SYMBOL        DDIC_DutyCylce
  D:0005H         SYMBOL        P0OutputPin
  D:0003H         SYMBOL        P1OutputPin
  X:0006H         SYMBOL        P2OutputPin
  X:0007H         SYMBOL        P3OutputPin
  C:2D80H         LINE#         40
  C:2D80H         LINE#         41
  C:2D80H         LINE#         42
  C:2D87H         LINE#         43
  C:2D8BH         LINE#         44
  C:2D8FH         LINE#         45
  C:2D95H         LINE#         46
  C:2D99H         LINE#         47
  -------         ENDPROC       _DDIC_INIT
  -------         PROC          DDIC_LEDCONFIG
  C:321CH         LINE#         55
  C:321CH         LINE#         56
  C:321CH         LINE#         57
  C:321FH         LINE#         58
  -------         ENDPROC       DDIC_LEDCONFIG
  -------         PROC          _DDIC_LCDCONFIG
BL51 BANKED LINKER/LOCATER V6.22                                                      02/20/2019  13:49:04  PAGE 39


  D:0007H         SYMBOL        LCDVoltage
  D:0005H         SYMBOL        DDIC_ResSel
  D:0003H         SYMBOL        DDIC_BiasVoltage
  C:2FEEH         LINE#         68
  C:2FEEH         LINE#         69
  C:2FEEH         LINE#         70
  C:2FF5H         LINE#         71
  C:2FFDH         LINE#         72
  -------         ENDPROC       _DDIC_LCDCONFIG
  -------         PROC          _DDIC_OUTPUTPINOFDUTYCYCLED4
  D:0007H         SYMBOL        DDIC_OutputPin
  C:30ABH         LINE#         80
  C:30ABH         LINE#         81
  C:30ABH         LINE#         82
  C:30AFH         LINE#         83
  C:30AFH         LINE#         84
  C:30B2H         LINE#         85
  C:30B3H         LINE#         87
  C:30B3H         LINE#         88
  C:30B6H         LINE#         89
  C:30B6H         LINE#         90
  -------         ENDPROC       _DDIC_OUTPUTPINOFDUTYCYCLED4
  -------         PROC          _DDIC_CMD
  D:0007H         SYMBOL        NewState
  C:30D9H         LINE#         98
  C:30D9H         LINE#         99
  C:30D9H         LINE#         100
  C:30DCH         LINE#         101
  C:30DCH         LINE#         102
  C:30DFH         LINE#         103
  C:30E0H         LINE#         105
  C:30E0H         LINE#         106
  C:30E3H         LINE#         107
  C:30E3H         LINE#         108
  -------         ENDPROC       _DDIC_CMD
  -------         ENDMOD        SC92F854X_DDIC

  -------         MODULE        SC92F854X_EXTI
  C:0000H         SYMBOL        _ICE_DUMMY_
  D:0080H         PUBLIC        P0
  D:0090H         PUBLIC        P1
  D:00A0H         PUBLIC        P2
  D:00B0H         PUBLIC        P3
  D:00C0H         PUBLIC        P4
  D:00D8H         PUBLIC        P5
  D:00A8H         PUBLIC        IE
  C:253EH         PUBLIC        _EXTI_ITConfig
  D:00B8H         PUBLIC        IP
  D:0098H         PUBLIC        SCON
  C:26E6H         PUBLIC        _EXTI_SetExtInt0xTriggerMode
  D:0088H         PUBLIC        TCON
  C:2728H         PUBLIC        _EXTI_SetExtInt1xTriggerMode
  C:276AH         PUBLIC        _EXTI_SetExtInt2xTriggerMode
  D:00A9H         PUBLIC        IE1
  D:00B9H         PUBLIC        IP1
  C:28D8H         PUBLIC        _EXTI_DeInit
  D:00BAH         PUBLIC        INT0F
BL51 BANKED LINKER/LOCATER V6.22                                                      02/20/2019  13:49:04  PAGE 40


  D:00BCH         PUBLIC        INT1F
  D:00C6H         PUBLIC        INT2F
  D:00C8H         PUBLIC        T2CON
  D:00BBH         PUBLIC        INT0R
  D:00BDH         PUBLIC        INT1R
  D:00C7H         PUBLIC        INT2R
  D:00D0H         PUBLIC        PSW
  -------         PROC          _EXTI_DEINIT
  D:0007H         SYMBOL        INTx
  C:28D8H         LINE#         20
  C:28D8H         LINE#         21
  C:28D8H         LINE#         22
  C:28E3H         LINE#         23
  C:28E3H         LINE#         24
  C:28E3H         LINE#         25
  C:28E6H         LINE#         26
  C:28E8H         LINE#         27
  C:28EBH         LINE#         28
  C:28EEH         LINE#         29
  C:28F1H         LINE#         30
  C:28F2H         LINE#         32
  C:28F2H         LINE#         33
  C:28F5H         LINE#         34
  C:28F7H         LINE#         35
  C:28FAH         LINE#         36
  C:28FDH         LINE#         37
  C:2900H         LINE#         38
  C:2901H         LINE#         40
  C:2901H         LINE#         41
  C:2904H         LINE#         42
  C:2906H         LINE#         43
  C:2909H         LINE#         44
  C:290CH         LINE#         45
  C:290CH         LINE#         47
  C:290CH         LINE#         48
  C:290CH         LINE#         49
  C:290CH         LINE#         50
  -------         ENDPROC       _EXTI_DEINIT
  -------         PROC          _EXTI_SETEXTINT0XTRIGGERMODE
  D:0007H         SYMBOL        INT0x
  D:0005H         SYMBOL        TriggerMode
  C:26E6H         LINE#         59
  C:26E6H         LINE#         60
  C:26E6H         LINE#         61
  C:26F2H         LINE#         62
  C:26F2H         LINE#         63
  C:26F2H         LINE#         64
  C:2700H         LINE#         65
  C:2704H         LINE#         66
  C:2705H         LINE#         67
  C:2705H         LINE#         68
  C:2714H         LINE#         69
  C:2714H         LINE#         70
  C:2716H         LINE#         71
  C:2716H         LINE#         72
  C:2724H         LINE#         73
  C:2727H         LINE#         74
BL51 BANKED LINKER/LOCATER V6.22                                                      02/20/2019  13:49:04  PAGE 41


  C:2727H         LINE#         75
  C:2727H         LINE#         76
  C:2727H         LINE#         77
  C:2727H         LINE#         78
  -------         ENDPROC       _EXTI_SETEXTINT0XTRIGGERMODE
  -------         PROC          _EXTI_SETEXTINT1XTRIGGERMODE
  D:0007H         SYMBOL        INT1x
  D:0005H         SYMBOL        TriggerMode
  C:2728H         LINE#         87
  C:2728H         LINE#         88
  C:2728H         LINE#         89
  C:2734H         LINE#         90
  C:2734H         LINE#         91
  C:2734H         LINE#         92
  C:2742H         LINE#         93
  C:2746H         LINE#         94
  C:2747H         LINE#         95
  C:2747H         LINE#         96
  C:2756H         LINE#         97
  C:2756H         LINE#         98
  C:2758H         LINE#         99
  C:2758H         LINE#         100
  C:2766H         LINE#         101
  C:2769H         LINE#         102
  C:2769H         LINE#         103
  C:2769H         LINE#         104
  C:2769H         LINE#         105
  C:2769H         LINE#         106
  -------         ENDPROC       _EXTI_SETEXTINT1XTRIGGERMODE
  -------         PROC          _EXTI_SETEXTINT2XTRIGGERMODE
  D:0007H         SYMBOL        INT2x
  D:0005H         SYMBOL        TriggerMode
  C:276AH         LINE#         115
  C:276AH         LINE#         116
  C:276AH         LINE#         117
  C:2776H         LINE#         118
  C:2776H         LINE#         119
  C:2776H         LINE#         120
  C:2784H         LINE#         121
  C:2788H         LINE#         122
  C:2789H         LINE#         123
  C:2789H         LINE#         124
  C:2798H         LINE#         125
  C:2798H         LINE#         126
  C:279AH         LINE#         127
  C:279AH         LINE#         128
  C:27A8H         LINE#         129
  C:27ABH         LINE#         130
  C:27ABH         LINE#         131
  C:27ABH         LINE#         132
  C:27ABH         LINE#         133
  C:27ABH         LINE#         134
  -------         ENDPROC       _EXTI_SETEXTINT2XTRIGGERMODE
  -------         PROC          _EXTI_ITCONFIG
  D:0007H         SYMBOL        INTx
  D:0005H         SYMBOL        NewState
  D:0003H         SYMBOL        Priority
BL51 BANKED LINKER/LOCATER V6.22                                                      02/20/2019  13:49:04  PAGE 42


  C:253EH         LINE#         144
  C:253EH         LINE#         145
  C:253EH         LINE#         146
  C:2549H         LINE#         147
  C:2549H         LINE#         148
  C:2549H         LINE#         149
  C:254CH         LINE#         150
  C:254CH         LINE#         151
  C:254FH         LINE#         152
  C:2551H         LINE#         154
  C:2551H         LINE#         155
  C:2554H         LINE#         156
  C:2554H         LINE#         158
  C:2557H         LINE#         159
  C:2557H         LINE#         160
  C:255AH         LINE#         161
  C:255BH         LINE#         163
  C:255BH         LINE#         164
  C:255EH         LINE#         165
  C:255EH         LINE#         166
  C:255FH         LINE#         168
  C:255FH         LINE#         169
  C:2562H         LINE#         170
  C:2562H         LINE#         171
  C:2565H         LINE#         172
  C:2567H         LINE#         174
  C:2567H         LINE#         175
  C:256AH         LINE#         176
  C:256AH         LINE#         178
  C:256DH         LINE#         179
  C:256DH         LINE#         180
  C:2570H         LINE#         181
  C:2571H         LINE#         183
  C:2571H         LINE#         184
  C:2574H         LINE#         185
  C:2574H         LINE#         186
  C:2575H         LINE#         188
  C:2575H         LINE#         189
  C:2578H         LINE#         190
  C:2578H         LINE#         191
  C:257BH         LINE#         192
  C:257DH         LINE#         194
  C:257DH         LINE#         195
  C:2580H         LINE#         196
  C:2580H         LINE#         198
  C:2583H         LINE#         199
  C:2583H         LINE#         200
  C:2586H         LINE#         201
  C:2587H         LINE#         203
  C:2587H         LINE#         204
  C:258AH         LINE#         205
  C:258AH         LINE#         206
  C:258AH         LINE#         208
  C:258AH         LINE#         209
  C:258AH         LINE#         210
  C:258AH         LINE#         211
  -------         ENDPROC       _EXTI_ITCONFIG
BL51 BANKED LINKER/LOCATER V6.22                                                      02/20/2019  13:49:04  PAGE 43


  -------         ENDMOD        SC92F854X_EXTI

  -------         MODULE        SC92F854X_GPIO
  C:0000H         SYMBOL        _ICE_DUMMY_
  D:0080H         PUBLIC        P0
  D:0090H         PUBLIC        P1
  D:00A0H         PUBLIC        P2
  D:00B0H         PUBLIC        P3
  D:00C0H         PUBLIC        P4
  D:00D8H         PUBLIC        P5
  D:00A8H         PUBLIC        IE
  D:009BH         PUBLIC        P0PH
  D:00B8H         PUBLIC        IP
  D:0092H         PUBLIC        P1PH
  D:00A2H         PUBLIC        P2PH
  D:00B2H         PUBLIC        P3PH
  D:00C2H         PUBLIC        P4PH
  D:00DAH         PUBLIC        P5PH
  C:2C0AH         PUBLIC        _GPIO_Write
  C:2AF5H         PUBLIC        _GPIO_WriteHigh
  C:1607H         PUBLIC        _GPIO_Init
  D:0098H         PUBLIC        SCON
  D:0088H         PUBLIC        TCON
  C:2C30H         PUBLIC        _GPIO_ReadPort
  C:2A0DH         PUBLIC        _GPIO_ReadPin
  C:2BE4H         PUBLIC        GPIO_DeInit
  C:2A3EH         PUBLIC        _GPIO_WriteLow
  D:009AH         PUBLIC        P0CON
  D:0091H         PUBLIC        P1CON
  D:00A1H         PUBLIC        P2CON
  D:00B1H         PUBLIC        P3CON
  D:00C1H         PUBLIC        P4CON
  D:00D9H         PUBLIC        P5CON
  D:00C8H         PUBLIC        T2CON
  D:00D0H         PUBLIC        PSW
  -------         PROC          GPIO_DEINIT
  C:2BE4H         LINE#         21
  C:2BE4H         LINE#         22
  C:2BE4H         LINE#         23
  C:2BE7H         LINE#         24
  C:2BE9H         LINE#         25
  C:2BEBH         LINE#         26
  C:2BEDH         LINE#         27
  C:2BEFH         LINE#         28
  C:2BF1H         LINE#         29
  C:2BF3H         LINE#         30
  C:2BF5H         LINE#         31
  C:2BF7H         LINE#         32
  C:2BF9H         LINE#         33
  C:2BFBH         LINE#         34
  C:2BFDH         LINE#         35
  C:2C09H         LINE#         36
  -------         ENDPROC       GPIO_DEINIT
  -------         PROC          _GPIO_INIT
  D:0007H         SYMBOL        GPIOx
  D:0005H         SYMBOL        PortPins
  D:0003H         SYMBOL        GPIO_Mode
BL51 BANKED LINKER/LOCATER V6.22                                                      02/20/2019  13:49:04  PAGE 44


  C:1607H         LINE#         46
  C:1607H         LINE#         47
  C:1607H         LINE#         48
  C:160AH         LINE#         49
  C:160AH         LINE#         50
  C:160DH         LINE#         51
  C:160DH         LINE#         52
  C:1611H         LINE#         53
  C:1613H         LINE#         54
  C:1613H         LINE#         55
  C:1617H         LINE#         56
  C:1617H         LINE#         57
  C:161BH         LINE#         58
  C:161EH         LINE#         59
  C:161EH         LINE#         60
  C:1626H         LINE#         61
  C:1626H         LINE#         62
  C:1629H         LINE#         63
  C:1629H         LINE#         64
  C:162AH         LINE#         65
  C:162FH         LINE#         66
  C:162FH         LINE#         67
  C:1632H         LINE#         68
  C:1632H         LINE#         69
  C:1636H         LINE#         70
  C:1638H         LINE#         71
  C:1638H         LINE#         72
  C:163CH         LINE#         73
  C:163CH         LINE#         74
  C:1640H         LINE#         75
  C:1643H         LINE#         76
  C:1643H         LINE#         77
  C:164BH         LINE#         78
  C:164BH         LINE#         79
  C:164EH         LINE#         80
  C:164EH         LINE#         81
  C:164FH         LINE#         82
  C:1654H         LINE#         83
  C:1654H         LINE#         84
  C:1657H         LINE#         85
  C:1657H         LINE#         86
  C:165BH         LINE#         87
  C:165DH         LINE#         88
  C:165DH         LINE#         89
  C:1661H         LINE#         90
  C:1661H         LINE#         91
  C:1665H         LINE#         92
  C:1668H         LINE#         93
  C:1668H         LINE#         94
  C:166DH         LINE#         95
  C:166DH         LINE#         96
  C:1670H         LINE#         97
  C:1670H         LINE#         98
  C:1671H         LINE#         99
  C:1676H         LINE#         100
  C:1676H         LINE#         101
  C:1679H         LINE#         102
BL51 BANKED LINKER/LOCATER V6.22                                                      02/20/2019  13:49:04  PAGE 45


  C:1679H         LINE#         103
  C:167DH         LINE#         104
  C:167FH         LINE#         105
  C:167FH         LINE#         106
  C:1683H         LINE#         107
  C:1683H         LINE#         108
  C:1687H         LINE#         109
  C:168AH         LINE#         110
  C:168AH         LINE#         111
  C:168FH         LINE#         112
  C:168FH         LINE#         113
  C:1692H         LINE#         114
  C:1692H         LINE#         115
  C:1693H         LINE#         116
  C:1698H         LINE#         117
  C:1698H         LINE#         118
  C:169BH         LINE#         119
  C:169BH         LINE#         120
  C:169FH         LINE#         121
  C:16A1H         LINE#         122
  C:16A1H         LINE#         123
  C:16A5H         LINE#         124
  C:16A5H         LINE#         125
  C:16A9H         LINE#         126
  C:16ACH         LINE#         127
  C:16ACH         LINE#         128
  C:16B1H         LINE#         129
  C:16B1H         LINE#         130
  C:16B4H         LINE#         131
  C:16B4H         LINE#         132
  C:16B5H         LINE#         134
  C:16B5H         LINE#         135
  C:16BAH         LINE#         136
  C:16BAH         LINE#         137
  C:16BDH         LINE#         138
  C:16BDH         LINE#         139
  C:16C1H         LINE#         140
  C:16C3H         LINE#         141
  C:16C3H         LINE#         142
  C:16C7H         LINE#         143
  C:16C7H         LINE#         144
  C:16CBH         LINE#         145
  C:16CEH         LINE#         146
  C:16CEH         LINE#         147
  C:16D2H         LINE#         148
  C:16D2H         LINE#         149
  C:16D5H         LINE#         150
  C:16D5H         LINE#         151
  C:16D5H         LINE#         152
  C:16D5H         LINE#         153
  -------         ENDPROC       _GPIO_INIT
  -------         PROC          _GPIO_WRITE
  D:0007H         SYMBOL        GPIOx
  D:0005H         SYMBOL        PortVal
  C:2C0AH         LINE#         162
  C:2C0AH         LINE#         163
  C:2C0AH         LINE#         164
BL51 BANKED LINKER/LOCATER V6.22                                                      02/20/2019  13:49:04  PAGE 46


  C:2C0DH         LINE#         165
  C:2C0DH         LINE#         166
  C:2C0FH         LINE#         167
  C:2C0FH         LINE#         168
  C:2C13H         LINE#         169
  C:2C13H         LINE#         170
  C:2C15H         LINE#         171
  C:2C15H         LINE#         172
  C:2C19H         LINE#         173
  C:2C19H         LINE#         174
  C:2C1BH         LINE#         175
  C:2C1BH         LINE#         176
  C:2C1FH         LINE#         177
  C:2C1FH         LINE#         178
  C:2C21H         LINE#         179
  C:2C21H         LINE#         180
  C:2C25H         LINE#         181
  C:2C25H         LINE#         182
  C:2C27H         LINE#         183
  C:2C27H         LINE#         184
  C:2C2BH         LINE#         185
  C:2C2BH         LINE#         186
  C:2C2FH         LINE#         187
  C:2C2FH         LINE#         188
  -------         ENDPROC       _GPIO_WRITE
  -------         PROC          _GPIO_WRITEHIGH
  D:0007H         SYMBOL        GPIOx
  D:0005H         SYMBOL        PortPins
  C:2AF5H         LINE#         197
  C:2AF5H         LINE#         198
  C:2AF5H         LINE#         199
  C:2AF8H         LINE#         200
  C:2AF8H         LINE#         201
  C:2AFBH         LINE#         202
  C:2AFBH         LINE#         203
  C:2AFFH         LINE#         204
  C:2AFFH         LINE#         205
  C:2B02H         LINE#         206
  C:2B02H         LINE#         207
  C:2B06H         LINE#         208
  C:2B06H         LINE#         209
  C:2B09H         LINE#         210
  C:2B09H         LINE#         211
  C:2B0DH         LINE#         212
  C:2B0DH         LINE#         213
  C:2B10H         LINE#         214
  C:2B10H         LINE#         215
  C:2B14H         LINE#         216
  C:2B14H         LINE#         217
  C:2B17H         LINE#         218
  C:2B17H         LINE#         219
  C:2B1BH         LINE#         220
  C:2B1BH         LINE#         221
  C:2B1EH         LINE#         222
  C:2B1EH         LINE#         223
  -------         ENDPROC       _GPIO_WRITEHIGH
  -------         PROC          _GPIO_WRITELOW
BL51 BANKED LINKER/LOCATER V6.22                                                      02/20/2019  13:49:04  PAGE 47


  D:0007H         SYMBOL        GPIOx
  D:0005H         SYMBOL        PortPins
  C:2A3EH         LINE#         232
  C:2A3EH         LINE#         233
  C:2A3EH         LINE#         234
  C:2A41H         LINE#         235
  C:2A41H         LINE#         236
  C:2A45H         LINE#         237
  C:2A45H         LINE#         238
  C:2A49H         LINE#         239
  C:2A49H         LINE#         240
  C:2A4DH         LINE#         241
  C:2A4DH         LINE#         242
  C:2A51H         LINE#         243
  C:2A51H         LINE#         244
  C:2A55H         LINE#         245
  C:2A55H         LINE#         246
  C:2A59H         LINE#         247
  C:2A59H         LINE#         248
  C:2A5DH         LINE#         249
  C:2A5DH         LINE#         250
  C:2A61H         LINE#         251
  C:2A61H         LINE#         252
  C:2A65H         LINE#         253
  C:2A65H         LINE#         254
  C:2A69H         LINE#         255
  C:2A69H         LINE#         256
  C:2A6DH         LINE#         257
  C:2A6DH         LINE#         258
  -------         ENDPROC       _GPIO_WRITELOW
  -------         PROC          _GPIO_READPORT
  D:0007H         SYMBOL        GPIOx
  C:2C30H         LINE#         266
  C:2C30H         LINE#         267
  C:2C30H         LINE#         268
  C:2C33H         LINE#         269
  C:2C33H         LINE#         270
  C:2C36H         LINE#         271
  C:2C36H         LINE#         272
  C:2C3AH         LINE#         273
  C:2C3AH         LINE#         274
  C:2C3DH         LINE#         275
  C:2C3DH         LINE#         276
  C:2C41H         LINE#         277
  C:2C41H         LINE#         278
  C:2C44H         LINE#         279
  C:2C44H         LINE#         280
  C:2C48H         LINE#         281
  C:2C48H         LINE#         282
  C:2C4BH         LINE#         283
  C:2C4BH         LINE#         284
  C:2C4FH         LINE#         285
  C:2C4FH         LINE#         286
  C:2C52H         LINE#         287
  C:2C52H         LINE#         289
  C:2C52H         LINE#         290
  C:2C54H         LINE#         291
BL51 BANKED LINKER/LOCATER V6.22                                                      02/20/2019  13:49:04  PAGE 48


  C:2C54H         LINE#         292
  -------         ENDPROC       _GPIO_READPORT
  -------         PROC          _GPIO_READPIN
  D:0007H         SYMBOL        GPIOx
  D:0005H         SYMBOL        PortPins
  C:2A0DH         LINE#         301
  C:2A0DH         LINE#         302
  C:2A0DH         LINE#         303
  C:2A10H         LINE#         304
  C:2A10H         LINE#         305
  C:2A15H         LINE#         306
  C:2A15H         LINE#         307
  C:2A19H         LINE#         308
  C:2A19H         LINE#         309
  C:2A1EH         LINE#         310
  C:2A1EH         LINE#         311
  C:2A22H         LINE#         312
  C:2A22H         LINE#         313
  C:2A27H         LINE#         314
  C:2A27H         LINE#         315
  C:2A2BH         LINE#         316
  C:2A2BH         LINE#         317
  C:2A30H         LINE#         318
  C:2A30H         LINE#         319
  C:2A34H         LINE#         320
  C:2A34H         LINE#         321
  C:2A39H         LINE#         322
  C:2A39H         LINE#         324
  C:2A39H         LINE#         325
  C:2A3DH         LINE#         326
  C:2A3DH         LINE#         327
  -------         ENDPROC       _GPIO_READPIN
  -------         ENDMOD        SC92F854X_GPIO

  -------         MODULE        SC92F854X_IAP
  C:0000H         SYMBOL        _ICE_DUMMY_
  D:00FFH         PUBLIC        OPREG
  D:0080H         PUBLIC        P0
  D:0090H         PUBLIC        P1
  D:00A0H         PUBLIC        P2
  D:00B0H         PUBLIC        P3
  D:00C0H         PUBLIC        P4
  C:31B1H         PUBLIC        _IAP_SetHoldTime
  D:00D8H         PUBLIC        P5
  B:00A8H.7       PUBLIC        EA
  D:00A8H         PUBLIC        IE
  D:00FEH         PUBLIC        OPINX
  D:00B8H         PUBLIC        IP
  D:00F4H         PUBLIC        IAPADE
  D:00F3H         PUBLIC        IAPADH
  D:00F2H         PUBLIC        IAPADL
  C:30E4H         PUBLIC        _IAP_SetOperateRange
  C:27ACH         PUBLIC        _IAP_ProgramByte
  D:0098H         PUBLIC        SCON
  D:00F5H         PUBLIC        IAPDAT
  D:0088H         PUBLIC        TCON
  D:00F6H         PUBLIC        IAPCTL
BL51 BANKED LINKER/LOCATER V6.22                                                      02/20/2019  13:49:04  PAGE 49


  D:00F1H         PUBLIC        IAPKEY
  C:2D2FH         PUBLIC        _IAP_ReadByte
  D:00C8H         PUBLIC        T2CON
  D:00D0H         PUBLIC        PSW
  C:3058H         PUBLIC        IAP_DeInit
  -------         PROC          IAP_DEINIT
  C:3058H         LINE#         20
  C:3058H         LINE#         21
  C:3058H         LINE#         22
  C:305BH         LINE#         23
  C:305DH         LINE#         24
  C:305FH         LINE#         25
  C:3061H         LINE#         26
  C:3063H         LINE#         27
  C:3065H         LINE#         28
  -------         ENDPROC       IAP_DEINIT
  -------         PROC          _IAP_SETHOLDTIME
  D:0007H         SYMBOL        IAP_HoldTime
  C:31B1H         LINE#         36
  C:31B1H         LINE#         37
  C:31B1H         LINE#         38
  C:31B8H         LINE#         39
  -------         ENDPROC       _IAP_SETHOLDTIME
  -------         PROC          _IAP_PROGRAMBYTE
  X:0003H         SYMBOL        Address
  D:0005H         SYMBOL        Data
  D:0003H         SYMBOL        IAP_MemType
  X:0007H         SYMBOL        WriteTimeLimit
  -------         DO            
  D:0004H         SYMBOL        tmpbit
  -------         ENDDO         
  C:27ACH         LINE#         50
  C:27B4H         LINE#         51
  C:27B4H         LINE#         53
  C:27B9H         LINE#         54
  C:27BBH         LINE#         55
  C:27BBH         LINE#         56
  C:27BDH         LINE#         57
  C:27BDH         LINE#         59
  C:27C1H         LINE#         60
  C:27C5H         LINE#         61
  C:27D0H         LINE#         62
  C:27D2H         LINE#         63
  C:27D8H         LINE#         64
  C:27DBH         LINE#         65
  C:27DCH         LINE#         66
  C:27DDH         LINE#         67
  C:27DEH         LINE#         68
  C:27DFH         LINE#         69
  C:27E0H         LINE#         70
  C:27E1H         LINE#         71
  C:27E2H         LINE#         72
  C:27E3H         LINE#         73
  C:27E6H         LINE#         75
  C:27EBH         LINE#         76
  C:27EBH         LINE#         77
  C:27EDH         LINE#         78
BL51 BANKED LINKER/LOCATER V6.22                                                      02/20/2019  13:49:04  PAGE 50


  C:27EDH         LINE#         79
  -------         ENDPROC       _IAP_PROGRAMBYTE
  -------         PROC          _IAP_READBYTE
  D:0006H         SYMBOL        Address
  D:0005H         SYMBOL        IAP_MemType
  -------         DO            
  D:0007H         SYMBOL        tmpbyte
  D:0004H         SYMBOL        tmpbit
  -------         ENDDO         
  C:2D2FH         LINE#         88
  C:2D2FH         LINE#         89
  C:2D2FH         LINE#         92
  C:2D34H         LINE#         93
  C:2D36H         LINE#         94
  C:2D36H         LINE#         95
  C:2D38H         LINE#         96
  C:2D38H         LINE#         98
  C:2D3AH         LINE#         99
  C:2D41H         LINE#         100
  C:2D44H         LINE#         102
  C:2D49H         LINE#         103
  C:2D49H         LINE#         104
  C:2D4BH         LINE#         105
  C:2D4BH         LINE#         106
  C:2D4BH         LINE#         107
  -------         ENDPROC       _IAP_READBYTE
  -------         PROC          _IAP_SETOPERATERANGE
  D:0007H         SYMBOL        IAP_OperateRange
  C:30E4H         LINE#         115
  C:30E4H         LINE#         116
  C:30E4H         LINE#         117
  C:30E7H         LINE#         118
  C:30EEH         LINE#         119
  -------         ENDPROC       _IAP_SETOPERATERANGE
  -------         ENDMOD        SC92F854X_IAP

  -------         MODULE        SC92F854X_PWM
  C:0000H         SYMBOL        _ICE_DUMMY_
  D:0080H         PUBLIC        P0
  D:0090H         PUBLIC        P1
  D:00A0H         PUBLIC        P2
  D:00B0H         PUBLIC        P3
  D:00C0H         PUBLIC        P4
  D:00D8H         PUBLIC        P5
  C:23F1H         PUBLIC        _PWM_PolarityConfig
  D:00A8H         PUBLIC        IE
  C:29DBH         PUBLIC        PWM_DeInit
  D:00B8H         PUBLIC        IP
  C:261BH         PUBLIC        _PWM_IndependentModeConfig
  D:0098H         PUBLIC        SCON
  D:0088H         PUBLIC        TCON
  C:3220H         PUBLIC        PWM_ClearFlag
  D:00A9H         PUBLIC        IE1
  D:00D4H         PUBLIC        PWMCFG
  X:007CH         PUBLIC        pwm_tmpreg
  C:239AH         PUBLIC        _PWM_OutputStateConfig
  D:00B9H         PUBLIC        IP1
BL51 BANKED LINKER/LOCATER V6.22                                                      02/20/2019  13:49:04  PAGE 51


  C:2E0DH         PUBLIC        _PWM_ITConfig
  X:0740H         PUBLIC        PWMREG
  D:00D3H         PUBLIC        PWMCON
  D:00C8H         PUBLIC        T2CON
  C:30EFH         PUBLIC        _PWM_Cmd
  C:2E7AH         PUBLIC        _PWM_Init
  D:00D0H         PUBLIC        PSW
  C:31E5H         PUBLIC        PWM_GetFlagStatus
  -------         PROC          PWM_DEINIT
  -------         DO            
  X:007BH         SYMBOL        i
  -------         ENDDO         
  C:29DBH         LINE#         23
  C:29DBH         LINE#         24
  C:29DBH         LINE#         26
  C:29DEH         LINE#         27
  C:29E0H         LINE#         28
  C:29E3H         LINE#         29
  C:29E6H         LINE#         30
  C:29F4H         LINE#         31
  C:29F4H         LINE#         32
  C:2A04H         LINE#         33
  C:2A0CH         LINE#         34
  -------         ENDPROC       PWM_DEINIT
  -------         PROC          _PWM_INIT
  D:0007H         SYMBOL        PWM_PresSel
  D:0004H         SYMBOL        PWM_Period
  C:2E7AH         LINE#         43
  C:2E7AH         LINE#         44
  C:2E7AH         LINE#         45
  C:2E81H         LINE#         46
  C:2E8AH         LINE#         47
  C:2E8DH         LINE#         48
  -------         ENDPROC       _PWM_INIT
  -------         PROC          _PWM_OUTPUTSTATECONFIG
  D:0007H         SYMBOL        PWM_OutputPin
  D:0005H         SYMBOL        PWM_OutputState
  C:239AH         LINE#         57
  C:239AH         LINE#         58
  C:239AH         LINE#         59
  C:239DH         LINE#         60
  C:239DH         LINE#         61
  C:23ADH         LINE#         62
  C:23AFH         LINE#         64
  C:23AFH         LINE#         65
  C:23CEH         LINE#         66
  C:23CEH         LINE#         67
  C:23F0H         LINE#         68
  -------         ENDPROC       _PWM_OUTPUTSTATECONFIG
  -------         PROC          _PWM_POLARITYCONFIG
  D:0007H         SYMBOL        PWM_OutputPin
  D:0005H         SYMBOL        PWM_Polarity
  C:23F1H         LINE#         77
  C:23F1H         LINE#         78
  C:23F1H         LINE#         79
  C:23F4H         LINE#         80
  C:23F4H         LINE#         81
BL51 BANKED LINKER/LOCATER V6.22                                                      02/20/2019  13:49:04  PAGE 52


  C:2404H         LINE#         82
  C:2406H         LINE#         84
  C:2406H         LINE#         85
  C:2425H         LINE#         86
  C:2425H         LINE#         87
  C:2447H         LINE#         88
  -------         ENDPROC       _PWM_POLARITYCONFIG
  -------         PROC          _PWM_INDEPENDENTMODECONFIG
  D:0007H         SYMBOL        PWM_OutputPin
  D:0004H         SYMBOL        PWM_DutyCycle
  C:261BH         LINE#         97
  C:261BH         LINE#         98
  C:261BH         LINE#         99
  C:263DH         LINE#         100
  C:265FH         LINE#         101
  -------         ENDPROC       _PWM_INDEPENDENTMODECONFIG
  -------         PROC          _PWM_CMD
  D:0007H         SYMBOL        NewState
  C:30EFH         LINE#         109
  C:30EFH         LINE#         110
  C:30EFH         LINE#         111
  C:30F2H         LINE#         112
  C:30F2H         LINE#         113
  C:30F5H         LINE#         114
  C:30F6H         LINE#         116
  C:30F6H         LINE#         117
  C:30F9H         LINE#         118
  C:30F9H         LINE#         119
  -------         ENDPROC       _PWM_CMD
  -------         PROC          _PWM_ITCONFIG
  D:0007H         SYMBOL        NewState
  D:0005H         SYMBOL        Priority
  C:2E0DH         LINE#         128
  C:2E0DH         LINE#         129
  C:2E0DH         LINE#         130
  C:2E10H         LINE#         131
  C:2E10H         LINE#         132
  C:2E13H         LINE#         133
  C:2E15H         LINE#         135
  C:2E15H         LINE#         136
  C:2E18H         LINE#         137
  C:2E18H         LINE#         139
  C:2E1BH         LINE#         140
  C:2E1BH         LINE#         141
  C:2E1EH         LINE#         142
  C:2E1FH         LINE#         144
  C:2E1FH         LINE#         145
  C:2E22H         LINE#         146
  C:2E22H         LINE#         147
  -------         ENDPROC       _PWM_ITCONFIG
  -------         PROC          PWM_GETFLAGSTATUS
  C:31E5H         LINE#         155
  C:31E5H         LINE#         156
  C:31E5H         LINE#         157
  C:31EAH         LINE#         158
  -------         ENDPROC       PWM_GETFLAGSTATUS
  -------         PROC          PWM_CLEARFLAG
BL51 BANKED LINKER/LOCATER V6.22                                                      02/20/2019  13:49:04  PAGE 53


  C:3220H         LINE#         166
  C:3220H         LINE#         167
  C:3220H         LINE#         168
  C:3223H         LINE#         169
  -------         ENDPROC       PWM_CLEARFLAG
  -------         ENDMOD        SC92F854X_PWM

  -------         MODULE        SC92F854X_SSI
  C:0000H         SYMBOL        _ICE_DUMMY_
  D:0080H         PUBLIC        P0
  D:009FH         PUBLIC        SSDAT
  D:0090H         PUBLIC        P1
  D:00A0H         PUBLIC        P2
  D:00B0H         PUBLIC        P3
  D:00C0H         PUBLIC        P4
  D:008FH         PUBLIC        OTCON
  D:00D8H         PUBLIC        P5
  D:00A8H         PUBLIC        IE
  C:2EEFH         PUBLIC        SSI_DeInit
  D:00B8H         PUBLIC        IP
  C:3233H         PUBLIC        SSI_UART1_ReceiveData8
  C:2E23H         PUBLIC        SSI_UART1_ReceiveData9
  C:3224H         PUBLIC        _SSI_SPI_SendData
  C:322AH         PUBLIC        _SSI_TWI_SendData
  C:30FAH         PUBLIC        _SSI_SPI_Cmd
  C:2B48H         PUBLIC        _SSI_SPI_Init
  D:0098H         PUBLIC        SCON
  D:0088H         PUBLIC        TCON
  C:21C9H         PUBLIC        _SSI_UART1_Init
  C:2DB2H         PUBLIC        _SSI_ClearFlag
  D:009DH         PUBLIC        SSCON0
  D:009EH         PUBLIC        SSCON1
  D:0095H         PUBLIC        SSCON2
  C:311BH         PUBLIC        _SSI_TWI_Cmd
  C:3066H         PUBLIC        _SSI_TWI_Init
  D:00A9H         PUBLIC        IE1
  C:2E39H         PUBLIC        _SSI_ITConfig
  D:00B9H         PUBLIC        IP1
  C:3230H         PUBLIC        _SSI_UART1_SendData8
  C:2E8EH         PUBLIC        _SSI_UART1_SendData9
  C:3227H         PUBLIC        SSI_SPI_ReceiveData
  D:00C8H         PUBLIC        T2CON
  C:322DH         PUBLIC        SSI_TWI_ReceiveData
  C:3105H         PUBLIC        _SSI_TWI_AcknowledgeConfig
  C:2B1FH         PUBLIC        _SSI_GetFlagStatus
  D:00D0H         PUBLIC        PSW
  C:3110H         PUBLIC        _SSI_TWI_GeneralCallCmd
  -------         PROC          SSI_DEINIT
  C:2EEFH         LINE#         20
  C:2EEFH         LINE#         21
  C:2EEFH         LINE#         22
  C:2EF2H         LINE#         23
  C:2EF5H         LINE#         24
  C:2EF7H         LINE#         25
  C:2EF9H         LINE#         26
  C:2EFBH         LINE#         27
  C:2EFEH         LINE#         28
BL51 BANKED LINKER/LOCATER V6.22                                                      02/20/2019  13:49:04  PAGE 54


  C:2F01H         LINE#         29
  -------         ENDPROC       SSI_DEINIT
  -------         PROC          _SSI_SPI_INIT
  D:0007H         SYMBOL        FirstBit
  D:0005H         SYMBOL        BaudRatePrescaler
  D:0003H         SYMBOL        Mode
  X:0018H         SYMBOL        ClockPolarity
  X:0019H         SYMBOL        ClockPhase
  X:001AH         SYMBOL        SPI_TXE_INT
  C:2B48H         LINE#         43
  C:2B48H         LINE#         45
  C:2B48H         LINE#         46
  C:2B50H         LINE#         47
  C:2B5DH         LINE#         48
  C:2B6FH         LINE#         49
  -------         ENDPROC       _SSI_SPI_INIT
  -------         PROC          _SSI_SPI_CMD
  D:0007H         SYMBOL        NewState
  C:30FAH         LINE#         57
  C:30FAH         LINE#         58
  C:30FAH         LINE#         59
  C:30FDH         LINE#         60
  C:30FDH         LINE#         61
  C:3100H         LINE#         62
  C:3101H         LINE#         64
  C:3101H         LINE#         65
  C:3104H         LINE#         66
  C:3104H         LINE#         67
  -------         ENDPROC       _SSI_SPI_CMD
  -------         PROC          _SSI_SPI_SENDDATA
  D:0007H         SYMBOL        Data
  C:3224H         LINE#         75
  C:3224H         LINE#         76
  C:3224H         LINE#         77
  C:3226H         LINE#         78
  -------         ENDPROC       _SSI_SPI_SENDDATA
  -------         PROC          SSI_SPI_RECEIVEDATA
  C:3227H         LINE#         86
  C:3227H         LINE#         87
  C:3227H         LINE#         88
  C:3229H         LINE#         89
  -------         ENDPROC       SSI_SPI_RECEIVEDATA
  -------         PROC          _SSI_TWI_INIT
  D:0007H         SYMBOL        TWI_Address
  C:3066H         LINE#         97
  C:3066H         LINE#         98
  C:3066H         LINE#         99
  C:306EH         LINE#         100
  C:3073H         LINE#         101
  -------         ENDPROC       _SSI_TWI_INIT
  -------         PROC          _SSI_TWI_ACKNOWLEDGECONFIG
  D:0007H         SYMBOL        NewState
  C:3105H         LINE#         109
  C:3105H         LINE#         110
  C:3105H         LINE#         111
  C:3108H         LINE#         112
  C:3108H         LINE#         113
BL51 BANKED LINKER/LOCATER V6.22                                                      02/20/2019  13:49:04  PAGE 55


  C:310BH         LINE#         114
  C:310CH         LINE#         116
  C:310CH         LINE#         117
  C:310FH         LINE#         118
  C:310FH         LINE#         119
  -------         ENDPROC       _SSI_TWI_ACKNOWLEDGECONFIG
  -------         PROC          _SSI_TWI_GENERALCALLCMD
  D:0007H         SYMBOL        NewState
  C:3110H         LINE#         127
  C:3110H         LINE#         128
  C:3110H         LINE#         129
  C:3113H         LINE#         130
  C:3113H         LINE#         131
  C:3116H         LINE#         132
  C:3117H         LINE#         134
  C:3117H         LINE#         135
  C:311AH         LINE#         136
  C:311AH         LINE#         137
  -------         ENDPROC       _SSI_TWI_GENERALCALLCMD
  -------         PROC          _SSI_TWI_CMD
  D:0007H         SYMBOL        NewState
  C:311BH         LINE#         145
  C:311BH         LINE#         146
  C:311BH         LINE#         147
  C:311EH         LINE#         148
  C:311EH         LINE#         149
  C:3121H         LINE#         150
  C:3122H         LINE#         152
  C:3122H         LINE#         153
  C:3125H         LINE#         154
  C:3125H         LINE#         155
  -------         ENDPROC       _SSI_TWI_CMD
  -------         PROC          _SSI_TWI_SENDDATA
  D:0007H         SYMBOL        Data
  C:322AH         LINE#         163
  C:322AH         LINE#         164
  C:322AH         LINE#         165
  C:322CH         LINE#         166
  -------         ENDPROC       _SSI_TWI_SENDDATA
  -------         PROC          SSI_TWI_RECEIVEDATA
  C:322DH         LINE#         174
  C:322DH         LINE#         175
  C:322DH         LINE#         176
  C:322FH         LINE#         177
  -------         ENDPROC       SSI_TWI_RECEIVEDATA
  -------         PROC          _SSI_UART1_INIT
  X:0003H         SYMBOL        UART1Fsys
  X:0007H         SYMBOL        BaudRate
  X:000BH         SYMBOL        Mode
  X:000CH         SYMBOL        RxMode
  C:21C9H         LINE#         188
  C:21CFH         LINE#         189
  C:21CFH         LINE#         190
  C:21D2H         LINE#         191
  C:21E2H         LINE#         192
  C:220CH         LINE#         193
  C:222DH         LINE#         194
BL51 BANKED LINKER/LOCATER V6.22                                                      02/20/2019  13:49:04  PAGE 56


  -------         ENDPROC       _SSI_UART1_INIT
  -------         PROC          _SSI_UART1_SENDDATA8
  D:0007H         SYMBOL        Data
  C:3230H         LINE#         202
  C:3230H         LINE#         203
  C:3230H         LINE#         204
  C:3232H         LINE#         205
  -------         ENDPROC       _SSI_UART1_SENDDATA8
  -------         PROC          SSI_UART1_RECEIVEDATA8
  C:3233H         LINE#         213
  C:3233H         LINE#         214
  C:3233H         LINE#         215
  C:3235H         LINE#         216
  -------         ENDPROC       SSI_UART1_RECEIVEDATA8
  -------         PROC          _SSI_UART1_SENDDATA9
  D:0004H         SYMBOL        Data
  -------         DO            
  D:0007H         SYMBOL        Data_9Bit
  -------         ENDDO         
  C:2E8EH         LINE#         224
  C:2E92H         LINE#         225
  C:2E92H         LINE#         227
  C:2E93H         LINE#         228
  C:2E95H         LINE#         229
  C:2E95H         LINE#         230
  C:2E98H         LINE#         231
  C:2E9AH         LINE#         233
  C:2E9AH         LINE#         234
  C:2E9DH         LINE#         235
  C:2E9DH         LINE#         237
  C:2EA1H         LINE#         238
  -------         ENDPROC       _SSI_UART1_SENDDATA9
  -------         PROC          SSI_UART1_RECEIVEDATA9
  -------         DO            
  D:0006H         SYMBOL        Data9
  -------         ENDDO         
  C:2E23H         LINE#         246
  C:2E23H         LINE#         247
  C:2E23H         LINE#         249
  C:2E35H         LINE#         250
  C:2E38H         LINE#         251
  C:2E38H         LINE#         252
  -------         ENDPROC       SSI_UART1_RECEIVEDATA9
  -------         PROC          _SSI_ITCONFIG
  D:0007H         SYMBOL        NewState
  D:0005H         SYMBOL        Priority
  C:2E39H         LINE#         261
  C:2E39H         LINE#         262
  C:2E39H         LINE#         263
  C:2E3CH         LINE#         264
  C:2E3CH         LINE#         265
  C:2E3FH         LINE#         266
  C:2E41H         LINE#         268
  C:2E41H         LINE#         269
  C:2E44H         LINE#         270
  C:2E44H         LINE#         272
  C:2E47H         LINE#         273
BL51 BANKED LINKER/LOCATER V6.22                                                      02/20/2019  13:49:04  PAGE 57


  C:2E47H         LINE#         274
  C:2E4AH         LINE#         275
  C:2E4BH         LINE#         277
  C:2E4BH         LINE#         278
  C:2E4EH         LINE#         279
  C:2E4EH         LINE#         280
  -------         ENDPROC       _SSI_ITCONFIG
  -------         PROC          _SSI_GETFLAGSTATUS
  D:0007H         SYMBOL        SSI_FLAG
  -------         DO            
  D:0006H         SYMBOL        bitstatus
  -------         ENDDO         
  C:2B1FH         LINE#         288
  C:2B1FH         LINE#         289
  C:2B1FH         LINE#         290
  C:2B1FH         LINE#         292
  C:2B2DH         LINE#         293
  C:2B2DH         LINE#         294
  C:2B32H         LINE#         295
  C:2B32H         LINE#         296
  C:2B34H         LINE#         297
  C:2B36H         LINE#         299
  C:2B36H         LINE#         300
  C:2B38H         LINE#         301
  C:2B38H         LINE#         302
  C:2B3AH         LINE#         304
  C:2B3AH         LINE#         305
  C:2B3FH         LINE#         306
  C:2B3FH         LINE#         307
  C:2B41H         LINE#         308
  C:2B43H         LINE#         310
  C:2B43H         LINE#         311
  C:2B45H         LINE#         312
  C:2B45H         LINE#         313
  C:2B45H         LINE#         315
  C:2B47H         LINE#         316
  -------         ENDPROC       _SSI_GETFLAGSTATUS
  -------         PROC          _SSI_CLEARFLAG
  D:0007H         SYMBOL        SSI_FLAG
  C:2DB2H         LINE#         324
  C:2DB2H         LINE#         325
  C:2DB2H         LINE#         326
  C:2DC0H         LINE#         327
  C:2DC0H         LINE#         328
  C:2DC4H         LINE#         329
  C:2DC5H         LINE#         331
  C:2DC5H         LINE#         332
  C:2DC9H         LINE#         333
  C:2DC9H         LINE#         334
  -------         ENDPROC       _SSI_CLEARFLAG
  -------         ENDMOD        SC92F854X_SSI

  -------         MODULE        SC92F854X_TIMER0
  C:0000H         SYMBOL        _ICE_DUMMY_
  D:0080H         PUBLIC        P0
  D:0090H         PUBLIC        P1
  D:00A0H         PUBLIC        P2
BL51 BANKED LINKER/LOCATER V6.22                                                      02/20/2019  13:49:04  PAGE 58


  D:008EH         PUBLIC        TMCON
  D:00B0H         PUBLIC        P3
  D:00C0H         PUBLIC        P4
  D:00D8H         PUBLIC        P5
  D:00A8H         PUBLIC        IE
  C:3185H         PUBLIC        _TIM0_Cmd
  D:00B8H         PUBLIC        IP
  B:00B8H.1       PUBLIC        IPT0
  C:2C96H         PUBLIC        _TIM0_TimeBaseInit
  C:31EBH         PUBLIC        TIM0_GetFlagStatus
  C:301CH         PUBLIC        _TIM0_Mode0SetReloadCounter
  C:31B9H         PUBLIC        _TIM0_Mode1SetReloadCounter
  C:2F5EH         PUBLIC        _TIM0_WorkMode0Config
  D:0098H         PUBLIC        SCON
  C:3074H         PUBLIC        _TIM0_WorkMode1Config
  D:0088H         PUBLIC        TCON
  D:0089H         PUBLIC        TMOD
  C:3126H         PUBLIC        _TIM0_WorkMode2Config
  C:3172H         PUBLIC        _TIM0_WorkMode3Config
  C:2F02H         PUBLIC        TIM0_DeInit
  B:00A8H.1       PUBLIC        ET0
  B:0088H.5       PUBLIC        TF0
  D:008CH         PUBLIC        TH0
  D:008AH         PUBLIC        TL0
  B:0088H.4       PUBLIC        TR0
  C:3236H         PUBLIC        TIM0_ClearFlag
  D:00C8H         PUBLIC        T2CON
  C:2F70H         PUBLIC        _TIM0_ITConfig
  D:00D0H         PUBLIC        PSW
  -------         PROC          TIM0_DEINIT
  C:2F02H         LINE#         20
  C:2F02H         LINE#         21
  C:2F02H         LINE#         22
  C:2F05H         LINE#         23
  C:2F08H         LINE#         24
  C:2F0BH         LINE#         25
  C:2F0EH         LINE#         26
  C:2F10H         LINE#         27
  C:2F12H         LINE#         28
  C:2F14H         LINE#         29
  -------         ENDPROC       TIM0_DEINIT
  -------         PROC          _TIM0_TIMEBASEINIT
  D:0007H         SYMBOL        TIM0_PrescalerSelection
  D:0005H         SYMBOL        TIM0_CountMode
  C:2C96H         LINE#         38
  C:2C96H         LINE#         39
  C:2C96H         LINE#         40
  C:2C99H         LINE#         41
  C:2C99H         LINE#         42
  C:2C9CH         LINE#         43
  C:2C9EH         LINE#         44
  C:2CA2H         LINE#         45
  C:2CA2H         LINE#         46
  C:2CA5H         LINE#         47
  C:2CA5H         LINE#         49
  C:2CA9H         LINE#         50
  C:2CA9H         LINE#         51
BL51 BANKED LINKER/LOCATER V6.22                                                      02/20/2019  13:49:04  PAGE 59


  C:2CACH         LINE#         52
  C:2CADH         LINE#         53
  C:2CB1H         LINE#         54
  C:2CB1H         LINE#         55
  C:2CB4H         LINE#         56
  C:2CB4H         LINE#         57
  -------         ENDPROC       _TIM0_TIMEBASEINIT
  -------         PROC          _TIM0_WORKMODE0CONFIG
  D:0006H         SYMBOL        TIM0_SetCounter
  C:2F5EH         LINE#         65
  C:2F5EH         LINE#         66
  C:2F5EH         LINE#         67
  C:2F61H         LINE#         68
  C:2F63H         LINE#         69
  C:2F6FH         LINE#         70
  -------         ENDPROC       _TIM0_WORKMODE0CONFIG
  -------         PROC          _TIM0_WORKMODE1CONFIG
  D:0006H         SYMBOL        TIM0_SetCounter
  C:3074H         LINE#         78
  C:3074H         LINE#         79
  C:3074H         LINE#         80
  C:3077H         LINE#         81
  C:307AH         LINE#         82
  C:307EH         LINE#         83
  C:3081H         LINE#         84
  -------         ENDPROC       _TIM0_WORKMODE1CONFIG
  -------         PROC          _TIM0_WORKMODE2CONFIG
  D:0007H         SYMBOL        TIM0_SetCounter
  C:3126H         LINE#         92
  C:3126H         LINE#         93
  C:3126H         LINE#         94
  C:3129H         LINE#         95
  C:312CH         LINE#         96
  C:312EH         LINE#         97
  C:3130H         LINE#         98
  -------         ENDPROC       _TIM0_WORKMODE2CONFIG
  -------         PROC          _TIM0_WORKMODE3CONFIG
  D:0007H         SYMBOL        TIM0_SetCounter
  D:0005H         SYMBOL        TIM1_SetCounter
  C:3172H         LINE#         107
  C:3172H         LINE#         108
  C:3172H         LINE#         109
  C:3175H         LINE#         110
  C:3177H         LINE#         111
  C:317BH         LINE#         112
  -------         ENDPROC       _TIM0_WORKMODE3CONFIG
  -------         PROC          _TIM0_MODE0SETRELOADCOUNTER
  D:0006H         SYMBOL        TIM0_SetCounter
  C:301CH         LINE#         120
  C:301CH         LINE#         121
  C:301CH         LINE#         122
  C:301EH         LINE#         123
  C:302AH         LINE#         124
  -------         ENDPROC       _TIM0_MODE0SETRELOADCOUNTER
  -------         PROC          _TIM0_MODE1SETRELOADCOUNTER
  D:0006H         SYMBOL        TIM0_SetCounter
  C:31B9H         LINE#         132
BL51 BANKED LINKER/LOCATER V6.22                                                      02/20/2019  13:49:04  PAGE 60


  C:31B9H         LINE#         133
  C:31B9H         LINE#         134
  C:31BDH         LINE#         135
  C:31C0H         LINE#         136
  -------         ENDPROC       _TIM0_MODE1SETRELOADCOUNTER
  -------         PROC          _TIM0_CMD
  D:0007H         SYMBOL        NewState
  C:3185H         LINE#         144
  C:3185H         LINE#         145
  C:3185H         LINE#         146
  C:3188H         LINE#         147
  C:3188H         LINE#         148
  C:318AH         LINE#         149
  C:318BH         LINE#         151
  C:318BH         LINE#         152
  C:318DH         LINE#         153
  C:318DH         LINE#         154
  -------         ENDPROC       _TIM0_CMD
  -------         PROC          _TIM0_ITCONFIG
  D:0007H         SYMBOL        NewState
  D:0005H         SYMBOL        Priority
  C:2F70H         LINE#         163
  C:2F70H         LINE#         164
  C:2F70H         LINE#         165
  C:2F73H         LINE#         166
  C:2F73H         LINE#         167
  C:2F75H         LINE#         168
  C:2F77H         LINE#         170
  C:2F77H         LINE#         171
  C:2F79H         LINE#         172
  C:2F79H         LINE#         174
  C:2F7CH         LINE#         175
  C:2F7CH         LINE#         176
  C:2F7EH         LINE#         177
  C:2F7FH         LINE#         179
  C:2F7FH         LINE#         180
  C:2F81H         LINE#         181
  C:2F81H         LINE#         182
  -------         ENDPROC       _TIM0_ITCONFIG
  -------         PROC          TIM0_GETFLAGSTATUS
  C:31EBH         LINE#         190
  C:31EBH         LINE#         191
  C:31EBH         LINE#         192
  C:31F0H         LINE#         193
  -------         ENDPROC       TIM0_GETFLAGSTATUS
  -------         PROC          TIM0_CLEARFLAG
  C:3236H         LINE#         201
  C:3236H         LINE#         202
  C:3236H         LINE#         203
  C:3238H         LINE#         204
  -------         ENDPROC       TIM0_CLEARFLAG
  -------         ENDMOD        SC92F854X_TIMER0

  -------         MODULE        SC92F854X_TIMER1
  C:0000H         SYMBOL        _ICE_DUMMY_
  D:0080H         PUBLIC        P0
  D:0090H         PUBLIC        P1
BL51 BANKED LINKER/LOCATER V6.22                                                      02/20/2019  13:49:04  PAGE 61


  D:00A0H         PUBLIC        P2
  D:008EH         PUBLIC        TMCON
  D:00B0H         PUBLIC        P3
  D:00C0H         PUBLIC        P4
  D:00D8H         PUBLIC        P5
  D:00A8H         PUBLIC        IE
  C:318EH         PUBLIC        _TIM1_Cmd
  D:00B8H         PUBLIC        IP
  B:00B8H.3       PUBLIC        IPT1
  C:2CB5H         PUBLIC        _TIM1_TimeBaseInit
  C:31F1H         PUBLIC        TIM1_GetFlagStatus
  C:302BH         PUBLIC        _TIM1_Mode0SetReloadCounter
  C:31C1H         PUBLIC        _TIM1_Mode1SetReloadCounter
  D:0098H         PUBLIC        SCON
  C:2F82H         PUBLIC        _TIM1_WorkMode0Config
  D:0088H         PUBLIC        TCON
  D:0089H         PUBLIC        TMOD
  C:3082H         PUBLIC        _TIM1_WorkMode1Config
  C:3131H         PUBLIC        _TIM1_WorkMode2Config
  C:2F15H         PUBLIC        TIM1_DeInit
  B:00A8H.3       PUBLIC        ET1
  B:0088H.7       PUBLIC        TF1
  D:008DH         PUBLIC        TH1
  D:008BH         PUBLIC        TL1
  B:0088H.6       PUBLIC        TR1
  C:3239H         PUBLIC        TIM1_ClearFlag
  D:00C8H         PUBLIC        T2CON
  C:2F94H         PUBLIC        _TIM1_ITConfig
  D:00D0H         PUBLIC        PSW
  -------         PROC          TIM1_DEINIT
  C:2F15H         LINE#         21
  C:2F15H         LINE#         22
  C:2F15H         LINE#         23
  C:2F18H         LINE#         24
  C:2F1BH         LINE#         25
  C:2F1EH         LINE#         26
  C:2F21H         LINE#         27
  C:2F23H         LINE#         28
  C:2F25H         LINE#         29
  C:2F27H         LINE#         30
  -------         ENDPROC       TIM1_DEINIT
  -------         PROC          _TIM1_TIMEBASEINIT
  D:0007H         SYMBOL        TIM1_PrescalerSelection
  D:0005H         SYMBOL        TIM1_CountMode
  C:2CB5H         LINE#         39
  C:2CB5H         LINE#         40
  C:2CB5H         LINE#         41
  C:2CB8H         LINE#         42
  C:2CB8H         LINE#         43
  C:2CBBH         LINE#         44
  C:2CBDH         LINE#         45
  C:2CC1H         LINE#         46
  C:2CC1H         LINE#         47
  C:2CC4H         LINE#         48
  C:2CC4H         LINE#         50
  C:2CC8H         LINE#         51
  C:2CC8H         LINE#         52
BL51 BANKED LINKER/LOCATER V6.22                                                      02/20/2019  13:49:04  PAGE 62


  C:2CCBH         LINE#         53
  C:2CCCH         LINE#         54
  C:2CD0H         LINE#         55
  C:2CD0H         LINE#         56
  C:2CD3H         LINE#         57
  C:2CD3H         LINE#         58
  -------         ENDPROC       _TIM1_TIMEBASEINIT
  -------         PROC          _TIM1_WORKMODE0CONFIG
  D:0006H         SYMBOL        TIM1_SetCounter
  C:2F82H         LINE#         66
  C:2F82H         LINE#         67
  C:2F82H         LINE#         68
  C:2F85H         LINE#         69
  C:2F87H         LINE#         70
  C:2F93H         LINE#         71
  -------         ENDPROC       _TIM1_WORKMODE0CONFIG
  -------         PROC          _TIM1_WORKMODE1CONFIG
  D:0006H         SYMBOL        TIM1_SetCounter
  C:3082H         LINE#         79
  C:3082H         LINE#         80
  C:3082H         LINE#         81
  C:3085H         LINE#         82
  C:3088H         LINE#         83
  C:308CH         LINE#         84
  C:308FH         LINE#         85
  -------         ENDPROC       _TIM1_WORKMODE1CONFIG
  -------         PROC          _TIM1_WORKMODE2CONFIG
  D:0007H         SYMBOL        TIM1_SetCounter
  C:3131H         LINE#         93
  C:3131H         LINE#         94
  C:3131H         LINE#         95
  C:3134H         LINE#         96
  C:3137H         LINE#         97
  C:3139H         LINE#         98
  C:313BH         LINE#         99
  -------         ENDPROC       _TIM1_WORKMODE2CONFIG
  -------         PROC          _TIM1_MODE0SETRELOADCOUNTER
  D:0006H         SYMBOL        TIM1_SetCounter
  C:302BH         LINE#         107
  C:302BH         LINE#         108
  C:302BH         LINE#         109
  C:302DH         LINE#         110
  C:3039H         LINE#         111
  -------         ENDPROC       _TIM1_MODE0SETRELOADCOUNTER
  -------         PROC          _TIM1_MODE1SETRELOADCOUNTER
  D:0006H         SYMBOL        TIM1_SetCounter
  C:31C1H         LINE#         119
  C:31C1H         LINE#         120
  C:31C1H         LINE#         121
  C:31C5H         LINE#         122
  C:31C8H         LINE#         123
  -------         ENDPROC       _TIM1_MODE1SETRELOADCOUNTER
  -------         PROC          _TIM1_CMD
  D:0007H         SYMBOL        NewState
  C:318EH         LINE#         131
  C:318EH         LINE#         132
  C:318EH         LINE#         133
BL51 BANKED LINKER/LOCATER V6.22                                                      02/20/2019  13:49:04  PAGE 63


  C:3191H         LINE#         134
  C:3191H         LINE#         135
  C:3193H         LINE#         136
  C:3194H         LINE#         138
  C:3194H         LINE#         139
  C:3196H         LINE#         140
  C:3196H         LINE#         141
  -------         ENDPROC       _TIM1_CMD
  -------         PROC          _TIM1_ITCONFIG
  D:0007H         SYMBOL        NewState
  D:0005H         SYMBOL        Priority
  C:2F94H         LINE#         150
  C:2F94H         LINE#         151
  C:2F94H         LINE#         152
  C:2F97H         LINE#         153
  C:2F97H         LINE#         154
  C:2F99H         LINE#         155
  C:2F9BH         LINE#         157
  C:2F9BH         LINE#         158
  C:2F9DH         LINE#         159
  C:2F9DH         LINE#         161
  C:2FA0H         LINE#         162
  C:2FA0H         LINE#         163
  C:2FA2H         LINE#         164
  C:2FA3H         LINE#         166
  C:2FA3H         LINE#         167
  C:2FA5H         LINE#         168
  C:2FA5H         LINE#         169
  -------         ENDPROC       _TIM1_ITCONFIG
  -------         PROC          TIM1_GETFLAGSTATUS
  C:31F1H         LINE#         177
  C:31F1H         LINE#         178
  C:31F1H         LINE#         179
  C:31F6H         LINE#         180
  -------         ENDPROC       TIM1_GETFLAGSTATUS
  -------         PROC          TIM1_CLEARFLAG
  C:3239H         LINE#         188
  C:3239H         LINE#         189
  C:3239H         LINE#         190
  C:323BH         LINE#         191
  -------         ENDPROC       TIM1_CLEARFLAG
  -------         ENDMOD        SC92F854X_TIMER1

  -------         MODULE        SC92F854X_TIMER2
  C:0000H         SYMBOL        _ICE_DUMMY_
  D:0080H         PUBLIC        P0
  D:0090H         PUBLIC        P1
  D:00A0H         PUBLIC        P2
  D:008EH         PUBLIC        TMCON
  D:00B0H         PUBLIC        P3
  D:00C0H         PUBLIC        P4
  D:00D8H         PUBLIC        P5
  D:00A8H         PUBLIC        IE
  C:3197H         PUBLIC        _TIM2_SetEXEN2
  C:31A0H         PUBLIC        _TIM2_Cmd
  D:00B8H         PUBLIC        IP
  B:00B8H.5       PUBLIC        IPT2
BL51 BANKED LINKER/LOCATER V6.22                                                      02/20/2019  13:49:04  PAGE 64


  D:00CBH         PUBLIC        RCAP2H
  C:2A6EH         PUBLIC        _TIM2_TimeBaseInit
  C:303AH         PUBLIC        _TIM2_GetFlagStatus
  D:00CAH         PUBLIC        RCAP2L
  D:0098H         PUBLIC        SCON
  D:0088H         PUBLIC        TCON
  C:313CH         PUBLIC        _TIM2_WorkMode0Config
  C:3090H         PUBLIC        _TIM2_WorkMode1Config
  C:3147H         PUBLIC        _TIM2_WorkMode3Config
  C:2E65H         PUBLIC        TIM2_DeInit
  B:00A8H.5       PUBLIC        ET2
  D:00CDH         PUBLIC        TH2
  D:00CCH         PUBLIC        TL2
  B:00C8H.2       PUBLIC        TR2
  B:00C8H.3       PUBLIC        EXEN2
  C:3201H         PUBLIC        _TIM2_ClearFlag
  D:00C9H         PUBLIC        T2MOD
  D:00C8H         PUBLIC        T2CON
  C:2FA6H         PUBLIC        _TIM2_ITConfig
  D:00D0H         PUBLIC        PSW
  -------         PROC          TIM2_DEINIT
  C:2E65H         LINE#         20
  C:2E65H         LINE#         21
  C:2E65H         LINE#         22
  C:2E68H         LINE#         23
  C:2E6AH         LINE#         24
  C:2E6DH         LINE#         25
  C:2E6FH         LINE#         26
  C:2E71H         LINE#         27
  C:2E73H         LINE#         28
  C:2E75H         LINE#         29
  C:2E77H         LINE#         30
  C:2E79H         LINE#         31
  -------         ENDPROC       TIM2_DEINIT
  -------         PROC          _TIM2_TIMEBASEINIT
  D:0007H         SYMBOL        TIM2_PrescalerSelection
  D:0005H         SYMBOL        TIM2_CountMode
  D:0003H         SYMBOL        TIM2_CountDirection
  C:2A6EH         LINE#         42
  C:2A6EH         LINE#         45
  C:2A6EH         LINE#         46
  C:2A71H         LINE#         47
  C:2A71H         LINE#         48
  C:2A74H         LINE#         49
  C:2A76H         LINE#         50
  C:2A7AH         LINE#         51
  C:2A7AH         LINE#         52
  C:2A7DH         LINE#         53
  C:2A7DH         LINE#         55
  C:2A81H         LINE#         56
  C:2A81H         LINE#         57
  C:2A84H         LINE#         58
  C:2A86H         LINE#         59
  C:2A8AH         LINE#         60
  C:2A8AH         LINE#         61
  C:2A8DH         LINE#         62
  C:2A8DH         LINE#         64
BL51 BANKED LINKER/LOCATER V6.22                                                      02/20/2019  13:49:04  PAGE 65


  C:2A90H         LINE#         65
  C:2A90H         LINE#         66
  C:2A93H         LINE#         67
  C:2A94H         LINE#         68
  C:2A98H         LINE#         69
  C:2A98H         LINE#         70
  C:2A9BH         LINE#         71
  C:2A9BH         LINE#         72
  -------         ENDPROC       _TIM2_TIMEBASEINIT
  -------         PROC          _TIM2_WORKMODE0CONFIG
  D:0006H         SYMBOL        TIM2_SetCounter
  C:313CH         LINE#         80
  C:313CH         LINE#         81
  C:313CH         LINE#         82
  C:313FH         LINE#         84
  C:3143H         LINE#         85
  C:3146H         LINE#         86
  -------         ENDPROC       _TIM2_WORKMODE0CONFIG
  -------         PROC          _TIM2_WORKMODE1CONFIG
  D:0006H         SYMBOL        TIM2_SetCounter
  C:3090H         LINE#         94
  C:3090H         LINE#         95
  C:3090H         LINE#         96
  C:3094H         LINE#         97
  C:3097H         LINE#         99
  C:309AH         LINE#         100
  C:309DH         LINE#         101
  -------         ENDPROC       _TIM2_WORKMODE1CONFIG
  -------         PROC          _TIM2_WORKMODE3CONFIG
  D:0006H         SYMBOL        TIM2_SetCounter
  C:3147H         LINE#         109
  C:3147H         LINE#         110
  C:3147H         LINE#         111
  C:314BH         LINE#         112
  C:314EH         LINE#         113
  C:3151H         LINE#         114
  -------         ENDPROC       _TIM2_WORKMODE3CONFIG
  -------         PROC          _TIM2_SETEXEN2
  D:0007H         SYMBOL        NewState
  C:3197H         LINE#         122
  C:3197H         LINE#         123
  C:3197H         LINE#         124
  C:319AH         LINE#         125
  C:319AH         LINE#         126
  C:319CH         LINE#         127
  C:319DH         LINE#         129
  C:319DH         LINE#         130
  C:319FH         LINE#         131
  C:319FH         LINE#         132
  -------         ENDPROC       _TIM2_SETEXEN2
  -------         PROC          _TIM2_CMD
  D:0007H         SYMBOL        NewState
  C:31A0H         LINE#         140
  C:31A0H         LINE#         141
  C:31A0H         LINE#         142
  C:31A3H         LINE#         143
  C:31A3H         LINE#         144
BL51 BANKED LINKER/LOCATER V6.22                                                      02/20/2019  13:49:04  PAGE 66


  C:31A5H         LINE#         145
  C:31A6H         LINE#         147
  C:31A6H         LINE#         148
  C:31A8H         LINE#         149
  C:31A8H         LINE#         150
  -------         ENDPROC       _TIM2_CMD
  -------         PROC          _TIM2_ITCONFIG
  D:0007H         SYMBOL        NewState
  D:0005H         SYMBOL        Priority
  C:2FA6H         LINE#         159
  C:2FA6H         LINE#         160
  C:2FA6H         LINE#         161
  C:2FA9H         LINE#         162
  C:2FA9H         LINE#         163
  C:2FABH         LINE#         164
  C:2FADH         LINE#         166
  C:2FADH         LINE#         167
  C:2FAFH         LINE#         168
  C:2FAFH         LINE#         170
  C:2FB2H         LINE#         171
  C:2FB2H         LINE#         172
  C:2FB4H         LINE#         173
  C:2FB5H         LINE#         175
  C:2FB5H         LINE#         176
  C:2FB7H         LINE#         177
  C:2FB7H         LINE#         178
  -------         ENDPROC       _TIM2_ITCONFIG
  -------         PROC          _TIM2_GETFLAGSTATUS
  D:0007H         SYMBOL        TIM2_Flag
  -------         DO            
  D:0006H         SYMBOL        status
  -------         ENDDO         
  C:303AH         LINE#         186
  C:303AH         LINE#         187
  C:303AH         LINE#         188
  C:303CH         LINE#         189
  C:3041H         LINE#         190
  C:3041H         LINE#         191
  C:3042H         LINE#         192
  C:3044H         LINE#         194
  C:3044H         LINE#         195
  C:3046H         LINE#         196
  C:3046H         LINE#         197
  C:3048H         LINE#         198
  -------         ENDPROC       _TIM2_GETFLAGSTATUS
  -------         PROC          _TIM2_CLEARFLAG
  D:0007H         SYMBOL        TIM2_Flag
  C:3201H         LINE#         206
  C:3201H         LINE#         207
  C:3201H         LINE#         208
  C:3205H         LINE#         209
  -------         ENDPROC       _TIM2_CLEARFLAG
  -------         ENDMOD        SC92F854X_TIMER2

  -------         MODULE        SC92F854X_UART0
  C:0000H         SYMBOL        _ICE_DUMMY_
  D:0080H         PUBLIC        P0
BL51 BANKED LINKER/LOCATER V6.22                                                      02/20/2019  13:49:04  PAGE 67


  D:0090H         PUBLIC        P1
  D:00A0H         PUBLIC        P2
  B:00A8H.4       PUBLIC        EUART
  D:00B0H         PUBLIC        P3
  D:00C0H         PUBLIC        P4
  D:00D8H         PUBLIC        P5
  D:00A8H         PUBLIC        IE
  C:3049H         PUBLIC        UART0_DeInit
  C:323CH         PUBLIC        _UART0_SendData8
  C:2EA2H         PUBLIC        _UART0_SendData9
  D:00B8H         PUBLIC        IP
  D:00CBH         PUBLIC        RCAP2H
  D:00CAH         PUBLIC        RCAP2L
  D:0099H         PUBLIC        SBUF
  D:0087H         PUBLIC        PCON
  D:0098H         PUBLIC        SCON
  C:320BH         PUBLIC        _UART0_ClearFlag
  D:0088H         PUBLIC        TCON
  C:2FB8H         PUBLIC        _UART0_ITConfig
  C:323FH         PUBLIC        UART0_ReceiveData8
  C:2E4FH         PUBLIC        UART0_ReceiveData9
  D:008DH         PUBLIC        TH1
  D:008BH         PUBLIC        TL1
  B:0088H.6       PUBLIC        TR1
  B:00B8H.4       PUBLIC        IPUART
  C:16D6H         PUBLIC        _UART0_Init
  D:00C8H         PUBLIC        T2CON
  C:3206H         PUBLIC        _UART0_GetFlagStatus
  D:00D0H         PUBLIC        PSW
  -------         PROC          UART0_DEINIT
  C:3049H         LINE#         20
  C:3049H         LINE#         21
  C:3049H         LINE#         22
  C:304CH         LINE#         23
  C:304EH         LINE#         24
  C:3051H         LINE#         25
  C:3054H         LINE#         26
  C:3057H         LINE#         27
  -------         ENDPROC       UART0_DEINIT
  -------         PROC          _UART0_INIT
  X:0015H         SYMBOL        Uart0Fsys
  X:0019H         SYMBOL        BaudRate
  X:001DH         SYMBOL        Mode
  X:001EH         SYMBOL        ClockMode
  X:001FH         SYMBOL        RxMode
  C:16D6H         LINE#         40
  C:16DCH         LINE#         42
  C:16DCH         LINE#         43
  C:16EEH         LINE#         44
  C:16FBH         LINE#         45
  C:16FEH         LINE#         46
  C:16FEH         LINE#         47
  C:1728H         LINE#         48
  C:1749H         LINE#         49
  C:174BH         LINE#         50
  C:174CH         LINE#         51
  C:1753H         LINE#         52
BL51 BANKED LINKER/LOCATER V6.22                                                      02/20/2019  13:49:04  PAGE 68


  C:1753H         LINE#         53
  C:177DH         LINE#         54
  C:179EH         LINE#         55
  C:179EH         LINE#         56
  -------         ENDPROC       _UART0_INIT
  -------         PROC          _UART0_SENDDATA8
  D:0007H         SYMBOL        Data
  C:323CH         LINE#         64
  C:323CH         LINE#         65
  C:323CH         LINE#         66
  C:323EH         LINE#         67
  -------         ENDPROC       _UART0_SENDDATA8
  -------         PROC          UART0_RECEIVEDATA8
  C:323FH         LINE#         75
  C:323FH         LINE#         76
  C:323FH         LINE#         77
  C:3241H         LINE#         78
  -------         ENDPROC       UART0_RECEIVEDATA8
  -------         PROC          _UART0_SENDDATA9
  D:0004H         SYMBOL        Data
  -------         DO            
  D:0007H         SYMBOL        Data_9Bit
  -------         ENDDO         
  C:2EA2H         LINE#         86
  C:2EA6H         LINE#         87
  C:2EA6H         LINE#         89
  C:2EA7H         LINE#         90
  C:2EA9H         LINE#         91
  C:2EA9H         LINE#         92
  C:2EACH         LINE#         93
  C:2EAEH         LINE#         95
  C:2EAEH         LINE#         96
  C:2EB1H         LINE#         97
  C:2EB1H         LINE#         98
  C:2EB5H         LINE#         99
  -------         ENDPROC       _UART0_SENDDATA9
  -------         PROC          UART0_RECEIVEDATA9
  -------         DO            
  D:0006H         SYMBOL        Data9
  -------         ENDDO         
  C:2E4FH         LINE#         107
  C:2E4FH         LINE#         108
  C:2E4FH         LINE#         110
  C:2E61H         LINE#         111
  C:2E64H         LINE#         112
  C:2E64H         LINE#         113
  -------         ENDPROC       UART0_RECEIVEDATA9
  -------         PROC          _UART0_ITCONFIG
  D:0007H         SYMBOL        NewState
  D:0005H         SYMBOL        Priority
  C:2FB8H         LINE#         122
  C:2FB8H         LINE#         123
  C:2FB8H         LINE#         124
  C:2FBBH         LINE#         125
  C:2FBBH         LINE#         126
  C:2FBDH         LINE#         127
  C:2FBFH         LINE#         129
BL51 BANKED LINKER/LOCATER V6.22                                                      02/20/2019  13:49:04  PAGE 69


  C:2FBFH         LINE#         130
  C:2FC1H         LINE#         131
  C:2FC1H         LINE#         133
  C:2FC4H         LINE#         134
  C:2FC4H         LINE#         135
  C:2FC6H         LINE#         136
  C:2FC7H         LINE#         138
  C:2FC7H         LINE#         139
  C:2FC9H         LINE#         140
  C:2FC9H         LINE#         141
  -------         ENDPROC       _UART0_ITCONFIG
  -------         PROC          _UART0_GETFLAGSTATUS
  D:0007H         SYMBOL        UART0_Flag
  C:3206H         LINE#         149
  C:3206H         LINE#         150
  C:3206H         LINE#         151
  C:320AH         LINE#         152
  -------         ENDPROC       _UART0_GETFLAGSTATUS
  -------         PROC          _UART0_CLEARFLAG
  D:0007H         SYMBOL        UART0_Flag
  C:320BH         LINE#         160
  C:320BH         LINE#         161
  C:320BH         LINE#         162
  C:320FH         LINE#         163
  -------         ENDPROC       _UART0_CLEARFLAG
  -------         ENDMOD        SC92F854X_UART0

  -------         MODULE        S_TOUCHKEYCFG
  C:0000H         SYMBOL        _ICE_DUMMY_
  X:003EH         PUBLIC        ConfirmTouchCnt
  X:003FH         PUBLIC        BaseLine
  C:2CD4H         PUBLIC        TouchKeyCFGInit
  C:2FDCH         PUBLIC        _GetBaseLineAdjustValue
  X:0045H         PUBLIC        FloatAreaCnt
  B:00D0H.7       PUBLIC        TK_CY
  C:2AC9H         PUBLIC        _GetCurrFingerValue
  X:0048H         PUBLIC        CurrentChannel
  X:004BH         PUBLIC        RawData
  X:0051H         PUBLIC        TouchCnt
  C:1269H         PUBLIC        TouchKeyScan
  C:3152H         PUBLIC        SetOneKeyPushResetTime
  C:2FCAH         PUBLIC        _GetScanTimeValue
  X:0054H         PUBLIC        DifferAccum
  X:005AH         PUBLIC        RestAreaCnt
  C:24EEH         PUBLIC        CurrentSensorChoose
  C:31C9H         PUBLIC        GetInitAutoUpdateTime
  C:2A9CH         PUBLIC        _GetCfgMsg
  X:005DH         PUBLIC        SOCAPI_TouchKeyStatus
  C:31D1H         PUBLIC        GetUpConfirmCnt
  X:005EH         PUBLIC        UpdateBaseLNum
  X:0060H         PUBLIC        SetNoiseThreshold
  C:315DH         PUBLIC        GetBaselineUpdateThreshold
  X:0061H         PUBLIC        FilterData
  X:0067H         PUBLIC        NoTouchCnt
  C:2851H         PUBLIC        TKChannelCfg
  C:282FH         PUBLIC        TKCFG
  D:00D0H         PUBLIC        TK_PSW
BL51 BANKED LINKER/LOCATER V6.22                                                      02/20/2019  13:49:04  PAGE 70


  -------         PROC          SETONEKEYPUSHRESETTIME
  C:3152H         LINE#         85
  C:3152H         LINE#         86
  C:3152H         LINE#         87
  C:315CH         LINE#         88
  -------         ENDPROC       SETONEKEYPUSHRESETTIME
  -------         PROC          GETBASELINEUPDATETHRESHOLD
  C:315DH         LINE#         96
  C:315DH         LINE#         97
  C:315DH         LINE#         98
  C:3167H         LINE#         99
  -------         ENDPROC       GETBASELINEUPDATETHRESHOLD
  -------         PROC          GETINITAUTOUPDATETIME
  C:31C9H         LINE#         108
  C:31C9H         LINE#         109
  C:31C9H         LINE#         110
  C:31D0H         LINE#         111
  -------         ENDPROC       GETINITAUTOUPDATETIME
  -------         PROC          _GETCURRFINGERVALUE
  D:0005H         SYMBOL        i
  C:2AC9H         LINE#         119
  C:2ACBH         LINE#         120
  C:2ACBH         LINE#         121
  C:2AF4H         LINE#         122
  -------         ENDPROC       _GETCURRFINGERVALUE
  -------         PROC          _GETSCANTIMEVALUE
  D:0007H         SYMBOL        i
  C:2FCAH         LINE#         131
  C:2FCAH         LINE#         132
  C:2FCAH         LINE#         133
  C:2FDBH         LINE#         134
  -------         ENDPROC       _GETSCANTIMEVALUE
  -------         PROC          _GETBASELINEADJUSTVALUE
  D:0007H         SYMBOL        i
  C:2FDCH         LINE#         143
  C:2FDCH         LINE#         144
  C:2FDCH         LINE#         145
  C:2FEDH         LINE#         146
  -------         ENDPROC       _GETBASELINEADJUSTVALUE
  -------         PROC          GETUPCONFIRMCNT
  C:31D1H         LINE#         154
  C:31D1H         LINE#         155
  C:31D1H         LINE#         156
  C:31D8H         LINE#         157
  -------         ENDPROC       GETUPCONFIRMCNT
  -------         PROC          CURRENTSENSORCHOOSE
  -------         DO            
  D:0003H         SYMBOL        i
  D:0002H         SYMBOL        Ctk_Channel_mark
  X:0000H         SYMBOL        CurrentSensorKey
  -------         ENDDO         
  C:24EEH         LINE#         165
  C:24EEH         LINE#         166
  C:24EEH         LINE#         167
  C:24F0H         LINE#         168
  C:24F1H         LINE#         169
  C:24FBH         LINE#         171
BL51 BANKED LINKER/LOCATER V6.22                                                      02/20/2019  13:49:04  PAGE 71


  C:2505H         LINE#         173
  C:2505H         LINE#         174
  C:2505H         LINE#         175
  C:251EH         LINE#         176
  C:2521H         LINE#         177
  C:2521H         LINE#         178
  C:252DH         LINE#         179
  C:252EH         LINE#         180
  C:2534H         LINE#         181
  C:2534H         LINE#         182
  C:2534H         LINE#         183
  C:2539H         LINE#         184
  C:253DH         LINE#         185
  -------         ENDPROC       CURRENTSENSORCHOOSE
  -------         PROC          _GETCFGMSG
  D:0007H         SYMBOL        i
  C:2A9CH         LINE#         194
  C:2A9CH         LINE#         195
  C:2A9CH         LINE#         196
  C:2AADH         LINE#         197
  C:2AADH         LINE#         198
  C:2AB2H         LINE#         199
  C:2AB7H         LINE#         200
  C:2ABAH         LINE#         201
  C:2ABEH         LINE#         202
  C:2AC6H         LINE#         203
  C:2AC8H         LINE#         204
  C:2AC8H         LINE#         205
  -------         ENDPROC       _GETCFGMSG
  -------         PROC          TOUCHKEYCFGINIT
  C:2CD4H         LINE#         214
  C:2CD4H         LINE#         215
  C:2CD4H         LINE#         216
  C:2CDEH         LINE#         217
  C:2CE8H         LINE#         218
  C:2CEBH         LINE#         219
  C:2CF2H         LINE#         220
  -------         ENDPROC       TOUCHKEYCFGINIT
  -------         PROC          TOUCHKEYSCAN
  -------         DO            
  X:0000H         SYMBOL        t
  X:0001H         SYMBOL        Keyvalue
  X:0005H         SYMBOL        KeyData
  -------         ENDDO         
  C:1269H         LINE#         232
  C:1269H         LINE#         233
  C:1269H         LINE#         236
  C:1273H         LINE#         238
  C:127BH         LINE#         239
  C:127BH         LINE#         240
  C:1284H         LINE#         242
  C:1292H         LINE#         243
  C:1292H         LINE#         244
  C:12A9H         LINE#         245
  C:12ACH         LINE#         246
  C:12ACH         LINE#         247
  C:12EDH         LINE#         248
BL51 BANKED LINKER/LOCATER V6.22                                                      02/20/2019  13:49:04  PAGE 72


  C:12EFH         LINE#         249
  C:12EFH         LINE#         250
  C:12F7H         LINE#         252
  C:1310H         LINE#         253
  C:1310H         LINE#         254
  C:131EH         LINE#         255
  C:1320H         LINE#         257
  C:1320H         LINE#         258
  C:1327H         LINE#         259
  C:1327H         LINE#         261
  C:1337H         LINE#         262
  C:1337H         LINE#         263
  C:133AH         LINE#         264
  C:1341H         LINE#         265
  C:1341H         LINE#         266
  C:1343H         LINE#         268
  C:1343H         LINE#         269
  C:134EH         LINE#         270
  C:134EH         LINE#         272
  C:135CH         LINE#         273
  -------         ENDPROC       TOUCHKEYSCAN
  -------         ENDMOD        S_TOUCHKEYCFG

  -------         MODULE        SENSORMETHOD
  C:0000H         SYMBOL        _ICE_DUMMY_
  D:0008H         PUBLIC        FlowFingerRoundIndex
  D:00CFH         PUBLIC        TK_WDTCR
  B:00A8H.7       PUBLIC        TK_EA
  D:00E4H         PUBLIC        TKCNT
  X:00B4H         PUBLIC        MultipleKeyNosicCount
  X:00B5H         PUBLIC        StrongNosicCount
  D:00A8H         PUBLIC        TK_IE
  C:27EEH         PUBLIC        InitializeSensorFlag
  X:00B6H         PUBLIC        WeakNosicCount
  D:0009H         PUBLIC        ScanTime
  C:3242H         PUBLIC        TouchKeyRestart
  X:00B7H         PUBLIC        MultipleKeyInhibitionCount
  X:00B8H         PUBLIC        BigNosicCount
  D:00E1H         PUBLIC        TKCFG0
  D:00E2H         PUBLIC        TKCFG1
  D:00E3H         PUBLIC        TKCFG2
  C:2448H         PUBLIC        SensorKeyFlag
  D:000BH         PUBLIC        KeyFlag
  D:000FH         PUBLIC        FlowFingerRoundCnt
  C:1BF7H         PUBLIC        CTK_ISR
  B:0022H.7       PUBLIC        bMultiple
  X:00B9H         PUBLIC        RemoveTopCount
  D:00E8H         PUBLIC        TKCR
  C:2CF3H         PUBLIC        InitializeBaselines
  B:00E8H.6       PUBLIC        TRIG
  D:0011H         PUBLIC        KeyMark
  C:3248H         PUBLIC        SetNeedUpdateBaseline
  D:00A9H         PUBLIC        TK_IE1
  C:29A8H         PUBLIC        FilterAvergeDeal
  D:00E6H         PUBLIC        TKTM
  X:00BAH         PUBLIC        MultipleDealIndex
  C:0100H         PUBLIC        SensorRenovate
BL51 BANKED LINKER/LOCATER V6.22                                                      02/20/2019  13:49:04  PAGE 73


  B:0023H.0       PUBLIC        bNeedUpdate
  C:20F5H         PUBLIC        TouchKeyInit
  C:1B49H         PUBLIC        _MultipleDeal
  D:0015H         PUBLIC        CurrentChannelMax
  C:30B7H         PUBLIC        _Usdelay
  C:1927H         PUBLIC        _FilterDataDeal
  D:0016H         PUBLIC        CurrentIndex
  C:2D11H         PUBLIC        FilterIIRInit
  C:3245H         PUBLIC        GetIsNeedUpdateBaseline
  D:0017H         PUBLIC        IsInNosicValue
  C:290DH         PUBLIC        FilterCommCode
  C:1055H         SYMBOL        Com0095
  C:1055H         SYMBOL        L?0150
  C:1055H         SYMBOL        L?0151
  C:1058H         SYMBOL        L?0152
  C:1065H         SYMBOL        L?0153
  C:1067H         SYMBOL        L?0154
  C:106AH         SYMBOL        L?0155
  C:1070H         SYMBOL        L?0156
  C:1070H         SYMBOL        L?0157
  C:1072H         SYMBOL        L?0158
  C:107BH         SYMBOL        L?0159
  C:107BH         SYMBOL        L?0160
  C:107CH         SYMBOL        L?0161
  C:1080H         SYMBOL        L?0162
  C:1089H         SYMBOL        L?0163
  C:1099H         SYMBOL        L?0164
  C:10A3H         SYMBOL        L?0165
  C:10A3H         SYMBOL        L?0166
  C:10A7H         SYMBOL        L?0167
  C:10AFH         SYMBOL        L?0168
  C:10B1H         SYMBOL        L?0169
  C:10B4H         SYMBOL        L?0170
  C:10BAH         SYMBOL        L?0171
  C:10BAH         SYMBOL        L?0172
  C:10BEH         SYMBOL        L?0173
  C:10C6H         SYMBOL        L?0174
  C:10C7H         SYMBOL        L?0175
  C:10CBH         SYMBOL        L?0176
  C:10D3H         SYMBOL        L?0177
  C:10D3H         SYMBOL        L?0178
  C:10D7H         SYMBOL        L?0179
  C:10DFH         SYMBOL        L?0180
  C:10E0H         SYMBOL        L?0181
  C:10F0H         SYMBOL        L?0182
  C:110DH         SYMBOL        L?0183
  C:1110H         SYMBOL        L?0184
  C:1111H         SYMBOL        L?0185
  C:111BH         SYMBOL        L?0186
  C:111DH         SYMBOL        L?0187
  C:1120H         SYMBOL        L?0188
  C:1126H         SYMBOL        L?0189
  C:1126H         SYMBOL        L?0190
  C:112DH         SYMBOL        L?0191
  C:113BH         SYMBOL        L?0192
  C:113BH         SYMBOL        L?0193
  C:1144H         SYMBOL        L?0195
BL51 BANKED LINKER/LOCATER V6.22                                                      02/20/2019  13:49:04  PAGE 74


  C:1144H         SYMBOL        L?0196
  C:114CH         SYMBOL        L?0197
  C:114CH         SYMBOL        L?0198
  C:1154H         SYMBOL        L?0199
  C:1160H         SYMBOL        L?0200
  C:1160H         SYMBOL        L?0201
  -------         PROC          COM0095
  -------         ENDPROC       COM0095
  -------         PROC          _USDELAY
  D:0006H         SYMBOL        delay
  C:30B7H         LINE#         124
  C:30B7H         LINE#         125
  C:30B7H         LINE#         126
  C:30BBH         LINE#         127
  C:30BBH         LINE#         128
  C:30C0H         LINE#         129
  C:30C2H         LINE#         130
  -------         ENDPROC       _USDELAY
  -------         PROC          CTK_ISR
  -------         DO            
  B:0020H.0       SYMBOL        Scanflag
  -------         ENDDO         
  C:1BF7H         LINE#         139
  C:1C14H         LINE#         141
  C:1C16H         LINE#         143
  C:1C22H         LINE#         144
  C:1C24H         LINE#         146
  C:1C2BH         LINE#         147
  C:1C2BH         LINE#         148
  C:1C31H         LINE#         149
  C:1C31H         LINE#         150
  C:1C31H         LINE#         151
  C:1C31H         LINE#         152
  C:1C33H         LINE#         153
  C:1C3AH         LINE#         154
  C:1C3AH         LINE#         155
  C:1C41H         LINE#         156
  C:1C43H         LINE#         158
  C:1C43H         LINE#         159
  C:1C45H         LINE#         160
  C:1C45H         LINE#         161
  C:1C47H         LINE#         163
  C:1C47H         LINE#         164
  C:1C4EH         LINE#         165
  C:1C4EH         LINE#         166
  C:1C51H         LINE#         167
  C:1C58H         LINE#         168
  C:1C5AH         LINE#         170
  C:1C5AH         LINE#         171
  C:1C5CH         LINE#         172
  C:1C5CH         LINE#         173
  C:1C5CH         LINE#         175
  C:1C64H         LINE#         177
  C:1C70H         LINE#         178
  C:1C80H         LINE#         180
  C:1C85H         LINE#         182
  -------         ENDPROC       CTK_ISR
BL51 BANKED LINKER/LOCATER V6.22                                                      02/20/2019  13:49:04  PAGE 75


  -------         PROC          TOUCHKEYINIT
  C:20F5H         LINE#         191
  C:20F5H         LINE#         192
  C:20F5H         LINE#         193
  C:20F7H         LINE#         194
  C:20FAH         LINE#         196
  C:20FCH         LINE#         197
  C:20FFH         LINE#         198
  C:2103H         LINE#         200
  C:2106H         LINE#         201
  C:211DH         LINE#         202
  C:2125H         LINE#         204
  C:213BH         LINE#         205
  C:2147H         LINE#         206
  C:214EH         LINE#         208
  C:2151H         LINE#         209
  C:2154H         LINE#         212
  C:215AH         LINE#         213
  C:215DH         LINE#         214
  -------         ENDPROC       TOUCHKEYINIT
  -------         PROC          TOUCHKEYRESTART
  C:3242H         LINE#         224
  C:3242H         LINE#         225
  C:3242H         LINE#         226
  C:3244H         LINE#         227
  -------         ENDPROC       TOUCHKEYRESTART
  -------         PROC          FILTERCOMMCODE
  -------         DO            
  D:0005H         SYMBOL        times
  -------         ENDDO         
  C:290DH         LINE#         236
  C:290DH         LINE#         237
  C:290DH         LINE#         238
  C:290FH         LINE#         240
  C:2916H         LINE#         241
  C:2918H         LINE#         242
  C:291FH         LINE#         243
  C:291FH         LINE#         244
  C:291FH         LINE#         245
  C:291FH         LINE#         246
  C:291FH         LINE#         247
  C:291FH         LINE#         248
  C:291FH         LINE#         249
  C:2926H         LINE#         250
  C:2928H         LINE#         251
  C:2928H         LINE#         252
  C:292FH         LINE#         253
  C:292FH         LINE#         254
  C:2936H         LINE#         255
  C:2939H         LINE#         256
  C:293AH         LINE#         257
  C:2940H         LINE#         258
  C:2941H         LINE#         260
  -------         ENDPROC       FILTERCOMMCODE
  -------         PROC          FILTERAVERGEDEAL
  -------         DO            
  D:0024H         SYMBOL        t
BL51 BANKED LINKER/LOCATER V6.22                                                      02/20/2019  13:49:04  PAGE 76


  D:0025H         SYMBOL        i
  -------         ENDDO         
  C:29A8H         LINE#         269
  C:29A8H         LINE#         270
  C:29A8H         LINE#         273
  C:29ABH         LINE#         275
  C:29ABH         LINE#         276
  C:29AEH         LINE#         277
  C:29B5H         LINE#         278
  C:29B8H         LINE#         280
  C:29BDH         LINE#         282
  C:29BDH         LINE#         283
  C:29C0H         LINE#         284
  C:29CAH         LINE#         285
  C:29CAH         LINE#         286
  C:29CFH         LINE#         287
  C:29D3H         LINE#         288
  C:29DAH         LINE#         289
  -------         ENDPROC       FILTERAVERGEDEAL
  -------         PROC          INITIALIZEBASELINES
  -------         DO            
  D:0007H         SYMBOL        i
  -------         ENDDO         
  C:2CF3H         LINE#         298
  C:2CF3H         LINE#         299
  C:2CF3H         LINE#         301
  C:2CFBH         LINE#         302
  C:2CFBH         LINE#         303
  C:2D0DH         LINE#         304
  C:2D10H         LINE#         305
  -------         ENDPROC       INITIALIZEBASELINES
  -------         PROC          SENSORKEYFLAG
  -------         DO            
  D:0024H         SYMBOL        i
  -------         ENDDO         
  C:2448H         LINE#         314
  C:2448H         LINE#         315
  C:2448H         LINE#         318
  C:244BH         LINE#         319
  C:244FH         LINE#         321
  C:2458H         LINE#         322
  C:2458H         LINE#         323
  C:245DH         LINE#         324
  C:2461H         LINE#         326
  C:2468H         LINE#         327
  C:2468H         LINE#         328
  C:2471H         LINE#         329
  C:2471H         LINE#         330
  C:2471H         LINE#         331
  C:2471H         LINE#         332
  C:2473H         LINE#         334
  C:2473H         LINE#         335
  C:2476H         LINE#         336
  C:2476H         LINE#         338
  C:247CH         LINE#         339
  C:247CH         LINE#         340
  C:247DH         LINE#         341
BL51 BANKED LINKER/LOCATER V6.22                                                      02/20/2019  13:49:04  PAGE 77


  C:248BH         LINE#         342
  C:248BH         LINE#         343
  C:248DH         LINE#         344
  C:248DH         LINE#         345
  C:248FH         LINE#         347
  C:248FH         LINE#         348
  C:2494H         LINE#         349
  C:2494H         LINE#         350
  C:249CH         LINE#         351
  -------         ENDPROC       SENSORKEYFLAG
  C:04D1H         SYMBOL        L?0194
  -------         PROC          SENSORRENOVATE
  -------         DO            
  D:0025H         SYMBOL        differData
  D:0027H         SYMBOL        MaxDifferData
  D:0029H         SYMBOL        SencondMaxDifferData
  D:002BH         SYMBOL        result
  D:002CH         SYMBOL        j
  D:002DH         SYMBOL        RealConfirmTouchCnt
  D:002EH         SYMBOL        KeyIndex
  D:002FH         SYMBOL        MultipleKeyCount
  D:0030H         SYMBOL        SetFingerThresholdtmp
  -------         ENDDO         
  C:0100H         LINE#         360
  C:0100H         LINE#         361
  C:0100H         LINE#         366
  C:0103H         LINE#         367
  C:0106H         LINE#         370
  C:010EH         LINE#         371
  C:0112H         LINE#         372
  C:0116H         LINE#         374
  C:011FH         LINE#         375
  C:011FH         LINE#         376
  C:0133H         LINE#         377
  C:0140H         LINE#         378
  C:0140H         LINE#         379
  C:0143H         LINE#         380
  C:014FH         LINE#         381
  C:014FH         LINE#         382
  C:0155H         LINE#         383
  C:015BH         LINE#         384
  C:015EH         LINE#         385
  C:0160H         LINE#         386
  C:016CH         LINE#         387
  C:016CH         LINE#         388
  C:0172H         LINE#         389
  C:0172H         LINE#         390
  C:0182H         LINE#         391
  C:0182H         LINE#         392
  C:0184H         LINE#         393
  C:0184H         LINE#         394
  C:0190H         LINE#         395
  C:0190H         LINE#         396
  C:0192H         LINE#         397
  C:0192H         LINE#         398
  C:0192H         LINE#         399
  C:0197H         LINE#         402
BL51 BANKED LINKER/LOCATER V6.22                                                      02/20/2019  13:49:04  PAGE 78


  C:019FH         LINE#         403
  C:019FH         LINE#         404
  C:01A6H         LINE#         405
  C:01A6H         LINE#         406
  C:01ACH         LINE#         407
  C:01B9H         LINE#         408
  C:01B9H         LINE#         409
  C:01B9H         LINE#         410
  C:01B9H         LINE#         411
  C:01BBH         LINE#         413
  C:01BBH         LINE#         415
  C:01BBH         LINE#         416
  C:01C0H         LINE#         417
  C:01C0H         LINE#         420
  C:01CAH         LINE#         421
  C:01CAH         LINE#         422
  C:01D0H         LINE#         423
  C:01D5H         LINE#         424
  C:01E6H         LINE#         425
  C:01E6H         LINE#         426
  C:01E8H         LINE#         427
  C:01EAH         LINE#         428
  C:01EBH         LINE#         430
  C:01EBH         LINE#         431
  C:01F7H         LINE#         432
  C:01F7H         LINE#         433
  C:01FCH         LINE#         434
  C:01FFH         LINE#         435
  C:020DH         LINE#         436
  C:020DH         LINE#         437
  C:020FH         LINE#         438
  C:0211H         LINE#         439
  C:0211H         LINE#         440
  C:0213H         LINE#         441
  C:021AH         LINE#         442
  C:021AH         LINE#         443
  C:021FH         LINE#         444
  C:0223H         LINE#         445
  C:0226H         LINE#         446
  C:0226H         LINE#         447
  C:0229H         LINE#         448
  C:0237H         LINE#         449
  C:0237H         LINE#         450
  C:0239H         LINE#         451
  C:023BH         LINE#         452
  C:023BH         LINE#         453
  C:023BH         LINE#         454
  C:023BH         LINE#         455
  C:023BH         LINE#         458
  C:0240H         LINE#         459
  C:0240H         LINE#         460
  C:0249H         LINE#         461
  C:0278H         LINE#         462
  C:0278H         LINE#         463
  C:027BH         LINE#         464
  C:0290H         LINE#         465
  C:0292H         LINE#         467
BL51 BANKED LINKER/LOCATER V6.22                                                      02/20/2019  13:49:04  PAGE 79


  C:0292H         LINE#         468
  C:0295H         LINE#         469
  C:029DH         LINE#         470
  C:029DH         LINE#         471
  C:029FH         LINE#         473
  C:029FH         LINE#         474
  C:02A2H         LINE#         475
  C:02A2H         LINE#         478
  C:02ABH         LINE#         479
  C:02ABH         LINE#         480
  C:02B0H         LINE#         481
  C:02B0H         LINE#         482
  C:02B9H         LINE#         483
  C:02B9H         LINE#         484
  C:02BFH         LINE#         485
  C:02BFH         LINE#         487
  C:02C6H         LINE#         488
  C:02C6H         LINE#         489
  C:02CCH         LINE#         490
  C:02CEH         LINE#         492
  C:02CEH         LINE#         493
  C:02D0H         LINE#         494
  C:02D0H         LINE#         496
  C:02D9H         LINE#         497
  C:02D9H         LINE#         498
  C:02F4H         LINE#         499
  C:02F9H         LINE#         500
  C:0302H         LINE#         501
  C:0302H         LINE#         502
  C:0308H         LINE#         503
  C:0308H         LINE#         504
  C:0311H         LINE#         505
  C:0311H         LINE#         506
  C:0315H         LINE#         507
  C:0315H         LINE#         508
  C:0315H         LINE#         510
  C:031EH         LINE#         511
  C:0327H         LINE#         512
  C:0330H         LINE#         513
  C:0339H         LINE#         515
  C:0339H         LINE#         517
  C:0346H         LINE#         518
  C:0346H         LINE#         519
  C:0350H         LINE#         520
  C:0350H         LINE#         521
  C:0353H         LINE#         522
  C:0353H         LINE#         524
  C:0353H         LINE#         525
  C:0367H         LINE#         526
  C:036AH         LINE#         527
  C:0389H         LINE#         528
  C:0389H         LINE#         529
  C:0391H         LINE#         530
  C:0391H         LINE#         531
  C:039CH         LINE#         532
  C:03A4H         LINE#         533
  C:03A4H         LINE#         534
BL51 BANKED LINKER/LOCATER V6.22                                                      02/20/2019  13:49:04  PAGE 80


  C:03ABH         LINE#         535
  C:03ABH         LINE#         536
  C:03ADH         LINE#         537
  C:03B8H         LINE#         538
  C:03B8H         LINE#         539
  C:03C2H         LINE#         540
  C:03C9H         LINE#         541
  C:03C9H         LINE#         542
  C:03CDH         LINE#         543
  C:03D2H         LINE#         544
  C:03D2H         LINE#         545
  C:03D5H         LINE#         546
  C:03F0H         LINE#         547
  C:03F0H         LINE#         548
  C:03F6H         LINE#         549
  C:03FFH         LINE#         550
  C:03FFH         LINE#         552
  C:0405H         LINE#         553
  C:0405H         LINE#         554
  C:040AH         LINE#         555
  C:040CH         LINE#         556
  C:040FH         LINE#         558
  C:040FH         LINE#         559
  C:042BH         LINE#         560
  C:042BH         LINE#         561
  C:042BH         LINE#         562
  C:042DH         LINE#         563
  C:043CH         LINE#         564
  C:043CH         LINE#         565
  C:0444H         LINE#         566
  C:0444H         LINE#         567
  C:0449H         LINE#         568
  C:0450H         LINE#         569
  C:0450H         LINE#         570
  C:0455H         LINE#         571
  C:0467H         LINE#         572
  C:0467H         LINE#         573
  C:0467H         LINE#         574
  C:0467H         LINE#         575
  C:0467H         LINE#         577
  C:0470H         LINE#         578
  C:0470H         LINE#         579
  C:048EH         LINE#         580
  C:048EH         LINE#         581
  C:0494H         LINE#         582
  C:0499H         LINE#         583
  C:04A2H         LINE#         584
  C:04A2H         LINE#         585
  C:04A7H         LINE#         586
  C:04AFH         LINE#         587
  C:04AFH         LINE#         588
  C:04AFH         LINE#         589
  C:04B1H         LINE#         591
  C:04B1H         LINE#         592
  C:04BAH         LINE#         593
  C:04BAH         LINE#         594
  C:04C0H         LINE#         595
BL51 BANKED LINKER/LOCATER V6.22                                                      02/20/2019  13:49:04  PAGE 81


  C:04C0H         LINE#         596
  C:04C0H         LINE#         597
  C:04C2H         LINE#         599
  C:04C2H         LINE#         600
  C:04CBH         LINE#         601
  C:04CBH         LINE#         602
  C:04D0H         LINE#         604
  -------         ENDPROC       SENSORRENOVATE
  -------         PROC          FILTERIIRINIT
  -------         DO            
  D:0007H         SYMBOL        i
  -------         ENDDO         
  C:2D11H         LINE#         612
  C:2D11H         LINE#         613
  C:2D11H         LINE#         615
  C:2D19H         LINE#         616
  C:2D19H         LINE#         617
  C:2D2BH         LINE#         618
  C:2D2EH         LINE#         619
  -------         ENDPROC       FILTERIIRINIT
  -------         PROC          _FILTERDATADEAL
  D:0026H         SYMBOL        i
  -------         DO            
  D:0004H         SYMBOL        FilterTemp
  D:0027H         SYMBOL        SetFingerThresholdtmp
  -------         ENDDO         
  C:1927H         LINE#         628
  C:1929H         LINE#         629
  C:1929H         LINE#         633
  C:1930H         LINE#         635
  C:193FH         LINE#         636
  C:1960H         LINE#         637
  C:1960H         LINE#         638
  C:1968H         LINE#         639
  C:196EH         LINE#         640
  C:1971H         LINE#         642
  C:1971H         LINE#         643
  C:197BH         LINE#         644
  C:1996H         LINE#         645
  C:1996H         LINE#         646
  C:199EH         LINE#         647
  C:19A0H         LINE#         649
  C:19A0H         LINE#         650
  C:19D8H         LINE#         651
  C:19D8H         LINE#         652
  C:19D8H         LINE#         654
  C:19E0H         LINE#         655
  -------         ENDPROC       _FILTERDATADEAL
  -------         PROC          GETISNEEDUPDATEBASELINE
  C:3245H         LINE#         664
  C:3245H         LINE#         665
  C:3245H         LINE#         666
  C:3247H         LINE#         667
  -------         ENDPROC       GETISNEEDUPDATEBASELINE
  -------         PROC          SETNEEDUPDATEBASELINE
  C:3248H         LINE#         676
  C:3248H         LINE#         677
BL51 BANKED LINKER/LOCATER V6.22                                                      02/20/2019  13:49:04  PAGE 82


  C:3248H         LINE#         678
  C:324AH         LINE#         679
  -------         ENDPROC       SETNEEDUPDATEBASELINE
  -------         PROC          INITIALIZESENSORFLAG
  -------         DO            
  D:0007H         SYMBOL        i
  -------         ENDDO         
  C:27EEH         LINE#         688
  C:27EEH         LINE#         689
  C:27EEH         LINE#         691
  C:27F6H         LINE#         692
  C:27F6H         LINE#         693
  C:27FEH         LINE#         694
  C:2806H         LINE#         695
  C:280EH         LINE#         696
  C:2819H         LINE#         697
  C:281CH         LINE#         699
  C:2825H         LINE#         700
  C:2828H         LINE#         701
  C:282CH         LINE#         702
  C:282EH         LINE#         703
  -------         ENDPROC       INITIALIZESENSORFLAG
  -------         PROC          _MULTIPLEDEAL
  D:0024H         SYMBOL        CycleCnt
  -------         DO            
  X:00B3H         SYMBOL        InitSensorCnt
  D:0006H         SYMBOL        FilterTemp
  D:0025H         SYMBOL        t
  -------         ENDDO         
  C:1B49H         LINE#         712
  C:1B4BH         LINE#         713
  C:1B4BH         LINE#         719
  C:1B54H         LINE#         720
  C:1B54H         LINE#         721
  C:1B54H         LINE#         722
  C:1B54H         LINE#         723
  C:1B54H         LINE#         724
  C:1B57H         LINE#         726
  C:1B57H         LINE#         728
  C:1B5DH         LINE#         729
  C:1B61H         LINE#         730
  C:1B61H         LINE#         731
  C:1B64H         LINE#         732
  C:1B67H         LINE#         733
  C:1B67H         LINE#         735
  C:1B73H         LINE#         736
  C:1B73H         LINE#         737
  C:1B7DH         LINE#         738
  C:1B7DH         LINE#         739
  C:1B94H         LINE#         740
  C:1BADH         LINE#         741
  C:1BADH         LINE#         742
  C:1BB2H         LINE#         743
  C:1BB6H         LINE#         745
  C:1BC1H         LINE#         746
  C:1BC1H         LINE#         747
  C:1BC3H         LINE#         748
BL51 BANKED LINKER/LOCATER V6.22                                                      02/20/2019  13:49:04  PAGE 83


  C:1BC3H         LINE#         750
  C:1BD3H         LINE#         751
  C:1BD3H         LINE#         752
  C:1BD5H         LINE#         753
  C:1BD7H         LINE#         754
  C:1BDDH         LINE#         755
  C:1BECH         LINE#         756
  C:1BECH         LINE#         757
  C:1BEEH         LINE#         758
  C:1BF1H         LINE#         759
  C:1BF4H         LINE#         760
  C:1BF6H         LINE#         761
  C:1BF6H         LINE#         762
  C:1BF6H         LINE#         763
  C:1BF6H         LINE#         764
