C51 COMPILER V9.00   SC95F761X_IT                                                          11/12/2019 17:25:37 PAGE 1   


C51 COMPILER V9.00, COMPILATION OF MODULE SC95F761X_IT
OBJECT MODULE PLACED IN ..\OUTPUT\sc95f761x_it.obj
COMPILER INVOKED BY: C:\Keil\C51\BIN\C51.EXE ..\USER\C\sc95f761x_it.c LARGE BROWSE INCDIR(..\..\..\SC95F761x_lib\inc;..\
                    -USER\H) DEBUG OBJECTEXTEND PRINT(..\LST\sc95f761x_it.lst) OBJECT(..\OUTPUT\sc95f761x_it.obj)

line level    source

   1          //************************************************************
   2          //  Copyright (c) 深圳市赛元微电子有限公司
   3          //      文件名称        : SC95F761x_it.c
   4          //      作者            : 
   5          //      模块功能        : SC95F761x_IT固件库函数C文件
   6          //      局部函数列表:
   7          //  最后更正日期: 2019/04/16
   8          //      版本            : V1.0   
   9          //************************************************************
  10          
  11          #include "SC95F761x_gpio.h"
  12          #include "SC95F761x_timer0.h"
  13          #include "SC95F761x_timer1.h"
  14          #include "SC95F761x_timerx.h"
  15          #include "SC95F761x_adc.h"
  16          #include "SC95F761x_btm.h"
  17          #include "SC95F761x_pwm.h"
  18          #include "SC95F761x_exti.h"
  19          #include "SC95F761x_uart0.h"
  20          #include "SC95F761x_usci0.h"
  21          #include "SC95F761x_usci1.h"
  22          #include "SC95F761x_usci2.h"
  23          #include "SC95F761x_acmp.h"
  24          
  25          
  26          bit T0Flag10ms = 0, T0Flag100ms = 0;
  27          bit SPIFLG      = 0;
  28          bit Uart0SendFlag = 0, Uart0ReceiveFlag = 0;
  29          
  30          uint8_t  CaptureState = 0;
  31          uint16_t T0Flag10msCount = 0, T0Flag100msCount = 0;
  32          uint32_t Cycle = 0;
  33          
  34          extern uint8_t Mode;
  35          
  36          
  37          void EXTI0Interrupt()           interrupt 0
  38          {
  39   1      
  40   1      }
  41          
  42          void Timer0Interrupt()          interrupt 1
  43          {
  44   1              TIM0_Mode0SetReloadCounter(8192-3200);
  45   1      
  46   1              T0Flag10msCount++;
  47   1              T0Flag100msCount++;
  48   1      
  49   1              if(T0Flag10msCount>=100)
  50   1              {
  51   2                      T0Flag10msCount = 0;
  52   2                      T0Flag10ms = 1; 
  53   2              }
  54   1              if(T0Flag100msCount>=1000)
C51 COMPILER V9.00   SC95F761X_IT                                                          11/12/2019 17:25:37 PAGE 2   

  55   1              {
  56   2                      T0Flag100msCount = 0;
  57   2                      T0Flag100ms = 1;        
  58   2              }
  59   1      }
  60          
  61          void EXTI1Interrupt()           interrupt 2
  62          {
  63   1      }
  64          
  65          void Timer1Interrupt()          interrupt 3
  66          {
  67   1              if(Mode == 2)
  68   1              {
  69   2                      if(GPIO_ReadPin(GPIO0, GPIO_PIN_6))
  70   2                      {
  71   3                              GPIO_WriteLow(GPIO0, GPIO_PIN_6);
  72   3                      }
  73   2                      else
  74   2                      {
  75   3                              GPIO_WriteHigh(GPIO0, GPIO_PIN_6);
  76   3                      }
  77   2              }
  78   1              if(Mode == 6)
  79   1              {
  80   2                      if(GPIO_ReadPin(GPIO1, GPIO_PIN_2))
  81   2                      {
  82   3                              GPIO_WriteLow(GPIO1, GPIO_PIN_2);
  83   3                      }
  84   2                      else
  85   2                      {
  86   3                              GPIO_WriteHigh(GPIO1, GPIO_PIN_2);
  87   3                      }
  88   2              }
  89   1      }
  90          
  91          void UART0Interrupt()           interrupt 4
  92          {
  93   1              if(UART0_GetFlagStatus(UART0_FLAG_TI))
  94   1              {
  95   2                      UART0_ClearFlag(UART0_FLAG_TI);                 //清除TI
  96   2                      Uart0SendFlag = 1;
  97   2              }
  98   1              else if(UART0_GetFlagStatus(UART0_FLAG_RI))
  99   1              {
 100   2                      UART0_ClearFlag(UART0_FLAG_RI);                 //清除RI
 101   2                      Uart0ReceiveFlag = 1;   
 102   2              }
 103   1      }
 104          
 105          void Timer2Interrupt()          interrupt 5
 106          {
 107   1              static uint16_t CaptureValue1, CaptureValue2;
 108   1              static uint16_t ReloadCount = 0;
 109   1              if((CaptureState&0X80) == 0)    
 110   1              {       
 111   2                  if(TIMX_GetFlagStatus(TIMX_TIMER2, TIMX_FLAG_TFX))
 112   2                      {
 113   3                              if(CaptureState & 0X40)
 114   3                              ReloadCount++;                     //ReloadCount为T2计数溢出次数
 115   3                      }
 116   2                      if(TIMX_GetFlagStatus(TIMX_TIMER2, TIMX_FLAG_EXFX))
C51 COMPILER V9.00   SC95F761X_IT                                                          11/12/2019 17:25:37 PAGE 3   

 117   2                      {                   
 118   3                              if(CaptureState & 0X40)
 119   3                              {
 120   4                                      CaptureValue2 = ((uint16_t)RCAPXH << 8) + RCAPXL;  //CaptureValue2为捕获第二个下降沿时记录的捕获值
 121   4                                      Cycle = ((65536*ReloadCount) + CaptureValue2 - CaptureValue1) / 32;     //捕获的方波周期为 （T2溢出时间+第
             -二次捕获值-第一次捕获值） 32M
 122   4                                      TLX = 0X00;             //清除计数值
 123   4                                      THX = 0X00;
 124   4                                      CaptureState |= 0X80;
 125   4                                      ReloadCount = 0;
 126   4                              }
 127   3                              else
 128   3                              {
 129   4                                      CaptureValue1 = ((uint16_t)RCAPXH << 8) + RCAPXL;  //CaptureValue1为捕获第一个下降沿时记录的捕获值
 130   4                                      CaptureState = 0X40;
 131   4                                      ReloadCount = 0;                
 132   4                              }                                                                                                                           
 133   3                      }
 134   2              }
 135   1              if(TIMX_GetFlagStatus(TIMX_TIMER2, TIMX_FLAG_TFX))
 136   1              {
 137   2                      TIMX_ClearFlag(TIMX_TIMER2, TIMX_FLAG_TFX);
 138   2              }
 139   1              if(TIMX_GetFlagStatus(TIMX_TIMER2, TIMX_FLAG_EXFX))
 140   1              {
 141   2                      TIMX_ClearFlag(TIMX_TIMER2, TIMX_FLAG_EXFX);
 142   2              }
 143   1      }
 144          
 145          void ADCInterrupt()                     interrupt 6
 146          {
 147   1      }
 148          
 149          void USCI0Interrupt()                   interrupt 7
 150          {
 151   1              
 152   1      }
 153          
 154          void PWMInterrupt()                     interrupt 8
 155          {
 156   1      
 157   1      }
 158          
 159          void BTMInterrupt()                     interrupt 9
 160          {
 161   1      
 162   1      }
 163          
 164          void EXTI2Interrupt()           interrupt 10
 165          {
 166   1      
 167   1      }
 168          
 169          void CMPInterrupt()             interrupt 12
 170          {
 171   1      
 172   1      }
 173          
 174          void Timer3Interrupt()          interrupt 13
 175          {
 176   1      
 177   1      }
C51 COMPILER V9.00   SC95F761X_IT                                                          11/12/2019 17:25:37 PAGE 4   

 178          
 179          void Timer4Interrupt()          interrupt 14
 180          {
 181   1      
 182   1      }
 183          
 184          void USCI1Interrupt()                   interrupt 15
 185          {
 186   1              if(USCI1_GetFlagStatus(USCI1_SPI_FLAG_SPIF))            //SPIF标志位
 187   1              {
 188   2                      US1CON1 &= (~0x80);
 189   2                  SPIFLG = 1;
 190   2              }
 191   1      }
 192          
 193          void USCI2Interrupt()                   interrupt 16
 194          {
 195   1              
 196   1      }


MODULE INFORMATION:   STATIC OVERLAYABLE
   CODE SIZE        =    731    ----
   CONSTANT SIZE    =   ----    ----
   XDATA SIZE       =     15    ----
   PDATA SIZE       =   ----    ----
   DATA SIZE        =   ----    ----
   IDATA SIZE       =   ----    ----
   BIT SIZE         =      5    ----
END OF MODULE INFORMATION.


C51 COMPILATION COMPLETE.  0 WARNING(S),  0 ERROR(S)
