:020000040000FA
:030000000208A44F
:030023000209339C
:10010000C00D7401C0E0C082C083750D0AE5DF54E4
:10011000FC4400F5DF22C00D7401C0E0C082C08342
:10012000750D20E5DF54FC4401F5DF22C00D74019C
:10013000C0E0C082C083750D36E5DF54FC4402F593
:10014000DF22C00D7401C0E0C082C083750D4CE594
:10015000DF54FC4403F5DF229080302116908000AC
:10016000211690800C211690801821169080242151
:1001700016908030212C908000212C90800C212C16
:10018000908018212C908024212C90803021429046
:100190008000214290800C21429080182142908062
:1001A00024214200E5082403F582E43400F583E0CD
:1001B000050822900000300703900003E475F00169
:1001C00012067D0206252000E97F2ED2008018EF5E
:1001D000540F2490D43440D4FF30040BEF24BFB428
:1001E0001A0050032461FFE50960021509050CE5BA
:1001F0000C7002050B30070E900000E475F0011240
:10020000067DEF02066B0209DC7403D2078003E46B
:10021000C207F508900000120694E4F509F50BF505
:100220000CE50960077F201201E780F5750AFFC21F
:1002300001C200C202C203C205C206C2081201B353
:10024000FF700D3007057F001201F8AF0CAE0B22D6
:10025000B4255FC2D5C2041201B3FF24D0B40A0092
:10026000501A75F00A780930D50508B6FF0106C6A0
:10027000A426F620D5047002D20380D924CFB41A64
:1002800000EF5004C2E5D2040203F9D20180C6D2C5
:100290000080C0D20280BCD2D580BAD20580B47FA3
:1002A000201201E72002077401B5090040F1120194
:1002B000A4FF1201E7020221D208D20680951201A2
:1002C000A4FB1201A4FA1201A4F94A4B700679CAE0
:1002D0007A047BFF20022EE509602A7E008E82755B
:1002E000830012063E60060EEE650A70F0C2D5EB82
:1002F000C0E0EAC0E0E9C0E0EE120440D0E0F9D08E
:10030000E0FAD0E0FB120625FF60AAEBC0E0EAC0ED
:10031000E0E9C0E01201E7D0E02401F9D0E03400C8
:10032000FAD0E0FBE50A0460DCD50AD980877BFFC0
:100330007A04793CD202809C791080027908C20646
:10034000C2088008D2D5790A8004790AC2D5E50AA4
:10035000047002F50AE4FAFDFEFF1201A4FC7B081A
:100360002001131201A4FD7B1030000A1201A4FE2B
:100370001201A4FF7B20EC3382D592D55013C3E445
:100380003000069FFFE49EFEE42001039DFDE49CF7
:10039000FCE4CBF8C201EC700CCFCECDCCE824F855
:1003A000F870F38017C3EF33FFEE33FEED33FDEC4F
:1003B00033FCEB33FB994002FB0FD8E9EB3001052E
:1003C000F8D0E0C448B201C0E00AEC4D4E4F7820AE
:1003D0007B0070C2EAB50A0040BCC0E0120442D003
:1003E000F0D0E0200104C4C0E0C4B201C0F01201AA
:1003F000D0D0F0D5F0EB02022112069D02BE5303CD
:100400003858028F4C028B42033C4F034444034450
:100410004902A443034A55032E46032E45032E47A3
:1004200004EA5002932D02972E02BA2B029B23025C
:10043000B82004D32A025348000002B23F3F3F00D5
:10044000790AA2D5200314300509B910020404B9B1
:10045000080104A2D520060250010420026892027D
:10046000B509005034C0E07F203003197F30A2026C
:1004700072067205500F120499C202C206C205C26A
:10048000087F30800F300503E9C0E01201E7300536
:1004900003D0E0F9D0E0B509CC3005177F30B910B2
:1004A0000C1201E77F583004077F788003B90803F6
:1004B0001201E73002057F2D0201E77F202008F8B6
:1004C0007F2B2006F322920280CF286E756C6C2958
:1004D00000D2011201A43001F8C201780930D5011F
:1004E00008F60202532D504349581201A42403B4C4
:1004F00005004001E49004E5931201D8743A12011A
:10050000D8D20375090402033875F008758200EF2C
:100510002FFFEE33FECD33CDCC33CCC58233C58235
:100520009BED9AEC99E58298400CF582EE9BFEEDEE
:100530009AFDEC99FC0FD5F0D6E4CEFBE4CDFAE4BD
:10054000CCF9A88222B800C1B90059BA002DEC8BB1
:10055000F084CFCECDFCE5F0CBF97818EF2FFFEE8D
:1005600033FEED33FDEC33FCEB33FB10D703994046
:1005700004EB99FB0FD8E5E4F9FA227818EF2FFF86
:10058000EE33FEED33FDEC33FCC933C910D7059BC8
:10059000E99A4007EC9BFCE99AF90FD8E0E4C9FA24
:1005A000E4CCFB2275F010EF2FFFEE33FEED33FDB0
:1005B000CC33CCC833C810D7079BEC9AE899400AD3
:1005C000ED9BFDEC9AFCE899F80FD5F0DAE4CDFB51
:1005D000E4CCFAE4C8F922EB9FF5F0EA9E42F0E998
:1005E0009D42F0E89C45F022ECF0A3EDF0A3EEF084
:1005F000A3EFF022A8828583F0D083D08212060B6D
:1006000012060B12060B12060BE473E493A3C583C8
:10061000C5F0C583C8C582C8F0A3C583C5F0C5832E
:10062000C8C582C822BB010689828A83E0225002A3
:10063000E722BBFE02E32289828A83E49322BB0184
:100640000CE58229F582E5833AF583E0225006E93C
:100650002582F8E622BBFE06E92582F8E222E58241
:1006600029F582E5833AF583E49322BB010689826A
:100670008A83F0225002F722BBFE01F322F8E0FB4E
:10068000A3A3E0F925F0F0E582158270021583E05E
:10069000FA38F022EBF0A3EAF0A3E9F022D083D0FD
:1006A00082F8E4937012740193700DA3A393F8740D
:1006B0000193F5828883E4737402936860EFA3A3C7
:1006C000A380DF9000001205E8E598542FFF90000A
:1006D00008E0FE4FFF90000AE04FF598EE703DFFF6
:1006E000FEFDFC900004E0F8A3E0F9A3E0FAA3E02B
:1006F000FBC31205D770045398DF22E47F01FEFD8F
:10070000FC900004E0F8A3E0F9A3E0FAA3E0FBC347
:100710001205D760030207CD43982022E5C854CFC5
:10072000FF900009E0FE4FF5C8EE704E900004E027
:10073000F8A3E0F9A3E0FAA3E0FB900000E0FCA33B
:10074000E0FDA3E0FEA3E0FF120545E4FB7A01F91A
:10075000F81205458F8D900004E0F8A3E0F9A3E0BE
:10076000FAA3E0FB900000E0FCA3E0FDA3E0FEA301
:10077000E0FF1205458F8BC28E22900009E06430A5
:10078000704B900004E0F8A3E0F9A3E0FAA3E0FBCB
:10079000900000E0FCA3E0FDA3E0FEA3E0FF120553
:1007A00045E4FB7A01F9F81205458FCB900004E08F
:1007B000F8A3E0F9A3E0FAA3E0FB900000E0FCA3BB
:1007C000E0FDA3E0FEA3E0FF1205458FCA22EF7013
:1007D00021EB7006EDF4529A529BEB64017007ED29
:1007E000F4529AED429BEB640260030208A3ED42CF
:1007F0009A22EF64017021EB7006EDF4529152924F
:10080000EB64017007EDF45291ED4292EB640260EB
:10081000030208A3ED429122EF6402701EEB700602
:10082000EDF452A152A2EB64017007EDF452A1ED78
:1008300042A2EB6402706CED42A122EF6403701ED1
:10084000EB7006EDF452B152B2EB64017007EDF4B7
:1008500052B1ED42B2EB64027049ED42B122EF6455
:1008600004701EEB7006EDF452C152C2EB640170CD
:1008700007EDF452C1ED42C2EB64027026ED42C1B5
:1008800022EF6405701DEB7006EDF452D952DAEBDD
:1008900064017007EDF452D9ED42DAEB64027003A3
:1008A000ED42D922787FE4F6D8FD75812112010A44
:1008B0000208EE020A47E493A3F8E493A34003F688
:1008C0008001F208DFF48029E493A3F85407240C94
:1008D000C8C333C4540F4420C8834004F456800175
:1008E00046F6DFE4800B0102040810204080900AE5
:1008F00059E47E019360BCA3FF543F30E509541FC7
:10090000FEE493A360010ECF54C025E060A840B878
:10091000E493A3FAE493A3F8E493A3C8C582C8CAF6
:10092000C583CAF0A3C8C582C8CAC583CADFE9DEC9
:10093000E780BEC0E0C0F0C083C082C0D075D000E8
:10094000C000C001C002C003C004C005C006C0078B
:100950007F02120A4FEF60077F02120A54D209D0B9
:1009600007D006D005D004D003D002D001D000D0EB
:10097000D0D082D083D0F0D0E0327B017D037F02E3
:100980001207CE9000041205F400002580900008A4
:100990007440F0E4A3F0A3F0FF7E487DE87C0112F0
:1009A00006C3E4FD7F011209EFD2AF22120A0E1234
:1009B0000A1A120A26120A3212015D12016212018B
:1009C0006712016C12017612017B120180120185FF
:1009D00012018F12019412019902019E900028EFDA
:1009E000F0120A5C3009FDC209900028E0FF22EFF6
:1009F0007004C2AC8002D2ACED7003C2BC22D2BC87
:100A000022EF900A0A93900100730A20364C7BFF74
:100A10007A0A797B12020F020A3E7BFF7A0A7991E9
:100A200012020F0201587BFF7A0A79A612020F0206
:100A300001717BFF7A0A79BB12020F02018A7BFFE8
:100A40007A0A795F02020F12097A1209AC80FBE57B
:100A5000985FFF22EFF4529822C109008F99220D6E
:100A60000A436F6D6D6F6E20636F6465206973203C
:100A7000776F726B696E67210D0A000D0A436F6D07
:100A80006D6F6E2063616C6C20636F6D6D6F6E2196
:100A9000000D0A436F6D6D6F6E2063616C6C206298
:100AA000616E6B3121000D0A436F6D6D6F6E2063B7
:100AB000616C6C2062616E6B3221000D0A436F6DB8
:100AC0006D6F6E2063616C6C2062616E6B33210010
:100AD0000D0A42616E6B3120636F6465206973207B
:100AE000776F726B696E67210D0A000D0A42616EA5
:100AF0006B312063616C6C20636F6D6D6F6E2100D4
:100B00000D0A42616E6B312063616C6C2062616E14
:100B10006B3121000D0A42616E6B312063616C6C98
:100B20002062616E6B3221000D0A42616E6B3120D2
:100B300063616C6C2062616E6B3321000D0A42614F
:100B40006E6B3220636F646520697320776F726B00
:100B5000696E67210D0A000D0A42616E6B322063D7
:100B6000616C6C20636F6D6D6F6E21000D0A4261C8
:100B70006E6B322063616C6C2062616E6B312100A0
:100B80000D0A42616E6B322063616C6C2062616E93
:100B90006B3221000D0A42616E6B322063616C6C16
:100BA0002062616E6B3321000D0A42616E6B33204F
:100BB000636F646520697320776F726B696E67215C
:100BC0000D0A000D0A42616E6B332063616C6C206C
:100BD000636F6D6D6F6E21000D0A42616E6B332085
:100BE00063616C6C2062616E6B3121000D0A4261A1
:100BF0006E6B332063616C6C2062616E6B3221001E
:100C00000D0A42616E6B332063616C6C2062616E11
:040C10006B33210021
:108000007BFF7A0A79EB12020F020A3E7BFF7A0BA2
:10801000790012020F0280307BFF7A0B7914120272
:108020000F0201717BFF7A0B792812020F02018A7D
:098030007BFF7A0A79D002020FED
:020000040001F9
:100000007BFF7A0B795712020F020A3E7BFF7A0BB5
:10001000796C12020F0201587BFF7A0B7980120271
:100020000F0280307BFF7A0B799412020F02018A53
:090030007BFF7A0B793C02020F00
:108000007BFF7A0B79C312020F020A3E7BFF7A0BC9
:1080100079D812020F0201587BFF7A0B79EC120219
:108020000F0201717BFF7A0C790012020F0280307F
:098030007BFF7A0B79A802020F14
:00000001FF
