:100C5B000A205265635F444154415B31305D20761D
:0F0C6B00616C7565203D200A7B002563007D00CC
:100AFC007B017D027F021205CBE4751180751025F8
:100B0C00F50FF50E751240F513751410FF7E487D28
:0D0B1C00E87C01120861E4FD7F01020D3A42
:0D0D7A008F1E120E20300BFDC20BAF1E228B
:100BA9007B027D017F011205CBE4F50DF50EF50FF2
:100BB900F5107B207D05FF120C3B7F01120DA0E48F
:060BC900FD7F01020CC6D5
:10069300E4F508F509AF0974222FF8A607742C2F87
:1006A300F8E4F60509E50970020508640A450870CF
:1006B300E4120AFC120BA9D2AF7F007E007D007CFE
:1006C30000120A6F7B007A00792275110075120AF5
:1006D3007F007E007D007C001207CC7B007A0079CE
:1006E3002C75110075120A7F007E007D007C0012BC
:1006F30008EE7BFF7A0C795B120162E4F508F509D9
:100703007BFF7A0C7975742C2509F8E62430F50DF6
:100713001201620509E50970020508C3940AE50898
:0F072300940040DC7BFF7A0C797812016280C36E
:060DF100C10AC10BC1099B
:03000300020E26C4
:010E26003299
:03000B00020E27BB
:010E27003298
:03001300020E28B2
:010E28003297
:03001B00020E29A9
:010E29003296
:030023000209CE01
:1009CE00C0E0C0F0C083C082C0D075D000C000C0EF
:1009DE0001C002C003C004C005C006C0077F0212DA
:1009EE000DF8EF60097F02120DFDD20B800F7F0113
:1009FE00120DF8EF60077F01120DFDD209D007D05E
:100A0E0006D005D004D003D002D001D000D0D0D073
:080A1E0082D083D0F0D0E03259
:03002B00020E2A98
:010E2A003295
:03003300020E2B8F
:010E2B003294
:03003B00020E2C86
:010E2C003293
:03004300020E2D7D
:010E2D003292
:03004B00020E2E74
:010E2E003291
:03005300020E2F6B
:010E2F003290
:03006300020E305A
:010E3000328F
:03006B00020E3151
:010E3100328E
:03007300020E3248
:010E3200328D
:03007B00020AB7BF
:100AB700C0E0C0F0C083C082C0D075D000C000C005
:100AC70001C002C003C004C005C006C0077F801272
:100AD7000B81EF600553A57FD20AD007D006D0055A
:100AE700D004D003D002D001D000D0D0D082D083A0
:050AF700D0F0D0E03258
:03008300020E3337
:010E3300328C
:0B0CDC00AF1BAE1AAD19AC1812055585
:090CE700120E0E300AFDC20A22B1
:080DD600E4FF120CE7120E11FC
:010DDE0022F2
:0A0DCC00C2907F06120CE7D29022BD
:0C0D8700C2907F05120CE7120DD6D2902E
:010D9300223D
:100D4C008F40C2907F01120CE7AF40120CE7D2909B
:010D5C002274
:0E0964008B158A1689178F1B8E1A8D198C1809
:10097200120DCC120D87EF20E0F9120DCCC2907F40
:1009820002120CE77810120CDC7808120CDCAF1B98
:10099200120CE7E4F51EF51FC3E51F951DE51E9534
:1009A2001C501FAB150517E517AA16700205161481
:1009B200F912045CFF120CE7051FE51F70DA051E31
:0B09C20080D6D290120D87EF20E0F9E4
:0109CD002207
:0E07CC008B0A8A0B890C8F108E0F8D0E8C0DF0
:1007DA00E4C39FF51474019400F513D3E51295143C
:1007EA00E511951350028067AB0AAA0BA90CAF104A
:1007FA00AE0FAD0EAC0D85131C85141D120964E5F0
:10080A0014B51206E513B5110122E514250CF50CF1
:10081A00E513350BF50BE4FCFDE5102514F510E5A1
:10082A000F3513F50FED350EF50EEC350DF50DC33D
:10083A00E5129514F512E5119513F511D3E5129405
:10084A0000E511940140087513017514008099851B
:07085A0011138512148091B7
:0E08EE008B0A8A0B890C8F108E0F8D0E8C0DCD
:1008FC00120D87EF20E0F9120DCCC2907F03120C81
:10090C00E7AF10AE0FAD0EAC0D7810120555120CF2
:10091C00E7AF10AE0FAD0EAC0D7808120555120CEA
:10092C00E7AF10120CE7E4F513F514C3E5149512B8
:10093C00E5139511501F120DD6AB0A050CE50CAA48
:10094C000B7002050B14F9EF1204750514E5147005
:07095C00DA051380D6D290EA
:010963002271
:100A6F008F0D8E0C8D0B8C0A120D87EF20E0F91273
:100A7F000DCCC2907F20120CE7AF0DAE0CAD0BACBE
:100A8F000A7810120555120CE7AF0DAE0CAD0BAC7A
:100A9F000A7808120555120CE7AF0D120CE7D29029
:080AAF00120D87EF20E0F9228F
:100BCF00E4F59AF591F5A1F5B1F5C1F5D9F59BF5D8
:100BDF0092F5A2F5B2F5C2F5DAF5D8F5C0F5B0F594
:060BEF00A0F590F5802244
:1005CB00EF701FEB7006EDF4529A529BBB0107EDD7
:1005DB00F4529AED429BEB64026003020692ED42E9
:1005EB009A22EF6401701FEB7006EDF45291529258
:1005FB00BB0107EDF45291ED4292EB6402600302F2
:10060B000692ED429122EF6402701CEB7006EDF442
:10061B0052A152A2BB0107EDF452A1ED42A2EB6431
:10062B00027064ED42A122EF6403701CEB7006EDC7
:10063B00F452B152B2BB0107EDF452B1ED42B2EB41
:10064B0064027043ED42B122EF6404701CEB700640
:10065B00EDF452C152C2BB0107EDF452C1ED42C2DF
:10066B00EB64027022ED42C122EF64057019EB704E
:10067B0006EDF452D952DABB0107EDF452D9ED4233
:08068B00DABB0203ED42D922A3
:100C7A00EF70028D80BF01028D90BF02028DA0BF6E
:0F0C8A0003028DB0BF04028DC0BF05028DD822BA
:100BF500EF7003ED4280BF0103ED4290BF0203EDAC
:100C050042A0BF0303ED42B0BF0403ED42C0BF05E0
:050C150003ED42D822AE
:100B5600EF7004EDF45280BF0104EDF45290BF0231
:100B660004EDF452A0BF0304EDF452B0BF0404ED4B
:0B0B7600F452C0BF0504EDF452D82279
:100C1A00EF7003AF8022BF0103AF9022BF0203AF80
:100C2A00A022BF0303AFB022BF0403AFC022AFD8D4
:010C3A002297
:100B2900EF7005E5805DFF22BF0105E5905DFF22BD
:100B3900BF0205E5A05DFF22BF0305E5B05DFF2209
:0D0B4900BF0405E5C05DFF22E5D85DFF2279
:100CF000538F3FE4F5A4F5A5F5A6F5A753AAFE5337
:030D0000BAFE2216
:100C3B00E58F543F4440F58FE5A554FA4F450F45DA
:100C4B0010F5A5E5A454804D4B450D450EF5A4229A
:0B0DA000EF600443A4802253A47F22D4
:030E0E008FA6228A
:030E1100AFA62267
:090DDF00AD07AC068CA78DA6221D
:080DE800AFA7EFFEADA6EDFF81
:010DF00022E0
:0E0D6C00E58F543F4480F58FEF54FEF5A6222C
:0C0D9400E58F543F4480F58FEF42A5220C
:040E020043A52022C2
:040E060043A51022CE
:040E0A0043A540229A
:0B0DAB00EF600443A4082253A4F722C9
:0B0DB600EF600443A6012253A6FE22BA
:0B0DC100EF600443A4802253A47F22B3
:030E14008FA72283
:030E1700AFA72260
:100A26008F398E388D378C36438FC0E5A4540F45E9
:100A36003E453FF5A4AB3DAA3CA93BA83AAF39AE2B
:100A460038AD37AC361204C3E4FB7A01F9F8120468
:100A5600C38FA6AB3DAA3CA93BA83AAF39AE38AD89
:090A660037AC361204C38FA5223F
:030E1A008FA7227D
:030E1D00AFA7225A
:040D1600AD07AC0673
:0D0D1A00EC600543A408800353A4F78DA7E7
:010D270022A9
:100CB000E5A4540475F040A4ADA77C002DFFEC35ED
:050CC000F0FE53A4FB4F
:010CC500220C
:100CC600EF600543AA01800353AAFEED600443BA10
:060CD600012253BAFE22C8
:100B8100EF64806008EF64406003BF080DE5A55F76
:100B910060047E01800FE4FE800BE5A45F60047EAB
:070BA100018002E4FEAF0633
:010BA800222A
:100C9900EF64806008EF64406003BF0805EFF45219
:070CA900A522EFF452A42282
:0F0D5D00E4F598F59953877F53A8EF53B8EF2229
:100861008F0D8E0C8D0B8C0AE598542F4512451473
:10087100F598E5C854CF4513F5C8E5137036AB11AB
:10088100AA10A90FA80EAF0DAE0CAD0BAC0A120445
:10089100C3E4FB7A01F9F81204C38F8DAB11AA10DE
:1008A100A90FA80EAF0DAE0CAD0BAC0A1204C38F8D
:1008B1008BC28E22E513B43033AB11AA10A90FA855
:1008C1000EAF0DAE0CAD0BAC0A1204C3E4FB7A0102
:1008D100F9F81204C38FCBAB11AA10A90FA80EAF60
:0D08E1000DAE0CAD0BAC0A1204C38FCA2281
:030E20008F992285
:030E2300AF992262
:040D2800AD07AC0661
:0D0D2C00EC600543980880035398F78D99FB
:010D39002297
:100D0300E598540475F040A4AD997C002DFFEC35B3
:020D1300F0FEF0
:010D150022BB
:100D3A00EF7004C2AC8002D2ACED7003C2BC22D206
:020D4A00BC22C9
:050DF800E5985FFF22F9
:050DFD00EFF452982202
:03000000020732C2
:1007320078FFE4F6D8FD9000007F007E03E4F0A38A
:0A074200DFFCDEFA75814002078734
:10074C00020693E493A3F8E493A34003F68001F22A
:10075C0008DFF48029E493A3F85407240CC8C333AE
:10076C00C4540F4420C8834004F456800146F6DF7D
:10077C00E4800B0102040810204080900DF1E47E0F
:10078C00019360BCA3FF543F30E509541FFEE49372
:10079C00A360010ECF54C025E060A840B8E493A339
:1007AC00FAE493A3F8E493A3C8C582C8CAC583CA64
:1007BC00F0A3C8C582C8CAC583CADFE9DEE780BE1C
:010DF70000FB
:10045C00BB010689828A83E0225002E722BBFE029E
:09046C00E32289828A83E49322D1
:10047500BB010689828A83F0225002F722BBFE0166
:02048500F32260
:1004870075F008758200EF2FFFEE33FECD33CDCC2C
:1004970033CCC58233C5829BED9AEC99E5829840AF
:1004A7000CF582EE9BFEED9AFDEC99FC0FD5F0D68C
:1004B700E4CEFBE4CDFAE4CCF9A88222B800C1B9B6
:1004C7000059BA002DEC8BF084CFCECDFCE5F0CBF4
:1004D700F97818EF2FFFEE33FEED33FDEC33FCEB2D
:1004E70033FB10D703994004EB99FB0FD8E5E4F9E8
:1004F700FA227818EF2FFFEE33FEED33FDEC33FCD5
:10050700C933C910D7059BE99A4007EC9BFCE99AC8
:10051700F90FD8E0E4C9FAE4CCFB2275F010EF2F0D
:10052700FFEE33FEED33FDCC33CCC833C810D7070D
:100537009BEC9AE899400AED9BFDEC9AFCE899F848
:0E0547000FD5F0DAE4CDFBE4CCFAE4C8F922DB
:10055500E8600FECC313FCED13FDEE13FEEF13FF84
:03056500D8F122A8
:10010000E519240DF8E6051922780A300702780D62
:10011000E475F00112059502045C2000EB7F2ED2FD
:10012000008018EF540F2490D43440D4FF30040BD7
:10013000EF24BFB41A0050032461FFE51A600215D2
:100140001A051DE51D7002051C30070D780AE475BF
:10015000F001120595EF020475020D7A7403D207BF
:100160008003E4C207F5198B0A8A0B890CE4F51A9F
:10017000F51CF51DE51A60077F2012013B80F5751F
:100180001BFFC201C200C202C203C205C206C208EE
:10019000120109FF700D3007057F0012014CAF1DE1
:1001A000AE1C22B4255FC2D5C204120109FF24D0BF
:1001B000B40A00501A75F00A781A30D50508B6FF4F
:1001C0000106C6A426F620D5047002D20380D924E5
:1001D000CFB41A00EF5004C2E5D20402034CD2019E
:1001E00080C6D20080C0D20280BCD2D580BAD205EF
:1001F00080B47F2012013B2002077401B51A004031
:10020000F1120100FF12013B020174D208D20680F4
:1002100095120100FB120100FA120100F94A4B701D
:1002200006791D7A047BFF20022EE51A602A7E00E3
:100230008E8275830012056860060EEE651B70F0F5
:10024000C2D5EBC0E0EAC0E0E9C0E0EE120393D013
:10025000E0F9D0E0FAD0E0FB12045CFF60AAEBC04A
:10026000E0EAC0E0E9C0E012013BD0E02401F9D0AF
:10027000E03400FAD0E0FBE51B0460DCD51BD9803C
:10028000877BFF7A03798FD202809C791080027974
:1002900008C206C2088008D2D5790A8004790AC249
:1002A000D5E51B047002F51BE4FAFDFEFF12010008
:1002B000FC7B08200113120100FD7B1030000A12A4
:1002C0000100FE120100FF7B20EC3382D592D55055
:1002D00013C3E43000069FFFE49EFEE42001039D6B
:1002E000FDE49CFCE4CBF8C201EC700CCFCECDCC8D
:1002F000E824F8F870F38017C3EF33FFEE33FEED18
:1003000033FDEC33FCEB33FB994002FB0FD8E9EBF8
:10031000300105F8D0E0C448B201C0E00AEC4D4E0F
:100320004F78207B0070C2EAB51B0040BCC0E012D1
:100330000395D0F0D0E0200104C4C0E0C4B201C0F5
:10034000F0120124D0F0D5F0EB0201741205A502E1
:100350001153028B5801E24C01DE42028F4F02978B
:0F0360004402974901F743029D550281460281ED
:10036F0045028147043D5001E62D01EA2E020D2B77
:10037F0001EE23020B2004262A01A64800000205E5
:10038F003F3F3F00790AA2D5200314300509B91069
:10039F00020404B9080104A2D5200602500104206A
:1003AF0002689202B51A005034C0E07F2030031962
:1003BF007F30A20272067205500F1203ECC202C206
:1003CF0006C205C2087F30800F300503E9C0E01276
:1003DF00013B300503D0E0F9D0E0B51ACC3005175A
:1003EF007F30B9100C12013B7F583004077F7880A3
:1003FF0003B9080312013B3002057F2D02013B7F39
:10040F00202008F87F2B2006F322920280CF286E3F
:10041F00756C6C2900D2011201003001F8C201780D
:10042F001A30D50108F60201A62D50434958120182
:10043F00002403B405004001E49004389312012C0A
:0D044F00743A12012CD203751A0402028BBC
:10056800BB010CE58229F582E5833AF583E0225048
:1005780006E92582F8E622BBFE06E92582F8E22292
:0D058800E58229F582E5833AF583E49322AC
:10059500FAE6FB0808E6F925F0F618E6CA3AF62267
:1005A500D083D082F8E4937012740193700DA3A3E5
:1005B50093F8740193F5828883E4737402936860F9
:0605C500EFA3A3A380DFF9
:00000001FF
