LX51 LINKER/LOCATER V4.66.87.0                                                          04/03/2025  09:53:25  PAGE 1


LX51 LINKER/LOCATER V4.66.87.0, INVOKED BY:
H:\SOFTWAREAPPLICATION\MDK-KEIL\C51\BIN\LX51.EXE ..\Output\main.obj, ..\Output\SC_Init.obj, ..\Output\SC_it.obj, ..\Outp
>> ut\SysFunVarDefine.obj, ..\Output\CompCtrlDefine.obj, ..\Output\CallBackFunction.obj, ..\Drivers\TKDriver\C\RD8T3X_Hi
>> ghSensitive_Lib_T1Slide_L_V2.1.0.LIB, ..\Output\TKDriver.obj, ..\Output\rd8_timer2.obj, ..\Output\rd8_gpio.obj, ..\Ou
>> tput\rd8_option.obj, ..\Output\STARTUP.obj TO ..\Output\TBK-RD8T3X PRINT (..\List\TBK-RD8T3X.map) REMOVEUNUSED CLASSE
>> S (CODE (C:0X100), CONST (C:0X100))


CPU MODE:     8051 MODE
MEMORY MODEL: LARGE WITH FLOATING POINT ARITHMETIC


INPUT MODULES INCLUDED:
  ..\Output\main.obj (MAIN)
         COMMENT TYPE 0: C51 V9.57.0.0
  ..\Output\SC_Init.obj (SC_INIT)
         COMMENT TYPE 0: C51 V9.57.0.0
  ..\Output\SC_it.obj (SC_IT)
         COMMENT TYPE 0: C51 V9.57.0.0
  ..\Output\SysFunVarDefine.obj (SYSFUNVARDEFINE)
         COMMENT TYPE 0: C51 V9.57.0.0
  ..\Output\CompCtrlDefine.obj (COMPCTRLDEFINE)
         COMMENT TYPE 0: C51 V9.57.0.0
  ..\Output\CallBackFunction.obj (CALLBACKFUNCTION)
         COMMENT TYPE 0: C51 V9.57.0.0
  ..\Drivers\TKDriver\C\RD8T3X_HighSensitive_Lib_T1Slide_L_V2.1.0.LIB (SENSORMETHOD)
         COMMENT TYPE 0: C51 V9.60.0.0
  ..\Output\TKDriver.obj (TKDRIVER)
         COMMENT TYPE 0: C51 V9.57.0.0
  ..\Output\rd8_timer2.obj (RD8_TIMER2)
         COMMENT TYPE 0: C51 V9.57.0.0
  ..\Output\rd8_gpio.obj (RD8_GPIO)
         COMMENT TYPE 0: C51 V9.57.0.0
  ..\Output\rd8_option.obj (RD8_OPTION)
         COMMENT TYPE 0: C51 V9.57.0.0
  ..\Output\STARTUP.obj (?C_STARTUP)
         COMMENT TYPE 1: A51 / ASM51 Assembler
  H:\SOFTWAREAPPLICATION\MDK-KEIL\C51\LIB\C51FPL.LIB (?C?FPADD)
         COMMENT TYPE 1: A51 / ASM51 Assembler
  H:\SOFTWAREAPPLICATION\MDK-KEIL\C51\LIB\C51FPL.LIB (?C?FPMUL)
         COMMENT TYPE 1: A51 / ASM51 Assembler
  H:\SOFTWAREAPPLICATION\MDK-KEIL\C51\LIB\C51FPL.LIB (?C?FPDIV)
         COMMENT TYPE 1: A51 / ASM51 Assembler
  H:\SOFTWAREAPPLICATION\MDK-KEIL\C51\LIB\C51FPL.LIB (?C?FPCMP)
         COMMENT TYPE 1: A51 / ASM51 Assembler
  H:\SOFTWAREAPPLICATION\MDK-KEIL\C51\LIB\C51FPL.LIB (?C?FCAST)
         COMMENT TYPE 1: A51 / ASM51 Assembler
  H:\SOFTWAREAPPLICATION\MDK-KEIL\C51\LIB\C51FPL.LIB (?C?CASTF)
         COMMENT TYPE 1: A51 / ASM51 Assembler
  H:\SOFTWAREAPPLICATION\MDK-KEIL\C51\LIB\C51FPL.LIB (?C?FPGETOPN)
         COMMENT TYPE 1: A51 / ASM51 Assembler
  H:\SOFTWAREAPPLICATION\MDK-KEIL\C51\LIB\C51L.LIB (?C_INIT)
         COMMENT TYPE 1: A51 / ASM51 Assembler
  H:\SOFTWAREAPPLICATION\MDK-KEIL\C51\LIB\C51L.LIB (?C?CLDPTR)
         COMMENT TYPE 1: A51 / ASM51 Assembler
  H:\SOFTWAREAPPLICATION\MDK-KEIL\C51\LIB\C51L.LIB (?C?CLDOPTR)
         COMMENT TYPE 1: A51 / ASM51 Assembler
  H:\SOFTWAREAPPLICATION\MDK-KEIL\C51\LIB\C51L.LIB (?C?IMUL)
         COMMENT TYPE 1: A51 / ASM51 Assembler
  H:\SOFTWAREAPPLICATION\MDK-KEIL\C51\LIB\C51L.LIB (?C?UIDIV)
         COMMENT TYPE 1: A51 / ASM51 Assembler
  H:\SOFTWAREAPPLICATION\MDK-KEIL\C51\LIB\C51L.LIB (?C?SIDIV)
         COMMENT TYPE 1: A51 / ASM51 Assembler
  H:\SOFTWAREAPPLICATION\MDK-KEIL\C51\LIB\C51L.LIB (?C?IILDX)
         COMMENT TYPE 1: A51 / ASM51 Assembler
  H:\SOFTWAREAPPLICATION\MDK-KEIL\C51\LIB\C51L.LIB (?C?ILDPTR)
LX51 LINKER/LOCATER V4.66.87.0                                                        04/03/2025  09:53:25  PAGE 2


         COMMENT TYPE 1: A51 / ASM51 Assembler
  H:\SOFTWAREAPPLICATION\MDK-KEIL\C51\LIB\C51L.LIB (?C?ILDOPTR)
         COMMENT TYPE 1: A51 / ASM51 Assembler
  H:\SOFTWAREAPPLICATION\MDK-KEIL\C51\LIB\C51L.LIB (?C?IILDOPTR)
         COMMENT TYPE 1: A51 / ASM51 Assembler
  H:\SOFTWAREAPPLICATION\MDK-KEIL\C51\LIB\C51L.LIB (?C?ISTPTR)
         COMMENT TYPE 1: A51 / ASM51 Assembler
  H:\SOFTWAREAPPLICATION\MDK-KEIL\C51\LIB\C51L.LIB (?C?ISTOPTR)
         COMMENT TYPE 1: A51 / ASM51 Assembler
  H:\SOFTWAREAPPLICATION\MDK-KEIL\C51\LIB\C51L.LIB (?C?LADD)
         COMMENT TYPE 1: A51 / ASM51 Assembler
  H:\SOFTWAREAPPLICATION\MDK-KEIL\C51\LIB\C51L.LIB (?C?LMUL)
         COMMENT TYPE 1: A51 / ASM51 Assembler
  H:\SOFTWAREAPPLICATION\MDK-KEIL\C51\LIB\C51L.LIB (?C?SLDIV)
         COMMENT TYPE 1: A51 / ASM51 Assembler
  H:\SOFTWAREAPPLICATION\MDK-KEIL\C51\LIB\C51L.LIB (?C?LNOT)
         COMMENT TYPE 1: A51 / ASM51 Assembler
  H:\SOFTWAREAPPLICATION\MDK-KEIL\C51\LIB\C51L.LIB (?C?LNEG)
         COMMENT TYPE 1: A51 / ASM51 Assembler
  H:\SOFTWAREAPPLICATION\MDK-KEIL\C51\LIB\C51L.LIB (?C?ULCMP)
         COMMENT TYPE 1: A51 / ASM51 Assembler
  H:\SOFTWAREAPPLICATION\MDK-KEIL\C51\LIB\C51L.LIB (?C?ULSHR)
         COMMENT TYPE 1: A51 / ASM51 Assembler
  H:\SOFTWAREAPPLICATION\MDK-KEIL\C51\LIB\C51L.LIB (?C?LSHL)
         COMMENT TYPE 1: A51 / ASM51 Assembler
  H:\SOFTWAREAPPLICATION\MDK-KEIL\C51\LIB\C51L.LIB (?C?LLDXDATA)
         COMMENT TYPE 1: A51 / ASM51 Assembler
  H:\SOFTWAREAPPLICATION\MDK-KEIL\C51\LIB\C51L.LIB (?C?LLDXDATA0)
         COMMENT TYPE 1: A51 / ASM51 Assembler
  H:\SOFTWAREAPPLICATION\MDK-KEIL\C51\LIB\C51L.LIB (?C?LSTXDATA)
         COMMENT TYPE 1: A51 / ASM51 Assembler
  H:\SOFTWAREAPPLICATION\MDK-KEIL\C51\LIB\C51L.LIB (?C?LSTKXDATA)
         COMMENT TYPE 1: A51 / ASM51 Assembler
  H:\SOFTWAREAPPLICATION\MDK-KEIL\C51\LIB\C51L.LIB (?C?OFFXADD)
         COMMENT TYPE 1: A51 / ASM51 Assembler
  H:\SOFTWAREAPPLICATION\MDK-KEIL\C51\LIB\C51L.LIB (?C?PLDXDATA)
         COMMENT TYPE 1: A51 / ASM51 Assembler
  H:\SOFTWAREAPPLICATION\MDK-KEIL\C51\LIB\C51L.LIB (?C?PSTXDATA)
         COMMENT TYPE 1: A51 / ASM51 Assembler
  H:\SOFTWAREAPPLICATION\MDK-KEIL\C51\LIB\C51L.LIB (?C?LCASE)
         COMMENT TYPE 1: A51 / ASM51 Assembler
  H:\SOFTWAREAPPLICATION\MDK-KEIL\C51\LIB\C51L.LIB (?C?ULDIV)
         COMMENT TYPE 1: A51 / ASM51 Assembler


ACTIVE MEMORY CLASSES OF MODULE:  ..\Output\TBK-RD8T3X (MAIN)

BASE        START       END         USED      MEMORY CLASS
==========================================================
C:000000H   C:000100H   C:00FFFFH   0025E6H   CODE
C:000000H   C:000100H   C:00FFFFH   00006AH   CONST
X:000000H   X:000000H   X:00FFFFH   0001DEH   XDATA
I:000020H.0 I:000020H.0 I:00002FH.7 000000H.3 BIT
I:000000H   I:000000H   I:00007FH   00001CH   DATA
I:000000H   I:000000H   I:0000FFH   000001H   IDATA


MEMORY MAP OF MODULE:  ..\Output\TBK-RD8T3X (MAIN)


START     STOP      LENGTH    ALIGN  RELOC    MEMORY CLASS   SEGMENT NAME
=========================================================================

* * * * * * * * * * *   D A T A   M E M O R Y   * * * * * * * * * * * * *
000000H   000007H   000008H   ---    AT..     DATA           "REG BANK 0"
LX51 LINKER/LOCATER V4.66.87.0                                                        04/03/2025  09:53:25  PAGE 3


000008H   000011H   00000AH   BYTE   UNIT     DATA           ?DT?SENSORMETHOD
000012H   00001BH   00000AH   BYTE   UNIT     DATA           _DATA_GROUP_
00001CH.0 00001FH.7 000004H.0 ---    ---      **GAP**
000020H.0 000020H.1 000000H.2 BIT    UNIT     BIT            ?BI?SENSORMETHOD
000020H.2 000020H.2 000000H.1 BIT    UNIT     BIT            _BIT_GROUP_
000020H.3 000020H   000000H.5 ---    ---      **GAP**
000021H   000021H   000001H   BYTE   UNIT     IDATA          ?STACK

* * * * * * * * * * *   C O D E   M E M O R Y   * * * * * * * * * * * * *
000000H   000002H   000003H   ---    OFFS..   CODE           ?CO??C_STARTUP?0
000003H   000005H   000003H   BYTE   OFFS..   CODE           ?SC_IT?00003
000006H   00000AH   000005H   ---    ---      **GAP**
00000BH   00000DH   000003H   BYTE   OFFS..   CODE           ?SC_IT?0000B
00000EH   000012H   000005H   ---    ---      **GAP**
000013H   000015H   000003H   BYTE   OFFS..   CODE           ?SC_IT?00013
000016H   00001AH   000005H   ---    ---      **GAP**
00001BH   00001DH   000003H   BYTE   OFFS..   CODE           ?SC_IT?0001B
00001EH   000022H   000005H   ---    ---      **GAP**
000023H   000025H   000003H   BYTE   OFFS..   CODE           ?SC_IT?00023
000026H   00002AH   000005H   ---    ---      **GAP**
00002BH   00002DH   000003H   BYTE   OFFS..   CODE           ?SC_IT?0002B
00002EH   000032H   000005H   ---    ---      **GAP**
000033H   000035H   000003H   BYTE   OFFS..   CODE           ?SC_IT?00033
000036H   00003AH   000005H   ---    ---      **GAP**
00003BH   00003DH   000003H   BYTE   OFFS..   CODE           ?SC_IT?0003B
00003EH   000042H   000005H   ---    ---      **GAP**
000043H   000045H   000003H   BYTE   OFFS..   CODE           ?SC_IT?00043
000046H   00004AH   000005H   ---    ---      **GAP**
00004BH   00004DH   000003H   BYTE   OFFS..   CODE           ?SC_IT?0004B
00004EH   000052H   000005H   ---    ---      **GAP**
000053H   000055H   000003H   BYTE   OFFS..   CODE           ?SC_IT?00053
000056H   00005AH   000005H   ---    ---      **GAP**
00005BH   00005DH   000003H   BYTE   OFFS..   CODE           ?TKDRIVER?0005B
00005EH   000062H   000005H   ---    ---      **GAP**
000063H   000065H   000003H   BYTE   OFFS..   CODE           ?SC_IT?00063
000066H   00006AH   000005H   ---    ---      **GAP**
00006BH   00006DH   000003H   BYTE   OFFS..   CODE           ?SC_IT?0006B
00006EH   000072H   000005H   ---    ---      **GAP**
000073H   000075H   000003H   BYTE   OFFS..   CODE           ?SC_IT?00073
000076H   00007AH   000005H   ---    ---      **GAP**
00007BH   00007DH   000003H   BYTE   OFFS..   CODE           ?SC_IT?0007B
00007EH   000082H   000005H   ---    ---      **GAP**
000083H   000085H   000003H   BYTE   OFFS..   CODE           ?SC_IT?00083
000086H   00008AH   000005H   ---    ---      **GAP**
00008BH   00008DH   000003H   BYTE   OFFS..   CODE           ?SC_IT?0008B
00008EH   000092H   000005H   ---    ---      **GAP**
000093H   000095H   000003H   BYTE   OFFS..   CODE           ?SC_IT?00093
000096H   00009AH   000005H   ---    ---      **GAP**
00009BH   00009DH   000003H   BYTE   OFFS..   CODE           ?SC_IT?0009B
00009EH   0000B2H   000015H   ---    ---      **GAP**
0000B3H   0000B5H   000003H   BYTE   OFFS..   CODE           ?SC_IT?000B3
0000B6H   0000FFH   00004AH   ---    ---      **GAP**
000100H   0008F3H   0007F4H   BYTE   UNIT     CODE           ?C?LIB_CODE
0008F4H   000D60H   00046DH   BYTE   UNIT     CODE           ?PR?_TKSLIDEMODULESENSORRENOVATE?SENSORMETHOD
000D61H   001173H   000413H   BYTE   UNIT     CODE           ?PR?_SENSORRENOVATET1?SENSORMETHOD
001174H   0013DEH   00026BH   BYTE   UNIT     CODE           ?PR?SENSORMETHOD
0013DFH   00159BH   0001BDH   BYTE   UNIT     CODE           ?PR?_BASELINEUPDATASW?SENSORMETHOD
00159CH   0016C4H   000129H   BYTE   UNIT     CODE           ?PR?_MULTIPLEDEAL?SENSORMETHOD
0016C5H   0017C2H   0000FEH   BYTE   UNIT     CODE           ?C_INITSEG
0017C3H   0018A6H   0000E4H   BYTE   UNIT     CODE           ?PR?_FILTERDATADEALT1?SENSORMETHOD
0018A7H   001940H   00009AH   BYTE   UNIT     CODE           ?C_C51STARTUP
001941H   0019CDH   00008DH   BYTE   UNIT     CODE           ?PR?TOUCHKEYINIT?SENSORMETHOD
0019CEH   001A58H   00008BH   BYTE   UNIT     CODE           ?PR?USDELAY?SENSORMETHOD
001A59H   001ADBH   000083H   BYTE   UNIT     CODE           ?PR?_ICHAADJUST?SENSORMETHOD
001ADCH   001B4EH   000073H   BYTE   UNIT     CODE           ?PR?FILTERAVERGEDEAL?SENSORMETHOD
LX51 LINKER/LOCATER V4.66.87.0                                                        04/03/2025  09:53:25  PAGE 4


001B4FH   001BADH   00005FH   BYTE   UNIT     CODE           ?PR?TOUCHKEY_SERVICE?SENSORMETHOD
001BAEH   001BF1H   000044H   BYTE   UNIT     CODE           ?C?LDIV
001BF2H   001C2FH   00003EH   BYTE   UNIT     CODE           ?PR?INITIALIZESENSORFLAG?SENSORMETHOD
001C30H   001C54H   000025H   BYTE   UNIT     CODE           ?PR?FILTERCOMMCODE?SENSORMETHOD
001C55H   001C73H   00001FH   BYTE   UNIT     CODE           ?PR?FILTERIIRINIT?SENSORMETHOD
001C74H   001C8AH   000017H   BYTE   UNIT     CODE           ?PR?INITIALIZEBASELINES?SENSORMETHOD
001C8BH   001C8DH   000003H   BYTE   UNIT     CODE           ?PR?TOUCHKEYRESTART?SENSORMETHOD
001C8EH   001C90H   000003H   BYTE   UNIT     CODE           ?PR?GETISNEEDUPDATEBASELINE?SENSORMETHOD
001C91H   001C93H   000003H   BYTE   UNIT     CODE           ?PR?SETNEEDUPDATEBASELINE?SENSORMETHOD
001C94H   001CFDH   00006AH   BYTE   UNIT     CONST          ?CO?TKDRIVER
001CFEH   001D05H   000008H   BYTE   UNIT     CODE           ?PR?MAIN?MAIN
001D06H   001D0EH   000009H   BYTE   UNIT     CODE           ?PR?SC_INIT?SC_INIT
001D0FH   001DC4H   0000B6H   BYTE   UNIT     CODE           ?PR?SC_GPIO_INIT?SC_INIT
001DC5H   001E96H   0000D2H   BYTE   UNIT     CODE           ?PR?_GPIO_INIT?RD8_GPIO
001E97H   001EACH   000016H   BYTE   UNIT     CODE           ?PR?SC_TIM2_INIT?SC_INIT
001EADH   001EB8H   00000CH   BYTE   UNIT     CODE           ?PR?_TIM2_CMD?RD8_TIMER2
001EB9H   001EE6H   00002EH   BYTE   UNIT     CODE           ?PR?SYS_SCAN?SYSFUNVARDEFINE
001EE7H   001EE7H   000001H   BYTE   UNIT     CODE           ?PR?SC_OPTION_INIT?SC_INIT
001EE8H   001EF8H   000011H   BYTE   UNIT     CODE           ?PR?_TIM2_WORKMODE1CONFIG?RD8_TIMER2
001EF9H   001F0DH   000015H   BYTE   UNIT     CODE           ?PR?_TIM2_ITCONFIG?RD8_TIMER2
001F0EH   001F55H   000048H   BYTE   UNIT     CODE           ?PR?UPDATEDISPLAY?SYSFUNVARDEFINE
001F56H   001FA9H   000054H   BYTE   UNIT     CODE           ?PR?_TIM2_TIMEBASEINIT?RD8_TIMER2
001FAAH   001FADH   000004H   BYTE   UNIT     CODE           ?PR?INT0INTERRUPT?SC_IT
001FAEH   001FAEH   000001H   BYTE   UNIT     CODE           ?PR?TIMER0INTERRUPT?SC_IT
001FAFH   001FB2H   000004H   BYTE   UNIT     CODE           ?PR?INT1INTERRUPT?SC_IT
001FB3H   001FB3H   000001H   BYTE   UNIT     CODE           ?PR?TIMER1INTERRUPT?SC_IT
001FB4H   001FB4H   000001H   BYTE   UNIT     CODE           ?PR?UART0INTERRUPT?SC_IT
001FB5H   001FF6H   000042H   BYTE   UNIT     CODE           ?PR?TIMER2INTERRUPT?SC_IT
001FF7H   001FF7H   000001H   BYTE   UNIT     CODE           ?PR?ADCINTERRUPT?SC_IT
001FF8H   001FF8H   000001H   BYTE   UNIT     CODE           ?PR?USCI0INTERRUPT?SC_IT
001FF9H   001FF9H   000001H   BYTE   UNIT     CODE           ?PR?PWMINTERRUPT?SC_IT
001FFAH   001FFAH   000001H   BYTE   UNIT     CODE           ?PR?BTMINTERRUPT?SC_IT
001FFBH   001FFBH   000001H   BYTE   UNIT     CODE           ?PR?INT2INTERRUPT?SC_IT
001FFCH   001FFCH   000001H   BYTE   UNIT     CODE           ?PR?ACMPINTERRUPT?SC_IT
001FFDH   001FFDH   000001H   BYTE   UNIT     CODE           ?PR?TIMER3INTERRUPT?SC_IT
001FFEH   001FFEH   000001H   BYTE   UNIT     CODE           ?PR?TIMER4INTERRUPT?SC_IT
001FFFH   001FFFH   000001H   BYTE   UNIT     CODE           ?PR?USCI1INTERRUPT?SC_IT
002000H   002000H   000001H   BYTE   UNIT     CODE           ?PR?USCI2INTERRUPT?SC_IT
002001H   002001H   000001H   BYTE   UNIT     CODE           ?PR?USCI3INTERRUPT?SC_IT
002002H   002002H   000001H   BYTE   UNIT     CODE           ?PR?USCI4INTERRUPT?SC_IT
002003H   002003H   000001H   BYTE   UNIT     CODE           ?PR?USCI5INTERRUPT?SC_IT
002004H   002004H   000001H   BYTE   UNIT     CODE           ?PR?LPDINTERRUPT?SC_IT
002005H   002066H   000062H   BYTE   UNIT     CODE           ?PR?CHANGETOUCHKEYVALUE?SYSFUNVARDEFINE
002067H   002077H   000011H   BYTE   UNIT     CODE           ?PR?LED_ALLOFF?SYSFUNVARDEFINE
002078H   00217CH   000105H   BYTE   UNIT     CODE           ?PR?SLIDERTOUCHKEYVALUE?SYSFUNVARDEFINE
00217DH   00218DH   000011H   BYTE   UNIT     CODE           ?PR?LEVEL0?SYSFUNVARDEFINE
00218EH   00219EH   000011H   BYTE   UNIT     CODE           ?PR?LEVEL1?SYSFUNVARDEFINE
00219FH   0021AFH   000011H   BYTE   UNIT     CODE           ?PR?LEVEL2?SYSFUNVARDEFINE
0021B0H   0021C0H   000011H   BYTE   UNIT     CODE           ?PR?LEVEL3?SYSFUNVARDEFINE
0021C1H   0021D1H   000011H   BYTE   UNIT     CODE           ?PR?LEVEL4?SYSFUNVARDEFINE
0021D2H   0021E2H   000011H   BYTE   UNIT     CODE           ?PR?LEVEL5?SYSFUNVARDEFINE
0021E3H   0021F3H   000011H   BYTE   UNIT     CODE           ?PR?LEVEL6?SYSFUNVARDEFINE
0021F4H   002204H   000011H   BYTE   UNIT     CODE           ?PR?LEVEL7?SYSFUNVARDEFINE
002205H   00220FH   00000BH   BYTE   UNIT     CODE           ?PR?SETONEKEYPUSHRESETTIME?TKDRIVER
002210H   002401H   0001F2H   BYTE   UNIT     CODE           ?PR?TOUCHKEYSCAN?TKDRIVER
002402H   002478H   000077H   BYTE   UNIT     CODE           ?PR?SENSORKEYFLAGT1?TKDRIVER
002479H   00247BH   000003H   BYTE   UNIT     CODE           ?PR?_FILTERDATADEAL?TKDRIVER
00247CH   002483H   000008H   BYTE   UNIT     CODE           ?PR?ISDOUBLEKEYORSLIDEKEY?TKDRIVER
002484H   0024D4H   000051H   BYTE   UNIT     CODE           ?PR?_TKSLIDEMODULECHIS?TKDRIVER
0024D5H   0024DFH   00000BH   BYTE   UNIT     CODE           ?PR?GETBASELINEUPDATETHRESHOLD?TKDRIVER
0024E0H   0024E7H   000008H   BYTE   UNIT     CODE           ?PR?GETINITAUTOUPDATETIME?TKDRIVER
0024E8H   0024EAH   000003H   BYTE   UNIT     CODE           ?PR?GETCSFUNCTION?TKDRIVER
0024EBH   002516H   00002CH   BYTE   UNIT     CODE           ?PR?_GETCURRFINGERVALUE?TKDRIVER
002517H   00252AH   000014H   BYTE   UNIT     CODE           ?PR?_GETTKYZTHRESHOLD?TKDRIVER
00252BH   00253CH   000012H   BYTE   UNIT     CODE           ?PR?_GETSCANTIMEVALUE?TKDRIVER
LX51 LINKER/LOCATER V4.66.87.0                                                        04/03/2025  09:53:25  PAGE 5


00253DH   002544H   000008H   BYTE   UNIT     CODE           ?PR?GETUPCONFIRMCNT?TKDRIVER
002545H   002551H   00000DH   BYTE   UNIT     CODE           ?PR?_GETBASELINEADJUSTVALUE?TKDRIVER
002552H   002582H   000031H   BYTE   UNIT     CODE           ?PR?_GETCFGMSG?TKDRIVER
002583H   00258CH   00000AH   BYTE   UNIT     CODE           ?PR?GETTKYZCNT?TKDRIVER
00258DH   00265CH   0000D0H   BYTE   UNIT     CODE           ?PR?CURRENTSENSORCHOOSE?TKDRIVER
00265DH   0026CAH   00006EH   BYTE   UNIT     CODE           ?PR?TOUCHKEYCFGINIT?TKDRIVER
0026CBH   002705H   00003BH   BYTE   UNIT     CODE           ?PR?CTK_ISR?TKDRIVER
002706H   00270DH   000008H   BYTE   UNIT     CODE           ?PR?_TIM2_CLEARFLAG?RD8_TIMER2

* * * * * * * * * * *  X D A T A   M E M O R Y  * * * * * * * * * * * * *
000000H   00015FH   000160H   BYTE   UNIT     XDATA          ?XD?TKDRIVER
000160H   0001C9H   00006AH   BYTE   UNIT     XDATA          _XDATA_GROUP_
0001CAH   0001D4H   00000BH   BYTE   UNIT     XDATA          ?XD?SYSFUNVARDEFINE
0001D5H   0001DDH   000009H   BYTE   UNIT     XDATA          ?XD?SENSORMETHOD

* * * * * * * * *   R E M O V E D     S E G M E N T S   * * * * * * * *
   *DEL*:           000001H   BYTE   UNIT     CODE           ?PR?SC_UART0_INIT?SC_INIT
   *DEL*:           000001H   BYTE   UNIT     CODE           ?PR?SC_TIM0_INIT?SC_INIT
   *DEL*:           000001H   BYTE   UNIT     CODE           ?PR?SC_TIM1_INIT?SC_INIT
   *DEL*:           000001H   BYTE   UNIT     CODE           ?PR?SC_TIM3_INIT?SC_INIT
   *DEL*:           000001H   BYTE   UNIT     CODE           ?PR?SC_TIM4_INIT?SC_INIT
   *DEL*:           000001H   BYTE   UNIT     CODE           ?PR?SC_PWM_INIT?SC_INIT
   *DEL*:           000001H   BYTE   UNIT     CODE           ?PR?SC_PWM0_INIT?SC_INIT
   *DEL*:           000001H   BYTE   UNIT     CODE           ?PR?SC_PWM1_INIT?SC_INIT
   *DEL*:           000001H   BYTE   UNIT     CODE           ?PR?SC_PWM2_INIT?SC_INIT
   *DEL*:           000001H   BYTE   UNIT     CODE           ?PR?SC_PWM3_INIT?SC_INIT
   *DEL*:           000001H   BYTE   UNIT     CODE           ?PR?SC_PWM4_INIT?SC_INIT
   *DEL*:           000001H   BYTE   UNIT     CODE           ?PR?SC_INT_INIT?SC_INIT
   *DEL*:           000001H   BYTE   UNIT     CODE           ?PR?SC_ADC_INIT?SC_INIT
   *DEL*:           000001H   BYTE   UNIT     CODE           ?PR?SC_PGA_INIT?SC_INIT
   *DEL*:           000001H   BYTE   UNIT     CODE           ?PR?SC_IAP_INIT?SC_INIT
   *DEL*:           000001H   BYTE   UNIT     CODE           ?PR?SC_USCI0_INIT?SC_INIT
   *DEL*:           000001H   BYTE   UNIT     CODE           ?PR?SC_USCI1_INIT?SC_INIT
   *DEL*:           000001H   BYTE   UNIT     CODE           ?PR?SC_USCI2_INIT?SC_INIT
   *DEL*:           000001H   BYTE   UNIT     CODE           ?PR?SC_USCI3_INIT?SC_INIT
   *DEL*:           000001H   BYTE   UNIT     CODE           ?PR?SC_USCI4_INIT?SC_INIT
   *DEL*:           000001H   BYTE   UNIT     CODE           ?PR?SC_USCI5_INIT?SC_INIT
   *DEL*:           000001H   BYTE   UNIT     CODE           ?PR?SC_SSI_INIT?SC_INIT
   *DEL*:           000001H   BYTE   UNIT     CODE           ?PR?SC_SSI0_INIT?SC_INIT
   *DEL*:           000001H   BYTE   UNIT     CODE           ?PR?SC_SSI1_INIT?SC_INIT
   *DEL*:           000001H   BYTE   UNIT     CODE           ?PR?SC_BTM_INIT?SC_INIT
   *DEL*:           000001H   BYTE   UNIT     CODE           ?PR?SC_CRC_INIT?SC_INIT
   *DEL*:           000001H   BYTE   UNIT     CODE           ?PR?SC_CHKSUM_INIT?SC_INIT
   *DEL*:           000001H   BYTE   UNIT     CODE           ?PR?SC_WDT_INIT?SC_INIT
   *DEL*:           000001H   BYTE   UNIT     CODE           ?PR?SC_PWR_INIT?SC_INIT
   *DEL*:           000001H   BYTE   UNIT     CODE           ?PR?SC_DDIC_INIT?SC_INIT
   *DEL*:           000001H   BYTE   UNIT     CODE           ?PR?SC_ACMP_INIT?SC_INIT
   *DEL*:           000001H   BYTE   UNIT     CODE           ?PR?SC_MDU_INIT?SC_INIT
   *DEL*:           000001H   BYTE   UNIT     CODE           ?PR?SC_LPD_INIT?SC_INIT
   *DEL*:           000001H   BYTE   UNIT     CODE           ?PR?CUSTOMER_BTM_DISPOSE?CALLBACKFUNCTION
   *DEL*:           000001H   BYTE   UNIT     CODE           ?PR?CUSTOMER_INTOLOWPOWERMODE_INIT?CALLBACKFUNCTION
   *DEL*:           000001H   BYTE   UNIT     CODE           ?PR?CUSTOMER_QUITLOWPOWERMODE_INIT?CALLBACKFUNCTION
   *DEL*:           00001BH   BYTE   UNIT     CODE           ?PR?TIM2_DEINIT?RD8_TIMER2
   *DEL*:           000012H   BYTE   UNIT     CODE           ?PR?_TIM2_PRESCALERSELECTION?RD8_TIMER2
   *DEL*:           00000DH   BYTE   UNIT     CODE           ?PR?_TIM2_WORKMODE0CONFIG?RD8_TIMER2
   *DEL*:           00000EH   BYTE   UNIT     CODE           ?PR?_TIM2_WORKMODE3CONFIG?RD8_TIMER2
   *DEL*:           000022H   BYTE   UNIT     CODE           ?PR?_TIM2_WORKMODECONFIG?RD8_TIMER2
   *DEL*:           00000CH   BYTE   UNIT     CODE           ?PR?_TIM2_SETEXEN2?RD8_TIMER2
   *DEL*:           00000CH   BYTE   UNIT     CODE           ?PR?TIM2_GETCAPTURE?RD8_TIMER2
   *DEL*:           00000CH   BYTE   UNIT     CODE           ?PR?TIM2_GETCOUNTER?RD8_TIMER2
   *DEL*:           000012H   BYTE   UNIT     CODE           ?PR?_TIM2_GETFLAGSTATUS?RD8_TIMER2
   *DEL*:           000026H   BYTE   UNIT     CODE           ?PR?GPIO_DEINIT?RD8_GPIO
   *DEL*:           000028H   BYTE   UNIT     CODE           ?PR?_GPIO_WRITE?RD8_GPIO
   *DEL*:           00002CH   BYTE   UNIT     CODE           ?PR?_GPIO_WRITEHIGH?RD8_GPIO
   *DEL*:           000032H   BYTE   UNIT     CODE           ?PR?_GPIO_WRITELOW?RD8_GPIO
LX51 LINKER/LOCATER V4.66.87.0                                                        04/03/2025  09:53:25  PAGE 6


   *DEL*:           000029H   BYTE   UNIT     CODE           ?PR?_GPIO_READPORT?RD8_GPIO
   *DEL*:           000042H   BYTE   UNIT     CODE           ?PR?_GPIO_READPIN?RD8_GPIO
   *DEL*:           00002CH   BYTE   UNIT     CODE           ?PR?_GPIO_TOGGLEPIN?RD8_GPIO
   *DEL*:           000076H   BYTE   UNIT     CODE           ?PR?_GPIO_IOH_CONFIG?RD8_GPIO
   *DEL*:           00000EH   BYTE   UNIT     CODE           ?PR?_OPTION_WDT_CMD?RD8_OPTION
   *DEL*:           00000EH   BYTE   UNIT     CODE           ?PR?_OPTION_XTIPLL_CMD?RD8_OPTION
   *DEL*:           00000BH   BYTE   UNIT     CODE           ?PR?_OPTION_SYSCLK_INIT?RD8_OPTION
   *DEL*:           00000BH   BYTE   UNIT     CODE           ?PR?_OPTION_LVR_INIT?RD8_OPTION
   *DEL*:           00001EH   BYTE   UNIT     CODE           ?PR?_OPTION_ADC_VREFCONFIG?RD8_OPTION
   *DEL*:           00000BH   BYTE   UNIT     CODE           ?PR?_OPTION_IAP_SETOPERATERANGE?RD8_OPTION
   *DEL*:           00000EH   BYTE   UNIT     CODE           ?PR?_OPTION_JTG_CMD?RD8_OPTION



OVERLAY MAP OF MODULE:   ..\Output\TBK-RD8T3X (MAIN)


FUNCTION/MODULE                                BIT_GROUP   DATA_GROUP   XDATA_GROUP
--> CALLED FUNCTION/MODULE                    START  STOP  START  STOP  START  STOP
===================================================================================
INT0INTERRUPT/SC_IT                           ----- -----  ----- -----  ----- -----

*** NEW ROOT ********************************

TIMER0INTERRUPT/SC_IT                         ----- -----  ----- -----  ----- -----

*** NEW ROOT ********************************

INT1INTERRUPT/SC_IT                           ----- -----  ----- -----  ----- -----

*** NEW ROOT ********************************

TIMER1INTERRUPT/SC_IT                         ----- -----  ----- -----  ----- -----

*** NEW ROOT ********************************

UART0INTERRUPT/SC_IT                          ----- -----  ----- -----  ----- -----

*** NEW ROOT ********************************

TIMER2INTERRUPT/SC_IT                         ----- -----  ----- -----  ----- -----
  +--> _TIM2_CLEARFLAG/RD8_TIMER2

_TIM2_CLEARFLAG/RD8_TIMER2                    ----- -----  ----- -----  ----- -----

*** NEW ROOT ********************************

ADCINTERRUPT/SC_IT                            ----- -----  ----- -----  ----- -----

*** NEW ROOT ********************************

USCI0INTERRUPT/SC_IT                          ----- -----  ----- -----  ----- -----

*** NEW ROOT ********************************

PWMINTERRUPT/SC_IT                            ----- -----  ----- -----  ----- -----

*** NEW ROOT ********************************

BTMINTERRUPT/SC_IT                            ----- -----  ----- -----  ----- -----

*** NEW ROOT ********************************

INT2INTERRUPT/SC_IT                           ----- -----  ----- -----  ----- -----

LX51 LINKER/LOCATER V4.66.87.0                                                        04/03/2025  09:53:25  PAGE 7


*** NEW ROOT ********************************

ACMPINTERRUPT/SC_IT                           ----- -----  ----- -----  ----- -----

*** NEW ROOT ********************************

TIMER3INTERRUPT/SC_IT                         ----- -----  ----- -----  ----- -----

*** NEW ROOT ********************************

TIMER4INTERRUPT/SC_IT                         ----- -----  ----- -----  ----- -----

*** NEW ROOT ********************************

USCI1INTERRUPT/SC_IT                          ----- -----  ----- -----  ----- -----

*** NEW ROOT ********************************

USCI2INTERRUPT/SC_IT                          ----- -----  ----- -----  ----- -----

*** NEW ROOT ********************************

USCI3INTERRUPT/SC_IT                          ----- -----  ----- -----  ----- -----

*** NEW ROOT ********************************

USCI4INTERRUPT/SC_IT                          ----- -----  ----- -----  ----- -----

*** NEW ROOT ********************************

USCI5INTERRUPT/SC_IT                          ----- -----  ----- -----  ----- -----

*** NEW ROOT ********************************

LPDINTERRUPT/SC_IT                            ----- -----  ----- -----  ----- -----

*** NEW ROOT ********************************

CTK_ISR/TKDRIVER                              ----- -----  ----- -----  ----- -----
  +--> TOUCHKEY_SERVICE/SENSORMETHOD

TOUCHKEY_SERVICE/SENSORMETHOD                 20H.2 20H.2  ----- -----  ----- -----
  +--> SENSORMETHOD
  +--> _GETSCANTIMEVALUE/TKDRIVER
  +--> _GETBASELINEADJUSTVALUE/TKDRIVER

SENSORMETHOD                                  ----- -----  ----- -----  ----- -----

_GETSCANTIMEVALUE/TKDRIVER                    ----- -----  ----- -----  ----- -----

_GETBASELINEADJUSTVALUE/TKDRIVER              ----- -----  ----- -----  ----- -----

*** NEW ROOT ********************************

?C_C51STARTUP                                 ----- -----  ----- -----  ----- -----
  +--> MAIN/MAIN
  +--> ?C_INITSEG

MAIN/MAIN                                     ----- -----  ----- -----  ----- -----
  +--> SC_INIT/SC_INIT
  +--> TOUCHKEYINIT/SENSORMETHOD
  +--> SYS_SCAN/SYSFUNVARDEFINE

SC_INIT/SC_INIT                               ----- -----  ----- -----  ----- -----
  +--> SC_GPIO_INIT/SC_INIT
LX51 LINKER/LOCATER V4.66.87.0                                                        04/03/2025  09:53:25  PAGE 8


  +--> SC_OPTION_INIT/SC_INIT
  +--> SC_TIM2_INIT/SC_INIT

SC_GPIO_INIT/SC_INIT                          ----- -----  ----- -----  ----- -----
  +--> _GPIO_INIT/RD8_GPIO

_GPIO_INIT/RD8_GPIO                           ----- -----  ----- -----  ----- -----

SC_OPTION_INIT/SC_INIT                        ----- -----  ----- -----  ----- -----

SC_TIM2_INIT/SC_INIT                          ----- -----  ----- -----  ----- -----
  +--> _TIM2_TIMEBASEINIT/RD8_TIMER2
  +--> _TIM2_WORKMODE1CONFIG/RD8_TIMER2
  +--> _TIM2_ITCONFIG/RD8_TIMER2
  +--> _TIM2_CMD/RD8_TIMER2

_TIM2_TIMEBASEINIT/RD8_TIMER2                 ----- -----  ----- -----  ----- -----

_TIM2_WORKMODE1CONFIG/RD8_TIMER2              ----- -----  ----- -----  ----- -----

_TIM2_ITCONFIG/RD8_TIMER2                     ----- -----  ----- -----  ----- -----

_TIM2_CMD/RD8_TIMER2                          ----- -----  ----- -----  ----- -----

TOUCHKEYINIT/SENSORMETHOD                     ----- -----  ----- -----  ----- -----
  +--> TOUCHKEYCFGINIT/TKDRIVER
  +--> _GETCFGMSG/TKDRIVER
  +--> _GETSCANTIMEVALUE/TKDRIVER
  +--> SENSORMETHOD
  +--> INITIALIZESENSORFLAG/SENSORMETHOD
  +--> FILTERAVERGEDEAL/SENSORMETHOD
  +--> INITIALIZEBASELINES/SENSORMETHOD

TOUCHKEYCFGINIT/TKDRIVER                      ----- -----  0012H 0013H  ----- -----
  +--> CURRENTSENSORCHOOSE/TKDRIVER

CURRENTSENSORCHOOSE/TKDRIVER                  ----- -----  0014H 001BH  ----- -----

_GETCFGMSG/TKDRIVER                           ----- -----  ----- -----  ----- -----
  +--> _GETBASELINEADJUSTVALUE/TKDRIVER

INITIALIZESENSORFLAG/SENSORMETHOD             ----- -----  ----- -----  ----- -----
  +--> SENSORMETHOD

FILTERAVERGEDEAL/SENSORMETHOD                 ----- -----  ----- -----  0160H 0161H
  +--> FILTERCOMMCODE/SENSORMETHOD
  +--> SENSORMETHOD
  +--> _ICHAADJUST/SENSORMETHOD
  +--> FILTERIIRINIT/SENSORMETHOD
  +--> GETINITAUTOUPDATETIME/TKDRIVER
  +--> _FILTERDATADEAL/TKDRIVER

FILTERCOMMCODE/SENSORMETHOD                   ----- -----  ----- -----  ----- -----
  +--> USDELAY/SENSORMETHOD

USDELAY/SENSORMETHOD                          ----- -----  ----- -----  0162H 0163H

_ICHAADJUST/SENSORMETHOD                      ----- -----  ----- -----  016DH 016EH
  +--> _GETBASELINEADJUSTVALUE/TKDRIVER
  +--> SENSORMETHOD
  +--> _GETSCANTIMEVALUE/TKDRIVER

FILTERIIRINIT/SENSORMETHOD                    ----- -----  ----- -----  ----- -----
  +--> SENSORMETHOD

LX51 LINKER/LOCATER V4.66.87.0                                                        04/03/2025  09:53:25  PAGE 9


GETINITAUTOUPDATETIME/TKDRIVER                ----- -----  ----- -----  ----- -----

_FILTERDATADEAL/TKDRIVER                      ----- -----  ----- -----  ----- -----
  +--> _FILTERDATADEALT1/SENSORMETHOD

_FILTERDATADEALT1/SENSORMETHOD                ----- -----  ----- -----  0164H 0166H
  +--> SENSORMETHOD
  +--> _GETCURRFINGERVALUE/TKDRIVER

_GETCURRFINGERVALUE/TKDRIVER                  ----- -----  ----- -----  ----- -----

INITIALIZEBASELINES/SENSORMETHOD              ----- -----  ----- -----  ----- -----
  +--> SENSORMETHOD

SYS_SCAN/SYSFUNVARDEFINE                      ----- -----  ----- -----  ----- -----
  +--> TOUCHKEYSCAN/TKDRIVER
  +--> CHANGETOUCHKEYVALUE/SYSFUNVARDEFINE
  +--> UPDATEDISPLAY/SYSFUNVARDEFINE
  +--> SLIDERTOUCHKEYVALUE/SYSFUNVARDEFINE
  +--> TOUCHKEYRESTART/SENSORMETHOD

TOUCHKEYSCAN/TKDRIVER                         ----- -----  0012H 001BH  0160H 0160H
  +--> GETISNEEDUPDATEBASELINE/SENSORMETHOD
  +--> SENSORKEYFLAGT1/TKDRIVER
  +--> SETNEEDUPDATEBASELINE/SENSORMETHOD
  +--> ISDOUBLEKEYORSLIDEKEY/TKDRIVER
  +--> SETONEKEYPUSHRESETTIME/TKDRIVER
  +--> _MULTIPLEDEAL/SENSORMETHOD

GETISNEEDUPDATEBASELINE/SENSORMETHOD          ----- -----  ----- -----  ----- -----

SENSORKEYFLAGT1/TKDRIVER                      ----- -----  ----- -----  0161H 0163H
  +--> _FILTERDATADEAL/TKDRIVER
  +--> _TKSLIDEMODULECHIS/TKDRIVER
  +--> _SENSORRENOVATET1/SENSORMETHOD
  +--> _TKSLIDEMODULESENSORRENOVATE/SENSORMETHOD

_TKSLIDEMODULECHIS/TKDRIVER                   ----- -----  ----- -----  ----- -----

_SENSORRENOVATET1/SENSORMETHOD                ----- -----  ----- -----  0164H 016CH
  +--> SENSORMETHOD
  +--> _GETCURRFINGERVALUE/TKDRIVER
  +--> GETCSFUNCTION/TKDRIVER
  +--> ISDOUBLEKEYORSLIDEKEY/TKDRIVER
  +--> GETTKYZCNT/TKDRIVER
  +--> _GETTKYZTHRESHOLD/TKDRIVER
  +--> GETBASELINEUPDATETHRESHOLD/TKDRIVER
  +--> GETUPCONFIRMCNT/TKDRIVER
  +--> _ICHAADJUST/SENSORMETHOD

GETCSFUNCTION/TKDRIVER                        ----- -----  ----- -----  ----- -----

ISDOUBLEKEYORSLIDEKEY/TKDRIVER                ----- -----  ----- -----  ----- -----

GETTKYZCNT/TKDRIVER                           ----- -----  ----- -----  ----- -----

_GETTKYZTHRESHOLD/TKDRIVER                    ----- -----  ----- -----  ----- -----
  +--> _GETCURRFINGERVALUE/TKDRIVER

GETBASELINEUPDATETHRESHOLD/TKDRIVER           ----- -----  ----- -----  ----- -----

GETUPCONFIRMCNT/TKDRIVER                      ----- -----  ----- -----  ----- -----

_TKSLIDEMODULESENSORRENOVATE/SENSORMETHO+     ----- -----  ----- -----  0164H 01BBH
... D
LX51 LINKER/LOCATER V4.66.87.0                                                        04/03/2025  09:53:25  PAGE 10


  +--> SENSORMETHOD
  +--> _GETCURRFINGERVALUE/TKDRIVER
  +--> _BASELINEUPDATASW/SENSORMETHOD

_BASELINEUPDATASW/SENSORMETHOD                ----- -----  ----- -----  01BCH 01C9H
  +--> SENSORMETHOD
  +--> _GETCURRFINGERVALUE/TKDRIVER
  +--> GETBASELINEUPDATETHRESHOLD/TKDRIVER

SETNEEDUPDATEBASELINE/SENSORMETHOD            ----- -----  ----- -----  ----- -----

SETONEKEYPUSHRESETTIME/TKDRIVER               ----- -----  ----- -----  ----- -----

_MULTIPLEDEAL/SENSORMETHOD                    ----- -----  ----- -----  0161H 0162H
  +--> SENSORMETHOD
  +--> INITIALIZESENSORFLAG/SENSORMETHOD
  +--> FILTERIIRINIT/SENSORMETHOD
  +--> _FILTERDATADEAL/TKDRIVER
  +--> INITIALIZEBASELINES/SENSORMETHOD

CHANGETOUCHKEYVALUE/SYSFUNVARDEFINE           ----- -----  ----- -----  ----- -----

UPDATEDISPLAY/SYSFUNVARDEFINE                 ----- -----  ----- -----  ----- -----

SLIDERTOUCHKEYVALUE/SYSFUNVARDEFINE           ----- -----  ----- -----  ----- -----
  +--> LEVEL0/SYSFUNVARDEFINE
  +--> LEVEL1/SYSFUNVARDEFINE
  +--> LEVEL2/SYSFUNVARDEFINE
  +--> LEVEL3/SYSFUNVARDEFINE
  +--> LEVEL4/SYSFUNVARDEFINE
  +--> LEVEL5/SYSFUNVARDEFINE
  +--> LEVEL6/SYSFUNVARDEFINE
  +--> LEVEL7/SYSFUNVARDEFINE
  +--> LED_ALLOFF/SYSFUNVARDEFINE

LEVEL0/SYSFUNVARDEFINE                        ----- -----  ----- -----  ----- -----

LEVEL1/SYSFUNVARDEFINE                        ----- -----  ----- -----  ----- -----

LEVEL2/SYSFUNVARDEFINE                        ----- -----  ----- -----  ----- -----

LEVEL3/SYSFUNVARDEFINE                        ----- -----  ----- -----  ----- -----

LEVEL4/SYSFUNVARDEFINE                        ----- -----  ----- -----  ----- -----

LEVEL5/SYSFUNVARDEFINE                        ----- -----  ----- -----  ----- -----

LEVEL6/SYSFUNVARDEFINE                        ----- -----  ----- -----  ----- -----

LEVEL7/SYSFUNVARDEFINE                        ----- -----  ----- -----  ----- -----

LED_ALLOFF/SYSFUNVARDEFINE                    ----- -----  ----- -----  ----- -----

TOUCHKEYRESTART/SENSORMETHOD                  ----- -----  ----- -----  ----- -----

?C_INITSEG                                    ----- -----  ----- -----  ----- -----



PUBLIC SYMBOLS OF MODULE:  ..\Output\TBK-RD8T3X (MAIN)


      VALUE       CLASS    TYPE      PUBLIC SYMBOL NAME
      =================================================
      020001BCH   XDATA    BYTE      ?_BaseLineUpdataSW?BYTE
LX51 LINKER/LOCATER V4.66.87.0                                                        04/03/2025  09:53:25  PAGE 11


      01000455H   CODE     ---       ?C?CASTF
      010004EFH   CODE     ---       ?C?CLDOPTR
      010004D6H   CODE     ---       ?C?CLDPTR
      00000000H   NUMBER   ---       ?C?CODESEG
      01000421H   CODE     ---       ?C?FCASTC
      0100041CH   CODE     ---       ?C?FCASTI
      01000417H   CODE     ---       ?C?FCASTL
      01000107H   CODE     ---       ?C?FPADD
      010003A0H   CODE     ---       ?C?FPCMP
      0100039EH   CODE     ---       ?C?FPCMP3
      01000301H   CODE     ---       ?C?FPDIV
      0100048CH   CODE     ---       ?C?FPGETOPN2
      010001F8H   CODE     ---       ?C?FPMUL
      010004C1H   CODE     ---       ?C?FPNANRESULT
      010004CBH   CODE     ---       ?C?FPOVERFLOW
      010004A3H   CODE     ---       ?C?FPRESULT
      010004B7H   CODE     ---       ?C?FPRESULT2
      01000103H   CODE     ---       ?C?FPSUB
      010004C8H   CODE     ---       ?C?FPUNDERFLOW
      01000632H   CODE     ---       ?C?IILDOPTR
      010005B9H   CODE     ---       ?C?IILDX
      010005FAH   CODE     ---       ?C?ILDOPTR
      010005CFH   CODE     ---       ?C?ILDPTR
      0100051CH   CODE     ---       ?C?IMUL
      0100069EH   CODE     ---       ?C?ISTOPTR
      0100067FH   CODE     ---       ?C?ISTPTR
      010006CBH   CODE     ---       ?C?LADD
      010007ECH   CODE     ---       ?C?LCASE
      01000779H   CODE     ---       ?C?LLDXDATA
      01000785H   CODE     ---       ?C?LLDXDATA0
      010006D8H   CODE     ---       ?C?LMUL
      01000734H   CODE     ---       ?C?LNEG
      01000727H   CODE     ---       ?C?LNOT
      01000766H   CODE     ---       ?C?LSHL
      0100079DH   CODE     ---       ?C?LSTKXDATA
      01000791H   CODE     ---       ?C?LSTXDATA
      010007CEH   CODE     ---       ?C?OFFXADD
      010007DAH   CODE     ---       ?C?PLDXDATA
      010007E3H   CODE     ---       ?C?PSTXDATA
      01000583H   CODE     ---       ?C?SIDIV
      01001BAEH   CODE     ---       ?C?SLDIV
      0100052EH   CODE     ---       ?C?UIDIV
      01000742H   CODE     ---       ?C?ULCMP
      01000862H   CODE     ---       ?C?ULDIV
      01000753H   CODE     ---       ?C?ULSHR
      00000000H   NUMBER   ---       ?C?XDATASEG
      010018FCH   CODE     ---       ?C_START
      01000000H   CODE     ---       ?C_STARTUP
      010013DFH   CODE     ---       _BaseLineUpdataSW
      01002479H   CODE     ---       _FilterDataDeal
      010017C3H   CODE     ---       _FilterDataDealT1
      01002545H   CODE     ---       _GetBaseLineAdjustValue
      01002552H   CODE     ---       _GetCfgMsg
      010024EBH   CODE     ---       _GetCurrFingerValue
      0100252BH   CODE     ---       _GetScanTimeValue
      01002517H   CODE     ---       _GetTKYzThreshold
      01001DC5H   CODE     ---       _GPIO_Init
*DEL*:00000000H   CODE     ---       _GPIO_IOH_Config
*DEL*:00000000H   CODE     ---       _GPIO_ReadPin
*DEL*:00000000H   CODE     ---       _GPIO_ReadPort
*DEL*:00000000H   CODE     ---       _GPIO_TogglePin
*DEL*:00000000H   CODE     ---       _GPIO_Write
*DEL*:00000000H   CODE     ---       _GPIO_WriteHigh
*DEL*:00000000H   CODE     ---       _GPIO_WriteLow
      01001A59H   CODE     ---       _ICHAAdjust
LX51 LINKER/LOCATER V4.66.87.0                                                        04/03/2025  09:53:25  PAGE 12


      0100159CH   CODE     ---       _MultipleDeal
*DEL*:00000000H   CODE     ---       _OPTION_ADC_VrefConfig
*DEL*:00000000H   CODE     ---       _OPTION_IAP_SetOperateRange
*DEL*:00000000H   CODE     ---       _OPTION_JTG_Cmd
*DEL*:00000000H   CODE     ---       _OPTION_LVR_Init
*DEL*:00000000H   CODE     ---       _OPTION_SYSCLK_Init
*DEL*:00000000H   CODE     ---       _OPTION_WDT_Cmd
*DEL*:00000000H   CODE     ---       _OPTION_XTIPLL_Cmd
      01000D61H   CODE     ---       _SensorRenovateT1
      01002706H   CODE     ---       _TIM2_ClearFlag
      01001EADH   CODE     ---       _TIM2_Cmd
*DEL*:00000000H   CODE     ---       _TIM2_GetFlagStatus
      01001EF9H   CODE     ---       _TIM2_ITConfig
*DEL*:00000000H   CODE     ---       _TIM2_PrescalerSelection
*DEL*:00000000H   CODE     ---       _TIM2_SetEXEN2
      01001F56H   CODE     ---       _TIM2_TimeBaseInit
*DEL*:00000000H   CODE     ---       _TIM2_WorkMode0Config
      01001EE8H   CODE     ---       _TIM2_WorkMode1Config
*DEL*:00000000H   CODE     ---       _TIM2_WorkMode3Config
*DEL*:00000000H   CODE     ---       _TIM2_WorkModeConfig
      01002484H   CODE     ---       _TKSlideModuleCHIs
      010008F4H   CODE     ---       _TKSlideModuleSensorRenovate
*SFR* 000000D0H.6 DATA     BIT       AC
*SFR* 000000E0H   DATA     BYTE      ACC
      01001FFCH   CODE     ---       ACMPInterrupt
*SFR* 000000ABH   DATA     BYTE      ADCCFG0
*SFR* 000000ACH   DATA     BYTE      ADCCFG1
*SFR* 000000B5H   DATA     BYTE      ADCCFG2
*SFR* 000000ADH   DATA     BYTE      ADCCON
      01001FF7H   CODE     ---       ADCInterrupt
*SFR* 000000AFH   DATA     BYTE      ADCVH
*SFR* 000000AEH   DATA     BYTE      ADCVL
*SFR* 000000F0H   DATA     BYTE      B
      02000001H   XDATA    ---       BaseLine
      02000065H   XDATA    ---       BaseLineAdjusttmp
      0200001CH   XDATA    BYTE      BigNosicCount
      00000020H.0 BIT      BIT       bMultiple
      00000020H.1 BIT      BIT       bNeedUpdate
*SFR* 000000FBH   DATA     BYTE      BTMCON
      01001FFAH   CODE     ---       BTMInterrupt
      01002005H   CODE     ---       ChangeTouchKeyvalue
*SFR* 000000B6H   DATA     BYTE      CMPCFG
*SFR* 000000B7H   DATA     BYTE      CMPCON
      02000000H   XDATA    BYTE      ConfirmTouchCnt
*SFR* 000000C8H.0 DATA     BIT       CP
*SFR* 000000FCH   DATA     BYTE      CRCINX
*SFR* 000000FDH   DATA     BYTE      CRCREG
      010026CBH   CODE     ---       CTK_ISR
      0200001DH   XDATA    ---       CurrentChannel
      00000010H   DATA     BYTE      CurrentChannelMax
      020001DCH   XDATA    BYTE      CurrentIndex
      0100258DH   CODE     ---       CurrentSensorChoose
*DEL*:00000000H   CODE     ---       Customer_BTM_Dispose
*DEL*:00000000H   CODE     ---       Customer_IntoLowPowerMode_Init
*DEL*:00000000H   CODE     ---       Customer_QuitLowPowerMode_Init
*SFR* 000000D0H.7 DATA     BIT       CY
*SFR* 00000093H   DATA     BYTE      DDRCON
      0200004AH   XDATA    ---       DifferAccum
*SFR* 00000083H   DATA     BYTE      DPH
*SFR* 00000085H   DATA     BYTE      DPH1
*SFR* 00000082H   DATA     BYTE      DPL
*SFR* 00000084H   DATA     BYTE      DPL1
*SFR* 00000086H   DATA     BYTE      DPS
*SFR* 000000A8H.7 DATA     BIT       EA
*SFR* 000000A8H.6 DATA     BIT       EADC
LX51 LINKER/LOCATER V4.66.87.0                                                        04/03/2025  09:53:25  PAGE 13


*SFR* 000000A8H.0 DATA     BIT       EINT0
*SFR* 000000A8H.2 DATA     BIT       EINT1
*SFR* 000000A8H.1 DATA     BIT       ET0
*SFR* 000000A8H.3 DATA     BIT       ET1
*SFR* 000000A8H.5 DATA     BIT       ET2
*SFR* 000000A8H.4 DATA     BIT       EUART
*SFR* 000000E9H   DATA     BYTE      EXA0
*SFR* 000000EAH   DATA     BYTE      EXA1
*SFR* 000000EBH   DATA     BYTE      EXA2
*SFR* 000000ECH   DATA     BYTE      EXA3
*SFR* 000000F7H   DATA     BYTE      EXADH
*SFR* 000000EEH   DATA     BYTE      EXBH
*SFR* 000000EDH   DATA     BYTE      EXBL
*SFR* 000000C8H.3 DATA     BIT       EXENX
*SFR* 000000C8H.6 DATA     BIT       EXFX
      020001CEH   XDATA    BYTE      exKeyValue
      020001CAH   XDATA    DWORD     exKeyValueFlag
*SFR* 000000D0H.5 DATA     BIT       F0
*SFR* 000000D0H.1 DATA     BIT       F1
      01001ADCH   CODE     ---       FilterAvergeDeal
      01001C30H   CODE     ---       FilterCommCode
      02000144H   XDATA    ---       FilterData
      01001C55H   CODE     ---       FilterIIRInit
      02000013H   XDATA    ---       FloatAreaCnt
      020001D9H   XDATA    WORD      FlowFingerRoundCnt
      020001D6H   XDATA    BYTE      FlowFingerRoundIndex
      010024D5H   CODE     ---       GetBaselineUpdateThreshold
      010024E8H   CODE     ---       GetCsFunction
      010024E0H   CODE     ---       GetInitAutoUpdateTime
      01001C8EH   CODE     ---       GetIsNeedUpdateBaseline
      01002583H   CODE     ---       GetTKYzCnt
      0100253DH   CODE     ---       GetUpConfirmCnt
*DEL*:00000000H   CODE     ---       GPIO_DeInit
      020001D4H   XDATA    BYTE      gTkIsValid
*SFR* 000000F4H   DATA     BYTE      IAPADE
*SFR* 000000F3H   DATA     BYTE      IAPADH
*SFR* 000000F2H   DATA     BYTE      IAPADL
*SFR* 000000F6H   DATA     BYTE      IAPCTL
*SFR* 000000F5H   DATA     BYTE      IAPDAT
*SFR* 000000F1H   DATA     BYTE      IAPKEY
*SFR* 000000A8H   DATA     BYTE      IE
*SFR* 000000A9H   DATA     BYTE      IE1
*SFR* 000000AAH   DATA     BYTE      IE2
      01001C74H   CODE     ---       InitializeBaselines
      01001BF2H   CODE     ---       InitializeSensorFlag
*SFR* 000000B4H   DATA     BYTE      INT0F
      01001FAAH   CODE     ---       INT0Interrupt
*SFR* 000000BBH   DATA     BYTE      INT0R
*SFR* 000000BCH   DATA     BYTE      INT1F
      01001FAFH   CODE     ---       INT1Interrupt
*SFR* 000000BDH   DATA     BYTE      INT1R
*SFR* 000000BEH   DATA     BYTE      INT2F
      01001FFBH   CODE     ---       INT2Interrupt
*SFR* 000000BFH   DATA     BYTE      INT2R
*SFR* 00000096H   DATA     BYTE      IOHCON0
*SFR* 00000097H   DATA     BYTE      IOHCON1
*SFR* 000000B8H   DATA     BYTE      IP
*SFR* 000000B9H   DATA     BYTE      IP1
*SFR* 000000BAH   DATA     BYTE      IP2
*SFR* 000000B8H.6 DATA     BIT       IPADC
*SFR* 000000B8H.0 DATA     BIT       IPINT0
*SFR* 000000B8H.2 DATA     BIT       IPINT1
*SFR* 000000B8H.1 DATA     BIT       IPT0
*SFR* 000000B8H.3 DATA     BIT       IPT1
*SFR* 000000B8H.5 DATA     BIT       IPT2
LX51 LINKER/LOCATER V4.66.87.0                                                        04/03/2025  09:53:25  PAGE 14


*SFR* 000000B8H.4 DATA     BIT       IPUART
      0100247CH   CODE     ---       IsDoubleKeyOrSlideKey
      020001DDH   XDATA    BYTE      IsInNosicValue
      00000008H   DATA     DWORD     KeyFlag
      0000000CH   DATA     DWORD     KeyMark
      020001D3H   XDATA    BYTE      KeyValue
      01002067H   CODE     ---       LED_ALLOFF
      0100217DH   CODE     ---       Level0
      0100218EH   CODE     ---       Level1
      0100219FH   CODE     ---       Level2
      010021B0H   CODE     ---       Level3
      010021C1H   CODE     ---       Level4
      010021D2H   CODE     ---       Level5
      010021E3H   CODE     ---       Level6
      010021F4H   CODE     ---       Level7
      02000041H   XDATA    ---       LowFingerDataCnt
      01002004H   CODE     ---       LPDInterrupt
      01001CFEH   CODE     ---       main
      020001D1H   XDATA    WORD      Module0_KeyValue
      020001CFH   XDATA    WORD      Module0_value
      020001DBH   XDATA    BYTE      MultipleDealIndex
      0200015FH   XDATA    BYTE      MultipleDealTpye
      0200006EH   XDATA    WORD      MultipleLNum
      02000156H   XDATA    ---       NoTouchCnt
*SFR* 000000EFH   DATA     BYTE      OPERCON
*SFR* 000000FEH   DATA     BYTE      OPINX
*SFR* 000000FFH   DATA     BYTE      OPREG
*SFR* 0000008FH   DATA     BYTE      OTCON
*SFR* 000000D0H.2 DATA     BIT       OV
*SFR* 000000D0H.0 DATA     BIT       P
*SFR* 00000080H   DATA     BYTE      P0
*SFR* 00000080H.0 DATA     BIT       P00
*SFR* 00000080H.1 DATA     BIT       P01
*SFR* 00000080H.2 DATA     BIT       P02
*SFR* 00000080H.3 DATA     BIT       P03
*SFR* 00000080H.4 DATA     BIT       P04
*SFR* 00000080H.5 DATA     BIT       P05
*SFR* 00000080H.6 DATA     BIT       P06
*SFR* 00000080H.7 DATA     BIT       P07
*SFR* 0000009AH   DATA     BYTE      P0CON
*SFR* 0000009BH   DATA     BYTE      P0PH
*SFR* 0000009CH   DATA     BYTE      P0VO
*SFR* 00000090H   DATA     BYTE      P1
*SFR* 00000090H.0 DATA     BIT       P10
*SFR* 00000090H.1 DATA     BIT       P11
*SFR* 00000090H.2 DATA     BIT       P12
*SFR* 00000090H.3 DATA     BIT       P13
*SFR* 00000090H.4 DATA     BIT       P14
*SFR* 00000090H.5 DATA     BIT       P15
*SFR* 00000090H.6 DATA     BIT       P16
*SFR* 00000090H.7 DATA     BIT       P17
*SFR* 00000091H   DATA     BYTE      P1CON
*SFR* 00000092H   DATA     BYTE      P1PH
*SFR* 00000094H   DATA     BYTE      P1VO
*SFR* 000000A0H   DATA     BYTE      P2
*SFR* 000000A0H.0 DATA     BIT       P20
*SFR* 000000A0H.1 DATA     BIT       P21
*SFR* 000000A0H.2 DATA     BIT       P22
*SFR* 000000A0H.3 DATA     BIT       P23
*SFR* 000000A0H.4 DATA     BIT       P24
*SFR* 000000A0H.5 DATA     BIT       P25
*SFR* 000000A0H.6 DATA     BIT       P26
*SFR* 000000A0H.7 DATA     BIT       P27
*SFR* 000000A1H   DATA     BYTE      P2CON
*SFR* 000000A2H   DATA     BYTE      P2PH
LX51 LINKER/LOCATER V4.66.87.0                                                        04/03/2025  09:53:25  PAGE 15


*SFR* 000000A3H   DATA     BYTE      P2VO
*SFR* 000000B0H   DATA     BYTE      P3
*SFR* 000000B0H.0 DATA     BIT       P30
*SFR* 000000B0H.1 DATA     BIT       P31
*SFR* 000000B0H.2 DATA     BIT       P32
*SFR* 000000B0H.3 DATA     BIT       P33
*SFR* 000000B0H.4 DATA     BIT       P34
*SFR* 000000B0H.5 DATA     BIT       P35
*SFR* 000000B0H.6 DATA     BIT       P36
*SFR* 000000B0H.7 DATA     BIT       P37
*SFR* 000000B1H   DATA     BYTE      P3CON
*SFR* 000000B2H   DATA     BYTE      P3PH
*SFR* 000000B3H   DATA     BYTE      P3VO
*SFR* 000000C0H   DATA     BYTE      P4
*SFR* 000000C0H.0 DATA     BIT       P40
*SFR* 000000C0H.1 DATA     BIT       P41
*SFR* 000000C0H.2 DATA     BIT       P42
*SFR* 000000C0H.3 DATA     BIT       P43
*SFR* 000000C0H.4 DATA     BIT       P44
*SFR* 000000C0H.5 DATA     BIT       P45
*SFR* 000000C0H.6 DATA     BIT       P46
*SFR* 000000C0H.7 DATA     BIT       P47
*SFR* 000000C1H   DATA     BYTE      P4CON
*SFR* 000000C2H   DATA     BYTE      P4PH
*SFR* 000000D8H   DATA     BYTE      P5
*SFR* 000000D8H.0 DATA     BIT       P50
*SFR* 000000D8H.1 DATA     BIT       P51
*SFR* 000000D8H.2 DATA     BIT       P52
*SFR* 000000D8H.3 DATA     BIT       P53
*SFR* 000000D8H.4 DATA     BIT       P54
*SFR* 000000D8H.5 DATA     BIT       P55
*SFR* 000000D9H   DATA     BYTE      P5CON
*SFR* 000000DAH   DATA     BYTE      P5PH
*SFR* 00000087H   DATA     BYTE      PCON
*SFR* 000000D0H   DATA     BYTE      PSW
*SFR* 000000D1H   DATA     BYTE      PWMCFG
*SFR* 000000D2H   DATA     BYTE      PWMCON0
*SFR* 000000D3H   DATA     BYTE      PWMCON1
*SFR* 000000D6H   DATA     BYTE      PWMDFR
*SFR* 000000D7H   DATA     BYTE      PWMFLT
      01001FF9H   CODE     ---       PWMInterrupt
*SFR* 000000D5H   DATA     BYTE      PWMPDH
*SFR* 000000D4H   DATA     BYTE      PWMPDL
      02000026H   XDATA    ---       RawData
*SFR* 00000098H.2 DATA     BIT       RB8
*SFR* 000000CBH   DATA     BYTE      RCAPXH
*SFR* 000000CAH   DATA     BYTE      RCAPXL
*SFR* 000000C8H.5 DATA     BIT       RCLKX
*SFR* 00000098H.4 DATA     BIT       REN
      0200005CH   XDATA    ---       RestAreaCnt
*SFR* 00000098H.0 DATA     BIT       RI
*SFR* 000000D0H.3 DATA     BIT       RS0
*SFR* 000000D0H.4 DATA     BIT       RS1
*SFR* 00000099H   DATA     BYTE      SBUF
*DEL*:00000000H   CODE     ---       SC_ACMP_Init
*DEL*:00000000H   CODE     ---       SC_ADC_Init
*DEL*:00000000H   CODE     ---       SC_BTM_Init
*DEL*:00000000H   CODE     ---       SC_CHKSUM_Init
*DEL*:00000000H   CODE     ---       SC_CRC_Init
*DEL*:00000000H   CODE     ---       SC_DDIC_Init
      01001D0FH   CODE     ---       SC_GPIO_Init
*DEL*:00000000H   CODE     ---       SC_IAP_Init
      01001D06H   CODE     ---       SC_Init
*DEL*:00000000H   CODE     ---       SC_INT_Init
*DEL*:00000000H   CODE     ---       SC_LPD_Init
LX51 LINKER/LOCATER V4.66.87.0                                                        04/03/2025  09:53:25  PAGE 16


*DEL*:00000000H   CODE     ---       SC_MDU_Init
      01001EE7H   CODE     ---       SC_OPTION_Init
*DEL*:00000000H   CODE     ---       SC_PGA_Init
*DEL*:00000000H   CODE     ---       SC_PWM0_Init
*DEL*:00000000H   CODE     ---       SC_PWM1_Init
*DEL*:00000000H   CODE     ---       SC_PWM2_Init
*DEL*:00000000H   CODE     ---       SC_PWM3_Init
*DEL*:00000000H   CODE     ---       SC_PWM4_Init
*DEL*:00000000H   CODE     ---       SC_PWM_Init
*DEL*:00000000H   CODE     ---       SC_PWR_Init
*DEL*:00000000H   CODE     ---       SC_SSI0_Init
*DEL*:00000000H   CODE     ---       SC_SSI1_Init
*DEL*:00000000H   CODE     ---       SC_SSI_Init
*DEL*:00000000H   CODE     ---       SC_TIM0_Init
*DEL*:00000000H   CODE     ---       SC_TIM1_Init
      01001E97H   CODE     ---       SC_TIM2_Init
*DEL*:00000000H   CODE     ---       SC_TIM3_Init
*DEL*:00000000H   CODE     ---       SC_TIM4_Init
*DEL*:00000000H   CODE     ---       SC_UART0_Init
*DEL*:00000000H   CODE     ---       SC_USCI0_Init
*DEL*:00000000H   CODE     ---       SC_USCI1_Init
*DEL*:00000000H   CODE     ---       SC_USCI2_Init
*DEL*:00000000H   CODE     ---       SC_USCI3_Init
*DEL*:00000000H   CODE     ---       SC_USCI4_Init
*DEL*:00000000H   CODE     ---       SC_USCI5_Init
*DEL*:00000000H   CODE     ---       SC_WDT_Init
      020001D7H   XDATA    WORD      ScanTime
*SFR* 00000098H   DATA     BYTE      SCON
      01002402H   CODE     ---       SensorKeyFlagT1
      01001C91H   CODE     ---       SetNeedUpdateBaseline
      02000143H   XDATA    CHAR      SetNoiseThreshold
      01002205H   CODE     ---       SetOneKeyPushResetTime
      01002078H   CODE     ---       SliderTouchKeyvalue
*SFR* 00000098H.7 DATA     BIT       SM0
*SFR* 00000098H.6 DATA     BIT       SM1
*SFR* 00000098H.5 DATA     BIT       SM2
      02000140H   XDATA    BYTE      SOCAPI_TouchKeyStatus
*SFR* 00000081H   DATA     BYTE      SP
      01001EB9H   CODE     ---       Sys_Scan
*SFR* 00000098H.3 DATA     BIT       TB8
*SFR* 000000C8H.4 DATA     BIT       TCLKX
*SFR* 00000088H   DATA     BYTE      TCON
*SFR* 00000088H.5 DATA     BIT       TF0
*SFR* 00000088H.7 DATA     BIT       TF1
*SFR* 000000C8H.7 DATA     BIT       TFX
*SFR* 0000008CH   DATA     BYTE      TH0
*SFR* 0000008DH   DATA     BYTE      TH1
*SFR* 000000CDH   DATA     BYTE      THX
*SFR* 00000098H.1 DATA     BIT       TI
*DEL*:00000000H   CODE     ---       TIM2_DeInit
*DEL*:00000000H   CODE     ---       TIM2_GetCapture
*DEL*:00000000H   CODE     ---       TIM2_GetCounter
      01001FAEH   CODE     ---       Timer0Interrupt
      01001FB3H   CODE     ---       Timer1Interrupt
      01001FB5H   CODE     ---       Timer2Interrupt
      01001FFDH   CODE     ---       Timer3Interrupt
      01001FFEH   CODE     ---       Timer4Interrupt
*SFR* 000000D0H.7 DATA     BIT       TK_CY
*SFR* 000000D0H   DATA     BYTE      TK_PSW
      01001C94H   CONST    ---       TKCFG
      01001CB6H   CONST    ---       TKChannelCfg
      02000070H   XDATA    ---       TKSlideModulePCBArray
*SFR* 0000008AH   DATA     BYTE      TL0
*SFR* 0000008BH   DATA     BYTE      TL1
*SFR* 000000CCH   DATA     BYTE      TLX
LX51 LINKER/LOCATER V4.66.87.0                                                        04/03/2025  09:53:25  PAGE 17


*SFR* 0000008EH   DATA     BYTE      TMCON
*SFR* 00000089H   DATA     BYTE      TMOD
      02000038H   XDATA    ---       TouchCnt
      01001B4FH   CODE     ---       TouchKey_Service
      0100265DH   CODE     ---       TouchKeyCFGInit
      01001941H   CODE     ---       TouchKeyInit
      01001C8BH   CODE     ---       TouchKeyRestart
      01002210H   CODE     ---       TouchKeyScan
*SFR* 00000088H.4 DATA     BIT       TR0
*SFR* 00000088H.6 DATA     BIT       TR1
*SFR* 000000C8H.2 DATA     BIT       TRX
*SFR* 000000C8H.1 DATA     BIT       TX
*SFR* 000000C8H   DATA     BYTE      TXCON
*SFR* 000000CEH   DATA     BYTE      TXINX
*SFR* 000000C9H   DATA     BYTE      TXMOD
      01001FB4H   CODE     ---       UART0Interrupt
      02000141H   XDATA    WORD      UpdateBaseLNum
      01001F0EH   CODE     ---       UpdateDisplay
*SFR* 00000095H   DATA     BYTE      US0CON0
*SFR* 0000009DH   DATA     BYTE      US0CON1
*SFR* 0000009EH   DATA     BYTE      US0CON2
*SFR* 0000009FH   DATA     BYTE      US0CON3
*SFR* 000000A4H   DATA     BYTE      US1CON0
*SFR* 000000A5H   DATA     BYTE      US1CON1
*SFR* 000000A6H   DATA     BYTE      US1CON2
*SFR* 000000A7H   DATA     BYTE      US1CON3
      01001FF8H   CODE     ---       USCI0Interrupt
      01001FFFH   CODE     ---       USCI1Interrupt
      01002000H   CODE     ---       USCI2Interrupt
      01002001H   CODE     ---       USCI3Interrupt
      01002002H   CODE     ---       USCI4Interrupt
      01002003H   CODE     ---       USCI5Interrupt
      010019CEH   CODE     ---       Usdelay
      00000011H   DATA     BYTE      UsingTKSlideModuleNumber
*SFR* 000000C4H   DATA     BYTE      USXCON0
*SFR* 000000C5H   DATA     BYTE      USXCON1
*SFR* 000000C6H   DATA     BYTE      USXCON2
*SFR* 000000C7H   DATA     BYTE      USXCON3
*SFR* 000000DCH   DATA     BYTE      USXINX
*SFR* 000000CFH   DATA     BYTE      WDTCON



SYMBOL TABLE OF MODULE:  ..\Output\TBK-RD8T3X (MAIN)

      VALUE       REP       CLASS    TYPE      SYMBOL NAME
      ====================================================
      ---         MODULE    ---      ---       MAIN
      01001CFEH   PUBLIC    CODE     ---       main
      000000C8H.2 SFRSYM    DATA     BIT       TRX
      000000FFH   SFRSYM    DATA     BYTE      OPREG
      00000080H   SFRSYM    DATA     BYTE      P0
      00000090H   SFRSYM    DATA     BYTE      P1
      000000A0H   SFRSYM    DATA     BYTE      P2
      000000A8H.4 SFRSYM    DATA     BIT       EUART
      0000008EH   SFRSYM    DATA     BYTE      TMCON
      000000B0H   SFRSYM    DATA     BYTE      P3
      000000D0H.6 SFRSYM    DATA     BIT       AC
      000000C0H   SFRSYM    DATA     BYTE      P4
      0000008FH   SFRSYM    DATA     BYTE      OTCON
      000000D8H   SFRSYM    DATA     BYTE      P5
      000000A8H.7 SFRSYM    DATA     BIT       EA
      000000C8H.5 SFRSYM    DATA     BIT       RCLKX
      000000D2H   SFRSYM    DATA     BYTE      PWMCON0
      000000C8H.4 SFRSYM    DATA     BIT       TCLKX
LX51 LINKER/LOCATER V4.66.87.0                                                        04/03/2025  09:53:25  PAGE 18


      000000D3H   SFRSYM    DATA     BYTE      PWMCON1
      000000C8H.3 SFRSYM    DATA     BIT       EXENX
      000000A8H.6 SFRSYM    DATA     BIT       EADC
      000000C9H   SFRSYM    DATA     BYTE      TXMOD
      000000C8H   SFRSYM    DATA     BYTE      TXCON
      000000A8H   SFRSYM    DATA     BYTE      IE
      00000085H   SFRSYM    DATA     BYTE      DPH1
      000000E9H   SFRSYM    DATA     BYTE      EXA0
      000000FEH   SFRSYM    DATA     BYTE      OPINX
      000000EAH   SFRSYM    DATA     BYTE      EXA1
      000000EBH   SFRSYM    DATA     BYTE      EXA2
      000000ECH   SFRSYM    DATA     BYTE      EXA3
      00000084H   SFRSYM    DATA     BYTE      DPL1
      000000C8H.0 SFRSYM    DATA     BIT       CP
      000000C4H   SFRSYM    DATA     BYTE      USXCON0
      000000C5H   SFRSYM    DATA     BYTE      USXCON1
      000000C6H   SFRSYM    DATA     BYTE      USXCON2
      000000C7H   SFRSYM    DATA     BYTE      USXCON3
      000000EFH   SFRSYM    DATA     BYTE      OPERCON
      0000009BH   SFRSYM    DATA     BYTE      P0PH
      000000B8H   SFRSYM    DATA     BYTE      IP
      00000092H   SFRSYM    DATA     BYTE      P1PH
      00000098H.0 SFRSYM    DATA     BIT       RI
      000000A2H   SFRSYM    DATA     BYTE      P2PH
      000000D0H.7 SFRSYM    DATA     BIT       CY
      000000B2H   SFRSYM    DATA     BYTE      P3PH
      00000098H.1 SFRSYM    DATA     BIT       TI
      000000CEH   SFRSYM    DATA     BYTE      TXINX
      000000C2H   SFRSYM    DATA     BYTE      P4PH
      000000B8H.1 SFRSYM    DATA     BIT       IPT0
      000000DAH   SFRSYM    DATA     BYTE      P5PH
      000000B8H.3 SFRSYM    DATA     BIT       IPT1
      000000B8H.5 SFRSYM    DATA     BIT       IPT2
      00000081H   SFRSYM    DATA     BYTE      SP
      000000D0H.2 SFRSYM    DATA     BIT       OV
      000000F4H   SFRSYM    DATA     BYTE      IAPADE
      0000009CH   SFRSYM    DATA     BYTE      P0VO
      00000094H   SFRSYM    DATA     BYTE      P1VO
      000000A3H   SFRSYM    DATA     BYTE      P2VO
      000000EEH   SFRSYM    DATA     BYTE      EXBH
      000000F3H   SFRSYM    DATA     BYTE      IAPADH
      000000B3H   SFRSYM    DATA     BYTE      P3VO
      000000ADH   SFRSYM    DATA     BYTE      ADCCON
      000000C8H.1 SFRSYM    DATA     BIT       TX
      000000EDH   SFRSYM    DATA     BYTE      EXBL
      000000F2H   SFRSYM    DATA     BYTE      IAPADL
      00000080H.0 SFRSYM    DATA     BIT       P00
      00000090H.0 SFRSYM    DATA     BIT       P10
      00000080H.1 SFRSYM    DATA     BIT       P01
      00000099H   SFRSYM    DATA     BYTE      SBUF
      00000087H   SFRSYM    DATA     BYTE      PCON
      000000A0H.0 SFRSYM    DATA     BIT       P20
      00000090H.1 SFRSYM    DATA     BIT       P11
      00000080H.2 SFRSYM    DATA     BIT       P02
      000000B6H   SFRSYM    DATA     BYTE      CMPCFG
      000000B0H.0 SFRSYM    DATA     BIT       P30
      000000A0H.1 SFRSYM    DATA     BIT       P21
      00000090H.2 SFRSYM    DATA     BIT       P12
      00000080H.3 SFRSYM    DATA     BIT       P03
      000000C0H.0 SFRSYM    DATA     BIT       P40
      000000B0H.1 SFRSYM    DATA     BIT       P31
      000000A0H.2 SFRSYM    DATA     BIT       P22
      00000090H.3 SFRSYM    DATA     BIT       P13
      00000080H.4 SFRSYM    DATA     BIT       P04
      00000098H   SFRSYM    DATA     BYTE      SCON
LX51 LINKER/LOCATER V4.66.87.0                                                        04/03/2025  09:53:25  PAGE 19


      000000D8H.0 SFRSYM    DATA     BIT       P50
      000000C0H.1 SFRSYM    DATA     BIT       P41
      000000B0H.2 SFRSYM    DATA     BIT       P32
      000000A0H.3 SFRSYM    DATA     BIT       P23
      00000090H.4 SFRSYM    DATA     BIT       P14
      00000080H.5 SFRSYM    DATA     BIT       P05
      000000F5H   SFRSYM    DATA     BYTE      IAPDAT
      00000089H   SFRSYM    DATA     BYTE      TMOD
      00000088H   SFRSYM    DATA     BYTE      TCON
      000000D8H.1 SFRSYM    DATA     BIT       P51
      000000C0H.2 SFRSYM    DATA     BIT       P42
      000000B0H.3 SFRSYM    DATA     BIT       P33
      000000A0H.4 SFRSYM    DATA     BIT       P24
      00000090H.5 SFRSYM    DATA     BIT       P15
      00000080H.6 SFRSYM    DATA     BIT       P06
      000000B8H.0 SFRSYM    DATA     BIT       IPINT0
      000000D8H.2 SFRSYM    DATA     BIT       P52
      000000C0H.3 SFRSYM    DATA     BIT       P43
      000000B0H.4 SFRSYM    DATA     BIT       P34
      000000A0H.5 SFRSYM    DATA     BIT       P25
      00000090H.6 SFRSYM    DATA     BIT       P16
      00000080H.7 SFRSYM    DATA     BIT       P07
      000000B8H.2 SFRSYM    DATA     BIT       IPINT1
      000000D8H.3 SFRSYM    DATA     BIT       P53
      000000C0H.4 SFRSYM    DATA     BIT       P44
      000000B0H.5 SFRSYM    DATA     BIT       P35
      000000A0H.6 SFRSYM    DATA     BIT       P26
      00000090H.7 SFRSYM    DATA     BIT       P17
      000000FDH   SFRSYM    DATA     BYTE      CRCREG
      000000D8H.4 SFRSYM    DATA     BIT       P54
      000000C0H.5 SFRSYM    DATA     BIT       P45
      000000B0H.6 SFRSYM    DATA     BIT       P36
      000000A0H.7 SFRSYM    DATA     BIT       P27
      000000D8H.5 SFRSYM    DATA     BIT       P55
      000000C0H.6 SFRSYM    DATA     BIT       P46
      000000B0H.7 SFRSYM    DATA     BIT       P37
      000000C0H.7 SFRSYM    DATA     BIT       P47
      000000C8H.6 SFRSYM    DATA     BIT       EXFX
      00000093H   SFRSYM    DATA     BYTE      DDRCON
      000000F6H   SFRSYM    DATA     BYTE      IAPCTL
      000000A9H   SFRSYM    DATA     BYTE      IE1
      000000AAH   SFRSYM    DATA     BYTE      IE2
      000000F0H   SFRSYM    DATA     BYTE      B
      000000B7H   SFRSYM    DATA     BYTE      CMPCON
      000000F1H   SFRSYM    DATA     BYTE      IAPKEY
      000000FBH   SFRSYM    DATA     BYTE      BTMCON
      000000D1H   SFRSYM    DATA     BYTE      PWMCFG
      000000E0H   SFRSYM    DATA     BYTE      ACC
      000000CBH   SFRSYM    DATA     BYTE      RCAPXH
      000000A8H.1 SFRSYM    DATA     BIT       ET0
      000000FCH   SFRSYM    DATA     BYTE      CRCINX
      00000088H.5 SFRSYM    DATA     BIT       TF0
      000000A8H.3 SFRSYM    DATA     BIT       ET1
      000000ABH   SFRSYM    DATA     BYTE      ADCCFG0
      000000B9H   SFRSYM    DATA     BYTE      IP1
      00000088H.7 SFRSYM    DATA     BIT       TF1
      000000A8H.5 SFRSYM    DATA     BIT       ET2
      000000ACH   SFRSYM    DATA     BYTE      ADCCFG1
      000000BAH   SFRSYM    DATA     BYTE      IP2
      00000098H.2 SFRSYM    DATA     BIT       RB8
      000000B5H   SFRSYM    DATA     BYTE      ADCCFG2
      000000CAH   SFRSYM    DATA     BYTE      RCAPXL
      0000008CH   SFRSYM    DATA     BYTE      TH0
      0000008DH   SFRSYM    DATA     BYTE      TH1
      00000098H.3 SFRSYM    DATA     BIT       TB8
LX51 LINKER/LOCATER V4.66.87.0                                                        04/03/2025  09:53:25  PAGE 20


      000000D0H.0 SFRSYM    DATA     BIT       P
      00000098H.7 SFRSYM    DATA     BIT       SM0
      0000008AH   SFRSYM    DATA     BYTE      TL0
      00000098H.6 SFRSYM    DATA     BIT       SM1
      000000CFH   SFRSYM    DATA     BYTE      WDTCON
      0000008BH   SFRSYM    DATA     BYTE      TL1
      00000098H.5 SFRSYM    DATA     BIT       SM2
      000000D6H   SFRSYM    DATA     BYTE      PWMDFR
      000000D5H   SFRSYM    DATA     BYTE      PWMPDH
      000000D0H.3 SFRSYM    DATA     BIT       RS0
      00000088H.4 SFRSYM    DATA     BIT       TR0
      000000D0H.4 SFRSYM    DATA     BIT       RS1
      000000D4H   SFRSYM    DATA     BYTE      PWMPDL
      00000088H.6 SFRSYM    DATA     BIT       TR1
      000000B8H.4 SFRSYM    DATA     BIT       IPUART
      000000D7H   SFRSYM    DATA     BYTE      PWMFLT
      00000083H   SFRSYM    DATA     BYTE      DPH
      00000082H   SFRSYM    DATA     BYTE      DPL
      000000A8H.0 SFRSYM    DATA     BIT       EINT0
      0000009AH   SFRSYM    DATA     BYTE      P0CON
      000000A8H.2 SFRSYM    DATA     BIT       EINT1
      000000B8H.6 SFRSYM    DATA     BIT       IPADC
      000000B4H   SFRSYM    DATA     BYTE      INT0F
      00000091H   SFRSYM    DATA     BYTE      P1CON
      000000BCH   SFRSYM    DATA     BYTE      INT1F
      000000A1H   SFRSYM    DATA     BYTE      P2CON
      000000BEH   SFRSYM    DATA     BYTE      INT2F
      000000B1H   SFRSYM    DATA     BYTE      P3CON
      00000098H.4 SFRSYM    DATA     BIT       REN
      000000C1H   SFRSYM    DATA     BYTE      P4CON
      000000D9H   SFRSYM    DATA     BYTE      P5CON
      000000AFH   SFRSYM    DATA     BYTE      ADCVH
      00000086H   SFRSYM    DATA     BYTE      DPS
      00000095H   SFRSYM    DATA     BYTE      US0CON0
      000000A4H   SFRSYM    DATA     BYTE      US1CON0
      0000009DH   SFRSYM    DATA     BYTE      US0CON1
      000000AEH   SFRSYM    DATA     BYTE      ADCVL
      000000F7H   SFRSYM    DATA     BYTE      EXADH
      000000A5H   SFRSYM    DATA     BYTE      US1CON1
      0000009EH   SFRSYM    DATA     BYTE      US0CON2
      000000A6H   SFRSYM    DATA     BYTE      US1CON2
      0000009FH   SFRSYM    DATA     BYTE      US0CON3
      000000A7H   SFRSYM    DATA     BYTE      US1CON3
      000000BBH   SFRSYM    DATA     BYTE      INT0R
      000000BDH   SFRSYM    DATA     BYTE      INT1R
      000000BFH   SFRSYM    DATA     BYTE      INT2R
      000000DCH   SFRSYM    DATA     BYTE      USXINX
      000000C8H.7 SFRSYM    DATA     BIT       TFX
      00000096H   SFRSYM    DATA     BYTE      IOHCON0
      00000097H   SFRSYM    DATA     BYTE      IOHCON1
      000000CDH   SFRSYM    DATA     BYTE      THX
      000000D0H.5 SFRSYM    DATA     BIT       F0
      000000D0H.1 SFRSYM    DATA     BIT       F1
      000000CCH   SFRSYM    DATA     BYTE      TLX
      000000D0H   SFRSYM    DATA     BYTE      PSW

      01001CFEH   BLOCK     CODE     ---       LVL=0
      01001CFEH   LINE      ---      ---       #22
      01001CFEH   LINE      ---      ---       #23
      01001CFEH   LINE      ---      ---       #25
      01001D00H   LINE      ---      ---       #28
      01001D02H   LINE      ---      ---       #31
      01001D02H   LINE      ---      ---       #32
      01001D02H   LINE      ---      ---       #34
      01001D04H   LINE      ---      ---       #36
LX51 LINKER/LOCATER V4.66.87.0                                                        04/03/2025  09:53:25  PAGE 21


      ---         BLOCKEND  ---      ---       LVL=0

      ---         MODULE    ---      ---       SC_INIT
      01001E97H   PUBLIC    CODE     ---       SC_TIM2_Init
      01001D0FH   PUBLIC    CODE     ---       SC_GPIO_Init
      01001EE7H   PUBLIC    CODE     ---       SC_OPTION_Init
      01001D06H   PUBLIC    CODE     ---       SC_Init
      000000C8H.2 SFRSYM    DATA     BIT       TRX
      000000FFH   SFRSYM    DATA     BYTE      OPREG
      00000080H   SFRSYM    DATA     BYTE      P0
      00000090H   SFRSYM    DATA     BYTE      P1
      000000A0H   SFRSYM    DATA     BYTE      P2
      000000A8H.4 SFRSYM    DATA     BIT       EUART
      0000008EH   SFRSYM    DATA     BYTE      TMCON
      000000B0H   SFRSYM    DATA     BYTE      P3
      000000D0H.6 SFRSYM    DATA     BIT       AC
      000000C0H   SFRSYM    DATA     BYTE      P4
      0000008FH   SFRSYM    DATA     BYTE      OTCON
      000000D8H   SFRSYM    DATA     BYTE      P5
      000000A8H.7 SFRSYM    DATA     BIT       EA
      000000C8H.5 SFRSYM    DATA     BIT       RCLKX
      000000D2H   SFRSYM    DATA     BYTE      PWMCON0
      000000C8H.4 SFRSYM    DATA     BIT       TCLKX
      000000D3H   SFRSYM    DATA     BYTE      PWMCON1
      000000C8H.3 SFRSYM    DATA     BIT       EXENX
      000000A8H.6 SFRSYM    DATA     BIT       EADC
      000000C9H   SFRSYM    DATA     BYTE      TXMOD
      000000C8H   SFRSYM    DATA     BYTE      TXCON
      000000A8H   SFRSYM    DATA     BYTE      IE
      00000085H   SFRSYM    DATA     BYTE      DPH1
      000000E9H   SFRSYM    DATA     BYTE      EXA0
      000000FEH   SFRSYM    DATA     BYTE      OPINX
      000000EAH   SFRSYM    DATA     BYTE      EXA1
      000000EBH   SFRSYM    DATA     BYTE      EXA2
      000000ECH   SFRSYM    DATA     BYTE      EXA3
      00000084H   SFRSYM    DATA     BYTE      DPL1
      000000C8H.0 SFRSYM    DATA     BIT       CP
      000000C4H   SFRSYM    DATA     BYTE      USXCON0
      000000C5H   SFRSYM    DATA     BYTE      USXCON1
      000000C6H   SFRSYM    DATA     BYTE      USXCON2
      000000C7H   SFRSYM    DATA     BYTE      USXCON3
      000000EFH   SFRSYM    DATA     BYTE      OPERCON
      0000009BH   SFRSYM    DATA     BYTE      P0PH
      000000B8H   SFRSYM    DATA     BYTE      IP
      00000092H   SFRSYM    DATA     BYTE      P1PH
      00000098H.0 SFRSYM    DATA     BIT       RI
      000000A2H   SFRSYM    DATA     BYTE      P2PH
      000000D0H.7 SFRSYM    DATA     BIT       CY
      000000B2H   SFRSYM    DATA     BYTE      P3PH
      00000098H.1 SFRSYM    DATA     BIT       TI
      000000CEH   SFRSYM    DATA     BYTE      TXINX
      000000C2H   SFRSYM    DATA     BYTE      P4PH
      000000B8H.1 SFRSYM    DATA     BIT       IPT0
      000000DAH   SFRSYM    DATA     BYTE      P5PH
      000000B8H.3 SFRSYM    DATA     BIT       IPT1
      000000B8H.5 SFRSYM    DATA     BIT       IPT2
      00000081H   SFRSYM    DATA     BYTE      SP
      000000D0H.2 SFRSYM    DATA     BIT       OV
      000000F4H   SFRSYM    DATA     BYTE      IAPADE
      0000009CH   SFRSYM    DATA     BYTE      P0VO
      00000094H   SFRSYM    DATA     BYTE      P1VO
      000000A3H   SFRSYM    DATA     BYTE      P2VO
      000000EEH   SFRSYM    DATA     BYTE      EXBH
      000000F3H   SFRSYM    DATA     BYTE      IAPADH
      000000B3H   SFRSYM    DATA     BYTE      P3VO
LX51 LINKER/LOCATER V4.66.87.0                                                        04/03/2025  09:53:25  PAGE 22


      000000ADH   SFRSYM    DATA     BYTE      ADCCON
      000000C8H.1 SFRSYM    DATA     BIT       TX
      000000EDH   SFRSYM    DATA     BYTE      EXBL
      000000F2H   SFRSYM    DATA     BYTE      IAPADL
      00000080H.0 SFRSYM    DATA     BIT       P00
      00000090H.0 SFRSYM    DATA     BIT       P10
      00000080H.1 SFRSYM    DATA     BIT       P01
      00000099H   SFRSYM    DATA     BYTE      SBUF
      00000087H   SFRSYM    DATA     BYTE      PCON
      000000A0H.0 SFRSYM    DATA     BIT       P20
      00000090H.1 SFRSYM    DATA     BIT       P11
      00000080H.2 SFRSYM    DATA     BIT       P02
      000000B6H   SFRSYM    DATA     BYTE      CMPCFG
      000000B0H.0 SFRSYM    DATA     BIT       P30
      000000A0H.1 SFRSYM    DATA     BIT       P21
      00000090H.2 SFRSYM    DATA     BIT       P12
      00000080H.3 SFRSYM    DATA     BIT       P03
      000000C0H.0 SFRSYM    DATA     BIT       P40
      000000B0H.1 SFRSYM    DATA     BIT       P31
      000000A0H.2 SFRSYM    DATA     BIT       P22
      00000090H.3 SFRSYM    DATA     BIT       P13
      00000080H.4 SFRSYM    DATA     BIT       P04
      00000098H   SFRSYM    DATA     BYTE      SCON
      000000D8H.0 SFRSYM    DATA     BIT       P50
      000000C0H.1 SFRSYM    DATA     BIT       P41
      000000B0H.2 SFRSYM    DATA     BIT       P32
      000000A0H.3 SFRSYM    DATA     BIT       P23
      00000090H.4 SFRSYM    DATA     BIT       P14
      00000080H.5 SFRSYM    DATA     BIT       P05
      000000F5H   SFRSYM    DATA     BYTE      IAPDAT
      00000089H   SFRSYM    DATA     BYTE      TMOD
      00000088H   SFRSYM    DATA     BYTE      TCON
      000000D8H.1 SFRSYM    DATA     BIT       P51
      000000C0H.2 SFRSYM    DATA     BIT       P42
      000000B0H.3 SFRSYM    DATA     BIT       P33
      000000A0H.4 SFRSYM    DATA     BIT       P24
      00000090H.5 SFRSYM    DATA     BIT       P15
      00000080H.6 SFRSYM    DATA     BIT       P06
      000000B8H.0 SFRSYM    DATA     BIT       IPINT0
      000000D8H.2 SFRSYM    DATA     BIT       P52
      000000C0H.3 SFRSYM    DATA     BIT       P43
      000000B0H.4 SFRSYM    DATA     BIT       P34
      000000A0H.5 SFRSYM    DATA     BIT       P25
      00000090H.6 SFRSYM    DATA     BIT       P16
      00000080H.7 SFRSYM    DATA     BIT       P07
      000000B8H.2 SFRSYM    DATA     BIT       IPINT1
      000000D8H.3 SFRSYM    DATA     BIT       P53
      000000C0H.4 SFRSYM    DATA     BIT       P44
      000000B0H.5 SFRSYM    DATA     BIT       P35
      000000A0H.6 SFRSYM    DATA     BIT       P26
      00000090H.7 SFRSYM    DATA     BIT       P17
      000000FDH   SFRSYM    DATA     BYTE      CRCREG
      000000D8H.4 SFRSYM    DATA     BIT       P54
      000000C0H.5 SFRSYM    DATA     BIT       P45
      000000B0H.6 SFRSYM    DATA     BIT       P36
      000000A0H.7 SFRSYM    DATA     BIT       P27
      000000D8H.5 SFRSYM    DATA     BIT       P55
      000000C0H.6 SFRSYM    DATA     BIT       P46
      000000B0H.7 SFRSYM    DATA     BIT       P37
      000000C0H.7 SFRSYM    DATA     BIT       P47
      000000C8H.6 SFRSYM    DATA     BIT       EXFX
      00000093H   SFRSYM    DATA     BYTE      DDRCON
      000000F6H   SFRSYM    DATA     BYTE      IAPCTL
      000000A9H   SFRSYM    DATA     BYTE      IE1
      000000AAH   SFRSYM    DATA     BYTE      IE2
LX51 LINKER/LOCATER V4.66.87.0                                                        04/03/2025  09:53:25  PAGE 23


      000000F0H   SFRSYM    DATA     BYTE      B
      000000B7H   SFRSYM    DATA     BYTE      CMPCON
      000000F1H   SFRSYM    DATA     BYTE      IAPKEY
      000000FBH   SFRSYM    DATA     BYTE      BTMCON
      000000D1H   SFRSYM    DATA     BYTE      PWMCFG
      000000E0H   SFRSYM    DATA     BYTE      ACC
      000000CBH   SFRSYM    DATA     BYTE      RCAPXH
      000000A8H.1 SFRSYM    DATA     BIT       ET0
      000000FCH   SFRSYM    DATA     BYTE      CRCINX
      00000088H.5 SFRSYM    DATA     BIT       TF0
      000000A8H.3 SFRSYM    DATA     BIT       ET1
      000000ABH   SFRSYM    DATA     BYTE      ADCCFG0
      000000B9H   SFRSYM    DATA     BYTE      IP1
      00000088H.7 SFRSYM    DATA     BIT       TF1
      000000A8H.5 SFRSYM    DATA     BIT       ET2
      000000ACH   SFRSYM    DATA     BYTE      ADCCFG1
      000000BAH   SFRSYM    DATA     BYTE      IP2
      00000098H.2 SFRSYM    DATA     BIT       RB8
      000000B5H   SFRSYM    DATA     BYTE      ADCCFG2
      000000CAH   SFRSYM    DATA     BYTE      RCAPXL
      0000008CH   SFRSYM    DATA     BYTE      TH0
      0000008DH   SFRSYM    DATA     BYTE      TH1
      00000098H.3 SFRSYM    DATA     BIT       TB8
      000000D0H.0 SFRSYM    DATA     BIT       P
      00000098H.7 SFRSYM    DATA     BIT       SM0
      0000008AH   SFRSYM    DATA     BYTE      TL0
      00000098H.6 SFRSYM    DATA     BIT       SM1
      000000CFH   SFRSYM    DATA     BYTE      WDTCON
      0000008BH   SFRSYM    DATA     BYTE      TL1
      00000098H.5 SFRSYM    DATA     BIT       SM2
      000000D6H   SFRSYM    DATA     BYTE      PWMDFR
      000000D5H   SFRSYM    DATA     BYTE      PWMPDH
      000000D0H.3 SFRSYM    DATA     BIT       RS0
      00000088H.4 SFRSYM    DATA     BIT       TR0
      000000D0H.4 SFRSYM    DATA     BIT       RS1
      000000D4H   SFRSYM    DATA     BYTE      PWMPDL
      00000088H.6 SFRSYM    DATA     BIT       TR1
      000000B8H.4 SFRSYM    DATA     BIT       IPUART
      000000D7H   SFRSYM    DATA     BYTE      PWMFLT
      00000083H   SFRSYM    DATA     BYTE      DPH
      00000082H   SFRSYM    DATA     BYTE      DPL
      000000A8H.0 SFRSYM    DATA     BIT       EINT0
      0000009AH   SFRSYM    DATA     BYTE      P0CON
      000000A8H.2 SFRSYM    DATA     BIT       EINT1
      000000B8H.6 SFRSYM    DATA     BIT       IPADC
      000000B4H   SFRSYM    DATA     BYTE      INT0F
      00000091H   SFRSYM    DATA     BYTE      P1CON
      000000BCH   SFRSYM    DATA     BYTE      INT1F
      000000A1H   SFRSYM    DATA     BYTE      P2CON
      000000BEH   SFRSYM    DATA     BYTE      INT2F
      000000B1H   SFRSYM    DATA     BYTE      P3CON
      00000098H.4 SFRSYM    DATA     BIT       REN
      000000C1H   SFRSYM    DATA     BYTE      P4CON
      000000D9H   SFRSYM    DATA     BYTE      P5CON
      000000AFH   SFRSYM    DATA     BYTE      ADCVH
      00000086H   SFRSYM    DATA     BYTE      DPS
      00000095H   SFRSYM    DATA     BYTE      US0CON0
      000000A4H   SFRSYM    DATA     BYTE      US1CON0
      0000009DH   SFRSYM    DATA     BYTE      US0CON1
      000000AEH   SFRSYM    DATA     BYTE      ADCVL
      000000F7H   SFRSYM    DATA     BYTE      EXADH
      000000A5H   SFRSYM    DATA     BYTE      US1CON1
      0000009EH   SFRSYM    DATA     BYTE      US0CON2
      000000A6H   SFRSYM    DATA     BYTE      US1CON2
      0000009FH   SFRSYM    DATA     BYTE      US0CON3
LX51 LINKER/LOCATER V4.66.87.0                                                        04/03/2025  09:53:25  PAGE 24


      000000A7H   SFRSYM    DATA     BYTE      US1CON3
      000000BBH   SFRSYM    DATA     BYTE      INT0R
      000000BDH   SFRSYM    DATA     BYTE      INT1R
      000000BFH   SFRSYM    DATA     BYTE      INT2R
      000000DCH   SFRSYM    DATA     BYTE      USXINX
      000000C8H.7 SFRSYM    DATA     BIT       TFX
      00000096H   SFRSYM    DATA     BYTE      IOHCON0
      00000097H   SFRSYM    DATA     BYTE      IOHCON1
      000000CDH   SFRSYM    DATA     BYTE      THX
      000000D0H.5 SFRSYM    DATA     BIT       F0
      000000D0H.1 SFRSYM    DATA     BIT       F1
      000000CCH   SFRSYM    DATA     BYTE      TLX
      000000D0H   SFRSYM    DATA     BYTE      PSW

      01001D06H   BLOCK     CODE     ---       LVL=0
      01001D06H   LINE      ---      ---       #23
      01001D06H   LINE      ---      ---       #24
      01001D06H   LINE      ---      ---       #26
      01001D08H   LINE      ---      ---       #27
      01001D0AH   LINE      ---      ---       #28
      01001D0CH   LINE      ---      ---       #30
      01001D0EH   LINE      ---      ---       #31
      ---         BLOCKEND  ---      ---       LVL=0

      01001EE7H   BLOCK     CODE     ---       LVL=0
      01001EE7H   LINE      ---      ---       #39
      01001EE7H   LINE      ---      ---       #40
      01001EE7H   LINE      ---      ---       #43
      ---         BLOCKEND  ---      ---       LVL=0

      01001D0FH   BLOCK     CODE     ---       LVL=0
      01001D0FH   LINE      ---      ---       #51
      01001D0FH   LINE      ---      ---       #52
      01001D0FH   LINE      ---      ---       #54
      01001D17H   LINE      ---      ---       #55
      01001D1FH   LINE      ---      ---       #56
      01001D27H   LINE      ---      ---       #57
      01001D2FH   LINE      ---      ---       #58
      01001D37H   LINE      ---      ---       #59
      01001D3FH   LINE      ---      ---       #60
      01001D47H   LINE      ---      ---       #61
      01001D4FH   LINE      ---      ---       #62
      01001D57H   LINE      ---      ---       #63
      01001D5FH   LINE      ---      ---       #64
      01001D67H   LINE      ---      ---       #65
      01001D6FH   LINE      ---      ---       #66
      01001D77H   LINE      ---      ---       #67
      01001D7FH   LINE      ---      ---       #68
      01001D87H   LINE      ---      ---       #69
      01001D8FH   LINE      ---      ---       #70
      01001D97H   LINE      ---      ---       #71
      01001D9FH   LINE      ---      ---       #72
      01001DA7H   LINE      ---      ---       #73
      01001DAFH   LINE      ---      ---       #74
      01001DB7H   LINE      ---      ---       #75
      01001DBFH   LINE      ---      ---       #76
      ---         BLOCKEND  ---      ---       LVL=0

      01001E97H   BLOCK     CODE     ---       LVL=0
      01001E97H   LINE      ---      ---       #122
      01001E97H   LINE      ---      ---       #123
      01001E97H   LINE      ---      ---       #125
      01001E9FH   LINE      ---      ---       #126
      01001EA5H   LINE      ---      ---       #127
      01001EABH   LINE      ---      ---       #128
LX51 LINKER/LOCATER V4.66.87.0                                                        04/03/2025  09:53:25  PAGE 25


      ---         BLOCKEND  ---      ---       LVL=0

      ---         MODULE    ---      ---       SC_IT
      01002004H   PUBLIC    CODE     ---       LPDInterrupt
      01002003H   PUBLIC    CODE     ---       USCI5Interrupt
      01002002H   PUBLIC    CODE     ---       USCI4Interrupt
      01002001H   PUBLIC    CODE     ---       USCI3Interrupt
      01002000H   PUBLIC    CODE     ---       USCI2Interrupt
      01001FFFH   PUBLIC    CODE     ---       USCI1Interrupt
      01001FFEH   PUBLIC    CODE     ---       Timer4Interrupt
      01001FFDH   PUBLIC    CODE     ---       Timer3Interrupt
      01001FFCH   PUBLIC    CODE     ---       ACMPInterrupt
      01001FFBH   PUBLIC    CODE     ---       INT2Interrupt
      01001FFAH   PUBLIC    CODE     ---       BTMInterrupt
      01001FF9H   PUBLIC    CODE     ---       PWMInterrupt
      01001FF8H   PUBLIC    CODE     ---       USCI0Interrupt
      01001FF7H   PUBLIC    CODE     ---       ADCInterrupt
      01001FB5H   PUBLIC    CODE     ---       Timer2Interrupt
      01001FB4H   PUBLIC    CODE     ---       UART0Interrupt
      01001FB3H   PUBLIC    CODE     ---       Timer1Interrupt
      01001FAFH   PUBLIC    CODE     ---       INT1Interrupt
      01001FAEH   PUBLIC    CODE     ---       Timer0Interrupt
      01001FAAH   PUBLIC    CODE     ---       INT0Interrupt
      000000C8H.2 SFRSYM    DATA     BIT       TRX
      000000FFH   SFRSYM    DATA     BYTE      OPREG
      00000080H   SFRSYM    DATA     BYTE      P0
      00000090H   SFRSYM    DATA     BYTE      P1
      000000A0H   SFRSYM    DATA     BYTE      P2
      000000A8H.4 SFRSYM    DATA     BIT       EUART
      0000008EH   SFRSYM    DATA     BYTE      TMCON
      000000B0H   SFRSYM    DATA     BYTE      P3
      000000D0H.6 SFRSYM    DATA     BIT       AC
      000000C0H   SFRSYM    DATA     BYTE      P4
      0000008FH   SFRSYM    DATA     BYTE      OTCON
      000000D8H   SFRSYM    DATA     BYTE      P5
      000000A8H.7 SFRSYM    DATA     BIT       EA
      000000C8H.5 SFRSYM    DATA     BIT       RCLKX
      000000D2H   SFRSYM    DATA     BYTE      PWMCON0
      000000C8H.4 SFRSYM    DATA     BIT       TCLKX
      000000D3H   SFRSYM    DATA     BYTE      PWMCON1
      000000C8H.3 SFRSYM    DATA     BIT       EXENX
      000000A8H.6 SFRSYM    DATA     BIT       EADC
      000000C9H   SFRSYM    DATA     BYTE      TXMOD
      000000C8H   SFRSYM    DATA     BYTE      TXCON
      000000A8H   SFRSYM    DATA     BYTE      IE
      00000085H   SFRSYM    DATA     BYTE      DPH1
      000000E9H   SFRSYM    DATA     BYTE      EXA0
      000000FEH   SFRSYM    DATA     BYTE      OPINX
      000000EAH   SFRSYM    DATA     BYTE      EXA1
      000000EBH   SFRSYM    DATA     BYTE      EXA2
      000000ECH   SFRSYM    DATA     BYTE      EXA3
      00000084H   SFRSYM    DATA     BYTE      DPL1
      000000C8H.0 SFRSYM    DATA     BIT       CP
      000000C4H   SFRSYM    DATA     BYTE      USXCON0
      000000C5H   SFRSYM    DATA     BYTE      USXCON1
      000000C6H   SFRSYM    DATA     BYTE      USXCON2
      000000C7H   SFRSYM    DATA     BYTE      USXCON3
      000000EFH   SFRSYM    DATA     BYTE      OPERCON
      0000009BH   SFRSYM    DATA     BYTE      P0PH
      000000B8H   SFRSYM    DATA     BYTE      IP
      00000092H   SFRSYM    DATA     BYTE      P1PH
      00000098H.0 SFRSYM    DATA     BIT       RI
      000000A2H   SFRSYM    DATA     BYTE      P2PH
      000000D0H.7 SFRSYM    DATA     BIT       CY
      000000B2H   SFRSYM    DATA     BYTE      P3PH
LX51 LINKER/LOCATER V4.66.87.0                                                        04/03/2025  09:53:25  PAGE 26


      00000098H.1 SFRSYM    DATA     BIT       TI
      000000CEH   SFRSYM    DATA     BYTE      TXINX
      000000C2H   SFRSYM    DATA     BYTE      P4PH
      000000B8H.1 SFRSYM    DATA     BIT       IPT0
      000000DAH   SFRSYM    DATA     BYTE      P5PH
      000000B8H.3 SFRSYM    DATA     BIT       IPT1
      000000B8H.5 SFRSYM    DATA     BIT       IPT2
      00000081H   SFRSYM    DATA     BYTE      SP
      000000D0H.2 SFRSYM    DATA     BIT       OV
      000000F4H   SFRSYM    DATA     BYTE      IAPADE
      0000009CH   SFRSYM    DATA     BYTE      P0VO
      00000094H   SFRSYM    DATA     BYTE      P1VO
      000000A3H   SFRSYM    DATA     BYTE      P2VO
      000000EEH   SFRSYM    DATA     BYTE      EXBH
      000000F3H   SFRSYM    DATA     BYTE      IAPADH
      000000B3H   SFRSYM    DATA     BYTE      P3VO
      000000ADH   SFRSYM    DATA     BYTE      ADCCON
      000000C8H.1 SFRSYM    DATA     BIT       TX
      000000EDH   SFRSYM    DATA     BYTE      EXBL
      000000F2H   SFRSYM    DATA     BYTE      IAPADL
      00000080H.0 SFRSYM    DATA     BIT       P00
      00000090H.0 SFRSYM    DATA     BIT       P10
      00000080H.1 SFRSYM    DATA     BIT       P01
      00000099H   SFRSYM    DATA     BYTE      SBUF
      00000087H   SFRSYM    DATA     BYTE      PCON
      000000A0H.0 SFRSYM    DATA     BIT       P20
      00000090H.1 SFRSYM    DATA     BIT       P11
      00000080H.2 SFRSYM    DATA     BIT       P02
      000000B6H   SFRSYM    DATA     BYTE      CMPCFG
      000000B0H.0 SFRSYM    DATA     BIT       P30
      000000A0H.1 SFRSYM    DATA     BIT       P21
      00000090H.2 SFRSYM    DATA     BIT       P12
      00000080H.3 SFRSYM    DATA     BIT       P03
      000000C0H.0 SFRSYM    DATA     BIT       P40
      000000B0H.1 SFRSYM    DATA     BIT       P31
      000000A0H.2 SFRSYM    DATA     BIT       P22
      00000090H.3 SFRSYM    DATA     BIT       P13
      00000080H.4 SFRSYM    DATA     BIT       P04
      00000098H   SFRSYM    DATA     BYTE      SCON
      000000D8H.0 SFRSYM    DATA     BIT       P50
      000000C0H.1 SFRSYM    DATA     BIT       P41
      000000B0H.2 SFRSYM    DATA     BIT       P32
      000000A0H.3 SFRSYM    DATA     BIT       P23
      00000090H.4 SFRSYM    DATA     BIT       P14
      00000080H.5 SFRSYM    DATA     BIT       P05
      000000F5H   SFRSYM    DATA     BYTE      IAPDAT
      00000089H   SFRSYM    DATA     BYTE      TMOD
      00000088H   SFRSYM    DATA     BYTE      TCON
      000000D8H.1 SFRSYM    DATA     BIT       P51
      000000C0H.2 SFRSYM    DATA     BIT       P42
      000000B0H.3 SFRSYM    DATA     BIT       P33
      000000A0H.4 SFRSYM    DATA     BIT       P24
      00000090H.5 SFRSYM    DATA     BIT       P15
      00000080H.6 SFRSYM    DATA     BIT       P06
      000000B8H.0 SFRSYM    DATA     BIT       IPINT0
      000000D8H.2 SFRSYM    DATA     BIT       P52
      000000C0H.3 SFRSYM    DATA     BIT       P43
      000000B0H.4 SFRSYM    DATA     BIT       P34
      000000A0H.5 SFRSYM    DATA     BIT       P25
      00000090H.6 SFRSYM    DATA     BIT       P16
      00000080H.7 SFRSYM    DATA     BIT       P07
      000000B8H.2 SFRSYM    DATA     BIT       IPINT1
      000000D8H.3 SFRSYM    DATA     BIT       P53
      000000C0H.4 SFRSYM    DATA     BIT       P44
      000000B0H.5 SFRSYM    DATA     BIT       P35
LX51 LINKER/LOCATER V4.66.87.0                                                        04/03/2025  09:53:25  PAGE 27


      000000A0H.6 SFRSYM    DATA     BIT       P26
      00000090H.7 SFRSYM    DATA     BIT       P17
      000000FDH   SFRSYM    DATA     BYTE      CRCREG
      000000D8H.4 SFRSYM    DATA     BIT       P54
      000000C0H.5 SFRSYM    DATA     BIT       P45
      000000B0H.6 SFRSYM    DATA     BIT       P36
      000000A0H.7 SFRSYM    DATA     BIT       P27
      000000D8H.5 SFRSYM    DATA     BIT       P55
      000000C0H.6 SFRSYM    DATA     BIT       P46
      000000B0H.7 SFRSYM    DATA     BIT       P37
      000000C0H.7 SFRSYM    DATA     BIT       P47
      000000C8H.6 SFRSYM    DATA     BIT       EXFX
      00000093H   SFRSYM    DATA     BYTE      DDRCON
      000000F6H   SFRSYM    DATA     BYTE      IAPCTL
      000000A9H   SFRSYM    DATA     BYTE      IE1
      000000AAH   SFRSYM    DATA     BYTE      IE2
      000000F0H   SFRSYM    DATA     BYTE      B
      000000B7H   SFRSYM    DATA     BYTE      CMPCON
      000000F1H   SFRSYM    DATA     BYTE      IAPKEY
      000000FBH   SFRSYM    DATA     BYTE      BTMCON
      000000D1H   SFRSYM    DATA     BYTE      PWMCFG
      000000E0H   SFRSYM    DATA     BYTE      ACC
      000000CBH   SFRSYM    DATA     BYTE      RCAPXH
      000000A8H.1 SFRSYM    DATA     BIT       ET0
      000000FCH   SFRSYM    DATA     BYTE      CRCINX
      00000088H.5 SFRSYM    DATA     BIT       TF0
      000000A8H.3 SFRSYM    DATA     BIT       ET1
      000000ABH   SFRSYM    DATA     BYTE      ADCCFG0
      000000B9H   SFRSYM    DATA     BYTE      IP1
      00000088H.7 SFRSYM    DATA     BIT       TF1
      000000A8H.5 SFRSYM    DATA     BIT       ET2
      000000ACH   SFRSYM    DATA     BYTE      ADCCFG1
      000000BAH   SFRSYM    DATA     BYTE      IP2
      00000098H.2 SFRSYM    DATA     BIT       RB8
      000000B5H   SFRSYM    DATA     BYTE      ADCCFG2
      000000CAH   SFRSYM    DATA     BYTE      RCAPXL
      0000008CH   SFRSYM    DATA     BYTE      TH0
      0000008DH   SFRSYM    DATA     BYTE      TH1
      00000098H.3 SFRSYM    DATA     BIT       TB8
      000000D0H.0 SFRSYM    DATA     BIT       P
      00000098H.7 SFRSYM    DATA     BIT       SM0
      0000008AH   SFRSYM    DATA     BYTE      TL0
      00000098H.6 SFRSYM    DATA     BIT       SM1
      000000CFH   SFRSYM    DATA     BYTE      WDTCON
      0000008BH   SFRSYM    DATA     BYTE      TL1
      00000098H.5 SFRSYM    DATA     BIT       SM2
      000000D6H   SFRSYM    DATA     BYTE      PWMDFR
      000000D5H   SFRSYM    DATA     BYTE      PWMPDH
      000000D0H.3 SFRSYM    DATA     BIT       RS0
      00000088H.4 SFRSYM    DATA     BIT       TR0
      000000D0H.4 SFRSYM    DATA     BIT       RS1
      000000D4H   SFRSYM    DATA     BYTE      PWMPDL
      00000088H.6 SFRSYM    DATA     BIT       TR1
      000000B8H.4 SFRSYM    DATA     BIT       IPUART
      000000D7H   SFRSYM    DATA     BYTE      PWMFLT
      00000083H   SFRSYM    DATA     BYTE      DPH
      00000082H   SFRSYM    DATA     BYTE      DPL
      000000A8H.0 SFRSYM    DATA     BIT       EINT0
      0000009AH   SFRSYM    DATA     BYTE      P0CON
      000000A8H.2 SFRSYM    DATA     BIT       EINT1
      000000B8H.6 SFRSYM    DATA     BIT       IPADC
      000000B4H   SFRSYM    DATA     BYTE      INT0F
      00000091H   SFRSYM    DATA     BYTE      P1CON
      000000BCH   SFRSYM    DATA     BYTE      INT1F
      000000A1H   SFRSYM    DATA     BYTE      P2CON
LX51 LINKER/LOCATER V4.66.87.0                                                        04/03/2025  09:53:25  PAGE 28


      000000BEH   SFRSYM    DATA     BYTE      INT2F
      000000B1H   SFRSYM    DATA     BYTE      P3CON
      00000098H.4 SFRSYM    DATA     BIT       REN
      000000C1H   SFRSYM    DATA     BYTE      P4CON
      000000D9H   SFRSYM    DATA     BYTE      P5CON
      000000AFH   SFRSYM    DATA     BYTE      ADCVH
      00000086H   SFRSYM    DATA     BYTE      DPS
      00000095H   SFRSYM    DATA     BYTE      US0CON0
      000000A4H   SFRSYM    DATA     BYTE      US1CON0
      0000009DH   SFRSYM    DATA     BYTE      US0CON1
      000000AEH   SFRSYM    DATA     BYTE      ADCVL
      000000F7H   SFRSYM    DATA     BYTE      EXADH
      000000A5H   SFRSYM    DATA     BYTE      US1CON1
      0000009EH   SFRSYM    DATA     BYTE      US0CON2
      000000A6H   SFRSYM    DATA     BYTE      US1CON2
      0000009FH   SFRSYM    DATA     BYTE      US0CON3
      000000A7H   SFRSYM    DATA     BYTE      US1CON3
      000000BBH   SFRSYM    DATA     BYTE      INT0R
      000000BDH   SFRSYM    DATA     BYTE      INT1R
      000000BFH   SFRSYM    DATA     BYTE      INT2R
      000000DCH   SFRSYM    DATA     BYTE      USXINX
      000000C8H.7 SFRSYM    DATA     BIT       TFX
      00000096H   SFRSYM    DATA     BYTE      IOHCON0
      00000097H   SFRSYM    DATA     BYTE      IOHCON1
      000000CDH   SFRSYM    DATA     BYTE      THX
      000000D0H.5 SFRSYM    DATA     BIT       F0
      000000D0H.1 SFRSYM    DATA     BIT       F1
      000000CCH   SFRSYM    DATA     BYTE      TLX
      000000D0H   SFRSYM    DATA     BYTE      PSW

      01001FAAH   BLOCK     CODE     ---       LVL=0
      01001FAAH   LINE      ---      ---       #17
      01001FAAH   LINE      ---      ---       #19
      01001FADH   LINE      ---      ---       #28
      ---         BLOCKEND  ---      ---       LVL=0

      01001FAEH   BLOCK     CODE     ---       LVL=0
      01001FAEH   LINE      ---      ---       #29
      01001FAEH   LINE      ---      ---       #39
      ---         BLOCKEND  ---      ---       LVL=0

      01001FAFH   BLOCK     CODE     ---       LVL=0
      01001FAFH   LINE      ---      ---       #40
      01001FAFH   LINE      ---      ---       #42
      01001FB2H   LINE      ---      ---       #51
      ---         BLOCKEND  ---      ---       LVL=0

      01001FB3H   BLOCK     CODE     ---       LVL=0
      01001FB3H   LINE      ---      ---       #52
      01001FB3H   LINE      ---      ---       #62
      ---         BLOCKEND  ---      ---       LVL=0

      01001FB4H   BLOCK     CODE     ---       LVL=0
      01001FB4H   LINE      ---      ---       #63
      01001FB4H   LINE      ---      ---       #73
      ---         BLOCKEND  ---      ---       LVL=0

      01001FB5H   BLOCK     CODE     ---       LVL=0
      01001FD2H   LINE      ---      ---       #74
      01001FD2H   LINE      ---      ---       #83
      01001FD7H   LINE      ---      ---       #84
      01001FDCH   LINE      ---      ---       #86
      ---         BLOCKEND  ---      ---       LVL=0

      01001FF7H   BLOCK     CODE     ---       LVL=0
LX51 LINKER/LOCATER V4.66.87.0                                                        04/03/2025  09:53:25  PAGE 29


      01001FF7H   LINE      ---      ---       #87
      01001FF7H   LINE      ---      ---       #97
      ---         BLOCKEND  ---      ---       LVL=0

      01001FF8H   BLOCK     CODE     ---       LVL=0
      01001FF8H   LINE      ---      ---       #111
      01001FF8H   LINE      ---      ---       #121
      ---         BLOCKEND  ---      ---       LVL=0

      01001FF9H   BLOCK     CODE     ---       LVL=0
      01001FF9H   LINE      ---      ---       #123
      01001FF9H   LINE      ---      ---       #133
      ---         BLOCKEND  ---      ---       LVL=0

      01001FFAH   BLOCK     CODE     ---       LVL=0
      01001FFAH   LINE      ---      ---       #135
      01001FFAH   LINE      ---      ---       #145
      ---         BLOCKEND  ---      ---       LVL=0

      01001FFBH   BLOCK     CODE     ---       LVL=0
      01001FFBH   LINE      ---      ---       #147
      01001FFBH   LINE      ---      ---       #157
      ---         BLOCKEND  ---      ---       LVL=0

      01001FFCH   BLOCK     CODE     ---       LVL=0
      01001FFCH   LINE      ---      ---       #158
      01001FFCH   LINE      ---      ---       #168
      ---         BLOCKEND  ---      ---       LVL=0

      01001FFDH   BLOCK     CODE     ---       LVL=0
      01001FFDH   LINE      ---      ---       #169
      01001FFDH   LINE      ---      ---       #179
      ---         BLOCKEND  ---      ---       LVL=0

      01001FFEH   BLOCK     CODE     ---       LVL=0
      01001FFEH   LINE      ---      ---       #180
      01001FFEH   LINE      ---      ---       #190
      ---         BLOCKEND  ---      ---       LVL=0

      01001FFFH   BLOCK     CODE     ---       LVL=0
      01001FFFH   LINE      ---      ---       #191
      01001FFFH   LINE      ---      ---       #201
      ---         BLOCKEND  ---      ---       LVL=0

      01002000H   BLOCK     CODE     ---       LVL=0
      01002000H   LINE      ---      ---       #202
      01002000H   LINE      ---      ---       #212
      ---         BLOCKEND  ---      ---       LVL=0

      01002001H   BLOCK     CODE     ---       LVL=0
      01002001H   LINE      ---      ---       #213
      01002001H   LINE      ---      ---       #223
      ---         BLOCKEND  ---      ---       LVL=0

      01002002H   BLOCK     CODE     ---       LVL=0
      01002002H   LINE      ---      ---       #224
      01002002H   LINE      ---      ---       #234
      ---         BLOCKEND  ---      ---       LVL=0

      01002003H   BLOCK     CODE     ---       LVL=0
      01002003H   LINE      ---      ---       #235
      01002003H   LINE      ---      ---       #245
      ---         BLOCKEND  ---      ---       LVL=0

      01002004H   BLOCK     CODE     ---       LVL=0
LX51 LINKER/LOCATER V4.66.87.0                                                        04/03/2025  09:53:25  PAGE 30


      01002004H   LINE      ---      ---       #246
      01002004H   LINE      ---      ---       #256
      ---         BLOCKEND  ---      ---       LVL=0

      ---         MODULE    ---      ---       SYSFUNVARDEFINE
      020001D4H   PUBLIC    XDATA    BYTE      gTkIsValid
      020001D3H   PUBLIC    XDATA    BYTE      KeyValue
      020001D1H   PUBLIC    XDATA    WORD      Module0_KeyValue
      020001CFH   PUBLIC    XDATA    WORD      Module0_value
      020001CEH   PUBLIC    XDATA    BYTE      exKeyValue
      020001CAH   PUBLIC    XDATA    DWORD     exKeyValueFlag
      01001F0EH   PUBLIC    CODE     ---       UpdateDisplay
      01001EB9H   PUBLIC    CODE     ---       Sys_Scan
      01002078H   PUBLIC    CODE     ---       SliderTouchKeyvalue
      010021F4H   PUBLIC    CODE     ---       Level7
      010021E3H   PUBLIC    CODE     ---       Level6
      010021D2H   PUBLIC    CODE     ---       Level5
      010021C1H   PUBLIC    CODE     ---       Level4
      010021B0H   PUBLIC    CODE     ---       Level3
      0100219FH   PUBLIC    CODE     ---       Level2
      0100218EH   PUBLIC    CODE     ---       Level1
      0100217DH   PUBLIC    CODE     ---       Level0
      01002067H   PUBLIC    CODE     ---       LED_ALLOFF
      01002005H   PUBLIC    CODE     ---       ChangeTouchKeyvalue
      000000C8H.2 SFRSYM    DATA     BIT       TRX
      000000FFH   SFRSYM    DATA     BYTE      OPREG
      00000080H   SFRSYM    DATA     BYTE      P0
      00000090H   SFRSYM    DATA     BYTE      P1
      000000A0H   SFRSYM    DATA     BYTE      P2
      000000A8H.4 SFRSYM    DATA     BIT       EUART
      0000008EH   SFRSYM    DATA     BYTE      TMCON
      000000B0H   SFRSYM    DATA     BYTE      P3
      000000D0H.6 SFRSYM    DATA     BIT       AC
      000000C0H   SFRSYM    DATA     BYTE      P4
      0000008FH   SFRSYM    DATA     BYTE      OTCON
      000000D8H   SFRSYM    DATA     BYTE      P5
      000000A8H.7 SFRSYM    DATA     BIT       EA
      000000C8H.5 SFRSYM    DATA     BIT       RCLKX
      000000D2H   SFRSYM    DATA     BYTE      PWMCON0
      000000C8H.4 SFRSYM    DATA     BIT       TCLKX
      000000D3H   SFRSYM    DATA     BYTE      PWMCON1
      000000C8H.3 SFRSYM    DATA     BIT       EXENX
      000000A8H.6 SFRSYM    DATA     BIT       EADC
      000000C9H   SFRSYM    DATA     BYTE      TXMOD
      000000C8H   SFRSYM    DATA     BYTE      TXCON
      000000A8H   SFRSYM    DATA     BYTE      IE
      00000085H   SFRSYM    DATA     BYTE      DPH1
      000000E9H   SFRSYM    DATA     BYTE      EXA0
      000000FEH   SFRSYM    DATA     BYTE      OPINX
      000000EAH   SFRSYM    DATA     BYTE      EXA1
      000000EBH   SFRSYM    DATA     BYTE      EXA2
      000000ECH   SFRSYM    DATA     BYTE      EXA3
      00000084H   SFRSYM    DATA     BYTE      DPL1
      000000C8H.0 SFRSYM    DATA     BIT       CP
      000000C4H   SFRSYM    DATA     BYTE      USXCON0
      000000C5H   SFRSYM    DATA     BYTE      USXCON1
      000000C6H   SFRSYM    DATA     BYTE      USXCON2
      000000C7H   SFRSYM    DATA     BYTE      USXCON3
      000000EFH   SFRSYM    DATA     BYTE      OPERCON
      0000009BH   SFRSYM    DATA     BYTE      P0PH
      000000B8H   SFRSYM    DATA     BYTE      IP
      00000092H   SFRSYM    DATA     BYTE      P1PH
      00000098H.0 SFRSYM    DATA     BIT       RI
      000000A2H   SFRSYM    DATA     BYTE      P2PH
      000000D0H.7 SFRSYM    DATA     BIT       CY
LX51 LINKER/LOCATER V4.66.87.0                                                        04/03/2025  09:53:25  PAGE 31


      000000B2H   SFRSYM    DATA     BYTE      P3PH
      00000098H.1 SFRSYM    DATA     BIT       TI
      000000CEH   SFRSYM    DATA     BYTE      TXINX
      000000C2H   SFRSYM    DATA     BYTE      P4PH
      000000B8H.1 SFRSYM    DATA     BIT       IPT0
      000000DAH   SFRSYM    DATA     BYTE      P5PH
      000000B8H.3 SFRSYM    DATA     BIT       IPT1
      000000B8H.5 SFRSYM    DATA     BIT       IPT2
      00000081H   SFRSYM    DATA     BYTE      SP
      000000D0H.2 SFRSYM    DATA     BIT       OV
      000000F4H   SFRSYM    DATA     BYTE      IAPADE
      0000009CH   SFRSYM    DATA     BYTE      P0VO
      00000094H   SFRSYM    DATA     BYTE      P1VO
      000000A3H   SFRSYM    DATA     BYTE      P2VO
      000000EEH   SFRSYM    DATA     BYTE      EXBH
      000000F3H   SFRSYM    DATA     BYTE      IAPADH
      000000B3H   SFRSYM    DATA     BYTE      P3VO
      000000ADH   SFRSYM    DATA     BYTE      ADCCON
      000000C8H.1 SFRSYM    DATA     BIT       TX
      000000EDH   SFRSYM    DATA     BYTE      EXBL
      000000F2H   SFRSYM    DATA     BYTE      IAPADL
      00000080H.0 SFRSYM    DATA     BIT       P00
      00000090H.0 SFRSYM    DATA     BIT       P10
      00000080H.1 SFRSYM    DATA     BIT       P01
      00000099H   SFRSYM    DATA     BYTE      SBUF
      00000087H   SFRSYM    DATA     BYTE      PCON
      000000A0H.0 SFRSYM    DATA     BIT       P20
      00000090H.1 SFRSYM    DATA     BIT       P11
      00000080H.2 SFRSYM    DATA     BIT       P02
      000000B6H   SFRSYM    DATA     BYTE      CMPCFG
      000000B0H.0 SFRSYM    DATA     BIT       P30
      000000A0H.1 SFRSYM    DATA     BIT       P21
      00000090H.2 SFRSYM    DATA     BIT       P12
      00000080H.3 SFRSYM    DATA     BIT       P03
      000000C0H.0 SFRSYM    DATA     BIT       P40
      000000B0H.1 SFRSYM    DATA     BIT       P31
      000000A0H.2 SFRSYM    DATA     BIT       P22
      00000090H.3 SFRSYM    DATA     BIT       P13
      00000080H.4 SFRSYM    DATA     BIT       P04
      00000098H   SFRSYM    DATA     BYTE      SCON
      000000D8H.0 SFRSYM    DATA     BIT       P50
      000000C0H.1 SFRSYM    DATA     BIT       P41
      000000B0H.2 SFRSYM    DATA     BIT       P32
      000000A0H.3 SFRSYM    DATA     BIT       P23
      00000090H.4 SFRSYM    DATA     BIT       P14
      00000080H.5 SFRSYM    DATA     BIT       P05
      000000F5H   SFRSYM    DATA     BYTE      IAPDAT
      00000089H   SFRSYM    DATA     BYTE      TMOD
      00000088H   SFRSYM    DATA     BYTE      TCON
      000000D8H.1 SFRSYM    DATA     BIT       P51
      000000C0H.2 SFRSYM    DATA     BIT       P42
      000000B0H.3 SFRSYM    DATA     BIT       P33
      000000A0H.4 SFRSYM    DATA     BIT       P24
      00000090H.5 SFRSYM    DATA     BIT       P15
      00000080H.6 SFRSYM    DATA     BIT       P06
      000000B8H.0 SFRSYM    DATA     BIT       IPINT0
      000000D8H.2 SFRSYM    DATA     BIT       P52
      000000C0H.3 SFRSYM    DATA     BIT       P43
      000000B0H.4 SFRSYM    DATA     BIT       P34
      000000A0H.5 SFRSYM    DATA     BIT       P25
      00000090H.6 SFRSYM    DATA     BIT       P16
      00000080H.7 SFRSYM    DATA     BIT       P07
      000000B8H.2 SFRSYM    DATA     BIT       IPINT1
      000000D8H.3 SFRSYM    DATA     BIT       P53
      000000C0H.4 SFRSYM    DATA     BIT       P44
LX51 LINKER/LOCATER V4.66.87.0                                                        04/03/2025  09:53:25  PAGE 32


      000000B0H.5 SFRSYM    DATA     BIT       P35
      000000A0H.6 SFRSYM    DATA     BIT       P26
      00000090H.7 SFRSYM    DATA     BIT       P17
      000000FDH   SFRSYM    DATA     BYTE      CRCREG
      000000D8H.4 SFRSYM    DATA     BIT       P54
      000000C0H.5 SFRSYM    DATA     BIT       P45
      000000B0H.6 SFRSYM    DATA     BIT       P36
      000000A0H.7 SFRSYM    DATA     BIT       P27
      000000D8H.5 SFRSYM    DATA     BIT       P55
      000000C0H.6 SFRSYM    DATA     BIT       P46
      000000B0H.7 SFRSYM    DATA     BIT       P37
      000000C0H.7 SFRSYM    DATA     BIT       P47
      000000C8H.6 SFRSYM    DATA     BIT       EXFX
      00000093H   SFRSYM    DATA     BYTE      DDRCON
      000000F6H   SFRSYM    DATA     BYTE      IAPCTL
      000000A9H   SFRSYM    DATA     BYTE      IE1
      000000AAH   SFRSYM    DATA     BYTE      IE2
      000000F0H   SFRSYM    DATA     BYTE      B
      000000B7H   SFRSYM    DATA     BYTE      CMPCON
      000000F1H   SFRSYM    DATA     BYTE      IAPKEY
      000000FBH   SFRSYM    DATA     BYTE      BTMCON
      000000D1H   SFRSYM    DATA     BYTE      PWMCFG
      000000E0H   SFRSYM    DATA     BYTE      ACC
      000000CBH   SFRSYM    DATA     BYTE      RCAPXH
      000000A8H.1 SFRSYM    DATA     BIT       ET0
      000000FCH   SFRSYM    DATA     BYTE      CRCINX
      00000088H.5 SFRSYM    DATA     BIT       TF0
      000000A8H.3 SFRSYM    DATA     BIT       ET1
      000000ABH   SFRSYM    DATA     BYTE      ADCCFG0
      000000B9H   SFRSYM    DATA     BYTE      IP1
      00000088H.7 SFRSYM    DATA     BIT       TF1
      000000A8H.5 SFRSYM    DATA     BIT       ET2
      000000ACH   SFRSYM    DATA     BYTE      ADCCFG1
      000000BAH   SFRSYM    DATA     BYTE      IP2
      00000098H.2 SFRSYM    DATA     BIT       RB8
      000000B5H   SFRSYM    DATA     BYTE      ADCCFG2
      000000CAH   SFRSYM    DATA     BYTE      RCAPXL
      0000008CH   SFRSYM    DATA     BYTE      TH0
      0000008DH   SFRSYM    DATA     BYTE      TH1
      00000098H.3 SFRSYM    DATA     BIT       TB8
      000000D0H.0 SFRSYM    DATA     BIT       P
      00000098H.7 SFRSYM    DATA     BIT       SM0
      0000008AH   SFRSYM    DATA     BYTE      TL0
      00000098H.6 SFRSYM    DATA     BIT       SM1
      000000CFH   SFRSYM    DATA     BYTE      WDTCON
      0000008BH   SFRSYM    DATA     BYTE      TL1
      00000098H.5 SFRSYM    DATA     BIT       SM2
      000000D6H   SFRSYM    DATA     BYTE      PWMDFR
      000000D5H   SFRSYM    DATA     BYTE      PWMPDH
      000000D0H.3 SFRSYM    DATA     BIT       RS0
      00000088H.4 SFRSYM    DATA     BIT       TR0
      000000D0H.4 SFRSYM    DATA     BIT       RS1
      000000D4H   SFRSYM    DATA     BYTE      PWMPDL
      00000088H.6 SFRSYM    DATA     BIT       TR1
      000000B8H.4 SFRSYM    DATA     BIT       IPUART
      000000D7H   SFRSYM    DATA     BYTE      PWMFLT
      00000083H   SFRSYM    DATA     BYTE      DPH
      00000082H   SFRSYM    DATA     BYTE      DPL
      000000A8H.0 SFRSYM    DATA     BIT       EINT0
      0000009AH   SFRSYM    DATA     BYTE      P0CON
      000000A8H.2 SFRSYM    DATA     BIT       EINT1
      000000B8H.6 SFRSYM    DATA     BIT       IPADC
      000000B4H   SFRSYM    DATA     BYTE      INT0F
      00000091H   SFRSYM    DATA     BYTE      P1CON
      000000BCH   SFRSYM    DATA     BYTE      INT1F
LX51 LINKER/LOCATER V4.66.87.0                                                        04/03/2025  09:53:25  PAGE 33


      000000A1H   SFRSYM    DATA     BYTE      P2CON
      000000BEH   SFRSYM    DATA     BYTE      INT2F
      000000B1H   SFRSYM    DATA     BYTE      P3CON
      00000098H.4 SFRSYM    DATA     BIT       REN
      000000C1H   SFRSYM    DATA     BYTE      P4CON
      000000D9H   SFRSYM    DATA     BYTE      P5CON
      000000AFH   SFRSYM    DATA     BYTE      ADCVH
      00000086H   SFRSYM    DATA     BYTE      DPS
      00000095H   SFRSYM    DATA     BYTE      US0CON0
      000000A4H   SFRSYM    DATA     BYTE      US1CON0
      0000009DH   SFRSYM    DATA     BYTE      US0CON1
      000000AEH   SFRSYM    DATA     BYTE      ADCVL
      000000F7H   SFRSYM    DATA     BYTE      EXADH
      000000A5H   SFRSYM    DATA     BYTE      US1CON1
      0000009EH   SFRSYM    DATA     BYTE      US0CON2
      000000A6H   SFRSYM    DATA     BYTE      US1CON2
      0000009FH   SFRSYM    DATA     BYTE      US0CON3
      000000A7H   SFRSYM    DATA     BYTE      US1CON3
      000000BBH   SFRSYM    DATA     BYTE      INT0R
      000000BDH   SFRSYM    DATA     BYTE      INT1R
      000000BFH   SFRSYM    DATA     BYTE      INT2R
      000000DCH   SFRSYM    DATA     BYTE      USXINX
      000000C8H.7 SFRSYM    DATA     BIT       TFX
      00000096H   SFRSYM    DATA     BYTE      IOHCON0
      00000097H   SFRSYM    DATA     BYTE      IOHCON1
      000000CDH   SFRSYM    DATA     BYTE      THX
      000000D0H.5 SFRSYM    DATA     BIT       F0
      000000D0H.1 SFRSYM    DATA     BIT       F1
      000000CCH   SFRSYM    DATA     BYTE      TLX
      000000D0H   SFRSYM    DATA     BYTE      PSW

      01002005H   BLOCK     CODE     ---       LVL=0
      01002005H   LINE      ---      ---       #25
      01002005H   LINE      ---      ---       #26
      01002005H   LINE      ---      ---       #28
      01002036H   LINE      ---      ---       #29
      01002036H   LINE      ---      ---       #30
      0100203DH   LINE      ---      ---       #31
      01002044H   LINE      ---      ---       #32
      0100204BH   LINE      ---      ---       #33
      01002052H   LINE      ---      ---       #34
      01002059H   LINE      ---      ---       #35
      01002060H   LINE      ---      ---       #36
      01002066H   LINE      ---      ---       #37
      01002066H   LINE      ---      ---       #40
      ---         BLOCKEND  ---      ---       LVL=0

      01002067H   BLOCK     CODE     ---       LVL=0
      01002067H   LINE      ---      ---       #41
      01002067H   LINE      ---      ---       #42
      01002067H   LINE      ---      ---       #44
      01002077H   LINE      ---      ---       #47
      ---         BLOCKEND  ---      ---       LVL=0

      0100217DH   BLOCK     CODE     ---       LVL=0
      0100217DH   LINE      ---      ---       #48
      0100217DH   LINE      ---      ---       #49
      0100217DH   LINE      ---      ---       #51
      0100217FH   LINE      ---      ---       #52
      0100218DH   LINE      ---      ---       #55
      ---         BLOCKEND  ---      ---       LVL=0

      0100218EH   BLOCK     CODE     ---       LVL=0
      0100218EH   LINE      ---      ---       #56
      0100218EH   LINE      ---      ---       #57
LX51 LINKER/LOCATER V4.66.87.0                                                        04/03/2025  09:53:25  PAGE 34


      0100218EH   LINE      ---      ---       #59
      01002192H   LINE      ---      ---       #60
      0100219EH   LINE      ---      ---       #63
      ---         BLOCKEND  ---      ---       LVL=0

      0100219FH   BLOCK     CODE     ---       LVL=0
      0100219FH   LINE      ---      ---       #64
      0100219FH   LINE      ---      ---       #65
      0100219FH   LINE      ---      ---       #67
      010021A5H   LINE      ---      ---       #68
      010021AFH   LINE      ---      ---       #71
      ---         BLOCKEND  ---      ---       LVL=0

      010021B0H   BLOCK     CODE     ---       LVL=0
      010021B0H   LINE      ---      ---       #72
      010021B0H   LINE      ---      ---       #73
      010021B0H   LINE      ---      ---       #75
      010021B8H   LINE      ---      ---       #76
      010021C0H   LINE      ---      ---       #79
      ---         BLOCKEND  ---      ---       LVL=0

      010021C1H   BLOCK     CODE     ---       LVL=0
      010021C1H   LINE      ---      ---       #80
      010021C1H   LINE      ---      ---       #81
      010021C1H   LINE      ---      ---       #83
      010021CBH   LINE      ---      ---       #84
      010021D1H   LINE      ---      ---       #87
      ---         BLOCKEND  ---      ---       LVL=0

      010021D2H   BLOCK     CODE     ---       LVL=0
      010021D2H   LINE      ---      ---       #88
      010021D2H   LINE      ---      ---       #89
      010021D2H   LINE      ---      ---       #91
      010021DEH   LINE      ---      ---       #92
      010021E2H   LINE      ---      ---       #95
      ---         BLOCKEND  ---      ---       LVL=0

      010021E3H   BLOCK     CODE     ---       LVL=0
      010021E3H   LINE      ---      ---       #96
      010021E3H   LINE      ---      ---       #97
      010021E3H   LINE      ---      ---       #99
      010021F1H   LINE      ---      ---       #100
      010021F3H   LINE      ---      ---       #103
      ---         BLOCKEND  ---      ---       LVL=0

      010021F4H   BLOCK     CODE     ---       LVL=0
      010021F4H   LINE      ---      ---       #104
      010021F4H   LINE      ---      ---       #105
      010021F4H   LINE      ---      ---       #107
      01002204H   LINE      ---      ---       #110
      ---         BLOCKEND  ---      ---       LVL=0

      01002078H   BLOCK     CODE     ---       LVL=0
      01002078H   LINE      ---      ---       #111
      01002078H   LINE      ---      ---       #112
      01002078H   LINE      ---      ---       #114
      01002083H   LINE      ---      ---       #115
      01002083H   LINE      ---      ---       #116
      01002089H   LINE      ---      ---       #117
      01002089H   LINE      ---      ---       #118
      010020A2H   LINE      ---      ---       #119
      010020A2H   LINE      ---      ---       #120
      010020A4H   LINE      ---      ---       #121
      010020A4H   LINE      ---      ---       #122
      010020BDH   LINE      ---      ---       #123
LX51 LINKER/LOCATER V4.66.87.0                                                        04/03/2025  09:53:25  PAGE 35


      010020BDH   LINE      ---      ---       #124
      010020BFH   LINE      ---      ---       #125
      010020BFH   LINE      ---      ---       #126
      010020D8H   LINE      ---      ---       #127
      010020D8H   LINE      ---      ---       #128
      010020DAH   LINE      ---      ---       #129
      010020DAH   LINE      ---      ---       #130
      010020F3H   LINE      ---      ---       #131
      010020F3H   LINE      ---      ---       #132
      010020F5H   LINE      ---      ---       #133
      010020F5H   LINE      ---      ---       #134
      0100210EH   LINE      ---      ---       #135
      0100210EH   LINE      ---      ---       #136
      01002110H   LINE      ---      ---       #137
      01002110H   LINE      ---      ---       #138
      01002129H   LINE      ---      ---       #139
      01002129H   LINE      ---      ---       #140
      0100212BH   LINE      ---      ---       #141
      0100212BH   LINE      ---      ---       #142
      01002144H   LINE      ---      ---       #143
      01002144H   LINE      ---      ---       #144
      01002146H   LINE      ---      ---       #145
      01002146H   LINE      ---      ---       #146
      0100215FH   LINE      ---      ---       #147
      0100215FH   LINE      ---      ---       #148
      01002161H   LINE      ---      ---       #149
      01002161H   LINE      ---      ---       #150
      0100217AH   LINE      ---      ---       #151
      0100217AH   LINE      ---      ---       #152
      0100217CH   LINE      ---      ---       #153
      0100217CH   LINE      ---      ---       #156
      ---         BLOCKEND  ---      ---       LVL=0

      01001EB9H   BLOCK     CODE     ---       LVL=0
      01001EB9H   LINE      ---      ---       #157
      01001EB9H   LINE      ---      ---       #158
      01001EB9H   LINE      ---      ---       #160
      01001EC1H   LINE      ---      ---       #161
      01001EC1H   LINE      ---      ---       #162
      01001EC4H   LINE      ---      ---       #163
      01001ECDH   LINE      ---      ---       #164
      01001EDCH   LINE      ---      ---       #165
      01001EDFH   LINE      ---      ---       #166
      01001EE1H   LINE      ---      ---       #167
      01001EE4H   LINE      ---      ---       #168
      01001EE6H   LINE      ---      ---       #169
      01001EE6H   LINE      ---      ---       #172
      ---         BLOCKEND  ---      ---       LVL=0

      01001F0EH   BLOCK     CODE     ---       LVL=0
      01001F0EH   LINE      ---      ---       #173
      01001F0EH   LINE      ---      ---       #174
      01001F0EH   LINE      ---      ---       #176
      01001F16H   LINE      ---      ---       #177
      01001F16H   LINE      ---      ---       #178
      01001F1CH   LINE      ---      ---       #179
      01001F1CH   LINE      ---      ---       #180
      01001F1EH   LINE      ---      ---       #181
      01001F23H   LINE      ---      ---       #182
      01001F37H   LINE      ---      ---       #183
      01001F37H   LINE      ---      ---       #184
      01001F3AH   LINE      ---      ---       #185
      01001F3DH   LINE      ---      ---       #186
      01001F40H   LINE      ---      ---       #187
      01001F43H   LINE      ---      ---       #188
LX51 LINKER/LOCATER V4.66.87.0                                                        04/03/2025  09:53:25  PAGE 36


      01001F46H   LINE      ---      ---       #189
      01001F49H   LINE      ---      ---       #190
      01001F50H   LINE      ---      ---       #191
      01001F50H   LINE      ---      ---       #192
      01001F50H   LINE      ---      ---       #193
      01001F50H   LINE      ---      ---       #195
      01001F50H   LINE      ---      ---       #196
      01001F55H   LINE      ---      ---       #197
      01001F55H   LINE      ---      ---       #200
      ---         BLOCKEND  ---      ---       LVL=0

      ---         MODULE    ---      ---       COMPCTRLDEFINE
      000000C8H.2 SFRSYM    DATA     BIT       TRX
      000000FFH   SFRSYM    DATA     BYTE      OPREG
      00000080H   SFRSYM    DATA     BYTE      P0
      00000090H   SFRSYM    DATA     BYTE      P1
      000000A0H   SFRSYM    DATA     BYTE      P2
      000000A8H.4 SFRSYM    DATA     BIT       EUART
      0000008EH   SFRSYM    DATA     BYTE      TMCON
      000000B0H   SFRSYM    DATA     BYTE      P3
      000000D0H.6 SFRSYM    DATA     BIT       AC
      000000C0H   SFRSYM    DATA     BYTE      P4
      0000008FH   SFRSYM    DATA     BYTE      OTCON
      000000D8H   SFRSYM    DATA     BYTE      P5
      000000A8H.7 SFRSYM    DATA     BIT       EA
      000000C8H.5 SFRSYM    DATA     BIT       RCLKX
      000000D2H   SFRSYM    DATA     BYTE      PWMCON0
      000000C8H.4 SFRSYM    DATA     BIT       TCLKX
      000000D3H   SFRSYM    DATA     BYTE      PWMCON1
      000000C8H.3 SFRSYM    DATA     BIT       EXENX
      000000A8H.6 SFRSYM    DATA     BIT       EADC
      000000C9H   SFRSYM    DATA     BYTE      TXMOD
      000000C8H   SFRSYM    DATA     BYTE      TXCON
      000000A8H   SFRSYM    DATA     BYTE      IE
      00000085H   SFRSYM    DATA     BYTE      DPH1
      000000E9H   SFRSYM    DATA     BYTE      EXA0
      000000FEH   SFRSYM    DATA     BYTE      OPINX
      000000EAH   SFRSYM    DATA     BYTE      EXA1
      000000EBH   SFRSYM    DATA     BYTE      EXA2
      000000ECH   SFRSYM    DATA     BYTE      EXA3
      00000084H   SFRSYM    DATA     BYTE      DPL1
      000000C8H.0 SFRSYM    DATA     BIT       CP
      000000C4H   SFRSYM    DATA     BYTE      USXCON0
      000000C5H   SFRSYM    DATA     BYTE      USXCON1
      000000C6H   SFRSYM    DATA     BYTE      USXCON2
      000000C7H   SFRSYM    DATA     BYTE      USXCON3
      000000EFH   SFRSYM    DATA     BYTE      OPERCON
      0000009BH   SFRSYM    DATA     BYTE      P0PH
      000000B8H   SFRSYM    DATA     BYTE      IP
      00000092H   SFRSYM    DATA     BYTE      P1PH
      00000098H.0 SFRSYM    DATA     BIT       RI
      000000A2H   SFRSYM    DATA     BYTE      P2PH
      000000D0H.7 SFRSYM    DATA     BIT       CY
      000000B2H   SFRSYM    DATA     BYTE      P3PH
      00000098H.1 SFRSYM    DATA     BIT       TI
      000000CEH   SFRSYM    DATA     BYTE      TXINX
      000000C2H   SFRSYM    DATA     BYTE      P4PH
      000000B8H.1 SFRSYM    DATA     BIT       IPT0
      000000DAH   SFRSYM    DATA     BYTE      P5PH
      000000B8H.3 SFRSYM    DATA     BIT       IPT1
      000000B8H.5 SFRSYM    DATA     BIT       IPT2
      00000081H   SFRSYM    DATA     BYTE      SP
      000000D0H.2 SFRSYM    DATA     BIT       OV
      000000F4H   SFRSYM    DATA     BYTE      IAPADE
      0000009CH   SFRSYM    DATA     BYTE      P0VO
LX51 LINKER/LOCATER V4.66.87.0                                                        04/03/2025  09:53:25  PAGE 37


      00000094H   SFRSYM    DATA     BYTE      P1VO
      000000A3H   SFRSYM    DATA     BYTE      P2VO
      000000EEH   SFRSYM    DATA     BYTE      EXBH
      000000F3H   SFRSYM    DATA     BYTE      IAPADH
      000000B3H   SFRSYM    DATA     BYTE      P3VO
      000000ADH   SFRSYM    DATA     BYTE      ADCCON
      000000C8H.1 SFRSYM    DATA     BIT       TX
      000000EDH   SFRSYM    DATA     BYTE      EXBL
      000000F2H   SFRSYM    DATA     BYTE      IAPADL
      00000080H.0 SFRSYM    DATA     BIT       P00
      00000090H.0 SFRSYM    DATA     BIT       P10
      00000080H.1 SFRSYM    DATA     BIT       P01
      00000099H   SFRSYM    DATA     BYTE      SBUF
      00000087H   SFRSYM    DATA     BYTE      PCON
      000000A0H.0 SFRSYM    DATA     BIT       P20
      00000090H.1 SFRSYM    DATA     BIT       P11
      00000080H.2 SFRSYM    DATA     BIT       P02
      000000B6H   SFRSYM    DATA     BYTE      CMPCFG
      000000B0H.0 SFRSYM    DATA     BIT       P30
      000000A0H.1 SFRSYM    DATA     BIT       P21
      00000090H.2 SFRSYM    DATA     BIT       P12
      00000080H.3 SFRSYM    DATA     BIT       P03
      000000C0H.0 SFRSYM    DATA     BIT       P40
      000000B0H.1 SFRSYM    DATA     BIT       P31
      000000A0H.2 SFRSYM    DATA     BIT       P22
      00000090H.3 SFRSYM    DATA     BIT       P13
      00000080H.4 SFRSYM    DATA     BIT       P04
      00000098H   SFRSYM    DATA     BYTE      SCON
      000000D8H.0 SFRSYM    DATA     BIT       P50
      000000C0H.1 SFRSYM    DATA     BIT       P41
      000000B0H.2 SFRSYM    DATA     BIT       P32
      000000A0H.3 SFRSYM    DATA     BIT       P23
      00000090H.4 SFRSYM    DATA     BIT       P14
      00000080H.5 SFRSYM    DATA     BIT       P05
      000000F5H   SFRSYM    DATA     BYTE      IAPDAT
      00000089H   SFRSYM    DATA     BYTE      TMOD
      00000088H   SFRSYM    DATA     BYTE      TCON
      000000D8H.1 SFRSYM    DATA     BIT       P51
      000000C0H.2 SFRSYM    DATA     BIT       P42
      000000B0H.3 SFRSYM    DATA     BIT       P33
      000000A0H.4 SFRSYM    DATA     BIT       P24
      00000090H.5 SFRSYM    DATA     BIT       P15
      00000080H.6 SFRSYM    DATA     BIT       P06
      000000B8H.0 SFRSYM    DATA     BIT       IPINT0
      000000D8H.2 SFRSYM    DATA     BIT       P52
      000000C0H.3 SFRSYM    DATA     BIT       P43
      000000B0H.4 SFRSYM    DATA     BIT       P34
      000000A0H.5 SFRSYM    DATA     BIT       P25
      00000090H.6 SFRSYM    DATA     BIT       P16
      00000080H.7 SFRSYM    DATA     BIT       P07
      000000B8H.2 SFRSYM    DATA     BIT       IPINT1
      000000D8H.3 SFRSYM    DATA     BIT       P53
      000000C0H.4 SFRSYM    DATA     BIT       P44
      000000B0H.5 SFRSYM    DATA     BIT       P35
      000000A0H.6 SFRSYM    DATA     BIT       P26
      00000090H.7 SFRSYM    DATA     BIT       P17
      000000FDH   SFRSYM    DATA     BYTE      CRCREG
      000000D8H.4 SFRSYM    DATA     BIT       P54
      000000C0H.5 SFRSYM    DATA     BIT       P45
      000000B0H.6 SFRSYM    DATA     BIT       P36
      000000A0H.7 SFRSYM    DATA     BIT       P27
      000000D8H.5 SFRSYM    DATA     BIT       P55
      000000C0H.6 SFRSYM    DATA     BIT       P46
      000000B0H.7 SFRSYM    DATA     BIT       P37
      000000C0H.7 SFRSYM    DATA     BIT       P47
LX51 LINKER/LOCATER V4.66.87.0                                                        04/03/2025  09:53:25  PAGE 38


      000000C8H.6 SFRSYM    DATA     BIT       EXFX
      00000093H   SFRSYM    DATA     BYTE      DDRCON
      000000F6H   SFRSYM    DATA     BYTE      IAPCTL
      000000A9H   SFRSYM    DATA     BYTE      IE1
      000000AAH   SFRSYM    DATA     BYTE      IE2
      000000F0H   SFRSYM    DATA     BYTE      B
      000000B7H   SFRSYM    DATA     BYTE      CMPCON
      000000F1H   SFRSYM    DATA     BYTE      IAPKEY
      000000FBH   SFRSYM    DATA     BYTE      BTMCON
      000000D1H   SFRSYM    DATA     BYTE      PWMCFG
      000000E0H   SFRSYM    DATA     BYTE      ACC
      000000CBH   SFRSYM    DATA     BYTE      RCAPXH
      000000A8H.1 SFRSYM    DATA     BIT       ET0
      000000FCH   SFRSYM    DATA     BYTE      CRCINX
      00000088H.5 SFRSYM    DATA     BIT       TF0
      000000A8H.3 SFRSYM    DATA     BIT       ET1
      000000ABH   SFRSYM    DATA     BYTE      ADCCFG0
      000000B9H   SFRSYM    DATA     BYTE      IP1
      00000088H.7 SFRSYM    DATA     BIT       TF1
      000000A8H.5 SFRSYM    DATA     BIT       ET2
      000000ACH   SFRSYM    DATA     BYTE      ADCCFG1
      000000BAH   SFRSYM    DATA     BYTE      IP2
      00000098H.2 SFRSYM    DATA     BIT       RB8
      000000B5H   SFRSYM    DATA     BYTE      ADCCFG2
      000000CAH   SFRSYM    DATA     BYTE      RCAPXL
      0000008CH   SFRSYM    DATA     BYTE      TH0
      0000008DH   SFRSYM    DATA     BYTE      TH1
      00000098H.3 SFRSYM    DATA     BIT       TB8
      000000D0H.0 SFRSYM    DATA     BIT       P
      00000098H.7 SFRSYM    DATA     BIT       SM0
      0000008AH   SFRSYM    DATA     BYTE      TL0
      00000098H.6 SFRSYM    DATA     BIT       SM1
      000000CFH   SFRSYM    DATA     BYTE      WDTCON
      0000008BH   SFRSYM    DATA     BYTE      TL1
      00000098H.5 SFRSYM    DATA     BIT       SM2
      000000D6H   SFRSYM    DATA     BYTE      PWMDFR
      000000D5H   SFRSYM    DATA     BYTE      PWMPDH
      000000D0H.3 SFRSYM    DATA     BIT       RS0
      00000088H.4 SFRSYM    DATA     BIT       TR0
      000000D0H.4 SFRSYM    DATA     BIT       RS1
      000000D4H   SFRSYM    DATA     BYTE      PWMPDL
      00000088H.6 SFRSYM    DATA     BIT       TR1
      000000B8H.4 SFRSYM    DATA     BIT       IPUART
      000000D7H   SFRSYM    DATA     BYTE      PWMFLT
      00000083H   SFRSYM    DATA     BYTE      DPH
      00000082H   SFRSYM    DATA     BYTE      DPL
      000000A8H.0 SFRSYM    DATA     BIT       EINT0
      0000009AH   SFRSYM    DATA     BYTE      P0CON
      000000A8H.2 SFRSYM    DATA     BIT       EINT1
      000000B8H.6 SFRSYM    DATA     BIT       IPADC
      000000B4H   SFRSYM    DATA     BYTE      INT0F
      00000091H   SFRSYM    DATA     BYTE      P1CON
      000000BCH   SFRSYM    DATA     BYTE      INT1F
      000000A1H   SFRSYM    DATA     BYTE      P2CON
      000000BEH   SFRSYM    DATA     BYTE      INT2F
      000000B1H   SFRSYM    DATA     BYTE      P3CON
      00000098H.4 SFRSYM    DATA     BIT       REN
      000000C1H   SFRSYM    DATA     BYTE      P4CON
      000000D9H   SFRSYM    DATA     BYTE      P5CON
      000000AFH   SFRSYM    DATA     BYTE      ADCVH
      00000086H   SFRSYM    DATA     BYTE      DPS
      00000095H   SFRSYM    DATA     BYTE      US0CON0
      000000A4H   SFRSYM    DATA     BYTE      US1CON0
      0000009DH   SFRSYM    DATA     BYTE      US0CON1
      000000AEH   SFRSYM    DATA     BYTE      ADCVL
LX51 LINKER/LOCATER V4.66.87.0                                                        04/03/2025  09:53:25  PAGE 39


      000000F7H   SFRSYM    DATA     BYTE      EXADH
      000000A5H   SFRSYM    DATA     BYTE      US1CON1
      0000009EH   SFRSYM    DATA     BYTE      US0CON2
      000000A6H   SFRSYM    DATA     BYTE      US1CON2
      0000009FH   SFRSYM    DATA     BYTE      US0CON3
      000000A7H   SFRSYM    DATA     BYTE      US1CON3
      000000BBH   SFRSYM    DATA     BYTE      INT0R
      000000BDH   SFRSYM    DATA     BYTE      INT1R
      000000BFH   SFRSYM    DATA     BYTE      INT2R
      000000DCH   SFRSYM    DATA     BYTE      USXINX
      000000C8H.7 SFRSYM    DATA     BIT       TFX
      00000096H   SFRSYM    DATA     BYTE      IOHCON0
      00000097H   SFRSYM    DATA     BYTE      IOHCON1
      000000CDH   SFRSYM    DATA     BYTE      THX
      000000D0H.5 SFRSYM    DATA     BIT       F0
      000000D0H.1 SFRSYM    DATA     BIT       F1
      000000CCH   SFRSYM    DATA     BYTE      TLX
      000000D0H   SFRSYM    DATA     BYTE      PSW

      ---         MODULE    ---      ---       CALLBACKFUNCTION
      000000C8H.2 SFRSYM    DATA     BIT       TRX
      000000FFH   SFRSYM    DATA     BYTE      OPREG
      00000080H   SFRSYM    DATA     BYTE      P0
      00000090H   SFRSYM    DATA     BYTE      P1
      000000A0H   SFRSYM    DATA     BYTE      P2
      000000A8H.4 SFRSYM    DATA     BIT       EUART
      0000008EH   SFRSYM    DATA     BYTE      TMCON
      000000B0H   SFRSYM    DATA     BYTE      P3
      000000D0H.6 SFRSYM    DATA     BIT       AC
      000000C0H   SFRSYM    DATA     BYTE      P4
      0000008FH   SFRSYM    DATA     BYTE      OTCON
      000000D8H   SFRSYM    DATA     BYTE      P5
      000000A8H.7 SFRSYM    DATA     BIT       EA
      000000C8H.5 SFRSYM    DATA     BIT       RCLKX
      000000D2H   SFRSYM    DATA     BYTE      PWMCON0
      000000C8H.4 SFRSYM    DATA     BIT       TCLKX
      000000D3H   SFRSYM    DATA     BYTE      PWMCON1
      000000C8H.3 SFRSYM    DATA     BIT       EXENX
      000000A8H.6 SFRSYM    DATA     BIT       EADC
      000000C9H   SFRSYM    DATA     BYTE      TXMOD
      000000C8H   SFRSYM    DATA     BYTE      TXCON
      000000A8H   SFRSYM    DATA     BYTE      IE
      00000085H   SFRSYM    DATA     BYTE      DPH1
      000000E9H   SFRSYM    DATA     BYTE      EXA0
      000000FEH   SFRSYM    DATA     BYTE      OPINX
      000000EAH   SFRSYM    DATA     BYTE      EXA1
      000000EBH   SFRSYM    DATA     BYTE      EXA2
      000000ECH   SFRSYM    DATA     BYTE      EXA3
      00000084H   SFRSYM    DATA     BYTE      DPL1
      000000C8H.0 SFRSYM    DATA     BIT       CP
      000000C4H   SFRSYM    DATA     BYTE      USXCON0
      000000C5H   SFRSYM    DATA     BYTE      USXCON1
      000000C6H   SFRSYM    DATA     BYTE      USXCON2
      000000C7H   SFRSYM    DATA     BYTE      USXCON3
      000000EFH   SFRSYM    DATA     BYTE      OPERCON
      0000009BH   SFRSYM    DATA     BYTE      P0PH
      000000B8H   SFRSYM    DATA     BYTE      IP
      00000092H   SFRSYM    DATA     BYTE      P1PH
      00000098H.0 SFRSYM    DATA     BIT       RI
      000000A2H   SFRSYM    DATA     BYTE      P2PH
      000000D0H.7 SFRSYM    DATA     BIT       CY
      000000B2H   SFRSYM    DATA     BYTE      P3PH
      00000098H.1 SFRSYM    DATA     BIT       TI
      000000CEH   SFRSYM    DATA     BYTE      TXINX
      000000C2H   SFRSYM    DATA     BYTE      P4PH
LX51 LINKER/LOCATER V4.66.87.0                                                        04/03/2025  09:53:25  PAGE 40


      000000B8H.1 SFRSYM    DATA     BIT       IPT0
      000000DAH   SFRSYM    DATA     BYTE      P5PH
      000000B8H.3 SFRSYM    DATA     BIT       IPT1
      000000B8H.5 SFRSYM    DATA     BIT       IPT2
      00000081H   SFRSYM    DATA     BYTE      SP
      000000D0H.2 SFRSYM    DATA     BIT       OV
      000000F4H   SFRSYM    DATA     BYTE      IAPADE
      0000009CH   SFRSYM    DATA     BYTE      P0VO
      00000094H   SFRSYM    DATA     BYTE      P1VO
      000000A3H   SFRSYM    DATA     BYTE      P2VO
      000000EEH   SFRSYM    DATA     BYTE      EXBH
      000000F3H   SFRSYM    DATA     BYTE      IAPADH
      000000B3H   SFRSYM    DATA     BYTE      P3VO
      000000ADH   SFRSYM    DATA     BYTE      ADCCON
      000000C8H.1 SFRSYM    DATA     BIT       TX
      000000EDH   SFRSYM    DATA     BYTE      EXBL
      000000F2H   SFRSYM    DATA     BYTE      IAPADL
      00000080H.0 SFRSYM    DATA     BIT       P00
      00000090H.0 SFRSYM    DATA     BIT       P10
      00000080H.1 SFRSYM    DATA     BIT       P01
      00000099H   SFRSYM    DATA     BYTE      SBUF
      00000087H   SFRSYM    DATA     BYTE      PCON
      000000A0H.0 SFRSYM    DATA     BIT       P20
      00000090H.1 SFRSYM    DATA     BIT       P11
      00000080H.2 SFRSYM    DATA     BIT       P02
      000000B6H   SFRSYM    DATA     BYTE      CMPCFG
      000000B0H.0 SFRSYM    DATA     BIT       P30
      000000A0H.1 SFRSYM    DATA     BIT       P21
      00000090H.2 SFRSYM    DATA     BIT       P12
      00000080H.3 SFRSYM    DATA     BIT       P03
      000000C0H.0 SFRSYM    DATA     BIT       P40
      000000B0H.1 SFRSYM    DATA     BIT       P31
      000000A0H.2 SFRSYM    DATA     BIT       P22
      00000090H.3 SFRSYM    DATA     BIT       P13
      00000080H.4 SFRSYM    DATA     BIT       P04
      00000098H   SFRSYM    DATA     BYTE      SCON
      000000D8H.0 SFRSYM    DATA     BIT       P50
      000000C0H.1 SFRSYM    DATA     BIT       P41
      000000B0H.2 SFRSYM    DATA     BIT       P32
      000000A0H.3 SFRSYM    DATA     BIT       P23
      00000090H.4 SFRSYM    DATA     BIT       P14
      00000080H.5 SFRSYM    DATA     BIT       P05
      000000F5H   SFRSYM    DATA     BYTE      IAPDAT
      00000089H   SFRSYM    DATA     BYTE      TMOD
      00000088H   SFRSYM    DATA     BYTE      TCON
      000000D8H.1 SFRSYM    DATA     BIT       P51
      000000C0H.2 SFRSYM    DATA     BIT       P42
      000000B0H.3 SFRSYM    DATA     BIT       P33
      000000A0H.4 SFRSYM    DATA     BIT       P24
      00000090H.5 SFRSYM    DATA     BIT       P15
      00000080H.6 SFRSYM    DATA     BIT       P06
      000000B8H.0 SFRSYM    DATA     BIT       IPINT0
      000000D8H.2 SFRSYM    DATA     BIT       P52
      000000C0H.3 SFRSYM    DATA     BIT       P43
      000000B0H.4 SFRSYM    DATA     BIT       P34
      000000A0H.5 SFRSYM    DATA     BIT       P25
      00000090H.6 SFRSYM    DATA     BIT       P16
      00000080H.7 SFRSYM    DATA     BIT       P07
      000000B8H.2 SFRSYM    DATA     BIT       IPINT1
      000000D8H.3 SFRSYM    DATA     BIT       P53
      000000C0H.4 SFRSYM    DATA     BIT       P44
      000000B0H.5 SFRSYM    DATA     BIT       P35
      000000A0H.6 SFRSYM    DATA     BIT       P26
      00000090H.7 SFRSYM    DATA     BIT       P17
      000000FDH   SFRSYM    DATA     BYTE      CRCREG
LX51 LINKER/LOCATER V4.66.87.0                                                        04/03/2025  09:53:25  PAGE 41


      000000D8H.4 SFRSYM    DATA     BIT       P54
      000000C0H.5 SFRSYM    DATA     BIT       P45
      000000B0H.6 SFRSYM    DATA     BIT       P36
      000000A0H.7 SFRSYM    DATA     BIT       P27
      000000D8H.5 SFRSYM    DATA     BIT       P55
      000000C0H.6 SFRSYM    DATA     BIT       P46
      000000B0H.7 SFRSYM    DATA     BIT       P37
      000000C0H.7 SFRSYM    DATA     BIT       P47
      000000C8H.6 SFRSYM    DATA     BIT       EXFX
      00000093H   SFRSYM    DATA     BYTE      DDRCON
      000000F6H   SFRSYM    DATA     BYTE      IAPCTL
      000000A9H   SFRSYM    DATA     BYTE      IE1
      000000AAH   SFRSYM    DATA     BYTE      IE2
      000000F0H   SFRSYM    DATA     BYTE      B
      000000B7H   SFRSYM    DATA     BYTE      CMPCON
      000000F1H   SFRSYM    DATA     BYTE      IAPKEY
      000000FBH   SFRSYM    DATA     BYTE      BTMCON
      000000D1H   SFRSYM    DATA     BYTE      PWMCFG
      000000E0H   SFRSYM    DATA     BYTE      ACC
      000000CBH   SFRSYM    DATA     BYTE      RCAPXH
      000000A8H.1 SFRSYM    DATA     BIT       ET0
      000000FCH   SFRSYM    DATA     BYTE      CRCINX
      00000088H.5 SFRSYM    DATA     BIT       TF0
      000000A8H.3 SFRSYM    DATA     BIT       ET1
      000000ABH   SFRSYM    DATA     BYTE      ADCCFG0
      000000B9H   SFRSYM    DATA     BYTE      IP1
      00000088H.7 SFRSYM    DATA     BIT       TF1
      000000A8H.5 SFRSYM    DATA     BIT       ET2
      000000ACH   SFRSYM    DATA     BYTE      ADCCFG1
      000000BAH   SFRSYM    DATA     BYTE      IP2
      00000098H.2 SFRSYM    DATA     BIT       RB8
      000000B5H   SFRSYM    DATA     BYTE      ADCCFG2
      000000CAH   SFRSYM    DATA     BYTE      RCAPXL
      0000008CH   SFRSYM    DATA     BYTE      TH0
      0000008DH   SFRSYM    DATA     BYTE      TH1
      00000098H.3 SFRSYM    DATA     BIT       TB8
      000000D0H.0 SFRSYM    DATA     BIT       P
      00000098H.7 SFRSYM    DATA     BIT       SM0
      0000008AH   SFRSYM    DATA     BYTE      TL0
      00000098H.6 SFRSYM    DATA     BIT       SM1
      000000CFH   SFRSYM    DATA     BYTE      WDTCON
      0000008BH   SFRSYM    DATA     BYTE      TL1
      00000098H.5 SFRSYM    DATA     BIT       SM2
      000000D6H   SFRSYM    DATA     BYTE      PWMDFR
      000000D5H   SFRSYM    DATA     BYTE      PWMPDH
      000000D0H.3 SFRSYM    DATA     BIT       RS0
      00000088H.4 SFRSYM    DATA     BIT       TR0
      000000D0H.4 SFRSYM    DATA     BIT       RS1
      000000D4H   SFRSYM    DATA     BYTE      PWMPDL
      00000088H.6 SFRSYM    DATA     BIT       TR1
      000000B8H.4 SFRSYM    DATA     BIT       IPUART
      000000D7H   SFRSYM    DATA     BYTE      PWMFLT
      00000083H   SFRSYM    DATA     BYTE      DPH
      00000082H   SFRSYM    DATA     BYTE      DPL
      000000A8H.0 SFRSYM    DATA     BIT       EINT0
      0000009AH   SFRSYM    DATA     BYTE      P0CON
      000000A8H.2 SFRSYM    DATA     BIT       EINT1
      000000B8H.6 SFRSYM    DATA     BIT       IPADC
      000000B4H   SFRSYM    DATA     BYTE      INT0F
      00000091H   SFRSYM    DATA     BYTE      P1CON
      000000BCH   SFRSYM    DATA     BYTE      INT1F
      000000A1H   SFRSYM    DATA     BYTE      P2CON
      000000BEH   SFRSYM    DATA     BYTE      INT2F
      000000B1H   SFRSYM    DATA     BYTE      P3CON
      00000098H.4 SFRSYM    DATA     BIT       REN
LX51 LINKER/LOCATER V4.66.87.0                                                        04/03/2025  09:53:25  PAGE 42


      000000C1H   SFRSYM    DATA     BYTE      P4CON
      000000D9H   SFRSYM    DATA     BYTE      P5CON
      000000AFH   SFRSYM    DATA     BYTE      ADCVH
      00000086H   SFRSYM    DATA     BYTE      DPS
      00000095H   SFRSYM    DATA     BYTE      US0CON0
      000000A4H   SFRSYM    DATA     BYTE      US1CON0
      0000009DH   SFRSYM    DATA     BYTE      US0CON1
      000000AEH   SFRSYM    DATA     BYTE      ADCVL
      000000F7H   SFRSYM    DATA     BYTE      EXADH
      000000A5H   SFRSYM    DATA     BYTE      US1CON1
      0000009EH   SFRSYM    DATA     BYTE      US0CON2
      000000A6H   SFRSYM    DATA     BYTE      US1CON2
      0000009FH   SFRSYM    DATA     BYTE      US0CON3
      000000A7H   SFRSYM    DATA     BYTE      US1CON3
      000000BBH   SFRSYM    DATA     BYTE      INT0R
      000000BDH   SFRSYM    DATA     BYTE      INT1R
      000000BFH   SFRSYM    DATA     BYTE      INT2R
      000000DCH   SFRSYM    DATA     BYTE      USXINX
      000000C8H.7 SFRSYM    DATA     BIT       TFX
      00000096H   SFRSYM    DATA     BYTE      IOHCON0
      00000097H   SFRSYM    DATA     BYTE      IOHCON1
      000000CDH   SFRSYM    DATA     BYTE      THX
      000000D0H.5 SFRSYM    DATA     BIT       F0
      000000D0H.1 SFRSYM    DATA     BIT       F1
      000000CCH   SFRSYM    DATA     BYTE      TLX
      000000D0H   SFRSYM    DATA     BYTE      PSW

      ---         MODULE    ---      ---       SENSORMETHOD
      00000011H   PUBLIC    DATA     BYTE      UsingTKSlideModuleNumber
      020001DDH   PUBLIC    XDATA    BYTE      IsInNosicValue
      020001DCH   PUBLIC    XDATA    BYTE      CurrentIndex
      00000010H   PUBLIC    DATA     BYTE      CurrentChannelMax
      00000020H.1 PUBLIC    BIT      BIT       bNeedUpdate
      020001DBH   PUBLIC    XDATA    BYTE      MultipleDealIndex
      0000000CH   PUBLIC    DATA     DWORD     KeyMark
      00000020H.0 PUBLIC    BIT      BIT       bMultiple
      020001D9H   PUBLIC    XDATA    WORD      FlowFingerRoundCnt
      00000008H   PUBLIC    DATA     DWORD     KeyFlag
      020001D7H   PUBLIC    XDATA    WORD      ScanTime
      020001D6H   PUBLIC    XDATA    BYTE      FlowFingerRoundIndex
      0100159CH   PUBLIC    CODE     ---       _MultipleDeal
      01001BF2H   PUBLIC    CODE     ---       InitializeSensorFlag
      01001C91H   PUBLIC    CODE     ---       SetNeedUpdateBaseline
      01001C8EH   PUBLIC    CODE     ---       GetIsNeedUpdateBaseline
      010017C3H   PUBLIC    CODE     ---       _FilterDataDealT1
      01001C55H   PUBLIC    CODE     ---       FilterIIRInit
      010008F4H   PUBLIC    CODE     ---       _TKSlideModuleSensorRenovate
      020001BCH   PUBLIC    XDATA    BYTE      ?_BaseLineUpdataSW?BYTE
      010013DFH   PUBLIC    CODE     ---       _BaseLineUpdataSW
      01000D61H   PUBLIC    CODE     ---       _SensorRenovateT1
      01001C74H   PUBLIC    CODE     ---       InitializeBaselines
      01001ADCH   PUBLIC    CODE     ---       FilterAvergeDeal
      01001C30H   PUBLIC    CODE     ---       FilterCommCode
      01001C8BH   PUBLIC    CODE     ---       TouchKeyRestart
      01001941H   PUBLIC    CODE     ---       TouchKeyInit
      01001B4FH   PUBLIC    CODE     ---       TouchKey_Service
      01001A59H   PUBLIC    CODE     ---       _ICHAAdjust
      010019CEH   PUBLIC    CODE     ---       Usdelay

      01001174H   BLOCK     CODE     ---       LVL=0
      ---         BLOCKEND  ---      ---       LVL=0

      010019CEH   BLOCK     CODE     ---       LVL=0
      010019CEH   BLOCK     CODE     NEAR LAB  LVL=1
      00000007H   SYMBOL    DATA     VOID      CTM0_SCLKS
LX51 LINKER/LOCATER V4.66.87.0                                                        04/03/2025  09:53:25  PAGE 43


      00000001H   SYMBOL    DATA     VOID      temp
      02000162H   SYMBOL    XDATA    VOID      delay
      ---         BLOCKEND  ---      ---       LVL=1
      ---         BLOCKEND  ---      ---       LVL=0

      01001A59H   BLOCK     CODE     ---       LVL=0
      01001A5EH   BLOCK     CODE     NEAR LAB  LVL=1
      0200016EH   SYMBOL    XDATA    VOID      icha_set
      ---         BLOCKEND  ---      ---       LVL=1
      ---         BLOCKEND  ---      ---       LVL=0

      01001B4FH   BLOCK     CODE     ---       LVL=0
      01001B4FH   BLOCK     CODE     NEAR LAB  LVL=1
      00000020H.2 SYMBOL    BIT      VOID      Scanflag
      ---         BLOCKEND  ---      ---       LVL=1
      ---         BLOCKEND  ---      ---       LVL=0

      01001941H   BLOCK     CODE     ---       LVL=0
      ---         BLOCKEND  ---      ---       LVL=0

      01001C8BH   BLOCK     CODE     ---       LVL=0
      ---         BLOCKEND  ---      ---       LVL=0

      01001C30H   BLOCK     CODE     ---       LVL=0
      01001C30H   BLOCK     CODE     NEAR LAB  LVL=1
      00000006H   SYMBOL    DATA     VOID      times
      ---         BLOCKEND  ---      ---       LVL=1
      ---         BLOCKEND  ---      ---       LVL=0

      01001ADCH   BLOCK     CODE     ---       LVL=0
      01001ADCH   BLOCK     CODE     NEAR LAB  LVL=1
      02000160H   SYMBOL    XDATA    VOID      t
      02000161H   SYMBOL    XDATA    VOID      i
      ---         BLOCKEND  ---      ---       LVL=1
      ---         BLOCKEND  ---      ---       LVL=0

      01001C74H   BLOCK     CODE     ---       LVL=0
      01001C74H   BLOCK     CODE     NEAR LAB  LVL=1
      00000007H   SYMBOL    DATA     VOID      i
      ---         BLOCKEND  ---      ---       LVL=1
      ---         BLOCKEND  ---      ---       LVL=0

      01000D61H   BLOCK     CODE     ---       LVL=0
      01000D66H   BLOCK     CODE     NEAR LAB  LVL=1
      02000165H   SYMBOL    XDATA    VOID      differData
      02000167H   SYMBOL    XDATA    VOID      result
      02000168H   SYMBOL    XDATA    VOID      j
      02000169H   SYMBOL    XDATA    VOID      RealConfirmTouchCnt
      0200016AH   SYMBOL    XDATA    VOID      SetFingerThresholdtmp
      0200016CH   SYMBOL    XDATA    VOID      testcount
      ---         BLOCKEND  ---      ---       LVL=1
      ---         BLOCKEND  ---      ---       LVL=0

      010013DFH   BLOCK     CODE     ---       LVL=0
      010013EDH   BLOCK     CODE     NEAR LAB  LVL=1
      020001C4H   SYMBOL    XDATA    VOID      DifferData
      020001C6H   SYMBOL    XDATA    VOID      i
      020001C7H   SYMBOL    XDATA    VOID      j
      020001C8H   SYMBOL    XDATA    VOID      SetFingerThresholdtmp
      ---         BLOCKEND  ---      ---       LVL=1
      ---         BLOCKEND  ---      ---       LVL=0

      010008F4H   BLOCK     CODE     ---       LVL=0
      010008FAH   BLOCK     CODE     NEAR LAB  LVL=1
      02000167H   SYMBOL    XDATA    VOID      i
LX51 LINKER/LOCATER V4.66.87.0                                                        04/03/2025  09:53:25  PAGE 44


      02000168H   SYMBOL    XDATA    VOID      j
      02000169H   SYMBOL    XDATA    VOID      DifferData
      02000189H   SYMBOL    XDATA    VOID      DifferData2
      020001A9H   SYMBOL    XDATA    VOID      TempDifferData
      020001ABH   SYMBOL    XDATA    VOID      bMaxPos
      020001ACH   SYMBOL    XDATA    VOID      ThisPoint
      020001B0H   SYMBOL    XDATA    VOID      SumOfMulData
      020001B4H   SYMBOL    XDATA    VOID      SumOfData
      020001B8H   SYMBOL    XDATA    VOID      tempData
      ---         BLOCKEND  ---      ---       LVL=1
      ---         BLOCKEND  ---      ---       LVL=0

      01001C55H   BLOCK     CODE     ---       LVL=0
      01001C55H   BLOCK     CODE     NEAR LAB  LVL=1
      00000007H   SYMBOL    DATA     VOID      i
      ---         BLOCKEND  ---      ---       LVL=1
      ---         BLOCKEND  ---      ---       LVL=0

      010017C3H   BLOCK     CODE     ---       LVL=0
      010017C9H   BLOCK     CODE     NEAR LAB  LVL=1
      02000165H   SYMBOL    XDATA    VOID      FilterTemp
      00000004H   SYMBOL    DATA     VOID      SetFingerThresholdtmp
      ---         BLOCKEND  ---      ---       LVL=1
      ---         BLOCKEND  ---      ---       LVL=0

      01001C8EH   BLOCK     CODE     ---       LVL=0
      ---         BLOCKEND  ---      ---       LVL=0

      01001C91H   BLOCK     CODE     ---       LVL=0
      ---         BLOCKEND  ---      ---       LVL=0

      01001BF2H   BLOCK     CODE     ---       LVL=0
      01001BF2H   BLOCK     CODE     NEAR LAB  LVL=1
      00000007H   SYMBOL    DATA     VOID      i
      ---         BLOCKEND  ---      ---       LVL=1
      ---         BLOCKEND  ---      ---       LVL=0

      0100159CH   BLOCK     CODE     ---       LVL=0
      010015A1H   BLOCK     CODE     NEAR LAB  LVL=1
      020001D5H   SYMBOL    XDATA    VOID      InitSensorCnt
      00000004H   SYMBOL    DATA     VOID      FilterTemp
      02000162H   SYMBOL    XDATA    VOID      t
      ---         BLOCKEND  ---      ---       LVL=1
      ---         BLOCKEND  ---      ---       LVL=0

      ---         MODULE    ---      ---       TKDRIVER
      0200015FH   PUBLIC    XDATA    BYTE      MultipleDealTpye
      02000156H   PUBLIC    XDATA    ---       NoTouchCnt
      02000144H   PUBLIC    XDATA    ---       FilterData
      02000143H   PUBLIC    XDATA    CHAR      SetNoiseThreshold
      02000141H   PUBLIC    XDATA    WORD      UpdateBaseLNum
      02000140H   PUBLIC    XDATA    BYTE      SOCAPI_TouchKeyStatus
      02000070H   PUBLIC    XDATA    ---       TKSlideModulePCBArray
      0200006EH   PUBLIC    XDATA    WORD      MultipleLNum
      02000065H   PUBLIC    XDATA    ---       BaseLineAdjusttmp
      0200005CH   PUBLIC    XDATA    ---       RestAreaCnt
      0200004AH   PUBLIC    XDATA    ---       DifferAccum
      02000041H   PUBLIC    XDATA    ---       LowFingerDataCnt
      02000038H   PUBLIC    XDATA    ---       TouchCnt
      02000026H   PUBLIC    XDATA    ---       RawData
      0200001DH   PUBLIC    XDATA    ---       CurrentChannel
      0200001CH   PUBLIC    XDATA    BYTE      BigNosicCount
      02000013H   PUBLIC    XDATA    ---       FloatAreaCnt
      02000001H   PUBLIC    XDATA    ---       BaseLine
      02000000H   PUBLIC    XDATA    BYTE      ConfirmTouchCnt
LX51 LINKER/LOCATER V4.66.87.0                                                        04/03/2025  09:53:25  PAGE 45


      01001CB6H   PUBLIC    CONST    ---       TKChannelCfg
      01001C94H   PUBLIC    CONST    ---       TKCFG
      010026CBH   PUBLIC    CODE     ---       CTK_ISR
      01002210H   PUBLIC    CODE     ---       TouchKeyScan
      01002402H   PUBLIC    CODE     ---       SensorKeyFlagT1
      01002484H   PUBLIC    CODE     ---       _TKSlideModuleCHIs
      01002479H   PUBLIC    CODE     ---       _FilterDataDeal
      0100265DH   PUBLIC    CODE     ---       TouchKeyCFGInit
      01002552H   PUBLIC    CODE     ---       _GetCfgMsg
      0100258DH   PUBLIC    CODE     ---       CurrentSensorChoose
      01002517H   PUBLIC    CODE     ---       _GetTKYzThreshold
      01002583H   PUBLIC    CODE     ---       GetTKYzCnt
      01002545H   PUBLIC    CODE     ---       _GetBaseLineAdjustValue
      0100253DH   PUBLIC    CODE     ---       GetUpConfirmCnt
      0100247CH   PUBLIC    CODE     ---       IsDoubleKeyOrSlideKey
      0100252BH   PUBLIC    CODE     ---       _GetScanTimeValue
      010024EBH   PUBLIC    CODE     ---       _GetCurrFingerValue
      010024E8H   PUBLIC    CODE     ---       GetCsFunction
      010024E0H   PUBLIC    CODE     ---       GetInitAutoUpdateTime
      010024D5H   PUBLIC    CODE     ---       GetBaselineUpdateThreshold
      01002205H   PUBLIC    CODE     ---       SetOneKeyPushResetTime
      000000D0H.7 SFRSYM    DATA     BIT       TK_CY
      000000D0H   SFRSYM    DATA     BYTE      TK_PSW

      01002205H   BLOCK     CODE     ---       LVL=0
      01002205H   LINE      ---      ---       #226
      01002205H   LINE      ---      ---       #227
      01002205H   LINE      ---      ---       #228
      0100220FH   LINE      ---      ---       #229
      ---         BLOCKEND  ---      ---       LVL=0

      010024D5H   BLOCK     CODE     ---       LVL=0
      010024D5H   LINE      ---      ---       #237
      010024D5H   LINE      ---      ---       #238
      010024D5H   LINE      ---      ---       #239
      010024DFH   LINE      ---      ---       #240
      ---         BLOCKEND  ---      ---       LVL=0

      010024E0H   BLOCK     CODE     ---       LVL=0
      010024E0H   LINE      ---      ---       #249
      010024E0H   LINE      ---      ---       #250
      010024E0H   LINE      ---      ---       #251
      010024E7H   LINE      ---      ---       #252
      ---         BLOCKEND  ---      ---       LVL=0

      010024E8H   BLOCK     CODE     ---       LVL=0
      010024E8H   LINE      ---      ---       #261
      010024E8H   LINE      ---      ---       #262
      010024E8H   LINE      ---      ---       #263
      010024EAH   LINE      ---      ---       #264
      ---         BLOCKEND  ---      ---       LVL=0

      010024EBH   BLOCK     CODE     ---       LVL=0
      010024EBH   LINE      ---      ---       #273
      010024EDH   LINE      ---      ---       #274
      010024EDH   LINE      ---      ---       #275
      01002516H   LINE      ---      ---       #276
      00000005H   SYMBOL    DATA     BYTE      i
      ---         BLOCKEND  ---      ---       LVL=0

      0100252BH   BLOCK     CODE     ---       LVL=0
      0100252BH   LINE      ---      ---       #285
      0100252BH   LINE      ---      ---       #286
      0100252BH   LINE      ---      ---       #287
      0100253CH   LINE      ---      ---       #288
LX51 LINKER/LOCATER V4.66.87.0                                                        04/03/2025  09:53:25  PAGE 46


      00000007H   SYMBOL    DATA     BYTE      i
      ---         BLOCKEND  ---      ---       LVL=0

      0100247CH   BLOCK     CODE     ---       LVL=0
      0100247CH   LINE      ---      ---       #297
      0100247CH   LINE      ---      ---       #298
      0100247CH   LINE      ---      ---       #299
      01002483H   LINE      ---      ---       #300
      ---         BLOCKEND  ---      ---       LVL=0

      0100253DH   BLOCK     CODE     ---       LVL=0
      0100253DH   LINE      ---      ---       #309
      0100253DH   LINE      ---      ---       #310
      0100253DH   LINE      ---      ---       #311
      01002544H   LINE      ---      ---       #312
      ---         BLOCKEND  ---      ---       LVL=0

      01002545H   BLOCK     CODE     ---       LVL=0
      01002545H   LINE      ---      ---       #323
      01002545H   LINE      ---      ---       #324
      01002545H   LINE      ---      ---       #325
      01002551H   LINE      ---      ---       #326
      00000007H   SYMBOL    DATA     BYTE      i
      ---         BLOCKEND  ---      ---       LVL=0

      01002583H   BLOCK     CODE     ---       LVL=0
      01002583H   LINE      ---      ---       #336
      01002583H   LINE      ---      ---       #337
      01002583H   LINE      ---      ---       #338
      0100258CH   LINE      ---      ---       #339
      ---         BLOCKEND  ---      ---       LVL=0

      01002517H   BLOCK     CODE     ---       LVL=0
      01002517H   LINE      ---      ---       #347
      01002517H   LINE      ---      ---       #348
      00000007H   SYMBOL    DATA     BYTE      i
      01002517H   BLOCK     CODE     NEAR LAB  LVL=1
      01002517H   LINE      ---      ---       #351
      01002519H   LINE      ---      ---       #352
      00000006H   SYMBOL    DATA     WORD      SetFingerThresholdtmp
      ---         BLOCKEND  CODE     ---       LVL=1
      ---         BLOCKEND  CODE     ---       LVL=0

      0100258DH   BLOCK     CODE     ---       LVL=0
      0100258DH   LINE      ---      ---       #364
      0100258DH   LINE      ---      ---       #365
      0100258DH   BLOCK     CODE     NEAR LAB  LVL=1
      0100258DH   LINE      ---      ---       #366
      01002590H   LINE      ---      ---       #367
      01002592H   LINE      ---      ---       #372
      0100259DH   LINE      ---      ---       #374
      0100259DH   LINE      ---      ---       #375
      0100259DH   LINE      ---      ---       #378
      0100259FH   LINE      ---      ---       #379
      0100259FH   LINE      ---      ---       #380
      010025B4H   LINE      ---      ---       #381
      010025B7H   LINE      ---      ---       #382
      010025B7H   LINE      ---      ---       #383
      010025C5H   LINE      ---      ---       #384
      010025C7H   LINE      ---      ---       #385
      010025CEH   LINE      ---      ---       #386
      010025CEH   LINE      ---      ---       #387
      010025CEH   LINE      ---      ---       #388
      010025D5H   LINE      ---      ---       #390
      010025DFH   LINE      ---      ---       #391
LX51 LINKER/LOCATER V4.66.87.0                                                        04/03/2025  09:53:25  PAGE 47


      010025DFH   LINE      ---      ---       #392
      010025F9H   LINE      ---      ---       #393
      010025F9H   LINE      ---      ---       #394
      01002603H   LINE      ---      ---       #395
      01002603H   LINE      ---      ---       #396
      01002630H   LINE      ---      ---       #397
      01002630H   LINE      ---      ---       #398
      0100264DH   LINE      ---      ---       #399
      0100264DH   LINE      ---      ---       #400
      01002651H   LINE      ---      ---       #401
      01002655H   LINE      ---      ---       #402
      01002659H   LINE      ---      ---       #405
      0100265CH   LINE      ---      ---       #407
      00000014H   SYMBOL    DATA     BYTE      i
      00000015H   SYMBOL    DATA     BYTE      j
      00000016H   SYMBOL    DATA     BYTE      k
      00000017H   SYMBOL    DATA     BYTE      Ctk_Channel_mark
      00000018H   SYMBOL    DATA     DWORD     CurrentSensorKey
      ---         BLOCKEND  CODE     ---       LVL=1
      ---         BLOCKEND  CODE     ---       LVL=0

      01002552H   BLOCK     CODE     ---       LVL=0
      01002552H   LINE      ---      ---       #416
      01002552H   LINE      ---      ---       #417
      01002552H   LINE      ---      ---       #418
      01002563H   LINE      ---      ---       #419
      01002563H   LINE      ---      ---       #420
      01002568H   LINE      ---      ---       #421
      0100256DH   LINE      ---      ---       #422
      01002574H   LINE      ---      ---       #423
      01002578H   LINE      ---      ---       #424
      01002580H   LINE      ---      ---       #425
      01002582H   LINE      ---      ---       #426
      01002582H   LINE      ---      ---       #427
      00000007H   SYMBOL    DATA     BYTE      i
      ---         BLOCKEND  ---      ---       LVL=0

      0100265DH   BLOCK     CODE     ---       LVL=0
      0100265DH   LINE      ---      ---       #436
      0100265DH   LINE      ---      ---       #437
      0100265DH   BLOCK     CODE     NEAR LAB  LVL=1
      0100265DH   LINE      ---      ---       #443
      01002660H   LINE      ---      ---       #444
      0100266AH   LINE      ---      ---       #445
      01002674H   LINE      ---      ---       #446
      01002676H   LINE      ---      ---       #447
      01002680H   LINE      ---      ---       #448
      01002680H   LINE      ---      ---       #449
      0100269FH   LINE      ---      ---       #450
      010026A3H   LINE      ---      ---       #453
      010026AAH   LINE      ---      ---       #457
      010026B3H   LINE      ---      ---       #458
      010026B3H   LINE      ---      ---       #459
      010026C6H   LINE      ---      ---       #460
      010026CAH   LINE      ---      ---       #463
      00000012H   SYMBOL    DATA     BYTE      i
      00000013H   SYMBOL    DATA     BYTE      k
      ---         BLOCKEND  CODE     ---       LVL=1
      ---         BLOCKEND  CODE     ---       LVL=0

      01002479H   BLOCK     CODE     ---       LVL=0
      01002479H   LINE      ---      ---       #472
      01002479H   LINE      ---      ---       #473
      01002479H   LINE      ---      ---       #474
      00000007H   SYMBOL    DATA     BYTE      i
LX51 LINKER/LOCATER V4.66.87.0                                                        04/03/2025  09:53:25  PAGE 48


      ---         BLOCKEND  ---      ---       LVL=0

      01002484H   BLOCK     CODE     ---       LVL=0
      01002484H   LINE      ---      ---       #479
      01002486H   LINE      ---      ---       #480
      00000006H   SYMBOL    DATA     BYTE      ch
      01002486H   BLOCK     CODE     NEAR LAB  LVL=1
      01002486H   LINE      ---      ---       #484
      0100248EH   LINE      ---      ---       #485
      0100248EH   LINE      ---      ---       #486
      010024A5H   LINE      ---      ---       #487
      010024A5H   LINE      ---      ---       #488
      010024C1H   LINE      ---      ---       #489
      010024C1H   LINE      ---      ---       #490
      010024C1H   LINE      ---      ---       #491
      010024C1H   LINE      ---      ---       #492
      010024C4H   LINE      ---      ---       #493
      010024C8H   LINE      ---      ---       #494
      010024C8H   LINE      ---      ---       #495
      010024CBH   LINE      ---      ---       #497
      010024D2H   LINE      ---      ---       #498
      010024D2H   LINE      ---      ---       #499
      010024D4H   LINE      ---      ---       #500
      010024D4H   LINE      ---      ---       #503
      010024D4H   LINE      ---      ---       #504
      010024D4H   LINE      ---      ---       #505
      00000005H   SYMBOL    DATA     BYTE      i
      00000007H   SYMBOL    DATA     BYTE      k
      ---         BLOCKEND  CODE     ---       LVL=1
      ---         BLOCKEND  CODE     ---       LVL=0

      01002402H   BLOCK     CODE     ---       LVL=0
      01002402H   LINE      ---      ---       #515
      01002402H   LINE      ---      ---       #516
      01002402H   BLOCK     CODE     NEAR LAB  LVL=1
      01002402H   LINE      ---      ---       #521
      01002407H   LINE      ---      ---       #524
      0100240BH   LINE      ---      ---       #525
      01002419H   LINE      ---      ---       #526
      01002419H   LINE      ---      ---       #527
      0100241FH   LINE      ---      ---       #528
      01002421H   LINE      ---      ---       #531
      0100242BH   LINE      ---      ---       #532
      0100242BH   LINE      ---      ---       #533
      01002430H   LINE      ---      ---       #534
      01002430H   LINE      ---      ---       #539
      01002437H   LINE      ---      ---       #540
      01002437H   LINE      ---      ---       #541
      0100243FH   LINE      ---      ---       #542
      0100243FH   LINE      ---      ---       #544
      01002447H   LINE      ---      ---       #547
      01002456H   LINE      ---      ---       #548
      01002456H   LINE      ---      ---       #549
      01002468H   LINE      ---      ---       #550
      01002470H   LINE      ---      ---       #553
      01002478H   LINE      ---      ---       #554
      02000161H   SYMBOL    XDATA    BYTE      i
      02000162H   SYMBOL    XDATA    BYTE      k
      02000163H   SYMBOL    XDATA    BYTE      SlideCount
      ---         BLOCKEND  CODE     ---       LVL=1
      ---         BLOCKEND  CODE     ---       LVL=0

      01002210H   BLOCK     CODE     ---       LVL=0
      01002210H   LINE      ---      ---       #567
      01002210H   LINE      ---      ---       #568
LX51 LINKER/LOCATER V4.66.87.0                                                        04/03/2025  09:53:25  PAGE 49


      01002210H   BLOCK     CODE     NEAR LAB  LVL=1
      01002210H   LINE      ---      ---       #572
      01002213H   LINE      ---      ---       #573
      01002215H   LINE      ---      ---       #575
      0100221DH   LINE      ---      ---       #578
      01002224H   LINE      ---      ---       #579
      01002224H   LINE      ---      ---       #582
      0100222EH   LINE      ---      ---       #586
      01002238H   LINE      ---      ---       #587
      01002238H   LINE      ---      ---       #588
      0100224DH   LINE      ---      ---       #589
      01002250H   LINE      ---      ---       #590
      01002250H   LINE      ---      ---       #591
      0100227EH   LINE      ---      ---       #592
      01002280H   LINE      ---      ---       #593
      01002280H   LINE      ---      ---       #594
      01002284H   LINE      ---      ---       #595
      0100228BH   LINE      ---      ---       #596
      0100228BH   LINE      ---      ---       #597
      0100228DH   LINE      ---      ---       #598
      01002293H   LINE      ---      ---       #599
      01002293H   LINE      ---      ---       #600
      01002296H   LINE      ---      ---       #601
      01002298H   LINE      ---      ---       #603
      01002298H   LINE      ---      ---       #604
      0100229DH   LINE      ---      ---       #605
      0100229DH   LINE      ---      ---       #606
      0100229FH   LINE      ---      ---       #607
      0100229FH   LINE      ---      ---       #608
      0100229FH   LINE      ---      ---       #609
      0100229FH   LINE      ---      ---       #611
      010022A2H   LINE      ---      ---       #612
      010022A2H   LINE      ---      ---       #613
      010022B5H   LINE      ---      ---       #614
      010022B5H   LINE      ---      ---       #615
      010022BFH   LINE      ---      ---       #616
      010022C1H   LINE      ---      ---       #618
      010022C1H   LINE      ---      ---       #619
      010022C8H   LINE      ---      ---       #620
      010022C8H   LINE      ---      ---       #621
      010022CAH   LINE      ---      ---       #623
      010022CAH   LINE      ---      ---       #625
      010022D4H   LINE      ---      ---       #626
      010022DDH   LINE      ---      ---       #627
      010022DDH   LINE      ---      ---       #632
      010022EEH   LINE      ---      ---       #633
      010022EEH   LINE      ---      ---       #634
      01002304H   LINE      ---      ---       #635
      01002304H   LINE      ---      ---       #636
      01002321H   LINE      ---      ---       #637
      01002321H   LINE      ---      ---       #638
      01002339H   LINE      ---      ---       #639
      0100233BH   LINE      ---      ---       #641
      0100233BH   LINE      ---      ---       #642
      01002360H   LINE      ---      ---       #643
      01002360H   LINE      ---      ---       #644
      01002360H   LINE      ---      ---       #645
      01002362H   LINE      ---      ---       #647
      01002362H   LINE      ---      ---       #648
      01002377H   LINE      ---      ---       #649
      01002377H   LINE      ---      ---       #651
      01002394H   LINE      ---      ---       #652
      01002394H   LINE      ---      ---       #653
      01002397H   LINE      ---      ---       #654
      010023ACH   LINE      ---      ---       #655
LX51 LINKER/LOCATER V4.66.87.0                                                        04/03/2025  09:53:25  PAGE 50


      010023ACH   LINE      ---      ---       #656
      010023B4H   LINE      ---      ---       #662
      010023C3H   LINE      ---      ---       #663
      010023C3H   LINE      ---      ---       #664
      010023C6H   LINE      ---      ---       #665
      010023CDH   LINE      ---      ---       #666
      010023CDH   LINE      ---      ---       #669
      010023DCH   LINE      ---      ---       #670
      010023DCH   LINE      ---      ---       #671
      010023DFH   LINE      ---      ---       #672
      010023E5H   LINE      ---      ---       #673
      010023ECH   LINE      ---      ---       #674
      010023ECH   LINE      ---      ---       #676
      010023EEH   LINE      ---      ---       #678
      010023EEH   LINE      ---      ---       #679
      010023F9H   LINE      ---      ---       #680
      010023F9H   LINE      ---      ---       #682
      01002401H   LINE      ---      ---       #683
      02000160H   SYMBOL    XDATA    BYTE      k
      00000012H   SYMBOL    DATA     BYTE      t
      00000013H   SYMBOL    DATA     BYTE      MultipleCnt
      00000014H   SYMBOL    DATA     DWORD     Keyvalue
      00000018H   SYMBOL    DATA     DWORD     KeyData
      ---         BLOCKEND  CODE     ---       LVL=1
      ---         BLOCKEND  CODE     ---       LVL=0

      010026CBH   BLOCK     CODE     ---       LVL=0
      010026E8H   LINE      ---      ---       #692
      010026E8H   LINE      ---      ---       #694
      010026EBH   LINE      ---      ---       #695
      ---         BLOCKEND  ---      ---       LVL=0

      ---         MODULE    ---      ---       RD8_TIMER2
      01002706H   PUBLIC    CODE     ---       _TIM2_ClearFlag
      01001EF9H   PUBLIC    CODE     ---       _TIM2_ITConfig
      01001EADH   PUBLIC    CODE     ---       _TIM2_Cmd
      01001EE8H   PUBLIC    CODE     ---       _TIM2_WorkMode1Config
      01001F56H   PUBLIC    CODE     ---       _TIM2_TimeBaseInit
      000000C8H.2 SFRSYM    DATA     BIT       TRX
      000000FFH   SFRSYM    DATA     BYTE      OPREG
      00000080H   SFRSYM    DATA     BYTE      P0
      00000090H   SFRSYM    DATA     BYTE      P1
      000000A0H   SFRSYM    DATA     BYTE      P2
      000000A8H.4 SFRSYM    DATA     BIT       EUART
      0000008EH   SFRSYM    DATA     BYTE      TMCON
      000000B0H   SFRSYM    DATA     BYTE      P3
      000000D0H.6 SFRSYM    DATA     BIT       AC
      000000C0H   SFRSYM    DATA     BYTE      P4
      0000008FH   SFRSYM    DATA     BYTE      OTCON
      000000D8H   SFRSYM    DATA     BYTE      P5
      000000A8H.7 SFRSYM    DATA     BIT       EA
      000000C8H.5 SFRSYM    DATA     BIT       RCLKX
      000000D2H   SFRSYM    DATA     BYTE      PWMCON0
      000000C8H.4 SFRSYM    DATA     BIT       TCLKX
      000000D3H   SFRSYM    DATA     BYTE      PWMCON1
      000000C8H.3 SFRSYM    DATA     BIT       EXENX
      000000A8H.6 SFRSYM    DATA     BIT       EADC
      000000C9H   SFRSYM    DATA     BYTE      TXMOD
      000000C8H   SFRSYM    DATA     BYTE      TXCON
      000000A8H   SFRSYM    DATA     BYTE      IE
      00000085H   SFRSYM    DATA     BYTE      DPH1
      000000E9H   SFRSYM    DATA     BYTE      EXA0
      000000FEH   SFRSYM    DATA     BYTE      OPINX
      000000EAH   SFRSYM    DATA     BYTE      EXA1
      000000EBH   SFRSYM    DATA     BYTE      EXA2
LX51 LINKER/LOCATER V4.66.87.0                                                        04/03/2025  09:53:25  PAGE 51


      000000ECH   SFRSYM    DATA     BYTE      EXA3
      00000084H   SFRSYM    DATA     BYTE      DPL1
      000000C8H.0 SFRSYM    DATA     BIT       CP
      000000C4H   SFRSYM    DATA     BYTE      USXCON0
      000000C5H   SFRSYM    DATA     BYTE      USXCON1
      000000C6H   SFRSYM    DATA     BYTE      USXCON2
      000000C7H   SFRSYM    DATA     BYTE      USXCON3
      000000EFH   SFRSYM    DATA     BYTE      OPERCON
      0000009BH   SFRSYM    DATA     BYTE      P0PH
      000000B8H   SFRSYM    DATA     BYTE      IP
      00000092H   SFRSYM    DATA     BYTE      P1PH
      00000098H.0 SFRSYM    DATA     BIT       RI
      000000A2H   SFRSYM    DATA     BYTE      P2PH
      000000D0H.7 SFRSYM    DATA     BIT       CY
      000000B2H   SFRSYM    DATA     BYTE      P3PH
      00000098H.1 SFRSYM    DATA     BIT       TI
      000000CEH   SFRSYM    DATA     BYTE      TXINX
      000000C2H   SFRSYM    DATA     BYTE      P4PH
      000000B8H.1 SFRSYM    DATA     BIT       IPT0
      000000DAH   SFRSYM    DATA     BYTE      P5PH
      000000B8H.3 SFRSYM    DATA     BIT       IPT1
      000000B8H.5 SFRSYM    DATA     BIT       IPT2
      00000081H   SFRSYM    DATA     BYTE      SP
      000000D0H.2 SFRSYM    DATA     BIT       OV
      000000F4H   SFRSYM    DATA     BYTE      IAPADE
      0000009CH   SFRSYM    DATA     BYTE      P0VO
      00000094H   SFRSYM    DATA     BYTE      P1VO
      000000A3H   SFRSYM    DATA     BYTE      P2VO
      000000EEH   SFRSYM    DATA     BYTE      EXBH
      000000F3H   SFRSYM    DATA     BYTE      IAPADH
      000000B3H   SFRSYM    DATA     BYTE      P3VO
      000000ADH   SFRSYM    DATA     BYTE      ADCCON
      000000C8H.1 SFRSYM    DATA     BIT       TX
      000000EDH   SFRSYM    DATA     BYTE      EXBL
      000000F2H   SFRSYM    DATA     BYTE      IAPADL
      00000080H.0 SFRSYM    DATA     BIT       P00
      00000090H.0 SFRSYM    DATA     BIT       P10
      00000080H.1 SFRSYM    DATA     BIT       P01
      00000099H   SFRSYM    DATA     BYTE      SBUF
      00000087H   SFRSYM    DATA     BYTE      PCON
      000000A0H.0 SFRSYM    DATA     BIT       P20
      00000090H.1 SFRSYM    DATA     BIT       P11
      00000080H.2 SFRSYM    DATA     BIT       P02
      000000B6H   SFRSYM    DATA     BYTE      CMPCFG
      000000B0H.0 SFRSYM    DATA     BIT       P30
      000000A0H.1 SFRSYM    DATA     BIT       P21
      00000090H.2 SFRSYM    DATA     BIT       P12
      00000080H.3 SFRSYM    DATA     BIT       P03
      000000C0H.0 SFRSYM    DATA     BIT       P40
      000000B0H.1 SFRSYM    DATA     BIT       P31
      000000A0H.2 SFRSYM    DATA     BIT       P22
      00000090H.3 SFRSYM    DATA     BIT       P13
      00000080H.4 SFRSYM    DATA     BIT       P04
      00000098H   SFRSYM    DATA     BYTE      SCON
      000000D8H.0 SFRSYM    DATA     BIT       P50
      000000C0H.1 SFRSYM    DATA     BIT       P41
      000000B0H.2 SFRSYM    DATA     BIT       P32
      000000A0H.3 SFRSYM    DATA     BIT       P23
      00000090H.4 SFRSYM    DATA     BIT       P14
      00000080H.5 SFRSYM    DATA     BIT       P05
      000000F5H   SFRSYM    DATA     BYTE      IAPDAT
      00000089H   SFRSYM    DATA     BYTE      TMOD
      00000088H   SFRSYM    DATA     BYTE      TCON
      000000D8H.1 SFRSYM    DATA     BIT       P51
      000000C0H.2 SFRSYM    DATA     BIT       P42
LX51 LINKER/LOCATER V4.66.87.0                                                        04/03/2025  09:53:25  PAGE 52


      000000B0H.3 SFRSYM    DATA     BIT       P33
      000000A0H.4 SFRSYM    DATA     BIT       P24
      00000090H.5 SFRSYM    DATA     BIT       P15
      00000080H.6 SFRSYM    DATA     BIT       P06
      000000B8H.0 SFRSYM    DATA     BIT       IPINT0
      000000D8H.2 SFRSYM    DATA     BIT       P52
      000000C0H.3 SFRSYM    DATA     BIT       P43
      000000B0H.4 SFRSYM    DATA     BIT       P34
      000000A0H.5 SFRSYM    DATA     BIT       P25
      00000090H.6 SFRSYM    DATA     BIT       P16
      00000080H.7 SFRSYM    DATA     BIT       P07
      000000B8H.2 SFRSYM    DATA     BIT       IPINT1
      000000D8H.3 SFRSYM    DATA     BIT       P53
      000000C0H.4 SFRSYM    DATA     BIT       P44
      000000B0H.5 SFRSYM    DATA     BIT       P35
      000000A0H.6 SFRSYM    DATA     BIT       P26
      00000090H.7 SFRSYM    DATA     BIT       P17
      000000FDH   SFRSYM    DATA     BYTE      CRCREG
      000000D8H.4 SFRSYM    DATA     BIT       P54
      000000C0H.5 SFRSYM    DATA     BIT       P45
      000000B0H.6 SFRSYM    DATA     BIT       P36
      000000A0H.7 SFRSYM    DATA     BIT       P27
      000000D8H.5 SFRSYM    DATA     BIT       P55
      000000C0H.6 SFRSYM    DATA     BIT       P46
      000000B0H.7 SFRSYM    DATA     BIT       P37
      000000C0H.7 SFRSYM    DATA     BIT       P47
      000000C8H.6 SFRSYM    DATA     BIT       EXFX
      00000093H   SFRSYM    DATA     BYTE      DDRCON
      000000F6H   SFRSYM    DATA     BYTE      IAPCTL
      000000A9H   SFRSYM    DATA     BYTE      IE1
      000000AAH   SFRSYM    DATA     BYTE      IE2
      000000F0H   SFRSYM    DATA     BYTE      B
      000000B7H   SFRSYM    DATA     BYTE      CMPCON
      000000F1H   SFRSYM    DATA     BYTE      IAPKEY
      000000FBH   SFRSYM    DATA     BYTE      BTMCON
      000000D1H   SFRSYM    DATA     BYTE      PWMCFG
      000000E0H   SFRSYM    DATA     BYTE      ACC
      000000CBH   SFRSYM    DATA     BYTE      RCAPXH
      000000A8H.1 SFRSYM    DATA     BIT       ET0
      000000FCH   SFRSYM    DATA     BYTE      CRCINX
      00000088H.5 SFRSYM    DATA     BIT       TF0
      000000A8H.3 SFRSYM    DATA     BIT       ET1
      000000ABH   SFRSYM    DATA     BYTE      ADCCFG0
      000000B9H   SFRSYM    DATA     BYTE      IP1
      00000088H.7 SFRSYM    DATA     BIT       TF1
      000000A8H.5 SFRSYM    DATA     BIT       ET2
      000000ACH   SFRSYM    DATA     BYTE      ADCCFG1
      000000BAH   SFRSYM    DATA     BYTE      IP2
      00000098H.2 SFRSYM    DATA     BIT       RB8
      000000B5H   SFRSYM    DATA     BYTE      ADCCFG2
      000000CAH   SFRSYM    DATA     BYTE      RCAPXL
      0000008CH   SFRSYM    DATA     BYTE      TH0
      0000008DH   SFRSYM    DATA     BYTE      TH1
      00000098H.3 SFRSYM    DATA     BIT       TB8
      000000D0H.0 SFRSYM    DATA     BIT       P
      00000098H.7 SFRSYM    DATA     BIT       SM0
      0000008AH   SFRSYM    DATA     BYTE      TL0
      00000098H.6 SFRSYM    DATA     BIT       SM1
      000000CFH   SFRSYM    DATA     BYTE      WDTCON
      0000008BH   SFRSYM    DATA     BYTE      TL1
      00000098H.5 SFRSYM    DATA     BIT       SM2
      000000D6H   SFRSYM    DATA     BYTE      PWMDFR
      000000D5H   SFRSYM    DATA     BYTE      PWMPDH
      000000D0H.3 SFRSYM    DATA     BIT       RS0
      00000088H.4 SFRSYM    DATA     BIT       TR0
LX51 LINKER/LOCATER V4.66.87.0                                                        04/03/2025  09:53:25  PAGE 53


      000000D0H.4 SFRSYM    DATA     BIT       RS1
      000000D4H   SFRSYM    DATA     BYTE      PWMPDL
      00000088H.6 SFRSYM    DATA     BIT       TR1
      000000B8H.4 SFRSYM    DATA     BIT       IPUART
      000000D7H   SFRSYM    DATA     BYTE      PWMFLT
      00000083H   SFRSYM    DATA     BYTE      DPH
      00000082H   SFRSYM    DATA     BYTE      DPL
      000000A8H.0 SFRSYM    DATA     BIT       EINT0
      0000009AH   SFRSYM    DATA     BYTE      P0CON
      000000A8H.2 SFRSYM    DATA     BIT       EINT1
      000000B8H.6 SFRSYM    DATA     BIT       IPADC
      000000B4H   SFRSYM    DATA     BYTE      INT0F
      00000091H   SFRSYM    DATA     BYTE      P1CON
      000000BCH   SFRSYM    DATA     BYTE      INT1F
      000000A1H   SFRSYM    DATA     BYTE      P2CON
      000000BEH   SFRSYM    DATA     BYTE      INT2F
      000000B1H   SFRSYM    DATA     BYTE      P3CON
      00000098H.4 SFRSYM    DATA     BIT       REN
      000000C1H   SFRSYM    DATA     BYTE      P4CON
      000000D9H   SFRSYM    DATA     BYTE      P5CON
      000000AFH   SFRSYM    DATA     BYTE      ADCVH
      00000086H   SFRSYM    DATA     BYTE      DPS
      00000095H   SFRSYM    DATA     BYTE      US0CON0
      000000A4H   SFRSYM    DATA     BYTE      US1CON0
      0000009DH   SFRSYM    DATA     BYTE      US0CON1
      000000AEH   SFRSYM    DATA     BYTE      ADCVL
      000000F7H   SFRSYM    DATA     BYTE      EXADH
      000000A5H   SFRSYM    DATA     BYTE      US1CON1
      0000009EH   SFRSYM    DATA     BYTE      US0CON2
      000000A6H   SFRSYM    DATA     BYTE      US1CON2
      0000009FH   SFRSYM    DATA     BYTE      US0CON3
      000000A7H   SFRSYM    DATA     BYTE      US1CON3
      000000BBH   SFRSYM    DATA     BYTE      INT0R
      000000BDH   SFRSYM    DATA     BYTE      INT1R
      000000BFH   SFRSYM    DATA     BYTE      INT2R
      000000DCH   SFRSYM    DATA     BYTE      USXINX
      000000C8H.7 SFRSYM    DATA     BIT       TFX
      00000096H   SFRSYM    DATA     BYTE      IOHCON0
      00000097H   SFRSYM    DATA     BYTE      IOHCON1
      000000CDH   SFRSYM    DATA     BYTE      THX
      000000D0H.5 SFRSYM    DATA     BIT       F0
      000000D0H.1 SFRSYM    DATA     BIT       F1
      000000CCH   SFRSYM    DATA     BYTE      TLX
      000000D0H   SFRSYM    DATA     BYTE      PSW
      00000007H   SYMBOL    DATA     BYTE      TIM2_PrescalerSelection

      01001F56H   BLOCK     CODE     ---       LVL=0
      01001F56H   LINE      ---      ---       #67
      01001F56H   LINE      ---      ---       #71
      01001F56H   LINE      ---      ---       #72
      01001F59H   LINE      ---      ---       #74
      01001F60H   LINE      ---      ---       #75
      01001F60H   LINE      ---      ---       #77
      01001F64H   LINE      ---      ---       #78
      01001F64H   LINE      ---      ---       #79
      01001F67H   LINE      ---      ---       #80
      01001F69H   LINE      ---      ---       #81
      01001F6DH   LINE      ---      ---       #82
      01001F6DH   LINE      ---      ---       #83
      01001F70H   LINE      ---      ---       #84
      01001F70H   LINE      ---      ---       #86
      01001F73H   LINE      ---      ---       #87
      01001F73H   LINE      ---      ---       #88
      01001F73H   LINE      ---      ---       #89
      01001F75H   LINE      ---      ---       #90
LX51 LINKER/LOCATER V4.66.87.0                                                        04/03/2025  09:53:25  PAGE 54


      01001F7AH   LINE      ---      ---       #91
      01001F7AH   LINE      ---      ---       #92
      01001F7AH   LINE      ---      ---       #93
      01001F7AH   LINE      ---      ---       #94
      01001F7CH   LINE      ---      ---       #96
      01001F7CH   LINE      ---      ---       #98
      01001F7FH   LINE      ---      ---       #99
      01001F7FH   LINE      ---      ---       #100
      01001F82H   LINE      ---      ---       #101
      01001F84H   LINE      ---      ---       #102
      01001F88H   LINE      ---      ---       #103
      01001F88H   LINE      ---      ---       #104
      01001F8BH   LINE      ---      ---       #105
      01001F8BH   LINE      ---      ---       #107
      01001F8FH   LINE      ---      ---       #108
      01001F8FH   LINE      ---      ---       #109
      01001F92H   LINE      ---      ---       #110
      01001F94H   LINE      ---      ---       #111
      01001F98H   LINE      ---      ---       #112
      01001F98H   LINE      ---      ---       #113
      01001F9BH   LINE      ---      ---       #114
      01001F9BH   LINE      ---      ---       #115
      01001F9EH   LINE      ---      ---       #116
      01001F9EH   LINE      ---      ---       #117
      01001FA1H   LINE      ---      ---       #118
      01001FA2H   LINE      ---      ---       #119
      01001FA6H   LINE      ---      ---       #120
      01001FA6H   LINE      ---      ---       #121
      01001FA9H   LINE      ---      ---       #122
      01001FA9H   LINE      ---      ---       #123
      01001FA9H   LINE      ---      ---       #124
      00000007H   SYMBOL    DATA     BYTE      TIM2_PrescalerSelection
      00000005H   SYMBOL    DATA     BYTE      TIM2_CountMode
      00000003H   SYMBOL    DATA     BYTE      TIM2_CountDirection
      ---         BLOCKEND  ---      ---       LVL=0
      00000006H   SYMBOL    DATA     WORD      TIM2_SetCounter

      01001EE8H   BLOCK     CODE     ---       LVL=0
      01001EE8H   LINE      ---      ---       #194
      01001EE8H   LINE      ---      ---       #195
      01001EE8H   LINE      ---      ---       #196
      01001EEBH   LINE      ---      ---       #197
      01001EEFH   LINE      ---      ---       #198
      01001EF2H   LINE      ---      ---       #200
      01001EF5H   LINE      ---      ---       #201
      01001EF8H   LINE      ---      ---       #202
      00000006H   SYMBOL    DATA     WORD      TIM2_SetCounter
      ---         BLOCKEND  ---      ---       LVL=0
      00000006H   SYMBOL    DATA     WORD      TIM2_SetCounter
      00000007H   SYMBOL    DATA     BYTE      TIM2_WorkMode
      00000004H   SYMBOL    DATA     WORD      TIM2_SetCounter
      00000007H   SYMBOL    DATA     BYTE      NewState

      01001EADH   BLOCK     CODE     ---       LVL=0
      01001EADH   LINE      ---      ---       #274
      01001EADH   LINE      ---      ---       #275
      01001EADH   LINE      ---      ---       #276
      01001EB0H   LINE      ---      ---       #278
      01001EB3H   LINE      ---      ---       #279
      01001EB3H   LINE      ---      ---       #280
      01001EB5H   LINE      ---      ---       #281
      01001EB6H   LINE      ---      ---       #283
      01001EB6H   LINE      ---      ---       #284
      01001EB8H   LINE      ---      ---       #285
      01001EB8H   LINE      ---      ---       #286
LX51 LINKER/LOCATER V4.66.87.0                                                        04/03/2025  09:53:25  PAGE 55


      00000007H   SYMBOL    DATA     BYTE      NewState
      ---         BLOCKEND  ---      ---       LVL=0

      01001EF9H   BLOCK     CODE     ---       LVL=0
      01001EF9H   LINE      ---      ---       #323
      01001EF9H   LINE      ---      ---       #324
      01001EF9H   LINE      ---      ---       #325
      01001EFCH   LINE      ---      ---       #327
      01001EFFH   LINE      ---      ---       #328
      01001EFFH   LINE      ---      ---       #329
      01001F01H   LINE      ---      ---       #330
      01001F03H   LINE      ---      ---       #332
      01001F03H   LINE      ---      ---       #333
      01001F05H   LINE      ---      ---       #334
      01001F05H   LINE      ---      ---       #336
      01001F08H   LINE      ---      ---       #337
      01001F08H   LINE      ---      ---       #338
      01001F0AH   LINE      ---      ---       #339
      01001F0BH   LINE      ---      ---       #341
      01001F0BH   LINE      ---      ---       #342
      01001F0DH   LINE      ---      ---       #343
      01001F0DH   LINE      ---      ---       #344
      00000007H   SYMBOL    DATA     BYTE      NewState
      00000005H   SYMBOL    DATA     BYTE      Priority
      ---         BLOCKEND  ---      ---       LVL=0
      00000007H   SYMBOL    DATA     BYTE      TIM2_Flag
      00000006H   SYMBOL    DATA     BYTE      status

      01002706H   BLOCK     CODE     ---       LVL=0
      01002706H   LINE      ---      ---       #378
      01002706H   LINE      ---      ---       #379
      01002706H   LINE      ---      ---       #380
      01002709H   LINE      ---      ---       #381
      0100270DH   LINE      ---      ---       #382
      00000007H   SYMBOL    DATA     BYTE      TIM2_Flag
      ---         BLOCKEND  ---      ---       LVL=0

      ---         MODULE    ---      ---       RD8_GPIO
      01001DC5H   PUBLIC    CODE     ---       _GPIO_Init
      000000C8H.2 SFRSYM    DATA     BIT       TRX
      000000FFH   SFRSYM    DATA     BYTE      OPREG
      00000080H   SFRSYM    DATA     BYTE      P0
      00000090H   SFRSYM    DATA     BYTE      P1
      000000A0H   SFRSYM    DATA     BYTE      P2
      000000A8H.4 SFRSYM    DATA     BIT       EUART
      0000008EH   SFRSYM    DATA     BYTE      TMCON
      000000B0H   SFRSYM    DATA     BYTE      P3
      000000D0H.6 SFRSYM    DATA     BIT       AC
      000000C0H   SFRSYM    DATA     BYTE      P4
      0000008FH   SFRSYM    DATA     BYTE      OTCON
      000000D8H   SFRSYM    DATA     BYTE      P5
      000000A8H.7 SFRSYM    DATA     BIT       EA
      000000C8H.5 SFRSYM    DATA     BIT       RCLKX
      000000D2H   SFRSYM    DATA     BYTE      PWMCON0
      000000C8H.4 SFRSYM    DATA     BIT       TCLKX
      000000D3H   SFRSYM    DATA     BYTE      PWMCON1
      000000C8H.3 SFRSYM    DATA     BIT       EXENX
      000000A8H.6 SFRSYM    DATA     BIT       EADC
      000000C9H   SFRSYM    DATA     BYTE      TXMOD
      000000C8H   SFRSYM    DATA     BYTE      TXCON
      000000A8H   SFRSYM    DATA     BYTE      IE
      00000085H   SFRSYM    DATA     BYTE      DPH1
      000000E9H   SFRSYM    DATA     BYTE      EXA0
      000000FEH   SFRSYM    DATA     BYTE      OPINX
      000000EAH   SFRSYM    DATA     BYTE      EXA1
LX51 LINKER/LOCATER V4.66.87.0                                                        04/03/2025  09:53:25  PAGE 56


      000000EBH   SFRSYM    DATA     BYTE      EXA2
      000000ECH   SFRSYM    DATA     BYTE      EXA3
      00000084H   SFRSYM    DATA     BYTE      DPL1
      000000C8H.0 SFRSYM    DATA     BIT       CP
      000000C4H   SFRSYM    DATA     BYTE      USXCON0
      000000C5H   SFRSYM    DATA     BYTE      USXCON1
      000000C6H   SFRSYM    DATA     BYTE      USXCON2
      000000C7H   SFRSYM    DATA     BYTE      USXCON3
      000000EFH   SFRSYM    DATA     BYTE      OPERCON
      0000009BH   SFRSYM    DATA     BYTE      P0PH
      000000B8H   SFRSYM    DATA     BYTE      IP
      00000092H   SFRSYM    DATA     BYTE      P1PH
      00000098H.0 SFRSYM    DATA     BIT       RI
      000000A2H   SFRSYM    DATA     BYTE      P2PH
      000000D0H.7 SFRSYM    DATA     BIT       CY
      000000B2H   SFRSYM    DATA     BYTE      P3PH
      00000098H.1 SFRSYM    DATA     BIT       TI
      000000CEH   SFRSYM    DATA     BYTE      TXINX
      000000C2H   SFRSYM    DATA     BYTE      P4PH
      000000B8H.1 SFRSYM    DATA     BIT       IPT0
      000000DAH   SFRSYM    DATA     BYTE      P5PH
      000000B8H.3 SFRSYM    DATA     BIT       IPT1
      000000B8H.5 SFRSYM    DATA     BIT       IPT2
      00000081H   SFRSYM    DATA     BYTE      SP
      000000D0H.2 SFRSYM    DATA     BIT       OV
      000000F4H   SFRSYM    DATA     BYTE      IAPADE
      0000009CH   SFRSYM    DATA     BYTE      P0VO
      00000094H   SFRSYM    DATA     BYTE      P1VO
      000000A3H   SFRSYM    DATA     BYTE      P2VO
      000000EEH   SFRSYM    DATA     BYTE      EXBH
      000000F3H   SFRSYM    DATA     BYTE      IAPADH
      000000B3H   SFRSYM    DATA     BYTE      P3VO
      000000ADH   SFRSYM    DATA     BYTE      ADCCON
      000000C8H.1 SFRSYM    DATA     BIT       TX
      000000EDH   SFRSYM    DATA     BYTE      EXBL
      000000F2H   SFRSYM    DATA     BYTE      IAPADL
      00000080H.0 SFRSYM    DATA     BIT       P00
      00000090H.0 SFRSYM    DATA     BIT       P10
      00000080H.1 SFRSYM    DATA     BIT       P01
      00000099H   SFRSYM    DATA     BYTE      SBUF
      00000087H   SFRSYM    DATA     BYTE      PCON
      000000A0H.0 SFRSYM    DATA     BIT       P20
      00000090H.1 SFRSYM    DATA     BIT       P11
      00000080H.2 SFRSYM    DATA     BIT       P02
      000000B6H   SFRSYM    DATA     BYTE      CMPCFG
      000000B0H.0 SFRSYM    DATA     BIT       P30
      000000A0H.1 SFRSYM    DATA     BIT       P21
      00000090H.2 SFRSYM    DATA     BIT       P12
      00000080H.3 SFRSYM    DATA     BIT       P03
      000000C0H.0 SFRSYM    DATA     BIT       P40
      000000B0H.1 SFRSYM    DATA     BIT       P31
      000000A0H.2 SFRSYM    DATA     BIT       P22
      00000090H.3 SFRSYM    DATA     BIT       P13
      00000080H.4 SFRSYM    DATA     BIT       P04
      00000098H   SFRSYM    DATA     BYTE      SCON
      000000D8H.0 SFRSYM    DATA     BIT       P50
      000000C0H.1 SFRSYM    DATA     BIT       P41
      000000B0H.2 SFRSYM    DATA     BIT       P32
      000000A0H.3 SFRSYM    DATA     BIT       P23
      00000090H.4 SFRSYM    DATA     BIT       P14
      00000080H.5 SFRSYM    DATA     BIT       P05
      000000F5H   SFRSYM    DATA     BYTE      IAPDAT
      00000089H   SFRSYM    DATA     BYTE      TMOD
      00000088H   SFRSYM    DATA     BYTE      TCON
      000000D8H.1 SFRSYM    DATA     BIT       P51
LX51 LINKER/LOCATER V4.66.87.0                                                        04/03/2025  09:53:25  PAGE 57


      000000C0H.2 SFRSYM    DATA     BIT       P42
      000000B0H.3 SFRSYM    DATA     BIT       P33
      000000A0H.4 SFRSYM    DATA     BIT       P24
      00000090H.5 SFRSYM    DATA     BIT       P15
      00000080H.6 SFRSYM    DATA     BIT       P06
      000000B8H.0 SFRSYM    DATA     BIT       IPINT0
      000000D8H.2 SFRSYM    DATA     BIT       P52
      000000C0H.3 SFRSYM    DATA     BIT       P43
      000000B0H.4 SFRSYM    DATA     BIT       P34
      000000A0H.5 SFRSYM    DATA     BIT       P25
      00000090H.6 SFRSYM    DATA     BIT       P16
      00000080H.7 SFRSYM    DATA     BIT       P07
      000000B8H.2 SFRSYM    DATA     BIT       IPINT1
      000000D8H.3 SFRSYM    DATA     BIT       P53
      000000C0H.4 SFRSYM    DATA     BIT       P44
      000000B0H.5 SFRSYM    DATA     BIT       P35
      000000A0H.6 SFRSYM    DATA     BIT       P26
      00000090H.7 SFRSYM    DATA     BIT       P17
      000000FDH   SFRSYM    DATA     BYTE      CRCREG
      000000D8H.4 SFRSYM    DATA     BIT       P54
      000000C0H.5 SFRSYM    DATA     BIT       P45
      000000B0H.6 SFRSYM    DATA     BIT       P36
      000000A0H.7 SFRSYM    DATA     BIT       P27
      000000D8H.5 SFRSYM    DATA     BIT       P55
      000000C0H.6 SFRSYM    DATA     BIT       P46
      000000B0H.7 SFRSYM    DATA     BIT       P37
      000000C0H.7 SFRSYM    DATA     BIT       P47
      000000C8H.6 SFRSYM    DATA     BIT       EXFX
      00000093H   SFRSYM    DATA     BYTE      DDRCON
      000000F6H   SFRSYM    DATA     BYTE      IAPCTL
      000000A9H   SFRSYM    DATA     BYTE      IE1
      000000AAH   SFRSYM    DATA     BYTE      IE2
      000000F0H   SFRSYM    DATA     BYTE      B
      000000B7H   SFRSYM    DATA     BYTE      CMPCON
      000000F1H   SFRSYM    DATA     BYTE      IAPKEY
      000000FBH   SFRSYM    DATA     BYTE      BTMCON
      000000D1H   SFRSYM    DATA     BYTE      PWMCFG
      000000E0H   SFRSYM    DATA     BYTE      ACC
      000000CBH   SFRSYM    DATA     BYTE      RCAPXH
      000000A8H.1 SFRSYM    DATA     BIT       ET0
      000000FCH   SFRSYM    DATA     BYTE      CRCINX
      00000088H.5 SFRSYM    DATA     BIT       TF0
      000000A8H.3 SFRSYM    DATA     BIT       ET1
      000000ABH   SFRSYM    DATA     BYTE      ADCCFG0
      000000B9H   SFRSYM    DATA     BYTE      IP1
      00000088H.7 SFRSYM    DATA     BIT       TF1
      000000A8H.5 SFRSYM    DATA     BIT       ET2
      000000ACH   SFRSYM    DATA     BYTE      ADCCFG1
      000000BAH   SFRSYM    DATA     BYTE      IP2
      00000098H.2 SFRSYM    DATA     BIT       RB8
      000000B5H   SFRSYM    DATA     BYTE      ADCCFG2
      000000CAH   SFRSYM    DATA     BYTE      RCAPXL
      0000008CH   SFRSYM    DATA     BYTE      TH0
      0000008DH   SFRSYM    DATA     BYTE      TH1
      00000098H.3 SFRSYM    DATA     BIT       TB8
      000000D0H.0 SFRSYM    DATA     BIT       P
      00000098H.7 SFRSYM    DATA     BIT       SM0
      0000008AH   SFRSYM    DATA     BYTE      TL0
      00000098H.6 SFRSYM    DATA     BIT       SM1
      000000CFH   SFRSYM    DATA     BYTE      WDTCON
      0000008BH   SFRSYM    DATA     BYTE      TL1
      00000098H.5 SFRSYM    DATA     BIT       SM2
      000000D6H   SFRSYM    DATA     BYTE      PWMDFR
      000000D5H   SFRSYM    DATA     BYTE      PWMPDH
      000000D0H.3 SFRSYM    DATA     BIT       RS0
LX51 LINKER/LOCATER V4.66.87.0                                                        04/03/2025  09:53:25  PAGE 58


      00000088H.4 SFRSYM    DATA     BIT       TR0
      000000D0H.4 SFRSYM    DATA     BIT       RS1
      000000D4H   SFRSYM    DATA     BYTE      PWMPDL
      00000088H.6 SFRSYM    DATA     BIT       TR1
      000000B8H.4 SFRSYM    DATA     BIT       IPUART
      000000D7H   SFRSYM    DATA     BYTE      PWMFLT
      00000083H   SFRSYM    DATA     BYTE      DPH
      00000082H   SFRSYM    DATA     BYTE      DPL
      000000A8H.0 SFRSYM    DATA     BIT       EINT0
      0000009AH   SFRSYM    DATA     BYTE      P0CON
      000000A8H.2 SFRSYM    DATA     BIT       EINT1
      000000B8H.6 SFRSYM    DATA     BIT       IPADC
      000000B4H   SFRSYM    DATA     BYTE      INT0F
      00000091H   SFRSYM    DATA     BYTE      P1CON
      000000BCH   SFRSYM    DATA     BYTE      INT1F
      000000A1H   SFRSYM    DATA     BYTE      P2CON
      000000BEH   SFRSYM    DATA     BYTE      INT2F
      000000B1H   SFRSYM    DATA     BYTE      P3CON
      00000098H.4 SFRSYM    DATA     BIT       REN
      000000C1H   SFRSYM    DATA     BYTE      P4CON
      000000D9H   SFRSYM    DATA     BYTE      P5CON
      000000AFH   SFRSYM    DATA     BYTE      ADCVH
      00000086H   SFRSYM    DATA     BYTE      DPS
      00000095H   SFRSYM    DATA     BYTE      US0CON0
      000000A4H   SFRSYM    DATA     BYTE      US1CON0
      0000009DH   SFRSYM    DATA     BYTE      US0CON1
      000000AEH   SFRSYM    DATA     BYTE      ADCVL
      000000F7H   SFRSYM    DATA     BYTE      EXADH
      000000A5H   SFRSYM    DATA     BYTE      US1CON1
      0000009EH   SFRSYM    DATA     BYTE      US0CON2
      000000A6H   SFRSYM    DATA     BYTE      US1CON2
      0000009FH   SFRSYM    DATA     BYTE      US0CON3
      000000A7H   SFRSYM    DATA     BYTE      US1CON3
      000000BBH   SFRSYM    DATA     BYTE      INT0R
      000000BDH   SFRSYM    DATA     BYTE      INT1R
      000000BFH   SFRSYM    DATA     BYTE      INT2R
      000000DCH   SFRSYM    DATA     BYTE      USXINX
      000000C8H.7 SFRSYM    DATA     BIT       TFX
      00000096H   SFRSYM    DATA     BYTE      IOHCON0
      00000097H   SFRSYM    DATA     BYTE      IOHCON1
      000000CDH   SFRSYM    DATA     BYTE      THX
      000000D0H.5 SFRSYM    DATA     BIT       F0
      000000D0H.1 SFRSYM    DATA     BIT       F1
      000000CCH   SFRSYM    DATA     BYTE      TLX
      000000D0H   SFRSYM    DATA     BYTE      PSW

      01001DC5H   BLOCK     CODE     ---       LVL=0
      01001DC5H   LINE      ---      ---       #53
      01001DC5H   LINE      ---      ---       #54
      01001DC5H   LINE      ---      ---       #56
      01001DDFH   LINE      ---      ---       #57
      01001DDFH   LINE      ---      ---       #58
      01001DDFH   LINE      ---      ---       #59
      01001DDFH   LINE      ---      ---       #60
      01001DECH   LINE      ---      ---       #61
      01001DECH   LINE      ---      ---       #63
      01001DECH   LINE      ---      ---       #64
      01001DF0H   LINE      ---      ---       #65
      01001DF2H   LINE      ---      ---       #66
      01001DF3H   LINE      ---      ---       #68
      01001DF3H   LINE      ---      ---       #69
      01001DF7H   LINE      ---      ---       #70
      01001DFAH   LINE      ---      ---       #71
      01001DFBH   LINE      ---      ---       #73
      01001DFBH   LINE      ---      ---       #74
LX51 LINKER/LOCATER V4.66.87.0                                                        04/03/2025  09:53:25  PAGE 59


      01001DFEH   LINE      ---      ---       #75
      01001DFFH   LINE      ---      ---       #76
      01001DFFH   LINE      ---      ---       #77
      01001DFFH   LINE      ---      ---       #78
      01001DFFH   LINE      ---      ---       #79
      01001DFFH   LINE      ---      ---       #80
      01001DFFH   LINE      ---      ---       #81
      01001DFFH   LINE      ---      ---       #82
      01001DFFH   LINE      ---      ---       #83
      01001E0CH   LINE      ---      ---       #84
      01001E0CH   LINE      ---      ---       #86
      01001E0CH   LINE      ---      ---       #87
      01001E10H   LINE      ---      ---       #88
      01001E12H   LINE      ---      ---       #89
      01001E13H   LINE      ---      ---       #91
      01001E13H   LINE      ---      ---       #92
      01001E17H   LINE      ---      ---       #93
      01001E1AH   LINE      ---      ---       #94
      01001E1BH   LINE      ---      ---       #96
      01001E1BH   LINE      ---      ---       #97
      01001E1EH   LINE      ---      ---       #98
      01001E1FH   LINE      ---      ---       #99
      01001E1FH   LINE      ---      ---       #100
      01001E1FH   LINE      ---      ---       #101
      01001E1FH   LINE      ---      ---       #102
