BL51 BANKED LINKER/LOCATER V6.22.2.0                                                    11/20/2022  10:56:56  PAGE 1


BL51 BANKED LINKER/LOCATER V6.22.2.0, INVOKED BY:
C:\KEIL_V5\C51\BIN\BL51.EXE .\Objects\STARTUP.obj, .\Objects\main.obj, .\Objects\delay.obj, .\Objects\st7789.obj TO .\Ob
>> jects\TFT PRINT (.\Listings\TFT.m51) RAMSIZE (256)


MEMORY MODEL: SMALL


INPUT MODULES INCLUDED:
  .\Objects\STARTUP.obj (?C_STARTUP)
  .\Objects\main.obj (MAIN)
  .\Objects\delay.obj (DELAY)
  .\Objects\st7789.obj (ST7789)


LINK MAP OF MODULE:  .\Objects\TFT (?C_STARTUP)


            TYPE    BASE      LENGTH    RELOCATION   SEGMENT NAME
            -----------------------------------------------------

            * * * * * * *   D A T A   M E M O R Y   * * * * * * *
            REG     0000H     0008H     ABSOLUTE     "REG BANK 0"
            DATA    0008H     000AH     UNIT         _DATA_GROUP_
            IDATA   0012H     0001H     UNIT         ?STACK

            * * * * * * *   C O D E   M E M O R Y   * * * * * * *
            CODE    0000H     0003H     ABSOLUTE     
            CODE    0003H     00EEH     UNIT         ?PR?LCD_INIT?ST7789
            CODE    00F1H     0041H     UNIT         ?PR?MAIN?MAIN
            CODE    0132H     003FH     UNIT         ?PR?_LCD_CLEAR?ST7789
            CODE    0171H     0038H     UNIT         ?PR?_LCD_SETAREA?ST7789
            CODE    01A9H     002BH     UNIT         ?PR?_LCD_WR_DATA?ST7789
            CODE    01D4H     001AH     UNIT         ?PR?IO_INIT?MAIN
            CODE    01EEH     0014H     UNIT         ?PR?_DELAY_MS?DELAY
            CODE    0202H     0013H     UNIT         ?PR?_LCDWIRTECOLORDATA?ST7789
            CODE    0215H     000CH     UNIT         ?C_C51STARTUP
            CODE    0221H     000BH     UNIT         ?PR?DELAY1MS?DELAY
            CODE    022CH     0009H     UNIT         ?PR?_LCD_WR_REG?ST7789



OVERLAY MAP OF MODULE:   .\Objects\TFT (?C_STARTUP)


SEGMENT                                 DATA_GROUP 
  +--> CALLED SEGMENT                 START    LENGTH
-----------------------------------------------------
?C_C51STARTUP                         -----    -----
  +--> ?PR?MAIN?MAIN

?PR?MAIN?MAIN                         -----    -----
  +--> ?PR?IO_INIT?MAIN
  +--> ?PR?LCD_INIT?ST7789
  +--> ?PR?_LCD_CLEAR?ST7789
  +--> ?PR?_DELAY_MS?DELAY

?PR?LCD_INIT?ST7789                   -----    -----
BL51 BANKED LINKER/LOCATER V6.22.2.0                                                  11/20/2022  10:56:56  PAGE 2


  +--> ?PR?_DELAY_MS?DELAY
  +--> ?PR?_LCD_WR_REG?ST7789
  +--> ?PR?_LCD_WR_DATA?ST7789

?PR?_DELAY_MS?DELAY                   -----    -----
  +--> ?PR?DELAY1MS?DELAY

?PR?_LCD_CLEAR?ST7789                 0008H    0002H
  +--> ?PR?_LCD_SETAREA?ST7789
  +--> ?PR?_LCD_WR_REG?ST7789
  +--> ?PR?_LCDWIRTECOLORDATA?ST7789

?PR?_LCD_SETAREA?ST7789               000AH    0008H
  +--> ?PR?_LCD_WR_REG?ST7789
  +--> ?PR?_LCD_WR_DATA?ST7789



SYMBOL TABLE OF MODULE:  .\Objects\TFT (?C_STARTUP)

  VALUE           TYPE          NAME
  ----------------------------------

  -------         MODULE        ?C_STARTUP
  C:0215H         SEGMENT       ?C_C51STARTUP
  I:0012H         SEGMENT       ?STACK
  C:0000H         PUBLIC        ?C_STARTUP
  D:00E0H         SYMBOL        ACC
  D:00F0H         SYMBOL        B
  D:0083H         SYMBOL        DPH
  D:0082H         SYMBOL        DPL
  N:0000H         SYMBOL        IBPSTACK
  N:0100H         SYMBOL        IBPSTACKTOP
  N:0080H         SYMBOL        IDATALEN
  C:0218H         SYMBOL        IDATALOOP
  N:0000H         SYMBOL        PBPSTACK
  N:0100H         SYMBOL        PBPSTACKTOP
  N:0000H         SYMBOL        PDATALEN
  N:0000H         SYMBOL        PDATASTART
  N:0000H         SYMBOL        PPAGE
  N:0000H         SYMBOL        PPAGEENABLE
  D:00A0H         SYMBOL        PPAGE_SFR
  D:0081H         SYMBOL        SP
  C:0215H         SYMBOL        STARTUP1
  N:0000H         SYMBOL        XBPSTACK
  N:0000H         SYMBOL        XBPSTACKTOP
  N:0000H         SYMBOL        XDATALEN
  N:0000H         SYMBOL        XDATASTART
  C:0000H         LINE#         126
  C:0215H         LINE#         133
  C:0217H         LINE#         134
  C:0218H         LINE#         135
  C:0219H         LINE#         136
  C:021BH         LINE#         185
  C:021EH         LINE#         196
  -------         ENDMOD        ?C_STARTUP

BL51 BANKED LINKER/LOCATER V6.22.2.0                                                  11/20/2022  10:56:56  PAGE 3


  -------         MODULE        MAIN
  C:0000H         SYMBOL        _ICE_DUMMY_
  D:0093H         PUBLIC        P0M1
  D:0092H         PUBLIC        P1M0
  D:0096H         PUBLIC        P2M0
  D:0091H         PUBLIC        P1M1
  D:0080H         PUBLIC        P0
  D:00B2H         PUBLIC        P3M0
  D:0095H         PUBLIC        P2M1
  D:0090H         PUBLIC        P1
  D:00B4H         PUBLIC        P4M0
  D:00B1H         PUBLIC        P3M1
  D:00A0H         PUBLIC        P2
  D:00CAH         PUBLIC        P5M0
  D:00B3H         PUBLIC        P4M1
  D:00B0H         PUBLIC        P3
  D:00C9H         PUBLIC        P5M1
  D:00C0H         PUBLIC        P4
  D:00C8H         PUBLIC        P5
  B:0080H.5       PUBLIC        LED_R
  D:00A8H         PUBLIC        IE
  C:01D4H         PUBLIC        IO_Init
  B:0080H.6       PUBLIC        LED_Y
  D:00B8H         PUBLIC        IP
  D:00D8H         PUBLIC        CCON
  C:00F1H         PUBLIC        main
  D:0098H         PUBLIC        SCON
  D:0088H         PUBLIC        TCON
  B:00B0H.4       PUBLIC        TFT_BL
  D:00D0H         PUBLIC        PSW
  B:0080H.7       PUBLIC        LED_G
  D:0094H         PUBLIC        P0M0
  -------         PROC          IO_INIT
  C:01D4H         LINE#         18
  C:01D4H         LINE#         19
  C:01D4H         LINE#         20
  C:01D7H         LINE#         21
  C:01D9H         LINE#         22
  C:01DBH         LINE#         23
  C:01DDH         LINE#         24
  C:01DFH         LINE#         25
  C:01E1H         LINE#         26
  C:01E3H         LINE#         27
  C:01E5H         LINE#         28
  C:01E7H         LINE#         29
  C:01E9H         LINE#         30
  C:01EBH         LINE#         31
  C:01EDH         LINE#         32
  -------         ENDPROC       IO_INIT
  -------         PROC          MAIN
  C:00F1H         LINE#         35
  C:00F1H         LINE#         36
  C:00F1H         LINE#         37
  C:00F4H         LINE#         38
  C:00F6H         LINE#         40
  C:00F9H         LINE#         41
  C:0100H         LINE#         43
BL51 BANKED LINKER/LOCATER V6.22.2.0                                                  11/20/2022  10:56:56  PAGE 4


  C:0100H         LINE#         44
  C:0100H         LINE#         45
  C:0107H         LINE#         46
  C:0109H         LINE#         47
  C:0110H         LINE#         49
  C:0117H         LINE#         50
  C:0119H         LINE#         51
  C:0120H         LINE#         53
  C:0127H         LINE#         54
  C:0129H         LINE#         55
  C:0130H         LINE#         56
  -------         ENDPROC       MAIN
  -------         ENDMOD        MAIN

  -------         MODULE        DELAY
  C:0000H         SYMBOL        _ICE_DUMMY_
  D:0080H         PUBLIC        P0
  D:0090H         PUBLIC        P1
  D:00A0H         PUBLIC        P2
  D:00B0H         PUBLIC        P3
  D:00C0H         PUBLIC        P4
  C:0221H         PUBLIC        Delay1ms
  D:00C8H         PUBLIC        P5
  D:00A8H         PUBLIC        IE
  D:00B8H         PUBLIC        IP
  D:00D8H         PUBLIC        CCON
  D:0098H         PUBLIC        SCON
  D:0088H         PUBLIC        TCON
  C:01EEH         PUBLIC        _delay_ms
  D:00D0H         PUBLIC        PSW
  -------         PROC          DELAY1MS
  -------         DO            
  D:0007H         SYMBOL        i
  D:0006H         SYMBOL        j
  -------         ENDDO         
  C:0221H         LINE#         5
  C:0221H         LINE#         6
  C:0221H         LINE#         9
  C:0222H         LINE#         10
  C:0223H         LINE#         11
  C:0225H         LINE#         12
  C:0227H         LINE#         14
  C:0227H         LINE#         15
  C:0229H         LINE#         16
  C:022BH         LINE#         17
  -------         ENDPROC       DELAY1MS
  -------         PROC          _DELAY_MS
  D:0004H         SYMBOL        ms
  C:01EEH         LINE#         20
  C:01F2H         LINE#         21
  C:01F2H         LINE#         22
  C:01FCH         LINE#         23
  C:01FCH         LINE#         24
  C:01FFH         LINE#         25
  C:0201H         LINE#         26
  -------         ENDPROC       _DELAY_MS
  -------         ENDMOD        DELAY
BL51 BANKED LINKER/LOCATER V6.22.2.0                                                  11/20/2022  10:56:56  PAGE 5



  -------         MODULE        ST7789
  C:0000H         SYMBOL        _ICE_DUMMY_
  D:0080H         PUBLIC        P0
  D:0090H         PUBLIC        P1
  D:00A0H         PUBLIC        P2
  D:00B0H         PUBLIC        P3
  D:00C0H         PUBLIC        P4
  D:00C8H         PUBLIC        P5
  D:00A8H         PUBLIC        IE
  D:00B8H         PUBLIC        IP
  C:022CH         PUBLIC        _LCD_WR_REG
  C:0132H         PUBLIC        _LCD_Clear
  C:0202H         PUBLIC        _LcdWirteColorData
  D:00D8H         PUBLIC        CCON
  D:0098H         PUBLIC        SCON
  D:0088H         PUBLIC        TCON
  C:0003H         PUBLIC        LCD_Init
  B:00C8H.0       PUBLIC        LCD_CS
  C:01CBH         PUBLIC        _LCD_WR_DATA
  B:00C8H.1       PUBLIC        LCD_RS
  C:0171H         PUBLIC        _LCD_SetArea
  B:00C0H.2       PUBLIC        LCD_WR
  D:00D0H         PUBLIC        PSW
  -------         PROC          _LCD_WR_REG
  D:0007H         SYMBOL        reg
  C:022CH         LINE#         5
  C:022CH         LINE#         6
  C:022CH         LINE#         7
  C:022EH         LINE#         9
  C:0230H         LINE#         10
  C:0232H         LINE#         11
  C:0234H         LINE#         13
  -------         ENDPROC       _LCD_WR_REG
  -------         PROC          L?0015
  -------         ENDPROC       L?0015
  -------         PROC          _LCD_WR_DATA
  D:0007H         SYMBOL        val
  C:01CBH         LINE#         16
  C:01CBH         LINE#         17
  C:01CBH         LINE#         18
  C:01CDH         LINE#         20
  C:01CFH         LINE#         21
  C:01D1H         LINE#         22
  C:01D3H         LINE#         24
  -------         ENDPROC       _LCD_WR_DATA
  -------         PROC          LCD_INIT
  C:0003H         LINE#         27
  C:0003H         LINE#         28
  C:0003H         LINE#         29
  C:0005H         LINE#         30
  C:000CH         LINE#         32
  C:0011H         LINE#         33
  C:0018H         LINE#         35
  C:001DH         LINE#         36
  C:0022H         LINE#         38
  C:0027H         LINE#         39
BL51 BANKED LINKER/LOCATER V6.22.2.0                                                  11/20/2022  10:56:56  PAGE 6


  C:002CH         LINE#         41
  C:0031H         LINE#         42
  C:0036H         LINE#         43
  C:0039H         LINE#         44
  C:003EH         LINE#         45
  C:0043H         LINE#         46
  C:0046H         LINE#         48
  C:004BH         LINE#         49
  C:0050H         LINE#         51
  C:0055H         LINE#         52
  C:005AH         LINE#         54
  C:005FH         LINE#         55
  C:0064H         LINE#         57
  C:0069H         LINE#         58
  C:006EH         LINE#         60
  C:0073H         LINE#         61
  C:0078H         LINE#         63
  C:007DH         LINE#         64
  C:0082H         LINE#         66
  C:0087H         LINE#         67
  C:008CH         LINE#         69
  C:0091H         LINE#         70
  C:0096H         LINE#         71
  C:009BH         LINE#         74
  C:00A0H         LINE#         75
  C:00A5H         LINE#         76
  C:00AAH         LINE#         77
  C:00AFH         LINE#         78
  C:00B4H         LINE#         79
  C:00B7H         LINE#         80
  C:00B9H         LINE#         81
  C:00B9H         LINE#         82
  C:00B9H         LINE#         83
  C:00B9H         LINE#         84
  C:00B9H         LINE#         85
  C:00B9H         LINE#         86
  C:00B9H         LINE#         87
  C:00BCH         LINE#         88
  C:00C1H         LINE#         90
  C:00C6H         LINE#         91
  C:00CBH         LINE#         92
  C:00D0H         LINE#         93
  C:00D5H         LINE#         94
  C:00DAH         LINE#         95
  C:00DDH         LINE#         96
  C:00DFH         LINE#         97
  C:00DFH         LINE#         98
  C:00DFH         LINE#         99
  C:00DFH         LINE#         100
  C:00DFH         LINE#         101
  C:00DFH         LINE#         102
  C:00DFH         LINE#         103
  C:00E2H         LINE#         104
  C:00E7H         LINE#         107
  C:00ECH         LINE#         109
  -------         ENDPROC       LCD_INIT
  -------         PROC          _LCD_SETAREA
BL51 BANKED LINKER/LOCATER V6.22.2.0                                                  11/20/2022  10:56:56  PAGE 7


  D:000AH         SYMBOL        stx
  D:0004H         SYMBOL        sty
  D:0002H         SYMBOL        endx
  D:0010H         SYMBOL        endy
  C:0171H         LINE#         113
  C:0175H         LINE#         114
  C:0175H         LINE#         115
  C:017AH         LINE#         116
  C:0180H         LINE#         117
  C:0185H         LINE#         118
  C:018AH         LINE#         119
  C:018FH         LINE#         121
  C:0194H         LINE#         122
  C:0199H         LINE#         123
  C:019EH         LINE#         124
  C:01A4H         LINE#         125
  -------         ENDPROC       _LCD_SETAREA
  -------         PROC          _LCDWIRTECOLORDATA
  D:0004H         SYMBOL        color
  C:0202H         LINE#         129
  C:0206H         LINE#         130
  C:0206H         LINE#         131
  C:0208H         LINE#         133
  C:020AH         LINE#         134
  C:020CH         LINE#         135
  C:020EH         LINE#         136
  C:0210H         LINE#         137
  C:0212H         LINE#         138
  C:0214H         LINE#         140
  -------         ENDPROC       _LCDWIRTECOLORDATA
  -------         PROC          _LCD_CLEAR
  D:0008H         SYMBOL        color
  -------         DO            
  D:0002H         SYMBOL        i
  D:0082H         SYMBOL        j
  -------         ENDDO         
  C:0132H         LINE#         143
  C:0136H         LINE#         144
  C:0136H         LINE#         147
  C:0148H         LINE#         148
  C:014DH         LINE#         149
  C:0150H         LINE#         150
  C:0150H         LINE#         151
  C:0153H         LINE#         152
  C:0153H         LINE#         153
  C:015AH         LINE#         154
  C:0165H         LINE#         155
  C:0170H         LINE#         156
  -------         ENDPROC       _LCD_CLEAR
  -------         ENDMOD        ST7789

Program Size: data=19.0 xdata=0 code=565
LINK/LOCATE RUN COMPLETE.  0 WARNING(S),  0 ERROR(S)
